{
  "contractName": "AccessControl",
  "abi": [
    {
      "anonymous": false,
      "inputs": [
        {
          "indexed": true,
          "internalType": "string",
          "name": "fileHash",
          "type": "string"
        },
        {
          "indexed": true,
          "internalType": "address",
          "name": "doctor",
          "type": "address"
        }
      ],
      "name": "AccessGranted",
      "type": "event"
    },
    {
      "anonymous": false,
      "inputs": [
        {
          "indexed": true,
          "internalType": "string",
          "name": "fileHash",
          "type": "string"
        },
        {
          "indexed": true,
          "internalType": "address",
          "name": "doctor",
          "type": "address"
        }
      ],
      "name": "AccessRevoked",
      "type": "event"
    },
    {
      "inputs": [
        {
          "internalType": "string",
          "name": "_fileHash",
          "type": "string"
        },
        {
          "internalType": "address",
          "name": "_doctor",
          "type": "address"
        }
      ],
      "name": "grantAccess",
      "outputs": [],
      "stateMutability": "nonpayable",
      "type": "function"
    },
    {
      "inputs": [
        {
          "internalType": "string",
          "name": "_fileHash",
          "type": "string"
        },
        {
          "internalType": "address",
          "name": "_doctor",
          "type": "address"
        }
      ],
      "name": "revokeAccess",
      "outputs": [],
      "stateMutability": "nonpayable",
      "type": "function"
    },
    {
      "inputs": [
        {
          "internalType": "string",
          "name": "_fileHash",
          "type": "string"
        },
        {
          "internalType": "address",
          "name": "_user",
          "type": "address"
        }
      ],
      "name": "hasAccess",
      "outputs": [
        {
          "internalType": "bool",
          "name": "",
          "type": "bool"
        }
      ],
      "stateMutability": "view",
      "type": "function"
    }
  ],
  "bytecode": "0x6080604052348015600f57600080fd5b5061085c8061001f6000396000f3fe608060405234801561001057600080fd5b50600436106100415760003560e01c806313bd20e214610046578063dfe0b5fe14610076578063f37c215e14610092575b600080fd5b610060600480360381019061005b9190610623565b6100ae565b60405161006d919061069a565b60405180910390f35b610090600480360381019061008b9190610623565b610164565b005b6100ac60048036038101906100a79190610623565b6102e7565b005b6000808351116100f3576040517f08c379a00000000000000000000000000000000000000000000000000000000081526004016100ea90610712565b60405180910390fd5b60008360405161010391906107a3565b908152602001604051809103902060008373ffffffffffffffffffffffffffffffffffffffff1673ffffffffffffffffffffffffffffffffffffffff16815260200190815260200160002060009054906101000a900460ff16905092915050565b60008251116101a8576040517f08c379a000000000000000000000000000000000000000000000000000000000815260040161019f90610712565b60405180910390fd5b600073ffffffffffffffffffffffffffffffffffffffff168173ffffffffffffffffffffffffffffffffffffffff1603610217576040517f08c379a000000000000000000000000000000000000000000000000000000000815260040161020e90610806565b60405180910390fd5b6000808360405161022891906107a3565b908152602001604051809103902060008373ffffffffffffffffffffffffffffffffffffffff1673ffffffffffffffffffffffffffffffffffffffff16815260200190815260200160002060006101000a81548160ff0219169083151502179055508073ffffffffffffffffffffffffffffffffffffffff16826040516102af91906107a3565b60405180910390207fa4056635223780a71518e8c10b6fc0fd195775c8375c4841c124a959ae5c30ad60405160405180910390a35050565b600082511161032b576040517f08c379a000000000000000000000000000000000000000000000000000000000815260040161032290610712565b60405180910390fd5b600073ffffffffffffffffffffffffffffffffffffffff168173ffffffffffffffffffffffffffffffffffffffff160361039a576040517f08c379a000000000000000000000000000000000000000000000000000000000815260040161039190610806565b60405180910390fd5b60016000836040516103ac91906107a3565b908152602001604051809103902060008373ffffffffffffffffffffffffffffffffffffffff1673ffffffffffffffffffffffffffffffffffffffff16815260200190815260200160002060006101000a81548160ff0219169083151502179055508073ffffffffffffffffffffffffffffffffffffffff168260405161043391906107a3565b60405180910390207f780f596ecb91e1e030f57631a828b4c1f227615c1e11422248348930f6d2160c60405160405180910390a35050565b6000604051905090565b600080fd5b600080fd5b600080fd5b600080fd5b6000601f19601f8301169050919050565b7f4e487b7100000000000000000000000000000000000000000000000000000000600052604160045260246000fd5b6104d282610489565b810181811067ffffffffffffffff821117156104f1576104f061049a565b5b80604052505050565b600061050461046b565b905061051082826104c9565b919050565b600067ffffffffffffffff8211156105305761052f61049a565b5b61053982610489565b9050602081019050919050565b82818337600083830152505050565b600061056861056384610515565b6104fa565b90508281526020810184848401111561058457610583610484565b5b61058f848285610546565b509392505050565b600082601f8301126105ac576105ab61047f565b5b81356105bc848260208601610555565b91505092915050565b600073ffffffffffffffffffffffffffffffffffffffff82169050919050565b60006105f0826105c5565b9050919050565b610600816105e5565b811461060b57600080fd5b50565b60008135905061061d816105f7565b92915050565b6000806040838503121561063a57610639610475565b5b600083013567ffffffffffffffff8111156106585761065761047a565b5b61066485828601610597565b92505060206106758582860161060e565b9150509250929050565b60008115159050919050565b6106948161067f565b82525050565b60006020820190506106af600083018461068b565b92915050565b600082825260208201905092915050565b7f496e76616c69642066696c652068617368000000000000000000000000000000600082015250565b60006106fc6011836106b5565b9150610707826106c6565b602082019050919050565b6000602082019050818103600083015261072b816106ef565b9050919050565b600081519050919050565b600081905092915050565b60005b8381101561076657808201518184015260208101905061074b565b60008484015250505050565b600061077d82610732565b610787818561073d565b9350610797818560208601610748565b80840191505092915050565b60006107af8284610772565b915081905092915050565b7f496e76616c696420646f63746f72206164647265737300000000000000000000600082015250565b60006107f06016836106b5565b91506107fb826107ba565b602082019050919050565b6000602082019050818103600083015261081f816107e3565b905091905056fea2646970667358221220805a5b7dbed388bd46ca66af23b00534bac079758bac0ef2060e10aa2b3b1dac64736f6c634300081e0033",
  "immutableReferences": {},
  "source": "// SPDX-License-Identifier: MIT\r\npragma solidity ^0.8.20;\r\n\r\ncontract AccessControl {\r\n    // fileHash (string) => (doctor address => access granted)\r\n    mapping(string => mapping(address => bool)) private fileAccess;\r\n\r\n    event AccessGranted(string indexed fileHash, address indexed doctor);\r\n    event AccessRevoked(string indexed fileHash, address indexed doctor);\r\n\r\n    /**\r\n     * @notice Grant access to a doctor for a specific file\r\n     * @param _fileHash - IPFS hash of the file (string)\r\n     * @param _doctor - Address of doctor to be granted access\r\n     */\r\n    function grantAccess(string memory _fileHash, address _doctor) external {\r\n        require(bytes(_fileHash).length > 0, \"Invalid file hash\");\r\n        require(_doctor != address(0), \"Invalid doctor address\");\r\n\r\n        fileAccess[_fileHash][_doctor] = true;\r\n        emit AccessGranted(_fileHash, _doctor);\r\n    }\r\n\r\n    /**\r\n     * @notice Revoke access for a doctor to a specific file\r\n     * @param _fileHash - IPFS hash (string)\r\n     * @param _doctor - Address of doctor whose access will be revoked\r\n     */\r\n    function revokeAccess(string memory _fileHash, address _doctor) external {\r\n        require(bytes(_fileHash).length > 0, \"Invalid file hash\");\r\n        require(_doctor != address(0), \"Invalid doctor address\");\r\n\r\n        fileAccess[_fileHash][_doctor] = false;\r\n        emit AccessRevoked(_fileHash, _doctor);\r\n    }\r\n\r\n    /**\r\n     * @notice Check if a user has access to a specific file\r\n     * @param _fileHash - IPFS hash (string)\r\n     * @param _user - Address to check\r\n     * @return bool - True if user has access\r\n     */\r\n    function hasAccess(string memory _fileHash, address _user) external view returns (bool) {\r\n        require(bytes(_fileHash).length > 0, \"Invalid file hash\");\r\n        return fileAccess[_fileHash][_user];\r\n    }\r\n}\r\n",
  "sourcePath": "C:\\Users\\hp\\OneDrive\\Desktop\\Projects\\Med_Vault\\Blockchain\\contracts\\AccessControl.sol",
  "compiler": {
    "name": "solc",
    "version": "0.8.30+commit.73712a01.Emscripten.clang"
  },
  "schemaVersion": "3.4.16",
  "updatedAt": "2025-11-03T19:35:11.620Z",
  "devdoc": {
    "kind": "dev",
    "methods": {
      "grantAccess(string,address)": {
        "params": {
          "_doctor": "- Address of doctor to be granted access",
          "_fileHash": "- IPFS hash of the file (string)"
        }
      },
      "hasAccess(string,address)": {
        "params": {
          "_fileHash": "- IPFS hash (string)",
          "_user": "- Address to check"
        },
        "returns": {
          "_0": "bool - True if user has access"
        }
      },
      "revokeAccess(string,address)": {
        "params": {
          "_doctor": "- Address of doctor whose access will be revoked",
          "_fileHash": "- IPFS hash (string)"
        }
      }
    },
    "version": 1
  },
  "userdoc": {
    "kind": "user",
    "methods": {
      "grantAccess(string,address)": {
        "notice": "Grant access to a doctor for a specific file"
      },
      "hasAccess(string,address)": {
        "notice": "Check if a user has access to a specific file"
      },
      "revokeAccess(string,address)": {
        "notice": "Revoke access for a doctor to a specific file"
      }
    },
    "version": 1
  }
}