{
  "contractName": "AccessControl",
  "abi": [
    {
      "anonymous": false,
      "inputs": [
        {
          "indexed": true,
          "internalType": "string",
          "name": "fileHash",
          "type": "string"
        },
        {
          "indexed": true,
          "internalType": "address",
          "name": "doctor",
          "type": "address"
        }
      ],
      "name": "AccessGranted",
      "type": "event"
    },
    {
      "anonymous": false,
      "inputs": [
        {
          "indexed": true,
          "internalType": "string",
          "name": "fileHash",
          "type": "string"
        },
        {
          "indexed": true,
          "internalType": "address",
          "name": "doctor",
          "type": "address"
        }
      ],
      "name": "AccessRevoked",
      "type": "event"
    },
    {
      "inputs": [
        {
          "internalType": "string",
          "name": "_fileHash",
          "type": "string"
        },
        {
          "internalType": "address",
          "name": "_doctor",
          "type": "address"
        }
      ],
      "name": "grantAccess",
      "outputs": [],
      "stateMutability": "nonpayable",
      "type": "function"
    },
    {
      "inputs": [
        {
          "internalType": "string",
          "name": "_fileHash",
          "type": "string"
        },
        {
          "internalType": "address",
          "name": "_doctor",
          "type": "address"
        }
      ],
      "name": "revokeAccess",
      "outputs": [],
      "stateMutability": "nonpayable",
      "type": "function"
    },
    {
      "inputs": [
        {
          "internalType": "string",
          "name": "_fileHash",
          "type": "string"
        },
        {
          "internalType": "address",
          "name": "_user",
          "type": "address"
        }
      ],
      "name": "hasAccess",
      "outputs": [
        {
          "internalType": "bool",
          "name": "",
          "type": "bool"
        }
      ],
      "stateMutability": "view",
      "type": "function",
      "constant": true
    },
    {
      "inputs": [
        {
          "internalType": "address",
          "name": "_doctor",
          "type": "address"
        }
      ],
      "name": "getFilesForDoctor",
      "outputs": [
        {
          "internalType": "string[]",
          "name": "activeFileHashes",
          "type": "string[]"
        }
      ],
      "stateMutability": "view",
      "type": "function",
      "constant": true
    },
    {
      "inputs": [
        {
          "internalType": "string",
          "name": "_fileHash",
          "type": "string"
        }
      ],
      "name": "getDoctorsForFile",
      "outputs": [
        {
          "internalType": "address[]",
          "name": "activeDoctors",
          "type": "address[]"
        }
      ],
      "stateMutability": "view",
      "type": "function",
      "constant": true
    }
  ],
  "bytecode": "0x6080604052348015600f57600080fd5b506117f88061001f6000396000f3fe608060405234801561001057600080fd5b50600436106100575760003560e01c806313bd20e21461005c578063615dbc4e1461008c578063dfe0b5fe146100bc578063f37c215e146100d8578063fcef7439146100f4575b600080fd5b61007660048036038101906100719190610e7f565b610124565b6040516100839190610ef6565b60405180910390f35b6100a660048036038101906100a19190610f11565b6101da565b6040516100b39190611018565b60405180910390f35b6100d660048036038101906100d19190610e7f565b610286565b005b6100f260048036038101906100ed9190610e7f565b610730565b005b61010e6004803603810190610109919061103a565b610b52565b60405161011b91906111a8565b60405180910390f35b600080835111610169576040517f08c379a000000000000000000000000000000000000000000000000000000000815260040161016090611227565b60405180910390fd5b6000836040516101799190611283565b908152602001604051809103902060008373ffffffffffffffffffffffffffffffffffffffff1673ffffffffffffffffffffffffffffffffffffffff16815260200190815260200160002060009054906101000a900460ff16905092915050565b60606002826040516101ec9190611283565b908152602001604051809103902080548060200260200160405190810160405280929190818152602001828054801561027a57602002820191906000526020600020905b8160009054906101000a900473ffffffffffffffffffffffffffffffffffffffff1673ffffffffffffffffffffffffffffffffffffffff1681526020019060010190808311610230575b50505050509050919050565b60008251116102ca576040517f08c379a00000000000000000000000000000000000000000000000000000000081526004016102c190611227565b60405180910390fd5b600073ffffffffffffffffffffffffffffffffffffffff168173ffffffffffffffffffffffffffffffffffffffff1603610339576040517f08c379a0000000000000000000000000000000000000000000000000000000008152600401610330906112e6565b60405180910390fd5b6000826040516103499190611283565b908152602001604051809103902060008273ffffffffffffffffffffffffffffffffffffffff1673ffffffffffffffffffffffffffffffffffffffff16815260200190815260200160002060009054906101000a900460ff161561072c57600080836040516103b89190611283565b908152602001604051809103902060008373ffffffffffffffffffffffffffffffffffffffff1673ffffffffffffffffffffffffffffffffffffffff16815260200190815260200160002060006101000a81548160ff0219169083151502179055506000600360008373ffffffffffffffffffffffffffffffffffffffff1673ffffffffffffffffffffffffffffffffffffffff168152602001908152602001600020836040516104699190611283565b90815260200160405180910390205490506000600160008473ffffffffffffffffffffffffffffffffffffffff1673ffffffffffffffffffffffffffffffffffffffff168152602001908152602001600020905080805490508210156105505780600182805490506104db919061133f565b815481106104ec576104eb611373565b5b9060005260206000200181838154811061050957610508611373565b5b90600052602060002001908161051f91906115d9565b5080805480610531576105306116c1565b5b60019003818190600052602060002001600061054d9190610c6a565b90555b60006004856040516105629190611283565b908152602001604051809103902060008573ffffffffffffffffffffffffffffffffffffffff1673ffffffffffffffffffffffffffffffffffffffff16815260200190815260200160002054905060006002866040516105c29190611283565b9081526020016040518091039020905080805490508210156106ce5780600182805490506105f0919061133f565b8154811061060157610600611373565b5b9060005260206000200160009054906101000a900473ffffffffffffffffffffffffffffffffffffffff1681838154811061063f5761063e611373565b5b9060005260206000200160006101000a81548173ffffffffffffffffffffffffffffffffffffffff021916908373ffffffffffffffffffffffffffffffffffffffff16021790555080805480610698576106976116c1565b5b6001900381819060005260206000200160006101000a81549073ffffffffffffffffffffffffffffffffffffffff021916905590555b8473ffffffffffffffffffffffffffffffffffffffff16866040516106f39190611283565b60405180910390207fa4056635223780a71518e8c10b6fc0fd195775c8375c4841c124a959ae5c30ad60405160405180910390a3505050505b5050565b6000825111610774576040517f08c379a000000000000000000000000000000000000000000000000000000000815260040161076b90611227565b60405180910390fd5b600073ffffffffffffffffffffffffffffffffffffffff168173ffffffffffffffffffffffffffffffffffffffff16036107e3576040517f08c379a00000000000000000000000000000000000000000000000000000000081526004016107da906112e6565b60405180910390fd5b600080836040516107f49190611283565b908152602001604051809103902060008373ffffffffffffffffffffffffffffffffffffffff1673ffffffffffffffffffffffffffffffffffffffff16815260200190815260200160002060009054906101000a900460ff16905080610b4d5760016000846040516108669190611283565b908152602001604051809103902060008473ffffffffffffffffffffffffffffffffffffffff1673ffffffffffffffffffffffffffffffffffffffff16815260200190815260200160002060006101000a81548160ff021916908315150217905550600160008373ffffffffffffffffffffffffffffffffffffffff1673ffffffffffffffffffffffffffffffffffffffff1681526020019081526020016000208390806001815401808255809150506001900390600052602060002001600090919091909150908161093991906116f0565b5060018060008473ffffffffffffffffffffffffffffffffffffffff1673ffffffffffffffffffffffffffffffffffffffff16815260200190815260200160002080549050610988919061133f565b600360008473ffffffffffffffffffffffffffffffffffffffff1673ffffffffffffffffffffffffffffffffffffffff168152602001908152602001600020846040516109d59190611283565b9081526020016040518091039020819055506002836040516109f79190611283565b9081526020016040518091039020829080600181540180825580915050600190039060005260206000200160009091909190916101000a81548173ffffffffffffffffffffffffffffffffffffffff021916908373ffffffffffffffffffffffffffffffffffffffff1602179055506001600284604051610a789190611283565b908152602001604051809103902080549050610a94919061133f565b600484604051610aa49190611283565b908152602001604051809103902060008473ffffffffffffffffffffffffffffffffffffffff1673ffffffffffffffffffffffffffffffffffffffff168152602001908152602001600020819055508173ffffffffffffffffffffffffffffffffffffffff1683604051610b189190611283565b60405180910390207f780f596ecb91e1e030f57631a828b4c1f227615c1e11422248348930f6d2160c60405160405180910390a35b505050565b6060600160008373ffffffffffffffffffffffffffffffffffffffff1673ffffffffffffffffffffffffffffffffffffffff168152602001908152602001600020805480602002602001604051908101604052809291908181526020016000905b82821015610c5f578382906000526020600020018054610bd2906113d1565b80601f0160208091040260200160405190810160405280929190818152602001828054610bfe906113d1565b8015610c4b5780601f10610c2057610100808354040283529160200191610c4b565b820191906000526020600020905b815481529060010190602001808311610c2e57829003601f168201915b505050505081526020019060010190610bb3565b505050509050919050565b508054610c76906113d1565b6000825580601f10610c885750610ca7565b601f016020900490600052602060002090810190610ca69190610caa565b5b50565b5b80821115610cc3576000816000905550600101610cab565b5090565b6000604051905090565b600080fd5b600080fd5b600080fd5b600080fd5b6000601f19601f8301169050919050565b7f4e487b7100000000000000000000000000000000000000000000000000000000600052604160045260246000fd5b610d2e82610ce5565b810181811067ffffffffffffffff82111715610d4d57610d4c610cf6565b5b80604052505050565b6000610d60610cc7565b9050610d6c8282610d25565b919050565b600067ffffffffffffffff821115610d8c57610d8b610cf6565b5b610d9582610ce5565b9050602081019050919050565b82818337600083830152505050565b6000610dc4610dbf84610d71565b610d56565b905082815260208101848484011115610de057610ddf610ce0565b5b610deb848285610da2565b509392505050565b600082601f830112610e0857610e07610cdb565b5b8135610e18848260208601610db1565b91505092915050565b600073ffffffffffffffffffffffffffffffffffffffff82169050919050565b6000610e4c82610e21565b9050919050565b610e5c81610e41565b8114610e6757600080fd5b50565b600081359050610e7981610e53565b92915050565b60008060408385031215610e9657610e95610cd1565b5b600083013567ffffffffffffffff811115610eb457610eb3610cd6565b5b610ec085828601610df3565b9250506020610ed185828601610e6a565b9150509250929050565b60008115159050919050565b610ef081610edb565b82525050565b6000602082019050610f0b6000830184610ee7565b92915050565b600060208284031215610f2757610f26610cd1565b5b600082013567ffffffffffffffff811115610f4557610f44610cd6565b5b610f5184828501610df3565b91505092915050565b600081519050919050565b600082825260208201905092915050565b6000819050602082019050919050565b610f8f81610e41565b82525050565b6000610fa18383610f86565b60208301905092915050565b6000602082019050919050565b6000610fc582610f5a565b610fcf8185610f65565b9350610fda83610f76565b8060005b8381101561100b578151610ff28882610f95565b9750610ffd83610fad565b925050600181019050610fde565b5085935050505092915050565b600060208201905081810360008301526110328184610fba565b905092915050565b6000602082840312156110505761104f610cd1565b5b600061105e84828501610e6a565b91505092915050565b600081519050919050565b600082825260208201905092915050565b6000819050602082019050919050565b600081519050919050565b600082825260208201905092915050565b60005b838110156110cd5780820151818401526020810190506110b2565b60008484015250505050565b60006110e482611093565b6110ee818561109e565b93506110fe8185602086016110af565b61110781610ce5565b840191505092915050565b600061111e83836110d9565b905092915050565b6000602082019050919050565b600061113e82611067565b6111488185611072565b93508360208202850161115a85611083565b8060005b8581101561119657848403895281516111778582611112565b945061118283611126565b925060208a0199505060018101905061115e565b50829750879550505050505092915050565b600060208201905081810360008301526111c28184611133565b905092915050565b600082825260208201905092915050565b7f496e76616c69642066696c652068617368000000000000000000000000000000600082015250565b60006112116011836111ca565b915061121c826111db565b602082019050919050565b6000602082019050818103600083015261124081611204565b9050919050565b600081905092915050565b600061125d82611093565b6112678185611247565b93506112778185602086016110af565b80840191505092915050565b600061128f8284611252565b915081905092915050565b7f496e76616c696420646f63746f72206164647265737300000000000000000000600082015250565b60006112d06016836111ca565b91506112db8261129a565b602082019050919050565b600060208201905081810360008301526112ff816112c3565b9050919050565b6000819050919050565b7f4e487b7100000000000000000000000000000000000000000000000000000000600052601160045260246000fd5b600061134a82611306565b915061135583611306565b925082820390508181111561136d5761136c611310565b5b92915050565b7f4e487b7100000000000000000000000000000000000000000000000000000000600052603260045260246000fd5b7f4e487b7100000000000000000000000000000000000000000000000000000000600052602260045260246000fd5b600060028204905060018216806113e957607f821691505b6020821081036113fc576113fb6113a2565b5b50919050565b600081549050611411816113d1565b9050919050565b60008190508160005260206000209050919050565b60008190508160005260206000209050919050565b60006020601f8301049050919050565b600082821b905092915050565b60006008830261148f7fffffffffffffffffffffffffffffffffffffffffffffffffffffffffffffffff82611452565b6114998683611452565b95508019841693508086168417925050509392505050565b6000819050919050565b60006114d66114d16114cc84611306565b6114b1565b611306565b9050919050565b6000819050919050565b6114f0836114bb565b6115046114fc826114dd565b84845461145f565b825550505050565b600090565b61151961150c565b6115248184846114e7565b505050565b5b818110156115485761153d600082611511565b60018101905061152a565b5050565b601f82111561158d5761155e81611418565b61156784611442565b81016020851015611576578190505b61158a61158285611442565b830182611529565b50505b505050565b600082821c905092915050565b60006115b060001984600802611592565b1980831691505092915050565b60006115c9838361159f565b9150826002028217905092915050565b8181036115e75750506116bf565b6115f082611402565b67ffffffffffffffff81111561160957611608610cf6565b5b61161382546113d1565b61161e82828561154c565b6000601f83116001811461164d576000841561163b578287015490505b61164585826115bd565b8655506116b8565b601f19841661165b8761142d565b965061166686611418565b60005b8281101561168e57848901548255600182019150600185019450602081019050611669565b868310156116ab57848901546116a7601f89168261159f565b8355505b6001600288020188555050505b5050505050505b565b7f4e487b7100000000000000000000000000000000000000000000000000000000600052603160045260246000fd5b6116f982611093565b67ffffffffffffffff81111561171257611711610cf6565b5b61171c82546113d1565b61172782828561154c565b600060209050601f83116001811461175a5760008415611748578287015190505b61175285826115bd565b8655506117ba565b601f19841661176886611418565b60005b828110156117905784890151825560018201915060208501945060208101905061176b565b868310156117ad57848901516117a9601f89168261159f565b8355505b6001600288020188555050505b50505050505056fea26469706673582212205ae9a7966ea2b31d761f2b32a243764c62e12acd2d0fa42ddaafd89c24e9de6964736f6c634300081e0033",
  "immutableReferences": {},
  "source": "// SPDX-License-Identifier: MIT\r\npragma solidity ^0.8.20;\r\n\r\ncontract AccessControl {\r\n    // Primary storage: fileHash (string) => (doctor address => access granted)\r\n    mapping(string => mapping(address => bool)) private fileAccess;\r\n\r\n    // Doctor address => list of file hashes they have ever been granted access to\r\n    mapping(address => string[]) private doctorToFileHashes;\r\n\r\n    // File hash => list of doctor addresses who have ever been granted access\r\n    mapping(string => address[]) private fileToDoctors;\r\n\r\n    // Index maps for efficient deletion (to fix unbounded array growth)\r\n    mapping(address => mapping(string => uint256)) private doctorFileIndex;\r\n    mapping(string => mapping(address => uint256)) private fileDoctorIndex;\r\n\r\n    event AccessGranted(string indexed fileHash, address indexed doctor);\r\n    event AccessRevoked(string indexed fileHash, address indexed doctor);\r\n\r\n    // Grant access to a particular doctor\r\n    function grantAccess(string memory _fileHash, address _doctor) external {\r\n        require(bytes(_fileHash).length > 0, \"Invalid file hash\");\r\n        require(_doctor != address(0), \"Invalid doctor address\");\r\n\r\n        bool alreadyHasAccess = fileAccess[_fileHash][_doctor];\r\n\r\n        // ✅ Only grant if not already active\r\n        if (!alreadyHasAccess) {\r\n            fileAccess[_fileHash][_doctor] = true;\r\n\r\n            // Add to doctor’s list\r\n            doctorToFileHashes[_doctor].push(_fileHash);\r\n            doctorFileIndex[_doctor][_fileHash] = doctorToFileHashes[_doctor].length - 1;\r\n\r\n            // Add to file’s doctor list\r\n            fileToDoctors[_fileHash].push(_doctor);\r\n            fileDoctorIndex[_fileHash][_doctor] = fileToDoctors[_fileHash].length - 1;\r\n\r\n            emit AccessGranted(_fileHash, _doctor);\r\n        }\r\n    }\r\n\r\n    \r\n    // Revoke access for a doctor to a specific file\r\n    \r\n    function revokeAccess(string memory _fileHash, address _doctor) external {\r\n        require(bytes(_fileHash).length > 0, \"Invalid file hash\");\r\n        require(_doctor != address(0), \"Invalid doctor address\");\r\n\r\n        //  Only emit and revoke if the doctor currently has access\r\n        if (fileAccess[_fileHash][_doctor]) {\r\n            fileAccess[_fileHash][_doctor] = false;\r\n\r\n            // Remove from doctor’s active list efficiently\r\n            uint256 indexDoctor = doctorFileIndex[_doctor][_fileHash];\r\n            string[] storage fileList = doctorToFileHashes[_doctor];\r\n            if (indexDoctor < fileList.length) {\r\n                fileList[indexDoctor] = fileList[fileList.length - 1];\r\n                fileList.pop();\r\n            }\r\n\r\n            //  Remove from file’s active doctor list efficiently\r\n            uint256 indexFile = fileDoctorIndex[_fileHash][_doctor];\r\n            address[] storage doctorList = fileToDoctors[_fileHash];\r\n            if (indexFile < doctorList.length) {\r\n                doctorList[indexFile] = doctorList[doctorList.length - 1];\r\n                doctorList.pop();\r\n            }\r\n\r\n            emit AccessRevoked(_fileHash, _doctor);\r\n        }\r\n    }\r\n\r\n\r\n    // Check if a user has access to a specific file\r\n    \r\n    function hasAccess(string memory _fileHash, address _user) public view returns (bool) {\r\n        require(bytes(_fileHash).length > 0, \"Invalid file hash\");\r\n        return fileAccess[_fileHash][_user];\r\n    }\r\n\r\n    // Get all active IPFS file hashes accessible by a doctor\r\n    function getFilesForDoctor(address _doctor) external view returns (string[] memory activeFileHashes) {\r\n        return doctorToFileHashes[_doctor];\r\n    }\r\n\r\n    // Get all doctors who have active access to a specific IPFS file\r\n    function getDoctorsForFile(string memory _fileHash) external view returns (address[] memory activeDoctors) {\r\n        return fileToDoctors[_fileHash];\r\n    }\r\n}\r\n",
  "sourcePath": "C:\\Users\\hp\\OneDrive\\Desktop\\Projects\\Med_Vault\\blockchain\\contracts\\AccessControl.sol",
  "compiler": {
    "name": "solc",
    "version": "0.8.30+commit.73712a01.Emscripten.clang"
  },
  "schemaVersion": "3.4.16",
  "updatedAt": "2026-04-21T11:13:42.278Z",
  "networkType": "ethereum",
  "devdoc": {
    "kind": "dev",
    "methods": {},
    "version": 1
  },
  "userdoc": {
    "kind": "user",
    "methods": {},
    "version": 1
  }
}