{
  "contractName": "DoctorRegistry",
  "abi": [
    {
      "inputs": [],
      "stateMutability": "nonpayable",
      "type": "constructor"
    },
    {
      "anonymous": false,
      "inputs": [
        {
          "indexed": true,
          "internalType": "address",
          "name": "doctor",
          "type": "address"
        },
        {
          "indexed": false,
          "internalType": "string",
          "name": "ipfsHash",
          "type": "string"
        }
      ],
      "name": "DoctorRegistered",
      "type": "event"
    },
    {
      "anonymous": false,
      "inputs": [
        {
          "indexed": true,
          "internalType": "address",
          "name": "doctor",
          "type": "address"
        }
      ],
      "name": "DoctorVerified",
      "type": "event"
    },
    {
      "inputs": [],
      "name": "admin",
      "outputs": [
        {
          "internalType": "address",
          "name": "",
          "type": "address"
        }
      ],
      "stateMutability": "view",
      "type": "function",
      "constant": true
    },
    {
      "inputs": [
        {
          "internalType": "address",
          "name": "",
          "type": "address"
        }
      ],
      "name": "doctors",
      "outputs": [
        {
          "internalType": "string",
          "name": "ipfsHash",
          "type": "string"
        },
        {
          "internalType": "bool",
          "name": "verified",
          "type": "bool"
        },
        {
          "internalType": "bool",
          "name": "registered",
          "type": "bool"
        }
      ],
      "stateMutability": "view",
      "type": "function",
      "constant": true
    },
    {
      "inputs": [
        {
          "internalType": "string",
          "name": "_ipfsHash",
          "type": "string"
        }
      ],
      "name": "registerDoctor",
      "outputs": [],
      "stateMutability": "nonpayable",
      "type": "function"
    },
    {
      "inputs": [
        {
          "internalType": "address",
          "name": "_doctor",
          "type": "address"
        }
      ],
      "name": "verifyDoctor",
      "outputs": [],
      "stateMutability": "nonpayable",
      "type": "function"
    },
    {
      "inputs": [
        {
          "internalType": "address",
          "name": "_doctor",
          "type": "address"
        }
      ],
      "name": "isVerified",
      "outputs": [
        {
          "internalType": "bool",
          "name": "",
          "type": "bool"
        }
      ],
      "stateMutability": "view",
      "type": "function",
      "constant": true
    },
    {
      "inputs": [
        {
          "internalType": "address",
          "name": "_doctor",
          "type": "address"
        }
      ],
      "name": "getDoctorDetails",
      "outputs": [
        {
          "internalType": "string",
          "name": "",
          "type": "string"
        }
      ],
      "stateMutability": "view",
      "type": "function",
      "constant": true
    }
  ],
  "bytecode": "0x6080604052348015600f57600080fd5b50336000806101000a81548173ffffffffffffffffffffffffffffffffffffffff021916908373ffffffffffffffffffffffffffffffffffffffff1602179055506110cd8061005f6000396000f3fe608060405234801561001057600080fd5b50600436106100625760003560e01c80638f09ab5b14610067578063a9583c2214610083578063b9209e33146100b5578063bab90dbd146100e5578063d80cb05c14610115578063f851a44014610131575b600080fd5b610081600480360381019061007c9190610980565b61014f565b005b61009d60048036038101906100989190610a27565b61032d565b6040516100ac93929190610aee565b60405180910390f35b6100cf60048036038101906100ca9190610a27565b6103f9565b6040516100dc9190610b2c565b60405180910390f35b6100ff60048036038101906100fa9190610a27565b610452565b60405161010c9190610b47565b60405180910390f35b61012f600480360381019061012a9190610a27565b6105b5565b005b610139610802565b6040516101469190610b78565b60405180910390f35b600160003373ffffffffffffffffffffffffffffffffffffffff1673ffffffffffffffffffffffffffffffffffffffff16815260200190815260200160002060010160019054906101000a900460ff16156101df576040517f08c379a00000000000000000000000000000000000000000000000000000000081526004016101d690610bdf565b60405180910390fd5b6000815111610223576040517f08c379a000000000000000000000000000000000000000000000000000000000815260040161021a90610c4b565b60405180910390fd5b604051806060016040528082815260200160001515815260200160011515815250600160003373ffffffffffffffffffffffffffffffffffffffff1673ffffffffffffffffffffffffffffffffffffffff16815260200190815260200160002060008201518160000190816102989190610e81565b5060208201518160010160006101000a81548160ff02191690831515021790555060408201518160010160016101000a81548160ff0219169083151502179055509050503373ffffffffffffffffffffffffffffffffffffffff167f20481b8112b5bf4734f45a473c373db9df6a79ce946cdc0e7dbc22b4f7d7f986826040516103229190610b47565b60405180910390a250565b600160205280600052604060002060009150905080600001805461035090610c9a565b80601f016020809104026020016040519081016040528092919081815260200182805461037c90610c9a565b80156103c95780601f1061039e576101008083540402835291602001916103c9565b820191906000526020600020905b8154815290600101906020018083116103ac57829003601f168201915b5050505050908060010160009054906101000a900460ff16908060010160019054906101000a900460ff16905083565b6000600160008373ffffffffffffffffffffffffffffffffffffffff1673ffffffffffffffffffffffffffffffffffffffff16815260200190815260200160002060010160009054906101000a900460ff169050919050565b6060600160008373ffffffffffffffffffffffffffffffffffffffff1673ffffffffffffffffffffffffffffffffffffffff16815260200190815260200160002060010160019054906101000a900460ff166104e3576040517f08c379a00000000000000000000000000000000000000000000000000000000081526004016104da90610f9f565b60405180910390fd5b600160008373ffffffffffffffffffffffffffffffffffffffff1673ffffffffffffffffffffffffffffffffffffffff168152602001908152602001600020600001805461053090610c9a565b80601f016020809104026020016040519081016040528092919081815260200182805461055c90610c9a565b80156105a95780601f1061057e576101008083540402835291602001916105a9565b820191906000526020600020905b81548152906001019060200180831161058c57829003601f168201915b50505050509050919050565b60008054906101000a900473ffffffffffffffffffffffffffffffffffffffff1673ffffffffffffffffffffffffffffffffffffffff163373ffffffffffffffffffffffffffffffffffffffff1614610643576040517f08c379a000000000000000000000000000000000000000000000000000000000815260040161063a9061100b565b60405180910390fd5b600160008273ffffffffffffffffffffffffffffffffffffffff1673ffffffffffffffffffffffffffffffffffffffff16815260200190815260200160002060010160019054906101000a900460ff166106d2576040517f08c379a00000000000000000000000000000000000000000000000000000000081526004016106c990610f9f565b60405180910390fd5b600160008273ffffffffffffffffffffffffffffffffffffffff1673ffffffffffffffffffffffffffffffffffffffff16815260200190815260200160002060010160009054906101000a900460ff1615610762576040517f08c379a000000000000000000000000000000000000000000000000000000000815260040161075990611077565b60405180910390fd5b60018060008373ffffffffffffffffffffffffffffffffffffffff1673ffffffffffffffffffffffffffffffffffffffff16815260200190815260200160002060010160006101000a81548160ff0219169083151502179055508073ffffffffffffffffffffffffffffffffffffffff167fb0859f2cf042b300c8948cdd785ec6a23a3742bc5446c19f4b270b67fac2c96760405160405180910390a250565b60008054906101000a900473ffffffffffffffffffffffffffffffffffffffff1681565b6000604051905090565b600080fd5b600080fd5b600080fd5b600080fd5b6000601f19601f8301169050919050565b7f4e487b7100000000000000000000000000000000000000000000000000000000600052604160045260246000fd5b61088d82610844565b810181811067ffffffffffffffff821117156108ac576108ab610855565b5b80604052505050565b60006108bf610826565b90506108cb8282610884565b919050565b600067ffffffffffffffff8211156108eb576108ea610855565b5b6108f482610844565b9050602081019050919050565b82818337600083830152505050565b600061092361091e846108d0565b6108b5565b90508281526020810184848401111561093f5761093e61083f565b5b61094a848285610901565b509392505050565b600082601f8301126109675761096661083a565b5b8135610977848260208601610910565b91505092915050565b60006020828403121561099657610995610830565b5b600082013567ffffffffffffffff8111156109b4576109b3610835565b5b6109c084828501610952565b91505092915050565b600073ffffffffffffffffffffffffffffffffffffffff82169050919050565b60006109f4826109c9565b9050919050565b610a04816109e9565b8114610a0f57600080fd5b50565b600081359050610a21816109fb565b92915050565b600060208284031215610a3d57610a3c610830565b5b6000610a4b84828501610a12565b91505092915050565b600081519050919050565b600082825260208201905092915050565b60005b83811015610a8e578082015181840152602081019050610a73565b60008484015250505050565b6000610aa582610a54565b610aaf8185610a5f565b9350610abf818560208601610a70565b610ac881610844565b840191505092915050565b60008115159050919050565b610ae881610ad3565b82525050565b60006060820190508181036000830152610b088186610a9a565b9050610b176020830185610adf565b610b246040830184610adf565b949350505050565b6000602082019050610b416000830184610adf565b92915050565b60006020820190508181036000830152610b618184610a9a565b905092915050565b610b72816109e9565b82525050565b6000602082019050610b8d6000830184610b69565b92915050565b7f416c726561647920726567697374657265640000000000000000000000000000600082015250565b6000610bc9601283610a5f565b9150610bd482610b93565b602082019050919050565b60006020820190508181036000830152610bf881610bbc565b9050919050565b7f496e76616c696420495046532068617368000000000000000000000000000000600082015250565b6000610c35601183610a5f565b9150610c4082610bff565b602082019050919050565b60006020820190508181036000830152610c6481610c28565b9050919050565b7f4e487b7100000000000000000000000000000000000000000000000000000000600052602260045260246000fd5b60006002820490506001821680610cb257607f821691505b602082108103610cc557610cc4610c6b565b5b50919050565b60008190508160005260206000209050919050565b60006020601f8301049050919050565b600082821b905092915050565b600060088302610d2d7fffffffffffffffffffffffffffffffffffffffffffffffffffffffffffffffff82610cf0565b610d378683610cf0565b95508019841693508086168417925050509392505050565b6000819050919050565b6000819050919050565b6000610d7e610d79610d7484610d4f565b610d59565b610d4f565b9050919050565b6000819050919050565b610d9883610d63565b610dac610da482610d85565b848454610cfd565b825550505050565b600090565b610dc1610db4565b610dcc818484610d8f565b505050565b5b81811015610df057610de5600082610db9565b600181019050610dd2565b5050565b601f821115610e3557610e0681610ccb565b610e0f84610ce0565b81016020851015610e1e578190505b610e32610e2a85610ce0565b830182610dd1565b50505b505050565b600082821c905092915050565b6000610e5860001984600802610e3a565b1980831691505092915050565b6000610e718383610e47565b9150826002028217905092915050565b610e8a82610a54565b67ffffffffffffffff811115610ea357610ea2610855565b5b610ead8254610c9a565b610eb8828285610df4565b600060209050601f831160018114610eeb5760008415610ed9578287015190505b610ee38582610e65565b865550610f4b565b601f198416610ef986610ccb565b60005b82811015610f2157848901518255600182019150602085019450602081019050610efc565b86831015610f3e5784890151610f3a601f891682610e47565b8355505b6001600288020188555050505b505050505050565b7f446f63746f72206e6f7420726567697374657265640000000000000000000000600082015250565b6000610f89601583610a5f565b9150610f9482610f53565b602082019050919050565b60006020820190508181036000830152610fb881610f7c565b9050919050565b7f4e6f742061646d696e0000000000000000000000000000000000000000000000600082015250565b6000610ff5600983610a5f565b915061100082610fbf565b602082019050919050565b6000602082019050818103600083015261102481610fe8565b9050919050565b7f416c726561647920766572696669656400000000000000000000000000000000600082015250565b6000611061601083610a5f565b915061106c8261102b565b602082019050919050565b6000602082019050818103600083015261109081611054565b905091905056fea2646970667358221220fb0272df6db3d3db88a5ec5071af258aa7357fcdd87e075321b59eb4104a55b964736f6c634300081e0033",
  "immutableReferences": {},
  "source": "// SPDX-License-Identifier: MIT\r\npragma solidity ^0.8.20;\r\n\r\ncontract DoctorRegistry {\r\n    address public admin;\r\n\r\n    struct Doctor {\r\n        string ipfsHash;   // IPFS CID containing doctor's details (name, degree, license, etc.)\r\n        bool verified;     // Indicates if admin has verified the doctor\r\n        bool registered;   // Indicates if doctor has registered\r\n    }\r\n\r\n    mapping(address => Doctor) public doctors;\r\n\r\n    event DoctorRegistered(address indexed doctor, string ipfsHash);\r\n    event DoctorVerified(address indexed doctor);\r\n\r\n    modifier onlyAdmin() {\r\n        require(msg.sender == admin, \"Not admin\");\r\n        _;\r\n    }\r\n\r\n    constructor() {\r\n        admin = msg.sender;\r\n    }\r\n\r\n    // Doctors register by uploading their info to IPFS and submitting the CID\r\n    function registerDoctor(string memory _ipfsHash) external {\r\n        require(!doctors[msg.sender].registered, \"Already registered\");\r\n        require(bytes(_ipfsHash).length > 0, \"Invalid IPFS hash\");\r\n\r\n        doctors[msg.sender] = Doctor({\r\n            ipfsHash: _ipfsHash,\r\n            verified: false,\r\n            registered: true\r\n        });\r\n\r\n        emit DoctorRegistered(msg.sender, _ipfsHash);\r\n    }\r\n\r\n    // Admin verifies a doctor's credentials after off-chain review\r\n    function verifyDoctor(address _doctor) external onlyAdmin {\r\n        require(doctors[_doctor].registered, \"Doctor not registered\");\r\n        require(!doctors[_doctor].verified, \"Already verified\");\r\n\r\n        doctors[_doctor].verified = true;\r\n        emit DoctorVerified(_doctor);\r\n    }\r\n\r\n    // Public function to check if a doctor is verified\r\n    function isVerified(address _doctor) external view returns (bool) {\r\n        return doctors[_doctor].verified;\r\n    }\r\n\r\n    // Returns the IPFS hash for a given doctor\r\n    function getDoctorDetails(address _doctor) external view returns (string memory) {\r\n        require(doctors[_doctor].registered, \"Doctor not registered\");\r\n        return doctors[_doctor].ipfsHash;\r\n    }\r\n}\r\n",
  "sourcePath": "C:\\Users\\hp\\OneDrive\\Desktop\\Projects\\Med_Vault\\Blockchain\\contracts\\DoctorRegistry.sol",
  "compiler": {
    "name": "solc",
    "version": "0.8.30+commit.73712a01.Emscripten.clang"
  },
  "schemaVersion": "3.4.16",
  "updatedAt": "2025-11-04T04:43:17.288Z",
  "networkType": "ethereum",
  "devdoc": {
    "kind": "dev",
    "methods": {},
    "version": 1
  },
  "userdoc": {
    "kind": "user",
    "methods": {},
    "version": 1
  }
}