{
  "contractName": "DoctorRegistry",
  "abi": [
    {
      "inputs": [],
      "stateMutability": "nonpayable",
      "type": "constructor"
    },
    {
      "anonymous": false,
      "inputs": [
        {
          "indexed": true,
          "internalType": "address",
          "name": "doctor",
          "type": "address"
        },
        {
          "indexed": false,
          "internalType": "string",
          "name": "ipfsHash",
          "type": "string"
        }
      ],
      "name": "DoctorRegistered",
      "type": "event"
    },
    {
      "anonymous": false,
      "inputs": [
        {
          "indexed": true,
          "internalType": "address",
          "name": "doctor",
          "type": "address"
        }
      ],
      "name": "DoctorVerified",
      "type": "event"
    },
    {
      "inputs": [],
      "name": "admin",
      "outputs": [
        {
          "internalType": "address",
          "name": "",
          "type": "address"
        }
      ],
      "stateMutability": "view",
      "type": "function",
      "constant": true
    },
    {
      "inputs": [
        {
          "internalType": "address",
          "name": "",
          "type": "address"
        }
      ],
      "name": "doctors",
      "outputs": [
        {
          "internalType": "address",
          "name": "walletAddress",
          "type": "address"
        },
        {
          "internalType": "string",
          "name": "ipfsHash",
          "type": "string"
        },
        {
          "internalType": "bool",
          "name": "verified",
          "type": "bool"
        },
        {
          "internalType": "bool",
          "name": "registered",
          "type": "bool"
        }
      ],
      "stateMutability": "view",
      "type": "function",
      "constant": true
    },
    {
      "inputs": [
        {
          "internalType": "uint256",
          "name": "",
          "type": "uint256"
        }
      ],
      "name": "registeredDoctorAddresses",
      "outputs": [
        {
          "internalType": "address",
          "name": "",
          "type": "address"
        }
      ],
      "stateMutability": "view",
      "type": "function",
      "constant": true
    },
    {
      "inputs": [
        {
          "internalType": "string",
          "name": "_ipfsHash",
          "type": "string"
        }
      ],
      "name": "registerDoctor",
      "outputs": [],
      "stateMutability": "nonpayable",
      "type": "function"
    },
    {
      "inputs": [
        {
          "internalType": "address",
          "name": "_doctor",
          "type": "address"
        }
      ],
      "name": "verifyDoctor",
      "outputs": [],
      "stateMutability": "nonpayable",
      "type": "function"
    },
    {
      "inputs": [
        {
          "internalType": "address",
          "name": "_doctor",
          "type": "address"
        }
      ],
      "name": "isVerified",
      "outputs": [
        {
          "internalType": "bool",
          "name": "",
          "type": "bool"
        }
      ],
      "stateMutability": "view",
      "type": "function",
      "constant": true
    },
    {
      "inputs": [
        {
          "internalType": "address",
          "name": "_doctor",
          "type": "address"
        }
      ],
      "name": "getDoctorDetails",
      "outputs": [
        {
          "internalType": "string",
          "name": "",
          "type": "string"
        }
      ],
      "stateMutability": "view",
      "type": "function",
      "constant": true
    },
    {
      "inputs": [],
      "name": "getAllRegisteredDoctors",
      "outputs": [
        {
          "internalType": "address[]",
          "name": "",
          "type": "address[]"
        }
      ],
      "stateMutability": "view",
      "type": "function",
      "constant": true
    }
  ],
  "bytecode": "0x6080604052348015600f57600080fd5b50336000806101000a81548173ffffffffffffffffffffffffffffffffffffffff021916908373ffffffffffffffffffffffffffffffffffffffff1602179055506114428061005f6000396000f3fe608060405234801561001057600080fd5b50600436106100885760003560e01c8063bab90dbd1161005b578063bab90dbd1461012a578063d80cb05c1461015a578063f06985ac14610176578063f851a440146101a657610088565b80638f09ab5b1461008d5780638f7741ac146100a9578063a9583c22146100c7578063b9209e33146100fa575b600080fd5b6100a760048036038101906100a29190610bae565b6101c4565b005b6100b1610468565b6040516100be9190610ce7565b60405180910390f35b6100e160048036038101906100dc9190610d35565b6104f6565b6040516100f19493929190610e0b565b60405180910390f35b610114600480360381019061010f9190610d35565b6105e8565b6040516101219190610e57565b60405180910390f35b610144600480360381019061013f9190610d35565b610641565b6040516101519190610e72565b60405180910390f35b610174600480360381019061016f9190610d35565b6107a4565b005b610190600480360381019061018b9190610eca565b6109f1565b60405161019d9190610ef7565b60405180910390f35b6101ae610a30565b6040516101bb9190610ef7565b60405180910390f35b600160003373ffffffffffffffffffffffffffffffffffffffff1673ffffffffffffffffffffffffffffffffffffffff16815260200190815260200160002060020160019054906101000a900460ff1615610254576040517f08c379a000000000000000000000000000000000000000000000000000000000815260040161024b90610f5e565b60405180910390fd5b6000815111610298576040517f08c379a000000000000000000000000000000000000000000000000000000000815260040161028f90610fca565b60405180910390fd5b60405180608001604052803373ffffffffffffffffffffffffffffffffffffffff16815260200182815260200160001515815260200160011515815250600160003373ffffffffffffffffffffffffffffffffffffffff1673ffffffffffffffffffffffffffffffffffffffff16815260200190815260200160002060008201518160000160006101000a81548173ffffffffffffffffffffffffffffffffffffffff021916908373ffffffffffffffffffffffffffffffffffffffff160217905550602082015181600101908161037091906111f6565b5060408201518160020160006101000a81548160ff02191690831515021790555060608201518160020160016101000a81548160ff0219169083151502179055509050506002339080600181540180825580915050600190039060005260206000200160009091909190916101000a81548173ffffffffffffffffffffffffffffffffffffffff021916908373ffffffffffffffffffffffffffffffffffffffff1602179055503373ffffffffffffffffffffffffffffffffffffffff167f20481b8112b5bf4734f45a473c373db9df6a79ce946cdc0e7dbc22b4f7d7f9868260405161045d9190610e72565b60405180910390a250565b606060028054806020026020016040519081016040528092919081815260200182805480156104ec57602002820191906000526020600020905b8160009054906101000a900473ffffffffffffffffffffffffffffffffffffffff1673ffffffffffffffffffffffffffffffffffffffff16815260200190600101908083116104a2575b5050505050905090565b60016020528060005260406000206000915090508060000160009054906101000a900473ffffffffffffffffffffffffffffffffffffffff169080600101805461053f90611019565b80601f016020809104026020016040519081016040528092919081815260200182805461056b90611019565b80156105b85780601f1061058d576101008083540402835291602001916105b8565b820191906000526020600020905b81548152906001019060200180831161059b57829003601f168201915b5050505050908060020160009054906101000a900460ff16908060020160019054906101000a900460ff16905084565b6000600160008373ffffffffffffffffffffffffffffffffffffffff1673ffffffffffffffffffffffffffffffffffffffff16815260200190815260200160002060020160009054906101000a900460ff169050919050565b6060600160008373ffffffffffffffffffffffffffffffffffffffff1673ffffffffffffffffffffffffffffffffffffffff16815260200190815260200160002060020160019054906101000a900460ff166106d2576040517f08c379a00000000000000000000000000000000000000000000000000000000081526004016106c990611314565b60405180910390fd5b600160008373ffffffffffffffffffffffffffffffffffffffff1673ffffffffffffffffffffffffffffffffffffffff168152602001908152602001600020600101805461071f90611019565b80601f016020809104026020016040519081016040528092919081815260200182805461074b90611019565b80156107985780601f1061076d57610100808354040283529160200191610798565b820191906000526020600020905b81548152906001019060200180831161077b57829003601f168201915b50505050509050919050565b60008054906101000a900473ffffffffffffffffffffffffffffffffffffffff1673ffffffffffffffffffffffffffffffffffffffff163373ffffffffffffffffffffffffffffffffffffffff1614610832576040517f08c379a000000000000000000000000000000000000000000000000000000000815260040161082990611380565b60405180910390fd5b600160008273ffffffffffffffffffffffffffffffffffffffff1673ffffffffffffffffffffffffffffffffffffffff16815260200190815260200160002060020160019054906101000a900460ff166108c1576040517f08c379a00000000000000000000000000000000000000000000000000000000081526004016108b890611314565b60405180910390fd5b600160008273ffffffffffffffffffffffffffffffffffffffff1673ffffffffffffffffffffffffffffffffffffffff16815260200190815260200160002060020160009054906101000a900460ff1615610951576040517f08c379a0000000000000000000000000000000000000000000000000000000008152600401610948906113ec565b60405180910390fd5b60018060008373ffffffffffffffffffffffffffffffffffffffff1673ffffffffffffffffffffffffffffffffffffffff16815260200190815260200160002060020160006101000a81548160ff0219169083151502179055508073ffffffffffffffffffffffffffffffffffffffff167fb0859f2cf042b300c8948cdd785ec6a23a3742bc5446c19f4b270b67fac2c96760405160405180910390a250565b60028181548110610a0157600080fd5b906000526020600020016000915054906101000a900473ffffffffffffffffffffffffffffffffffffffff1681565b60008054906101000a900473ffffffffffffffffffffffffffffffffffffffff1681565b6000604051905090565b600080fd5b600080fd5b600080fd5b600080fd5b6000601f19601f8301169050919050565b7f4e487b7100000000000000000000000000000000000000000000000000000000600052604160045260246000fd5b610abb82610a72565b810181811067ffffffffffffffff82111715610ada57610ad9610a83565b5b80604052505050565b6000610aed610a54565b9050610af98282610ab2565b919050565b600067ffffffffffffffff821115610b1957610b18610a83565b5b610b2282610a72565b9050602081019050919050565b82818337600083830152505050565b6000610b51610b4c84610afe565b610ae3565b905082815260208101848484011115610b6d57610b6c610a6d565b5b610b78848285610b2f565b509392505050565b600082601f830112610b9557610b94610a68565b5b8135610ba5848260208601610b3e565b91505092915050565b600060208284031215610bc457610bc3610a5e565b5b600082013567ffffffffffffffff811115610be257610be1610a63565b5b610bee84828501610b80565b91505092915050565b600081519050919050565b600082825260208201905092915050565b6000819050602082019050919050565b600073ffffffffffffffffffffffffffffffffffffffff82169050919050565b6000610c4e82610c23565b9050919050565b610c5e81610c43565b82525050565b6000610c708383610c55565b60208301905092915050565b6000602082019050919050565b6000610c9482610bf7565b610c9e8185610c02565b9350610ca983610c13565b8060005b83811015610cda578151610cc18882610c64565b9750610ccc83610c7c565b925050600181019050610cad565b5085935050505092915050565b60006020820190508181036000830152610d018184610c89565b905092915050565b610d1281610c43565b8114610d1d57600080fd5b50565b600081359050610d2f81610d09565b92915050565b600060208284031215610d4b57610d4a610a5e565b5b6000610d5984828501610d20565b91505092915050565b610d6b81610c43565b82525050565b600081519050919050565b600082825260208201905092915050565b60005b83811015610dab578082015181840152602081019050610d90565b60008484015250505050565b6000610dc282610d71565b610dcc8185610d7c565b9350610ddc818560208601610d8d565b610de581610a72565b840191505092915050565b60008115159050919050565b610e0581610df0565b82525050565b6000608082019050610e206000830187610d62565b8181036020830152610e328186610db7565b9050610e416040830185610dfc565b610e4e6060830184610dfc565b95945050505050565b6000602082019050610e6c6000830184610dfc565b92915050565b60006020820190508181036000830152610e8c8184610db7565b905092915050565b6000819050919050565b610ea781610e94565b8114610eb257600080fd5b50565b600081359050610ec481610e9e565b92915050565b600060208284031215610ee057610edf610a5e565b5b6000610eee84828501610eb5565b91505092915050565b6000602082019050610f0c6000830184610d62565b92915050565b7f416c726561647920726567697374657265640000000000000000000000000000600082015250565b6000610f48601283610d7c565b9150610f5382610f12565b602082019050919050565b60006020820190508181036000830152610f7781610f3b565b9050919050565b7f496e76616c696420495046532068617368000000000000000000000000000000600082015250565b6000610fb4601183610d7c565b9150610fbf82610f7e565b602082019050919050565b60006020820190508181036000830152610fe381610fa7565b9050919050565b7f4e487b7100000000000000000000000000000000000000000000000000000000600052602260045260246000fd5b6000600282049050600182168061103157607f821691505b60208210810361104457611043610fea565b5b50919050565b60008190508160005260206000209050919050565b60006020601f8301049050919050565b600082821b905092915050565b6000600883026110ac7fffffffffffffffffffffffffffffffffffffffffffffffffffffffffffffffff8261106f565b6110b6868361106f565b95508019841693508086168417925050509392505050565b6000819050919050565b60006110f36110ee6110e984610e94565b6110ce565b610e94565b9050919050565b6000819050919050565b61110d836110d8565b611121611119826110fa565b84845461107c565b825550505050565b600090565b611136611129565b611141818484611104565b505050565b5b818110156111655761115a60008261112e565b600181019050611147565b5050565b601f8211156111aa5761117b8161104a565b6111848461105f565b81016020851015611193578190505b6111a761119f8561105f565b830182611146565b50505b505050565b600082821c905092915050565b60006111cd600019846008026111af565b1980831691505092915050565b60006111e683836111bc565b9150826002028217905092915050565b6111ff82610d71565b67ffffffffffffffff81111561121857611217610a83565b5b6112228254611019565b61122d828285611169565b600060209050601f831160018114611260576000841561124e578287015190505b61125885826111da565b8655506112c0565b601f19841661126e8661104a565b60005b8281101561129657848901518255600182019150602085019450602081019050611271565b868310156112b357848901516112af601f8916826111bc565b8355505b6001600288020188555050505b505050505050565b7f446f63746f72206e6f7420726567697374657265640000000000000000000000600082015250565b60006112fe601583610d7c565b9150611309826112c8565b602082019050919050565b6000602082019050818103600083015261132d816112f1565b9050919050565b7f4e6f742061646d696e0000000000000000000000000000000000000000000000600082015250565b600061136a600983610d7c565b915061137582611334565b602082019050919050565b600060208201905081810360008301526113998161135d565b9050919050565b7f416c726561647920766572696669656400000000000000000000000000000000600082015250565b60006113d6601083610d7c565b91506113e1826113a0565b602082019050919050565b60006020820190508181036000830152611405816113c9565b905091905056fea2646970667358221220a8e540a5e61845c809a48ab365cc286228fd7f3d12a683d59792d8e1756892c764736f6c634300081e0033",
  "immutableReferences": {},
  "source": "// SPDX-License-Identifier: MIT\r\npragma solidity ^0.8.20;\r\n\r\ncontract DoctorRegistry {\r\n    address public admin;\r\n\r\n    struct Doctor {\r\n        address walletAddress; // <-- NEW: Added doctor's wallet address to the struct\r\n        string ipfsHash;      // IPFS CID containing doctor's details (name, degree, license, etc.)\r\n        bool verified;        // Indicates if admin has verified the doctor\r\n        bool registered;      // Indicates if doctor has registered\r\n    }\r\n\r\n    mapping(address => Doctor) public doctors;\r\n    \r\n    // <-- NEW: Array to store all registered doctor addresses for iteration\r\n    address[] public registeredDoctorAddresses; \r\n\r\n    event DoctorRegistered(address indexed doctor, string ipfsHash);\r\n    event DoctorVerified(address indexed doctor);\r\n\r\n    modifier onlyAdmin() {\r\n        require(msg.sender == admin, \"Not admin\");\r\n        _;\r\n    }\r\n\r\n    constructor() {\r\n        admin = msg.sender;\r\n    }\r\n\r\n    // Doctors register by uploading their info to IPFS and submitting the CID\r\n    function registerDoctor(string memory _ipfsHash) external {\r\n        require(!doctors[msg.sender].registered, \"Already registered\");\r\n        require(bytes(_ipfsHash).length > 0, \"Invalid IPFS hash\");\r\n\r\n        doctors[msg.sender] = Doctor({\r\n            walletAddress: msg.sender, // <-- NEW: Storing the address\r\n            ipfsHash: _ipfsHash,\r\n            verified: false,\r\n            registered: true\r\n        });\r\n\r\n        // <-- NEW: Add the new doctor's address to the array\r\n        registeredDoctorAddresses.push(msg.sender); \r\n\r\n        emit DoctorRegistered(msg.sender, _ipfsHash);\r\n    }\r\n\r\n    // Admin verifies a doctor's credentials after off-chain review\r\n    function verifyDoctor(address _doctor) external onlyAdmin {\r\n        require(doctors[_doctor].registered, \"Doctor not registered\");\r\n        require(!doctors[_doctor].verified, \"Already verified\");\r\n\r\n        doctors[_doctor].verified = true;\r\n        emit DoctorVerified(_doctor);\r\n    }\r\n\r\n    // Public function to check if a doctor is verified\r\n    function isVerified(address _doctor) external view returns (bool) {\r\n        return doctors[_doctor].verified;\r\n    }\r\n\r\n    // Returns the IPFS hash for a given doctor\r\n    function getDoctorDetails(address _doctor) external view returns (string memory) {\r\n        require(doctors[_doctor].registered, \"Doctor not registered\");\r\n        return doctors[_doctor].ipfsHash;\r\n    }\r\n    \r\n    // Function to return the array of all registered doctor addresses\r\n    function getAllRegisteredDoctors() external view returns (address[] memory) {\r\n        return registeredDoctorAddresses;\r\n    }\r\n}",
  "sourcePath": "C:\\Users\\hp\\OneDrive\\Desktop\\Projects\\Med_Vault\\Blockchain\\contracts\\DoctorRegistry.sol",
  "compiler": {
    "name": "solc",
    "version": "0.8.30+commit.73712a01.Emscripten.clang"
  },
  "schemaVersion": "3.4.16",
  "updatedAt": "2025-11-04T15:48:03.672Z",
  "networkType": "ethereum",
  "devdoc": {
    "kind": "dev",
    "methods": {},
    "version": 1
  },
  "userdoc": {
    "kind": "user",
    "methods": {},
    "version": 1
  }
}