{
  "contractName": "MedicalRecord",
  "abi": [
    {
      "inputs": [
        {
          "internalType": "address",
          "name": "_accessControl",
          "type": "address"
        },
        {
          "internalType": "address",
          "name": "_patientRegistry",
          "type": "address"
        }
      ],
      "stateMutability": "nonpayable",
      "type": "constructor"
    },
    {
      "anonymous": false,
      "inputs": [
        {
          "indexed": true,
          "internalType": "address",
          "name": "patient",
          "type": "address"
        },
        {
          "indexed": false,
          "internalType": "bytes32",
          "name": "fileHash",
          "type": "bytes32"
        }
      ],
      "name": "RecordUploaded",
      "type": "event"
    },
    {
      "anonymous": false,
      "inputs": [
        {
          "indexed": true,
          "internalType": "address",
          "name": "doctor",
          "type": "address"
        },
        {
          "indexed": false,
          "internalType": "bytes32",
          "name": "fileHash",
          "type": "bytes32"
        },
        {
          "indexed": false,
          "internalType": "uint256",
          "name": "time",
          "type": "uint256"
        }
      ],
      "name": "RecordViewed",
      "type": "event"
    },
    {
      "inputs": [],
      "name": "accessControl",
      "outputs": [
        {
          "internalType": "contract AccessControl",
          "name": "",
          "type": "address"
        }
      ],
      "stateMutability": "view",
      "type": "function",
      "constant": true
    },
    {
      "inputs": [],
      "name": "patientRegistry",
      "outputs": [
        {
          "internalType": "contract PatientRegistry",
          "name": "",
          "type": "address"
        }
      ],
      "stateMutability": "view",
      "type": "function",
      "constant": true
    },
    {
      "inputs": [
        {
          "internalType": "bytes32",
          "name": "",
          "type": "bytes32"
        }
      ],
      "name": "records",
      "outputs": [
        {
          "internalType": "bytes32",
          "name": "fileHash",
          "type": "bytes32"
        },
        {
          "internalType": "string",
          "name": "fileType",
          "type": "string"
        },
        {
          "internalType": "address",
          "name": "owner",
          "type": "address"
        },
        {
          "internalType": "uint256",
          "name": "uploadTime",
          "type": "uint256"
        }
      ],
      "stateMutability": "view",
      "type": "function",
      "constant": true
    },
    {
      "inputs": [
        {
          "internalType": "bytes32",
          "name": "_fileHash",
          "type": "bytes32"
        },
        {
          "internalType": "string",
          "name": "_fileType",
          "type": "string"
        }
      ],
      "name": "uploadRecord",
      "outputs": [],
      "stateMutability": "nonpayable",
      "type": "function"
    },
    {
      "inputs": [
        {
          "internalType": "bytes32",
          "name": "_fileHash",
          "type": "bytes32"
        }
      ],
      "name": "viewRecord",
      "outputs": [],
      "stateMutability": "nonpayable",
      "type": "function"
    }
  ],
  "bytecode": "0x608060405234801561001057600080fd5b50604051610f13380380610f138339818101604052810190610032919061011d565b816000806101000a81548173ffffffffffffffffffffffffffffffffffffffff021916908373ffffffffffffffffffffffffffffffffffffffff16021790555080600160006101000a81548173ffffffffffffffffffffffffffffffffffffffff021916908373ffffffffffffffffffffffffffffffffffffffff160217905550505061015d565b600080fd5b600073ffffffffffffffffffffffffffffffffffffffff82169050919050565b60006100ea826100bf565b9050919050565b6100fa816100df565b811461010557600080fd5b50565b600081519050610117816100f1565b92915050565b60008060408385031215610134576101336100ba565b5b600061014285828601610108565b925050602061015385828601610108565b9150509250929050565b610da78061016c6000396000f3fe608060405234801561001057600080fd5b50600436106100575760003560e01c806301e647251461005c57806313007d551461008f5780635250c6e2146100ad578063806f6b26146100cb578063f19c5e67146100e7575b600080fd5b610076600480360381019061007191906105a6565b610103565b60405161008694939291906106cc565b60405180910390f35b6100976101db565b6040516100a49190610777565b60405180910390f35b6100b56101ff565b6040516100c291906107b3565b60405180910390f35b6100e560048036038101906100e09190610903565b610225565b005b61010160048036038101906100fc91906105a6565b6103c2565b005b600260205280600052604060002060009150905080600001549080600101805461012c9061098e565b80601f01602080910402602001604051908101604052809291908181526020018280546101589061098e565b80156101a55780601f1061017a576101008083540402835291602001916101a5565b820191906000526020600020905b81548152906001019060200180831161018857829003601f168201915b5050505050908060020160009054906101000a900473ffffffffffffffffffffffffffffffffffffffff16908060030154905084565b60008054906101000a900473ffffffffffffffffffffffffffffffffffffffff1681565b600160009054906101000a900473ffffffffffffffffffffffffffffffffffffffff1681565b60405180608001604052808381526020018281526020013373ffffffffffffffffffffffffffffffffffffffff168152602001428152506002600084815260200190815260200160002060008201518160000155602082015181600101908161028e9190610b61565b5060408201518160020160006101000a81548173ffffffffffffffffffffffffffffffffffffffff021916908373ffffffffffffffffffffffffffffffffffffffff16021790555060608201518160030155905050600160009054906101000a900473ffffffffffffffffffffffffffffffffffffffff1673ffffffffffffffffffffffffffffffffffffffff1663c58b709d836040518263ffffffff1660e01b815260040161033e9190610c33565b600060405180830381600087803b15801561035857600080fd5b505af115801561036c573d6000803e3d6000fd5b505050503373ffffffffffffffffffffffffffffffffffffffff167f1e462abfe9966a102123f37cf9762d4d5e652d4726cca4e8bdff07b0ba496055836040516103b69190610c33565b60405180910390a25050565b60008054906101000a900473ffffffffffffffffffffffffffffffffffffffff1673ffffffffffffffffffffffffffffffffffffffff166383177db382336040518363ffffffff1660e01b815260040161041d929190610c4e565b602060405180830381865afa15801561043a573d6000803e3d6000fd5b505050506040513d601f19601f8201168201806040525081019061045e9190610caf565b806104ca57503373ffffffffffffffffffffffffffffffffffffffff166002600083815260200190815260200160002060020160009054906101000a900473ffffffffffffffffffffffffffffffffffffffff1673ffffffffffffffffffffffffffffffffffffffff16145b610509576040517f08c379a000000000000000000000000000000000000000000000000000000000815260040161050090610d28565b60405180910390fd5b3373ffffffffffffffffffffffffffffffffffffffff167f6a9bb9f0dbc81fd219c2554abac6d94dc6197b24182bed4740a665ec11b0b93b8242604051610551929190610d48565b60405180910390a250565b6000604051905090565b600080fd5b600080fd5b6000819050919050565b61058381610570565b811461058e57600080fd5b50565b6000813590506105a08161057a565b92915050565b6000602082840312156105bc576105bb610566565b5b60006105ca84828501610591565b91505092915050565b6105dc81610570565b82525050565b600081519050919050565b600082825260208201905092915050565b60005b8381101561061c578082015181840152602081019050610601565b60008484015250505050565b6000601f19601f8301169050919050565b6000610644826105e2565b61064e81856105ed565b935061065e8185602086016105fe565b61066781610628565b840191505092915050565b600073ffffffffffffffffffffffffffffffffffffffff82169050919050565b600061069d82610672565b9050919050565b6106ad81610692565b82525050565b6000819050919050565b6106c6816106b3565b82525050565b60006080820190506106e160008301876105d3565b81810360208301526106f38186610639565b905061070260408301856106a4565b61070f60608301846106bd565b95945050505050565b6000819050919050565b600061073d61073861073384610672565b610718565b610672565b9050919050565b600061074f82610722565b9050919050565b600061076182610744565b9050919050565b61077181610756565b82525050565b600060208201905061078c6000830184610768565b92915050565b600061079d82610744565b9050919050565b6107ad81610792565b82525050565b60006020820190506107c860008301846107a4565b92915050565b600080fd5b600080fd5b7f4e487b7100000000000000000000000000000000000000000000000000000000600052604160045260246000fd5b61081082610628565b810181811067ffffffffffffffff8211171561082f5761082e6107d8565b5b80604052505050565b600061084261055c565b905061084e8282610807565b919050565b600067ffffffffffffffff82111561086e5761086d6107d8565b5b61087782610628565b9050602081019050919050565b82818337600083830152505050565b60006108a66108a184610853565b610838565b9050828152602081018484840111156108c2576108c16107d3565b5b6108cd848285610884565b509392505050565b600082601f8301126108ea576108e96107ce565b5b81356108fa848260208601610893565b91505092915050565b6000806040838503121561091a57610919610566565b5b600061092885828601610591565b925050602083013567ffffffffffffffff8111156109495761094861056b565b5b610955858286016108d5565b9150509250929050565b7f4e487b7100000000000000000000000000000000000000000000000000000000600052602260045260246000fd5b600060028204905060018216806109a657607f821691505b6020821081036109b9576109b861095f565b5b50919050565b60008190508160005260206000209050919050565b60006020601f8301049050919050565b600082821b905092915050565b600060088302610a217fffffffffffffffffffffffffffffffffffffffffffffffffffffffffffffffff826109e4565b610a2b86836109e4565b95508019841693508086168417925050509392505050565b6000610a5e610a59610a54846106b3565b610718565b6106b3565b9050919050565b6000819050919050565b610a7883610a43565b610a8c610a8482610a65565b8484546109f1565b825550505050565b600090565b610aa1610a94565b610aac818484610a6f565b505050565b5b81811015610ad057610ac5600082610a99565b600181019050610ab2565b5050565b601f821115610b1557610ae6816109bf565b610aef846109d4565b81016020851015610afe578190505b610b12610b0a856109d4565b830182610ab1565b50505b505050565b600082821c905092915050565b6000610b3860001984600802610b1a565b1980831691505092915050565b6000610b518383610b27565b9150826002028217905092915050565b610b6a826105e2565b67ffffffffffffffff811115610b8357610b826107d8565b5b610b8d825461098e565b610b98828285610ad4565b600060209050601f831160018114610bcb5760008415610bb9578287015190505b610bc38582610b45565b865550610c2b565b601f198416610bd9866109bf565b60005b82811015610c0157848901518255600182019150602085019450602081019050610bdc565b86831015610c1e5784890151610c1a601f891682610b27565b8355505b6001600288020188555050505b505050505050565b6000602082019050610c4860008301846105d3565b92915050565b6000604082019050610c6360008301856105d3565b610c7060208301846106a4565b9392505050565b60008115159050919050565b610c8c81610c77565b8114610c9757600080fd5b50565b600081519050610ca981610c83565b92915050565b600060208284031215610cc557610cc4610566565b5b6000610cd384828501610c9a565b91505092915050565b7f4163636573732064656e69656400000000000000000000000000000000000000600082015250565b6000610d12600d836105ed565b9150610d1d82610cdc565b602082019050919050565b60006020820190508181036000830152610d4181610d05565b9050919050565b6000604082019050610d5d60008301856105d3565b610d6a60208301846106bd565b939250505056fea264697066735822122022c622e0eb83b4757041a32283a9a1536a6895385e3d84688cdd60a9bd34476564736f6c634300081e0033",
  "immutableReferences": {},
  "source": "// SPDX-License-Identifier: MIT\r\npragma solidity ^0.8.20;\r\n\r\nimport \"./AccessControl.sol\";\r\nimport \"./PatientRegistry.sol\";\r\n\r\ncontract MedicalRecord {\r\n    AccessControl public accessControl;\r\n    PatientRegistry public patientRegistry;\r\n\r\n    struct Record {\r\n        bytes32 fileHash;        // IPFS or encrypted file reference\r\n        string fileType;         // e.g. \"X-ray\", \"Prescription\"\r\n        address owner;           // Patient’s address\r\n        uint256 uploadTime;\r\n    }\r\n\r\n    mapping(bytes32 => Record) public records;\r\n\r\n    event RecordUploaded(address indexed patient, bytes32 fileHash);\r\n    event RecordViewed(address indexed doctor, bytes32 fileHash, uint256 time);\r\n\r\n    constructor(address _accessControl, address _patientRegistry) {\r\n        accessControl = AccessControl(_accessControl);\r\n        patientRegistry = PatientRegistry(_patientRegistry);\r\n    }\r\n\r\n    function uploadRecord(bytes32 _fileHash, string memory _fileType) external {\r\n        records[_fileHash] = Record(_fileHash, _fileType, msg.sender, block.timestamp);\r\n        patientRegistry.addFileToPatient(_fileHash);\r\n        emit RecordUploaded(msg.sender, _fileHash);\r\n    }\r\n\r\n    function viewRecord(bytes32 _fileHash) external {\r\n        require(\r\n            accessControl.hasAccess(_fileHash, msg.sender) ||\r\n            records[_fileHash].owner == msg.sender,\r\n            \"Access denied\"\r\n        );\r\n        emit RecordViewed(msg.sender, _fileHash, block.timestamp);\r\n    }\r\n}\r\n",
  "sourcePath": "C:\\Users\\hp\\OneDrive\\Desktop\\Projects\\Med_Vault\\Blockchain\\contracts\\MedicalRecord.sol",
  "compiler": {
    "name": "solc",
    "version": "0.8.30+commit.73712a01.Emscripten.clang"
  },
  "schemaVersion": "3.4.16",
  "updatedAt": "2025-11-03T06:51:46.420Z",
  "networkType": "ethereum",
  "devdoc": {
    "kind": "dev",
    "methods": {},
    "version": 1
  },
  "userdoc": {
    "kind": "user",
    "methods": {},
    "version": 1
  }
}