{
  "contractName": "MedicalRecord",
  "abi": [
    {
      "inputs": [
        {
          "internalType": "address",
          "name": "_accessControl",
          "type": "address"
        },
        {
          "internalType": "address",
          "name": "_patientRegistry",
          "type": "address"
        }
      ],
      "stateMutability": "nonpayable",
      "type": "constructor"
    },
    {
      "anonymous": false,
      "inputs": [
        {
          "indexed": true,
          "internalType": "address",
          "name": "patient",
          "type": "address"
        },
        {
          "indexed": false,
          "internalType": "string",
          "name": "fileHash",
          "type": "string"
        },
        {
          "indexed": false,
          "internalType": "string",
          "name": "fileType",
          "type": "string"
        }
      ],
      "name": "RecordUploaded",
      "type": "event"
    },
    {
      "anonymous": false,
      "inputs": [
        {
          "indexed": true,
          "internalType": "address",
          "name": "viewer",
          "type": "address"
        },
        {
          "indexed": false,
          "internalType": "string",
          "name": "fileHash",
          "type": "string"
        },
        {
          "indexed": false,
          "internalType": "uint256",
          "name": "time",
          "type": "uint256"
        }
      ],
      "name": "RecordViewed",
      "type": "event"
    },
    {
      "inputs": [],
      "name": "accessControl",
      "outputs": [
        {
          "internalType": "contract AccessControl",
          "name": "",
          "type": "address"
        }
      ],
      "stateMutability": "view",
      "type": "function",
      "constant": true
    },
    {
      "inputs": [],
      "name": "patientRegistry",
      "outputs": [
        {
          "internalType": "contract PatientRegistry",
          "name": "",
          "type": "address"
        }
      ],
      "stateMutability": "view",
      "type": "function",
      "constant": true
    },
    {
      "inputs": [
        {
          "internalType": "string",
          "name": "_fileHash",
          "type": "string"
        },
        {
          "internalType": "string",
          "name": "_fileType",
          "type": "string"
        }
      ],
      "name": "uploadRecord",
      "outputs": [],
      "stateMutability": "nonpayable",
      "type": "function"
    },
    {
      "inputs": [
        {
          "internalType": "string",
          "name": "_fileHash",
          "type": "string"
        }
      ],
      "name": "viewRecord",
      "outputs": [
        {
          "components": [
            {
              "internalType": "string",
              "name": "fileHash",
              "type": "string"
            },
            {
              "internalType": "string",
              "name": "fileType",
              "type": "string"
            },
            {
              "internalType": "address",
              "name": "owner",
              "type": "address"
            },
            {
              "internalType": "uint256",
              "name": "uploadTime",
              "type": "uint256"
            }
          ],
          "internalType": "struct MedicalRecord.Record",
          "name": "",
          "type": "tuple"
        }
      ],
      "stateMutability": "view",
      "type": "function",
      "constant": true
    },
    {
      "inputs": [
        {
          "internalType": "address",
          "name": "patient",
          "type": "address"
        }
      ],
      "name": "getPatientFiles",
      "outputs": [
        {
          "internalType": "string[]",
          "name": "",
          "type": "string[]"
        }
      ],
      "stateMutability": "view",
      "type": "function",
      "constant": true
    },
    {
      "inputs": [
        {
          "internalType": "string",
          "name": "_fileHash",
          "type": "string"
        }
      ],
      "name": "getRecordDetails",
      "outputs": [
        {
          "components": [
            {
              "internalType": "string",
              "name": "fileHash",
              "type": "string"
            },
            {
              "internalType": "string",
              "name": "fileType",
              "type": "string"
            },
            {
              "internalType": "address",
              "name": "owner",
              "type": "address"
            },
            {
              "internalType": "uint256",
              "name": "uploadTime",
              "type": "uint256"
            }
          ],
          "internalType": "struct MedicalRecord.Record",
          "name": "",
          "type": "tuple"
        }
      ],
      "stateMutability": "view",
      "type": "function",
      "constant": true
    }
  ],
  "bytecode": "0x608060405234801561001057600080fd5b50604051611a2d380380611a2d8339818101604052810190610032919061011d565b816000806101000a81548173ffffffffffffffffffffffffffffffffffffffff021916908373ffffffffffffffffffffffffffffffffffffffff16021790555080600160006101000a81548173ffffffffffffffffffffffffffffffffffffffff021916908373ffffffffffffffffffffffffffffffffffffffff160217905550505061015d565b600080fd5b600073ffffffffffffffffffffffffffffffffffffffff82169050919050565b60006100ea826100bf565b9050919050565b6100fa816100df565b811461010557600080fd5b50565b600081519050610117816100f1565b92915050565b60008060408385031215610134576101336100ba565b5b600061014285828601610108565b925050602061015385828601610108565b9150509250929050565b6118c18061016c6000396000f3fe608060405234801561001057600080fd5b50600436106100625760003560e01c80631172ac67146100675780631238d68d1461009757806313007d55146100b35780631a9e48f5146100d15780635250c6e214610101578063c1816dfb1461011f575b600080fd5b610081600480360381019061007c9190610d6e565b61014f565b60405161008e9190610efa565b60405180910390f35b6100b160048036038101906100ac9190610f1c565b6104a6565b005b6100bb610808565b6040516100c89190610ff3565b60405180910390f35b6100eb60048036038101906100e69190610d6e565b61082c565b6040516100f89190610efa565b60405180910390f35b610109610a98565b604051610116919061102f565b60405180910390f35b61013960048036038101906101349190611076565b610abe565b6040516101469190611165565b60405180910390f35b610157610bd6565b600060028360405161016991906111c3565b908152602001604051809103902060405180608001604052908160008201805461019290611209565b80601f01602080910402602001604051908101604052809291908181526020018280546101be90611209565b801561020b5780601f106101e05761010080835404028352916020019161020b565b820191906000526020600020905b8154815290600101906020018083116101ee57829003601f168201915b5050505050815260200160018201805461022490611209565b80601f016020809104026020016040519081016040528092919081815260200182805461025090611209565b801561029d5780601f106102725761010080835404028352916020019161029d565b820191906000526020600020905b81548152906001019060200180831161028057829003601f168201915b505050505081526020016002820160009054906101000a900473ffffffffffffffffffffffffffffffffffffffff1673ffffffffffffffffffffffffffffffffffffffff1673ffffffffffffffffffffffffffffffffffffffff1681526020016003820154815250509050600073ffffffffffffffffffffffffffffffffffffffff16816040015173ffffffffffffffffffffffffffffffffffffffff160361037b576040517f08c379a000000000000000000000000000000000000000000000000000000000815260040161037290611297565b60405180910390fd5b60003373ffffffffffffffffffffffffffffffffffffffff16826040015173ffffffffffffffffffffffffffffffffffffffff1614905060008060009054906101000a900473ffffffffffffffffffffffffffffffffffffffff1673ffffffffffffffffffffffffffffffffffffffff166313bd20e286336040518363ffffffff1660e01b81526004016104109291906112ff565b602060405180830381865afa15801561042d573d6000803e3d6000fd5b505050506040513d601f19601f820116820180604052508101906104519190611367565b9050818061045c5750805b61049b576040517f08c379a0000000000000000000000000000000000000000000000000000000008152600401610492906113e0565b60405180910390fd5b829350505050919050565b60008251116104ea576040517f08c379a00000000000000000000000000000000000000000000000000000000081526004016104e19061144c565b60405180910390fd5b600081511161052e576040517f08c379a0000000000000000000000000000000000000000000000000000000008152600401610525906114b8565b60405180910390fd5b600073ffffffffffffffffffffffffffffffffffffffff1660028360405161055691906111c3565b908152602001604051809103902060020160009054906101000a900473ffffffffffffffffffffffffffffffffffffffff1673ffffffffffffffffffffffffffffffffffffffff16146105de576040517f08c379a00000000000000000000000000000000000000000000000000000000081526004016105d590611524565b60405180910390fd5b60405180608001604052808381526020018281526020013373ffffffffffffffffffffffffffffffffffffffff1681526020014281525060028360405161062591906111c3565b9081526020016040518091039020600082015181600001908161064891906116e6565b50602082015181600101908161065e91906116e6565b5060408201518160020160006101000a81548173ffffffffffffffffffffffffffffffffffffffff021916908373ffffffffffffffffffffffffffffffffffffffff16021790555060608201518160030155905050600360003373ffffffffffffffffffffffffffffffffffffffff1673ffffffffffffffffffffffffffffffffffffffff1681526020019081526020016000208290806001815401808255809150506001900390600052602060002001600090919091909150908161072491906116e6565b50600160009054906101000a900473ffffffffffffffffffffffffffffffffffffffff1673ffffffffffffffffffffffffffffffffffffffff1663edefcf8833846040518363ffffffff1660e01b81526004016107829291906117b8565b600060405180830381600087803b15801561079c57600080fd5b505af11580156107b0573d6000803e3d6000fd5b505050503373ffffffffffffffffffffffffffffffffffffffff167fb723d07463f1068cac6f7fd185f491afa8cc9d5bf4866dfa8f064f64e528bc2883836040516107fc9291906117e8565b60405180910390a25050565b60008054906101000a900473ffffffffffffffffffffffffffffffffffffffff1681565b610834610bd6565b600073ffffffffffffffffffffffffffffffffffffffff1660028360405161085c91906111c3565b908152602001604051809103902060020160009054906101000a900473ffffffffffffffffffffffffffffffffffffffff1673ffffffffffffffffffffffffffffffffffffffff16036108e4576040517f08c379a00000000000000000000000000000000000000000000000000000000081526004016108db9061186b565b60405180910390fd5b6002826040516108f491906111c3565b908152602001604051809103902060405180608001604052908160008201805461091d90611209565b80601f016020809104026020016040519081016040528092919081815260200182805461094990611209565b80156109965780601f1061096b57610100808354040283529160200191610996565b820191906000526020600020905b81548152906001019060200180831161097957829003601f168201915b505050505081526020016001820180546109af90611209565b80601f01602080910402602001604051908101604052809291908181526020018280546109db90611209565b8015610a285780601f106109fd57610100808354040283529160200191610a28565b820191906000526020600020905b815481529060010190602001808311610a0b57829003601f168201915b505050505081526020016002820160009054906101000a900473ffffffffffffffffffffffffffffffffffffffff1673ffffffffffffffffffffffffffffffffffffffff1673ffffffffffffffffffffffffffffffffffffffff1681526020016003820154815250509050919050565b600160009054906101000a900473ffffffffffffffffffffffffffffffffffffffff1681565b6060600360008373ffffffffffffffffffffffffffffffffffffffff1673ffffffffffffffffffffffffffffffffffffffff168152602001908152602001600020805480602002602001604051908101604052809291908181526020016000905b82821015610bcb578382906000526020600020018054610b3e90611209565b80601f0160208091040260200160405190810160405280929190818152602001828054610b6a90611209565b8015610bb75780601f10610b8c57610100808354040283529160200191610bb7565b820191906000526020600020905b815481529060010190602001808311610b9a57829003601f168201915b505050505081526020019060010190610b1f565b505050509050919050565b60405180608001604052806060815260200160608152602001600073ffffffffffffffffffffffffffffffffffffffff168152602001600081525090565b6000604051905090565b600080fd5b600080fd5b600080fd5b600080fd5b6000601f19601f8301169050919050565b7f4e487b7100000000000000000000000000000000000000000000000000000000600052604160045260246000fd5b610c7b82610c32565b810181811067ffffffffffffffff82111715610c9a57610c99610c43565b5b80604052505050565b6000610cad610c14565b9050610cb98282610c72565b919050565b600067ffffffffffffffff821115610cd957610cd8610c43565b5b610ce282610c32565b9050602081019050919050565b82818337600083830152505050565b6000610d11610d0c84610cbe565b610ca3565b905082815260208101848484011115610d2d57610d2c610c2d565b5b610d38848285610cef565b509392505050565b600082601f830112610d5557610d54610c28565b5b8135610d65848260208601610cfe565b91505092915050565b600060208284031215610d8457610d83610c1e565b5b600082013567ffffffffffffffff811115610da257610da1610c23565b5b610dae84828501610d40565b91505092915050565b600081519050919050565b600082825260208201905092915050565b60005b83811015610df1578082015181840152602081019050610dd6565b60008484015250505050565b6000610e0882610db7565b610e128185610dc2565b9350610e22818560208601610dd3565b610e2b81610c32565b840191505092915050565b600073ffffffffffffffffffffffffffffffffffffffff82169050919050565b6000610e6182610e36565b9050919050565b610e7181610e56565b82525050565b6000819050919050565b610e8a81610e77565b82525050565b60006080830160008301518482036000860152610ead8282610dfd565b91505060208301518482036020860152610ec78282610dfd565b9150506040830151610edc6040860182610e68565b506060830151610eef6060860182610e81565b508091505092915050565b60006020820190508181036000830152610f148184610e90565b905092915050565b60008060408385031215610f3357610f32610c1e565b5b600083013567ffffffffffffffff811115610f5157610f50610c23565b5b610f5d85828601610d40565b925050602083013567ffffffffffffffff811115610f7e57610f7d610c23565b5b610f8a85828601610d40565b9150509250929050565b6000819050919050565b6000610fb9610fb4610faf84610e36565b610f94565b610e36565b9050919050565b6000610fcb82610f9e565b9050919050565b6000610fdd82610fc0565b9050919050565b610fed81610fd2565b82525050565b60006020820190506110086000830184610fe4565b92915050565b600061101982610fc0565b9050919050565b6110298161100e565b82525050565b60006020820190506110446000830184611020565b92915050565b61105381610e56565b811461105e57600080fd5b50565b6000813590506110708161104a565b92915050565b60006020828403121561108c5761108b610c1e565b5b600061109a84828501611061565b91505092915050565b600081519050919050565b600082825260208201905092915050565b6000819050602082019050919050565b60006110db8383610dfd565b905092915050565b6000602082019050919050565b60006110fb826110a3565b61110581856110ae565b935083602082028501611117856110bf565b8060005b85811015611153578484038952815161113485826110cf565b945061113f836110e3565b925060208a0199505060018101905061111b565b50829750879550505050505092915050565b6000602082019050818103600083015261117f81846110f0565b905092915050565b600081905092915050565b600061119d82610db7565b6111a78185611187565b93506111b7818560208601610dd3565b80840191505092915050565b60006111cf8284611192565b915081905092915050565b7f4e487b7100000000000000000000000000000000000000000000000000000000600052602260045260246000fd5b6000600282049050600182168061122157607f821691505b602082108103611234576112336111da565b5b50919050565b600082825260208201905092915050565b7f5265636f726420646f6573206e6f742065786973740000000000000000000000600082015250565b600061128160158361123a565b915061128c8261124b565b602082019050919050565b600060208201905081810360008301526112b081611274565b9050919050565b60006112c282610db7565b6112cc818561123a565b93506112dc818560208601610dd3565b6112e581610c32565b840191505092915050565b6112f981610e56565b82525050565b6000604082019050818103600083015261131981856112b7565b905061132860208301846112f0565b9392505050565b60008115159050919050565b6113448161132f565b811461134f57600080fd5b50565b6000815190506113618161133b565b92915050565b60006020828403121561137d5761137c610c1e565b5b600061138b84828501611352565b91505092915050565b7f4163636573732064656e69656400000000000000000000000000000000000000600082015250565b60006113ca600d8361123a565b91506113d582611394565b602082019050919050565b600060208201905081810360008301526113f9816113bd565b9050919050565b7f496e76616c69642066696c652068617368000000000000000000000000000000600082015250565b600061143660118361123a565b915061144182611400565b602082019050919050565b6000602082019050818103600083015261146581611429565b9050919050565b7f496e76616c69642066696c652074797065000000000000000000000000000000600082015250565b60006114a260118361123a565b91506114ad8261146c565b602082019050919050565b600060208201905081810360008301526114d181611495565b9050919050565b7f5265636f726420616c7265616479206578697374730000000000000000000000600082015250565b600061150e60158361123a565b9150611519826114d8565b602082019050919050565b6000602082019050818103600083015261153d81611501565b9050919050565b60008190508160005260206000209050919050565b60006020601f8301049050919050565b600082821b905092915050565b6000600883026115a67fffffffffffffffffffffffffffffffffffffffffffffffffffffffffffffffff82611569565b6115b08683611569565b95508019841693508086168417925050509392505050565b60006115e36115de6115d984610e77565b610f94565b610e77565b9050919050565b6000819050919050565b6115fd836115c8565b611611611609826115ea565b848454611576565b825550505050565b600090565b611626611619565b6116318184846115f4565b505050565b5b818110156116555761164a60008261161e565b600181019050611637565b5050565b601f82111561169a5761166b81611544565b61167484611559565b81016020851015611683578190505b61169761168f85611559565b830182611636565b50505b505050565b600082821c905092915050565b60006116bd6000198460080261169f565b1980831691505092915050565b60006116d683836116ac565b9150826002028217905092915050565b6116ef82610db7565b67ffffffffffffffff81111561170857611707610c43565b5b6117128254611209565b61171d828285611659565b600060209050601f831160018114611750576000841561173e578287015190505b61174885826116ca565b8655506117b0565b601f19841661175e86611544565b60005b8281101561178657848901518255600182019150602085019450602081019050611761565b868310156117a3578489015161179f601f8916826116ac565b8355505b6001600288020188555050505b505050505050565b60006040820190506117cd60008301856112f0565b81810360208301526117df81846112b7565b90509392505050565b6000604082019050818103600083015261180281856112b7565b9050818103602083015261181681846112b7565b90509392505050565b7f5265636f7264206e6f7420666f756e6400000000000000000000000000000000600082015250565b600061185560108361123a565b91506118608261181f565b602082019050919050565b6000602082019050818103600083015261188481611848565b905091905056fea2646970667358221220ff32d5536fc4d3871868a857e0f46ba9a636a31ae12fff57656b27bbcb10290a64736f6c634300081e0033",
  "immutableReferences": {},
  "source": "// SPDX-License-Identifier: MIT\r\npragma solidity ^0.8.20;\r\n\r\nimport \"./AccessControl.sol\";\r\nimport \"./PatientRegistry.sol\";\r\n\r\ncontract MedicalRecord {\r\n    AccessControl public accessControl;\r\n    PatientRegistry public patientRegistry;\r\n\r\n    struct Record {\r\n        string fileHash;      // IPFS or encrypted file reference (now string)\r\n        string fileType;      // e.g. \"X-ray\", \"Prescription\"\r\n        address owner;        // Patient’s address\r\n        uint256 uploadTime;   // Timestamp of upload\r\n    }\r\n\r\n    // Mapping from fileHash (string) => Record details\r\n    mapping(string => Record) private records;\r\n\r\n    // Mapping from patient address => list of their file hashes\r\n    mapping(address => string[]) private patientFiles;\r\n\r\n    // Events\r\n    event RecordUploaded(address indexed patient, string fileHash, string fileType);\r\n    event RecordViewed(address indexed viewer, string fileHash, uint256 time);\r\n\r\n    constructor(address _accessControl, address _patientRegistry) {\r\n        accessControl = AccessControl(_accessControl);\r\n        patientRegistry = PatientRegistry(_patientRegistry);\r\n    }\r\n\r\n    /**\r\n     * @notice Upload a new medical record (IPFS hash in string form)\r\n     * @param _fileHash - IPFS hash (e.g., \"Qm...\")\r\n     * @param _fileType - Type of file (e.g., \"X-ray\", \"Prescription\")\r\n     */\r\n    function uploadRecord(string memory _fileHash, string memory _fileType) external {\r\n        require(bytes(_fileHash).length > 0, \"Invalid file hash\");\r\n        require(bytes(_fileType).length > 0, \"Invalid file type\");\r\n        require(records[_fileHash].owner == address(0), \"Record already exists\");\r\n\r\n        records[_fileHash] = Record({\r\n            fileHash: _fileHash,\r\n            fileType: _fileType,\r\n            owner: msg.sender,\r\n            uploadTime: block.timestamp\r\n        });\r\n\r\n        patientFiles[msg.sender].push(_fileHash);\r\n        patientRegistry.addFileToPatient(msg.sender,_fileHash);\r\n\r\n        emit RecordUploaded(msg.sender, _fileHash, _fileType);\r\n    }\r\n\r\n    /**\r\n     * @notice View record details if access is granted or caller is owner\r\n     * @param _fileHash - IPFS file hash (string)\r\n     */\r\n    function viewRecord(string memory _fileHash) external view returns (Record memory) {\r\n        Record memory record = records[_fileHash];\r\n        require(record.owner != address(0), \"Record does not exist\");\r\n\r\n        bool isOwner = record.owner == msg.sender;\r\n        bool hasPermission = accessControl.hasAccess(_fileHash, msg.sender);\r\n\r\n        require(isOwner || hasPermission, \"Access denied\");\r\n\r\n        return record;\r\n    }\r\n\r\n    /**\r\n     * @notice Get all file hashes for a given patient\r\n     * @param patient - Patient wallet address\r\n     */\r\n    function getPatientFiles(address patient) external view returns (string[] memory) {\r\n        return patientFiles[patient];\r\n    }\r\n\r\n    /**\r\n     * @notice Get record details by file hash\r\n     */\r\n    function getRecordDetails(string memory _fileHash) external view returns (Record memory) {\r\n        require(records[_fileHash].owner != address(0), \"Record not found\");\r\n        return records[_fileHash];\r\n    }\r\n}\r\n",
  "sourcePath": "C:\\Users\\hp\\OneDrive\\Desktop\\Projects\\Med_Vault\\Blockchain\\contracts\\MedicalRecord.sol",
  "compiler": {
    "name": "solc",
    "version": "0.8.30+commit.73712a01.Emscripten.clang"
  },
  "schemaVersion": "3.4.16",
  "updatedAt": "2025-11-04T04:43:17.519Z",
  "networkType": "ethereum",
  "devdoc": {
    "kind": "dev",
    "methods": {
      "getPatientFiles(address)": {
        "params": {
          "patient": "- Patient wallet address"
        }
      },
      "uploadRecord(string,string)": {
        "params": {
          "_fileHash": "- IPFS hash (e.g., \"Qm...\")",
          "_fileType": "- Type of file (e.g., \"X-ray\", \"Prescription\")"
        }
      },
      "viewRecord(string)": {
        "params": {
          "_fileHash": "- IPFS file hash (string)"
        }
      }
    },
    "version": 1
  },
  "userdoc": {
    "kind": "user",
    "methods": {
      "getPatientFiles(address)": {
        "notice": "Get all file hashes for a given patient"
      },
      "getRecordDetails(string)": {
        "notice": "Get record details by file hash"
      },
      "uploadRecord(string,string)": {
        "notice": "Upload a new medical record (IPFS hash in string form)"
      },
      "viewRecord(string)": {
        "notice": "View record details if access is granted or caller is owner"
      }
    },
    "version": 1
  }
}