{
  "contractName": "PatientRegistry",
  "abi": [
    {
      "anonymous": false,
      "inputs": [
        {
          "indexed": true,
          "internalType": "address",
          "name": "patient",
          "type": "address"
        },
        {
          "indexed": false,
          "internalType": "bytes32",
          "name": "fileHash",
          "type": "bytes32"
        }
      ],
      "name": "FileAdded",
      "type": "event"
    },
    {
      "anonymous": false,
      "inputs": [
        {
          "indexed": true,
          "internalType": "address",
          "name": "patient",
          "type": "address"
        },
        {
          "indexed": false,
          "internalType": "string",
          "name": "name",
          "type": "string"
        }
      ],
      "name": "PatientRegistered",
      "type": "event"
    },
    {
      "inputs": [
        {
          "internalType": "address",
          "name": "",
          "type": "address"
        }
      ],
      "name": "patients",
      "outputs": [
        {
          "internalType": "string",
          "name": "name",
          "type": "string"
        },
        {
          "internalType": "string",
          "name": "gender",
          "type": "string"
        },
        {
          "internalType": "string",
          "name": "dateOfBirth",
          "type": "string"
        },
        {
          "internalType": "string",
          "name": "contactInfo",
          "type": "string"
        },
        {
          "internalType": "bool",
          "name": "isRegistered",
          "type": "bool"
        }
      ],
      "stateMutability": "view",
      "type": "function",
      "constant": true
    },
    {
      "inputs": [
        {
          "internalType": "string",
          "name": "_name",
          "type": "string"
        },
        {
          "internalType": "string",
          "name": "_gender",
          "type": "string"
        },
        {
          "internalType": "string",
          "name": "_dateOfBirth",
          "type": "string"
        },
        {
          "internalType": "string",
          "name": "_contactInfo",
          "type": "string"
        }
      ],
      "name": "registerPatient",
      "outputs": [],
      "stateMutability": "nonpayable",
      "type": "function"
    },
    {
      "inputs": [
        {
          "internalType": "bytes32",
          "name": "_fileHash",
          "type": "bytes32"
        }
      ],
      "name": "addFileToPatient",
      "outputs": [],
      "stateMutability": "nonpayable",
      "type": "function"
    },
    {
      "inputs": [
        {
          "internalType": "address",
          "name": "_patient",
          "type": "address"
        }
      ],
      "name": "getPatientFiles",
      "outputs": [
        {
          "internalType": "bytes32[]",
          "name": "",
          "type": "bytes32[]"
        }
      ],
      "stateMutability": "view",
      "type": "function",
      "constant": true
    },
    {
      "inputs": [
        {
          "internalType": "address",
          "name": "_patient",
          "type": "address"
        }
      ],
      "name": "getPatientDetails",
      "outputs": [
        {
          "internalType": "string",
          "name": "",
          "type": "string"
        },
        {
          "internalType": "string",
          "name": "",
          "type": "string"
        },
        {
          "internalType": "string",
          "name": "",
          "type": "string"
        },
        {
          "internalType": "string",
          "name": "",
          "type": "string"
        }
      ],
      "stateMutability": "view",
      "type": "function",
      "constant": true
    }
  ],
  "bytecode": "0x6080604052348015600f57600080fd5b5061133c8061001f6000396000f3fe608060405234801561001057600080fd5b50600436106100575760003560e01c80630869cfbc1461005c5780634ba0a02014610090578063c1816dfb146100ac578063c58b709d146100dc578063efe2ccc1146100f8575b600080fd5b61007660048036038101906100719190610a03565b61012b565b604051610087959493929190610adb565b60405180910390f35b6100aa60048036038101906100a59190610c7f565b61038e565b005b6100c660048036038101906100c19190610a03565b610519565b6040516100d39190610e1e565b60405180910390f35b6100f660048036038101906100f19190610e6c565b6105b2565b005b610112600480360381019061010d9190610a03565b6106f9565b6040516101229493929190610e99565b60405180910390f35b600060205280600052604060002060009150905080600001805461014e90610f29565b80601f016020809104026020016040519081016040528092919081815260200182805461017a90610f29565b80156101c75780601f1061019c576101008083540402835291602001916101c7565b820191906000526020600020905b8154815290600101906020018083116101aa57829003601f168201915b5050505050908060010180546101dc90610f29565b80601f016020809104026020016040519081016040528092919081815260200182805461020890610f29565b80156102555780601f1061022a57610100808354040283529160200191610255565b820191906000526020600020905b81548152906001019060200180831161023857829003601f168201915b50505050509080600201805461026a90610f29565b80601f016020809104026020016040519081016040528092919081815260200182805461029690610f29565b80156102e35780601f106102b8576101008083540402835291602001916102e3565b820191906000526020600020905b8154815290600101906020018083116102c657829003601f168201915b5050505050908060030180546102f890610f29565b80601f016020809104026020016040519081016040528092919081815260200182805461032490610f29565b80156103715780601f1061034657610100808354040283529160200191610371565b820191906000526020600020905b81548152906001019060200180831161035457829003601f168201915b5050505050908060040160009054906101000a900460ff16905085565b6000803373ffffffffffffffffffffffffffffffffffffffff1673ffffffffffffffffffffffffffffffffffffffff16815260200190815260200160002060040160009054906101000a900460ff161561041d576040517f08c379a000000000000000000000000000000000000000000000000000000000815260040161041490610fa6565b60405180910390fd5b60008060003373ffffffffffffffffffffffffffffffffffffffff1673ffffffffffffffffffffffffffffffffffffffff168152602001908152602001600020905084816000019081610470919061117c565b5083816001019081610482919061117c565b5082816002019081610494919061117c565b50818160030190816104a6919061117c565b5060018160040160006101000a81548160ff0219169083151502179055503373ffffffffffffffffffffffffffffffffffffffff167fc85b128388b9c331a2a5485dce4cd0f3db9f7c279d327ce95d6d39d6c94644c78660405161050a919061124e565b60405180910390a25050505050565b60606000808373ffffffffffffffffffffffffffffffffffffffff1673ffffffffffffffffffffffffffffffffffffffff1681526020019081526020016000206005018054806020026020016040519081016040528092919081815260200182805480156105a657602002820191906000526020600020905b815481526020019060010190808311610592575b50505050509050919050565b6000803373ffffffffffffffffffffffffffffffffffffffff1673ffffffffffffffffffffffffffffffffffffffff16815260200190815260200160002060040160009054906101000a900460ff16610640576040517f08c379a0000000000000000000000000000000000000000000000000000000008152600401610637906112bc565b60405180910390fd5b6000803373ffffffffffffffffffffffffffffffffffffffff1673ffffffffffffffffffffffffffffffffffffffff1681526020019081526020016000206005018190806001815401808255809150506001900390600052602060002001600090919091909150553373ffffffffffffffffffffffffffffffffffffffff167f355df66fa0233301fa2864fd7138ea1c3dbc10df6710e4e280e09b17d369902c826040516106ee91906112eb565b60405180910390a250565b60608060608060008060008773ffffffffffffffffffffffffffffffffffffffff1673ffffffffffffffffffffffffffffffffffffffff16815260200190815260200160002090508060000181600101826002018360030183805461075d90610f29565b80601f016020809104026020016040519081016040528092919081815260200182805461078990610f29565b80156107d65780601f106107ab576101008083540402835291602001916107d6565b820191906000526020600020905b8154815290600101906020018083116107b957829003601f168201915b505050505093508280546107e990610f29565b80601f016020809104026020016040519081016040528092919081815260200182805461081590610f29565b80156108625780601f1061083757610100808354040283529160200191610862565b820191906000526020600020905b81548152906001019060200180831161084557829003601f168201915b5050505050925081805461087590610f29565b80601f01602080910402602001604051908101604052809291908181526020018280546108a190610f29565b80156108ee5780601f106108c3576101008083540402835291602001916108ee565b820191906000526020600020905b8154815290600101906020018083116108d157829003601f168201915b5050505050915080805461090190610f29565b80601f016020809104026020016040519081016040528092919081815260200182805461092d90610f29565b801561097a5780601f1061094f5761010080835404028352916020019161097a565b820191906000526020600020905b81548152906001019060200180831161095d57829003601f168201915b505050505090509450945094509450509193509193565b6000604051905090565b600080fd5b600080fd5b600073ffffffffffffffffffffffffffffffffffffffff82169050919050565b60006109d0826109a5565b9050919050565b6109e0816109c5565b81146109eb57600080fd5b50565b6000813590506109fd816109d7565b92915050565b600060208284031215610a1957610a1861099b565b5b6000610a27848285016109ee565b91505092915050565b600081519050919050565b600082825260208201905092915050565b60005b83811015610a6a578082015181840152602081019050610a4f565b60008484015250505050565b6000601f19601f8301169050919050565b6000610a9282610a30565b610a9c8185610a3b565b9350610aac818560208601610a4c565b610ab581610a76565b840191505092915050565b60008115159050919050565b610ad581610ac0565b82525050565b600060a0820190508181036000830152610af58188610a87565b90508181036020830152610b098187610a87565b90508181036040830152610b1d8186610a87565b90508181036060830152610b318185610a87565b9050610b406080830184610acc565b9695505050505050565b600080fd5b600080fd5b7f4e487b7100000000000000000000000000000000000000000000000000000000600052604160045260246000fd5b610b8c82610a76565b810181811067ffffffffffffffff82111715610bab57610baa610b54565b5b80604052505050565b6000610bbe610991565b9050610bca8282610b83565b919050565b600067ffffffffffffffff821115610bea57610be9610b54565b5b610bf382610a76565b9050602081019050919050565b82818337600083830152505050565b6000610c22610c1d84610bcf565b610bb4565b905082815260208101848484011115610c3e57610c3d610b4f565b5b610c49848285610c00565b509392505050565b600082601f830112610c6657610c65610b4a565b5b8135610c76848260208601610c0f565b91505092915050565b60008060008060808587031215610c9957610c9861099b565b5b600085013567ffffffffffffffff811115610cb757610cb66109a0565b5b610cc387828801610c51565b945050602085013567ffffffffffffffff811115610ce457610ce36109a0565b5b610cf087828801610c51565b935050604085013567ffffffffffffffff811115610d1157610d106109a0565b5b610d1d87828801610c51565b925050606085013567ffffffffffffffff811115610d3e57610d3d6109a0565b5b610d4a87828801610c51565b91505092959194509250565b600081519050919050565b600082825260208201905092915050565b6000819050602082019050919050565b6000819050919050565b610d9581610d82565b82525050565b6000610da78383610d8c565b60208301905092915050565b6000602082019050919050565b6000610dcb82610d56565b610dd58185610d61565b9350610de083610d72565b8060005b83811015610e11578151610df88882610d9b565b9750610e0383610db3565b925050600181019050610de4565b5085935050505092915050565b60006020820190508181036000830152610e388184610dc0565b905092915050565b610e4981610d82565b8114610e5457600080fd5b50565b600081359050610e6681610e40565b92915050565b600060208284031215610e8257610e8161099b565b5b6000610e9084828501610e57565b91505092915050565b60006080820190508181036000830152610eb38187610a87565b90508181036020830152610ec78186610a87565b90508181036040830152610edb8185610a87565b90508181036060830152610eef8184610a87565b905095945050505050565b7f4e487b7100000000000000000000000000000000000000000000000000000000600052602260045260246000fd5b60006002820490506001821680610f4157607f821691505b602082108103610f5457610f53610efa565b5b50919050565b7f416c726561647920726567697374657265640000000000000000000000000000600082015250565b6000610f90601283610a3b565b9150610f9b82610f5a565b602082019050919050565b60006020820190508181036000830152610fbf81610f83565b9050919050565b60008190508160005260206000209050919050565b60006020601f8301049050919050565b600082821b905092915050565b6000600883026110287fffffffffffffffffffffffffffffffffffffffffffffffffffffffffffffffff82610feb565b6110328683610feb565b95508019841693508086168417925050509392505050565b6000819050919050565b6000819050919050565b600061107961107461106f8461104a565b611054565b61104a565b9050919050565b6000819050919050565b6110938361105e565b6110a761109f82611080565b848454610ff8565b825550505050565b600090565b6110bc6110af565b6110c781848461108a565b505050565b5b818110156110eb576110e06000826110b4565b6001810190506110cd565b5050565b601f8211156111305761110181610fc6565b61110a84610fdb565b81016020851015611119578190505b61112d61112585610fdb565b8301826110cc565b50505b505050565b600082821c905092915050565b600061115360001984600802611135565b1980831691505092915050565b600061116c8383611142565b9150826002028217905092915050565b61118582610a30565b67ffffffffffffffff81111561119e5761119d610b54565b5b6111a88254610f29565b6111b38282856110ef565b600060209050601f8311600181146111e657600084156111d4578287015190505b6111de8582611160565b865550611246565b601f1984166111f486610fc6565b60005b8281101561121c578489015182556001820191506020850194506020810190506111f7565b868310156112395784890151611235601f891682611142565b8355505b6001600288020188555050505b505050505050565b600060208201905081810360008301526112688184610a87565b905092915050565b7f4e6f742072656769737465726564000000000000000000000000000000000000600082015250565b60006112a6600e83610a3b565b91506112b182611270565b602082019050919050565b600060208201905081810360008301526112d581611299565b9050919050565b6112e581610d82565b82525050565b600060208201905061130060008301846112dc565b9291505056fea2646970667358221220f4571d0b97c0e2471460c87ace58e34940c7d73f2f9f71214e561183ed34312764736f6c634300081e0033",
  "immutableReferences": {},
  "source": "// SPDX-License-Identifier: MIT\r\npragma solidity ^0.8.20;\r\n\r\ncontract PatientRegistry {\r\n    struct Patient {\r\n        string name;            // Patient’s full name\r\n        string gender;          // \"Male\", \"Female\", \"Other\"\r\n        string dateOfBirth;     // DOB (YYYY-MM-DD or similar)\r\n        string contactInfo;     // Email or phone\r\n        bool isRegistered;      // Tracks if account exists\r\n        bytes32[] fileHashes;   // Uploaded record identifiers (e.g., keccak of IPFS CID)\r\n    }\r\n\r\n    mapping(address => Patient) public patients;\r\n\r\n    event PatientRegistered(address indexed patient, string name);\r\n    event FileAdded(address indexed patient, bytes32 fileHash);\r\n\r\n    modifier onlyRegistered() {\r\n        require(patients[msg.sender].isRegistered, \"Not registered\");\r\n        _;\r\n    }\r\n\r\n    function registerPatient(\r\n        string memory _name,\r\n        string memory _gender,\r\n        string memory _dateOfBirth,\r\n        string memory _contactInfo\r\n    ) external {\r\n        require(!patients[msg.sender].isRegistered, \"Already registered\");\r\n\r\n        // Use a storage reference. Solidity initializes the dynamic array to empty.\r\n        Patient storage p = patients[msg.sender];\r\n        p.name = _name;\r\n        p.gender = _gender;\r\n        p.dateOfBirth = _dateOfBirth;\r\n        p.contactInfo = _contactInfo;\r\n        p.isRegistered = true;\r\n\r\n        emit PatientRegistered(msg.sender, _name);\r\n    }\r\n\r\n    function addFileToPatient(bytes32 _fileHash) external onlyRegistered {\r\n        patients[msg.sender].fileHashes.push(_fileHash);\r\n        emit FileAdded(msg.sender, _fileHash);\r\n    }\r\n\r\n    function getPatientFiles(address _patient) external view returns (bytes32[] memory) {\r\n        return patients[_patient].fileHashes;\r\n    }\r\n\r\n    function getPatientDetails(address _patient)\r\n        external\r\n        view\r\n        returns (string memory, string memory, string memory, string memory)\r\n    {\r\n        Patient storage p = patients[_patient];\r\n        return (p.name, p.gender, p.dateOfBirth, p.contactInfo);\r\n    }\r\n}\r\n",
  "sourcePath": "C:\\Users\\hp\\OneDrive\\Desktop\\Projects\\Med_Vault\\Blockchain\\contracts\\PatientRegistry.sol",
  "compiler": {
    "name": "solc",
    "version": "0.8.30+commit.73712a01.Emscripten.clang"
  },
  "schemaVersion": "3.4.16",
  "updatedAt": "2025-11-03T06:51:46.408Z",
  "networkType": "ethereum",
  "devdoc": {
    "kind": "dev",
    "methods": {},
    "version": 1
  },
  "userdoc": {
    "kind": "user",
    "methods": {},
    "version": 1
  }
}