{
  "contractName": "MedicalRecord",
  "abi": [
    {
      "inputs": [
        {
          "internalType": "address",
          "name": "_accessControl",
          "type": "address"
        },
        {
          "internalType": "address",
          "name": "_patientRegistry",
          "type": "address"
        }
      ],
      "stateMutability": "nonpayable",
      "type": "constructor"
    },
    {
      "anonymous": false,
      "inputs": [
        {
          "indexed": true,
          "internalType": "address",
          "name": "patient",
          "type": "address"
        },
        {
          "indexed": false,
          "internalType": "string",
          "name": "fileHash",
          "type": "string"
        },
        {
          "indexed": false,
          "internalType": "string",
          "name": "fileType",
          "type": "string"
        }
      ],
      "name": "RecordUploaded",
      "type": "event"
    },
    {
      "anonymous": false,
      "inputs": [
        {
          "indexed": true,
          "internalType": "address",
          "name": "viewer",
          "type": "address"
        },
        {
          "indexed": false,
          "internalType": "string",
          "name": "fileHash",
          "type": "string"
        },
        {
          "indexed": false,
          "internalType": "uint256",
          "name": "time",
          "type": "uint256"
        }
      ],
      "name": "RecordViewed",
      "type": "event"
    },
    {
      "inputs": [],
      "name": "accessControl",
      "outputs": [
        {
          "internalType": "contract AccessControl",
          "name": "",
          "type": "address"
        }
      ],
      "stateMutability": "view",
      "type": "function",
      "constant": true
    },
    {
      "inputs": [],
      "name": "patientRegistry",
      "outputs": [
        {
          "internalType": "contract PatientRegistry",
          "name": "",
          "type": "address"
        }
      ],
      "stateMutability": "view",
      "type": "function",
      "constant": true
    },
    {
      "inputs": [
        {
          "internalType": "string",
          "name": "_fileHash",
          "type": "string"
        },
        {
          "internalType": "string",
          "name": "_fileType",
          "type": "string"
        }
      ],
      "name": "uploadRecord",
      "outputs": [],
      "stateMutability": "nonpayable",
      "type": "function"
    },
    {
      "inputs": [
        {
          "internalType": "string",
          "name": "_fileHash",
          "type": "string"
        },
        {
          "internalType": "address",
          "name": "_user",
          "type": "address"
        }
      ],
      "name": "viewRecord",
      "outputs": [
        {
          "components": [
            {
              "internalType": "string",
              "name": "fileHash",
              "type": "string"
            },
            {
              "internalType": "string",
              "name": "fileType",
              "type": "string"
            },
            {
              "internalType": "address",
              "name": "owner",
              "type": "address"
            },
            {
              "internalType": "uint256",
              "name": "uploadTime",
              "type": "uint256"
            }
          ],
          "internalType": "struct MedicalRecord.Record",
          "name": "",
          "type": "tuple"
        }
      ],
      "stateMutability": "view",
      "type": "function",
      "constant": true
    },
    {
      "inputs": [
        {
          "internalType": "address",
          "name": "patient",
          "type": "address"
        }
      ],
      "name": "getPatientFiles",
      "outputs": [
        {
          "internalType": "string[]",
          "name": "",
          "type": "string[]"
        }
      ],
      "stateMutability": "view",
      "type": "function",
      "constant": true
    },
    {
      "inputs": [
        {
          "internalType": "string",
          "name": "_fileHash",
          "type": "string"
        }
      ],
      "name": "getRecordDetails",
      "outputs": [
        {
          "components": [
            {
              "internalType": "string",
              "name": "fileHash",
              "type": "string"
            },
            {
              "internalType": "string",
              "name": "fileType",
              "type": "string"
            },
            {
              "internalType": "address",
              "name": "owner",
              "type": "address"
            },
            {
              "internalType": "uint256",
              "name": "uploadTime",
              "type": "uint256"
            }
          ],
          "internalType": "struct MedicalRecord.Record",
          "name": "",
          "type": "tuple"
        }
      ],
      "stateMutability": "view",
      "type": "function",
      "constant": true
    }
  ],
  "bytecode": "0x608060405234801561001057600080fd5b50604051611a8a380380611a8a8339818101604052810190610032919061011d565b816000806101000a81548173ffffffffffffffffffffffffffffffffffffffff021916908373ffffffffffffffffffffffffffffffffffffffff16021790555080600160006101000a81548173ffffffffffffffffffffffffffffffffffffffff021916908373ffffffffffffffffffffffffffffffffffffffff160217905550505061015d565b600080fd5b600073ffffffffffffffffffffffffffffffffffffffff82169050919050565b60006100ea826100bf565b9050919050565b6100fa816100df565b811461010557600080fd5b50565b600081519050610117816100f1565b92915050565b60008060408385031215610134576101336100ba565b5b600061014285828601610108565b925050602061015385828601610108565b9150509250929050565b61191e8061016c6000396000f3fe608060405234801561001057600080fd5b50600436106100625760003560e01c80631238d68d1461006757806313007d55146100835780631a9e48f5146100a157806350065b98146100d15780635250c6e214610101578063c1816dfb1461011f575b600080fd5b610081600480360381019061007c9190610d6f565b61014f565b005b61008b6104b1565b6040516100989190610e66565b60405180910390f35b6100bb60048036038101906100b69190610e81565b6104d5565b6040516100c89190610fed565b60405180910390f35b6100eb60048036038101906100e6919061103b565b610741565b6040516100f89190610fed565b60405180910390f35b610109610a99565b60405161011691906110b8565b60405180910390f35b610139600480360381019061013491906110d3565b610abf565b60405161014691906111c2565b60405180910390f35b6000825111610193576040517f08c379a000000000000000000000000000000000000000000000000000000000815260040161018a90611241565b60405180910390fd5b60008151116101d7576040517f08c379a00000000000000000000000000000000000000000000000000000000081526004016101ce906112ad565b60405180910390fd5b600073ffffffffffffffffffffffffffffffffffffffff166002836040516101ff9190611309565b908152602001604051809103902060020160009054906101000a900473ffffffffffffffffffffffffffffffffffffffff1673ffffffffffffffffffffffffffffffffffffffff1614610287576040517f08c379a000000000000000000000000000000000000000000000000000000000815260040161027e9061136c565b60405180910390fd5b60405180608001604052808381526020018281526020013373ffffffffffffffffffffffffffffffffffffffff168152602001428152506002836040516102ce9190611309565b908152602001604051809103902060008201518160000190816102f1919061158e565b506020820151816001019081610307919061158e565b5060408201518160020160006101000a81548173ffffffffffffffffffffffffffffffffffffffff021916908373ffffffffffffffffffffffffffffffffffffffff16021790555060608201518160030155905050600360003373ffffffffffffffffffffffffffffffffffffffff1673ffffffffffffffffffffffffffffffffffffffff168152602001908152602001600020829080600181540180825580915050600190039060005260206000200160009091909190915090816103cd919061158e565b50600160009054906101000a900473ffffffffffffffffffffffffffffffffffffffff1673ffffffffffffffffffffffffffffffffffffffff1663edefcf8833846040518363ffffffff1660e01b815260040161042b9291906116a8565b600060405180830381600087803b15801561044557600080fd5b505af1158015610459573d6000803e3d6000fd5b505050503373ffffffffffffffffffffffffffffffffffffffff167fb723d07463f1068cac6f7fd185f491afa8cc9d5bf4866dfa8f064f64e528bc2883836040516104a59291906116d8565b60405180910390a25050565b60008054906101000a900473ffffffffffffffffffffffffffffffffffffffff1681565b6104dd610bd7565b600073ffffffffffffffffffffffffffffffffffffffff166002836040516105059190611309565b908152602001604051809103902060020160009054906101000a900473ffffffffffffffffffffffffffffffffffffffff1673ffffffffffffffffffffffffffffffffffffffff160361058d576040517f08c379a00000000000000000000000000000000000000000000000000000000081526004016105849061175b565b60405180910390fd5b60028260405161059d9190611309565b90815260200160405180910390206040518060800160405290816000820180546105c6906113bb565b80601f01602080910402602001604051908101604052809291908181526020018280546105f2906113bb565b801561063f5780601f106106145761010080835404028352916020019161063f565b820191906000526020600020905b81548152906001019060200180831161062257829003601f168201915b50505050508152602001600182018054610658906113bb565b80601f0160208091040260200160405190810160405280929190818152602001828054610684906113bb565b80156106d15780601f106106a6576101008083540402835291602001916106d1565b820191906000526020600020905b8154815290600101906020018083116106b457829003601f168201915b505050505081526020016002820160009054906101000a900473ffffffffffffffffffffffffffffffffffffffff1673ffffffffffffffffffffffffffffffffffffffff1673ffffffffffffffffffffffffffffffffffffffff1681526020016003820154815250509050919050565b610749610bd7565b600060028460405161075b9190611309565b9081526020016040518091039020604051806080016040529081600082018054610784906113bb565b80601f01602080910402602001604051908101604052809291908181526020018280546107b0906113bb565b80156107fd5780601f106107d2576101008083540402835291602001916107fd565b820191906000526020600020905b8154815290600101906020018083116107e057829003601f168201915b50505050508152602001600182018054610816906113bb565b80601f0160208091040260200160405190810160405280929190818152602001828054610842906113bb565b801561088f5780601f106108645761010080835404028352916020019161088f565b820191906000526020600020905b81548152906001019060200180831161087257829003601f168201915b505050505081526020016002820160009054906101000a900473ffffffffffffffffffffffffffffffffffffffff1673ffffffffffffffffffffffffffffffffffffffff1673ffffffffffffffffffffffffffffffffffffffff1681526020016003820154815250509050600073ffffffffffffffffffffffffffffffffffffffff16816040015173ffffffffffffffffffffffffffffffffffffffff160361096d576040517f08c379a0000000000000000000000000000000000000000000000000000000008152600401610964906117c7565b60405180910390fd5b60008373ffffffffffffffffffffffffffffffffffffffff16826040015173ffffffffffffffffffffffffffffffffffffffff1614905060008060009054906101000a900473ffffffffffffffffffffffffffffffffffffffff1673ffffffffffffffffffffffffffffffffffffffff166313bd20e287876040518363ffffffff1660e01b8152600401610a029291906117e7565b602060405180830381865afa158015610a1f573d6000803e3d6000fd5b505050506040513d601f19601f82011682018060405250810190610a43919061184f565b90508180610a4e5750805b610a8d576040517f08c379a0000000000000000000000000000000000000000000000000000000008152600401610a84906118c8565b60405180910390fd5b82935050505092915050565b600160009054906101000a900473ffffffffffffffffffffffffffffffffffffffff1681565b6060600360008373ffffffffffffffffffffffffffffffffffffffff1673ffffffffffffffffffffffffffffffffffffffff168152602001908152602001600020805480602002602001604051908101604052809291908181526020016000905b82821015610bcc578382906000526020600020018054610b3f906113bb565b80601f0160208091040260200160405190810160405280929190818152602001828054610b6b906113bb565b8015610bb85780601f10610b8d57610100808354040283529160200191610bb8565b820191906000526020600020905b815481529060010190602001808311610b9b57829003601f168201915b505050505081526020019060010190610b20565b505050509050919050565b60405180608001604052806060815260200160608152602001600073ffffffffffffffffffffffffffffffffffffffff168152602001600081525090565b6000604051905090565b600080fd5b600080fd5b600080fd5b600080fd5b6000601f19601f8301169050919050565b7f4e487b7100000000000000000000000000000000000000000000000000000000600052604160045260246000fd5b610c7c82610c33565b810181811067ffffffffffffffff82111715610c9b57610c9a610c44565b5b80604052505050565b6000610cae610c15565b9050610cba8282610c73565b919050565b600067ffffffffffffffff821115610cda57610cd9610c44565b5b610ce382610c33565b9050602081019050919050565b82818337600083830152505050565b6000610d12610d0d84610cbf565b610ca4565b905082815260208101848484011115610d2e57610d2d610c2e565b5b610d39848285610cf0565b509392505050565b600082601f830112610d5657610d55610c29565b5b8135610d66848260208601610cff565b91505092915050565b60008060408385031215610d8657610d85610c1f565b5b600083013567ffffffffffffffff811115610da457610da3610c24565b5b610db085828601610d41565b925050602083013567ffffffffffffffff811115610dd157610dd0610c24565b5b610ddd85828601610d41565b9150509250929050565b600073ffffffffffffffffffffffffffffffffffffffff82169050919050565b6000819050919050565b6000610e2c610e27610e2284610de7565b610e07565b610de7565b9050919050565b6000610e3e82610e11565b9050919050565b6000610e5082610e33565b9050919050565b610e6081610e45565b82525050565b6000602082019050610e7b6000830184610e57565b92915050565b600060208284031215610e9757610e96610c1f565b5b600082013567ffffffffffffffff811115610eb557610eb4610c24565b5b610ec184828501610d41565b91505092915050565b600081519050919050565b600082825260208201905092915050565b60005b83811015610f04578082015181840152602081019050610ee9565b60008484015250505050565b6000610f1b82610eca565b610f258185610ed5565b9350610f35818560208601610ee6565b610f3e81610c33565b840191505092915050565b6000610f5482610de7565b9050919050565b610f6481610f49565b82525050565b6000819050919050565b610f7d81610f6a565b82525050565b60006080830160008301518482036000860152610fa08282610f10565b91505060208301518482036020860152610fba8282610f10565b9150506040830151610fcf6040860182610f5b565b506060830151610fe26060860182610f74565b508091505092915050565b600060208201905081810360008301526110078184610f83565b905092915050565b61101881610f49565b811461102357600080fd5b50565b6000813590506110358161100f565b92915050565b6000806040838503121561105257611051610c1f565b5b600083013567ffffffffffffffff8111156110705761106f610c24565b5b61107c85828601610d41565b925050602061108d85828601611026565b9150509250929050565b60006110a282610e33565b9050919050565b6110b281611097565b82525050565b60006020820190506110cd60008301846110a9565b92915050565b6000602082840312156110e9576110e8610c1f565b5b60006110f784828501611026565b91505092915050565b600081519050919050565b600082825260208201905092915050565b6000819050602082019050919050565b60006111388383610f10565b905092915050565b6000602082019050919050565b600061115882611100565b611162818561110b565b9350836020820285016111748561111c565b8060005b858110156111b05784840389528151611191858261112c565b945061119c83611140565b925060208a01995050600181019050611178565b50829750879550505050505092915050565b600060208201905081810360008301526111dc818461114d565b905092915050565b600082825260208201905092915050565b7f496e76616c69642066696c652068617368000000000000000000000000000000600082015250565b600061122b6011836111e4565b9150611236826111f5565b602082019050919050565b6000602082019050818103600083015261125a8161121e565b9050919050565b7f496e76616c69642066696c652074797065000000000000000000000000000000600082015250565b60006112976011836111e4565b91506112a282611261565b602082019050919050565b600060208201905081810360008301526112c68161128a565b9050919050565b600081905092915050565b60006112e382610eca565b6112ed81856112cd565b93506112fd818560208601610ee6565b80840191505092915050565b600061131582846112d8565b915081905092915050565b7f5265636f726420616c7265616479206578697374730000000000000000000000600082015250565b60006113566015836111e4565b915061136182611320565b602082019050919050565b6000602082019050818103600083015261138581611349565b9050919050565b7f4e487b7100000000000000000000000000000000000000000000000000000000600052602260045260246000fd5b600060028204905060018216806113d357607f821691505b6020821081036113e6576113e561138c565b5b50919050565b60008190508160005260206000209050919050565b60006020601f8301049050919050565b600082821b905092915050565b60006008830261144e7fffffffffffffffffffffffffffffffffffffffffffffffffffffffffffffffff82611411565b6114588683611411565b95508019841693508086168417925050509392505050565b600061148b61148661148184610f6a565b610e07565b610f6a565b9050919050565b6000819050919050565b6114a583611470565b6114b96114b182611492565b84845461141e565b825550505050565b600090565b6114ce6114c1565b6114d981848461149c565b505050565b5b818110156114fd576114f26000826114c6565b6001810190506114df565b5050565b601f82111561154257611513816113ec565b61151c84611401565b8101602085101561152b578190505b61153f61153785611401565b8301826114de565b50505b505050565b600082821c905092915050565b600061156560001984600802611547565b1980831691505092915050565b600061157e8383611554565b9150826002028217905092915050565b61159782610eca565b67ffffffffffffffff8111156115b0576115af610c44565b5b6115ba82546113bb565b6115c5828285611501565b600060209050601f8311600181146115f857600084156115e6578287015190505b6115f08582611572565b865550611658565b601f198416611606866113ec565b60005b8281101561162e57848901518255600182019150602085019450602081019050611609565b8683101561164b5784890151611647601f891682611554565b8355505b6001600288020188555050505b505050505050565b61166981610f49565b82525050565b600061167a82610eca565b61168481856111e4565b9350611694818560208601610ee6565b61169d81610c33565b840191505092915050565b60006040820190506116bd6000830185611660565b81810360208301526116cf818461166f565b90509392505050565b600060408201905081810360008301526116f2818561166f565b90508181036020830152611706818461166f565b90509392505050565b7f5265636f7264206e6f7420666f756e6400000000000000000000000000000000600082015250565b60006117456010836111e4565b91506117508261170f565b602082019050919050565b6000602082019050818103600083015261177481611738565b9050919050565b7f5265636f726420646f6573206e6f742065786973740000000000000000000000600082015250565b60006117b16015836111e4565b91506117bc8261177b565b602082019050919050565b600060208201905081810360008301526117e0816117a4565b9050919050565b60006040820190508181036000830152611801818561166f565b90506118106020830184611660565b9392505050565b60008115159050919050565b61182c81611817565b811461183757600080fd5b50565b60008151905061184981611823565b92915050565b60006020828403121561186557611864610c1f565b5b60006118738482850161183a565b91505092915050565b7f4163636573732064656e69656400000000000000000000000000000000000000600082015250565b60006118b2600d836111e4565b91506118bd8261187c565b602082019050919050565b600060208201905081810360008301526118e1816118a5565b905091905056fea26469706673582212200d77aa99e619477bdba5a03921d342d7a023a7300f0c6e030c726211658e8a5e64736f6c634300081e0033",
  "immutableReferences": {},
  "source": "// SPDX-License-Identifier: MIT\r\npragma solidity ^0.8.20;\r\n\r\nimport \"./AccessControl.sol\";\r\nimport \"./PatientRegistry.sol\";\r\n\r\ncontract MedicalRecord {\r\n    AccessControl public accessControl;\r\n    PatientRegistry public patientRegistry;\r\n\r\n    struct Record {\r\n        string fileHash;      // IPFS or encrypted file reference (now string)\r\n        string fileType;      // e.g. \"X-ray\", \"Prescription\"\r\n        address owner;        // Patient’s address\r\n        uint256 uploadTime;   // Timestamp of upload\r\n    }\r\n\r\n    // Mapping from fileHash (string) => Record details\r\n    mapping(string => Record) private records;\r\n\r\n    // Mapping from patient address => list of their file hashes\r\n    mapping(address => string[]) private patientFiles;\r\n\r\n    // Events\r\n    event RecordUploaded(address indexed patient, string fileHash, string fileType);\r\n    event RecordViewed(address indexed viewer, string fileHash, uint256 time);\r\n\r\n    constructor(address _accessControl, address _patientRegistry) {\r\n        accessControl = AccessControl(_accessControl);\r\n        patientRegistry = PatientRegistry(_patientRegistry);\r\n    }\r\n\r\n    /**\r\n     * @notice Upload a new medical record (IPFS hash in string form)\r\n     * @param _fileHash - IPFS hash (e.g., \"Qm...\")\r\n     * @param _fileType - Type of file (e.g., \"X-ray\", \"Prescription\")\r\n     */\r\n    function uploadRecord(string memory _fileHash, string memory _fileType) external {\r\n        require(bytes(_fileHash).length > 0, \"Invalid file hash\");\r\n        require(bytes(_fileType).length > 0, \"Invalid file type\");\r\n        require(records[_fileHash].owner == address(0), \"Record already exists\");\r\n\r\n        records[_fileHash] = Record({\r\n            fileHash: _fileHash,\r\n            fileType: _fileType,\r\n            owner: msg.sender,\r\n            uploadTime: block.timestamp\r\n        });\r\n\r\n        patientFiles[msg.sender].push(_fileHash);\r\n        patientRegistry.addFileToPatient(msg.sender,_fileHash);\r\n\r\n        emit RecordUploaded(msg.sender, _fileHash, _fileType);\r\n    }\r\n\r\n    /**\r\n     * @notice View record details if access is granted or caller is owner\r\n     * @param _fileHash - IPFS file hash (string)\r\n     */\r\n    function viewRecord(string memory _fileHash,address _user) external view returns (Record memory) {\r\n        Record memory record = records[_fileHash];\r\n        require(record.owner != address(0), \"Record does not exist\");\r\n\r\n        bool isOwner = record.owner == _user;\r\n        bool hasPermission = accessControl.hasAccess(_fileHash, _user);\r\n\r\n        require(isOwner || hasPermission, \"Access denied\");\r\n\r\n        return record;\r\n    }\r\n\r\n    /**\r\n     * @notice Get all file hashes for a given patient\r\n     * @param patient - Patient wallet address\r\n     */\r\n    function getPatientFiles(address patient) external view returns (string[] memory) {\r\n        return patientFiles[patient];\r\n    }\r\n\r\n    /**\r\n     * @notice Get record details by file hash\r\n     */\r\n    function getRecordDetails(string memory _fileHash) external view returns (Record memory) {\r\n        require(records[_fileHash].owner != address(0), \"Record not found\");\r\n        return records[_fileHash];\r\n    }\r\n}\r\n",
  "sourcePath": "C:\\Users\\hp\\OneDrive\\Desktop\\Projects\\Med_Vault\\blockchain\\contracts\\MedicalRecord.sol",
  "compiler": {
    "name": "solc",
    "version": "0.8.30+commit.73712a01.Emscripten.clang"
  },
  "schemaVersion": "3.4.16",
  "updatedAt": "2026-04-21T11:13:43.022Z",
  "networkType": "ethereum",
  "devdoc": {
    "kind": "dev",
    "methods": {
      "getPatientFiles(address)": {
        "params": {
          "patient": "- Patient wallet address"
        }
      },
      "uploadRecord(string,string)": {
        "params": {
          "_fileHash": "- IPFS hash (e.g., \"Qm...\")",
          "_fileType": "- Type of file (e.g., \"X-ray\", \"Prescription\")"
        }
      },
      "viewRecord(string,address)": {
        "params": {
          "_fileHash": "- IPFS file hash (string)"
        }
      }
    },
    "version": 1
  },
  "userdoc": {
    "kind": "user",
    "methods": {
      "getPatientFiles(address)": {
        "notice": "Get all file hashes for a given patient"
      },
      "getRecordDetails(string)": {
        "notice": "Get record details by file hash"
      },
      "uploadRecord(string,string)": {
        "notice": "Upload a new medical record (IPFS hash in string form)"
      },
      "viewRecord(string,address)": {
        "notice": "View record details if access is granted or caller is owner"
      }
    },
    "version": 1
  }
}