{
  "contractName": "PatientRegistry",
  "abi": [
    {
      "anonymous": false,
      "inputs": [
        {
          "indexed": true,
          "internalType": "address",
          "name": "patient",
          "type": "address"
        },
        {
          "indexed": false,
          "internalType": "string",
          "name": "fileHash",
          "type": "string"
        }
      ],
      "name": "FileAdded",
      "type": "event"
    },
    {
      "anonymous": false,
      "inputs": [
        {
          "indexed": true,
          "internalType": "address",
          "name": "patient",
          "type": "address"
        },
        {
          "indexed": false,
          "internalType": "string",
          "name": "name",
          "type": "string"
        }
      ],
      "name": "PatientRegistered",
      "type": "event"
    },
    {
      "inputs": [
        {
          "internalType": "address",
          "name": "",
          "type": "address"
        }
      ],
      "name": "patients",
      "outputs": [
        {
          "internalType": "string",
          "name": "name",
          "type": "string"
        },
        {
          "internalType": "string",
          "name": "gender",
          "type": "string"
        },
        {
          "internalType": "string",
          "name": "dateOfBirth",
          "type": "string"
        },
        {
          "internalType": "string",
          "name": "bloodGroup",
          "type": "string"
        },
        {
          "internalType": "string",
          "name": "contactInfo",
          "type": "string"
        },
        {
          "internalType": "string",
          "name": "homeAddress",
          "type": "string"
        },
        {
          "internalType": "bool",
          "name": "isRegistered",
          "type": "bool"
        }
      ],
      "stateMutability": "view",
      "type": "function",
      "constant": true
    },
    {
      "inputs": [
        {
          "internalType": "uint256",
          "name": "",
          "type": "uint256"
        }
      ],
      "name": "registeredPatientAddresses",
      "outputs": [
        {
          "internalType": "address",
          "name": "",
          "type": "address"
        }
      ],
      "stateMutability": "view",
      "type": "function",
      "constant": true
    },
    {
      "inputs": [],
      "name": "totalFileRecords",
      "outputs": [
        {
          "internalType": "uint256",
          "name": "",
          "type": "uint256"
        }
      ],
      "stateMutability": "view",
      "type": "function",
      "constant": true
    },
    {
      "inputs": [],
      "name": "totalPatients",
      "outputs": [
        {
          "internalType": "uint256",
          "name": "",
          "type": "uint256"
        }
      ],
      "stateMutability": "view",
      "type": "function",
      "constant": true
    },
    {
      "inputs": [
        {
          "internalType": "string",
          "name": "_name",
          "type": "string"
        },
        {
          "internalType": "string",
          "name": "_gender",
          "type": "string"
        },
        {
          "internalType": "string",
          "name": "_dateOfBirth",
          "type": "string"
        },
        {
          "internalType": "string",
          "name": "_bloodGroup",
          "type": "string"
        },
        {
          "internalType": "string",
          "name": "_contactInfo",
          "type": "string"
        },
        {
          "internalType": "string",
          "name": "_homeAddress",
          "type": "string"
        }
      ],
      "name": "registerPatient",
      "outputs": [],
      "stateMutability": "nonpayable",
      "type": "function"
    },
    {
      "inputs": [
        {
          "internalType": "address",
          "name": "_patient",
          "type": "address"
        },
        {
          "internalType": "string",
          "name": "_fileHash",
          "type": "string"
        }
      ],
      "name": "addFileToPatient",
      "outputs": [],
      "stateMutability": "nonpayable",
      "type": "function"
    },
    {
      "inputs": [
        {
          "internalType": "address",
          "name": "_patient",
          "type": "address"
        }
      ],
      "name": "getPatientFiles",
      "outputs": [
        {
          "internalType": "string[]",
          "name": "",
          "type": "string[]"
        }
      ],
      "stateMutability": "view",
      "type": "function",
      "constant": true
    },
    {
      "inputs": [
        {
          "internalType": "address",
          "name": "_patient",
          "type": "address"
        }
      ],
      "name": "getPatientDetails",
      "outputs": [
        {
          "internalType": "string",
          "name": "name",
          "type": "string"
        },
        {
          "internalType": "string",
          "name": "gender",
          "type": "string"
        },
        {
          "internalType": "string",
          "name": "dateOfBirth",
          "type": "string"
        },
        {
          "internalType": "string",
          "name": "bloodGroup",
          "type": "string"
        },
        {
          "internalType": "string",
          "name": "contactInfo",
          "type": "string"
        },
        {
          "internalType": "string",
          "name": "homeAddress",
          "type": "string"
        }
      ],
      "stateMutability": "view",
      "type": "function",
      "constant": true
    },
    {
      "inputs": [],
      "name": "getTotalPatientsCount",
      "outputs": [
        {
          "internalType": "uint256",
          "name": "",
          "type": "uint256"
        }
      ],
      "stateMutability": "view",
      "type": "function",
      "constant": true
    },
    {
      "inputs": [],
      "name": "getTotalRecordsCount",
      "outputs": [
        {
          "internalType": "uint256",
          "name": "",
          "type": "uint256"
        }
      ],
      "stateMutability": "view",
      "type": "function",
      "constant": true
    },
    {
      "inputs": [],
      "name": "getAllRegisteredPatients",
      "outputs": [
        {
          "internalType": "address[]",
          "name": "",
          "type": "address[]"
        }
      ],
      "stateMutability": "view",
      "type": "function",
      "constant": true
    }
  ],
  "bytecode": "0x6080604052348015600f57600080fd5b50611ba88061001f6000396000f3fe608060405234801561001057600080fd5b50600436106100a95760003560e01c8063a2143b3c11610071578063a2143b3c1461015a578063c1816dfb1461018a578063deb5ef09146101ba578063ed3a2634146101d8578063edefcf88146101f6578063efe2ccc114610212576100a9565b80630869cfbc146100ae578063413f107a146100e45780636d26dce8146101025780638f7686491461011e5780639a96fcc11461013c575b600080fd5b6100c860048036038101906100c39190610f9c565b610247565b6040516100db9796959493929190611074565b60405180910390f35b6100ec6105c6565b6040516100f991906111cb565b60405180910390f35b61011c60048036038101906101179190611322565b610654565b005b610126610881565b6040516101339190611470565b60405180910390f35b610144610887565b6040516101519190611470565b60405180910390f35b610174600480360381019061016f91906114b7565b610891565b60405161018191906114f3565b60405180910390f35b6101a4600480360381019061019f9190610f9c565b6108d0565b6040516101b1919061161a565b60405180910390f35b6101c26109eb565b6040516101cf9190611470565b60405180910390f35b6101e06109f1565b6040516101ed9190611470565b60405180910390f35b610210600480360381019061020b919061163c565b6109fa565b005b61022c60048036038101906102279190610f9c565b610b68565b60405161023e96959493929190611698565b60405180910390f35b600260205280600052604060002060009150905080600001805461026a90611752565b80601f016020809104026020016040519081016040528092919081815260200182805461029690611752565b80156102e35780601f106102b8576101008083540402835291602001916102e3565b820191906000526020600020905b8154815290600101906020018083116102c657829003601f168201915b5050505050908060010180546102f890611752565b80601f016020809104026020016040519081016040528092919081815260200182805461032490611752565b80156103715780601f1061034657610100808354040283529160200191610371565b820191906000526020600020905b81548152906001019060200180831161035457829003601f168201915b50505050509080600201805461038690611752565b80601f01602080910402602001604051908101604052809291908181526020018280546103b290611752565b80156103ff5780601f106103d4576101008083540402835291602001916103ff565b820191906000526020600020905b8154815290600101906020018083116103e257829003601f168201915b50505050509080600301805461041490611752565b80601f016020809104026020016040519081016040528092919081815260200182805461044090611752565b801561048d5780601f106104625761010080835404028352916020019161048d565b820191906000526020600020905b81548152906001019060200180831161047057829003601f168201915b5050505050908060040180546104a290611752565b80601f01602080910402602001604051908101604052809291908181526020018280546104ce90611752565b801561051b5780601f106104f05761010080835404028352916020019161051b565b820191906000526020600020905b8154815290600101906020018083116104fe57829003601f168201915b50505050509080600501805461053090611752565b80601f016020809104026020016040519081016040528092919081815260200182805461055c90611752565b80156105a95780601f1061057e576101008083540402835291602001916105a9565b820191906000526020600020905b81548152906001019060200180831161058c57829003601f168201915b5050505050908060060160009054906101000a900460ff16905087565b6060600380548060200260200160405190810160405280929190818152602001828054801561064a57602002820191906000526020600020905b8160009054906101000a900473ffffffffffffffffffffffffffffffffffffffff1673ffffffffffffffffffffffffffffffffffffffff1681526020019060010190808311610600575b5050505050905090565b600260003373ffffffffffffffffffffffffffffffffffffffff1673ffffffffffffffffffffffffffffffffffffffff16815260200190815260200160002060060160009054906101000a900460ff16156106e4576040517f08c379a00000000000000000000000000000000000000000000000000000000081526004016106db906117cf565b60405180910390fd5b6000600260003373ffffffffffffffffffffffffffffffffffffffff1673ffffffffffffffffffffffffffffffffffffffff168152602001908152602001600020905086816000019081610738919061199b565b508581600101908161074a919061199b565b508481600201908161075c919061199b565b508381600301908161076e919061199b565b5082816004019081610780919061199b565b5081816005019081610792919061199b565b5060018160060160006101000a81548160ff0219169083151502179055506000808154809291906107c290611a9c565b91905055506003339080600181540180825580915050600190039060005260206000200160009091909190916101000a81548173ffffffffffffffffffffffffffffffffffffffff021916908373ffffffffffffffffffffffffffffffffffffffff1602179055503373ffffffffffffffffffffffffffffffffffffffff167fc85b128388b9c331a2a5485dce4cd0f3db9f7c279d327ce95d6d39d6c94644c7886040516108709190611ae4565b60405180910390a250505050505050565b60015481565b6000600154905090565b600381815481106108a157600080fd5b906000526020600020016000915054906101000a900473ffffffffffffffffffffffffffffffffffffffff1681565b6060600260008373ffffffffffffffffffffffffffffffffffffffff1673ffffffffffffffffffffffffffffffffffffffff168152602001908152602001600020600701805480602002602001604051908101604052809291908181526020016000905b828210156109e057838290600052602060002001805461095390611752565b80601f016020809104026020016040519081016040528092919081815260200182805461097f90611752565b80156109cc5780601f106109a1576101008083540402835291602001916109cc565b820191906000526020600020905b8154815290600101906020018083116109af57829003601f168201915b505050505081526020019060010190610934565b505050509050919050565b60005481565b60008054905090565b600260008373ffffffffffffffffffffffffffffffffffffffff1673ffffffffffffffffffffffffffffffffffffffff16815260200190815260200160002060060160009054906101000a900460ff16610a89576040517f08c379a0000000000000000000000000000000000000000000000000000000008152600401610a8090611b52565b60405180910390fd5b600260008373ffffffffffffffffffffffffffffffffffffffff1673ffffffffffffffffffffffffffffffffffffffff16815260200190815260200160002060070181908060018154018082558091505060019003906000526020600020016000909190919091509081610afd919061199b565b5060016000815480929190610b1190611a9c565b91905055508173ffffffffffffffffffffffffffffffffffffffff167f771ad20575501c8cafc4a8793006515911d6e497fd5838018654c9b50347430c82604051610b5c9190611ae4565b60405180910390a25050565b6060806060806060806000600260008973ffffffffffffffffffffffffffffffffffffffff1673ffffffffffffffffffffffffffffffffffffffff1681526020019081526020016000209050806000018160010182600201836003018460040185600501858054610bd890611752565b80601f0160208091040260200160405190810160405280929190818152602001828054610c0490611752565b8015610c515780601f10610c2657610100808354040283529160200191610c51565b820191906000526020600020905b815481529060010190602001808311610c3457829003601f168201915b50505050509550848054610c6490611752565b80601f0160208091040260200160405190810160405280929190818152602001828054610c9090611752565b8015610cdd5780601f10610cb257610100808354040283529160200191610cdd565b820191906000526020600020905b815481529060010190602001808311610cc057829003601f168201915b50505050509450838054610cf090611752565b80601f0160208091040260200160405190810160405280929190818152602001828054610d1c90611752565b8015610d695780601f10610d3e57610100808354040283529160200191610d69565b820191906000526020600020905b815481529060010190602001808311610d4c57829003601f168201915b50505050509350828054610d7c90611752565b80601f0160208091040260200160405190810160405280929190818152602001828054610da890611752565b8015610df55780601f10610dca57610100808354040283529160200191610df5565b820191906000526020600020905b815481529060010190602001808311610dd857829003601f168201915b50505050509250818054610e0890611752565b80601f0160208091040260200160405190810160405280929190818152602001828054610e3490611752565b8015610e815780601f10610e5657610100808354040283529160200191610e81565b820191906000526020600020905b815481529060010190602001808311610e6457829003601f168201915b50505050509150808054610e9490611752565b80601f0160208091040260200160405190810160405280929190818152602001828054610ec090611752565b8015610f0d5780601f10610ee257610100808354040283529160200191610f0d565b820191906000526020600020905b815481529060010190602001808311610ef057829003601f168201915b505050505090509650965096509650965096505091939550919395565b6000604051905090565b600080fd5b600080fd5b600073ffffffffffffffffffffffffffffffffffffffff82169050919050565b6000610f6982610f3e565b9050919050565b610f7981610f5e565b8114610f8457600080fd5b50565b600081359050610f9681610f70565b92915050565b600060208284031215610fb257610fb1610f34565b5b6000610fc084828501610f87565b91505092915050565b600081519050919050565b600082825260208201905092915050565b60005b83811015611003578082015181840152602081019050610fe8565b60008484015250505050565b6000601f19601f8301169050919050565b600061102b82610fc9565b6110358185610fd4565b9350611045818560208601610fe5565b61104e8161100f565b840191505092915050565b60008115159050919050565b61106e81611059565b82525050565b600060e082019050818103600083015261108e818a611020565b905081810360208301526110a28189611020565b905081810360408301526110b68188611020565b905081810360608301526110ca8187611020565b905081810360808301526110de8186611020565b905081810360a08301526110f28185611020565b905061110160c0830184611065565b98975050505050505050565b600081519050919050565b600082825260208201905092915050565b6000819050602082019050919050565b61114281610f5e565b82525050565b60006111548383611139565b60208301905092915050565b6000602082019050919050565b60006111788261110d565b6111828185611118565b935061118d83611129565b8060005b838110156111be5781516111a58882611148565b97506111b083611160565b925050600181019050611191565b5085935050505092915050565b600060208201905081810360008301526111e5818461116d565b905092915050565b600080fd5b600080fd5b7f4e487b7100000000000000000000000000000000000000000000000000000000600052604160045260246000fd5b61122f8261100f565b810181811067ffffffffffffffff8211171561124e5761124d6111f7565b5b80604052505050565b6000611261610f2a565b905061126d8282611226565b919050565b600067ffffffffffffffff82111561128d5761128c6111f7565b5b6112968261100f565b9050602081019050919050565b82818337600083830152505050565b60006112c56112c084611272565b611257565b9050828152602081018484840111156112e1576112e06111f2565b5b6112ec8482856112a3565b509392505050565b600082601f830112611309576113086111ed565b5b81356113198482602086016112b2565b91505092915050565b60008060008060008060c0878903121561133f5761133e610f34565b5b600087013567ffffffffffffffff81111561135d5761135c610f39565b5b61136989828a016112f4565b965050602087013567ffffffffffffffff81111561138a57611389610f39565b5b61139689828a016112f4565b955050604087013567ffffffffffffffff8111156113b7576113b6610f39565b5b6113c389828a016112f4565b945050606087013567ffffffffffffffff8111156113e4576113e3610f39565b5b6113f089828a016112f4565b935050608087013567ffffffffffffffff81111561141157611410610f39565b5b61141d89828a016112f4565b92505060a087013567ffffffffffffffff81111561143e5761143d610f39565b5b61144a89828a016112f4565b9150509295509295509295565b6000819050919050565b61146a81611457565b82525050565b60006020820190506114856000830184611461565b92915050565b61149481611457565b811461149f57600080fd5b50565b6000813590506114b18161148b565b92915050565b6000602082840312156114cd576114cc610f34565b5b60006114db848285016114a2565b91505092915050565b6114ed81610f5e565b82525050565b600060208201905061150860008301846114e4565b92915050565b600081519050919050565b600082825260208201905092915050565b6000819050602082019050919050565b600082825260208201905092915050565b600061155682610fc9565b611560818561153a565b9350611570818560208601610fe5565b6115798161100f565b840191505092915050565b6000611590838361154b565b905092915050565b6000602082019050919050565b60006115b08261150e565b6115ba8185611519565b9350836020820285016115cc8561152a565b8060005b8581101561160857848403895281516115e98582611584565b94506115f483611598565b925060208a019950506001810190506115d0565b50829750879550505050505092915050565b6000602082019050818103600083015261163481846115a5565b905092915050565b6000806040838503121561165357611652610f34565b5b600061166185828601610f87565b925050602083013567ffffffffffffffff81111561168257611681610f39565b5b61168e858286016112f4565b9150509250929050565b600060c08201905081810360008301526116b28189611020565b905081810360208301526116c68188611020565b905081810360408301526116da8187611020565b905081810360608301526116ee8186611020565b905081810360808301526117028185611020565b905081810360a08301526117168184611020565b9050979650505050505050565b7f4e487b7100000000000000000000000000000000000000000000000000000000600052602260045260246000fd5b6000600282049050600182168061176a57607f821691505b60208210810361177d5761177c611723565b5b50919050565b7f416c726561647920726567697374657265640000000000000000000000000000600082015250565b60006117b9601283610fd4565b91506117c482611783565b602082019050919050565b600060208201905081810360008301526117e8816117ac565b9050919050565b60008190508160005260206000209050919050565b60006020601f8301049050919050565b600082821b905092915050565b6000600883026118517fffffffffffffffffffffffffffffffffffffffffffffffffffffffffffffffff82611814565b61185b8683611814565b95508019841693508086168417925050509392505050565b6000819050919050565b600061189861189361188e84611457565b611873565b611457565b9050919050565b6000819050919050565b6118b28361187d565b6118c66118be8261189f565b848454611821565b825550505050565b600090565b6118db6118ce565b6118e68184846118a9565b505050565b5b8181101561190a576118ff6000826118d3565b6001810190506118ec565b5050565b601f82111561194f57611920816117ef565b61192984611804565b81016020851015611938578190505b61194c61194485611804565b8301826118eb565b50505b505050565b600082821c905092915050565b600061197260001984600802611954565b1980831691505092915050565b600061198b8383611961565b9150826002028217905092915050565b6119a482610fc9565b67ffffffffffffffff8111156119bd576119bc6111f7565b5b6119c78254611752565b6119d282828561190e565b600060209050601f831160018114611a0557600084156119f3578287015190505b6119fd858261197f565b865550611a65565b601f198416611a13866117ef565b60005b82811015611a3b57848901518255600182019150602085019450602081019050611a16565b86831015611a585784890151611a54601f891682611961565b8355505b6001600288020188555050505b505050505050565b7f4e487b7100000000000000000000000000000000000000000000000000000000600052601160045260246000fd5b6000611aa782611457565b91507fffffffffffffffffffffffffffffffffffffffffffffffffffffffffffffffff8203611ad957611ad8611a6d565b5b600182019050919050565b60006020820190508181036000830152611afe8184611020565b905092915050565b7f4e6f742072656769737465726564000000000000000000000000000000000000600082015250565b6000611b3c600e83610fd4565b9150611b4782611b06565b602082019050919050565b60006020820190508181036000830152611b6b81611b2f565b905091905056fea26469706673582212207e8f7c390f6c6d0d707648ffa274ed858acaf603631186d3a142e4c09b2f780364736f6c634300081e0033",
  "immutableReferences": {},
  "source": "// SPDX-License-Identifier: MIT\r\npragma solidity ^0.8.20;\r\n\r\ncontract PatientRegistry {\r\n    //State variables to track counts\r\n    uint256 public totalPatients;\r\n    uint256 public totalFileRecords;\r\n\r\n    struct Patient {\r\n        string name;\r\n        string gender;\r\n        string dateOfBirth;\r\n        string bloodGroup;\r\n        string contactInfo;\r\n        string homeAddress;\r\n        bool isRegistered;\r\n        string[] fileHashes;\r\n    }\r\n\r\n    mapping(address => Patient) public patients;\r\n    \r\n    // Array to store all registered patient addresses for iteration\r\n    address[] public registeredPatientAddresses;\r\n\r\n    event PatientRegistered(address indexed patient, string name);\r\n    event FileAdded(address indexed patient, string fileHash);\r\n\r\n    // modifier onlyRegistered() {\r\n    //     require(patients[msg.sender].isRegistered, \"Not registered\");\r\n    //     _;\r\n    // }\r\n\r\n    function registerPatient(\r\n        string memory _name,\r\n        string memory _gender,\r\n        string memory _dateOfBirth,\r\n        string memory _bloodGroup,\r\n        string memory _contactInfo,\r\n        string memory _homeAddress\r\n    ) external {\r\n        require(!patients[msg.sender].isRegistered, \"Already registered\");\r\n\r\n        Patient storage p = patients[msg.sender];\r\n        p.name = _name;\r\n        p.gender = _gender;\r\n        p.dateOfBirth = _dateOfBirth;\r\n        p.bloodGroup = _bloodGroup;\r\n        p.contactInfo = _contactInfo;\r\n        p.homeAddress = _homeAddress;\r\n        p.isRegistered = true;\r\n        \r\n        //Update total counts and array on registration\r\n        totalPatients++; // Increment total patient count\r\n        registeredPatientAddresses.push(msg.sender); // Add address to iterable list\r\n\r\n        emit PatientRegistered(msg.sender, _name);\r\n    }\r\n\r\n    function addFileToPatient(address _patient, string memory _fileHash) public {\r\n        require(patients[_patient].isRegistered, \"Not registered\");\r\n        patients[_patient].fileHashes.push(_fileHash);\r\n        \r\n        // Update total records count on file addition\r\n        totalFileRecords++; \r\n\r\n        emit FileAdded(_patient, _fileHash);\r\n    }\r\n\r\n    function getPatientFiles(address _patient) external view returns (string[] memory) {\r\n        return patients[_patient].fileHashes;\r\n    }\r\n\r\n    function getPatientDetails(address _patient)\r\n        external\r\n        view\r\n        returns (\r\n            string memory name,\r\n            string memory gender,\r\n            string memory dateOfBirth,\r\n            string memory bloodGroup,\r\n            string memory contactInfo,\r\n            string memory homeAddress\r\n        )\r\n    {\r\n        Patient storage p = patients[_patient];\r\n        return (p.name, p.gender, p.dateOfBirth, p.bloodGroup, p.contactInfo, p.homeAddress);\r\n    }\r\n\r\n    // Getter functions for total counts\r\n    \r\n    function getTotalPatientsCount() public view returns (uint256) {\r\n        return totalPatients;\r\n    }\r\n\r\n    function getTotalRecordsCount() public view returns (uint256) {\r\n        return totalFileRecords;\r\n    }\r\n    \r\n    function getAllRegisteredPatients() public view returns (address[] memory) {\r\n        return registeredPatientAddresses;\r\n    }\r\n}",
  "sourcePath": "C:\\Users\\hp\\OneDrive\\Desktop\\Projects\\Med_Vault\\blockchain\\contracts\\PatientRegistry.sol",
  "compiler": {
    "name": "solc",
    "version": "0.8.30+commit.73712a01.Emscripten.clang"
  },
  "schemaVersion": "3.4.16",
  "updatedAt": "2026-04-21T11:13:42.545Z",
  "networkType": "ethereum",
  "devdoc": {
    "kind": "dev",
    "methods": {},
    "version": 1
  },
  "userdoc": {
    "kind": "user",
    "methods": {},
    "version": 1
  }
}