{
	"contracts/DoctorRegistry.sol": {
		"DoctorRegistry": {
			"abi": [
				{
					"inputs": [],
					"stateMutability": "nonpayable",
					"type": "constructor"
				},
				{
					"anonymous": false,
					"inputs": [
						{
							"indexed": true,
							"internalType": "address",
							"name": "doctor",
							"type": "address"
						},
						{
							"indexed": false,
							"internalType": "string",
							"name": "ipfsHash",
							"type": "string"
						}
					],
					"name": "DoctorRegistered",
					"type": "event"
				},
				{
					"anonymous": false,
					"inputs": [
						{
							"indexed": true,
							"internalType": "address",
							"name": "doctor",
							"type": "address"
						}
					],
					"name": "DoctorVerified",
					"type": "event"
				},
				{
					"inputs": [],
					"name": "admin",
					"outputs": [
						{
							"internalType": "address",
							"name": "",
							"type": "address"
						}
					],
					"stateMutability": "view",
					"type": "function"
				},
				{
					"inputs": [
						{
							"internalType": "address",
							"name": "",
							"type": "address"
						}
					],
					"name": "doctors",
					"outputs": [
						{
							"internalType": "string",
							"name": "ipfsHash",
							"type": "string"
						},
						{
							"internalType": "bool",
							"name": "verified",
							"type": "bool"
						},
						{
							"internalType": "bool",
							"name": "registered",
							"type": "bool"
						}
					],
					"stateMutability": "view",
					"type": "function"
				},
				{
					"inputs": [
						{
							"internalType": "address",
							"name": "_doctor",
							"type": "address"
						}
					],
					"name": "getDoctorDetails",
					"outputs": [
						{
							"internalType": "string",
							"name": "",
							"type": "string"
						}
					],
					"stateMutability": "view",
					"type": "function"
				},
				{
					"inputs": [
						{
							"internalType": "address",
							"name": "_doctor",
							"type": "address"
						}
					],
					"name": "isVerified",
					"outputs": [
						{
							"internalType": "bool",
							"name": "",
							"type": "bool"
						}
					],
					"stateMutability": "view",
					"type": "function"
				},
				{
					"inputs": [
						{
							"internalType": "string",
							"name": "_ipfsHash",
							"type": "string"
						}
					],
					"name": "registerDoctor",
					"outputs": [],
					"stateMutability": "nonpayable",
					"type": "function"
				},
				{
					"inputs": [
						{
							"internalType": "address",
							"name": "_doctor",
							"type": "address"
						}
					],
					"name": "verifyDoctor",
					"outputs": [],
					"stateMutability": "nonpayable",
					"type": "function"
				}
			],
			"devdoc": {
				"kind": "dev",
				"methods": {},
				"version": 1
			},
			"evm": {
				"assembly": "    /* \"contracts/DoctorRegistry.sol\":61:2026  contract DoctorRegistry {... */\n  mstore(0x40, 0x80)\n    /* \"contracts/DoctorRegistry.sol\":663:714  constructor() {... */\n  callvalue\n  dup1\n  iszero\n  tag_1\n  jumpi\n  0x00\n  dup1\n  revert\ntag_1:\n  pop\n    /* \"contracts/DoctorRegistry.sol\":696:706  msg.sender */\n  caller\n    /* \"contracts/DoctorRegistry.sol\":688:693  admin */\n  0x00\n  dup1\n    /* \"contracts/DoctorRegistry.sol\":688:706  admin = msg.sender */\n  0x0100\n  exp\n  dup2\n  sload\n  dup2\n  0xffffffffffffffffffffffffffffffffffffffff\n  mul\n  not\n  and\n  swap1\n  dup4\n  0xffffffffffffffffffffffffffffffffffffffff\n  and\n  mul\n  or\n  swap1\n  sstore\n  pop\n    /* \"contracts/DoctorRegistry.sol\":61:2026  contract DoctorRegistry {... */\n  dataSize(sub_0)\n  dup1\n  dataOffset(sub_0)\n  0x00\n  codecopy\n  0x00\n  return\nstop\n\nsub_0: assembly {\n        /* \"contracts/DoctorRegistry.sol\":61:2026  contract DoctorRegistry {... */\n      mstore(0x40, 0x80)\n      callvalue\n      dup1\n      iszero\n      tag_1\n      jumpi\n      0x00\n      dup1\n      revert\n    tag_1:\n      pop\n      jumpi(tag_2, lt(calldatasize, 0x04))\n      shr(0xe0, calldataload(0x00))\n      dup1\n      0x8f09ab5b\n      eq\n      tag_3\n      jumpi\n      dup1\n      0xa9583c22\n      eq\n      tag_4\n      jumpi\n      dup1\n      0xb9209e33\n      eq\n      tag_5\n      jumpi\n      dup1\n      0xbab90dbd\n      eq\n      tag_6\n      jumpi\n      dup1\n      0xd80cb05c\n      eq\n      tag_7\n      jumpi\n      dup1\n      0xf851a440\n      eq\n      tag_8\n      jumpi\n    tag_2:\n      0x00\n      dup1\n      revert\n        /* \"contracts/DoctorRegistry.sol\":802:1215  function registerDoctor(string memory _ipfsHash) external {... */\n    tag_3:\n      tag_9\n      0x04\n      dup1\n      calldatasize\n      sub\n      dup2\n      add\n      swap1\n      tag_10\n      swap2\n      swap1\n      tag_11\n      jump\t// in\n    tag_10:\n      tag_12\n      jump\t// in\n    tag_9:\n      stop\n        /* \"contracts/DoctorRegistry.sol\":389:430  mapping(address => Doctor) public doctors */\n    tag_4:\n      tag_13\n      0x04\n      dup1\n      calldatasize\n      sub\n      dup2\n      add\n      swap1\n      tag_14\n      swap2\n      swap1\n      tag_15\n      jump\t// in\n    tag_14:\n      tag_16\n      jump\t// in\n    tag_13:\n      mload(0x40)\n      tag_17\n      swap4\n      swap3\n      swap2\n      swap1\n      tag_18\n      jump\t// in\n    tag_17:\n      mload(0x40)\n      dup1\n      swap2\n      sub\n      swap1\n      return\n        /* \"contracts/DoctorRegistry.sol\":1645:1762  function isVerified(address _doctor) external view returns (bool) {... */\n    tag_5:\n      tag_19\n      0x04\n      dup1\n      calldatasize\n      sub\n      dup2\n      add\n      swap1\n      tag_20\n      swap2\n      swap1\n      tag_15\n      jump\t// in\n    tag_20:\n      tag_21\n      jump\t// in\n    tag_19:\n      mload(0x40)\n      tag_22\n      swap2\n      swap1\n      tag_23\n      jump\t// in\n    tag_22:\n      mload(0x40)\n      dup1\n      swap2\n      sub\n      swap1\n      return\n        /* \"contracts/DoctorRegistry.sol\":1819:2023  function getDoctorDetails(address _doctor) external view returns (string memory) {... */\n    tag_6:\n      tag_24\n      0x04\n      dup1\n      calldatasize\n      sub\n      dup2\n      add\n      swap1\n      tag_25\n      swap2\n      swap1\n      tag_15\n      jump\t// in\n    tag_25:\n      tag_26\n      jump\t// in\n    tag_24:\n      mload(0x40)\n      tag_27\n      swap2\n      swap1\n      tag_28\n      jump\t// in\n    tag_27:\n      mload(0x40)\n      dup1\n      swap2\n      sub\n      swap1\n      return\n        /* \"contracts/DoctorRegistry.sol\":1292:1580  function verifyDoctor(address _doctor) external onlyAdmin {... */\n    tag_7:\n      tag_29\n      0x04\n      dup1\n      calldatasize\n      sub\n      dup2\n      add\n      swap1\n      tag_30\n      swap2\n      swap1\n      tag_15\n      jump\t// in\n    tag_30:\n      tag_31\n      jump\t// in\n    tag_29:\n      stop\n        /* \"contracts/DoctorRegistry.sol\":92:112  address public admin */\n    tag_8:\n      tag_32\n      tag_33\n      jump\t// in\n    tag_32:\n      mload(0x40)\n      tag_34\n      swap2\n      swap1\n      tag_35\n      jump\t// in\n    tag_34:\n      mload(0x40)\n      dup1\n      swap2\n      sub\n      swap1\n      return\n        /* \"contracts/DoctorRegistry.sol\":802:1215  function registerDoctor(string memory _ipfsHash) external {... */\n    tag_12:\n        /* \"contracts/DoctorRegistry.sol\":880:887  doctors */\n      0x01\n        /* \"contracts/DoctorRegistry.sol\":880:899  doctors[msg.sender] */\n      0x00\n        /* \"contracts/DoctorRegistry.sol\":888:898  msg.sender */\n      caller\n        /* \"contracts/DoctorRegistry.sol\":880:899  doctors[msg.sender] */\n      0xffffffffffffffffffffffffffffffffffffffff\n      and\n      0xffffffffffffffffffffffffffffffffffffffff\n      and\n      dup2\n      mstore\n      0x20\n      add\n      swap1\n      dup2\n      mstore\n      0x20\n      add\n      0x00\n      keccak256\n        /* \"contracts/DoctorRegistry.sol\":880:910  doctors[msg.sender].registered */\n      0x01\n      add\n      0x01\n      swap1\n      sload\n      swap1\n      0x0100\n      exp\n      swap1\n      div\n      0xff\n      and\n        /* \"contracts/DoctorRegistry.sol\":879:910  !doctors[msg.sender].registered */\n      iszero\n        /* \"contracts/DoctorRegistry.sol\":871:933  require(!doctors[msg.sender].registered, \"Already registered\") */\n      tag_37\n      jumpi\n      mload(0x40)\n      0x08c379a000000000000000000000000000000000000000000000000000000000\n      dup2\n      mstore\n      0x04\n      add\n      tag_38\n      swap1\n      tag_39\n      jump\t// in\n    tag_38:\n      mload(0x40)\n      dup1\n      swap2\n      sub\n      swap1\n      revert\n    tag_37:\n        /* \"contracts/DoctorRegistry.sol\":978:979  0 */\n      0x00\n        /* \"contracts/DoctorRegistry.sol\":958:967  _ipfsHash */\n      dup2\n        /* \"contracts/DoctorRegistry.sol\":952:975  bytes(_ipfsHash).length */\n      mload\n        /* \"contracts/DoctorRegistry.sol\":952:979  bytes(_ipfsHash).length > 0 */\n      gt\n        /* \"contracts/DoctorRegistry.sol\":944:1001  require(bytes(_ipfsHash).length > 0, \"Invalid IPFS hash\") */\n      tag_40\n      jumpi\n      mload(0x40)\n      0x08c379a000000000000000000000000000000000000000000000000000000000\n      dup2\n      mstore\n      0x04\n      add\n      tag_41\n      swap1\n      tag_42\n      jump\t// in\n    tag_41:\n      mload(0x40)\n      dup1\n      swap2\n      sub\n      swap1\n      revert\n    tag_40:\n        /* \"contracts/DoctorRegistry.sol\":1036:1150  Doctor({... */\n      mload(0x40)\n      dup1\n      0x60\n      add\n      0x40\n      mstore\n      dup1\n        /* \"contracts/DoctorRegistry.sol\":1068:1077  _ipfsHash */\n      dup3\n        /* \"contracts/DoctorRegistry.sol\":1036:1150  Doctor({... */\n      dup2\n      mstore\n      0x20\n      add\n        /* \"contracts/DoctorRegistry.sol\":1102:1107  false */\n      0x00\n        /* \"contracts/DoctorRegistry.sol\":1036:1150  Doctor({... */\n      iszero\n      iszero\n      dup2\n      mstore\n      0x20\n      add\n        /* \"contracts/DoctorRegistry.sol\":1134:1138  true */\n      0x01\n        /* \"contracts/DoctorRegistry.sol\":1036:1150  Doctor({... */\n      iszero\n      iszero\n      dup2\n      mstore\n      pop\n        /* \"contracts/DoctorRegistry.sol\":1014:1021  doctors */\n      0x01\n        /* \"contracts/DoctorRegistry.sol\":1014:1033  doctors[msg.sender] */\n      0x00\n        /* \"contracts/DoctorRegistry.sol\":1022:1032  msg.sender */\n      caller\n        /* \"contracts/DoctorRegistry.sol\":1014:1033  doctors[msg.sender] */\n      0xffffffffffffffffffffffffffffffffffffffff\n      and\n      0xffffffffffffffffffffffffffffffffffffffff\n      and\n      dup2\n      mstore\n      0x20\n      add\n      swap1\n      dup2\n      mstore\n      0x20\n      add\n      0x00\n      keccak256\n        /* \"contracts/DoctorRegistry.sol\":1014:1150  doctors[msg.sender] = Doctor({... */\n      0x00\n      dup3\n      add\n      mload\n      dup2\n      0x00\n      add\n      swap1\n      dup2\n      tag_43\n      swap2\n      swap1\n      tag_44\n      jump\t// in\n    tag_43:\n      pop\n      0x20\n      dup3\n      add\n      mload\n      dup2\n      0x01\n      add\n      exp(0x0100, 0x00)\n      dup2\n      sload\n      dup2\n      0xff\n      mul\n      not\n      and\n      swap1\n      dup4\n      iszero\n      iszero\n      mul\n      or\n      swap1\n      sstore\n      pop\n      0x40\n      dup3\n      add\n      mload\n      dup2\n      0x01\n      add\n      exp(0x0100, 0x01)\n      dup2\n      sload\n      dup2\n      0xff\n      mul\n      not\n      and\n      swap1\n      dup4\n      iszero\n      iszero\n      mul\n      or\n      swap1\n      sstore\n      pop\n      swap1\n      pop\n      pop\n        /* \"contracts/DoctorRegistry.sol\":1185:1195  msg.sender */\n      caller\n        /* \"contracts/DoctorRegistry.sol\":1168:1207  DoctorRegistered(msg.sender, _ipfsHash) */\n      0xffffffffffffffffffffffffffffffffffffffff\n      and\n      0x20481b8112b5bf4734f45a473c373db9df6a79ce946cdc0e7dbc22b4f7d7f986\n        /* \"contracts/DoctorRegistry.sol\":1197:1206  _ipfsHash */\n      dup3\n        /* \"contracts/DoctorRegistry.sol\":1168:1207  DoctorRegistered(msg.sender, _ipfsHash) */\n      mload(0x40)\n      tag_45\n      swap2\n      swap1\n      tag_28\n      jump\t// in\n    tag_45:\n      mload(0x40)\n      dup1\n      swap2\n      sub\n      swap1\n      log2\n        /* \"contracts/DoctorRegistry.sol\":802:1215  function registerDoctor(string memory _ipfsHash) external {... */\n      pop\n      jump\t// out\n        /* \"contracts/DoctorRegistry.sol\":389:430  mapping(address => Doctor) public doctors */\n    tag_16:\n      mstore(0x20, 0x01)\n      dup1\n      0x00\n      mstore\n      keccak256(0x00, 0x40)\n      0x00\n      swap2\n      pop\n      swap1\n      pop\n      dup1\n      0x00\n      add\n      dup1\n      sload\n      tag_46\n      swap1\n      tag_47\n      jump\t// in\n    tag_46:\n      dup1\n      0x1f\n      add\n      0x20\n      dup1\n      swap2\n      div\n      mul\n      0x20\n      add\n      mload(0x40)\n      swap1\n      dup2\n      add\n      0x40\n      mstore\n      dup1\n      swap3\n      swap2\n      swap1\n      dup2\n      dup2\n      mstore\n      0x20\n      add\n      dup3\n      dup1\n      sload\n      tag_48\n      swap1\n      tag_47\n      jump\t// in\n    tag_48:\n      dup1\n      iszero\n      tag_49\n      jumpi\n      dup1\n      0x1f\n      lt\n      tag_50\n      jumpi\n      0x0100\n      dup1\n      dup4\n      sload\n      div\n      mul\n      dup4\n      mstore\n      swap2\n      0x20\n      add\n      swap2\n      jump(tag_49)\n    tag_50:\n      dup3\n      add\n      swap2\n      swap1\n      0x00\n      mstore\n      keccak256(0x00, 0x20)\n      swap1\n    tag_51:\n      dup2\n      sload\n      dup2\n      mstore\n      swap1\n      0x01\n      add\n      swap1\n      0x20\n      add\n      dup1\n      dup4\n      gt\n      tag_51\n      jumpi\n      dup3\n      swap1\n      sub\n      0x1f\n      and\n      dup3\n      add\n      swap2\n    tag_49:\n      pop\n      pop\n      pop\n      pop\n      pop\n      swap1\n      dup1\n      0x01\n      add\n      0x00\n      swap1\n      sload\n      swap1\n      0x0100\n      exp\n      swap1\n      div\n      0xff\n      and\n      swap1\n      dup1\n      0x01\n      add\n      0x01\n      swap1\n      sload\n      swap1\n      0x0100\n      exp\n      swap1\n      div\n      0xff\n      and\n      swap1\n      pop\n      dup4\n      jump\t// out\n        /* \"contracts/DoctorRegistry.sol\":1645:1762  function isVerified(address _doctor) external view returns (bool) {... */\n    tag_21:\n        /* \"contracts/DoctorRegistry.sol\":1705:1709  bool */\n      0x00\n        /* \"contracts/DoctorRegistry.sol\":1729:1736  doctors */\n      0x01\n        /* \"contracts/DoctorRegistry.sol\":1729:1745  doctors[_doctor] */\n      0x00\n        /* \"contracts/DoctorRegistry.sol\":1737:1744  _doctor */\n      dup4\n        /* \"contracts/DoctorRegistry.sol\":1729:1745  doctors[_doctor] */\n      0xffffffffffffffffffffffffffffffffffffffff\n      and\n      0xffffffffffffffffffffffffffffffffffffffff\n      and\n      dup2\n      mstore\n      0x20\n      add\n      swap1\n      dup2\n      mstore\n      0x20\n      add\n      0x00\n      keccak256\n        /* \"contracts/DoctorRegistry.sol\":1729:1754  doctors[_doctor].verified */\n      0x01\n      add\n      0x00\n      swap1\n      sload\n      swap1\n      0x0100\n      exp\n      swap1\n      div\n      0xff\n      and\n        /* \"contracts/DoctorRegistry.sol\":1722:1754  return doctors[_doctor].verified */\n      swap1\n      pop\n        /* \"contracts/DoctorRegistry.sol\":1645:1762  function isVerified(address _doctor) external view returns (bool) {... */\n      swap2\n      swap1\n      pop\n      jump\t// out\n        /* \"contracts/DoctorRegistry.sol\":1819:2023  function getDoctorDetails(address _doctor) external view returns (string memory) {... */\n    tag_26:\n        /* \"contracts/DoctorRegistry.sol\":1885:1898  string memory */\n      0x60\n        /* \"contracts/DoctorRegistry.sol\":1919:1926  doctors */\n      0x01\n        /* \"contracts/DoctorRegistry.sol\":1919:1935  doctors[_doctor] */\n      0x00\n        /* \"contracts/DoctorRegistry.sol\":1927:1934  _doctor */\n      dup4\n        /* \"contracts/DoctorRegistry.sol\":1919:1935  doctors[_doctor] */\n      0xffffffffffffffffffffffffffffffffffffffff\n      and\n      0xffffffffffffffffffffffffffffffffffffffff\n      and\n      dup2\n      mstore\n      0x20\n      add\n      swap1\n      dup2\n      mstore\n      0x20\n      add\n      0x00\n      keccak256\n        /* \"contracts/DoctorRegistry.sol\":1919:1946  doctors[_doctor].registered */\n      0x01\n      add\n      0x01\n      swap1\n      sload\n      swap1\n      0x0100\n      exp\n      swap1\n      div\n      0xff\n      and\n        /* \"contracts/DoctorRegistry.sol\":1911:1972  require(doctors[_doctor].registered, \"Doctor not registered\") */\n      tag_54\n      jumpi\n      mload(0x40)\n      0x08c379a000000000000000000000000000000000000000000000000000000000\n      dup2\n      mstore\n      0x04\n      add\n      tag_55\n      swap1\n      tag_56\n      jump\t// in\n    tag_55:\n      mload(0x40)\n      dup1\n      swap2\n      sub\n      swap1\n      revert\n    tag_54:\n        /* \"contracts/DoctorRegistry.sol\":1990:1997  doctors */\n      0x01\n        /* \"contracts/DoctorRegistry.sol\":1990:2006  doctors[_doctor] */\n      0x00\n        /* \"contracts/DoctorRegistry.sol\":1998:2005  _doctor */\n      dup4\n        /* \"contracts/DoctorRegistry.sol\":1990:2006  doctors[_doctor] */\n      0xffffffffffffffffffffffffffffffffffffffff\n      and\n      0xffffffffffffffffffffffffffffffffffffffff\n      and\n      dup2\n      mstore\n      0x20\n      add\n      swap1\n      dup2\n      mstore\n      0x20\n      add\n      0x00\n      keccak256\n        /* \"contracts/DoctorRegistry.sol\":1990:2015  doctors[_doctor].ipfsHash */\n      0x00\n      add\n        /* \"contracts/DoctorRegistry.sol\":1983:2015  return doctors[_doctor].ipfsHash */\n      dup1\n      sload\n      tag_57\n      swap1\n      tag_47\n      jump\t// in\n    tag_57:\n      dup1\n      0x1f\n      add\n      0x20\n      dup1\n      swap2\n      div\n      mul\n      0x20\n      add\n      mload(0x40)\n      swap1\n      dup2\n      add\n      0x40\n      mstore\n      dup1\n      swap3\n      swap2\n      swap1\n      dup2\n      dup2\n      mstore\n      0x20\n      add\n      dup3\n      dup1\n      sload\n      tag_58\n      swap1\n      tag_47\n      jump\t// in\n    tag_58:\n      dup1\n      iszero\n      tag_59\n      jumpi\n      dup1\n      0x1f\n      lt\n      tag_60\n      jumpi\n      0x0100\n      dup1\n      dup4\n      sload\n      div\n      mul\n      dup4\n      mstore\n      swap2\n      0x20\n      add\n      swap2\n      jump(tag_59)\n    tag_60:\n      dup3\n      add\n      swap2\n      swap1\n      0x00\n      mstore\n      keccak256(0x00, 0x20)\n      swap1\n    tag_61:\n      dup2\n      sload\n      dup2\n      mstore\n      swap1\n      0x01\n      add\n      swap1\n      0x20\n      add\n      dup1\n      dup4\n      gt\n      tag_61\n      jumpi\n      dup3\n      swap1\n      sub\n      0x1f\n      and\n      dup3\n      add\n      swap2\n    tag_59:\n      pop\n      pop\n      pop\n      pop\n      pop\n      swap1\n      pop\n        /* \"contracts/DoctorRegistry.sol\":1819:2023  function getDoctorDetails(address _doctor) external view returns (string memory) {... */\n      swap2\n      swap1\n      pop\n      jump\t// out\n        /* \"contracts/DoctorRegistry.sol\":1292:1580  function verifyDoctor(address _doctor) external onlyAdmin {... */\n    tag_31:\n        /* \"contracts/DoctorRegistry.sol\":616:621  admin */\n      0x00\n      dup1\n      sload\n      swap1\n      0x0100\n      exp\n      swap1\n      div\n      0xffffffffffffffffffffffffffffffffffffffff\n      and\n        /* \"contracts/DoctorRegistry.sol\":602:621  msg.sender == admin */\n      0xffffffffffffffffffffffffffffffffffffffff\n      and\n        /* \"contracts/DoctorRegistry.sol\":602:612  msg.sender */\n      caller\n        /* \"contracts/DoctorRegistry.sol\":602:621  msg.sender == admin */\n      0xffffffffffffffffffffffffffffffffffffffff\n      and\n      eq\n        /* \"contracts/DoctorRegistry.sol\":594:635  require(msg.sender == admin, \"Not admin\") */\n      tag_63\n      jumpi\n      mload(0x40)\n      0x08c379a000000000000000000000000000000000000000000000000000000000\n      dup2\n      mstore\n      0x04\n      add\n      tag_64\n      swap1\n      tag_65\n      jump\t// in\n    tag_64:\n      mload(0x40)\n      dup1\n      swap2\n      sub\n      swap1\n      revert\n    tag_63:\n        /* \"contracts/DoctorRegistry.sol\":1369:1376  doctors */\n      0x01\n        /* \"contracts/DoctorRegistry.sol\":1369:1385  doctors[_doctor] */\n      0x00\n        /* \"contracts/DoctorRegistry.sol\":1377:1384  _doctor */\n      dup3\n        /* \"contracts/DoctorRegistry.sol\":1369:1385  doctors[_doctor] */\n      0xffffffffffffffffffffffffffffffffffffffff\n      and\n      0xffffffffffffffffffffffffffffffffffffffff\n      and\n      dup2\n      mstore\n      0x20\n      add\n      swap1\n      dup2\n      mstore\n      0x20\n      add\n      0x00\n      keccak256\n        /* \"contracts/DoctorRegistry.sol\":1369:1396  doctors[_doctor].registered */\n      0x01\n      add\n      0x01\n      swap1\n      sload\n      swap1\n      0x0100\n      exp\n      swap1\n      div\n      0xff\n      and\n        /* \"contracts/DoctorRegistry.sol\":1361:1422  require(doctors[_doctor].registered, \"Doctor not registered\") */\n      tag_67\n      jumpi\n      mload(0x40)\n      0x08c379a000000000000000000000000000000000000000000000000000000000\n      dup2\n      mstore\n      0x04\n      add\n      tag_68\n      swap1\n      tag_56\n      jump\t// in\n    tag_68:\n      mload(0x40)\n      dup1\n      swap2\n      sub\n      swap1\n      revert\n    tag_67:\n        /* \"contracts/DoctorRegistry.sol\":1442:1449  doctors */\n      0x01\n        /* \"contracts/DoctorRegistry.sol\":1442:1458  doctors[_doctor] */\n      0x00\n        /* \"contracts/DoctorRegistry.sol\":1450:1457  _doctor */\n      dup3\n        /* \"contracts/DoctorRegistry.sol\":1442:1458  doctors[_doctor] */\n      0xffffffffffffffffffffffffffffffffffffffff\n      and\n      0xffffffffffffffffffffffffffffffffffffffff\n      and\n      dup2\n      mstore\n      0x20\n      add\n      swap1\n      dup2\n      mstore\n      0x20\n      add\n      0x00\n      keccak256\n        /* \"contracts/DoctorRegistry.sol\":1442:1467  doctors[_doctor].verified */\n      0x01\n      add\n      0x00\n      swap1\n      sload\n      swap1\n      0x0100\n      exp\n      swap1\n      div\n      0xff\n      and\n        /* \"contracts/DoctorRegistry.sol\":1441:1467  !doctors[_doctor].verified */\n      iszero\n        /* \"contracts/DoctorRegistry.sol\":1433:1488  require(!doctors[_doctor].verified, \"Already verified\") */\n      tag_69\n      jumpi\n      mload(0x40)\n      0x08c379a000000000000000000000000000000000000000000000000000000000\n      dup2\n      mstore\n      0x04\n      add\n      tag_70\n      swap1\n      tag_71\n      jump\t// in\n    tag_70:\n      mload(0x40)\n      dup1\n      swap2\n      sub\n      swap1\n      revert\n    tag_69:\n        /* \"contracts/DoctorRegistry.sol\":1529:1533  true */\n      0x01\n        /* \"contracts/DoctorRegistry.sol\":1501:1508  doctors */\n      dup1\n        /* \"contracts/DoctorRegistry.sol\":1501:1517  doctors[_doctor] */\n      0x00\n        /* \"contracts/DoctorRegistry.sol\":1509:1516  _doctor */\n      dup4\n        /* \"contracts/DoctorRegistry.sol\":1501:1517  doctors[_doctor] */\n      0xffffffffffffffffffffffffffffffffffffffff\n      and\n      0xffffffffffffffffffffffffffffffffffffffff\n      and\n      dup2\n      mstore\n      0x20\n      add\n      swap1\n      dup2\n      mstore\n      0x20\n      add\n      0x00\n      keccak256\n        /* \"contracts/DoctorRegistry.sol\":1501:1526  doctors[_doctor].verified */\n      0x01\n      add\n      0x00\n        /* \"contracts/DoctorRegistry.sol\":1501:1533  doctors[_doctor].verified = true */\n      0x0100\n      exp\n      dup2\n      sload\n      dup2\n      0xff\n      mul\n      not\n      and\n      swap1\n      dup4\n      iszero\n      iszero\n      mul\n      or\n      swap1\n      sstore\n      pop\n        /* \"contracts/DoctorRegistry.sol\":1564:1571  _doctor */\n      dup1\n        /* \"contracts/DoctorRegistry.sol\":1549:1572  DoctorVerified(_doctor) */\n      0xffffffffffffffffffffffffffffffffffffffff\n      and\n      0xb0859f2cf042b300c8948cdd785ec6a23a3742bc5446c19f4b270b67fac2c967\n      mload(0x40)\n      mload(0x40)\n      dup1\n      swap2\n      sub\n      swap1\n      log2\n        /* \"contracts/DoctorRegistry.sol\":1292:1580  function verifyDoctor(address _doctor) external onlyAdmin {... */\n      pop\n      jump\t// out\n        /* \"contracts/DoctorRegistry.sol\":92:112  address public admin */\n    tag_33:\n      0x00\n      dup1\n      sload\n      swap1\n      0x0100\n      exp\n      swap1\n      div\n      0xffffffffffffffffffffffffffffffffffffffff\n      and\n      dup2\n      jump\t// out\n        /* \"#utility.yul\":7:82   */\n    tag_72:\n        /* \"#utility.yul\":40:46   */\n      0x00\n        /* \"#utility.yul\":73:75   */\n      0x40\n        /* \"#utility.yul\":67:76   */\n      mload\n        /* \"#utility.yul\":57:76   */\n      swap1\n      pop\n        /* \"#utility.yul\":7:82   */\n      swap1\n      jump\t// out\n        /* \"#utility.yul\":88:205   */\n    tag_73:\n        /* \"#utility.yul\":197:198   */\n      0x00\n        /* \"#utility.yul\":194:195   */\n      dup1\n        /* \"#utility.yul\":187:199   */\n      revert\n        /* \"#utility.yul\":211:328   */\n    tag_74:\n        /* \"#utility.yul\":320:321   */\n      0x00\n        /* \"#utility.yul\":317:318   */\n      dup1\n        /* \"#utility.yul\":310:322   */\n      revert\n        /* \"#utility.yul\":334:451   */\n    tag_75:\n        /* \"#utility.yul\":443:444   */\n      0x00\n        /* \"#utility.yul\":440:441   */\n      dup1\n        /* \"#utility.yul\":433:445   */\n      revert\n        /* \"#utility.yul\":457:574   */\n    tag_76:\n        /* \"#utility.yul\":566:567   */\n      0x00\n        /* \"#utility.yul\":563:564   */\n      dup1\n        /* \"#utility.yul\":556:568   */\n      revert\n        /* \"#utility.yul\":580:682   */\n    tag_77:\n        /* \"#utility.yul\":621:627   */\n      0x00\n        /* \"#utility.yul\":672:674   */\n      0x1f\n        /* \"#utility.yul\":668:675   */\n      not\n        /* \"#utility.yul\":663:665   */\n      0x1f\n        /* \"#utility.yul\":656:661   */\n      dup4\n        /* \"#utility.yul\":652:666   */\n      add\n        /* \"#utility.yul\":648:676   */\n      and\n        /* \"#utility.yul\":638:676   */\n      swap1\n      pop\n        /* \"#utility.yul\":580:682   */\n      swap2\n      swap1\n      pop\n      jump\t// out\n        /* \"#utility.yul\":688:868   */\n    tag_78:\n        /* \"#utility.yul\":736:813   */\n      0x4e487b7100000000000000000000000000000000000000000000000000000000\n        /* \"#utility.yul\":733:734   */\n      0x00\n        /* \"#utility.yul\":726:814   */\n      mstore\n        /* \"#utility.yul\":833:837   */\n      0x41\n        /* \"#utility.yul\":830:831   */\n      0x04\n        /* \"#utility.yul\":823:838   */\n      mstore\n        /* \"#utility.yul\":857:861   */\n      0x24\n        /* \"#utility.yul\":854:855   */\n      0x00\n        /* \"#utility.yul\":847:862   */\n      revert\n        /* \"#utility.yul\":874:1155   */\n    tag_79:\n        /* \"#utility.yul\":957:984   */\n      tag_132\n        /* \"#utility.yul\":979:983   */\n      dup3\n        /* \"#utility.yul\":957:984   */\n      tag_77\n      jump\t// in\n    tag_132:\n        /* \"#utility.yul\":949:955   */\n      dup2\n        /* \"#utility.yul\":945:985   */\n      add\n        /* \"#utility.yul\":1087:1093   */\n      dup2\n        /* \"#utility.yul\":1075:1085   */\n      dup2\n        /* \"#utility.yul\":1072:1094   */\n      lt\n        /* \"#utility.yul\":1051:1069   */\n      0xffffffffffffffff\n        /* \"#utility.yul\":1039:1049   */\n      dup3\n        /* \"#utility.yul\":1036:1070   */\n      gt\n        /* \"#utility.yul\":1033:1095   */\n      or\n        /* \"#utility.yul\":1030:1118   */\n      iszero\n      tag_133\n      jumpi\n        /* \"#utility.yul\":1098:1116   */\n      tag_134\n      tag_78\n      jump\t// in\n    tag_134:\n        /* \"#utility.yul\":1030:1118   */\n    tag_133:\n        /* \"#utility.yul\":1138:1148   */\n      dup1\n        /* \"#utility.yul\":1134:1136   */\n      0x40\n        /* \"#utility.yul\":1127:1149   */\n      mstore\n        /* \"#utility.yul\":917:1155   */\n      pop\n        /* \"#utility.yul\":874:1155   */\n      pop\n      pop\n      jump\t// out\n        /* \"#utility.yul\":1161:1290   */\n    tag_80:\n        /* \"#utility.yul\":1195:1201   */\n      0x00\n        /* \"#utility.yul\":1222:1242   */\n      tag_136\n      tag_72\n      jump\t// in\n    tag_136:\n        /* \"#utility.yul\":1212:1242   */\n      swap1\n      pop\n        /* \"#utility.yul\":1251:1284   */\n      tag_137\n        /* \"#utility.yul\":1279:1283   */\n      dup3\n        /* \"#utility.yul\":1271:1277   */\n      dup3\n        /* \"#utility.yul\":1251:1284   */\n      tag_79\n      jump\t// in\n    tag_137:\n        /* \"#utility.yul\":1161:1290   */\n      swap2\n      swap1\n      pop\n      jump\t// out\n        /* \"#utility.yul\":1296:1604   */\n    tag_81:\n        /* \"#utility.yul\":1358:1362   */\n      0x00\n        /* \"#utility.yul\":1448:1466   */\n      0xffffffffffffffff\n        /* \"#utility.yul\":1440:1446   */\n      dup3\n        /* \"#utility.yul\":1437:1467   */\n      gt\n        /* \"#utility.yul\":1434:1490   */\n      iszero\n      tag_139\n      jumpi\n        /* \"#utility.yul\":1470:1488   */\n      tag_140\n      tag_78\n      jump\t// in\n    tag_140:\n        /* \"#utility.yul\":1434:1490   */\n    tag_139:\n        /* \"#utility.yul\":1508:1537   */\n      tag_141\n        /* \"#utility.yul\":1530:1536   */\n      dup3\n        /* \"#utility.yul\":1508:1537   */\n      tag_77\n      jump\t// in\n    tag_141:\n        /* \"#utility.yul\":1500:1537   */\n      swap1\n      pop\n        /* \"#utility.yul\":1592:1596   */\n      0x20\n        /* \"#utility.yul\":1586:1590   */\n      dup2\n        /* \"#utility.yul\":1582:1597   */\n      add\n        /* \"#utility.yul\":1574:1597   */\n      swap1\n      pop\n        /* \"#utility.yul\":1296:1604   */\n      swap2\n      swap1\n      pop\n      jump\t// out\n        /* \"#utility.yul\":1610:1758   */\n    tag_82:\n        /* \"#utility.yul\":1708:1714   */\n      dup3\n        /* \"#utility.yul\":1703:1706   */\n      dup2\n        /* \"#utility.yul\":1698:1701   */\n      dup4\n        /* \"#utility.yul\":1685:1715   */\n      calldatacopy\n        /* \"#utility.yul\":1749:1750   */\n      0x00\n        /* \"#utility.yul\":1740:1746   */\n      dup4\n        /* \"#utility.yul\":1735:1738   */\n      dup4\n        /* \"#utility.yul\":1731:1747   */\n      add\n        /* \"#utility.yul\":1724:1751   */\n      mstore\n        /* \"#utility.yul\":1610:1758   */\n      pop\n      pop\n      pop\n      jump\t// out\n        /* \"#utility.yul\":1764:2189   */\n    tag_83:\n        /* \"#utility.yul\":1842:1847   */\n      0x00\n        /* \"#utility.yul\":1867:1933   */\n      tag_144\n        /* \"#utility.yul\":1883:1932   */\n      tag_145\n        /* \"#utility.yul\":1925:1931   */\n      dup5\n        /* \"#utility.yul\":1883:1932   */\n      tag_81\n      jump\t// in\n    tag_145:\n        /* \"#utility.yul\":1867:1933   */\n      tag_80\n      jump\t// in\n    tag_144:\n        /* \"#utility.yul\":1858:1933   */\n      swap1\n      pop\n        /* \"#utility.yul\":1956:1962   */\n      dup3\n        /* \"#utility.yul\":1949:1954   */\n      dup2\n        /* \"#utility.yul\":1942:1963   */\n      mstore\n        /* \"#utility.yul\":1994:1998   */\n      0x20\n        /* \"#utility.yul\":1987:1992   */\n      dup2\n        /* \"#utility.yul\":1983:1999   */\n      add\n        /* \"#utility.yul\":2032:2035   */\n      dup5\n        /* \"#utility.yul\":2023:2029   */\n      dup5\n        /* \"#utility.yul\":2018:2021   */\n      dup5\n        /* \"#utility.yul\":2014:2030   */\n      add\n        /* \"#utility.yul\":2011:2036   */\n      gt\n        /* \"#utility.yul\":2008:2120   */\n      iszero\n      tag_146\n      jumpi\n        /* \"#utility.yul\":2039:2118   */\n      tag_147\n      tag_76\n      jump\t// in\n    tag_147:\n        /* \"#utility.yul\":2008:2120   */\n    tag_146:\n        /* \"#utility.yul\":2129:2183   */\n      tag_148\n        /* \"#utility.yul\":2176:2182   */\n      dup5\n        /* \"#utility.yul\":2171:2174   */\n      dup3\n        /* \"#utility.yul\":2166:2169   */\n      dup6\n        /* \"#utility.yul\":2129:2183   */\n      tag_82\n      jump\t// in\n    tag_148:\n        /* \"#utility.yul\":1848:2189   */\n      pop\n        /* \"#utility.yul\":1764:2189   */\n      swap4\n      swap3\n      pop\n      pop\n      pop\n      jump\t// out\n        /* \"#utility.yul\":2209:2549   */\n    tag_84:\n        /* \"#utility.yul\":2265:2270   */\n      0x00\n        /* \"#utility.yul\":2314:2317   */\n      dup3\n        /* \"#utility.yul\":2307:2311   */\n      0x1f\n        /* \"#utility.yul\":2299:2305   */\n      dup4\n        /* \"#utility.yul\":2295:2312   */\n      add\n        /* \"#utility.yul\":2291:2318   */\n      slt\n        /* \"#utility.yul\":2281:2403   */\n      tag_150\n      jumpi\n        /* \"#utility.yul\":2322:2401   */\n      tag_151\n      tag_75\n      jump\t// in\n    tag_151:\n        /* \"#utility.yul\":2281:2403   */\n    tag_150:\n        /* \"#utility.yul\":2439:2445   */\n      dup2\n        /* \"#utility.yul\":2426:2446   */\n      calldataload\n        /* \"#utility.yul\":2464:2543   */\n      tag_152\n        /* \"#utility.yul\":2539:2542   */\n      dup5\n        /* \"#utility.yul\":2531:2537   */\n      dup3\n        /* \"#utility.yul\":2524:2528   */\n      0x20\n        /* \"#utility.yul\":2516:2522   */\n      dup7\n        /* \"#utility.yul\":2512:2529   */\n      add\n        /* \"#utility.yul\":2464:2543   */\n      tag_83\n      jump\t// in\n    tag_152:\n        /* \"#utility.yul\":2455:2543   */\n      swap2\n      pop\n        /* \"#utility.yul\":2271:2549   */\n      pop\n        /* \"#utility.yul\":2209:2549   */\n      swap3\n      swap2\n      pop\n      pop\n      jump\t// out\n        /* \"#utility.yul\":2555:3064   */\n    tag_11:\n        /* \"#utility.yul\":2624:2630   */\n      0x00\n        /* \"#utility.yul\":2673:2675   */\n      0x20\n        /* \"#utility.yul\":2661:2670   */\n      dup3\n        /* \"#utility.yul\":2652:2659   */\n      dup5\n        /* \"#utility.yul\":2648:2671   */\n      sub\n        /* \"#utility.yul\":2644:2676   */\n      slt\n        /* \"#utility.yul\":2641:2760   */\n      iszero\n      tag_154\n      jumpi\n        /* \"#utility.yul\":2679:2758   */\n      tag_155\n      tag_73\n      jump\t// in\n    tag_155:\n        /* \"#utility.yul\":2641:2760   */\n    tag_154:\n        /* \"#utility.yul\":2827:2828   */\n      0x00\n        /* \"#utility.yul\":2816:2825   */\n      dup3\n        /* \"#utility.yul\":2812:2829   */\n      add\n        /* \"#utility.yul\":2799:2830   */\n      calldataload\n        /* \"#utility.yul\":2857:2875   */\n      0xffffffffffffffff\n        /* \"#utility.yul\":2849:2855   */\n      dup2\n        /* \"#utility.yul\":2846:2876   */\n      gt\n        /* \"#utility.yul\":2843:2960   */\n      iszero\n      tag_156\n      jumpi\n        /* \"#utility.yul\":2879:2958   */\n      tag_157\n      tag_74\n      jump\t// in\n    tag_157:\n        /* \"#utility.yul\":2843:2960   */\n    tag_156:\n        /* \"#utility.yul\":2984:3047   */\n      tag_158\n        /* \"#utility.yul\":3039:3046   */\n      dup5\n        /* \"#utility.yul\":3030:3036   */\n      dup3\n        /* \"#utility.yul\":3019:3028   */\n      dup6\n        /* \"#utility.yul\":3015:3037   */\n      add\n        /* \"#utility.yul\":2984:3047   */\n      tag_84\n      jump\t// in\n    tag_158:\n        /* \"#utility.yul\":2974:3047   */\n      swap2\n      pop\n        /* \"#utility.yul\":2770:3057   */\n      pop\n        /* \"#utility.yul\":2555:3064   */\n      swap3\n      swap2\n      pop\n      pop\n      jump\t// out\n        /* \"#utility.yul\":3070:3196   */\n    tag_85:\n        /* \"#utility.yul\":3107:3114   */\n      0x00\n        /* \"#utility.yul\":3147:3189   */\n      0xffffffffffffffffffffffffffffffffffffffff\n        /* \"#utility.yul\":3140:3145   */\n      dup3\n        /* \"#utility.yul\":3136:3190   */\n      and\n        /* \"#utility.yul\":3125:3190   */\n      swap1\n      pop\n        /* \"#utility.yul\":3070:3196   */\n      swap2\n      swap1\n      pop\n      jump\t// out\n        /* \"#utility.yul\":3202:3298   */\n    tag_86:\n        /* \"#utility.yul\":3239:3246   */\n      0x00\n        /* \"#utility.yul\":3268:3292   */\n      tag_161\n        /* \"#utility.yul\":3286:3291   */\n      dup3\n        /* \"#utility.yul\":3268:3292   */\n      tag_85\n      jump\t// in\n    tag_161:\n        /* \"#utility.yul\":3257:3292   */\n      swap1\n      pop\n        /* \"#utility.yul\":3202:3298   */\n      swap2\n      swap1\n      pop\n      jump\t// out\n        /* \"#utility.yul\":3304:3426   */\n    tag_87:\n        /* \"#utility.yul\":3377:3401   */\n      tag_163\n        /* \"#utility.yul\":3395:3400   */\n      dup2\n        /* \"#utility.yul\":3377:3401   */\n      tag_86\n      jump\t// in\n    tag_163:\n        /* \"#utility.yul\":3370:3375   */\n      dup2\n        /* \"#utility.yul\":3367:3402   */\n      eq\n        /* \"#utility.yul\":3357:3420   */\n      tag_164\n      jumpi\n        /* \"#utility.yul\":3416:3417   */\n      0x00\n        /* \"#utility.yul\":3413:3414   */\n      dup1\n        /* \"#utility.yul\":3406:3418   */\n      revert\n        /* \"#utility.yul\":3357:3420   */\n    tag_164:\n        /* \"#utility.yul\":3304:3426   */\n      pop\n      jump\t// out\n        /* \"#utility.yul\":3432:3571   */\n    tag_88:\n        /* \"#utility.yul\":3478:3483   */\n      0x00\n        /* \"#utility.yul\":3516:3522   */\n      dup2\n        /* \"#utility.yul\":3503:3523   */\n      calldataload\n        /* \"#utility.yul\":3494:3523   */\n      swap1\n      pop\n        /* \"#utility.yul\":3532:3565   */\n      tag_166\n        /* \"#utility.yul\":3559:3564   */\n      dup2\n        /* \"#utility.yul\":3532:3565   */\n      tag_87\n      jump\t// in\n    tag_166:\n        /* \"#utility.yul\":3432:3571   */\n      swap3\n      swap2\n      pop\n      pop\n      jump\t// out\n        /* \"#utility.yul\":3577:3906   */\n    tag_15:\n        /* \"#utility.yul\":3636:3642   */\n      0x00\n        /* \"#utility.yul\":3685:3687   */\n      0x20\n        /* \"#utility.yul\":3673:3682   */\n      dup3\n        /* \"#utility.yul\":3664:3671   */\n      dup5\n        /* \"#utility.yul\":3660:3683   */\n      sub\n        /* \"#utility.yul\":3656:3688   */\n      slt\n        /* \"#utility.yul\":3653:3772   */\n      iszero\n      tag_168\n      jumpi\n        /* \"#utility.yul\":3691:3770   */\n      tag_169\n      tag_73\n      jump\t// in\n    tag_169:\n        /* \"#utility.yul\":3653:3772   */\n    tag_168:\n        /* \"#utility.yul\":3811:3812   */\n      0x00\n        /* \"#utility.yul\":3836:3889   */\n      tag_170\n        /* \"#utility.yul\":3881:3888   */\n      dup5\n        /* \"#utility.yul\":3872:3878   */\n      dup3\n        /* \"#utility.yul\":3861:3870   */\n      dup6\n        /* \"#utility.yul\":3857:3879   */\n      add\n        /* \"#utility.yul\":3836:3889   */\n      tag_88\n      jump\t// in\n    tag_170:\n        /* \"#utility.yul\":3826:3889   */\n      swap2\n      pop\n        /* \"#utility.yul\":3782:3899   */\n      pop\n        /* \"#utility.yul\":3577:3906   */\n      swap3\n      swap2\n      pop\n      pop\n      jump\t// out\n        /* \"#utility.yul\":3912:4011   */\n    tag_89:\n        /* \"#utility.yul\":3964:3970   */\n      0x00\n        /* \"#utility.yul\":3998:4003   */\n      dup2\n        /* \"#utility.yul\":3992:4004   */\n      mload\n        /* \"#utility.yul\":3982:4004   */\n      swap1\n      pop\n        /* \"#utility.yul\":3912:4011   */\n      swap2\n      swap1\n      pop\n      jump\t// out\n        /* \"#utility.yul\":4017:4186   */\n    tag_90:\n        /* \"#utility.yul\":4101:4112   */\n      0x00\n        /* \"#utility.yul\":4135:4141   */\n      dup3\n        /* \"#utility.yul\":4130:4133   */\n      dup3\n        /* \"#utility.yul\":4123:4142   */\n      mstore\n        /* \"#utility.yul\":4175:4179   */\n      0x20\n        /* \"#utility.yul\":4170:4173   */\n      dup3\n        /* \"#utility.yul\":4166:4180   */\n      add\n        /* \"#utility.yul\":4151:4180   */\n      swap1\n      pop\n        /* \"#utility.yul\":4017:4186   */\n      swap3\n      swap2\n      pop\n      pop\n      jump\t// out\n        /* \"#utility.yul\":4192:4440   */\n    tag_91:\n        /* \"#utility.yul\":4274:4275   */\n      0x00\n        /* \"#utility.yul\":4284:4397   */\n    tag_174:\n        /* \"#utility.yul\":4298:4304   */\n      dup4\n        /* \"#utility.yul\":4295:4296   */\n      dup2\n        /* \"#utility.yul\":4292:4305   */\n      lt\n        /* \"#utility.yul\":4284:4397   */\n      iszero\n      tag_176\n      jumpi\n        /* \"#utility.yul\":4383:4384   */\n      dup1\n        /* \"#utility.yul\":4378:4381   */\n      dup3\n        /* \"#utility.yul\":4374:4385   */\n      add\n        /* \"#utility.yul\":4368:4386   */\n      mload\n        /* \"#utility.yul\":4364:4365   */\n      dup2\n        /* \"#utility.yul\":4359:4362   */\n      dup5\n        /* \"#utility.yul\":4355:4366   */\n      add\n        /* \"#utility.yul\":4348:4387   */\n      mstore\n        /* \"#utility.yul\":4320:4322   */\n      0x20\n        /* \"#utility.yul\":4317:4318   */\n      dup2\n        /* \"#utility.yul\":4313:4323   */\n      add\n        /* \"#utility.yul\":4308:4323   */\n      swap1\n      pop\n        /* \"#utility.yul\":4284:4397   */\n      jump(tag_174)\n    tag_176:\n        /* \"#utility.yul\":4431:4432   */\n      0x00\n        /* \"#utility.yul\":4422:4428   */\n      dup5\n        /* \"#utility.yul\":4417:4420   */\n      dup5\n        /* \"#utility.yul\":4413:4429   */\n      add\n        /* \"#utility.yul\":4406:4433   */\n      mstore\n        /* \"#utility.yul\":4254:4440   */\n      pop\n        /* \"#utility.yul\":4192:4440   */\n      pop\n      pop\n      pop\n      jump\t// out\n        /* \"#utility.yul\":4446:4823   */\n    tag_92:\n        /* \"#utility.yul\":4534:4537   */\n      0x00\n        /* \"#utility.yul\":4562:4601   */\n      tag_178\n        /* \"#utility.yul\":4595:4600   */\n      dup3\n        /* \"#utility.yul\":4562:4601   */\n      tag_89\n      jump\t// in\n    tag_178:\n        /* \"#utility.yul\":4617:4688   */\n      tag_179\n        /* \"#utility.yul\":4681:4687   */\n      dup2\n        /* \"#utility.yul\":4676:4679   */\n      dup6\n        /* \"#utility.yul\":4617:4688   */\n      tag_90\n      jump\t// in\n    tag_179:\n        /* \"#utility.yul\":4610:4688   */\n      swap4\n      pop\n        /* \"#utility.yul\":4697:4762   */\n      tag_180\n        /* \"#utility.yul\":4755:4761   */\n      dup2\n        /* \"#utility.yul\":4750:4753   */\n      dup6\n        /* \"#utility.yul\":4743:4747   */\n      0x20\n        /* \"#utility.yul\":4736:4741   */\n      dup7\n        /* \"#utility.yul\":4732:4748   */\n      add\n        /* \"#utility.yul\":4697:4762   */\n      tag_91\n      jump\t// in\n    tag_180:\n        /* \"#utility.yul\":4787:4816   */\n      tag_181\n        /* \"#utility.yul\":4809:4815   */\n      dup2\n        /* \"#utility.yul\":4787:4816   */\n      tag_77\n      jump\t// in\n    tag_181:\n        /* \"#utility.yul\":4782:4785   */\n      dup5\n        /* \"#utility.yul\":4778:4817   */\n      add\n        /* \"#utility.yul\":4771:4817   */\n      swap2\n      pop\n        /* \"#utility.yul\":4538:4823   */\n      pop\n        /* \"#utility.yul\":4446:4823   */\n      swap3\n      swap2\n      pop\n      pop\n      jump\t// out\n        /* \"#utility.yul\":4829:4919   */\n    tag_93:\n        /* \"#utility.yul\":4863:4870   */\n      0x00\n        /* \"#utility.yul\":4906:4911   */\n      dup2\n        /* \"#utility.yul\":4899:4912   */\n      iszero\n        /* \"#utility.yul\":4892:4913   */\n      iszero\n        /* \"#utility.yul\":4881:4913   */\n      swap1\n      pop\n        /* \"#utility.yul\":4829:4919   */\n      swap2\n      swap1\n      pop\n      jump\t// out\n        /* \"#utility.yul\":4925:5034   */\n    tag_94:\n        /* \"#utility.yul\":5006:5027   */\n      tag_184\n        /* \"#utility.yul\":5021:5026   */\n      dup2\n        /* \"#utility.yul\":5006:5027   */\n      tag_93\n      jump\t// in\n    tag_184:\n        /* \"#utility.yul\":5001:5004   */\n      dup3\n        /* \"#utility.yul\":4994:5028   */\n      mstore\n        /* \"#utility.yul\":4925:5034   */\n      pop\n      pop\n      jump\t// out\n        /* \"#utility.yul\":5040:5549   */\n    tag_18:\n        /* \"#utility.yul\":5197:5201   */\n      0x00\n        /* \"#utility.yul\":5235:5237   */\n      0x60\n        /* \"#utility.yul\":5224:5233   */\n      dup3\n        /* \"#utility.yul\":5220:5238   */\n      add\n        /* \"#utility.yul\":5212:5238   */\n      swap1\n      pop\n        /* \"#utility.yul\":5284:5293   */\n      dup2\n        /* \"#utility.yul\":5278:5282   */\n      dup2\n        /* \"#utility.yul\":5274:5294   */\n      sub\n        /* \"#utility.yul\":5270:5271   */\n      0x00\n        /* \"#utility.yul\":5259:5268   */\n      dup4\n        /* \"#utility.yul\":5255:5272   */\n      add\n        /* \"#utility.yul\":5248:5295   */\n      mstore\n        /* \"#utility.yul\":5312:5390   */\n      tag_186\n        /* \"#utility.yul\":5385:5389   */\n      dup2\n        /* \"#utility.yul\":5376:5382   */\n      dup7\n        /* \"#utility.yul\":5312:5390   */\n      tag_92\n      jump\t// in\n    tag_186:\n        /* \"#utility.yul\":5304:5390   */\n      swap1\n      pop\n        /* \"#utility.yul\":5400:5466   */\n      tag_187\n        /* \"#utility.yul\":5462:5464   */\n      0x20\n        /* \"#utility.yul\":5451:5460   */\n      dup4\n        /* \"#utility.yul\":5447:5465   */\n      add\n        /* \"#utility.yul\":5438:5444   */\n      dup6\n        /* \"#utility.yul\":5400:5466   */\n      tag_94\n      jump\t// in\n    tag_187:\n        /* \"#utility.yul\":5476:5542   */\n      tag_188\n        /* \"#utility.yul\":5538:5540   */\n      0x40\n        /* \"#utility.yul\":5527:5536   */\n      dup4\n        /* \"#utility.yul\":5523:5541   */\n      add\n        /* \"#utility.yul\":5514:5520   */\n      dup5\n        /* \"#utility.yul\":5476:5542   */\n      tag_94\n      jump\t// in\n    tag_188:\n        /* \"#utility.yul\":5040:5549   */\n      swap5\n      swap4\n      pop\n      pop\n      pop\n      pop\n      jump\t// out\n        /* \"#utility.yul\":5555:5765   */\n    tag_23:\n        /* \"#utility.yul\":5642:5646   */\n      0x00\n        /* \"#utility.yul\":5680:5682   */\n      0x20\n        /* \"#utility.yul\":5669:5678   */\n      dup3\n        /* \"#utility.yul\":5665:5683   */\n      add\n        /* \"#utility.yul\":5657:5683   */\n      swap1\n      pop\n        /* \"#utility.yul\":5693:5758   */\n      tag_190\n        /* \"#utility.yul\":5755:5756   */\n      0x00\n        /* \"#utility.yul\":5744:5753   */\n      dup4\n        /* \"#utility.yul\":5740:5757   */\n      add\n        /* \"#utility.yul\":5731:5737   */\n      dup5\n        /* \"#utility.yul\":5693:5758   */\n      tag_94\n      jump\t// in\n    tag_190:\n        /* \"#utility.yul\":5555:5765   */\n      swap3\n      swap2\n      pop\n      pop\n      jump\t// out\n        /* \"#utility.yul\":5771:6084   */\n    tag_28:\n        /* \"#utility.yul\":5884:5888   */\n      0x00\n        /* \"#utility.yul\":5922:5924   */\n      0x20\n        /* \"#utility.yul\":5911:5920   */\n      dup3\n        /* \"#utility.yul\":5907:5925   */\n      add\n        /* \"#utility.yul\":5899:5925   */\n      swap1\n      pop\n        /* \"#utility.yul\":5971:5980   */\n      dup2\n        /* \"#utility.yul\":5965:5969   */\n      dup2\n        /* \"#utility.yul\":5961:5981   */\n      sub\n        /* \"#utility.yul\":5957:5958   */\n      0x00\n        /* \"#utility.yul\":5946:5955   */\n      dup4\n        /* \"#utility.yul\":5942:5959   */\n      add\n        /* \"#utility.yul\":5935:5982   */\n      mstore\n        /* \"#utility.yul\":5999:6077   */\n      tag_192\n        /* \"#utility.yul\":6072:6076   */\n      dup2\n        /* \"#utility.yul\":6063:6069   */\n      dup5\n        /* \"#utility.yul\":5999:6077   */\n      tag_92\n      jump\t// in\n    tag_192:\n        /* \"#utility.yul\":5991:6077   */\n      swap1\n      pop\n        /* \"#utility.yul\":5771:6084   */\n      swap3\n      swap2\n      pop\n      pop\n      jump\t// out\n        /* \"#utility.yul\":6090:6208   */\n    tag_95:\n        /* \"#utility.yul\":6177:6201   */\n      tag_194\n        /* \"#utility.yul\":6195:6200   */\n      dup2\n        /* \"#utility.yul\":6177:6201   */\n      tag_86\n      jump\t// in\n    tag_194:\n        /* \"#utility.yul\":6172:6175   */\n      dup3\n        /* \"#utility.yul\":6165:6202   */\n      mstore\n        /* \"#utility.yul\":6090:6208   */\n      pop\n      pop\n      jump\t// out\n        /* \"#utility.yul\":6214:6436   */\n    tag_35:\n        /* \"#utility.yul\":6307:6311   */\n      0x00\n        /* \"#utility.yul\":6345:6347   */\n      0x20\n        /* \"#utility.yul\":6334:6343   */\n      dup3\n        /* \"#utility.yul\":6330:6348   */\n      add\n        /* \"#utility.yul\":6322:6348   */\n      swap1\n      pop\n        /* \"#utility.yul\":6358:6429   */\n      tag_196\n        /* \"#utility.yul\":6426:6427   */\n      0x00\n        /* \"#utility.yul\":6415:6424   */\n      dup4\n        /* \"#utility.yul\":6411:6428   */\n      add\n        /* \"#utility.yul\":6402:6408   */\n      dup5\n        /* \"#utility.yul\":6358:6429   */\n      tag_95\n      jump\t// in\n    tag_196:\n        /* \"#utility.yul\":6214:6436   */\n      swap3\n      swap2\n      pop\n      pop\n      jump\t// out\n        /* \"#utility.yul\":6442:6610   */\n    tag_96:\n        /* \"#utility.yul\":6582:6602   */\n      0x416c726561647920726567697374657265640000000000000000000000000000\n        /* \"#utility.yul\":6578:6579   */\n      0x00\n        /* \"#utility.yul\":6570:6576   */\n      dup3\n        /* \"#utility.yul\":6566:6580   */\n      add\n        /* \"#utility.yul\":6559:6603   */\n      mstore\n        /* \"#utility.yul\":6442:6610   */\n      pop\n      jump\t// out\n        /* \"#utility.yul\":6616:6982   */\n    tag_97:\n        /* \"#utility.yul\":6758:6761   */\n      0x00\n        /* \"#utility.yul\":6779:6846   */\n      tag_199\n        /* \"#utility.yul\":6843:6845   */\n      0x12\n        /* \"#utility.yul\":6838:6841   */\n      dup4\n        /* \"#utility.yul\":6779:6846   */\n      tag_90\n      jump\t// in\n    tag_199:\n        /* \"#utility.yul\":6772:6846   */\n      swap2\n      pop\n        /* \"#utility.yul\":6855:6948   */\n      tag_200\n        /* \"#utility.yul\":6944:6947   */\n      dup3\n        /* \"#utility.yul\":6855:6948   */\n      tag_96\n      jump\t// in\n    tag_200:\n        /* \"#utility.yul\":6973:6975   */\n      0x20\n        /* \"#utility.yul\":6968:6971   */\n      dup3\n        /* \"#utility.yul\":6964:6976   */\n      add\n        /* \"#utility.yul\":6957:6976   */\n      swap1\n      pop\n        /* \"#utility.yul\":6616:6982   */\n      swap2\n      swap1\n      pop\n      jump\t// out\n        /* \"#utility.yul\":6988:7407   */\n    tag_39:\n        /* \"#utility.yul\":7154:7158   */\n      0x00\n        /* \"#utility.yul\":7192:7194   */\n      0x20\n        /* \"#utility.yul\":7181:7190   */\n      dup3\n        /* \"#utility.yul\":7177:7195   */\n      add\n        /* \"#utility.yul\":7169:7195   */\n      swap1\n      pop\n        /* \"#utility.yul\":7241:7250   */\n      dup2\n        /* \"#utility.yul\":7235:7239   */\n      dup2\n        /* \"#utility.yul\":7231:7251   */\n      sub\n        /* \"#utility.yul\":7227:7228   */\n      0x00\n        /* \"#utility.yul\":7216:7225   */\n      dup4\n        /* \"#utility.yul\":7212:7229   */\n      add\n        /* \"#utility.yul\":7205:7252   */\n      mstore\n        /* \"#utility.yul\":7269:7400   */\n      tag_202\n        /* \"#utility.yul\":7395:7399   */\n      dup2\n        /* \"#utility.yul\":7269:7400   */\n      tag_97\n      jump\t// in\n    tag_202:\n        /* \"#utility.yul\":7261:7400   */\n      swap1\n      pop\n        /* \"#utility.yul\":6988:7407   */\n      swap2\n      swap1\n      pop\n      jump\t// out\n        /* \"#utility.yul\":7413:7580   */\n    tag_98:\n        /* \"#utility.yul\":7553:7572   */\n      0x496e76616c696420495046532068617368000000000000000000000000000000\n        /* \"#utility.yul\":7549:7550   */\n      0x00\n        /* \"#utility.yul\":7541:7547   */\n      dup3\n        /* \"#utility.yul\":7537:7551   */\n      add\n        /* \"#utility.yul\":7530:7573   */\n      mstore\n        /* \"#utility.yul\":7413:7580   */\n      pop\n      jump\t// out\n        /* \"#utility.yul\":7586:7952   */\n    tag_99:\n        /* \"#utility.yul\":7728:7731   */\n      0x00\n        /* \"#utility.yul\":7749:7816   */\n      tag_205\n        /* \"#utility.yul\":7813:7815   */\n      0x11\n        /* \"#utility.yul\":7808:7811   */\n      dup4\n        /* \"#utility.yul\":7749:7816   */\n      tag_90\n      jump\t// in\n    tag_205:\n        /* \"#utility.yul\":7742:7816   */\n      swap2\n      pop\n        /* \"#utility.yul\":7825:7918   */\n      tag_206\n        /* \"#utility.yul\":7914:7917   */\n      dup3\n        /* \"#utility.yul\":7825:7918   */\n      tag_98\n      jump\t// in\n    tag_206:\n        /* \"#utility.yul\":7943:7945   */\n      0x20\n        /* \"#utility.yul\":7938:7941   */\n      dup3\n        /* \"#utility.yul\":7934:7946   */\n      add\n        /* \"#utility.yul\":7927:7946   */\n      swap1\n      pop\n        /* \"#utility.yul\":7586:7952   */\n      swap2\n      swap1\n      pop\n      jump\t// out\n        /* \"#utility.yul\":7958:8377   */\n    tag_42:\n        /* \"#utility.yul\":8124:8128   */\n      0x00\n        /* \"#utility.yul\":8162:8164   */\n      0x20\n        /* \"#utility.yul\":8151:8160   */\n      dup3\n        /* \"#utility.yul\":8147:8165   */\n      add\n        /* \"#utility.yul\":8139:8165   */\n      swap1\n      pop\n        /* \"#utility.yul\":8211:8220   */\n      dup2\n        /* \"#utility.yul\":8205:8209   */\n      dup2\n        /* \"#utility.yul\":8201:8221   */\n      sub\n        /* \"#utility.yul\":8197:8198   */\n      0x00\n        /* \"#utility.yul\":8186:8195   */\n      dup4\n        /* \"#utility.yul\":8182:8199   */\n      add\n        /* \"#utility.yul\":8175:8222   */\n      mstore\n        /* \"#utility.yul\":8239:8370   */\n      tag_208\n        /* \"#utility.yul\":8365:8369   */\n      dup2\n        /* \"#utility.yul\":8239:8370   */\n      tag_99\n      jump\t// in\n    tag_208:\n        /* \"#utility.yul\":8231:8370   */\n      swap1\n      pop\n        /* \"#utility.yul\":7958:8377   */\n      swap2\n      swap1\n      pop\n      jump\t// out\n        /* \"#utility.yul\":8383:8563   */\n    tag_100:\n        /* \"#utility.yul\":8431:8508   */\n      0x4e487b7100000000000000000000000000000000000000000000000000000000\n        /* \"#utility.yul\":8428:8429   */\n      0x00\n        /* \"#utility.yul\":8421:8509   */\n      mstore\n        /* \"#utility.yul\":8528:8532   */\n      0x22\n        /* \"#utility.yul\":8525:8526   */\n      0x04\n        /* \"#utility.yul\":8518:8533   */\n      mstore\n        /* \"#utility.yul\":8552:8556   */\n      0x24\n        /* \"#utility.yul\":8549:8550   */\n      0x00\n        /* \"#utility.yul\":8542:8557   */\n      revert\n        /* \"#utility.yul\":8569:8889   */\n    tag_47:\n        /* \"#utility.yul\":8613:8619   */\n      0x00\n        /* \"#utility.yul\":8650:8651   */\n      0x02\n        /* \"#utility.yul\":8644:8648   */\n      dup3\n        /* \"#utility.yul\":8640:8652   */\n      div\n        /* \"#utility.yul\":8630:8652   */\n      swap1\n      pop\n        /* \"#utility.yul\":8697:8698   */\n      0x01\n        /* \"#utility.yul\":8691:8695   */\n      dup3\n        /* \"#utility.yul\":8687:8699   */\n      and\n        /* \"#utility.yul\":8718:8736   */\n      dup1\n        /* \"#utility.yul\":8708:8789   */\n      tag_211\n      jumpi\n        /* \"#utility.yul\":8774:8778   */\n      0x7f\n        /* \"#utility.yul\":8766:8772   */\n      dup3\n        /* \"#utility.yul\":8762:8779   */\n      and\n        /* \"#utility.yul\":8752:8779   */\n      swap2\n      pop\n        /* \"#utility.yul\":8708:8789   */\n    tag_211:\n        /* \"#utility.yul\":8836:8838   */\n      0x20\n        /* \"#utility.yul\":8828:8834   */\n      dup3\n        /* \"#utility.yul\":8825:8839   */\n      lt\n        /* \"#utility.yul\":8805:8823   */\n      dup2\n        /* \"#utility.yul\":8802:8840   */\n      sub\n        /* \"#utility.yul\":8799:8883   */\n      tag_212\n      jumpi\n        /* \"#utility.yul\":8855:8873   */\n      tag_213\n      tag_100\n      jump\t// in\n    tag_213:\n        /* \"#utility.yul\":8799:8883   */\n    tag_212:\n        /* \"#utility.yul\":8620:8889   */\n      pop\n        /* \"#utility.yul\":8569:8889   */\n      swap2\n      swap1\n      pop\n      jump\t// out\n        /* \"#utility.yul\":8895:9036   */\n    tag_101:\n        /* \"#utility.yul\":8944:8948   */\n      0x00\n        /* \"#utility.yul\":8967:8970   */\n      dup2\n        /* \"#utility.yul\":8959:8970   */\n      swap1\n      pop\n        /* \"#utility.yul\":8990:8993   */\n      dup2\n        /* \"#utility.yul\":8987:8988   */\n      0x00\n        /* \"#utility.yul\":8980:8994   */\n      mstore\n        /* \"#utility.yul\":9024:9028   */\n      0x20\n        /* \"#utility.yul\":9021:9022   */\n      0x00\n        /* \"#utility.yul\":9011:9029   */\n      keccak256\n        /* \"#utility.yul\":9003:9029   */\n      swap1\n      pop\n        /* \"#utility.yul\":8895:9036   */\n      swap2\n      swap1\n      pop\n      jump\t// out\n        /* \"#utility.yul\":9042:9135   */\n    tag_102:\n        /* \"#utility.yul\":9079:9085   */\n      0x00\n        /* \"#utility.yul\":9126:9128   */\n      0x20\n        /* \"#utility.yul\":9121:9123   */\n      0x1f\n        /* \"#utility.yul\":9114:9119   */\n      dup4\n        /* \"#utility.yul\":9110:9124   */\n      add\n        /* \"#utility.yul\":9106:9129   */\n      div\n        /* \"#utility.yul\":9096:9129   */\n      swap1\n      pop\n        /* \"#utility.yul\":9042:9135   */\n      swap2\n      swap1\n      pop\n      jump\t// out\n        /* \"#utility.yul\":9141:9248   */\n    tag_103:\n        /* \"#utility.yul\":9185:9193   */\n      0x00\n        /* \"#utility.yul\":9235:9240   */\n      dup3\n        /* \"#utility.yul\":9229:9233   */\n      dup3\n        /* \"#utility.yul\":9225:9241   */\n      shl\n        /* \"#utility.yul\":9204:9241   */\n      swap1\n      pop\n        /* \"#utility.yul\":9141:9248   */\n      swap3\n      swap2\n      pop\n      pop\n      jump\t// out\n        /* \"#utility.yul\":9254:9647   */\n    tag_104:\n        /* \"#utility.yul\":9323:9329   */\n      0x00\n        /* \"#utility.yul\":9373:9374   */\n      0x08\n        /* \"#utility.yul\":9361:9371   */\n      dup4\n        /* \"#utility.yul\":9357:9375   */\n      mul\n        /* \"#utility.yul\":9396:9493   */\n      tag_218\n        /* \"#utility.yul\":9426:9492   */\n      0xffffffffffffffffffffffffffffffffffffffffffffffffffffffffffffffff\n        /* \"#utility.yul\":9415:9424   */\n      dup3\n        /* \"#utility.yul\":9396:9493   */\n      tag_103\n      jump\t// in\n    tag_218:\n        /* \"#utility.yul\":9514:9553   */\n      tag_219\n        /* \"#utility.yul\":9544:9552   */\n      dup7\n        /* \"#utility.yul\":9533:9542   */\n      dup4\n        /* \"#utility.yul\":9514:9553   */\n      tag_103\n      jump\t// in\n    tag_219:\n        /* \"#utility.yul\":9502:9553   */\n      swap6\n      pop\n        /* \"#utility.yul\":9586:9590   */\n      dup1\n        /* \"#utility.yul\":9582:9591   */\n      not\n        /* \"#utility.yul\":9575:9580   */\n      dup5\n        /* \"#utility.yul\":9571:9592   */\n      and\n        /* \"#utility.yul\":9562:9592   */\n      swap4\n      pop\n        /* \"#utility.yul\":9635:9639   */\n      dup1\n        /* \"#utility.yul\":9625:9633   */\n      dup7\n        /* \"#utility.yul\":9621:9640   */\n      and\n        /* \"#utility.yul\":9614:9619   */\n      dup5\n        /* \"#utility.yul\":9611:9641   */\n      or\n        /* \"#utility.yul\":9601:9641   */\n      swap3\n      pop\n        /* \"#utility.yul\":9330:9647   */\n      pop\n      pop\n        /* \"#utility.yul\":9254:9647   */\n      swap4\n      swap3\n      pop\n      pop\n      pop\n      jump\t// out\n        /* \"#utility.yul\":9653:9730   */\n    tag_105:\n        /* \"#utility.yul\":9690:9697   */\n      0x00\n        /* \"#utility.yul\":9719:9724   */\n      dup2\n        /* \"#utility.yul\":9708:9724   */\n      swap1\n      pop\n        /* \"#utility.yul\":9653:9730   */\n      swap2\n      swap1\n      pop\n      jump\t// out\n        /* \"#utility.yul\":9736:9796   */\n    tag_106:\n        /* \"#utility.yul\":9764:9767   */\n      0x00\n        /* \"#utility.yul\":9785:9790   */\n      dup2\n        /* \"#utility.yul\":9778:9790   */\n      swap1\n      pop\n        /* \"#utility.yul\":9736:9796   */\n      swap2\n      swap1\n      pop\n      jump\t// out\n        /* \"#utility.yul\":9802:9944   */\n    tag_107:\n        /* \"#utility.yul\":9852:9861   */\n      0x00\n        /* \"#utility.yul\":9885:9938   */\n      tag_223\n        /* \"#utility.yul\":9903:9937   */\n      tag_224\n        /* \"#utility.yul\":9912:9936   */\n      tag_225\n        /* \"#utility.yul\":9930:9935   */\n      dup5\n        /* \"#utility.yul\":9912:9936   */\n      tag_105\n      jump\t// in\n    tag_225:\n        /* \"#utility.yul\":9903:9937   */\n      tag_106\n      jump\t// in\n    tag_224:\n        /* \"#utility.yul\":9885:9938   */\n      tag_105\n      jump\t// in\n    tag_223:\n        /* \"#utility.yul\":9872:9938   */\n      swap1\n      pop\n        /* \"#utility.yul\":9802:9944   */\n      swap2\n      swap1\n      pop\n      jump\t// out\n        /* \"#utility.yul\":9950:10025   */\n    tag_108:\n        /* \"#utility.yul\":9993:9996   */\n      0x00\n        /* \"#utility.yul\":10014:10019   */\n      dup2\n        /* \"#utility.yul\":10007:10019   */\n      swap1\n      pop\n        /* \"#utility.yul\":9950:10025   */\n      swap2\n      swap1\n      pop\n      jump\t// out\n        /* \"#utility.yul\":10031:10300   */\n    tag_109:\n        /* \"#utility.yul\":10141:10180   */\n      tag_228\n        /* \"#utility.yul\":10172:10179   */\n      dup4\n        /* \"#utility.yul\":10141:10180   */\n      tag_107\n      jump\t// in\n    tag_228:\n        /* \"#utility.yul\":10202:10293   */\n      tag_229\n        /* \"#utility.yul\":10251:10292   */\n      tag_230\n        /* \"#utility.yul\":10275:10291   */\n      dup3\n        /* \"#utility.yul\":10251:10292   */\n      tag_108\n      jump\t// in\n    tag_230:\n        /* \"#utility.yul\":10243:10249   */\n      dup5\n        /* \"#utility.yul\":10236:10240   */\n      dup5\n        /* \"#utility.yul\":10230:10241   */\n      sload\n        /* \"#utility.yul\":10202:10293   */\n      tag_104\n      jump\t// in\n    tag_229:\n        /* \"#utility.yul\":10196:10200   */\n      dup3\n        /* \"#utility.yul\":10189:10294   */\n      sstore\n        /* \"#utility.yul\":10107:10300   */\n      pop\n        /* \"#utility.yul\":10031:10300   */\n      pop\n      pop\n      pop\n      jump\t// out\n        /* \"#utility.yul\":10306:10379   */\n    tag_110:\n        /* \"#utility.yul\":10351:10354   */\n      0x00\n        /* \"#utility.yul\":10306:10379   */\n      swap1\n      jump\t// out\n        /* \"#utility.yul\":10385:10574   */\n    tag_111:\n        /* \"#utility.yul\":10462:10494   */\n      tag_233\n      tag_110\n      jump\t// in\n    tag_233:\n        /* \"#utility.yul\":10503:10568   */\n      tag_234\n        /* \"#utility.yul\":10561:10567   */\n      dup2\n        /* \"#utility.yul\":10553:10559   */\n      dup5\n        /* \"#utility.yul\":10547:10551   */\n      dup5\n        /* \"#utility.yul\":10503:10568   */\n      tag_109\n      jump\t// in\n    tag_234:\n        /* \"#utility.yul\":10438:10574   */\n      pop\n        /* \"#utility.yul\":10385:10574   */\n      pop\n      pop\n      jump\t// out\n        /* \"#utility.yul\":10580:10766   */\n    tag_112:\n        /* \"#utility.yul\":10640:10760   */\n    tag_236:\n        /* \"#utility.yul\":10657:10660   */\n      dup2\n        /* \"#utility.yul\":10650:10655   */\n      dup2\n        /* \"#utility.yul\":10647:10661   */\n      lt\n        /* \"#utility.yul\":10640:10760   */\n      iszero\n      tag_238\n      jumpi\n        /* \"#utility.yul\":10711:10750   */\n      tag_239\n        /* \"#utility.yul\":10748:10749   */\n      0x00\n        /* \"#utility.yul\":10741:10746   */\n      dup3\n        /* \"#utility.yul\":10711:10750   */\n      tag_111\n      jump\t// in\n    tag_239:\n        /* \"#utility.yul\":10684:10685   */\n      0x01\n        /* \"#utility.yul\":10677:10682   */\n      dup2\n        /* \"#utility.yul\":10673:10686   */\n      add\n        /* \"#utility.yul\":10664:10686   */\n      swap1\n      pop\n        /* \"#utility.yul\":10640:10760   */\n      jump(tag_236)\n    tag_238:\n        /* \"#utility.yul\":10580:10766   */\n      pop\n      pop\n      jump\t// out\n        /* \"#utility.yul\":10772:11315   */\n    tag_113:\n        /* \"#utility.yul\":10873:10875   */\n      0x1f\n        /* \"#utility.yul\":10868:10871   */\n      dup3\n        /* \"#utility.yul\":10865:10876   */\n      gt\n        /* \"#utility.yul\":10862:11308   */\n      iszero\n      tag_241\n      jumpi\n        /* \"#utility.yul\":10907:10945   */\n      tag_242\n        /* \"#utility.yul\":10939:10944   */\n      dup2\n        /* \"#utility.yul\":10907:10945   */\n      tag_101\n      jump\t// in\n    tag_242:\n        /* \"#utility.yul\":10991:11020   */\n      tag_243\n        /* \"#utility.yul\":11009:11019   */\n      dup5\n        /* \"#utility.yul\":10991:11020   */\n      tag_102\n      jump\t// in\n    tag_243:\n        /* \"#utility.yul\":10981:10989   */\n      dup2\n        /* \"#utility.yul\":10977:11021   */\n      add\n        /* \"#utility.yul\":11174:11176   */\n      0x20\n        /* \"#utility.yul\":11162:11172   */\n      dup6\n        /* \"#utility.yul\":11159:11177   */\n      lt\n        /* \"#utility.yul\":11156:11205   */\n      iszero\n      tag_244\n      jumpi\n        /* \"#utility.yul\":11195:11203   */\n      dup2\n        /* \"#utility.yul\":11180:11203   */\n      swap1\n      pop\n        /* \"#utility.yul\":11156:11205   */\n    tag_244:\n        /* \"#utility.yul\":11218:11298   */\n      tag_245\n        /* \"#utility.yul\":11274:11296   */\n      tag_246\n        /* \"#utility.yul\":11292:11295   */\n      dup6\n        /* \"#utility.yul\":11274:11296   */\n      tag_102\n      jump\t// in\n    tag_246:\n        /* \"#utility.yul\":11264:11272   */\n      dup4\n        /* \"#utility.yul\":11260:11297   */\n      add\n        /* \"#utility.yul\":11247:11258   */\n      dup3\n        /* \"#utility.yul\":11218:11298   */\n      tag_112\n      jump\t// in\n    tag_245:\n        /* \"#utility.yul\":10877:11308   */\n      pop\n      pop\n        /* \"#utility.yul\":10862:11308   */\n    tag_241:\n        /* \"#utility.yul\":10772:11315   */\n      pop\n      pop\n      pop\n      jump\t// out\n        /* \"#utility.yul\":11321:11438   */\n    tag_114:\n        /* \"#utility.yul\":11375:11383   */\n      0x00\n        /* \"#utility.yul\":11425:11430   */\n      dup3\n        /* \"#utility.yul\":11419:11423   */\n      dup3\n        /* \"#utility.yul\":11415:11431   */\n      shr\n        /* \"#utility.yul\":11394:11431   */\n      swap1\n      pop\n        /* \"#utility.yul\":11321:11438   */\n      swap3\n      swap2\n      pop\n      pop\n      jump\t// out\n        /* \"#utility.yul\":11444:11613   */\n    tag_115:\n        /* \"#utility.yul\":11488:11494   */\n      0x00\n        /* \"#utility.yul\":11521:11572   */\n      tag_249\n        /* \"#utility.yul\":11569:11570   */\n      0x00\n        /* \"#utility.yul\":11565:11571   */\n      not\n        /* \"#utility.yul\":11557:11562   */\n      dup5\n        /* \"#utility.yul\":11554:11555   */\n      0x08\n        /* \"#utility.yul\":11550:11563   */\n      mul\n        /* \"#utility.yul\":11521:11572   */\n      tag_114\n      jump\t// in\n    tag_249:\n        /* \"#utility.yul\":11517:11573   */\n      not\n        /* \"#utility.yul\":11602:11606   */\n      dup1\n        /* \"#utility.yul\":11596:11600   */\n      dup4\n        /* \"#utility.yul\":11592:11607   */\n      and\n        /* \"#utility.yul\":11582:11607   */\n      swap2\n      pop\n        /* \"#utility.yul\":11495:11613   */\n      pop\n        /* \"#utility.yul\":11444:11613   */\n      swap3\n      swap2\n      pop\n      pop\n      jump\t// out\n        /* \"#utility.yul\":11618:11913   */\n    tag_116:\n        /* \"#utility.yul\":11694:11698   */\n      0x00\n        /* \"#utility.yul\":11840:11869   */\n      tag_251\n        /* \"#utility.yul\":11865:11868   */\n      dup4\n        /* \"#utility.yul\":11859:11863   */\n      dup4\n        /* \"#utility.yul\":11840:11869   */\n      tag_115\n      jump\t// in\n    tag_251:\n        /* \"#utility.yul\":11832:11869   */\n      swap2\n      pop\n        /* \"#utility.yul\":11902:11905   */\n      dup3\n        /* \"#utility.yul\":11899:11900   */\n      0x02\n        /* \"#utility.yul\":11895:11906   */\n      mul\n        /* \"#utility.yul\":11889:11893   */\n      dup3\n        /* \"#utility.yul\":11886:11907   */\n      or\n        /* \"#utility.yul\":11878:11907   */\n      swap1\n      pop\n        /* \"#utility.yul\":11618:11913   */\n      swap3\n      swap2\n      pop\n      pop\n      jump\t// out\n        /* \"#utility.yul\":11918:13313   */\n    tag_44:\n        /* \"#utility.yul\":12035:12072   */\n      tag_253\n        /* \"#utility.yul\":12068:12071   */\n      dup3\n        /* \"#utility.yul\":12035:12072   */\n      tag_89\n      jump\t// in\n    tag_253:\n        /* \"#utility.yul\":12137:12155   */\n      0xffffffffffffffff\n        /* \"#utility.yul\":12129:12135   */\n      dup2\n        /* \"#utility.yul\":12126:12156   */\n      gt\n        /* \"#utility.yul\":12123:12179   */\n      iszero\n      tag_254\n      jumpi\n        /* \"#utility.yul\":12159:12177   */\n      tag_255\n      tag_78\n      jump\t// in\n    tag_255:\n        /* \"#utility.yul\":12123:12179   */\n    tag_254:\n        /* \"#utility.yul\":12203:12241   */\n      tag_256\n        /* \"#utility.yul\":12235:12239   */\n      dup3\n        /* \"#utility.yul\":12229:12240   */\n      sload\n        /* \"#utility.yul\":12203:12241   */\n      tag_47\n      jump\t// in\n    tag_256:\n        /* \"#utility.yul\":12288:12355   */\n      tag_257\n        /* \"#utility.yul\":12348:12354   */\n      dup3\n        /* \"#utility.yul\":12340:12346   */\n      dup3\n        /* \"#utility.yul\":12334:12338   */\n      dup6\n        /* \"#utility.yul\":12288:12355   */\n      tag_113\n      jump\t// in\n    tag_257:\n        /* \"#utility.yul\":12382:12383   */\n      0x00\n        /* \"#utility.yul\":12406:12410   */\n      0x20\n        /* \"#utility.yul\":12393:12410   */\n      swap1\n      pop\n        /* \"#utility.yul\":12438:12440   */\n      0x1f\n        /* \"#utility.yul\":12430:12436   */\n      dup4\n        /* \"#utility.yul\":12427:12441   */\n      gt\n        /* \"#utility.yul\":12455:12456   */\n      0x01\n        /* \"#utility.yul\":12450:13068   */\n      dup2\n      eq\n      tag_259\n      jumpi\n        /* \"#utility.yul\":13112:13113   */\n      0x00\n        /* \"#utility.yul\":13129:13135   */\n      dup5\n        /* \"#utility.yul\":13126:13203   */\n      iszero\n      tag_260\n      jumpi\n        /* \"#utility.yul\":13178:13187   */\n      dup3\n        /* \"#utility.yul\":13173:13176   */\n      dup8\n        /* \"#utility.yul\":13169:13188   */\n      add\n        /* \"#utility.yul\":13163:13189   */\n      mload\n        /* \"#utility.yul\":13154:13189   */\n      swap1\n      pop\n        /* \"#utility.yul\":13126:13203   */\n    tag_260:\n        /* \"#utility.yul\":13229:13296   */\n      tag_261\n        /* \"#utility.yul\":13289:13295   */\n      dup6\n        /* \"#utility.yul\":13282:13287   */\n      dup3\n        /* \"#utility.yul\":13229:13296   */\n      tag_116\n      jump\t// in\n    tag_261:\n        /* \"#utility.yul\":13223:13227   */\n      dup7\n        /* \"#utility.yul\":13216:13297   */\n      sstore\n        /* \"#utility.yul\":13085:13307   */\n      pop\n        /* \"#utility.yul\":12420:13307   */\n      jump(tag_258)\n        /* \"#utility.yul\":12450:13068   */\n    tag_259:\n        /* \"#utility.yul\":12502:12506   */\n      0x1f\n        /* \"#utility.yul\":12498:12507   */\n      not\n        /* \"#utility.yul\":12490:12496   */\n      dup5\n        /* \"#utility.yul\":12486:12508   */\n      and\n        /* \"#utility.yul\":12536:12573   */\n      tag_262\n        /* \"#utility.yul\":12568:12572   */\n      dup7\n        /* \"#utility.yul\":12536:12573   */\n      tag_101\n      jump\t// in\n    tag_262:\n        /* \"#utility.yul\":12595:12596   */\n      0x00\n        /* \"#utility.yul\":12609:12817   */\n    tag_263:\n        /* \"#utility.yul\":12623:12630   */\n      dup3\n        /* \"#utility.yul\":12620:12621   */\n      dup2\n        /* \"#utility.yul\":12617:12631   */\n      lt\n        /* \"#utility.yul\":12609:12817   */\n      iszero\n      tag_265\n      jumpi\n        /* \"#utility.yul\":12702:12711   */\n      dup5\n        /* \"#utility.yul\":12697:12700   */\n      dup10\n        /* \"#utility.yul\":12693:12712   */\n      add\n        /* \"#utility.yul\":12687:12713   */\n      mload\n        /* \"#utility.yul\":12679:12685   */\n      dup3\n        /* \"#utility.yul\":12672:12714   */\n      sstore\n        /* \"#utility.yul\":12753:12754   */\n      0x01\n        /* \"#utility.yul\":12745:12751   */\n      dup3\n        /* \"#utility.yul\":12741:12755   */\n      add\n        /* \"#utility.yul\":12731:12755   */\n      swap2\n      pop\n        /* \"#utility.yul\":12800:12802   */\n      0x20\n        /* \"#utility.yul\":12789:12798   */\n      dup6\n        /* \"#utility.yul\":12785:12803   */\n      add\n        /* \"#utility.yul\":12772:12803   */\n      swap5\n      pop\n        /* \"#utility.yul\":12646:12650   */\n      0x20\n        /* \"#utility.yul\":12643:12644   */\n      dup2\n        /* \"#utility.yul\":12639:12651   */\n      add\n        /* \"#utility.yul\":12634:12651   */\n      swap1\n      pop\n        /* \"#utility.yul\":12609:12817   */\n      jump(tag_263)\n    tag_265:\n        /* \"#utility.yul\":12845:12851   */\n      dup7\n        /* \"#utility.yul\":12836:12843   */\n      dup4\n        /* \"#utility.yul\":12833:12852   */\n      lt\n        /* \"#utility.yul\":12830:13009   */\n      iszero\n      tag_266\n      jumpi\n        /* \"#utility.yul\":12903:12912   */\n      dup5\n        /* \"#utility.yul\":12898:12901   */\n      dup10\n        /* \"#utility.yul\":12894:12913   */\n      add\n        /* \"#utility.yul\":12888:12914   */\n      mload\n        /* \"#utility.yul\":12946:12994   */\n      tag_267\n        /* \"#utility.yul\":12988:12992   */\n      0x1f\n        /* \"#utility.yul\":12980:12986   */\n      dup10\n        /* \"#utility.yul\":12976:12993   */\n      and\n        /* \"#utility.yul\":12965:12974   */\n      dup3\n        /* \"#utility.yul\":12946:12994   */\n      tag_115\n      jump\t// in\n    tag_267:\n        /* \"#utility.yul\":12938:12944   */\n      dup4\n        /* \"#utility.yul\":12931:12995   */\n      sstore\n        /* \"#utility.yul\":12853:13009   */\n      pop\n        /* \"#utility.yul\":12830:13009   */\n    tag_266:\n        /* \"#utility.yul\":13055:13056   */\n      0x01\n        /* \"#utility.yul\":13051:13052   */\n      0x02\n        /* \"#utility.yul\":13043:13049   */\n      dup9\n        /* \"#utility.yul\":13039:13053   */\n      mul\n        /* \"#utility.yul\":13035:13057   */\n      add\n        /* \"#utility.yul\":13029:13033   */\n      dup9\n        /* \"#utility.yul\":13022:13058   */\n      sstore\n        /* \"#utility.yul\":12457:13068   */\n      pop\n      pop\n      pop\n        /* \"#utility.yul\":12420:13307   */\n    tag_258:\n      pop\n        /* \"#utility.yul\":12010:13313   */\n      pop\n      pop\n      pop\n        /* \"#utility.yul\":11918:13313   */\n      pop\n      pop\n      jump\t// out\n        /* \"#utility.yul\":13319:13490   */\n    tag_117:\n        /* \"#utility.yul\":13459:13482   */\n      0x446f63746f72206e6f7420726567697374657265640000000000000000000000\n        /* \"#utility.yul\":13455:13456   */\n      0x00\n        /* \"#utility.yul\":13447:13453   */\n      dup3\n        /* \"#utility.yul\":13443:13457   */\n      add\n        /* \"#utility.yul\":13436:13483   */\n      mstore\n        /* \"#utility.yul\":13319:13490   */\n      pop\n      jump\t// out\n        /* \"#utility.yul\":13496:13862   */\n    tag_118:\n        /* \"#utility.yul\":13638:13641   */\n      0x00\n        /* \"#utility.yul\":13659:13726   */\n      tag_270\n        /* \"#utility.yul\":13723:13725   */\n      0x15\n        /* \"#utility.yul\":13718:13721   */\n      dup4\n        /* \"#utility.yul\":13659:13726   */\n      tag_90\n      jump\t// in\n    tag_270:\n        /* \"#utility.yul\":13652:13726   */\n      swap2\n      pop\n        /* \"#utility.yul\":13735:13828   */\n      tag_271\n        /* \"#utility.yul\":13824:13827   */\n      dup3\n        /* \"#utility.yul\":13735:13828   */\n      tag_117\n      jump\t// in\n    tag_271:\n        /* \"#utility.yul\":13853:13855   */\n      0x20\n        /* \"#utility.yul\":13848:13851   */\n      dup3\n        /* \"#utility.yul\":13844:13856   */\n      add\n        /* \"#utility.yul\":13837:13856   */\n      swap1\n      pop\n        /* \"#utility.yul\":13496:13862   */\n      swap2\n      swap1\n      pop\n      jump\t// out\n        /* \"#utility.yul\":13868:14287   */\n    tag_56:\n        /* \"#utility.yul\":14034:14038   */\n      0x00\n        /* \"#utility.yul\":14072:14074   */\n      0x20\n        /* \"#utility.yul\":14061:14070   */\n      dup3\n        /* \"#utility.yul\":14057:14075   */\n      add\n        /* \"#utility.yul\":14049:14075   */\n      swap1\n      pop\n        /* \"#utility.yul\":14121:14130   */\n      dup2\n        /* \"#utility.yul\":14115:14119   */\n      dup2\n        /* \"#utility.yul\":14111:14131   */\n      sub\n        /* \"#utility.yul\":14107:14108   */\n      0x00\n        /* \"#utility.yul\":14096:14105   */\n      dup4\n        /* \"#utility.yul\":14092:14109   */\n      add\n        /* \"#utility.yul\":14085:14132   */\n      mstore\n        /* \"#utility.yul\":14149:14280   */\n      tag_273\n        /* \"#utility.yul\":14275:14279   */\n      dup2\n        /* \"#utility.yul\":14149:14280   */\n      tag_118\n      jump\t// in\n    tag_273:\n        /* \"#utility.yul\":14141:14280   */\n      swap1\n      pop\n        /* \"#utility.yul\":13868:14287   */\n      swap2\n      swap1\n      pop\n      jump\t// out\n        /* \"#utility.yul\":14293:14452   */\n    tag_119:\n        /* \"#utility.yul\":14433:14444   */\n      0x4e6f742061646d696e0000000000000000000000000000000000000000000000\n        /* \"#utility.yul\":14429:14430   */\n      0x00\n        /* \"#utility.yul\":14421:14427   */\n      dup3\n        /* \"#utility.yul\":14417:14431   */\n      add\n        /* \"#utility.yul\":14410:14445   */\n      mstore\n        /* \"#utility.yul\":14293:14452   */\n      pop\n      jump\t// out\n        /* \"#utility.yul\":14458:14823   */\n    tag_120:\n        /* \"#utility.yul\":14600:14603   */\n      0x00\n        /* \"#utility.yul\":14621:14687   */\n      tag_276\n        /* \"#utility.yul\":14685:14686   */\n      0x09\n        /* \"#utility.yul\":14680:14683   */\n      dup4\n        /* \"#utility.yul\":14621:14687   */\n      tag_90\n      jump\t// in\n    tag_276:\n        /* \"#utility.yul\":14614:14687   */\n      swap2\n      pop\n        /* \"#utility.yul\":14696:14789   */\n      tag_277\n        /* \"#utility.yul\":14785:14788   */\n      dup3\n        /* \"#utility.yul\":14696:14789   */\n      tag_119\n      jump\t// in\n    tag_277:\n        /* \"#utility.yul\":14814:14816   */\n      0x20\n        /* \"#utility.yul\":14809:14812   */\n      dup3\n        /* \"#utility.yul\":14805:14817   */\n      add\n        /* \"#utility.yul\":14798:14817   */\n      swap1\n      pop\n        /* \"#utility.yul\":14458:14823   */\n      swap2\n      swap1\n      pop\n      jump\t// out\n        /* \"#utility.yul\":14829:15248   */\n    tag_65:\n        /* \"#utility.yul\":14995:14999   */\n      0x00\n        /* \"#utility.yul\":15033:15035   */\n      0x20\n        /* \"#utility.yul\":15022:15031   */\n      dup3\n        /* \"#utility.yul\":15018:15036   */\n      add\n        /* \"#utility.yul\":15010:15036   */\n      swap1\n      pop\n        /* \"#utility.yul\":15082:15091   */\n      dup2\n        /* \"#utility.yul\":15076:15080   */\n      dup2\n        /* \"#utility.yul\":15072:15092   */\n      sub\n        /* \"#utility.yul\":15068:15069   */\n      0x00\n        /* \"#utility.yul\":15057:15066   */\n      dup4\n        /* \"#utility.yul\":15053:15070   */\n      add\n        /* \"#utility.yul\":15046:15093   */\n      mstore\n        /* \"#utility.yul\":15110:15241   */\n      tag_279\n        /* \"#utility.yul\":15236:15240   */\n      dup2\n        /* \"#utility.yul\":15110:15241   */\n      tag_120\n      jump\t// in\n    tag_279:\n        /* \"#utility.yul\":15102:15241   */\n      swap1\n      pop\n        /* \"#utility.yul\":14829:15248   */\n      swap2\n      swap1\n      pop\n      jump\t// out\n        /* \"#utility.yul\":15254:15420   */\n    tag_121:\n        /* \"#utility.yul\":15394:15412   */\n      0x416c726561647920766572696669656400000000000000000000000000000000\n        /* \"#utility.yul\":15390:15391   */\n      0x00\n        /* \"#utility.yul\":15382:15388   */\n      dup3\n        /* \"#utility.yul\":15378:15392   */\n      add\n        /* \"#utility.yul\":15371:15413   */\n      mstore\n        /* \"#utility.yul\":15254:15420   */\n      pop\n      jump\t// out\n        /* \"#utility.yul\":15426:15792   */\n    tag_122:\n        /* \"#utility.yul\":15568:15571   */\n      0x00\n        /* \"#utility.yul\":15589:15656   */\n      tag_282\n        /* \"#utility.yul\":15653:15655   */\n      0x10\n        /* \"#utility.yul\":15648:15651   */\n      dup4\n        /* \"#utility.yul\":15589:15656   */\n      tag_90\n      jump\t// in\n    tag_282:\n        /* \"#utility.yul\":15582:15656   */\n      swap2\n      pop\n        /* \"#utility.yul\":15665:15758   */\n      tag_283\n        /* \"#utility.yul\":15754:15757   */\n      dup3\n        /* \"#utility.yul\":15665:15758   */\n      tag_121\n      jump\t// in\n    tag_283:\n        /* \"#utility.yul\":15783:15785   */\n      0x20\n        /* \"#utility.yul\":15778:15781   */\n      dup3\n        /* \"#utility.yul\":15774:15786   */\n      add\n        /* \"#utility.yul\":15767:15786   */\n      swap1\n      pop\n        /* \"#utility.yul\":15426:15792   */\n      swap2\n      swap1\n      pop\n      jump\t// out\n        /* \"#utility.yul\":15798:16217   */\n    tag_71:\n        /* \"#utility.yul\":15964:15968   */\n      0x00\n        /* \"#utility.yul\":16002:16004   */\n      0x20\n        /* \"#utility.yul\":15991:16000   */\n      dup3\n        /* \"#utility.yul\":15987:16005   */\n      add\n        /* \"#utility.yul\":15979:16005   */\n      swap1\n      pop\n        /* \"#utility.yul\":16051:16060   */\n      dup2\n        /* \"#utility.yul\":16045:16049   */\n      dup2\n        /* \"#utility.yul\":16041:16061   */\n      sub\n        /* \"#utility.yul\":16037:16038   */\n      0x00\n        /* \"#utility.yul\":16026:16035   */\n      dup4\n        /* \"#utility.yul\":16022:16039   */\n      add\n        /* \"#utility.yul\":16015:16062   */\n      mstore\n        /* \"#utility.yul\":16079:16210   */\n      tag_285\n        /* \"#utility.yul\":16205:16209   */\n      dup2\n        /* \"#utility.yul\":16079:16210   */\n      tag_122\n      jump\t// in\n    tag_285:\n        /* \"#utility.yul\":16071:16210   */\n      swap1\n      pop\n        /* \"#utility.yul\":15798:16217   */\n      swap2\n      swap1\n      pop\n      jump\t// out\n\n    auxdata: 0xa26469706673582212205054a3c203db3c90be529718ccda566cc26062db5ebadcf479af0f7c53ff7c6064736f6c634300081e0033\n}\n",
				"bytecode": {
					"linkReferences": {},
					"object": "6080604052348015600f57600080fd5b50336000806101000a81548173ffffffffffffffffffffffffffffffffffffffff021916908373ffffffffffffffffffffffffffffffffffffffff1602179055506110cd8061005f6000396000f3fe608060405234801561001057600080fd5b50600436106100625760003560e01c80638f09ab5b14610067578063a9583c2214610083578063b9209e33146100b5578063bab90dbd146100e5578063d80cb05c14610115578063f851a44014610131575b600080fd5b610081600480360381019061007c9190610980565b61014f565b005b61009d60048036038101906100989190610a27565b61032d565b6040516100ac93929190610aee565b60405180910390f35b6100cf60048036038101906100ca9190610a27565b6103f9565b6040516100dc9190610b2c565b60405180910390f35b6100ff60048036038101906100fa9190610a27565b610452565b60405161010c9190610b47565b60405180910390f35b61012f600480360381019061012a9190610a27565b6105b5565b005b610139610802565b6040516101469190610b78565b60405180910390f35b600160003373ffffffffffffffffffffffffffffffffffffffff1673ffffffffffffffffffffffffffffffffffffffff16815260200190815260200160002060010160019054906101000a900460ff16156101df576040517f08c379a00000000000000000000000000000000000000000000000000000000081526004016101d690610bdf565b60405180910390fd5b6000815111610223576040517f08c379a000000000000000000000000000000000000000000000000000000000815260040161021a90610c4b565b60405180910390fd5b604051806060016040528082815260200160001515815260200160011515815250600160003373ffffffffffffffffffffffffffffffffffffffff1673ffffffffffffffffffffffffffffffffffffffff16815260200190815260200160002060008201518160000190816102989190610e81565b5060208201518160010160006101000a81548160ff02191690831515021790555060408201518160010160016101000a81548160ff0219169083151502179055509050503373ffffffffffffffffffffffffffffffffffffffff167f20481b8112b5bf4734f45a473c373db9df6a79ce946cdc0e7dbc22b4f7d7f986826040516103229190610b47565b60405180910390a250565b600160205280600052604060002060009150905080600001805461035090610c9a565b80601f016020809104026020016040519081016040528092919081815260200182805461037c90610c9a565b80156103c95780601f1061039e576101008083540402835291602001916103c9565b820191906000526020600020905b8154815290600101906020018083116103ac57829003601f168201915b5050505050908060010160009054906101000a900460ff16908060010160019054906101000a900460ff16905083565b6000600160008373ffffffffffffffffffffffffffffffffffffffff1673ffffffffffffffffffffffffffffffffffffffff16815260200190815260200160002060010160009054906101000a900460ff169050919050565b6060600160008373ffffffffffffffffffffffffffffffffffffffff1673ffffffffffffffffffffffffffffffffffffffff16815260200190815260200160002060010160019054906101000a900460ff166104e3576040517f08c379a00000000000000000000000000000000000000000000000000000000081526004016104da90610f9f565b60405180910390fd5b600160008373ffffffffffffffffffffffffffffffffffffffff1673ffffffffffffffffffffffffffffffffffffffff168152602001908152602001600020600001805461053090610c9a565b80601f016020809104026020016040519081016040528092919081815260200182805461055c90610c9a565b80156105a95780601f1061057e576101008083540402835291602001916105a9565b820191906000526020600020905b81548152906001019060200180831161058c57829003601f168201915b50505050509050919050565b60008054906101000a900473ffffffffffffffffffffffffffffffffffffffff1673ffffffffffffffffffffffffffffffffffffffff163373ffffffffffffffffffffffffffffffffffffffff1614610643576040517f08c379a000000000000000000000000000000000000000000000000000000000815260040161063a9061100b565b60405180910390fd5b600160008273ffffffffffffffffffffffffffffffffffffffff1673ffffffffffffffffffffffffffffffffffffffff16815260200190815260200160002060010160019054906101000a900460ff166106d2576040517f08c379a00000000000000000000000000000000000000000000000000000000081526004016106c990610f9f565b60405180910390fd5b600160008273ffffffffffffffffffffffffffffffffffffffff1673ffffffffffffffffffffffffffffffffffffffff16815260200190815260200160002060010160009054906101000a900460ff1615610762576040517f08c379a000000000000000000000000000000000000000000000000000000000815260040161075990611077565b60405180910390fd5b60018060008373ffffffffffffffffffffffffffffffffffffffff1673ffffffffffffffffffffffffffffffffffffffff16815260200190815260200160002060010160006101000a81548160ff0219169083151502179055508073ffffffffffffffffffffffffffffffffffffffff167fb0859f2cf042b300c8948cdd785ec6a23a3742bc5446c19f4b270b67fac2c96760405160405180910390a250565b60008054906101000a900473ffffffffffffffffffffffffffffffffffffffff1681565b6000604051905090565b600080fd5b600080fd5b600080fd5b600080fd5b6000601f19601f8301169050919050565b7f4e487b7100000000000000000000000000000000000000000000000000000000600052604160045260246000fd5b61088d82610844565b810181811067ffffffffffffffff821117156108ac576108ab610855565b5b80604052505050565b60006108bf610826565b90506108cb8282610884565b919050565b600067ffffffffffffffff8211156108eb576108ea610855565b5b6108f482610844565b9050602081019050919050565b82818337600083830152505050565b600061092361091e846108d0565b6108b5565b90508281526020810184848401111561093f5761093e61083f565b5b61094a848285610901565b509392505050565b600082601f8301126109675761096661083a565b5b8135610977848260208601610910565b91505092915050565b60006020828403121561099657610995610830565b5b600082013567ffffffffffffffff8111156109b4576109b3610835565b5b6109c084828501610952565b91505092915050565b600073ffffffffffffffffffffffffffffffffffffffff82169050919050565b60006109f4826109c9565b9050919050565b610a04816109e9565b8114610a0f57600080fd5b50565b600081359050610a21816109fb565b92915050565b600060208284031215610a3d57610a3c610830565b5b6000610a4b84828501610a12565b91505092915050565b600081519050919050565b600082825260208201905092915050565b60005b83811015610a8e578082015181840152602081019050610a73565b60008484015250505050565b6000610aa582610a54565b610aaf8185610a5f565b9350610abf818560208601610a70565b610ac881610844565b840191505092915050565b60008115159050919050565b610ae881610ad3565b82525050565b60006060820190508181036000830152610b088186610a9a565b9050610b176020830185610adf565b610b246040830184610adf565b949350505050565b6000602082019050610b416000830184610adf565b92915050565b60006020820190508181036000830152610b618184610a9a565b905092915050565b610b72816109e9565b82525050565b6000602082019050610b8d6000830184610b69565b92915050565b7f416c726561647920726567697374657265640000000000000000000000000000600082015250565b6000610bc9601283610a5f565b9150610bd482610b93565b602082019050919050565b60006020820190508181036000830152610bf881610bbc565b9050919050565b7f496e76616c696420495046532068617368000000000000000000000000000000600082015250565b6000610c35601183610a5f565b9150610c4082610bff565b602082019050919050565b60006020820190508181036000830152610c6481610c28565b9050919050565b7f4e487b7100000000000000000000000000000000000000000000000000000000600052602260045260246000fd5b60006002820490506001821680610cb257607f821691505b602082108103610cc557610cc4610c6b565b5b50919050565b60008190508160005260206000209050919050565b60006020601f8301049050919050565b600082821b905092915050565b600060088302610d2d7fffffffffffffffffffffffffffffffffffffffffffffffffffffffffffffffff82610cf0565b610d378683610cf0565b95508019841693508086168417925050509392505050565b6000819050919050565b6000819050919050565b6000610d7e610d79610d7484610d4f565b610d59565b610d4f565b9050919050565b6000819050919050565b610d9883610d63565b610dac610da482610d85565b848454610cfd565b825550505050565b600090565b610dc1610db4565b610dcc818484610d8f565b505050565b5b81811015610df057610de5600082610db9565b600181019050610dd2565b5050565b601f821115610e3557610e0681610ccb565b610e0f84610ce0565b81016020851015610e1e578190505b610e32610e2a85610ce0565b830182610dd1565b50505b505050565b600082821c905092915050565b6000610e5860001984600802610e3a565b1980831691505092915050565b6000610e718383610e47565b9150826002028217905092915050565b610e8a82610a54565b67ffffffffffffffff811115610ea357610ea2610855565b5b610ead8254610c9a565b610eb8828285610df4565b600060209050601f831160018114610eeb5760008415610ed9578287015190505b610ee38582610e65565b865550610f4b565b601f198416610ef986610ccb565b60005b82811015610f2157848901518255600182019150602085019450602081019050610efc565b86831015610f3e5784890151610f3a601f891682610e47565b8355505b6001600288020188555050505b505050505050565b7f446f63746f72206e6f7420726567697374657265640000000000000000000000600082015250565b6000610f89601583610a5f565b9150610f9482610f53565b602082019050919050565b60006020820190508181036000830152610fb881610f7c565b9050919050565b7f4e6f742061646d696e0000000000000000000000000000000000000000000000600082015250565b6000610ff5600983610a5f565b915061100082610fbf565b602082019050919050565b6000602082019050818103600083015261102481610fe8565b9050919050565b7f416c726561647920766572696669656400000000000000000000000000000000600082015250565b6000611061601083610a5f565b915061106c8261102b565b602082019050919050565b6000602082019050818103600083015261109081611054565b905091905056fea26469706673582212205054a3c203db3c90be529718ccda566cc26062db5ebadcf479af0f7c53ff7c6064736f6c634300081e0033",
					"opcodes": "PUSH1 0x80 PUSH1 0x40 MSTORE CALLVALUE DUP1 ISZERO PUSH1 0xF JUMPI PUSH1 0x0 DUP1 REVERT JUMPDEST POP CALLER PUSH1 0x0 DUP1 PUSH2 0x100 EXP DUP2 SLOAD DUP2 PUSH20 0xFFFFFFFFFFFFFFFFFFFFFFFFFFFFFFFFFFFFFFFF MUL NOT AND SWAP1 DUP4 PUSH20 0xFFFFFFFFFFFFFFFFFFFFFFFFFFFFFFFFFFFFFFFF AND MUL OR SWAP1 SSTORE POP PUSH2 0x10CD DUP1 PUSH2 0x5F PUSH1 0x0 CODECOPY PUSH1 0x0 RETURN INVALID PUSH1 0x80 PUSH1 0x40 MSTORE CALLVALUE DUP1 ISZERO PUSH2 0x10 JUMPI PUSH1 0x0 DUP1 REVERT JUMPDEST POP PUSH1 0x4 CALLDATASIZE LT PUSH2 0x62 JUMPI PUSH1 0x0 CALLDATALOAD PUSH1 0xE0 SHR DUP1 PUSH4 0x8F09AB5B EQ PUSH2 0x67 JUMPI DUP1 PUSH4 0xA9583C22 EQ PUSH2 0x83 JUMPI DUP1 PUSH4 0xB9209E33 EQ PUSH2 0xB5 JUMPI DUP1 PUSH4 0xBAB90DBD EQ PUSH2 0xE5 JUMPI DUP1 PUSH4 0xD80CB05C EQ PUSH2 0x115 JUMPI DUP1 PUSH4 0xF851A440 EQ PUSH2 0x131 JUMPI JUMPDEST PUSH1 0x0 DUP1 REVERT JUMPDEST PUSH2 0x81 PUSH1 0x4 DUP1 CALLDATASIZE SUB DUP2 ADD SWAP1 PUSH2 0x7C SWAP2 SWAP1 PUSH2 0x980 JUMP JUMPDEST PUSH2 0x14F JUMP JUMPDEST STOP JUMPDEST PUSH2 0x9D PUSH1 0x4 DUP1 CALLDATASIZE SUB DUP2 ADD SWAP1 PUSH2 0x98 SWAP2 SWAP1 PUSH2 0xA27 JUMP JUMPDEST PUSH2 0x32D JUMP JUMPDEST PUSH1 0x40 MLOAD PUSH2 0xAC SWAP4 SWAP3 SWAP2 SWAP1 PUSH2 0xAEE JUMP JUMPDEST PUSH1 0x40 MLOAD DUP1 SWAP2 SUB SWAP1 RETURN JUMPDEST PUSH2 0xCF PUSH1 0x4 DUP1 CALLDATASIZE SUB DUP2 ADD SWAP1 PUSH2 0xCA SWAP2 SWAP1 PUSH2 0xA27 JUMP JUMPDEST PUSH2 0x3F9 JUMP JUMPDEST PUSH1 0x40 MLOAD PUSH2 0xDC SWAP2 SWAP1 PUSH2 0xB2C JUMP JUMPDEST PUSH1 0x40 MLOAD DUP1 SWAP2 SUB SWAP1 RETURN JUMPDEST PUSH2 0xFF PUSH1 0x4 DUP1 CALLDATASIZE SUB DUP2 ADD SWAP1 PUSH2 0xFA SWAP2 SWAP1 PUSH2 0xA27 JUMP JUMPDEST PUSH2 0x452 JUMP JUMPDEST PUSH1 0x40 MLOAD PUSH2 0x10C SWAP2 SWAP1 PUSH2 0xB47 JUMP JUMPDEST PUSH1 0x40 MLOAD DUP1 SWAP2 SUB SWAP1 RETURN JUMPDEST PUSH2 0x12F PUSH1 0x4 DUP1 CALLDATASIZE SUB DUP2 ADD SWAP1 PUSH2 0x12A SWAP2 SWAP1 PUSH2 0xA27 JUMP JUMPDEST PUSH2 0x5B5 JUMP JUMPDEST STOP JUMPDEST PUSH2 0x139 PUSH2 0x802 JUMP JUMPDEST PUSH1 0x40 MLOAD PUSH2 0x146 SWAP2 SWAP1 PUSH2 0xB78 JUMP JUMPDEST PUSH1 0x40 MLOAD DUP1 SWAP2 SUB SWAP1 RETURN JUMPDEST PUSH1 0x1 PUSH1 0x0 CALLER PUSH20 0xFFFFFFFFFFFFFFFFFFFFFFFFFFFFFFFFFFFFFFFF AND PUSH20 0xFFFFFFFFFFFFFFFFFFFFFFFFFFFFFFFFFFFFFFFF AND DUP2 MSTORE PUSH1 0x20 ADD SWAP1 DUP2 MSTORE PUSH1 0x20 ADD PUSH1 0x0 KECCAK256 PUSH1 0x1 ADD PUSH1 0x1 SWAP1 SLOAD SWAP1 PUSH2 0x100 EXP SWAP1 DIV PUSH1 0xFF AND ISZERO PUSH2 0x1DF JUMPI PUSH1 0x40 MLOAD PUSH32 0x8C379A000000000000000000000000000000000000000000000000000000000 DUP2 MSTORE PUSH1 0x4 ADD PUSH2 0x1D6 SWAP1 PUSH2 0xBDF JUMP JUMPDEST PUSH1 0x40 MLOAD DUP1 SWAP2 SUB SWAP1 REVERT JUMPDEST PUSH1 0x0 DUP2 MLOAD GT PUSH2 0x223 JUMPI PUSH1 0x40 MLOAD PUSH32 0x8C379A000000000000000000000000000000000000000000000000000000000 DUP2 MSTORE PUSH1 0x4 ADD PUSH2 0x21A SWAP1 PUSH2 0xC4B JUMP JUMPDEST PUSH1 0x40 MLOAD DUP1 SWAP2 SUB SWAP1 REVERT JUMPDEST PUSH1 0x40 MLOAD DUP1 PUSH1 0x60 ADD PUSH1 0x40 MSTORE DUP1 DUP3 DUP2 MSTORE PUSH1 0x20 ADD PUSH1 0x0 ISZERO ISZERO DUP2 MSTORE PUSH1 0x20 ADD PUSH1 0x1 ISZERO ISZERO DUP2 MSTORE POP PUSH1 0x1 PUSH1 0x0 CALLER PUSH20 0xFFFFFFFFFFFFFFFFFFFFFFFFFFFFFFFFFFFFFFFF AND PUSH20 0xFFFFFFFFFFFFFFFFFFFFFFFFFFFFFFFFFFFFFFFF AND DUP2 MSTORE PUSH1 0x20 ADD SWAP1 DUP2 MSTORE PUSH1 0x20 ADD PUSH1 0x0 KECCAK256 PUSH1 0x0 DUP3 ADD MLOAD DUP2 PUSH1 0x0 ADD SWAP1 DUP2 PUSH2 0x298 SWAP2 SWAP1 PUSH2 0xE81 JUMP JUMPDEST POP PUSH1 0x20 DUP3 ADD MLOAD DUP2 PUSH1 0x1 ADD PUSH1 0x0 PUSH2 0x100 EXP DUP2 SLOAD DUP2 PUSH1 0xFF MUL NOT AND SWAP1 DUP4 ISZERO ISZERO MUL OR SWAP1 SSTORE POP PUSH1 0x40 DUP3 ADD MLOAD DUP2 PUSH1 0x1 ADD PUSH1 0x1 PUSH2 0x100 EXP DUP2 SLOAD DUP2 PUSH1 0xFF MUL NOT AND SWAP1 DUP4 ISZERO ISZERO MUL OR SWAP1 SSTORE POP SWAP1 POP POP CALLER PUSH20 0xFFFFFFFFFFFFFFFFFFFFFFFFFFFFFFFFFFFFFFFF AND PUSH32 0x20481B8112B5BF4734F45A473C373DB9DF6A79CE946CDC0E7DBC22B4F7D7F986 DUP3 PUSH1 0x40 MLOAD PUSH2 0x322 SWAP2 SWAP1 PUSH2 0xB47 JUMP JUMPDEST PUSH1 0x40 MLOAD DUP1 SWAP2 SUB SWAP1 LOG2 POP JUMP JUMPDEST PUSH1 0x1 PUSH1 0x20 MSTORE DUP1 PUSH1 0x0 MSTORE PUSH1 0x40 PUSH1 0x0 KECCAK256 PUSH1 0x0 SWAP2 POP SWAP1 POP DUP1 PUSH1 0x0 ADD DUP1 SLOAD PUSH2 0x350 SWAP1 PUSH2 0xC9A JUMP JUMPDEST DUP1 PUSH1 0x1F ADD PUSH1 0x20 DUP1 SWAP2 DIV MUL PUSH1 0x20 ADD PUSH1 0x40 MLOAD SWAP1 DUP2 ADD PUSH1 0x40 MSTORE DUP1 SWAP3 SWAP2 SWAP1 DUP2 DUP2 MSTORE PUSH1 0x20 ADD DUP3 DUP1 SLOAD PUSH2 0x37C SWAP1 PUSH2 0xC9A JUMP JUMPDEST DUP1 ISZERO PUSH2 0x3C9 JUMPI DUP1 PUSH1 0x1F LT PUSH2 0x39E JUMPI PUSH2 0x100 DUP1 DUP4 SLOAD DIV MUL DUP4 MSTORE SWAP2 PUSH1 0x20 ADD SWAP2 PUSH2 0x3C9 JUMP JUMPDEST DUP3 ADD SWAP2 SWAP1 PUSH1 0x0 MSTORE PUSH1 0x20 PUSH1 0x0 KECCAK256 SWAP1 JUMPDEST DUP2 SLOAD DUP2 MSTORE SWAP1 PUSH1 0x1 ADD SWAP1 PUSH1 0x20 ADD DUP1 DUP4 GT PUSH2 0x3AC JUMPI DUP3 SWAP1 SUB PUSH1 0x1F AND DUP3 ADD SWAP2 JUMPDEST POP POP POP POP POP SWAP1 DUP1 PUSH1 0x1 ADD PUSH1 0x0 SWAP1 SLOAD SWAP1 PUSH2 0x100 EXP SWAP1 DIV PUSH1 0xFF AND SWAP1 DUP1 PUSH1 0x1 ADD PUSH1 0x1 SWAP1 SLOAD SWAP1 PUSH2 0x100 EXP SWAP1 DIV PUSH1 0xFF AND SWAP1 POP DUP4 JUMP JUMPDEST PUSH1 0x0 PUSH1 0x1 PUSH1 0x0 DUP4 PUSH20 0xFFFFFFFFFFFFFFFFFFFFFFFFFFFFFFFFFFFFFFFF AND PUSH20 0xFFFFFFFFFFFFFFFFFFFFFFFFFFFFFFFFFFFFFFFF AND DUP2 MSTORE PUSH1 0x20 ADD SWAP1 DUP2 MSTORE PUSH1 0x20 ADD PUSH1 0x0 KECCAK256 PUSH1 0x1 ADD PUSH1 0x0 SWAP1 SLOAD SWAP1 PUSH2 0x100 EXP SWAP1 DIV PUSH1 0xFF AND SWAP1 POP SWAP2 SWAP1 POP JUMP JUMPDEST PUSH1 0x60 PUSH1 0x1 PUSH1 0x0 DUP4 PUSH20 0xFFFFFFFFFFFFFFFFFFFFFFFFFFFFFFFFFFFFFFFF AND PUSH20 0xFFFFFFFFFFFFFFFFFFFFFFFFFFFFFFFFFFFFFFFF AND DUP2 MSTORE PUSH1 0x20 ADD SWAP1 DUP2 MSTORE PUSH1 0x20 ADD PUSH1 0x0 KECCAK256 PUSH1 0x1 ADD PUSH1 0x1 SWAP1 SLOAD SWAP1 PUSH2 0x100 EXP SWAP1 DIV PUSH1 0xFF AND PUSH2 0x4E3 JUMPI PUSH1 0x40 MLOAD PUSH32 0x8C379A000000000000000000000000000000000000000000000000000000000 DUP2 MSTORE PUSH1 0x4 ADD PUSH2 0x4DA SWAP1 PUSH2 0xF9F JUMP JUMPDEST PUSH1 0x40 MLOAD DUP1 SWAP2 SUB SWAP1 REVERT JUMPDEST PUSH1 0x1 PUSH1 0x0 DUP4 PUSH20 0xFFFFFFFFFFFFFFFFFFFFFFFFFFFFFFFFFFFFFFFF AND PUSH20 0xFFFFFFFFFFFFFFFFFFFFFFFFFFFFFFFFFFFFFFFF AND DUP2 MSTORE PUSH1 0x20 ADD SWAP1 DUP2 MSTORE PUSH1 0x20 ADD PUSH1 0x0 KECCAK256 PUSH1 0x0 ADD DUP1 SLOAD PUSH2 0x530 SWAP1 PUSH2 0xC9A JUMP JUMPDEST DUP1 PUSH1 0x1F ADD PUSH1 0x20 DUP1 SWAP2 DIV MUL PUSH1 0x20 ADD PUSH1 0x40 MLOAD SWAP1 DUP2 ADD PUSH1 0x40 MSTORE DUP1 SWAP3 SWAP2 SWAP1 DUP2 DUP2 MSTORE PUSH1 0x20 ADD DUP3 DUP1 SLOAD PUSH2 0x55C SWAP1 PUSH2 0xC9A JUMP JUMPDEST DUP1 ISZERO PUSH2 0x5A9 JUMPI DUP1 PUSH1 0x1F LT PUSH2 0x57E JUMPI PUSH2 0x100 DUP1 DUP4 SLOAD DIV MUL DUP4 MSTORE SWAP2 PUSH1 0x20 ADD SWAP2 PUSH2 0x5A9 JUMP JUMPDEST DUP3 ADD SWAP2 SWAP1 PUSH1 0x0 MSTORE PUSH1 0x20 PUSH1 0x0 KECCAK256 SWAP1 JUMPDEST DUP2 SLOAD DUP2 MSTORE SWAP1 PUSH1 0x1 ADD SWAP1 PUSH1 0x20 ADD DUP1 DUP4 GT PUSH2 0x58C JUMPI DUP3 SWAP1 SUB PUSH1 0x1F AND DUP3 ADD SWAP2 JUMPDEST POP POP POP POP POP SWAP1 POP SWAP2 SWAP1 POP JUMP JUMPDEST PUSH1 0x0 DUP1 SLOAD SWAP1 PUSH2 0x100 EXP SWAP1 DIV PUSH20 0xFFFFFFFFFFFFFFFFFFFFFFFFFFFFFFFFFFFFFFFF AND PUSH20 0xFFFFFFFFFFFFFFFFFFFFFFFFFFFFFFFFFFFFFFFF AND CALLER PUSH20 0xFFFFFFFFFFFFFFFFFFFFFFFFFFFFFFFFFFFFFFFF AND EQ PUSH2 0x643 JUMPI PUSH1 0x40 MLOAD PUSH32 0x8C379A000000000000000000000000000000000000000000000000000000000 DUP2 MSTORE PUSH1 0x4 ADD PUSH2 0x63A SWAP1 PUSH2 0x100B JUMP JUMPDEST PUSH1 0x40 MLOAD DUP1 SWAP2 SUB SWAP1 REVERT JUMPDEST PUSH1 0x1 PUSH1 0x0 DUP3 PUSH20 0xFFFFFFFFFFFFFFFFFFFFFFFFFFFFFFFFFFFFFFFF AND PUSH20 0xFFFFFFFFFFFFFFFFFFFFFFFFFFFFFFFFFFFFFFFF AND DUP2 MSTORE PUSH1 0x20 ADD SWAP1 DUP2 MSTORE PUSH1 0x20 ADD PUSH1 0x0 KECCAK256 PUSH1 0x1 ADD PUSH1 0x1 SWAP1 SLOAD SWAP1 PUSH2 0x100 EXP SWAP1 DIV PUSH1 0xFF AND PUSH2 0x6D2 JUMPI PUSH1 0x40 MLOAD PUSH32 0x8C379A000000000000000000000000000000000000000000000000000000000 DUP2 MSTORE PUSH1 0x4 ADD PUSH2 0x6C9 SWAP1 PUSH2 0xF9F JUMP JUMPDEST PUSH1 0x40 MLOAD DUP1 SWAP2 SUB SWAP1 REVERT JUMPDEST PUSH1 0x1 PUSH1 0x0 DUP3 PUSH20 0xFFFFFFFFFFFFFFFFFFFFFFFFFFFFFFFFFFFFFFFF AND PUSH20 0xFFFFFFFFFFFFFFFFFFFFFFFFFFFFFFFFFFFFFFFF AND DUP2 MSTORE PUSH1 0x20 ADD SWAP1 DUP2 MSTORE PUSH1 0x20 ADD PUSH1 0x0 KECCAK256 PUSH1 0x1 ADD PUSH1 0x0 SWAP1 SLOAD SWAP1 PUSH2 0x100 EXP SWAP1 DIV PUSH1 0xFF AND ISZERO PUSH2 0x762 JUMPI PUSH1 0x40 MLOAD PUSH32 0x8C379A000000000000000000000000000000000000000000000000000000000 DUP2 MSTORE PUSH1 0x4 ADD PUSH2 0x759 SWAP1 PUSH2 0x1077 JUMP JUMPDEST PUSH1 0x40 MLOAD DUP1 SWAP2 SUB SWAP1 REVERT JUMPDEST PUSH1 0x1 DUP1 PUSH1 0x0 DUP4 PUSH20 0xFFFFFFFFFFFFFFFFFFFFFFFFFFFFFFFFFFFFFFFF AND PUSH20 0xFFFFFFFFFFFFFFFFFFFFFFFFFFFFFFFFFFFFFFFF AND DUP2 MSTORE PUSH1 0x20 ADD SWAP1 DUP2 MSTORE PUSH1 0x20 ADD PUSH1 0x0 KECCAK256 PUSH1 0x1 ADD PUSH1 0x0 PUSH2 0x100 EXP DUP2 SLOAD DUP2 PUSH1 0xFF MUL NOT AND SWAP1 DUP4 ISZERO ISZERO MUL OR SWAP1 SSTORE POP DUP1 PUSH20 0xFFFFFFFFFFFFFFFFFFFFFFFFFFFFFFFFFFFFFFFF AND PUSH32 0xB0859F2CF042B300C8948CDD785EC6A23A3742BC5446C19F4B270B67FAC2C967 PUSH1 0x40 MLOAD PUSH1 0x40 MLOAD DUP1 SWAP2 SUB SWAP1 LOG2 POP JUMP JUMPDEST PUSH1 0x0 DUP1 SLOAD SWAP1 PUSH2 0x100 EXP SWAP1 DIV PUSH20 0xFFFFFFFFFFFFFFFFFFFFFFFFFFFFFFFFFFFFFFFF AND DUP2 JUMP JUMPDEST PUSH1 0x0 PUSH1 0x40 MLOAD SWAP1 POP SWAP1 JUMP JUMPDEST PUSH1 0x0 DUP1 REVERT JUMPDEST PUSH1 0x0 DUP1 REVERT JUMPDEST PUSH1 0x0 DUP1 REVERT JUMPDEST PUSH1 0x0 DUP1 REVERT JUMPDEST PUSH1 0x0 PUSH1 0x1F NOT PUSH1 0x1F DUP4 ADD AND SWAP1 POP SWAP2 SWAP1 POP JUMP JUMPDEST PUSH32 0x4E487B7100000000000000000000000000000000000000000000000000000000 PUSH1 0x0 MSTORE PUSH1 0x41 PUSH1 0x4 MSTORE PUSH1 0x24 PUSH1 0x0 REVERT JUMPDEST PUSH2 0x88D DUP3 PUSH2 0x844 JUMP JUMPDEST DUP2 ADD DUP2 DUP2 LT PUSH8 0xFFFFFFFFFFFFFFFF DUP3 GT OR ISZERO PUSH2 0x8AC JUMPI PUSH2 0x8AB PUSH2 0x855 JUMP JUMPDEST JUMPDEST DUP1 PUSH1 0x40 MSTORE POP POP POP JUMP JUMPDEST PUSH1 0x0 PUSH2 0x8BF PUSH2 0x826 JUMP JUMPDEST SWAP1 POP PUSH2 0x8CB DUP3 DUP3 PUSH2 0x884 JUMP JUMPDEST SWAP2 SWAP1 POP JUMP JUMPDEST PUSH1 0x0 PUSH8 0xFFFFFFFFFFFFFFFF DUP3 GT ISZERO PUSH2 0x8EB JUMPI PUSH2 0x8EA PUSH2 0x855 JUMP JUMPDEST JUMPDEST PUSH2 0x8F4 DUP3 PUSH2 0x844 JUMP JUMPDEST SWAP1 POP PUSH1 0x20 DUP2 ADD SWAP1 POP SWAP2 SWAP1 POP JUMP JUMPDEST DUP3 DUP2 DUP4 CALLDATACOPY PUSH1 0x0 DUP4 DUP4 ADD MSTORE POP POP POP JUMP JUMPDEST PUSH1 0x0 PUSH2 0x923 PUSH2 0x91E DUP5 PUSH2 0x8D0 JUMP JUMPDEST PUSH2 0x8B5 JUMP JUMPDEST SWAP1 POP DUP3 DUP2 MSTORE PUSH1 0x20 DUP2 ADD DUP5 DUP5 DUP5 ADD GT ISZERO PUSH2 0x93F JUMPI PUSH2 0x93E PUSH2 0x83F JUMP JUMPDEST JUMPDEST PUSH2 0x94A DUP5 DUP3 DUP6 PUSH2 0x901 JUMP JUMPDEST POP SWAP4 SWAP3 POP POP POP JUMP JUMPDEST PUSH1 0x0 DUP3 PUSH1 0x1F DUP4 ADD SLT PUSH2 0x967 JUMPI PUSH2 0x966 PUSH2 0x83A JUMP JUMPDEST JUMPDEST DUP2 CALLDATALOAD PUSH2 0x977 DUP5 DUP3 PUSH1 0x20 DUP7 ADD PUSH2 0x910 JUMP JUMPDEST SWAP2 POP POP SWAP3 SWAP2 POP POP JUMP JUMPDEST PUSH1 0x0 PUSH1 0x20 DUP3 DUP5 SUB SLT ISZERO PUSH2 0x996 JUMPI PUSH2 0x995 PUSH2 0x830 JUMP JUMPDEST JUMPDEST PUSH1 0x0 DUP3 ADD CALLDATALOAD PUSH8 0xFFFFFFFFFFFFFFFF DUP2 GT ISZERO PUSH2 0x9B4 JUMPI PUSH2 0x9B3 PUSH2 0x835 JUMP JUMPDEST JUMPDEST PUSH2 0x9C0 DUP5 DUP3 DUP6 ADD PUSH2 0x952 JUMP JUMPDEST SWAP2 POP POP SWAP3 SWAP2 POP POP JUMP JUMPDEST PUSH1 0x0 PUSH20 0xFFFFFFFFFFFFFFFFFFFFFFFFFFFFFFFFFFFFFFFF DUP3 AND SWAP1 POP SWAP2 SWAP1 POP JUMP JUMPDEST PUSH1 0x0 PUSH2 0x9F4 DUP3 PUSH2 0x9C9 JUMP JUMPDEST SWAP1 POP SWAP2 SWAP1 POP JUMP JUMPDEST PUSH2 0xA04 DUP2 PUSH2 0x9E9 JUMP JUMPDEST DUP2 EQ PUSH2 0xA0F JUMPI PUSH1 0x0 DUP1 REVERT JUMPDEST POP JUMP JUMPDEST PUSH1 0x0 DUP2 CALLDATALOAD SWAP1 POP PUSH2 0xA21 DUP2 PUSH2 0x9FB JUMP JUMPDEST SWAP3 SWAP2 POP POP JUMP JUMPDEST PUSH1 0x0 PUSH1 0x20 DUP3 DUP5 SUB SLT ISZERO PUSH2 0xA3D JUMPI PUSH2 0xA3C PUSH2 0x830 JUMP JUMPDEST JUMPDEST PUSH1 0x0 PUSH2 0xA4B DUP5 DUP3 DUP6 ADD PUSH2 0xA12 JUMP JUMPDEST SWAP2 POP POP SWAP3 SWAP2 POP POP JUMP JUMPDEST PUSH1 0x0 DUP2 MLOAD SWAP1 POP SWAP2 SWAP1 POP JUMP JUMPDEST PUSH1 0x0 DUP3 DUP3 MSTORE PUSH1 0x20 DUP3 ADD SWAP1 POP SWAP3 SWAP2 POP POP JUMP JUMPDEST PUSH1 0x0 JUMPDEST DUP4 DUP2 LT ISZERO PUSH2 0xA8E JUMPI DUP1 DUP3 ADD MLOAD DUP2 DUP5 ADD MSTORE PUSH1 0x20 DUP2 ADD SWAP1 POP PUSH2 0xA73 JUMP JUMPDEST PUSH1 0x0 DUP5 DUP5 ADD MSTORE POP POP POP POP JUMP JUMPDEST PUSH1 0x0 PUSH2 0xAA5 DUP3 PUSH2 0xA54 JUMP JUMPDEST PUSH2 0xAAF DUP2 DUP6 PUSH2 0xA5F JUMP JUMPDEST SWAP4 POP PUSH2 0xABF DUP2 DUP6 PUSH1 0x20 DUP7 ADD PUSH2 0xA70 JUMP JUMPDEST PUSH2 0xAC8 DUP2 PUSH2 0x844 JUMP JUMPDEST DUP5 ADD SWAP2 POP POP SWAP3 SWAP2 POP POP JUMP JUMPDEST PUSH1 0x0 DUP2 ISZERO ISZERO SWAP1 POP SWAP2 SWAP1 POP JUMP JUMPDEST PUSH2 0xAE8 DUP2 PUSH2 0xAD3 JUMP JUMPDEST DUP3 MSTORE POP POP JUMP JUMPDEST PUSH1 0x0 PUSH1 0x60 DUP3 ADD SWAP1 POP DUP2 DUP2 SUB PUSH1 0x0 DUP4 ADD MSTORE PUSH2 0xB08 DUP2 DUP7 PUSH2 0xA9A JUMP JUMPDEST SWAP1 POP PUSH2 0xB17 PUSH1 0x20 DUP4 ADD DUP6 PUSH2 0xADF JUMP JUMPDEST PUSH2 0xB24 PUSH1 0x40 DUP4 ADD DUP5 PUSH2 0xADF JUMP JUMPDEST SWAP5 SWAP4 POP POP POP POP JUMP JUMPDEST PUSH1 0x0 PUSH1 0x20 DUP3 ADD SWAP1 POP PUSH2 0xB41 PUSH1 0x0 DUP4 ADD DUP5 PUSH2 0xADF JUMP JUMPDEST SWAP3 SWAP2 POP POP JUMP JUMPDEST PUSH1 0x0 PUSH1 0x20 DUP3 ADD SWAP1 POP DUP2 DUP2 SUB PUSH1 0x0 DUP4 ADD MSTORE PUSH2 0xB61 DUP2 DUP5 PUSH2 0xA9A JUMP JUMPDEST SWAP1 POP SWAP3 SWAP2 POP POP JUMP JUMPDEST PUSH2 0xB72 DUP2 PUSH2 0x9E9 JUMP JUMPDEST DUP3 MSTORE POP POP JUMP JUMPDEST PUSH1 0x0 PUSH1 0x20 DUP3 ADD SWAP1 POP PUSH2 0xB8D PUSH1 0x0 DUP4 ADD DUP5 PUSH2 0xB69 JUMP JUMPDEST SWAP3 SWAP2 POP POP JUMP JUMPDEST PUSH32 0x416C726561647920726567697374657265640000000000000000000000000000 PUSH1 0x0 DUP3 ADD MSTORE POP JUMP JUMPDEST PUSH1 0x0 PUSH2 0xBC9 PUSH1 0x12 DUP4 PUSH2 0xA5F JUMP JUMPDEST SWAP2 POP PUSH2 0xBD4 DUP3 PUSH2 0xB93 JUMP JUMPDEST PUSH1 0x20 DUP3 ADD SWAP1 POP SWAP2 SWAP1 POP JUMP JUMPDEST PUSH1 0x0 PUSH1 0x20 DUP3 ADD SWAP1 POP DUP2 DUP2 SUB PUSH1 0x0 DUP4 ADD MSTORE PUSH2 0xBF8 DUP2 PUSH2 0xBBC JUMP JUMPDEST SWAP1 POP SWAP2 SWAP1 POP JUMP JUMPDEST PUSH32 0x496E76616C696420495046532068617368000000000000000000000000000000 PUSH1 0x0 DUP3 ADD MSTORE POP JUMP JUMPDEST PUSH1 0x0 PUSH2 0xC35 PUSH1 0x11 DUP4 PUSH2 0xA5F JUMP JUMPDEST SWAP2 POP PUSH2 0xC40 DUP3 PUSH2 0xBFF JUMP JUMPDEST PUSH1 0x20 DUP3 ADD SWAP1 POP SWAP2 SWAP1 POP JUMP JUMPDEST PUSH1 0x0 PUSH1 0x20 DUP3 ADD SWAP1 POP DUP2 DUP2 SUB PUSH1 0x0 DUP4 ADD MSTORE PUSH2 0xC64 DUP2 PUSH2 0xC28 JUMP JUMPDEST SWAP1 POP SWAP2 SWAP1 POP JUMP JUMPDEST PUSH32 0x4E487B7100000000000000000000000000000000000000000000000000000000 PUSH1 0x0 MSTORE PUSH1 0x22 PUSH1 0x4 MSTORE PUSH1 0x24 PUSH1 0x0 REVERT JUMPDEST PUSH1 0x0 PUSH1 0x2 DUP3 DIV SWAP1 POP PUSH1 0x1 DUP3 AND DUP1 PUSH2 0xCB2 JUMPI PUSH1 0x7F DUP3 AND SWAP2 POP JUMPDEST PUSH1 0x20 DUP3 LT DUP2 SUB PUSH2 0xCC5 JUMPI PUSH2 0xCC4 PUSH2 0xC6B JUMP JUMPDEST JUMPDEST POP SWAP2 SWAP1 POP JUMP JUMPDEST PUSH1 0x0 DUP2 SWAP1 POP DUP2 PUSH1 0x0 MSTORE PUSH1 0x20 PUSH1 0x0 KECCAK256 SWAP1 POP SWAP2 SWAP1 POP JUMP JUMPDEST PUSH1 0x0 PUSH1 0x20 PUSH1 0x1F DUP4 ADD DIV SWAP1 POP SWAP2 SWAP1 POP JUMP JUMPDEST PUSH1 0x0 DUP3 DUP3 SHL SWAP1 POP SWAP3 SWAP2 POP POP JUMP JUMPDEST PUSH1 0x0 PUSH1 0x8 DUP4 MUL PUSH2 0xD2D PUSH32 0xFFFFFFFFFFFFFFFFFFFFFFFFFFFFFFFFFFFFFFFFFFFFFFFFFFFFFFFFFFFFFFFF DUP3 PUSH2 0xCF0 JUMP JUMPDEST PUSH2 0xD37 DUP7 DUP4 PUSH2 0xCF0 JUMP JUMPDEST SWAP6 POP DUP1 NOT DUP5 AND SWAP4 POP DUP1 DUP7 AND DUP5 OR SWAP3 POP POP POP SWAP4 SWAP3 POP POP POP JUMP JUMPDEST PUSH1 0x0 DUP2 SWAP1 POP SWAP2 SWAP1 POP JUMP JUMPDEST PUSH1 0x0 DUP2 SWAP1 POP SWAP2 SWAP1 POP JUMP JUMPDEST PUSH1 0x0 PUSH2 0xD7E PUSH2 0xD79 PUSH2 0xD74 DUP5 PUSH2 0xD4F JUMP JUMPDEST PUSH2 0xD59 JUMP JUMPDEST PUSH2 0xD4F JUMP JUMPDEST SWAP1 POP SWAP2 SWAP1 POP JUMP JUMPDEST PUSH1 0x0 DUP2 SWAP1 POP SWAP2 SWAP1 POP JUMP JUMPDEST PUSH2 0xD98 DUP4 PUSH2 0xD63 JUMP JUMPDEST PUSH2 0xDAC PUSH2 0xDA4 DUP3 PUSH2 0xD85 JUMP JUMPDEST DUP5 DUP5 SLOAD PUSH2 0xCFD JUMP JUMPDEST DUP3 SSTORE POP POP POP POP JUMP JUMPDEST PUSH1 0x0 SWAP1 JUMP JUMPDEST PUSH2 0xDC1 PUSH2 0xDB4 JUMP JUMPDEST PUSH2 0xDCC DUP2 DUP5 DUP5 PUSH2 0xD8F JUMP JUMPDEST POP POP POP JUMP JUMPDEST JUMPDEST DUP2 DUP2 LT ISZERO PUSH2 0xDF0 JUMPI PUSH2 0xDE5 PUSH1 0x0 DUP3 PUSH2 0xDB9 JUMP JUMPDEST PUSH1 0x1 DUP2 ADD SWAP1 POP PUSH2 0xDD2 JUMP JUMPDEST POP POP JUMP JUMPDEST PUSH1 0x1F DUP3 GT ISZERO PUSH2 0xE35 JUMPI PUSH2 0xE06 DUP2 PUSH2 0xCCB JUMP JUMPDEST PUSH2 0xE0F DUP5 PUSH2 0xCE0 JUMP JUMPDEST DUP2 ADD PUSH1 0x20 DUP6 LT ISZERO PUSH2 0xE1E JUMPI DUP2 SWAP1 POP JUMPDEST PUSH2 0xE32 PUSH2 0xE2A DUP6 PUSH2 0xCE0 JUMP JUMPDEST DUP4 ADD DUP3 PUSH2 0xDD1 JUMP JUMPDEST POP POP JUMPDEST POP POP POP JUMP JUMPDEST PUSH1 0x0 DUP3 DUP3 SHR SWAP1 POP SWAP3 SWAP2 POP POP JUMP JUMPDEST PUSH1 0x0 PUSH2 0xE58 PUSH1 0x0 NOT DUP5 PUSH1 0x8 MUL PUSH2 0xE3A JUMP JUMPDEST NOT DUP1 DUP4 AND SWAP2 POP POP SWAP3 SWAP2 POP POP JUMP JUMPDEST PUSH1 0x0 PUSH2 0xE71 DUP4 DUP4 PUSH2 0xE47 JUMP JUMPDEST SWAP2 POP DUP3 PUSH1 0x2 MUL DUP3 OR SWAP1 POP SWAP3 SWAP2 POP POP JUMP JUMPDEST PUSH2 0xE8A DUP3 PUSH2 0xA54 JUMP JUMPDEST PUSH8 0xFFFFFFFFFFFFFFFF DUP2 GT ISZERO PUSH2 0xEA3 JUMPI PUSH2 0xEA2 PUSH2 0x855 JUMP JUMPDEST JUMPDEST PUSH2 0xEAD DUP3 SLOAD PUSH2 0xC9A JUMP JUMPDEST PUSH2 0xEB8 DUP3 DUP3 DUP6 PUSH2 0xDF4 JUMP JUMPDEST PUSH1 0x0 PUSH1 0x20 SWAP1 POP PUSH1 0x1F DUP4 GT PUSH1 0x1 DUP2 EQ PUSH2 0xEEB JUMPI PUSH1 0x0 DUP5 ISZERO PUSH2 0xED9 JUMPI DUP3 DUP8 ADD MLOAD SWAP1 POP JUMPDEST PUSH2 0xEE3 DUP6 DUP3 PUSH2 0xE65 JUMP JUMPDEST DUP7 SSTORE POP PUSH2 0xF4B JUMP JUMPDEST PUSH1 0x1F NOT DUP5 AND PUSH2 0xEF9 DUP7 PUSH2 0xCCB JUMP JUMPDEST PUSH1 0x0 JUMPDEST DUP3 DUP2 LT ISZERO PUSH2 0xF21 JUMPI DUP5 DUP10 ADD MLOAD DUP3 SSTORE PUSH1 0x1 DUP3 ADD SWAP2 POP PUSH1 0x20 DUP6 ADD SWAP5 POP PUSH1 0x20 DUP2 ADD SWAP1 POP PUSH2 0xEFC JUMP JUMPDEST DUP7 DUP4 LT ISZERO PUSH2 0xF3E JUMPI DUP5 DUP10 ADD MLOAD PUSH2 0xF3A PUSH1 0x1F DUP10 AND DUP3 PUSH2 0xE47 JUMP JUMPDEST DUP4 SSTORE POP JUMPDEST PUSH1 0x1 PUSH1 0x2 DUP9 MUL ADD DUP9 SSTORE POP POP POP JUMPDEST POP POP POP POP POP POP JUMP JUMPDEST PUSH32 0x446F63746F72206E6F7420726567697374657265640000000000000000000000 PUSH1 0x0 DUP3 ADD MSTORE POP JUMP JUMPDEST PUSH1 0x0 PUSH2 0xF89 PUSH1 0x15 DUP4 PUSH2 0xA5F JUMP JUMPDEST SWAP2 POP PUSH2 0xF94 DUP3 PUSH2 0xF53 JUMP JUMPDEST PUSH1 0x20 DUP3 ADD SWAP1 POP SWAP2 SWAP1 POP JUMP JUMPDEST PUSH1 0x0 PUSH1 0x20 DUP3 ADD SWAP1 POP DUP2 DUP2 SUB PUSH1 0x0 DUP4 ADD MSTORE PUSH2 0xFB8 DUP2 PUSH2 0xF7C JUMP JUMPDEST SWAP1 POP SWAP2 SWAP1 POP JUMP JUMPDEST PUSH32 0x4E6F742061646D696E0000000000000000000000000000000000000000000000 PUSH1 0x0 DUP3 ADD MSTORE POP JUMP JUMPDEST PUSH1 0x0 PUSH2 0xFF5 PUSH1 0x9 DUP4 PUSH2 0xA5F JUMP JUMPDEST SWAP2 POP PUSH2 0x1000 DUP3 PUSH2 0xFBF JUMP JUMPDEST PUSH1 0x20 DUP3 ADD SWAP1 POP SWAP2 SWAP1 POP JUMP JUMPDEST PUSH1 0x0 PUSH1 0x20 DUP3 ADD SWAP1 POP DUP2 DUP2 SUB PUSH1 0x0 DUP4 ADD MSTORE PUSH2 0x1024 DUP2 PUSH2 0xFE8 JUMP JUMPDEST SWAP1 POP SWAP2 SWAP1 POP JUMP JUMPDEST PUSH32 0x416C726561647920766572696669656400000000000000000000000000000000 PUSH1 0x0 DUP3 ADD MSTORE POP JUMP JUMPDEST PUSH1 0x0 PUSH2 0x1061 PUSH1 0x10 DUP4 PUSH2 0xA5F JUMP JUMPDEST SWAP2 POP PUSH2 0x106C DUP3 PUSH2 0x102B JUMP JUMPDEST PUSH1 0x20 DUP3 ADD SWAP1 POP SWAP2 SWAP1 POP JUMP JUMPDEST PUSH1 0x0 PUSH1 0x20 DUP3 ADD SWAP1 POP DUP2 DUP2 SUB PUSH1 0x0 DUP4 ADD MSTORE PUSH2 0x1090 DUP2 PUSH2 0x1054 JUMP JUMPDEST SWAP1 POP SWAP2 SWAP1 POP JUMP INVALID LOG2 PUSH5 0x6970667358 0x22 SLT KECCAK256 POP SLOAD LOG3 0xC2 SUB 0xDB EXTCODECOPY SWAP1 0xBE MSTORE SWAP8 XOR 0xCC 0xDA JUMP PUSH13 0xC26062DB5EBADCF479AF0F7C53 SELFDESTRUCT PUSH29 0x6064736F6C634300081E00330000000000000000000000000000000000 "
				},
				"gasEstimates": {
					"creation": {
						"codeDepositCost": "860200",
						"executionCost": "25162",
						"totalCost": "885362"
					},
					"external": {
						"admin()": "2599",
						"doctors(address)": "infinite",
						"getDoctorDetails(address)": "infinite",
						"isVerified(address)": "2911",
						"registerDoctor(string)": "infinite",
						"verifyDoctor(address)": "32763"
					}
				},
				"methodIdentifiers": {
					"admin()": "f851a440",
					"doctors(address)": "a9583c22",
					"getDoctorDetails(address)": "bab90dbd",
					"isVerified(address)": "b9209e33",
					"registerDoctor(string)": "8f09ab5b",
					"verifyDoctor(address)": "d80cb05c"
				}
			},
			"storageLayout": {
				"storage": [
					{
						"astId": 3,
						"contract": "contracts/DoctorRegistry.sol:DoctorRegistry",
						"label": "admin",
						"offset": 0,
						"slot": "0",
						"type": "t_address"
					},
					{
						"astId": 15,
						"contract": "contracts/DoctorRegistry.sol:DoctorRegistry",
						"label": "doctors",
						"offset": 0,
						"slot": "1",
						"type": "t_mapping(t_address,t_struct(Doctor)10_storage)"
					}
				],
				"types": {
					"t_address": {
						"encoding": "inplace",
						"label": "address",
						"numberOfBytes": "20"
					},
					"t_bool": {
						"encoding": "inplace",
						"label": "bool",
						"numberOfBytes": "1"
					},
					"t_mapping(t_address,t_struct(Doctor)10_storage)": {
						"encoding": "mapping",
						"key": "t_address",
						"label": "mapping(address => struct DoctorRegistry.Doctor)",
						"numberOfBytes": "32",
						"value": "t_struct(Doctor)10_storage"
					},
					"t_string_storage": {
						"encoding": "bytes",
						"label": "string",
						"numberOfBytes": "32"
					},
					"t_struct(Doctor)10_storage": {
						"encoding": "inplace",
						"label": "struct DoctorRegistry.Doctor",
						"members": [
							{
								"astId": 5,
								"contract": "contracts/DoctorRegistry.sol:DoctorRegistry",
								"label": "ipfsHash",
								"offset": 0,
								"slot": "0",
								"type": "t_string_storage"
							},
							{
								"astId": 7,
								"contract": "contracts/DoctorRegistry.sol:DoctorRegistry",
								"label": "verified",
								"offset": 0,
								"slot": "1",
								"type": "t_bool"
							},
							{
								"astId": 9,
								"contract": "contracts/DoctorRegistry.sol:DoctorRegistry",
								"label": "registered",
								"offset": 1,
								"slot": "1",
								"type": "t_bool"
							}
						],
						"numberOfBytes": "64"
					}
				}
			},
			"userdoc": {
				"kind": "user",
				"methods": {},
				"version": 1
			}
		}
	}
}