{
	"contracts/DoctorRegistry.sol": {
		"DoctorRegistry": {
			"abi": [
				{
					"inputs": [],
					"stateMutability": "nonpayable",
					"type": "constructor"
				},
				{
					"anonymous": false,
					"inputs": [
						{
							"indexed": true,
							"internalType": "address",
							"name": "doctor",
							"type": "address"
						},
						{
							"indexed": false,
							"internalType": "string",
							"name": "ipfsHash",
							"type": "string"
						}
					],
					"name": "DoctorRegistered",
					"type": "event"
				},
				{
					"anonymous": false,
					"inputs": [
						{
							"indexed": true,
							"internalType": "address",
							"name": "doctor",
							"type": "address"
						}
					],
					"name": "DoctorVerified",
					"type": "event"
				},
				{
					"inputs": [],
					"name": "admin",
					"outputs": [
						{
							"internalType": "address",
							"name": "",
							"type": "address"
						}
					],
					"stateMutability": "view",
					"type": "function"
				},
				{
					"inputs": [
						{
							"internalType": "address",
							"name": "",
							"type": "address"
						}
					],
					"name": "doctors",
					"outputs": [
						{
							"internalType": "address",
							"name": "walletAddress",
							"type": "address"
						},
						{
							"internalType": "string",
							"name": "ipfsHash",
							"type": "string"
						},
						{
							"internalType": "bool",
							"name": "verified",
							"type": "bool"
						},
						{
							"internalType": "bool",
							"name": "registered",
							"type": "bool"
						}
					],
					"stateMutability": "view",
					"type": "function"
				},
				{
					"inputs": [],
					"name": "getAllRegisteredDoctors",
					"outputs": [
						{
							"internalType": "address[]",
							"name": "",
							"type": "address[]"
						}
					],
					"stateMutability": "view",
					"type": "function"
				},
				{
					"inputs": [
						{
							"internalType": "address",
							"name": "_doctor",
							"type": "address"
						}
					],
					"name": "getDoctorDetails",
					"outputs": [
						{
							"internalType": "string",
							"name": "",
							"type": "string"
						}
					],
					"stateMutability": "view",
					"type": "function"
				},
				{
					"inputs": [
						{
							"internalType": "address",
							"name": "_doctor",
							"type": "address"
						}
					],
					"name": "isVerified",
					"outputs": [
						{
							"internalType": "bool",
							"name": "",
							"type": "bool"
						}
					],
					"stateMutability": "view",
					"type": "function"
				},
				{
					"inputs": [
						{
							"internalType": "string",
							"name": "_ipfsHash",
							"type": "string"
						}
					],
					"name": "registerDoctor",
					"outputs": [],
					"stateMutability": "nonpayable",
					"type": "function"
				},
				{
					"inputs": [
						{
							"internalType": "uint256",
							"name": "",
							"type": "uint256"
						}
					],
					"name": "registeredDoctorAddresses",
					"outputs": [
						{
							"internalType": "address",
							"name": "",
							"type": "address"
						}
					],
					"stateMutability": "view",
					"type": "function"
				},
				{
					"inputs": [
						{
							"internalType": "address",
							"name": "_doctor",
							"type": "address"
						}
					],
					"name": "verifyDoctor",
					"outputs": [],
					"stateMutability": "nonpayable",
					"type": "function"
				}
			],
			"devdoc": {
				"kind": "dev",
				"methods": {},
				"version": 1
			},
			"evm": {
				"assembly": "    /* \"contracts/DoctorRegistry.sol\":61:2659  contract DoctorRegistry {... */\n  mstore(0x40, 0x80)\n    /* \"contracts/DoctorRegistry.sol\":894:945  constructor() {... */\n  callvalue\n  dup1\n  iszero\n  tag_1\n  jumpi\n  0x00\n  dup1\n  revert\ntag_1:\n  pop\n    /* \"contracts/DoctorRegistry.sol\":927:937  msg.sender */\n  caller\n    /* \"contracts/DoctorRegistry.sol\":919:924  admin */\n  0x00\n  dup1\n    /* \"contracts/DoctorRegistry.sol\":919:937  admin = msg.sender */\n  0x0100\n  exp\n  dup2\n  sload\n  dup2\n  0xffffffffffffffffffffffffffffffffffffffff\n  mul\n  not\n  and\n  swap1\n  dup4\n  0xffffffffffffffffffffffffffffffffffffffff\n  and\n  mul\n  or\n  swap1\n  sstore\n  pop\n    /* \"contracts/DoctorRegistry.sol\":61:2659  contract DoctorRegistry {... */\n  dataSize(sub_0)\n  dup1\n  dataOffset(sub_0)\n  0x00\n  codecopy\n  0x00\n  return\nstop\n\nsub_0: assembly {\n        /* \"contracts/DoctorRegistry.sol\":61:2659  contract DoctorRegistry {... */\n      mstore(0x40, 0x80)\n      callvalue\n      dup1\n      iszero\n      tag_1\n      jumpi\n      0x00\n      dup1\n      revert\n    tag_1:\n      pop\n      jumpi(tag_2, lt(calldatasize, 0x04))\n      shr(0xe0, calldataload(0x00))\n      dup1\n      0xbab90dbd\n      gt\n      tag_11\n      jumpi\n      dup1\n      0xbab90dbd\n      eq\n      tag_7\n      jumpi\n      dup1\n      0xd80cb05c\n      eq\n      tag_8\n      jumpi\n      dup1\n      0xf06985ac\n      eq\n      tag_9\n      jumpi\n      dup1\n      0xf851a440\n      eq\n      tag_10\n      jumpi\n      jump(tag_2)\n    tag_11:\n      dup1\n      0x8f09ab5b\n      eq\n      tag_3\n      jumpi\n      dup1\n      0x8f7741ac\n      eq\n      tag_4\n      jumpi\n      dup1\n      0xa9583c22\n      eq\n      tag_5\n      jumpi\n      dup1\n      0xb9209e33\n      eq\n      tag_6\n      jumpi\n    tag_2:\n      0x00\n      dup1\n      revert\n        /* \"contracts/DoctorRegistry.sol\":1033:1637  function registerDoctor(string memory _ipfsHash) external {... */\n    tag_3:\n      tag_12\n      0x04\n      dup1\n      calldatasize\n      sub\n      dup2\n      add\n      swap1\n      tag_13\n      swap2\n      swap1\n      tag_14\n      jump\t// in\n    tag_13:\n      tag_15\n      jump\t// in\n    tag_12:\n      stop\n        /* \"contracts/DoctorRegistry.sol\":2529:2656  function getAllRegisteredDoctors() external view returns (address[] memory) {... */\n    tag_4:\n      tag_16\n      tag_17\n      jump\t// in\n    tag_16:\n      mload(0x40)\n      tag_18\n      swap2\n      swap1\n      tag_19\n      jump\t// in\n    tag_18:\n      mload(0x40)\n      dup1\n      swap2\n      sub\n      swap1\n      return\n        /* \"contracts/DoctorRegistry.sol\":486:527  mapping(address => Doctor) public doctors */\n    tag_5:\n      tag_20\n      0x04\n      dup1\n      calldatasize\n      sub\n      dup2\n      add\n      swap1\n      tag_21\n      swap2\n      swap1\n      tag_22\n      jump\t// in\n    tag_21:\n      tag_23\n      jump\t// in\n    tag_20:\n      mload(0x40)\n      tag_24\n      swap5\n      swap4\n      swap3\n      swap2\n      swap1\n      tag_25\n      jump\t// in\n    tag_24:\n      mload(0x40)\n      dup1\n      swap2\n      sub\n      swap1\n      return\n        /* \"contracts/DoctorRegistry.sol\":2067:2184  function isVerified(address _doctor) external view returns (bool) {... */\n    tag_6:\n      tag_26\n      0x04\n      dup1\n      calldatasize\n      sub\n      dup2\n      add\n      swap1\n      tag_27\n      swap2\n      swap1\n      tag_22\n      jump\t// in\n    tag_27:\n      tag_28\n      jump\t// in\n    tag_26:\n      mload(0x40)\n      tag_29\n      swap2\n      swap1\n      tag_30\n      jump\t// in\n    tag_29:\n      mload(0x40)\n      dup1\n      swap2\n      sub\n      swap1\n      return\n        /* \"contracts/DoctorRegistry.sol\":2241:2445  function getDoctorDetails(address _doctor) external view returns (string memory) {... */\n    tag_7:\n      tag_31\n      0x04\n      dup1\n      calldatasize\n      sub\n      dup2\n      add\n      swap1\n      tag_32\n      swap2\n      swap1\n      tag_22\n      jump\t// in\n    tag_32:\n      tag_33\n      jump\t// in\n    tag_31:\n      mload(0x40)\n      tag_34\n      swap2\n      swap1\n      tag_35\n      jump\t// in\n    tag_34:\n      mload(0x40)\n      dup1\n      swap2\n      sub\n      swap1\n      return\n        /* \"contracts/DoctorRegistry.sol\":1714:2002  function verifyDoctor(address _doctor) external onlyAdmin {... */\n    tag_8:\n      tag_36\n      0x04\n      dup1\n      calldatasize\n      sub\n      dup2\n      add\n      swap1\n      tag_37\n      swap2\n      swap1\n      tag_22\n      jump\t// in\n    tag_37:\n      tag_38\n      jump\t// in\n    tag_36:\n      stop\n        /* \"contracts/DoctorRegistry.sol\":618:660  address[] public registeredDoctorAddresses */\n    tag_9:\n      tag_39\n      0x04\n      dup1\n      calldatasize\n      sub\n      dup2\n      add\n      swap1\n      tag_40\n      swap2\n      swap1\n      tag_41\n      jump\t// in\n    tag_40:\n      tag_42\n      jump\t// in\n    tag_39:\n      mload(0x40)\n      tag_43\n      swap2\n      swap1\n      tag_44\n      jump\t// in\n    tag_43:\n      mload(0x40)\n      dup1\n      swap2\n      sub\n      swap1\n      return\n        /* \"contracts/DoctorRegistry.sol\":92:112  address public admin */\n    tag_10:\n      tag_45\n      tag_46\n      jump\t// in\n    tag_45:\n      mload(0x40)\n      tag_47\n      swap2\n      swap1\n      tag_44\n      jump\t// in\n    tag_47:\n      mload(0x40)\n      dup1\n      swap2\n      sub\n      swap1\n      return\n        /* \"contracts/DoctorRegistry.sol\":1033:1637  function registerDoctor(string memory _ipfsHash) external {... */\n    tag_15:\n        /* \"contracts/DoctorRegistry.sol\":1111:1118  doctors */\n      0x01\n        /* \"contracts/DoctorRegistry.sol\":1111:1130  doctors[msg.sender] */\n      0x00\n        /* \"contracts/DoctorRegistry.sol\":1119:1129  msg.sender */\n      caller\n        /* \"contracts/DoctorRegistry.sol\":1111:1130  doctors[msg.sender] */\n      0xffffffffffffffffffffffffffffffffffffffff\n      and\n      0xffffffffffffffffffffffffffffffffffffffff\n      and\n      dup2\n      mstore\n      0x20\n      add\n      swap1\n      dup2\n      mstore\n      0x20\n      add\n      0x00\n      keccak256\n        /* \"contracts/DoctorRegistry.sol\":1111:1141  doctors[msg.sender].registered */\n      0x02\n      add\n      0x01\n      swap1\n      sload\n      swap1\n      0x0100\n      exp\n      swap1\n      div\n      0xff\n      and\n        /* \"contracts/DoctorRegistry.sol\":1110:1141  !doctors[msg.sender].registered */\n      iszero\n        /* \"contracts/DoctorRegistry.sol\":1102:1164  require(!doctors[msg.sender].registered, \"Already registered\") */\n      tag_49\n      jumpi\n      mload(0x40)\n      0x08c379a000000000000000000000000000000000000000000000000000000000\n      dup2\n      mstore\n      0x04\n      add\n      tag_50\n      swap1\n      tag_51\n      jump\t// in\n    tag_50:\n      mload(0x40)\n      dup1\n      swap2\n      sub\n      swap1\n      revert\n    tag_49:\n        /* \"contracts/DoctorRegistry.sol\":1209:1210  0 */\n      0x00\n        /* \"contracts/DoctorRegistry.sol\":1189:1198  _ipfsHash */\n      dup2\n        /* \"contracts/DoctorRegistry.sol\":1183:1206  bytes(_ipfsHash).length */\n      mload\n        /* \"contracts/DoctorRegistry.sol\":1183:1210  bytes(_ipfsHash).length > 0 */\n      gt\n        /* \"contracts/DoctorRegistry.sol\":1175:1232  require(bytes(_ipfsHash).length > 0, \"Invalid IPFS hash\") */\n      tag_52\n      jumpi\n      mload(0x40)\n      0x08c379a000000000000000000000000000000000000000000000000000000000\n      dup2\n      mstore\n      0x04\n      add\n      tag_53\n      swap1\n      tag_54\n      jump\t// in\n    tag_53:\n      mload(0x40)\n      dup1\n      swap2\n      sub\n      swap1\n      revert\n    tag_52:\n        /* \"contracts/DoctorRegistry.sol\":1267:1453  Doctor({... */\n      mload(0x40)\n      dup1\n      0x80\n      add\n      0x40\n      mstore\n      dup1\n        /* \"contracts/DoctorRegistry.sol\":1304:1314  msg.sender */\n      caller\n        /* \"contracts/DoctorRegistry.sol\":1267:1453  Doctor({... */\n      0xffffffffffffffffffffffffffffffffffffffff\n      and\n      dup2\n      mstore\n      0x20\n      add\n        /* \"contracts/DoctorRegistry.sol\":1371:1380  _ipfsHash */\n      dup3\n        /* \"contracts/DoctorRegistry.sol\":1267:1453  Doctor({... */\n      dup2\n      mstore\n      0x20\n      add\n        /* \"contracts/DoctorRegistry.sol\":1405:1410  false */\n      0x00\n        /* \"contracts/DoctorRegistry.sol\":1267:1453  Doctor({... */\n      iszero\n      iszero\n      dup2\n      mstore\n      0x20\n      add\n        /* \"contracts/DoctorRegistry.sol\":1437:1441  true */\n      0x01\n        /* \"contracts/DoctorRegistry.sol\":1267:1453  Doctor({... */\n      iszero\n      iszero\n      dup2\n      mstore\n      pop\n        /* \"contracts/DoctorRegistry.sol\":1245:1252  doctors */\n      0x01\n        /* \"contracts/DoctorRegistry.sol\":1245:1264  doctors[msg.sender] */\n      0x00\n        /* \"contracts/DoctorRegistry.sol\":1253:1263  msg.sender */\n      caller\n        /* \"contracts/DoctorRegistry.sol\":1245:1264  doctors[msg.sender] */\n      0xffffffffffffffffffffffffffffffffffffffff\n      and\n      0xffffffffffffffffffffffffffffffffffffffff\n      and\n      dup2\n      mstore\n      0x20\n      add\n      swap1\n      dup2\n      mstore\n      0x20\n      add\n      0x00\n      keccak256\n        /* \"contracts/DoctorRegistry.sol\":1245:1453  doctors[msg.sender] = Doctor({... */\n      0x00\n      dup3\n      add\n      mload\n      dup2\n      0x00\n      add\n      exp(0x0100, 0x00)\n      dup2\n      sload\n      dup2\n      0xffffffffffffffffffffffffffffffffffffffff\n      mul\n      not\n      and\n      swap1\n      dup4\n      0xffffffffffffffffffffffffffffffffffffffff\n      and\n      mul\n      or\n      swap1\n      sstore\n      pop\n      0x20\n      dup3\n      add\n      mload\n      dup2\n      0x01\n      add\n      swap1\n      dup2\n      tag_55\n      swap2\n      swap1\n      tag_56\n      jump\t// in\n    tag_55:\n      pop\n      0x40\n      dup3\n      add\n      mload\n      dup2\n      0x02\n      add\n      exp(0x0100, 0x00)\n      dup2\n      sload\n      dup2\n      0xff\n      mul\n      not\n      and\n      swap1\n      dup4\n      iszero\n      iszero\n      mul\n      or\n      swap1\n      sstore\n      pop\n      0x60\n      dup3\n      add\n      mload\n      dup2\n      0x02\n      add\n      exp(0x0100, 0x01)\n      dup2\n      sload\n      dup2\n      0xff\n      mul\n      not\n      and\n      swap1\n      dup4\n      iszero\n      iszero\n      mul\n      or\n      swap1\n      sstore\n      pop\n      swap1\n      pop\n      pop\n        /* \"contracts/DoctorRegistry.sol\":1529:1554  registeredDoctorAddresses */\n      0x02\n        /* \"contracts/DoctorRegistry.sol\":1560:1570  msg.sender */\n      caller\n        /* \"contracts/DoctorRegistry.sol\":1529:1571  registeredDoctorAddresses.push(msg.sender) */\n      swap1\n      dup1\n      0x01\n      dup2\n      sload\n      add\n      dup1\n      dup3\n      sstore\n      dup1\n      swap2\n      pop\n      pop\n      0x01\n      swap1\n      sub\n      swap1\n      0x00\n      mstore\n      keccak256(0x00, 0x20)\n      add\n      0x00\n      swap1\n      swap2\n      swap1\n      swap2\n      swap1\n      swap2\n      0x0100\n      exp\n      dup2\n      sload\n      dup2\n      0xffffffffffffffffffffffffffffffffffffffff\n      mul\n      not\n      and\n      swap1\n      dup4\n      0xffffffffffffffffffffffffffffffffffffffff\n      and\n      mul\n      or\n      swap1\n      sstore\n      pop\n        /* \"contracts/DoctorRegistry.sol\":1607:1617  msg.sender */\n      caller\n        /* \"contracts/DoctorRegistry.sol\":1590:1629  DoctorRegistered(msg.sender, _ipfsHash) */\n      0xffffffffffffffffffffffffffffffffffffffff\n      and\n      0x20481b8112b5bf4734f45a473c373db9df6a79ce946cdc0e7dbc22b4f7d7f986\n        /* \"contracts/DoctorRegistry.sol\":1619:1628  _ipfsHash */\n      dup3\n        /* \"contracts/DoctorRegistry.sol\":1590:1629  DoctorRegistered(msg.sender, _ipfsHash) */\n      mload(0x40)\n      tag_58\n      swap2\n      swap1\n      tag_35\n      jump\t// in\n    tag_58:\n      mload(0x40)\n      dup1\n      swap2\n      sub\n      swap1\n      log2\n        /* \"contracts/DoctorRegistry.sol\":1033:1637  function registerDoctor(string memory _ipfsHash) external {... */\n      pop\n      jump\t// out\n        /* \"contracts/DoctorRegistry.sol\":2529:2656  function getAllRegisteredDoctors() external view returns (address[] memory) {... */\n    tag_17:\n        /* \"contracts/DoctorRegistry.sol\":2587:2603  address[] memory */\n      0x60\n        /* \"contracts/DoctorRegistry.sol\":2623:2648  registeredDoctorAddresses */\n      0x02\n        /* \"contracts/DoctorRegistry.sol\":2616:2648  return registeredDoctorAddresses */\n      dup1\n      sload\n      dup1\n      0x20\n      mul\n      0x20\n      add\n      mload(0x40)\n      swap1\n      dup2\n      add\n      0x40\n      mstore\n      dup1\n      swap3\n      swap2\n      swap1\n      dup2\n      dup2\n      mstore\n      0x20\n      add\n      dup3\n      dup1\n      sload\n      dup1\n      iszero\n      tag_60\n      jumpi\n      0x20\n      mul\n      dup3\n      add\n      swap2\n      swap1\n      0x00\n      mstore\n      keccak256(0x00, 0x20)\n      swap1\n    tag_61:\n      dup2\n      0x00\n      swap1\n      sload\n      swap1\n      0x0100\n      exp\n      swap1\n      div\n      0xffffffffffffffffffffffffffffffffffffffff\n      and\n      0xffffffffffffffffffffffffffffffffffffffff\n      and\n      dup2\n      mstore\n      0x20\n      add\n      swap1\n      0x01\n      add\n      swap1\n      dup1\n      dup4\n      gt\n      tag_61\n      jumpi\n    tag_60:\n      pop\n      pop\n      pop\n      pop\n      pop\n      swap1\n      pop\n        /* \"contracts/DoctorRegistry.sol\":2529:2656  function getAllRegisteredDoctors() external view returns (address[] memory) {... */\n      swap1\n      jump\t// out\n        /* \"contracts/DoctorRegistry.sol\":486:527  mapping(address => Doctor) public doctors */\n    tag_23:\n      mstore(0x20, 0x01)\n      dup1\n      0x00\n      mstore\n      keccak256(0x00, 0x40)\n      0x00\n      swap2\n      pop\n      swap1\n      pop\n      dup1\n      0x00\n      add\n      0x00\n      swap1\n      sload\n      swap1\n      0x0100\n      exp\n      swap1\n      div\n      0xffffffffffffffffffffffffffffffffffffffff\n      and\n      swap1\n      dup1\n      0x01\n      add\n      dup1\n      sload\n      tag_62\n      swap1\n      tag_63\n      jump\t// in\n    tag_62:\n      dup1\n      0x1f\n      add\n      0x20\n      dup1\n      swap2\n      div\n      mul\n      0x20\n      add\n      mload(0x40)\n      swap1\n      dup2\n      add\n      0x40\n      mstore\n      dup1\n      swap3\n      swap2\n      swap1\n      dup2\n      dup2\n      mstore\n      0x20\n      add\n      dup3\n      dup1\n      sload\n      tag_64\n      swap1\n      tag_63\n      jump\t// in\n    tag_64:\n      dup1\n      iszero\n      tag_65\n      jumpi\n      dup1\n      0x1f\n      lt\n      tag_66\n      jumpi\n      0x0100\n      dup1\n      dup4\n      sload\n      div\n      mul\n      dup4\n      mstore\n      swap2\n      0x20\n      add\n      swap2\n      jump(tag_65)\n    tag_66:\n      dup3\n      add\n      swap2\n      swap1\n      0x00\n      mstore\n      keccak256(0x00, 0x20)\n      swap1\n    tag_67:\n      dup2\n      sload\n      dup2\n      mstore\n      swap1\n      0x01\n      add\n      swap1\n      0x20\n      add\n      dup1\n      dup4\n      gt\n      tag_67\n      jumpi\n      dup3\n      swap1\n      sub\n      0x1f\n      and\n      dup3\n      add\n      swap2\n    tag_65:\n      pop\n      pop\n      pop\n      pop\n      pop\n      swap1\n      dup1\n      0x02\n      add\n      0x00\n      swap1\n      sload\n      swap1\n      0x0100\n      exp\n      swap1\n      div\n      0xff\n      and\n      swap1\n      dup1\n      0x02\n      add\n      0x01\n      swap1\n      sload\n      swap1\n      0x0100\n      exp\n      swap1\n      div\n      0xff\n      and\n      swap1\n      pop\n      dup5\n      jump\t// out\n        /* \"contracts/DoctorRegistry.sol\":2067:2184  function isVerified(address _doctor) external view returns (bool) {... */\n    tag_28:\n        /* \"contracts/DoctorRegistry.sol\":2127:2131  bool */\n      0x00\n        /* \"contracts/DoctorRegistry.sol\":2151:2158  doctors */\n      0x01\n        /* \"contracts/DoctorRegistry.sol\":2151:2167  doctors[_doctor] */\n      0x00\n        /* \"contracts/DoctorRegistry.sol\":2159:2166  _doctor */\n      dup4\n        /* \"contracts/DoctorRegistry.sol\":2151:2167  doctors[_doctor] */\n      0xffffffffffffffffffffffffffffffffffffffff\n      and\n      0xffffffffffffffffffffffffffffffffffffffff\n      and\n      dup2\n      mstore\n      0x20\n      add\n      swap1\n      dup2\n      mstore\n      0x20\n      add\n      0x00\n      keccak256\n        /* \"contracts/DoctorRegistry.sol\":2151:2176  doctors[_doctor].verified */\n      0x02\n      add\n      0x00\n      swap1\n      sload\n      swap1\n      0x0100\n      exp\n      swap1\n      div\n      0xff\n      and\n        /* \"contracts/DoctorRegistry.sol\":2144:2176  return doctors[_doctor].verified */\n      swap1\n      pop\n        /* \"contracts/DoctorRegistry.sol\":2067:2184  function isVerified(address _doctor) external view returns (bool) {... */\n      swap2\n      swap1\n      pop\n      jump\t// out\n        /* \"contracts/DoctorRegistry.sol\":2241:2445  function getDoctorDetails(address _doctor) external view returns (string memory) {... */\n    tag_33:\n        /* \"contracts/DoctorRegistry.sol\":2307:2320  string memory */\n      0x60\n        /* \"contracts/DoctorRegistry.sol\":2341:2348  doctors */\n      0x01\n        /* \"contracts/DoctorRegistry.sol\":2341:2357  doctors[_doctor] */\n      0x00\n        /* \"contracts/DoctorRegistry.sol\":2349:2356  _doctor */\n      dup4\n        /* \"contracts/DoctorRegistry.sol\":2341:2357  doctors[_doctor] */\n      0xffffffffffffffffffffffffffffffffffffffff\n      and\n      0xffffffffffffffffffffffffffffffffffffffff\n      and\n      dup2\n      mstore\n      0x20\n      add\n      swap1\n      dup2\n      mstore\n      0x20\n      add\n      0x00\n      keccak256\n        /* \"contracts/DoctorRegistry.sol\":2341:2368  doctors[_doctor].registered */\n      0x02\n      add\n      0x01\n      swap1\n      sload\n      swap1\n      0x0100\n      exp\n      swap1\n      div\n      0xff\n      and\n        /* \"contracts/DoctorRegistry.sol\":2333:2394  require(doctors[_doctor].registered, \"Doctor not registered\") */\n      tag_70\n      jumpi\n      mload(0x40)\n      0x08c379a000000000000000000000000000000000000000000000000000000000\n      dup2\n      mstore\n      0x04\n      add\n      tag_71\n      swap1\n      tag_72\n      jump\t// in\n    tag_71:\n      mload(0x40)\n      dup1\n      swap2\n      sub\n      swap1\n      revert\n    tag_70:\n        /* \"contracts/DoctorRegistry.sol\":2412:2419  doctors */\n      0x01\n        /* \"contracts/DoctorRegistry.sol\":2412:2428  doctors[_doctor] */\n      0x00\n        /* \"contracts/DoctorRegistry.sol\":2420:2427  _doctor */\n      dup4\n        /* \"contracts/DoctorRegistry.sol\":2412:2428  doctors[_doctor] */\n      0xffffffffffffffffffffffffffffffffffffffff\n      and\n      0xffffffffffffffffffffffffffffffffffffffff\n      and\n      dup2\n      mstore\n      0x20\n      add\n      swap1\n      dup2\n      mstore\n      0x20\n      add\n      0x00\n      keccak256\n        /* \"contracts/DoctorRegistry.sol\":2412:2437  doctors[_doctor].ipfsHash */\n      0x01\n      add\n        /* \"contracts/DoctorRegistry.sol\":2405:2437  return doctors[_doctor].ipfsHash */\n      dup1\n      sload\n      tag_73\n      swap1\n      tag_63\n      jump\t// in\n    tag_73:\n      dup1\n      0x1f\n      add\n      0x20\n      dup1\n      swap2\n      div\n      mul\n      0x20\n      add\n      mload(0x40)\n      swap1\n      dup2\n      add\n      0x40\n      mstore\n      dup1\n      swap3\n      swap2\n      swap1\n      dup2\n      dup2\n      mstore\n      0x20\n      add\n      dup3\n      dup1\n      sload\n      tag_74\n      swap1\n      tag_63\n      jump\t// in\n    tag_74:\n      dup1\n      iszero\n      tag_75\n      jumpi\n      dup1\n      0x1f\n      lt\n      tag_76\n      jumpi\n      0x0100\n      dup1\n      dup4\n      sload\n      div\n      mul\n      dup4\n      mstore\n      swap2\n      0x20\n      add\n      swap2\n      jump(tag_75)\n    tag_76:\n      dup3\n      add\n      swap2\n      swap1\n      0x00\n      mstore\n      keccak256(0x00, 0x20)\n      swap1\n    tag_77:\n      dup2\n      sload\n      dup2\n      mstore\n      swap1\n      0x01\n      add\n      swap1\n      0x20\n      add\n      dup1\n      dup4\n      gt\n      tag_77\n      jumpi\n      dup3\n      swap1\n      sub\n      0x1f\n      and\n      dup3\n      add\n      swap2\n    tag_75:\n      pop\n      pop\n      pop\n      pop\n      pop\n      swap1\n      pop\n        /* \"contracts/DoctorRegistry.sol\":2241:2445  function getDoctorDetails(address _doctor) external view returns (string memory) {... */\n      swap2\n      swap1\n      pop\n      jump\t// out\n        /* \"contracts/DoctorRegistry.sol\":1714:2002  function verifyDoctor(address _doctor) external onlyAdmin {... */\n    tag_38:\n        /* \"contracts/DoctorRegistry.sol\":847:852  admin */\n      0x00\n      dup1\n      sload\n      swap1\n      0x0100\n      exp\n      swap1\n      div\n      0xffffffffffffffffffffffffffffffffffffffff\n      and\n        /* \"contracts/DoctorRegistry.sol\":833:852  msg.sender == admin */\n      0xffffffffffffffffffffffffffffffffffffffff\n      and\n        /* \"contracts/DoctorRegistry.sol\":833:843  msg.sender */\n      caller\n        /* \"contracts/DoctorRegistry.sol\":833:852  msg.sender == admin */\n      0xffffffffffffffffffffffffffffffffffffffff\n      and\n      eq\n        /* \"contracts/DoctorRegistry.sol\":825:866  require(msg.sender == admin, \"Not admin\") */\n      tag_79\n      jumpi\n      mload(0x40)\n      0x08c379a000000000000000000000000000000000000000000000000000000000\n      dup2\n      mstore\n      0x04\n      add\n      tag_80\n      swap1\n      tag_81\n      jump\t// in\n    tag_80:\n      mload(0x40)\n      dup1\n      swap2\n      sub\n      swap1\n      revert\n    tag_79:\n        /* \"contracts/DoctorRegistry.sol\":1791:1798  doctors */\n      0x01\n        /* \"contracts/DoctorRegistry.sol\":1791:1807  doctors[_doctor] */\n      0x00\n        /* \"contracts/DoctorRegistry.sol\":1799:1806  _doctor */\n      dup3\n        /* \"contracts/DoctorRegistry.sol\":1791:1807  doctors[_doctor] */\n      0xffffffffffffffffffffffffffffffffffffffff\n      and\n      0xffffffffffffffffffffffffffffffffffffffff\n      and\n      dup2\n      mstore\n      0x20\n      add\n      swap1\n      dup2\n      mstore\n      0x20\n      add\n      0x00\n      keccak256\n        /* \"contracts/DoctorRegistry.sol\":1791:1818  doctors[_doctor].registered */\n      0x02\n      add\n      0x01\n      swap1\n      sload\n      swap1\n      0x0100\n      exp\n      swap1\n      div\n      0xff\n      and\n        /* \"contracts/DoctorRegistry.sol\":1783:1844  require(doctors[_doctor].registered, \"Doctor not registered\") */\n      tag_83\n      jumpi\n      mload(0x40)\n      0x08c379a000000000000000000000000000000000000000000000000000000000\n      dup2\n      mstore\n      0x04\n      add\n      tag_84\n      swap1\n      tag_72\n      jump\t// in\n    tag_84:\n      mload(0x40)\n      dup1\n      swap2\n      sub\n      swap1\n      revert\n    tag_83:\n        /* \"contracts/DoctorRegistry.sol\":1864:1871  doctors */\n      0x01\n        /* \"contracts/DoctorRegistry.sol\":1864:1880  doctors[_doctor] */\n      0x00\n        /* \"contracts/DoctorRegistry.sol\":1872:1879  _doctor */\n      dup3\n        /* \"contracts/DoctorRegistry.sol\":1864:1880  doctors[_doctor] */\n      0xffffffffffffffffffffffffffffffffffffffff\n      and\n      0xffffffffffffffffffffffffffffffffffffffff\n      and\n      dup2\n      mstore\n      0x20\n      add\n      swap1\n      dup2\n      mstore\n      0x20\n      add\n      0x00\n      keccak256\n        /* \"contracts/DoctorRegistry.sol\":1864:1889  doctors[_doctor].verified */\n      0x02\n      add\n      0x00\n      swap1\n      sload\n      swap1\n      0x0100\n      exp\n      swap1\n      div\n      0xff\n      and\n        /* \"contracts/DoctorRegistry.sol\":1863:1889  !doctors[_doctor].verified */\n      iszero\n        /* \"contracts/DoctorRegistry.sol\":1855:1910  require(!doctors[_doctor].verified, \"Already verified\") */\n      tag_85\n      jumpi\n      mload(0x40)\n      0x08c379a000000000000000000000000000000000000000000000000000000000\n      dup2\n      mstore\n      0x04\n      add\n      tag_86\n      swap1\n      tag_87\n      jump\t// in\n    tag_86:\n      mload(0x40)\n      dup1\n      swap2\n      sub\n      swap1\n      revert\n    tag_85:\n        /* \"contracts/DoctorRegistry.sol\":1951:1955  true */\n      0x01\n        /* \"contracts/DoctorRegistry.sol\":1923:1930  doctors */\n      dup1\n        /* \"contracts/DoctorRegistry.sol\":1923:1939  doctors[_doctor] */\n      0x00\n        /* \"contracts/DoctorRegistry.sol\":1931:1938  _doctor */\n      dup4\n        /* \"contracts/DoctorRegistry.sol\":1923:1939  doctors[_doctor] */\n      0xffffffffffffffffffffffffffffffffffffffff\n      and\n      0xffffffffffffffffffffffffffffffffffffffff\n      and\n      dup2\n      mstore\n      0x20\n      add\n      swap1\n      dup2\n      mstore\n      0x20\n      add\n      0x00\n      keccak256\n        /* \"contracts/DoctorRegistry.sol\":1923:1948  doctors[_doctor].verified */\n      0x02\n      add\n      0x00\n        /* \"contracts/DoctorRegistry.sol\":1923:1955  doctors[_doctor].verified = true */\n      0x0100\n      exp\n      dup2\n      sload\n      dup2\n      0xff\n      mul\n      not\n      and\n      swap1\n      dup4\n      iszero\n      iszero\n      mul\n      or\n      swap1\n      sstore\n      pop\n        /* \"contracts/DoctorRegistry.sol\":1986:1993  _doctor */\n      dup1\n        /* \"contracts/DoctorRegistry.sol\":1971:1994  DoctorVerified(_doctor) */\n      0xffffffffffffffffffffffffffffffffffffffff\n      and\n      0xb0859f2cf042b300c8948cdd785ec6a23a3742bc5446c19f4b270b67fac2c967\n      mload(0x40)\n      mload(0x40)\n      dup1\n      swap2\n      sub\n      swap1\n      log2\n        /* \"contracts/DoctorRegistry.sol\":1714:2002  function verifyDoctor(address _doctor) external onlyAdmin {... */\n      pop\n      jump\t// out\n        /* \"contracts/DoctorRegistry.sol\":618:660  address[] public registeredDoctorAddresses */\n    tag_42:\n      0x02\n      dup2\n      dup2\n      sload\n      dup2\n      lt\n      tag_88\n      jumpi\n      0x00\n      dup1\n      revert\n    tag_88:\n      swap1\n      0x00\n      mstore\n      keccak256(0x00, 0x20)\n      add\n      0x00\n      swap2\n      pop\n      sload\n      swap1\n      0x0100\n      exp\n      swap1\n      div\n      0xffffffffffffffffffffffffffffffffffffffff\n      and\n      dup2\n      jump\t// out\n        /* \"contracts/DoctorRegistry.sol\":92:112  address public admin */\n    tag_46:\n      0x00\n      dup1\n      sload\n      swap1\n      0x0100\n      exp\n      swap1\n      div\n      0xffffffffffffffffffffffffffffffffffffffff\n      and\n      dup2\n      jump\t// out\n        /* \"#utility.yul\":7:82   */\n    tag_90:\n        /* \"#utility.yul\":40:46   */\n      0x00\n        /* \"#utility.yul\":73:75   */\n      0x40\n        /* \"#utility.yul\":67:76   */\n      mload\n        /* \"#utility.yul\":57:76   */\n      swap1\n      pop\n        /* \"#utility.yul\":7:82   */\n      swap1\n      jump\t// out\n        /* \"#utility.yul\":88:205   */\n    tag_91:\n        /* \"#utility.yul\":197:198   */\n      0x00\n        /* \"#utility.yul\":194:195   */\n      dup1\n        /* \"#utility.yul\":187:199   */\n      revert\n        /* \"#utility.yul\":211:328   */\n    tag_92:\n        /* \"#utility.yul\":320:321   */\n      0x00\n        /* \"#utility.yul\":317:318   */\n      dup1\n        /* \"#utility.yul\":310:322   */\n      revert\n        /* \"#utility.yul\":334:451   */\n    tag_93:\n        /* \"#utility.yul\":443:444   */\n      0x00\n        /* \"#utility.yul\":440:441   */\n      dup1\n        /* \"#utility.yul\":433:445   */\n      revert\n        /* \"#utility.yul\":457:574   */\n    tag_94:\n        /* \"#utility.yul\":566:567   */\n      0x00\n        /* \"#utility.yul\":563:564   */\n      dup1\n        /* \"#utility.yul\":556:568   */\n      revert\n        /* \"#utility.yul\":580:682   */\n    tag_95:\n        /* \"#utility.yul\":621:627   */\n      0x00\n        /* \"#utility.yul\":672:674   */\n      0x1f\n        /* \"#utility.yul\":668:675   */\n      not\n        /* \"#utility.yul\":663:665   */\n      0x1f\n        /* \"#utility.yul\":656:661   */\n      dup4\n        /* \"#utility.yul\":652:666   */\n      add\n        /* \"#utility.yul\":648:676   */\n      and\n        /* \"#utility.yul\":638:676   */\n      swap1\n      pop\n        /* \"#utility.yul\":580:682   */\n      swap2\n      swap1\n      pop\n      jump\t// out\n        /* \"#utility.yul\":688:868   */\n    tag_96:\n        /* \"#utility.yul\":736:813   */\n      0x4e487b7100000000000000000000000000000000000000000000000000000000\n        /* \"#utility.yul\":733:734   */\n      0x00\n        /* \"#utility.yul\":726:814   */\n      mstore\n        /* \"#utility.yul\":833:837   */\n      0x41\n        /* \"#utility.yul\":830:831   */\n      0x04\n        /* \"#utility.yul\":823:838   */\n      mstore\n        /* \"#utility.yul\":857:861   */\n      0x24\n        /* \"#utility.yul\":854:855   */\n      0x00\n        /* \"#utility.yul\":847:862   */\n      revert\n        /* \"#utility.yul\":874:1155   */\n    tag_97:\n        /* \"#utility.yul\":957:984   */\n      tag_159\n        /* \"#utility.yul\":979:983   */\n      dup3\n        /* \"#utility.yul\":957:984   */\n      tag_95\n      jump\t// in\n    tag_159:\n        /* \"#utility.yul\":949:955   */\n      dup2\n        /* \"#utility.yul\":945:985   */\n      add\n        /* \"#utility.yul\":1087:1093   */\n      dup2\n        /* \"#utility.yul\":1075:1085   */\n      dup2\n        /* \"#utility.yul\":1072:1094   */\n      lt\n        /* \"#utility.yul\":1051:1069   */\n      0xffffffffffffffff\n        /* \"#utility.yul\":1039:1049   */\n      dup3\n        /* \"#utility.yul\":1036:1070   */\n      gt\n        /* \"#utility.yul\":1033:1095   */\n      or\n        /* \"#utility.yul\":1030:1118   */\n      iszero\n      tag_160\n      jumpi\n        /* \"#utility.yul\":1098:1116   */\n      tag_161\n      tag_96\n      jump\t// in\n    tag_161:\n        /* \"#utility.yul\":1030:1118   */\n    tag_160:\n        /* \"#utility.yul\":1138:1148   */\n      dup1\n        /* \"#utility.yul\":1134:1136   */\n      0x40\n        /* \"#utility.yul\":1127:1149   */\n      mstore\n        /* \"#utility.yul\":917:1155   */\n      pop\n        /* \"#utility.yul\":874:1155   */\n      pop\n      pop\n      jump\t// out\n        /* \"#utility.yul\":1161:1290   */\n    tag_98:\n        /* \"#utility.yul\":1195:1201   */\n      0x00\n        /* \"#utility.yul\":1222:1242   */\n      tag_163\n      tag_90\n      jump\t// in\n    tag_163:\n        /* \"#utility.yul\":1212:1242   */\n      swap1\n      pop\n        /* \"#utility.yul\":1251:1284   */\n      tag_164\n        /* \"#utility.yul\":1279:1283   */\n      dup3\n        /* \"#utility.yul\":1271:1277   */\n      dup3\n        /* \"#utility.yul\":1251:1284   */\n      tag_97\n      jump\t// in\n    tag_164:\n        /* \"#utility.yul\":1161:1290   */\n      swap2\n      swap1\n      pop\n      jump\t// out\n        /* \"#utility.yul\":1296:1604   */\n    tag_99:\n        /* \"#utility.yul\":1358:1362   */\n      0x00\n        /* \"#utility.yul\":1448:1466   */\n      0xffffffffffffffff\n        /* \"#utility.yul\":1440:1446   */\n      dup3\n        /* \"#utility.yul\":1437:1467   */\n      gt\n        /* \"#utility.yul\":1434:1490   */\n      iszero\n      tag_166\n      jumpi\n        /* \"#utility.yul\":1470:1488   */\n      tag_167\n      tag_96\n      jump\t// in\n    tag_167:\n        /* \"#utility.yul\":1434:1490   */\n    tag_166:\n        /* \"#utility.yul\":1508:1537   */\n      tag_168\n        /* \"#utility.yul\":1530:1536   */\n      dup3\n        /* \"#utility.yul\":1508:1537   */\n      tag_95\n      jump\t// in\n    tag_168:\n        /* \"#utility.yul\":1500:1537   */\n      swap1\n      pop\n        /* \"#utility.yul\":1592:1596   */\n      0x20\n        /* \"#utility.yul\":1586:1590   */\n      dup2\n        /* \"#utility.yul\":1582:1597   */\n      add\n        /* \"#utility.yul\":1574:1597   */\n      swap1\n      pop\n        /* \"#utility.yul\":1296:1604   */\n      swap2\n      swap1\n      pop\n      jump\t// out\n        /* \"#utility.yul\":1610:1758   */\n    tag_100:\n        /* \"#utility.yul\":1708:1714   */\n      dup3\n        /* \"#utility.yul\":1703:1706   */\n      dup2\n        /* \"#utility.yul\":1698:1701   */\n      dup4\n        /* \"#utility.yul\":1685:1715   */\n      calldatacopy\n        /* \"#utility.yul\":1749:1750   */\n      0x00\n        /* \"#utility.yul\":1740:1746   */\n      dup4\n        /* \"#utility.yul\":1735:1738   */\n      dup4\n        /* \"#utility.yul\":1731:1747   */\n      add\n        /* \"#utility.yul\":1724:1751   */\n      mstore\n        /* \"#utility.yul\":1610:1758   */\n      pop\n      pop\n      pop\n      jump\t// out\n        /* \"#utility.yul\":1764:2189   */\n    tag_101:\n        /* \"#utility.yul\":1842:1847   */\n      0x00\n        /* \"#utility.yul\":1867:1933   */\n      tag_171\n        /* \"#utility.yul\":1883:1932   */\n      tag_172\n        /* \"#utility.yul\":1925:1931   */\n      dup5\n        /* \"#utility.yul\":1883:1932   */\n      tag_99\n      jump\t// in\n    tag_172:\n        /* \"#utility.yul\":1867:1933   */\n      tag_98\n      jump\t// in\n    tag_171:\n        /* \"#utility.yul\":1858:1933   */\n      swap1\n      pop\n        /* \"#utility.yul\":1956:1962   */\n      dup3\n        /* \"#utility.yul\":1949:1954   */\n      dup2\n        /* \"#utility.yul\":1942:1963   */\n      mstore\n        /* \"#utility.yul\":1994:1998   */\n      0x20\n        /* \"#utility.yul\":1987:1992   */\n      dup2\n        /* \"#utility.yul\":1983:1999   */\n      add\n        /* \"#utility.yul\":2032:2035   */\n      dup5\n        /* \"#utility.yul\":2023:2029   */\n      dup5\n        /* \"#utility.yul\":2018:2021   */\n      dup5\n        /* \"#utility.yul\":2014:2030   */\n      add\n        /* \"#utility.yul\":2011:2036   */\n      gt\n        /* \"#utility.yul\":2008:2120   */\n      iszero\n      tag_173\n      jumpi\n        /* \"#utility.yul\":2039:2118   */\n      tag_174\n      tag_94\n      jump\t// in\n    tag_174:\n        /* \"#utility.yul\":2008:2120   */\n    tag_173:\n        /* \"#utility.yul\":2129:2183   */\n      tag_175\n        /* \"#utility.yul\":2176:2182   */\n      dup5\n        /* \"#utility.yul\":2171:2174   */\n      dup3\n        /* \"#utility.yul\":2166:2169   */\n      dup6\n        /* \"#utility.yul\":2129:2183   */\n      tag_100\n      jump\t// in\n    tag_175:\n        /* \"#utility.yul\":1848:2189   */\n      pop\n        /* \"#utility.yul\":1764:2189   */\n      swap4\n      swap3\n      pop\n      pop\n      pop\n      jump\t// out\n        /* \"#utility.yul\":2209:2549   */\n    tag_102:\n        /* \"#utility.yul\":2265:2270   */\n      0x00\n        /* \"#utility.yul\":2314:2317   */\n      dup3\n        /* \"#utility.yul\":2307:2311   */\n      0x1f\n        /* \"#utility.yul\":2299:2305   */\n      dup4\n        /* \"#utility.yul\":2295:2312   */\n      add\n        /* \"#utility.yul\":2291:2318   */\n      slt\n        /* \"#utility.yul\":2281:2403   */\n      tag_177\n      jumpi\n        /* \"#utility.yul\":2322:2401   */\n      tag_178\n      tag_93\n      jump\t// in\n    tag_178:\n        /* \"#utility.yul\":2281:2403   */\n    tag_177:\n        /* \"#utility.yul\":2439:2445   */\n      dup2\n        /* \"#utility.yul\":2426:2446   */\n      calldataload\n        /* \"#utility.yul\":2464:2543   */\n      tag_179\n        /* \"#utility.yul\":2539:2542   */\n      dup5\n        /* \"#utility.yul\":2531:2537   */\n      dup3\n        /* \"#utility.yul\":2524:2528   */\n      0x20\n        /* \"#utility.yul\":2516:2522   */\n      dup7\n        /* \"#utility.yul\":2512:2529   */\n      add\n        /* \"#utility.yul\":2464:2543   */\n      tag_101\n      jump\t// in\n    tag_179:\n        /* \"#utility.yul\":2455:2543   */\n      swap2\n      pop\n        /* \"#utility.yul\":2271:2549   */\n      pop\n        /* \"#utility.yul\":2209:2549   */\n      swap3\n      swap2\n      pop\n      pop\n      jump\t// out\n        /* \"#utility.yul\":2555:3064   */\n    tag_14:\n        /* \"#utility.yul\":2624:2630   */\n      0x00\n        /* \"#utility.yul\":2673:2675   */\n      0x20\n        /* \"#utility.yul\":2661:2670   */\n      dup3\n        /* \"#utility.yul\":2652:2659   */\n      dup5\n        /* \"#utility.yul\":2648:2671   */\n      sub\n        /* \"#utility.yul\":2644:2676   */\n      slt\n        /* \"#utility.yul\":2641:2760   */\n      iszero\n      tag_181\n      jumpi\n        /* \"#utility.yul\":2679:2758   */\n      tag_182\n      tag_91\n      jump\t// in\n    tag_182:\n        /* \"#utility.yul\":2641:2760   */\n    tag_181:\n        /* \"#utility.yul\":2827:2828   */\n      0x00\n        /* \"#utility.yul\":2816:2825   */\n      dup3\n        /* \"#utility.yul\":2812:2829   */\n      add\n        /* \"#utility.yul\":2799:2830   */\n      calldataload\n        /* \"#utility.yul\":2857:2875   */\n      0xffffffffffffffff\n        /* \"#utility.yul\":2849:2855   */\n      dup2\n        /* \"#utility.yul\":2846:2876   */\n      gt\n        /* \"#utility.yul\":2843:2960   */\n      iszero\n      tag_183\n      jumpi\n        /* \"#utility.yul\":2879:2958   */\n      tag_184\n      tag_92\n      jump\t// in\n    tag_184:\n        /* \"#utility.yul\":2843:2960   */\n    tag_183:\n        /* \"#utility.yul\":2984:3047   */\n      tag_185\n        /* \"#utility.yul\":3039:3046   */\n      dup5\n        /* \"#utility.yul\":3030:3036   */\n      dup3\n        /* \"#utility.yul\":3019:3028   */\n      dup6\n        /* \"#utility.yul\":3015:3037   */\n      add\n        /* \"#utility.yul\":2984:3047   */\n      tag_102\n      jump\t// in\n    tag_185:\n        /* \"#utility.yul\":2974:3047   */\n      swap2\n      pop\n        /* \"#utility.yul\":2770:3057   */\n      pop\n        /* \"#utility.yul\":2555:3064   */\n      swap3\n      swap2\n      pop\n      pop\n      jump\t// out\n        /* \"#utility.yul\":3070:3184   */\n    tag_103:\n        /* \"#utility.yul\":3137:3143   */\n      0x00\n        /* \"#utility.yul\":3171:3176   */\n      dup2\n        /* \"#utility.yul\":3165:3177   */\n      mload\n        /* \"#utility.yul\":3155:3177   */\n      swap1\n      pop\n        /* \"#utility.yul\":3070:3184   */\n      swap2\n      swap1\n      pop\n      jump\t// out\n        /* \"#utility.yul\":3190:3374   */\n    tag_104:\n        /* \"#utility.yul\":3289:3300   */\n      0x00\n        /* \"#utility.yul\":3323:3329   */\n      dup3\n        /* \"#utility.yul\":3318:3321   */\n      dup3\n        /* \"#utility.yul\":3311:3330   */\n      mstore\n        /* \"#utility.yul\":3363:3367   */\n      0x20\n        /* \"#utility.yul\":3358:3361   */\n      dup3\n        /* \"#utility.yul\":3354:3368   */\n      add\n        /* \"#utility.yul\":3339:3368   */\n      swap1\n      pop\n        /* \"#utility.yul\":3190:3374   */\n      swap3\n      swap2\n      pop\n      pop\n      jump\t// out\n        /* \"#utility.yul\":3380:3512   */\n    tag_105:\n        /* \"#utility.yul\":3447:3451   */\n      0x00\n        /* \"#utility.yul\":3470:3473   */\n      dup2\n        /* \"#utility.yul\":3462:3473   */\n      swap1\n      pop\n        /* \"#utility.yul\":3500:3504   */\n      0x20\n        /* \"#utility.yul\":3495:3498   */\n      dup3\n        /* \"#utility.yul\":3491:3505   */\n      add\n        /* \"#utility.yul\":3483:3505   */\n      swap1\n      pop\n        /* \"#utility.yul\":3380:3512   */\n      swap2\n      swap1\n      pop\n      jump\t// out\n        /* \"#utility.yul\":3518:3644   */\n    tag_106:\n        /* \"#utility.yul\":3555:3562   */\n      0x00\n        /* \"#utility.yul\":3595:3637   */\n      0xffffffffffffffffffffffffffffffffffffffff\n        /* \"#utility.yul\":3588:3593   */\n      dup3\n        /* \"#utility.yul\":3584:3638   */\n      and\n        /* \"#utility.yul\":3573:3638   */\n      swap1\n      pop\n        /* \"#utility.yul\":3518:3644   */\n      swap2\n      swap1\n      pop\n      jump\t// out\n        /* \"#utility.yul\":3650:3746   */\n    tag_107:\n        /* \"#utility.yul\":3687:3694   */\n      0x00\n        /* \"#utility.yul\":3716:3740   */\n      tag_191\n        /* \"#utility.yul\":3734:3739   */\n      dup3\n        /* \"#utility.yul\":3716:3740   */\n      tag_106\n      jump\t// in\n    tag_191:\n        /* \"#utility.yul\":3705:3740   */\n      swap1\n      pop\n        /* \"#utility.yul\":3650:3746   */\n      swap2\n      swap1\n      pop\n      jump\t// out\n        /* \"#utility.yul\":3752:3860   */\n    tag_108:\n        /* \"#utility.yul\":3829:3853   */\n      tag_193\n        /* \"#utility.yul\":3847:3852   */\n      dup2\n        /* \"#utility.yul\":3829:3853   */\n      tag_107\n      jump\t// in\n    tag_193:\n        /* \"#utility.yul\":3824:3827   */\n      dup3\n        /* \"#utility.yul\":3817:3854   */\n      mstore\n        /* \"#utility.yul\":3752:3860   */\n      pop\n      pop\n      jump\t// out\n        /* \"#utility.yul\":3866:4045   */\n    tag_109:\n        /* \"#utility.yul\":3935:3945   */\n      0x00\n        /* \"#utility.yul\":3956:4002   */\n      tag_195\n        /* \"#utility.yul\":3998:4001   */\n      dup4\n        /* \"#utility.yul\":3990:3996   */\n      dup4\n        /* \"#utility.yul\":3956:4002   */\n      tag_108\n      jump\t// in\n    tag_195:\n        /* \"#utility.yul\":4034:4038   */\n      0x20\n        /* \"#utility.yul\":4029:4032   */\n      dup4\n        /* \"#utility.yul\":4025:4039   */\n      add\n        /* \"#utility.yul\":4011:4039   */\n      swap1\n      pop\n        /* \"#utility.yul\":3866:4045   */\n      swap3\n      swap2\n      pop\n      pop\n      jump\t// out\n        /* \"#utility.yul\":4051:4164   */\n    tag_110:\n        /* \"#utility.yul\":4121:4125   */\n      0x00\n        /* \"#utility.yul\":4153:4157   */\n      0x20\n        /* \"#utility.yul\":4148:4151   */\n      dup3\n        /* \"#utility.yul\":4144:4158   */\n      add\n        /* \"#utility.yul\":4136:4158   */\n      swap1\n      pop\n        /* \"#utility.yul\":4051:4164   */\n      swap2\n      swap1\n      pop\n      jump\t// out\n        /* \"#utility.yul\":4200:4932   */\n    tag_111:\n        /* \"#utility.yul\":4319:4322   */\n      0x00\n        /* \"#utility.yul\":4348:4402   */\n      tag_198\n        /* \"#utility.yul\":4396:4401   */\n      dup3\n        /* \"#utility.yul\":4348:4402   */\n      tag_103\n      jump\t// in\n    tag_198:\n        /* \"#utility.yul\":4418:4504   */\n      tag_199\n        /* \"#utility.yul\":4497:4503   */\n      dup2\n        /* \"#utility.yul\":4492:4495   */\n      dup6\n        /* \"#utility.yul\":4418:4504   */\n      tag_104\n      jump\t// in\n    tag_199:\n        /* \"#utility.yul\":4411:4504   */\n      swap4\n      pop\n        /* \"#utility.yul\":4528:4584   */\n      tag_200\n        /* \"#utility.yul\":4578:4583   */\n      dup4\n        /* \"#utility.yul\":4528:4584   */\n      tag_105\n      jump\t// in\n    tag_200:\n        /* \"#utility.yul\":4607:4614   */\n      dup1\n        /* \"#utility.yul\":4638:4639   */\n      0x00\n        /* \"#utility.yul\":4623:4907   */\n    tag_201:\n        /* \"#utility.yul\":4648:4654   */\n      dup4\n        /* \"#utility.yul\":4645:4646   */\n      dup2\n        /* \"#utility.yul\":4642:4655   */\n      lt\n        /* \"#utility.yul\":4623:4907   */\n      iszero\n      tag_203\n      jumpi\n        /* \"#utility.yul\":4724:4730   */\n      dup2\n        /* \"#utility.yul\":4718:4731   */\n      mload\n        /* \"#utility.yul\":4751:4814   */\n      tag_204\n        /* \"#utility.yul\":4810:4813   */\n      dup9\n        /* \"#utility.yul\":4795:4808   */\n      dup3\n        /* \"#utility.yul\":4751:4814   */\n      tag_109\n      jump\t// in\n    tag_204:\n        /* \"#utility.yul\":4744:4814   */\n      swap8\n      pop\n        /* \"#utility.yul\":4837:4897   */\n      tag_205\n        /* \"#utility.yul\":4890:4896   */\n      dup4\n        /* \"#utility.yul\":4837:4897   */\n      tag_110\n      jump\t// in\n    tag_205:\n        /* \"#utility.yul\":4827:4897   */\n      swap3\n      pop\n        /* \"#utility.yul\":4683:4907   */\n      pop\n        /* \"#utility.yul\":4670:4671   */\n      0x01\n        /* \"#utility.yul\":4667:4668   */\n      dup2\n        /* \"#utility.yul\":4663:4672   */\n      add\n        /* \"#utility.yul\":4658:4672   */\n      swap1\n      pop\n        /* \"#utility.yul\":4623:4907   */\n      jump(tag_201)\n    tag_203:\n        /* \"#utility.yul\":4627:4641   */\n      pop\n        /* \"#utility.yul\":4923:4926   */\n      dup6\n        /* \"#utility.yul\":4916:4926   */\n      swap4\n      pop\n        /* \"#utility.yul\":4324:4932   */\n      pop\n      pop\n      pop\n        /* \"#utility.yul\":4200:4932   */\n      swap3\n      swap2\n      pop\n      pop\n      jump\t// out\n        /* \"#utility.yul\":4938:5311   */\n    tag_19:\n        /* \"#utility.yul\":5081:5085   */\n      0x00\n        /* \"#utility.yul\":5119:5121   */\n      0x20\n        /* \"#utility.yul\":5108:5117   */\n      dup3\n        /* \"#utility.yul\":5104:5122   */\n      add\n        /* \"#utility.yul\":5096:5122   */\n      swap1\n      pop\n        /* \"#utility.yul\":5168:5177   */\n      dup2\n        /* \"#utility.yul\":5162:5166   */\n      dup2\n        /* \"#utility.yul\":5158:5178   */\n      sub\n        /* \"#utility.yul\":5154:5155   */\n      0x00\n        /* \"#utility.yul\":5143:5152   */\n      dup4\n        /* \"#utility.yul\":5139:5156   */\n      add\n        /* \"#utility.yul\":5132:5179   */\n      mstore\n        /* \"#utility.yul\":5196:5304   */\n      tag_207\n        /* \"#utility.yul\":5299:5303   */\n      dup2\n        /* \"#utility.yul\":5290:5296   */\n      dup5\n        /* \"#utility.yul\":5196:5304   */\n      tag_111\n      jump\t// in\n    tag_207:\n        /* \"#utility.yul\":5188:5304   */\n      swap1\n      pop\n        /* \"#utility.yul\":4938:5311   */\n      swap3\n      swap2\n      pop\n      pop\n      jump\t// out\n        /* \"#utility.yul\":5317:5439   */\n    tag_112:\n        /* \"#utility.yul\":5390:5414   */\n      tag_209\n        /* \"#utility.yul\":5408:5413   */\n      dup2\n        /* \"#utility.yul\":5390:5414   */\n      tag_107\n      jump\t// in\n    tag_209:\n        /* \"#utility.yul\":5383:5388   */\n      dup2\n        /* \"#utility.yul\":5380:5415   */\n      eq\n        /* \"#utility.yul\":5370:5433   */\n      tag_210\n      jumpi\n        /* \"#utility.yul\":5429:5430   */\n      0x00\n        /* \"#utility.yul\":5426:5427   */\n      dup1\n        /* \"#utility.yul\":5419:5431   */\n      revert\n        /* \"#utility.yul\":5370:5433   */\n    tag_210:\n        /* \"#utility.yul\":5317:5439   */\n      pop\n      jump\t// out\n        /* \"#utility.yul\":5445:5584   */\n    tag_113:\n        /* \"#utility.yul\":5491:5496   */\n      0x00\n        /* \"#utility.yul\":5529:5535   */\n      dup2\n        /* \"#utility.yul\":5516:5536   */\n      calldataload\n        /* \"#utility.yul\":5507:5536   */\n      swap1\n      pop\n        /* \"#utility.yul\":5545:5578   */\n      tag_212\n        /* \"#utility.yul\":5572:5577   */\n      dup2\n        /* \"#utility.yul\":5545:5578   */\n      tag_112\n      jump\t// in\n    tag_212:\n        /* \"#utility.yul\":5445:5584   */\n      swap3\n      swap2\n      pop\n      pop\n      jump\t// out\n        /* \"#utility.yul\":5590:5919   */\n    tag_22:\n        /* \"#utility.yul\":5649:5655   */\n      0x00\n        /* \"#utility.yul\":5698:5700   */\n      0x20\n        /* \"#utility.yul\":5686:5695   */\n      dup3\n        /* \"#utility.yul\":5677:5684   */\n      dup5\n        /* \"#utility.yul\":5673:5696   */\n      sub\n        /* \"#utility.yul\":5669:5701   */\n      slt\n        /* \"#utility.yul\":5666:5785   */\n      iszero\n      tag_214\n      jumpi\n        /* \"#utility.yul\":5704:5783   */\n      tag_215\n      tag_91\n      jump\t// in\n    tag_215:\n        /* \"#utility.yul\":5666:5785   */\n    tag_214:\n        /* \"#utility.yul\":5824:5825   */\n      0x00\n        /* \"#utility.yul\":5849:5902   */\n      tag_216\n        /* \"#utility.yul\":5894:5901   */\n      dup5\n        /* \"#utility.yul\":5885:5891   */\n      dup3\n        /* \"#utility.yul\":5874:5883   */\n      dup6\n        /* \"#utility.yul\":5870:5892   */\n      add\n        /* \"#utility.yul\":5849:5902   */\n      tag_113\n      jump\t// in\n    tag_216:\n        /* \"#utility.yul\":5839:5902   */\n      swap2\n      pop\n        /* \"#utility.yul\":5795:5912   */\n      pop\n        /* \"#utility.yul\":5590:5919   */\n      swap3\n      swap2\n      pop\n      pop\n      jump\t// out\n        /* \"#utility.yul\":5925:6043   */\n    tag_114:\n        /* \"#utility.yul\":6012:6036   */\n      tag_218\n        /* \"#utility.yul\":6030:6035   */\n      dup2\n        /* \"#utility.yul\":6012:6036   */\n      tag_107\n      jump\t// in\n    tag_218:\n        /* \"#utility.yul\":6007:6010   */\n      dup3\n        /* \"#utility.yul\":6000:6037   */\n      mstore\n        /* \"#utility.yul\":5925:6043   */\n      pop\n      pop\n      jump\t// out\n        /* \"#utility.yul\":6049:6148   */\n    tag_115:\n        /* \"#utility.yul\":6101:6107   */\n      0x00\n        /* \"#utility.yul\":6135:6140   */\n      dup2\n        /* \"#utility.yul\":6129:6141   */\n      mload\n        /* \"#utility.yul\":6119:6141   */\n      swap1\n      pop\n        /* \"#utility.yul\":6049:6148   */\n      swap2\n      swap1\n      pop\n      jump\t// out\n        /* \"#utility.yul\":6154:6323   */\n    tag_116:\n        /* \"#utility.yul\":6238:6249   */\n      0x00\n        /* \"#utility.yul\":6272:6278   */\n      dup3\n        /* \"#utility.yul\":6267:6270   */\n      dup3\n        /* \"#utility.yul\":6260:6279   */\n      mstore\n        /* \"#utility.yul\":6312:6316   */\n      0x20\n        /* \"#utility.yul\":6307:6310   */\n      dup3\n        /* \"#utility.yul\":6303:6317   */\n      add\n        /* \"#utility.yul\":6288:6317   */\n      swap1\n      pop\n        /* \"#utility.yul\":6154:6323   */\n      swap3\n      swap2\n      pop\n      pop\n      jump\t// out\n        /* \"#utility.yul\":6329:6577   */\n    tag_117:\n        /* \"#utility.yul\":6411:6412   */\n      0x00\n        /* \"#utility.yul\":6421:6534   */\n    tag_222:\n        /* \"#utility.yul\":6435:6441   */\n      dup4\n        /* \"#utility.yul\":6432:6433   */\n      dup2\n        /* \"#utility.yul\":6429:6442   */\n      lt\n        /* \"#utility.yul\":6421:6534   */\n      iszero\n      tag_224\n      jumpi\n        /* \"#utility.yul\":6520:6521   */\n      dup1\n        /* \"#utility.yul\":6515:6518   */\n      dup3\n        /* \"#utility.yul\":6511:6522   */\n      add\n        /* \"#utility.yul\":6505:6523   */\n      mload\n        /* \"#utility.yul\":6501:6502   */\n      dup2\n        /* \"#utility.yul\":6496:6499   */\n      dup5\n        /* \"#utility.yul\":6492:6503   */\n      add\n        /* \"#utility.yul\":6485:6524   */\n      mstore\n        /* \"#utility.yul\":6457:6459   */\n      0x20\n        /* \"#utility.yul\":6454:6455   */\n      dup2\n        /* \"#utility.yul\":6450:6460   */\n      add\n        /* \"#utility.yul\":6445:6460   */\n      swap1\n      pop\n        /* \"#utility.yul\":6421:6534   */\n      jump(tag_222)\n    tag_224:\n        /* \"#utility.yul\":6568:6569   */\n      0x00\n        /* \"#utility.yul\":6559:6565   */\n      dup5\n        /* \"#utility.yul\":6554:6557   */\n      dup5\n        /* \"#utility.yul\":6550:6566   */\n      add\n        /* \"#utility.yul\":6543:6570   */\n      mstore\n        /* \"#utility.yul\":6391:6577   */\n      pop\n        /* \"#utility.yul\":6329:6577   */\n      pop\n      pop\n      pop\n      jump\t// out\n        /* \"#utility.yul\":6583:6960   */\n    tag_118:\n        /* \"#utility.yul\":6671:6674   */\n      0x00\n        /* \"#utility.yul\":6699:6738   */\n      tag_226\n        /* \"#utility.yul\":6732:6737   */\n      dup3\n        /* \"#utility.yul\":6699:6738   */\n      tag_115\n      jump\t// in\n    tag_226:\n        /* \"#utility.yul\":6754:6825   */\n      tag_227\n        /* \"#utility.yul\":6818:6824   */\n      dup2\n        /* \"#utility.yul\":6813:6816   */\n      dup6\n        /* \"#utility.yul\":6754:6825   */\n      tag_116\n      jump\t// in\n    tag_227:\n        /* \"#utility.yul\":6747:6825   */\n      swap4\n      pop\n        /* \"#utility.yul\":6834:6899   */\n      tag_228\n        /* \"#utility.yul\":6892:6898   */\n      dup2\n        /* \"#utility.yul\":6887:6890   */\n      dup6\n        /* \"#utility.yul\":6880:6884   */\n      0x20\n        /* \"#utility.yul\":6873:6878   */\n      dup7\n        /* \"#utility.yul\":6869:6885   */\n      add\n        /* \"#utility.yul\":6834:6899   */\n      tag_117\n      jump\t// in\n    tag_228:\n        /* \"#utility.yul\":6924:6953   */\n      tag_229\n        /* \"#utility.yul\":6946:6952   */\n      dup2\n        /* \"#utility.yul\":6924:6953   */\n      tag_95\n      jump\t// in\n    tag_229:\n        /* \"#utility.yul\":6919:6922   */\n      dup5\n        /* \"#utility.yul\":6915:6954   */\n      add\n        /* \"#utility.yul\":6908:6954   */\n      swap2\n      pop\n        /* \"#utility.yul\":6675:6960   */\n      pop\n        /* \"#utility.yul\":6583:6960   */\n      swap3\n      swap2\n      pop\n      pop\n      jump\t// out\n        /* \"#utility.yul\":6966:7056   */\n    tag_119:\n        /* \"#utility.yul\":7000:7007   */\n      0x00\n        /* \"#utility.yul\":7043:7048   */\n      dup2\n        /* \"#utility.yul\":7036:7049   */\n      iszero\n        /* \"#utility.yul\":7029:7050   */\n      iszero\n        /* \"#utility.yul\":7018:7050   */\n      swap1\n      pop\n        /* \"#utility.yul\":6966:7056   */\n      swap2\n      swap1\n      pop\n      jump\t// out\n        /* \"#utility.yul\":7062:7171   */\n    tag_120:\n        /* \"#utility.yul\":7143:7164   */\n      tag_232\n        /* \"#utility.yul\":7158:7163   */\n      dup2\n        /* \"#utility.yul\":7143:7164   */\n      tag_119\n      jump\t// in\n    tag_232:\n        /* \"#utility.yul\":7138:7141   */\n      dup3\n        /* \"#utility.yul\":7131:7165   */\n      mstore\n        /* \"#utility.yul\":7062:7171   */\n      pop\n      pop\n      jump\t// out\n        /* \"#utility.yul\":7177:7797   */\n    tag_25:\n        /* \"#utility.yul\":7362:7366   */\n      0x00\n        /* \"#utility.yul\":7400:7403   */\n      0x80\n        /* \"#utility.yul\":7389:7398   */\n      dup3\n        /* \"#utility.yul\":7385:7404   */\n      add\n        /* \"#utility.yul\":7377:7404   */\n      swap1\n      pop\n        /* \"#utility.yul\":7414:7485   */\n      tag_234\n        /* \"#utility.yul\":7482:7483   */\n      0x00\n        /* \"#utility.yul\":7471:7480   */\n      dup4\n        /* \"#utility.yul\":7467:7484   */\n      add\n        /* \"#utility.yul\":7458:7464   */\n      dup8\n        /* \"#utility.yul\":7414:7485   */\n      tag_114\n      jump\t// in\n    tag_234:\n        /* \"#utility.yul\":7532:7541   */\n      dup2\n        /* \"#utility.yul\":7526:7530   */\n      dup2\n        /* \"#utility.yul\":7522:7542   */\n      sub\n        /* \"#utility.yul\":7517:7519   */\n      0x20\n        /* \"#utility.yul\":7506:7515   */\n      dup4\n        /* \"#utility.yul\":7502:7520   */\n      add\n        /* \"#utility.yul\":7495:7543   */\n      mstore\n        /* \"#utility.yul\":7560:7638   */\n      tag_235\n        /* \"#utility.yul\":7633:7637   */\n      dup2\n        /* \"#utility.yul\":7624:7630   */\n      dup7\n        /* \"#utility.yul\":7560:7638   */\n      tag_118\n      jump\t// in\n    tag_235:\n        /* \"#utility.yul\":7552:7638   */\n      swap1\n      pop\n        /* \"#utility.yul\":7648:7714   */\n      tag_236\n        /* \"#utility.yul\":7710:7712   */\n      0x40\n        /* \"#utility.yul\":7699:7708   */\n      dup4\n        /* \"#utility.yul\":7695:7713   */\n      add\n        /* \"#utility.yul\":7686:7692   */\n      dup6\n        /* \"#utility.yul\":7648:7714   */\n      tag_120\n      jump\t// in\n    tag_236:\n        /* \"#utility.yul\":7724:7790   */\n      tag_237\n        /* \"#utility.yul\":7786:7788   */\n      0x60\n        /* \"#utility.yul\":7775:7784   */\n      dup4\n        /* \"#utility.yul\":7771:7789   */\n      add\n        /* \"#utility.yul\":7762:7768   */\n      dup5\n        /* \"#utility.yul\":7724:7790   */\n      tag_120\n      jump\t// in\n    tag_237:\n        /* \"#utility.yul\":7177:7797   */\n      swap6\n      swap5\n      pop\n      pop\n      pop\n      pop\n      pop\n      jump\t// out\n        /* \"#utility.yul\":7803:8013   */\n    tag_30:\n        /* \"#utility.yul\":7890:7894   */\n      0x00\n        /* \"#utility.yul\":7928:7930   */\n      0x20\n        /* \"#utility.yul\":7917:7926   */\n      dup3\n        /* \"#utility.yul\":7913:7931   */\n      add\n        /* \"#utility.yul\":7905:7931   */\n      swap1\n      pop\n        /* \"#utility.yul\":7941:8006   */\n      tag_239\n        /* \"#utility.yul\":8003:8004   */\n      0x00\n        /* \"#utility.yul\":7992:8001   */\n      dup4\n        /* \"#utility.yul\":7988:8005   */\n      add\n        /* \"#utility.yul\":7979:7985   */\n      dup5\n        /* \"#utility.yul\":7941:8006   */\n      tag_120\n      jump\t// in\n    tag_239:\n        /* \"#utility.yul\":7803:8013   */\n      swap3\n      swap2\n      pop\n      pop\n      jump\t// out\n        /* \"#utility.yul\":8019:8332   */\n    tag_35:\n        /* \"#utility.yul\":8132:8136   */\n      0x00\n        /* \"#utility.yul\":8170:8172   */\n      0x20\n        /* \"#utility.yul\":8159:8168   */\n      dup3\n        /* \"#utility.yul\":8155:8173   */\n      add\n        /* \"#utility.yul\":8147:8173   */\n      swap1\n      pop\n        /* \"#utility.yul\":8219:8228   */\n      dup2\n        /* \"#utility.yul\":8213:8217   */\n      dup2\n        /* \"#utility.yul\":8209:8229   */\n      sub\n        /* \"#utility.yul\":8205:8206   */\n      0x00\n        /* \"#utility.yul\":8194:8203   */\n      dup4\n        /* \"#utility.yul\":8190:8207   */\n      add\n        /* \"#utility.yul\":8183:8230   */\n      mstore\n        /* \"#utility.yul\":8247:8325   */\n      tag_241\n        /* \"#utility.yul\":8320:8324   */\n      dup2\n        /* \"#utility.yul\":8311:8317   */\n      dup5\n        /* \"#utility.yul\":8247:8325   */\n      tag_118\n      jump\t// in\n    tag_241:\n        /* \"#utility.yul\":8239:8325   */\n      swap1\n      pop\n        /* \"#utility.yul\":8019:8332   */\n      swap3\n      swap2\n      pop\n      pop\n      jump\t// out\n        /* \"#utility.yul\":8338:8415   */\n    tag_121:\n        /* \"#utility.yul\":8375:8382   */\n      0x00\n        /* \"#utility.yul\":8404:8409   */\n      dup2\n        /* \"#utility.yul\":8393:8409   */\n      swap1\n      pop\n        /* \"#utility.yul\":8338:8415   */\n      swap2\n      swap1\n      pop\n      jump\t// out\n        /* \"#utility.yul\":8421:8543   */\n    tag_122:\n        /* \"#utility.yul\":8494:8518   */\n      tag_244\n        /* \"#utility.yul\":8512:8517   */\n      dup2\n        /* \"#utility.yul\":8494:8518   */\n      tag_121\n      jump\t// in\n    tag_244:\n        /* \"#utility.yul\":8487:8492   */\n      dup2\n        /* \"#utility.yul\":8484:8519   */\n      eq\n        /* \"#utility.yul\":8474:8537   */\n      tag_245\n      jumpi\n        /* \"#utility.yul\":8533:8534   */\n      0x00\n        /* \"#utility.yul\":8530:8531   */\n      dup1\n        /* \"#utility.yul\":8523:8535   */\n      revert\n        /* \"#utility.yul\":8474:8537   */\n    tag_245:\n        /* \"#utility.yul\":8421:8543   */\n      pop\n      jump\t// out\n        /* \"#utility.yul\":8549:8688   */\n    tag_123:\n        /* \"#utility.yul\":8595:8600   */\n      0x00\n        /* \"#utility.yul\":8633:8639   */\n      dup2\n        /* \"#utility.yul\":8620:8640   */\n      calldataload\n        /* \"#utility.yul\":8611:8640   */\n      swap1\n      pop\n        /* \"#utility.yul\":8649:8682   */\n      tag_247\n        /* \"#utility.yul\":8676:8681   */\n      dup2\n        /* \"#utility.yul\":8649:8682   */\n      tag_122\n      jump\t// in\n    tag_247:\n        /* \"#utility.yul\":8549:8688   */\n      swap3\n      swap2\n      pop\n      pop\n      jump\t// out\n        /* \"#utility.yul\":8694:9023   */\n    tag_41:\n        /* \"#utility.yul\":8753:8759   */\n      0x00\n        /* \"#utility.yul\":8802:8804   */\n      0x20\n        /* \"#utility.yul\":8790:8799   */\n      dup3\n        /* \"#utility.yul\":8781:8788   */\n      dup5\n        /* \"#utility.yul\":8777:8800   */\n      sub\n        /* \"#utility.yul\":8773:8805   */\n      slt\n        /* \"#utility.yul\":8770:8889   */\n      iszero\n      tag_249\n      jumpi\n        /* \"#utility.yul\":8808:8887   */\n      tag_250\n      tag_91\n      jump\t// in\n    tag_250:\n        /* \"#utility.yul\":8770:8889   */\n    tag_249:\n        /* \"#utility.yul\":8928:8929   */\n      0x00\n        /* \"#utility.yul\":8953:9006   */\n      tag_251\n        /* \"#utility.yul\":8998:9005   */\n      dup5\n        /* \"#utility.yul\":8989:8995   */\n      dup3\n        /* \"#utility.yul\":8978:8987   */\n      dup6\n        /* \"#utility.yul\":8974:8996   */\n      add\n        /* \"#utility.yul\":8953:9006   */\n      tag_123\n      jump\t// in\n    tag_251:\n        /* \"#utility.yul\":8943:9006   */\n      swap2\n      pop\n        /* \"#utility.yul\":8899:9016   */\n      pop\n        /* \"#utility.yul\":8694:9023   */\n      swap3\n      swap2\n      pop\n      pop\n      jump\t// out\n        /* \"#utility.yul\":9029:9251   */\n    tag_44:\n        /* \"#utility.yul\":9122:9126   */\n      0x00\n        /* \"#utility.yul\":9160:9162   */\n      0x20\n        /* \"#utility.yul\":9149:9158   */\n      dup3\n        /* \"#utility.yul\":9145:9163   */\n      add\n        /* \"#utility.yul\":9137:9163   */\n      swap1\n      pop\n        /* \"#utility.yul\":9173:9244   */\n      tag_253\n        /* \"#utility.yul\":9241:9242   */\n      0x00\n        /* \"#utility.yul\":9230:9239   */\n      dup4\n        /* \"#utility.yul\":9226:9243   */\n      add\n        /* \"#utility.yul\":9217:9223   */\n      dup5\n        /* \"#utility.yul\":9173:9244   */\n      tag_114\n      jump\t// in\n    tag_253:\n        /* \"#utility.yul\":9029:9251   */\n      swap3\n      swap2\n      pop\n      pop\n      jump\t// out\n        /* \"#utility.yul\":9257:9425   */\n    tag_124:\n        /* \"#utility.yul\":9397:9417   */\n      0x416c726561647920726567697374657265640000000000000000000000000000\n        /* \"#utility.yul\":9393:9394   */\n      0x00\n        /* \"#utility.yul\":9385:9391   */\n      dup3\n        /* \"#utility.yul\":9381:9395   */\n      add\n        /* \"#utility.yul\":9374:9418   */\n      mstore\n        /* \"#utility.yul\":9257:9425   */\n      pop\n      jump\t// out\n        /* \"#utility.yul\":9431:9797   */\n    tag_125:\n        /* \"#utility.yul\":9573:9576   */\n      0x00\n        /* \"#utility.yul\":9594:9661   */\n      tag_256\n        /* \"#utility.yul\":9658:9660   */\n      0x12\n        /* \"#utility.yul\":9653:9656   */\n      dup4\n        /* \"#utility.yul\":9594:9661   */\n      tag_116\n      jump\t// in\n    tag_256:\n        /* \"#utility.yul\":9587:9661   */\n      swap2\n      pop\n        /* \"#utility.yul\":9670:9763   */\n      tag_257\n        /* \"#utility.yul\":9759:9762   */\n      dup3\n        /* \"#utility.yul\":9670:9763   */\n      tag_124\n      jump\t// in\n    tag_257:\n        /* \"#utility.yul\":9788:9790   */\n      0x20\n        /* \"#utility.yul\":9783:9786   */\n      dup3\n        /* \"#utility.yul\":9779:9791   */\n      add\n        /* \"#utility.yul\":9772:9791   */\n      swap1\n      pop\n        /* \"#utility.yul\":9431:9797   */\n      swap2\n      swap1\n      pop\n      jump\t// out\n        /* \"#utility.yul\":9803:10222   */\n    tag_51:\n        /* \"#utility.yul\":9969:9973   */\n      0x00\n        /* \"#utility.yul\":10007:10009   */\n      0x20\n        /* \"#utility.yul\":9996:10005   */\n      dup3\n        /* \"#utility.yul\":9992:10010   */\n      add\n        /* \"#utility.yul\":9984:10010   */\n      swap1\n      pop\n        /* \"#utility.yul\":10056:10065   */\n      dup2\n        /* \"#utility.yul\":10050:10054   */\n      dup2\n        /* \"#utility.yul\":10046:10066   */\n      sub\n        /* \"#utility.yul\":10042:10043   */\n      0x00\n        /* \"#utility.yul\":10031:10040   */\n      dup4\n        /* \"#utility.yul\":10027:10044   */\n      add\n        /* \"#utility.yul\":10020:10067   */\n      mstore\n        /* \"#utility.yul\":10084:10215   */\n      tag_259\n        /* \"#utility.yul\":10210:10214   */\n      dup2\n        /* \"#utility.yul\":10084:10215   */\n      tag_125\n      jump\t// in\n    tag_259:\n        /* \"#utility.yul\":10076:10215   */\n      swap1\n      pop\n        /* \"#utility.yul\":9803:10222   */\n      swap2\n      swap1\n      pop\n      jump\t// out\n        /* \"#utility.yul\":10228:10395   */\n    tag_126:\n        /* \"#utility.yul\":10368:10387   */\n      0x496e76616c696420495046532068617368000000000000000000000000000000\n        /* \"#utility.yul\":10364:10365   */\n      0x00\n        /* \"#utility.yul\":10356:10362   */\n      dup3\n        /* \"#utility.yul\":10352:10366   */\n      add\n        /* \"#utility.yul\":10345:10388   */\n      mstore\n        /* \"#utility.yul\":10228:10395   */\n      pop\n      jump\t// out\n        /* \"#utility.yul\":10401:10767   */\n    tag_127:\n        /* \"#utility.yul\":10543:10546   */\n      0x00\n        /* \"#utility.yul\":10564:10631   */\n      tag_262\n        /* \"#utility.yul\":10628:10630   */\n      0x11\n        /* \"#utility.yul\":10623:10626   */\n      dup4\n        /* \"#utility.yul\":10564:10631   */\n      tag_116\n      jump\t// in\n    tag_262:\n        /* \"#utility.yul\":10557:10631   */\n      swap2\n      pop\n        /* \"#utility.yul\":10640:10733   */\n      tag_263\n        /* \"#utility.yul\":10729:10732   */\n      dup3\n        /* \"#utility.yul\":10640:10733   */\n      tag_126\n      jump\t// in\n    tag_263:\n        /* \"#utility.yul\":10758:10760   */\n      0x20\n        /* \"#utility.yul\":10753:10756   */\n      dup3\n        /* \"#utility.yul\":10749:10761   */\n      add\n        /* \"#utility.yul\":10742:10761   */\n      swap1\n      pop\n        /* \"#utility.yul\":10401:10767   */\n      swap2\n      swap1\n      pop\n      jump\t// out\n        /* \"#utility.yul\":10773:11192   */\n    tag_54:\n        /* \"#utility.yul\":10939:10943   */\n      0x00\n        /* \"#utility.yul\":10977:10979   */\n      0x20\n        /* \"#utility.yul\":10966:10975   */\n      dup3\n        /* \"#utility.yul\":10962:10980   */\n      add\n        /* \"#utility.yul\":10954:10980   */\n      swap1\n      pop\n        /* \"#utility.yul\":11026:11035   */\n      dup2\n        /* \"#utility.yul\":11020:11024   */\n      dup2\n        /* \"#utility.yul\":11016:11036   */\n      sub\n        /* \"#utility.yul\":11012:11013   */\n      0x00\n        /* \"#utility.yul\":11001:11010   */\n      dup4\n        /* \"#utility.yul\":10997:11014   */\n      add\n        /* \"#utility.yul\":10990:11037   */\n      mstore\n        /* \"#utility.yul\":11054:11185   */\n      tag_265\n        /* \"#utility.yul\":11180:11184   */\n      dup2\n        /* \"#utility.yul\":11054:11185   */\n      tag_127\n      jump\t// in\n    tag_265:\n        /* \"#utility.yul\":11046:11185   */\n      swap1\n      pop\n        /* \"#utility.yul\":10773:11192   */\n      swap2\n      swap1\n      pop\n      jump\t// out\n        /* \"#utility.yul\":11198:11378   */\n    tag_128:\n        /* \"#utility.yul\":11246:11323   */\n      0x4e487b7100000000000000000000000000000000000000000000000000000000\n        /* \"#utility.yul\":11243:11244   */\n      0x00\n        /* \"#utility.yul\":11236:11324   */\n      mstore\n        /* \"#utility.yul\":11343:11347   */\n      0x22\n        /* \"#utility.yul\":11340:11341   */\n      0x04\n        /* \"#utility.yul\":11333:11348   */\n      mstore\n        /* \"#utility.yul\":11367:11371   */\n      0x24\n        /* \"#utility.yul\":11364:11365   */\n      0x00\n        /* \"#utility.yul\":11357:11372   */\n      revert\n        /* \"#utility.yul\":11384:11704   */\n    tag_63:\n        /* \"#utility.yul\":11428:11434   */\n      0x00\n        /* \"#utility.yul\":11465:11466   */\n      0x02\n        /* \"#utility.yul\":11459:11463   */\n      dup3\n        /* \"#utility.yul\":11455:11467   */\n      div\n        /* \"#utility.yul\":11445:11467   */\n      swap1\n      pop\n        /* \"#utility.yul\":11512:11513   */\n      0x01\n        /* \"#utility.yul\":11506:11510   */\n      dup3\n        /* \"#utility.yul\":11502:11514   */\n      and\n        /* \"#utility.yul\":11533:11551   */\n      dup1\n        /* \"#utility.yul\":11523:11604   */\n      tag_268\n      jumpi\n        /* \"#utility.yul\":11589:11593   */\n      0x7f\n        /* \"#utility.yul\":11581:11587   */\n      dup3\n        /* \"#utility.yul\":11577:11594   */\n      and\n        /* \"#utility.yul\":11567:11594   */\n      swap2\n      pop\n        /* \"#utility.yul\":11523:11604   */\n    tag_268:\n        /* \"#utility.yul\":11651:11653   */\n      0x20\n        /* \"#utility.yul\":11643:11649   */\n      dup3\n        /* \"#utility.yul\":11640:11654   */\n      lt\n        /* \"#utility.yul\":11620:11638   */\n      dup2\n        /* \"#utility.yul\":11617:11655   */\n      sub\n        /* \"#utility.yul\":11614:11698   */\n      tag_269\n      jumpi\n        /* \"#utility.yul\":11670:11688   */\n      tag_270\n      tag_128\n      jump\t// in\n    tag_270:\n        /* \"#utility.yul\":11614:11698   */\n    tag_269:\n        /* \"#utility.yul\":11435:11704   */\n      pop\n        /* \"#utility.yul\":11384:11704   */\n      swap2\n      swap1\n      pop\n      jump\t// out\n        /* \"#utility.yul\":11710:11851   */\n    tag_129:\n        /* \"#utility.yul\":11759:11763   */\n      0x00\n        /* \"#utility.yul\":11782:11785   */\n      dup2\n        /* \"#utility.yul\":11774:11785   */\n      swap1\n      pop\n        /* \"#utility.yul\":11805:11808   */\n      dup2\n        /* \"#utility.yul\":11802:11803   */\n      0x00\n        /* \"#utility.yul\":11795:11809   */\n      mstore\n        /* \"#utility.yul\":11839:11843   */\n      0x20\n        /* \"#utility.yul\":11836:11837   */\n      0x00\n        /* \"#utility.yul\":11826:11844   */\n      keccak256\n        /* \"#utility.yul\":11818:11844   */\n      swap1\n      pop\n        /* \"#utility.yul\":11710:11851   */\n      swap2\n      swap1\n      pop\n      jump\t// out\n        /* \"#utility.yul\":11857:11950   */\n    tag_130:\n        /* \"#utility.yul\":11894:11900   */\n      0x00\n        /* \"#utility.yul\":11941:11943   */\n      0x20\n        /* \"#utility.yul\":11936:11938   */\n      0x1f\n        /* \"#utility.yul\":11929:11934   */\n      dup4\n        /* \"#utility.yul\":11925:11939   */\n      add\n        /* \"#utility.yul\":11921:11944   */\n      div\n        /* \"#utility.yul\":11911:11944   */\n      swap1\n      pop\n        /* \"#utility.yul\":11857:11950   */\n      swap2\n      swap1\n      pop\n      jump\t// out\n        /* \"#utility.yul\":11956:12063   */\n    tag_131:\n        /* \"#utility.yul\":12000:12008   */\n      0x00\n        /* \"#utility.yul\":12050:12055   */\n      dup3\n        /* \"#utility.yul\":12044:12048   */\n      dup3\n        /* \"#utility.yul\":12040:12056   */\n      shl\n        /* \"#utility.yul\":12019:12056   */\n      swap1\n      pop\n        /* \"#utility.yul\":11956:12063   */\n      swap3\n      swap2\n      pop\n      pop\n      jump\t// out\n        /* \"#utility.yul\":12069:12462   */\n    tag_132:\n        /* \"#utility.yul\":12138:12144   */\n      0x00\n        /* \"#utility.yul\":12188:12189   */\n      0x08\n        /* \"#utility.yul\":12176:12186   */\n      dup4\n        /* \"#utility.yul\":12172:12190   */\n      mul\n        /* \"#utility.yul\":12211:12308   */\n      tag_275\n        /* \"#utility.yul\":12241:12307   */\n      0xffffffffffffffffffffffffffffffffffffffffffffffffffffffffffffffff\n        /* \"#utility.yul\":12230:12239   */\n      dup3\n        /* \"#utility.yul\":12211:12308   */\n      tag_131\n      jump\t// in\n    tag_275:\n        /* \"#utility.yul\":12329:12368   */\n      tag_276\n        /* \"#utility.yul\":12359:12367   */\n      dup7\n        /* \"#utility.yul\":12348:12357   */\n      dup4\n        /* \"#utility.yul\":12329:12368   */\n      tag_131\n      jump\t// in\n    tag_276:\n        /* \"#utility.yul\":12317:12368   */\n      swap6\n      pop\n        /* \"#utility.yul\":12401:12405   */\n      dup1\n        /* \"#utility.yul\":12397:12406   */\n      not\n        /* \"#utility.yul\":12390:12395   */\n      dup5\n        /* \"#utility.yul\":12386:12407   */\n      and\n        /* \"#utility.yul\":12377:12407   */\n      swap4\n      pop\n        /* \"#utility.yul\":12450:12454   */\n      dup1\n        /* \"#utility.yul\":12440:12448   */\n      dup7\n        /* \"#utility.yul\":12436:12455   */\n      and\n        /* \"#utility.yul\":12429:12434   */\n      dup5\n        /* \"#utility.yul\":12426:12456   */\n      or\n        /* \"#utility.yul\":12416:12456   */\n      swap3\n      pop\n        /* \"#utility.yul\":12145:12462   */\n      pop\n      pop\n        /* \"#utility.yul\":12069:12462   */\n      swap4\n      swap3\n      pop\n      pop\n      pop\n      jump\t// out\n        /* \"#utility.yul\":12468:12528   */\n    tag_133:\n        /* \"#utility.yul\":12496:12499   */\n      0x00\n        /* \"#utility.yul\":12517:12522   */\n      dup2\n        /* \"#utility.yul\":12510:12522   */\n      swap1\n      pop\n        /* \"#utility.yul\":12468:12528   */\n      swap2\n      swap1\n      pop\n      jump\t// out\n        /* \"#utility.yul\":12534:12676   */\n    tag_134:\n        /* \"#utility.yul\":12584:12593   */\n      0x00\n        /* \"#utility.yul\":12617:12670   */\n      tag_279\n        /* \"#utility.yul\":12635:12669   */\n      tag_280\n        /* \"#utility.yul\":12644:12668   */\n      tag_281\n        /* \"#utility.yul\":12662:12667   */\n      dup5\n        /* \"#utility.yul\":12644:12668   */\n      tag_121\n      jump\t// in\n    tag_281:\n        /* \"#utility.yul\":12635:12669   */\n      tag_133\n      jump\t// in\n    tag_280:\n        /* \"#utility.yul\":12617:12670   */\n      tag_121\n      jump\t// in\n    tag_279:\n        /* \"#utility.yul\":12604:12670   */\n      swap1\n      pop\n        /* \"#utility.yul\":12534:12676   */\n      swap2\n      swap1\n      pop\n      jump\t// out\n        /* \"#utility.yul\":12682:12757   */\n    tag_135:\n        /* \"#utility.yul\":12725:12728   */\n      0x00\n        /* \"#utility.yul\":12746:12751   */\n      dup2\n        /* \"#utility.yul\":12739:12751   */\n      swap1\n      pop\n        /* \"#utility.yul\":12682:12757   */\n      swap2\n      swap1\n      pop\n      jump\t// out\n        /* \"#utility.yul\":12763:13032   */\n    tag_136:\n        /* \"#utility.yul\":12873:12912   */\n      tag_284\n        /* \"#utility.yul\":12904:12911   */\n      dup4\n        /* \"#utility.yul\":12873:12912   */\n      tag_134\n      jump\t// in\n    tag_284:\n        /* \"#utility.yul\":12934:13025   */\n      tag_285\n        /* \"#utility.yul\":12983:13024   */\n      tag_286\n        /* \"#utility.yul\":13007:13023   */\n      dup3\n        /* \"#utility.yul\":12983:13024   */\n      tag_135\n      jump\t// in\n    tag_286:\n        /* \"#utility.yul\":12975:12981   */\n      dup5\n        /* \"#utility.yul\":12968:12972   */\n      dup5\n        /* \"#utility.yul\":12962:12973   */\n      sload\n        /* \"#utility.yul\":12934:13025   */\n      tag_132\n      jump\t// in\n    tag_285:\n        /* \"#utility.yul\":12928:12932   */\n      dup3\n        /* \"#utility.yul\":12921:13026   */\n      sstore\n        /* \"#utility.yul\":12839:13032   */\n      pop\n        /* \"#utility.yul\":12763:13032   */\n      pop\n      pop\n      pop\n      jump\t// out\n        /* \"#utility.yul\":13038:13111   */\n    tag_137:\n        /* \"#utility.yul\":13083:13086   */\n      0x00\n        /* \"#utility.yul\":13038:13111   */\n      swap1\n      jump\t// out\n        /* \"#utility.yul\":13117:13306   */\n    tag_138:\n        /* \"#utility.yul\":13194:13226   */\n      tag_289\n      tag_137\n      jump\t// in\n    tag_289:\n        /* \"#utility.yul\":13235:13300   */\n      tag_290\n        /* \"#utility.yul\":13293:13299   */\n      dup2\n        /* \"#utility.yul\":13285:13291   */\n      dup5\n        /* \"#utility.yul\":13279:13283   */\n      dup5\n        /* \"#utility.yul\":13235:13300   */\n      tag_136\n      jump\t// in\n    tag_290:\n        /* \"#utility.yul\":13170:13306   */\n      pop\n        /* \"#utility.yul\":13117:13306   */\n      pop\n      pop\n      jump\t// out\n        /* \"#utility.yul\":13312:13498   */\n    tag_139:\n        /* \"#utility.yul\":13372:13492   */\n    tag_292:\n        /* \"#utility.yul\":13389:13392   */\n      dup2\n        /* \"#utility.yul\":13382:13387   */\n      dup2\n        /* \"#utility.yul\":13379:13393   */\n      lt\n        /* \"#utility.yul\":13372:13492   */\n      iszero\n      tag_294\n      jumpi\n        /* \"#utility.yul\":13443:13482   */\n      tag_295\n        /* \"#utility.yul\":13480:13481   */\n      0x00\n        /* \"#utility.yul\":13473:13478   */\n      dup3\n        /* \"#utility.yul\":13443:13482   */\n      tag_138\n      jump\t// in\n    tag_295:\n        /* \"#utility.yul\":13416:13417   */\n      0x01\n        /* \"#utility.yul\":13409:13414   */\n      dup2\n        /* \"#utility.yul\":13405:13418   */\n      add\n        /* \"#utility.yul\":13396:13418   */\n      swap1\n      pop\n        /* \"#utility.yul\":13372:13492   */\n      jump(tag_292)\n    tag_294:\n        /* \"#utility.yul\":13312:13498   */\n      pop\n      pop\n      jump\t// out\n        /* \"#utility.yul\":13504:14047   */\n    tag_140:\n        /* \"#utility.yul\":13605:13607   */\n      0x1f\n        /* \"#utility.yul\":13600:13603   */\n      dup3\n        /* \"#utility.yul\":13597:13608   */\n      gt\n        /* \"#utility.yul\":13594:14040   */\n      iszero\n      tag_297\n      jumpi\n        /* \"#utility.yul\":13639:13677   */\n      tag_298\n        /* \"#utility.yul\":13671:13676   */\n      dup2\n        /* \"#utility.yul\":13639:13677   */\n      tag_129\n      jump\t// in\n    tag_298:\n        /* \"#utility.yul\":13723:13752   */\n      tag_299\n        /* \"#utility.yul\":13741:13751   */\n      dup5\n        /* \"#utility.yul\":13723:13752   */\n      tag_130\n      jump\t// in\n    tag_299:\n        /* \"#utility.yul\":13713:13721   */\n      dup2\n        /* \"#utility.yul\":13709:13753   */\n      add\n        /* \"#utility.yul\":13906:13908   */\n      0x20\n        /* \"#utility.yul\":13894:13904   */\n      dup6\n        /* \"#utility.yul\":13891:13909   */\n      lt\n        /* \"#utility.yul\":13888:13937   */\n      iszero\n      tag_300\n      jumpi\n        /* \"#utility.yul\":13927:13935   */\n      dup2\n        /* \"#utility.yul\":13912:13935   */\n      swap1\n      pop\n        /* \"#utility.yul\":13888:13937   */\n    tag_300:\n        /* \"#utility.yul\":13950:14030   */\n      tag_301\n        /* \"#utility.yul\":14006:14028   */\n      tag_302\n        /* \"#utility.yul\":14024:14027   */\n      dup6\n        /* \"#utility.yul\":14006:14028   */\n      tag_130\n      jump\t// in\n    tag_302:\n        /* \"#utility.yul\":13996:14004   */\n      dup4\n        /* \"#utility.yul\":13992:14029   */\n      add\n        /* \"#utility.yul\":13979:13990   */\n      dup3\n        /* \"#utility.yul\":13950:14030   */\n      tag_139\n      jump\t// in\n    tag_301:\n        /* \"#utility.yul\":13609:14040   */\n      pop\n      pop\n        /* \"#utility.yul\":13594:14040   */\n    tag_297:\n        /* \"#utility.yul\":13504:14047   */\n      pop\n      pop\n      pop\n      jump\t// out\n        /* \"#utility.yul\":14053:14170   */\n    tag_141:\n        /* \"#utility.yul\":14107:14115   */\n      0x00\n        /* \"#utility.yul\":14157:14162   */\n      dup3\n        /* \"#utility.yul\":14151:14155   */\n      dup3\n        /* \"#utility.yul\":14147:14163   */\n      shr\n        /* \"#utility.yul\":14126:14163   */\n      swap1\n      pop\n        /* \"#utility.yul\":14053:14170   */\n      swap3\n      swap2\n      pop\n      pop\n      jump\t// out\n        /* \"#utility.yul\":14176:14345   */\n    tag_142:\n        /* \"#utility.yul\":14220:14226   */\n      0x00\n        /* \"#utility.yul\":14253:14304   */\n      tag_305\n        /* \"#utility.yul\":14301:14302   */\n      0x00\n        /* \"#utility.yul\":14297:14303   */\n      not\n        /* \"#utility.yul\":14289:14294   */\n      dup5\n        /* \"#utility.yul\":14286:14287   */\n      0x08\n        /* \"#utility.yul\":14282:14295   */\n      mul\n        /* \"#utility.yul\":14253:14304   */\n      tag_141\n      jump\t// in\n    tag_305:\n        /* \"#utility.yul\":14249:14305   */\n      not\n        /* \"#utility.yul\":14334:14338   */\n      dup1\n        /* \"#utility.yul\":14328:14332   */\n      dup4\n        /* \"#utility.yul\":14324:14339   */\n      and\n        /* \"#utility.yul\":14314:14339   */\n      swap2\n      pop\n        /* \"#utility.yul\":14227:14345   */\n      pop\n        /* \"#utility.yul\":14176:14345   */\n      swap3\n      swap2\n      pop\n      pop\n      jump\t// out\n        /* \"#utility.yul\":14350:14645   */\n    tag_143:\n        /* \"#utility.yul\":14426:14430   */\n      0x00\n        /* \"#utility.yul\":14572:14601   */\n      tag_307\n        /* \"#utility.yul\":14597:14600   */\n      dup4\n        /* \"#utility.yul\":14591:14595   */\n      dup4\n        /* \"#utility.yul\":14572:14601   */\n      tag_142\n      jump\t// in\n    tag_307:\n        /* \"#utility.yul\":14564:14601   */\n      swap2\n      pop\n        /* \"#utility.yul\":14634:14637   */\n      dup3\n        /* \"#utility.yul\":14631:14632   */\n      0x02\n        /* \"#utility.yul\":14627:14638   */\n      mul\n        /* \"#utility.yul\":14621:14625   */\n      dup3\n        /* \"#utility.yul\":14618:14639   */\n      or\n        /* \"#utility.yul\":14610:14639   */\n      swap1\n      pop\n        /* \"#utility.yul\":14350:14645   */\n      swap3\n      swap2\n      pop\n      pop\n      jump\t// out\n        /* \"#utility.yul\":14650:16045   */\n    tag_56:\n        /* \"#utility.yul\":14767:14804   */\n      tag_309\n        /* \"#utility.yul\":14800:14803   */\n      dup3\n        /* \"#utility.yul\":14767:14804   */\n      tag_115\n      jump\t// in\n    tag_309:\n        /* \"#utility.yul\":14869:14887   */\n      0xffffffffffffffff\n        /* \"#utility.yul\":14861:14867   */\n      dup2\n        /* \"#utility.yul\":14858:14888   */\n      gt\n        /* \"#utility.yul\":14855:14911   */\n      iszero\n      tag_310\n      jumpi\n        /* \"#utility.yul\":14891:14909   */\n      tag_311\n      tag_96\n      jump\t// in\n    tag_311:\n        /* \"#utility.yul\":14855:14911   */\n    tag_310:\n        /* \"#utility.yul\":14935:14973   */\n      tag_312\n        /* \"#utility.yul\":14967:14971   */\n      dup3\n        /* \"#utility.yul\":14961:14972   */\n      sload\n        /* \"#utility.yul\":14935:14973   */\n      tag_63\n      jump\t// in\n    tag_312:\n        /* \"#utility.yul\":15020:15087   */\n      tag_313\n        /* \"#utility.yul\":15080:15086   */\n      dup3\n        /* \"#utility.yul\":15072:15078   */\n      dup3\n        /* \"#utility.yul\":15066:15070   */\n      dup6\n        /* \"#utility.yul\":15020:15087   */\n      tag_140\n      jump\t// in\n    tag_313:\n        /* \"#utility.yul\":15114:15115   */\n      0x00\n        /* \"#utility.yul\":15138:15142   */\n      0x20\n        /* \"#utility.yul\":15125:15142   */\n      swap1\n      pop\n        /* \"#utility.yul\":15170:15172   */\n      0x1f\n        /* \"#utility.yul\":15162:15168   */\n      dup4\n        /* \"#utility.yul\":15159:15173   */\n      gt\n        /* \"#utility.yul\":15187:15188   */\n      0x01\n        /* \"#utility.yul\":15182:15800   */\n      dup2\n      eq\n      tag_315\n      jumpi\n        /* \"#utility.yul\":15844:15845   */\n      0x00\n        /* \"#utility.yul\":15861:15867   */\n      dup5\n        /* \"#utility.yul\":15858:15935   */\n      iszero\n      tag_316\n      jumpi\n        /* \"#utility.yul\":15910:15919   */\n      dup3\n        /* \"#utility.yul\":15905:15908   */\n      dup8\n        /* \"#utility.yul\":15901:15920   */\n      add\n        /* \"#utility.yul\":15895:15921   */\n      mload\n        /* \"#utility.yul\":15886:15921   */\n      swap1\n      pop\n        /* \"#utility.yul\":15858:15935   */\n    tag_316:\n        /* \"#utility.yul\":15961:16028   */\n      tag_317\n        /* \"#utility.yul\":16021:16027   */\n      dup6\n        /* \"#utility.yul\":16014:16019   */\n      dup3\n        /* \"#utility.yul\":15961:16028   */\n      tag_143\n      jump\t// in\n    tag_317:\n        /* \"#utility.yul\":15955:15959   */\n      dup7\n        /* \"#utility.yul\":15948:16029   */\n      sstore\n        /* \"#utility.yul\":15817:16039   */\n      pop\n        /* \"#utility.yul\":15152:16039   */\n      jump(tag_314)\n        /* \"#utility.yul\":15182:15800   */\n    tag_315:\n        /* \"#utility.yul\":15234:15238   */\n      0x1f\n        /* \"#utility.yul\":15230:15239   */\n      not\n        /* \"#utility.yul\":15222:15228   */\n      dup5\n        /* \"#utility.yul\":15218:15240   */\n      and\n        /* \"#utility.yul\":15268:15305   */\n      tag_318\n        /* \"#utility.yul\":15300:15304   */\n      dup7\n        /* \"#utility.yul\":15268:15305   */\n      tag_129\n      jump\t// in\n    tag_318:\n        /* \"#utility.yul\":15327:15328   */\n      0x00\n        /* \"#utility.yul\":15341:15549   */\n    tag_319:\n        /* \"#utility.yul\":15355:15362   */\n      dup3\n        /* \"#utility.yul\":15352:15353   */\n      dup2\n        /* \"#utility.yul\":15349:15363   */\n      lt\n        /* \"#utility.yul\":15341:15549   */\n      iszero\n      tag_321\n      jumpi\n        /* \"#utility.yul\":15434:15443   */\n      dup5\n        /* \"#utility.yul\":15429:15432   */\n      dup10\n        /* \"#utility.yul\":15425:15444   */\n      add\n        /* \"#utility.yul\":15419:15445   */\n      mload\n        /* \"#utility.yul\":15411:15417   */\n      dup3\n        /* \"#utility.yul\":15404:15446   */\n      sstore\n        /* \"#utility.yul\":15485:15486   */\n      0x01\n        /* \"#utility.yul\":15477:15483   */\n      dup3\n        /* \"#utility.yul\":15473:15487   */\n      add\n        /* \"#utility.yul\":15463:15487   */\n      swap2\n      pop\n        /* \"#utility.yul\":15532:15534   */\n      0x20\n        /* \"#utility.yul\":15521:15530   */\n      dup6\n        /* \"#utility.yul\":15517:15535   */\n      add\n        /* \"#utility.yul\":15504:15535   */\n      swap5\n      pop\n        /* \"#utility.yul\":15378:15382   */\n      0x20\n        /* \"#utility.yul\":15375:15376   */\n      dup2\n        /* \"#utility.yul\":15371:15383   */\n      add\n        /* \"#utility.yul\":15366:15383   */\n      swap1\n      pop\n        /* \"#utility.yul\":15341:15549   */\n      jump(tag_319)\n    tag_321:\n        /* \"#utility.yul\":15577:15583   */\n      dup7\n        /* \"#utility.yul\":15568:15575   */\n      dup4\n        /* \"#utility.yul\":15565:15584   */\n      lt\n        /* \"#utility.yul\":15562:15741   */\n      iszero\n      tag_322\n      jumpi\n        /* \"#utility.yul\":15635:15644   */\n      dup5\n        /* \"#utility.yul\":15630:15633   */\n      dup10\n        /* \"#utility.yul\":15626:15645   */\n      add\n        /* \"#utility.yul\":15620:15646   */\n      mload\n        /* \"#utility.yul\":15678:15726   */\n      tag_323\n        /* \"#utility.yul\":15720:15724   */\n      0x1f\n        /* \"#utility.yul\":15712:15718   */\n      dup10\n        /* \"#utility.yul\":15708:15725   */\n      and\n        /* \"#utility.yul\":15697:15706   */\n      dup3\n        /* \"#utility.yul\":15678:15726   */\n      tag_142\n      jump\t// in\n    tag_323:\n        /* \"#utility.yul\":15670:15676   */\n      dup4\n        /* \"#utility.yul\":15663:15727   */\n      sstore\n        /* \"#utility.yul\":15585:15741   */\n      pop\n        /* \"#utility.yul\":15562:15741   */\n    tag_322:\n        /* \"#utility.yul\":15787:15788   */\n      0x01\n        /* \"#utility.yul\":15783:15784   */\n      0x02\n        /* \"#utility.yul\":15775:15781   */\n      dup9\n        /* \"#utility.yul\":15771:15785   */\n      mul\n        /* \"#utility.yul\":15767:15789   */\n      add\n        /* \"#utility.yul\":15761:15765   */\n      dup9\n        /* \"#utility.yul\":15754:15790   */\n      sstore\n        /* \"#utility.yul\":15189:15800   */\n      pop\n      pop\n      pop\n        /* \"#utility.yul\":15152:16039   */\n    tag_314:\n      pop\n        /* \"#utility.yul\":14742:16045   */\n      pop\n      pop\n      pop\n        /* \"#utility.yul\":14650:16045   */\n      pop\n      pop\n      jump\t// out\n        /* \"#utility.yul\":16051:16222   */\n    tag_144:\n        /* \"#utility.yul\":16191:16214   */\n      0x446f63746f72206e6f7420726567697374657265640000000000000000000000\n        /* \"#utility.yul\":16187:16188   */\n      0x00\n        /* \"#utility.yul\":16179:16185   */\n      dup3\n        /* \"#utility.yul\":16175:16189   */\n      add\n        /* \"#utility.yul\":16168:16215   */\n      mstore\n        /* \"#utility.yul\":16051:16222   */\n      pop\n      jump\t// out\n        /* \"#utility.yul\":16228:16594   */\n    tag_145:\n        /* \"#utility.yul\":16370:16373   */\n      0x00\n        /* \"#utility.yul\":16391:16458   */\n      tag_326\n        /* \"#utility.yul\":16455:16457   */\n      0x15\n        /* \"#utility.yul\":16450:16453   */\n      dup4\n        /* \"#utility.yul\":16391:16458   */\n      tag_116\n      jump\t// in\n    tag_326:\n        /* \"#utility.yul\":16384:16458   */\n      swap2\n      pop\n        /* \"#utility.yul\":16467:16560   */\n      tag_327\n        /* \"#utility.yul\":16556:16559   */\n      dup3\n        /* \"#utility.yul\":16467:16560   */\n      tag_144\n      jump\t// in\n    tag_327:\n        /* \"#utility.yul\":16585:16587   */\n      0x20\n        /* \"#utility.yul\":16580:16583   */\n      dup3\n        /* \"#utility.yul\":16576:16588   */\n      add\n        /* \"#utility.yul\":16569:16588   */\n      swap1\n      pop\n        /* \"#utility.yul\":16228:16594   */\n      swap2\n      swap1\n      pop\n      jump\t// out\n        /* \"#utility.yul\":16600:17019   */\n    tag_72:\n        /* \"#utility.yul\":16766:16770   */\n      0x00\n        /* \"#utility.yul\":16804:16806   */\n      0x20\n        /* \"#utility.yul\":16793:16802   */\n      dup3\n        /* \"#utility.yul\":16789:16807   */\n      add\n        /* \"#utility.yul\":16781:16807   */\n      swap1\n      pop\n        /* \"#utility.yul\":16853:16862   */\n      dup2\n        /* \"#utility.yul\":16847:16851   */\n      dup2\n        /* \"#utility.yul\":16843:16863   */\n      sub\n        /* \"#utility.yul\":16839:16840   */\n      0x00\n        /* \"#utility.yul\":16828:16837   */\n      dup4\n        /* \"#utility.yul\":16824:16841   */\n      add\n        /* \"#utility.yul\":16817:16864   */\n      mstore\n        /* \"#utility.yul\":16881:17012   */\n      tag_329\n        /* \"#utility.yul\":17007:17011   */\n      dup2\n        /* \"#utility.yul\":16881:17012   */\n      tag_145\n      jump\t// in\n    tag_329:\n        /* \"#utility.yul\":16873:17012   */\n      swap1\n      pop\n        /* \"#utility.yul\":16600:17019   */\n      swap2\n      swap1\n      pop\n      jump\t// out\n        /* \"#utility.yul\":17025:17184   */\n    tag_146:\n        /* \"#utility.yul\":17165:17176   */\n      0x4e6f742061646d696e0000000000000000000000000000000000000000000000\n        /* \"#utility.yul\":17161:17162   */\n      0x00\n        /* \"#utility.yul\":17153:17159   */\n      dup3\n        /* \"#utility.yul\":17149:17163   */\n      add\n        /* \"#utility.yul\":17142:17177   */\n      mstore\n        /* \"#utility.yul\":17025:17184   */\n      pop\n      jump\t// out\n        /* \"#utility.yul\":17190:17555   */\n    tag_147:\n        /* \"#utility.yul\":17332:17335   */\n      0x00\n        /* \"#utility.yul\":17353:17419   */\n      tag_332\n        /* \"#utility.yul\":17417:17418   */\n      0x09\n        /* \"#utility.yul\":17412:17415   */\n      dup4\n        /* \"#utility.yul\":17353:17419   */\n      tag_116\n      jump\t// in\n    tag_332:\n        /* \"#utility.yul\":17346:17419   */\n      swap2\n      pop\n        /* \"#utility.yul\":17428:17521   */\n      tag_333\n        /* \"#utility.yul\":17517:17520   */\n      dup3\n        /* \"#utility.yul\":17428:17521   */\n      tag_146\n      jump\t// in\n    tag_333:\n        /* \"#utility.yul\":17546:17548   */\n      0x20\n        /* \"#utility.yul\":17541:17544   */\n      dup3\n        /* \"#utility.yul\":17537:17549   */\n      add\n        /* \"#utility.yul\":17530:17549   */\n      swap1\n      pop\n        /* \"#utility.yul\":17190:17555   */\n      swap2\n      swap1\n      pop\n      jump\t// out\n        /* \"#utility.yul\":17561:17980   */\n    tag_81:\n        /* \"#utility.yul\":17727:17731   */\n      0x00\n        /* \"#utility.yul\":17765:17767   */\n      0x20\n        /* \"#utility.yul\":17754:17763   */\n      dup3\n        /* \"#utility.yul\":17750:17768   */\n      add\n        /* \"#utility.yul\":17742:17768   */\n      swap1\n      pop\n        /* \"#utility.yul\":17814:17823   */\n      dup2\n        /* \"#utility.yul\":17808:17812   */\n      dup2\n        /* \"#utility.yul\":17804:17824   */\n      sub\n        /* \"#utility.yul\":17800:17801   */\n      0x00\n        /* \"#utility.yul\":17789:17798   */\n      dup4\n        /* \"#utility.yul\":17785:17802   */\n      add\n        /* \"#utility.yul\":17778:17825   */\n      mstore\n        /* \"#utility.yul\":17842:17973   */\n      tag_335\n        /* \"#utility.yul\":17968:17972   */\n      dup2\n        /* \"#utility.yul\":17842:17973   */\n      tag_147\n      jump\t// in\n    tag_335:\n        /* \"#utility.yul\":17834:17973   */\n      swap1\n      pop\n        /* \"#utility.yul\":17561:17980   */\n      swap2\n      swap1\n      pop\n      jump\t// out\n        /* \"#utility.yul\":17986:18152   */\n    tag_148:\n        /* \"#utility.yul\":18126:18144   */\n      0x416c726561647920766572696669656400000000000000000000000000000000\n        /* \"#utility.yul\":18122:18123   */\n      0x00\n        /* \"#utility.yul\":18114:18120   */\n      dup3\n        /* \"#utility.yul\":18110:18124   */\n      add\n        /* \"#utility.yul\":18103:18145   */\n      mstore\n        /* \"#utility.yul\":17986:18152   */\n      pop\n      jump\t// out\n        /* \"#utility.yul\":18158:18524   */\n    tag_149:\n        /* \"#utility.yul\":18300:18303   */\n      0x00\n        /* \"#utility.yul\":18321:18388   */\n      tag_338\n        /* \"#utility.yul\":18385:18387   */\n      0x10\n        /* \"#utility.yul\":18380:18383   */\n      dup4\n        /* \"#utility.yul\":18321:18388   */\n      tag_116\n      jump\t// in\n    tag_338:\n        /* \"#utility.yul\":18314:18388   */\n      swap2\n      pop\n        /* \"#utility.yul\":18397:18490   */\n      tag_339\n        /* \"#utility.yul\":18486:18489   */\n      dup3\n        /* \"#utility.yul\":18397:18490   */\n      tag_148\n      jump\t// in\n    tag_339:\n        /* \"#utility.yul\":18515:18517   */\n      0x20\n        /* \"#utility.yul\":18510:18513   */\n      dup3\n        /* \"#utility.yul\":18506:18518   */\n      add\n        /* \"#utility.yul\":18499:18518   */\n      swap1\n      pop\n        /* \"#utility.yul\":18158:18524   */\n      swap2\n      swap1\n      pop\n      jump\t// out\n        /* \"#utility.yul\":18530:18949   */\n    tag_87:\n        /* \"#utility.yul\":18696:18700   */\n      0x00\n        /* \"#utility.yul\":18734:18736   */\n      0x20\n        /* \"#utility.yul\":18723:18732   */\n      dup3\n        /* \"#utility.yul\":18719:18737   */\n      add\n        /* \"#utility.yul\":18711:18737   */\n      swap1\n      pop\n        /* \"#utility.yul\":18783:18792   */\n      dup2\n        /* \"#utility.yul\":18777:18781   */\n      dup2\n        /* \"#utility.yul\":18773:18793   */\n      sub\n        /* \"#utility.yul\":18769:18770   */\n      0x00\n        /* \"#utility.yul\":18758:18767   */\n      dup4\n        /* \"#utility.yul\":18754:18771   */\n      add\n        /* \"#utility.yul\":18747:18794   */\n      mstore\n        /* \"#utility.yul\":18811:18942   */\n      tag_341\n        /* \"#utility.yul\":18937:18941   */\n      dup2\n        /* \"#utility.yul\":18811:18942   */\n      tag_149\n      jump\t// in\n    tag_341:\n        /* \"#utility.yul\":18803:18942   */\n      swap1\n      pop\n        /* \"#utility.yul\":18530:18949   */\n      swap2\n      swap1\n      pop\n      jump\t// out\n\n    auxdata: 0xa2646970667358221220991d2d45abadedcd7fe85a25258593eb3b59ef04c7d6e486f5fe59c6da8c7b6a64736f6c634300081e0033\n}\n",
				"bytecode": {
					"linkReferences": {},
					"object": "6080604052348015600f57600080fd5b50336000806101000a81548173ffffffffffffffffffffffffffffffffffffffff021916908373ffffffffffffffffffffffffffffffffffffffff1602179055506114428061005f6000396000f3fe608060405234801561001057600080fd5b50600436106100885760003560e01c8063bab90dbd1161005b578063bab90dbd1461012a578063d80cb05c1461015a578063f06985ac14610176578063f851a440146101a657610088565b80638f09ab5b1461008d5780638f7741ac146100a9578063a9583c22146100c7578063b9209e33146100fa575b600080fd5b6100a760048036038101906100a29190610bae565b6101c4565b005b6100b1610468565b6040516100be9190610ce7565b60405180910390f35b6100e160048036038101906100dc9190610d35565b6104f6565b6040516100f19493929190610e0b565b60405180910390f35b610114600480360381019061010f9190610d35565b6105e8565b6040516101219190610e57565b60405180910390f35b610144600480360381019061013f9190610d35565b610641565b6040516101519190610e72565b60405180910390f35b610174600480360381019061016f9190610d35565b6107a4565b005b610190600480360381019061018b9190610eca565b6109f1565b60405161019d9190610ef7565b60405180910390f35b6101ae610a30565b6040516101bb9190610ef7565b60405180910390f35b600160003373ffffffffffffffffffffffffffffffffffffffff1673ffffffffffffffffffffffffffffffffffffffff16815260200190815260200160002060020160019054906101000a900460ff1615610254576040517f08c379a000000000000000000000000000000000000000000000000000000000815260040161024b90610f5e565b60405180910390fd5b6000815111610298576040517f08c379a000000000000000000000000000000000000000000000000000000000815260040161028f90610fca565b60405180910390fd5b60405180608001604052803373ffffffffffffffffffffffffffffffffffffffff16815260200182815260200160001515815260200160011515815250600160003373ffffffffffffffffffffffffffffffffffffffff1673ffffffffffffffffffffffffffffffffffffffff16815260200190815260200160002060008201518160000160006101000a81548173ffffffffffffffffffffffffffffffffffffffff021916908373ffffffffffffffffffffffffffffffffffffffff160217905550602082015181600101908161037091906111f6565b5060408201518160020160006101000a81548160ff02191690831515021790555060608201518160020160016101000a81548160ff0219169083151502179055509050506002339080600181540180825580915050600190039060005260206000200160009091909190916101000a81548173ffffffffffffffffffffffffffffffffffffffff021916908373ffffffffffffffffffffffffffffffffffffffff1602179055503373ffffffffffffffffffffffffffffffffffffffff167f20481b8112b5bf4734f45a473c373db9df6a79ce946cdc0e7dbc22b4f7d7f9868260405161045d9190610e72565b60405180910390a250565b606060028054806020026020016040519081016040528092919081815260200182805480156104ec57602002820191906000526020600020905b8160009054906101000a900473ffffffffffffffffffffffffffffffffffffffff1673ffffffffffffffffffffffffffffffffffffffff16815260200190600101908083116104a2575b5050505050905090565b60016020528060005260406000206000915090508060000160009054906101000a900473ffffffffffffffffffffffffffffffffffffffff169080600101805461053f90611019565b80601f016020809104026020016040519081016040528092919081815260200182805461056b90611019565b80156105b85780601f1061058d576101008083540402835291602001916105b8565b820191906000526020600020905b81548152906001019060200180831161059b57829003601f168201915b5050505050908060020160009054906101000a900460ff16908060020160019054906101000a900460ff16905084565b6000600160008373ffffffffffffffffffffffffffffffffffffffff1673ffffffffffffffffffffffffffffffffffffffff16815260200190815260200160002060020160009054906101000a900460ff169050919050565b6060600160008373ffffffffffffffffffffffffffffffffffffffff1673ffffffffffffffffffffffffffffffffffffffff16815260200190815260200160002060020160019054906101000a900460ff166106d2576040517f08c379a00000000000000000000000000000000000000000000000000000000081526004016106c990611314565b60405180910390fd5b600160008373ffffffffffffffffffffffffffffffffffffffff1673ffffffffffffffffffffffffffffffffffffffff168152602001908152602001600020600101805461071f90611019565b80601f016020809104026020016040519081016040528092919081815260200182805461074b90611019565b80156107985780601f1061076d57610100808354040283529160200191610798565b820191906000526020600020905b81548152906001019060200180831161077b57829003601f168201915b50505050509050919050565b60008054906101000a900473ffffffffffffffffffffffffffffffffffffffff1673ffffffffffffffffffffffffffffffffffffffff163373ffffffffffffffffffffffffffffffffffffffff1614610832576040517f08c379a000000000000000000000000000000000000000000000000000000000815260040161082990611380565b60405180910390fd5b600160008273ffffffffffffffffffffffffffffffffffffffff1673ffffffffffffffffffffffffffffffffffffffff16815260200190815260200160002060020160019054906101000a900460ff166108c1576040517f08c379a00000000000000000000000000000000000000000000000000000000081526004016108b890611314565b60405180910390fd5b600160008273ffffffffffffffffffffffffffffffffffffffff1673ffffffffffffffffffffffffffffffffffffffff16815260200190815260200160002060020160009054906101000a900460ff1615610951576040517f08c379a0000000000000000000000000000000000000000000000000000000008152600401610948906113ec565b60405180910390fd5b60018060008373ffffffffffffffffffffffffffffffffffffffff1673ffffffffffffffffffffffffffffffffffffffff16815260200190815260200160002060020160006101000a81548160ff0219169083151502179055508073ffffffffffffffffffffffffffffffffffffffff167fb0859f2cf042b300c8948cdd785ec6a23a3742bc5446c19f4b270b67fac2c96760405160405180910390a250565b60028181548110610a0157600080fd5b906000526020600020016000915054906101000a900473ffffffffffffffffffffffffffffffffffffffff1681565b60008054906101000a900473ffffffffffffffffffffffffffffffffffffffff1681565b6000604051905090565b600080fd5b600080fd5b600080fd5b600080fd5b6000601f19601f8301169050919050565b7f4e487b7100000000000000000000000000000000000000000000000000000000600052604160045260246000fd5b610abb82610a72565b810181811067ffffffffffffffff82111715610ada57610ad9610a83565b5b80604052505050565b6000610aed610a54565b9050610af98282610ab2565b919050565b600067ffffffffffffffff821115610b1957610b18610a83565b5b610b2282610a72565b9050602081019050919050565b82818337600083830152505050565b6000610b51610b4c84610afe565b610ae3565b905082815260208101848484011115610b6d57610b6c610a6d565b5b610b78848285610b2f565b509392505050565b600082601f830112610b9557610b94610a68565b5b8135610ba5848260208601610b3e565b91505092915050565b600060208284031215610bc457610bc3610a5e565b5b600082013567ffffffffffffffff811115610be257610be1610a63565b5b610bee84828501610b80565b91505092915050565b600081519050919050565b600082825260208201905092915050565b6000819050602082019050919050565b600073ffffffffffffffffffffffffffffffffffffffff82169050919050565b6000610c4e82610c23565b9050919050565b610c5e81610c43565b82525050565b6000610c708383610c55565b60208301905092915050565b6000602082019050919050565b6000610c9482610bf7565b610c9e8185610c02565b9350610ca983610c13565b8060005b83811015610cda578151610cc18882610c64565b9750610ccc83610c7c565b925050600181019050610cad565b5085935050505092915050565b60006020820190508181036000830152610d018184610c89565b905092915050565b610d1281610c43565b8114610d1d57600080fd5b50565b600081359050610d2f81610d09565b92915050565b600060208284031215610d4b57610d4a610a5e565b5b6000610d5984828501610d20565b91505092915050565b610d6b81610c43565b82525050565b600081519050919050565b600082825260208201905092915050565b60005b83811015610dab578082015181840152602081019050610d90565b60008484015250505050565b6000610dc282610d71565b610dcc8185610d7c565b9350610ddc818560208601610d8d565b610de581610a72565b840191505092915050565b60008115159050919050565b610e0581610df0565b82525050565b6000608082019050610e206000830187610d62565b8181036020830152610e328186610db7565b9050610e416040830185610dfc565b610e4e6060830184610dfc565b95945050505050565b6000602082019050610e6c6000830184610dfc565b92915050565b60006020820190508181036000830152610e8c8184610db7565b905092915050565b6000819050919050565b610ea781610e94565b8114610eb257600080fd5b50565b600081359050610ec481610e9e565b92915050565b600060208284031215610ee057610edf610a5e565b5b6000610eee84828501610eb5565b91505092915050565b6000602082019050610f0c6000830184610d62565b92915050565b7f416c726561647920726567697374657265640000000000000000000000000000600082015250565b6000610f48601283610d7c565b9150610f5382610f12565b602082019050919050565b60006020820190508181036000830152610f7781610f3b565b9050919050565b7f496e76616c696420495046532068617368000000000000000000000000000000600082015250565b6000610fb4601183610d7c565b9150610fbf82610f7e565b602082019050919050565b60006020820190508181036000830152610fe381610fa7565b9050919050565b7f4e487b7100000000000000000000000000000000000000000000000000000000600052602260045260246000fd5b6000600282049050600182168061103157607f821691505b60208210810361104457611043610fea565b5b50919050565b60008190508160005260206000209050919050565b60006020601f8301049050919050565b600082821b905092915050565b6000600883026110ac7fffffffffffffffffffffffffffffffffffffffffffffffffffffffffffffffff8261106f565b6110b6868361106f565b95508019841693508086168417925050509392505050565b6000819050919050565b60006110f36110ee6110e984610e94565b6110ce565b610e94565b9050919050565b6000819050919050565b61110d836110d8565b611121611119826110fa565b84845461107c565b825550505050565b600090565b611136611129565b611141818484611104565b505050565b5b818110156111655761115a60008261112e565b600181019050611147565b5050565b601f8211156111aa5761117b8161104a565b6111848461105f565b81016020851015611193578190505b6111a761119f8561105f565b830182611146565b50505b505050565b600082821c905092915050565b60006111cd600019846008026111af565b1980831691505092915050565b60006111e683836111bc565b9150826002028217905092915050565b6111ff82610d71565b67ffffffffffffffff81111561121857611217610a83565b5b6112228254611019565b61122d828285611169565b600060209050601f831160018114611260576000841561124e578287015190505b61125885826111da565b8655506112c0565b601f19841661126e8661104a565b60005b8281101561129657848901518255600182019150602085019450602081019050611271565b868310156112b357848901516112af601f8916826111bc565b8355505b6001600288020188555050505b505050505050565b7f446f63746f72206e6f7420726567697374657265640000000000000000000000600082015250565b60006112fe601583610d7c565b9150611309826112c8565b602082019050919050565b6000602082019050818103600083015261132d816112f1565b9050919050565b7f4e6f742061646d696e0000000000000000000000000000000000000000000000600082015250565b600061136a600983610d7c565b915061137582611334565b602082019050919050565b600060208201905081810360008301526113998161135d565b9050919050565b7f416c726561647920766572696669656400000000000000000000000000000000600082015250565b60006113d6601083610d7c565b91506113e1826113a0565b602082019050919050565b60006020820190508181036000830152611405816113c9565b905091905056fea2646970667358221220991d2d45abadedcd7fe85a25258593eb3b59ef04c7d6e486f5fe59c6da8c7b6a64736f6c634300081e0033",
					"opcodes": "PUSH1 0x80 PUSH1 0x40 MSTORE CALLVALUE DUP1 ISZERO PUSH1 0xF JUMPI PUSH1 0x0 DUP1 REVERT JUMPDEST POP CALLER PUSH1 0x0 DUP1 PUSH2 0x100 EXP DUP2 SLOAD DUP2 PUSH20 0xFFFFFFFFFFFFFFFFFFFFFFFFFFFFFFFFFFFFFFFF MUL NOT AND SWAP1 DUP4 PUSH20 0xFFFFFFFFFFFFFFFFFFFFFFFFFFFFFFFFFFFFFFFF AND MUL OR SWAP1 SSTORE POP PUSH2 0x1442 DUP1 PUSH2 0x5F PUSH1 0x0 CODECOPY PUSH1 0x0 RETURN INVALID PUSH1 0x80 PUSH1 0x40 MSTORE CALLVALUE DUP1 ISZERO PUSH2 0x10 JUMPI PUSH1 0x0 DUP1 REVERT JUMPDEST POP PUSH1 0x4 CALLDATASIZE LT PUSH2 0x88 JUMPI PUSH1 0x0 CALLDATALOAD PUSH1 0xE0 SHR DUP1 PUSH4 0xBAB90DBD GT PUSH2 0x5B JUMPI DUP1 PUSH4 0xBAB90DBD EQ PUSH2 0x12A JUMPI DUP1 PUSH4 0xD80CB05C EQ PUSH2 0x15A JUMPI DUP1 PUSH4 0xF06985AC EQ PUSH2 0x176 JUMPI DUP1 PUSH4 0xF851A440 EQ PUSH2 0x1A6 JUMPI PUSH2 0x88 JUMP JUMPDEST DUP1 PUSH4 0x8F09AB5B EQ PUSH2 0x8D JUMPI DUP1 PUSH4 0x8F7741AC EQ PUSH2 0xA9 JUMPI DUP1 PUSH4 0xA9583C22 EQ PUSH2 0xC7 JUMPI DUP1 PUSH4 0xB9209E33 EQ PUSH2 0xFA JUMPI JUMPDEST PUSH1 0x0 DUP1 REVERT JUMPDEST PUSH2 0xA7 PUSH1 0x4 DUP1 CALLDATASIZE SUB DUP2 ADD SWAP1 PUSH2 0xA2 SWAP2 SWAP1 PUSH2 0xBAE JUMP JUMPDEST PUSH2 0x1C4 JUMP JUMPDEST STOP JUMPDEST PUSH2 0xB1 PUSH2 0x468 JUMP JUMPDEST PUSH1 0x40 MLOAD PUSH2 0xBE SWAP2 SWAP1 PUSH2 0xCE7 JUMP JUMPDEST PUSH1 0x40 MLOAD DUP1 SWAP2 SUB SWAP1 RETURN JUMPDEST PUSH2 0xE1 PUSH1 0x4 DUP1 CALLDATASIZE SUB DUP2 ADD SWAP1 PUSH2 0xDC SWAP2 SWAP1 PUSH2 0xD35 JUMP JUMPDEST PUSH2 0x4F6 JUMP JUMPDEST PUSH1 0x40 MLOAD PUSH2 0xF1 SWAP5 SWAP4 SWAP3 SWAP2 SWAP1 PUSH2 0xE0B JUMP JUMPDEST PUSH1 0x40 MLOAD DUP1 SWAP2 SUB SWAP1 RETURN JUMPDEST PUSH2 0x114 PUSH1 0x4 DUP1 CALLDATASIZE SUB DUP2 ADD SWAP1 PUSH2 0x10F SWAP2 SWAP1 PUSH2 0xD35 JUMP JUMPDEST PUSH2 0x5E8 JUMP JUMPDEST PUSH1 0x40 MLOAD PUSH2 0x121 SWAP2 SWAP1 PUSH2 0xE57 JUMP JUMPDEST PUSH1 0x40 MLOAD DUP1 SWAP2 SUB SWAP1 RETURN JUMPDEST PUSH2 0x144 PUSH1 0x4 DUP1 CALLDATASIZE SUB DUP2 ADD SWAP1 PUSH2 0x13F SWAP2 SWAP1 PUSH2 0xD35 JUMP JUMPDEST PUSH2 0x641 JUMP JUMPDEST PUSH1 0x40 MLOAD PUSH2 0x151 SWAP2 SWAP1 PUSH2 0xE72 JUMP JUMPDEST PUSH1 0x40 MLOAD DUP1 SWAP2 SUB SWAP1 RETURN JUMPDEST PUSH2 0x174 PUSH1 0x4 DUP1 CALLDATASIZE SUB DUP2 ADD SWAP1 PUSH2 0x16F SWAP2 SWAP1 PUSH2 0xD35 JUMP JUMPDEST PUSH2 0x7A4 JUMP JUMPDEST STOP JUMPDEST PUSH2 0x190 PUSH1 0x4 DUP1 CALLDATASIZE SUB DUP2 ADD SWAP1 PUSH2 0x18B SWAP2 SWAP1 PUSH2 0xECA JUMP JUMPDEST PUSH2 0x9F1 JUMP JUMPDEST PUSH1 0x40 MLOAD PUSH2 0x19D SWAP2 SWAP1 PUSH2 0xEF7 JUMP JUMPDEST PUSH1 0x40 MLOAD DUP1 SWAP2 SUB SWAP1 RETURN JUMPDEST PUSH2 0x1AE PUSH2 0xA30 JUMP JUMPDEST PUSH1 0x40 MLOAD PUSH2 0x1BB SWAP2 SWAP1 PUSH2 0xEF7 JUMP JUMPDEST PUSH1 0x40 MLOAD DUP1 SWAP2 SUB SWAP1 RETURN JUMPDEST PUSH1 0x1 PUSH1 0x0 CALLER PUSH20 0xFFFFFFFFFFFFFFFFFFFFFFFFFFFFFFFFFFFFFFFF AND PUSH20 0xFFFFFFFFFFFFFFFFFFFFFFFFFFFFFFFFFFFFFFFF AND DUP2 MSTORE PUSH1 0x20 ADD SWAP1 DUP2 MSTORE PUSH1 0x20 ADD PUSH1 0x0 KECCAK256 PUSH1 0x2 ADD PUSH1 0x1 SWAP1 SLOAD SWAP1 PUSH2 0x100 EXP SWAP1 DIV PUSH1 0xFF AND ISZERO PUSH2 0x254 JUMPI PUSH1 0x40 MLOAD PUSH32 0x8C379A000000000000000000000000000000000000000000000000000000000 DUP2 MSTORE PUSH1 0x4 ADD PUSH2 0x24B SWAP1 PUSH2 0xF5E JUMP JUMPDEST PUSH1 0x40 MLOAD DUP1 SWAP2 SUB SWAP1 REVERT JUMPDEST PUSH1 0x0 DUP2 MLOAD GT PUSH2 0x298 JUMPI PUSH1 0x40 MLOAD PUSH32 0x8C379A000000000000000000000000000000000000000000000000000000000 DUP2 MSTORE PUSH1 0x4 ADD PUSH2 0x28F SWAP1 PUSH2 0xFCA JUMP JUMPDEST PUSH1 0x40 MLOAD DUP1 SWAP2 SUB SWAP1 REVERT JUMPDEST PUSH1 0x40 MLOAD DUP1 PUSH1 0x80 ADD PUSH1 0x40 MSTORE DUP1 CALLER PUSH20 0xFFFFFFFFFFFFFFFFFFFFFFFFFFFFFFFFFFFFFFFF AND DUP2 MSTORE PUSH1 0x20 ADD DUP3 DUP2 MSTORE PUSH1 0x20 ADD PUSH1 0x0 ISZERO ISZERO DUP2 MSTORE PUSH1 0x20 ADD PUSH1 0x1 ISZERO ISZERO DUP2 MSTORE POP PUSH1 0x1 PUSH1 0x0 CALLER PUSH20 0xFFFFFFFFFFFFFFFFFFFFFFFFFFFFFFFFFFFFFFFF AND PUSH20 0xFFFFFFFFFFFFFFFFFFFFFFFFFFFFFFFFFFFFFFFF AND DUP2 MSTORE PUSH1 0x20 ADD SWAP1 DUP2 MSTORE PUSH1 0x20 ADD PUSH1 0x0 KECCAK256 PUSH1 0x0 DUP3 ADD MLOAD DUP2 PUSH1 0x0 ADD PUSH1 0x0 PUSH2 0x100 EXP DUP2 SLOAD DUP2 PUSH20 0xFFFFFFFFFFFFFFFFFFFFFFFFFFFFFFFFFFFFFFFF MUL NOT AND SWAP1 DUP4 PUSH20 0xFFFFFFFFFFFFFFFFFFFFFFFFFFFFFFFFFFFFFFFF AND MUL OR SWAP1 SSTORE POP PUSH1 0x20 DUP3 ADD MLOAD DUP2 PUSH1 0x1 ADD SWAP1 DUP2 PUSH2 0x370 SWAP2 SWAP1 PUSH2 0x11F6 JUMP JUMPDEST POP PUSH1 0x40 DUP3 ADD MLOAD DUP2 PUSH1 0x2 ADD PUSH1 0x0 PUSH2 0x100 EXP DUP2 SLOAD DUP2 PUSH1 0xFF MUL NOT AND SWAP1 DUP4 ISZERO ISZERO MUL OR SWAP1 SSTORE POP PUSH1 0x60 DUP3 ADD MLOAD DUP2 PUSH1 0x2 ADD PUSH1 0x1 PUSH2 0x100 EXP DUP2 SLOAD DUP2 PUSH1 0xFF MUL NOT AND SWAP1 DUP4 ISZERO ISZERO MUL OR SWAP1 SSTORE POP SWAP1 POP POP PUSH1 0x2 CALLER SWAP1 DUP1 PUSH1 0x1 DUP2 SLOAD ADD DUP1 DUP3 SSTORE DUP1 SWAP2 POP POP PUSH1 0x1 SWAP1 SUB SWAP1 PUSH1 0x0 MSTORE PUSH1 0x20 PUSH1 0x0 KECCAK256 ADD PUSH1 0x0 SWAP1 SWAP2 SWAP1 SWAP2 SWAP1 SWAP2 PUSH2 0x100 EXP DUP2 SLOAD DUP2 PUSH20 0xFFFFFFFFFFFFFFFFFFFFFFFFFFFFFFFFFFFFFFFF MUL NOT AND SWAP1 DUP4 PUSH20 0xFFFFFFFFFFFFFFFFFFFFFFFFFFFFFFFFFFFFFFFF AND MUL OR SWAP1 SSTORE POP CALLER PUSH20 0xFFFFFFFFFFFFFFFFFFFFFFFFFFFFFFFFFFFFFFFF AND PUSH32 0x20481B8112B5BF4734F45A473C373DB9DF6A79CE946CDC0E7DBC22B4F7D7F986 DUP3 PUSH1 0x40 MLOAD PUSH2 0x45D SWAP2 SWAP1 PUSH2 0xE72 JUMP JUMPDEST PUSH1 0x40 MLOAD DUP1 SWAP2 SUB SWAP1 LOG2 POP JUMP JUMPDEST PUSH1 0x60 PUSH1 0x2 DUP1 SLOAD DUP1 PUSH1 0x20 MUL PUSH1 0x20 ADD PUSH1 0x40 MLOAD SWAP1 DUP2 ADD PUSH1 0x40 MSTORE DUP1 SWAP3 SWAP2 SWAP1 DUP2 DUP2 MSTORE PUSH1 0x20 ADD DUP3 DUP1 SLOAD DUP1 ISZERO PUSH2 0x4EC JUMPI PUSH1 0x20 MUL DUP3 ADD SWAP2 SWAP1 PUSH1 0x0 MSTORE PUSH1 0x20 PUSH1 0x0 KECCAK256 SWAP1 JUMPDEST DUP2 PUSH1 0x0 SWAP1 SLOAD SWAP1 PUSH2 0x100 EXP SWAP1 DIV PUSH20 0xFFFFFFFFFFFFFFFFFFFFFFFFFFFFFFFFFFFFFFFF AND PUSH20 0xFFFFFFFFFFFFFFFFFFFFFFFFFFFFFFFFFFFFFFFF AND DUP2 MSTORE PUSH1 0x20 ADD SWAP1 PUSH1 0x1 ADD SWAP1 DUP1 DUP4 GT PUSH2 0x4A2 JUMPI JUMPDEST POP POP POP POP POP SWAP1 POP SWAP1 JUMP JUMPDEST PUSH1 0x1 PUSH1 0x20 MSTORE DUP1 PUSH1 0x0 MSTORE PUSH1 0x40 PUSH1 0x0 KECCAK256 PUSH1 0x0 SWAP2 POP SWAP1 POP DUP1 PUSH1 0x0 ADD PUSH1 0x0 SWAP1 SLOAD SWAP1 PUSH2 0x100 EXP SWAP1 DIV PUSH20 0xFFFFFFFFFFFFFFFFFFFFFFFFFFFFFFFFFFFFFFFF AND SWAP1 DUP1 PUSH1 0x1 ADD DUP1 SLOAD PUSH2 0x53F SWAP1 PUSH2 0x1019 JUMP JUMPDEST DUP1 PUSH1 0x1F ADD PUSH1 0x20 DUP1 SWAP2 DIV MUL PUSH1 0x20 ADD PUSH1 0x40 MLOAD SWAP1 DUP2 ADD PUSH1 0x40 MSTORE DUP1 SWAP3 SWAP2 SWAP1 DUP2 DUP2 MSTORE PUSH1 0x20 ADD DUP3 DUP1 SLOAD PUSH2 0x56B SWAP1 PUSH2 0x1019 JUMP JUMPDEST DUP1 ISZERO PUSH2 0x5B8 JUMPI DUP1 PUSH1 0x1F LT PUSH2 0x58D JUMPI PUSH2 0x100 DUP1 DUP4 SLOAD DIV MUL DUP4 MSTORE SWAP2 PUSH1 0x20 ADD SWAP2 PUSH2 0x5B8 JUMP JUMPDEST DUP3 ADD SWAP2 SWAP1 PUSH1 0x0 MSTORE PUSH1 0x20 PUSH1 0x0 KECCAK256 SWAP1 JUMPDEST DUP2 SLOAD DUP2 MSTORE SWAP1 PUSH1 0x1 ADD SWAP1 PUSH1 0x20 ADD DUP1 DUP4 GT PUSH2 0x59B JUMPI DUP3 SWAP1 SUB PUSH1 0x1F AND DUP3 ADD SWAP2 JUMPDEST POP POP POP POP POP SWAP1 DUP1 PUSH1 0x2 ADD PUSH1 0x0 SWAP1 SLOAD SWAP1 PUSH2 0x100 EXP SWAP1 DIV PUSH1 0xFF AND SWAP1 DUP1 PUSH1 0x2 ADD PUSH1 0x1 SWAP1 SLOAD SWAP1 PUSH2 0x100 EXP SWAP1 DIV PUSH1 0xFF AND SWAP1 POP DUP5 JUMP JUMPDEST PUSH1 0x0 PUSH1 0x1 PUSH1 0x0 DUP4 PUSH20 0xFFFFFFFFFFFFFFFFFFFFFFFFFFFFFFFFFFFFFFFF AND PUSH20 0xFFFFFFFFFFFFFFFFFFFFFFFFFFFFFFFFFFFFFFFF AND DUP2 MSTORE PUSH1 0x20 ADD SWAP1 DUP2 MSTORE PUSH1 0x20 ADD PUSH1 0x0 KECCAK256 PUSH1 0x2 ADD PUSH1 0x0 SWAP1 SLOAD SWAP1 PUSH2 0x100 EXP SWAP1 DIV PUSH1 0xFF AND SWAP1 POP SWAP2 SWAP1 POP JUMP JUMPDEST PUSH1 0x60 PUSH1 0x1 PUSH1 0x0 DUP4 PUSH20 0xFFFFFFFFFFFFFFFFFFFFFFFFFFFFFFFFFFFFFFFF AND PUSH20 0xFFFFFFFFFFFFFFFFFFFFFFFFFFFFFFFFFFFFFFFF AND DUP2 MSTORE PUSH1 0x20 ADD SWAP1 DUP2 MSTORE PUSH1 0x20 ADD PUSH1 0x0 KECCAK256 PUSH1 0x2 ADD PUSH1 0x1 SWAP1 SLOAD SWAP1 PUSH2 0x100 EXP SWAP1 DIV PUSH1 0xFF AND PUSH2 0x6D2 JUMPI PUSH1 0x40 MLOAD PUSH32 0x8C379A000000000000000000000000000000000000000000000000000000000 DUP2 MSTORE PUSH1 0x4 ADD PUSH2 0x6C9 SWAP1 PUSH2 0x1314 JUMP JUMPDEST PUSH1 0x40 MLOAD DUP1 SWAP2 SUB SWAP1 REVERT JUMPDEST PUSH1 0x1 PUSH1 0x0 DUP4 PUSH20 0xFFFFFFFFFFFFFFFFFFFFFFFFFFFFFFFFFFFFFFFF AND PUSH20 0xFFFFFFFFFFFFFFFFFFFFFFFFFFFFFFFFFFFFFFFF AND DUP2 MSTORE PUSH1 0x20 ADD SWAP1 DUP2 MSTORE PUSH1 0x20 ADD PUSH1 0x0 KECCAK256 PUSH1 0x1 ADD DUP1 SLOAD PUSH2 0x71F SWAP1 PUSH2 0x1019 JUMP JUMPDEST DUP1 PUSH1 0x1F ADD PUSH1 0x20 DUP1 SWAP2 DIV MUL PUSH1 0x20 ADD PUSH1 0x40 MLOAD SWAP1 DUP2 ADD PUSH1 0x40 MSTORE DUP1 SWAP3 SWAP2 SWAP1 DUP2 DUP2 MSTORE PUSH1 0x20 ADD DUP3 DUP1 SLOAD PUSH2 0x74B SWAP1 PUSH2 0x1019 JUMP JUMPDEST DUP1 ISZERO PUSH2 0x798 JUMPI DUP1 PUSH1 0x1F LT PUSH2 0x76D JUMPI PUSH2 0x100 DUP1 DUP4 SLOAD DIV MUL DUP4 MSTORE SWAP2 PUSH1 0x20 ADD SWAP2 PUSH2 0x798 JUMP JUMPDEST DUP3 ADD SWAP2 SWAP1 PUSH1 0x0 MSTORE PUSH1 0x20 PUSH1 0x0 KECCAK256 SWAP1 JUMPDEST DUP2 SLOAD DUP2 MSTORE SWAP1 PUSH1 0x1 ADD SWAP1 PUSH1 0x20 ADD DUP1 DUP4 GT PUSH2 0x77B JUMPI DUP3 SWAP1 SUB PUSH1 0x1F AND DUP3 ADD SWAP2 JUMPDEST POP POP POP POP POP SWAP1 POP SWAP2 SWAP1 POP JUMP JUMPDEST PUSH1 0x0 DUP1 SLOAD SWAP1 PUSH2 0x100 EXP SWAP1 DIV PUSH20 0xFFFFFFFFFFFFFFFFFFFFFFFFFFFFFFFFFFFFFFFF AND PUSH20 0xFFFFFFFFFFFFFFFFFFFFFFFFFFFFFFFFFFFFFFFF AND CALLER PUSH20 0xFFFFFFFFFFFFFFFFFFFFFFFFFFFFFFFFFFFFFFFF AND EQ PUSH2 0x832 JUMPI PUSH1 0x40 MLOAD PUSH32 0x8C379A000000000000000000000000000000000000000000000000000000000 DUP2 MSTORE PUSH1 0x4 ADD PUSH2 0x829 SWAP1 PUSH2 0x1380 JUMP JUMPDEST PUSH1 0x40 MLOAD DUP1 SWAP2 SUB SWAP1 REVERT JUMPDEST PUSH1 0x1 PUSH1 0x0 DUP3 PUSH20 0xFFFFFFFFFFFFFFFFFFFFFFFFFFFFFFFFFFFFFFFF AND PUSH20 0xFFFFFFFFFFFFFFFFFFFFFFFFFFFFFFFFFFFFFFFF AND DUP2 MSTORE PUSH1 0x20 ADD SWAP1 DUP2 MSTORE PUSH1 0x20 ADD PUSH1 0x0 KECCAK256 PUSH1 0x2 ADD PUSH1 0x1 SWAP1 SLOAD SWAP1 PUSH2 0x100 EXP SWAP1 DIV PUSH1 0xFF AND PUSH2 0x8C1 JUMPI PUSH1 0x40 MLOAD PUSH32 0x8C379A000000000000000000000000000000000000000000000000000000000 DUP2 MSTORE PUSH1 0x4 ADD PUSH2 0x8B8 SWAP1 PUSH2 0x1314 JUMP JUMPDEST PUSH1 0x40 MLOAD DUP1 SWAP2 SUB SWAP1 REVERT JUMPDEST PUSH1 0x1 PUSH1 0x0 DUP3 PUSH20 0xFFFFFFFFFFFFFFFFFFFFFFFFFFFFFFFFFFFFFFFF AND PUSH20 0xFFFFFFFFFFFFFFFFFFFFFFFFFFFFFFFFFFFFFFFF AND DUP2 MSTORE PUSH1 0x20 ADD SWAP1 DUP2 MSTORE PUSH1 0x20 ADD PUSH1 0x0 KECCAK256 PUSH1 0x2 ADD PUSH1 0x0 SWAP1 SLOAD SWAP1 PUSH2 0x100 EXP SWAP1 DIV PUSH1 0xFF AND ISZERO PUSH2 0x951 JUMPI PUSH1 0x40 MLOAD PUSH32 0x8C379A000000000000000000000000000000000000000000000000000000000 DUP2 MSTORE PUSH1 0x4 ADD PUSH2 0x948 SWAP1 PUSH2 0x13EC JUMP JUMPDEST PUSH1 0x40 MLOAD DUP1 SWAP2 SUB SWAP1 REVERT JUMPDEST PUSH1 0x1 DUP1 PUSH1 0x0 DUP4 PUSH20 0xFFFFFFFFFFFFFFFFFFFFFFFFFFFFFFFFFFFFFFFF AND PUSH20 0xFFFFFFFFFFFFFFFFFFFFFFFFFFFFFFFFFFFFFFFF AND DUP2 MSTORE PUSH1 0x20 ADD SWAP1 DUP2 MSTORE PUSH1 0x20 ADD PUSH1 0x0 KECCAK256 PUSH1 0x2 ADD PUSH1 0x0 PUSH2 0x100 EXP DUP2 SLOAD DUP2 PUSH1 0xFF MUL NOT AND SWAP1 DUP4 ISZERO ISZERO MUL OR SWAP1 SSTORE POP DUP1 PUSH20 0xFFFFFFFFFFFFFFFFFFFFFFFFFFFFFFFFFFFFFFFF AND PUSH32 0xB0859F2CF042B300C8948CDD785EC6A23A3742BC5446C19F4B270B67FAC2C967 PUSH1 0x40 MLOAD PUSH1 0x40 MLOAD DUP1 SWAP2 SUB SWAP1 LOG2 POP JUMP JUMPDEST PUSH1 0x2 DUP2 DUP2 SLOAD DUP2 LT PUSH2 0xA01 JUMPI PUSH1 0x0 DUP1 REVERT JUMPDEST SWAP1 PUSH1 0x0 MSTORE PUSH1 0x20 PUSH1 0x0 KECCAK256 ADD PUSH1 0x0 SWAP2 POP SLOAD SWAP1 PUSH2 0x100 EXP SWAP1 DIV PUSH20 0xFFFFFFFFFFFFFFFFFFFFFFFFFFFFFFFFFFFFFFFF AND DUP2 JUMP JUMPDEST PUSH1 0x0 DUP1 SLOAD SWAP1 PUSH2 0x100 EXP SWAP1 DIV PUSH20 0xFFFFFFFFFFFFFFFFFFFFFFFFFFFFFFFFFFFFFFFF AND DUP2 JUMP JUMPDEST PUSH1 0x0 PUSH1 0x40 MLOAD SWAP1 POP SWAP1 JUMP JUMPDEST PUSH1 0x0 DUP1 REVERT JUMPDEST PUSH1 0x0 DUP1 REVERT JUMPDEST PUSH1 0x0 DUP1 REVERT JUMPDEST PUSH1 0x0 DUP1 REVERT JUMPDEST PUSH1 0x0 PUSH1 0x1F NOT PUSH1 0x1F DUP4 ADD AND SWAP1 POP SWAP2 SWAP1 POP JUMP JUMPDEST PUSH32 0x4E487B7100000000000000000000000000000000000000000000000000000000 PUSH1 0x0 MSTORE PUSH1 0x41 PUSH1 0x4 MSTORE PUSH1 0x24 PUSH1 0x0 REVERT JUMPDEST PUSH2 0xABB DUP3 PUSH2 0xA72 JUMP JUMPDEST DUP2 ADD DUP2 DUP2 LT PUSH8 0xFFFFFFFFFFFFFFFF DUP3 GT OR ISZERO PUSH2 0xADA JUMPI PUSH2 0xAD9 PUSH2 0xA83 JUMP JUMPDEST JUMPDEST DUP1 PUSH1 0x40 MSTORE POP POP POP JUMP JUMPDEST PUSH1 0x0 PUSH2 0xAED PUSH2 0xA54 JUMP JUMPDEST SWAP1 POP PUSH2 0xAF9 DUP3 DUP3 PUSH2 0xAB2 JUMP JUMPDEST SWAP2 SWAP1 POP JUMP JUMPDEST PUSH1 0x0 PUSH8 0xFFFFFFFFFFFFFFFF DUP3 GT ISZERO PUSH2 0xB19 JUMPI PUSH2 0xB18 PUSH2 0xA83 JUMP JUMPDEST JUMPDEST PUSH2 0xB22 DUP3 PUSH2 0xA72 JUMP JUMPDEST SWAP1 POP PUSH1 0x20 DUP2 ADD SWAP1 POP SWAP2 SWAP1 POP JUMP JUMPDEST DUP3 DUP2 DUP4 CALLDATACOPY PUSH1 0x0 DUP4 DUP4 ADD MSTORE POP POP POP JUMP JUMPDEST PUSH1 0x0 PUSH2 0xB51 PUSH2 0xB4C DUP5 PUSH2 0xAFE JUMP JUMPDEST PUSH2 0xAE3 JUMP JUMPDEST SWAP1 POP DUP3 DUP2 MSTORE PUSH1 0x20 DUP2 ADD DUP5 DUP5 DUP5 ADD GT ISZERO PUSH2 0xB6D JUMPI PUSH2 0xB6C PUSH2 0xA6D JUMP JUMPDEST JUMPDEST PUSH2 0xB78 DUP5 DUP3 DUP6 PUSH2 0xB2F JUMP JUMPDEST POP SWAP4 SWAP3 POP POP POP JUMP JUMPDEST PUSH1 0x0 DUP3 PUSH1 0x1F DUP4 ADD SLT PUSH2 0xB95 JUMPI PUSH2 0xB94 PUSH2 0xA68 JUMP JUMPDEST JUMPDEST DUP2 CALLDATALOAD PUSH2 0xBA5 DUP5 DUP3 PUSH1 0x20 DUP7 ADD PUSH2 0xB3E JUMP JUMPDEST SWAP2 POP POP SWAP3 SWAP2 POP POP JUMP JUMPDEST PUSH1 0x0 PUSH1 0x20 DUP3 DUP5 SUB SLT ISZERO PUSH2 0xBC4 JUMPI PUSH2 0xBC3 PUSH2 0xA5E JUMP JUMPDEST JUMPDEST PUSH1 0x0 DUP3 ADD CALLDATALOAD PUSH8 0xFFFFFFFFFFFFFFFF DUP2 GT ISZERO PUSH2 0xBE2 JUMPI PUSH2 0xBE1 PUSH2 0xA63 JUMP JUMPDEST JUMPDEST PUSH2 0xBEE DUP5 DUP3 DUP6 ADD PUSH2 0xB80 JUMP JUMPDEST SWAP2 POP POP SWAP3 SWAP2 POP POP JUMP JUMPDEST PUSH1 0x0 DUP2 MLOAD SWAP1 POP SWAP2 SWAP1 POP JUMP JUMPDEST PUSH1 0x0 DUP3 DUP3 MSTORE PUSH1 0x20 DUP3 ADD SWAP1 POP SWAP3 SWAP2 POP POP JUMP JUMPDEST PUSH1 0x0 DUP2 SWAP1 POP PUSH1 0x20 DUP3 ADD SWAP1 POP SWAP2 SWAP1 POP JUMP JUMPDEST PUSH1 0x0 PUSH20 0xFFFFFFFFFFFFFFFFFFFFFFFFFFFFFFFFFFFFFFFF DUP3 AND SWAP1 POP SWAP2 SWAP1 POP JUMP JUMPDEST PUSH1 0x0 PUSH2 0xC4E DUP3 PUSH2 0xC23 JUMP JUMPDEST SWAP1 POP SWAP2 SWAP1 POP JUMP JUMPDEST PUSH2 0xC5E DUP2 PUSH2 0xC43 JUMP JUMPDEST DUP3 MSTORE POP POP JUMP JUMPDEST PUSH1 0x0 PUSH2 0xC70 DUP4 DUP4 PUSH2 0xC55 JUMP JUMPDEST PUSH1 0x20 DUP4 ADD SWAP1 POP SWAP3 SWAP2 POP POP JUMP JUMPDEST PUSH1 0x0 PUSH1 0x20 DUP3 ADD SWAP1 POP SWAP2 SWAP1 POP JUMP JUMPDEST PUSH1 0x0 PUSH2 0xC94 DUP3 PUSH2 0xBF7 JUMP JUMPDEST PUSH2 0xC9E DUP2 DUP6 PUSH2 0xC02 JUMP JUMPDEST SWAP4 POP PUSH2 0xCA9 DUP4 PUSH2 0xC13 JUMP JUMPDEST DUP1 PUSH1 0x0 JUMPDEST DUP4 DUP2 LT ISZERO PUSH2 0xCDA JUMPI DUP2 MLOAD PUSH2 0xCC1 DUP9 DUP3 PUSH2 0xC64 JUMP JUMPDEST SWAP8 POP PUSH2 0xCCC DUP4 PUSH2 0xC7C JUMP JUMPDEST SWAP3 POP POP PUSH1 0x1 DUP2 ADD SWAP1 POP PUSH2 0xCAD JUMP JUMPDEST POP DUP6 SWAP4 POP POP POP POP SWAP3 SWAP2 POP POP JUMP JUMPDEST PUSH1 0x0 PUSH1 0x20 DUP3 ADD SWAP1 POP DUP2 DUP2 SUB PUSH1 0x0 DUP4 ADD MSTORE PUSH2 0xD01 DUP2 DUP5 PUSH2 0xC89 JUMP JUMPDEST SWAP1 POP SWAP3 SWAP2 POP POP JUMP JUMPDEST PUSH2 0xD12 DUP2 PUSH2 0xC43 JUMP JUMPDEST DUP2 EQ PUSH2 0xD1D JUMPI PUSH1 0x0 DUP1 REVERT JUMPDEST POP JUMP JUMPDEST PUSH1 0x0 DUP2 CALLDATALOAD SWAP1 POP PUSH2 0xD2F DUP2 PUSH2 0xD09 JUMP JUMPDEST SWAP3 SWAP2 POP POP JUMP JUMPDEST PUSH1 0x0 PUSH1 0x20 DUP3 DUP5 SUB SLT ISZERO PUSH2 0xD4B JUMPI PUSH2 0xD4A PUSH2 0xA5E JUMP JUMPDEST JUMPDEST PUSH1 0x0 PUSH2 0xD59 DUP5 DUP3 DUP6 ADD PUSH2 0xD20 JUMP JUMPDEST SWAP2 POP POP SWAP3 SWAP2 POP POP JUMP JUMPDEST PUSH2 0xD6B DUP2 PUSH2 0xC43 JUMP JUMPDEST DUP3 MSTORE POP POP JUMP JUMPDEST PUSH1 0x0 DUP2 MLOAD SWAP1 POP SWAP2 SWAP1 POP JUMP JUMPDEST PUSH1 0x0 DUP3 DUP3 MSTORE PUSH1 0x20 DUP3 ADD SWAP1 POP SWAP3 SWAP2 POP POP JUMP JUMPDEST PUSH1 0x0 JUMPDEST DUP4 DUP2 LT ISZERO PUSH2 0xDAB JUMPI DUP1 DUP3 ADD MLOAD DUP2 DUP5 ADD MSTORE PUSH1 0x20 DUP2 ADD SWAP1 POP PUSH2 0xD90 JUMP JUMPDEST PUSH1 0x0 DUP5 DUP5 ADD MSTORE POP POP POP POP JUMP JUMPDEST PUSH1 0x0 PUSH2 0xDC2 DUP3 PUSH2 0xD71 JUMP JUMPDEST PUSH2 0xDCC DUP2 DUP6 PUSH2 0xD7C JUMP JUMPDEST SWAP4 POP PUSH2 0xDDC DUP2 DUP6 PUSH1 0x20 DUP7 ADD PUSH2 0xD8D JUMP JUMPDEST PUSH2 0xDE5 DUP2 PUSH2 0xA72 JUMP JUMPDEST DUP5 ADD SWAP2 POP POP SWAP3 SWAP2 POP POP JUMP JUMPDEST PUSH1 0x0 DUP2 ISZERO ISZERO SWAP1 POP SWAP2 SWAP1 POP JUMP JUMPDEST PUSH2 0xE05 DUP2 PUSH2 0xDF0 JUMP JUMPDEST DUP3 MSTORE POP POP JUMP JUMPDEST PUSH1 0x0 PUSH1 0x80 DUP3 ADD SWAP1 POP PUSH2 0xE20 PUSH1 0x0 DUP4 ADD DUP8 PUSH2 0xD62 JUMP JUMPDEST DUP2 DUP2 SUB PUSH1 0x20 DUP4 ADD MSTORE PUSH2 0xE32 DUP2 DUP7 PUSH2 0xDB7 JUMP JUMPDEST SWAP1 POP PUSH2 0xE41 PUSH1 0x40 DUP4 ADD DUP6 PUSH2 0xDFC JUMP JUMPDEST PUSH2 0xE4E PUSH1 0x60 DUP4 ADD DUP5 PUSH2 0xDFC JUMP JUMPDEST SWAP6 SWAP5 POP POP POP POP POP JUMP JUMPDEST PUSH1 0x0 PUSH1 0x20 DUP3 ADD SWAP1 POP PUSH2 0xE6C PUSH1 0x0 DUP4 ADD DUP5 PUSH2 0xDFC JUMP JUMPDEST SWAP3 SWAP2 POP POP JUMP JUMPDEST PUSH1 0x0 PUSH1 0x20 DUP3 ADD SWAP1 POP DUP2 DUP2 SUB PUSH1 0x0 DUP4 ADD MSTORE PUSH2 0xE8C DUP2 DUP5 PUSH2 0xDB7 JUMP JUMPDEST SWAP1 POP SWAP3 SWAP2 POP POP JUMP JUMPDEST PUSH1 0x0 DUP2 SWAP1 POP SWAP2 SWAP1 POP JUMP JUMPDEST PUSH2 0xEA7 DUP2 PUSH2 0xE94 JUMP JUMPDEST DUP2 EQ PUSH2 0xEB2 JUMPI PUSH1 0x0 DUP1 REVERT JUMPDEST POP JUMP JUMPDEST PUSH1 0x0 DUP2 CALLDATALOAD SWAP1 POP PUSH2 0xEC4 DUP2 PUSH2 0xE9E JUMP JUMPDEST SWAP3 SWAP2 POP POP JUMP JUMPDEST PUSH1 0x0 PUSH1 0x20 DUP3 DUP5 SUB SLT ISZERO PUSH2 0xEE0 JUMPI PUSH2 0xEDF PUSH2 0xA5E JUMP JUMPDEST JUMPDEST PUSH1 0x0 PUSH2 0xEEE DUP5 DUP3 DUP6 ADD PUSH2 0xEB5 JUMP JUMPDEST SWAP2 POP POP SWAP3 SWAP2 POP POP JUMP JUMPDEST PUSH1 0x0 PUSH1 0x20 DUP3 ADD SWAP1 POP PUSH2 0xF0C PUSH1 0x0 DUP4 ADD DUP5 PUSH2 0xD62 JUMP JUMPDEST SWAP3 SWAP2 POP POP JUMP JUMPDEST PUSH32 0x416C726561647920726567697374657265640000000000000000000000000000 PUSH1 0x0 DUP3 ADD MSTORE POP JUMP JUMPDEST PUSH1 0x0 PUSH2 0xF48 PUSH1 0x12 DUP4 PUSH2 0xD7C JUMP JUMPDEST SWAP2 POP PUSH2 0xF53 DUP3 PUSH2 0xF12 JUMP JUMPDEST PUSH1 0x20 DUP3 ADD SWAP1 POP SWAP2 SWAP1 POP JUMP JUMPDEST PUSH1 0x0 PUSH1 0x20 DUP3 ADD SWAP1 POP DUP2 DUP2 SUB PUSH1 0x0 DUP4 ADD MSTORE PUSH2 0xF77 DUP2 PUSH2 0xF3B JUMP JUMPDEST SWAP1 POP SWAP2 SWAP1 POP JUMP JUMPDEST PUSH32 0x496E76616C696420495046532068617368000000000000000000000000000000 PUSH1 0x0 DUP3 ADD MSTORE POP JUMP JUMPDEST PUSH1 0x0 PUSH2 0xFB4 PUSH1 0x11 DUP4 PUSH2 0xD7C JUMP JUMPDEST SWAP2 POP PUSH2 0xFBF DUP3 PUSH2 0xF7E JUMP JUMPDEST PUSH1 0x20 DUP3 ADD SWAP1 POP SWAP2 SWAP1 POP JUMP JUMPDEST PUSH1 0x0 PUSH1 0x20 DUP3 ADD SWAP1 POP DUP2 DUP2 SUB PUSH1 0x0 DUP4 ADD MSTORE PUSH2 0xFE3 DUP2 PUSH2 0xFA7 JUMP JUMPDEST SWAP1 POP SWAP2 SWAP1 POP JUMP JUMPDEST PUSH32 0x4E487B7100000000000000000000000000000000000000000000000000000000 PUSH1 0x0 MSTORE PUSH1 0x22 PUSH1 0x4 MSTORE PUSH1 0x24 PUSH1 0x0 REVERT JUMPDEST PUSH1 0x0 PUSH1 0x2 DUP3 DIV SWAP1 POP PUSH1 0x1 DUP3 AND DUP1 PUSH2 0x1031 JUMPI PUSH1 0x7F DUP3 AND SWAP2 POP JUMPDEST PUSH1 0x20 DUP3 LT DUP2 SUB PUSH2 0x1044 JUMPI PUSH2 0x1043 PUSH2 0xFEA JUMP JUMPDEST JUMPDEST POP SWAP2 SWAP1 POP JUMP JUMPDEST PUSH1 0x0 DUP2 SWAP1 POP DUP2 PUSH1 0x0 MSTORE PUSH1 0x20 PUSH1 0x0 KECCAK256 SWAP1 POP SWAP2 SWAP1 POP JUMP JUMPDEST PUSH1 0x0 PUSH1 0x20 PUSH1 0x1F DUP4 ADD DIV SWAP1 POP SWAP2 SWAP1 POP JUMP JUMPDEST PUSH1 0x0 DUP3 DUP3 SHL SWAP1 POP SWAP3 SWAP2 POP POP JUMP JUMPDEST PUSH1 0x0 PUSH1 0x8 DUP4 MUL PUSH2 0x10AC PUSH32 0xFFFFFFFFFFFFFFFFFFFFFFFFFFFFFFFFFFFFFFFFFFFFFFFFFFFFFFFFFFFFFFFF DUP3 PUSH2 0x106F JUMP JUMPDEST PUSH2 0x10B6 DUP7 DUP4 PUSH2 0x106F JUMP JUMPDEST SWAP6 POP DUP1 NOT DUP5 AND SWAP4 POP DUP1 DUP7 AND DUP5 OR SWAP3 POP POP POP SWAP4 SWAP3 POP POP POP JUMP JUMPDEST PUSH1 0x0 DUP2 SWAP1 POP SWAP2 SWAP1 POP JUMP JUMPDEST PUSH1 0x0 PUSH2 0x10F3 PUSH2 0x10EE PUSH2 0x10E9 DUP5 PUSH2 0xE94 JUMP JUMPDEST PUSH2 0x10CE JUMP JUMPDEST PUSH2 0xE94 JUMP JUMPDEST SWAP1 POP SWAP2 SWAP1 POP JUMP JUMPDEST PUSH1 0x0 DUP2 SWAP1 POP SWAP2 SWAP1 POP JUMP JUMPDEST PUSH2 0x110D DUP4 PUSH2 0x10D8 JUMP JUMPDEST PUSH2 0x1121 PUSH2 0x1119 DUP3 PUSH2 0x10FA JUMP JUMPDEST DUP5 DUP5 SLOAD PUSH2 0x107C JUMP JUMPDEST DUP3 SSTORE POP POP POP POP JUMP JUMPDEST PUSH1 0x0 SWAP1 JUMP JUMPDEST PUSH2 0x1136 PUSH2 0x1129 JUMP JUMPDEST PUSH2 0x1141 DUP2 DUP5 DUP5 PUSH2 0x1104 JUMP JUMPDEST POP POP POP JUMP JUMPDEST JUMPDEST DUP2 DUP2 LT ISZERO PUSH2 0x1165 JUMPI PUSH2 0x115A PUSH1 0x0 DUP3 PUSH2 0x112E JUMP JUMPDEST PUSH1 0x1 DUP2 ADD SWAP1 POP PUSH2 0x1147 JUMP JUMPDEST POP POP JUMP JUMPDEST PUSH1 0x1F DUP3 GT ISZERO PUSH2 0x11AA JUMPI PUSH2 0x117B DUP2 PUSH2 0x104A JUMP JUMPDEST PUSH2 0x1184 DUP5 PUSH2 0x105F JUMP JUMPDEST DUP2 ADD PUSH1 0x20 DUP6 LT ISZERO PUSH2 0x1193 JUMPI DUP2 SWAP1 POP JUMPDEST PUSH2 0x11A7 PUSH2 0x119F DUP6 PUSH2 0x105F JUMP JUMPDEST DUP4 ADD DUP3 PUSH2 0x1146 JUMP JUMPDEST POP POP JUMPDEST POP POP POP JUMP JUMPDEST PUSH1 0x0 DUP3 DUP3 SHR SWAP1 POP SWAP3 SWAP2 POP POP JUMP JUMPDEST PUSH1 0x0 PUSH2 0x11CD PUSH1 0x0 NOT DUP5 PUSH1 0x8 MUL PUSH2 0x11AF JUMP JUMPDEST NOT DUP1 DUP4 AND SWAP2 POP POP SWAP3 SWAP2 POP POP JUMP JUMPDEST PUSH1 0x0 PUSH2 0x11E6 DUP4 DUP4 PUSH2 0x11BC JUMP JUMPDEST SWAP2 POP DUP3 PUSH1 0x2 MUL DUP3 OR SWAP1 POP SWAP3 SWAP2 POP POP JUMP JUMPDEST PUSH2 0x11FF DUP3 PUSH2 0xD71 JUMP JUMPDEST PUSH8 0xFFFFFFFFFFFFFFFF DUP2 GT ISZERO PUSH2 0x1218 JUMPI PUSH2 0x1217 PUSH2 0xA83 JUMP JUMPDEST JUMPDEST PUSH2 0x1222 DUP3 SLOAD PUSH2 0x1019 JUMP JUMPDEST PUSH2 0x122D DUP3 DUP3 DUP6 PUSH2 0x1169 JUMP JUMPDEST PUSH1 0x0 PUSH1 0x20 SWAP1 POP PUSH1 0x1F DUP4 GT PUSH1 0x1 DUP2 EQ PUSH2 0x1260 JUMPI PUSH1 0x0 DUP5 ISZERO PUSH2 0x124E JUMPI DUP3 DUP8 ADD MLOAD SWAP1 POP JUMPDEST PUSH2 0x1258 DUP6 DUP3 PUSH2 0x11DA JUMP JUMPDEST DUP7 SSTORE POP PUSH2 0x12C0 JUMP JUMPDEST PUSH1 0x1F NOT DUP5 AND PUSH2 0x126E DUP7 PUSH2 0x104A JUMP JUMPDEST PUSH1 0x0 JUMPDEST DUP3 DUP2 LT ISZERO PUSH2 0x1296 JUMPI DUP5 DUP10 ADD MLOAD DUP3 SSTORE PUSH1 0x1 DUP3 ADD SWAP2 POP PUSH1 0x20 DUP6 ADD SWAP5 POP PUSH1 0x20 DUP2 ADD SWAP1 POP PUSH2 0x1271 JUMP JUMPDEST DUP7 DUP4 LT ISZERO PUSH2 0x12B3 JUMPI DUP5 DUP10 ADD MLOAD PUSH2 0x12AF PUSH1 0x1F DUP10 AND DUP3 PUSH2 0x11BC JUMP JUMPDEST DUP4 SSTORE POP JUMPDEST PUSH1 0x1 PUSH1 0x2 DUP9 MUL ADD DUP9 SSTORE POP POP POP JUMPDEST POP POP POP POP POP POP JUMP JUMPDEST PUSH32 0x446F63746F72206E6F7420726567697374657265640000000000000000000000 PUSH1 0x0 DUP3 ADD MSTORE POP JUMP JUMPDEST PUSH1 0x0 PUSH2 0x12FE PUSH1 0x15 DUP4 PUSH2 0xD7C JUMP JUMPDEST SWAP2 POP PUSH2 0x1309 DUP3 PUSH2 0x12C8 JUMP JUMPDEST PUSH1 0x20 DUP3 ADD SWAP1 POP SWAP2 SWAP1 POP JUMP JUMPDEST PUSH1 0x0 PUSH1 0x20 DUP3 ADD SWAP1 POP DUP2 DUP2 SUB PUSH1 0x0 DUP4 ADD MSTORE PUSH2 0x132D DUP2 PUSH2 0x12F1 JUMP JUMPDEST SWAP1 POP SWAP2 SWAP1 POP JUMP JUMPDEST PUSH32 0x4E6F742061646D696E0000000000000000000000000000000000000000000000 PUSH1 0x0 DUP3 ADD MSTORE POP JUMP JUMPDEST PUSH1 0x0 PUSH2 0x136A PUSH1 0x9 DUP4 PUSH2 0xD7C JUMP JUMPDEST SWAP2 POP PUSH2 0x1375 DUP3 PUSH2 0x1334 JUMP JUMPDEST PUSH1 0x20 DUP3 ADD SWAP1 POP SWAP2 SWAP1 POP JUMP JUMPDEST PUSH1 0x0 PUSH1 0x20 DUP3 ADD SWAP1 POP DUP2 DUP2 SUB PUSH1 0x0 DUP4 ADD MSTORE PUSH2 0x1399 DUP2 PUSH2 0x135D JUMP JUMPDEST SWAP1 POP SWAP2 SWAP1 POP JUMP JUMPDEST PUSH32 0x416C726561647920766572696669656400000000000000000000000000000000 PUSH1 0x0 DUP3 ADD MSTORE POP JUMP JUMPDEST PUSH1 0x0 PUSH2 0x13D6 PUSH1 0x10 DUP4 PUSH2 0xD7C JUMP JUMPDEST SWAP2 POP PUSH2 0x13E1 DUP3 PUSH2 0x13A0 JUMP JUMPDEST PUSH1 0x20 DUP3 ADD SWAP1 POP SWAP2 SWAP1 POP JUMP JUMPDEST PUSH1 0x0 PUSH1 0x20 DUP3 ADD SWAP1 POP DUP2 DUP2 SUB PUSH1 0x0 DUP4 ADD MSTORE PUSH2 0x1405 DUP2 PUSH2 0x13C9 JUMP JUMPDEST SWAP1 POP SWAP2 SWAP1 POP JUMP INVALID LOG2 PUSH5 0x6970667358 0x22 SLT KECCAK256 SWAP10 SAR 0x2D GASLIMIT 0xAB 0xAD 0xED 0xCD PUSH32 0xE85A25258593EB3B59EF04C7D6E486F5FE59C6DA8C7B6A64736F6C634300081E STOP CALLER "
				},
				"gasEstimates": {
					"creation": {
						"codeDepositCost": "1037200",
						"executionCost": "25346",
						"totalCost": "1062546"
					},
					"external": {
						"admin()": "2577",
						"doctors(address)": "infinite",
						"getAllRegisteredDoctors()": "infinite",
						"getDoctorDetails(address)": "infinite",
						"isVerified(address)": "2956",
						"registerDoctor(string)": "infinite",
						"registeredDoctorAddresses(uint256)": "5000",
						"verifyDoctor(address)": "32719"
					}
				},
				"methodIdentifiers": {
					"admin()": "f851a440",
					"doctors(address)": "a9583c22",
					"getAllRegisteredDoctors()": "8f7741ac",
					"getDoctorDetails(address)": "bab90dbd",
					"isVerified(address)": "b9209e33",
					"registerDoctor(string)": "8f09ab5b",
					"registeredDoctorAddresses(uint256)": "f06985ac",
					"verifyDoctor(address)": "d80cb05c"
				}
			},
			"storageLayout": {
				"storage": [
					{
						"astId": 3,
						"contract": "contracts/DoctorRegistry.sol:DoctorRegistry",
						"label": "admin",
						"offset": 0,
						"slot": "0",
						"type": "t_address"
					},
					{
						"astId": 17,
						"contract": "contracts/DoctorRegistry.sol:DoctorRegistry",
						"label": "doctors",
						"offset": 0,
						"slot": "1",
						"type": "t_mapping(t_address,t_struct(Doctor)12_storage)"
					},
					{
						"astId": 20,
						"contract": "contracts/DoctorRegistry.sol:DoctorRegistry",
						"label": "registeredDoctorAddresses",
						"offset": 0,
						"slot": "2",
						"type": "t_array(t_address)dyn_storage"
					}
				],
				"types": {
					"t_address": {
						"encoding": "inplace",
						"label": "address",
						"numberOfBytes": "20"
					},
					"t_array(t_address)dyn_storage": {
						"base": "t_address",
						"encoding": "dynamic_array",
						"label": "address[]",
						"numberOfBytes": "32"
					},
					"t_bool": {
						"encoding": "inplace",
						"label": "bool",
						"numberOfBytes": "1"
					},
					"t_mapping(t_address,t_struct(Doctor)12_storage)": {
						"encoding": "mapping",
						"key": "t_address",
						"label": "mapping(address => struct DoctorRegistry.Doctor)",
						"numberOfBytes": "32",
						"value": "t_struct(Doctor)12_storage"
					},
					"t_string_storage": {
						"encoding": "bytes",
						"label": "string",
						"numberOfBytes": "32"
					},
					"t_struct(Doctor)12_storage": {
						"encoding": "inplace",
						"label": "struct DoctorRegistry.Doctor",
						"members": [
							{
								"astId": 5,
								"contract": "contracts/DoctorRegistry.sol:DoctorRegistry",
								"label": "walletAddress",
								"offset": 0,
								"slot": "0",
								"type": "t_address"
							},
							{
								"astId": 7,
								"contract": "contracts/DoctorRegistry.sol:DoctorRegistry",
								"label": "ipfsHash",
								"offset": 0,
								"slot": "1",
								"type": "t_string_storage"
							},
							{
								"astId": 9,
								"contract": "contracts/DoctorRegistry.sol:DoctorRegistry",
								"label": "verified",
								"offset": 0,
								"slot": "2",
								"type": "t_bool"
							},
							{
								"astId": 11,
								"contract": "contracts/DoctorRegistry.sol:DoctorRegistry",
								"label": "registered",
								"offset": 1,
								"slot": "2",
								"type": "t_bool"
							}
						],
						"numberOfBytes": "96"
					}
				}
			},
			"userdoc": {
				"kind": "user",
				"methods": {},
				"version": 1
			}
		}
	}
}