{
	"contracts/DoctorRegistry.sol": {
		"DoctorRegistry": {
			"abi": [
				{
					"inputs": [],
					"stateMutability": "nonpayable",
					"type": "constructor"
				},
				{
					"anonymous": false,
					"inputs": [
						{
							"indexed": true,
							"internalType": "address",
							"name": "doctor",
							"type": "address"
						},
						{
							"indexed": false,
							"internalType": "string",
							"name": "ipfsHash",
							"type": "string"
						}
					],
					"name": "DoctorRegistered",
					"type": "event"
				},
				{
					"anonymous": false,
					"inputs": [
						{
							"indexed": true,
							"internalType": "address",
							"name": "doctor",
							"type": "address"
						}
					],
					"name": "DoctorVerified",
					"type": "event"
				},
				{
					"inputs": [],
					"name": "admin",
					"outputs": [
						{
							"internalType": "address",
							"name": "",
							"type": "address"
						}
					],
					"stateMutability": "view",
					"type": "function"
				},
				{
					"inputs": [
						{
							"internalType": "address",
							"name": "",
							"type": "address"
						}
					],
					"name": "doctors",
					"outputs": [
						{
							"internalType": "string",
							"name": "ipfsHash",
							"type": "string"
						},
						{
							"internalType": "bool",
							"name": "verified",
							"type": "bool"
						},
						{
							"internalType": "bool",
							"name": "registered",
							"type": "bool"
						}
					],
					"stateMutability": "view",
					"type": "function"
				},
				{
					"inputs": [
						{
							"internalType": "address",
							"name": "_doctor",
							"type": "address"
						}
					],
					"name": "getDoctorDetails",
					"outputs": [
						{
							"internalType": "string",
							"name": "",
							"type": "string"
						}
					],
					"stateMutability": "view",
					"type": "function"
				},
				{
					"inputs": [
						{
							"internalType": "address",
							"name": "_doctor",
							"type": "address"
						}
					],
					"name": "isVerified",
					"outputs": [
						{
							"internalType": "bool",
							"name": "",
							"type": "bool"
						}
					],
					"stateMutability": "view",
					"type": "function"
				},
				{
					"inputs": [
						{
							"internalType": "string",
							"name": "_ipfsHash",
							"type": "string"
						}
					],
					"name": "registerDoctor",
					"outputs": [],
					"stateMutability": "nonpayable",
					"type": "function"
				},
				{
					"inputs": [
						{
							"internalType": "address",
							"name": "_doctor",
							"type": "address"
						}
					],
					"name": "verifyDoctor",
					"outputs": [],
					"stateMutability": "nonpayable",
					"type": "function"
				}
			],
			"devdoc": {
				"kind": "dev",
				"methods": {},
				"version": 1
			},
			"evm": {
				"assembly": "    /* \"contracts/DoctorRegistry.sol\":61:2026  contract DoctorRegistry {... */\n  mstore(0x40, 0x80)\n    /* \"contracts/DoctorRegistry.sol\":663:714  constructor() {... */\n  callvalue\n  dup1\n  iszero\n  tag_1\n  jumpi\n  revert(0x00, 0x00)\ntag_1:\n  pop\n    /* \"contracts/DoctorRegistry.sol\":696:706  msg.sender */\n  caller\n    /* \"contracts/DoctorRegistry.sol\":688:693  admin */\n  0x00\n  0x00\n    /* \"contracts/DoctorRegistry.sol\":688:706  admin = msg.sender */\n  0x0100\n  exp\n  dup2\n  sload\n  dup2\n  0xffffffffffffffffffffffffffffffffffffffff\n  mul\n  not\n  and\n  swap1\n  dup4\n  0xffffffffffffffffffffffffffffffffffffffff\n  and\n  mul\n  or\n  swap1\n  sstore\n  pop\n    /* \"contracts/DoctorRegistry.sol\":61:2026  contract DoctorRegistry {... */\n  dataSize(sub_0)\n  dup1\n  dataOffset(sub_0)\n  0x00\n  codecopy\n  0x00\n  return\nstop\n\nsub_0: assembly {\n        /* \"contracts/DoctorRegistry.sol\":61:2026  contract DoctorRegistry {... */\n      mstore(0x40, 0x80)\n      callvalue\n      dup1\n      iszero\n      tag_1\n      jumpi\n      revert(0x00, 0x00)\n    tag_1:\n      pop\n      jumpi(tag_2, lt(calldatasize, 0x04))\n      shr(0xe0, calldataload(0x00))\n      dup1\n      0x8f09ab5b\n      eq\n      tag_3\n      jumpi\n      dup1\n      0xa9583c22\n      eq\n      tag_4\n      jumpi\n      dup1\n      0xb9209e33\n      eq\n      tag_5\n      jumpi\n      dup1\n      0xbab90dbd\n      eq\n      tag_6\n      jumpi\n      dup1\n      0xd80cb05c\n      eq\n      tag_7\n      jumpi\n      dup1\n      0xf851a440\n      eq\n      tag_8\n      jumpi\n    tag_2:\n      revert(0x00, 0x00)\n        /* \"contracts/DoctorRegistry.sol\":802:1215  function registerDoctor(string memory _ipfsHash) external {... */\n    tag_3:\n      tag_9\n      0x04\n      dup1\n      calldatasize\n      sub\n      dup2\n      add\n      swap1\n      tag_10\n      swap2\n      swap1\n      tag_11\n      jump\t// in\n    tag_10:\n      tag_12\n      jump\t// in\n    tag_9:\n      stop\n        /* \"contracts/DoctorRegistry.sol\":389:430  mapping(address => Doctor) public doctors */\n    tag_4:\n      tag_13\n      0x04\n      dup1\n      calldatasize\n      sub\n      dup2\n      add\n      swap1\n      tag_14\n      swap2\n      swap1\n      tag_15\n      jump\t// in\n    tag_14:\n      tag_16\n      jump\t// in\n    tag_13:\n      mload(0x40)\n      tag_17\n      swap4\n      swap3\n      swap2\n      swap1\n      tag_18\n      jump\t// in\n    tag_17:\n      mload(0x40)\n      dup1\n      swap2\n      sub\n      swap1\n      return\n        /* \"contracts/DoctorRegistry.sol\":1645:1762  function isVerified(address _doctor) external view returns (bool) {... */\n    tag_5:\n      tag_19\n      0x04\n      dup1\n      calldatasize\n      sub\n      dup2\n      add\n      swap1\n      tag_20\n      swap2\n      swap1\n      tag_15\n      jump\t// in\n    tag_20:\n      tag_21\n      jump\t// in\n    tag_19:\n      mload(0x40)\n      tag_22\n      swap2\n      swap1\n      tag_23\n      jump\t// in\n    tag_22:\n      mload(0x40)\n      dup1\n      swap2\n      sub\n      swap1\n      return\n        /* \"contracts/DoctorRegistry.sol\":1819:2023  function getDoctorDetails(address _doctor) external view returns (string memory) {... */\n    tag_6:\n      tag_24\n      0x04\n      dup1\n      calldatasize\n      sub\n      dup2\n      add\n      swap1\n      tag_25\n      swap2\n      swap1\n      tag_15\n      jump\t// in\n    tag_25:\n      tag_26\n      jump\t// in\n    tag_24:\n      mload(0x40)\n      tag_27\n      swap2\n      swap1\n      tag_28\n      jump\t// in\n    tag_27:\n      mload(0x40)\n      dup1\n      swap2\n      sub\n      swap1\n      return\n        /* \"contracts/DoctorRegistry.sol\":1292:1580  function verifyDoctor(address _doctor) external onlyAdmin {... */\n    tag_7:\n      tag_29\n      0x04\n      dup1\n      calldatasize\n      sub\n      dup2\n      add\n      swap1\n      tag_30\n      swap2\n      swap1\n      tag_15\n      jump\t// in\n    tag_30:\n      tag_31\n      jump\t// in\n    tag_29:\n      stop\n        /* \"contracts/DoctorRegistry.sol\":92:112  address public admin */\n    tag_8:\n      tag_32\n      tag_33\n      jump\t// in\n    tag_32:\n      mload(0x40)\n      tag_34\n      swap2\n      swap1\n      tag_35\n      jump\t// in\n    tag_34:\n      mload(0x40)\n      dup1\n      swap2\n      sub\n      swap1\n      return\n        /* \"contracts/DoctorRegistry.sol\":802:1215  function registerDoctor(string memory _ipfsHash) external {... */\n    tag_12:\n        /* \"contracts/DoctorRegistry.sol\":880:887  doctors */\n      0x01\n        /* \"contracts/DoctorRegistry.sol\":880:899  doctors[msg.sender] */\n      0x00\n        /* \"contracts/DoctorRegistry.sol\":888:898  msg.sender */\n      caller\n        /* \"contracts/DoctorRegistry.sol\":880:899  doctors[msg.sender] */\n      0xffffffffffffffffffffffffffffffffffffffff\n      and\n      0xffffffffffffffffffffffffffffffffffffffff\n      and\n      dup2\n      mstore\n      0x20\n      add\n      swap1\n      dup2\n      mstore\n      0x20\n      add\n      0x00\n      keccak256\n        /* \"contracts/DoctorRegistry.sol\":880:910  doctors[msg.sender].registered */\n      0x01\n      add\n      0x01\n      swap1\n      sload\n      swap1\n      0x0100\n      exp\n      swap1\n      div\n      0xff\n      and\n        /* \"contracts/DoctorRegistry.sol\":879:910  !doctors[msg.sender].registered */\n      iszero\n        /* \"contracts/DoctorRegistry.sol\":871:933  require(!doctors[msg.sender].registered, \"Already registered\") */\n      tag_37\n      jumpi\n      mload(0x40)\n      0x08c379a000000000000000000000000000000000000000000000000000000000\n      dup2\n      mstore\n      0x04\n      add\n      tag_38\n      swap1\n      tag_39\n      jump\t// in\n    tag_38:\n      mload(0x40)\n      dup1\n      swap2\n      sub\n      swap1\n      revert\n    tag_37:\n        /* \"contracts/DoctorRegistry.sol\":978:979  0 */\n      0x00\n        /* \"contracts/DoctorRegistry.sol\":958:967  _ipfsHash */\n      dup2\n        /* \"contracts/DoctorRegistry.sol\":952:975  bytes(_ipfsHash).length */\n      mload\n        /* \"contracts/DoctorRegistry.sol\":952:979  bytes(_ipfsHash).length > 0 */\n      gt\n        /* \"contracts/DoctorRegistry.sol\":944:1001  require(bytes(_ipfsHash).length > 0, \"Invalid IPFS hash\") */\n      tag_40\n      jumpi\n      mload(0x40)\n      0x08c379a000000000000000000000000000000000000000000000000000000000\n      dup2\n      mstore\n      0x04\n      add\n      tag_41\n      swap1\n      tag_42\n      jump\t// in\n    tag_41:\n      mload(0x40)\n      dup1\n      swap2\n      sub\n      swap1\n      revert\n    tag_40:\n        /* \"contracts/DoctorRegistry.sol\":1036:1150  Doctor({... */\n      mload(0x40)\n      dup1\n      0x60\n      add\n      0x40\n      mstore\n      dup1\n        /* \"contracts/DoctorRegistry.sol\":1068:1077  _ipfsHash */\n      dup3\n        /* \"contracts/DoctorRegistry.sol\":1036:1150  Doctor({... */\n      dup2\n      mstore\n      0x20\n      add\n        /* \"contracts/DoctorRegistry.sol\":1102:1107  false */\n      0x00\n        /* \"contracts/DoctorRegistry.sol\":1036:1150  Doctor({... */\n      iszero\n      iszero\n      dup2\n      mstore\n      0x20\n      add\n        /* \"contracts/DoctorRegistry.sol\":1134:1138  true */\n      0x01\n        /* \"contracts/DoctorRegistry.sol\":1036:1150  Doctor({... */\n      iszero\n      iszero\n      dup2\n      mstore\n      pop\n        /* \"contracts/DoctorRegistry.sol\":1014:1021  doctors */\n      0x01\n        /* \"contracts/DoctorRegistry.sol\":1014:1033  doctors[msg.sender] */\n      0x00\n        /* \"contracts/DoctorRegistry.sol\":1022:1032  msg.sender */\n      caller\n        /* \"contracts/DoctorRegistry.sol\":1014:1033  doctors[msg.sender] */\n      0xffffffffffffffffffffffffffffffffffffffff\n      and\n      0xffffffffffffffffffffffffffffffffffffffff\n      and\n      dup2\n      mstore\n      0x20\n      add\n      swap1\n      dup2\n      mstore\n      0x20\n      add\n      0x00\n      keccak256\n        /* \"contracts/DoctorRegistry.sol\":1014:1150  doctors[msg.sender] = Doctor({... */\n      0x00\n      dup3\n      add\n      mload\n      dup2\n      0x00\n      add\n      swap1\n      dup2\n      tag_43\n      swap2\n      swap1\n      tag_44\n      jump\t// in\n    tag_43:\n      pop\n      0x20\n      dup3\n      add\n      mload\n      dup2\n      0x01\n      add\n      exp(0x0100, 0x00)\n      dup2\n      sload\n      dup2\n      0xff\n      mul\n      not\n      and\n      swap1\n      dup4\n      iszero\n      iszero\n      mul\n      or\n      swap1\n      sstore\n      pop\n      0x40\n      dup3\n      add\n      mload\n      dup2\n      0x01\n      add\n      exp(0x0100, 0x01)\n      dup2\n      sload\n      dup2\n      0xff\n      mul\n      not\n      and\n      swap1\n      dup4\n      iszero\n      iszero\n      mul\n      or\n      swap1\n      sstore\n      pop\n      swap1\n      pop\n      pop\n        /* \"contracts/DoctorRegistry.sol\":1185:1195  msg.sender */\n      caller\n        /* \"contracts/DoctorRegistry.sol\":1168:1207  DoctorRegistered(msg.sender, _ipfsHash) */\n      0xffffffffffffffffffffffffffffffffffffffff\n      and\n      0x20481b8112b5bf4734f45a473c373db9df6a79ce946cdc0e7dbc22b4f7d7f986\n        /* \"contracts/DoctorRegistry.sol\":1197:1206  _ipfsHash */\n      dup3\n        /* \"contracts/DoctorRegistry.sol\":1168:1207  DoctorRegistered(msg.sender, _ipfsHash) */\n      mload(0x40)\n      tag_45\n      swap2\n      swap1\n      tag_28\n      jump\t// in\n    tag_45:\n      mload(0x40)\n      dup1\n      swap2\n      sub\n      swap1\n      log2\n        /* \"contracts/DoctorRegistry.sol\":802:1215  function registerDoctor(string memory _ipfsHash) external {... */\n      pop\n      jump\t// out\n        /* \"contracts/DoctorRegistry.sol\":389:430  mapping(address => Doctor) public doctors */\n    tag_16:\n      mstore(0x20, 0x01)\n      dup1\n      0x00\n      mstore\n      keccak256(0x00, 0x40)\n      0x00\n      swap2\n      pop\n      swap1\n      pop\n      dup1\n      0x00\n      add\n      dup1\n      sload\n      tag_46\n      swap1\n      tag_47\n      jump\t// in\n    tag_46:\n      dup1\n      0x1f\n      add\n      0x20\n      dup1\n      swap2\n      div\n      mul\n      0x20\n      add\n      mload(0x40)\n      swap1\n      dup2\n      add\n      0x40\n      mstore\n      dup1\n      swap3\n      swap2\n      swap1\n      dup2\n      dup2\n      mstore\n      0x20\n      add\n      dup3\n      dup1\n      sload\n      tag_48\n      swap1\n      tag_47\n      jump\t// in\n    tag_48:\n      dup1\n      iszero\n      tag_49\n      jumpi\n      dup1\n      0x1f\n      lt\n      tag_50\n      jumpi\n      0x0100\n      dup1\n      dup4\n      sload\n      div\n      mul\n      dup4\n      mstore\n      swap2\n      0x20\n      add\n      swap2\n      jump(tag_49)\n    tag_50:\n      dup3\n      add\n      swap2\n      swap1\n      0x00\n      mstore\n      keccak256(0x00, 0x20)\n      swap1\n    tag_51:\n      dup2\n      sload\n      dup2\n      mstore\n      swap1\n      0x01\n      add\n      swap1\n      0x20\n      add\n      dup1\n      dup4\n      gt\n      tag_51\n      jumpi\n      dup3\n      swap1\n      sub\n      0x1f\n      and\n      dup3\n      add\n      swap2\n    tag_49:\n      pop\n      pop\n      pop\n      pop\n      pop\n      swap1\n      dup1\n      0x01\n      add\n      0x00\n      swap1\n      sload\n      swap1\n      0x0100\n      exp\n      swap1\n      div\n      0xff\n      and\n      swap1\n      dup1\n      0x01\n      add\n      0x01\n      swap1\n      sload\n      swap1\n      0x0100\n      exp\n      swap1\n      div\n      0xff\n      and\n      swap1\n      pop\n      dup4\n      jump\t// out\n        /* \"contracts/DoctorRegistry.sol\":1645:1762  function isVerified(address _doctor) external view returns (bool) {... */\n    tag_21:\n        /* \"contracts/DoctorRegistry.sol\":1705:1709  bool */\n      0x00\n        /* \"contracts/DoctorRegistry.sol\":1729:1736  doctors */\n      0x01\n        /* \"contracts/DoctorRegistry.sol\":1729:1745  doctors[_doctor] */\n      0x00\n        /* \"contracts/DoctorRegistry.sol\":1737:1744  _doctor */\n      dup4\n        /* \"contracts/DoctorRegistry.sol\":1729:1745  doctors[_doctor] */\n      0xffffffffffffffffffffffffffffffffffffffff\n      and\n      0xffffffffffffffffffffffffffffffffffffffff\n      and\n      dup2\n      mstore\n      0x20\n      add\n      swap1\n      dup2\n      mstore\n      0x20\n      add\n      0x00\n      keccak256\n        /* \"contracts/DoctorRegistry.sol\":1729:1754  doctors[_doctor].verified */\n      0x01\n      add\n      0x00\n      swap1\n      sload\n      swap1\n      0x0100\n      exp\n      swap1\n      div\n      0xff\n      and\n        /* \"contracts/DoctorRegistry.sol\":1722:1754  return doctors[_doctor].verified */\n      swap1\n      pop\n        /* \"contracts/DoctorRegistry.sol\":1645:1762  function isVerified(address _doctor) external view returns (bool) {... */\n      swap2\n      swap1\n      pop\n      jump\t// out\n        /* \"contracts/DoctorRegistry.sol\":1819:2023  function getDoctorDetails(address _doctor) external view returns (string memory) {... */\n    tag_26:\n        /* \"contracts/DoctorRegistry.sol\":1885:1898  string memory */\n      0x60\n        /* \"contracts/DoctorRegistry.sol\":1919:1926  doctors */\n      0x01\n        /* \"contracts/DoctorRegistry.sol\":1919:1935  doctors[_doctor] */\n      0x00\n        /* \"contracts/DoctorRegistry.sol\":1927:1934  _doctor */\n      dup4\n        /* \"contracts/DoctorRegistry.sol\":1919:1935  doctors[_doctor] */\n      0xffffffffffffffffffffffffffffffffffffffff\n      and\n      0xffffffffffffffffffffffffffffffffffffffff\n      and\n      dup2\n      mstore\n      0x20\n      add\n      swap1\n      dup2\n      mstore\n      0x20\n      add\n      0x00\n      keccak256\n        /* \"contracts/DoctorRegistry.sol\":1919:1946  doctors[_doctor].registered */\n      0x01\n      add\n      0x01\n      swap1\n      sload\n      swap1\n      0x0100\n      exp\n      swap1\n      div\n      0xff\n      and\n        /* \"contracts/DoctorRegistry.sol\":1911:1972  require(doctors[_doctor].registered, \"Doctor not registered\") */\n      tag_54\n      jumpi\n      mload(0x40)\n      0x08c379a000000000000000000000000000000000000000000000000000000000\n      dup2\n      mstore\n      0x04\n      add\n      tag_55\n      swap1\n      tag_56\n      jump\t// in\n    tag_55:\n      mload(0x40)\n      dup1\n      swap2\n      sub\n      swap1\n      revert\n    tag_54:\n        /* \"contracts/DoctorRegistry.sol\":1990:1997  doctors */\n      0x01\n        /* \"contracts/DoctorRegistry.sol\":1990:2006  doctors[_doctor] */\n      0x00\n        /* \"contracts/DoctorRegistry.sol\":1998:2005  _doctor */\n      dup4\n        /* \"contracts/DoctorRegistry.sol\":1990:2006  doctors[_doctor] */\n      0xffffffffffffffffffffffffffffffffffffffff\n      and\n      0xffffffffffffffffffffffffffffffffffffffff\n      and\n      dup2\n      mstore\n      0x20\n      add\n      swap1\n      dup2\n      mstore\n      0x20\n      add\n      0x00\n      keccak256\n        /* \"contracts/DoctorRegistry.sol\":1990:2015  doctors[_doctor].ipfsHash */\n      0x00\n      add\n        /* \"contracts/DoctorRegistry.sol\":1983:2015  return doctors[_doctor].ipfsHash */\n      dup1\n      sload\n      tag_57\n      swap1\n      tag_47\n      jump\t// in\n    tag_57:\n      dup1\n      0x1f\n      add\n      0x20\n      dup1\n      swap2\n      div\n      mul\n      0x20\n      add\n      mload(0x40)\n      swap1\n      dup2\n      add\n      0x40\n      mstore\n      dup1\n      swap3\n      swap2\n      swap1\n      dup2\n      dup2\n      mstore\n      0x20\n      add\n      dup3\n      dup1\n      sload\n      tag_58\n      swap1\n      tag_47\n      jump\t// in\n    tag_58:\n      dup1\n      iszero\n      tag_59\n      jumpi\n      dup1\n      0x1f\n      lt\n      tag_60\n      jumpi\n      0x0100\n      dup1\n      dup4\n      sload\n      div\n      mul\n      dup4\n      mstore\n      swap2\n      0x20\n      add\n      swap2\n      jump(tag_59)\n    tag_60:\n      dup3\n      add\n      swap2\n      swap1\n      0x00\n      mstore\n      keccak256(0x00, 0x20)\n      swap1\n    tag_61:\n      dup2\n      sload\n      dup2\n      mstore\n      swap1\n      0x01\n      add\n      swap1\n      0x20\n      add\n      dup1\n      dup4\n      gt\n      tag_61\n      jumpi\n      dup3\n      swap1\n      sub\n      0x1f\n      and\n      dup3\n      add\n      swap2\n    tag_59:\n      pop\n      pop\n      pop\n      pop\n      pop\n      swap1\n      pop\n        /* \"contracts/DoctorRegistry.sol\":1819:2023  function getDoctorDetails(address _doctor) external view returns (string memory) {... */\n      swap2\n      swap1\n      pop\n      jump\t// out\n        /* \"contracts/DoctorRegistry.sol\":1292:1580  function verifyDoctor(address _doctor) external onlyAdmin {... */\n    tag_31:\n        /* \"contracts/DoctorRegistry.sol\":616:621  admin */\n      0x00\n      0x00\n      swap1\n      sload\n      swap1\n      0x0100\n      exp\n      swap1\n      div\n      0xffffffffffffffffffffffffffffffffffffffff\n      and\n        /* \"contracts/DoctorRegistry.sol\":602:621  msg.sender == admin */\n      0xffffffffffffffffffffffffffffffffffffffff\n      and\n        /* \"contracts/DoctorRegistry.sol\":602:612  msg.sender */\n      caller\n        /* \"contracts/DoctorRegistry.sol\":602:621  msg.sender == admin */\n      0xffffffffffffffffffffffffffffffffffffffff\n      and\n      eq\n        /* \"contracts/DoctorRegistry.sol\":594:635  require(msg.sender == admin, \"Not admin\") */\n      tag_63\n      jumpi\n      mload(0x40)\n      0x08c379a000000000000000000000000000000000000000000000000000000000\n      dup2\n      mstore\n      0x04\n      add\n      tag_64\n      swap1\n      tag_65\n      jump\t// in\n    tag_64:\n      mload(0x40)\n      dup1\n      swap2\n      sub\n      swap1\n      revert\n    tag_63:\n        /* \"contracts/DoctorRegistry.sol\":1369:1376  doctors */\n      0x01\n        /* \"contracts/DoctorRegistry.sol\":1369:1385  doctors[_doctor] */\n      0x00\n        /* \"contracts/DoctorRegistry.sol\":1377:1384  _doctor */\n      dup3\n        /* \"contracts/DoctorRegistry.sol\":1369:1385  doctors[_doctor] */\n      0xffffffffffffffffffffffffffffffffffffffff\n      and\n      0xffffffffffffffffffffffffffffffffffffffff\n      and\n      dup2\n      mstore\n      0x20\n      add\n      swap1\n      dup2\n      mstore\n      0x20\n      add\n      0x00\n      keccak256\n        /* \"contracts/DoctorRegistry.sol\":1369:1396  doctors[_doctor].registered */\n      0x01\n      add\n      0x01\n      swap1\n      sload\n      swap1\n      0x0100\n      exp\n      swap1\n      div\n      0xff\n      and\n        /* \"contracts/DoctorRegistry.sol\":1361:1422  require(doctors[_doctor].registered, \"Doctor not registered\") */\n      tag_67\n      jumpi\n      mload(0x40)\n      0x08c379a000000000000000000000000000000000000000000000000000000000\n      dup2\n      mstore\n      0x04\n      add\n      tag_68\n      swap1\n      tag_56\n      jump\t// in\n    tag_68:\n      mload(0x40)\n      dup1\n      swap2\n      sub\n      swap1\n      revert\n    tag_67:\n        /* \"contracts/DoctorRegistry.sol\":1442:1449  doctors */\n      0x01\n        /* \"contracts/DoctorRegistry.sol\":1442:1458  doctors[_doctor] */\n      0x00\n        /* \"contracts/DoctorRegistry.sol\":1450:1457  _doctor */\n      dup3\n        /* \"contracts/DoctorRegistry.sol\":1442:1458  doctors[_doctor] */\n      0xffffffffffffffffffffffffffffffffffffffff\n      and\n      0xffffffffffffffffffffffffffffffffffffffff\n      and\n      dup2\n      mstore\n      0x20\n      add\n      swap1\n      dup2\n      mstore\n      0x20\n      add\n      0x00\n      keccak256\n        /* \"contracts/DoctorRegistry.sol\":1442:1467  doctors[_doctor].verified */\n      0x01\n      add\n      0x00\n      swap1\n      sload\n      swap1\n      0x0100\n      exp\n      swap1\n      div\n      0xff\n      and\n        /* \"contracts/DoctorRegistry.sol\":1441:1467  !doctors[_doctor].verified */\n      iszero\n        /* \"contracts/DoctorRegistry.sol\":1433:1488  require(!doctors[_doctor].verified, \"Already verified\") */\n      tag_69\n      jumpi\n      mload(0x40)\n      0x08c379a000000000000000000000000000000000000000000000000000000000\n      dup2\n      mstore\n      0x04\n      add\n      tag_70\n      swap1\n      tag_71\n      jump\t// in\n    tag_70:\n      mload(0x40)\n      dup1\n      swap2\n      sub\n      swap1\n      revert\n    tag_69:\n        /* \"contracts/DoctorRegistry.sol\":1529:1533  true */\n      0x01\n        /* \"contracts/DoctorRegistry.sol\":1501:1508  doctors */\n      dup1\n        /* \"contracts/DoctorRegistry.sol\":1501:1517  doctors[_doctor] */\n      0x00\n        /* \"contracts/DoctorRegistry.sol\":1509:1516  _doctor */\n      dup4\n        /* \"contracts/DoctorRegistry.sol\":1501:1517  doctors[_doctor] */\n      0xffffffffffffffffffffffffffffffffffffffff\n      and\n      0xffffffffffffffffffffffffffffffffffffffff\n      and\n      dup2\n      mstore\n      0x20\n      add\n      swap1\n      dup2\n      mstore\n      0x20\n      add\n      0x00\n      keccak256\n        /* \"contracts/DoctorRegistry.sol\":1501:1526  doctors[_doctor].verified */\n      0x01\n      add\n      0x00\n        /* \"contracts/DoctorRegistry.sol\":1501:1533  doctors[_doctor].verified = true */\n      0x0100\n      exp\n      dup2\n      sload\n      dup2\n      0xff\n      mul\n      not\n      and\n      swap1\n      dup4\n      iszero\n      iszero\n      mul\n      or\n      swap1\n      sstore\n      pop\n        /* \"contracts/DoctorRegistry.sol\":1564:1571  _doctor */\n      dup1\n        /* \"contracts/DoctorRegistry.sol\":1549:1572  DoctorVerified(_doctor) */\n      0xffffffffffffffffffffffffffffffffffffffff\n      and\n      0xb0859f2cf042b300c8948cdd785ec6a23a3742bc5446c19f4b270b67fac2c967\n      mload(0x40)\n      mload(0x40)\n      dup1\n      swap2\n      sub\n      swap1\n      log2\n        /* \"contracts/DoctorRegistry.sol\":1292:1580  function verifyDoctor(address _doctor) external onlyAdmin {... */\n      pop\n      jump\t// out\n        /* \"contracts/DoctorRegistry.sol\":92:112  address public admin */\n    tag_33:\n      0x00\n      0x00\n      swap1\n      sload\n      swap1\n      0x0100\n      exp\n      swap1\n      div\n      0xffffffffffffffffffffffffffffffffffffffff\n      and\n      dup2\n      jump\t// out\n        /* \"#utility.yul\":7:82   */\n    tag_72:\n        /* \"#utility.yul\":40:46   */\n      0x00\n        /* \"#utility.yul\":73:75   */\n      0x40\n        /* \"#utility.yul\":67:76   */\n      mload\n        /* \"#utility.yul\":57:76   */\n      swap1\n      pop\n        /* \"#utility.yul\":7:82   */\n      swap1\n      jump\t// out\n        /* \"#utility.yul\":88:205   */\n    tag_73:\n        /* \"#utility.yul\":197:198   */\n      0x00\n        /* \"#utility.yul\":194:195   */\n      0x00\n        /* \"#utility.yul\":187:199   */\n      revert\n        /* \"#utility.yul\":211:328   */\n    tag_74:\n        /* \"#utility.yul\":320:321   */\n      0x00\n        /* \"#utility.yul\":317:318   */\n      0x00\n        /* \"#utility.yul\":310:322   */\n      revert\n        /* \"#utility.yul\":334:451   */\n    tag_75:\n        /* \"#utility.yul\":443:444   */\n      0x00\n        /* \"#utility.yul\":440:441   */\n      0x00\n        /* \"#utility.yul\":433:445   */\n      revert\n        /* \"#utility.yul\":457:574   */\n    tag_76:\n        /* \"#utility.yul\":566:567   */\n      0x00\n        /* \"#utility.yul\":563:564   */\n      0x00\n        /* \"#utility.yul\":556:568   */\n      revert\n        /* \"#utility.yul\":580:682   */\n    tag_77:\n        /* \"#utility.yul\":621:627   */\n      0x00\n        /* \"#utility.yul\":672:674   */\n      0x1f\n        /* \"#utility.yul\":668:675   */\n      not\n        /* \"#utility.yul\":663:665   */\n      0x1f\n        /* \"#utility.yul\":656:661   */\n      dup4\n        /* \"#utility.yul\":652:666   */\n      add\n        /* \"#utility.yul\":648:676   */\n      and\n        /* \"#utility.yul\":638:676   */\n      swap1\n      pop\n        /* \"#utility.yul\":580:682   */\n      swap2\n      swap1\n      pop\n      jump\t// out\n        /* \"#utility.yul\":688:868   */\n    tag_78:\n        /* \"#utility.yul\":736:813   */\n      0x4e487b7100000000000000000000000000000000000000000000000000000000\n        /* \"#utility.yul\":733:734   */\n      0x00\n        /* \"#utility.yul\":726:814   */\n      mstore\n        /* \"#utility.yul\":833:837   */\n      0x41\n        /* \"#utility.yul\":830:831   */\n      0x04\n        /* \"#utility.yul\":823:838   */\n      mstore\n        /* \"#utility.yul\":857:861   */\n      0x24\n        /* \"#utility.yul\":854:855   */\n      0x00\n        /* \"#utility.yul\":847:862   */\n      revert\n        /* \"#utility.yul\":874:1155   */\n    tag_79:\n        /* \"#utility.yul\":957:984   */\n      tag_132\n        /* \"#utility.yul\":979:983   */\n      dup3\n        /* \"#utility.yul\":957:984   */\n      tag_77\n      jump\t// in\n    tag_132:\n        /* \"#utility.yul\":949:955   */\n      dup2\n        /* \"#utility.yul\":945:985   */\n      add\n        /* \"#utility.yul\":1087:1093   */\n      dup2\n        /* \"#utility.yul\":1075:1085   */\n      dup2\n        /* \"#utility.yul\":1072:1094   */\n      lt\n        /* \"#utility.yul\":1051:1069   */\n      0xffffffffffffffff\n        /* \"#utility.yul\":1039:1049   */\n      dup3\n        /* \"#utility.yul\":1036:1070   */\n      gt\n        /* \"#utility.yul\":1033:1095   */\n      or\n        /* \"#utility.yul\":1030:1118   */\n      iszero\n      tag_133\n      jumpi\n        /* \"#utility.yul\":1098:1116   */\n      tag_134\n      tag_78\n      jump\t// in\n    tag_134:\n        /* \"#utility.yul\":1030:1118   */\n    tag_133:\n        /* \"#utility.yul\":1138:1148   */\n      dup1\n        /* \"#utility.yul\":1134:1136   */\n      0x40\n        /* \"#utility.yul\":1127:1149   */\n      mstore\n        /* \"#utility.yul\":917:1155   */\n      pop\n        /* \"#utility.yul\":874:1155   */\n      pop\n      pop\n      jump\t// out\n        /* \"#utility.yul\":1161:1290   */\n    tag_80:\n        /* \"#utility.yul\":1195:1201   */\n      0x00\n        /* \"#utility.yul\":1222:1242   */\n      tag_136\n      tag_72\n      jump\t// in\n    tag_136:\n        /* \"#utility.yul\":1212:1242   */\n      swap1\n      pop\n        /* \"#utility.yul\":1251:1284   */\n      tag_137\n        /* \"#utility.yul\":1279:1283   */\n      dup3\n        /* \"#utility.yul\":1271:1277   */\n      dup3\n        /* \"#utility.yul\":1251:1284   */\n      tag_79\n      jump\t// in\n    tag_137:\n        /* \"#utility.yul\":1161:1290   */\n      swap2\n      swap1\n      pop\n      jump\t// out\n        /* \"#utility.yul\":1296:1604   */\n    tag_81:\n        /* \"#utility.yul\":1358:1362   */\n      0x00\n        /* \"#utility.yul\":1448:1466   */\n      0xffffffffffffffff\n        /* \"#utility.yul\":1440:1446   */\n      dup3\n        /* \"#utility.yul\":1437:1467   */\n      gt\n        /* \"#utility.yul\":1434:1490   */\n      iszero\n      tag_139\n      jumpi\n        /* \"#utility.yul\":1470:1488   */\n      tag_140\n      tag_78\n      jump\t// in\n    tag_140:\n        /* \"#utility.yul\":1434:1490   */\n    tag_139:\n        /* \"#utility.yul\":1508:1537   */\n      tag_141\n        /* \"#utility.yul\":1530:1536   */\n      dup3\n        /* \"#utility.yul\":1508:1537   */\n      tag_77\n      jump\t// in\n    tag_141:\n        /* \"#utility.yul\":1500:1537   */\n      swap1\n      pop\n        /* \"#utility.yul\":1592:1596   */\n      0x20\n        /* \"#utility.yul\":1586:1590   */\n      dup2\n        /* \"#utility.yul\":1582:1597   */\n      add\n        /* \"#utility.yul\":1574:1597   */\n      swap1\n      pop\n        /* \"#utility.yul\":1296:1604   */\n      swap2\n      swap1\n      pop\n      jump\t// out\n        /* \"#utility.yul\":1610:1758   */\n    tag_82:\n        /* \"#utility.yul\":1708:1714   */\n      dup3\n        /* \"#utility.yul\":1703:1706   */\n      dup2\n        /* \"#utility.yul\":1698:1701   */\n      dup4\n        /* \"#utility.yul\":1685:1715   */\n      calldatacopy\n        /* \"#utility.yul\":1749:1750   */\n      0x00\n        /* \"#utility.yul\":1740:1746   */\n      dup4\n        /* \"#utility.yul\":1735:1738   */\n      dup4\n        /* \"#utility.yul\":1731:1747   */\n      add\n        /* \"#utility.yul\":1724:1751   */\n      mstore\n        /* \"#utility.yul\":1610:1758   */\n      pop\n      pop\n      pop\n      jump\t// out\n        /* \"#utility.yul\":1764:2189   */\n    tag_83:\n        /* \"#utility.yul\":1842:1847   */\n      0x00\n        /* \"#utility.yul\":1867:1933   */\n      tag_144\n        /* \"#utility.yul\":1883:1932   */\n      tag_145\n        /* \"#utility.yul\":1925:1931   */\n      dup5\n        /* \"#utility.yul\":1883:1932   */\n      tag_81\n      jump\t// in\n    tag_145:\n        /* \"#utility.yul\":1867:1933   */\n      tag_80\n      jump\t// in\n    tag_144:\n        /* \"#utility.yul\":1858:1933   */\n      swap1\n      pop\n        /* \"#utility.yul\":1956:1962   */\n      dup3\n        /* \"#utility.yul\":1949:1954   */\n      dup2\n        /* \"#utility.yul\":1942:1963   */\n      mstore\n        /* \"#utility.yul\":1994:1998   */\n      0x20\n        /* \"#utility.yul\":1987:1992   */\n      dup2\n        /* \"#utility.yul\":1983:1999   */\n      add\n        /* \"#utility.yul\":2032:2035   */\n      dup5\n        /* \"#utility.yul\":2023:2029   */\n      dup5\n        /* \"#utility.yul\":2018:2021   */\n      dup5\n        /* \"#utility.yul\":2014:2030   */\n      add\n        /* \"#utility.yul\":2011:2036   */\n      gt\n        /* \"#utility.yul\":2008:2120   */\n      iszero\n      tag_146\n      jumpi\n        /* \"#utility.yul\":2039:2118   */\n      tag_147\n      tag_76\n      jump\t// in\n    tag_147:\n        /* \"#utility.yul\":2008:2120   */\n    tag_146:\n        /* \"#utility.yul\":2129:2183   */\n      tag_148\n        /* \"#utility.yul\":2176:2182   */\n      dup5\n        /* \"#utility.yul\":2171:2174   */\n      dup3\n        /* \"#utility.yul\":2166:2169   */\n      dup6\n        /* \"#utility.yul\":2129:2183   */\n      tag_82\n      jump\t// in\n    tag_148:\n        /* \"#utility.yul\":1848:2189   */\n      pop\n        /* \"#utility.yul\":1764:2189   */\n      swap4\n      swap3\n      pop\n      pop\n      pop\n      jump\t// out\n        /* \"#utility.yul\":2209:2549   */\n    tag_84:\n        /* \"#utility.yul\":2265:2270   */\n      0x00\n        /* \"#utility.yul\":2314:2317   */\n      dup3\n        /* \"#utility.yul\":2307:2311   */\n      0x1f\n        /* \"#utility.yul\":2299:2305   */\n      dup4\n        /* \"#utility.yul\":2295:2312   */\n      add\n        /* \"#utility.yul\":2291:2318   */\n      slt\n        /* \"#utility.yul\":2281:2403   */\n      tag_150\n      jumpi\n        /* \"#utility.yul\":2322:2401   */\n      tag_151\n      tag_75\n      jump\t// in\n    tag_151:\n        /* \"#utility.yul\":2281:2403   */\n    tag_150:\n        /* \"#utility.yul\":2439:2445   */\n      dup2\n        /* \"#utility.yul\":2426:2446   */\n      calldataload\n        /* \"#utility.yul\":2464:2543   */\n      tag_152\n        /* \"#utility.yul\":2539:2542   */\n      dup5\n        /* \"#utility.yul\":2531:2537   */\n      dup3\n        /* \"#utility.yul\":2524:2528   */\n      0x20\n        /* \"#utility.yul\":2516:2522   */\n      dup7\n        /* \"#utility.yul\":2512:2529   */\n      add\n        /* \"#utility.yul\":2464:2543   */\n      tag_83\n      jump\t// in\n    tag_152:\n        /* \"#utility.yul\":2455:2543   */\n      swap2\n      pop\n        /* \"#utility.yul\":2271:2549   */\n      pop\n        /* \"#utility.yul\":2209:2549   */\n      swap3\n      swap2\n      pop\n      pop\n      jump\t// out\n        /* \"#utility.yul\":2555:3064   */\n    tag_11:\n        /* \"#utility.yul\":2624:2630   */\n      0x00\n        /* \"#utility.yul\":2673:2675   */\n      0x20\n        /* \"#utility.yul\":2661:2670   */\n      dup3\n        /* \"#utility.yul\":2652:2659   */\n      dup5\n        /* \"#utility.yul\":2648:2671   */\n      sub\n        /* \"#utility.yul\":2644:2676   */\n      slt\n        /* \"#utility.yul\":2641:2760   */\n      iszero\n      tag_154\n      jumpi\n        /* \"#utility.yul\":2679:2758   */\n      tag_155\n      tag_73\n      jump\t// in\n    tag_155:\n        /* \"#utility.yul\":2641:2760   */\n    tag_154:\n        /* \"#utility.yul\":2827:2828   */\n      0x00\n        /* \"#utility.yul\":2816:2825   */\n      dup3\n        /* \"#utility.yul\":2812:2829   */\n      add\n        /* \"#utility.yul\":2799:2830   */\n      calldataload\n        /* \"#utility.yul\":2857:2875   */\n      0xffffffffffffffff\n        /* \"#utility.yul\":2849:2855   */\n      dup2\n        /* \"#utility.yul\":2846:2876   */\n      gt\n        /* \"#utility.yul\":2843:2960   */\n      iszero\n      tag_156\n      jumpi\n        /* \"#utility.yul\":2879:2958   */\n      tag_157\n      tag_74\n      jump\t// in\n    tag_157:\n        /* \"#utility.yul\":2843:2960   */\n    tag_156:\n        /* \"#utility.yul\":2984:3047   */\n      tag_158\n        /* \"#utility.yul\":3039:3046   */\n      dup5\n        /* \"#utility.yul\":3030:3036   */\n      dup3\n        /* \"#utility.yul\":3019:3028   */\n      dup6\n        /* \"#utility.yul\":3015:3037   */\n      add\n        /* \"#utility.yul\":2984:3047   */\n      tag_84\n      jump\t// in\n    tag_158:\n        /* \"#utility.yul\":2974:3047   */\n      swap2\n      pop\n        /* \"#utility.yul\":2770:3057   */\n      pop\n        /* \"#utility.yul\":2555:3064   */\n      swap3\n      swap2\n      pop\n      pop\n      jump\t// out\n        /* \"#utility.yul\":3070:3196   */\n    tag_85:\n        /* \"#utility.yul\":3107:3114   */\n      0x00\n        /* \"#utility.yul\":3147:3189   */\n      0xffffffffffffffffffffffffffffffffffffffff\n        /* \"#utility.yul\":3140:3145   */\n      dup3\n        /* \"#utility.yul\":3136:3190   */\n      and\n        /* \"#utility.yul\":3125:3190   */\n      swap1\n      pop\n        /* \"#utility.yul\":3070:3196   */\n      swap2\n      swap1\n      pop\n      jump\t// out\n        /* \"#utility.yul\":3202:3298   */\n    tag_86:\n        /* \"#utility.yul\":3239:3246   */\n      0x00\n        /* \"#utility.yul\":3268:3292   */\n      tag_161\n        /* \"#utility.yul\":3286:3291   */\n      dup3\n        /* \"#utility.yul\":3268:3292   */\n      tag_85\n      jump\t// in\n    tag_161:\n        /* \"#utility.yul\":3257:3292   */\n      swap1\n      pop\n        /* \"#utility.yul\":3202:3298   */\n      swap2\n      swap1\n      pop\n      jump\t// out\n        /* \"#utility.yul\":3304:3426   */\n    tag_87:\n        /* \"#utility.yul\":3377:3401   */\n      tag_163\n        /* \"#utility.yul\":3395:3400   */\n      dup2\n        /* \"#utility.yul\":3377:3401   */\n      tag_86\n      jump\t// in\n    tag_163:\n        /* \"#utility.yul\":3370:3375   */\n      dup2\n        /* \"#utility.yul\":3367:3402   */\n      eq\n        /* \"#utility.yul\":3357:3420   */\n      tag_164\n      jumpi\n        /* \"#utility.yul\":3416:3417   */\n      0x00\n        /* \"#utility.yul\":3413:3414   */\n      0x00\n        /* \"#utility.yul\":3406:3418   */\n      revert\n        /* \"#utility.yul\":3357:3420   */\n    tag_164:\n        /* \"#utility.yul\":3304:3426   */\n      pop\n      jump\t// out\n        /* \"#utility.yul\":3432:3571   */\n    tag_88:\n        /* \"#utility.yul\":3478:3483   */\n      0x00\n        /* \"#utility.yul\":3516:3522   */\n      dup2\n        /* \"#utility.yul\":3503:3523   */\n      calldataload\n        /* \"#utility.yul\":3494:3523   */\n      swap1\n      pop\n        /* \"#utility.yul\":3532:3565   */\n      tag_166\n        /* \"#utility.yul\":3559:3564   */\n      dup2\n        /* \"#utility.yul\":3532:3565   */\n      tag_87\n      jump\t// in\n    tag_166:\n        /* \"#utility.yul\":3432:3571   */\n      swap3\n      swap2\n      pop\n      pop\n      jump\t// out\n        /* \"#utility.yul\":3577:3906   */\n    tag_15:\n        /* \"#utility.yul\":3636:3642   */\n      0x00\n        /* \"#utility.yul\":3685:3687   */\n      0x20\n        /* \"#utility.yul\":3673:3682   */\n      dup3\n        /* \"#utility.yul\":3664:3671   */\n      dup5\n        /* \"#utility.yul\":3660:3683   */\n      sub\n        /* \"#utility.yul\":3656:3688   */\n      slt\n        /* \"#utility.yul\":3653:3772   */\n      iszero\n      tag_168\n      jumpi\n        /* \"#utility.yul\":3691:3770   */\n      tag_169\n      tag_73\n      jump\t// in\n    tag_169:\n        /* \"#utility.yul\":3653:3772   */\n    tag_168:\n        /* \"#utility.yul\":3811:3812   */\n      0x00\n        /* \"#utility.yul\":3836:3889   */\n      tag_170\n        /* \"#utility.yul\":3881:3888   */\n      dup5\n        /* \"#utility.yul\":3872:3878   */\n      dup3\n        /* \"#utility.yul\":3861:3870   */\n      dup6\n        /* \"#utility.yul\":3857:3879   */\n      add\n        /* \"#utility.yul\":3836:3889   */\n      tag_88\n      jump\t// in\n    tag_170:\n        /* \"#utility.yul\":3826:3889   */\n      swap2\n      pop\n        /* \"#utility.yul\":3782:3899   */\n      pop\n        /* \"#utility.yul\":3577:3906   */\n      swap3\n      swap2\n      pop\n      pop\n      jump\t// out\n        /* \"#utility.yul\":3912:4011   */\n    tag_89:\n        /* \"#utility.yul\":3964:3970   */\n      0x00\n        /* \"#utility.yul\":3998:4003   */\n      dup2\n        /* \"#utility.yul\":3992:4004   */\n      mload\n        /* \"#utility.yul\":3982:4004   */\n      swap1\n      pop\n        /* \"#utility.yul\":3912:4011   */\n      swap2\n      swap1\n      pop\n      jump\t// out\n        /* \"#utility.yul\":4017:4186   */\n    tag_90:\n        /* \"#utility.yul\":4101:4112   */\n      0x00\n        /* \"#utility.yul\":4135:4141   */\n      dup3\n        /* \"#utility.yul\":4130:4133   */\n      dup3\n        /* \"#utility.yul\":4123:4142   */\n      mstore\n        /* \"#utility.yul\":4175:4179   */\n      0x20\n        /* \"#utility.yul\":4170:4173   */\n      dup3\n        /* \"#utility.yul\":4166:4180   */\n      add\n        /* \"#utility.yul\":4151:4180   */\n      swap1\n      pop\n        /* \"#utility.yul\":4017:4186   */\n      swap3\n      swap2\n      pop\n      pop\n      jump\t// out\n        /* \"#utility.yul\":4192:4331   */\n    tag_91:\n        /* \"#utility.yul\":4281:4287   */\n      dup3\n        /* \"#utility.yul\":4276:4279   */\n      dup2\n        /* \"#utility.yul\":4271:4274   */\n      dup4\n        /* \"#utility.yul\":4265:4288   */\n      mcopy\n        /* \"#utility.yul\":4322:4323   */\n      0x00\n        /* \"#utility.yul\":4313:4319   */\n      dup4\n        /* \"#utility.yul\":4308:4311   */\n      dup4\n        /* \"#utility.yul\":4304:4320   */\n      add\n        /* \"#utility.yul\":4297:4324   */\n      mstore\n        /* \"#utility.yul\":4192:4331   */\n      pop\n      pop\n      pop\n      jump\t// out\n        /* \"#utility.yul\":4337:4714   */\n    tag_92:\n        /* \"#utility.yul\":4425:4428   */\n      0x00\n        /* \"#utility.yul\":4453:4492   */\n      tag_175\n        /* \"#utility.yul\":4486:4491   */\n      dup3\n        /* \"#utility.yul\":4453:4492   */\n      tag_89\n      jump\t// in\n    tag_175:\n        /* \"#utility.yul\":4508:4579   */\n      tag_176\n        /* \"#utility.yul\":4572:4578   */\n      dup2\n        /* \"#utility.yul\":4567:4570   */\n      dup6\n        /* \"#utility.yul\":4508:4579   */\n      tag_90\n      jump\t// in\n    tag_176:\n        /* \"#utility.yul\":4501:4579   */\n      swap4\n      pop\n        /* \"#utility.yul\":4588:4653   */\n      tag_177\n        /* \"#utility.yul\":4646:4652   */\n      dup2\n        /* \"#utility.yul\":4641:4644   */\n      dup6\n        /* \"#utility.yul\":4634:4638   */\n      0x20\n        /* \"#utility.yul\":4627:4632   */\n      dup7\n        /* \"#utility.yul\":4623:4639   */\n      add\n        /* \"#utility.yul\":4588:4653   */\n      tag_91\n      jump\t// in\n    tag_177:\n        /* \"#utility.yul\":4678:4707   */\n      tag_178\n        /* \"#utility.yul\":4700:4706   */\n      dup2\n        /* \"#utility.yul\":4678:4707   */\n      tag_77\n      jump\t// in\n    tag_178:\n        /* \"#utility.yul\":4673:4676   */\n      dup5\n        /* \"#utility.yul\":4669:4708   */\n      add\n        /* \"#utility.yul\":4662:4708   */\n      swap2\n      pop\n        /* \"#utility.yul\":4429:4714   */\n      pop\n        /* \"#utility.yul\":4337:4714   */\n      swap3\n      swap2\n      pop\n      pop\n      jump\t// out\n        /* \"#utility.yul\":4720:4810   */\n    tag_93:\n        /* \"#utility.yul\":4754:4761   */\n      0x00\n        /* \"#utility.yul\":4797:4802   */\n      dup2\n        /* \"#utility.yul\":4790:4803   */\n      iszero\n        /* \"#utility.yul\":4783:4804   */\n      iszero\n        /* \"#utility.yul\":4772:4804   */\n      swap1\n      pop\n        /* \"#utility.yul\":4720:4810   */\n      swap2\n      swap1\n      pop\n      jump\t// out\n        /* \"#utility.yul\":4816:4925   */\n    tag_94:\n        /* \"#utility.yul\":4897:4918   */\n      tag_181\n        /* \"#utility.yul\":4912:4917   */\n      dup2\n        /* \"#utility.yul\":4897:4918   */\n      tag_93\n      jump\t// in\n    tag_181:\n        /* \"#utility.yul\":4892:4895   */\n      dup3\n        /* \"#utility.yul\":4885:4919   */\n      mstore\n        /* \"#utility.yul\":4816:4925   */\n      pop\n      pop\n      jump\t// out\n        /* \"#utility.yul\":4931:5440   */\n    tag_18:\n        /* \"#utility.yul\":5088:5092   */\n      0x00\n        /* \"#utility.yul\":5126:5128   */\n      0x60\n        /* \"#utility.yul\":5115:5124   */\n      dup3\n        /* \"#utility.yul\":5111:5129   */\n      add\n        /* \"#utility.yul\":5103:5129   */\n      swap1\n      pop\n        /* \"#utility.yul\":5175:5184   */\n      dup2\n        /* \"#utility.yul\":5169:5173   */\n      dup2\n        /* \"#utility.yul\":5165:5185   */\n      sub\n        /* \"#utility.yul\":5161:5162   */\n      0x00\n        /* \"#utility.yul\":5150:5159   */\n      dup4\n        /* \"#utility.yul\":5146:5163   */\n      add\n        /* \"#utility.yul\":5139:5186   */\n      mstore\n        /* \"#utility.yul\":5203:5281   */\n      tag_183\n        /* \"#utility.yul\":5276:5280   */\n      dup2\n        /* \"#utility.yul\":5267:5273   */\n      dup7\n        /* \"#utility.yul\":5203:5281   */\n      tag_92\n      jump\t// in\n    tag_183:\n        /* \"#utility.yul\":5195:5281   */\n      swap1\n      pop\n        /* \"#utility.yul\":5291:5357   */\n      tag_184\n        /* \"#utility.yul\":5353:5355   */\n      0x20\n        /* \"#utility.yul\":5342:5351   */\n      dup4\n        /* \"#utility.yul\":5338:5356   */\n      add\n        /* \"#utility.yul\":5329:5335   */\n      dup6\n        /* \"#utility.yul\":5291:5357   */\n      tag_94\n      jump\t// in\n    tag_184:\n        /* \"#utility.yul\":5367:5433   */\n      tag_185\n        /* \"#utility.yul\":5429:5431   */\n      0x40\n        /* \"#utility.yul\":5418:5427   */\n      dup4\n        /* \"#utility.yul\":5414:5432   */\n      add\n        /* \"#utility.yul\":5405:5411   */\n      dup5\n        /* \"#utility.yul\":5367:5433   */\n      tag_94\n      jump\t// in\n    tag_185:\n        /* \"#utility.yul\":4931:5440   */\n      swap5\n      swap4\n      pop\n      pop\n      pop\n      pop\n      jump\t// out\n        /* \"#utility.yul\":5446:5656   */\n    tag_23:\n        /* \"#utility.yul\":5533:5537   */\n      0x00\n        /* \"#utility.yul\":5571:5573   */\n      0x20\n        /* \"#utility.yul\":5560:5569   */\n      dup3\n        /* \"#utility.yul\":5556:5574   */\n      add\n        /* \"#utility.yul\":5548:5574   */\n      swap1\n      pop\n        /* \"#utility.yul\":5584:5649   */\n      tag_187\n        /* \"#utility.yul\":5646:5647   */\n      0x00\n        /* \"#utility.yul\":5635:5644   */\n      dup4\n        /* \"#utility.yul\":5631:5648   */\n      add\n        /* \"#utility.yul\":5622:5628   */\n      dup5\n        /* \"#utility.yul\":5584:5649   */\n      tag_94\n      jump\t// in\n    tag_187:\n        /* \"#utility.yul\":5446:5656   */\n      swap3\n      swap2\n      pop\n      pop\n      jump\t// out\n        /* \"#utility.yul\":5662:5975   */\n    tag_28:\n        /* \"#utility.yul\":5775:5779   */\n      0x00\n        /* \"#utility.yul\":5813:5815   */\n      0x20\n        /* \"#utility.yul\":5802:5811   */\n      dup3\n        /* \"#utility.yul\":5798:5816   */\n      add\n        /* \"#utility.yul\":5790:5816   */\n      swap1\n      pop\n        /* \"#utility.yul\":5862:5871   */\n      dup2\n        /* \"#utility.yul\":5856:5860   */\n      dup2\n        /* \"#utility.yul\":5852:5872   */\n      sub\n        /* \"#utility.yul\":5848:5849   */\n      0x00\n        /* \"#utility.yul\":5837:5846   */\n      dup4\n        /* \"#utility.yul\":5833:5850   */\n      add\n        /* \"#utility.yul\":5826:5873   */\n      mstore\n        /* \"#utility.yul\":5890:5968   */\n      tag_189\n        /* \"#utility.yul\":5963:5967   */\n      dup2\n        /* \"#utility.yul\":5954:5960   */\n      dup5\n        /* \"#utility.yul\":5890:5968   */\n      tag_92\n      jump\t// in\n    tag_189:\n        /* \"#utility.yul\":5882:5968   */\n      swap1\n      pop\n        /* \"#utility.yul\":5662:5975   */\n      swap3\n      swap2\n      pop\n      pop\n      jump\t// out\n        /* \"#utility.yul\":5981:6099   */\n    tag_95:\n        /* \"#utility.yul\":6068:6092   */\n      tag_191\n        /* \"#utility.yul\":6086:6091   */\n      dup2\n        /* \"#utility.yul\":6068:6092   */\n      tag_86\n      jump\t// in\n    tag_191:\n        /* \"#utility.yul\":6063:6066   */\n      dup3\n        /* \"#utility.yul\":6056:6093   */\n      mstore\n        /* \"#utility.yul\":5981:6099   */\n      pop\n      pop\n      jump\t// out\n        /* \"#utility.yul\":6105:6327   */\n    tag_35:\n        /* \"#utility.yul\":6198:6202   */\n      0x00\n        /* \"#utility.yul\":6236:6238   */\n      0x20\n        /* \"#utility.yul\":6225:6234   */\n      dup3\n        /* \"#utility.yul\":6221:6239   */\n      add\n        /* \"#utility.yul\":6213:6239   */\n      swap1\n      pop\n        /* \"#utility.yul\":6249:6320   */\n      tag_193\n        /* \"#utility.yul\":6317:6318   */\n      0x00\n        /* \"#utility.yul\":6306:6315   */\n      dup4\n        /* \"#utility.yul\":6302:6319   */\n      add\n        /* \"#utility.yul\":6293:6299   */\n      dup5\n        /* \"#utility.yul\":6249:6320   */\n      tag_95\n      jump\t// in\n    tag_193:\n        /* \"#utility.yul\":6105:6327   */\n      swap3\n      swap2\n      pop\n      pop\n      jump\t// out\n        /* \"#utility.yul\":6333:6501   */\n    tag_96:\n        /* \"#utility.yul\":6473:6493   */\n      0x416c726561647920726567697374657265640000000000000000000000000000\n        /* \"#utility.yul\":6469:6470   */\n      0x00\n        /* \"#utility.yul\":6461:6467   */\n      dup3\n        /* \"#utility.yul\":6457:6471   */\n      add\n        /* \"#utility.yul\":6450:6494   */\n      mstore\n        /* \"#utility.yul\":6333:6501   */\n      pop\n      jump\t// out\n        /* \"#utility.yul\":6507:6873   */\n    tag_97:\n        /* \"#utility.yul\":6649:6652   */\n      0x00\n        /* \"#utility.yul\":6670:6737   */\n      tag_196\n        /* \"#utility.yul\":6734:6736   */\n      0x12\n        /* \"#utility.yul\":6729:6732   */\n      dup4\n        /* \"#utility.yul\":6670:6737   */\n      tag_90\n      jump\t// in\n    tag_196:\n        /* \"#utility.yul\":6663:6737   */\n      swap2\n      pop\n        /* \"#utility.yul\":6746:6839   */\n      tag_197\n        /* \"#utility.yul\":6835:6838   */\n      dup3\n        /* \"#utility.yul\":6746:6839   */\n      tag_96\n      jump\t// in\n    tag_197:\n        /* \"#utility.yul\":6864:6866   */\n      0x20\n        /* \"#utility.yul\":6859:6862   */\n      dup3\n        /* \"#utility.yul\":6855:6867   */\n      add\n        /* \"#utility.yul\":6848:6867   */\n      swap1\n      pop\n        /* \"#utility.yul\":6507:6873   */\n      swap2\n      swap1\n      pop\n      jump\t// out\n        /* \"#utility.yul\":6879:7298   */\n    tag_39:\n        /* \"#utility.yul\":7045:7049   */\n      0x00\n        /* \"#utility.yul\":7083:7085   */\n      0x20\n        /* \"#utility.yul\":7072:7081   */\n      dup3\n        /* \"#utility.yul\":7068:7086   */\n      add\n        /* \"#utility.yul\":7060:7086   */\n      swap1\n      pop\n        /* \"#utility.yul\":7132:7141   */\n      dup2\n        /* \"#utility.yul\":7126:7130   */\n      dup2\n        /* \"#utility.yul\":7122:7142   */\n      sub\n        /* \"#utility.yul\":7118:7119   */\n      0x00\n        /* \"#utility.yul\":7107:7116   */\n      dup4\n        /* \"#utility.yul\":7103:7120   */\n      add\n        /* \"#utility.yul\":7096:7143   */\n      mstore\n        /* \"#utility.yul\":7160:7291   */\n      tag_199\n        /* \"#utility.yul\":7286:7290   */\n      dup2\n        /* \"#utility.yul\":7160:7291   */\n      tag_97\n      jump\t// in\n    tag_199:\n        /* \"#utility.yul\":7152:7291   */\n      swap1\n      pop\n        /* \"#utility.yul\":6879:7298   */\n      swap2\n      swap1\n      pop\n      jump\t// out\n        /* \"#utility.yul\":7304:7471   */\n    tag_98:\n        /* \"#utility.yul\":7444:7463   */\n      0x496e76616c696420495046532068617368000000000000000000000000000000\n        /* \"#utility.yul\":7440:7441   */\n      0x00\n        /* \"#utility.yul\":7432:7438   */\n      dup3\n        /* \"#utility.yul\":7428:7442   */\n      add\n        /* \"#utility.yul\":7421:7464   */\n      mstore\n        /* \"#utility.yul\":7304:7471   */\n      pop\n      jump\t// out\n        /* \"#utility.yul\":7477:7843   */\n    tag_99:\n        /* \"#utility.yul\":7619:7622   */\n      0x00\n        /* \"#utility.yul\":7640:7707   */\n      tag_202\n        /* \"#utility.yul\":7704:7706   */\n      0x11\n        /* \"#utility.yul\":7699:7702   */\n      dup4\n        /* \"#utility.yul\":7640:7707   */\n      tag_90\n      jump\t// in\n    tag_202:\n        /* \"#utility.yul\":7633:7707   */\n      swap2\n      pop\n        /* \"#utility.yul\":7716:7809   */\n      tag_203\n        /* \"#utility.yul\":7805:7808   */\n      dup3\n        /* \"#utility.yul\":7716:7809   */\n      tag_98\n      jump\t// in\n    tag_203:\n        /* \"#utility.yul\":7834:7836   */\n      0x20\n        /* \"#utility.yul\":7829:7832   */\n      dup3\n        /* \"#utility.yul\":7825:7837   */\n      add\n        /* \"#utility.yul\":7818:7837   */\n      swap1\n      pop\n        /* \"#utility.yul\":7477:7843   */\n      swap2\n      swap1\n      pop\n      jump\t// out\n        /* \"#utility.yul\":7849:8268   */\n    tag_42:\n        /* \"#utility.yul\":8015:8019   */\n      0x00\n        /* \"#utility.yul\":8053:8055   */\n      0x20\n        /* \"#utility.yul\":8042:8051   */\n      dup3\n        /* \"#utility.yul\":8038:8056   */\n      add\n        /* \"#utility.yul\":8030:8056   */\n      swap1\n      pop\n        /* \"#utility.yul\":8102:8111   */\n      dup2\n        /* \"#utility.yul\":8096:8100   */\n      dup2\n        /* \"#utility.yul\":8092:8112   */\n      sub\n        /* \"#utility.yul\":8088:8089   */\n      0x00\n        /* \"#utility.yul\":8077:8086   */\n      dup4\n        /* \"#utility.yul\":8073:8090   */\n      add\n        /* \"#utility.yul\":8066:8113   */\n      mstore\n        /* \"#utility.yul\":8130:8261   */\n      tag_205\n        /* \"#utility.yul\":8256:8260   */\n      dup2\n        /* \"#utility.yul\":8130:8261   */\n      tag_99\n      jump\t// in\n    tag_205:\n        /* \"#utility.yul\":8122:8261   */\n      swap1\n      pop\n        /* \"#utility.yul\":7849:8268   */\n      swap2\n      swap1\n      pop\n      jump\t// out\n        /* \"#utility.yul\":8274:8454   */\n    tag_100:\n        /* \"#utility.yul\":8322:8399   */\n      0x4e487b7100000000000000000000000000000000000000000000000000000000\n        /* \"#utility.yul\":8319:8320   */\n      0x00\n        /* \"#utility.yul\":8312:8400   */\n      mstore\n        /* \"#utility.yul\":8419:8423   */\n      0x22\n        /* \"#utility.yul\":8416:8417   */\n      0x04\n        /* \"#utility.yul\":8409:8424   */\n      mstore\n        /* \"#utility.yul\":8443:8447   */\n      0x24\n        /* \"#utility.yul\":8440:8441   */\n      0x00\n        /* \"#utility.yul\":8433:8448   */\n      revert\n        /* \"#utility.yul\":8460:8780   */\n    tag_47:\n        /* \"#utility.yul\":8504:8510   */\n      0x00\n        /* \"#utility.yul\":8541:8542   */\n      0x02\n        /* \"#utility.yul\":8535:8539   */\n      dup3\n        /* \"#utility.yul\":8531:8543   */\n      div\n        /* \"#utility.yul\":8521:8543   */\n      swap1\n      pop\n        /* \"#utility.yul\":8588:8589   */\n      0x01\n        /* \"#utility.yul\":8582:8586   */\n      dup3\n        /* \"#utility.yul\":8578:8590   */\n      and\n        /* \"#utility.yul\":8609:8627   */\n      dup1\n        /* \"#utility.yul\":8599:8680   */\n      tag_208\n      jumpi\n        /* \"#utility.yul\":8665:8669   */\n      0x7f\n        /* \"#utility.yul\":8657:8663   */\n      dup3\n        /* \"#utility.yul\":8653:8670   */\n      and\n        /* \"#utility.yul\":8643:8670   */\n      swap2\n      pop\n        /* \"#utility.yul\":8599:8680   */\n    tag_208:\n        /* \"#utility.yul\":8727:8729   */\n      0x20\n        /* \"#utility.yul\":8719:8725   */\n      dup3\n        /* \"#utility.yul\":8716:8730   */\n      lt\n        /* \"#utility.yul\":8696:8714   */\n      dup2\n        /* \"#utility.yul\":8693:8731   */\n      sub\n        /* \"#utility.yul\":8690:8774   */\n      tag_209\n      jumpi\n        /* \"#utility.yul\":8746:8764   */\n      tag_210\n      tag_100\n      jump\t// in\n    tag_210:\n        /* \"#utility.yul\":8690:8774   */\n    tag_209:\n        /* \"#utility.yul\":8511:8780   */\n      pop\n        /* \"#utility.yul\":8460:8780   */\n      swap2\n      swap1\n      pop\n      jump\t// out\n        /* \"#utility.yul\":8786:8927   */\n    tag_101:\n        /* \"#utility.yul\":8835:8839   */\n      0x00\n        /* \"#utility.yul\":8858:8861   */\n      dup2\n        /* \"#utility.yul\":8850:8861   */\n      swap1\n      pop\n        /* \"#utility.yul\":8881:8884   */\n      dup2\n        /* \"#utility.yul\":8878:8879   */\n      0x00\n        /* \"#utility.yul\":8871:8885   */\n      mstore\n        /* \"#utility.yul\":8915:8919   */\n      0x20\n        /* \"#utility.yul\":8912:8913   */\n      0x00\n        /* \"#utility.yul\":8902:8920   */\n      keccak256\n        /* \"#utility.yul\":8894:8920   */\n      swap1\n      pop\n        /* \"#utility.yul\":8786:8927   */\n      swap2\n      swap1\n      pop\n      jump\t// out\n        /* \"#utility.yul\":8933:9026   */\n    tag_102:\n        /* \"#utility.yul\":8970:8976   */\n      0x00\n        /* \"#utility.yul\":9017:9019   */\n      0x20\n        /* \"#utility.yul\":9012:9014   */\n      0x1f\n        /* \"#utility.yul\":9005:9010   */\n      dup4\n        /* \"#utility.yul\":9001:9015   */\n      add\n        /* \"#utility.yul\":8997:9020   */\n      div\n        /* \"#utility.yul\":8987:9020   */\n      swap1\n      pop\n        /* \"#utility.yul\":8933:9026   */\n      swap2\n      swap1\n      pop\n      jump\t// out\n        /* \"#utility.yul\":9032:9139   */\n    tag_103:\n        /* \"#utility.yul\":9076:9084   */\n      0x00\n        /* \"#utility.yul\":9126:9131   */\n      dup3\n        /* \"#utility.yul\":9120:9124   */\n      dup3\n        /* \"#utility.yul\":9116:9132   */\n      shl\n        /* \"#utility.yul\":9095:9132   */\n      swap1\n      pop\n        /* \"#utility.yul\":9032:9139   */\n      swap3\n      swap2\n      pop\n      pop\n      jump\t// out\n        /* \"#utility.yul\":9145:9538   */\n    tag_104:\n        /* \"#utility.yul\":9214:9220   */\n      0x00\n        /* \"#utility.yul\":9264:9265   */\n      0x08\n        /* \"#utility.yul\":9252:9262   */\n      dup4\n        /* \"#utility.yul\":9248:9266   */\n      mul\n        /* \"#utility.yul\":9287:9384   */\n      tag_215\n        /* \"#utility.yul\":9317:9383   */\n      0xffffffffffffffffffffffffffffffffffffffffffffffffffffffffffffffff\n        /* \"#utility.yul\":9306:9315   */\n      dup3\n        /* \"#utility.yul\":9287:9384   */\n      tag_103\n      jump\t// in\n    tag_215:\n        /* \"#utility.yul\":9405:9444   */\n      tag_216\n        /* \"#utility.yul\":9435:9443   */\n      dup7\n        /* \"#utility.yul\":9424:9433   */\n      dup4\n        /* \"#utility.yul\":9405:9444   */\n      tag_103\n      jump\t// in\n    tag_216:\n        /* \"#utility.yul\":9393:9444   */\n      swap6\n      pop\n        /* \"#utility.yul\":9477:9481   */\n      dup1\n        /* \"#utility.yul\":9473:9482   */\n      not\n        /* \"#utility.yul\":9466:9471   */\n      dup5\n        /* \"#utility.yul\":9462:9483   */\n      and\n        /* \"#utility.yul\":9453:9483   */\n      swap4\n      pop\n        /* \"#utility.yul\":9526:9530   */\n      dup1\n        /* \"#utility.yul\":9516:9524   */\n      dup7\n        /* \"#utility.yul\":9512:9531   */\n      and\n        /* \"#utility.yul\":9505:9510   */\n      dup5\n        /* \"#utility.yul\":9502:9532   */\n      or\n        /* \"#utility.yul\":9492:9532   */\n      swap3\n      pop\n        /* \"#utility.yul\":9221:9538   */\n      pop\n      pop\n        /* \"#utility.yul\":9145:9538   */\n      swap4\n      swap3\n      pop\n      pop\n      pop\n      jump\t// out\n        /* \"#utility.yul\":9544:9621   */\n    tag_105:\n        /* \"#utility.yul\":9581:9588   */\n      0x00\n        /* \"#utility.yul\":9610:9615   */\n      dup2\n        /* \"#utility.yul\":9599:9615   */\n      swap1\n      pop\n        /* \"#utility.yul\":9544:9621   */\n      swap2\n      swap1\n      pop\n      jump\t// out\n        /* \"#utility.yul\":9627:9687   */\n    tag_106:\n        /* \"#utility.yul\":9655:9658   */\n      0x00\n        /* \"#utility.yul\":9676:9681   */\n      dup2\n        /* \"#utility.yul\":9669:9681   */\n      swap1\n      pop\n        /* \"#utility.yul\":9627:9687   */\n      swap2\n      swap1\n      pop\n      jump\t// out\n        /* \"#utility.yul\":9693:9835   */\n    tag_107:\n        /* \"#utility.yul\":9743:9752   */\n      0x00\n        /* \"#utility.yul\":9776:9829   */\n      tag_220\n        /* \"#utility.yul\":9794:9828   */\n      tag_221\n        /* \"#utility.yul\":9803:9827   */\n      tag_222\n        /* \"#utility.yul\":9821:9826   */\n      dup5\n        /* \"#utility.yul\":9803:9827   */\n      tag_105\n      jump\t// in\n    tag_222:\n        /* \"#utility.yul\":9794:9828   */\n      tag_106\n      jump\t// in\n    tag_221:\n        /* \"#utility.yul\":9776:9829   */\n      tag_105\n      jump\t// in\n    tag_220:\n        /* \"#utility.yul\":9763:9829   */\n      swap1\n      pop\n        /* \"#utility.yul\":9693:9835   */\n      swap2\n      swap1\n      pop\n      jump\t// out\n        /* \"#utility.yul\":9841:9916   */\n    tag_108:\n        /* \"#utility.yul\":9884:9887   */\n      0x00\n        /* \"#utility.yul\":9905:9910   */\n      dup2\n        /* \"#utility.yul\":9898:9910   */\n      swap1\n      pop\n        /* \"#utility.yul\":9841:9916   */\n      swap2\n      swap1\n      pop\n      jump\t// out\n        /* \"#utility.yul\":9922:10191   */\n    tag_109:\n        /* \"#utility.yul\":10032:10071   */\n      tag_225\n        /* \"#utility.yul\":10063:10070   */\n      dup4\n        /* \"#utility.yul\":10032:10071   */\n      tag_107\n      jump\t// in\n    tag_225:\n        /* \"#utility.yul\":10093:10184   */\n      tag_226\n        /* \"#utility.yul\":10142:10183   */\n      tag_227\n        /* \"#utility.yul\":10166:10182   */\n      dup3\n        /* \"#utility.yul\":10142:10183   */\n      tag_108\n      jump\t// in\n    tag_227:\n        /* \"#utility.yul\":10134:10140   */\n      dup5\n        /* \"#utility.yul\":10127:10131   */\n      dup5\n        /* \"#utility.yul\":10121:10132   */\n      sload\n        /* \"#utility.yul\":10093:10184   */\n      tag_104\n      jump\t// in\n    tag_226:\n        /* \"#utility.yul\":10087:10091   */\n      dup3\n        /* \"#utility.yul\":10080:10185   */\n      sstore\n        /* \"#utility.yul\":9998:10191   */\n      pop\n        /* \"#utility.yul\":9922:10191   */\n      pop\n      pop\n      pop\n      jump\t// out\n        /* \"#utility.yul\":10197:10270   */\n    tag_110:\n        /* \"#utility.yul\":10242:10245   */\n      0x00\n        /* \"#utility.yul\":10263:10264   */\n      0x00\n        /* \"#utility.yul\":10256:10264   */\n      swap1\n      pop\n        /* \"#utility.yul\":10197:10270   */\n      swap1\n      jump\t// out\n        /* \"#utility.yul\":10276:10465   */\n    tag_111:\n        /* \"#utility.yul\":10353:10385   */\n      tag_230\n      tag_110\n      jump\t// in\n    tag_230:\n        /* \"#utility.yul\":10394:10459   */\n      tag_231\n        /* \"#utility.yul\":10452:10458   */\n      dup2\n        /* \"#utility.yul\":10444:10450   */\n      dup5\n        /* \"#utility.yul\":10438:10442   */\n      dup5\n        /* \"#utility.yul\":10394:10459   */\n      tag_109\n      jump\t// in\n    tag_231:\n        /* \"#utility.yul\":10329:10465   */\n      pop\n        /* \"#utility.yul\":10276:10465   */\n      pop\n      pop\n      jump\t// out\n        /* \"#utility.yul\":10471:10657   */\n    tag_112:\n        /* \"#utility.yul\":10531:10651   */\n    tag_233:\n        /* \"#utility.yul\":10548:10551   */\n      dup2\n        /* \"#utility.yul\":10541:10546   */\n      dup2\n        /* \"#utility.yul\":10538:10552   */\n      lt\n        /* \"#utility.yul\":10531:10651   */\n      iszero\n      tag_235\n      jumpi\n        /* \"#utility.yul\":10602:10641   */\n      tag_236\n        /* \"#utility.yul\":10639:10640   */\n      0x00\n        /* \"#utility.yul\":10632:10637   */\n      dup3\n        /* \"#utility.yul\":10602:10641   */\n      tag_111\n      jump\t// in\n    tag_236:\n        /* \"#utility.yul\":10575:10576   */\n      0x01\n        /* \"#utility.yul\":10568:10573   */\n      dup2\n        /* \"#utility.yul\":10564:10577   */\n      add\n        /* \"#utility.yul\":10555:10577   */\n      swap1\n      pop\n        /* \"#utility.yul\":10531:10651   */\n      jump(tag_233)\n    tag_235:\n        /* \"#utility.yul\":10471:10657   */\n      pop\n      pop\n      jump\t// out\n        /* \"#utility.yul\":10663:11206   */\n    tag_113:\n        /* \"#utility.yul\":10764:10766   */\n      0x1f\n        /* \"#utility.yul\":10759:10762   */\n      dup3\n        /* \"#utility.yul\":10756:10767   */\n      gt\n        /* \"#utility.yul\":10753:11199   */\n      iszero\n      tag_238\n      jumpi\n        /* \"#utility.yul\":10798:10836   */\n      tag_239\n        /* \"#utility.yul\":10830:10835   */\n      dup2\n        /* \"#utility.yul\":10798:10836   */\n      tag_101\n      jump\t// in\n    tag_239:\n        /* \"#utility.yul\":10882:10911   */\n      tag_240\n        /* \"#utility.yul\":10900:10910   */\n      dup5\n        /* \"#utility.yul\":10882:10911   */\n      tag_102\n      jump\t// in\n    tag_240:\n        /* \"#utility.yul\":10872:10880   */\n      dup2\n        /* \"#utility.yul\":10868:10912   */\n      add\n        /* \"#utility.yul\":11065:11067   */\n      0x20\n        /* \"#utility.yul\":11053:11063   */\n      dup6\n        /* \"#utility.yul\":11050:11068   */\n      lt\n        /* \"#utility.yul\":11047:11096   */\n      iszero\n      tag_241\n      jumpi\n        /* \"#utility.yul\":11086:11094   */\n      dup2\n        /* \"#utility.yul\":11071:11094   */\n      swap1\n      pop\n        /* \"#utility.yul\":11047:11096   */\n    tag_241:\n        /* \"#utility.yul\":11109:11189   */\n      tag_242\n        /* \"#utility.yul\":11165:11187   */\n      tag_243\n        /* \"#utility.yul\":11183:11186   */\n      dup6\n        /* \"#utility.yul\":11165:11187   */\n      tag_102\n      jump\t// in\n    tag_243:\n        /* \"#utility.yul\":11155:11163   */\n      dup4\n        /* \"#utility.yul\":11151:11188   */\n      add\n        /* \"#utility.yul\":11138:11149   */\n      dup3\n        /* \"#utility.yul\":11109:11189   */\n      tag_112\n      jump\t// in\n    tag_242:\n        /* \"#utility.yul\":10768:11199   */\n      pop\n      pop\n        /* \"#utility.yul\":10753:11199   */\n    tag_238:\n        /* \"#utility.yul\":10663:11206   */\n      pop\n      pop\n      pop\n      jump\t// out\n        /* \"#utility.yul\":11212:11329   */\n    tag_114:\n        /* \"#utility.yul\":11266:11274   */\n      0x00\n        /* \"#utility.yul\":11316:11321   */\n      dup3\n        /* \"#utility.yul\":11310:11314   */\n      dup3\n        /* \"#utility.yul\":11306:11322   */\n      shr\n        /* \"#utility.yul\":11285:11322   */\n      swap1\n      pop\n        /* \"#utility.yul\":11212:11329   */\n      swap3\n      swap2\n      pop\n      pop\n      jump\t// out\n        /* \"#utility.yul\":11335:11504   */\n    tag_115:\n        /* \"#utility.yul\":11379:11385   */\n      0x00\n        /* \"#utility.yul\":11412:11463   */\n      tag_246\n        /* \"#utility.yul\":11460:11461   */\n      0x00\n        /* \"#utility.yul\":11456:11462   */\n      not\n        /* \"#utility.yul\":11448:11453   */\n      dup5\n        /* \"#utility.yul\":11445:11446   */\n      0x08\n        /* \"#utility.yul\":11441:11454   */\n      mul\n        /* \"#utility.yul\":11412:11463   */\n      tag_114\n      jump\t// in\n    tag_246:\n        /* \"#utility.yul\":11408:11464   */\n      not\n        /* \"#utility.yul\":11493:11497   */\n      dup1\n        /* \"#utility.yul\":11487:11491   */\n      dup4\n        /* \"#utility.yul\":11483:11498   */\n      and\n        /* \"#utility.yul\":11473:11498   */\n      swap2\n      pop\n        /* \"#utility.yul\":11386:11504   */\n      pop\n        /* \"#utility.yul\":11335:11504   */\n      swap3\n      swap2\n      pop\n      pop\n      jump\t// out\n        /* \"#utility.yul\":11509:11804   */\n    tag_116:\n        /* \"#utility.yul\":11585:11589   */\n      0x00\n        /* \"#utility.yul\":11731:11760   */\n      tag_248\n        /* \"#utility.yul\":11756:11759   */\n      dup4\n        /* \"#utility.yul\":11750:11754   */\n      dup4\n        /* \"#utility.yul\":11731:11760   */\n      tag_115\n      jump\t// in\n    tag_248:\n        /* \"#utility.yul\":11723:11760   */\n      swap2\n      pop\n        /* \"#utility.yul\":11793:11796   */\n      dup3\n        /* \"#utility.yul\":11790:11791   */\n      0x02\n        /* \"#utility.yul\":11786:11797   */\n      mul\n        /* \"#utility.yul\":11780:11784   */\n      dup3\n        /* \"#utility.yul\":11777:11798   */\n      or\n        /* \"#utility.yul\":11769:11798   */\n      swap1\n      pop\n        /* \"#utility.yul\":11509:11804   */\n      swap3\n      swap2\n      pop\n      pop\n      jump\t// out\n        /* \"#utility.yul\":11809:13204   */\n    tag_44:\n        /* \"#utility.yul\":11926:11963   */\n      tag_250\n        /* \"#utility.yul\":11959:11962   */\n      dup3\n        /* \"#utility.yul\":11926:11963   */\n      tag_89\n      jump\t// in\n    tag_250:\n        /* \"#utility.yul\":12028:12046   */\n      0xffffffffffffffff\n        /* \"#utility.yul\":12020:12026   */\n      dup2\n        /* \"#utility.yul\":12017:12047   */\n      gt\n        /* \"#utility.yul\":12014:12070   */\n      iszero\n      tag_251\n      jumpi\n        /* \"#utility.yul\":12050:12068   */\n      tag_252\n      tag_78\n      jump\t// in\n    tag_252:\n        /* \"#utility.yul\":12014:12070   */\n    tag_251:\n        /* \"#utility.yul\":12094:12132   */\n      tag_253\n        /* \"#utility.yul\":12126:12130   */\n      dup3\n        /* \"#utility.yul\":12120:12131   */\n      sload\n        /* \"#utility.yul\":12094:12132   */\n      tag_47\n      jump\t// in\n    tag_253:\n        /* \"#utility.yul\":12179:12246   */\n      tag_254\n        /* \"#utility.yul\":12239:12245   */\n      dup3\n        /* \"#utility.yul\":12231:12237   */\n      dup3\n        /* \"#utility.yul\":12225:12229   */\n      dup6\n        /* \"#utility.yul\":12179:12246   */\n      tag_113\n      jump\t// in\n    tag_254:\n        /* \"#utility.yul\":12273:12274   */\n      0x00\n        /* \"#utility.yul\":12297:12301   */\n      0x20\n        /* \"#utility.yul\":12284:12301   */\n      swap1\n      pop\n        /* \"#utility.yul\":12329:12331   */\n      0x1f\n        /* \"#utility.yul\":12321:12327   */\n      dup4\n        /* \"#utility.yul\":12318:12332   */\n      gt\n        /* \"#utility.yul\":12346:12347   */\n      0x01\n        /* \"#utility.yul\":12341:12959   */\n      dup2\n      eq\n      tag_256\n      jumpi\n        /* \"#utility.yul\":13003:13004   */\n      0x00\n        /* \"#utility.yul\":13020:13026   */\n      dup5\n        /* \"#utility.yul\":13017:13094   */\n      iszero\n      tag_257\n      jumpi\n        /* \"#utility.yul\":13069:13078   */\n      dup3\n        /* \"#utility.yul\":13064:13067   */\n      dup8\n        /* \"#utility.yul\":13060:13079   */\n      add\n        /* \"#utility.yul\":13054:13080   */\n      mload\n        /* \"#utility.yul\":13045:13080   */\n      swap1\n      pop\n        /* \"#utility.yul\":13017:13094   */\n    tag_257:\n        /* \"#utility.yul\":13120:13187   */\n      tag_258\n        /* \"#utility.yul\":13180:13186   */\n      dup6\n        /* \"#utility.yul\":13173:13178   */\n      dup3\n        /* \"#utility.yul\":13120:13187   */\n      tag_116\n      jump\t// in\n    tag_258:\n        /* \"#utility.yul\":13114:13118   */\n      dup7\n        /* \"#utility.yul\":13107:13188   */\n      sstore\n        /* \"#utility.yul\":12976:13198   */\n      pop\n        /* \"#utility.yul\":12311:13198   */\n      jump(tag_255)\n        /* \"#utility.yul\":12341:12959   */\n    tag_256:\n        /* \"#utility.yul\":12393:12397   */\n      0x1f\n        /* \"#utility.yul\":12389:12398   */\n      not\n        /* \"#utility.yul\":12381:12387   */\n      dup5\n        /* \"#utility.yul\":12377:12399   */\n      and\n        /* \"#utility.yul\":12427:12464   */\n      tag_259\n        /* \"#utility.yul\":12459:12463   */\n      dup7\n        /* \"#utility.yul\":12427:12464   */\n      tag_101\n      jump\t// in\n    tag_259:\n        /* \"#utility.yul\":12486:12487   */\n      0x00\n        /* \"#utility.yul\":12500:12708   */\n    tag_260:\n        /* \"#utility.yul\":12514:12521   */\n      dup3\n        /* \"#utility.yul\":12511:12512   */\n      dup2\n        /* \"#utility.yul\":12508:12522   */\n      lt\n        /* \"#utility.yul\":12500:12708   */\n      iszero\n      tag_262\n      jumpi\n        /* \"#utility.yul\":12593:12602   */\n      dup5\n        /* \"#utility.yul\":12588:12591   */\n      dup10\n        /* \"#utility.yul\":12584:12603   */\n      add\n        /* \"#utility.yul\":12578:12604   */\n      mload\n        /* \"#utility.yul\":12570:12576   */\n      dup3\n        /* \"#utility.yul\":12563:12605   */\n      sstore\n        /* \"#utility.yul\":12644:12645   */\n      0x01\n        /* \"#utility.yul\":12636:12642   */\n      dup3\n        /* \"#utility.yul\":12632:12646   */\n      add\n        /* \"#utility.yul\":12622:12646   */\n      swap2\n      pop\n        /* \"#utility.yul\":12691:12693   */\n      0x20\n        /* \"#utility.yul\":12680:12689   */\n      dup6\n        /* \"#utility.yul\":12676:12694   */\n      add\n        /* \"#utility.yul\":12663:12694   */\n      swap5\n      pop\n        /* \"#utility.yul\":12537:12541   */\n      0x20\n        /* \"#utility.yul\":12534:12535   */\n      dup2\n        /* \"#utility.yul\":12530:12542   */\n      add\n        /* \"#utility.yul\":12525:12542   */\n      swap1\n      pop\n        /* \"#utility.yul\":12500:12708   */\n      jump(tag_260)\n    tag_262:\n        /* \"#utility.yul\":12736:12742   */\n      dup7\n        /* \"#utility.yul\":12727:12734   */\n      dup4\n        /* \"#utility.yul\":12724:12743   */\n      lt\n        /* \"#utility.yul\":12721:12900   */\n      iszero\n      tag_263\n      jumpi\n        /* \"#utility.yul\":12794:12803   */\n      dup5\n        /* \"#utility.yul\":12789:12792   */\n      dup10\n        /* \"#utility.yul\":12785:12804   */\n      add\n        /* \"#utility.yul\":12779:12805   */\n      mload\n        /* \"#utility.yul\":12837:12885   */\n      tag_264\n        /* \"#utility.yul\":12879:12883   */\n      0x1f\n        /* \"#utility.yul\":12871:12877   */\n      dup10\n        /* \"#utility.yul\":12867:12884   */\n      and\n        /* \"#utility.yul\":12856:12865   */\n      dup3\n        /* \"#utility.yul\":12837:12885   */\n      tag_115\n      jump\t// in\n    tag_264:\n        /* \"#utility.yul\":12829:12835   */\n      dup4\n        /* \"#utility.yul\":12822:12886   */\n      sstore\n        /* \"#utility.yul\":12744:12900   */\n      pop\n        /* \"#utility.yul\":12721:12900   */\n    tag_263:\n        /* \"#utility.yul\":12946:12947   */\n      0x01\n        /* \"#utility.yul\":12942:12943   */\n      0x02\n        /* \"#utility.yul\":12934:12940   */\n      dup9\n        /* \"#utility.yul\":12930:12944   */\n      mul\n        /* \"#utility.yul\":12926:12948   */\n      add\n        /* \"#utility.yul\":12920:12924   */\n      dup9\n        /* \"#utility.yul\":12913:12949   */\n      sstore\n        /* \"#utility.yul\":12348:12959   */\n      pop\n      pop\n      pop\n        /* \"#utility.yul\":12311:13198   */\n    tag_255:\n      pop\n        /* \"#utility.yul\":11901:13204   */\n      pop\n      pop\n      pop\n        /* \"#utility.yul\":11809:13204   */\n      pop\n      pop\n      jump\t// out\n        /* \"#utility.yul\":13210:13381   */\n    tag_117:\n        /* \"#utility.yul\":13350:13373   */\n      0x446f63746f72206e6f7420726567697374657265640000000000000000000000\n        /* \"#utility.yul\":13346:13347   */\n      0x00\n        /* \"#utility.yul\":13338:13344   */\n      dup3\n        /* \"#utility.yul\":13334:13348   */\n      add\n        /* \"#utility.yul\":13327:13374   */\n      mstore\n        /* \"#utility.yul\":13210:13381   */\n      pop\n      jump\t// out\n        /* \"#utility.yul\":13387:13753   */\n    tag_118:\n        /* \"#utility.yul\":13529:13532   */\n      0x00\n        /* \"#utility.yul\":13550:13617   */\n      tag_267\n        /* \"#utility.yul\":13614:13616   */\n      0x15\n        /* \"#utility.yul\":13609:13612   */\n      dup4\n        /* \"#utility.yul\":13550:13617   */\n      tag_90\n      jump\t// in\n    tag_267:\n        /* \"#utility.yul\":13543:13617   */\n      swap2\n      pop\n        /* \"#utility.yul\":13626:13719   */\n      tag_268\n        /* \"#utility.yul\":13715:13718   */\n      dup3\n        /* \"#utility.yul\":13626:13719   */\n      tag_117\n      jump\t// in\n    tag_268:\n        /* \"#utility.yul\":13744:13746   */\n      0x20\n        /* \"#utility.yul\":13739:13742   */\n      dup3\n        /* \"#utility.yul\":13735:13747   */\n      add\n        /* \"#utility.yul\":13728:13747   */\n      swap1\n      pop\n        /* \"#utility.yul\":13387:13753   */\n      swap2\n      swap1\n      pop\n      jump\t// out\n        /* \"#utility.yul\":13759:14178   */\n    tag_56:\n        /* \"#utility.yul\":13925:13929   */\n      0x00\n        /* \"#utility.yul\":13963:13965   */\n      0x20\n        /* \"#utility.yul\":13952:13961   */\n      dup3\n        /* \"#utility.yul\":13948:13966   */\n      add\n        /* \"#utility.yul\":13940:13966   */\n      swap1\n      pop\n        /* \"#utility.yul\":14012:14021   */\n      dup2\n        /* \"#utility.yul\":14006:14010   */\n      dup2\n        /* \"#utility.yul\":14002:14022   */\n      sub\n        /* \"#utility.yul\":13998:13999   */\n      0x00\n        /* \"#utility.yul\":13987:13996   */\n      dup4\n        /* \"#utility.yul\":13983:14000   */\n      add\n        /* \"#utility.yul\":13976:14023   */\n      mstore\n        /* \"#utility.yul\":14040:14171   */\n      tag_270\n        /* \"#utility.yul\":14166:14170   */\n      dup2\n        /* \"#utility.yul\":14040:14171   */\n      tag_118\n      jump\t// in\n    tag_270:\n        /* \"#utility.yul\":14032:14171   */\n      swap1\n      pop\n        /* \"#utility.yul\":13759:14178   */\n      swap2\n      swap1\n      pop\n      jump\t// out\n        /* \"#utility.yul\":14184:14343   */\n    tag_119:\n        /* \"#utility.yul\":14324:14335   */\n      0x4e6f742061646d696e0000000000000000000000000000000000000000000000\n        /* \"#utility.yul\":14320:14321   */\n      0x00\n        /* \"#utility.yul\":14312:14318   */\n      dup3\n        /* \"#utility.yul\":14308:14322   */\n      add\n        /* \"#utility.yul\":14301:14336   */\n      mstore\n        /* \"#utility.yul\":14184:14343   */\n      pop\n      jump\t// out\n        /* \"#utility.yul\":14349:14714   */\n    tag_120:\n        /* \"#utility.yul\":14491:14494   */\n      0x00\n        /* \"#utility.yul\":14512:14578   */\n      tag_273\n        /* \"#utility.yul\":14576:14577   */\n      0x09\n        /* \"#utility.yul\":14571:14574   */\n      dup4\n        /* \"#utility.yul\":14512:14578   */\n      tag_90\n      jump\t// in\n    tag_273:\n        /* \"#utility.yul\":14505:14578   */\n      swap2\n      pop\n        /* \"#utility.yul\":14587:14680   */\n      tag_274\n        /* \"#utility.yul\":14676:14679   */\n      dup3\n        /* \"#utility.yul\":14587:14680   */\n      tag_119\n      jump\t// in\n    tag_274:\n        /* \"#utility.yul\":14705:14707   */\n      0x20\n        /* \"#utility.yul\":14700:14703   */\n      dup3\n        /* \"#utility.yul\":14696:14708   */\n      add\n        /* \"#utility.yul\":14689:14708   */\n      swap1\n      pop\n        /* \"#utility.yul\":14349:14714   */\n      swap2\n      swap1\n      pop\n      jump\t// out\n        /* \"#utility.yul\":14720:15139   */\n    tag_65:\n        /* \"#utility.yul\":14886:14890   */\n      0x00\n        /* \"#utility.yul\":14924:14926   */\n      0x20\n        /* \"#utility.yul\":14913:14922   */\n      dup3\n        /* \"#utility.yul\":14909:14927   */\n      add\n        /* \"#utility.yul\":14901:14927   */\n      swap1\n      pop\n        /* \"#utility.yul\":14973:14982   */\n      dup2\n        /* \"#utility.yul\":14967:14971   */\n      dup2\n        /* \"#utility.yul\":14963:14983   */\n      sub\n        /* \"#utility.yul\":14959:14960   */\n      0x00\n        /* \"#utility.yul\":14948:14957   */\n      dup4\n        /* \"#utility.yul\":14944:14961   */\n      add\n        /* \"#utility.yul\":14937:14984   */\n      mstore\n        /* \"#utility.yul\":15001:15132   */\n      tag_276\n        /* \"#utility.yul\":15127:15131   */\n      dup2\n        /* \"#utility.yul\":15001:15132   */\n      tag_120\n      jump\t// in\n    tag_276:\n        /* \"#utility.yul\":14993:15132   */\n      swap1\n      pop\n        /* \"#utility.yul\":14720:15139   */\n      swap2\n      swap1\n      pop\n      jump\t// out\n        /* \"#utility.yul\":15145:15311   */\n    tag_121:\n        /* \"#utility.yul\":15285:15303   */\n      0x416c726561647920766572696669656400000000000000000000000000000000\n        /* \"#utility.yul\":15281:15282   */\n      0x00\n        /* \"#utility.yul\":15273:15279   */\n      dup3\n        /* \"#utility.yul\":15269:15283   */\n      add\n        /* \"#utility.yul\":15262:15304   */\n      mstore\n        /* \"#utility.yul\":15145:15311   */\n      pop\n      jump\t// out\n        /* \"#utility.yul\":15317:15683   */\n    tag_122:\n        /* \"#utility.yul\":15459:15462   */\n      0x00\n        /* \"#utility.yul\":15480:15547   */\n      tag_279\n        /* \"#utility.yul\":15544:15546   */\n      0x10\n        /* \"#utility.yul\":15539:15542   */\n      dup4\n        /* \"#utility.yul\":15480:15547   */\n      tag_90\n      jump\t// in\n    tag_279:\n        /* \"#utility.yul\":15473:15547   */\n      swap2\n      pop\n        /* \"#utility.yul\":15556:15649   */\n      tag_280\n        /* \"#utility.yul\":15645:15648   */\n      dup3\n        /* \"#utility.yul\":15556:15649   */\n      tag_121\n      jump\t// in\n    tag_280:\n        /* \"#utility.yul\":15674:15676   */\n      0x20\n        /* \"#utility.yul\":15669:15672   */\n      dup3\n        /* \"#utility.yul\":15665:15677   */\n      add\n        /* \"#utility.yul\":15658:15677   */\n      swap1\n      pop\n        /* \"#utility.yul\":15317:15683   */\n      swap2\n      swap1\n      pop\n      jump\t// out\n        /* \"#utility.yul\":15689:16108   */\n    tag_71:\n        /* \"#utility.yul\":15855:15859   */\n      0x00\n        /* \"#utility.yul\":15893:15895   */\n      0x20\n        /* \"#utility.yul\":15882:15891   */\n      dup3\n        /* \"#utility.yul\":15878:15896   */\n      add\n        /* \"#utility.yul\":15870:15896   */\n      swap1\n      pop\n        /* \"#utility.yul\":15942:15951   */\n      dup2\n        /* \"#utility.yul\":15936:15940   */\n      dup2\n        /* \"#utility.yul\":15932:15952   */\n      sub\n        /* \"#utility.yul\":15928:15929   */\n      0x00\n        /* \"#utility.yul\":15917:15926   */\n      dup4\n        /* \"#utility.yul\":15913:15930   */\n      add\n        /* \"#utility.yul\":15906:15953   */\n      mstore\n        /* \"#utility.yul\":15970:16101   */\n      tag_282\n        /* \"#utility.yul\":16096:16100   */\n      dup2\n        /* \"#utility.yul\":15970:16101   */\n      tag_122\n      jump\t// in\n    tag_282:\n        /* \"#utility.yul\":15962:16101   */\n      swap1\n      pop\n        /* \"#utility.yul\":15689:16108   */\n      swap2\n      swap1\n      pop\n      jump\t// out\n\n    auxdata: 0xa2646970667358221220dfb25cac5e0e17b5a28aa288d0d27ec9f492ebf5f4e117fad68afacb97f2a7e564736f6c634300081e0033\n}\n",
				"bytecode": {
					"linkReferences": {},
					"object": "6080604052348015600e575f5ffd5b50335f5f6101000a81548173ffffffffffffffffffffffffffffffffffffffff021916908373ffffffffffffffffffffffffffffffffffffffff1602179055506110438061005b5f395ff3fe608060405234801561000f575f5ffd5b5060043610610060575f3560e01c80638f09ab5b14610064578063a9583c2214610080578063b9209e33146100b2578063bab90dbd146100e2578063d80cb05c14610112578063f851a4401461012e575b5f5ffd5b61007e6004803603810190610079919061094d565b61014c565b005b61009a600480360381019061009591906109ee565b610321565b6040516100a993929190610a93565b60405180910390f35b6100cc60048036038101906100c791906109ee565b6103e6565b6040516100d99190610acf565b60405180910390f35b6100fc60048036038101906100f791906109ee565b61043b565b6040516101099190610ae8565b60405180910390f35b61012c600480360381019061012791906109ee565b610597565b005b6101366107dc565b6040516101439190610b17565b60405180910390f35b60015f3373ffffffffffffffffffffffffffffffffffffffff1673ffffffffffffffffffffffffffffffffffffffff1681526020019081526020015f2060010160019054906101000a900460ff16156101da576040517f08c379a00000000000000000000000000000000000000000000000000000000081526004016101d190610b7a565b60405180910390fd5b5f81511161021d576040517f08c379a000000000000000000000000000000000000000000000000000000000815260040161021490610be2565b60405180910390fd5b60405180606001604052808281526020015f151581526020016001151581525060015f3373ffffffffffffffffffffffffffffffffffffffff1673ffffffffffffffffffffffffffffffffffffffff1681526020019081526020015f205f820151815f01908161028d9190610e06565b506020820151816001015f6101000a81548160ff02191690831515021790555060408201518160010160016101000a81548160ff0219169083151502179055509050503373ffffffffffffffffffffffffffffffffffffffff167f20481b8112b5bf4734f45a473c373db9df6a79ce946cdc0e7dbc22b4f7d7f986826040516103169190610ae8565b60405180910390a250565b6001602052805f5260405f205f91509050805f01805461034090610c2d565b80601f016020809104026020016040519081016040528092919081815260200182805461036c90610c2d565b80156103b75780601f1061038e576101008083540402835291602001916103b7565b820191905f5260205f20905b81548152906001019060200180831161039a57829003601f168201915b505050505090806001015f9054906101000a900460ff16908060010160019054906101000a900460ff16905083565b5f60015f8373ffffffffffffffffffffffffffffffffffffffff1673ffffffffffffffffffffffffffffffffffffffff1681526020019081526020015f206001015f9054906101000a900460ff169050919050565b606060015f8373ffffffffffffffffffffffffffffffffffffffff1673ffffffffffffffffffffffffffffffffffffffff1681526020019081526020015f2060010160019054906101000a900460ff166104ca576040517f08c379a00000000000000000000000000000000000000000000000000000000081526004016104c190610f1f565b60405180910390fd5b60015f8373ffffffffffffffffffffffffffffffffffffffff1673ffffffffffffffffffffffffffffffffffffffff1681526020019081526020015f205f01805461051490610c2d565b80601f016020809104026020016040519081016040528092919081815260200182805461054090610c2d565b801561058b5780601f106105625761010080835404028352916020019161058b565b820191905f5260205f20905b81548152906001019060200180831161056e57829003601f168201915b50505050509050919050565b5f5f9054906101000a900473ffffffffffffffffffffffffffffffffffffffff1673ffffffffffffffffffffffffffffffffffffffff163373ffffffffffffffffffffffffffffffffffffffff1614610625576040517f08c379a000000000000000000000000000000000000000000000000000000000815260040161061c90610f87565b60405180910390fd5b60015f8273ffffffffffffffffffffffffffffffffffffffff1673ffffffffffffffffffffffffffffffffffffffff1681526020019081526020015f2060010160019054906101000a900460ff166106b2576040517f08c379a00000000000000000000000000000000000000000000000000000000081526004016106a990610f1f565b60405180910390fd5b60015f8273ffffffffffffffffffffffffffffffffffffffff1673ffffffffffffffffffffffffffffffffffffffff1681526020019081526020015f206001015f9054906101000a900460ff161561073f576040517f08c379a000000000000000000000000000000000000000000000000000000000815260040161073690610fef565b60405180910390fd5b6001805f8373ffffffffffffffffffffffffffffffffffffffff1673ffffffffffffffffffffffffffffffffffffffff1681526020019081526020015f206001015f6101000a81548160ff0219169083151502179055508073ffffffffffffffffffffffffffffffffffffffff167fb0859f2cf042b300c8948cdd785ec6a23a3742bc5446c19f4b270b67fac2c96760405160405180910390a250565b5f5f9054906101000a900473ffffffffffffffffffffffffffffffffffffffff1681565b5f604051905090565b5f5ffd5b5f5ffd5b5f5ffd5b5f5ffd5b5f601f19601f8301169050919050565b7f4e487b71000000000000000000000000000000000000000000000000000000005f52604160045260245ffd5b61085f82610819565b810181811067ffffffffffffffff8211171561087e5761087d610829565b5b80604052505050565b5f610890610800565b905061089c8282610856565b919050565b5f67ffffffffffffffff8211156108bb576108ba610829565b5b6108c482610819565b9050602081019050919050565b828183375f83830152505050565b5f6108f16108ec846108a1565b610887565b90508281526020810184848401111561090d5761090c610815565b5b6109188482856108d1565b509392505050565b5f82601f83011261093457610933610811565b5b81356109448482602086016108df565b91505092915050565b5f6020828403121561096257610961610809565b5b5f82013567ffffffffffffffff81111561097f5761097e61080d565b5b61098b84828501610920565b91505092915050565b5f73ffffffffffffffffffffffffffffffffffffffff82169050919050565b5f6109bd82610994565b9050919050565b6109cd816109b3565b81146109d7575f5ffd5b50565b5f813590506109e8816109c4565b92915050565b5f60208284031215610a0357610a02610809565b5b5f610a10848285016109da565b91505092915050565b5f81519050919050565b5f82825260208201905092915050565b8281835e5f83830152505050565b5f610a4b82610a19565b610a558185610a23565b9350610a65818560208601610a33565b610a6e81610819565b840191505092915050565b5f8115159050919050565b610a8d81610a79565b82525050565b5f6060820190508181035f830152610aab8186610a41565b9050610aba6020830185610a84565b610ac76040830184610a84565b949350505050565b5f602082019050610ae25f830184610a84565b92915050565b5f6020820190508181035f830152610b008184610a41565b905092915050565b610b11816109b3565b82525050565b5f602082019050610b2a5f830184610b08565b92915050565b7f416c7265616479207265676973746572656400000000000000000000000000005f82015250565b5f610b64601283610a23565b9150610b6f82610b30565b602082019050919050565b5f6020820190508181035f830152610b9181610b58565b9050919050565b7f496e76616c6964204950465320686173680000000000000000000000000000005f82015250565b5f610bcc601183610a23565b9150610bd782610b98565b602082019050919050565b5f6020820190508181035f830152610bf981610bc0565b9050919050565b7f4e487b71000000000000000000000000000000000000000000000000000000005f52602260045260245ffd5b5f6002820490506001821680610c4457607f821691505b602082108103610c5757610c56610c00565b5b50919050565b5f819050815f5260205f209050919050565b5f6020601f8301049050919050565b5f82821b905092915050565b5f60088302610cb97fffffffffffffffffffffffffffffffffffffffffffffffffffffffffffffffff82610c7e565b610cc38683610c7e565b95508019841693508086168417925050509392505050565b5f819050919050565b5f819050919050565b5f610d07610d02610cfd84610cdb565b610ce4565b610cdb565b9050919050565b5f819050919050565b610d2083610ced565b610d34610d2c82610d0e565b848454610c8a565b825550505050565b5f5f905090565b610d4b610d3c565b610d56818484610d17565b505050565b5b81811015610d7957610d6e5f82610d43565b600181019050610d5c565b5050565b601f821115610dbe57610d8f81610c5d565b610d9884610c6f565b81016020851015610da7578190505b610dbb610db385610c6f565b830182610d5b565b50505b505050565b5f82821c905092915050565b5f610dde5f1984600802610dc3565b1980831691505092915050565b5f610df68383610dcf565b9150826002028217905092915050565b610e0f82610a19565b67ffffffffffffffff811115610e2857610e27610829565b5b610e328254610c2d565b610e3d828285610d7d565b5f60209050601f831160018114610e6e575f8415610e5c578287015190505b610e668582610deb565b865550610ecd565b601f198416610e7c86610c5d565b5f5b82811015610ea357848901518255600182019150602085019450602081019050610e7e565b86831015610ec05784890151610ebc601f891682610dcf565b8355505b6001600288020188555050505b505050505050565b7f446f63746f72206e6f74207265676973746572656400000000000000000000005f82015250565b5f610f09601583610a23565b9150610f1482610ed5565b602082019050919050565b5f6020820190508181035f830152610f3681610efd565b9050919050565b7f4e6f742061646d696e00000000000000000000000000000000000000000000005f82015250565b5f610f71600983610a23565b9150610f7c82610f3d565b602082019050919050565b5f6020820190508181035f830152610f9e81610f65565b9050919050565b7f416c7265616479207665726966696564000000000000000000000000000000005f82015250565b5f610fd9601083610a23565b9150610fe482610fa5565b602082019050919050565b5f6020820190508181035f83015261100681610fcd565b905091905056fea2646970667358221220dfb25cac5e0e17b5a28aa288d0d27ec9f492ebf5f4e117fad68afacb97f2a7e564736f6c634300081e0033",
					"opcodes": "PUSH1 0x80 PUSH1 0x40 MSTORE CALLVALUE DUP1 ISZERO PUSH1 0xE JUMPI PUSH0 PUSH0 REVERT JUMPDEST POP CALLER PUSH0 PUSH0 PUSH2 0x100 EXP DUP2 SLOAD DUP2 PUSH20 0xFFFFFFFFFFFFFFFFFFFFFFFFFFFFFFFFFFFFFFFF MUL NOT AND SWAP1 DUP4 PUSH20 0xFFFFFFFFFFFFFFFFFFFFFFFFFFFFFFFFFFFFFFFF AND MUL OR SWAP1 SSTORE POP PUSH2 0x1043 DUP1 PUSH2 0x5B PUSH0 CODECOPY PUSH0 RETURN INVALID PUSH1 0x80 PUSH1 0x40 MSTORE CALLVALUE DUP1 ISZERO PUSH2 0xF JUMPI PUSH0 PUSH0 REVERT JUMPDEST POP PUSH1 0x4 CALLDATASIZE LT PUSH2 0x60 JUMPI PUSH0 CALLDATALOAD PUSH1 0xE0 SHR DUP1 PUSH4 0x8F09AB5B EQ PUSH2 0x64 JUMPI DUP1 PUSH4 0xA9583C22 EQ PUSH2 0x80 JUMPI DUP1 PUSH4 0xB9209E33 EQ PUSH2 0xB2 JUMPI DUP1 PUSH4 0xBAB90DBD EQ PUSH2 0xE2 JUMPI DUP1 PUSH4 0xD80CB05C EQ PUSH2 0x112 JUMPI DUP1 PUSH4 0xF851A440 EQ PUSH2 0x12E JUMPI JUMPDEST PUSH0 PUSH0 REVERT JUMPDEST PUSH2 0x7E PUSH1 0x4 DUP1 CALLDATASIZE SUB DUP2 ADD SWAP1 PUSH2 0x79 SWAP2 SWAP1 PUSH2 0x94D JUMP JUMPDEST PUSH2 0x14C JUMP JUMPDEST STOP JUMPDEST PUSH2 0x9A PUSH1 0x4 DUP1 CALLDATASIZE SUB DUP2 ADD SWAP1 PUSH2 0x95 SWAP2 SWAP1 PUSH2 0x9EE JUMP JUMPDEST PUSH2 0x321 JUMP JUMPDEST PUSH1 0x40 MLOAD PUSH2 0xA9 SWAP4 SWAP3 SWAP2 SWAP1 PUSH2 0xA93 JUMP JUMPDEST PUSH1 0x40 MLOAD DUP1 SWAP2 SUB SWAP1 RETURN JUMPDEST PUSH2 0xCC PUSH1 0x4 DUP1 CALLDATASIZE SUB DUP2 ADD SWAP1 PUSH2 0xC7 SWAP2 SWAP1 PUSH2 0x9EE JUMP JUMPDEST PUSH2 0x3E6 JUMP JUMPDEST PUSH1 0x40 MLOAD PUSH2 0xD9 SWAP2 SWAP1 PUSH2 0xACF JUMP JUMPDEST PUSH1 0x40 MLOAD DUP1 SWAP2 SUB SWAP1 RETURN JUMPDEST PUSH2 0xFC PUSH1 0x4 DUP1 CALLDATASIZE SUB DUP2 ADD SWAP1 PUSH2 0xF7 SWAP2 SWAP1 PUSH2 0x9EE JUMP JUMPDEST PUSH2 0x43B JUMP JUMPDEST PUSH1 0x40 MLOAD PUSH2 0x109 SWAP2 SWAP1 PUSH2 0xAE8 JUMP JUMPDEST PUSH1 0x40 MLOAD DUP1 SWAP2 SUB SWAP1 RETURN JUMPDEST PUSH2 0x12C PUSH1 0x4 DUP1 CALLDATASIZE SUB DUP2 ADD SWAP1 PUSH2 0x127 SWAP2 SWAP1 PUSH2 0x9EE JUMP JUMPDEST PUSH2 0x597 JUMP JUMPDEST STOP JUMPDEST PUSH2 0x136 PUSH2 0x7DC JUMP JUMPDEST PUSH1 0x40 MLOAD PUSH2 0x143 SWAP2 SWAP1 PUSH2 0xB17 JUMP JUMPDEST PUSH1 0x40 MLOAD DUP1 SWAP2 SUB SWAP1 RETURN JUMPDEST PUSH1 0x1 PUSH0 CALLER PUSH20 0xFFFFFFFFFFFFFFFFFFFFFFFFFFFFFFFFFFFFFFFF AND PUSH20 0xFFFFFFFFFFFFFFFFFFFFFFFFFFFFFFFFFFFFFFFF AND DUP2 MSTORE PUSH1 0x20 ADD SWAP1 DUP2 MSTORE PUSH1 0x20 ADD PUSH0 KECCAK256 PUSH1 0x1 ADD PUSH1 0x1 SWAP1 SLOAD SWAP1 PUSH2 0x100 EXP SWAP1 DIV PUSH1 0xFF AND ISZERO PUSH2 0x1DA JUMPI PUSH1 0x40 MLOAD PUSH32 0x8C379A000000000000000000000000000000000000000000000000000000000 DUP2 MSTORE PUSH1 0x4 ADD PUSH2 0x1D1 SWAP1 PUSH2 0xB7A JUMP JUMPDEST PUSH1 0x40 MLOAD DUP1 SWAP2 SUB SWAP1 REVERT JUMPDEST PUSH0 DUP2 MLOAD GT PUSH2 0x21D JUMPI PUSH1 0x40 MLOAD PUSH32 0x8C379A000000000000000000000000000000000000000000000000000000000 DUP2 MSTORE PUSH1 0x4 ADD PUSH2 0x214 SWAP1 PUSH2 0xBE2 JUMP JUMPDEST PUSH1 0x40 MLOAD DUP1 SWAP2 SUB SWAP1 REVERT JUMPDEST PUSH1 0x40 MLOAD DUP1 PUSH1 0x60 ADD PUSH1 0x40 MSTORE DUP1 DUP3 DUP2 MSTORE PUSH1 0x20 ADD PUSH0 ISZERO ISZERO DUP2 MSTORE PUSH1 0x20 ADD PUSH1 0x1 ISZERO ISZERO DUP2 MSTORE POP PUSH1 0x1 PUSH0 CALLER PUSH20 0xFFFFFFFFFFFFFFFFFFFFFFFFFFFFFFFFFFFFFFFF AND PUSH20 0xFFFFFFFFFFFFFFFFFFFFFFFFFFFFFFFFFFFFFFFF AND DUP2 MSTORE PUSH1 0x20 ADD SWAP1 DUP2 MSTORE PUSH1 0x20 ADD PUSH0 KECCAK256 PUSH0 DUP3 ADD MLOAD DUP2 PUSH0 ADD SWAP1 DUP2 PUSH2 0x28D SWAP2 SWAP1 PUSH2 0xE06 JUMP JUMPDEST POP PUSH1 0x20 DUP3 ADD MLOAD DUP2 PUSH1 0x1 ADD PUSH0 PUSH2 0x100 EXP DUP2 SLOAD DUP2 PUSH1 0xFF MUL NOT AND SWAP1 DUP4 ISZERO ISZERO MUL OR SWAP1 SSTORE POP PUSH1 0x40 DUP3 ADD MLOAD DUP2 PUSH1 0x1 ADD PUSH1 0x1 PUSH2 0x100 EXP DUP2 SLOAD DUP2 PUSH1 0xFF MUL NOT AND SWAP1 DUP4 ISZERO ISZERO MUL OR SWAP1 SSTORE POP SWAP1 POP POP CALLER PUSH20 0xFFFFFFFFFFFFFFFFFFFFFFFFFFFFFFFFFFFFFFFF AND PUSH32 0x20481B8112B5BF4734F45A473C373DB9DF6A79CE946CDC0E7DBC22B4F7D7F986 DUP3 PUSH1 0x40 MLOAD PUSH2 0x316 SWAP2 SWAP1 PUSH2 0xAE8 JUMP JUMPDEST PUSH1 0x40 MLOAD DUP1 SWAP2 SUB SWAP1 LOG2 POP JUMP JUMPDEST PUSH1 0x1 PUSH1 0x20 MSTORE DUP1 PUSH0 MSTORE PUSH1 0x40 PUSH0 KECCAK256 PUSH0 SWAP2 POP SWAP1 POP DUP1 PUSH0 ADD DUP1 SLOAD PUSH2 0x340 SWAP1 PUSH2 0xC2D JUMP JUMPDEST DUP1 PUSH1 0x1F ADD PUSH1 0x20 DUP1 SWAP2 DIV MUL PUSH1 0x20 ADD PUSH1 0x40 MLOAD SWAP1 DUP2 ADD PUSH1 0x40 MSTORE DUP1 SWAP3 SWAP2 SWAP1 DUP2 DUP2 MSTORE PUSH1 0x20 ADD DUP3 DUP1 SLOAD PUSH2 0x36C SWAP1 PUSH2 0xC2D JUMP JUMPDEST DUP1 ISZERO PUSH2 0x3B7 JUMPI DUP1 PUSH1 0x1F LT PUSH2 0x38E JUMPI PUSH2 0x100 DUP1 DUP4 SLOAD DIV MUL DUP4 MSTORE SWAP2 PUSH1 0x20 ADD SWAP2 PUSH2 0x3B7 JUMP JUMPDEST DUP3 ADD SWAP2 SWAP1 PUSH0 MSTORE PUSH1 0x20 PUSH0 KECCAK256 SWAP1 JUMPDEST DUP2 SLOAD DUP2 MSTORE SWAP1 PUSH1 0x1 ADD SWAP1 PUSH1 0x20 ADD DUP1 DUP4 GT PUSH2 0x39A JUMPI DUP3 SWAP1 SUB PUSH1 0x1F AND DUP3 ADD SWAP2 JUMPDEST POP POP POP POP POP SWAP1 DUP1 PUSH1 0x1 ADD PUSH0 SWAP1 SLOAD SWAP1 PUSH2 0x100 EXP SWAP1 DIV PUSH1 0xFF AND SWAP1 DUP1 PUSH1 0x1 ADD PUSH1 0x1 SWAP1 SLOAD SWAP1 PUSH2 0x100 EXP SWAP1 DIV PUSH1 0xFF AND SWAP1 POP DUP4 JUMP JUMPDEST PUSH0 PUSH1 0x1 PUSH0 DUP4 PUSH20 0xFFFFFFFFFFFFFFFFFFFFFFFFFFFFFFFFFFFFFFFF AND PUSH20 0xFFFFFFFFFFFFFFFFFFFFFFFFFFFFFFFFFFFFFFFF AND DUP2 MSTORE PUSH1 0x20 ADD SWAP1 DUP2 MSTORE PUSH1 0x20 ADD PUSH0 KECCAK256 PUSH1 0x1 ADD PUSH0 SWAP1 SLOAD SWAP1 PUSH2 0x100 EXP SWAP1 DIV PUSH1 0xFF AND SWAP1 POP SWAP2 SWAP1 POP JUMP JUMPDEST PUSH1 0x60 PUSH1 0x1 PUSH0 DUP4 PUSH20 0xFFFFFFFFFFFFFFFFFFFFFFFFFFFFFFFFFFFFFFFF AND PUSH20 0xFFFFFFFFFFFFFFFFFFFFFFFFFFFFFFFFFFFFFFFF AND DUP2 MSTORE PUSH1 0x20 ADD SWAP1 DUP2 MSTORE PUSH1 0x20 ADD PUSH0 KECCAK256 PUSH1 0x1 ADD PUSH1 0x1 SWAP1 SLOAD SWAP1 PUSH2 0x100 EXP SWAP1 DIV PUSH1 0xFF AND PUSH2 0x4CA JUMPI PUSH1 0x40 MLOAD PUSH32 0x8C379A000000000000000000000000000000000000000000000000000000000 DUP2 MSTORE PUSH1 0x4 ADD PUSH2 0x4C1 SWAP1 PUSH2 0xF1F JUMP JUMPDEST PUSH1 0x40 MLOAD DUP1 SWAP2 SUB SWAP1 REVERT JUMPDEST PUSH1 0x1 PUSH0 DUP4 PUSH20 0xFFFFFFFFFFFFFFFFFFFFFFFFFFFFFFFFFFFFFFFF AND PUSH20 0xFFFFFFFFFFFFFFFFFFFFFFFFFFFFFFFFFFFFFFFF AND DUP2 MSTORE PUSH1 0x20 ADD SWAP1 DUP2 MSTORE PUSH1 0x20 ADD PUSH0 KECCAK256 PUSH0 ADD DUP1 SLOAD PUSH2 0x514 SWAP1 PUSH2 0xC2D JUMP JUMPDEST DUP1 PUSH1 0x1F ADD PUSH1 0x20 DUP1 SWAP2 DIV MUL PUSH1 0x20 ADD PUSH1 0x40 MLOAD SWAP1 DUP2 ADD PUSH1 0x40 MSTORE DUP1 SWAP3 SWAP2 SWAP1 DUP2 DUP2 MSTORE PUSH1 0x20 ADD DUP3 DUP1 SLOAD PUSH2 0x540 SWAP1 PUSH2 0xC2D JUMP JUMPDEST DUP1 ISZERO PUSH2 0x58B JUMPI DUP1 PUSH1 0x1F LT PUSH2 0x562 JUMPI PUSH2 0x100 DUP1 DUP4 SLOAD DIV MUL DUP4 MSTORE SWAP2 PUSH1 0x20 ADD SWAP2 PUSH2 0x58B JUMP JUMPDEST DUP3 ADD SWAP2 SWAP1 PUSH0 MSTORE PUSH1 0x20 PUSH0 KECCAK256 SWAP1 JUMPDEST DUP2 SLOAD DUP2 MSTORE SWAP1 PUSH1 0x1 ADD SWAP1 PUSH1 0x20 ADD DUP1 DUP4 GT PUSH2 0x56E JUMPI DUP3 SWAP1 SUB PUSH1 0x1F AND DUP3 ADD SWAP2 JUMPDEST POP POP POP POP POP SWAP1 POP SWAP2 SWAP1 POP JUMP JUMPDEST PUSH0 PUSH0 SWAP1 SLOAD SWAP1 PUSH2 0x100 EXP SWAP1 DIV PUSH20 0xFFFFFFFFFFFFFFFFFFFFFFFFFFFFFFFFFFFFFFFF AND PUSH20 0xFFFFFFFFFFFFFFFFFFFFFFFFFFFFFFFFFFFFFFFF AND CALLER PUSH20 0xFFFFFFFFFFFFFFFFFFFFFFFFFFFFFFFFFFFFFFFF AND EQ PUSH2 0x625 JUMPI PUSH1 0x40 MLOAD PUSH32 0x8C379A000000000000000000000000000000000000000000000000000000000 DUP2 MSTORE PUSH1 0x4 ADD PUSH2 0x61C SWAP1 PUSH2 0xF87 JUMP JUMPDEST PUSH1 0x40 MLOAD DUP1 SWAP2 SUB SWAP1 REVERT JUMPDEST PUSH1 0x1 PUSH0 DUP3 PUSH20 0xFFFFFFFFFFFFFFFFFFFFFFFFFFFFFFFFFFFFFFFF AND PUSH20 0xFFFFFFFFFFFFFFFFFFFFFFFFFFFFFFFFFFFFFFFF AND DUP2 MSTORE PUSH1 0x20 ADD SWAP1 DUP2 MSTORE PUSH1 0x20 ADD PUSH0 KECCAK256 PUSH1 0x1 ADD PUSH1 0x1 SWAP1 SLOAD SWAP1 PUSH2 0x100 EXP SWAP1 DIV PUSH1 0xFF AND PUSH2 0x6B2 JUMPI PUSH1 0x40 MLOAD PUSH32 0x8C379A000000000000000000000000000000000000000000000000000000000 DUP2 MSTORE PUSH1 0x4 ADD PUSH2 0x6A9 SWAP1 PUSH2 0xF1F JUMP JUMPDEST PUSH1 0x40 MLOAD DUP1 SWAP2 SUB SWAP1 REVERT JUMPDEST PUSH1 0x1 PUSH0 DUP3 PUSH20 0xFFFFFFFFFFFFFFFFFFFFFFFFFFFFFFFFFFFFFFFF AND PUSH20 0xFFFFFFFFFFFFFFFFFFFFFFFFFFFFFFFFFFFFFFFF AND DUP2 MSTORE PUSH1 0x20 ADD SWAP1 DUP2 MSTORE PUSH1 0x20 ADD PUSH0 KECCAK256 PUSH1 0x1 ADD PUSH0 SWAP1 SLOAD SWAP1 PUSH2 0x100 EXP SWAP1 DIV PUSH1 0xFF AND ISZERO PUSH2 0x73F JUMPI PUSH1 0x40 MLOAD PUSH32 0x8C379A000000000000000000000000000000000000000000000000000000000 DUP2 MSTORE PUSH1 0x4 ADD PUSH2 0x736 SWAP1 PUSH2 0xFEF JUMP JUMPDEST PUSH1 0x40 MLOAD DUP1 SWAP2 SUB SWAP1 REVERT JUMPDEST PUSH1 0x1 DUP1 PUSH0 DUP4 PUSH20 0xFFFFFFFFFFFFFFFFFFFFFFFFFFFFFFFFFFFFFFFF AND PUSH20 0xFFFFFFFFFFFFFFFFFFFFFFFFFFFFFFFFFFFFFFFF AND DUP2 MSTORE PUSH1 0x20 ADD SWAP1 DUP2 MSTORE PUSH1 0x20 ADD PUSH0 KECCAK256 PUSH1 0x1 ADD PUSH0 PUSH2 0x100 EXP DUP2 SLOAD DUP2 PUSH1 0xFF MUL NOT AND SWAP1 DUP4 ISZERO ISZERO MUL OR SWAP1 SSTORE POP DUP1 PUSH20 0xFFFFFFFFFFFFFFFFFFFFFFFFFFFFFFFFFFFFFFFF AND PUSH32 0xB0859F2CF042B300C8948CDD785EC6A23A3742BC5446C19F4B270B67FAC2C967 PUSH1 0x40 MLOAD PUSH1 0x40 MLOAD DUP1 SWAP2 SUB SWAP1 LOG2 POP JUMP JUMPDEST PUSH0 PUSH0 SWAP1 SLOAD SWAP1 PUSH2 0x100 EXP SWAP1 DIV PUSH20 0xFFFFFFFFFFFFFFFFFFFFFFFFFFFFFFFFFFFFFFFF AND DUP2 JUMP JUMPDEST PUSH0 PUSH1 0x40 MLOAD SWAP1 POP SWAP1 JUMP JUMPDEST PUSH0 PUSH0 REVERT JUMPDEST PUSH0 PUSH0 REVERT JUMPDEST PUSH0 PUSH0 REVERT JUMPDEST PUSH0 PUSH0 REVERT JUMPDEST PUSH0 PUSH1 0x1F NOT PUSH1 0x1F DUP4 ADD AND SWAP1 POP SWAP2 SWAP1 POP JUMP JUMPDEST PUSH32 0x4E487B7100000000000000000000000000000000000000000000000000000000 PUSH0 MSTORE PUSH1 0x41 PUSH1 0x4 MSTORE PUSH1 0x24 PUSH0 REVERT JUMPDEST PUSH2 0x85F DUP3 PUSH2 0x819 JUMP JUMPDEST DUP2 ADD DUP2 DUP2 LT PUSH8 0xFFFFFFFFFFFFFFFF DUP3 GT OR ISZERO PUSH2 0x87E JUMPI PUSH2 0x87D PUSH2 0x829 JUMP JUMPDEST JUMPDEST DUP1 PUSH1 0x40 MSTORE POP POP POP JUMP JUMPDEST PUSH0 PUSH2 0x890 PUSH2 0x800 JUMP JUMPDEST SWAP1 POP PUSH2 0x89C DUP3 DUP3 PUSH2 0x856 JUMP JUMPDEST SWAP2 SWAP1 POP JUMP JUMPDEST PUSH0 PUSH8 0xFFFFFFFFFFFFFFFF DUP3 GT ISZERO PUSH2 0x8BB JUMPI PUSH2 0x8BA PUSH2 0x829 JUMP JUMPDEST JUMPDEST PUSH2 0x8C4 DUP3 PUSH2 0x819 JUMP JUMPDEST SWAP1 POP PUSH1 0x20 DUP2 ADD SWAP1 POP SWAP2 SWAP1 POP JUMP JUMPDEST DUP3 DUP2 DUP4 CALLDATACOPY PUSH0 DUP4 DUP4 ADD MSTORE POP POP POP JUMP JUMPDEST PUSH0 PUSH2 0x8F1 PUSH2 0x8EC DUP5 PUSH2 0x8A1 JUMP JUMPDEST PUSH2 0x887 JUMP JUMPDEST SWAP1 POP DUP3 DUP2 MSTORE PUSH1 0x20 DUP2 ADD DUP5 DUP5 DUP5 ADD GT ISZERO PUSH2 0x90D JUMPI PUSH2 0x90C PUSH2 0x815 JUMP JUMPDEST JUMPDEST PUSH2 0x918 DUP5 DUP3 DUP6 PUSH2 0x8D1 JUMP JUMPDEST POP SWAP4 SWAP3 POP POP POP JUMP JUMPDEST PUSH0 DUP3 PUSH1 0x1F DUP4 ADD SLT PUSH2 0x934 JUMPI PUSH2 0x933 PUSH2 0x811 JUMP JUMPDEST JUMPDEST DUP2 CALLDATALOAD PUSH2 0x944 DUP5 DUP3 PUSH1 0x20 DUP7 ADD PUSH2 0x8DF JUMP JUMPDEST SWAP2 POP POP SWAP3 SWAP2 POP POP JUMP JUMPDEST PUSH0 PUSH1 0x20 DUP3 DUP5 SUB SLT ISZERO PUSH2 0x962 JUMPI PUSH2 0x961 PUSH2 0x809 JUMP JUMPDEST JUMPDEST PUSH0 DUP3 ADD CALLDATALOAD PUSH8 0xFFFFFFFFFFFFFFFF DUP2 GT ISZERO PUSH2 0x97F JUMPI PUSH2 0x97E PUSH2 0x80D JUMP JUMPDEST JUMPDEST PUSH2 0x98B DUP5 DUP3 DUP6 ADD PUSH2 0x920 JUMP JUMPDEST SWAP2 POP POP SWAP3 SWAP2 POP POP JUMP JUMPDEST PUSH0 PUSH20 0xFFFFFFFFFFFFFFFFFFFFFFFFFFFFFFFFFFFFFFFF DUP3 AND SWAP1 POP SWAP2 SWAP1 POP JUMP JUMPDEST PUSH0 PUSH2 0x9BD DUP3 PUSH2 0x994 JUMP JUMPDEST SWAP1 POP SWAP2 SWAP1 POP JUMP JUMPDEST PUSH2 0x9CD DUP2 PUSH2 0x9B3 JUMP JUMPDEST DUP2 EQ PUSH2 0x9D7 JUMPI PUSH0 PUSH0 REVERT JUMPDEST POP JUMP JUMPDEST PUSH0 DUP2 CALLDATALOAD SWAP1 POP PUSH2 0x9E8 DUP2 PUSH2 0x9C4 JUMP JUMPDEST SWAP3 SWAP2 POP POP JUMP JUMPDEST PUSH0 PUSH1 0x20 DUP3 DUP5 SUB SLT ISZERO PUSH2 0xA03 JUMPI PUSH2 0xA02 PUSH2 0x809 JUMP JUMPDEST JUMPDEST PUSH0 PUSH2 0xA10 DUP5 DUP3 DUP6 ADD PUSH2 0x9DA JUMP JUMPDEST SWAP2 POP POP SWAP3 SWAP2 POP POP JUMP JUMPDEST PUSH0 DUP2 MLOAD SWAP1 POP SWAP2 SWAP1 POP JUMP JUMPDEST PUSH0 DUP3 DUP3 MSTORE PUSH1 0x20 DUP3 ADD SWAP1 POP SWAP3 SWAP2 POP POP JUMP JUMPDEST DUP3 DUP2 DUP4 MCOPY PUSH0 DUP4 DUP4 ADD MSTORE POP POP POP JUMP JUMPDEST PUSH0 PUSH2 0xA4B DUP3 PUSH2 0xA19 JUMP JUMPDEST PUSH2 0xA55 DUP2 DUP6 PUSH2 0xA23 JUMP JUMPDEST SWAP4 POP PUSH2 0xA65 DUP2 DUP6 PUSH1 0x20 DUP7 ADD PUSH2 0xA33 JUMP JUMPDEST PUSH2 0xA6E DUP2 PUSH2 0x819 JUMP JUMPDEST DUP5 ADD SWAP2 POP POP SWAP3 SWAP2 POP POP JUMP JUMPDEST PUSH0 DUP2 ISZERO ISZERO SWAP1 POP SWAP2 SWAP1 POP JUMP JUMPDEST PUSH2 0xA8D DUP2 PUSH2 0xA79 JUMP JUMPDEST DUP3 MSTORE POP POP JUMP JUMPDEST PUSH0 PUSH1 0x60 DUP3 ADD SWAP1 POP DUP2 DUP2 SUB PUSH0 DUP4 ADD MSTORE PUSH2 0xAAB DUP2 DUP7 PUSH2 0xA41 JUMP JUMPDEST SWAP1 POP PUSH2 0xABA PUSH1 0x20 DUP4 ADD DUP6 PUSH2 0xA84 JUMP JUMPDEST PUSH2 0xAC7 PUSH1 0x40 DUP4 ADD DUP5 PUSH2 0xA84 JUMP JUMPDEST SWAP5 SWAP4 POP POP POP POP JUMP JUMPDEST PUSH0 PUSH1 0x20 DUP3 ADD SWAP1 POP PUSH2 0xAE2 PUSH0 DUP4 ADD DUP5 PUSH2 0xA84 JUMP JUMPDEST SWAP3 SWAP2 POP POP JUMP JUMPDEST PUSH0 PUSH1 0x20 DUP3 ADD SWAP1 POP DUP2 DUP2 SUB PUSH0 DUP4 ADD MSTORE PUSH2 0xB00 DUP2 DUP5 PUSH2 0xA41 JUMP JUMPDEST SWAP1 POP SWAP3 SWAP2 POP POP JUMP JUMPDEST PUSH2 0xB11 DUP2 PUSH2 0x9B3 JUMP JUMPDEST DUP3 MSTORE POP POP JUMP JUMPDEST PUSH0 PUSH1 0x20 DUP3 ADD SWAP1 POP PUSH2 0xB2A PUSH0 DUP4 ADD DUP5 PUSH2 0xB08 JUMP JUMPDEST SWAP3 SWAP2 POP POP JUMP JUMPDEST PUSH32 0x416C726561647920726567697374657265640000000000000000000000000000 PUSH0 DUP3 ADD MSTORE POP JUMP JUMPDEST PUSH0 PUSH2 0xB64 PUSH1 0x12 DUP4 PUSH2 0xA23 JUMP JUMPDEST SWAP2 POP PUSH2 0xB6F DUP3 PUSH2 0xB30 JUMP JUMPDEST PUSH1 0x20 DUP3 ADD SWAP1 POP SWAP2 SWAP1 POP JUMP JUMPDEST PUSH0 PUSH1 0x20 DUP3 ADD SWAP1 POP DUP2 DUP2 SUB PUSH0 DUP4 ADD MSTORE PUSH2 0xB91 DUP2 PUSH2 0xB58 JUMP JUMPDEST SWAP1 POP SWAP2 SWAP1 POP JUMP JUMPDEST PUSH32 0x496E76616C696420495046532068617368000000000000000000000000000000 PUSH0 DUP3 ADD MSTORE POP JUMP JUMPDEST PUSH0 PUSH2 0xBCC PUSH1 0x11 DUP4 PUSH2 0xA23 JUMP JUMPDEST SWAP2 POP PUSH2 0xBD7 DUP3 PUSH2 0xB98 JUMP JUMPDEST PUSH1 0x20 DUP3 ADD SWAP1 POP SWAP2 SWAP1 POP JUMP JUMPDEST PUSH0 PUSH1 0x20 DUP3 ADD SWAP1 POP DUP2 DUP2 SUB PUSH0 DUP4 ADD MSTORE PUSH2 0xBF9 DUP2 PUSH2 0xBC0 JUMP JUMPDEST SWAP1 POP SWAP2 SWAP1 POP JUMP JUMPDEST PUSH32 0x4E487B7100000000000000000000000000000000000000000000000000000000 PUSH0 MSTORE PUSH1 0x22 PUSH1 0x4 MSTORE PUSH1 0x24 PUSH0 REVERT JUMPDEST PUSH0 PUSH1 0x2 DUP3 DIV SWAP1 POP PUSH1 0x1 DUP3 AND DUP1 PUSH2 0xC44 JUMPI PUSH1 0x7F DUP3 AND SWAP2 POP JUMPDEST PUSH1 0x20 DUP3 LT DUP2 SUB PUSH2 0xC57 JUMPI PUSH2 0xC56 PUSH2 0xC00 JUMP JUMPDEST JUMPDEST POP SWAP2 SWAP1 POP JUMP JUMPDEST PUSH0 DUP2 SWAP1 POP DUP2 PUSH0 MSTORE PUSH1 0x20 PUSH0 KECCAK256 SWAP1 POP SWAP2 SWAP1 POP JUMP JUMPDEST PUSH0 PUSH1 0x20 PUSH1 0x1F DUP4 ADD DIV SWAP1 POP SWAP2 SWAP1 POP JUMP JUMPDEST PUSH0 DUP3 DUP3 SHL SWAP1 POP SWAP3 SWAP2 POP POP JUMP JUMPDEST PUSH0 PUSH1 0x8 DUP4 MUL PUSH2 0xCB9 PUSH32 0xFFFFFFFFFFFFFFFFFFFFFFFFFFFFFFFFFFFFFFFFFFFFFFFFFFFFFFFFFFFFFFFF DUP3 PUSH2 0xC7E JUMP JUMPDEST PUSH2 0xCC3 DUP7 DUP4 PUSH2 0xC7E JUMP JUMPDEST SWAP6 POP DUP1 NOT DUP5 AND SWAP4 POP DUP1 DUP7 AND DUP5 OR SWAP3 POP POP POP SWAP4 SWAP3 POP POP POP JUMP JUMPDEST PUSH0 DUP2 SWAP1 POP SWAP2 SWAP1 POP JUMP JUMPDEST PUSH0 DUP2 SWAP1 POP SWAP2 SWAP1 POP JUMP JUMPDEST PUSH0 PUSH2 0xD07 PUSH2 0xD02 PUSH2 0xCFD DUP5 PUSH2 0xCDB JUMP JUMPDEST PUSH2 0xCE4 JUMP JUMPDEST PUSH2 0xCDB JUMP JUMPDEST SWAP1 POP SWAP2 SWAP1 POP JUMP JUMPDEST PUSH0 DUP2 SWAP1 POP SWAP2 SWAP1 POP JUMP JUMPDEST PUSH2 0xD20 DUP4 PUSH2 0xCED JUMP JUMPDEST PUSH2 0xD34 PUSH2 0xD2C DUP3 PUSH2 0xD0E JUMP JUMPDEST DUP5 DUP5 SLOAD PUSH2 0xC8A JUMP JUMPDEST DUP3 SSTORE POP POP POP POP JUMP JUMPDEST PUSH0 PUSH0 SWAP1 POP SWAP1 JUMP JUMPDEST PUSH2 0xD4B PUSH2 0xD3C JUMP JUMPDEST PUSH2 0xD56 DUP2 DUP5 DUP5 PUSH2 0xD17 JUMP JUMPDEST POP POP POP JUMP JUMPDEST JUMPDEST DUP2 DUP2 LT ISZERO PUSH2 0xD79 JUMPI PUSH2 0xD6E PUSH0 DUP3 PUSH2 0xD43 JUMP JUMPDEST PUSH1 0x1 DUP2 ADD SWAP1 POP PUSH2 0xD5C JUMP JUMPDEST POP POP JUMP JUMPDEST PUSH1 0x1F DUP3 GT ISZERO PUSH2 0xDBE JUMPI PUSH2 0xD8F DUP2 PUSH2 0xC5D JUMP JUMPDEST PUSH2 0xD98 DUP5 PUSH2 0xC6F JUMP JUMPDEST DUP2 ADD PUSH1 0x20 DUP6 LT ISZERO PUSH2 0xDA7 JUMPI DUP2 SWAP1 POP JUMPDEST PUSH2 0xDBB PUSH2 0xDB3 DUP6 PUSH2 0xC6F JUMP JUMPDEST DUP4 ADD DUP3 PUSH2 0xD5B JUMP JUMPDEST POP POP JUMPDEST POP POP POP JUMP JUMPDEST PUSH0 DUP3 DUP3 SHR SWAP1 POP SWAP3 SWAP2 POP POP JUMP JUMPDEST PUSH0 PUSH2 0xDDE PUSH0 NOT DUP5 PUSH1 0x8 MUL PUSH2 0xDC3 JUMP JUMPDEST NOT DUP1 DUP4 AND SWAP2 POP POP SWAP3 SWAP2 POP POP JUMP JUMPDEST PUSH0 PUSH2 0xDF6 DUP4 DUP4 PUSH2 0xDCF JUMP JUMPDEST SWAP2 POP DUP3 PUSH1 0x2 MUL DUP3 OR SWAP1 POP SWAP3 SWAP2 POP POP JUMP JUMPDEST PUSH2 0xE0F DUP3 PUSH2 0xA19 JUMP JUMPDEST PUSH8 0xFFFFFFFFFFFFFFFF DUP2 GT ISZERO PUSH2 0xE28 JUMPI PUSH2 0xE27 PUSH2 0x829 JUMP JUMPDEST JUMPDEST PUSH2 0xE32 DUP3 SLOAD PUSH2 0xC2D JUMP JUMPDEST PUSH2 0xE3D DUP3 DUP3 DUP6 PUSH2 0xD7D JUMP JUMPDEST PUSH0 PUSH1 0x20 SWAP1 POP PUSH1 0x1F DUP4 GT PUSH1 0x1 DUP2 EQ PUSH2 0xE6E JUMPI PUSH0 DUP5 ISZERO PUSH2 0xE5C JUMPI DUP3 DUP8 ADD MLOAD SWAP1 POP JUMPDEST PUSH2 0xE66 DUP6 DUP3 PUSH2 0xDEB JUMP JUMPDEST DUP7 SSTORE POP PUSH2 0xECD JUMP JUMPDEST PUSH1 0x1F NOT DUP5 AND PUSH2 0xE7C DUP7 PUSH2 0xC5D JUMP JUMPDEST PUSH0 JUMPDEST DUP3 DUP2 LT ISZERO PUSH2 0xEA3 JUMPI DUP5 DUP10 ADD MLOAD DUP3 SSTORE PUSH1 0x1 DUP3 ADD SWAP2 POP PUSH1 0x20 DUP6 ADD SWAP5 POP PUSH1 0x20 DUP2 ADD SWAP1 POP PUSH2 0xE7E JUMP JUMPDEST DUP7 DUP4 LT ISZERO PUSH2 0xEC0 JUMPI DUP5 DUP10 ADD MLOAD PUSH2 0xEBC PUSH1 0x1F DUP10 AND DUP3 PUSH2 0xDCF JUMP JUMPDEST DUP4 SSTORE POP JUMPDEST PUSH1 0x1 PUSH1 0x2 DUP9 MUL ADD DUP9 SSTORE POP POP POP JUMPDEST POP POP POP POP POP POP JUMP JUMPDEST PUSH32 0x446F63746F72206E6F7420726567697374657265640000000000000000000000 PUSH0 DUP3 ADD MSTORE POP JUMP JUMPDEST PUSH0 PUSH2 0xF09 PUSH1 0x15 DUP4 PUSH2 0xA23 JUMP JUMPDEST SWAP2 POP PUSH2 0xF14 DUP3 PUSH2 0xED5 JUMP JUMPDEST PUSH1 0x20 DUP3 ADD SWAP1 POP SWAP2 SWAP1 POP JUMP JUMPDEST PUSH0 PUSH1 0x20 DUP3 ADD SWAP1 POP DUP2 DUP2 SUB PUSH0 DUP4 ADD MSTORE PUSH2 0xF36 DUP2 PUSH2 0xEFD JUMP JUMPDEST SWAP1 POP SWAP2 SWAP1 POP JUMP JUMPDEST PUSH32 0x4E6F742061646D696E0000000000000000000000000000000000000000000000 PUSH0 DUP3 ADD MSTORE POP JUMP JUMPDEST PUSH0 PUSH2 0xF71 PUSH1 0x9 DUP4 PUSH2 0xA23 JUMP JUMPDEST SWAP2 POP PUSH2 0xF7C DUP3 PUSH2 0xF3D JUMP JUMPDEST PUSH1 0x20 DUP3 ADD SWAP1 POP SWAP2 SWAP1 POP JUMP JUMPDEST PUSH0 PUSH1 0x20 DUP3 ADD SWAP1 POP DUP2 DUP2 SUB PUSH0 DUP4 ADD MSTORE PUSH2 0xF9E DUP2 PUSH2 0xF65 JUMP JUMPDEST SWAP1 POP SWAP2 SWAP1 POP JUMP JUMPDEST PUSH32 0x416C726561647920766572696669656400000000000000000000000000000000 PUSH0 DUP3 ADD MSTORE POP JUMP JUMPDEST PUSH0 PUSH2 0xFD9 PUSH1 0x10 DUP4 PUSH2 0xA23 JUMP JUMPDEST SWAP2 POP PUSH2 0xFE4 DUP3 PUSH2 0xFA5 JUMP JUMPDEST PUSH1 0x20 DUP3 ADD SWAP1 POP SWAP2 SWAP1 POP JUMP JUMPDEST PUSH0 PUSH1 0x20 DUP3 ADD SWAP1 POP DUP2 DUP2 SUB PUSH0 DUP4 ADD MSTORE PUSH2 0x1006 DUP2 PUSH2 0xFCD JUMP JUMPDEST SWAP1 POP SWAP2 SWAP1 POP JUMP INVALID LOG2 PUSH5 0x6970667358 0x22 SLT KECCAK256 0xDF 0xB2 TLOAD 0xAC MCOPY 0xE OR 0xB5 LOG2 DUP11 LOG2 DUP9 0xD0 0xD2 PUSH31 0xC9F492EBF5F4E117FAD68AFACB97F2A7E564736F6C634300081E0033000000 "
				},
				"gasEstimates": {
					"creation": {
						"codeDepositCost": "832600",
						"executionCost": "25132",
						"totalCost": "857732"
					},
					"external": {
						"admin()": "2595",
						"doctors(address)": "infinite",
						"getDoctorDetails(address)": "infinite",
						"isVerified(address)": "2898",
						"registerDoctor(string)": "infinite",
						"verifyDoctor(address)": "32750"
					}
				},
				"methodIdentifiers": {
					"admin()": "f851a440",
					"doctors(address)": "a9583c22",
					"getDoctorDetails(address)": "bab90dbd",
					"isVerified(address)": "b9209e33",
					"registerDoctor(string)": "8f09ab5b",
					"verifyDoctor(address)": "d80cb05c"
				}
			},
			"storageLayout": {
				"storage": [
					{
						"astId": 3,
						"contract": "contracts/DoctorRegistry.sol:DoctorRegistry",
						"label": "admin",
						"offset": 0,
						"slot": "0",
						"type": "t_address"
					},
					{
						"astId": 15,
						"contract": "contracts/DoctorRegistry.sol:DoctorRegistry",
						"label": "doctors",
						"offset": 0,
						"slot": "1",
						"type": "t_mapping(t_address,t_struct(Doctor)10_storage)"
					}
				],
				"types": {
					"t_address": {
						"encoding": "inplace",
						"label": "address",
						"numberOfBytes": "20"
					},
					"t_bool": {
						"encoding": "inplace",
						"label": "bool",
						"numberOfBytes": "1"
					},
					"t_mapping(t_address,t_struct(Doctor)10_storage)": {
						"encoding": "mapping",
						"key": "t_address",
						"label": "mapping(address => struct DoctorRegistry.Doctor)",
						"numberOfBytes": "32",
						"value": "t_struct(Doctor)10_storage"
					},
					"t_string_storage": {
						"encoding": "bytes",
						"label": "string",
						"numberOfBytes": "32"
					},
					"t_struct(Doctor)10_storage": {
						"encoding": "inplace",
						"label": "struct DoctorRegistry.Doctor",
						"members": [
							{
								"astId": 5,
								"contract": "contracts/DoctorRegistry.sol:DoctorRegistry",
								"label": "ipfsHash",
								"offset": 0,
								"slot": "0",
								"type": "t_string_storage"
							},
							{
								"astId": 7,
								"contract": "contracts/DoctorRegistry.sol:DoctorRegistry",
								"label": "verified",
								"offset": 0,
								"slot": "1",
								"type": "t_bool"
							},
							{
								"astId": 9,
								"contract": "contracts/DoctorRegistry.sol:DoctorRegistry",
								"label": "registered",
								"offset": 1,
								"slot": "1",
								"type": "t_bool"
							}
						],
						"numberOfBytes": "64"
					}
				}
			},
			"userdoc": {
				"kind": "user",
				"methods": {},
				"version": 1
			}
		}
	}
}