{
	"contracts/PatientRegistry.sol": {
		"PatientRegistry": {
			"abi": [
				{
					"anonymous": false,
					"inputs": [
						{
							"indexed": true,
							"internalType": "address",
							"name": "patient",
							"type": "address"
						},
						{
							"indexed": false,
							"internalType": "string",
							"name": "fileHash",
							"type": "string"
						}
					],
					"name": "FileAdded",
					"type": "event"
				},
				{
					"anonymous": false,
					"inputs": [
						{
							"indexed": true,
							"internalType": "address",
							"name": "patient",
							"type": "address"
						},
						{
							"indexed": false,
							"internalType": "string",
							"name": "name",
							"type": "string"
						}
					],
					"name": "PatientRegistered",
					"type": "event"
				},
				{
					"inputs": [
						{
							"internalType": "address",
							"name": "_patient",
							"type": "address"
						},
						{
							"internalType": "string",
							"name": "_fileHash",
							"type": "string"
						}
					],
					"name": "addFileToPatient",
					"outputs": [],
					"stateMutability": "nonpayable",
					"type": "function"
				},
				{
					"inputs": [],
					"name": "getAllRegisteredPatients",
					"outputs": [
						{
							"internalType": "address[]",
							"name": "",
							"type": "address[]"
						}
					],
					"stateMutability": "view",
					"type": "function"
				},
				{
					"inputs": [
						{
							"internalType": "address",
							"name": "_patient",
							"type": "address"
						}
					],
					"name": "getPatientDetails",
					"outputs": [
						{
							"internalType": "string",
							"name": "name",
							"type": "string"
						},
						{
							"internalType": "string",
							"name": "gender",
							"type": "string"
						},
						{
							"internalType": "string",
							"name": "dateOfBirth",
							"type": "string"
						},
						{
							"internalType": "string",
							"name": "bloodGroup",
							"type": "string"
						},
						{
							"internalType": "string",
							"name": "contactInfo",
							"type": "string"
						},
						{
							"internalType": "string",
							"name": "homeAddress",
							"type": "string"
						}
					],
					"stateMutability": "view",
					"type": "function"
				},
				{
					"inputs": [
						{
							"internalType": "address",
							"name": "_patient",
							"type": "address"
						}
					],
					"name": "getPatientFiles",
					"outputs": [
						{
							"internalType": "string[]",
							"name": "",
							"type": "string[]"
						}
					],
					"stateMutability": "view",
					"type": "function"
				},
				{
					"inputs": [],
					"name": "getTotalPatientsCount",
					"outputs": [
						{
							"internalType": "uint256",
							"name": "",
							"type": "uint256"
						}
					],
					"stateMutability": "view",
					"type": "function"
				},
				{
					"inputs": [],
					"name": "getTotalRecordsCount",
					"outputs": [
						{
							"internalType": "uint256",
							"name": "",
							"type": "uint256"
						}
					],
					"stateMutability": "view",
					"type": "function"
				},
				{
					"inputs": [
						{
							"internalType": "address",
							"name": "",
							"type": "address"
						}
					],
					"name": "patients",
					"outputs": [
						{
							"internalType": "string",
							"name": "name",
							"type": "string"
						},
						{
							"internalType": "string",
							"name": "gender",
							"type": "string"
						},
						{
							"internalType": "string",
							"name": "dateOfBirth",
							"type": "string"
						},
						{
							"internalType": "string",
							"name": "bloodGroup",
							"type": "string"
						},
						{
							"internalType": "string",
							"name": "contactInfo",
							"type": "string"
						},
						{
							"internalType": "string",
							"name": "homeAddress",
							"type": "string"
						},
						{
							"internalType": "bool",
							"name": "isRegistered",
							"type": "bool"
						}
					],
					"stateMutability": "view",
					"type": "function"
				},
				{
					"inputs": [
						{
							"internalType": "string",
							"name": "_name",
							"type": "string"
						},
						{
							"internalType": "string",
							"name": "_gender",
							"type": "string"
						},
						{
							"internalType": "string",
							"name": "_dateOfBirth",
							"type": "string"
						},
						{
							"internalType": "string",
							"name": "_bloodGroup",
							"type": "string"
						},
						{
							"internalType": "string",
							"name": "_contactInfo",
							"type": "string"
						},
						{
							"internalType": "string",
							"name": "_homeAddress",
							"type": "string"
						}
					],
					"name": "registerPatient",
					"outputs": [],
					"stateMutability": "nonpayable",
					"type": "function"
				},
				{
					"inputs": [
						{
							"internalType": "uint256",
							"name": "",
							"type": "uint256"
						}
					],
					"name": "registeredPatientAddresses",
					"outputs": [
						{
							"internalType": "address",
							"name": "",
							"type": "address"
						}
					],
					"stateMutability": "view",
					"type": "function"
				},
				{
					"inputs": [],
					"name": "totalFileRecords",
					"outputs": [
						{
							"internalType": "uint256",
							"name": "",
							"type": "uint256"
						}
					],
					"stateMutability": "view",
					"type": "function"
				},
				{
					"inputs": [],
					"name": "totalPatients",
					"outputs": [
						{
							"internalType": "uint256",
							"name": "",
							"type": "uint256"
						}
					],
					"stateMutability": "view",
					"type": "function"
				}
			],
			"devdoc": {
				"kind": "dev",
				"methods": {},
				"version": 1
			},
			"evm": {
				"assembly": "    /* \"contracts/PatientRegistry.sol\":61:3216  contract PatientRegistry {... */\n  mstore(0x40, 0x80)\n  callvalue\n  dup1\n  iszero\n  tag_1\n  jumpi\n  revert(0x00, 0x00)\ntag_1:\n  pop\n  dataSize(sub_0)\n  dup1\n  dataOffset(sub_0)\n  0x00\n  codecopy\n  0x00\n  return\nstop\n\nsub_0: assembly {\n        /* \"contracts/PatientRegistry.sol\":61:3216  contract PatientRegistry {... */\n      mstore(0x40, 0x80)\n      callvalue\n      dup1\n      iszero\n      tag_1\n      jumpi\n      revert(0x00, 0x00)\n    tag_1:\n      pop\n      jumpi(tag_2, lt(calldatasize, 0x04))\n      shr(0xe0, calldataload(0x00))\n      dup1\n      0xa2143b3c\n      gt\n      tag_14\n      jumpi\n      dup1\n      0xa2143b3c\n      eq\n      tag_8\n      jumpi\n      dup1\n      0xc1816dfb\n      eq\n      tag_9\n      jumpi\n      dup1\n      0xdeb5ef09\n      eq\n      tag_10\n      jumpi\n      dup1\n      0xed3a2634\n      eq\n      tag_11\n      jumpi\n      dup1\n      0xedefcf88\n      eq\n      tag_12\n      jumpi\n      dup1\n      0xefe2ccc1\n      eq\n      tag_13\n      jumpi\n      jump(tag_2)\n    tag_14:\n      dup1\n      0x0869cfbc\n      eq\n      tag_3\n      jumpi\n      dup1\n      0x413f107a\n      eq\n      tag_4\n      jumpi\n      dup1\n      0x6d26dce8\n      eq\n      tag_5\n      jumpi\n      dup1\n      0x8f768649\n      eq\n      tag_6\n      jumpi\n      dup1\n      0x9a96fcc1\n      eq\n      tag_7\n      jumpi\n    tag_2:\n      revert(0x00, 0x00)\n        /* \"contracts/PatientRegistry.sol\":457:500  mapping(address => Patient) public patients */\n    tag_3:\n      tag_15\n      0x04\n      dup1\n      calldatasize\n      sub\n      dup2\n      add\n      swap1\n      tag_16\n      swap2\n      swap1\n      tag_17\n      jump\t// in\n    tag_16:\n      tag_18\n      jump\t// in\n    tag_15:\n      mload(0x40)\n      tag_19\n      swap8\n      swap7\n      swap6\n      swap5\n      swap4\n      swap3\n      swap2\n      swap1\n      tag_20\n      jump\t// in\n    tag_19:\n      mload(0x40)\n      dup1\n      swap2\n      sub\n      swap1\n      return\n        /* \"contracts/PatientRegistry.sol\":3086:3213  function getAllRegisteredPatients() public view returns (address[] memory) {... */\n    tag_4:\n      tag_21\n      tag_22\n      jump\t// in\n    tag_21:\n      mload(0x40)\n      tag_23\n      swap2\n      swap1\n      tag_24\n      jump\t// in\n    tag_23:\n      mload(0x40)\n      dup1\n      swap2\n      sub\n      swap1\n      return\n        /* \"contracts/PatientRegistry.sol\":906:1799  function registerPatient(... */\n    tag_5:\n      tag_25\n      0x04\n      dup1\n      calldatasize\n      sub\n      dup2\n      add\n      swap1\n      tag_26\n      swap2\n      swap1\n      tag_27\n      jump\t// in\n    tag_26:\n      tag_28\n      jump\t// in\n    tag_25:\n      stop\n        /* \"contracts/PatientRegistry.sol\":167:198  uint256 public totalFileRecords */\n    tag_6:\n      tag_29\n      tag_30\n      jump\t// in\n    tag_29:\n      mload(0x40)\n      tag_31\n      swap2\n      swap1\n      tag_32\n      jump\t// in\n    tag_31:\n      mload(0x40)\n      dup1\n      swap2\n      sub\n      swap1\n      return\n        /* \"contracts/PatientRegistry.sol\":2970:3074  function getTotalRecordsCount() public view returns (uint256) {... */\n    tag_7:\n      tag_33\n      tag_34\n      jump\t// in\n    tag_33:\n      mload(0x40)\n      tag_35\n      swap2\n      swap1\n      tag_32\n      jump\t// in\n    tag_35:\n      mload(0x40)\n      dup1\n      swap2\n      sub\n      swap1\n      return\n        /* \"contracts/PatientRegistry.sol\":583:626  address[] public registeredPatientAddresses */\n    tag_8:\n      tag_36\n      0x04\n      dup1\n      calldatasize\n      sub\n      dup2\n      add\n      swap1\n      tag_37\n      swap2\n      swap1\n      tag_38\n      jump\t// in\n    tag_37:\n      tag_39\n      jump\t// in\n    tag_36:\n      mload(0x40)\n      tag_40\n      swap2\n      swap1\n      tag_41\n      jump\t// in\n    tag_40:\n      mload(0x40)\n      dup1\n      swap2\n      sub\n      swap1\n      return\n        /* \"contracts/PatientRegistry.sol\":2168:2306  function getPatientFiles(address _patient) external view returns (string[] memory) {... */\n    tag_9:\n      tag_42\n      0x04\n      dup1\n      calldatasize\n      sub\n      dup2\n      add\n      swap1\n      tag_43\n      swap2\n      swap1\n      tag_17\n      jump\t// in\n    tag_43:\n      tag_44\n      jump\t// in\n    tag_42:\n      mload(0x40)\n      tag_45\n      swap2\n      swap1\n      tag_46\n      jump\t// in\n    tag_45:\n      mload(0x40)\n      dup1\n      swap2\n      sub\n      swap1\n      return\n        /* \"contracts/PatientRegistry.sol\":132:160  uint256 public totalPatients */\n    tag_10:\n      tag_47\n      tag_48\n      jump\t// in\n    tag_47:\n      mload(0x40)\n      tag_49\n      swap2\n      swap1\n      tag_32\n      jump\t// in\n    tag_49:\n      mload(0x40)\n      dup1\n      swap2\n      sub\n      swap1\n      return\n        /* \"contracts/PatientRegistry.sol\":2860:2962  function getTotalPatientsCount() public view returns (uint256) {... */\n    tag_11:\n      tag_50\n      tag_51\n      jump\t// in\n    tag_50:\n      mload(0x40)\n      tag_52\n      swap2\n      swap1\n      tag_32\n      jump\t// in\n    tag_52:\n      mload(0x40)\n      dup1\n      swap2\n      sub\n      swap1\n      return\n        /* \"contracts/PatientRegistry.sol\":1807:2160  function addFileToPatient(address _patient, string memory _fileHash) public {... */\n    tag_12:\n      tag_53\n      0x04\n      dup1\n      calldatasize\n      sub\n      dup2\n      add\n      swap1\n      tag_54\n      swap2\n      swap1\n      tag_55\n      jump\t// in\n    tag_54:\n      tag_56\n      jump\t// in\n    tag_53:\n      stop\n        /* \"contracts/PatientRegistry.sol\":2314:2804  function getPatientDetails(address _patient)... */\n    tag_13:\n      tag_57\n      0x04\n      dup1\n      calldatasize\n      sub\n      dup2\n      add\n      swap1\n      tag_58\n      swap2\n      swap1\n      tag_17\n      jump\t// in\n    tag_58:\n      tag_59\n      jump\t// in\n    tag_57:\n      mload(0x40)\n      tag_60\n      swap7\n      swap6\n      swap5\n      swap4\n      swap3\n      swap2\n      swap1\n      tag_61\n      jump\t// in\n    tag_60:\n      mload(0x40)\n      dup1\n      swap2\n      sub\n      swap1\n      return\n        /* \"contracts/PatientRegistry.sol\":457:500  mapping(address => Patient) public patients */\n    tag_18:\n      mstore(0x20, 0x02)\n      dup1\n      0x00\n      mstore\n      keccak256(0x00, 0x40)\n      0x00\n      swap2\n      pop\n      swap1\n      pop\n      dup1\n      0x00\n      add\n      dup1\n      sload\n      tag_62\n      swap1\n      tag_63\n      jump\t// in\n    tag_62:\n      dup1\n      0x1f\n      add\n      0x20\n      dup1\n      swap2\n      div\n      mul\n      0x20\n      add\n      mload(0x40)\n      swap1\n      dup2\n      add\n      0x40\n      mstore\n      dup1\n      swap3\n      swap2\n      swap1\n      dup2\n      dup2\n      mstore\n      0x20\n      add\n      dup3\n      dup1\n      sload\n      tag_64\n      swap1\n      tag_63\n      jump\t// in\n    tag_64:\n      dup1\n      iszero\n      tag_65\n      jumpi\n      dup1\n      0x1f\n      lt\n      tag_66\n      jumpi\n      0x0100\n      dup1\n      dup4\n      sload\n      div\n      mul\n      dup4\n      mstore\n      swap2\n      0x20\n      add\n      swap2\n      jump(tag_65)\n    tag_66:\n      dup3\n      add\n      swap2\n      swap1\n      0x00\n      mstore\n      keccak256(0x00, 0x20)\n      swap1\n    tag_67:\n      dup2\n      sload\n      dup2\n      mstore\n      swap1\n      0x01\n      add\n      swap1\n      0x20\n      add\n      dup1\n      dup4\n      gt\n      tag_67\n      jumpi\n      dup3\n      swap1\n      sub\n      0x1f\n      and\n      dup3\n      add\n      swap2\n    tag_65:\n      pop\n      pop\n      pop\n      pop\n      pop\n      swap1\n      dup1\n      0x01\n      add\n      dup1\n      sload\n      tag_68\n      swap1\n      tag_63\n      jump\t// in\n    tag_68:\n      dup1\n      0x1f\n      add\n      0x20\n      dup1\n      swap2\n      div\n      mul\n      0x20\n      add\n      mload(0x40)\n      swap1\n      dup2\n      add\n      0x40\n      mstore\n      dup1\n      swap3\n      swap2\n      swap1\n      dup2\n      dup2\n      mstore\n      0x20\n      add\n      dup3\n      dup1\n      sload\n      tag_69\n      swap1\n      tag_63\n      jump\t// in\n    tag_69:\n      dup1\n      iszero\n      tag_70\n      jumpi\n      dup1\n      0x1f\n      lt\n      tag_71\n      jumpi\n      0x0100\n      dup1\n      dup4\n      sload\n      div\n      mul\n      dup4\n      mstore\n      swap2\n      0x20\n      add\n      swap2\n      jump(tag_70)\n    tag_71:\n      dup3\n      add\n      swap2\n      swap1\n      0x00\n      mstore\n      keccak256(0x00, 0x20)\n      swap1\n    tag_72:\n      dup2\n      sload\n      dup2\n      mstore\n      swap1\n      0x01\n      add\n      swap1\n      0x20\n      add\n      dup1\n      dup4\n      gt\n      tag_72\n      jumpi\n      dup3\n      swap1\n      sub\n      0x1f\n      and\n      dup3\n      add\n      swap2\n    tag_70:\n      pop\n      pop\n      pop\n      pop\n      pop\n      swap1\n      dup1\n      0x02\n      add\n      dup1\n      sload\n      tag_73\n      swap1\n      tag_63\n      jump\t// in\n    tag_73:\n      dup1\n      0x1f\n      add\n      0x20\n      dup1\n      swap2\n      div\n      mul\n      0x20\n      add\n      mload(0x40)\n      swap1\n      dup2\n      add\n      0x40\n      mstore\n      dup1\n      swap3\n      swap2\n      swap1\n      dup2\n      dup2\n      mstore\n      0x20\n      add\n      dup3\n      dup1\n      sload\n      tag_74\n      swap1\n      tag_63\n      jump\t// in\n    tag_74:\n      dup1\n      iszero\n      tag_75\n      jumpi\n      dup1\n      0x1f\n      lt\n      tag_76\n      jumpi\n      0x0100\n      dup1\n      dup4\n      sload\n      div\n      mul\n      dup4\n      mstore\n      swap2\n      0x20\n      add\n      swap2\n      jump(tag_75)\n    tag_76:\n      dup3\n      add\n      swap2\n      swap1\n      0x00\n      mstore\n      keccak256(0x00, 0x20)\n      swap1\n    tag_77:\n      dup2\n      sload\n      dup2\n      mstore\n      swap1\n      0x01\n      add\n      swap1\n      0x20\n      add\n      dup1\n      dup4\n      gt\n      tag_77\n      jumpi\n      dup3\n      swap1\n      sub\n      0x1f\n      and\n      dup3\n      add\n      swap2\n    tag_75:\n      pop\n      pop\n      pop\n      pop\n      pop\n      swap1\n      dup1\n      0x03\n      add\n      dup1\n      sload\n      tag_78\n      swap1\n      tag_63\n      jump\t// in\n    tag_78:\n      dup1\n      0x1f\n      add\n      0x20\n      dup1\n      swap2\n      div\n      mul\n      0x20\n      add\n      mload(0x40)\n      swap1\n      dup2\n      add\n      0x40\n      mstore\n      dup1\n      swap3\n      swap2\n      swap1\n      dup2\n      dup2\n      mstore\n      0x20\n      add\n      dup3\n      dup1\n      sload\n      tag_79\n      swap1\n      tag_63\n      jump\t// in\n    tag_79:\n      dup1\n      iszero\n      tag_80\n      jumpi\n      dup1\n      0x1f\n      lt\n      tag_81\n      jumpi\n      0x0100\n      dup1\n      dup4\n      sload\n      div\n      mul\n      dup4\n      mstore\n      swap2\n      0x20\n      add\n      swap2\n      jump(tag_80)\n    tag_81:\n      dup3\n      add\n      swap2\n      swap1\n      0x00\n      mstore\n      keccak256(0x00, 0x20)\n      swap1\n    tag_82:\n      dup2\n      sload\n      dup2\n      mstore\n      swap1\n      0x01\n      add\n      swap1\n      0x20\n      add\n      dup1\n      dup4\n      gt\n      tag_82\n      jumpi\n      dup3\n      swap1\n      sub\n      0x1f\n      and\n      dup3\n      add\n      swap2\n    tag_80:\n      pop\n      pop\n      pop\n      pop\n      pop\n      swap1\n      dup1\n      0x04\n      add\n      dup1\n      sload\n      tag_83\n      swap1\n      tag_63\n      jump\t// in\n    tag_83:\n      dup1\n      0x1f\n      add\n      0x20\n      dup1\n      swap2\n      div\n      mul\n      0x20\n      add\n      mload(0x40)\n      swap1\n      dup2\n      add\n      0x40\n      mstore\n      dup1\n      swap3\n      swap2\n      swap1\n      dup2\n      dup2\n      mstore\n      0x20\n      add\n      dup3\n      dup1\n      sload\n      tag_84\n      swap1\n      tag_63\n      jump\t// in\n    tag_84:\n      dup1\n      iszero\n      tag_85\n      jumpi\n      dup1\n      0x1f\n      lt\n      tag_86\n      jumpi\n      0x0100\n      dup1\n      dup4\n      sload\n      div\n      mul\n      dup4\n      mstore\n      swap2\n      0x20\n      add\n      swap2\n      jump(tag_85)\n    tag_86:\n      dup3\n      add\n      swap2\n      swap1\n      0x00\n      mstore\n      keccak256(0x00, 0x20)\n      swap1\n    tag_87:\n      dup2\n      sload\n      dup2\n      mstore\n      swap1\n      0x01\n      add\n      swap1\n      0x20\n      add\n      dup1\n      dup4\n      gt\n      tag_87\n      jumpi\n      dup3\n      swap1\n      sub\n      0x1f\n      and\n      dup3\n      add\n      swap2\n    tag_85:\n      pop\n      pop\n      pop\n      pop\n      pop\n      swap1\n      dup1\n      0x05\n      add\n      dup1\n      sload\n      tag_88\n      swap1\n      tag_63\n      jump\t// in\n    tag_88:\n      dup1\n      0x1f\n      add\n      0x20\n      dup1\n      swap2\n      div\n      mul\n      0x20\n      add\n      mload(0x40)\n      swap1\n      dup2\n      add\n      0x40\n      mstore\n      dup1\n      swap3\n      swap2\n      swap1\n      dup2\n      dup2\n      mstore\n      0x20\n      add\n      dup3\n      dup1\n      sload\n      tag_89\n      swap1\n      tag_63\n      jump\t// in\n    tag_89:\n      dup1\n      iszero\n      tag_90\n      jumpi\n      dup1\n      0x1f\n      lt\n      tag_91\n      jumpi\n      0x0100\n      dup1\n      dup4\n      sload\n      div\n      mul\n      dup4\n      mstore\n      swap2\n      0x20\n      add\n      swap2\n      jump(tag_90)\n    tag_91:\n      dup3\n      add\n      swap2\n      swap1\n      0x00\n      mstore\n      keccak256(0x00, 0x20)\n      swap1\n    tag_92:\n      dup2\n      sload\n      dup2\n      mstore\n      swap1\n      0x01\n      add\n      swap1\n      0x20\n      add\n      dup1\n      dup4\n      gt\n      tag_92\n      jumpi\n      dup3\n      swap1\n      sub\n      0x1f\n      and\n      dup3\n      add\n      swap2\n    tag_90:\n      pop\n      pop\n      pop\n      pop\n      pop\n      swap1\n      dup1\n      0x06\n      add\n      0x00\n      swap1\n      sload\n      swap1\n      0x0100\n      exp\n      swap1\n      div\n      0xff\n      and\n      swap1\n      pop\n      dup8\n      jump\t// out\n        /* \"contracts/PatientRegistry.sol\":3086:3213  function getAllRegisteredPatients() public view returns (address[] memory) {... */\n    tag_22:\n        /* \"contracts/PatientRegistry.sol\":3143:3159  address[] memory */\n      0x60\n        /* \"contracts/PatientRegistry.sol\":3179:3205  registeredPatientAddresses */\n      0x03\n        /* \"contracts/PatientRegistry.sol\":3172:3205  return registeredPatientAddresses */\n      dup1\n      sload\n      dup1\n      0x20\n      mul\n      0x20\n      add\n      mload(0x40)\n      swap1\n      dup2\n      add\n      0x40\n      mstore\n      dup1\n      swap3\n      swap2\n      swap1\n      dup2\n      dup2\n      mstore\n      0x20\n      add\n      dup3\n      dup1\n      sload\n      dup1\n      iszero\n      tag_94\n      jumpi\n      0x20\n      mul\n      dup3\n      add\n      swap2\n      swap1\n      0x00\n      mstore\n      keccak256(0x00, 0x20)\n      swap1\n    tag_95:\n      dup2\n      0x00\n      swap1\n      sload\n      swap1\n      0x0100\n      exp\n      swap1\n      div\n      0xffffffffffffffffffffffffffffffffffffffff\n      and\n      0xffffffffffffffffffffffffffffffffffffffff\n      and\n      dup2\n      mstore\n      0x20\n      add\n      swap1\n      0x01\n      add\n      swap1\n      dup1\n      dup4\n      gt\n      tag_95\n      jumpi\n    tag_94:\n      pop\n      pop\n      pop\n      pop\n      pop\n      swap1\n      pop\n        /* \"contracts/PatientRegistry.sol\":3086:3213  function getAllRegisteredPatients() public view returns (address[] memory) {... */\n      swap1\n      jump\t// out\n        /* \"contracts/PatientRegistry.sol\":906:1799  function registerPatient(... */\n    tag_28:\n        /* \"contracts/PatientRegistry.sol\":1176:1184  patients */\n      0x02\n        /* \"contracts/PatientRegistry.sol\":1176:1196  patients[msg.sender] */\n      0x00\n        /* \"contracts/PatientRegistry.sol\":1185:1195  msg.sender */\n      caller\n        /* \"contracts/PatientRegistry.sol\":1176:1196  patients[msg.sender] */\n      0xffffffffffffffffffffffffffffffffffffffff\n      and\n      0xffffffffffffffffffffffffffffffffffffffff\n      and\n      dup2\n      mstore\n      0x20\n      add\n      swap1\n      dup2\n      mstore\n      0x20\n      add\n      0x00\n      keccak256\n        /* \"contracts/PatientRegistry.sol\":1176:1209  patients[msg.sender].isRegistered */\n      0x06\n      add\n      0x00\n      swap1\n      sload\n      swap1\n      0x0100\n      exp\n      swap1\n      div\n      0xff\n      and\n        /* \"contracts/PatientRegistry.sol\":1175:1209  !patients[msg.sender].isRegistered */\n      iszero\n        /* \"contracts/PatientRegistry.sol\":1167:1232  require(!patients[msg.sender].isRegistered, \"Already registered\") */\n      tag_97\n      jumpi\n      mload(0x40)\n      0x08c379a000000000000000000000000000000000000000000000000000000000\n      dup2\n      mstore\n      0x04\n      add\n      tag_98\n      swap1\n      tag_99\n      jump\t// in\n    tag_98:\n      mload(0x40)\n      dup1\n      swap2\n      sub\n      swap1\n      revert\n    tag_97:\n        /* \"contracts/PatientRegistry.sol\":1245:1262  Patient storage p */\n      0x00\n        /* \"contracts/PatientRegistry.sol\":1265:1273  patients */\n      0x02\n        /* \"contracts/PatientRegistry.sol\":1265:1285  patients[msg.sender] */\n      0x00\n        /* \"contracts/PatientRegistry.sol\":1274:1284  msg.sender */\n      caller\n        /* \"contracts/PatientRegistry.sol\":1265:1285  patients[msg.sender] */\n      0xffffffffffffffffffffffffffffffffffffffff\n      and\n      0xffffffffffffffffffffffffffffffffffffffff\n      and\n      dup2\n      mstore\n      0x20\n      add\n      swap1\n      dup2\n      mstore\n      0x20\n      add\n      0x00\n      keccak256\n        /* \"contracts/PatientRegistry.sol\":1245:1285  Patient storage p = patients[msg.sender] */\n      swap1\n      pop\n        /* \"contracts/PatientRegistry.sol\":1305:1310  _name */\n      dup7\n        /* \"contracts/PatientRegistry.sol\":1296:1297  p */\n      dup2\n        /* \"contracts/PatientRegistry.sol\":1296:1302  p.name */\n      0x00\n      add\n        /* \"contracts/PatientRegistry.sol\":1296:1310  p.name = _name */\n      swap1\n      dup2\n      tag_100\n      swap2\n      swap1\n      tag_101\n      jump\t// in\n    tag_100:\n      pop\n        /* \"contracts/PatientRegistry.sol\":1332:1339  _gender */\n      dup6\n        /* \"contracts/PatientRegistry.sol\":1321:1322  p */\n      dup2\n        /* \"contracts/PatientRegistry.sol\":1321:1329  p.gender */\n      0x01\n      add\n        /* \"contracts/PatientRegistry.sol\":1321:1339  p.gender = _gender */\n      swap1\n      dup2\n      tag_102\n      swap2\n      swap1\n      tag_101\n      jump\t// in\n    tag_102:\n      pop\n        /* \"contracts/PatientRegistry.sol\":1366:1378  _dateOfBirth */\n      dup5\n        /* \"contracts/PatientRegistry.sol\":1350:1351  p */\n      dup2\n        /* \"contracts/PatientRegistry.sol\":1350:1363  p.dateOfBirth */\n      0x02\n      add\n        /* \"contracts/PatientRegistry.sol\":1350:1378  p.dateOfBirth = _dateOfBirth */\n      swap1\n      dup2\n      tag_103\n      swap2\n      swap1\n      tag_101\n      jump\t// in\n    tag_103:\n      pop\n        /* \"contracts/PatientRegistry.sol\":1404:1415  _bloodGroup */\n      dup4\n        /* \"contracts/PatientRegistry.sol\":1389:1390  p */\n      dup2\n        /* \"contracts/PatientRegistry.sol\":1389:1401  p.bloodGroup */\n      0x03\n      add\n        /* \"contracts/PatientRegistry.sol\":1389:1415  p.bloodGroup = _bloodGroup */\n      swap1\n      dup2\n      tag_104\n      swap2\n      swap1\n      tag_101\n      jump\t// in\n    tag_104:\n      pop\n        /* \"contracts/PatientRegistry.sol\":1442:1454  _contactInfo */\n      dup3\n        /* \"contracts/PatientRegistry.sol\":1426:1427  p */\n      dup2\n        /* \"contracts/PatientRegistry.sol\":1426:1439  p.contactInfo */\n      0x04\n      add\n        /* \"contracts/PatientRegistry.sol\":1426:1454  p.contactInfo = _contactInfo */\n      swap1\n      dup2\n      tag_105\n      swap2\n      swap1\n      tag_101\n      jump\t// in\n    tag_105:\n      pop\n        /* \"contracts/PatientRegistry.sol\":1481:1493  _homeAddress */\n      dup2\n        /* \"contracts/PatientRegistry.sol\":1465:1466  p */\n      dup2\n        /* \"contracts/PatientRegistry.sol\":1465:1478  p.homeAddress */\n      0x05\n      add\n        /* \"contracts/PatientRegistry.sol\":1465:1493  p.homeAddress = _homeAddress */\n      swap1\n      dup2\n      tag_106\n      swap2\n      swap1\n      tag_101\n      jump\t// in\n    tag_106:\n      pop\n        /* \"contracts/PatientRegistry.sol\":1521:1525  true */\n      0x01\n        /* \"contracts/PatientRegistry.sol\":1504:1505  p */\n      dup2\n        /* \"contracts/PatientRegistry.sol\":1504:1518  p.isRegistered */\n      0x06\n      add\n      0x00\n        /* \"contracts/PatientRegistry.sol\":1504:1525  p.isRegistered = true */\n      0x0100\n      exp\n      dup2\n      sload\n      dup2\n      0xff\n      mul\n      not\n      and\n      swap1\n      dup4\n      iszero\n      iszero\n      mul\n      or\n      swap1\n      sstore\n      pop\n        /* \"contracts/PatientRegistry.sol\":1603:1616  totalPatients */\n      0x00\n      0x00\n        /* \"contracts/PatientRegistry.sol\":1603:1618  totalPatients++ */\n      dup2\n      sload\n      dup1\n      swap3\n      swap2\n      swap1\n      tag_107\n      swap1\n      tag_108\n      jump\t// in\n    tag_107:\n      swap2\n      swap1\n      pop\n      sstore\n      pop\n        /* \"contracts/PatientRegistry.sol\":1662:1688  registeredPatientAddresses */\n      0x03\n        /* \"contracts/PatientRegistry.sol\":1694:1704  msg.sender */\n      caller\n        /* \"contracts/PatientRegistry.sol\":1662:1705  registeredPatientAddresses.push(msg.sender) */\n      swap1\n      dup1\n      0x01\n      dup2\n      sload\n      add\n      dup1\n      dup3\n      sstore\n      dup1\n      swap2\n      pop\n      pop\n      0x01\n      swap1\n      sub\n      swap1\n      0x00\n      mstore\n      keccak256(0x00, 0x20)\n      add\n      0x00\n      swap1\n      swap2\n      swap1\n      swap2\n      swap1\n      swap2\n      0x0100\n      exp\n      dup2\n      sload\n      dup2\n      0xffffffffffffffffffffffffffffffffffffffff\n      mul\n      not\n      and\n      swap1\n      dup4\n      0xffffffffffffffffffffffffffffffffffffffff\n      and\n      mul\n      or\n      swap1\n      sstore\n      pop\n        /* \"contracts/PatientRegistry.sol\":1773:1783  msg.sender */\n      caller\n        /* \"contracts/PatientRegistry.sol\":1755:1791  PatientRegistered(msg.sender, _name) */\n      0xffffffffffffffffffffffffffffffffffffffff\n      and\n      0xc85b128388b9c331a2a5485dce4cd0f3db9f7c279d327ce95d6d39d6c94644c7\n        /* \"contracts/PatientRegistry.sol\":1785:1790  _name */\n      dup9\n        /* \"contracts/PatientRegistry.sol\":1755:1791  PatientRegistered(msg.sender, _name) */\n      mload(0x40)\n      tag_110\n      swap2\n      swap1\n      tag_111\n      jump\t// in\n    tag_110:\n      mload(0x40)\n      dup1\n      swap2\n      sub\n      swap1\n      log2\n        /* \"contracts/PatientRegistry.sol\":1156:1799  {... */\n      pop\n        /* \"contracts/PatientRegistry.sol\":906:1799  function registerPatient(... */\n      pop\n      pop\n      pop\n      pop\n      pop\n      pop\n      jump\t// out\n        /* \"contracts/PatientRegistry.sol\":167:198  uint256 public totalFileRecords */\n    tag_30:\n      sload(0x01)\n      dup2\n      jump\t// out\n        /* \"contracts/PatientRegistry.sol\":2970:3074  function getTotalRecordsCount() public view returns (uint256) {... */\n    tag_34:\n        /* \"contracts/PatientRegistry.sol\":3023:3030  uint256 */\n      0x00\n        /* \"contracts/PatientRegistry.sol\":3050:3066  totalFileRecords */\n      sload(0x01)\n        /* \"contracts/PatientRegistry.sol\":3043:3066  return totalFileRecords */\n      swap1\n      pop\n        /* \"contracts/PatientRegistry.sol\":2970:3074  function getTotalRecordsCount() public view returns (uint256) {... */\n      swap1\n      jump\t// out\n        /* \"contracts/PatientRegistry.sol\":583:626  address[] public registeredPatientAddresses */\n    tag_39:\n      0x03\n      dup2\n      dup2\n      sload\n      dup2\n      lt\n      tag_113\n      jumpi\n      0x00\n      dup1\n      revert\n    tag_113:\n      swap1\n      0x00\n      mstore\n      keccak256(0x00, 0x20)\n      add\n      0x00\n      swap2\n      pop\n      sload\n      swap1\n      0x0100\n      exp\n      swap1\n      div\n      0xffffffffffffffffffffffffffffffffffffffff\n      and\n      dup2\n      jump\t// out\n        /* \"contracts/PatientRegistry.sol\":2168:2306  function getPatientFiles(address _patient) external view returns (string[] memory) {... */\n    tag_44:\n        /* \"contracts/PatientRegistry.sol\":2234:2249  string[] memory */\n      0x60\n        /* \"contracts/PatientRegistry.sol\":2269:2277  patients */\n      0x02\n        /* \"contracts/PatientRegistry.sol\":2269:2287  patients[_patient] */\n      0x00\n        /* \"contracts/PatientRegistry.sol\":2278:2286  _patient */\n      dup4\n        /* \"contracts/PatientRegistry.sol\":2269:2287  patients[_patient] */\n      0xffffffffffffffffffffffffffffffffffffffff\n      and\n      0xffffffffffffffffffffffffffffffffffffffff\n      and\n      dup2\n      mstore\n      0x20\n      add\n      swap1\n      dup2\n      mstore\n      0x20\n      add\n      0x00\n      keccak256\n        /* \"contracts/PatientRegistry.sol\":2269:2298  patients[_patient].fileHashes */\n      0x07\n      add\n        /* \"contracts/PatientRegistry.sol\":2262:2298  return patients[_patient].fileHashes */\n      dup1\n      sload\n      dup1\n      0x20\n      mul\n      0x20\n      add\n      mload(0x40)\n      swap1\n      dup2\n      add\n      0x40\n      mstore\n      dup1\n      swap3\n      swap2\n      swap1\n      dup2\n      dup2\n      mstore\n      0x20\n      add\n      0x00\n      swap1\n    tag_116:\n      dup3\n      dup3\n      lt\n      iszero\n      tag_117\n      jumpi\n      dup4\n      dup3\n      swap1\n      0x00\n      mstore\n      keccak256(0x00, 0x20)\n      add\n      dup1\n      sload\n      tag_119\n      swap1\n      tag_63\n      jump\t// in\n    tag_119:\n      dup1\n      0x1f\n      add\n      0x20\n      dup1\n      swap2\n      div\n      mul\n      0x20\n      add\n      mload(0x40)\n      swap1\n      dup2\n      add\n      0x40\n      mstore\n      dup1\n      swap3\n      swap2\n      swap1\n      dup2\n      dup2\n      mstore\n      0x20\n      add\n      dup3\n      dup1\n      sload\n      tag_120\n      swap1\n      tag_63\n      jump\t// in\n    tag_120:\n      dup1\n      iszero\n      tag_121\n      jumpi\n      dup1\n      0x1f\n      lt\n      tag_122\n      jumpi\n      0x0100\n      dup1\n      dup4\n      sload\n      div\n      mul\n      dup4\n      mstore\n      swap2\n      0x20\n      add\n      swap2\n      jump(tag_121)\n    tag_122:\n      dup3\n      add\n      swap2\n      swap1\n      0x00\n      mstore\n      keccak256(0x00, 0x20)\n      swap1\n    tag_123:\n      dup2\n      sload\n      dup2\n      mstore\n      swap1\n      0x01\n      add\n      swap1\n      0x20\n      add\n      dup1\n      dup4\n      gt\n      tag_123\n      jumpi\n      dup3\n      swap1\n      sub\n      0x1f\n      and\n      dup3\n      add\n      swap2\n    tag_121:\n      pop\n      pop\n      pop\n      pop\n      pop\n      dup2\n      mstore\n      0x20\n      add\n      swap1\n      0x01\n      add\n      swap1\n      jump(tag_116)\n    tag_117:\n      pop\n      pop\n      pop\n      pop\n      swap1\n      pop\n        /* \"contracts/PatientRegistry.sol\":2168:2306  function getPatientFiles(address _patient) external view returns (string[] memory) {... */\n      swap2\n      swap1\n      pop\n      jump\t// out\n        /* \"contracts/PatientRegistry.sol\":132:160  uint256 public totalPatients */\n    tag_48:\n      sload(0x00)\n      dup2\n      jump\t// out\n        /* \"contracts/PatientRegistry.sol\":2860:2962  function getTotalPatientsCount() public view returns (uint256) {... */\n    tag_51:\n        /* \"contracts/PatientRegistry.sol\":2914:2921  uint256 */\n      0x00\n        /* \"contracts/PatientRegistry.sol\":2941:2954  totalPatients */\n      sload(0x00)\n        /* \"contracts/PatientRegistry.sol\":2934:2954  return totalPatients */\n      swap1\n      pop\n        /* \"contracts/PatientRegistry.sol\":2860:2962  function getTotalPatientsCount() public view returns (uint256) {... */\n      swap1\n      jump\t// out\n        /* \"contracts/PatientRegistry.sol\":1807:2160  function addFileToPatient(address _patient, string memory _fileHash) public {... */\n    tag_56:\n        /* \"contracts/PatientRegistry.sol\":1902:1910  patients */\n      0x02\n        /* \"contracts/PatientRegistry.sol\":1902:1920  patients[_patient] */\n      0x00\n        /* \"contracts/PatientRegistry.sol\":1911:1919  _patient */\n      dup4\n        /* \"contracts/PatientRegistry.sol\":1902:1920  patients[_patient] */\n      0xffffffffffffffffffffffffffffffffffffffff\n      and\n      0xffffffffffffffffffffffffffffffffffffffff\n      and\n      dup2\n      mstore\n      0x20\n      add\n      swap1\n      dup2\n      mstore\n      0x20\n      add\n      0x00\n      keccak256\n        /* \"contracts/PatientRegistry.sol\":1902:1933  patients[_patient].isRegistered */\n      0x06\n      add\n      0x00\n      swap1\n      sload\n      swap1\n      0x0100\n      exp\n      swap1\n      div\n      0xff\n      and\n        /* \"contracts/PatientRegistry.sol\":1894:1952  require(patients[_patient].isRegistered, \"Not registered\") */\n      tag_126\n      jumpi\n      mload(0x40)\n      0x08c379a000000000000000000000000000000000000000000000000000000000\n      dup2\n      mstore\n      0x04\n      add\n      tag_127\n      swap1\n      tag_128\n      jump\t// in\n    tag_127:\n      mload(0x40)\n      dup1\n      swap2\n      sub\n      swap1\n      revert\n    tag_126:\n        /* \"contracts/PatientRegistry.sol\":1963:1971  patients */\n      0x02\n        /* \"contracts/PatientRegistry.sol\":1963:1981  patients[_patient] */\n      0x00\n        /* \"contracts/PatientRegistry.sol\":1972:1980  _patient */\n      dup4\n        /* \"contracts/PatientRegistry.sol\":1963:1981  patients[_patient] */\n      0xffffffffffffffffffffffffffffffffffffffff\n      and\n      0xffffffffffffffffffffffffffffffffffffffff\n      and\n      dup2\n      mstore\n      0x20\n      add\n      swap1\n      dup2\n      mstore\n      0x20\n      add\n      0x00\n      keccak256\n        /* \"contracts/PatientRegistry.sol\":1963:1992  patients[_patient].fileHashes */\n      0x07\n      add\n        /* \"contracts/PatientRegistry.sol\":1998:2007  _fileHash */\n      dup2\n        /* \"contracts/PatientRegistry.sol\":1963:2008  patients[_patient].fileHashes.push(_fileHash) */\n      swap1\n      dup1\n      0x01\n      dup2\n      sload\n      add\n      dup1\n      dup3\n      sstore\n      dup1\n      swap2\n      pop\n      pop\n      0x01\n      swap1\n      sub\n      swap1\n      0x00\n      mstore\n      keccak256(0x00, 0x20)\n      add\n      0x00\n      swap1\n      swap2\n      swap1\n      swap2\n      swap1\n      swap2\n      pop\n      swap1\n      dup2\n      tag_130\n      swap2\n      swap1\n      tag_101\n      jump\t// in\n    tag_130:\n      pop\n        /* \"contracts/PatientRegistry.sol\":2085:2101  totalFileRecords */\n      0x01\n      0x00\n        /* \"contracts/PatientRegistry.sol\":2085:2103  totalFileRecords++ */\n      dup2\n      sload\n      dup1\n      swap3\n      swap2\n      swap1\n      tag_131\n      swap1\n      tag_108\n      jump\t// in\n    tag_131:\n      swap2\n      swap1\n      pop\n      sstore\n      pop\n        /* \"contracts/PatientRegistry.sol\":2132:2140  _patient */\n      dup2\n        /* \"contracts/PatientRegistry.sol\":2122:2152  FileAdded(_patient, _fileHash) */\n      0xffffffffffffffffffffffffffffffffffffffff\n      and\n      0x771ad20575501c8cafc4a8793006515911d6e497fd5838018654c9b50347430c\n        /* \"contracts/PatientRegistry.sol\":2142:2151  _fileHash */\n      dup3\n        /* \"contracts/PatientRegistry.sol\":2122:2152  FileAdded(_patient, _fileHash) */\n      mload(0x40)\n      tag_132\n      swap2\n      swap1\n      tag_111\n      jump\t// in\n    tag_132:\n      mload(0x40)\n      dup1\n      swap2\n      sub\n      swap1\n      log2\n        /* \"contracts/PatientRegistry.sol\":1807:2160  function addFileToPatient(address _patient, string memory _fileHash) public {... */\n      pop\n      pop\n      jump\t// out\n        /* \"contracts/PatientRegistry.sol\":2314:2804  function getPatientDetails(address _patient)... */\n    tag_59:\n        /* \"contracts/PatientRegistry.sol\":2423:2441  string memory name */\n      0x60\n        /* \"contracts/PatientRegistry.sol\":2456:2476  string memory gender */\n      dup1\n        /* \"contracts/PatientRegistry.sol\":2491:2516  string memory dateOfBirth */\n      0x60\n        /* \"contracts/PatientRegistry.sol\":2531:2555  string memory bloodGroup */\n      dup1\n        /* \"contracts/PatientRegistry.sol\":2570:2595  string memory contactInfo */\n      0x60\n        /* \"contracts/PatientRegistry.sol\":2610:2635  string memory homeAddress */\n      dup1\n        /* \"contracts/PatientRegistry.sol\":2663:2680  Patient storage p */\n      0x00\n        /* \"contracts/PatientRegistry.sol\":2683:2691  patients */\n      0x02\n        /* \"contracts/PatientRegistry.sol\":2683:2701  patients[_patient] */\n      0x00\n        /* \"contracts/PatientRegistry.sol\":2692:2700  _patient */\n      dup10\n        /* \"contracts/PatientRegistry.sol\":2683:2701  patients[_patient] */\n      0xffffffffffffffffffffffffffffffffffffffff\n      and\n      0xffffffffffffffffffffffffffffffffffffffff\n      and\n      dup2\n      mstore\n      0x20\n      add\n      swap1\n      dup2\n      mstore\n      0x20\n      add\n      0x00\n      keccak256\n        /* \"contracts/PatientRegistry.sol\":2663:2701  Patient storage p = patients[_patient] */\n      swap1\n      pop\n        /* \"contracts/PatientRegistry.sol\":2720:2721  p */\n      dup1\n        /* \"contracts/PatientRegistry.sol\":2720:2726  p.name */\n      0x00\n      add\n        /* \"contracts/PatientRegistry.sol\":2728:2729  p */\n      dup2\n        /* \"contracts/PatientRegistry.sol\":2728:2736  p.gender */\n      0x01\n      add\n        /* \"contracts/PatientRegistry.sol\":2738:2739  p */\n      dup3\n        /* \"contracts/PatientRegistry.sol\":2738:2751  p.dateOfBirth */\n      0x02\n      add\n        /* \"contracts/PatientRegistry.sol\":2753:2754  p */\n      dup4\n        /* \"contracts/PatientRegistry.sol\":2753:2765  p.bloodGroup */\n      0x03\n      add\n        /* \"contracts/PatientRegistry.sol\":2767:2768  p */\n      dup5\n        /* \"contracts/PatientRegistry.sol\":2767:2780  p.contactInfo */\n      0x04\n      add\n        /* \"contracts/PatientRegistry.sol\":2782:2783  p */\n      dup6\n        /* \"contracts/PatientRegistry.sol\":2782:2795  p.homeAddress */\n      0x05\n      add\n        /* \"contracts/PatientRegistry.sol\":2712:2796  return (p.name, p.gender, p.dateOfBirth, p.bloodGroup, p.contactInfo, p.homeAddress) */\n      dup6\n      dup1\n      sload\n      tag_134\n      swap1\n      tag_63\n      jump\t// in\n    tag_134:\n      dup1\n      0x1f\n      add\n      0x20\n      dup1\n      swap2\n      div\n      mul\n      0x20\n      add\n      mload(0x40)\n      swap1\n      dup2\n      add\n      0x40\n      mstore\n      dup1\n      swap3\n      swap2\n      swap1\n      dup2\n      dup2\n      mstore\n      0x20\n      add\n      dup3\n      dup1\n      sload\n      tag_135\n      swap1\n      tag_63\n      jump\t// in\n    tag_135:\n      dup1\n      iszero\n      tag_136\n      jumpi\n      dup1\n      0x1f\n      lt\n      tag_137\n      jumpi\n      0x0100\n      dup1\n      dup4\n      sload\n      div\n      mul\n      dup4\n      mstore\n      swap2\n      0x20\n      add\n      swap2\n      jump(tag_136)\n    tag_137:\n      dup3\n      add\n      swap2\n      swap1\n      0x00\n      mstore\n      keccak256(0x00, 0x20)\n      swap1\n    tag_138:\n      dup2\n      sload\n      dup2\n      mstore\n      swap1\n      0x01\n      add\n      swap1\n      0x20\n      add\n      dup1\n      dup4\n      gt\n      tag_138\n      jumpi\n      dup3\n      swap1\n      sub\n      0x1f\n      and\n      dup3\n      add\n      swap2\n    tag_136:\n      pop\n      pop\n      pop\n      pop\n      pop\n      swap6\n      pop\n      dup5\n      dup1\n      sload\n      tag_139\n      swap1\n      tag_63\n      jump\t// in\n    tag_139:\n      dup1\n      0x1f\n      add\n      0x20\n      dup1\n      swap2\n      div\n      mul\n      0x20\n      add\n      mload(0x40)\n      swap1\n      dup2\n      add\n      0x40\n      mstore\n      dup1\n      swap3\n      swap2\n      swap1\n      dup2\n      dup2\n      mstore\n      0x20\n      add\n      dup3\n      dup1\n      sload\n      tag_140\n      swap1\n      tag_63\n      jump\t// in\n    tag_140:\n      dup1\n      iszero\n      tag_141\n      jumpi\n      dup1\n      0x1f\n      lt\n      tag_142\n      jumpi\n      0x0100\n      dup1\n      dup4\n      sload\n      div\n      mul\n      dup4\n      mstore\n      swap2\n      0x20\n      add\n      swap2\n      jump(tag_141)\n    tag_142:\n      dup3\n      add\n      swap2\n      swap1\n      0x00\n      mstore\n      keccak256(0x00, 0x20)\n      swap1\n    tag_143:\n      dup2\n      sload\n      dup2\n      mstore\n      swap1\n      0x01\n      add\n      swap1\n      0x20\n      add\n      dup1\n      dup4\n      gt\n      tag_143\n      jumpi\n      dup3\n      swap1\n      sub\n      0x1f\n      and\n      dup3\n      add\n      swap2\n    tag_141:\n      pop\n      pop\n      pop\n      pop\n      pop\n      swap5\n      pop\n      dup4\n      dup1\n      sload\n      tag_144\n      swap1\n      tag_63\n      jump\t// in\n    tag_144:\n      dup1\n      0x1f\n      add\n      0x20\n      dup1\n      swap2\n      div\n      mul\n      0x20\n      add\n      mload(0x40)\n      swap1\n      dup2\n      add\n      0x40\n      mstore\n      dup1\n      swap3\n      swap2\n      swap1\n      dup2\n      dup2\n      mstore\n      0x20\n      add\n      dup3\n      dup1\n      sload\n      tag_145\n      swap1\n      tag_63\n      jump\t// in\n    tag_145:\n      dup1\n      iszero\n      tag_146\n      jumpi\n      dup1\n      0x1f\n      lt\n      tag_147\n      jumpi\n      0x0100\n      dup1\n      dup4\n      sload\n      div\n      mul\n      dup4\n      mstore\n      swap2\n      0x20\n      add\n      swap2\n      jump(tag_146)\n    tag_147:\n      dup3\n      add\n      swap2\n      swap1\n      0x00\n      mstore\n      keccak256(0x00, 0x20)\n      swap1\n    tag_148:\n      dup2\n      sload\n      dup2\n      mstore\n      swap1\n      0x01\n      add\n      swap1\n      0x20\n      add\n      dup1\n      dup4\n      gt\n      tag_148\n      jumpi\n      dup3\n      swap1\n      sub\n      0x1f\n      and\n      dup3\n      add\n      swap2\n    tag_146:\n      pop\n      pop\n      pop\n      pop\n      pop\n      swap4\n      pop\n      dup3\n      dup1\n      sload\n      tag_149\n      swap1\n      tag_63\n      jump\t// in\n    tag_149:\n      dup1\n      0x1f\n      add\n      0x20\n      dup1\n      swap2\n      div\n      mul\n      0x20\n      add\n      mload(0x40)\n      swap1\n      dup2\n      add\n      0x40\n      mstore\n      dup1\n      swap3\n      swap2\n      swap1\n      dup2\n      dup2\n      mstore\n      0x20\n      add\n      dup3\n      dup1\n      sload\n      tag_150\n      swap1\n      tag_63\n      jump\t// in\n    tag_150:\n      dup1\n      iszero\n      tag_151\n      jumpi\n      dup1\n      0x1f\n      lt\n      tag_152\n      jumpi\n      0x0100\n      dup1\n      dup4\n      sload\n      div\n      mul\n      dup4\n      mstore\n      swap2\n      0x20\n      add\n      swap2\n      jump(tag_151)\n    tag_152:\n      dup3\n      add\n      swap2\n      swap1\n      0x00\n      mstore\n      keccak256(0x00, 0x20)\n      swap1\n    tag_153:\n      dup2\n      sload\n      dup2\n      mstore\n      swap1\n      0x01\n      add\n      swap1\n      0x20\n      add\n      dup1\n      dup4\n      gt\n      tag_153\n      jumpi\n      dup3\n      swap1\n      sub\n      0x1f\n      and\n      dup3\n      add\n      swap2\n    tag_151:\n      pop\n      pop\n      pop\n      pop\n      pop\n      swap3\n      pop\n      dup2\n      dup1\n      sload\n      tag_154\n      swap1\n      tag_63\n      jump\t// in\n    tag_154:\n      dup1\n      0x1f\n      add\n      0x20\n      dup1\n      swap2\n      div\n      mul\n      0x20\n      add\n      mload(0x40)\n      swap1\n      dup2\n      add\n      0x40\n      mstore\n      dup1\n      swap3\n      swap2\n      swap1\n      dup2\n      dup2\n      mstore\n      0x20\n      add\n      dup3\n      dup1\n      sload\n      tag_155\n      swap1\n      tag_63\n      jump\t// in\n    tag_155:\n      dup1\n      iszero\n      tag_156\n      jumpi\n      dup1\n      0x1f\n      lt\n      tag_157\n      jumpi\n      0x0100\n      dup1\n      dup4\n      sload\n      div\n      mul\n      dup4\n      mstore\n      swap2\n      0x20\n      add\n      swap2\n      jump(tag_156)\n    tag_157:\n      dup3\n      add\n      swap2\n      swap1\n      0x00\n      mstore\n      keccak256(0x00, 0x20)\n      swap1\n    tag_158:\n      dup2\n      sload\n      dup2\n      mstore\n      swap1\n      0x01\n      add\n      swap1\n      0x20\n      add\n      dup1\n      dup4\n      gt\n      tag_158\n      jumpi\n      dup3\n      swap1\n      sub\n      0x1f\n      and\n      dup3\n      add\n      swap2\n    tag_156:\n      pop\n      pop\n      pop\n      pop\n      pop\n      swap2\n      pop\n      dup1\n      dup1\n      sload\n      tag_159\n      swap1\n      tag_63\n      jump\t// in\n    tag_159:\n      dup1\n      0x1f\n      add\n      0x20\n      dup1\n      swap2\n      div\n      mul\n      0x20\n      add\n      mload(0x40)\n      swap1\n      dup2\n      add\n      0x40\n      mstore\n      dup1\n      swap3\n      swap2\n      swap1\n      dup2\n      dup2\n      mstore\n      0x20\n      add\n      dup3\n      dup1\n      sload\n      tag_160\n      swap1\n      tag_63\n      jump\t// in\n    tag_160:\n      dup1\n      iszero\n      tag_161\n      jumpi\n      dup1\n      0x1f\n      lt\n      tag_162\n      jumpi\n      0x0100\n      dup1\n      dup4\n      sload\n      div\n      mul\n      dup4\n      mstore\n      swap2\n      0x20\n      add\n      swap2\n      jump(tag_161)\n    tag_162:\n      dup3\n      add\n      swap2\n      swap1\n      0x00\n      mstore\n      keccak256(0x00, 0x20)\n      swap1\n    tag_163:\n      dup2\n      sload\n      dup2\n      mstore\n      swap1\n      0x01\n      add\n      swap1\n      0x20\n      add\n      dup1\n      dup4\n      gt\n      tag_163\n      jumpi\n      dup3\n      swap1\n      sub\n      0x1f\n      and\n      dup3\n      add\n      swap2\n    tag_161:\n      pop\n      pop\n      pop\n      pop\n      pop\n      swap1\n      pop\n      swap7\n      pop\n      swap7\n      pop\n      swap7\n      pop\n      swap7\n      pop\n      swap7\n      pop\n      swap7\n      pop\n      pop\n        /* \"contracts/PatientRegistry.sol\":2314:2804  function getPatientDetails(address _patient)... */\n      swap2\n      swap4\n      swap6\n      pop\n      swap2\n      swap4\n      swap6\n      jump\t// out\n        /* \"#utility.yul\":7:82   */\n    tag_164:\n        /* \"#utility.yul\":40:46   */\n      0x00\n        /* \"#utility.yul\":73:75   */\n      0x40\n        /* \"#utility.yul\":67:76   */\n      mload\n        /* \"#utility.yul\":57:76   */\n      swap1\n      pop\n        /* \"#utility.yul\":7:82   */\n      swap1\n      jump\t// out\n        /* \"#utility.yul\":88:205   */\n    tag_165:\n        /* \"#utility.yul\":197:198   */\n      0x00\n        /* \"#utility.yul\":194:195   */\n      0x00\n        /* \"#utility.yul\":187:199   */\n      revert\n        /* \"#utility.yul\":211:328   */\n    tag_166:\n        /* \"#utility.yul\":320:321   */\n      0x00\n        /* \"#utility.yul\":317:318   */\n      0x00\n        /* \"#utility.yul\":310:322   */\n      revert\n        /* \"#utility.yul\":334:460   */\n    tag_167:\n        /* \"#utility.yul\":371:378   */\n      0x00\n        /* \"#utility.yul\":411:453   */\n      0xffffffffffffffffffffffffffffffffffffffff\n        /* \"#utility.yul\":404:409   */\n      dup3\n        /* \"#utility.yul\":400:454   */\n      and\n        /* \"#utility.yul\":389:454   */\n      swap1\n      pop\n        /* \"#utility.yul\":334:460   */\n      swap2\n      swap1\n      pop\n      jump\t// out\n        /* \"#utility.yul\":466:562   */\n    tag_168:\n        /* \"#utility.yul\":503:510   */\n      0x00\n        /* \"#utility.yul\":532:556   */\n      tag_234\n        /* \"#utility.yul\":550:555   */\n      dup3\n        /* \"#utility.yul\":532:556   */\n      tag_167\n      jump\t// in\n    tag_234:\n        /* \"#utility.yul\":521:556   */\n      swap1\n      pop\n        /* \"#utility.yul\":466:562   */\n      swap2\n      swap1\n      pop\n      jump\t// out\n        /* \"#utility.yul\":568:690   */\n    tag_169:\n        /* \"#utility.yul\":641:665   */\n      tag_236\n        /* \"#utility.yul\":659:664   */\n      dup2\n        /* \"#utility.yul\":641:665   */\n      tag_168\n      jump\t// in\n    tag_236:\n        /* \"#utility.yul\":634:639   */\n      dup2\n        /* \"#utility.yul\":631:666   */\n      eq\n        /* \"#utility.yul\":621:684   */\n      tag_237\n      jumpi\n        /* \"#utility.yul\":680:681   */\n      0x00\n        /* \"#utility.yul\":677:678   */\n      0x00\n        /* \"#utility.yul\":670:682   */\n      revert\n        /* \"#utility.yul\":621:684   */\n    tag_237:\n        /* \"#utility.yul\":568:690   */\n      pop\n      jump\t// out\n        /* \"#utility.yul\":696:835   */\n    tag_170:\n        /* \"#utility.yul\":742:747   */\n      0x00\n        /* \"#utility.yul\":780:786   */\n      dup2\n        /* \"#utility.yul\":767:787   */\n      calldataload\n        /* \"#utility.yul\":758:787   */\n      swap1\n      pop\n        /* \"#utility.yul\":796:829   */\n      tag_239\n        /* \"#utility.yul\":823:828   */\n      dup2\n        /* \"#utility.yul\":796:829   */\n      tag_169\n      jump\t// in\n    tag_239:\n        /* \"#utility.yul\":696:835   */\n      swap3\n      swap2\n      pop\n      pop\n      jump\t// out\n        /* \"#utility.yul\":841:1170   */\n    tag_17:\n        /* \"#utility.yul\":900:906   */\n      0x00\n        /* \"#utility.yul\":949:951   */\n      0x20\n        /* \"#utility.yul\":937:946   */\n      dup3\n        /* \"#utility.yul\":928:935   */\n      dup5\n        /* \"#utility.yul\":924:947   */\n      sub\n        /* \"#utility.yul\":920:952   */\n      slt\n        /* \"#utility.yul\":917:1036   */\n      iszero\n      tag_241\n      jumpi\n        /* \"#utility.yul\":955:1034   */\n      tag_242\n      tag_165\n      jump\t// in\n    tag_242:\n        /* \"#utility.yul\":917:1036   */\n    tag_241:\n        /* \"#utility.yul\":1075:1076   */\n      0x00\n        /* \"#utility.yul\":1100:1153   */\n      tag_243\n        /* \"#utility.yul\":1145:1152   */\n      dup5\n        /* \"#utility.yul\":1136:1142   */\n      dup3\n        /* \"#utility.yul\":1125:1134   */\n      dup6\n        /* \"#utility.yul\":1121:1143   */\n      add\n        /* \"#utility.yul\":1100:1153   */\n      tag_170\n      jump\t// in\n    tag_243:\n        /* \"#utility.yul\":1090:1153   */\n      swap2\n      pop\n        /* \"#utility.yul\":1046:1163   */\n      pop\n        /* \"#utility.yul\":841:1170   */\n      swap3\n      swap2\n      pop\n      pop\n      jump\t// out\n        /* \"#utility.yul\":1176:1275   */\n    tag_171:\n        /* \"#utility.yul\":1228:1234   */\n      0x00\n        /* \"#utility.yul\":1262:1267   */\n      dup2\n        /* \"#utility.yul\":1256:1268   */\n      mload\n        /* \"#utility.yul\":1246:1268   */\n      swap1\n      pop\n        /* \"#utility.yul\":1176:1275   */\n      swap2\n      swap1\n      pop\n      jump\t// out\n        /* \"#utility.yul\":1281:1450   */\n    tag_172:\n        /* \"#utility.yul\":1365:1376   */\n      0x00\n        /* \"#utility.yul\":1399:1405   */\n      dup3\n        /* \"#utility.yul\":1394:1397   */\n      dup3\n        /* \"#utility.yul\":1387:1406   */\n      mstore\n        /* \"#utility.yul\":1439:1443   */\n      0x20\n        /* \"#utility.yul\":1434:1437   */\n      dup3\n        /* \"#utility.yul\":1430:1444   */\n      add\n        /* \"#utility.yul\":1415:1444   */\n      swap1\n      pop\n        /* \"#utility.yul\":1281:1450   */\n      swap3\n      swap2\n      pop\n      pop\n      jump\t// out\n        /* \"#utility.yul\":1456:1595   */\n    tag_173:\n        /* \"#utility.yul\":1545:1551   */\n      dup3\n        /* \"#utility.yul\":1540:1543   */\n      dup2\n        /* \"#utility.yul\":1535:1538   */\n      dup4\n        /* \"#utility.yul\":1529:1552   */\n      mcopy\n        /* \"#utility.yul\":1586:1587   */\n      0x00\n        /* \"#utility.yul\":1577:1583   */\n      dup4\n        /* \"#utility.yul\":1572:1575   */\n      dup4\n        /* \"#utility.yul\":1568:1584   */\n      add\n        /* \"#utility.yul\":1561:1588   */\n      mstore\n        /* \"#utility.yul\":1456:1595   */\n      pop\n      pop\n      pop\n      jump\t// out\n        /* \"#utility.yul\":1601:1703   */\n    tag_174:\n        /* \"#utility.yul\":1642:1648   */\n      0x00\n        /* \"#utility.yul\":1693:1695   */\n      0x1f\n        /* \"#utility.yul\":1689:1696   */\n      not\n        /* \"#utility.yul\":1684:1686   */\n      0x1f\n        /* \"#utility.yul\":1677:1682   */\n      dup4\n        /* \"#utility.yul\":1673:1687   */\n      add\n        /* \"#utility.yul\":1669:1697   */\n      and\n        /* \"#utility.yul\":1659:1697   */\n      swap1\n      pop\n        /* \"#utility.yul\":1601:1703   */\n      swap2\n      swap1\n      pop\n      jump\t// out\n        /* \"#utility.yul\":1709:2086   */\n    tag_175:\n        /* \"#utility.yul\":1797:1800   */\n      0x00\n        /* \"#utility.yul\":1825:1864   */\n      tag_249\n        /* \"#utility.yul\":1858:1863   */\n      dup3\n        /* \"#utility.yul\":1825:1864   */\n      tag_171\n      jump\t// in\n    tag_249:\n        /* \"#utility.yul\":1880:1951   */\n      tag_250\n        /* \"#utility.yul\":1944:1950   */\n      dup2\n        /* \"#utility.yul\":1939:1942   */\n      dup6\n        /* \"#utility.yul\":1880:1951   */\n      tag_172\n      jump\t// in\n    tag_250:\n        /* \"#utility.yul\":1873:1951   */\n      swap4\n      pop\n        /* \"#utility.yul\":1960:2025   */\n      tag_251\n        /* \"#utility.yul\":2018:2024   */\n      dup2\n        /* \"#utility.yul\":2013:2016   */\n      dup6\n        /* \"#utility.yul\":2006:2010   */\n      0x20\n        /* \"#utility.yul\":1999:2004   */\n      dup7\n        /* \"#utility.yul\":1995:2011   */\n      add\n        /* \"#utility.yul\":1960:2025   */\n      tag_173\n      jump\t// in\n    tag_251:\n        /* \"#utility.yul\":2050:2079   */\n      tag_252\n        /* \"#utility.yul\":2072:2078   */\n      dup2\n        /* \"#utility.yul\":2050:2079   */\n      tag_174\n      jump\t// in\n    tag_252:\n        /* \"#utility.yul\":2045:2048   */\n      dup5\n        /* \"#utility.yul\":2041:2080   */\n      add\n        /* \"#utility.yul\":2034:2080   */\n      swap2\n      pop\n        /* \"#utility.yul\":1801:2086   */\n      pop\n        /* \"#utility.yul\":1709:2086   */\n      swap3\n      swap2\n      pop\n      pop\n      jump\t// out\n        /* \"#utility.yul\":2092:2182   */\n    tag_176:\n        /* \"#utility.yul\":2126:2133   */\n      0x00\n        /* \"#utility.yul\":2169:2174   */\n      dup2\n        /* \"#utility.yul\":2162:2175   */\n      iszero\n        /* \"#utility.yul\":2155:2176   */\n      iszero\n        /* \"#utility.yul\":2144:2176   */\n      swap1\n      pop\n        /* \"#utility.yul\":2092:2182   */\n      swap2\n      swap1\n      pop\n      jump\t// out\n        /* \"#utility.yul\":2188:2297   */\n    tag_177:\n        /* \"#utility.yul\":2269:2290   */\n      tag_255\n        /* \"#utility.yul\":2284:2289   */\n      dup2\n        /* \"#utility.yul\":2269:2290   */\n      tag_176\n      jump\t// in\n    tag_255:\n        /* \"#utility.yul\":2264:2267   */\n      dup3\n        /* \"#utility.yul\":2257:2291   */\n      mstore\n        /* \"#utility.yul\":2188:2297   */\n      pop\n      pop\n      jump\t// out\n        /* \"#utility.yul\":2303:3723   */\n    tag_20:\n        /* \"#utility.yul\":2678:2682   */\n      0x00\n        /* \"#utility.yul\":2716:2719   */\n      0xe0\n        /* \"#utility.yul\":2705:2714   */\n      dup3\n        /* \"#utility.yul\":2701:2720   */\n      add\n        /* \"#utility.yul\":2693:2720   */\n      swap1\n      pop\n        /* \"#utility.yul\":2766:2775   */\n      dup2\n        /* \"#utility.yul\":2760:2764   */\n      dup2\n        /* \"#utility.yul\":2756:2776   */\n      sub\n        /* \"#utility.yul\":2752:2753   */\n      0x00\n        /* \"#utility.yul\":2741:2750   */\n      dup4\n        /* \"#utility.yul\":2737:2754   */\n      add\n        /* \"#utility.yul\":2730:2777   */\n      mstore\n        /* \"#utility.yul\":2794:2872   */\n      tag_257\n        /* \"#utility.yul\":2867:2871   */\n      dup2\n        /* \"#utility.yul\":2858:2864   */\n      dup11\n        /* \"#utility.yul\":2794:2872   */\n      tag_175\n      jump\t// in\n    tag_257:\n        /* \"#utility.yul\":2786:2872   */\n      swap1\n      pop\n        /* \"#utility.yul\":2919:2928   */\n      dup2\n        /* \"#utility.yul\":2913:2917   */\n      dup2\n        /* \"#utility.yul\":2909:2929   */\n      sub\n        /* \"#utility.yul\":2904:2906   */\n      0x20\n        /* \"#utility.yul\":2893:2902   */\n      dup4\n        /* \"#utility.yul\":2889:2907   */\n      add\n        /* \"#utility.yul\":2882:2930   */\n      mstore\n        /* \"#utility.yul\":2947:3025   */\n      tag_258\n        /* \"#utility.yul\":3020:3024   */\n      dup2\n        /* \"#utility.yul\":3011:3017   */\n      dup10\n        /* \"#utility.yul\":2947:3025   */\n      tag_175\n      jump\t// in\n    tag_258:\n        /* \"#utility.yul\":2939:3025   */\n      swap1\n      pop\n        /* \"#utility.yul\":3072:3081   */\n      dup2\n        /* \"#utility.yul\":3066:3070   */\n      dup2\n        /* \"#utility.yul\":3062:3082   */\n      sub\n        /* \"#utility.yul\":3057:3059   */\n      0x40\n        /* \"#utility.yul\":3046:3055   */\n      dup4\n        /* \"#utility.yul\":3042:3060   */\n      add\n        /* \"#utility.yul\":3035:3083   */\n      mstore\n        /* \"#utility.yul\":3100:3178   */\n      tag_259\n        /* \"#utility.yul\":3173:3177   */\n      dup2\n        /* \"#utility.yul\":3164:3170   */\n      dup9\n        /* \"#utility.yul\":3100:3178   */\n      tag_175\n      jump\t// in\n    tag_259:\n        /* \"#utility.yul\":3092:3178   */\n      swap1\n      pop\n        /* \"#utility.yul\":3225:3234   */\n      dup2\n        /* \"#utility.yul\":3219:3223   */\n      dup2\n        /* \"#utility.yul\":3215:3235   */\n      sub\n        /* \"#utility.yul\":3210:3212   */\n      0x60\n        /* \"#utility.yul\":3199:3208   */\n      dup4\n        /* \"#utility.yul\":3195:3213   */\n      add\n        /* \"#utility.yul\":3188:3236   */\n      mstore\n        /* \"#utility.yul\":3253:3331   */\n      tag_260\n        /* \"#utility.yul\":3326:3330   */\n      dup2\n        /* \"#utility.yul\":3317:3323   */\n      dup8\n        /* \"#utility.yul\":3253:3331   */\n      tag_175\n      jump\t// in\n    tag_260:\n        /* \"#utility.yul\":3245:3331   */\n      swap1\n      pop\n        /* \"#utility.yul\":3379:3388   */\n      dup2\n        /* \"#utility.yul\":3373:3377   */\n      dup2\n        /* \"#utility.yul\":3369:3389   */\n      sub\n        /* \"#utility.yul\":3363:3366   */\n      0x80\n        /* \"#utility.yul\":3352:3361   */\n      dup4\n        /* \"#utility.yul\":3348:3367   */\n      add\n        /* \"#utility.yul\":3341:3390   */\n      mstore\n        /* \"#utility.yul\":3407:3485   */\n      tag_261\n        /* \"#utility.yul\":3480:3484   */\n      dup2\n        /* \"#utility.yul\":3471:3477   */\n      dup7\n        /* \"#utility.yul\":3407:3485   */\n      tag_175\n      jump\t// in\n    tag_261:\n        /* \"#utility.yul\":3399:3485   */\n      swap1\n      pop\n        /* \"#utility.yul\":3533:3542   */\n      dup2\n        /* \"#utility.yul\":3527:3531   */\n      dup2\n        /* \"#utility.yul\":3523:3543   */\n      sub\n        /* \"#utility.yul\":3517:3520   */\n      0xa0\n        /* \"#utility.yul\":3506:3515   */\n      dup4\n        /* \"#utility.yul\":3502:3521   */\n      add\n        /* \"#utility.yul\":3495:3544   */\n      mstore\n        /* \"#utility.yul\":3561:3639   */\n      tag_262\n        /* \"#utility.yul\":3634:3638   */\n      dup2\n        /* \"#utility.yul\":3625:3631   */\n      dup6\n        /* \"#utility.yul\":3561:3639   */\n      tag_175\n      jump\t// in\n    tag_262:\n        /* \"#utility.yul\":3553:3639   */\n      swap1\n      pop\n        /* \"#utility.yul\":3649:3716   */\n      tag_263\n        /* \"#utility.yul\":3711:3714   */\n      0xc0\n        /* \"#utility.yul\":3700:3709   */\n      dup4\n        /* \"#utility.yul\":3696:3715   */\n      add\n        /* \"#utility.yul\":3687:3693   */\n      dup5\n        /* \"#utility.yul\":3649:3716   */\n      tag_177\n      jump\t// in\n    tag_263:\n        /* \"#utility.yul\":2303:3723   */\n      swap9\n      swap8\n      pop\n      pop\n      pop\n      pop\n      pop\n      pop\n      pop\n      pop\n      jump\t// out\n        /* \"#utility.yul\":3729:3843   */\n    tag_178:\n        /* \"#utility.yul\":3796:3802   */\n      0x00\n        /* \"#utility.yul\":3830:3835   */\n      dup2\n        /* \"#utility.yul\":3824:3836   */\n      mload\n        /* \"#utility.yul\":3814:3836   */\n      swap1\n      pop\n        /* \"#utility.yul\":3729:3843   */\n      swap2\n      swap1\n      pop\n      jump\t// out\n        /* \"#utility.yul\":3849:4033   */\n    tag_179:\n        /* \"#utility.yul\":3948:3959   */\n      0x00\n        /* \"#utility.yul\":3982:3988   */\n      dup3\n        /* \"#utility.yul\":3977:3980   */\n      dup3\n        /* \"#utility.yul\":3970:3989   */\n      mstore\n        /* \"#utility.yul\":4022:4026   */\n      0x20\n        /* \"#utility.yul\":4017:4020   */\n      dup3\n        /* \"#utility.yul\":4013:4027   */\n      add\n        /* \"#utility.yul\":3998:4027   */\n      swap1\n      pop\n        /* \"#utility.yul\":3849:4033   */\n      swap3\n      swap2\n      pop\n      pop\n      jump\t// out\n        /* \"#utility.yul\":4039:4171   */\n    tag_180:\n        /* \"#utility.yul\":4106:4110   */\n      0x00\n        /* \"#utility.yul\":4129:4132   */\n      dup2\n        /* \"#utility.yul\":4121:4132   */\n      swap1\n      pop\n        /* \"#utility.yul\":4159:4163   */\n      0x20\n        /* \"#utility.yul\":4154:4157   */\n      dup3\n        /* \"#utility.yul\":4150:4164   */\n      add\n        /* \"#utility.yul\":4142:4164   */\n      swap1\n      pop\n        /* \"#utility.yul\":4039:4171   */\n      swap2\n      swap1\n      pop\n      jump\t// out\n        /* \"#utility.yul\":4177:4285   */\n    tag_181:\n        /* \"#utility.yul\":4254:4278   */\n      tag_268\n        /* \"#utility.yul\":4272:4277   */\n      dup2\n        /* \"#utility.yul\":4254:4278   */\n      tag_168\n      jump\t// in\n    tag_268:\n        /* \"#utility.yul\":4249:4252   */\n      dup3\n        /* \"#utility.yul\":4242:4279   */\n      mstore\n        /* \"#utility.yul\":4177:4285   */\n      pop\n      pop\n      jump\t// out\n        /* \"#utility.yul\":4291:4470   */\n    tag_182:\n        /* \"#utility.yul\":4360:4370   */\n      0x00\n        /* \"#utility.yul\":4381:4427   */\n      tag_270\n        /* \"#utility.yul\":4423:4426   */\n      dup4\n        /* \"#utility.yul\":4415:4421   */\n      dup4\n        /* \"#utility.yul\":4381:4427   */\n      tag_181\n      jump\t// in\n    tag_270:\n        /* \"#utility.yul\":4459:4463   */\n      0x20\n        /* \"#utility.yul\":4454:4457   */\n      dup4\n        /* \"#utility.yul\":4450:4464   */\n      add\n        /* \"#utility.yul\":4436:4464   */\n      swap1\n      pop\n        /* \"#utility.yul\":4291:4470   */\n      swap3\n      swap2\n      pop\n      pop\n      jump\t// out\n        /* \"#utility.yul\":4476:4589   */\n    tag_183:\n        /* \"#utility.yul\":4546:4550   */\n      0x00\n        /* \"#utility.yul\":4578:4582   */\n      0x20\n        /* \"#utility.yul\":4573:4576   */\n      dup3\n        /* \"#utility.yul\":4569:4583   */\n      add\n        /* \"#utility.yul\":4561:4583   */\n      swap1\n      pop\n        /* \"#utility.yul\":4476:4589   */\n      swap2\n      swap1\n      pop\n      jump\t// out\n        /* \"#utility.yul\":4625:5357   */\n    tag_184:\n        /* \"#utility.yul\":4744:4747   */\n      0x00\n        /* \"#utility.yul\":4773:4827   */\n      tag_273\n        /* \"#utility.yul\":4821:4826   */\n      dup3\n        /* \"#utility.yul\":4773:4827   */\n      tag_178\n      jump\t// in\n    tag_273:\n        /* \"#utility.yul\":4843:4929   */\n      tag_274\n        /* \"#utility.yul\":4922:4928   */\n      dup2\n        /* \"#utility.yul\":4917:4920   */\n      dup6\n        /* \"#utility.yul\":4843:4929   */\n      tag_179\n      jump\t// in\n    tag_274:\n        /* \"#utility.yul\":4836:4929   */\n      swap4\n      pop\n        /* \"#utility.yul\":4953:5009   */\n      tag_275\n        /* \"#utility.yul\":5003:5008   */\n      dup4\n        /* \"#utility.yul\":4953:5009   */\n      tag_180\n      jump\t// in\n    tag_275:\n        /* \"#utility.yul\":5032:5039   */\n      dup1\n        /* \"#utility.yul\":5063:5064   */\n      0x00\n        /* \"#utility.yul\":5048:5332   */\n    tag_276:\n        /* \"#utility.yul\":5073:5079   */\n      dup4\n        /* \"#utility.yul\":5070:5071   */\n      dup2\n        /* \"#utility.yul\":5067:5080   */\n      lt\n        /* \"#utility.yul\":5048:5332   */\n      iszero\n      tag_278\n      jumpi\n        /* \"#utility.yul\":5149:5155   */\n      dup2\n        /* \"#utility.yul\":5143:5156   */\n      mload\n        /* \"#utility.yul\":5176:5239   */\n      tag_279\n        /* \"#utility.yul\":5235:5238   */\n      dup9\n        /* \"#utility.yul\":5220:5233   */\n      dup3\n        /* \"#utility.yul\":5176:5239   */\n      tag_182\n      jump\t// in\n    tag_279:\n        /* \"#utility.yul\":5169:5239   */\n      swap8\n      pop\n        /* \"#utility.yul\":5262:5322   */\n      tag_280\n        /* \"#utility.yul\":5315:5321   */\n      dup4\n        /* \"#utility.yul\":5262:5322   */\n      tag_183\n      jump\t// in\n    tag_280:\n        /* \"#utility.yul\":5252:5322   */\n      swap3\n      pop\n        /* \"#utility.yul\":5108:5332   */\n      pop\n        /* \"#utility.yul\":5095:5096   */\n      0x01\n        /* \"#utility.yul\":5092:5093   */\n      dup2\n        /* \"#utility.yul\":5088:5097   */\n      add\n        /* \"#utility.yul\":5083:5097   */\n      swap1\n      pop\n        /* \"#utility.yul\":5048:5332   */\n      jump(tag_276)\n    tag_278:\n        /* \"#utility.yul\":5052:5066   */\n      pop\n        /* \"#utility.yul\":5348:5351   */\n      dup6\n        /* \"#utility.yul\":5341:5351   */\n      swap4\n      pop\n        /* \"#utility.yul\":4749:5357   */\n      pop\n      pop\n      pop\n        /* \"#utility.yul\":4625:5357   */\n      swap3\n      swap2\n      pop\n      pop\n      jump\t// out\n        /* \"#utility.yul\":5363:5736   */\n    tag_24:\n        /* \"#utility.yul\":5506:5510   */\n      0x00\n        /* \"#utility.yul\":5544:5546   */\n      0x20\n        /* \"#utility.yul\":5533:5542   */\n      dup3\n        /* \"#utility.yul\":5529:5547   */\n      add\n        /* \"#utility.yul\":5521:5547   */\n      swap1\n      pop\n        /* \"#utility.yul\":5593:5602   */\n      dup2\n        /* \"#utility.yul\":5587:5591   */\n      dup2\n        /* \"#utility.yul\":5583:5603   */\n      sub\n        /* \"#utility.yul\":5579:5580   */\n      0x00\n        /* \"#utility.yul\":5568:5577   */\n      dup4\n        /* \"#utility.yul\":5564:5581   */\n      add\n        /* \"#utility.yul\":5557:5604   */\n      mstore\n        /* \"#utility.yul\":5621:5729   */\n      tag_282\n        /* \"#utility.yul\":5724:5728   */\n      dup2\n        /* \"#utility.yul\":5715:5721   */\n      dup5\n        /* \"#utility.yul\":5621:5729   */\n      tag_184\n      jump\t// in\n    tag_282:\n        /* \"#utility.yul\":5613:5729   */\n      swap1\n      pop\n        /* \"#utility.yul\":5363:5736   */\n      swap3\n      swap2\n      pop\n      pop\n      jump\t// out\n        /* \"#utility.yul\":5742:5859   */\n    tag_185:\n        /* \"#utility.yul\":5851:5852   */\n      0x00\n        /* \"#utility.yul\":5848:5849   */\n      0x00\n        /* \"#utility.yul\":5841:5853   */\n      revert\n        /* \"#utility.yul\":5865:5982   */\n    tag_186:\n        /* \"#utility.yul\":5974:5975   */\n      0x00\n        /* \"#utility.yul\":5971:5972   */\n      0x00\n        /* \"#utility.yul\":5964:5976   */\n      revert\n        /* \"#utility.yul\":5988:6168   */\n    tag_187:\n        /* \"#utility.yul\":6036:6113   */\n      0x4e487b7100000000000000000000000000000000000000000000000000000000\n        /* \"#utility.yul\":6033:6034   */\n      0x00\n        /* \"#utility.yul\":6026:6114   */\n      mstore\n        /* \"#utility.yul\":6133:6137   */\n      0x41\n        /* \"#utility.yul\":6130:6131   */\n      0x04\n        /* \"#utility.yul\":6123:6138   */\n      mstore\n        /* \"#utility.yul\":6157:6161   */\n      0x24\n        /* \"#utility.yul\":6154:6155   */\n      0x00\n        /* \"#utility.yul\":6147:6162   */\n      revert\n        /* \"#utility.yul\":6174:6455   */\n    tag_188:\n        /* \"#utility.yul\":6257:6284   */\n      tag_287\n        /* \"#utility.yul\":6279:6283   */\n      dup3\n        /* \"#utility.yul\":6257:6284   */\n      tag_174\n      jump\t// in\n    tag_287:\n        /* \"#utility.yul\":6249:6255   */\n      dup2\n        /* \"#utility.yul\":6245:6285   */\n      add\n        /* \"#utility.yul\":6387:6393   */\n      dup2\n        /* \"#utility.yul\":6375:6385   */\n      dup2\n        /* \"#utility.yul\":6372:6394   */\n      lt\n        /* \"#utility.yul\":6351:6369   */\n      0xffffffffffffffff\n        /* \"#utility.yul\":6339:6349   */\n      dup3\n        /* \"#utility.yul\":6336:6370   */\n      gt\n        /* \"#utility.yul\":6333:6395   */\n      or\n        /* \"#utility.yul\":6330:6418   */\n      iszero\n      tag_288\n      jumpi\n        /* \"#utility.yul\":6398:6416   */\n      tag_289\n      tag_187\n      jump\t// in\n    tag_289:\n        /* \"#utility.yul\":6330:6418   */\n    tag_288:\n        /* \"#utility.yul\":6438:6448   */\n      dup1\n        /* \"#utility.yul\":6434:6436   */\n      0x40\n        /* \"#utility.yul\":6427:6449   */\n      mstore\n        /* \"#utility.yul\":6217:6455   */\n      pop\n        /* \"#utility.yul\":6174:6455   */\n      pop\n      pop\n      jump\t// out\n        /* \"#utility.yul\":6461:6590   */\n    tag_189:\n        /* \"#utility.yul\":6495:6501   */\n      0x00\n        /* \"#utility.yul\":6522:6542   */\n      tag_291\n      tag_164\n      jump\t// in\n    tag_291:\n        /* \"#utility.yul\":6512:6542   */\n      swap1\n      pop\n        /* \"#utility.yul\":6551:6584   */\n      tag_292\n        /* \"#utility.yul\":6579:6583   */\n      dup3\n        /* \"#utility.yul\":6571:6577   */\n      dup3\n        /* \"#utility.yul\":6551:6584   */\n      tag_188\n      jump\t// in\n    tag_292:\n        /* \"#utility.yul\":6461:6590   */\n      swap2\n      swap1\n      pop\n      jump\t// out\n        /* \"#utility.yul\":6596:6904   */\n    tag_190:\n        /* \"#utility.yul\":6658:6662   */\n      0x00\n        /* \"#utility.yul\":6748:6766   */\n      0xffffffffffffffff\n        /* \"#utility.yul\":6740:6746   */\n      dup3\n        /* \"#utility.yul\":6737:6767   */\n      gt\n        /* \"#utility.yul\":6734:6790   */\n      iszero\n      tag_294\n      jumpi\n        /* \"#utility.yul\":6770:6788   */\n      tag_295\n      tag_187\n      jump\t// in\n    tag_295:\n        /* \"#utility.yul\":6734:6790   */\n    tag_294:\n        /* \"#utility.yul\":6808:6837   */\n      tag_296\n        /* \"#utility.yul\":6830:6836   */\n      dup3\n        /* \"#utility.yul\":6808:6837   */\n      tag_174\n      jump\t// in\n    tag_296:\n        /* \"#utility.yul\":6800:6837   */\n      swap1\n      pop\n        /* \"#utility.yul\":6892:6896   */\n      0x20\n        /* \"#utility.yul\":6886:6890   */\n      dup2\n        /* \"#utility.yul\":6882:6897   */\n      add\n        /* \"#utility.yul\":6874:6897   */\n      swap1\n      pop\n        /* \"#utility.yul\":6596:6904   */\n      swap2\n      swap1\n      pop\n      jump\t// out\n        /* \"#utility.yul\":6910:7058   */\n    tag_191:\n        /* \"#utility.yul\":7008:7014   */\n      dup3\n        /* \"#utility.yul\":7003:7006   */\n      dup2\n        /* \"#utility.yul\":6998:7001   */\n      dup4\n        /* \"#utility.yul\":6985:7015   */\n      calldatacopy\n        /* \"#utility.yul\":7049:7050   */\n      0x00\n        /* \"#utility.yul\":7040:7046   */\n      dup4\n        /* \"#utility.yul\":7035:7038   */\n      dup4\n        /* \"#utility.yul\":7031:7047   */\n      add\n        /* \"#utility.yul\":7024:7051   */\n      mstore\n        /* \"#utility.yul\":6910:7058   */\n      pop\n      pop\n      pop\n      jump\t// out\n        /* \"#utility.yul\":7064:7489   */\n    tag_192:\n        /* \"#utility.yul\":7142:7147   */\n      0x00\n        /* \"#utility.yul\":7167:7233   */\n      tag_299\n        /* \"#utility.yul\":7183:7232   */\n      tag_300\n        /* \"#utility.yul\":7225:7231   */\n      dup5\n        /* \"#utility.yul\":7183:7232   */\n      tag_190\n      jump\t// in\n    tag_300:\n        /* \"#utility.yul\":7167:7233   */\n      tag_189\n      jump\t// in\n    tag_299:\n        /* \"#utility.yul\":7158:7233   */\n      swap1\n      pop\n        /* \"#utility.yul\":7256:7262   */\n      dup3\n        /* \"#utility.yul\":7249:7254   */\n      dup2\n        /* \"#utility.yul\":7242:7263   */\n      mstore\n        /* \"#utility.yul\":7294:7298   */\n      0x20\n        /* \"#utility.yul\":7287:7292   */\n      dup2\n        /* \"#utility.yul\":7283:7299   */\n      add\n        /* \"#utility.yul\":7332:7335   */\n      dup5\n        /* \"#utility.yul\":7323:7329   */\n      dup5\n        /* \"#utility.yul\":7318:7321   */\n      dup5\n        /* \"#utility.yul\":7314:7330   */\n      add\n        /* \"#utility.yul\":7311:7336   */\n      gt\n        /* \"#utility.yul\":7308:7420   */\n      iszero\n      tag_301\n      jumpi\n        /* \"#utility.yul\":7339:7418   */\n      tag_302\n      tag_186\n      jump\t// in\n    tag_302:\n        /* \"#utility.yul\":7308:7420   */\n    tag_301:\n        /* \"#utility.yul\":7429:7483   */\n      tag_303\n        /* \"#utility.yul\":7476:7482   */\n      dup5\n        /* \"#utility.yul\":7471:7474   */\n      dup3\n        /* \"#utility.yul\":7466:7469   */\n      dup6\n        /* \"#utility.yul\":7429:7483   */\n      tag_191\n      jump\t// in\n    tag_303:\n        /* \"#utility.yul\":7148:7489   */\n      pop\n        /* \"#utility.yul\":7064:7489   */\n      swap4\n      swap3\n      pop\n      pop\n      pop\n      jump\t// out\n        /* \"#utility.yul\":7509:7849   */\n    tag_193:\n        /* \"#utility.yul\":7565:7570   */\n      0x00\n        /* \"#utility.yul\":7614:7617   */\n      dup3\n        /* \"#utility.yul\":7607:7611   */\n      0x1f\n        /* \"#utility.yul\":7599:7605   */\n      dup4\n        /* \"#utility.yul\":7595:7612   */\n      add\n        /* \"#utility.yul\":7591:7618   */\n      slt\n        /* \"#utility.yul\":7581:7703   */\n      tag_305\n      jumpi\n        /* \"#utility.yul\":7622:7701   */\n      tag_306\n      tag_185\n      jump\t// in\n    tag_306:\n        /* \"#utility.yul\":7581:7703   */\n    tag_305:\n        /* \"#utility.yul\":7739:7745   */\n      dup2\n        /* \"#utility.yul\":7726:7746   */\n      calldataload\n        /* \"#utility.yul\":7764:7843   */\n      tag_307\n        /* \"#utility.yul\":7839:7842   */\n      dup5\n        /* \"#utility.yul\":7831:7837   */\n      dup3\n        /* \"#utility.yul\":7824:7828   */\n      0x20\n        /* \"#utility.yul\":7816:7822   */\n      dup7\n        /* \"#utility.yul\":7812:7829   */\n      add\n        /* \"#utility.yul\":7764:7843   */\n      tag_192\n      jump\t// in\n    tag_307:\n        /* \"#utility.yul\":7755:7843   */\n      swap2\n      pop\n        /* \"#utility.yul\":7571:7849   */\n      pop\n        /* \"#utility.yul\":7509:7849   */\n      swap3\n      swap2\n      pop\n      pop\n      jump\t// out\n        /* \"#utility.yul\":7855:9992   */\n    tag_27:\n        /* \"#utility.yul\":8019:8025   */\n      0x00\n        /* \"#utility.yul\":8027:8033   */\n      0x00\n        /* \"#utility.yul\":8035:8041   */\n      0x00\n        /* \"#utility.yul\":8043:8049   */\n      0x00\n        /* \"#utility.yul\":8051:8057   */\n      0x00\n        /* \"#utility.yul\":8059:8065   */\n      0x00\n        /* \"#utility.yul\":8108:8111   */\n      0xc0\n        /* \"#utility.yul\":8096:8105   */\n      dup8\n        /* \"#utility.yul\":8087:8094   */\n      dup10\n        /* \"#utility.yul\":8083:8106   */\n      sub\n        /* \"#utility.yul\":8079:8112   */\n      slt\n        /* \"#utility.yul\":8076:8196   */\n      iszero\n      tag_309\n      jumpi\n        /* \"#utility.yul\":8115:8194   */\n      tag_310\n      tag_165\n      jump\t// in\n    tag_310:\n        /* \"#utility.yul\":8076:8196   */\n    tag_309:\n        /* \"#utility.yul\":8263:8264   */\n      0x00\n        /* \"#utility.yul\":8252:8261   */\n      dup8\n        /* \"#utility.yul\":8248:8265   */\n      add\n        /* \"#utility.yul\":8235:8266   */\n      calldataload\n        /* \"#utility.yul\":8293:8311   */\n      0xffffffffffffffff\n        /* \"#utility.yul\":8285:8291   */\n      dup2\n        /* \"#utility.yul\":8282:8312   */\n      gt\n        /* \"#utility.yul\":8279:8396   */\n      iszero\n      tag_311\n      jumpi\n        /* \"#utility.yul\":8315:8394   */\n      tag_312\n      tag_166\n      jump\t// in\n    tag_312:\n        /* \"#utility.yul\":8279:8396   */\n    tag_311:\n        /* \"#utility.yul\":8420:8483   */\n      tag_313\n        /* \"#utility.yul\":8475:8482   */\n      dup10\n        /* \"#utility.yul\":8466:8472   */\n      dup3\n        /* \"#utility.yul\":8455:8464   */\n      dup11\n        /* \"#utility.yul\":8451:8473   */\n      add\n        /* \"#utility.yul\":8420:8483   */\n      tag_193\n      jump\t// in\n    tag_313:\n        /* \"#utility.yul\":8410:8483   */\n      swap7\n      pop\n        /* \"#utility.yul\":8206:8493   */\n      pop\n        /* \"#utility.yul\":8560:8562   */\n      0x20\n        /* \"#utility.yul\":8549:8558   */\n      dup8\n        /* \"#utility.yul\":8545:8563   */\n      add\n        /* \"#utility.yul\":8532:8564   */\n      calldataload\n        /* \"#utility.yul\":8591:8609   */\n      0xffffffffffffffff\n        /* \"#utility.yul\":8583:8589   */\n      dup2\n        /* \"#utility.yul\":8580:8610   */\n      gt\n        /* \"#utility.yul\":8577:8694   */\n      iszero\n      tag_314\n      jumpi\n        /* \"#utility.yul\":8613:8692   */\n      tag_315\n      tag_166\n      jump\t// in\n    tag_315:\n        /* \"#utility.yul\":8577:8694   */\n    tag_314:\n        /* \"#utility.yul\":8718:8781   */\n      tag_316\n        /* \"#utility.yul\":8773:8780   */\n      dup10\n        /* \"#utility.yul\":8764:8770   */\n      dup3\n        /* \"#utility.yul\":8753:8762   */\n      dup11\n        /* \"#utility.yul\":8749:8771   */\n      add\n        /* \"#utility.yul\":8718:8781   */\n      tag_193\n      jump\t// in\n    tag_316:\n        /* \"#utility.yul\":8708:8781   */\n      swap6\n      pop\n        /* \"#utility.yul\":8503:8791   */\n      pop\n        /* \"#utility.yul\":8858:8860   */\n      0x40\n        /* \"#utility.yul\":8847:8856   */\n      dup8\n        /* \"#utility.yul\":8843:8861   */\n      add\n        /* \"#utility.yul\":8830:8862   */\n      calldataload\n        /* \"#utility.yul\":8889:8907   */\n      0xffffffffffffffff\n        /* \"#utility.yul\":8881:8887   */\n      dup2\n        /* \"#utility.yul\":8878:8908   */\n      gt\n        /* \"#utility.yul\":8875:8992   */\n      iszero\n      tag_317\n      jumpi\n        /* \"#utility.yul\":8911:8990   */\n      tag_318\n      tag_166\n      jump\t// in\n    tag_318:\n        /* \"#utility.yul\":8875:8992   */\n    tag_317:\n        /* \"#utility.yul\":9016:9079   */\n      tag_319\n        /* \"#utility.yul\":9071:9078   */\n      dup10\n        /* \"#utility.yul\":9062:9068   */\n      dup3\n        /* \"#utility.yul\":9051:9060   */\n      dup11\n        /* \"#utility.yul\":9047:9069   */\n      add\n        /* \"#utility.yul\":9016:9079   */\n      tag_193\n      jump\t// in\n    tag_319:\n        /* \"#utility.yul\":9006:9079   */\n      swap5\n      pop\n        /* \"#utility.yul\":8801:9089   */\n      pop\n        /* \"#utility.yul\":9156:9158   */\n      0x60\n        /* \"#utility.yul\":9145:9154   */\n      dup8\n        /* \"#utility.yul\":9141:9159   */\n      add\n        /* \"#utility.yul\":9128:9160   */\n      calldataload\n        /* \"#utility.yul\":9187:9205   */\n      0xffffffffffffffff\n        /* \"#utility.yul\":9179:9185   */\n      dup2\n        /* \"#utility.yul\":9176:9206   */\n      gt\n        /* \"#utility.yul\":9173:9290   */\n      iszero\n      tag_320\n      jumpi\n        /* \"#utility.yul\":9209:9288   */\n      tag_321\n      tag_166\n      jump\t// in\n    tag_321:\n        /* \"#utility.yul\":9173:9290   */\n    tag_320:\n        /* \"#utility.yul\":9314:9377   */\n      tag_322\n        /* \"#utility.yul\":9369:9376   */\n      dup10\n        /* \"#utility.yul\":9360:9366   */\n      dup3\n        /* \"#utility.yul\":9349:9358   */\n      dup11\n        /* \"#utility.yul\":9345:9367   */\n      add\n        /* \"#utility.yul\":9314:9377   */\n      tag_193\n      jump\t// in\n    tag_322:\n        /* \"#utility.yul\":9304:9377   */\n      swap4\n      pop\n        /* \"#utility.yul\":9099:9387   */\n      pop\n        /* \"#utility.yul\":9454:9457   */\n      0x80\n        /* \"#utility.yul\":9443:9452   */\n      dup8\n        /* \"#utility.yul\":9439:9458   */\n      add\n        /* \"#utility.yul\":9426:9459   */\n      calldataload\n        /* \"#utility.yul\":9486:9504   */\n      0xffffffffffffffff\n        /* \"#utility.yul\":9478:9484   */\n      dup2\n        /* \"#utility.yul\":9475:9505   */\n      gt\n        /* \"#utility.yul\":9472:9589   */\n      iszero\n      tag_323\n      jumpi\n        /* \"#utility.yul\":9508:9587   */\n      tag_324\n      tag_166\n      jump\t// in\n    tag_324:\n        /* \"#utility.yul\":9472:9589   */\n    tag_323:\n        /* \"#utility.yul\":9613:9676   */\n      tag_325\n        /* \"#utility.yul\":9668:9675   */\n      dup10\n        /* \"#utility.yul\":9659:9665   */\n      dup3\n        /* \"#utility.yul\":9648:9657   */\n      dup11\n        /* \"#utility.yul\":9644:9666   */\n      add\n        /* \"#utility.yul\":9613:9676   */\n      tag_193\n      jump\t// in\n    tag_325:\n        /* \"#utility.yul\":9603:9676   */\n      swap3\n      pop\n        /* \"#utility.yul\":9397:9686   */\n      pop\n        /* \"#utility.yul\":9753:9756   */\n      0xa0\n        /* \"#utility.yul\":9742:9751   */\n      dup8\n        /* \"#utility.yul\":9738:9757   */\n      add\n        /* \"#utility.yul\":9725:9758   */\n      calldataload\n        /* \"#utility.yul\":9785:9803   */\n      0xffffffffffffffff\n        /* \"#utility.yul\":9777:9783   */\n      dup2\n        /* \"#utility.yul\":9774:9804   */\n      gt\n        /* \"#utility.yul\":9771:9888   */\n      iszero\n      tag_326\n      jumpi\n        /* \"#utility.yul\":9807:9886   */\n      tag_327\n      tag_166\n      jump\t// in\n    tag_327:\n        /* \"#utility.yul\":9771:9888   */\n    tag_326:\n        /* \"#utility.yul\":9912:9975   */\n      tag_328\n        /* \"#utility.yul\":9967:9974   */\n      dup10\n        /* \"#utility.yul\":9958:9964   */\n      dup3\n        /* \"#utility.yul\":9947:9956   */\n      dup11\n        /* \"#utility.yul\":9943:9965   */\n      add\n        /* \"#utility.yul\":9912:9975   */\n      tag_193\n      jump\t// in\n    tag_328:\n        /* \"#utility.yul\":9902:9975   */\n      swap2\n      pop\n        /* \"#utility.yul\":9696:9985   */\n      pop\n        /* \"#utility.yul\":7855:9992   */\n      swap3\n      swap6\n      pop\n      swap3\n      swap6\n      pop\n      swap3\n      swap6\n      jump\t// out\n        /* \"#utility.yul\":9998:10075   */\n    tag_194:\n        /* \"#utility.yul\":10035:10042   */\n      0x00\n        /* \"#utility.yul\":10064:10069   */\n      dup2\n        /* \"#utility.yul\":10053:10069   */\n      swap1\n      pop\n        /* \"#utility.yul\":9998:10075   */\n      swap2\n      swap1\n      pop\n      jump\t// out\n        /* \"#utility.yul\":10081:10199   */\n    tag_195:\n        /* \"#utility.yul\":10168:10192   */\n      tag_331\n        /* \"#utility.yul\":10186:10191   */\n      dup2\n        /* \"#utility.yul\":10168:10192   */\n      tag_194\n      jump\t// in\n    tag_331:\n        /* \"#utility.yul\":10163:10166   */\n      dup3\n        /* \"#utility.yul\":10156:10193   */\n      mstore\n        /* \"#utility.yul\":10081:10199   */\n      pop\n      pop\n      jump\t// out\n        /* \"#utility.yul\":10205:10427   */\n    tag_32:\n        /* \"#utility.yul\":10298:10302   */\n      0x00\n        /* \"#utility.yul\":10336:10338   */\n      0x20\n        /* \"#utility.yul\":10325:10334   */\n      dup3\n        /* \"#utility.yul\":10321:10339   */\n      add\n        /* \"#utility.yul\":10313:10339   */\n      swap1\n      pop\n        /* \"#utility.yul\":10349:10420   */\n      tag_333\n        /* \"#utility.yul\":10417:10418   */\n      0x00\n        /* \"#utility.yul\":10406:10415   */\n      dup4\n        /* \"#utility.yul\":10402:10419   */\n      add\n        /* \"#utility.yul\":10393:10399   */\n      dup5\n        /* \"#utility.yul\":10349:10420   */\n      tag_195\n      jump\t// in\n    tag_333:\n        /* \"#utility.yul\":10205:10427   */\n      swap3\n      swap2\n      pop\n      pop\n      jump\t// out\n        /* \"#utility.yul\":10433:10555   */\n    tag_196:\n        /* \"#utility.yul\":10506:10530   */\n      tag_335\n        /* \"#utility.yul\":10524:10529   */\n      dup2\n        /* \"#utility.yul\":10506:10530   */\n      tag_194\n      jump\t// in\n    tag_335:\n        /* \"#utility.yul\":10499:10504   */\n      dup2\n        /* \"#utility.yul\":10496:10531   */\n      eq\n        /* \"#utility.yul\":10486:10549   */\n      tag_336\n      jumpi\n        /* \"#utility.yul\":10545:10546   */\n      0x00\n        /* \"#utility.yul\":10542:10543   */\n      0x00\n        /* \"#utility.yul\":10535:10547   */\n      revert\n        /* \"#utility.yul\":10486:10549   */\n    tag_336:\n        /* \"#utility.yul\":10433:10555   */\n      pop\n      jump\t// out\n        /* \"#utility.yul\":10561:10700   */\n    tag_197:\n        /* \"#utility.yul\":10607:10612   */\n      0x00\n        /* \"#utility.yul\":10645:10651   */\n      dup2\n        /* \"#utility.yul\":10632:10652   */\n      calldataload\n        /* \"#utility.yul\":10623:10652   */\n      swap1\n      pop\n        /* \"#utility.yul\":10661:10694   */\n      tag_338\n        /* \"#utility.yul\":10688:10693   */\n      dup2\n        /* \"#utility.yul\":10661:10694   */\n      tag_196\n      jump\t// in\n    tag_338:\n        /* \"#utility.yul\":10561:10700   */\n      swap3\n      swap2\n      pop\n      pop\n      jump\t// out\n        /* \"#utility.yul\":10706:11035   */\n    tag_38:\n        /* \"#utility.yul\":10765:10771   */\n      0x00\n        /* \"#utility.yul\":10814:10816   */\n      0x20\n        /* \"#utility.yul\":10802:10811   */\n      dup3\n        /* \"#utility.yul\":10793:10800   */\n      dup5\n        /* \"#utility.yul\":10789:10812   */\n      sub\n        /* \"#utility.yul\":10785:10817   */\n      slt\n        /* \"#utility.yul\":10782:10901   */\n      iszero\n      tag_340\n      jumpi\n        /* \"#utility.yul\":10820:10899   */\n      tag_341\n      tag_165\n      jump\t// in\n    tag_341:\n        /* \"#utility.yul\":10782:10901   */\n    tag_340:\n        /* \"#utility.yul\":10940:10941   */\n      0x00\n        /* \"#utility.yul\":10965:11018   */\n      tag_342\n        /* \"#utility.yul\":11010:11017   */\n      dup5\n        /* \"#utility.yul\":11001:11007   */\n      dup3\n        /* \"#utility.yul\":10990:10999   */\n      dup6\n        /* \"#utility.yul\":10986:11008   */\n      add\n        /* \"#utility.yul\":10965:11018   */\n      tag_197\n      jump\t// in\n    tag_342:\n        /* \"#utility.yul\":10955:11018   */\n      swap2\n      pop\n        /* \"#utility.yul\":10911:11028   */\n      pop\n        /* \"#utility.yul\":10706:11035   */\n      swap3\n      swap2\n      pop\n      pop\n      jump\t// out\n        /* \"#utility.yul\":11041:11159   */\n    tag_198:\n        /* \"#utility.yul\":11128:11152   */\n      tag_344\n        /* \"#utility.yul\":11146:11151   */\n      dup2\n        /* \"#utility.yul\":11128:11152   */\n      tag_168\n      jump\t// in\n    tag_344:\n        /* \"#utility.yul\":11123:11126   */\n      dup3\n        /* \"#utility.yul\":11116:11153   */\n      mstore\n        /* \"#utility.yul\":11041:11159   */\n      pop\n      pop\n      jump\t// out\n        /* \"#utility.yul\":11165:11387   */\n    tag_41:\n        /* \"#utility.yul\":11258:11262   */\n      0x00\n        /* \"#utility.yul\":11296:11298   */\n      0x20\n        /* \"#utility.yul\":11285:11294   */\n      dup3\n        /* \"#utility.yul\":11281:11299   */\n      add\n        /* \"#utility.yul\":11273:11299   */\n      swap1\n      pop\n        /* \"#utility.yul\":11309:11380   */\n      tag_346\n        /* \"#utility.yul\":11377:11378   */\n      0x00\n        /* \"#utility.yul\":11366:11375   */\n      dup4\n        /* \"#utility.yul\":11362:11379   */\n      add\n        /* \"#utility.yul\":11353:11359   */\n      dup5\n        /* \"#utility.yul\":11309:11380   */\n      tag_198\n      jump\t// in\n    tag_346:\n        /* \"#utility.yul\":11165:11387   */\n      swap3\n      swap2\n      pop\n      pop\n      jump\t// out\n        /* \"#utility.yul\":11393:11517   */\n    tag_199:\n        /* \"#utility.yul\":11470:11476   */\n      0x00\n        /* \"#utility.yul\":11504:11509   */\n      dup2\n        /* \"#utility.yul\":11498:11510   */\n      mload\n        /* \"#utility.yul\":11488:11510   */\n      swap1\n      pop\n        /* \"#utility.yul\":11393:11517   */\n      swap2\n      swap1\n      pop\n      jump\t// out\n        /* \"#utility.yul\":11523:11717   */\n    tag_200:\n        /* \"#utility.yul\":11632:11643   */\n      0x00\n        /* \"#utility.yul\":11666:11672   */\n      dup3\n        /* \"#utility.yul\":11661:11664   */\n      dup3\n        /* \"#utility.yul\":11654:11673   */\n      mstore\n        /* \"#utility.yul\":11706:11710   */\n      0x20\n        /* \"#utility.yul\":11701:11704   */\n      dup3\n        /* \"#utility.yul\":11697:11711   */\n      add\n        /* \"#utility.yul\":11682:11711   */\n      swap1\n      pop\n        /* \"#utility.yul\":11523:11717   */\n      swap3\n      swap2\n      pop\n      pop\n      jump\t// out\n        /* \"#utility.yul\":11723:11865   */\n    tag_201:\n        /* \"#utility.yul\":11800:11804   */\n      0x00\n        /* \"#utility.yul\":11823:11826   */\n      dup2\n        /* \"#utility.yul\":11815:11826   */\n      swap1\n      pop\n        /* \"#utility.yul\":11853:11857   */\n      0x20\n        /* \"#utility.yul\":11848:11851   */\n      dup3\n        /* \"#utility.yul\":11844:11858   */\n      add\n        /* \"#utility.yul\":11836:11858   */\n      swap1\n      pop\n        /* \"#utility.yul\":11723:11865   */\n      swap2\n      swap1\n      pop\n      jump\t// out\n        /* \"#utility.yul\":11871:12030   */\n    tag_202:\n        /* \"#utility.yul\":11945:11956   */\n      0x00\n        /* \"#utility.yul\":11979:11985   */\n      dup3\n        /* \"#utility.yul\":11974:11977   */\n      dup3\n        /* \"#utility.yul\":11967:11986   */\n      mstore\n        /* \"#utility.yul\":12019:12023   */\n      0x20\n        /* \"#utility.yul\":12014:12017   */\n      dup3\n        /* \"#utility.yul\":12010:12024   */\n      add\n        /* \"#utility.yul\":11995:12024   */\n      swap1\n      pop\n        /* \"#utility.yul\":11871:12030   */\n      swap3\n      swap2\n      pop\n      pop\n      jump\t// out\n        /* \"#utility.yul\":12036:12393   */\n    tag_203:\n        /* \"#utility.yul\":12114:12117   */\n      0x00\n        /* \"#utility.yul\":12142:12181   */\n      tag_352\n        /* \"#utility.yul\":12175:12180   */\n      dup3\n        /* \"#utility.yul\":12142:12181   */\n      tag_171\n      jump\t// in\n    tag_352:\n        /* \"#utility.yul\":12197:12258   */\n      tag_353\n        /* \"#utility.yul\":12251:12257   */\n      dup2\n        /* \"#utility.yul\":12246:12249   */\n      dup6\n        /* \"#utility.yul\":12197:12258   */\n      tag_202\n      jump\t// in\n    tag_353:\n        /* \"#utility.yul\":12190:12258   */\n      swap4\n      pop\n        /* \"#utility.yul\":12267:12332   */\n      tag_354\n        /* \"#utility.yul\":12325:12331   */\n      dup2\n        /* \"#utility.yul\":12320:12323   */\n      dup6\n        /* \"#utility.yul\":12313:12317   */\n      0x20\n        /* \"#utility.yul\":12306:12311   */\n      dup7\n        /* \"#utility.yul\":12302:12318   */\n      add\n        /* \"#utility.yul\":12267:12332   */\n      tag_173\n      jump\t// in\n    tag_354:\n        /* \"#utility.yul\":12357:12386   */\n      tag_355\n        /* \"#utility.yul\":12379:12385   */\n      dup2\n        /* \"#utility.yul\":12357:12386   */\n      tag_174\n      jump\t// in\n    tag_355:\n        /* \"#utility.yul\":12352:12355   */\n      dup5\n        /* \"#utility.yul\":12348:12387   */\n      add\n        /* \"#utility.yul\":12341:12387   */\n      swap2\n      pop\n        /* \"#utility.yul\":12118:12393   */\n      pop\n        /* \"#utility.yul\":12036:12393   */\n      swap3\n      swap2\n      pop\n      pop\n      jump\t// out\n        /* \"#utility.yul\":12399:12595   */\n    tag_204:\n        /* \"#utility.yul\":12488:12498   */\n      0x00\n        /* \"#utility.yul\":12523:12589   */\n      tag_357\n        /* \"#utility.yul\":12585:12588   */\n      dup4\n        /* \"#utility.yul\":12577:12583   */\n      dup4\n        /* \"#utility.yul\":12523:12589   */\n      tag_203\n      jump\t// in\n    tag_357:\n        /* \"#utility.yul\":12509:12589   */\n      swap1\n      pop\n        /* \"#utility.yul\":12399:12595   */\n      swap3\n      swap2\n      pop\n      pop\n      jump\t// out\n        /* \"#utility.yul\":12601:12724   */\n    tag_205:\n        /* \"#utility.yul\":12681:12685   */\n      0x00\n        /* \"#utility.yul\":12713:12717   */\n      0x20\n        /* \"#utility.yul\":12708:12711   */\n      dup3\n        /* \"#utility.yul\":12704:12718   */\n      add\n        /* \"#utility.yul\":12696:12718   */\n      swap1\n      pop\n        /* \"#utility.yul\":12601:12724   */\n      swap2\n      swap1\n      pop\n      jump\t// out\n        /* \"#utility.yul\":12758:13749   */\n    tag_206:\n        /* \"#utility.yul\":12897:12900   */\n      0x00\n        /* \"#utility.yul\":12926:12990   */\n      tag_360\n        /* \"#utility.yul\":12984:12989   */\n      dup3\n        /* \"#utility.yul\":12926:12990   */\n      tag_199\n      jump\t// in\n    tag_360:\n        /* \"#utility.yul\":13006:13102   */\n      tag_361\n        /* \"#utility.yul\":13095:13101   */\n      dup2\n        /* \"#utility.yul\":13090:13093   */\n      dup6\n        /* \"#utility.yul\":13006:13102   */\n      tag_200\n      jump\t// in\n    tag_361:\n        /* \"#utility.yul\":12999:13102   */\n      swap4\n      pop\n        /* \"#utility.yul\":13128:13131   */\n      dup4\n        /* \"#utility.yul\":13173:13177   */\n      0x20\n        /* \"#utility.yul\":13165:13171   */\n      dup3\n        /* \"#utility.yul\":13161:13178   */\n      mul\n        /* \"#utility.yul\":13156:13159   */\n      dup6\n        /* \"#utility.yul\":13152:13179   */\n      add\n        /* \"#utility.yul\":13203:13269   */\n      tag_362\n        /* \"#utility.yul\":13263:13268   */\n      dup6\n        /* \"#utility.yul\":13203:13269   */\n      tag_201\n      jump\t// in\n    tag_362:\n        /* \"#utility.yul\":13292:13299   */\n      dup1\n        /* \"#utility.yul\":13323:13324   */\n      0x00\n        /* \"#utility.yul\":13308:13704   */\n    tag_363:\n        /* \"#utility.yul\":13333:13339   */\n      dup6\n        /* \"#utility.yul\":13330:13331   */\n      dup2\n        /* \"#utility.yul\":13327:13340   */\n      lt\n        /* \"#utility.yul\":13308:13704   */\n      iszero\n      tag_365\n      jumpi\n        /* \"#utility.yul\":13404:13413   */\n      dup5\n        /* \"#utility.yul\":13398:13402   */\n      dup5\n        /* \"#utility.yul\":13394:13414   */\n      sub\n        /* \"#utility.yul\":13389:13392   */\n      dup10\n        /* \"#utility.yul\":13382:13415   */\n      mstore\n        /* \"#utility.yul\":13455:13461   */\n      dup2\n        /* \"#utility.yul\":13449:13462   */\n      mload\n        /* \"#utility.yul\":13483:13567   */\n      tag_366\n        /* \"#utility.yul\":13562:13566   */\n      dup6\n        /* \"#utility.yul\":13547:13560   */\n      dup3\n        /* \"#utility.yul\":13483:13567   */\n      tag_204\n      jump\t// in\n    tag_366:\n        /* \"#utility.yul\":13475:13567   */\n      swap5\n      pop\n        /* \"#utility.yul\":13590:13660   */\n      tag_367\n        /* \"#utility.yul\":13653:13659   */\n      dup4\n        /* \"#utility.yul\":13590:13660   */\n      tag_205\n      jump\t// in\n    tag_367:\n        /* \"#utility.yul\":13580:13660   */\n      swap3\n      pop\n        /* \"#utility.yul\":13689:13693   */\n      0x20\n        /* \"#utility.yul\":13684:13687   */\n      dup11\n        /* \"#utility.yul\":13680:13694   */\n      add\n        /* \"#utility.yul\":13673:13694   */\n      swap10\n      pop\n        /* \"#utility.yul\":13368:13704   */\n      pop\n        /* \"#utility.yul\":13355:13356   */\n      0x01\n        /* \"#utility.yul\":13352:13353   */\n      dup2\n        /* \"#utility.yul\":13348:13357   */\n      add\n        /* \"#utility.yul\":13343:13357   */\n      swap1\n      pop\n        /* \"#utility.yul\":13308:13704   */\n      jump(tag_363)\n    tag_365:\n        /* \"#utility.yul\":13312:13326   */\n      pop\n        /* \"#utility.yul\":13720:13724   */\n      dup3\n        /* \"#utility.yul\":13713:13724   */\n      swap8\n      pop\n        /* \"#utility.yul\":13740:13743   */\n      dup8\n        /* \"#utility.yul\":13733:13743   */\n      swap6\n      pop\n        /* \"#utility.yul\":12902:13749   */\n      pop\n      pop\n      pop\n      pop\n      pop\n        /* \"#utility.yul\":12758:13749   */\n      swap3\n      swap2\n      pop\n      pop\n      jump\t// out\n        /* \"#utility.yul\":13755:14168   */\n    tag_46:\n        /* \"#utility.yul\":13918:13922   */\n      0x00\n        /* \"#utility.yul\":13956:13958   */\n      0x20\n        /* \"#utility.yul\":13945:13954   */\n      dup3\n        /* \"#utility.yul\":13941:13959   */\n      add\n        /* \"#utility.yul\":13933:13959   */\n      swap1\n      pop\n        /* \"#utility.yul\":14005:14014   */\n      dup2\n        /* \"#utility.yul\":13999:14003   */\n      dup2\n        /* \"#utility.yul\":13995:14015   */\n      sub\n        /* \"#utility.yul\":13991:13992   */\n      0x00\n        /* \"#utility.yul\":13980:13989   */\n      dup4\n        /* \"#utility.yul\":13976:13993   */\n      add\n        /* \"#utility.yul\":13969:14016   */\n      mstore\n        /* \"#utility.yul\":14033:14161   */\n      tag_369\n        /* \"#utility.yul\":14156:14160   */\n      dup2\n        /* \"#utility.yul\":14147:14153   */\n      dup5\n        /* \"#utility.yul\":14033:14161   */\n      tag_206\n      jump\t// in\n    tag_369:\n        /* \"#utility.yul\":14025:14161   */\n      swap1\n      pop\n        /* \"#utility.yul\":13755:14168   */\n      swap3\n      swap2\n      pop\n      pop\n      jump\t// out\n        /* \"#utility.yul\":14174:14828   */\n    tag_55:\n        /* \"#utility.yul\":14252:14258   */\n      0x00\n        /* \"#utility.yul\":14260:14266   */\n      0x00\n        /* \"#utility.yul\":14309:14311   */\n      0x40\n        /* \"#utility.yul\":14297:14306   */\n      dup4\n        /* \"#utility.yul\":14288:14295   */\n      dup6\n        /* \"#utility.yul\":14284:14307   */\n      sub\n        /* \"#utility.yul\":14280:14312   */\n      slt\n        /* \"#utility.yul\":14277:14396   */\n      iszero\n      tag_371\n      jumpi\n        /* \"#utility.yul\":14315:14394   */\n      tag_372\n      tag_165\n      jump\t// in\n    tag_372:\n        /* \"#utility.yul\":14277:14396   */\n    tag_371:\n        /* \"#utility.yul\":14435:14436   */\n      0x00\n        /* \"#utility.yul\":14460:14513   */\n      tag_373\n        /* \"#utility.yul\":14505:14512   */\n      dup6\n        /* \"#utility.yul\":14496:14502   */\n      dup3\n        /* \"#utility.yul\":14485:14494   */\n      dup7\n        /* \"#utility.yul\":14481:14503   */\n      add\n        /* \"#utility.yul\":14460:14513   */\n      tag_170\n      jump\t// in\n    tag_373:\n        /* \"#utility.yul\":14450:14513   */\n      swap3\n      pop\n        /* \"#utility.yul\":14406:14523   */\n      pop\n        /* \"#utility.yul\":14590:14592   */\n      0x20\n        /* \"#utility.yul\":14579:14588   */\n      dup4\n        /* \"#utility.yul\":14575:14593   */\n      add\n        /* \"#utility.yul\":14562:14594   */\n      calldataload\n        /* \"#utility.yul\":14621:14639   */\n      0xffffffffffffffff\n        /* \"#utility.yul\":14613:14619   */\n      dup2\n        /* \"#utility.yul\":14610:14640   */\n      gt\n        /* \"#utility.yul\":14607:14724   */\n      iszero\n      tag_374\n      jumpi\n        /* \"#utility.yul\":14643:14722   */\n      tag_375\n      tag_166\n      jump\t// in\n    tag_375:\n        /* \"#utility.yul\":14607:14724   */\n    tag_374:\n        /* \"#utility.yul\":14748:14811   */\n      tag_376\n        /* \"#utility.yul\":14803:14810   */\n      dup6\n        /* \"#utility.yul\":14794:14800   */\n      dup3\n        /* \"#utility.yul\":14783:14792   */\n      dup7\n        /* \"#utility.yul\":14779:14801   */\n      add\n        /* \"#utility.yul\":14748:14811   */\n      tag_193\n      jump\t// in\n    tag_376:\n        /* \"#utility.yul\":14738:14811   */\n      swap2\n      pop\n        /* \"#utility.yul\":14533:14821   */\n      pop\n        /* \"#utility.yul\":14174:14828   */\n      swap3\n      pop\n      swap3\n      swap1\n      pop\n      jump\t// out\n        /* \"#utility.yul\":14834:16155   */\n    tag_61:\n        /* \"#utility.yul\":15187:15191   */\n      0x00\n        /* \"#utility.yul\":15225:15228   */\n      0xc0\n        /* \"#utility.yul\":15214:15223   */\n      dup3\n        /* \"#utility.yul\":15210:15229   */\n      add\n        /* \"#utility.yul\":15202:15229   */\n      swap1\n      pop\n        /* \"#utility.yul\":15275:15284   */\n      dup2\n        /* \"#utility.yul\":15269:15273   */\n      dup2\n        /* \"#utility.yul\":15265:15285   */\n      sub\n        /* \"#utility.yul\":15261:15262   */\n      0x00\n        /* \"#utility.yul\":15250:15259   */\n      dup4\n        /* \"#utility.yul\":15246:15263   */\n      add\n        /* \"#utility.yul\":15239:15286   */\n      mstore\n        /* \"#utility.yul\":15303:15381   */\n      tag_378\n        /* \"#utility.yul\":15376:15380   */\n      dup2\n        /* \"#utility.yul\":15367:15373   */\n      dup10\n        /* \"#utility.yul\":15303:15381   */\n      tag_175\n      jump\t// in\n    tag_378:\n        /* \"#utility.yul\":15295:15381   */\n      swap1\n      pop\n        /* \"#utility.yul\":15428:15437   */\n      dup2\n        /* \"#utility.yul\":15422:15426   */\n      dup2\n        /* \"#utility.yul\":15418:15438   */\n      sub\n        /* \"#utility.yul\":15413:15415   */\n      0x20\n        /* \"#utility.yul\":15402:15411   */\n      dup4\n        /* \"#utility.yul\":15398:15416   */\n      add\n        /* \"#utility.yul\":15391:15439   */\n      mstore\n        /* \"#utility.yul\":15456:15534   */\n      tag_379\n        /* \"#utility.yul\":15529:15533   */\n      dup2\n        /* \"#utility.yul\":15520:15526   */\n      dup9\n        /* \"#utility.yul\":15456:15534   */\n      tag_175\n      jump\t// in\n    tag_379:\n        /* \"#utility.yul\":15448:15534   */\n      swap1\n      pop\n        /* \"#utility.yul\":15581:15590   */\n      dup2\n        /* \"#utility.yul\":15575:15579   */\n      dup2\n        /* \"#utility.yul\":15571:15591   */\n      sub\n        /* \"#utility.yul\":15566:15568   */\n      0x40\n        /* \"#utility.yul\":15555:15564   */\n      dup4\n        /* \"#utility.yul\":15551:15569   */\n      add\n        /* \"#utility.yul\":15544:15592   */\n      mstore\n        /* \"#utility.yul\":15609:15687   */\n      tag_380\n        /* \"#utility.yul\":15682:15686   */\n      dup2\n        /* \"#utility.yul\":15673:15679   */\n      dup8\n        /* \"#utility.yul\":15609:15687   */\n      tag_175\n      jump\t// in\n    tag_380:\n        /* \"#utility.yul\":15601:15687   */\n      swap1\n      pop\n        /* \"#utility.yul\":15734:15743   */\n      dup2\n        /* \"#utility.yul\":15728:15732   */\n      dup2\n        /* \"#utility.yul\":15724:15744   */\n      sub\n        /* \"#utility.yul\":15719:15721   */\n      0x60\n        /* \"#utility.yul\":15708:15717   */\n      dup4\n        /* \"#utility.yul\":15704:15722   */\n      add\n        /* \"#utility.yul\":15697:15745   */\n      mstore\n        /* \"#utility.yul\":15762:15840   */\n      tag_381\n        /* \"#utility.yul\":15835:15839   */\n      dup2\n        /* \"#utility.yul\":15826:15832   */\n      dup7\n        /* \"#utility.yul\":15762:15840   */\n      tag_175\n      jump\t// in\n    tag_381:\n        /* \"#utility.yul\":15754:15840   */\n      swap1\n      pop\n        /* \"#utility.yul\":15888:15897   */\n      dup2\n        /* \"#utility.yul\":15882:15886   */\n      dup2\n        /* \"#utility.yul\":15878:15898   */\n      sub\n        /* \"#utility.yul\":15872:15875   */\n      0x80\n        /* \"#utility.yul\":15861:15870   */\n      dup4\n        /* \"#utility.yul\":15857:15876   */\n      add\n        /* \"#utility.yul\":15850:15899   */\n      mstore\n        /* \"#utility.yul\":15916:15994   */\n      tag_382\n        /* \"#utility.yul\":15989:15993   */\n      dup2\n        /* \"#utility.yul\":15980:15986   */\n      dup6\n        /* \"#utility.yul\":15916:15994   */\n      tag_175\n      jump\t// in\n    tag_382:\n        /* \"#utility.yul\":15908:15994   */\n      swap1\n      pop\n        /* \"#utility.yul\":16042:16051   */\n      dup2\n        /* \"#utility.yul\":16036:16040   */\n      dup2\n        /* \"#utility.yul\":16032:16052   */\n      sub\n        /* \"#utility.yul\":16026:16029   */\n      0xa0\n        /* \"#utility.yul\":16015:16024   */\n      dup4\n        /* \"#utility.yul\":16011:16030   */\n      add\n        /* \"#utility.yul\":16004:16053   */\n      mstore\n        /* \"#utility.yul\":16070:16148   */\n      tag_383\n        /* \"#utility.yul\":16143:16147   */\n      dup2\n        /* \"#utility.yul\":16134:16140   */\n      dup5\n        /* \"#utility.yul\":16070:16148   */\n      tag_175\n      jump\t// in\n    tag_383:\n        /* \"#utility.yul\":16062:16148   */\n      swap1\n      pop\n        /* \"#utility.yul\":14834:16155   */\n      swap8\n      swap7\n      pop\n      pop\n      pop\n      pop\n      pop\n      pop\n      pop\n      jump\t// out\n        /* \"#utility.yul\":16161:16341   */\n    tag_207:\n        /* \"#utility.yul\":16209:16286   */\n      0x4e487b7100000000000000000000000000000000000000000000000000000000\n        /* \"#utility.yul\":16206:16207   */\n      0x00\n        /* \"#utility.yul\":16199:16287   */\n      mstore\n        /* \"#utility.yul\":16306:16310   */\n      0x22\n        /* \"#utility.yul\":16303:16304   */\n      0x04\n        /* \"#utility.yul\":16296:16311   */\n      mstore\n        /* \"#utility.yul\":16330:16334   */\n      0x24\n        /* \"#utility.yul\":16327:16328   */\n      0x00\n        /* \"#utility.yul\":16320:16335   */\n      revert\n        /* \"#utility.yul\":16347:16667   */\n    tag_63:\n        /* \"#utility.yul\":16391:16397   */\n      0x00\n        /* \"#utility.yul\":16428:16429   */\n      0x02\n        /* \"#utility.yul\":16422:16426   */\n      dup3\n        /* \"#utility.yul\":16418:16430   */\n      div\n        /* \"#utility.yul\":16408:16430   */\n      swap1\n      pop\n        /* \"#utility.yul\":16475:16476   */\n      0x01\n        /* \"#utility.yul\":16469:16473   */\n      dup3\n        /* \"#utility.yul\":16465:16477   */\n      and\n        /* \"#utility.yul\":16496:16514   */\n      dup1\n        /* \"#utility.yul\":16486:16567   */\n      tag_386\n      jumpi\n        /* \"#utility.yul\":16552:16556   */\n      0x7f\n        /* \"#utility.yul\":16544:16550   */\n      dup3\n        /* \"#utility.yul\":16540:16557   */\n      and\n        /* \"#utility.yul\":16530:16557   */\n      swap2\n      pop\n        /* \"#utility.yul\":16486:16567   */\n    tag_386:\n        /* \"#utility.yul\":16614:16616   */\n      0x20\n        /* \"#utility.yul\":16606:16612   */\n      dup3\n        /* \"#utility.yul\":16603:16617   */\n      lt\n        /* \"#utility.yul\":16583:16601   */\n      dup2\n        /* \"#utility.yul\":16580:16618   */\n      sub\n        /* \"#utility.yul\":16577:16661   */\n      tag_387\n      jumpi\n        /* \"#utility.yul\":16633:16651   */\n      tag_388\n      tag_207\n      jump\t// in\n    tag_388:\n        /* \"#utility.yul\":16577:16661   */\n    tag_387:\n        /* \"#utility.yul\":16398:16667   */\n      pop\n        /* \"#utility.yul\":16347:16667   */\n      swap2\n      swap1\n      pop\n      jump\t// out\n        /* \"#utility.yul\":16673:16841   */\n    tag_208:\n        /* \"#utility.yul\":16813:16833   */\n      0x416c726561647920726567697374657265640000000000000000000000000000\n        /* \"#utility.yul\":16809:16810   */\n      0x00\n        /* \"#utility.yul\":16801:16807   */\n      dup3\n        /* \"#utility.yul\":16797:16811   */\n      add\n        /* \"#utility.yul\":16790:16834   */\n      mstore\n        /* \"#utility.yul\":16673:16841   */\n      pop\n      jump\t// out\n        /* \"#utility.yul\":16847:17213   */\n    tag_209:\n        /* \"#utility.yul\":16989:16992   */\n      0x00\n        /* \"#utility.yul\":17010:17077   */\n      tag_391\n        /* \"#utility.yul\":17074:17076   */\n      0x12\n        /* \"#utility.yul\":17069:17072   */\n      dup4\n        /* \"#utility.yul\":17010:17077   */\n      tag_172\n      jump\t// in\n    tag_391:\n        /* \"#utility.yul\":17003:17077   */\n      swap2\n      pop\n        /* \"#utility.yul\":17086:17179   */\n      tag_392\n        /* \"#utility.yul\":17175:17178   */\n      dup3\n        /* \"#utility.yul\":17086:17179   */\n      tag_208\n      jump\t// in\n    tag_392:\n        /* \"#utility.yul\":17204:17206   */\n      0x20\n        /* \"#utility.yul\":17199:17202   */\n      dup3\n        /* \"#utility.yul\":17195:17207   */\n      add\n        /* \"#utility.yul\":17188:17207   */\n      swap1\n      pop\n        /* \"#utility.yul\":16847:17213   */\n      swap2\n      swap1\n      pop\n      jump\t// out\n        /* \"#utility.yul\":17219:17638   */\n    tag_99:\n        /* \"#utility.yul\":17385:17389   */\n      0x00\n        /* \"#utility.yul\":17423:17425   */\n      0x20\n        /* \"#utility.yul\":17412:17421   */\n      dup3\n        /* \"#utility.yul\":17408:17426   */\n      add\n        /* \"#utility.yul\":17400:17426   */\n      swap1\n      pop\n        /* \"#utility.yul\":17472:17481   */\n      dup2\n        /* \"#utility.yul\":17466:17470   */\n      dup2\n        /* \"#utility.yul\":17462:17482   */\n      sub\n        /* \"#utility.yul\":17458:17459   */\n      0x00\n        /* \"#utility.yul\":17447:17456   */\n      dup4\n        /* \"#utility.yul\":17443:17460   */\n      add\n        /* \"#utility.yul\":17436:17483   */\n      mstore\n        /* \"#utility.yul\":17500:17631   */\n      tag_394\n        /* \"#utility.yul\":17626:17630   */\n      dup2\n        /* \"#utility.yul\":17500:17631   */\n      tag_209\n      jump\t// in\n    tag_394:\n        /* \"#utility.yul\":17492:17631   */\n      swap1\n      pop\n        /* \"#utility.yul\":17219:17638   */\n      swap2\n      swap1\n      pop\n      jump\t// out\n        /* \"#utility.yul\":17644:17785   */\n    tag_210:\n        /* \"#utility.yul\":17693:17697   */\n      0x00\n        /* \"#utility.yul\":17716:17719   */\n      dup2\n        /* \"#utility.yul\":17708:17719   */\n      swap1\n      pop\n        /* \"#utility.yul\":17739:17742   */\n      dup2\n        /* \"#utility.yul\":17736:17737   */\n      0x00\n        /* \"#utility.yul\":17729:17743   */\n      mstore\n        /* \"#utility.yul\":17773:17777   */\n      0x20\n        /* \"#utility.yul\":17770:17771   */\n      0x00\n        /* \"#utility.yul\":17760:17778   */\n      keccak256\n        /* \"#utility.yul\":17752:17778   */\n      swap1\n      pop\n        /* \"#utility.yul\":17644:17785   */\n      swap2\n      swap1\n      pop\n      jump\t// out\n        /* \"#utility.yul\":17791:17884   */\n    tag_211:\n        /* \"#utility.yul\":17828:17834   */\n      0x00\n        /* \"#utility.yul\":17875:17877   */\n      0x20\n        /* \"#utility.yul\":17870:17872   */\n      0x1f\n        /* \"#utility.yul\":17863:17868   */\n      dup4\n        /* \"#utility.yul\":17859:17873   */\n      add\n        /* \"#utility.yul\":17855:17878   */\n      div\n        /* \"#utility.yul\":17845:17878   */\n      swap1\n      pop\n        /* \"#utility.yul\":17791:17884   */\n      swap2\n      swap1\n      pop\n      jump\t// out\n        /* \"#utility.yul\":17890:17997   */\n    tag_212:\n        /* \"#utility.yul\":17934:17942   */\n      0x00\n        /* \"#utility.yul\":17984:17989   */\n      dup3\n        /* \"#utility.yul\":17978:17982   */\n      dup3\n        /* \"#utility.yul\":17974:17990   */\n      shl\n        /* \"#utility.yul\":17953:17990   */\n      swap1\n      pop\n        /* \"#utility.yul\":17890:17997   */\n      swap3\n      swap2\n      pop\n      pop\n      jump\t// out\n        /* \"#utility.yul\":18003:18396   */\n    tag_213:\n        /* \"#utility.yul\":18072:18078   */\n      0x00\n        /* \"#utility.yul\":18122:18123   */\n      0x08\n        /* \"#utility.yul\":18110:18120   */\n      dup4\n        /* \"#utility.yul\":18106:18124   */\n      mul\n        /* \"#utility.yul\":18145:18242   */\n      tag_399\n        /* \"#utility.yul\":18175:18241   */\n      0xffffffffffffffffffffffffffffffffffffffffffffffffffffffffffffffff\n        /* \"#utility.yul\":18164:18173   */\n      dup3\n        /* \"#utility.yul\":18145:18242   */\n      tag_212\n      jump\t// in\n    tag_399:\n        /* \"#utility.yul\":18263:18302   */\n      tag_400\n        /* \"#utility.yul\":18293:18301   */\n      dup7\n        /* \"#utility.yul\":18282:18291   */\n      dup4\n        /* \"#utility.yul\":18263:18302   */\n      tag_212\n      jump\t// in\n    tag_400:\n        /* \"#utility.yul\":18251:18302   */\n      swap6\n      pop\n        /* \"#utility.yul\":18335:18339   */\n      dup1\n        /* \"#utility.yul\":18331:18340   */\n      not\n        /* \"#utility.yul\":18324:18329   */\n      dup5\n        /* \"#utility.yul\":18320:18341   */\n      and\n        /* \"#utility.yul\":18311:18341   */\n      swap4\n      pop\n        /* \"#utility.yul\":18384:18388   */\n      dup1\n        /* \"#utility.yul\":18374:18382   */\n      dup7\n        /* \"#utility.yul\":18370:18389   */\n      and\n        /* \"#utility.yul\":18363:18368   */\n      dup5\n        /* \"#utility.yul\":18360:18390   */\n      or\n        /* \"#utility.yul\":18350:18390   */\n      swap3\n      pop\n        /* \"#utility.yul\":18079:18396   */\n      pop\n      pop\n        /* \"#utility.yul\":18003:18396   */\n      swap4\n      swap3\n      pop\n      pop\n      pop\n      jump\t// out\n        /* \"#utility.yul\":18402:18462   */\n    tag_214:\n        /* \"#utility.yul\":18430:18433   */\n      0x00\n        /* \"#utility.yul\":18451:18456   */\n      dup2\n        /* \"#utility.yul\":18444:18456   */\n      swap1\n      pop\n        /* \"#utility.yul\":18402:18462   */\n      swap2\n      swap1\n      pop\n      jump\t// out\n        /* \"#utility.yul\":18468:18610   */\n    tag_215:\n        /* \"#utility.yul\":18518:18527   */\n      0x00\n        /* \"#utility.yul\":18551:18604   */\n      tag_403\n        /* \"#utility.yul\":18569:18603   */\n      tag_404\n        /* \"#utility.yul\":18578:18602   */\n      tag_405\n        /* \"#utility.yul\":18596:18601   */\n      dup5\n        /* \"#utility.yul\":18578:18602   */\n      tag_194\n      jump\t// in\n    tag_405:\n        /* \"#utility.yul\":18569:18603   */\n      tag_214\n      jump\t// in\n    tag_404:\n        /* \"#utility.yul\":18551:18604   */\n      tag_194\n      jump\t// in\n    tag_403:\n        /* \"#utility.yul\":18538:18604   */\n      swap1\n      pop\n        /* \"#utility.yul\":18468:18610   */\n      swap2\n      swap1\n      pop\n      jump\t// out\n        /* \"#utility.yul\":18616:18691   */\n    tag_216:\n        /* \"#utility.yul\":18659:18662   */\n      0x00\n        /* \"#utility.yul\":18680:18685   */\n      dup2\n        /* \"#utility.yul\":18673:18685   */\n      swap1\n      pop\n        /* \"#utility.yul\":18616:18691   */\n      swap2\n      swap1\n      pop\n      jump\t// out\n        /* \"#utility.yul\":18697:18966   */\n    tag_217:\n        /* \"#utility.yul\":18807:18846   */\n      tag_408\n        /* \"#utility.yul\":18838:18845   */\n      dup4\n        /* \"#utility.yul\":18807:18846   */\n      tag_215\n      jump\t// in\n    tag_408:\n        /* \"#utility.yul\":18868:18959   */\n      tag_409\n        /* \"#utility.yul\":18917:18958   */\n      tag_410\n        /* \"#utility.yul\":18941:18957   */\n      dup3\n        /* \"#utility.yul\":18917:18958   */\n      tag_216\n      jump\t// in\n    tag_410:\n        /* \"#utility.yul\":18909:18915   */\n      dup5\n        /* \"#utility.yul\":18902:18906   */\n      dup5\n        /* \"#utility.yul\":18896:18907   */\n      sload\n        /* \"#utility.yul\":18868:18959   */\n      tag_213\n      jump\t// in\n    tag_409:\n        /* \"#utility.yul\":18862:18866   */\n      dup3\n        /* \"#utility.yul\":18855:18960   */\n      sstore\n        /* \"#utility.yul\":18773:18966   */\n      pop\n        /* \"#utility.yul\":18697:18966   */\n      pop\n      pop\n      pop\n      jump\t// out\n        /* \"#utility.yul\":18972:19045   */\n    tag_218:\n        /* \"#utility.yul\":19017:19020   */\n      0x00\n        /* \"#utility.yul\":19038:19039   */\n      0x00\n        /* \"#utility.yul\":19031:19039   */\n      swap1\n      pop\n        /* \"#utility.yul\":18972:19045   */\n      swap1\n      jump\t// out\n        /* \"#utility.yul\":19051:19240   */\n    tag_219:\n        /* \"#utility.yul\":19128:19160   */\n      tag_413\n      tag_218\n      jump\t// in\n    tag_413:\n        /* \"#utility.yul\":19169:19234   */\n      tag_414\n        /* \"#utility.yul\":19227:19233   */\n      dup2\n        /* \"#utility.yul\":19219:19225   */\n      dup5\n        /* \"#utility.yul\":19213:19217   */\n      dup5\n        /* \"#utility.yul\":19169:19234   */\n      tag_217\n      jump\t// in\n    tag_414:\n        /* \"#utility.yul\":19104:19240   */\n      pop\n        /* \"#utility.yul\":19051:19240   */\n      pop\n      pop\n      jump\t// out\n        /* \"#utility.yul\":19246:19432   */\n    tag_220:\n        /* \"#utility.yul\":19306:19426   */\n    tag_416:\n        /* \"#utility.yul\":19323:19326   */\n      dup2\n        /* \"#utility.yul\":19316:19321   */\n      dup2\n        /* \"#utility.yul\":19313:19327   */\n      lt\n        /* \"#utility.yul\":19306:19426   */\n      iszero\n      tag_418\n      jumpi\n        /* \"#utility.yul\":19377:19416   */\n      tag_419\n        /* \"#utility.yul\":19414:19415   */\n      0x00\n        /* \"#utility.yul\":19407:19412   */\n      dup3\n        /* \"#utility.yul\":19377:19416   */\n      tag_219\n      jump\t// in\n    tag_419:\n        /* \"#utility.yul\":19350:19351   */\n      0x01\n        /* \"#utility.yul\":19343:19348   */\n      dup2\n        /* \"#utility.yul\":19339:19352   */\n      add\n        /* \"#utility.yul\":19330:19352   */\n      swap1\n      pop\n        /* \"#utility.yul\":19306:19426   */\n      jump(tag_416)\n    tag_418:\n        /* \"#utility.yul\":19246:19432   */\n      pop\n      pop\n      jump\t// out\n        /* \"#utility.yul\":19438:19981   */\n    tag_221:\n        /* \"#utility.yul\":19539:19541   */\n      0x1f\n        /* \"#utility.yul\":19534:19537   */\n      dup3\n        /* \"#utility.yul\":19531:19542   */\n      gt\n        /* \"#utility.yul\":19528:19974   */\n      iszero\n      tag_421\n      jumpi\n        /* \"#utility.yul\":19573:19611   */\n      tag_422\n        /* \"#utility.yul\":19605:19610   */\n      dup2\n        /* \"#utility.yul\":19573:19611   */\n      tag_210\n      jump\t// in\n    tag_422:\n        /* \"#utility.yul\":19657:19686   */\n      tag_423\n        /* \"#utility.yul\":19675:19685   */\n      dup5\n        /* \"#utility.yul\":19657:19686   */\n      tag_211\n      jump\t// in\n    tag_423:\n        /* \"#utility.yul\":19647:19655   */\n      dup2\n        /* \"#utility.yul\":19643:19687   */\n      add\n        /* \"#utility.yul\":19840:19842   */\n      0x20\n        /* \"#utility.yul\":19828:19838   */\n      dup6\n        /* \"#utility.yul\":19825:19843   */\n      lt\n        /* \"#utility.yul\":19822:19871   */\n      iszero\n      tag_424\n      jumpi\n        /* \"#utility.yul\":19861:19869   */\n      dup2\n        /* \"#utility.yul\":19846:19869   */\n      swap1\n      pop\n        /* \"#utility.yul\":19822:19871   */\n    tag_424:\n        /* \"#utility.yul\":19884:19964   */\n      tag_425\n        /* \"#utility.yul\":19940:19962   */\n      tag_426\n        /* \"#utility.yul\":19958:19961   */\n      dup6\n        /* \"#utility.yul\":19940:19962   */\n      tag_211\n      jump\t// in\n    tag_426:\n        /* \"#utility.yul\":19930:19938   */\n      dup4\n        /* \"#utility.yul\":19926:19963   */\n      add\n        /* \"#utility.yul\":19913:19924   */\n      dup3\n        /* \"#utility.yul\":19884:19964   */\n      tag_220\n      jump\t// in\n    tag_425:\n        /* \"#utility.yul\":19543:19974   */\n      pop\n      pop\n        /* \"#utility.yul\":19528:19974   */\n    tag_421:\n        /* \"#utility.yul\":19438:19981   */\n      pop\n      pop\n      pop\n      jump\t// out\n        /* \"#utility.yul\":19987:20104   */\n    tag_222:\n        /* \"#utility.yul\":20041:20049   */\n      0x00\n        /* \"#utility.yul\":20091:20096   */\n      dup3\n        /* \"#utility.yul\":20085:20089   */\n      dup3\n        /* \"#utility.yul\":20081:20097   */\n      shr\n        /* \"#utility.yul\":20060:20097   */\n      swap1\n      pop\n        /* \"#utility.yul\":19987:20104   */\n      swap3\n      swap2\n      pop\n      pop\n      jump\t// out\n        /* \"#utility.yul\":20110:20279   */\n    tag_223:\n        /* \"#utility.yul\":20154:20160   */\n      0x00\n        /* \"#utility.yul\":20187:20238   */\n      tag_429\n        /* \"#utility.yul\":20235:20236   */\n      0x00\n        /* \"#utility.yul\":20231:20237   */\n      not\n        /* \"#utility.yul\":20223:20228   */\n      dup5\n        /* \"#utility.yul\":20220:20221   */\n      0x08\n        /* \"#utility.yul\":20216:20229   */\n      mul\n        /* \"#utility.yul\":20187:20238   */\n      tag_222\n      jump\t// in\n    tag_429:\n        /* \"#utility.yul\":20183:20239   */\n      not\n        /* \"#utility.yul\":20268:20272   */\n      dup1\n        /* \"#utility.yul\":20262:20266   */\n      dup4\n        /* \"#utility.yul\":20258:20273   */\n      and\n        /* \"#utility.yul\":20248:20273   */\n      swap2\n      pop\n        /* \"#utility.yul\":20161:20279   */\n      pop\n        /* \"#utility.yul\":20110:20279   */\n      swap3\n      swap2\n      pop\n      pop\n      jump\t// out\n        /* \"#utility.yul\":20284:20579   */\n    tag_224:\n        /* \"#utility.yul\":20360:20364   */\n      0x00\n        /* \"#utility.yul\":20506:20535   */\n      tag_431\n        /* \"#utility.yul\":20531:20534   */\n      dup4\n        /* \"#utility.yul\":20525:20529   */\n      dup4\n        /* \"#utility.yul\":20506:20535   */\n      tag_223\n      jump\t// in\n    tag_431:\n        /* \"#utility.yul\":20498:20535   */\n      swap2\n      pop\n        /* \"#utility.yul\":20568:20571   */\n      dup3\n        /* \"#utility.yul\":20565:20566   */\n      0x02\n        /* \"#utility.yul\":20561:20572   */\n      mul\n        /* \"#utility.yul\":20555:20559   */\n      dup3\n        /* \"#utility.yul\":20552:20573   */\n      or\n        /* \"#utility.yul\":20544:20573   */\n      swap1\n      pop\n        /* \"#utility.yul\":20284:20579   */\n      swap3\n      swap2\n      pop\n      pop\n      jump\t// out\n        /* \"#utility.yul\":20584:21979   */\n    tag_101:\n        /* \"#utility.yul\":20701:20738   */\n      tag_433\n        /* \"#utility.yul\":20734:20737   */\n      dup3\n        /* \"#utility.yul\":20701:20738   */\n      tag_171\n      jump\t// in\n    tag_433:\n        /* \"#utility.yul\":20803:20821   */\n      0xffffffffffffffff\n        /* \"#utility.yul\":20795:20801   */\n      dup2\n        /* \"#utility.yul\":20792:20822   */\n      gt\n        /* \"#utility.yul\":20789:20845   */\n      iszero\n      tag_434\n      jumpi\n        /* \"#utility.yul\":20825:20843   */\n      tag_435\n      tag_187\n      jump\t// in\n    tag_435:\n        /* \"#utility.yul\":20789:20845   */\n    tag_434:\n        /* \"#utility.yul\":20869:20907   */\n      tag_436\n        /* \"#utility.yul\":20901:20905   */\n      dup3\n        /* \"#utility.yul\":20895:20906   */\n      sload\n        /* \"#utility.yul\":20869:20907   */\n      tag_63\n      jump\t// in\n    tag_436:\n        /* \"#utility.yul\":20954:21021   */\n      tag_437\n        /* \"#utility.yul\":21014:21020   */\n      dup3\n        /* \"#utility.yul\":21006:21012   */\n      dup3\n        /* \"#utility.yul\":21000:21004   */\n      dup6\n        /* \"#utility.yul\":20954:21021   */\n      tag_221\n      jump\t// in\n    tag_437:\n        /* \"#utility.yul\":21048:21049   */\n      0x00\n        /* \"#utility.yul\":21072:21076   */\n      0x20\n        /* \"#utility.yul\":21059:21076   */\n      swap1\n      pop\n        /* \"#utility.yul\":21104:21106   */\n      0x1f\n        /* \"#utility.yul\":21096:21102   */\n      dup4\n        /* \"#utility.yul\":21093:21107   */\n      gt\n        /* \"#utility.yul\":21121:21122   */\n      0x01\n        /* \"#utility.yul\":21116:21734   */\n      dup2\n      eq\n      tag_439\n      jumpi\n        /* \"#utility.yul\":21778:21779   */\n      0x00\n        /* \"#utility.yul\":21795:21801   */\n      dup5\n        /* \"#utility.yul\":21792:21869   */\n      iszero\n      tag_440\n      jumpi\n        /* \"#utility.yul\":21844:21853   */\n      dup3\n        /* \"#utility.yul\":21839:21842   */\n      dup8\n        /* \"#utility.yul\":21835:21854   */\n      add\n        /* \"#utility.yul\":21829:21855   */\n      mload\n        /* \"#utility.yul\":21820:21855   */\n      swap1\n      pop\n        /* \"#utility.yul\":21792:21869   */\n    tag_440:\n        /* \"#utility.yul\":21895:21962   */\n      tag_441\n        /* \"#utility.yul\":21955:21961   */\n      dup6\n        /* \"#utility.yul\":21948:21953   */\n      dup3\n        /* \"#utility.yul\":21895:21962   */\n      tag_224\n      jump\t// in\n    tag_441:\n        /* \"#utility.yul\":21889:21893   */\n      dup7\n        /* \"#utility.yul\":21882:21963   */\n      sstore\n        /* \"#utility.yul\":21751:21973   */\n      pop\n        /* \"#utility.yul\":21086:21973   */\n      jump(tag_438)\n        /* \"#utility.yul\":21116:21734   */\n    tag_439:\n        /* \"#utility.yul\":21168:21172   */\n      0x1f\n        /* \"#utility.yul\":21164:21173   */\n      not\n        /* \"#utility.yul\":21156:21162   */\n      dup5\n        /* \"#utility.yul\":21152:21174   */\n      and\n        /* \"#utility.yul\":21202:21239   */\n      tag_442\n        /* \"#utility.yul\":21234:21238   */\n      dup7\n        /* \"#utility.yul\":21202:21239   */\n      tag_210\n      jump\t// in\n    tag_442:\n        /* \"#utility.yul\":21261:21262   */\n      0x00\n        /* \"#utility.yul\":21275:21483   */\n    tag_443:\n        /* \"#utility.yul\":21289:21296   */\n      dup3\n        /* \"#utility.yul\":21286:21287   */\n      dup2\n        /* \"#utility.yul\":21283:21297   */\n      lt\n        /* \"#utility.yul\":21275:21483   */\n      iszero\n      tag_445\n      jumpi\n        /* \"#utility.yul\":21368:21377   */\n      dup5\n        /* \"#utility.yul\":21363:21366   */\n      dup10\n        /* \"#utility.yul\":21359:21378   */\n      add\n        /* \"#utility.yul\":21353:21379   */\n      mload\n        /* \"#utility.yul\":21345:21351   */\n      dup3\n        /* \"#utility.yul\":21338:21380   */\n      sstore\n        /* \"#utility.yul\":21419:21420   */\n      0x01\n        /* \"#utility.yul\":21411:21417   */\n      dup3\n        /* \"#utility.yul\":21407:21421   */\n      add\n        /* \"#utility.yul\":21397:21421   */\n      swap2\n      pop\n        /* \"#utility.yul\":21466:21468   */\n      0x20\n        /* \"#utility.yul\":21455:21464   */\n      dup6\n        /* \"#utility.yul\":21451:21469   */\n      add\n        /* \"#utility.yul\":21438:21469   */\n      swap5\n      pop\n        /* \"#utility.yul\":21312:21316   */\n      0x20\n        /* \"#utility.yul\":21309:21310   */\n      dup2\n        /* \"#utility.yul\":21305:21317   */\n      add\n        /* \"#utility.yul\":21300:21317   */\n      swap1\n      pop\n        /* \"#utility.yul\":21275:21483   */\n      jump(tag_443)\n    tag_445:\n        /* \"#utility.yul\":21511:21517   */\n      dup7\n        /* \"#utility.yul\":21502:21509   */\n      dup4\n        /* \"#utility.yul\":21499:21518   */\n      lt\n        /* \"#utility.yul\":21496:21675   */\n      iszero\n      tag_446\n      jumpi\n        /* \"#utility.yul\":21569:21578   */\n      dup5\n        /* \"#utility.yul\":21564:21567   */\n      dup10\n        /* \"#utility.yul\":21560:21579   */\n      add\n        /* \"#utility.yul\":21554:21580   */\n      mload\n        /* \"#utility.yul\":21612:21660   */\n      tag_447\n        /* \"#utility.yul\":21654:21658   */\n      0x1f\n        /* \"#utility.yul\":21646:21652   */\n      dup10\n        /* \"#utility.yul\":21642:21659   */\n      and\n        /* \"#utility.yul\":21631:21640   */\n      dup3\n        /* \"#utility.yul\":21612:21660   */\n      tag_223\n      jump\t// in\n    tag_447:\n        /* \"#utility.yul\":21604:21610   */\n      dup4\n        /* \"#utility.yul\":21597:21661   */\n      sstore\n        /* \"#utility.yul\":21519:21675   */\n      pop\n        /* \"#utility.yul\":21496:21675   */\n    tag_446:\n        /* \"#utility.yul\":21721:21722   */\n      0x01\n        /* \"#utility.yul\":21717:21718   */\n      0x02\n        /* \"#utility.yul\":21709:21715   */\n      dup9\n        /* \"#utility.yul\":21705:21719   */\n      mul\n        /* \"#utility.yul\":21701:21723   */\n      add\n        /* \"#utility.yul\":21695:21699   */\n      dup9\n        /* \"#utility.yul\":21688:21724   */\n      sstore\n        /* \"#utility.yul\":21123:21734   */\n      pop\n      pop\n      pop\n        /* \"#utility.yul\":21086:21973   */\n    tag_438:\n      pop\n        /* \"#utility.yul\":20676:21979   */\n      pop\n      pop\n      pop\n        /* \"#utility.yul\":20584:21979   */\n      pop\n      pop\n      jump\t// out\n        /* \"#utility.yul\":21985:22165   */\n    tag_225:\n        /* \"#utility.yul\":22033:22110   */\n      0x4e487b7100000000000000000000000000000000000000000000000000000000\n        /* \"#utility.yul\":22030:22031   */\n      0x00\n        /* \"#utility.yul\":22023:22111   */\n      mstore\n        /* \"#utility.yul\":22130:22134   */\n      0x11\n        /* \"#utility.yul\":22127:22128   */\n      0x04\n        /* \"#utility.yul\":22120:22135   */\n      mstore\n        /* \"#utility.yul\":22154:22158   */\n      0x24\n        /* \"#utility.yul\":22151:22152   */\n      0x00\n        /* \"#utility.yul\":22144:22159   */\n      revert\n        /* \"#utility.yul\":22171:22404   */\n    tag_108:\n        /* \"#utility.yul\":22210:22213   */\n      0x00\n        /* \"#utility.yul\":22233:22257   */\n      tag_450\n        /* \"#utility.yul\":22251:22256   */\n      dup3\n        /* \"#utility.yul\":22233:22257   */\n      tag_194\n      jump\t// in\n    tag_450:\n        /* \"#utility.yul\":22224:22257   */\n      swap2\n      pop\n        /* \"#utility.yul\":22279:22345   */\n      0xffffffffffffffffffffffffffffffffffffffffffffffffffffffffffffffff\n        /* \"#utility.yul\":22272:22277   */\n      dup3\n        /* \"#utility.yul\":22269:22346   */\n      sub\n        /* \"#utility.yul\":22266:22369   */\n      tag_451\n      jumpi\n        /* \"#utility.yul\":22349:22367   */\n      tag_452\n      tag_225\n      jump\t// in\n    tag_452:\n        /* \"#utility.yul\":22266:22369   */\n    tag_451:\n        /* \"#utility.yul\":22396:22397   */\n      0x01\n        /* \"#utility.yul\":22389:22394   */\n      dup3\n        /* \"#utility.yul\":22385:22398   */\n      add\n        /* \"#utility.yul\":22378:22398   */\n      swap1\n      pop\n        /* \"#utility.yul\":22171:22404   */\n      swap2\n      swap1\n      pop\n      jump\t// out\n        /* \"#utility.yul\":22410:22723   */\n    tag_111:\n        /* \"#utility.yul\":22523:22527   */\n      0x00\n        /* \"#utility.yul\":22561:22563   */\n      0x20\n        /* \"#utility.yul\":22550:22559   */\n      dup3\n        /* \"#utility.yul\":22546:22564   */\n      add\n        /* \"#utility.yul\":22538:22564   */\n      swap1\n      pop\n        /* \"#utility.yul\":22610:22619   */\n      dup2\n        /* \"#utility.yul\":22604:22608   */\n      dup2\n        /* \"#utility.yul\":22600:22620   */\n      sub\n        /* \"#utility.yul\":22596:22597   */\n      0x00\n        /* \"#utility.yul\":22585:22594   */\n      dup4\n        /* \"#utility.yul\":22581:22598   */\n      add\n        /* \"#utility.yul\":22574:22621   */\n      mstore\n        /* \"#utility.yul\":22638:22716   */\n      tag_454\n        /* \"#utility.yul\":22711:22715   */\n      dup2\n        /* \"#utility.yul\":22702:22708   */\n      dup5\n        /* \"#utility.yul\":22638:22716   */\n      tag_175\n      jump\t// in\n    tag_454:\n        /* \"#utility.yul\":22630:22716   */\n      swap1\n      pop\n        /* \"#utility.yul\":22410:22723   */\n      swap3\n      swap2\n      pop\n      pop\n      jump\t// out\n        /* \"#utility.yul\":22729:22893   */\n    tag_226:\n        /* \"#utility.yul\":22869:22885   */\n      0x4e6f742072656769737465726564000000000000000000000000000000000000\n        /* \"#utility.yul\":22865:22866   */\n      0x00\n        /* \"#utility.yul\":22857:22863   */\n      dup3\n        /* \"#utility.yul\":22853:22867   */\n      add\n        /* \"#utility.yul\":22846:22886   */\n      mstore\n        /* \"#utility.yul\":22729:22893   */\n      pop\n      jump\t// out\n        /* \"#utility.yul\":22899:23265   */\n    tag_227:\n        /* \"#utility.yul\":23041:23044   */\n      0x00\n        /* \"#utility.yul\":23062:23129   */\n      tag_457\n        /* \"#utility.yul\":23126:23128   */\n      0x0e\n        /* \"#utility.yul\":23121:23124   */\n      dup4\n        /* \"#utility.yul\":23062:23129   */\n      tag_172\n      jump\t// in\n    tag_457:\n        /* \"#utility.yul\":23055:23129   */\n      swap2\n      pop\n        /* \"#utility.yul\":23138:23231   */\n      tag_458\n        /* \"#utility.yul\":23227:23230   */\n      dup3\n        /* \"#utility.yul\":23138:23231   */\n      tag_226\n      jump\t// in\n    tag_458:\n        /* \"#utility.yul\":23256:23258   */\n      0x20\n        /* \"#utility.yul\":23251:23254   */\n      dup3\n        /* \"#utility.yul\":23247:23259   */\n      add\n        /* \"#utility.yul\":23240:23259   */\n      swap1\n      pop\n        /* \"#utility.yul\":22899:23265   */\n      swap2\n      swap1\n      pop\n      jump\t// out\n        /* \"#utility.yul\":23271:23690   */\n    tag_128:\n        /* \"#utility.yul\":23437:23441   */\n      0x00\n        /* \"#utility.yul\":23475:23477   */\n      0x20\n        /* \"#utility.yul\":23464:23473   */\n      dup3\n        /* \"#utility.yul\":23460:23478   */\n      add\n        /* \"#utility.yul\":23452:23478   */\n      swap1\n      pop\n        /* \"#utility.yul\":23524:23533   */\n      dup2\n        /* \"#utility.yul\":23518:23522   */\n      dup2\n        /* \"#utility.yul\":23514:23534   */\n      sub\n        /* \"#utility.yul\":23510:23511   */\n      0x00\n        /* \"#utility.yul\":23499:23508   */\n      dup4\n        /* \"#utility.yul\":23495:23512   */\n      add\n        /* \"#utility.yul\":23488:23535   */\n      mstore\n        /* \"#utility.yul\":23552:23683   */\n      tag_460\n        /* \"#utility.yul\":23678:23682   */\n      dup2\n        /* \"#utility.yul\":23552:23683   */\n      tag_227\n      jump\t// in\n    tag_460:\n        /* \"#utility.yul\":23544:23683   */\n      swap1\n      pop\n        /* \"#utility.yul\":23271:23690   */\n      swap2\n      swap1\n      pop\n      jump\t// out\n\n    auxdata: 0xa2646970667358221220e628130a71dd0a1e72518e709378f33b7ba1106fa32c654f975656c3bb49dc4364736f6c634300081e0033\n}\n",
				"bytecode": {
					"linkReferences": {},
					"object": "6080604052348015600e575f5ffd5b50611ae58061001c5f395ff3fe608060405234801561000f575f5ffd5b50600436106100a7575f3560e01c8063a2143b3c1161006f578063a2143b3c14610157578063c1816dfb14610187578063deb5ef09146101b7578063ed3a2634146101d5578063edefcf88146101f3578063efe2ccc11461020f576100a7565b80630869cfbc146100ab578063413f107a146100e15780636d26dce8146100ff5780638f7686491461011b5780639a96fcc114610139575b5f5ffd5b6100c560048036038101906100c09190610f4b565b610244565b6040516100d89796959493929190611000565b60405180910390f35b6100e96105b2565b6040516100f6919061114e565b60405180910390f35b6101196004803603810190610114919061129a565b61063d565b005b61012361085e565b60405161013091906113e3565b60405180910390f35b610141610864565b60405161014e91906113e3565b60405180910390f35b610171600480360381019061016c9190611426565b61086d565b60405161017e9190611460565b60405180910390f35b6101a1600480360381019061019c9190610f4b565b6108a8565b6040516101ae919061157c565b60405180910390f35b6101bf6109bc565b6040516101cc91906113e3565b60405180910390f35b6101dd6109c1565b6040516101ea91906113e3565b60405180910390f35b61020d6004803603810190610208919061159c565b6109c9565b005b61022960048036038101906102249190610f4b565b610b2e565b60405161023b969594939291906115f6565b60405180910390f35b6002602052805f5260405f205f91509050805f018054610263906116ac565b80601f016020809104026020016040519081016040528092919081815260200182805461028f906116ac565b80156102da5780601f106102b1576101008083540402835291602001916102da565b820191905f5260205f20905b8154815290600101906020018083116102bd57829003601f168201915b5050505050908060010180546102ef906116ac565b80601f016020809104026020016040519081016040528092919081815260200182805461031b906116ac565b80156103665780601f1061033d57610100808354040283529160200191610366565b820191905f5260205f20905b81548152906001019060200180831161034957829003601f168201915b50505050509080600201805461037b906116ac565b80601f01602080910402602001604051908101604052809291908181526020018280546103a7906116ac565b80156103f25780601f106103c9576101008083540402835291602001916103f2565b820191905f5260205f20905b8154815290600101906020018083116103d557829003601f168201915b505050505090806003018054610407906116ac565b80601f0160208091040260200160405190810160405280929190818152602001828054610433906116ac565b801561047e5780601f106104555761010080835404028352916020019161047e565b820191905f5260205f20905b81548152906001019060200180831161046157829003601f168201915b505050505090806004018054610493906116ac565b80601f01602080910402602001604051908101604052809291908181526020018280546104bf906116ac565b801561050a5780601f106104e15761010080835404028352916020019161050a565b820191905f5260205f20905b8154815290600101906020018083116104ed57829003601f168201915b50505050509080600501805461051f906116ac565b80601f016020809104026020016040519081016040528092919081815260200182805461054b906116ac565b80156105965780601f1061056d57610100808354040283529160200191610596565b820191905f5260205f20905b81548152906001019060200180831161057957829003601f168201915b505050505090806006015f9054906101000a900460ff16905087565b6060600380548060200260200160405190810160405280929190818152602001828054801561063357602002820191905f5260205f20905b815f9054906101000a900473ffffffffffffffffffffffffffffffffffffffff1673ffffffffffffffffffffffffffffffffffffffff16815260200190600101908083116105ea575b5050505050905090565b60025f3373ffffffffffffffffffffffffffffffffffffffff1673ffffffffffffffffffffffffffffffffffffffff1681526020019081526020015f206006015f9054906101000a900460ff16156106ca576040517f08c379a00000000000000000000000000000000000000000000000000000000081526004016106c190611726565b60405180910390fd5b5f60025f3373ffffffffffffffffffffffffffffffffffffffff1673ffffffffffffffffffffffffffffffffffffffff1681526020019081526020015f20905086815f01908161071a91906118e4565b508581600101908161072c91906118e4565b508481600201908161073e91906118e4565b508381600301908161075091906118e4565b508281600401908161076291906118e4565b508181600501908161077491906118e4565b506001816006015f6101000a81548160ff0219169083151502179055505f5f8154809291906107a2906119e0565b9190505550600333908060018154018082558091505060019003905f5260205f20015f9091909190916101000a81548173ffffffffffffffffffffffffffffffffffffffff021916908373ffffffffffffffffffffffffffffffffffffffff1602179055503373ffffffffffffffffffffffffffffffffffffffff167fc85b128388b9c331a2a5485dce4cd0f3db9f7c279d327ce95d6d39d6c94644c78860405161084d9190611a27565b60405180910390a250505050505050565b60015481565b5f600154905090565b6003818154811061087c575f80fd5b905f5260205f20015f915054906101000a900473ffffffffffffffffffffffffffffffffffffffff1681565b606060025f8373ffffffffffffffffffffffffffffffffffffffff1673ffffffffffffffffffffffffffffffffffffffff1681526020019081526020015f20600701805480602002602001604051908101604052809291908181526020015f905b828210156109b1578382905f5260205f20018054610926906116ac565b80601f0160208091040260200160405190810160405280929190818152602001828054610952906116ac565b801561099d5780601f106109745761010080835404028352916020019161099d565b820191905f5260205f20905b81548152906001019060200180831161098057829003601f168201915b505050505081526020019060010190610909565b505050509050919050565b5f5481565b5f5f54905090565b60025f8373ffffffffffffffffffffffffffffffffffffffff1673ffffffffffffffffffffffffffffffffffffffff1681526020019081526020015f206006015f9054906101000a900460ff16610a55576040517f08c379a0000000000000000000000000000000000000000000000000000000008152600401610a4c90611a91565b60405180910390fd5b60025f8373ffffffffffffffffffffffffffffffffffffffff1673ffffffffffffffffffffffffffffffffffffffff1681526020019081526020015f2060070181908060018154018082558091505060019003905f5260205f20015f909190919091509081610ac491906118e4565b5060015f815480929190610ad7906119e0565b91905055508173ffffffffffffffffffffffffffffffffffffffff167f771ad20575501c8cafc4a8793006515911d6e497fd5838018654c9b50347430c82604051610b229190611a27565b60405180910390a25050565b6060806060806060805f60025f8973ffffffffffffffffffffffffffffffffffffffff1673ffffffffffffffffffffffffffffffffffffffff1681526020019081526020015f209050805f018160010182600201836003018460040185600501858054610b9a906116ac565b80601f0160208091040260200160405190810160405280929190818152602001828054610bc6906116ac565b8015610c115780601f10610be857610100808354040283529160200191610c11565b820191905f5260205f20905b815481529060010190602001808311610bf457829003601f168201915b50505050509550848054610c24906116ac565b80601f0160208091040260200160405190810160405280929190818152602001828054610c50906116ac565b8015610c9b5780601f10610c7257610100808354040283529160200191610c9b565b820191905f5260205f20905b815481529060010190602001808311610c7e57829003601f168201915b50505050509450838054610cae906116ac565b80601f0160208091040260200160405190810160405280929190818152602001828054610cda906116ac565b8015610d255780601f10610cfc57610100808354040283529160200191610d25565b820191905f5260205f20905b815481529060010190602001808311610d0857829003601f168201915b50505050509350828054610d38906116ac565b80601f0160208091040260200160405190810160405280929190818152602001828054610d64906116ac565b8015610daf5780601f10610d8657610100808354040283529160200191610daf565b820191905f5260205f20905b815481529060010190602001808311610d9257829003601f168201915b50505050509250818054610dc2906116ac565b80601f0160208091040260200160405190810160405280929190818152602001828054610dee906116ac565b8015610e395780601f10610e1057610100808354040283529160200191610e39565b820191905f5260205f20905b815481529060010190602001808311610e1c57829003601f168201915b50505050509150808054610e4c906116ac565b80601f0160208091040260200160405190810160405280929190818152602001828054610e78906116ac565b8015610ec35780601f10610e9a57610100808354040283529160200191610ec3565b820191905f5260205f20905b815481529060010190602001808311610ea657829003601f168201915b505050505090509650965096509650965096505091939550919395565b5f604051905090565b5f5ffd5b5f5ffd5b5f73ffffffffffffffffffffffffffffffffffffffff82169050919050565b5f610f1a82610ef1565b9050919050565b610f2a81610f10565b8114610f34575f5ffd5b50565b5f81359050610f4581610f21565b92915050565b5f60208284031215610f6057610f5f610ee9565b5b5f610f6d84828501610f37565b91505092915050565b5f81519050919050565b5f82825260208201905092915050565b8281835e5f83830152505050565b5f601f19601f8301169050919050565b5f610fb882610f76565b610fc28185610f80565b9350610fd2818560208601610f90565b610fdb81610f9e565b840191505092915050565b5f8115159050919050565b610ffa81610fe6565b82525050565b5f60e0820190508181035f830152611018818a610fae565b9050818103602083015261102c8189610fae565b905081810360408301526110408188610fae565b905081810360608301526110548187610fae565b905081810360808301526110688186610fae565b905081810360a083015261107c8185610fae565b905061108b60c0830184610ff1565b98975050505050505050565b5f81519050919050565b5f82825260208201905092915050565b5f819050602082019050919050565b6110c981610f10565b82525050565b5f6110da83836110c0565b60208301905092915050565b5f602082019050919050565b5f6110fc82611097565b61110681856110a1565b9350611111836110b1565b805f5b8381101561114157815161112888826110cf565b9750611133836110e6565b925050600181019050611114565b5085935050505092915050565b5f6020820190508181035f83015261116681846110f2565b905092915050565b5f5ffd5b5f5ffd5b7f4e487b71000000000000000000000000000000000000000000000000000000005f52604160045260245ffd5b6111ac82610f9e565b810181811067ffffffffffffffff821117156111cb576111ca611176565b5b80604052505050565b5f6111dd610ee0565b90506111e982826111a3565b919050565b5f67ffffffffffffffff82111561120857611207611176565b5b61121182610f9e565b9050602081019050919050565b828183375f83830152505050565b5f61123e611239846111ee565b6111d4565b90508281526020810184848401111561125a57611259611172565b5b61126584828561121e565b509392505050565b5f82601f8301126112815761128061116e565b5b813561129184826020860161122c565b91505092915050565b5f5f5f5f5f5f60c087890312156112b4576112b3610ee9565b5b5f87013567ffffffffffffffff8111156112d1576112d0610eed565b5b6112dd89828a0161126d565b965050602087013567ffffffffffffffff8111156112fe576112fd610eed565b5b61130a89828a0161126d565b955050604087013567ffffffffffffffff81111561132b5761132a610eed565b5b61133789828a0161126d565b945050606087013567ffffffffffffffff81111561135857611357610eed565b5b61136489828a0161126d565b935050608087013567ffffffffffffffff81111561138557611384610eed565b5b61139189828a0161126d565b92505060a087013567ffffffffffffffff8111156113b2576113b1610eed565b5b6113be89828a0161126d565b9150509295509295509295565b5f819050919050565b6113dd816113cb565b82525050565b5f6020820190506113f65f8301846113d4565b92915050565b611405816113cb565b811461140f575f5ffd5b50565b5f81359050611420816113fc565b92915050565b5f6020828403121561143b5761143a610ee9565b5b5f61144884828501611412565b91505092915050565b61145a81610f10565b82525050565b5f6020820190506114735f830184611451565b92915050565b5f81519050919050565b5f82825260208201905092915050565b5f819050602082019050919050565b5f82825260208201905092915050565b5f6114bc82610f76565b6114c681856114a2565b93506114d6818560208601610f90565b6114df81610f9e565b840191505092915050565b5f6114f583836114b2565b905092915050565b5f602082019050919050565b5f61151382611479565b61151d8185611483565b93508360208202850161152f85611493565b805f5b8581101561156a578484038952815161154b85826114ea565b9450611556836114fd565b925060208a01995050600181019050611532565b50829750879550505050505092915050565b5f6020820190508181035f8301526115948184611509565b905092915050565b5f5f604083850312156115b2576115b1610ee9565b5b5f6115bf85828601610f37565b925050602083013567ffffffffffffffff8111156115e0576115df610eed565b5b6115ec8582860161126d565b9150509250929050565b5f60c0820190508181035f83015261160e8189610fae565b905081810360208301526116228188610fae565b905081810360408301526116368187610fae565b9050818103606083015261164a8186610fae565b9050818103608083015261165e8185610fae565b905081810360a08301526116728184610fae565b9050979650505050505050565b7f4e487b71000000000000000000000000000000000000000000000000000000005f52602260045260245ffd5b5f60028204905060018216806116c357607f821691505b6020821081036116d6576116d561167f565b5b50919050565b7f416c7265616479207265676973746572656400000000000000000000000000005f82015250565b5f611710601283610f80565b915061171b826116dc565b602082019050919050565b5f6020820190508181035f83015261173d81611704565b9050919050565b5f819050815f5260205f209050919050565b5f6020601f8301049050919050565b5f82821b905092915050565b5f600883026117a07fffffffffffffffffffffffffffffffffffffffffffffffffffffffffffffffff82611765565b6117aa8683611765565b95508019841693508086168417925050509392505050565b5f819050919050565b5f6117e56117e06117db846113cb565b6117c2565b6113cb565b9050919050565b5f819050919050565b6117fe836117cb565b61181261180a826117ec565b848454611771565b825550505050565b5f5f905090565b61182961181a565b6118348184846117f5565b505050565b5b818110156118575761184c5f82611821565b60018101905061183a565b5050565b601f82111561189c5761186d81611744565b61187684611756565b81016020851015611885578190505b61189961189185611756565b830182611839565b50505b505050565b5f82821c905092915050565b5f6118bc5f19846008026118a1565b1980831691505092915050565b5f6118d483836118ad565b9150826002028217905092915050565b6118ed82610f76565b67ffffffffffffffff81111561190657611905611176565b5b61191082546116ac565b61191b82828561185b565b5f60209050601f83116001811461194c575f841561193a578287015190505b61194485826118c9565b8655506119ab565b601f19841661195a86611744565b5f5b828110156119815784890151825560018201915060208501945060208101905061195c565b8683101561199e578489015161199a601f8916826118ad565b8355505b6001600288020188555050505b505050505050565b7f4e487b71000000000000000000000000000000000000000000000000000000005f52601160045260245ffd5b5f6119ea826113cb565b91507fffffffffffffffffffffffffffffffffffffffffffffffffffffffffffffffff8203611a1c57611a1b6119b3565b5b600182019050919050565b5f6020820190508181035f830152611a3f8184610fae565b905092915050565b7f4e6f7420726567697374657265640000000000000000000000000000000000005f82015250565b5f611a7b600e83610f80565b9150611a8682611a47565b602082019050919050565b5f6020820190508181035f830152611aa881611a6f565b905091905056fea2646970667358221220e628130a71dd0a1e72518e709378f33b7ba1106fa32c654f975656c3bb49dc4364736f6c634300081e0033",
					"opcodes": "PUSH1 0x80 PUSH1 0x40 MSTORE CALLVALUE DUP1 ISZERO PUSH1 0xE JUMPI PUSH0 PUSH0 REVERT JUMPDEST POP PUSH2 0x1AE5 DUP1 PUSH2 0x1C PUSH0 CODECOPY PUSH0 RETURN INVALID PUSH1 0x80 PUSH1 0x40 MSTORE CALLVALUE DUP1 ISZERO PUSH2 0xF JUMPI PUSH0 PUSH0 REVERT JUMPDEST POP PUSH1 0x4 CALLDATASIZE LT PUSH2 0xA7 JUMPI PUSH0 CALLDATALOAD PUSH1 0xE0 SHR DUP1 PUSH4 0xA2143B3C GT PUSH2 0x6F JUMPI DUP1 PUSH4 0xA2143B3C EQ PUSH2 0x157 JUMPI DUP1 PUSH4 0xC1816DFB EQ PUSH2 0x187 JUMPI DUP1 PUSH4 0xDEB5EF09 EQ PUSH2 0x1B7 JUMPI DUP1 PUSH4 0xED3A2634 EQ PUSH2 0x1D5 JUMPI DUP1 PUSH4 0xEDEFCF88 EQ PUSH2 0x1F3 JUMPI DUP1 PUSH4 0xEFE2CCC1 EQ PUSH2 0x20F JUMPI PUSH2 0xA7 JUMP JUMPDEST DUP1 PUSH4 0x869CFBC EQ PUSH2 0xAB JUMPI DUP1 PUSH4 0x413F107A EQ PUSH2 0xE1 JUMPI DUP1 PUSH4 0x6D26DCE8 EQ PUSH2 0xFF JUMPI DUP1 PUSH4 0x8F768649 EQ PUSH2 0x11B JUMPI DUP1 PUSH4 0x9A96FCC1 EQ PUSH2 0x139 JUMPI JUMPDEST PUSH0 PUSH0 REVERT JUMPDEST PUSH2 0xC5 PUSH1 0x4 DUP1 CALLDATASIZE SUB DUP2 ADD SWAP1 PUSH2 0xC0 SWAP2 SWAP1 PUSH2 0xF4B JUMP JUMPDEST PUSH2 0x244 JUMP JUMPDEST PUSH1 0x40 MLOAD PUSH2 0xD8 SWAP8 SWAP7 SWAP6 SWAP5 SWAP4 SWAP3 SWAP2 SWAP1 PUSH2 0x1000 JUMP JUMPDEST PUSH1 0x40 MLOAD DUP1 SWAP2 SUB SWAP1 RETURN JUMPDEST PUSH2 0xE9 PUSH2 0x5B2 JUMP JUMPDEST PUSH1 0x40 MLOAD PUSH2 0xF6 SWAP2 SWAP1 PUSH2 0x114E JUMP JUMPDEST PUSH1 0x40 MLOAD DUP1 SWAP2 SUB SWAP1 RETURN JUMPDEST PUSH2 0x119 PUSH1 0x4 DUP1 CALLDATASIZE SUB DUP2 ADD SWAP1 PUSH2 0x114 SWAP2 SWAP1 PUSH2 0x129A JUMP JUMPDEST PUSH2 0x63D JUMP JUMPDEST STOP JUMPDEST PUSH2 0x123 PUSH2 0x85E JUMP JUMPDEST PUSH1 0x40 MLOAD PUSH2 0x130 SWAP2 SWAP1 PUSH2 0x13E3 JUMP JUMPDEST PUSH1 0x40 MLOAD DUP1 SWAP2 SUB SWAP1 RETURN JUMPDEST PUSH2 0x141 PUSH2 0x864 JUMP JUMPDEST PUSH1 0x40 MLOAD PUSH2 0x14E SWAP2 SWAP1 PUSH2 0x13E3 JUMP JUMPDEST PUSH1 0x40 MLOAD DUP1 SWAP2 SUB SWAP1 RETURN JUMPDEST PUSH2 0x171 PUSH1 0x4 DUP1 CALLDATASIZE SUB DUP2 ADD SWAP1 PUSH2 0x16C SWAP2 SWAP1 PUSH2 0x1426 JUMP JUMPDEST PUSH2 0x86D JUMP JUMPDEST PUSH1 0x40 MLOAD PUSH2 0x17E SWAP2 SWAP1 PUSH2 0x1460 JUMP JUMPDEST PUSH1 0x40 MLOAD DUP1 SWAP2 SUB SWAP1 RETURN JUMPDEST PUSH2 0x1A1 PUSH1 0x4 DUP1 CALLDATASIZE SUB DUP2 ADD SWAP1 PUSH2 0x19C SWAP2 SWAP1 PUSH2 0xF4B JUMP JUMPDEST PUSH2 0x8A8 JUMP JUMPDEST PUSH1 0x40 MLOAD PUSH2 0x1AE SWAP2 SWAP1 PUSH2 0x157C JUMP JUMPDEST PUSH1 0x40 MLOAD DUP1 SWAP2 SUB SWAP1 RETURN JUMPDEST PUSH2 0x1BF PUSH2 0x9BC JUMP JUMPDEST PUSH1 0x40 MLOAD PUSH2 0x1CC SWAP2 SWAP1 PUSH2 0x13E3 JUMP JUMPDEST PUSH1 0x40 MLOAD DUP1 SWAP2 SUB SWAP1 RETURN JUMPDEST PUSH2 0x1DD PUSH2 0x9C1 JUMP JUMPDEST PUSH1 0x40 MLOAD PUSH2 0x1EA SWAP2 SWAP1 PUSH2 0x13E3 JUMP JUMPDEST PUSH1 0x40 MLOAD DUP1 SWAP2 SUB SWAP1 RETURN JUMPDEST PUSH2 0x20D PUSH1 0x4 DUP1 CALLDATASIZE SUB DUP2 ADD SWAP1 PUSH2 0x208 SWAP2 SWAP1 PUSH2 0x159C JUMP JUMPDEST PUSH2 0x9C9 JUMP JUMPDEST STOP JUMPDEST PUSH2 0x229 PUSH1 0x4 DUP1 CALLDATASIZE SUB DUP2 ADD SWAP1 PUSH2 0x224 SWAP2 SWAP1 PUSH2 0xF4B JUMP JUMPDEST PUSH2 0xB2E JUMP JUMPDEST PUSH1 0x40 MLOAD PUSH2 0x23B SWAP7 SWAP6 SWAP5 SWAP4 SWAP3 SWAP2 SWAP1 PUSH2 0x15F6 JUMP JUMPDEST PUSH1 0x40 MLOAD DUP1 SWAP2 SUB SWAP1 RETURN JUMPDEST PUSH1 0x2 PUSH1 0x20 MSTORE DUP1 PUSH0 MSTORE PUSH1 0x40 PUSH0 KECCAK256 PUSH0 SWAP2 POP SWAP1 POP DUP1 PUSH0 ADD DUP1 SLOAD PUSH2 0x263 SWAP1 PUSH2 0x16AC JUMP JUMPDEST DUP1 PUSH1 0x1F ADD PUSH1 0x20 DUP1 SWAP2 DIV MUL PUSH1 0x20 ADD PUSH1 0x40 MLOAD SWAP1 DUP2 ADD PUSH1 0x40 MSTORE DUP1 SWAP3 SWAP2 SWAP1 DUP2 DUP2 MSTORE PUSH1 0x20 ADD DUP3 DUP1 SLOAD PUSH2 0x28F SWAP1 PUSH2 0x16AC JUMP JUMPDEST DUP1 ISZERO PUSH2 0x2DA JUMPI DUP1 PUSH1 0x1F LT PUSH2 0x2B1 JUMPI PUSH2 0x100 DUP1 DUP4 SLOAD DIV MUL DUP4 MSTORE SWAP2 PUSH1 0x20 ADD SWAP2 PUSH2 0x2DA JUMP JUMPDEST DUP3 ADD SWAP2 SWAP1 PUSH0 MSTORE PUSH1 0x20 PUSH0 KECCAK256 SWAP1 JUMPDEST DUP2 SLOAD DUP2 MSTORE SWAP1 PUSH1 0x1 ADD SWAP1 PUSH1 0x20 ADD DUP1 DUP4 GT PUSH2 0x2BD JUMPI DUP3 SWAP1 SUB PUSH1 0x1F AND DUP3 ADD SWAP2 JUMPDEST POP POP POP POP POP SWAP1 DUP1 PUSH1 0x1 ADD DUP1 SLOAD PUSH2 0x2EF SWAP1 PUSH2 0x16AC JUMP JUMPDEST DUP1 PUSH1 0x1F ADD PUSH1 0x20 DUP1 SWAP2 DIV MUL PUSH1 0x20 ADD PUSH1 0x40 MLOAD SWAP1 DUP2 ADD PUSH1 0x40 MSTORE DUP1 SWAP3 SWAP2 SWAP1 DUP2 DUP2 MSTORE PUSH1 0x20 ADD DUP3 DUP1 SLOAD PUSH2 0x31B SWAP1 PUSH2 0x16AC JUMP JUMPDEST DUP1 ISZERO PUSH2 0x366 JUMPI DUP1 PUSH1 0x1F LT PUSH2 0x33D JUMPI PUSH2 0x100 DUP1 DUP4 SLOAD DIV MUL DUP4 MSTORE SWAP2 PUSH1 0x20 ADD SWAP2 PUSH2 0x366 JUMP JUMPDEST DUP3 ADD SWAP2 SWAP1 PUSH0 MSTORE PUSH1 0x20 PUSH0 KECCAK256 SWAP1 JUMPDEST DUP2 SLOAD DUP2 MSTORE SWAP1 PUSH1 0x1 ADD SWAP1 PUSH1 0x20 ADD DUP1 DUP4 GT PUSH2 0x349 JUMPI DUP3 SWAP1 SUB PUSH1 0x1F AND DUP3 ADD SWAP2 JUMPDEST POP POP POP POP POP SWAP1 DUP1 PUSH1 0x2 ADD DUP1 SLOAD PUSH2 0x37B SWAP1 PUSH2 0x16AC JUMP JUMPDEST DUP1 PUSH1 0x1F ADD PUSH1 0x20 DUP1 SWAP2 DIV MUL PUSH1 0x20 ADD PUSH1 0x40 MLOAD SWAP1 DUP2 ADD PUSH1 0x40 MSTORE DUP1 SWAP3 SWAP2 SWAP1 DUP2 DUP2 MSTORE PUSH1 0x20 ADD DUP3 DUP1 SLOAD PUSH2 0x3A7 SWAP1 PUSH2 0x16AC JUMP JUMPDEST DUP1 ISZERO PUSH2 0x3F2 JUMPI DUP1 PUSH1 0x1F LT PUSH2 0x3C9 JUMPI PUSH2 0x100 DUP1 DUP4 SLOAD DIV MUL DUP4 MSTORE SWAP2 PUSH1 0x20 ADD SWAP2 PUSH2 0x3F2 JUMP JUMPDEST DUP3 ADD SWAP2 SWAP1 PUSH0 MSTORE PUSH1 0x20 PUSH0 KECCAK256 SWAP1 JUMPDEST DUP2 SLOAD DUP2 MSTORE SWAP1 PUSH1 0x1 ADD SWAP1 PUSH1 0x20 ADD DUP1 DUP4 GT PUSH2 0x3D5 JUMPI DUP3 SWAP1 SUB PUSH1 0x1F AND DUP3 ADD SWAP2 JUMPDEST POP POP POP POP POP SWAP1 DUP1 PUSH1 0x3 ADD DUP1 SLOAD PUSH2 0x407 SWAP1 PUSH2 0x16AC JUMP JUMPDEST DUP1 PUSH1 0x1F ADD PUSH1 0x20 DUP1 SWAP2 DIV MUL PUSH1 0x20 ADD PUSH1 0x40 MLOAD SWAP1 DUP2 ADD PUSH1 0x40 MSTORE DUP1 SWAP3 SWAP2 SWAP1 DUP2 DUP2 MSTORE PUSH1 0x20 ADD DUP3 DUP1 SLOAD PUSH2 0x433 SWAP1 PUSH2 0x16AC JUMP JUMPDEST DUP1 ISZERO PUSH2 0x47E JUMPI DUP1 PUSH1 0x1F LT PUSH2 0x455 JUMPI PUSH2 0x100 DUP1 DUP4 SLOAD DIV MUL DUP4 MSTORE SWAP2 PUSH1 0x20 ADD SWAP2 PUSH2 0x47E JUMP JUMPDEST DUP3 ADD SWAP2 SWAP1 PUSH0 MSTORE PUSH1 0x20 PUSH0 KECCAK256 SWAP1 JUMPDEST DUP2 SLOAD DUP2 MSTORE SWAP1 PUSH1 0x1 ADD SWAP1 PUSH1 0x20 ADD DUP1 DUP4 GT PUSH2 0x461 JUMPI DUP3 SWAP1 SUB PUSH1 0x1F AND DUP3 ADD SWAP2 JUMPDEST POP POP POP POP POP SWAP1 DUP1 PUSH1 0x4 ADD DUP1 SLOAD PUSH2 0x493 SWAP1 PUSH2 0x16AC JUMP JUMPDEST DUP1 PUSH1 0x1F ADD PUSH1 0x20 DUP1 SWAP2 DIV MUL PUSH1 0x20 ADD PUSH1 0x40 MLOAD SWAP1 DUP2 ADD PUSH1 0x40 MSTORE DUP1 SWAP3 SWAP2 SWAP1 DUP2 DUP2 MSTORE PUSH1 0x20 ADD DUP3 DUP1 SLOAD PUSH2 0x4BF SWAP1 PUSH2 0x16AC JUMP JUMPDEST DUP1 ISZERO PUSH2 0x50A JUMPI DUP1 PUSH1 0x1F LT PUSH2 0x4E1 JUMPI PUSH2 0x100 DUP1 DUP4 SLOAD DIV MUL DUP4 MSTORE SWAP2 PUSH1 0x20 ADD SWAP2 PUSH2 0x50A JUMP JUMPDEST DUP3 ADD SWAP2 SWAP1 PUSH0 MSTORE PUSH1 0x20 PUSH0 KECCAK256 SWAP1 JUMPDEST DUP2 SLOAD DUP2 MSTORE SWAP1 PUSH1 0x1 ADD SWAP1 PUSH1 0x20 ADD DUP1 DUP4 GT PUSH2 0x4ED JUMPI DUP3 SWAP1 SUB PUSH1 0x1F AND DUP3 ADD SWAP2 JUMPDEST POP POP POP POP POP SWAP1 DUP1 PUSH1 0x5 ADD DUP1 SLOAD PUSH2 0x51F SWAP1 PUSH2 0x16AC JUMP JUMPDEST DUP1 PUSH1 0x1F ADD PUSH1 0x20 DUP1 SWAP2 DIV MUL PUSH1 0x20 ADD PUSH1 0x40 MLOAD SWAP1 DUP2 ADD PUSH1 0x40 MSTORE DUP1 SWAP3 SWAP2 SWAP1 DUP2 DUP2 MSTORE PUSH1 0x20 ADD DUP3 DUP1 SLOAD PUSH2 0x54B SWAP1 PUSH2 0x16AC JUMP JUMPDEST DUP1 ISZERO PUSH2 0x596 JUMPI DUP1 PUSH1 0x1F LT PUSH2 0x56D JUMPI PUSH2 0x100 DUP1 DUP4 SLOAD DIV MUL DUP4 MSTORE SWAP2 PUSH1 0x20 ADD SWAP2 PUSH2 0x596 JUMP JUMPDEST DUP3 ADD SWAP2 SWAP1 PUSH0 MSTORE PUSH1 0x20 PUSH0 KECCAK256 SWAP1 JUMPDEST DUP2 SLOAD DUP2 MSTORE SWAP1 PUSH1 0x1 ADD SWAP1 PUSH1 0x20 ADD DUP1 DUP4 GT PUSH2 0x579 JUMPI DUP3 SWAP1 SUB PUSH1 0x1F AND DUP3 ADD SWAP2 JUMPDEST POP POP POP POP POP SWAP1 DUP1 PUSH1 0x6 ADD PUSH0 SWAP1 SLOAD SWAP1 PUSH2 0x100 EXP SWAP1 DIV PUSH1 0xFF AND SWAP1 POP DUP8 JUMP JUMPDEST PUSH1 0x60 PUSH1 0x3 DUP1 SLOAD DUP1 PUSH1 0x20 MUL PUSH1 0x20 ADD PUSH1 0x40 MLOAD SWAP1 DUP2 ADD PUSH1 0x40 MSTORE DUP1 SWAP3 SWAP2 SWAP1 DUP2 DUP2 MSTORE PUSH1 0x20 ADD DUP3 DUP1 SLOAD DUP1 ISZERO PUSH2 0x633 JUMPI PUSH1 0x20 MUL DUP3 ADD SWAP2 SWAP1 PUSH0 MSTORE PUSH1 0x20 PUSH0 KECCAK256 SWAP1 JUMPDEST DUP2 PUSH0 SWAP1 SLOAD SWAP1 PUSH2 0x100 EXP SWAP1 DIV PUSH20 0xFFFFFFFFFFFFFFFFFFFFFFFFFFFFFFFFFFFFFFFF AND PUSH20 0xFFFFFFFFFFFFFFFFFFFFFFFFFFFFFFFFFFFFFFFF AND DUP2 MSTORE PUSH1 0x20 ADD SWAP1 PUSH1 0x1 ADD SWAP1 DUP1 DUP4 GT PUSH2 0x5EA JUMPI JUMPDEST POP POP POP POP POP SWAP1 POP SWAP1 JUMP JUMPDEST PUSH1 0x2 PUSH0 CALLER PUSH20 0xFFFFFFFFFFFFFFFFFFFFFFFFFFFFFFFFFFFFFFFF AND PUSH20 0xFFFFFFFFFFFFFFFFFFFFFFFFFFFFFFFFFFFFFFFF AND DUP2 MSTORE PUSH1 0x20 ADD SWAP1 DUP2 MSTORE PUSH1 0x20 ADD PUSH0 KECCAK256 PUSH1 0x6 ADD PUSH0 SWAP1 SLOAD SWAP1 PUSH2 0x100 EXP SWAP1 DIV PUSH1 0xFF AND ISZERO PUSH2 0x6CA JUMPI PUSH1 0x40 MLOAD PUSH32 0x8C379A000000000000000000000000000000000000000000000000000000000 DUP2 MSTORE PUSH1 0x4 ADD PUSH2 0x6C1 SWAP1 PUSH2 0x1726 JUMP JUMPDEST PUSH1 0x40 MLOAD DUP1 SWAP2 SUB SWAP1 REVERT JUMPDEST PUSH0 PUSH1 0x2 PUSH0 CALLER PUSH20 0xFFFFFFFFFFFFFFFFFFFFFFFFFFFFFFFFFFFFFFFF AND PUSH20 0xFFFFFFFFFFFFFFFFFFFFFFFFFFFFFFFFFFFFFFFF AND DUP2 MSTORE PUSH1 0x20 ADD SWAP1 DUP2 MSTORE PUSH1 0x20 ADD PUSH0 KECCAK256 SWAP1 POP DUP7 DUP2 PUSH0 ADD SWAP1 DUP2 PUSH2 0x71A SWAP2 SWAP1 PUSH2 0x18E4 JUMP JUMPDEST POP DUP6 DUP2 PUSH1 0x1 ADD SWAP1 DUP2 PUSH2 0x72C SWAP2 SWAP1 PUSH2 0x18E4 JUMP JUMPDEST POP DUP5 DUP2 PUSH1 0x2 ADD SWAP1 DUP2 PUSH2 0x73E SWAP2 SWAP1 PUSH2 0x18E4 JUMP JUMPDEST POP DUP4 DUP2 PUSH1 0x3 ADD SWAP1 DUP2 PUSH2 0x750 SWAP2 SWAP1 PUSH2 0x18E4 JUMP JUMPDEST POP DUP3 DUP2 PUSH1 0x4 ADD SWAP1 DUP2 PUSH2 0x762 SWAP2 SWAP1 PUSH2 0x18E4 JUMP JUMPDEST POP DUP2 DUP2 PUSH1 0x5 ADD SWAP1 DUP2 PUSH2 0x774 SWAP2 SWAP1 PUSH2 0x18E4 JUMP JUMPDEST POP PUSH1 0x1 DUP2 PUSH1 0x6 ADD PUSH0 PUSH2 0x100 EXP DUP2 SLOAD DUP2 PUSH1 0xFF MUL NOT AND SWAP1 DUP4 ISZERO ISZERO MUL OR SWAP1 SSTORE POP PUSH0 PUSH0 DUP2 SLOAD DUP1 SWAP3 SWAP2 SWAP1 PUSH2 0x7A2 SWAP1 PUSH2 0x19E0 JUMP JUMPDEST SWAP2 SWAP1 POP SSTORE POP PUSH1 0x3 CALLER SWAP1 DUP1 PUSH1 0x1 DUP2 SLOAD ADD DUP1 DUP3 SSTORE DUP1 SWAP2 POP POP PUSH1 0x1 SWAP1 SUB SWAP1 PUSH0 MSTORE PUSH1 0x20 PUSH0 KECCAK256 ADD PUSH0 SWAP1 SWAP2 SWAP1 SWAP2 SWAP1 SWAP2 PUSH2 0x100 EXP DUP2 SLOAD DUP2 PUSH20 0xFFFFFFFFFFFFFFFFFFFFFFFFFFFFFFFFFFFFFFFF MUL NOT AND SWAP1 DUP4 PUSH20 0xFFFFFFFFFFFFFFFFFFFFFFFFFFFFFFFFFFFFFFFF AND MUL OR SWAP1 SSTORE POP CALLER PUSH20 0xFFFFFFFFFFFFFFFFFFFFFFFFFFFFFFFFFFFFFFFF AND PUSH32 0xC85B128388B9C331A2A5485DCE4CD0F3DB9F7C279D327CE95D6D39D6C94644C7 DUP9 PUSH1 0x40 MLOAD PUSH2 0x84D SWAP2 SWAP1 PUSH2 0x1A27 JUMP JUMPDEST PUSH1 0x40 MLOAD DUP1 SWAP2 SUB SWAP1 LOG2 POP POP POP POP POP POP POP JUMP JUMPDEST PUSH1 0x1 SLOAD DUP2 JUMP JUMPDEST PUSH0 PUSH1 0x1 SLOAD SWAP1 POP SWAP1 JUMP JUMPDEST PUSH1 0x3 DUP2 DUP2 SLOAD DUP2 LT PUSH2 0x87C JUMPI PUSH0 DUP1 REVERT JUMPDEST SWAP1 PUSH0 MSTORE PUSH1 0x20 PUSH0 KECCAK256 ADD PUSH0 SWAP2 POP SLOAD SWAP1 PUSH2 0x100 EXP SWAP1 DIV PUSH20 0xFFFFFFFFFFFFFFFFFFFFFFFFFFFFFFFFFFFFFFFF AND DUP2 JUMP JUMPDEST PUSH1 0x60 PUSH1 0x2 PUSH0 DUP4 PUSH20 0xFFFFFFFFFFFFFFFFFFFFFFFFFFFFFFFFFFFFFFFF AND PUSH20 0xFFFFFFFFFFFFFFFFFFFFFFFFFFFFFFFFFFFFFFFF AND DUP2 MSTORE PUSH1 0x20 ADD SWAP1 DUP2 MSTORE PUSH1 0x20 ADD PUSH0 KECCAK256 PUSH1 0x7 ADD DUP1 SLOAD DUP1 PUSH1 0x20 MUL PUSH1 0x20 ADD PUSH1 0x40 MLOAD SWAP1 DUP2 ADD PUSH1 0x40 MSTORE DUP1 SWAP3 SWAP2 SWAP1 DUP2 DUP2 MSTORE PUSH1 0x20 ADD PUSH0 SWAP1 JUMPDEST DUP3 DUP3 LT ISZERO PUSH2 0x9B1 JUMPI DUP4 DUP3 SWAP1 PUSH0 MSTORE PUSH1 0x20 PUSH0 KECCAK256 ADD DUP1 SLOAD PUSH2 0x926 SWAP1 PUSH2 0x16AC JUMP JUMPDEST DUP1 PUSH1 0x1F ADD PUSH1 0x20 DUP1 SWAP2 DIV MUL PUSH1 0x20 ADD PUSH1 0x40 MLOAD SWAP1 DUP2 ADD PUSH1 0x40 MSTORE DUP1 SWAP3 SWAP2 SWAP1 DUP2 DUP2 MSTORE PUSH1 0x20 ADD DUP3 DUP1 SLOAD PUSH2 0x952 SWAP1 PUSH2 0x16AC JUMP JUMPDEST DUP1 ISZERO PUSH2 0x99D JUMPI DUP1 PUSH1 0x1F LT PUSH2 0x974 JUMPI PUSH2 0x100 DUP1 DUP4 SLOAD DIV MUL DUP4 MSTORE SWAP2 PUSH1 0x20 ADD SWAP2 PUSH2 0x99D JUMP JUMPDEST DUP3 ADD SWAP2 SWAP1 PUSH0 MSTORE PUSH1 0x20 PUSH0 KECCAK256 SWAP1 JUMPDEST DUP2 SLOAD DUP2 MSTORE SWAP1 PUSH1 0x1 ADD SWAP1 PUSH1 0x20 ADD DUP1 DUP4 GT PUSH2 0x980 JUMPI DUP3 SWAP1 SUB PUSH1 0x1F AND DUP3 ADD SWAP2 JUMPDEST POP POP POP POP POP DUP2 MSTORE PUSH1 0x20 ADD SWAP1 PUSH1 0x1 ADD SWAP1 PUSH2 0x909 JUMP JUMPDEST POP POP POP POP SWAP1 POP SWAP2 SWAP1 POP JUMP JUMPDEST PUSH0 SLOAD DUP2 JUMP JUMPDEST PUSH0 PUSH0 SLOAD SWAP1 POP SWAP1 JUMP JUMPDEST PUSH1 0x2 PUSH0 DUP4 PUSH20 0xFFFFFFFFFFFFFFFFFFFFFFFFFFFFFFFFFFFFFFFF AND PUSH20 0xFFFFFFFFFFFFFFFFFFFFFFFFFFFFFFFFFFFFFFFF AND DUP2 MSTORE PUSH1 0x20 ADD SWAP1 DUP2 MSTORE PUSH1 0x20 ADD PUSH0 KECCAK256 PUSH1 0x6 ADD PUSH0 SWAP1 SLOAD SWAP1 PUSH2 0x100 EXP SWAP1 DIV PUSH1 0xFF AND PUSH2 0xA55 JUMPI PUSH1 0x40 MLOAD PUSH32 0x8C379A000000000000000000000000000000000000000000000000000000000 DUP2 MSTORE PUSH1 0x4 ADD PUSH2 0xA4C SWAP1 PUSH2 0x1A91 JUMP JUMPDEST PUSH1 0x40 MLOAD DUP1 SWAP2 SUB SWAP1 REVERT JUMPDEST PUSH1 0x2 PUSH0 DUP4 PUSH20 0xFFFFFFFFFFFFFFFFFFFFFFFFFFFFFFFFFFFFFFFF AND PUSH20 0xFFFFFFFFFFFFFFFFFFFFFFFFFFFFFFFFFFFFFFFF AND DUP2 MSTORE PUSH1 0x20 ADD SWAP1 DUP2 MSTORE PUSH1 0x20 ADD PUSH0 KECCAK256 PUSH1 0x7 ADD DUP2 SWAP1 DUP1 PUSH1 0x1 DUP2 SLOAD ADD DUP1 DUP3 SSTORE DUP1 SWAP2 POP POP PUSH1 0x1 SWAP1 SUB SWAP1 PUSH0 MSTORE PUSH1 0x20 PUSH0 KECCAK256 ADD PUSH0 SWAP1 SWAP2 SWAP1 SWAP2 SWAP1 SWAP2 POP SWAP1 DUP2 PUSH2 0xAC4 SWAP2 SWAP1 PUSH2 0x18E4 JUMP JUMPDEST POP PUSH1 0x1 PUSH0 DUP2 SLOAD DUP1 SWAP3 SWAP2 SWAP1 PUSH2 0xAD7 SWAP1 PUSH2 0x19E0 JUMP JUMPDEST SWAP2 SWAP1 POP SSTORE POP DUP2 PUSH20 0xFFFFFFFFFFFFFFFFFFFFFFFFFFFFFFFFFFFFFFFF AND PUSH32 0x771AD20575501C8CAFC4A8793006515911D6E497FD5838018654C9B50347430C DUP3 PUSH1 0x40 MLOAD PUSH2 0xB22 SWAP2 SWAP1 PUSH2 0x1A27 JUMP JUMPDEST PUSH1 0x40 MLOAD DUP1 SWAP2 SUB SWAP1 LOG2 POP POP JUMP JUMPDEST PUSH1 0x60 DUP1 PUSH1 0x60 DUP1 PUSH1 0x60 DUP1 PUSH0 PUSH1 0x2 PUSH0 DUP10 PUSH20 0xFFFFFFFFFFFFFFFFFFFFFFFFFFFFFFFFFFFFFFFF AND PUSH20 0xFFFFFFFFFFFFFFFFFFFFFFFFFFFFFFFFFFFFFFFF AND DUP2 MSTORE PUSH1 0x20 ADD SWAP1 DUP2 MSTORE PUSH1 0x20 ADD PUSH0 KECCAK256 SWAP1 POP DUP1 PUSH0 ADD DUP2 PUSH1 0x1 ADD DUP3 PUSH1 0x2 ADD DUP4 PUSH1 0x3 ADD DUP5 PUSH1 0x4 ADD DUP6 PUSH1 0x5 ADD DUP6 DUP1 SLOAD PUSH2 0xB9A SWAP1 PUSH2 0x16AC JUMP JUMPDEST DUP1 PUSH1 0x1F ADD PUSH1 0x20 DUP1 SWAP2 DIV MUL PUSH1 0x20 ADD PUSH1 0x40 MLOAD SWAP1 DUP2 ADD PUSH1 0x40 MSTORE DUP1 SWAP3 SWAP2 SWAP1 DUP2 DUP2 MSTORE PUSH1 0x20 ADD DUP3 DUP1 SLOAD PUSH2 0xBC6 SWAP1 PUSH2 0x16AC JUMP JUMPDEST DUP1 ISZERO PUSH2 0xC11 JUMPI DUP1 PUSH1 0x1F LT PUSH2 0xBE8 JUMPI PUSH2 0x100 DUP1 DUP4 SLOAD DIV MUL DUP4 MSTORE SWAP2 PUSH1 0x20 ADD SWAP2 PUSH2 0xC11 JUMP JUMPDEST DUP3 ADD SWAP2 SWAP1 PUSH0 MSTORE PUSH1 0x20 PUSH0 KECCAK256 SWAP1 JUMPDEST DUP2 SLOAD DUP2 MSTORE SWAP1 PUSH1 0x1 ADD SWAP1 PUSH1 0x20 ADD DUP1 DUP4 GT PUSH2 0xBF4 JUMPI DUP3 SWAP1 SUB PUSH1 0x1F AND DUP3 ADD SWAP2 JUMPDEST POP POP POP POP POP SWAP6 POP DUP5 DUP1 SLOAD PUSH2 0xC24 SWAP1 PUSH2 0x16AC JUMP JUMPDEST DUP1 PUSH1 0x1F ADD PUSH1 0x20 DUP1 SWAP2 DIV MUL PUSH1 0x20 ADD PUSH1 0x40 MLOAD SWAP1 DUP2 ADD PUSH1 0x40 MSTORE DUP1 SWAP3 SWAP2 SWAP1 DUP2 DUP2 MSTORE PUSH1 0x20 ADD DUP3 DUP1 SLOAD PUSH2 0xC50 SWAP1 PUSH2 0x16AC JUMP JUMPDEST DUP1 ISZERO PUSH2 0xC9B JUMPI DUP1 PUSH1 0x1F LT PUSH2 0xC72 JUMPI PUSH2 0x100 DUP1 DUP4 SLOAD DIV MUL DUP4 MSTORE SWAP2 PUSH1 0x20 ADD SWAP2 PUSH2 0xC9B JUMP JUMPDEST DUP3 ADD SWAP2 SWAP1 PUSH0 MSTORE PUSH1 0x20 PUSH0 KECCAK256 SWAP1 JUMPDEST DUP2 SLOAD DUP2 MSTORE SWAP1 PUSH1 0x1 ADD SWAP1 PUSH1 0x20 ADD DUP1 DUP4 GT PUSH2 0xC7E JUMPI DUP3 SWAP1 SUB PUSH1 0x1F AND DUP3 ADD SWAP2 JUMPDEST POP POP POP POP POP SWAP5 POP DUP4 DUP1 SLOAD PUSH2 0xCAE SWAP1 PUSH2 0x16AC JUMP JUMPDEST DUP1 PUSH1 0x1F ADD PUSH1 0x20 DUP1 SWAP2 DIV MUL PUSH1 0x20 ADD PUSH1 0x40 MLOAD SWAP1 DUP2 ADD PUSH1 0x40 MSTORE DUP1 SWAP3 SWAP2 SWAP1 DUP2 DUP2 MSTORE PUSH1 0x20 ADD DUP3 DUP1 SLOAD PUSH2 0xCDA SWAP1 PUSH2 0x16AC JUMP JUMPDEST DUP1 ISZERO PUSH2 0xD25 JUMPI DUP1 PUSH1 0x1F LT PUSH2 0xCFC JUMPI PUSH2 0x100 DUP1 DUP4 SLOAD DIV MUL DUP4 MSTORE SWAP2 PUSH1 0x20 ADD SWAP2 PUSH2 0xD25 JUMP JUMPDEST DUP3 ADD SWAP2 SWAP1 PUSH0 MSTORE PUSH1 0x20 PUSH0 KECCAK256 SWAP1 JUMPDEST DUP2 SLOAD DUP2 MSTORE SWAP1 PUSH1 0x1 ADD SWAP1 PUSH1 0x20 ADD DUP1 DUP4 GT PUSH2 0xD08 JUMPI DUP3 SWAP1 SUB PUSH1 0x1F AND DUP3 ADD SWAP2 JUMPDEST POP POP POP POP POP SWAP4 POP DUP3 DUP1 SLOAD PUSH2 0xD38 SWAP1 PUSH2 0x16AC JUMP JUMPDEST DUP1 PUSH1 0x1F ADD PUSH1 0x20 DUP1 SWAP2 DIV MUL PUSH1 0x20 ADD PUSH1 0x40 MLOAD SWAP1 DUP2 ADD PUSH1 0x40 MSTORE DUP1 SWAP3 SWAP2 SWAP1 DUP2 DUP2 MSTORE PUSH1 0x20 ADD DUP3 DUP1 SLOAD PUSH2 0xD64 SWAP1 PUSH2 0x16AC JUMP JUMPDEST DUP1 ISZERO PUSH2 0xDAF JUMPI DUP1 PUSH1 0x1F LT PUSH2 0xD86 JUMPI PUSH2 0x100 DUP1 DUP4 SLOAD DIV MUL DUP4 MSTORE SWAP2 PUSH1 0x20 ADD SWAP2 PUSH2 0xDAF JUMP JUMPDEST DUP3 ADD SWAP2 SWAP1 PUSH0 MSTORE PUSH1 0x20 PUSH0 KECCAK256 SWAP1 JUMPDEST DUP2 SLOAD DUP2 MSTORE SWAP1 PUSH1 0x1 ADD SWAP1 PUSH1 0x20 ADD DUP1 DUP4 GT PUSH2 0xD92 JUMPI DUP3 SWAP1 SUB PUSH1 0x1F AND DUP3 ADD SWAP2 JUMPDEST POP POP POP POP POP SWAP3 POP DUP2 DUP1 SLOAD PUSH2 0xDC2 SWAP1 PUSH2 0x16AC JUMP JUMPDEST DUP1 PUSH1 0x1F ADD PUSH1 0x20 DUP1 SWAP2 DIV MUL PUSH1 0x20 ADD PUSH1 0x40 MLOAD SWAP1 DUP2 ADD PUSH1 0x40 MSTORE DUP1 SWAP3 SWAP2 SWAP1 DUP2 DUP2 MSTORE PUSH1 0x20 ADD DUP3 DUP1 SLOAD PUSH2 0xDEE SWAP1 PUSH2 0x16AC JUMP JUMPDEST DUP1 ISZERO PUSH2 0xE39 JUMPI DUP1 PUSH1 0x1F LT PUSH2 0xE10 JUMPI PUSH2 0x100 DUP1 DUP4 SLOAD DIV MUL DUP4 MSTORE SWAP2 PUSH1 0x20 ADD SWAP2 PUSH2 0xE39 JUMP JUMPDEST DUP3 ADD SWAP2 SWAP1 PUSH0 MSTORE PUSH1 0x20 PUSH0 KECCAK256 SWAP1 JUMPDEST DUP2 SLOAD DUP2 MSTORE SWAP1 PUSH1 0x1 ADD SWAP1 PUSH1 0x20 ADD DUP1 DUP4 GT PUSH2 0xE1C JUMPI DUP3 SWAP1 SUB PUSH1 0x1F AND DUP3 ADD SWAP2 JUMPDEST POP POP POP POP POP SWAP2 POP DUP1 DUP1 SLOAD PUSH2 0xE4C SWAP1 PUSH2 0x16AC JUMP JUMPDEST DUP1 PUSH1 0x1F ADD PUSH1 0x20 DUP1 SWAP2 DIV MUL PUSH1 0x20 ADD PUSH1 0x40 MLOAD SWAP1 DUP2 ADD PUSH1 0x40 MSTORE DUP1 SWAP3 SWAP2 SWAP1 DUP2 DUP2 MSTORE PUSH1 0x20 ADD DUP3 DUP1 SLOAD PUSH2 0xE78 SWAP1 PUSH2 0x16AC JUMP JUMPDEST DUP1 ISZERO PUSH2 0xEC3 JUMPI DUP1 PUSH1 0x1F LT PUSH2 0xE9A JUMPI PUSH2 0x100 DUP1 DUP4 SLOAD DIV MUL DUP4 MSTORE SWAP2 PUSH1 0x20 ADD SWAP2 PUSH2 0xEC3 JUMP JUMPDEST DUP3 ADD SWAP2 SWAP1 PUSH0 MSTORE PUSH1 0x20 PUSH0 KECCAK256 SWAP1 JUMPDEST DUP2 SLOAD DUP2 MSTORE SWAP1 PUSH1 0x1 ADD SWAP1 PUSH1 0x20 ADD DUP1 DUP4 GT PUSH2 0xEA6 JUMPI DUP3 SWAP1 SUB PUSH1 0x1F AND DUP3 ADD SWAP2 JUMPDEST POP POP POP POP POP SWAP1 POP SWAP7 POP SWAP7 POP SWAP7 POP SWAP7 POP SWAP7 POP SWAP7 POP POP SWAP2 SWAP4 SWAP6 POP SWAP2 SWAP4 SWAP6 JUMP JUMPDEST PUSH0 PUSH1 0x40 MLOAD SWAP1 POP SWAP1 JUMP JUMPDEST PUSH0 PUSH0 REVERT JUMPDEST PUSH0 PUSH0 REVERT JUMPDEST PUSH0 PUSH20 0xFFFFFFFFFFFFFFFFFFFFFFFFFFFFFFFFFFFFFFFF DUP3 AND SWAP1 POP SWAP2 SWAP1 POP JUMP JUMPDEST PUSH0 PUSH2 0xF1A DUP3 PUSH2 0xEF1 JUMP JUMPDEST SWAP1 POP SWAP2 SWAP1 POP JUMP JUMPDEST PUSH2 0xF2A DUP2 PUSH2 0xF10 JUMP JUMPDEST DUP2 EQ PUSH2 0xF34 JUMPI PUSH0 PUSH0 REVERT JUMPDEST POP JUMP JUMPDEST PUSH0 DUP2 CALLDATALOAD SWAP1 POP PUSH2 0xF45 DUP2 PUSH2 0xF21 JUMP JUMPDEST SWAP3 SWAP2 POP POP JUMP JUMPDEST PUSH0 PUSH1 0x20 DUP3 DUP5 SUB SLT ISZERO PUSH2 0xF60 JUMPI PUSH2 0xF5F PUSH2 0xEE9 JUMP JUMPDEST JUMPDEST PUSH0 PUSH2 0xF6D DUP5 DUP3 DUP6 ADD PUSH2 0xF37 JUMP JUMPDEST SWAP2 POP POP SWAP3 SWAP2 POP POP JUMP JUMPDEST PUSH0 DUP2 MLOAD SWAP1 POP SWAP2 SWAP1 POP JUMP JUMPDEST PUSH0 DUP3 DUP3 MSTORE PUSH1 0x20 DUP3 ADD SWAP1 POP SWAP3 SWAP2 POP POP JUMP JUMPDEST DUP3 DUP2 DUP4 MCOPY PUSH0 DUP4 DUP4 ADD MSTORE POP POP POP JUMP JUMPDEST PUSH0 PUSH1 0x1F NOT PUSH1 0x1F DUP4 ADD AND SWAP1 POP SWAP2 SWAP1 POP JUMP JUMPDEST PUSH0 PUSH2 0xFB8 DUP3 PUSH2 0xF76 JUMP JUMPDEST PUSH2 0xFC2 DUP2 DUP6 PUSH2 0xF80 JUMP JUMPDEST SWAP4 POP PUSH2 0xFD2 DUP2 DUP6 PUSH1 0x20 DUP7 ADD PUSH2 0xF90 JUMP JUMPDEST PUSH2 0xFDB DUP2 PUSH2 0xF9E JUMP JUMPDEST DUP5 ADD SWAP2 POP POP SWAP3 SWAP2 POP POP JUMP JUMPDEST PUSH0 DUP2 ISZERO ISZERO SWAP1 POP SWAP2 SWAP1 POP JUMP JUMPDEST PUSH2 0xFFA DUP2 PUSH2 0xFE6 JUMP JUMPDEST DUP3 MSTORE POP POP JUMP JUMPDEST PUSH0 PUSH1 0xE0 DUP3 ADD SWAP1 POP DUP2 DUP2 SUB PUSH0 DUP4 ADD MSTORE PUSH2 0x1018 DUP2 DUP11 PUSH2 0xFAE JUMP JUMPDEST SWAP1 POP DUP2 DUP2 SUB PUSH1 0x20 DUP4 ADD MSTORE PUSH2 0x102C DUP2 DUP10 PUSH2 0xFAE JUMP JUMPDEST SWAP1 POP DUP2 DUP2 SUB PUSH1 0x40 DUP4 ADD MSTORE PUSH2 0x1040 DUP2 DUP9 PUSH2 0xFAE JUMP JUMPDEST SWAP1 POP DUP2 DUP2 SUB PUSH1 0x60 DUP4 ADD MSTORE PUSH2 0x1054 DUP2 DUP8 PUSH2 0xFAE JUMP JUMPDEST SWAP1 POP DUP2 DUP2 SUB PUSH1 0x80 DUP4 ADD MSTORE PUSH2 0x1068 DUP2 DUP7 PUSH2 0xFAE JUMP JUMPDEST SWAP1 POP DUP2 DUP2 SUB PUSH1 0xA0 DUP4 ADD MSTORE PUSH2 0x107C DUP2 DUP6 PUSH2 0xFAE JUMP JUMPDEST SWAP1 POP PUSH2 0x108B PUSH1 0xC0 DUP4 ADD DUP5 PUSH2 0xFF1 JUMP JUMPDEST SWAP9 SWAP8 POP POP POP POP POP POP POP POP JUMP JUMPDEST PUSH0 DUP2 MLOAD SWAP1 POP SWAP2 SWAP1 POP JUMP JUMPDEST PUSH0 DUP3 DUP3 MSTORE PUSH1 0x20 DUP3 ADD SWAP1 POP SWAP3 SWAP2 POP POP JUMP JUMPDEST PUSH0 DUP2 SWAP1 POP PUSH1 0x20 DUP3 ADD SWAP1 POP SWAP2 SWAP1 POP JUMP JUMPDEST PUSH2 0x10C9 DUP2 PUSH2 0xF10 JUMP JUMPDEST DUP3 MSTORE POP POP JUMP JUMPDEST PUSH0 PUSH2 0x10DA DUP4 DUP4 PUSH2 0x10C0 JUMP JUMPDEST PUSH1 0x20 DUP4 ADD SWAP1 POP SWAP3 SWAP2 POP POP JUMP JUMPDEST PUSH0 PUSH1 0x20 DUP3 ADD SWAP1 POP SWAP2 SWAP1 POP JUMP JUMPDEST PUSH0 PUSH2 0x10FC DUP3 PUSH2 0x1097 JUMP JUMPDEST PUSH2 0x1106 DUP2 DUP6 PUSH2 0x10A1 JUMP JUMPDEST SWAP4 POP PUSH2 0x1111 DUP4 PUSH2 0x10B1 JUMP JUMPDEST DUP1 PUSH0 JUMPDEST DUP4 DUP2 LT ISZERO PUSH2 0x1141 JUMPI DUP2 MLOAD PUSH2 0x1128 DUP9 DUP3 PUSH2 0x10CF JUMP JUMPDEST SWAP8 POP PUSH2 0x1133 DUP4 PUSH2 0x10E6 JUMP JUMPDEST SWAP3 POP POP PUSH1 0x1 DUP2 ADD SWAP1 POP PUSH2 0x1114 JUMP JUMPDEST POP DUP6 SWAP4 POP POP POP POP SWAP3 SWAP2 POP POP JUMP JUMPDEST PUSH0 PUSH1 0x20 DUP3 ADD SWAP1 POP DUP2 DUP2 SUB PUSH0 DUP4 ADD MSTORE PUSH2 0x1166 DUP2 DUP5 PUSH2 0x10F2 JUMP JUMPDEST SWAP1 POP SWAP3 SWAP2 POP POP JUMP JUMPDEST PUSH0 PUSH0 REVERT JUMPDEST PUSH0 PUSH0 REVERT JUMPDEST PUSH32 0x4E487B7100000000000000000000000000000000000000000000000000000000 PUSH0 MSTORE PUSH1 0x41 PUSH1 0x4 MSTORE PUSH1 0x24 PUSH0 REVERT JUMPDEST PUSH2 0x11AC DUP3 PUSH2 0xF9E JUMP JUMPDEST DUP2 ADD DUP2 DUP2 LT PUSH8 0xFFFFFFFFFFFFFFFF DUP3 GT OR ISZERO PUSH2 0x11CB JUMPI PUSH2 0x11CA PUSH2 0x1176 JUMP JUMPDEST JUMPDEST DUP1 PUSH1 0x40 MSTORE POP POP POP JUMP JUMPDEST PUSH0 PUSH2 0x11DD PUSH2 0xEE0 JUMP JUMPDEST SWAP1 POP PUSH2 0x11E9 DUP3 DUP3 PUSH2 0x11A3 JUMP JUMPDEST SWAP2 SWAP1 POP JUMP JUMPDEST PUSH0 PUSH8 0xFFFFFFFFFFFFFFFF DUP3 GT ISZERO PUSH2 0x1208 JUMPI PUSH2 0x1207 PUSH2 0x1176 JUMP JUMPDEST JUMPDEST PUSH2 0x1211 DUP3 PUSH2 0xF9E JUMP JUMPDEST SWAP1 POP PUSH1 0x20 DUP2 ADD SWAP1 POP SWAP2 SWAP1 POP JUMP JUMPDEST DUP3 DUP2 DUP4 CALLDATACOPY PUSH0 DUP4 DUP4 ADD MSTORE POP POP POP JUMP JUMPDEST PUSH0 PUSH2 0x123E PUSH2 0x1239 DUP5 PUSH2 0x11EE JUMP JUMPDEST PUSH2 0x11D4 JUMP JUMPDEST SWAP1 POP DUP3 DUP2 MSTORE PUSH1 0x20 DUP2 ADD DUP5 DUP5 DUP5 ADD GT ISZERO PUSH2 0x125A JUMPI PUSH2 0x1259 PUSH2 0x1172 JUMP JUMPDEST JUMPDEST PUSH2 0x1265 DUP5 DUP3 DUP6 PUSH2 0x121E JUMP JUMPDEST POP SWAP4 SWAP3 POP POP POP JUMP JUMPDEST PUSH0 DUP3 PUSH1 0x1F DUP4 ADD SLT PUSH2 0x1281 JUMPI PUSH2 0x1280 PUSH2 0x116E JUMP JUMPDEST JUMPDEST DUP2 CALLDATALOAD PUSH2 0x1291 DUP5 DUP3 PUSH1 0x20 DUP7 ADD PUSH2 0x122C JUMP JUMPDEST SWAP2 POP POP SWAP3 SWAP2 POP POP JUMP JUMPDEST PUSH0 PUSH0 PUSH0 PUSH0 PUSH0 PUSH0 PUSH1 0xC0 DUP8 DUP10 SUB SLT ISZERO PUSH2 0x12B4 JUMPI PUSH2 0x12B3 PUSH2 0xEE9 JUMP JUMPDEST JUMPDEST PUSH0 DUP8 ADD CALLDATALOAD PUSH8 0xFFFFFFFFFFFFFFFF DUP2 GT ISZERO PUSH2 0x12D1 JUMPI PUSH2 0x12D0 PUSH2 0xEED JUMP JUMPDEST JUMPDEST PUSH2 0x12DD DUP10 DUP3 DUP11 ADD PUSH2 0x126D JUMP JUMPDEST SWAP7 POP POP PUSH1 0x20 DUP8 ADD CALLDATALOAD PUSH8 0xFFFFFFFFFFFFFFFF DUP2 GT ISZERO PUSH2 0x12FE JUMPI PUSH2 0x12FD PUSH2 0xEED JUMP JUMPDEST JUMPDEST PUSH2 0x130A DUP10 DUP3 DUP11 ADD PUSH2 0x126D JUMP JUMPDEST SWAP6 POP POP PUSH1 0x40 DUP8 ADD CALLDATALOAD PUSH8 0xFFFFFFFFFFFFFFFF DUP2 GT ISZERO PUSH2 0x132B JUMPI PUSH2 0x132A PUSH2 0xEED JUMP JUMPDEST JUMPDEST PUSH2 0x1337 DUP10 DUP3 DUP11 ADD PUSH2 0x126D JUMP JUMPDEST SWAP5 POP POP PUSH1 0x60 DUP8 ADD CALLDATALOAD PUSH8 0xFFFFFFFFFFFFFFFF DUP2 GT ISZERO PUSH2 0x1358 JUMPI PUSH2 0x1357 PUSH2 0xEED JUMP JUMPDEST JUMPDEST PUSH2 0x1364 DUP10 DUP3 DUP11 ADD PUSH2 0x126D JUMP JUMPDEST SWAP4 POP POP PUSH1 0x80 DUP8 ADD CALLDATALOAD PUSH8 0xFFFFFFFFFFFFFFFF DUP2 GT ISZERO PUSH2 0x1385 JUMPI PUSH2 0x1384 PUSH2 0xEED JUMP JUMPDEST JUMPDEST PUSH2 0x1391 DUP10 DUP3 DUP11 ADD PUSH2 0x126D JUMP JUMPDEST SWAP3 POP POP PUSH1 0xA0 DUP8 ADD CALLDATALOAD PUSH8 0xFFFFFFFFFFFFFFFF DUP2 GT ISZERO PUSH2 0x13B2 JUMPI PUSH2 0x13B1 PUSH2 0xEED JUMP JUMPDEST JUMPDEST PUSH2 0x13BE DUP10 DUP3 DUP11 ADD PUSH2 0x126D JUMP JUMPDEST SWAP2 POP POP SWAP3 SWAP6 POP SWAP3 SWAP6 POP SWAP3 SWAP6 JUMP JUMPDEST PUSH0 DUP2 SWAP1 POP SWAP2 SWAP1 POP JUMP JUMPDEST PUSH2 0x13DD DUP2 PUSH2 0x13CB JUMP JUMPDEST DUP3 MSTORE POP POP JUMP JUMPDEST PUSH0 PUSH1 0x20 DUP3 ADD SWAP1 POP PUSH2 0x13F6 PUSH0 DUP4 ADD DUP5 PUSH2 0x13D4 JUMP JUMPDEST SWAP3 SWAP2 POP POP JUMP JUMPDEST PUSH2 0x1405 DUP2 PUSH2 0x13CB JUMP JUMPDEST DUP2 EQ PUSH2 0x140F JUMPI PUSH0 PUSH0 REVERT JUMPDEST POP JUMP JUMPDEST PUSH0 DUP2 CALLDATALOAD SWAP1 POP PUSH2 0x1420 DUP2 PUSH2 0x13FC JUMP JUMPDEST SWAP3 SWAP2 POP POP JUMP JUMPDEST PUSH0 PUSH1 0x20 DUP3 DUP5 SUB SLT ISZERO PUSH2 0x143B JUMPI PUSH2 0x143A PUSH2 0xEE9 JUMP JUMPDEST JUMPDEST PUSH0 PUSH2 0x1448 DUP5 DUP3 DUP6 ADD PUSH2 0x1412 JUMP JUMPDEST SWAP2 POP POP SWAP3 SWAP2 POP POP JUMP JUMPDEST PUSH2 0x145A DUP2 PUSH2 0xF10 JUMP JUMPDEST DUP3 MSTORE POP POP JUMP JUMPDEST PUSH0 PUSH1 0x20 DUP3 ADD SWAP1 POP PUSH2 0x1473 PUSH0 DUP4 ADD DUP5 PUSH2 0x1451 JUMP JUMPDEST SWAP3 SWAP2 POP POP JUMP JUMPDEST PUSH0 DUP2 MLOAD SWAP1 POP SWAP2 SWAP1 POP JUMP JUMPDEST PUSH0 DUP3 DUP3 MSTORE PUSH1 0x20 DUP3 ADD SWAP1 POP SWAP3 SWAP2 POP POP JUMP JUMPDEST PUSH0 DUP2 SWAP1 POP PUSH1 0x20 DUP3 ADD SWAP1 POP SWAP2 SWAP1 POP JUMP JUMPDEST PUSH0 DUP3 DUP3 MSTORE PUSH1 0x20 DUP3 ADD SWAP1 POP SWAP3 SWAP2 POP POP JUMP JUMPDEST PUSH0 PUSH2 0x14BC DUP3 PUSH2 0xF76 JUMP JUMPDEST PUSH2 0x14C6 DUP2 DUP6 PUSH2 0x14A2 JUMP JUMPDEST SWAP4 POP PUSH2 0x14D6 DUP2 DUP6 PUSH1 0x20 DUP7 ADD PUSH2 0xF90 JUMP JUMPDEST PUSH2 0x14DF DUP2 PUSH2 0xF9E JUMP JUMPDEST DUP5 ADD SWAP2 POP POP SWAP3 SWAP2 POP POP JUMP JUMPDEST PUSH0 PUSH2 0x14F5 DUP4 DUP4 PUSH2 0x14B2 JUMP JUMPDEST SWAP1 POP SWAP3 SWAP2 POP POP JUMP JUMPDEST PUSH0 PUSH1 0x20 DUP3 ADD SWAP1 POP SWAP2 SWAP1 POP JUMP JUMPDEST PUSH0 PUSH2 0x1513 DUP3 PUSH2 0x1479 JUMP JUMPDEST PUSH2 0x151D DUP2 DUP6 PUSH2 0x1483 JUMP JUMPDEST SWAP4 POP DUP4 PUSH1 0x20 DUP3 MUL DUP6 ADD PUSH2 0x152F DUP6 PUSH2 0x1493 JUMP JUMPDEST DUP1 PUSH0 JUMPDEST DUP6 DUP2 LT ISZERO PUSH2 0x156A JUMPI DUP5 DUP5 SUB DUP10 MSTORE DUP2 MLOAD PUSH2 0x154B DUP6 DUP3 PUSH2 0x14EA JUMP JUMPDEST SWAP5 POP PUSH2 0x1556 DUP4 PUSH2 0x14FD JUMP JUMPDEST SWAP3 POP PUSH1 0x20 DUP11 ADD SWAP10 POP POP PUSH1 0x1 DUP2 ADD SWAP1 POP PUSH2 0x1532 JUMP JUMPDEST POP DUP3 SWAP8 POP DUP8 SWAP6 POP POP POP POP POP POP SWAP3 SWAP2 POP POP JUMP JUMPDEST PUSH0 PUSH1 0x20 DUP3 ADD SWAP1 POP DUP2 DUP2 SUB PUSH0 DUP4 ADD MSTORE PUSH2 0x1594 DUP2 DUP5 PUSH2 0x1509 JUMP JUMPDEST SWAP1 POP SWAP3 SWAP2 POP POP JUMP JUMPDEST PUSH0 PUSH0 PUSH1 0x40 DUP4 DUP6 SUB SLT ISZERO PUSH2 0x15B2 JUMPI PUSH2 0x15B1 PUSH2 0xEE9 JUMP JUMPDEST JUMPDEST PUSH0 PUSH2 0x15BF DUP6 DUP3 DUP7 ADD PUSH2 0xF37 JUMP JUMPDEST SWAP3 POP POP PUSH1 0x20 DUP4 ADD CALLDATALOAD PUSH8 0xFFFFFFFFFFFFFFFF DUP2 GT ISZERO PUSH2 0x15E0 JUMPI PUSH2 0x15DF PUSH2 0xEED JUMP JUMPDEST JUMPDEST PUSH2 0x15EC DUP6 DUP3 DUP7 ADD PUSH2 0x126D JUMP JUMPDEST SWAP2 POP POP SWAP3 POP SWAP3 SWAP1 POP JUMP JUMPDEST PUSH0 PUSH1 0xC0 DUP3 ADD SWAP1 POP DUP2 DUP2 SUB PUSH0 DUP4 ADD MSTORE PUSH2 0x160E DUP2 DUP10 PUSH2 0xFAE JUMP JUMPDEST SWAP1 POP DUP2 DUP2 SUB PUSH1 0x20 DUP4 ADD MSTORE PUSH2 0x1622 DUP2 DUP9 PUSH2 0xFAE JUMP JUMPDEST SWAP1 POP DUP2 DUP2 SUB PUSH1 0x40 DUP4 ADD MSTORE PUSH2 0x1636 DUP2 DUP8 PUSH2 0xFAE JUMP JUMPDEST SWAP1 POP DUP2 DUP2 SUB PUSH1 0x60 DUP4 ADD MSTORE PUSH2 0x164A DUP2 DUP7 PUSH2 0xFAE JUMP JUMPDEST SWAP1 POP DUP2 DUP2 SUB PUSH1 0x80 DUP4 ADD MSTORE PUSH2 0x165E DUP2 DUP6 PUSH2 0xFAE JUMP JUMPDEST SWAP1 POP DUP2 DUP2 SUB PUSH1 0xA0 DUP4 ADD MSTORE PUSH2 0x1672 DUP2 DUP5 PUSH2 0xFAE JUMP JUMPDEST SWAP1 POP SWAP8 SWAP7 POP POP POP POP POP POP POP JUMP JUMPDEST PUSH32 0x4E487B7100000000000000000000000000000000000000000000000000000000 PUSH0 MSTORE PUSH1 0x22 PUSH1 0x4 MSTORE PUSH1 0x24 PUSH0 REVERT JUMPDEST PUSH0 PUSH1 0x2 DUP3 DIV SWAP1 POP PUSH1 0x1 DUP3 AND DUP1 PUSH2 0x16C3 JUMPI PUSH1 0x7F DUP3 AND SWAP2 POP JUMPDEST PUSH1 0x20 DUP3 LT DUP2 SUB PUSH2 0x16D6 JUMPI PUSH2 0x16D5 PUSH2 0x167F JUMP JUMPDEST JUMPDEST POP SWAP2 SWAP1 POP JUMP JUMPDEST PUSH32 0x416C726561647920726567697374657265640000000000000000000000000000 PUSH0 DUP3 ADD MSTORE POP JUMP JUMPDEST PUSH0 PUSH2 0x1710 PUSH1 0x12 DUP4 PUSH2 0xF80 JUMP JUMPDEST SWAP2 POP PUSH2 0x171B DUP3 PUSH2 0x16DC JUMP JUMPDEST PUSH1 0x20 DUP3 ADD SWAP1 POP SWAP2 SWAP1 POP JUMP JUMPDEST PUSH0 PUSH1 0x20 DUP3 ADD SWAP1 POP DUP2 DUP2 SUB PUSH0 DUP4 ADD MSTORE PUSH2 0x173D DUP2 PUSH2 0x1704 JUMP JUMPDEST SWAP1 POP SWAP2 SWAP1 POP JUMP JUMPDEST PUSH0 DUP2 SWAP1 POP DUP2 PUSH0 MSTORE PUSH1 0x20 PUSH0 KECCAK256 SWAP1 POP SWAP2 SWAP1 POP JUMP JUMPDEST PUSH0 PUSH1 0x20 PUSH1 0x1F DUP4 ADD DIV SWAP1 POP SWAP2 SWAP1 POP JUMP JUMPDEST PUSH0 DUP3 DUP3 SHL SWAP1 POP SWAP3 SWAP2 POP POP JUMP JUMPDEST PUSH0 PUSH1 0x8 DUP4 MUL PUSH2 0x17A0 PUSH32 0xFFFFFFFFFFFFFFFFFFFFFFFFFFFFFFFFFFFFFFFFFFFFFFFFFFFFFFFFFFFFFFFF DUP3 PUSH2 0x1765 JUMP JUMPDEST PUSH2 0x17AA DUP7 DUP4 PUSH2 0x1765 JUMP JUMPDEST SWAP6 POP DUP1 NOT DUP5 AND SWAP4 POP DUP1 DUP7 AND DUP5 OR SWAP3 POP POP POP SWAP4 SWAP3 POP POP POP JUMP JUMPDEST PUSH0 DUP2 SWAP1 POP SWAP2 SWAP1 POP JUMP JUMPDEST PUSH0 PUSH2 0x17E5 PUSH2 0x17E0 PUSH2 0x17DB DUP5 PUSH2 0x13CB JUMP JUMPDEST PUSH2 0x17C2 JUMP JUMPDEST PUSH2 0x13CB JUMP JUMPDEST SWAP1 POP SWAP2 SWAP1 POP JUMP JUMPDEST PUSH0 DUP2 SWAP1 POP SWAP2 SWAP1 POP JUMP JUMPDEST PUSH2 0x17FE DUP4 PUSH2 0x17CB JUMP JUMPDEST PUSH2 0x1812 PUSH2 0x180A DUP3 PUSH2 0x17EC JUMP JUMPDEST DUP5 DUP5 SLOAD PUSH2 0x1771 JUMP JUMPDEST DUP3 SSTORE POP POP POP POP JUMP JUMPDEST PUSH0 PUSH0 SWAP1 POP SWAP1 JUMP JUMPDEST PUSH2 0x1829 PUSH2 0x181A JUMP JUMPDEST PUSH2 0x1834 DUP2 DUP5 DUP5 PUSH2 0x17F5 JUMP JUMPDEST POP POP POP JUMP JUMPDEST JUMPDEST DUP2 DUP2 LT ISZERO PUSH2 0x1857 JUMPI PUSH2 0x184C PUSH0 DUP3 PUSH2 0x1821 JUMP JUMPDEST PUSH1 0x1 DUP2 ADD SWAP1 POP PUSH2 0x183A JUMP JUMPDEST POP POP JUMP JUMPDEST PUSH1 0x1F DUP3 GT ISZERO PUSH2 0x189C JUMPI PUSH2 0x186D DUP2 PUSH2 0x1744 JUMP JUMPDEST PUSH2 0x1876 DUP5 PUSH2 0x1756 JUMP JUMPDEST DUP2 ADD PUSH1 0x20 DUP6 LT ISZERO PUSH2 0x1885 JUMPI DUP2 SWAP1 POP JUMPDEST PUSH2 0x1899 PUSH2 0x1891 DUP6 PUSH2 0x1756 JUMP JUMPDEST DUP4 ADD DUP3 PUSH2 0x1839 JUMP JUMPDEST POP POP JUMPDEST POP POP POP JUMP JUMPDEST PUSH0 DUP3 DUP3 SHR SWAP1 POP SWAP3 SWAP2 POP POP JUMP JUMPDEST PUSH0 PUSH2 0x18BC PUSH0 NOT DUP5 PUSH1 0x8 MUL PUSH2 0x18A1 JUMP JUMPDEST NOT DUP1 DUP4 AND SWAP2 POP POP SWAP3 SWAP2 POP POP JUMP JUMPDEST PUSH0 PUSH2 0x18D4 DUP4 DUP4 PUSH2 0x18AD JUMP JUMPDEST SWAP2 POP DUP3 PUSH1 0x2 MUL DUP3 OR SWAP1 POP SWAP3 SWAP2 POP POP JUMP JUMPDEST PUSH2 0x18ED DUP3 PUSH2 0xF76 JUMP JUMPDEST PUSH8 0xFFFFFFFFFFFFFFFF DUP2 GT ISZERO PUSH2 0x1906 JUMPI PUSH2 0x1905 PUSH2 0x1176 JUMP JUMPDEST JUMPDEST PUSH2 0x1910 DUP3 SLOAD PUSH2 0x16AC JUMP JUMPDEST PUSH2 0x191B DUP3 DUP3 DUP6 PUSH2 0x185B JUMP JUMPDEST PUSH0 PUSH1 0x20 SWAP1 POP PUSH1 0x1F DUP4 GT PUSH1 0x1 DUP2 EQ PUSH2 0x194C JUMPI PUSH0 DUP5 ISZERO PUSH2 0x193A JUMPI DUP3 DUP8 ADD MLOAD SWAP1 POP JUMPDEST PUSH2 0x1944 DUP6 DUP3 PUSH2 0x18C9 JUMP JUMPDEST DUP7 SSTORE POP PUSH2 0x19AB JUMP JUMPDEST PUSH1 0x1F NOT DUP5 AND PUSH2 0x195A DUP7 PUSH2 0x1744 JUMP JUMPDEST PUSH0 JUMPDEST DUP3 DUP2 LT ISZERO PUSH2 0x1981 JUMPI DUP5 DUP10 ADD MLOAD DUP3 SSTORE PUSH1 0x1 DUP3 ADD SWAP2 POP PUSH1 0x20 DUP6 ADD SWAP5 POP PUSH1 0x20 DUP2 ADD SWAP1 POP PUSH2 0x195C JUMP JUMPDEST DUP7 DUP4 LT ISZERO PUSH2 0x199E JUMPI DUP5 DUP10 ADD MLOAD PUSH2 0x199A PUSH1 0x1F DUP10 AND DUP3 PUSH2 0x18AD JUMP JUMPDEST DUP4 SSTORE POP JUMPDEST PUSH1 0x1 PUSH1 0x2 DUP9 MUL ADD DUP9 SSTORE POP POP POP JUMPDEST POP POP POP POP POP POP JUMP JUMPDEST PUSH32 0x4E487B7100000000000000000000000000000000000000000000000000000000 PUSH0 MSTORE PUSH1 0x11 PUSH1 0x4 MSTORE PUSH1 0x24 PUSH0 REVERT JUMPDEST PUSH0 PUSH2 0x19EA DUP3 PUSH2 0x13CB JUMP JUMPDEST SWAP2 POP PUSH32 0xFFFFFFFFFFFFFFFFFFFFFFFFFFFFFFFFFFFFFFFFFFFFFFFFFFFFFFFFFFFFFFFF DUP3 SUB PUSH2 0x1A1C JUMPI PUSH2 0x1A1B PUSH2 0x19B3 JUMP JUMPDEST JUMPDEST PUSH1 0x1 DUP3 ADD SWAP1 POP SWAP2 SWAP1 POP JUMP JUMPDEST PUSH0 PUSH1 0x20 DUP3 ADD SWAP1 POP DUP2 DUP2 SUB PUSH0 DUP4 ADD MSTORE PUSH2 0x1A3F DUP2 DUP5 PUSH2 0xFAE JUMP JUMPDEST SWAP1 POP SWAP3 SWAP2 POP POP JUMP JUMPDEST PUSH32 0x4E6F742072656769737465726564000000000000000000000000000000000000 PUSH0 DUP3 ADD MSTORE POP JUMP JUMPDEST PUSH0 PUSH2 0x1A7B PUSH1 0xE DUP4 PUSH2 0xF80 JUMP JUMPDEST SWAP2 POP PUSH2 0x1A86 DUP3 PUSH2 0x1A47 JUMP JUMPDEST PUSH1 0x20 DUP3 ADD SWAP1 POP SWAP2 SWAP1 POP JUMP JUMPDEST PUSH0 PUSH1 0x20 DUP3 ADD SWAP1 POP DUP2 DUP2 SUB PUSH0 DUP4 ADD MSTORE PUSH2 0x1AA8 DUP2 PUSH2 0x1A6F JUMP JUMPDEST SWAP1 POP SWAP2 SWAP1 POP JUMP INVALID LOG2 PUSH5 0x6970667358 0x22 SLT KECCAK256 DUPN 0x28 SGT EXP PUSH18 0xDD0A1E72518E709378F33B7BA1106FA32C65 0x4F SWAP8 JUMP JUMP 0xC3 0xBB BLOBHASH 0xDC NUMBER PUSH5 0x736F6C6343 STOP ADDMOD 0x1E STOP CALLER "
				},
				"gasEstimates": {
					"creation": {
						"codeDepositCost": "1377000",
						"executionCost": "1436",
						"totalCost": "1378436"
					},
					"external": {
						"addFileToPatient(address,string)": "infinite",
						"getAllRegisteredPatients()": "infinite",
						"getPatientDetails(address)": "infinite",
						"getPatientFiles(address)": "infinite",
						"getTotalPatientsCount()": "2497",
						"getTotalRecordsCount()": "2521",
						"patients(address)": "infinite",
						"registerPatient(string,string,string,string,string,string)": "infinite",
						"registeredPatientAddresses(uint256)": "4944",
						"totalFileRecords()": "2492",
						"totalPatients()": "2468"
					}
				},
				"methodIdentifiers": {
					"addFileToPatient(address,string)": "edefcf88",
					"getAllRegisteredPatients()": "413f107a",
					"getPatientDetails(address)": "efe2ccc1",
					"getPatientFiles(address)": "c1816dfb",
					"getTotalPatientsCount()": "ed3a2634",
					"getTotalRecordsCount()": "9a96fcc1",
					"patients(address)": "0869cfbc",
					"registerPatient(string,string,string,string,string,string)": "6d26dce8",
					"registeredPatientAddresses(uint256)": "a2143b3c",
					"totalFileRecords()": "8f768649",
					"totalPatients()": "deb5ef09"
				}
			},
			"storageLayout": {
				"storage": [
					{
						"astId": 3,
						"contract": "contracts/PatientRegistry.sol:PatientRegistry",
						"label": "totalPatients",
						"offset": 0,
						"slot": "0",
						"type": "t_uint256"
					},
					{
						"astId": 5,
						"contract": "contracts/PatientRegistry.sol:PatientRegistry",
						"label": "totalFileRecords",
						"offset": 0,
						"slot": "1",
						"type": "t_uint256"
					},
					{
						"astId": 28,
						"contract": "contracts/PatientRegistry.sol:PatientRegistry",
						"label": "patients",
						"offset": 0,
						"slot": "2",
						"type": "t_mapping(t_address,t_struct(Patient)23_storage)"
					},
					{
						"astId": 31,
						"contract": "contracts/PatientRegistry.sol:PatientRegistry",
						"label": "registeredPatientAddresses",
						"offset": 0,
						"slot": "3",
						"type": "t_array(t_address)dyn_storage"
					}
				],
				"types": {
					"t_address": {
						"encoding": "inplace",
						"label": "address",
						"numberOfBytes": "20"
					},
					"t_array(t_address)dyn_storage": {
						"base": "t_address",
						"encoding": "dynamic_array",
						"label": "address[]",
						"numberOfBytes": "32"
					},
					"t_array(t_string_storage)dyn_storage": {
						"base": "t_string_storage",
						"encoding": "dynamic_array",
						"label": "string[]",
						"numberOfBytes": "32"
					},
					"t_bool": {
						"encoding": "inplace",
						"label": "bool",
						"numberOfBytes": "1"
					},
					"t_mapping(t_address,t_struct(Patient)23_storage)": {
						"encoding": "mapping",
						"key": "t_address",
						"label": "mapping(address => struct PatientRegistry.Patient)",
						"numberOfBytes": "32",
						"value": "t_struct(Patient)23_storage"
					},
					"t_string_storage": {
						"encoding": "bytes",
						"label": "string",
						"numberOfBytes": "32"
					},
					"t_struct(Patient)23_storage": {
						"encoding": "inplace",
						"label": "struct PatientRegistry.Patient",
						"members": [
							{
								"astId": 7,
								"contract": "contracts/PatientRegistry.sol:PatientRegistry",
								"label": "name",
								"offset": 0,
								"slot": "0",
								"type": "t_string_storage"
							},
							{
								"astId": 9,
								"contract": "contracts/PatientRegistry.sol:PatientRegistry",
								"label": "gender",
								"offset": 0,
								"slot": "1",
								"type": "t_string_storage"
							},
							{
								"astId": 11,
								"contract": "contracts/PatientRegistry.sol:PatientRegistry",
								"label": "dateOfBirth",
								"offset": 0,
								"slot": "2",
								"type": "t_string_storage"
							},
							{
								"astId": 13,
								"contract": "contracts/PatientRegistry.sol:PatientRegistry",
								"label": "bloodGroup",
								"offset": 0,
								"slot": "3",
								"type": "t_string_storage"
							},
							{
								"astId": 15,
								"contract": "contracts/PatientRegistry.sol:PatientRegistry",
								"label": "contactInfo",
								"offset": 0,
								"slot": "4",
								"type": "t_string_storage"
							},
							{
								"astId": 17,
								"contract": "contracts/PatientRegistry.sol:PatientRegistry",
								"label": "homeAddress",
								"offset": 0,
								"slot": "5",
								"type": "t_string_storage"
							},
							{
								"astId": 19,
								"contract": "contracts/PatientRegistry.sol:PatientRegistry",
								"label": "isRegistered",
								"offset": 0,
								"slot": "6",
								"type": "t_bool"
							},
							{
								"astId": 22,
								"contract": "contracts/PatientRegistry.sol:PatientRegistry",
								"label": "fileHashes",
								"offset": 0,
								"slot": "7",
								"type": "t_array(t_string_storage)dyn_storage"
							}
						],
						"numberOfBytes": "256"
					},
					"t_uint256": {
						"encoding": "inplace",
						"label": "uint256",
						"numberOfBytes": "32"
					}
				}
			},
			"userdoc": {
				"kind": "user",
				"methods": {},
				"version": 1
			}
		}
	}
}