{
	"contracts/PatientRegistry.sol": {
		"PatientRegistry": {
			"abi": [
				{
					"anonymous": false,
					"inputs": [
						{
							"indexed": true,
							"internalType": "address",
							"name": "patient",
							"type": "address"
						},
						{
							"indexed": false,
							"internalType": "bytes32",
							"name": "fileHash",
							"type": "bytes32"
						}
					],
					"name": "FileAdded",
					"type": "event"
				},
				{
					"anonymous": false,
					"inputs": [
						{
							"indexed": true,
							"internalType": "address",
							"name": "patient",
							"type": "address"
						},
						{
							"indexed": false,
							"internalType": "string",
							"name": "name",
							"type": "string"
						}
					],
					"name": "PatientRegistered",
					"type": "event"
				},
				{
					"inputs": [
						{
							"internalType": "bytes32",
							"name": "_fileHash",
							"type": "bytes32"
						}
					],
					"name": "addFileToPatient",
					"outputs": [],
					"stateMutability": "nonpayable",
					"type": "function"
				},
				{
					"inputs": [
						{
							"internalType": "address",
							"name": "_patient",
							"type": "address"
						}
					],
					"name": "getPatientDetails",
					"outputs": [
						{
							"internalType": "string",
							"name": "",
							"type": "string"
						},
						{
							"internalType": "string",
							"name": "",
							"type": "string"
						},
						{
							"internalType": "string",
							"name": "",
							"type": "string"
						},
						{
							"internalType": "string",
							"name": "",
							"type": "string"
						}
					],
					"stateMutability": "view",
					"type": "function"
				},
				{
					"inputs": [
						{
							"internalType": "address",
							"name": "_patient",
							"type": "address"
						}
					],
					"name": "getPatientFiles",
					"outputs": [
						{
							"internalType": "bytes32[]",
							"name": "",
							"type": "bytes32[]"
						}
					],
					"stateMutability": "view",
					"type": "function"
				},
				{
					"inputs": [
						{
							"internalType": "address",
							"name": "",
							"type": "address"
						}
					],
					"name": "patients",
					"outputs": [
						{
							"internalType": "string",
							"name": "name",
							"type": "string"
						},
						{
							"internalType": "string",
							"name": "gender",
							"type": "string"
						},
						{
							"internalType": "string",
							"name": "dateOfBirth",
							"type": "string"
						},
						{
							"internalType": "string",
							"name": "contactInfo",
							"type": "string"
						},
						{
							"internalType": "bool",
							"name": "isRegistered",
							"type": "bool"
						}
					],
					"stateMutability": "view",
					"type": "function"
				},
				{
					"inputs": [
						{
							"internalType": "string",
							"name": "_name",
							"type": "string"
						},
						{
							"internalType": "string",
							"name": "_gender",
							"type": "string"
						},
						{
							"internalType": "string",
							"name": "_dateOfBirth",
							"type": "string"
						},
						{
							"internalType": "string",
							"name": "_contactInfo",
							"type": "string"
						}
					],
					"name": "registerPatient",
					"outputs": [],
					"stateMutability": "nonpayable",
					"type": "function"
				}
			],
			"devdoc": {
				"kind": "dev",
				"methods": {},
				"version": 1
			},
			"evm": {
				"assembly": "    /* \"contracts/PatientRegistry.sol\":61:2073  contract PatientRegistry {... */\n  mstore(0x40, 0x80)\n  callvalue\n  dup1\n  iszero\n  tag_1\n  jumpi\n  revert(0x00, 0x00)\ntag_1:\n  pop\n  dataSize(sub_0)\n  dup1\n  dataOffset(sub_0)\n  0x00\n  codecopy\n  0x00\n  return\nstop\n\nsub_0: assembly {\n        /* \"contracts/PatientRegistry.sol\":61:2073  contract PatientRegistry {... */\n      mstore(0x40, 0x80)\n      callvalue\n      dup1\n      iszero\n      tag_1\n      jumpi\n      revert(0x00, 0x00)\n    tag_1:\n      pop\n      jumpi(tag_2, lt(calldatasize, 0x04))\n      shr(0xe0, calldataload(0x00))\n      dup1\n      0x0869cfbc\n      eq\n      tag_3\n      jumpi\n      dup1\n      0x4ba0a020\n      eq\n      tag_4\n      jumpi\n      dup1\n      0xc1816dfb\n      eq\n      tag_5\n      jumpi\n      dup1\n      0xc58b709d\n      eq\n      tag_6\n      jumpi\n      dup1\n      0xefe2ccc1\n      eq\n      tag_7\n      jumpi\n    tag_2:\n      revert(0x00, 0x00)\n        /* \"contracts/PatientRegistry.sol\":511:554  mapping(address => Patient) public patients */\n    tag_3:\n      tag_8\n      0x04\n      dup1\n      calldatasize\n      sub\n      dup2\n      add\n      swap1\n      tag_9\n      swap2\n      swap1\n      tag_10\n      jump\t// in\n    tag_9:\n      tag_11\n      jump\t// in\n    tag_8:\n      mload(0x40)\n      tag_12\n      swap6\n      swap5\n      swap4\n      swap3\n      swap2\n      swap1\n      tag_13\n      jump\t// in\n    tag_12:\n      mload(0x40)\n      dup1\n      swap2\n      sub\n      swap1\n      return\n        /* \"contracts/PatientRegistry.sol\":823:1441  function registerPatient(... */\n    tag_4:\n      tag_14\n      0x04\n      dup1\n      calldatasize\n      sub\n      dup2\n      add\n      swap1\n      tag_15\n      swap2\n      swap1\n      tag_16\n      jump\t// in\n    tag_15:\n      tag_17\n      jump\t// in\n    tag_14:\n      stop\n        /* \"contracts/PatientRegistry.sol\":1640:1779  function getPatientFiles(address _patient) external view returns (bytes32[] memory) {... */\n    tag_5:\n      tag_18\n      0x04\n      dup1\n      calldatasize\n      sub\n      dup2\n      add\n      swap1\n      tag_19\n      swap2\n      swap1\n      tag_10\n      jump\t// in\n    tag_19:\n      tag_20\n      jump\t// in\n    tag_18:\n      mload(0x40)\n      tag_21\n      swap2\n      swap1\n      tag_22\n      jump\t// in\n    tag_21:\n      mload(0x40)\n      dup1\n      swap2\n      sub\n      swap1\n      return\n        /* \"contracts/PatientRegistry.sol\":1449:1632  function addFileToPatient(bytes32 _fileHash) external onlyRegistered {... */\n    tag_6:\n      tag_23\n      0x04\n      dup1\n      calldatasize\n      sub\n      dup2\n      add\n      swap1\n      tag_24\n      swap2\n      swap1\n      tag_25\n      jump\t// in\n    tag_24:\n      tag_26\n      jump\t// in\n    tag_23:\n      stop\n        /* \"contracts/PatientRegistry.sol\":1787:2070  function getPatientDetails(address _patient)... */\n    tag_7:\n      tag_27\n      0x04\n      dup1\n      calldatasize\n      sub\n      dup2\n      add\n      swap1\n      tag_28\n      swap2\n      swap1\n      tag_10\n      jump\t// in\n    tag_28:\n      tag_29\n      jump\t// in\n    tag_27:\n      mload(0x40)\n      tag_30\n      swap5\n      swap4\n      swap3\n      swap2\n      swap1\n      tag_31\n      jump\t// in\n    tag_30:\n      mload(0x40)\n      dup1\n      swap2\n      sub\n      swap1\n      return\n        /* \"contracts/PatientRegistry.sol\":511:554  mapping(address => Patient) public patients */\n    tag_11:\n      mstore(0x20, 0x00)\n      dup1\n      0x00\n      mstore\n      keccak256(0x00, 0x40)\n      0x00\n      swap2\n      pop\n      swap1\n      pop\n      dup1\n      0x00\n      add\n      dup1\n      sload\n      tag_32\n      swap1\n      tag_33\n      jump\t// in\n    tag_32:\n      dup1\n      0x1f\n      add\n      0x20\n      dup1\n      swap2\n      div\n      mul\n      0x20\n      add\n      mload(0x40)\n      swap1\n      dup2\n      add\n      0x40\n      mstore\n      dup1\n      swap3\n      swap2\n      swap1\n      dup2\n      dup2\n      mstore\n      0x20\n      add\n      dup3\n      dup1\n      sload\n      tag_34\n      swap1\n      tag_33\n      jump\t// in\n    tag_34:\n      dup1\n      iszero\n      tag_35\n      jumpi\n      dup1\n      0x1f\n      lt\n      tag_36\n      jumpi\n      0x0100\n      dup1\n      dup4\n      sload\n      div\n      mul\n      dup4\n      mstore\n      swap2\n      0x20\n      add\n      swap2\n      jump(tag_35)\n    tag_36:\n      dup3\n      add\n      swap2\n      swap1\n      0x00\n      mstore\n      keccak256(0x00, 0x20)\n      swap1\n    tag_37:\n      dup2\n      sload\n      dup2\n      mstore\n      swap1\n      0x01\n      add\n      swap1\n      0x20\n      add\n      dup1\n      dup4\n      gt\n      tag_37\n      jumpi\n      dup3\n      swap1\n      sub\n      0x1f\n      and\n      dup3\n      add\n      swap2\n    tag_35:\n      pop\n      pop\n      pop\n      pop\n      pop\n      swap1\n      dup1\n      0x01\n      add\n      dup1\n      sload\n      tag_38\n      swap1\n      tag_33\n      jump\t// in\n    tag_38:\n      dup1\n      0x1f\n      add\n      0x20\n      dup1\n      swap2\n      div\n      mul\n      0x20\n      add\n      mload(0x40)\n      swap1\n      dup2\n      add\n      0x40\n      mstore\n      dup1\n      swap3\n      swap2\n      swap1\n      dup2\n      dup2\n      mstore\n      0x20\n      add\n      dup3\n      dup1\n      sload\n      tag_39\n      swap1\n      tag_33\n      jump\t// in\n    tag_39:\n      dup1\n      iszero\n      tag_40\n      jumpi\n      dup1\n      0x1f\n      lt\n      tag_41\n      jumpi\n      0x0100\n      dup1\n      dup4\n      sload\n      div\n      mul\n      dup4\n      mstore\n      swap2\n      0x20\n      add\n      swap2\n      jump(tag_40)\n    tag_41:\n      dup3\n      add\n      swap2\n      swap1\n      0x00\n      mstore\n      keccak256(0x00, 0x20)\n      swap1\n    tag_42:\n      dup2\n      sload\n      dup2\n      mstore\n      swap1\n      0x01\n      add\n      swap1\n      0x20\n      add\n      dup1\n      dup4\n      gt\n      tag_42\n      jumpi\n      dup3\n      swap1\n      sub\n      0x1f\n      and\n      dup3\n      add\n      swap2\n    tag_40:\n      pop\n      pop\n      pop\n      pop\n      pop\n      swap1\n      dup1\n      0x02\n      add\n      dup1\n      sload\n      tag_43\n      swap1\n      tag_33\n      jump\t// in\n    tag_43:\n      dup1\n      0x1f\n      add\n      0x20\n      dup1\n      swap2\n      div\n      mul\n      0x20\n      add\n      mload(0x40)\n      swap1\n      dup2\n      add\n      0x40\n      mstore\n      dup1\n      swap3\n      swap2\n      swap1\n      dup2\n      dup2\n      mstore\n      0x20\n      add\n      dup3\n      dup1\n      sload\n      tag_44\n      swap1\n      tag_33\n      jump\t// in\n    tag_44:\n      dup1\n      iszero\n      tag_45\n      jumpi\n      dup1\n      0x1f\n      lt\n      tag_46\n      jumpi\n      0x0100\n      dup1\n      dup4\n      sload\n      div\n      mul\n      dup4\n      mstore\n      swap2\n      0x20\n      add\n      swap2\n      jump(tag_45)\n    tag_46:\n      dup3\n      add\n      swap2\n      swap1\n      0x00\n      mstore\n      keccak256(0x00, 0x20)\n      swap1\n    tag_47:\n      dup2\n      sload\n      dup2\n      mstore\n      swap1\n      0x01\n      add\n      swap1\n      0x20\n      add\n      dup1\n      dup4\n      gt\n      tag_47\n      jumpi\n      dup3\n      swap1\n      sub\n      0x1f\n      and\n      dup3\n      add\n      swap2\n    tag_45:\n      pop\n      pop\n      pop\n      pop\n      pop\n      swap1\n      dup1\n      0x03\n      add\n      dup1\n      sload\n      tag_48\n      swap1\n      tag_33\n      jump\t// in\n    tag_48:\n      dup1\n      0x1f\n      add\n      0x20\n      dup1\n      swap2\n      div\n      mul\n      0x20\n      add\n      mload(0x40)\n      swap1\n      dup2\n      add\n      0x40\n      mstore\n      dup1\n      swap3\n      swap2\n      swap1\n      dup2\n      dup2\n      mstore\n      0x20\n      add\n      dup3\n      dup1\n      sload\n      tag_49\n      swap1\n      tag_33\n      jump\t// in\n    tag_49:\n      dup1\n      iszero\n      tag_50\n      jumpi\n      dup1\n      0x1f\n      lt\n      tag_51\n      jumpi\n      0x0100\n      dup1\n      dup4\n      sload\n      div\n      mul\n      dup4\n      mstore\n      swap2\n      0x20\n      add\n      swap2\n      jump(tag_50)\n    tag_51:\n      dup3\n      add\n      swap2\n      swap1\n      0x00\n      mstore\n      keccak256(0x00, 0x20)\n      swap1\n    tag_52:\n      dup2\n      sload\n      dup2\n      mstore\n      swap1\n      0x01\n      add\n      swap1\n      0x20\n      add\n      dup1\n      dup4\n      gt\n      tag_52\n      jumpi\n      dup3\n      swap1\n      sub\n      0x1f\n      and\n      dup3\n      add\n      swap2\n    tag_50:\n      pop\n      pop\n      pop\n      pop\n      pop\n      swap1\n      dup1\n      0x04\n      add\n      0x00\n      swap1\n      sload\n      swap1\n      0x0100\n      exp\n      swap1\n      div\n      0xff\n      and\n      swap1\n      pop\n      dup6\n      jump\t// out\n        /* \"contracts/PatientRegistry.sol\":823:1441  function registerPatient(... */\n    tag_17:\n        /* \"contracts/PatientRegistry.sol\":1020:1028  patients */\n      0x00\n        /* \"contracts/PatientRegistry.sol\":1020:1040  patients[msg.sender] */\n      0x00\n        /* \"contracts/PatientRegistry.sol\":1029:1039  msg.sender */\n      caller\n        /* \"contracts/PatientRegistry.sol\":1020:1040  patients[msg.sender] */\n      0xffffffffffffffffffffffffffffffffffffffff\n      and\n      0xffffffffffffffffffffffffffffffffffffffff\n      and\n      dup2\n      mstore\n      0x20\n      add\n      swap1\n      dup2\n      mstore\n      0x20\n      add\n      0x00\n      keccak256\n        /* \"contracts/PatientRegistry.sol\":1020:1053  patients[msg.sender].isRegistered */\n      0x04\n      add\n      0x00\n      swap1\n      sload\n      swap1\n      0x0100\n      exp\n      swap1\n      div\n      0xff\n      and\n        /* \"contracts/PatientRegistry.sol\":1019:1053  !patients[msg.sender].isRegistered */\n      iszero\n        /* \"contracts/PatientRegistry.sol\":1011:1076  require(!patients[msg.sender].isRegistered, \"Already registered\") */\n      tag_54\n      jumpi\n      mload(0x40)\n      0x08c379a000000000000000000000000000000000000000000000000000000000\n      dup2\n      mstore\n      0x04\n      add\n      tag_55\n      swap1\n      tag_56\n      jump\t// in\n    tag_55:\n      mload(0x40)\n      dup1\n      swap2\n      sub\n      swap1\n      revert\n    tag_54:\n        /* \"contracts/PatientRegistry.sol\":1175:1192  Patient storage p */\n      0x00\n        /* \"contracts/PatientRegistry.sol\":1195:1203  patients */\n      0x00\n        /* \"contracts/PatientRegistry.sol\":1195:1215  patients[msg.sender] */\n      0x00\n        /* \"contracts/PatientRegistry.sol\":1204:1214  msg.sender */\n      caller\n        /* \"contracts/PatientRegistry.sol\":1195:1215  patients[msg.sender] */\n      0xffffffffffffffffffffffffffffffffffffffff\n      and\n      0xffffffffffffffffffffffffffffffffffffffff\n      and\n      dup2\n      mstore\n      0x20\n      add\n      swap1\n      dup2\n      mstore\n      0x20\n      add\n      0x00\n      keccak256\n        /* \"contracts/PatientRegistry.sol\":1175:1215  Patient storage p = patients[msg.sender] */\n      swap1\n      pop\n        /* \"contracts/PatientRegistry.sol\":1235:1240  _name */\n      dup5\n        /* \"contracts/PatientRegistry.sol\":1226:1227  p */\n      dup2\n        /* \"contracts/PatientRegistry.sol\":1226:1232  p.name */\n      0x00\n      add\n        /* \"contracts/PatientRegistry.sol\":1226:1240  p.name = _name */\n      swap1\n      dup2\n      tag_57\n      swap2\n      swap1\n      tag_58\n      jump\t// in\n    tag_57:\n      pop\n        /* \"contracts/PatientRegistry.sol\":1262:1269  _gender */\n      dup4\n        /* \"contracts/PatientRegistry.sol\":1251:1252  p */\n      dup2\n        /* \"contracts/PatientRegistry.sol\":1251:1259  p.gender */\n      0x01\n      add\n        /* \"contracts/PatientRegistry.sol\":1251:1269  p.gender = _gender */\n      swap1\n      dup2\n      tag_59\n      swap2\n      swap1\n      tag_58\n      jump\t// in\n    tag_59:\n      pop\n        /* \"contracts/PatientRegistry.sol\":1296:1308  _dateOfBirth */\n      dup3\n        /* \"contracts/PatientRegistry.sol\":1280:1281  p */\n      dup2\n        /* \"contracts/PatientRegistry.sol\":1280:1293  p.dateOfBirth */\n      0x02\n      add\n        /* \"contracts/PatientRegistry.sol\":1280:1308  p.dateOfBirth = _dateOfBirth */\n      swap1\n      dup2\n      tag_60\n      swap2\n      swap1\n      tag_58\n      jump\t// in\n    tag_60:\n      pop\n        /* \"contracts/PatientRegistry.sol\":1335:1347  _contactInfo */\n      dup2\n        /* \"contracts/PatientRegistry.sol\":1319:1320  p */\n      dup2\n        /* \"contracts/PatientRegistry.sol\":1319:1332  p.contactInfo */\n      0x03\n      add\n        /* \"contracts/PatientRegistry.sol\":1319:1347  p.contactInfo = _contactInfo */\n      swap1\n      dup2\n      tag_61\n      swap2\n      swap1\n      tag_58\n      jump\t// in\n    tag_61:\n      pop\n        /* \"contracts/PatientRegistry.sol\":1375:1379  true */\n      0x01\n        /* \"contracts/PatientRegistry.sol\":1358:1359  p */\n      dup2\n        /* \"contracts/PatientRegistry.sol\":1358:1372  p.isRegistered */\n      0x04\n      add\n      0x00\n        /* \"contracts/PatientRegistry.sol\":1358:1379  p.isRegistered = true */\n      0x0100\n      exp\n      dup2\n      sload\n      dup2\n      0xff\n      mul\n      not\n      and\n      swap1\n      dup4\n      iszero\n      iszero\n      mul\n      or\n      swap1\n      sstore\n      pop\n        /* \"contracts/PatientRegistry.sol\":1415:1425  msg.sender */\n      caller\n        /* \"contracts/PatientRegistry.sol\":1397:1433  PatientRegistered(msg.sender, _name) */\n      0xffffffffffffffffffffffffffffffffffffffff\n      and\n      0xc85b128388b9c331a2a5485dce4cd0f3db9f7c279d327ce95d6d39d6c94644c7\n        /* \"contracts/PatientRegistry.sol\":1427:1432  _name */\n      dup7\n        /* \"contracts/PatientRegistry.sol\":1397:1433  PatientRegistered(msg.sender, _name) */\n      mload(0x40)\n      tag_62\n      swap2\n      swap1\n      tag_63\n      jump\t// in\n    tag_62:\n      mload(0x40)\n      dup1\n      swap2\n      sub\n      swap1\n      log2\n        /* \"contracts/PatientRegistry.sol\":1000:1441  {... */\n      pop\n        /* \"contracts/PatientRegistry.sol\":823:1441  function registerPatient(... */\n      pop\n      pop\n      pop\n      pop\n      jump\t// out\n        /* \"contracts/PatientRegistry.sol\":1640:1779  function getPatientFiles(address _patient) external view returns (bytes32[] memory) {... */\n    tag_20:\n        /* \"contracts/PatientRegistry.sol\":1706:1722  bytes32[] memory */\n      0x60\n        /* \"contracts/PatientRegistry.sol\":1742:1750  patients */\n      0x00\n        /* \"contracts/PatientRegistry.sol\":1742:1760  patients[_patient] */\n      0x00\n        /* \"contracts/PatientRegistry.sol\":1751:1759  _patient */\n      dup4\n        /* \"contracts/PatientRegistry.sol\":1742:1760  patients[_patient] */\n      0xffffffffffffffffffffffffffffffffffffffff\n      and\n      0xffffffffffffffffffffffffffffffffffffffff\n      and\n      dup2\n      mstore\n      0x20\n      add\n      swap1\n      dup2\n      mstore\n      0x20\n      add\n      0x00\n      keccak256\n        /* \"contracts/PatientRegistry.sol\":1742:1771  patients[_patient].fileHashes */\n      0x05\n      add\n        /* \"contracts/PatientRegistry.sol\":1735:1771  return patients[_patient].fileHashes */\n      dup1\n      sload\n      dup1\n      0x20\n      mul\n      0x20\n      add\n      mload(0x40)\n      swap1\n      dup2\n      add\n      0x40\n      mstore\n      dup1\n      swap3\n      swap2\n      swap1\n      dup2\n      dup2\n      mstore\n      0x20\n      add\n      dup3\n      dup1\n      sload\n      dup1\n      iszero\n      tag_65\n      jumpi\n      0x20\n      mul\n      dup3\n      add\n      swap2\n      swap1\n      0x00\n      mstore\n      keccak256(0x00, 0x20)\n      swap1\n    tag_66:\n      dup2\n      sload\n      dup2\n      mstore\n      0x20\n      add\n      swap1\n      0x01\n      add\n      swap1\n      dup1\n      dup4\n      gt\n      tag_66\n      jumpi\n    tag_65:\n      pop\n      pop\n      pop\n      pop\n      pop\n      swap1\n      pop\n        /* \"contracts/PatientRegistry.sol\":1640:1779  function getPatientFiles(address _patient) external view returns (bytes32[] memory) {... */\n      swap2\n      swap1\n      pop\n      jump\t// out\n        /* \"contracts/PatientRegistry.sol\":1449:1632  function addFileToPatient(bytes32 _fileHash) external onlyRegistered {... */\n    tag_26:\n        /* \"contracts/PatientRegistry.sol\":743:751  patients */\n      0x00\n        /* \"contracts/PatientRegistry.sol\":743:763  patients[msg.sender] */\n      0x00\n        /* \"contracts/PatientRegistry.sol\":752:762  msg.sender */\n      caller\n        /* \"contracts/PatientRegistry.sol\":743:763  patients[msg.sender] */\n      0xffffffffffffffffffffffffffffffffffffffff\n      and\n      0xffffffffffffffffffffffffffffffffffffffff\n      and\n      dup2\n      mstore\n      0x20\n      add\n      swap1\n      dup2\n      mstore\n      0x20\n      add\n      0x00\n      keccak256\n        /* \"contracts/PatientRegistry.sol\":743:776  patients[msg.sender].isRegistered */\n      0x04\n      add\n      0x00\n      swap1\n      sload\n      swap1\n      0x0100\n      exp\n      swap1\n      div\n      0xff\n      and\n        /* \"contracts/PatientRegistry.sol\":735:795  require(patients[msg.sender].isRegistered, \"Not registered\") */\n      tag_68\n      jumpi\n      mload(0x40)\n      0x08c379a000000000000000000000000000000000000000000000000000000000\n      dup2\n      mstore\n      0x04\n      add\n      tag_69\n      swap1\n      tag_70\n      jump\t// in\n    tag_69:\n      mload(0x40)\n      dup1\n      swap2\n      sub\n      swap1\n      revert\n    tag_68:\n        /* \"contracts/PatientRegistry.sol\":1529:1537  patients */\n      0x00\n        /* \"contracts/PatientRegistry.sol\":1529:1549  patients[msg.sender] */\n      0x00\n        /* \"contracts/PatientRegistry.sol\":1538:1548  msg.sender */\n      caller\n        /* \"contracts/PatientRegistry.sol\":1529:1549  patients[msg.sender] */\n      0xffffffffffffffffffffffffffffffffffffffff\n      and\n      0xffffffffffffffffffffffffffffffffffffffff\n      and\n      dup2\n      mstore\n      0x20\n      add\n      swap1\n      dup2\n      mstore\n      0x20\n      add\n      0x00\n      keccak256\n        /* \"contracts/PatientRegistry.sol\":1529:1560  patients[msg.sender].fileHashes */\n      0x05\n      add\n        /* \"contracts/PatientRegistry.sol\":1566:1575  _fileHash */\n      dup2\n        /* \"contracts/PatientRegistry.sol\":1529:1576  patients[msg.sender].fileHashes.push(_fileHash) */\n      swap1\n      dup1\n      0x01\n      dup2\n      sload\n      add\n      dup1\n      dup3\n      sstore\n      dup1\n      swap2\n      pop\n      pop\n      0x01\n      swap1\n      sub\n      swap1\n      0x00\n      mstore\n      keccak256(0x00, 0x20)\n      add\n      0x00\n      swap1\n      swap2\n      swap1\n      swap2\n      swap1\n      swap2\n      pop\n      sstore\n        /* \"contracts/PatientRegistry.sol\":1602:1612  msg.sender */\n      caller\n        /* \"contracts/PatientRegistry.sol\":1592:1624  FileAdded(msg.sender, _fileHash) */\n      0xffffffffffffffffffffffffffffffffffffffff\n      and\n      0x355df66fa0233301fa2864fd7138ea1c3dbc10df6710e4e280e09b17d369902c\n        /* \"contracts/PatientRegistry.sol\":1614:1623  _fileHash */\n      dup3\n        /* \"contracts/PatientRegistry.sol\":1592:1624  FileAdded(msg.sender, _fileHash) */\n      mload(0x40)\n      tag_73\n      swap2\n      swap1\n      tag_74\n      jump\t// in\n    tag_73:\n      mload(0x40)\n      dup1\n      swap2\n      sub\n      swap1\n      log2\n        /* \"contracts/PatientRegistry.sol\":1449:1632  function addFileToPatient(bytes32 _fileHash) external onlyRegistered {... */\n      pop\n      jump\t// out\n        /* \"contracts/PatientRegistry.sol\":1787:2070  function getPatientDetails(address _patient)... */\n    tag_29:\n        /* \"contracts/PatientRegistry.sol\":1882:1895  string memory */\n      0x60\n        /* \"contracts/PatientRegistry.sol\":1897:1910  string memory */\n      dup1\n        /* \"contracts/PatientRegistry.sol\":1912:1925  string memory */\n      0x60\n        /* \"contracts/PatientRegistry.sol\":1927:1940  string memory */\n      dup1\n        /* \"contracts/PatientRegistry.sol\":1958:1975  Patient storage p */\n      0x00\n        /* \"contracts/PatientRegistry.sol\":1978:1986  patients */\n      0x00\n        /* \"contracts/PatientRegistry.sol\":1978:1996  patients[_patient] */\n      0x00\n        /* \"contracts/PatientRegistry.sol\":1987:1995  _patient */\n      dup8\n        /* \"contracts/PatientRegistry.sol\":1978:1996  patients[_patient] */\n      0xffffffffffffffffffffffffffffffffffffffff\n      and\n      0xffffffffffffffffffffffffffffffffffffffff\n      and\n      dup2\n      mstore\n      0x20\n      add\n      swap1\n      dup2\n      mstore\n      0x20\n      add\n      0x00\n      keccak256\n        /* \"contracts/PatientRegistry.sol\":1958:1996  Patient storage p = patients[_patient] */\n      swap1\n      pop\n        /* \"contracts/PatientRegistry.sol\":2015:2016  p */\n      dup1\n        /* \"contracts/PatientRegistry.sol\":2015:2021  p.name */\n      0x00\n      add\n        /* \"contracts/PatientRegistry.sol\":2023:2024  p */\n      dup2\n        /* \"contracts/PatientRegistry.sol\":2023:2031  p.gender */\n      0x01\n      add\n        /* \"contracts/PatientRegistry.sol\":2033:2034  p */\n      dup3\n        /* \"contracts/PatientRegistry.sol\":2033:2046  p.dateOfBirth */\n      0x02\n      add\n        /* \"contracts/PatientRegistry.sol\":2048:2049  p */\n      dup4\n        /* \"contracts/PatientRegistry.sol\":2048:2061  p.contactInfo */\n      0x03\n      add\n        /* \"contracts/PatientRegistry.sol\":2007:2062  return (p.name, p.gender, p.dateOfBirth, p.contactInfo) */\n      dup4\n      dup1\n      sload\n      tag_76\n      swap1\n      tag_33\n      jump\t// in\n    tag_76:\n      dup1\n      0x1f\n      add\n      0x20\n      dup1\n      swap2\n      div\n      mul\n      0x20\n      add\n      mload(0x40)\n      swap1\n      dup2\n      add\n      0x40\n      mstore\n      dup1\n      swap3\n      swap2\n      swap1\n      dup2\n      dup2\n      mstore\n      0x20\n      add\n      dup3\n      dup1\n      sload\n      tag_77\n      swap1\n      tag_33\n      jump\t// in\n    tag_77:\n      dup1\n      iszero\n      tag_78\n      jumpi\n      dup1\n      0x1f\n      lt\n      tag_79\n      jumpi\n      0x0100\n      dup1\n      dup4\n      sload\n      div\n      mul\n      dup4\n      mstore\n      swap2\n      0x20\n      add\n      swap2\n      jump(tag_78)\n    tag_79:\n      dup3\n      add\n      swap2\n      swap1\n      0x00\n      mstore\n      keccak256(0x00, 0x20)\n      swap1\n    tag_80:\n      dup2\n      sload\n      dup2\n      mstore\n      swap1\n      0x01\n      add\n      swap1\n      0x20\n      add\n      dup1\n      dup4\n      gt\n      tag_80\n      jumpi\n      dup3\n      swap1\n      sub\n      0x1f\n      and\n      dup3\n      add\n      swap2\n    tag_78:\n      pop\n      pop\n      pop\n      pop\n      pop\n      swap4\n      pop\n      dup3\n      dup1\n      sload\n      tag_81\n      swap1\n      tag_33\n      jump\t// in\n    tag_81:\n      dup1\n      0x1f\n      add\n      0x20\n      dup1\n      swap2\n      div\n      mul\n      0x20\n      add\n      mload(0x40)\n      swap1\n      dup2\n      add\n      0x40\n      mstore\n      dup1\n      swap3\n      swap2\n      swap1\n      dup2\n      dup2\n      mstore\n      0x20\n      add\n      dup3\n      dup1\n      sload\n      tag_82\n      swap1\n      tag_33\n      jump\t// in\n    tag_82:\n      dup1\n      iszero\n      tag_83\n      jumpi\n      dup1\n      0x1f\n      lt\n      tag_84\n      jumpi\n      0x0100\n      dup1\n      dup4\n      sload\n      div\n      mul\n      dup4\n      mstore\n      swap2\n      0x20\n      add\n      swap2\n      jump(tag_83)\n    tag_84:\n      dup3\n      add\n      swap2\n      swap1\n      0x00\n      mstore\n      keccak256(0x00, 0x20)\n      swap1\n    tag_85:\n      dup2\n      sload\n      dup2\n      mstore\n      swap1\n      0x01\n      add\n      swap1\n      0x20\n      add\n      dup1\n      dup4\n      gt\n      tag_85\n      jumpi\n      dup3\n      swap1\n      sub\n      0x1f\n      and\n      dup3\n      add\n      swap2\n    tag_83:\n      pop\n      pop\n      pop\n      pop\n      pop\n      swap3\n      pop\n      dup2\n      dup1\n      sload\n      tag_86\n      swap1\n      tag_33\n      jump\t// in\n    tag_86:\n      dup1\n      0x1f\n      add\n      0x20\n      dup1\n      swap2\n      div\n      mul\n      0x20\n      add\n      mload(0x40)\n      swap1\n      dup2\n      add\n      0x40\n      mstore\n      dup1\n      swap3\n      swap2\n      swap1\n      dup2\n      dup2\n      mstore\n      0x20\n      add\n      dup3\n      dup1\n      sload\n      tag_87\n      swap1\n      tag_33\n      jump\t// in\n    tag_87:\n      dup1\n      iszero\n      tag_88\n      jumpi\n      dup1\n      0x1f\n      lt\n      tag_89\n      jumpi\n      0x0100\n      dup1\n      dup4\n      sload\n      div\n      mul\n      dup4\n      mstore\n      swap2\n      0x20\n      add\n      swap2\n      jump(tag_88)\n    tag_89:\n      dup3\n      add\n      swap2\n      swap1\n      0x00\n      mstore\n      keccak256(0x00, 0x20)\n      swap1\n    tag_90:\n      dup2\n      sload\n      dup2\n      mstore\n      swap1\n      0x01\n      add\n      swap1\n      0x20\n      add\n      dup1\n      dup4\n      gt\n      tag_90\n      jumpi\n      dup3\n      swap1\n      sub\n      0x1f\n      and\n      dup3\n      add\n      swap2\n    tag_88:\n      pop\n      pop\n      pop\n      pop\n      pop\n      swap2\n      pop\n      dup1\n      dup1\n      sload\n      tag_91\n      swap1\n      tag_33\n      jump\t// in\n    tag_91:\n      dup1\n      0x1f\n      add\n      0x20\n      dup1\n      swap2\n      div\n      mul\n      0x20\n      add\n      mload(0x40)\n      swap1\n      dup2\n      add\n      0x40\n      mstore\n      dup1\n      swap3\n      swap2\n      swap1\n      dup2\n      dup2\n      mstore\n      0x20\n      add\n      dup3\n      dup1\n      sload\n      tag_92\n      swap1\n      tag_33\n      jump\t// in\n    tag_92:\n      dup1\n      iszero\n      tag_93\n      jumpi\n      dup1\n      0x1f\n      lt\n      tag_94\n      jumpi\n      0x0100\n      dup1\n      dup4\n      sload\n      div\n      mul\n      dup4\n      mstore\n      swap2\n      0x20\n      add\n      swap2\n      jump(tag_93)\n    tag_94:\n      dup3\n      add\n      swap2\n      swap1\n      0x00\n      mstore\n      keccak256(0x00, 0x20)\n      swap1\n    tag_95:\n      dup2\n      sload\n      dup2\n      mstore\n      swap1\n      0x01\n      add\n      swap1\n      0x20\n      add\n      dup1\n      dup4\n      gt\n      tag_95\n      jumpi\n      dup3\n      swap1\n      sub\n      0x1f\n      and\n      dup3\n      add\n      swap2\n    tag_93:\n      pop\n      pop\n      pop\n      pop\n      pop\n      swap1\n      pop\n      swap5\n      pop\n      swap5\n      pop\n      swap5\n      pop\n      swap5\n      pop\n      pop\n        /* \"contracts/PatientRegistry.sol\":1787:2070  function getPatientDetails(address _patient)... */\n      swap2\n      swap4\n      pop\n      swap2\n      swap4\n      jump\t// out\n        /* \"#utility.yul\":7:82   */\n    tag_96:\n        /* \"#utility.yul\":40:46   */\n      0x00\n        /* \"#utility.yul\":73:75   */\n      0x40\n        /* \"#utility.yul\":67:76   */\n      mload\n        /* \"#utility.yul\":57:76   */\n      swap1\n      pop\n        /* \"#utility.yul\":7:82   */\n      swap1\n      jump\t// out\n        /* \"#utility.yul\":88:205   */\n    tag_97:\n        /* \"#utility.yul\":197:198   */\n      0x00\n        /* \"#utility.yul\":194:195   */\n      0x00\n        /* \"#utility.yul\":187:199   */\n      revert\n        /* \"#utility.yul\":211:328   */\n    tag_98:\n        /* \"#utility.yul\":320:321   */\n      0x00\n        /* \"#utility.yul\":317:318   */\n      0x00\n        /* \"#utility.yul\":310:322   */\n      revert\n        /* \"#utility.yul\":334:460   */\n    tag_99:\n        /* \"#utility.yul\":371:378   */\n      0x00\n        /* \"#utility.yul\":411:453   */\n      0xffffffffffffffffffffffffffffffffffffffff\n        /* \"#utility.yul\":404:409   */\n      dup3\n        /* \"#utility.yul\":400:454   */\n      and\n        /* \"#utility.yul\":389:454   */\n      swap1\n      pop\n        /* \"#utility.yul\":334:460   */\n      swap2\n      swap1\n      pop\n      jump\t// out\n        /* \"#utility.yul\":466:562   */\n    tag_100:\n        /* \"#utility.yul\":503:510   */\n      0x00\n        /* \"#utility.yul\":532:556   */\n      tag_157\n        /* \"#utility.yul\":550:555   */\n      dup3\n        /* \"#utility.yul\":532:556   */\n      tag_99\n      jump\t// in\n    tag_157:\n        /* \"#utility.yul\":521:556   */\n      swap1\n      pop\n        /* \"#utility.yul\":466:562   */\n      swap2\n      swap1\n      pop\n      jump\t// out\n        /* \"#utility.yul\":568:690   */\n    tag_101:\n        /* \"#utility.yul\":641:665   */\n      tag_159\n        /* \"#utility.yul\":659:664   */\n      dup2\n        /* \"#utility.yul\":641:665   */\n      tag_100\n      jump\t// in\n    tag_159:\n        /* \"#utility.yul\":634:639   */\n      dup2\n        /* \"#utility.yul\":631:666   */\n      eq\n        /* \"#utility.yul\":621:684   */\n      tag_160\n      jumpi\n        /* \"#utility.yul\":680:681   */\n      0x00\n        /* \"#utility.yul\":677:678   */\n      0x00\n        /* \"#utility.yul\":670:682   */\n      revert\n        /* \"#utility.yul\":621:684   */\n    tag_160:\n        /* \"#utility.yul\":568:690   */\n      pop\n      jump\t// out\n        /* \"#utility.yul\":696:835   */\n    tag_102:\n        /* \"#utility.yul\":742:747   */\n      0x00\n        /* \"#utility.yul\":780:786   */\n      dup2\n        /* \"#utility.yul\":767:787   */\n      calldataload\n        /* \"#utility.yul\":758:787   */\n      swap1\n      pop\n        /* \"#utility.yul\":796:829   */\n      tag_162\n        /* \"#utility.yul\":823:828   */\n      dup2\n        /* \"#utility.yul\":796:829   */\n      tag_101\n      jump\t// in\n    tag_162:\n        /* \"#utility.yul\":696:835   */\n      swap3\n      swap2\n      pop\n      pop\n      jump\t// out\n        /* \"#utility.yul\":841:1170   */\n    tag_10:\n        /* \"#utility.yul\":900:906   */\n      0x00\n        /* \"#utility.yul\":949:951   */\n      0x20\n        /* \"#utility.yul\":937:946   */\n      dup3\n        /* \"#utility.yul\":928:935   */\n      dup5\n        /* \"#utility.yul\":924:947   */\n      sub\n        /* \"#utility.yul\":920:952   */\n      slt\n        /* \"#utility.yul\":917:1036   */\n      iszero\n      tag_164\n      jumpi\n        /* \"#utility.yul\":955:1034   */\n      tag_165\n      tag_97\n      jump\t// in\n    tag_165:\n        /* \"#utility.yul\":917:1036   */\n    tag_164:\n        /* \"#utility.yul\":1075:1076   */\n      0x00\n        /* \"#utility.yul\":1100:1153   */\n      tag_166\n        /* \"#utility.yul\":1145:1152   */\n      dup5\n        /* \"#utility.yul\":1136:1142   */\n      dup3\n        /* \"#utility.yul\":1125:1134   */\n      dup6\n        /* \"#utility.yul\":1121:1143   */\n      add\n        /* \"#utility.yul\":1100:1153   */\n      tag_102\n      jump\t// in\n    tag_166:\n        /* \"#utility.yul\":1090:1153   */\n      swap2\n      pop\n        /* \"#utility.yul\":1046:1163   */\n      pop\n        /* \"#utility.yul\":841:1170   */\n      swap3\n      swap2\n      pop\n      pop\n      jump\t// out\n        /* \"#utility.yul\":1176:1275   */\n    tag_103:\n        /* \"#utility.yul\":1228:1234   */\n      0x00\n        /* \"#utility.yul\":1262:1267   */\n      dup2\n        /* \"#utility.yul\":1256:1268   */\n      mload\n        /* \"#utility.yul\":1246:1268   */\n      swap1\n      pop\n        /* \"#utility.yul\":1176:1275   */\n      swap2\n      swap1\n      pop\n      jump\t// out\n        /* \"#utility.yul\":1281:1450   */\n    tag_104:\n        /* \"#utility.yul\":1365:1376   */\n      0x00\n        /* \"#utility.yul\":1399:1405   */\n      dup3\n        /* \"#utility.yul\":1394:1397   */\n      dup3\n        /* \"#utility.yul\":1387:1406   */\n      mstore\n        /* \"#utility.yul\":1439:1443   */\n      0x20\n        /* \"#utility.yul\":1434:1437   */\n      dup3\n        /* \"#utility.yul\":1430:1444   */\n      add\n        /* \"#utility.yul\":1415:1444   */\n      swap1\n      pop\n        /* \"#utility.yul\":1281:1450   */\n      swap3\n      swap2\n      pop\n      pop\n      jump\t// out\n        /* \"#utility.yul\":1456:1595   */\n    tag_105:\n        /* \"#utility.yul\":1545:1551   */\n      dup3\n        /* \"#utility.yul\":1540:1543   */\n      dup2\n        /* \"#utility.yul\":1535:1538   */\n      dup4\n        /* \"#utility.yul\":1529:1552   */\n      mcopy\n        /* \"#utility.yul\":1586:1587   */\n      0x00\n        /* \"#utility.yul\":1577:1583   */\n      dup4\n        /* \"#utility.yul\":1572:1575   */\n      dup4\n        /* \"#utility.yul\":1568:1584   */\n      add\n        /* \"#utility.yul\":1561:1588   */\n      mstore\n        /* \"#utility.yul\":1456:1595   */\n      pop\n      pop\n      pop\n      jump\t// out\n        /* \"#utility.yul\":1601:1703   */\n    tag_106:\n        /* \"#utility.yul\":1642:1648   */\n      0x00\n        /* \"#utility.yul\":1693:1695   */\n      0x1f\n        /* \"#utility.yul\":1689:1696   */\n      not\n        /* \"#utility.yul\":1684:1686   */\n      0x1f\n        /* \"#utility.yul\":1677:1682   */\n      dup4\n        /* \"#utility.yul\":1673:1687   */\n      add\n        /* \"#utility.yul\":1669:1697   */\n      and\n        /* \"#utility.yul\":1659:1697   */\n      swap1\n      pop\n        /* \"#utility.yul\":1601:1703   */\n      swap2\n      swap1\n      pop\n      jump\t// out\n        /* \"#utility.yul\":1709:2086   */\n    tag_107:\n        /* \"#utility.yul\":1797:1800   */\n      0x00\n        /* \"#utility.yul\":1825:1864   */\n      tag_172\n        /* \"#utility.yul\":1858:1863   */\n      dup3\n        /* \"#utility.yul\":1825:1864   */\n      tag_103\n      jump\t// in\n    tag_172:\n        /* \"#utility.yul\":1880:1951   */\n      tag_173\n        /* \"#utility.yul\":1944:1950   */\n      dup2\n        /* \"#utility.yul\":1939:1942   */\n      dup6\n        /* \"#utility.yul\":1880:1951   */\n      tag_104\n      jump\t// in\n    tag_173:\n        /* \"#utility.yul\":1873:1951   */\n      swap4\n      pop\n        /* \"#utility.yul\":1960:2025   */\n      tag_174\n        /* \"#utility.yul\":2018:2024   */\n      dup2\n        /* \"#utility.yul\":2013:2016   */\n      dup6\n        /* \"#utility.yul\":2006:2010   */\n      0x20\n        /* \"#utility.yul\":1999:2004   */\n      dup7\n        /* \"#utility.yul\":1995:2011   */\n      add\n        /* \"#utility.yul\":1960:2025   */\n      tag_105\n      jump\t// in\n    tag_174:\n        /* \"#utility.yul\":2050:2079   */\n      tag_175\n        /* \"#utility.yul\":2072:2078   */\n      dup2\n        /* \"#utility.yul\":2050:2079   */\n      tag_106\n      jump\t// in\n    tag_175:\n        /* \"#utility.yul\":2045:2048   */\n      dup5\n        /* \"#utility.yul\":2041:2080   */\n      add\n        /* \"#utility.yul\":2034:2080   */\n      swap2\n      pop\n        /* \"#utility.yul\":1801:2086   */\n      pop\n        /* \"#utility.yul\":1709:2086   */\n      swap3\n      swap2\n      pop\n      pop\n      jump\t// out\n        /* \"#utility.yul\":2092:2182   */\n    tag_108:\n        /* \"#utility.yul\":2126:2133   */\n      0x00\n        /* \"#utility.yul\":2169:2174   */\n      dup2\n        /* \"#utility.yul\":2162:2175   */\n      iszero\n        /* \"#utility.yul\":2155:2176   */\n      iszero\n        /* \"#utility.yul\":2144:2176   */\n      swap1\n      pop\n        /* \"#utility.yul\":2092:2182   */\n      swap2\n      swap1\n      pop\n      jump\t// out\n        /* \"#utility.yul\":2188:2297   */\n    tag_109:\n        /* \"#utility.yul\":2269:2290   */\n      tag_178\n        /* \"#utility.yul\":2284:2289   */\n      dup2\n        /* \"#utility.yul\":2269:2290   */\n      tag_108\n      jump\t// in\n    tag_178:\n        /* \"#utility.yul\":2264:2267   */\n      dup3\n        /* \"#utility.yul\":2257:2291   */\n      mstore\n        /* \"#utility.yul\":2188:2297   */\n      pop\n      pop\n      jump\t// out\n        /* \"#utility.yul\":2303:3319   */\n    tag_13:\n        /* \"#utility.yul\":2582:2586   */\n      0x00\n        /* \"#utility.yul\":2620:2623   */\n      0xa0\n        /* \"#utility.yul\":2609:2618   */\n      dup3\n        /* \"#utility.yul\":2605:2624   */\n      add\n        /* \"#utility.yul\":2597:2624   */\n      swap1\n      pop\n        /* \"#utility.yul\":2670:2679   */\n      dup2\n        /* \"#utility.yul\":2664:2668   */\n      dup2\n        /* \"#utility.yul\":2660:2680   */\n      sub\n        /* \"#utility.yul\":2656:2657   */\n      0x00\n        /* \"#utility.yul\":2645:2654   */\n      dup4\n        /* \"#utility.yul\":2641:2658   */\n      add\n        /* \"#utility.yul\":2634:2681   */\n      mstore\n        /* \"#utility.yul\":2698:2776   */\n      tag_180\n        /* \"#utility.yul\":2771:2775   */\n      dup2\n        /* \"#utility.yul\":2762:2768   */\n      dup9\n        /* \"#utility.yul\":2698:2776   */\n      tag_107\n      jump\t// in\n    tag_180:\n        /* \"#utility.yul\":2690:2776   */\n      swap1\n      pop\n        /* \"#utility.yul\":2823:2832   */\n      dup2\n        /* \"#utility.yul\":2817:2821   */\n      dup2\n        /* \"#utility.yul\":2813:2833   */\n      sub\n        /* \"#utility.yul\":2808:2810   */\n      0x20\n        /* \"#utility.yul\":2797:2806   */\n      dup4\n        /* \"#utility.yul\":2793:2811   */\n      add\n        /* \"#utility.yul\":2786:2834   */\n      mstore\n        /* \"#utility.yul\":2851:2929   */\n      tag_181\n        /* \"#utility.yul\":2924:2928   */\n      dup2\n        /* \"#utility.yul\":2915:2921   */\n      dup8\n        /* \"#utility.yul\":2851:2929   */\n      tag_107\n      jump\t// in\n    tag_181:\n        /* \"#utility.yul\":2843:2929   */\n      swap1\n      pop\n        /* \"#utility.yul\":2976:2985   */\n      dup2\n        /* \"#utility.yul\":2970:2974   */\n      dup2\n        /* \"#utility.yul\":2966:2986   */\n      sub\n        /* \"#utility.yul\":2961:2963   */\n      0x40\n        /* \"#utility.yul\":2950:2959   */\n      dup4\n        /* \"#utility.yul\":2946:2964   */\n      add\n        /* \"#utility.yul\":2939:2987   */\n      mstore\n        /* \"#utility.yul\":3004:3082   */\n      tag_182\n        /* \"#utility.yul\":3077:3081   */\n      dup2\n        /* \"#utility.yul\":3068:3074   */\n      dup7\n        /* \"#utility.yul\":3004:3082   */\n      tag_107\n      jump\t// in\n    tag_182:\n        /* \"#utility.yul\":2996:3082   */\n      swap1\n      pop\n        /* \"#utility.yul\":3129:3138   */\n      dup2\n        /* \"#utility.yul\":3123:3127   */\n      dup2\n        /* \"#utility.yul\":3119:3139   */\n      sub\n        /* \"#utility.yul\":3114:3116   */\n      0x60\n        /* \"#utility.yul\":3103:3112   */\n      dup4\n        /* \"#utility.yul\":3099:3117   */\n      add\n        /* \"#utility.yul\":3092:3140   */\n      mstore\n        /* \"#utility.yul\":3157:3235   */\n      tag_183\n        /* \"#utility.yul\":3230:3234   */\n      dup2\n        /* \"#utility.yul\":3221:3227   */\n      dup6\n        /* \"#utility.yul\":3157:3235   */\n      tag_107\n      jump\t// in\n    tag_183:\n        /* \"#utility.yul\":3149:3235   */\n      swap1\n      pop\n        /* \"#utility.yul\":3245:3312   */\n      tag_184\n        /* \"#utility.yul\":3307:3310   */\n      0x80\n        /* \"#utility.yul\":3296:3305   */\n      dup4\n        /* \"#utility.yul\":3292:3311   */\n      add\n        /* \"#utility.yul\":3283:3289   */\n      dup5\n        /* \"#utility.yul\":3245:3312   */\n      tag_109\n      jump\t// in\n    tag_184:\n        /* \"#utility.yul\":2303:3319   */\n      swap7\n      swap6\n      pop\n      pop\n      pop\n      pop\n      pop\n      pop\n      jump\t// out\n        /* \"#utility.yul\":3325:3442   */\n    tag_110:\n        /* \"#utility.yul\":3434:3435   */\n      0x00\n        /* \"#utility.yul\":3431:3432   */\n      0x00\n        /* \"#utility.yul\":3424:3436   */\n      revert\n        /* \"#utility.yul\":3448:3565   */\n    tag_111:\n        /* \"#utility.yul\":3557:3558   */\n      0x00\n        /* \"#utility.yul\":3554:3555   */\n      0x00\n        /* \"#utility.yul\":3547:3559   */\n      revert\n        /* \"#utility.yul\":3571:3751   */\n    tag_112:\n        /* \"#utility.yul\":3619:3696   */\n      0x4e487b7100000000000000000000000000000000000000000000000000000000\n        /* \"#utility.yul\":3616:3617   */\n      0x00\n        /* \"#utility.yul\":3609:3697   */\n      mstore\n        /* \"#utility.yul\":3716:3720   */\n      0x41\n        /* \"#utility.yul\":3713:3714   */\n      0x04\n        /* \"#utility.yul\":3706:3721   */\n      mstore\n        /* \"#utility.yul\":3740:3744   */\n      0x24\n        /* \"#utility.yul\":3737:3738   */\n      0x00\n        /* \"#utility.yul\":3730:3745   */\n      revert\n        /* \"#utility.yul\":3757:4038   */\n    tag_113:\n        /* \"#utility.yul\":3840:3867   */\n      tag_189\n        /* \"#utility.yul\":3862:3866   */\n      dup3\n        /* \"#utility.yul\":3840:3867   */\n      tag_106\n      jump\t// in\n    tag_189:\n        /* \"#utility.yul\":3832:3838   */\n      dup2\n        /* \"#utility.yul\":3828:3868   */\n      add\n        /* \"#utility.yul\":3970:3976   */\n      dup2\n        /* \"#utility.yul\":3958:3968   */\n      dup2\n        /* \"#utility.yul\":3955:3977   */\n      lt\n        /* \"#utility.yul\":3934:3952   */\n      0xffffffffffffffff\n        /* \"#utility.yul\":3922:3932   */\n      dup3\n        /* \"#utility.yul\":3919:3953   */\n      gt\n        /* \"#utility.yul\":3916:3978   */\n      or\n        /* \"#utility.yul\":3913:4001   */\n      iszero\n      tag_190\n      jumpi\n        /* \"#utility.yul\":3981:3999   */\n      tag_191\n      tag_112\n      jump\t// in\n    tag_191:\n        /* \"#utility.yul\":3913:4001   */\n    tag_190:\n        /* \"#utility.yul\":4021:4031   */\n      dup1\n        /* \"#utility.yul\":4017:4019   */\n      0x40\n        /* \"#utility.yul\":4010:4032   */\n      mstore\n        /* \"#utility.yul\":3800:4038   */\n      pop\n        /* \"#utility.yul\":3757:4038   */\n      pop\n      pop\n      jump\t// out\n        /* \"#utility.yul\":4044:4173   */\n    tag_114:\n        /* \"#utility.yul\":4078:4084   */\n      0x00\n        /* \"#utility.yul\":4105:4125   */\n      tag_193\n      tag_96\n      jump\t// in\n    tag_193:\n        /* \"#utility.yul\":4095:4125   */\n      swap1\n      pop\n        /* \"#utility.yul\":4134:4167   */\n      tag_194\n        /* \"#utility.yul\":4162:4166   */\n      dup3\n        /* \"#utility.yul\":4154:4160   */\n      dup3\n        /* \"#utility.yul\":4134:4167   */\n      tag_113\n      jump\t// in\n    tag_194:\n        /* \"#utility.yul\":4044:4173   */\n      swap2\n      swap1\n      pop\n      jump\t// out\n        /* \"#utility.yul\":4179:4487   */\n    tag_115:\n        /* \"#utility.yul\":4241:4245   */\n      0x00\n        /* \"#utility.yul\":4331:4349   */\n      0xffffffffffffffff\n        /* \"#utility.yul\":4323:4329   */\n      dup3\n        /* \"#utility.yul\":4320:4350   */\n      gt\n        /* \"#utility.yul\":4317:4373   */\n      iszero\n      tag_196\n      jumpi\n        /* \"#utility.yul\":4353:4371   */\n      tag_197\n      tag_112\n      jump\t// in\n    tag_197:\n        /* \"#utility.yul\":4317:4373   */\n    tag_196:\n        /* \"#utility.yul\":4391:4420   */\n      tag_198\n        /* \"#utility.yul\":4413:4419   */\n      dup3\n        /* \"#utility.yul\":4391:4420   */\n      tag_106\n      jump\t// in\n    tag_198:\n        /* \"#utility.yul\":4383:4420   */\n      swap1\n      pop\n        /* \"#utility.yul\":4475:4479   */\n      0x20\n        /* \"#utility.yul\":4469:4473   */\n      dup2\n        /* \"#utility.yul\":4465:4480   */\n      add\n        /* \"#utility.yul\":4457:4480   */\n      swap1\n      pop\n        /* \"#utility.yul\":4179:4487   */\n      swap2\n      swap1\n      pop\n      jump\t// out\n        /* \"#utility.yul\":4493:4641   */\n    tag_116:\n        /* \"#utility.yul\":4591:4597   */\n      dup3\n        /* \"#utility.yul\":4586:4589   */\n      dup2\n        /* \"#utility.yul\":4581:4584   */\n      dup4\n        /* \"#utility.yul\":4568:4598   */\n      calldatacopy\n        /* \"#utility.yul\":4632:4633   */\n      0x00\n        /* \"#utility.yul\":4623:4629   */\n      dup4\n        /* \"#utility.yul\":4618:4621   */\n      dup4\n        /* \"#utility.yul\":4614:4630   */\n      add\n        /* \"#utility.yul\":4607:4634   */\n      mstore\n        /* \"#utility.yul\":4493:4641   */\n      pop\n      pop\n      pop\n      jump\t// out\n        /* \"#utility.yul\":4647:5072   */\n    tag_117:\n        /* \"#utility.yul\":4725:4730   */\n      0x00\n        /* \"#utility.yul\":4750:4816   */\n      tag_201\n        /* \"#utility.yul\":4766:4815   */\n      tag_202\n        /* \"#utility.yul\":4808:4814   */\n      dup5\n        /* \"#utility.yul\":4766:4815   */\n      tag_115\n      jump\t// in\n    tag_202:\n        /* \"#utility.yul\":4750:4816   */\n      tag_114\n      jump\t// in\n    tag_201:\n        /* \"#utility.yul\":4741:4816   */\n      swap1\n      pop\n        /* \"#utility.yul\":4839:4845   */\n      dup3\n        /* \"#utility.yul\":4832:4837   */\n      dup2\n        /* \"#utility.yul\":4825:4846   */\n      mstore\n        /* \"#utility.yul\":4877:4881   */\n      0x20\n        /* \"#utility.yul\":4870:4875   */\n      dup2\n        /* \"#utility.yul\":4866:4882   */\n      add\n        /* \"#utility.yul\":4915:4918   */\n      dup5\n        /* \"#utility.yul\":4906:4912   */\n      dup5\n        /* \"#utility.yul\":4901:4904   */\n      dup5\n        /* \"#utility.yul\":4897:4913   */\n      add\n        /* \"#utility.yul\":4894:4919   */\n      gt\n        /* \"#utility.yul\":4891:5003   */\n      iszero\n      tag_203\n      jumpi\n        /* \"#utility.yul\":4922:5001   */\n      tag_204\n      tag_111\n      jump\t// in\n    tag_204:\n        /* \"#utility.yul\":4891:5003   */\n    tag_203:\n        /* \"#utility.yul\":5012:5066   */\n      tag_205\n        /* \"#utility.yul\":5059:5065   */\n      dup5\n        /* \"#utility.yul\":5054:5057   */\n      dup3\n        /* \"#utility.yul\":5049:5052   */\n      dup6\n        /* \"#utility.yul\":5012:5066   */\n      tag_116\n      jump\t// in\n    tag_205:\n        /* \"#utility.yul\":4731:5072   */\n      pop\n        /* \"#utility.yul\":4647:5072   */\n      swap4\n      swap3\n      pop\n      pop\n      pop\n      jump\t// out\n        /* \"#utility.yul\":5092:5432   */\n    tag_118:\n        /* \"#utility.yul\":5148:5153   */\n      0x00\n        /* \"#utility.yul\":5197:5200   */\n      dup3\n        /* \"#utility.yul\":5190:5194   */\n      0x1f\n        /* \"#utility.yul\":5182:5188   */\n      dup4\n        /* \"#utility.yul\":5178:5195   */\n      add\n        /* \"#utility.yul\":5174:5201   */\n      slt\n        /* \"#utility.yul\":5164:5286   */\n      tag_207\n      jumpi\n        /* \"#utility.yul\":5205:5284   */\n      tag_208\n      tag_110\n      jump\t// in\n    tag_208:\n        /* \"#utility.yul\":5164:5286   */\n    tag_207:\n        /* \"#utility.yul\":5322:5328   */\n      dup2\n        /* \"#utility.yul\":5309:5329   */\n      calldataload\n        /* \"#utility.yul\":5347:5426   */\n      tag_209\n        /* \"#utility.yul\":5422:5425   */\n      dup5\n        /* \"#utility.yul\":5414:5420   */\n      dup3\n        /* \"#utility.yul\":5407:5411   */\n      0x20\n        /* \"#utility.yul\":5399:5405   */\n      dup7\n        /* \"#utility.yul\":5395:5412   */\n      add\n        /* \"#utility.yul\":5347:5426   */\n      tag_117\n      jump\t// in\n    tag_209:\n        /* \"#utility.yul\":5338:5426   */\n      swap2\n      pop\n        /* \"#utility.yul\":5154:5432   */\n      pop\n        /* \"#utility.yul\":5092:5432   */\n      swap3\n      swap2\n      pop\n      pop\n      jump\t// out\n        /* \"#utility.yul\":5438:6923   */\n    tag_16:\n        /* \"#utility.yul\":5564:5570   */\n      0x00\n        /* \"#utility.yul\":5572:5578   */\n      0x00\n        /* \"#utility.yul\":5580:5586   */\n      0x00\n        /* \"#utility.yul\":5588:5594   */\n      0x00\n        /* \"#utility.yul\":5637:5640   */\n      0x80\n        /* \"#utility.yul\":5625:5634   */\n      dup6\n        /* \"#utility.yul\":5616:5623   */\n      dup8\n        /* \"#utility.yul\":5612:5635   */\n      sub\n        /* \"#utility.yul\":5608:5641   */\n      slt\n        /* \"#utility.yul\":5605:5725   */\n      iszero\n      tag_211\n      jumpi\n        /* \"#utility.yul\":5644:5723   */\n      tag_212\n      tag_97\n      jump\t// in\n    tag_212:\n        /* \"#utility.yul\":5605:5725   */\n    tag_211:\n        /* \"#utility.yul\":5792:5793   */\n      0x00\n        /* \"#utility.yul\":5781:5790   */\n      dup6\n        /* \"#utility.yul\":5777:5794   */\n      add\n        /* \"#utility.yul\":5764:5795   */\n      calldataload\n        /* \"#utility.yul\":5822:5840   */\n      0xffffffffffffffff\n        /* \"#utility.yul\":5814:5820   */\n      dup2\n        /* \"#utility.yul\":5811:5841   */\n      gt\n        /* \"#utility.yul\":5808:5925   */\n      iszero\n      tag_213\n      jumpi\n        /* \"#utility.yul\":5844:5923   */\n      tag_214\n      tag_98\n      jump\t// in\n    tag_214:\n        /* \"#utility.yul\":5808:5925   */\n    tag_213:\n        /* \"#utility.yul\":5949:6012   */\n      tag_215\n        /* \"#utility.yul\":6004:6011   */\n      dup8\n        /* \"#utility.yul\":5995:6001   */\n      dup3\n        /* \"#utility.yul\":5984:5993   */\n      dup9\n        /* \"#utility.yul\":5980:6002   */\n      add\n        /* \"#utility.yul\":5949:6012   */\n      tag_118\n      jump\t// in\n    tag_215:\n        /* \"#utility.yul\":5939:6012   */\n      swap5\n      pop\n        /* \"#utility.yul\":5735:6022   */\n      pop\n        /* \"#utility.yul\":6089:6091   */\n      0x20\n        /* \"#utility.yul\":6078:6087   */\n      dup6\n        /* \"#utility.yul\":6074:6092   */\n      add\n        /* \"#utility.yul\":6061:6093   */\n      calldataload\n        /* \"#utility.yul\":6120:6138   */\n      0xffffffffffffffff\n        /* \"#utility.yul\":6112:6118   */\n      dup2\n        /* \"#utility.yul\":6109:6139   */\n      gt\n        /* \"#utility.yul\":6106:6223   */\n      iszero\n      tag_216\n      jumpi\n        /* \"#utility.yul\":6142:6221   */\n      tag_217\n      tag_98\n      jump\t// in\n    tag_217:\n        /* \"#utility.yul\":6106:6223   */\n    tag_216:\n        /* \"#utility.yul\":6247:6310   */\n      tag_218\n        /* \"#utility.yul\":6302:6309   */\n      dup8\n        /* \"#utility.yul\":6293:6299   */\n      dup3\n        /* \"#utility.yul\":6282:6291   */\n      dup9\n        /* \"#utility.yul\":6278:6300   */\n      add\n        /* \"#utility.yul\":6247:6310   */\n      tag_118\n      jump\t// in\n    tag_218:\n        /* \"#utility.yul\":6237:6310   */\n      swap4\n      pop\n        /* \"#utility.yul\":6032:6320   */\n      pop\n        /* \"#utility.yul\":6387:6389   */\n      0x40\n        /* \"#utility.yul\":6376:6385   */\n      dup6\n        /* \"#utility.yul\":6372:6390   */\n      add\n        /* \"#utility.yul\":6359:6391   */\n      calldataload\n        /* \"#utility.yul\":6418:6436   */\n      0xffffffffffffffff\n        /* \"#utility.yul\":6410:6416   */\n      dup2\n        /* \"#utility.yul\":6407:6437   */\n      gt\n        /* \"#utility.yul\":6404:6521   */\n      iszero\n      tag_219\n      jumpi\n        /* \"#utility.yul\":6440:6519   */\n      tag_220\n      tag_98\n      jump\t// in\n    tag_220:\n        /* \"#utility.yul\":6404:6521   */\n    tag_219:\n        /* \"#utility.yul\":6545:6608   */\n      tag_221\n        /* \"#utility.yul\":6600:6607   */\n      dup8\n        /* \"#utility.yul\":6591:6597   */\n      dup3\n        /* \"#utility.yul\":6580:6589   */\n      dup9\n        /* \"#utility.yul\":6576:6598   */\n      add\n        /* \"#utility.yul\":6545:6608   */\n      tag_118\n      jump\t// in\n    tag_221:\n        /* \"#utility.yul\":6535:6608   */\n      swap3\n      pop\n        /* \"#utility.yul\":6330:6618   */\n      pop\n        /* \"#utility.yul\":6685:6687   */\n      0x60\n        /* \"#utility.yul\":6674:6683   */\n      dup6\n        /* \"#utility.yul\":6670:6688   */\n      add\n        /* \"#utility.yul\":6657:6689   */\n      calldataload\n        /* \"#utility.yul\":6716:6734   */\n      0xffffffffffffffff\n        /* \"#utility.yul\":6708:6714   */\n      dup2\n        /* \"#utility.yul\":6705:6735   */\n      gt\n        /* \"#utility.yul\":6702:6819   */\n      iszero\n      tag_222\n      jumpi\n        /* \"#utility.yul\":6738:6817   */\n      tag_223\n      tag_98\n      jump\t// in\n    tag_223:\n        /* \"#utility.yul\":6702:6819   */\n    tag_222:\n        /* \"#utility.yul\":6843:6906   */\n      tag_224\n        /* \"#utility.yul\":6898:6905   */\n      dup8\n        /* \"#utility.yul\":6889:6895   */\n      dup3\n        /* \"#utility.yul\":6878:6887   */\n      dup9\n        /* \"#utility.yul\":6874:6896   */\n      add\n        /* \"#utility.yul\":6843:6906   */\n      tag_118\n      jump\t// in\n    tag_224:\n        /* \"#utility.yul\":6833:6906   */\n      swap2\n      pop\n        /* \"#utility.yul\":6628:6916   */\n      pop\n        /* \"#utility.yul\":5438:6923   */\n      swap3\n      swap6\n      swap2\n      swap5\n      pop\n      swap3\n      pop\n      jump\t// out\n        /* \"#utility.yul\":6929:7043   */\n    tag_119:\n        /* \"#utility.yul\":6996:7002   */\n      0x00\n        /* \"#utility.yul\":7030:7035   */\n      dup2\n        /* \"#utility.yul\":7024:7036   */\n      mload\n        /* \"#utility.yul\":7014:7036   */\n      swap1\n      pop\n        /* \"#utility.yul\":6929:7043   */\n      swap2\n      swap1\n      pop\n      jump\t// out\n        /* \"#utility.yul\":7049:7233   */\n    tag_120:\n        /* \"#utility.yul\":7148:7159   */\n      0x00\n        /* \"#utility.yul\":7182:7188   */\n      dup3\n        /* \"#utility.yul\":7177:7180   */\n      dup3\n        /* \"#utility.yul\":7170:7189   */\n      mstore\n        /* \"#utility.yul\":7222:7226   */\n      0x20\n        /* \"#utility.yul\":7217:7220   */\n      dup3\n        /* \"#utility.yul\":7213:7227   */\n      add\n        /* \"#utility.yul\":7198:7227   */\n      swap1\n      pop\n        /* \"#utility.yul\":7049:7233   */\n      swap3\n      swap2\n      pop\n      pop\n      jump\t// out\n        /* \"#utility.yul\":7239:7371   */\n    tag_121:\n        /* \"#utility.yul\":7306:7310   */\n      0x00\n        /* \"#utility.yul\":7329:7332   */\n      dup2\n        /* \"#utility.yul\":7321:7332   */\n      swap1\n      pop\n        /* \"#utility.yul\":7359:7363   */\n      0x20\n        /* \"#utility.yul\":7354:7357   */\n      dup3\n        /* \"#utility.yul\":7350:7364   */\n      add\n        /* \"#utility.yul\":7342:7364   */\n      swap1\n      pop\n        /* \"#utility.yul\":7239:7371   */\n      swap2\n      swap1\n      pop\n      jump\t// out\n        /* \"#utility.yul\":7377:7454   */\n    tag_122:\n        /* \"#utility.yul\":7414:7421   */\n      0x00\n        /* \"#utility.yul\":7443:7448   */\n      dup2\n        /* \"#utility.yul\":7432:7448   */\n      swap1\n      pop\n        /* \"#utility.yul\":7377:7454   */\n      swap2\n      swap1\n      pop\n      jump\t// out\n        /* \"#utility.yul\":7460:7568   */\n    tag_123:\n        /* \"#utility.yul\":7537:7561   */\n      tag_230\n        /* \"#utility.yul\":7555:7560   */\n      dup2\n        /* \"#utility.yul\":7537:7561   */\n      tag_122\n      jump\t// in\n    tag_230:\n        /* \"#utility.yul\":7532:7535   */\n      dup3\n        /* \"#utility.yul\":7525:7562   */\n      mstore\n        /* \"#utility.yul\":7460:7568   */\n      pop\n      pop\n      jump\t// out\n        /* \"#utility.yul\":7574:7753   */\n    tag_124:\n        /* \"#utility.yul\":7643:7653   */\n      0x00\n        /* \"#utility.yul\":7664:7710   */\n      tag_232\n        /* \"#utility.yul\":7706:7709   */\n      dup4\n        /* \"#utility.yul\":7698:7704   */\n      dup4\n        /* \"#utility.yul\":7664:7710   */\n      tag_123\n      jump\t// in\n    tag_232:\n        /* \"#utility.yul\":7742:7746   */\n      0x20\n        /* \"#utility.yul\":7737:7740   */\n      dup4\n        /* \"#utility.yul\":7733:7747   */\n      add\n        /* \"#utility.yul\":7719:7747   */\n      swap1\n      pop\n        /* \"#utility.yul\":7574:7753   */\n      swap3\n      swap2\n      pop\n      pop\n      jump\t// out\n        /* \"#utility.yul\":7759:7872   */\n    tag_125:\n        /* \"#utility.yul\":7829:7833   */\n      0x00\n        /* \"#utility.yul\":7861:7865   */\n      0x20\n        /* \"#utility.yul\":7856:7859   */\n      dup3\n        /* \"#utility.yul\":7852:7866   */\n      add\n        /* \"#utility.yul\":7844:7866   */\n      swap1\n      pop\n        /* \"#utility.yul\":7759:7872   */\n      swap2\n      swap1\n      pop\n      jump\t// out\n        /* \"#utility.yul\":7908:8640   */\n    tag_126:\n        /* \"#utility.yul\":8027:8030   */\n      0x00\n        /* \"#utility.yul\":8056:8110   */\n      tag_235\n        /* \"#utility.yul\":8104:8109   */\n      dup3\n        /* \"#utility.yul\":8056:8110   */\n      tag_119\n      jump\t// in\n    tag_235:\n        /* \"#utility.yul\":8126:8212   */\n      tag_236\n        /* \"#utility.yul\":8205:8211   */\n      dup2\n        /* \"#utility.yul\":8200:8203   */\n      dup6\n        /* \"#utility.yul\":8126:8212   */\n      tag_120\n      jump\t// in\n    tag_236:\n        /* \"#utility.yul\":8119:8212   */\n      swap4\n      pop\n        /* \"#utility.yul\":8236:8292   */\n      tag_237\n        /* \"#utility.yul\":8286:8291   */\n      dup4\n        /* \"#utility.yul\":8236:8292   */\n      tag_121\n      jump\t// in\n    tag_237:\n        /* \"#utility.yul\":8315:8322   */\n      dup1\n        /* \"#utility.yul\":8346:8347   */\n      0x00\n        /* \"#utility.yul\":8331:8615   */\n    tag_238:\n        /* \"#utility.yul\":8356:8362   */\n      dup4\n        /* \"#utility.yul\":8353:8354   */\n      dup2\n        /* \"#utility.yul\":8350:8363   */\n      lt\n        /* \"#utility.yul\":8331:8615   */\n      iszero\n      tag_240\n      jumpi\n        /* \"#utility.yul\":8432:8438   */\n      dup2\n        /* \"#utility.yul\":8426:8439   */\n      mload\n        /* \"#utility.yul\":8459:8522   */\n      tag_241\n        /* \"#utility.yul\":8518:8521   */\n      dup9\n        /* \"#utility.yul\":8503:8516   */\n      dup3\n        /* \"#utility.yul\":8459:8522   */\n      tag_124\n      jump\t// in\n    tag_241:\n        /* \"#utility.yul\":8452:8522   */\n      swap8\n      pop\n        /* \"#utility.yul\":8545:8605   */\n      tag_242\n        /* \"#utility.yul\":8598:8604   */\n      dup4\n        /* \"#utility.yul\":8545:8605   */\n      tag_125\n      jump\t// in\n    tag_242:\n        /* \"#utility.yul\":8535:8605   */\n      swap3\n      pop\n        /* \"#utility.yul\":8391:8615   */\n      pop\n        /* \"#utility.yul\":8378:8379   */\n      0x01\n        /* \"#utility.yul\":8375:8376   */\n      dup2\n        /* \"#utility.yul\":8371:8380   */\n      add\n        /* \"#utility.yul\":8366:8380   */\n      swap1\n      pop\n        /* \"#utility.yul\":8331:8615   */\n      jump(tag_238)\n    tag_240:\n        /* \"#utility.yul\":8335:8349   */\n      pop\n        /* \"#utility.yul\":8631:8634   */\n      dup6\n        /* \"#utility.yul\":8624:8634   */\n      swap4\n      pop\n        /* \"#utility.yul\":8032:8640   */\n      pop\n      pop\n      pop\n        /* \"#utility.yul\":7908:8640   */\n      swap3\n      swap2\n      pop\n      pop\n      jump\t// out\n        /* \"#utility.yul\":8646:9019   */\n    tag_22:\n        /* \"#utility.yul\":8789:8793   */\n      0x00\n        /* \"#utility.yul\":8827:8829   */\n      0x20\n        /* \"#utility.yul\":8816:8825   */\n      dup3\n        /* \"#utility.yul\":8812:8830   */\n      add\n        /* \"#utility.yul\":8804:8830   */\n      swap1\n      pop\n        /* \"#utility.yul\":8876:8885   */\n      dup2\n        /* \"#utility.yul\":8870:8874   */\n      dup2\n        /* \"#utility.yul\":8866:8886   */\n      sub\n        /* \"#utility.yul\":8862:8863   */\n      0x00\n        /* \"#utility.yul\":8851:8860   */\n      dup4\n        /* \"#utility.yul\":8847:8864   */\n      add\n        /* \"#utility.yul\":8840:8887   */\n      mstore\n        /* \"#utility.yul\":8904:9012   */\n      tag_244\n        /* \"#utility.yul\":9007:9011   */\n      dup2\n        /* \"#utility.yul\":8998:9004   */\n      dup5\n        /* \"#utility.yul\":8904:9012   */\n      tag_126\n      jump\t// in\n    tag_244:\n        /* \"#utility.yul\":8896:9012   */\n      swap1\n      pop\n        /* \"#utility.yul\":8646:9019   */\n      swap3\n      swap2\n      pop\n      pop\n      jump\t// out\n        /* \"#utility.yul\":9025:9147   */\n    tag_127:\n        /* \"#utility.yul\":9098:9122   */\n      tag_246\n        /* \"#utility.yul\":9116:9121   */\n      dup2\n        /* \"#utility.yul\":9098:9122   */\n      tag_122\n      jump\t// in\n    tag_246:\n        /* \"#utility.yul\":9091:9096   */\n      dup2\n        /* \"#utility.yul\":9088:9123   */\n      eq\n        /* \"#utility.yul\":9078:9141   */\n      tag_247\n      jumpi\n        /* \"#utility.yul\":9137:9138   */\n      0x00\n        /* \"#utility.yul\":9134:9135   */\n      0x00\n        /* \"#utility.yul\":9127:9139   */\n      revert\n        /* \"#utility.yul\":9078:9141   */\n    tag_247:\n        /* \"#utility.yul\":9025:9147   */\n      pop\n      jump\t// out\n        /* \"#utility.yul\":9153:9292   */\n    tag_128:\n        /* \"#utility.yul\":9199:9204   */\n      0x00\n        /* \"#utility.yul\":9237:9243   */\n      dup2\n        /* \"#utility.yul\":9224:9244   */\n      calldataload\n        /* \"#utility.yul\":9215:9244   */\n      swap1\n      pop\n        /* \"#utility.yul\":9253:9286   */\n      tag_249\n        /* \"#utility.yul\":9280:9285   */\n      dup2\n        /* \"#utility.yul\":9253:9286   */\n      tag_127\n      jump\t// in\n    tag_249:\n        /* \"#utility.yul\":9153:9292   */\n      swap3\n      swap2\n      pop\n      pop\n      jump\t// out\n        /* \"#utility.yul\":9298:9627   */\n    tag_25:\n        /* \"#utility.yul\":9357:9363   */\n      0x00\n        /* \"#utility.yul\":9406:9408   */\n      0x20\n        /* \"#utility.yul\":9394:9403   */\n      dup3\n        /* \"#utility.yul\":9385:9392   */\n      dup5\n        /* \"#utility.yul\":9381:9404   */\n      sub\n        /* \"#utility.yul\":9377:9409   */\n      slt\n        /* \"#utility.yul\":9374:9493   */\n      iszero\n      tag_251\n      jumpi\n        /* \"#utility.yul\":9412:9491   */\n      tag_252\n      tag_97\n      jump\t// in\n    tag_252:\n        /* \"#utility.yul\":9374:9493   */\n    tag_251:\n        /* \"#utility.yul\":9532:9533   */\n      0x00\n        /* \"#utility.yul\":9557:9610   */\n      tag_253\n        /* \"#utility.yul\":9602:9609   */\n      dup5\n        /* \"#utility.yul\":9593:9599   */\n      dup3\n        /* \"#utility.yul\":9582:9591   */\n      dup6\n        /* \"#utility.yul\":9578:9600   */\n      add\n        /* \"#utility.yul\":9557:9610   */\n      tag_128\n      jump\t// in\n    tag_253:\n        /* \"#utility.yul\":9547:9610   */\n      swap2\n      pop\n        /* \"#utility.yul\":9503:9620   */\n      pop\n        /* \"#utility.yul\":9298:9627   */\n      swap3\n      swap2\n      pop\n      pop\n      jump\t// out\n        /* \"#utility.yul\":9633:10550   */\n    tag_31:\n        /* \"#utility.yul\":9890:9894   */\n      0x00\n        /* \"#utility.yul\":9928:9931   */\n      0x80\n        /* \"#utility.yul\":9917:9926   */\n      dup3\n        /* \"#utility.yul\":9913:9932   */\n      add\n        /* \"#utility.yul\":9905:9932   */\n      swap1\n      pop\n        /* \"#utility.yul\":9978:9987   */\n      dup2\n        /* \"#utility.yul\":9972:9976   */\n      dup2\n        /* \"#utility.yul\":9968:9988   */\n      sub\n        /* \"#utility.yul\":9964:9965   */\n      0x00\n        /* \"#utility.yul\":9953:9962   */\n      dup4\n        /* \"#utility.yul\":9949:9966   */\n      add\n        /* \"#utility.yul\":9942:9989   */\n      mstore\n        /* \"#utility.yul\":10006:10084   */\n      tag_255\n        /* \"#utility.yul\":10079:10083   */\n      dup2\n        /* \"#utility.yul\":10070:10076   */\n      dup8\n        /* \"#utility.yul\":10006:10084   */\n      tag_107\n      jump\t// in\n    tag_255:\n        /* \"#utility.yul\":9998:10084   */\n      swap1\n      pop\n        /* \"#utility.yul\":10131:10140   */\n      dup2\n        /* \"#utility.yul\":10125:10129   */\n      dup2\n        /* \"#utility.yul\":10121:10141   */\n      sub\n        /* \"#utility.yul\":10116:10118   */\n      0x20\n        /* \"#utility.yul\":10105:10114   */\n      dup4\n        /* \"#utility.yul\":10101:10119   */\n      add\n        /* \"#utility.yul\":10094:10142   */\n      mstore\n        /* \"#utility.yul\":10159:10237   */\n      tag_256\n        /* \"#utility.yul\":10232:10236   */\n      dup2\n        /* \"#utility.yul\":10223:10229   */\n      dup7\n        /* \"#utility.yul\":10159:10237   */\n      tag_107\n      jump\t// in\n    tag_256:\n        /* \"#utility.yul\":10151:10237   */\n      swap1\n      pop\n        /* \"#utility.yul\":10284:10293   */\n      dup2\n        /* \"#utility.yul\":10278:10282   */\n      dup2\n        /* \"#utility.yul\":10274:10294   */\n      sub\n        /* \"#utility.yul\":10269:10271   */\n      0x40\n        /* \"#utility.yul\":10258:10267   */\n      dup4\n        /* \"#utility.yul\":10254:10272   */\n      add\n        /* \"#utility.yul\":10247:10295   */\n      mstore\n        /* \"#utility.yul\":10312:10390   */\n      tag_257\n        /* \"#utility.yul\":10385:10389   */\n      dup2\n        /* \"#utility.yul\":10376:10382   */\n      dup6\n        /* \"#utility.yul\":10312:10390   */\n      tag_107\n      jump\t// in\n    tag_257:\n        /* \"#utility.yul\":10304:10390   */\n      swap1\n      pop\n        /* \"#utility.yul\":10437:10446   */\n      dup2\n        /* \"#utility.yul\":10431:10435   */\n      dup2\n        /* \"#utility.yul\":10427:10447   */\n      sub\n        /* \"#utility.yul\":10422:10424   */\n      0x60\n        /* \"#utility.yul\":10411:10420   */\n      dup4\n        /* \"#utility.yul\":10407:10425   */\n      add\n        /* \"#utility.yul\":10400:10448   */\n      mstore\n        /* \"#utility.yul\":10465:10543   */\n      tag_258\n        /* \"#utility.yul\":10538:10542   */\n      dup2\n        /* \"#utility.yul\":10529:10535   */\n      dup5\n        /* \"#utility.yul\":10465:10543   */\n      tag_107\n      jump\t// in\n    tag_258:\n        /* \"#utility.yul\":10457:10543   */\n      swap1\n      pop\n        /* \"#utility.yul\":9633:10550   */\n      swap6\n      swap5\n      pop\n      pop\n      pop\n      pop\n      pop\n      jump\t// out\n        /* \"#utility.yul\":10556:10736   */\n    tag_129:\n        /* \"#utility.yul\":10604:10681   */\n      0x4e487b7100000000000000000000000000000000000000000000000000000000\n        /* \"#utility.yul\":10601:10602   */\n      0x00\n        /* \"#utility.yul\":10594:10682   */\n      mstore\n        /* \"#utility.yul\":10701:10705   */\n      0x22\n        /* \"#utility.yul\":10698:10699   */\n      0x04\n        /* \"#utility.yul\":10691:10706   */\n      mstore\n        /* \"#utility.yul\":10725:10729   */\n      0x24\n        /* \"#utility.yul\":10722:10723   */\n      0x00\n        /* \"#utility.yul\":10715:10730   */\n      revert\n        /* \"#utility.yul\":10742:11062   */\n    tag_33:\n        /* \"#utility.yul\":10786:10792   */\n      0x00\n        /* \"#utility.yul\":10823:10824   */\n      0x02\n        /* \"#utility.yul\":10817:10821   */\n      dup3\n        /* \"#utility.yul\":10813:10825   */\n      div\n        /* \"#utility.yul\":10803:10825   */\n      swap1\n      pop\n        /* \"#utility.yul\":10870:10871   */\n      0x01\n        /* \"#utility.yul\":10864:10868   */\n      dup3\n        /* \"#utility.yul\":10860:10872   */\n      and\n        /* \"#utility.yul\":10891:10909   */\n      dup1\n        /* \"#utility.yul\":10881:10962   */\n      tag_261\n      jumpi\n        /* \"#utility.yul\":10947:10951   */\n      0x7f\n        /* \"#utility.yul\":10939:10945   */\n      dup3\n        /* \"#utility.yul\":10935:10952   */\n      and\n        /* \"#utility.yul\":10925:10952   */\n      swap2\n      pop\n        /* \"#utility.yul\":10881:10962   */\n    tag_261:\n        /* \"#utility.yul\":11009:11011   */\n      0x20\n        /* \"#utility.yul\":11001:11007   */\n      dup3\n        /* \"#utility.yul\":10998:11012   */\n      lt\n        /* \"#utility.yul\":10978:10996   */\n      dup2\n        /* \"#utility.yul\":10975:11013   */\n      sub\n        /* \"#utility.yul\":10972:11056   */\n      tag_262\n      jumpi\n        /* \"#utility.yul\":11028:11046   */\n      tag_263\n      tag_129\n      jump\t// in\n    tag_263:\n        /* \"#utility.yul\":10972:11056   */\n    tag_262:\n        /* \"#utility.yul\":10793:11062   */\n      pop\n        /* \"#utility.yul\":10742:11062   */\n      swap2\n      swap1\n      pop\n      jump\t// out\n        /* \"#utility.yul\":11068:11236   */\n    tag_130:\n        /* \"#utility.yul\":11208:11228   */\n      0x416c726561647920726567697374657265640000000000000000000000000000\n        /* \"#utility.yul\":11204:11205   */\n      0x00\n        /* \"#utility.yul\":11196:11202   */\n      dup3\n        /* \"#utility.yul\":11192:11206   */\n      add\n        /* \"#utility.yul\":11185:11229   */\n      mstore\n        /* \"#utility.yul\":11068:11236   */\n      pop\n      jump\t// out\n        /* \"#utility.yul\":11242:11608   */\n    tag_131:\n        /* \"#utility.yul\":11384:11387   */\n      0x00\n        /* \"#utility.yul\":11405:11472   */\n      tag_266\n        /* \"#utility.yul\":11469:11471   */\n      0x12\n        /* \"#utility.yul\":11464:11467   */\n      dup4\n        /* \"#utility.yul\":11405:11472   */\n      tag_104\n      jump\t// in\n    tag_266:\n        /* \"#utility.yul\":11398:11472   */\n      swap2\n      pop\n        /* \"#utility.yul\":11481:11574   */\n      tag_267\n        /* \"#utility.yul\":11570:11573   */\n      dup3\n        /* \"#utility.yul\":11481:11574   */\n      tag_130\n      jump\t// in\n    tag_267:\n        /* \"#utility.yul\":11599:11601   */\n      0x20\n        /* \"#utility.yul\":11594:11597   */\n      dup3\n        /* \"#utility.yul\":11590:11602   */\n      add\n        /* \"#utility.yul\":11583:11602   */\n      swap1\n      pop\n        /* \"#utility.yul\":11242:11608   */\n      swap2\n      swap1\n      pop\n      jump\t// out\n        /* \"#utility.yul\":11614:12033   */\n    tag_56:\n        /* \"#utility.yul\":11780:11784   */\n      0x00\n        /* \"#utility.yul\":11818:11820   */\n      0x20\n        /* \"#utility.yul\":11807:11816   */\n      dup3\n        /* \"#utility.yul\":11803:11821   */\n      add\n        /* \"#utility.yul\":11795:11821   */\n      swap1\n      pop\n        /* \"#utility.yul\":11867:11876   */\n      dup2\n        /* \"#utility.yul\":11861:11865   */\n      dup2\n        /* \"#utility.yul\":11857:11877   */\n      sub\n        /* \"#utility.yul\":11853:11854   */\n      0x00\n        /* \"#utility.yul\":11842:11851   */\n      dup4\n        /* \"#utility.yul\":11838:11855   */\n      add\n        /* \"#utility.yul\":11831:11878   */\n      mstore\n        /* \"#utility.yul\":11895:12026   */\n      tag_269\n        /* \"#utility.yul\":12021:12025   */\n      dup2\n        /* \"#utility.yul\":11895:12026   */\n      tag_131\n      jump\t// in\n    tag_269:\n        /* \"#utility.yul\":11887:12026   */\n      swap1\n      pop\n        /* \"#utility.yul\":11614:12033   */\n      swap2\n      swap1\n      pop\n      jump\t// out\n        /* \"#utility.yul\":12039:12180   */\n    tag_132:\n        /* \"#utility.yul\":12088:12092   */\n      0x00\n        /* \"#utility.yul\":12111:12114   */\n      dup2\n        /* \"#utility.yul\":12103:12114   */\n      swap1\n      pop\n        /* \"#utility.yul\":12134:12137   */\n      dup2\n        /* \"#utility.yul\":12131:12132   */\n      0x00\n        /* \"#utility.yul\":12124:12138   */\n      mstore\n        /* \"#utility.yul\":12168:12172   */\n      0x20\n        /* \"#utility.yul\":12165:12166   */\n      0x00\n        /* \"#utility.yul\":12155:12173   */\n      keccak256\n        /* \"#utility.yul\":12147:12173   */\n      swap1\n      pop\n        /* \"#utility.yul\":12039:12180   */\n      swap2\n      swap1\n      pop\n      jump\t// out\n        /* \"#utility.yul\":12186:12279   */\n    tag_133:\n        /* \"#utility.yul\":12223:12229   */\n      0x00\n        /* \"#utility.yul\":12270:12272   */\n      0x20\n        /* \"#utility.yul\":12265:12267   */\n      0x1f\n        /* \"#utility.yul\":12258:12263   */\n      dup4\n        /* \"#utility.yul\":12254:12268   */\n      add\n        /* \"#utility.yul\":12250:12273   */\n      div\n        /* \"#utility.yul\":12240:12273   */\n      swap1\n      pop\n        /* \"#utility.yul\":12186:12279   */\n      swap2\n      swap1\n      pop\n      jump\t// out\n        /* \"#utility.yul\":12285:12392   */\n    tag_134:\n        /* \"#utility.yul\":12329:12337   */\n      0x00\n        /* \"#utility.yul\":12379:12384   */\n      dup3\n        /* \"#utility.yul\":12373:12377   */\n      dup3\n        /* \"#utility.yul\":12369:12385   */\n      shl\n        /* \"#utility.yul\":12348:12385   */\n      swap1\n      pop\n        /* \"#utility.yul\":12285:12392   */\n      swap3\n      swap2\n      pop\n      pop\n      jump\t// out\n        /* \"#utility.yul\":12398:12791   */\n    tag_135:\n        /* \"#utility.yul\":12467:12473   */\n      0x00\n        /* \"#utility.yul\":12517:12518   */\n      0x08\n        /* \"#utility.yul\":12505:12515   */\n      dup4\n        /* \"#utility.yul\":12501:12519   */\n      mul\n        /* \"#utility.yul\":12540:12637   */\n      tag_274\n        /* \"#utility.yul\":12570:12636   */\n      0xffffffffffffffffffffffffffffffffffffffffffffffffffffffffffffffff\n        /* \"#utility.yul\":12559:12568   */\n      dup3\n        /* \"#utility.yul\":12540:12637   */\n      tag_134\n      jump\t// in\n    tag_274:\n        /* \"#utility.yul\":12658:12697   */\n      tag_275\n        /* \"#utility.yul\":12688:12696   */\n      dup7\n        /* \"#utility.yul\":12677:12686   */\n      dup4\n        /* \"#utility.yul\":12658:12697   */\n      tag_134\n      jump\t// in\n    tag_275:\n        /* \"#utility.yul\":12646:12697   */\n      swap6\n      pop\n        /* \"#utility.yul\":12730:12734   */\n      dup1\n        /* \"#utility.yul\":12726:12735   */\n      not\n        /* \"#utility.yul\":12719:12724   */\n      dup5\n        /* \"#utility.yul\":12715:12736   */\n      and\n        /* \"#utility.yul\":12706:12736   */\n      swap4\n      pop\n        /* \"#utility.yul\":12779:12783   */\n      dup1\n        /* \"#utility.yul\":12769:12777   */\n      dup7\n        /* \"#utility.yul\":12765:12784   */\n      and\n        /* \"#utility.yul\":12758:12763   */\n      dup5\n        /* \"#utility.yul\":12755:12785   */\n      or\n        /* \"#utility.yul\":12745:12785   */\n      swap3\n      pop\n        /* \"#utility.yul\":12474:12791   */\n      pop\n      pop\n        /* \"#utility.yul\":12398:12791   */\n      swap4\n      swap3\n      pop\n      pop\n      pop\n      jump\t// out\n        /* \"#utility.yul\":12797:12874   */\n    tag_136:\n        /* \"#utility.yul\":12834:12841   */\n      0x00\n        /* \"#utility.yul\":12863:12868   */\n      dup2\n        /* \"#utility.yul\":12852:12868   */\n      swap1\n      pop\n        /* \"#utility.yul\":12797:12874   */\n      swap2\n      swap1\n      pop\n      jump\t// out\n        /* \"#utility.yul\":12880:12940   */\n    tag_137:\n        /* \"#utility.yul\":12908:12911   */\n      0x00\n        /* \"#utility.yul\":12929:12934   */\n      dup2\n        /* \"#utility.yul\":12922:12934   */\n      swap1\n      pop\n        /* \"#utility.yul\":12880:12940   */\n      swap2\n      swap1\n      pop\n      jump\t// out\n        /* \"#utility.yul\":12946:13088   */\n    tag_138:\n        /* \"#utility.yul\":12996:13005   */\n      0x00\n        /* \"#utility.yul\":13029:13082   */\n      tag_279\n        /* \"#utility.yul\":13047:13081   */\n      tag_280\n        /* \"#utility.yul\":13056:13080   */\n      tag_281\n        /* \"#utility.yul\":13074:13079   */\n      dup5\n        /* \"#utility.yul\":13056:13080   */\n      tag_136\n      jump\t// in\n    tag_281:\n        /* \"#utility.yul\":13047:13081   */\n      tag_137\n      jump\t// in\n    tag_280:\n        /* \"#utility.yul\":13029:13082   */\n      tag_136\n      jump\t// in\n    tag_279:\n        /* \"#utility.yul\":13016:13082   */\n      swap1\n      pop\n        /* \"#utility.yul\":12946:13088   */\n      swap2\n      swap1\n      pop\n      jump\t// out\n        /* \"#utility.yul\":13094:13169   */\n    tag_139:\n        /* \"#utility.yul\":13137:13140   */\n      0x00\n        /* \"#utility.yul\":13158:13163   */\n      dup2\n        /* \"#utility.yul\":13151:13163   */\n      swap1\n      pop\n        /* \"#utility.yul\":13094:13169   */\n      swap2\n      swap1\n      pop\n      jump\t// out\n        /* \"#utility.yul\":13175:13444   */\n    tag_140:\n        /* \"#utility.yul\":13285:13324   */\n      tag_284\n        /* \"#utility.yul\":13316:13323   */\n      dup4\n        /* \"#utility.yul\":13285:13324   */\n      tag_138\n      jump\t// in\n    tag_284:\n        /* \"#utility.yul\":13346:13437   */\n      tag_285\n        /* \"#utility.yul\":13395:13436   */\n      tag_286\n        /* \"#utility.yul\":13419:13435   */\n      dup3\n        /* \"#utility.yul\":13395:13436   */\n      tag_139\n      jump\t// in\n    tag_286:\n        /* \"#utility.yul\":13387:13393   */\n      dup5\n        /* \"#utility.yul\":13380:13384   */\n      dup5\n        /* \"#utility.yul\":13374:13385   */\n      sload\n        /* \"#utility.yul\":13346:13437   */\n      tag_135\n      jump\t// in\n    tag_285:\n        /* \"#utility.yul\":13340:13344   */\n      dup3\n        /* \"#utility.yul\":13333:13438   */\n      sstore\n        /* \"#utility.yul\":13251:13444   */\n      pop\n        /* \"#utility.yul\":13175:13444   */\n      pop\n      pop\n      pop\n      jump\t// out\n        /* \"#utility.yul\":13450:13523   */\n    tag_141:\n        /* \"#utility.yul\":13495:13498   */\n      0x00\n        /* \"#utility.yul\":13516:13517   */\n      0x00\n        /* \"#utility.yul\":13509:13517   */\n      swap1\n      pop\n        /* \"#utility.yul\":13450:13523   */\n      swap1\n      jump\t// out\n        /* \"#utility.yul\":13529:13718   */\n    tag_142:\n        /* \"#utility.yul\":13606:13638   */\n      tag_289\n      tag_141\n      jump\t// in\n    tag_289:\n        /* \"#utility.yul\":13647:13712   */\n      tag_290\n        /* \"#utility.yul\":13705:13711   */\n      dup2\n        /* \"#utility.yul\":13697:13703   */\n      dup5\n        /* \"#utility.yul\":13691:13695   */\n      dup5\n        /* \"#utility.yul\":13647:13712   */\n      tag_140\n      jump\t// in\n    tag_290:\n        /* \"#utility.yul\":13582:13718   */\n      pop\n        /* \"#utility.yul\":13529:13718   */\n      pop\n      pop\n      jump\t// out\n        /* \"#utility.yul\":13724:13910   */\n    tag_143:\n        /* \"#utility.yul\":13784:13904   */\n    tag_292:\n        /* \"#utility.yul\":13801:13804   */\n      dup2\n        /* \"#utility.yul\":13794:13799   */\n      dup2\n        /* \"#utility.yul\":13791:13805   */\n      lt\n        /* \"#utility.yul\":13784:13904   */\n      iszero\n      tag_294\n      jumpi\n        /* \"#utility.yul\":13855:13894   */\n      tag_295\n        /* \"#utility.yul\":13892:13893   */\n      0x00\n        /* \"#utility.yul\":13885:13890   */\n      dup3\n        /* \"#utility.yul\":13855:13894   */\n      tag_142\n      jump\t// in\n    tag_295:\n        /* \"#utility.yul\":13828:13829   */\n      0x01\n        /* \"#utility.yul\":13821:13826   */\n      dup2\n        /* \"#utility.yul\":13817:13830   */\n      add\n        /* \"#utility.yul\":13808:13830   */\n      swap1\n      pop\n        /* \"#utility.yul\":13784:13904   */\n      jump(tag_292)\n    tag_294:\n        /* \"#utility.yul\":13724:13910   */\n      pop\n      pop\n      jump\t// out\n        /* \"#utility.yul\":13916:14459   */\n    tag_144:\n        /* \"#utility.yul\":14017:14019   */\n      0x1f\n        /* \"#utility.yul\":14012:14015   */\n      dup3\n        /* \"#utility.yul\":14009:14020   */\n      gt\n        /* \"#utility.yul\":14006:14452   */\n      iszero\n      tag_297\n      jumpi\n        /* \"#utility.yul\":14051:14089   */\n      tag_298\n        /* \"#utility.yul\":14083:14088   */\n      dup2\n        /* \"#utility.yul\":14051:14089   */\n      tag_132\n      jump\t// in\n    tag_298:\n        /* \"#utility.yul\":14135:14164   */\n      tag_299\n        /* \"#utility.yul\":14153:14163   */\n      dup5\n        /* \"#utility.yul\":14135:14164   */\n      tag_133\n      jump\t// in\n    tag_299:\n        /* \"#utility.yul\":14125:14133   */\n      dup2\n        /* \"#utility.yul\":14121:14165   */\n      add\n        /* \"#utility.yul\":14318:14320   */\n      0x20\n        /* \"#utility.yul\":14306:14316   */\n      dup6\n        /* \"#utility.yul\":14303:14321   */\n      lt\n        /* \"#utility.yul\":14300:14349   */\n      iszero\n      tag_300\n      jumpi\n        /* \"#utility.yul\":14339:14347   */\n      dup2\n        /* \"#utility.yul\":14324:14347   */\n      swap1\n      pop\n        /* \"#utility.yul\":14300:14349   */\n    tag_300:\n        /* \"#utility.yul\":14362:14442   */\n      tag_301\n        /* \"#utility.yul\":14418:14440   */\n      tag_302\n        /* \"#utility.yul\":14436:14439   */\n      dup6\n        /* \"#utility.yul\":14418:14440   */\n      tag_133\n      jump\t// in\n    tag_302:\n        /* \"#utility.yul\":14408:14416   */\n      dup4\n        /* \"#utility.yul\":14404:14441   */\n      add\n        /* \"#utility.yul\":14391:14402   */\n      dup3\n        /* \"#utility.yul\":14362:14442   */\n      tag_143\n      jump\t// in\n    tag_301:\n        /* \"#utility.yul\":14021:14452   */\n      pop\n      pop\n        /* \"#utility.yul\":14006:14452   */\n    tag_297:\n        /* \"#utility.yul\":13916:14459   */\n      pop\n      pop\n      pop\n      jump\t// out\n        /* \"#utility.yul\":14465:14582   */\n    tag_145:\n        /* \"#utility.yul\":14519:14527   */\n      0x00\n        /* \"#utility.yul\":14569:14574   */\n      dup3\n        /* \"#utility.yul\":14563:14567   */\n      dup3\n        /* \"#utility.yul\":14559:14575   */\n      shr\n        /* \"#utility.yul\":14538:14575   */\n      swap1\n      pop\n        /* \"#utility.yul\":14465:14582   */\n      swap3\n      swap2\n      pop\n      pop\n      jump\t// out\n        /* \"#utility.yul\":14588:14757   */\n    tag_146:\n        /* \"#utility.yul\":14632:14638   */\n      0x00\n        /* \"#utility.yul\":14665:14716   */\n      tag_305\n        /* \"#utility.yul\":14713:14714   */\n      0x00\n        /* \"#utility.yul\":14709:14715   */\n      not\n        /* \"#utility.yul\":14701:14706   */\n      dup5\n        /* \"#utility.yul\":14698:14699   */\n      0x08\n        /* \"#utility.yul\":14694:14707   */\n      mul\n        /* \"#utility.yul\":14665:14716   */\n      tag_145\n      jump\t// in\n    tag_305:\n        /* \"#utility.yul\":14661:14717   */\n      not\n        /* \"#utility.yul\":14746:14750   */\n      dup1\n        /* \"#utility.yul\":14740:14744   */\n      dup4\n        /* \"#utility.yul\":14736:14751   */\n      and\n        /* \"#utility.yul\":14726:14751   */\n      swap2\n      pop\n        /* \"#utility.yul\":14639:14757   */\n      pop\n        /* \"#utility.yul\":14588:14757   */\n      swap3\n      swap2\n      pop\n      pop\n      jump\t// out\n        /* \"#utility.yul\":14762:15057   */\n    tag_147:\n        /* \"#utility.yul\":14838:14842   */\n      0x00\n        /* \"#utility.yul\":14984:15013   */\n      tag_307\n        /* \"#utility.yul\":15009:15012   */\n      dup4\n        /* \"#utility.yul\":15003:15007   */\n      dup4\n        /* \"#utility.yul\":14984:15013   */\n      tag_146\n      jump\t// in\n    tag_307:\n        /* \"#utility.yul\":14976:15013   */\n      swap2\n      pop\n        /* \"#utility.yul\":15046:15049   */\n      dup3\n        /* \"#utility.yul\":15043:15044   */\n      0x02\n        /* \"#utility.yul\":15039:15050   */\n      mul\n        /* \"#utility.yul\":15033:15037   */\n      dup3\n        /* \"#utility.yul\":15030:15051   */\n      or\n        /* \"#utility.yul\":15022:15051   */\n      swap1\n      pop\n        /* \"#utility.yul\":14762:15057   */\n      swap3\n      swap2\n      pop\n      pop\n      jump\t// out\n        /* \"#utility.yul\":15062:16457   */\n    tag_58:\n        /* \"#utility.yul\":15179:15216   */\n      tag_309\n        /* \"#utility.yul\":15212:15215   */\n      dup3\n        /* \"#utility.yul\":15179:15216   */\n      tag_103\n      jump\t// in\n    tag_309:\n        /* \"#utility.yul\":15281:15299   */\n      0xffffffffffffffff\n        /* \"#utility.yul\":15273:15279   */\n      dup2\n        /* \"#utility.yul\":15270:15300   */\n      gt\n        /* \"#utility.yul\":15267:15323   */\n      iszero\n      tag_310\n      jumpi\n        /* \"#utility.yul\":15303:15321   */\n      tag_311\n      tag_112\n      jump\t// in\n    tag_311:\n        /* \"#utility.yul\":15267:15323   */\n    tag_310:\n        /* \"#utility.yul\":15347:15385   */\n      tag_312\n        /* \"#utility.yul\":15379:15383   */\n      dup3\n        /* \"#utility.yul\":15373:15384   */\n      sload\n        /* \"#utility.yul\":15347:15385   */\n      tag_33\n      jump\t// in\n    tag_312:\n        /* \"#utility.yul\":15432:15499   */\n      tag_313\n        /* \"#utility.yul\":15492:15498   */\n      dup3\n        /* \"#utility.yul\":15484:15490   */\n      dup3\n        /* \"#utility.yul\":15478:15482   */\n      dup6\n        /* \"#utility.yul\":15432:15499   */\n      tag_144\n      jump\t// in\n    tag_313:\n        /* \"#utility.yul\":15526:15527   */\n      0x00\n        /* \"#utility.yul\":15550:15554   */\n      0x20\n        /* \"#utility.yul\":15537:15554   */\n      swap1\n      pop\n        /* \"#utility.yul\":15582:15584   */\n      0x1f\n        /* \"#utility.yul\":15574:15580   */\n      dup4\n        /* \"#utility.yul\":15571:15585   */\n      gt\n        /* \"#utility.yul\":15599:15600   */\n      0x01\n        /* \"#utility.yul\":15594:16212   */\n      dup2\n      eq\n      tag_315\n      jumpi\n        /* \"#utility.yul\":16256:16257   */\n      0x00\n        /* \"#utility.yul\":16273:16279   */\n      dup5\n        /* \"#utility.yul\":16270:16347   */\n      iszero\n      tag_316\n      jumpi\n        /* \"#utility.yul\":16322:16331   */\n      dup3\n        /* \"#utility.yul\":16317:16320   */\n      dup8\n        /* \"#utility.yul\":16313:16332   */\n      add\n        /* \"#utility.yul\":16307:16333   */\n      mload\n        /* \"#utility.yul\":16298:16333   */\n      swap1\n      pop\n        /* \"#utility.yul\":16270:16347   */\n    tag_316:\n        /* \"#utility.yul\":16373:16440   */\n      tag_317\n        /* \"#utility.yul\":16433:16439   */\n      dup6\n        /* \"#utility.yul\":16426:16431   */\n      dup3\n        /* \"#utility.yul\":16373:16440   */\n      tag_147\n      jump\t// in\n    tag_317:\n        /* \"#utility.yul\":16367:16371   */\n      dup7\n        /* \"#utility.yul\":16360:16441   */\n      sstore\n        /* \"#utility.yul\":16229:16451   */\n      pop\n        /* \"#utility.yul\":15564:16451   */\n      jump(tag_314)\n        /* \"#utility.yul\":15594:16212   */\n    tag_315:\n        /* \"#utility.yul\":15646:15650   */\n      0x1f\n        /* \"#utility.yul\":15642:15651   */\n      not\n        /* \"#utility.yul\":15634:15640   */\n      dup5\n        /* \"#utility.yul\":15630:15652   */\n      and\n        /* \"#utility.yul\":15680:15717   */\n      tag_318\n        /* \"#utility.yul\":15712:15716   */\n      dup7\n        /* \"#utility.yul\":15680:15717   */\n      tag_132\n      jump\t// in\n    tag_318:\n        /* \"#utility.yul\":15739:15740   */\n      0x00\n        /* \"#utility.yul\":15753:15961   */\n    tag_319:\n        /* \"#utility.yul\":15767:15774   */\n      dup3\n        /* \"#utility.yul\":15764:15765   */\n      dup2\n        /* \"#utility.yul\":15761:15775   */\n      lt\n        /* \"#utility.yul\":15753:15961   */\n      iszero\n      tag_321\n      jumpi\n        /* \"#utility.yul\":15846:15855   */\n      dup5\n        /* \"#utility.yul\":15841:15844   */\n      dup10\n        /* \"#utility.yul\":15837:15856   */\n      add\n        /* \"#utility.yul\":15831:15857   */\n      mload\n        /* \"#utility.yul\":15823:15829   */\n      dup3\n        /* \"#utility.yul\":15816:15858   */\n      sstore\n        /* \"#utility.yul\":15897:15898   */\n      0x01\n        /* \"#utility.yul\":15889:15895   */\n      dup3\n        /* \"#utility.yul\":15885:15899   */\n      add\n        /* \"#utility.yul\":15875:15899   */\n      swap2\n      pop\n        /* \"#utility.yul\":15944:15946   */\n      0x20\n        /* \"#utility.yul\":15933:15942   */\n      dup6\n        /* \"#utility.yul\":15929:15947   */\n      add\n        /* \"#utility.yul\":15916:15947   */\n      swap5\n      pop\n        /* \"#utility.yul\":15790:15794   */\n      0x20\n        /* \"#utility.yul\":15787:15788   */\n      dup2\n        /* \"#utility.yul\":15783:15795   */\n      add\n        /* \"#utility.yul\":15778:15795   */\n      swap1\n      pop\n        /* \"#utility.yul\":15753:15961   */\n      jump(tag_319)\n    tag_321:\n        /* \"#utility.yul\":15989:15995   */\n      dup7\n        /* \"#utility.yul\":15980:15987   */\n      dup4\n        /* \"#utility.yul\":15977:15996   */\n      lt\n        /* \"#utility.yul\":15974:16153   */\n      iszero\n      tag_322\n      jumpi\n        /* \"#utility.yul\":16047:16056   */\n      dup5\n        /* \"#utility.yul\":16042:16045   */\n      dup10\n        /* \"#utility.yul\":16038:16057   */\n      add\n        /* \"#utility.yul\":16032:16058   */\n      mload\n        /* \"#utility.yul\":16090:16138   */\n      tag_323\n        /* \"#utility.yul\":16132:16136   */\n      0x1f\n        /* \"#utility.yul\":16124:16130   */\n      dup10\n        /* \"#utility.yul\":16120:16137   */\n      and\n        /* \"#utility.yul\":16109:16118   */\n      dup3\n        /* \"#utility.yul\":16090:16138   */\n      tag_146\n      jump\t// in\n    tag_323:\n        /* \"#utility.yul\":16082:16088   */\n      dup4\n        /* \"#utility.yul\":16075:16139   */\n      sstore\n        /* \"#utility.yul\":15997:16153   */\n      pop\n        /* \"#utility.yul\":15974:16153   */\n    tag_322:\n        /* \"#utility.yul\":16199:16200   */\n      0x01\n        /* \"#utility.yul\":16195:16196   */\n      0x02\n        /* \"#utility.yul\":16187:16193   */\n      dup9\n        /* \"#utility.yul\":16183:16197   */\n      mul\n        /* \"#utility.yul\":16179:16201   */\n      add\n        /* \"#utility.yul\":16173:16177   */\n      dup9\n        /* \"#utility.yul\":16166:16202   */\n      sstore\n        /* \"#utility.yul\":15601:16212   */\n      pop\n      pop\n      pop\n        /* \"#utility.yul\":15564:16451   */\n    tag_314:\n      pop\n        /* \"#utility.yul\":15154:16457   */\n      pop\n      pop\n      pop\n        /* \"#utility.yul\":15062:16457   */\n      pop\n      pop\n      jump\t// out\n        /* \"#utility.yul\":16463:16776   */\n    tag_63:\n        /* \"#utility.yul\":16576:16580   */\n      0x00\n        /* \"#utility.yul\":16614:16616   */\n      0x20\n        /* \"#utility.yul\":16603:16612   */\n      dup3\n        /* \"#utility.yul\":16599:16617   */\n      add\n        /* \"#utility.yul\":16591:16617   */\n      swap1\n      pop\n        /* \"#utility.yul\":16663:16672   */\n      dup2\n        /* \"#utility.yul\":16657:16661   */\n      dup2\n        /* \"#utility.yul\":16653:16673   */\n      sub\n        /* \"#utility.yul\":16649:16650   */\n      0x00\n        /* \"#utility.yul\":16638:16647   */\n      dup4\n        /* \"#utility.yul\":16634:16651   */\n      add\n        /* \"#utility.yul\":16627:16674   */\n      mstore\n        /* \"#utility.yul\":16691:16769   */\n      tag_325\n        /* \"#utility.yul\":16764:16768   */\n      dup2\n        /* \"#utility.yul\":16755:16761   */\n      dup5\n        /* \"#utility.yul\":16691:16769   */\n      tag_107\n      jump\t// in\n    tag_325:\n        /* \"#utility.yul\":16683:16769   */\n      swap1\n      pop\n        /* \"#utility.yul\":16463:16776   */\n      swap3\n      swap2\n      pop\n      pop\n      jump\t// out\n        /* \"#utility.yul\":16782:16946   */\n    tag_148:\n        /* \"#utility.yul\":16922:16938   */\n      0x4e6f742072656769737465726564000000000000000000000000000000000000\n        /* \"#utility.yul\":16918:16919   */\n      0x00\n        /* \"#utility.yul\":16910:16916   */\n      dup3\n        /* \"#utility.yul\":16906:16920   */\n      add\n        /* \"#utility.yul\":16899:16939   */\n      mstore\n        /* \"#utility.yul\":16782:16946   */\n      pop\n      jump\t// out\n        /* \"#utility.yul\":16952:17318   */\n    tag_149:\n        /* \"#utility.yul\":17094:17097   */\n      0x00\n        /* \"#utility.yul\":17115:17182   */\n      tag_328\n        /* \"#utility.yul\":17179:17181   */\n      0x0e\n        /* \"#utility.yul\":17174:17177   */\n      dup4\n        /* \"#utility.yul\":17115:17182   */\n      tag_104\n      jump\t// in\n    tag_328:\n        /* \"#utility.yul\":17108:17182   */\n      swap2\n      pop\n        /* \"#utility.yul\":17191:17284   */\n      tag_329\n        /* \"#utility.yul\":17280:17283   */\n      dup3\n        /* \"#utility.yul\":17191:17284   */\n      tag_148\n      jump\t// in\n    tag_329:\n        /* \"#utility.yul\":17309:17311   */\n      0x20\n        /* \"#utility.yul\":17304:17307   */\n      dup3\n        /* \"#utility.yul\":17300:17312   */\n      add\n        /* \"#utility.yul\":17293:17312   */\n      swap1\n      pop\n        /* \"#utility.yul\":16952:17318   */\n      swap2\n      swap1\n      pop\n      jump\t// out\n        /* \"#utility.yul\":17324:17743   */\n    tag_70:\n        /* \"#utility.yul\":17490:17494   */\n      0x00\n        /* \"#utility.yul\":17528:17530   */\n      0x20\n        /* \"#utility.yul\":17517:17526   */\n      dup3\n        /* \"#utility.yul\":17513:17531   */\n      add\n        /* \"#utility.yul\":17505:17531   */\n      swap1\n      pop\n        /* \"#utility.yul\":17577:17586   */\n      dup2\n        /* \"#utility.yul\":17571:17575   */\n      dup2\n        /* \"#utility.yul\":17567:17587   */\n      sub\n        /* \"#utility.yul\":17563:17564   */\n      0x00\n        /* \"#utility.yul\":17552:17561   */\n      dup4\n        /* \"#utility.yul\":17548:17565   */\n      add\n        /* \"#utility.yul\":17541:17588   */\n      mstore\n        /* \"#utility.yul\":17605:17736   */\n      tag_331\n        /* \"#utility.yul\":17731:17735   */\n      dup2\n        /* \"#utility.yul\":17605:17736   */\n      tag_149\n      jump\t// in\n    tag_331:\n        /* \"#utility.yul\":17597:17736   */\n      swap1\n      pop\n        /* \"#utility.yul\":17324:17743   */\n      swap2\n      swap1\n      pop\n      jump\t// out\n        /* \"#utility.yul\":17749:17867   */\n    tag_150:\n        /* \"#utility.yul\":17836:17860   */\n      tag_333\n        /* \"#utility.yul\":17854:17859   */\n      dup2\n        /* \"#utility.yul\":17836:17860   */\n      tag_122\n      jump\t// in\n    tag_333:\n        /* \"#utility.yul\":17831:17834   */\n      dup3\n        /* \"#utility.yul\":17824:17861   */\n      mstore\n        /* \"#utility.yul\":17749:17867   */\n      pop\n      pop\n      jump\t// out\n        /* \"#utility.yul\":17873:18095   */\n    tag_74:\n        /* \"#utility.yul\":17966:17970   */\n      0x00\n        /* \"#utility.yul\":18004:18006   */\n      0x20\n        /* \"#utility.yul\":17993:18002   */\n      dup3\n        /* \"#utility.yul\":17989:18007   */\n      add\n        /* \"#utility.yul\":17981:18007   */\n      swap1\n      pop\n        /* \"#utility.yul\":18017:18088   */\n      tag_335\n        /* \"#utility.yul\":18085:18086   */\n      0x00\n        /* \"#utility.yul\":18074:18083   */\n      dup4\n        /* \"#utility.yul\":18070:18087   */\n      add\n        /* \"#utility.yul\":18061:18067   */\n      dup5\n        /* \"#utility.yul\":18017:18088   */\n      tag_150\n      jump\t// in\n    tag_335:\n        /* \"#utility.yul\":17873:18095   */\n      swap3\n      swap2\n      pop\n      pop\n      jump\t// out\n\n    auxdata: 0xa2646970667358221220485ebac6c9a2c38695b212e34488f002bb399a89ffd174ea429c09eae9b45ec064736f6c634300081e0033\n}\n",
				"bytecode": {
					"linkReferences": {},
					"object": "6080604052348015600e575f5ffd5b506112a48061001c5f395ff3fe608060405234801561000f575f5ffd5b5060043610610055575f3560e01c80630869cfbc146100595780634ba0a0201461008d578063c1816dfb146100a9578063c58b709d146100d9578063efe2ccc1146100f5575b5f5ffd5b610073600480360381019061006e91906109cb565b610128565b604051610084959493929190610a80565b60405180910390f35b6100a760048036038101906100a29190610c19565b61037d565b005b6100c360048036038101906100be91906109cb565b610500565b6040516100d09190610dad565b60405180910390f35b6100f360048036038101906100ee9190610df7565b610595565b005b61010f600480360381019061010a91906109cb565b6106d4565b60405161011f9493929190610e22565b60405180910390f35b5f602052805f5260405f205f91509050805f01805461014690610eae565b80601f016020809104026020016040519081016040528092919081815260200182805461017290610eae565b80156101bd5780601f10610194576101008083540402835291602001916101bd565b820191905f5260205f20905b8154815290600101906020018083116101a057829003601f168201915b5050505050908060010180546101d290610eae565b80601f01602080910402602001604051908101604052809291908181526020018280546101fe90610eae565b80156102495780601f1061022057610100808354040283529160200191610249565b820191905f5260205f20905b81548152906001019060200180831161022c57829003601f168201915b50505050509080600201805461025e90610eae565b80601f016020809104026020016040519081016040528092919081815260200182805461028a90610eae565b80156102d55780601f106102ac576101008083540402835291602001916102d5565b820191905f5260205f20905b8154815290600101906020018083116102b857829003601f168201915b5050505050908060030180546102ea90610eae565b80601f016020809104026020016040519081016040528092919081815260200182805461031690610eae565b80156103615780601f1061033857610100808354040283529160200191610361565b820191905f5260205f20905b81548152906001019060200180831161034457829003601f168201915b505050505090806004015f9054906101000a900460ff16905085565b5f5f3373ffffffffffffffffffffffffffffffffffffffff1673ffffffffffffffffffffffffffffffffffffffff1681526020019081526020015f206004015f9054906101000a900460ff1615610409576040517f08c379a000000000000000000000000000000000000000000000000000000000815260040161040090610f28565b60405180910390fd5b5f5f5f3373ffffffffffffffffffffffffffffffffffffffff1673ffffffffffffffffffffffffffffffffffffffff1681526020019081526020015f20905084815f01908161045891906110ef565b508381600101908161046a91906110ef565b508281600201908161047c91906110ef565b508181600301908161048e91906110ef565b506001816004015f6101000a81548160ff0219169083151502179055503373ffffffffffffffffffffffffffffffffffffffff167fc85b128388b9c331a2a5485dce4cd0f3db9f7c279d327ce95d6d39d6c94644c7866040516104f191906111be565b60405180910390a25050505050565b60605f5f8373ffffffffffffffffffffffffffffffffffffffff1673ffffffffffffffffffffffffffffffffffffffff1681526020019081526020015f2060050180548060200260200160405190810160405280929190818152602001828054801561058957602002820191905f5260205f20905b815481526020019060010190808311610575575b50505050509050919050565b5f5f3373ffffffffffffffffffffffffffffffffffffffff1673ffffffffffffffffffffffffffffffffffffffff1681526020019081526020015f206004015f9054906101000a900460ff16610620576040517f08c379a000000000000000000000000000000000000000000000000000000000815260040161061790611228565b60405180910390fd5b5f5f3373ffffffffffffffffffffffffffffffffffffffff1673ffffffffffffffffffffffffffffffffffffffff1681526020019081526020015f2060050181908060018154018082558091505060019003905f5260205f20015f90919091909150553373ffffffffffffffffffffffffffffffffffffffff167f355df66fa0233301fa2864fd7138ea1c3dbc10df6710e4e280e09b17d369902c826040516106c99190611255565b60405180910390a250565b6060806060805f5f5f8773ffffffffffffffffffffffffffffffffffffffff1673ffffffffffffffffffffffffffffffffffffffff1681526020019081526020015f209050805f0181600101826002018360030183805461073490610eae565b80601f016020809104026020016040519081016040528092919081815260200182805461076090610eae565b80156107ab5780601f10610782576101008083540402835291602001916107ab565b820191905f5260205f20905b81548152906001019060200180831161078e57829003601f168201915b505050505093508280546107be90610eae565b80601f01602080910402602001604051908101604052809291908181526020018280546107ea90610eae565b80156108355780601f1061080c57610100808354040283529160200191610835565b820191905f5260205f20905b81548152906001019060200180831161081857829003601f168201915b5050505050925081805461084890610eae565b80601f016020809104026020016040519081016040528092919081815260200182805461087490610eae565b80156108bf5780601f10610896576101008083540402835291602001916108bf565b820191905f5260205f20905b8154815290600101906020018083116108a257829003601f168201915b505050505091508080546108d290610eae565b80601f01602080910402602001604051908101604052809291908181526020018280546108fe90610eae565b80156109495780601f1061092057610100808354040283529160200191610949565b820191905f5260205f20905b81548152906001019060200180831161092c57829003601f168201915b505050505090509450945094509450509193509193565b5f604051905090565b5f5ffd5b5f5ffd5b5f73ffffffffffffffffffffffffffffffffffffffff82169050919050565b5f61099a82610971565b9050919050565b6109aa81610990565b81146109b4575f5ffd5b50565b5f813590506109c5816109a1565b92915050565b5f602082840312156109e0576109df610969565b5b5f6109ed848285016109b7565b91505092915050565b5f81519050919050565b5f82825260208201905092915050565b8281835e5f83830152505050565b5f601f19601f8301169050919050565b5f610a38826109f6565b610a428185610a00565b9350610a52818560208601610a10565b610a5b81610a1e565b840191505092915050565b5f8115159050919050565b610a7a81610a66565b82525050565b5f60a0820190508181035f830152610a988188610a2e565b90508181036020830152610aac8187610a2e565b90508181036040830152610ac08186610a2e565b90508181036060830152610ad48185610a2e565b9050610ae36080830184610a71565b9695505050505050565b5f5ffd5b5f5ffd5b7f4e487b71000000000000000000000000000000000000000000000000000000005f52604160045260245ffd5b610b2b82610a1e565b810181811067ffffffffffffffff82111715610b4a57610b49610af5565b5b80604052505050565b5f610b5c610960565b9050610b688282610b22565b919050565b5f67ffffffffffffffff821115610b8757610b86610af5565b5b610b9082610a1e565b9050602081019050919050565b828183375f83830152505050565b5f610bbd610bb884610b6d565b610b53565b905082815260208101848484011115610bd957610bd8610af1565b5b610be4848285610b9d565b509392505050565b5f82601f830112610c0057610bff610aed565b5b8135610c10848260208601610bab565b91505092915050565b5f5f5f5f60808587031215610c3157610c30610969565b5b5f85013567ffffffffffffffff811115610c4e57610c4d61096d565b5b610c5a87828801610bec565b945050602085013567ffffffffffffffff811115610c7b57610c7a61096d565b5b610c8787828801610bec565b935050604085013567ffffffffffffffff811115610ca857610ca761096d565b5b610cb487828801610bec565b925050606085013567ffffffffffffffff811115610cd557610cd461096d565b5b610ce187828801610bec565b91505092959194509250565b5f81519050919050565b5f82825260208201905092915050565b5f819050602082019050919050565b5f819050919050565b610d2881610d16565b82525050565b5f610d398383610d1f565b60208301905092915050565b5f602082019050919050565b5f610d5b82610ced565b610d658185610cf7565b9350610d7083610d07565b805f5b83811015610da0578151610d878882610d2e565b9750610d9283610d45565b925050600181019050610d73565b5085935050505092915050565b5f6020820190508181035f830152610dc58184610d51565b905092915050565b610dd681610d16565b8114610de0575f5ffd5b50565b5f81359050610df181610dcd565b92915050565b5f60208284031215610e0c57610e0b610969565b5b5f610e1984828501610de3565b91505092915050565b5f6080820190508181035f830152610e3a8187610a2e565b90508181036020830152610e4e8186610a2e565b90508181036040830152610e628185610a2e565b90508181036060830152610e768184610a2e565b905095945050505050565b7f4e487b71000000000000000000000000000000000000000000000000000000005f52602260045260245ffd5b5f6002820490506001821680610ec557607f821691505b602082108103610ed857610ed7610e81565b5b50919050565b7f416c7265616479207265676973746572656400000000000000000000000000005f82015250565b5f610f12601283610a00565b9150610f1d82610ede565b602082019050919050565b5f6020820190508181035f830152610f3f81610f06565b9050919050565b5f819050815f5260205f209050919050565b5f6020601f8301049050919050565b5f82821b905092915050565b5f60088302610fa27fffffffffffffffffffffffffffffffffffffffffffffffffffffffffffffffff82610f67565b610fac8683610f67565b95508019841693508086168417925050509392505050565b5f819050919050565b5f819050919050565b5f610ff0610feb610fe684610fc4565b610fcd565b610fc4565b9050919050565b5f819050919050565b61100983610fd6565b61101d61101582610ff7565b848454610f73565b825550505050565b5f5f905090565b611034611025565b61103f818484611000565b505050565b5b81811015611062576110575f8261102c565b600181019050611045565b5050565b601f8211156110a75761107881610f46565b61108184610f58565b81016020851015611090578190505b6110a461109c85610f58565b830182611044565b50505b505050565b5f82821c905092915050565b5f6110c75f19846008026110ac565b1980831691505092915050565b5f6110df83836110b8565b9150826002028217905092915050565b6110f8826109f6565b67ffffffffffffffff81111561111157611110610af5565b5b61111b8254610eae565b611126828285611066565b5f60209050601f831160018114611157575f8415611145578287015190505b61114f85826110d4565b8655506111b6565b601f19841661116586610f46565b5f5b8281101561118c57848901518255600182019150602085019450602081019050611167565b868310156111a957848901516111a5601f8916826110b8565b8355505b6001600288020188555050505b505050505050565b5f6020820190508181035f8301526111d68184610a2e565b905092915050565b7f4e6f7420726567697374657265640000000000000000000000000000000000005f82015250565b5f611212600e83610a00565b915061121d826111de565b602082019050919050565b5f6020820190508181035f83015261123f81611206565b9050919050565b61124f81610d16565b82525050565b5f6020820190506112685f830184611246565b9291505056fea2646970667358221220485ebac6c9a2c38695b212e34488f002bb399a89ffd174ea429c09eae9b45ec064736f6c634300081e0033",
					"opcodes": "PUSH1 0x80 PUSH1 0x40 MSTORE CALLVALUE DUP1 ISZERO PUSH1 0xE JUMPI PUSH0 PUSH0 REVERT JUMPDEST POP PUSH2 0x12A4 DUP1 PUSH2 0x1C PUSH0 CODECOPY PUSH0 RETURN INVALID PUSH1 0x80 PUSH1 0x40 MSTORE CALLVALUE DUP1 ISZERO PUSH2 0xF JUMPI PUSH0 PUSH0 REVERT JUMPDEST POP PUSH1 0x4 CALLDATASIZE LT PUSH2 0x55 JUMPI PUSH0 CALLDATALOAD PUSH1 0xE0 SHR DUP1 PUSH4 0x869CFBC EQ PUSH2 0x59 JUMPI DUP1 PUSH4 0x4BA0A020 EQ PUSH2 0x8D JUMPI DUP1 PUSH4 0xC1816DFB EQ PUSH2 0xA9 JUMPI DUP1 PUSH4 0xC58B709D EQ PUSH2 0xD9 JUMPI DUP1 PUSH4 0xEFE2CCC1 EQ PUSH2 0xF5 JUMPI JUMPDEST PUSH0 PUSH0 REVERT JUMPDEST PUSH2 0x73 PUSH1 0x4 DUP1 CALLDATASIZE SUB DUP2 ADD SWAP1 PUSH2 0x6E SWAP2 SWAP1 PUSH2 0x9CB JUMP JUMPDEST PUSH2 0x128 JUMP JUMPDEST PUSH1 0x40 MLOAD PUSH2 0x84 SWAP6 SWAP5 SWAP4 SWAP3 SWAP2 SWAP1 PUSH2 0xA80 JUMP JUMPDEST PUSH1 0x40 MLOAD DUP1 SWAP2 SUB SWAP1 RETURN JUMPDEST PUSH2 0xA7 PUSH1 0x4 DUP1 CALLDATASIZE SUB DUP2 ADD SWAP1 PUSH2 0xA2 SWAP2 SWAP1 PUSH2 0xC19 JUMP JUMPDEST PUSH2 0x37D JUMP JUMPDEST STOP JUMPDEST PUSH2 0xC3 PUSH1 0x4 DUP1 CALLDATASIZE SUB DUP2 ADD SWAP1 PUSH2 0xBE SWAP2 SWAP1 PUSH2 0x9CB JUMP JUMPDEST PUSH2 0x500 JUMP JUMPDEST PUSH1 0x40 MLOAD PUSH2 0xD0 SWAP2 SWAP1 PUSH2 0xDAD JUMP JUMPDEST PUSH1 0x40 MLOAD DUP1 SWAP2 SUB SWAP1 RETURN JUMPDEST PUSH2 0xF3 PUSH1 0x4 DUP1 CALLDATASIZE SUB DUP2 ADD SWAP1 PUSH2 0xEE SWAP2 SWAP1 PUSH2 0xDF7 JUMP JUMPDEST PUSH2 0x595 JUMP JUMPDEST STOP JUMPDEST PUSH2 0x10F PUSH1 0x4 DUP1 CALLDATASIZE SUB DUP2 ADD SWAP1 PUSH2 0x10A SWAP2 SWAP1 PUSH2 0x9CB JUMP JUMPDEST PUSH2 0x6D4 JUMP JUMPDEST PUSH1 0x40 MLOAD PUSH2 0x11F SWAP5 SWAP4 SWAP3 SWAP2 SWAP1 PUSH2 0xE22 JUMP JUMPDEST PUSH1 0x40 MLOAD DUP1 SWAP2 SUB SWAP1 RETURN JUMPDEST PUSH0 PUSH1 0x20 MSTORE DUP1 PUSH0 MSTORE PUSH1 0x40 PUSH0 KECCAK256 PUSH0 SWAP2 POP SWAP1 POP DUP1 PUSH0 ADD DUP1 SLOAD PUSH2 0x146 SWAP1 PUSH2 0xEAE JUMP JUMPDEST DUP1 PUSH1 0x1F ADD PUSH1 0x20 DUP1 SWAP2 DIV MUL PUSH1 0x20 ADD PUSH1 0x40 MLOAD SWAP1 DUP2 ADD PUSH1 0x40 MSTORE DUP1 SWAP3 SWAP2 SWAP1 DUP2 DUP2 MSTORE PUSH1 0x20 ADD DUP3 DUP1 SLOAD PUSH2 0x172 SWAP1 PUSH2 0xEAE JUMP JUMPDEST DUP1 ISZERO PUSH2 0x1BD JUMPI DUP1 PUSH1 0x1F LT PUSH2 0x194 JUMPI PUSH2 0x100 DUP1 DUP4 SLOAD DIV MUL DUP4 MSTORE SWAP2 PUSH1 0x20 ADD SWAP2 PUSH2 0x1BD JUMP JUMPDEST DUP3 ADD SWAP2 SWAP1 PUSH0 MSTORE PUSH1 0x20 PUSH0 KECCAK256 SWAP1 JUMPDEST DUP2 SLOAD DUP2 MSTORE SWAP1 PUSH1 0x1 ADD SWAP1 PUSH1 0x20 ADD DUP1 DUP4 GT PUSH2 0x1A0 JUMPI DUP3 SWAP1 SUB PUSH1 0x1F AND DUP3 ADD SWAP2 JUMPDEST POP POP POP POP POP SWAP1 DUP1 PUSH1 0x1 ADD DUP1 SLOAD PUSH2 0x1D2 SWAP1 PUSH2 0xEAE JUMP JUMPDEST DUP1 PUSH1 0x1F ADD PUSH1 0x20 DUP1 SWAP2 DIV MUL PUSH1 0x20 ADD PUSH1 0x40 MLOAD SWAP1 DUP2 ADD PUSH1 0x40 MSTORE DUP1 SWAP3 SWAP2 SWAP1 DUP2 DUP2 MSTORE PUSH1 0x20 ADD DUP3 DUP1 SLOAD PUSH2 0x1FE SWAP1 PUSH2 0xEAE JUMP JUMPDEST DUP1 ISZERO PUSH2 0x249 JUMPI DUP1 PUSH1 0x1F LT PUSH2 0x220 JUMPI PUSH2 0x100 DUP1 DUP4 SLOAD DIV MUL DUP4 MSTORE SWAP2 PUSH1 0x20 ADD SWAP2 PUSH2 0x249 JUMP JUMPDEST DUP3 ADD SWAP2 SWAP1 PUSH0 MSTORE PUSH1 0x20 PUSH0 KECCAK256 SWAP1 JUMPDEST DUP2 SLOAD DUP2 MSTORE SWAP1 PUSH1 0x1 ADD SWAP1 PUSH1 0x20 ADD DUP1 DUP4 GT PUSH2 0x22C JUMPI DUP3 SWAP1 SUB PUSH1 0x1F AND DUP3 ADD SWAP2 JUMPDEST POP POP POP POP POP SWAP1 DUP1 PUSH1 0x2 ADD DUP1 SLOAD PUSH2 0x25E SWAP1 PUSH2 0xEAE JUMP JUMPDEST DUP1 PUSH1 0x1F ADD PUSH1 0x20 DUP1 SWAP2 DIV MUL PUSH1 0x20 ADD PUSH1 0x40 MLOAD SWAP1 DUP2 ADD PUSH1 0x40 MSTORE DUP1 SWAP3 SWAP2 SWAP1 DUP2 DUP2 MSTORE PUSH1 0x20 ADD DUP3 DUP1 SLOAD PUSH2 0x28A SWAP1 PUSH2 0xEAE JUMP JUMPDEST DUP1 ISZERO PUSH2 0x2D5 JUMPI DUP1 PUSH1 0x1F LT PUSH2 0x2AC JUMPI PUSH2 0x100 DUP1 DUP4 SLOAD DIV MUL DUP4 MSTORE SWAP2 PUSH1 0x20 ADD SWAP2 PUSH2 0x2D5 JUMP JUMPDEST DUP3 ADD SWAP2 SWAP1 PUSH0 MSTORE PUSH1 0x20 PUSH0 KECCAK256 SWAP1 JUMPDEST DUP2 SLOAD DUP2 MSTORE SWAP1 PUSH1 0x1 ADD SWAP1 PUSH1 0x20 ADD DUP1 DUP4 GT PUSH2 0x2B8 JUMPI DUP3 SWAP1 SUB PUSH1 0x1F AND DUP3 ADD SWAP2 JUMPDEST POP POP POP POP POP SWAP1 DUP1 PUSH1 0x3 ADD DUP1 SLOAD PUSH2 0x2EA SWAP1 PUSH2 0xEAE JUMP JUMPDEST DUP1 PUSH1 0x1F ADD PUSH1 0x20 DUP1 SWAP2 DIV MUL PUSH1 0x20 ADD PUSH1 0x40 MLOAD SWAP1 DUP2 ADD PUSH1 0x40 MSTORE DUP1 SWAP3 SWAP2 SWAP1 DUP2 DUP2 MSTORE PUSH1 0x20 ADD DUP3 DUP1 SLOAD PUSH2 0x316 SWAP1 PUSH2 0xEAE JUMP JUMPDEST DUP1 ISZERO PUSH2 0x361 JUMPI DUP1 PUSH1 0x1F LT PUSH2 0x338 JUMPI PUSH2 0x100 DUP1 DUP4 SLOAD DIV MUL DUP4 MSTORE SWAP2 PUSH1 0x20 ADD SWAP2 PUSH2 0x361 JUMP JUMPDEST DUP3 ADD SWAP2 SWAP1 PUSH0 MSTORE PUSH1 0x20 PUSH0 KECCAK256 SWAP1 JUMPDEST DUP2 SLOAD DUP2 MSTORE SWAP1 PUSH1 0x1 ADD SWAP1 PUSH1 0x20 ADD DUP1 DUP4 GT PUSH2 0x344 JUMPI DUP3 SWAP1 SUB PUSH1 0x1F AND DUP3 ADD SWAP2 JUMPDEST POP POP POP POP POP SWAP1 DUP1 PUSH1 0x4 ADD PUSH0 SWAP1 SLOAD SWAP1 PUSH2 0x100 EXP SWAP1 DIV PUSH1 0xFF AND SWAP1 POP DUP6 JUMP JUMPDEST PUSH0 PUSH0 CALLER PUSH20 0xFFFFFFFFFFFFFFFFFFFFFFFFFFFFFFFFFFFFFFFF AND PUSH20 0xFFFFFFFFFFFFFFFFFFFFFFFFFFFFFFFFFFFFFFFF AND DUP2 MSTORE PUSH1 0x20 ADD SWAP1 DUP2 MSTORE PUSH1 0x20 ADD PUSH0 KECCAK256 PUSH1 0x4 ADD PUSH0 SWAP1 SLOAD SWAP1 PUSH2 0x100 EXP SWAP1 DIV PUSH1 0xFF AND ISZERO PUSH2 0x409 JUMPI PUSH1 0x40 MLOAD PUSH32 0x8C379A000000000000000000000000000000000000000000000000000000000 DUP2 MSTORE PUSH1 0x4 ADD PUSH2 0x400 SWAP1 PUSH2 0xF28 JUMP JUMPDEST PUSH1 0x40 MLOAD DUP1 SWAP2 SUB SWAP1 REVERT JUMPDEST PUSH0 PUSH0 PUSH0 CALLER PUSH20 0xFFFFFFFFFFFFFFFFFFFFFFFFFFFFFFFFFFFFFFFF AND PUSH20 0xFFFFFFFFFFFFFFFFFFFFFFFFFFFFFFFFFFFFFFFF AND DUP2 MSTORE PUSH1 0x20 ADD SWAP1 DUP2 MSTORE PUSH1 0x20 ADD PUSH0 KECCAK256 SWAP1 POP DUP5 DUP2 PUSH0 ADD SWAP1 DUP2 PUSH2 0x458 SWAP2 SWAP1 PUSH2 0x10EF JUMP JUMPDEST POP DUP4 DUP2 PUSH1 0x1 ADD SWAP1 DUP2 PUSH2 0x46A SWAP2 SWAP1 PUSH2 0x10EF JUMP JUMPDEST POP DUP3 DUP2 PUSH1 0x2 ADD SWAP1 DUP2 PUSH2 0x47C SWAP2 SWAP1 PUSH2 0x10EF JUMP JUMPDEST POP DUP2 DUP2 PUSH1 0x3 ADD SWAP1 DUP2 PUSH2 0x48E SWAP2 SWAP1 PUSH2 0x10EF JUMP JUMPDEST POP PUSH1 0x1 DUP2 PUSH1 0x4 ADD PUSH0 PUSH2 0x100 EXP DUP2 SLOAD DUP2 PUSH1 0xFF MUL NOT AND SWAP1 DUP4 ISZERO ISZERO MUL OR SWAP1 SSTORE POP CALLER PUSH20 0xFFFFFFFFFFFFFFFFFFFFFFFFFFFFFFFFFFFFFFFF AND PUSH32 0xC85B128388B9C331A2A5485DCE4CD0F3DB9F7C279D327CE95D6D39D6C94644C7 DUP7 PUSH1 0x40 MLOAD PUSH2 0x4F1 SWAP2 SWAP1 PUSH2 0x11BE JUMP JUMPDEST PUSH1 0x40 MLOAD DUP1 SWAP2 SUB SWAP1 LOG2 POP POP POP POP POP JUMP JUMPDEST PUSH1 0x60 PUSH0 PUSH0 DUP4 PUSH20 0xFFFFFFFFFFFFFFFFFFFFFFFFFFFFFFFFFFFFFFFF AND PUSH20 0xFFFFFFFFFFFFFFFFFFFFFFFFFFFFFFFFFFFFFFFF AND DUP2 MSTORE PUSH1 0x20 ADD SWAP1 DUP2 MSTORE PUSH1 0x20 ADD PUSH0 KECCAK256 PUSH1 0x5 ADD DUP1 SLOAD DUP1 PUSH1 0x20 MUL PUSH1 0x20 ADD PUSH1 0x40 MLOAD SWAP1 DUP2 ADD PUSH1 0x40 MSTORE DUP1 SWAP3 SWAP2 SWAP1 DUP2 DUP2 MSTORE PUSH1 0x20 ADD DUP3 DUP1 SLOAD DUP1 ISZERO PUSH2 0x589 JUMPI PUSH1 0x20 MUL DUP3 ADD SWAP2 SWAP1 PUSH0 MSTORE PUSH1 0x20 PUSH0 KECCAK256 SWAP1 JUMPDEST DUP2 SLOAD DUP2 MSTORE PUSH1 0x20 ADD SWAP1 PUSH1 0x1 ADD SWAP1 DUP1 DUP4 GT PUSH2 0x575 JUMPI JUMPDEST POP POP POP POP POP SWAP1 POP SWAP2 SWAP1 POP JUMP JUMPDEST PUSH0 PUSH0 CALLER PUSH20 0xFFFFFFFFFFFFFFFFFFFFFFFFFFFFFFFFFFFFFFFF AND PUSH20 0xFFFFFFFFFFFFFFFFFFFFFFFFFFFFFFFFFFFFFFFF AND DUP2 MSTORE PUSH1 0x20 ADD SWAP1 DUP2 MSTORE PUSH1 0x20 ADD PUSH0 KECCAK256 PUSH1 0x4 ADD PUSH0 SWAP1 SLOAD SWAP1 PUSH2 0x100 EXP SWAP1 DIV PUSH1 0xFF AND PUSH2 0x620 JUMPI PUSH1 0x40 MLOAD PUSH32 0x8C379A000000000000000000000000000000000000000000000000000000000 DUP2 MSTORE PUSH1 0x4 ADD PUSH2 0x617 SWAP1 PUSH2 0x1228 JUMP JUMPDEST PUSH1 0x40 MLOAD DUP1 SWAP2 SUB SWAP1 REVERT JUMPDEST PUSH0 PUSH0 CALLER PUSH20 0xFFFFFFFFFFFFFFFFFFFFFFFFFFFFFFFFFFFFFFFF AND PUSH20 0xFFFFFFFFFFFFFFFFFFFFFFFFFFFFFFFFFFFFFFFF AND DUP2 MSTORE PUSH1 0x20 ADD SWAP1 DUP2 MSTORE PUSH1 0x20 ADD PUSH0 KECCAK256 PUSH1 0x5 ADD DUP2 SWAP1 DUP1 PUSH1 0x1 DUP2 SLOAD ADD DUP1 DUP3 SSTORE DUP1 SWAP2 POP POP PUSH1 0x1 SWAP1 SUB SWAP1 PUSH0 MSTORE PUSH1 0x20 PUSH0 KECCAK256 ADD PUSH0 SWAP1 SWAP2 SWAP1 SWAP2 SWAP1 SWAP2 POP SSTORE CALLER PUSH20 0xFFFFFFFFFFFFFFFFFFFFFFFFFFFFFFFFFFFFFFFF AND PUSH32 0x355DF66FA0233301FA2864FD7138EA1C3DBC10DF6710E4E280E09B17D369902C DUP3 PUSH1 0x40 MLOAD PUSH2 0x6C9 SWAP2 SWAP1 PUSH2 0x1255 JUMP JUMPDEST PUSH1 0x40 MLOAD DUP1 SWAP2 SUB SWAP1 LOG2 POP JUMP JUMPDEST PUSH1 0x60 DUP1 PUSH1 0x60 DUP1 PUSH0 PUSH0 PUSH0 DUP8 PUSH20 0xFFFFFFFFFFFFFFFFFFFFFFFFFFFFFFFFFFFFFFFF AND PUSH20 0xFFFFFFFFFFFFFFFFFFFFFFFFFFFFFFFFFFFFFFFF AND DUP2 MSTORE PUSH1 0x20 ADD SWAP1 DUP2 MSTORE PUSH1 0x20 ADD PUSH0 KECCAK256 SWAP1 POP DUP1 PUSH0 ADD DUP2 PUSH1 0x1 ADD DUP3 PUSH1 0x2 ADD DUP4 PUSH1 0x3 ADD DUP4 DUP1 SLOAD PUSH2 0x734 SWAP1 PUSH2 0xEAE JUMP JUMPDEST DUP1 PUSH1 0x1F ADD PUSH1 0x20 DUP1 SWAP2 DIV MUL PUSH1 0x20 ADD PUSH1 0x40 MLOAD SWAP1 DUP2 ADD PUSH1 0x40 MSTORE DUP1 SWAP3 SWAP2 SWAP1 DUP2 DUP2 MSTORE PUSH1 0x20 ADD DUP3 DUP1 SLOAD PUSH2 0x760 SWAP1 PUSH2 0xEAE JUMP JUMPDEST DUP1 ISZERO PUSH2 0x7AB JUMPI DUP1 PUSH1 0x1F LT PUSH2 0x782 JUMPI PUSH2 0x100 DUP1 DUP4 SLOAD DIV MUL DUP4 MSTORE SWAP2 PUSH1 0x20 ADD SWAP2 PUSH2 0x7AB JUMP JUMPDEST DUP3 ADD SWAP2 SWAP1 PUSH0 MSTORE PUSH1 0x20 PUSH0 KECCAK256 SWAP1 JUMPDEST DUP2 SLOAD DUP2 MSTORE SWAP1 PUSH1 0x1 ADD SWAP1 PUSH1 0x20 ADD DUP1 DUP4 GT PUSH2 0x78E JUMPI DUP3 SWAP1 SUB PUSH1 0x1F AND DUP3 ADD SWAP2 JUMPDEST POP POP POP POP POP SWAP4 POP DUP3 DUP1 SLOAD PUSH2 0x7BE SWAP1 PUSH2 0xEAE JUMP JUMPDEST DUP1 PUSH1 0x1F ADD PUSH1 0x20 DUP1 SWAP2 DIV MUL PUSH1 0x20 ADD PUSH1 0x40 MLOAD SWAP1 DUP2 ADD PUSH1 0x40 MSTORE DUP1 SWAP3 SWAP2 SWAP1 DUP2 DUP2 MSTORE PUSH1 0x20 ADD DUP3 DUP1 SLOAD PUSH2 0x7EA SWAP1 PUSH2 0xEAE JUMP JUMPDEST DUP1 ISZERO PUSH2 0x835 JUMPI DUP1 PUSH1 0x1F LT PUSH2 0x80C JUMPI PUSH2 0x100 DUP1 DUP4 SLOAD DIV MUL DUP4 MSTORE SWAP2 PUSH1 0x20 ADD SWAP2 PUSH2 0x835 JUMP JUMPDEST DUP3 ADD SWAP2 SWAP1 PUSH0 MSTORE PUSH1 0x20 PUSH0 KECCAK256 SWAP1 JUMPDEST DUP2 SLOAD DUP2 MSTORE SWAP1 PUSH1 0x1 ADD SWAP1 PUSH1 0x20 ADD DUP1 DUP4 GT PUSH2 0x818 JUMPI DUP3 SWAP1 SUB PUSH1 0x1F AND DUP3 ADD SWAP2 JUMPDEST POP POP POP POP POP SWAP3 POP DUP2 DUP1 SLOAD PUSH2 0x848 SWAP1 PUSH2 0xEAE JUMP JUMPDEST DUP1 PUSH1 0x1F ADD PUSH1 0x20 DUP1 SWAP2 DIV MUL PUSH1 0x20 ADD PUSH1 0x40 MLOAD SWAP1 DUP2 ADD PUSH1 0x40 MSTORE DUP1 SWAP3 SWAP2 SWAP1 DUP2 DUP2 MSTORE PUSH1 0x20 ADD DUP3 DUP1 SLOAD PUSH2 0x874 SWAP1 PUSH2 0xEAE JUMP JUMPDEST DUP1 ISZERO PUSH2 0x8BF JUMPI DUP1 PUSH1 0x1F LT PUSH2 0x896 JUMPI PUSH2 0x100 DUP1 DUP4 SLOAD DIV MUL DUP4 MSTORE SWAP2 PUSH1 0x20 ADD SWAP2 PUSH2 0x8BF JUMP JUMPDEST DUP3 ADD SWAP2 SWAP1 PUSH0 MSTORE PUSH1 0x20 PUSH0 KECCAK256 SWAP1 JUMPDEST DUP2 SLOAD DUP2 MSTORE SWAP1 PUSH1 0x1 ADD SWAP1 PUSH1 0x20 ADD DUP1 DUP4 GT PUSH2 0x8A2 JUMPI DUP3 SWAP1 SUB PUSH1 0x1F AND DUP3 ADD SWAP2 JUMPDEST POP POP POP POP POP SWAP2 POP DUP1 DUP1 SLOAD PUSH2 0x8D2 SWAP1 PUSH2 0xEAE JUMP JUMPDEST DUP1 PUSH1 0x1F ADD PUSH1 0x20 DUP1 SWAP2 DIV MUL PUSH1 0x20 ADD PUSH1 0x40 MLOAD SWAP1 DUP2 ADD PUSH1 0x40 MSTORE DUP1 SWAP3 SWAP2 SWAP1 DUP2 DUP2 MSTORE PUSH1 0x20 ADD DUP3 DUP1 SLOAD PUSH2 0x8FE SWAP1 PUSH2 0xEAE JUMP JUMPDEST DUP1 ISZERO PUSH2 0x949 JUMPI DUP1 PUSH1 0x1F LT PUSH2 0x920 JUMPI PUSH2 0x100 DUP1 DUP4 SLOAD DIV MUL DUP4 MSTORE SWAP2 PUSH1 0x20 ADD SWAP2 PUSH2 0x949 JUMP JUMPDEST DUP3 ADD SWAP2 SWAP1 PUSH0 MSTORE PUSH1 0x20 PUSH0 KECCAK256 SWAP1 JUMPDEST DUP2 SLOAD DUP2 MSTORE SWAP1 PUSH1 0x1 ADD SWAP1 PUSH1 0x20 ADD DUP1 DUP4 GT PUSH2 0x92C JUMPI DUP3 SWAP1 SUB PUSH1 0x1F AND DUP3 ADD SWAP2 JUMPDEST POP POP POP POP POP SWAP1 POP SWAP5 POP SWAP5 POP SWAP5 POP SWAP5 POP POP SWAP2 SWAP4 POP SWAP2 SWAP4 JUMP JUMPDEST PUSH0 PUSH1 0x40 MLOAD SWAP1 POP SWAP1 JUMP JUMPDEST PUSH0 PUSH0 REVERT JUMPDEST PUSH0 PUSH0 REVERT JUMPDEST PUSH0 PUSH20 0xFFFFFFFFFFFFFFFFFFFFFFFFFFFFFFFFFFFFFFFF DUP3 AND SWAP1 POP SWAP2 SWAP1 POP JUMP JUMPDEST PUSH0 PUSH2 0x99A DUP3 PUSH2 0x971 JUMP JUMPDEST SWAP1 POP SWAP2 SWAP1 POP JUMP JUMPDEST PUSH2 0x9AA DUP2 PUSH2 0x990 JUMP JUMPDEST DUP2 EQ PUSH2 0x9B4 JUMPI PUSH0 PUSH0 REVERT JUMPDEST POP JUMP JUMPDEST PUSH0 DUP2 CALLDATALOAD SWAP1 POP PUSH2 0x9C5 DUP2 PUSH2 0x9A1 JUMP JUMPDEST SWAP3 SWAP2 POP POP JUMP JUMPDEST PUSH0 PUSH1 0x20 DUP3 DUP5 SUB SLT ISZERO PUSH2 0x9E0 JUMPI PUSH2 0x9DF PUSH2 0x969 JUMP JUMPDEST JUMPDEST PUSH0 PUSH2 0x9ED DUP5 DUP3 DUP6 ADD PUSH2 0x9B7 JUMP JUMPDEST SWAP2 POP POP SWAP3 SWAP2 POP POP JUMP JUMPDEST PUSH0 DUP2 MLOAD SWAP1 POP SWAP2 SWAP1 POP JUMP JUMPDEST PUSH0 DUP3 DUP3 MSTORE PUSH1 0x20 DUP3 ADD SWAP1 POP SWAP3 SWAP2 POP POP JUMP JUMPDEST DUP3 DUP2 DUP4 MCOPY PUSH0 DUP4 DUP4 ADD MSTORE POP POP POP JUMP JUMPDEST PUSH0 PUSH1 0x1F NOT PUSH1 0x1F DUP4 ADD AND SWAP1 POP SWAP2 SWAP1 POP JUMP JUMPDEST PUSH0 PUSH2 0xA38 DUP3 PUSH2 0x9F6 JUMP JUMPDEST PUSH2 0xA42 DUP2 DUP6 PUSH2 0xA00 JUMP JUMPDEST SWAP4 POP PUSH2 0xA52 DUP2 DUP6 PUSH1 0x20 DUP7 ADD PUSH2 0xA10 JUMP JUMPDEST PUSH2 0xA5B DUP2 PUSH2 0xA1E JUMP JUMPDEST DUP5 ADD SWAP2 POP POP SWAP3 SWAP2 POP POP JUMP JUMPDEST PUSH0 DUP2 ISZERO ISZERO SWAP1 POP SWAP2 SWAP1 POP JUMP JUMPDEST PUSH2 0xA7A DUP2 PUSH2 0xA66 JUMP JUMPDEST DUP3 MSTORE POP POP JUMP JUMPDEST PUSH0 PUSH1 0xA0 DUP3 ADD SWAP1 POP DUP2 DUP2 SUB PUSH0 DUP4 ADD MSTORE PUSH2 0xA98 DUP2 DUP9 PUSH2 0xA2E JUMP JUMPDEST SWAP1 POP DUP2 DUP2 SUB PUSH1 0x20 DUP4 ADD MSTORE PUSH2 0xAAC DUP2 DUP8 PUSH2 0xA2E JUMP JUMPDEST SWAP1 POP DUP2 DUP2 SUB PUSH1 0x40 DUP4 ADD MSTORE PUSH2 0xAC0 DUP2 DUP7 PUSH2 0xA2E JUMP JUMPDEST SWAP1 POP DUP2 DUP2 SUB PUSH1 0x60 DUP4 ADD MSTORE PUSH2 0xAD4 DUP2 DUP6 PUSH2 0xA2E JUMP JUMPDEST SWAP1 POP PUSH2 0xAE3 PUSH1 0x80 DUP4 ADD DUP5 PUSH2 0xA71 JUMP JUMPDEST SWAP7 SWAP6 POP POP POP POP POP POP JUMP JUMPDEST PUSH0 PUSH0 REVERT JUMPDEST PUSH0 PUSH0 REVERT JUMPDEST PUSH32 0x4E487B7100000000000000000000000000000000000000000000000000000000 PUSH0 MSTORE PUSH1 0x41 PUSH1 0x4 MSTORE PUSH1 0x24 PUSH0 REVERT JUMPDEST PUSH2 0xB2B DUP3 PUSH2 0xA1E JUMP JUMPDEST DUP2 ADD DUP2 DUP2 LT PUSH8 0xFFFFFFFFFFFFFFFF DUP3 GT OR ISZERO PUSH2 0xB4A JUMPI PUSH2 0xB49 PUSH2 0xAF5 JUMP JUMPDEST JUMPDEST DUP1 PUSH1 0x40 MSTORE POP POP POP JUMP JUMPDEST PUSH0 PUSH2 0xB5C PUSH2 0x960 JUMP JUMPDEST SWAP1 POP PUSH2 0xB68 DUP3 DUP3 PUSH2 0xB22 JUMP JUMPDEST SWAP2 SWAP1 POP JUMP JUMPDEST PUSH0 PUSH8 0xFFFFFFFFFFFFFFFF DUP3 GT ISZERO PUSH2 0xB87 JUMPI PUSH2 0xB86 PUSH2 0xAF5 JUMP JUMPDEST JUMPDEST PUSH2 0xB90 DUP3 PUSH2 0xA1E JUMP JUMPDEST SWAP1 POP PUSH1 0x20 DUP2 ADD SWAP1 POP SWAP2 SWAP1 POP JUMP JUMPDEST DUP3 DUP2 DUP4 CALLDATACOPY PUSH0 DUP4 DUP4 ADD MSTORE POP POP POP JUMP JUMPDEST PUSH0 PUSH2 0xBBD PUSH2 0xBB8 DUP5 PUSH2 0xB6D JUMP JUMPDEST PUSH2 0xB53 JUMP JUMPDEST SWAP1 POP DUP3 DUP2 MSTORE PUSH1 0x20 DUP2 ADD DUP5 DUP5 DUP5 ADD GT ISZERO PUSH2 0xBD9 JUMPI PUSH2 0xBD8 PUSH2 0xAF1 JUMP JUMPDEST JUMPDEST PUSH2 0xBE4 DUP5 DUP3 DUP6 PUSH2 0xB9D JUMP JUMPDEST POP SWAP4 SWAP3 POP POP POP JUMP JUMPDEST PUSH0 DUP3 PUSH1 0x1F DUP4 ADD SLT PUSH2 0xC00 JUMPI PUSH2 0xBFF PUSH2 0xAED JUMP JUMPDEST JUMPDEST DUP2 CALLDATALOAD PUSH2 0xC10 DUP5 DUP3 PUSH1 0x20 DUP7 ADD PUSH2 0xBAB JUMP JUMPDEST SWAP2 POP POP SWAP3 SWAP2 POP POP JUMP JUMPDEST PUSH0 PUSH0 PUSH0 PUSH0 PUSH1 0x80 DUP6 DUP8 SUB SLT ISZERO PUSH2 0xC31 JUMPI PUSH2 0xC30 PUSH2 0x969 JUMP JUMPDEST JUMPDEST PUSH0 DUP6 ADD CALLDATALOAD PUSH8 0xFFFFFFFFFFFFFFFF DUP2 GT ISZERO PUSH2 0xC4E JUMPI PUSH2 0xC4D PUSH2 0x96D JUMP JUMPDEST JUMPDEST PUSH2 0xC5A DUP8 DUP3 DUP9 ADD PUSH2 0xBEC JUMP JUMPDEST SWAP5 POP POP PUSH1 0x20 DUP6 ADD CALLDATALOAD PUSH8 0xFFFFFFFFFFFFFFFF DUP2 GT ISZERO PUSH2 0xC7B JUMPI PUSH2 0xC7A PUSH2 0x96D JUMP JUMPDEST JUMPDEST PUSH2 0xC87 DUP8 DUP3 DUP9 ADD PUSH2 0xBEC JUMP JUMPDEST SWAP4 POP POP PUSH1 0x40 DUP6 ADD CALLDATALOAD PUSH8 0xFFFFFFFFFFFFFFFF DUP2 GT ISZERO PUSH2 0xCA8 JUMPI PUSH2 0xCA7 PUSH2 0x96D JUMP JUMPDEST JUMPDEST PUSH2 0xCB4 DUP8 DUP3 DUP9 ADD PUSH2 0xBEC JUMP JUMPDEST SWAP3 POP POP PUSH1 0x60 DUP6 ADD CALLDATALOAD PUSH8 0xFFFFFFFFFFFFFFFF DUP2 GT ISZERO PUSH2 0xCD5 JUMPI PUSH2 0xCD4 PUSH2 0x96D JUMP JUMPDEST JUMPDEST PUSH2 0xCE1 DUP8 DUP3 DUP9 ADD PUSH2 0xBEC JUMP JUMPDEST SWAP2 POP POP SWAP3 SWAP6 SWAP2 SWAP5 POP SWAP3 POP JUMP JUMPDEST PUSH0 DUP2 MLOAD SWAP1 POP SWAP2 SWAP1 POP JUMP JUMPDEST PUSH0 DUP3 DUP3 MSTORE PUSH1 0x20 DUP3 ADD SWAP1 POP SWAP3 SWAP2 POP POP JUMP JUMPDEST PUSH0 DUP2 SWAP1 POP PUSH1 0x20 DUP3 ADD SWAP1 POP SWAP2 SWAP1 POP JUMP JUMPDEST PUSH0 DUP2 SWAP1 POP SWAP2 SWAP1 POP JUMP JUMPDEST PUSH2 0xD28 DUP2 PUSH2 0xD16 JUMP JUMPDEST DUP3 MSTORE POP POP JUMP JUMPDEST PUSH0 PUSH2 0xD39 DUP4 DUP4 PUSH2 0xD1F JUMP JUMPDEST PUSH1 0x20 DUP4 ADD SWAP1 POP SWAP3 SWAP2 POP POP JUMP JUMPDEST PUSH0 PUSH1 0x20 DUP3 ADD SWAP1 POP SWAP2 SWAP1 POP JUMP JUMPDEST PUSH0 PUSH2 0xD5B DUP3 PUSH2 0xCED JUMP JUMPDEST PUSH2 0xD65 DUP2 DUP6 PUSH2 0xCF7 JUMP JUMPDEST SWAP4 POP PUSH2 0xD70 DUP4 PUSH2 0xD07 JUMP JUMPDEST DUP1 PUSH0 JUMPDEST DUP4 DUP2 LT ISZERO PUSH2 0xDA0 JUMPI DUP2 MLOAD PUSH2 0xD87 DUP9 DUP3 PUSH2 0xD2E JUMP JUMPDEST SWAP8 POP PUSH2 0xD92 DUP4 PUSH2 0xD45 JUMP JUMPDEST SWAP3 POP POP PUSH1 0x1 DUP2 ADD SWAP1 POP PUSH2 0xD73 JUMP JUMPDEST POP DUP6 SWAP4 POP POP POP POP SWAP3 SWAP2 POP POP JUMP JUMPDEST PUSH0 PUSH1 0x20 DUP3 ADD SWAP1 POP DUP2 DUP2 SUB PUSH0 DUP4 ADD MSTORE PUSH2 0xDC5 DUP2 DUP5 PUSH2 0xD51 JUMP JUMPDEST SWAP1 POP SWAP3 SWAP2 POP POP JUMP JUMPDEST PUSH2 0xDD6 DUP2 PUSH2 0xD16 JUMP JUMPDEST DUP2 EQ PUSH2 0xDE0 JUMPI PUSH0 PUSH0 REVERT JUMPDEST POP JUMP JUMPDEST PUSH0 DUP2 CALLDATALOAD SWAP1 POP PUSH2 0xDF1 DUP2 PUSH2 0xDCD JUMP JUMPDEST SWAP3 SWAP2 POP POP JUMP JUMPDEST PUSH0 PUSH1 0x20 DUP3 DUP5 SUB SLT ISZERO PUSH2 0xE0C JUMPI PUSH2 0xE0B PUSH2 0x969 JUMP JUMPDEST JUMPDEST PUSH0 PUSH2 0xE19 DUP5 DUP3 DUP6 ADD PUSH2 0xDE3 JUMP JUMPDEST SWAP2 POP POP SWAP3 SWAP2 POP POP JUMP JUMPDEST PUSH0 PUSH1 0x80 DUP3 ADD SWAP1 POP DUP2 DUP2 SUB PUSH0 DUP4 ADD MSTORE PUSH2 0xE3A DUP2 DUP8 PUSH2 0xA2E JUMP JUMPDEST SWAP1 POP DUP2 DUP2 SUB PUSH1 0x20 DUP4 ADD MSTORE PUSH2 0xE4E DUP2 DUP7 PUSH2 0xA2E JUMP JUMPDEST SWAP1 POP DUP2 DUP2 SUB PUSH1 0x40 DUP4 ADD MSTORE PUSH2 0xE62 DUP2 DUP6 PUSH2 0xA2E JUMP JUMPDEST SWAP1 POP DUP2 DUP2 SUB PUSH1 0x60 DUP4 ADD MSTORE PUSH2 0xE76 DUP2 DUP5 PUSH2 0xA2E JUMP JUMPDEST SWAP1 POP SWAP6 SWAP5 POP POP POP POP POP JUMP JUMPDEST PUSH32 0x4E487B7100000000000000000000000000000000000000000000000000000000 PUSH0 MSTORE PUSH1 0x22 PUSH1 0x4 MSTORE PUSH1 0x24 PUSH0 REVERT JUMPDEST PUSH0 PUSH1 0x2 DUP3 DIV SWAP1 POP PUSH1 0x1 DUP3 AND DUP1 PUSH2 0xEC5 JUMPI PUSH1 0x7F DUP3 AND SWAP2 POP JUMPDEST PUSH1 0x20 DUP3 LT DUP2 SUB PUSH2 0xED8 JUMPI PUSH2 0xED7 PUSH2 0xE81 JUMP JUMPDEST JUMPDEST POP SWAP2 SWAP1 POP JUMP JUMPDEST PUSH32 0x416C726561647920726567697374657265640000000000000000000000000000 PUSH0 DUP3 ADD MSTORE POP JUMP JUMPDEST PUSH0 PUSH2 0xF12 PUSH1 0x12 DUP4 PUSH2 0xA00 JUMP JUMPDEST SWAP2 POP PUSH2 0xF1D DUP3 PUSH2 0xEDE JUMP JUMPDEST PUSH1 0x20 DUP3 ADD SWAP1 POP SWAP2 SWAP1 POP JUMP JUMPDEST PUSH0 PUSH1 0x20 DUP3 ADD SWAP1 POP DUP2 DUP2 SUB PUSH0 DUP4 ADD MSTORE PUSH2 0xF3F DUP2 PUSH2 0xF06 JUMP JUMPDEST SWAP1 POP SWAP2 SWAP1 POP JUMP JUMPDEST PUSH0 DUP2 SWAP1 POP DUP2 PUSH0 MSTORE PUSH1 0x20 PUSH0 KECCAK256 SWAP1 POP SWAP2 SWAP1 POP JUMP JUMPDEST PUSH0 PUSH1 0x20 PUSH1 0x1F DUP4 ADD DIV SWAP1 POP SWAP2 SWAP1 POP JUMP JUMPDEST PUSH0 DUP3 DUP3 SHL SWAP1 POP SWAP3 SWAP2 POP POP JUMP JUMPDEST PUSH0 PUSH1 0x8 DUP4 MUL PUSH2 0xFA2 PUSH32 0xFFFFFFFFFFFFFFFFFFFFFFFFFFFFFFFFFFFFFFFFFFFFFFFFFFFFFFFFFFFFFFFF DUP3 PUSH2 0xF67 JUMP JUMPDEST PUSH2 0xFAC DUP7 DUP4 PUSH2 0xF67 JUMP JUMPDEST SWAP6 POP DUP1 NOT DUP5 AND SWAP4 POP DUP1 DUP7 AND DUP5 OR SWAP3 POP POP POP SWAP4 SWAP3 POP POP POP JUMP JUMPDEST PUSH0 DUP2 SWAP1 POP SWAP2 SWAP1 POP JUMP JUMPDEST PUSH0 DUP2 SWAP1 POP SWAP2 SWAP1 POP JUMP JUMPDEST PUSH0 PUSH2 0xFF0 PUSH2 0xFEB PUSH2 0xFE6 DUP5 PUSH2 0xFC4 JUMP JUMPDEST PUSH2 0xFCD JUMP JUMPDEST PUSH2 0xFC4 JUMP JUMPDEST SWAP1 POP SWAP2 SWAP1 POP JUMP JUMPDEST PUSH0 DUP2 SWAP1 POP SWAP2 SWAP1 POP JUMP JUMPDEST PUSH2 0x1009 DUP4 PUSH2 0xFD6 JUMP JUMPDEST PUSH2 0x101D PUSH2 0x1015 DUP3 PUSH2 0xFF7 JUMP JUMPDEST DUP5 DUP5 SLOAD PUSH2 0xF73 JUMP JUMPDEST DUP3 SSTORE POP POP POP POP JUMP JUMPDEST PUSH0 PUSH0 SWAP1 POP SWAP1 JUMP JUMPDEST PUSH2 0x1034 PUSH2 0x1025 JUMP JUMPDEST PUSH2 0x103F DUP2 DUP5 DUP5 PUSH2 0x1000 JUMP JUMPDEST POP POP POP JUMP JUMPDEST JUMPDEST DUP2 DUP2 LT ISZERO PUSH2 0x1062 JUMPI PUSH2 0x1057 PUSH0 DUP3 PUSH2 0x102C JUMP JUMPDEST PUSH1 0x1 DUP2 ADD SWAP1 POP PUSH2 0x1045 JUMP JUMPDEST POP POP JUMP JUMPDEST PUSH1 0x1F DUP3 GT ISZERO PUSH2 0x10A7 JUMPI PUSH2 0x1078 DUP2 PUSH2 0xF46 JUMP JUMPDEST PUSH2 0x1081 DUP5 PUSH2 0xF58 JUMP JUMPDEST DUP2 ADD PUSH1 0x20 DUP6 LT ISZERO PUSH2 0x1090 JUMPI DUP2 SWAP1 POP JUMPDEST PUSH2 0x10A4 PUSH2 0x109C DUP6 PUSH2 0xF58 JUMP JUMPDEST DUP4 ADD DUP3 PUSH2 0x1044 JUMP JUMPDEST POP POP JUMPDEST POP POP POP JUMP JUMPDEST PUSH0 DUP3 DUP3 SHR SWAP1 POP SWAP3 SWAP2 POP POP JUMP JUMPDEST PUSH0 PUSH2 0x10C7 PUSH0 NOT DUP5 PUSH1 0x8 MUL PUSH2 0x10AC JUMP JUMPDEST NOT DUP1 DUP4 AND SWAP2 POP POP SWAP3 SWAP2 POP POP JUMP JUMPDEST PUSH0 PUSH2 0x10DF DUP4 DUP4 PUSH2 0x10B8 JUMP JUMPDEST SWAP2 POP DUP3 PUSH1 0x2 MUL DUP3 OR SWAP1 POP SWAP3 SWAP2 POP POP JUMP JUMPDEST PUSH2 0x10F8 DUP3 PUSH2 0x9F6 JUMP JUMPDEST PUSH8 0xFFFFFFFFFFFFFFFF DUP2 GT ISZERO PUSH2 0x1111 JUMPI PUSH2 0x1110 PUSH2 0xAF5 JUMP JUMPDEST JUMPDEST PUSH2 0x111B DUP3 SLOAD PUSH2 0xEAE JUMP JUMPDEST PUSH2 0x1126 DUP3 DUP3 DUP6 PUSH2 0x1066 JUMP JUMPDEST PUSH0 PUSH1 0x20 SWAP1 POP PUSH1 0x1F DUP4 GT PUSH1 0x1 DUP2 EQ PUSH2 0x1157 JUMPI PUSH0 DUP5 ISZERO PUSH2 0x1145 JUMPI DUP3 DUP8 ADD MLOAD SWAP1 POP JUMPDEST PUSH2 0x114F DUP6 DUP3 PUSH2 0x10D4 JUMP JUMPDEST DUP7 SSTORE POP PUSH2 0x11B6 JUMP JUMPDEST PUSH1 0x1F NOT DUP5 AND PUSH2 0x1165 DUP7 PUSH2 0xF46 JUMP JUMPDEST PUSH0 JUMPDEST DUP3 DUP2 LT ISZERO PUSH2 0x118C JUMPI DUP5 DUP10 ADD MLOAD DUP3 SSTORE PUSH1 0x1 DUP3 ADD SWAP2 POP PUSH1 0x20 DUP6 ADD SWAP5 POP PUSH1 0x20 DUP2 ADD SWAP1 POP PUSH2 0x1167 JUMP JUMPDEST DUP7 DUP4 LT ISZERO PUSH2 0x11A9 JUMPI DUP5 DUP10 ADD MLOAD PUSH2 0x11A5 PUSH1 0x1F DUP10 AND DUP3 PUSH2 0x10B8 JUMP JUMPDEST DUP4 SSTORE POP JUMPDEST PUSH1 0x1 PUSH1 0x2 DUP9 MUL ADD DUP9 SSTORE POP POP POP JUMPDEST POP POP POP POP POP POP JUMP JUMPDEST PUSH0 PUSH1 0x20 DUP3 ADD SWAP1 POP DUP2 DUP2 SUB PUSH0 DUP4 ADD MSTORE PUSH2 0x11D6 DUP2 DUP5 PUSH2 0xA2E JUMP JUMPDEST SWAP1 POP SWAP3 SWAP2 POP POP JUMP JUMPDEST PUSH32 0x4E6F742072656769737465726564000000000000000000000000000000000000 PUSH0 DUP3 ADD MSTORE POP JUMP JUMPDEST PUSH0 PUSH2 0x1212 PUSH1 0xE DUP4 PUSH2 0xA00 JUMP JUMPDEST SWAP2 POP PUSH2 0x121D DUP3 PUSH2 0x11DE JUMP JUMPDEST PUSH1 0x20 DUP3 ADD SWAP1 POP SWAP2 SWAP1 POP JUMP JUMPDEST PUSH0 PUSH1 0x20 DUP3 ADD SWAP1 POP DUP2 DUP2 SUB PUSH0 DUP4 ADD MSTORE PUSH2 0x123F DUP2 PUSH2 0x1206 JUMP JUMPDEST SWAP1 POP SWAP2 SWAP1 POP JUMP JUMPDEST PUSH2 0x124F DUP2 PUSH2 0xD16 JUMP JUMPDEST DUP3 MSTORE POP POP JUMP JUMPDEST PUSH0 PUSH1 0x20 DUP3 ADD SWAP1 POP PUSH2 0x1268 PUSH0 DUP4 ADD DUP5 PUSH2 0x1246 JUMP JUMPDEST SWAP3 SWAP2 POP POP JUMP INVALID LOG2 PUSH5 0x6970667358 0x22 SLT KECCAK256 BASEFEE MCOPY 0xBA 0xC6 0xC9 LOG2 0xC3 DUP7 SWAP6 0xB2 SLT CALLF 0x4488 CREATE MUL 0xBB CODECOPY SWAP11 DUP10 SELFDESTRUCT DATALOADN 0x74EA TIMESTAMP SWAP13 MULMOD 0xEA 0xE9 0xB4 MCOPY 0xC0 PUSH5 0x736F6C6343 STOP ADDMOD 0x1E STOP CALLER "
				},
				"gasEstimates": {
					"creation": {
						"codeDepositCost": "954400",
						"executionCost": "992",
						"totalCost": "955392"
					},
					"external": {
						"addFileToPatient(bytes32)": "infinite",
						"getPatientDetails(address)": "infinite",
						"getPatientFiles(address)": "infinite",
						"patients(address)": "infinite",
						"registerPatient(string,string,string,string)": "infinite"
					}
				},
				"methodIdentifiers": {
					"addFileToPatient(bytes32)": "c58b709d",
					"getPatientDetails(address)": "efe2ccc1",
					"getPatientFiles(address)": "c1816dfb",
					"patients(address)": "0869cfbc",
					"registerPatient(string,string,string,string)": "4ba0a020"
				}
			},
			"storageLayout": {
				"storage": [
					{
						"astId": 20,
						"contract": "contracts/PatientRegistry.sol:PatientRegistry",
						"label": "patients",
						"offset": 0,
						"slot": "0",
						"type": "t_mapping(t_address,t_struct(Patient)15_storage)"
					}
				],
				"types": {
					"t_address": {
						"encoding": "inplace",
						"label": "address",
						"numberOfBytes": "20"
					},
					"t_array(t_bytes32)dyn_storage": {
						"base": "t_bytes32",
						"encoding": "dynamic_array",
						"label": "bytes32[]",
						"numberOfBytes": "32"
					},
					"t_bool": {
						"encoding": "inplace",
						"label": "bool",
						"numberOfBytes": "1"
					},
					"t_bytes32": {
						"encoding": "inplace",
						"label": "bytes32",
						"numberOfBytes": "32"
					},
					"t_mapping(t_address,t_struct(Patient)15_storage)": {
						"encoding": "mapping",
						"key": "t_address",
						"label": "mapping(address => struct PatientRegistry.Patient)",
						"numberOfBytes": "32",
						"value": "t_struct(Patient)15_storage"
					},
					"t_string_storage": {
						"encoding": "bytes",
						"label": "string",
						"numberOfBytes": "32"
					},
					"t_struct(Patient)15_storage": {
						"encoding": "inplace",
						"label": "struct PatientRegistry.Patient",
						"members": [
							{
								"astId": 3,
								"contract": "contracts/PatientRegistry.sol:PatientRegistry",
								"label": "name",
								"offset": 0,
								"slot": "0",
								"type": "t_string_storage"
							},
							{
								"astId": 5,
								"contract": "contracts/PatientRegistry.sol:PatientRegistry",
								"label": "gender",
								"offset": 0,
								"slot": "1",
								"type": "t_string_storage"
							},
							{
								"astId": 7,
								"contract": "contracts/PatientRegistry.sol:PatientRegistry",
								"label": "dateOfBirth",
								"offset": 0,
								"slot": "2",
								"type": "t_string_storage"
							},
							{
								"astId": 9,
								"contract": "contracts/PatientRegistry.sol:PatientRegistry",
								"label": "contactInfo",
								"offset": 0,
								"slot": "3",
								"type": "t_string_storage"
							},
							{
								"astId": 11,
								"contract": "contracts/PatientRegistry.sol:PatientRegistry",
								"label": "isRegistered",
								"offset": 0,
								"slot": "4",
								"type": "t_bool"
							},
							{
								"astId": 14,
								"contract": "contracts/PatientRegistry.sol:PatientRegistry",
								"label": "fileHashes",
								"offset": 0,
								"slot": "5",
								"type": "t_array(t_bytes32)dyn_storage"
							}
						],
						"numberOfBytes": "192"
					}
				}
			},
			"userdoc": {
				"kind": "user",
				"methods": {},
				"version": 1
			}
		}
	}
}