{
	"contracts/PatientRegistry.sol": {
		"PatientRegistry": {
			"abi": [
				{
					"anonymous": false,
					"inputs": [
						{
							"indexed": true,
							"internalType": "address",
							"name": "patient",
							"type": "address"
						},
						{
							"indexed": false,
							"internalType": "string",
							"name": "fileHash",
							"type": "string"
						}
					],
					"name": "FileAdded",
					"type": "event"
				},
				{
					"anonymous": false,
					"inputs": [
						{
							"indexed": true,
							"internalType": "address",
							"name": "patient",
							"type": "address"
						},
						{
							"indexed": false,
							"internalType": "string",
							"name": "name",
							"type": "string"
						}
					],
					"name": "PatientRegistered",
					"type": "event"
				},
				{
					"inputs": [
						{
							"internalType": "address",
							"name": "_patient",
							"type": "address"
						},
						{
							"internalType": "string",
							"name": "_fileHash",
							"type": "string"
						}
					],
					"name": "addFileToPatient",
					"outputs": [],
					"stateMutability": "nonpayable",
					"type": "function"
				},
				{
					"inputs": [
						{
							"internalType": "address",
							"name": "_patient",
							"type": "address"
						}
					],
					"name": "getPatientDetails",
					"outputs": [
						{
							"internalType": "string",
							"name": "name",
							"type": "string"
						},
						{
							"internalType": "string",
							"name": "gender",
							"type": "string"
						},
						{
							"internalType": "string",
							"name": "dateOfBirth",
							"type": "string"
						},
						{
							"internalType": "string",
							"name": "bloodGroup",
							"type": "string"
						},
						{
							"internalType": "string",
							"name": "contactInfo",
							"type": "string"
						},
						{
							"internalType": "string",
							"name": "homeAddress",
							"type": "string"
						}
					],
					"stateMutability": "view",
					"type": "function"
				},
				{
					"inputs": [
						{
							"internalType": "address",
							"name": "_patient",
							"type": "address"
						}
					],
					"name": "getPatientFiles",
					"outputs": [
						{
							"internalType": "string[]",
							"name": "",
							"type": "string[]"
						}
					],
					"stateMutability": "view",
					"type": "function"
				},
				{
					"inputs": [
						{
							"internalType": "address",
							"name": "",
							"type": "address"
						}
					],
					"name": "patients",
					"outputs": [
						{
							"internalType": "string",
							"name": "name",
							"type": "string"
						},
						{
							"internalType": "string",
							"name": "gender",
							"type": "string"
						},
						{
							"internalType": "string",
							"name": "dateOfBirth",
							"type": "string"
						},
						{
							"internalType": "string",
							"name": "bloodGroup",
							"type": "string"
						},
						{
							"internalType": "string",
							"name": "contactInfo",
							"type": "string"
						},
						{
							"internalType": "string",
							"name": "homeAddress",
							"type": "string"
						},
						{
							"internalType": "bool",
							"name": "isRegistered",
							"type": "bool"
						}
					],
					"stateMutability": "view",
					"type": "function"
				},
				{
					"inputs": [
						{
							"internalType": "string",
							"name": "_name",
							"type": "string"
						},
						{
							"internalType": "string",
							"name": "_gender",
							"type": "string"
						},
						{
							"internalType": "string",
							"name": "_dateOfBirth",
							"type": "string"
						},
						{
							"internalType": "string",
							"name": "_bloodGroup",
							"type": "string"
						},
						{
							"internalType": "string",
							"name": "_contactInfo",
							"type": "string"
						},
						{
							"internalType": "string",
							"name": "_homeAddress",
							"type": "string"
						}
					],
					"name": "registerPatient",
					"outputs": [],
					"stateMutability": "nonpayable",
					"type": "function"
				}
			],
			"devdoc": {
				"kind": "dev",
				"methods": {},
				"version": 1
			},
			"evm": {
				"assembly": "    /* \"contracts/PatientRegistry.sol\":61:2652  contract PatientRegistry {... */\n  mstore(0x40, 0x80)\n  callvalue\n  dup1\n  iszero\n  tag_1\n  jumpi\n  revert(0x00, 0x00)\ntag_1:\n  pop\n  dataSize(sub_0)\n  dup1\n  dataOffset(sub_0)\n  0x00\n  codecopy\n  0x00\n  return\nstop\n\nsub_0: assembly {\n        /* \"contracts/PatientRegistry.sol\":61:2652  contract PatientRegistry {... */\n      mstore(0x40, 0x80)\n      callvalue\n      dup1\n      iszero\n      tag_1\n      jumpi\n      revert(0x00, 0x00)\n    tag_1:\n      pop\n      jumpi(tag_2, lt(calldatasize, 0x04))\n      shr(0xe0, calldataload(0x00))\n      dup1\n      0x0869cfbc\n      eq\n      tag_3\n      jumpi\n      dup1\n      0x6d26dce8\n      eq\n      tag_4\n      jumpi\n      dup1\n      0xc1816dfb\n      eq\n      tag_5\n      jumpi\n      dup1\n      0xedefcf88\n      eq\n      tag_6\n      jumpi\n      dup1\n      0xefe2ccc1\n      eq\n      tag_7\n      jumpi\n    tag_2:\n      revert(0x00, 0x00)\n        /* \"contracts/PatientRegistry.sol\":612:655  mapping(address => Patient) public patients */\n    tag_3:\n      tag_8\n      0x04\n      dup1\n      calldatasize\n      sub\n      dup2\n      add\n      swap1\n      tag_9\n      swap2\n      swap1\n      tag_10\n      jump\t// in\n    tag_9:\n      tag_11\n      jump\t// in\n    tag_8:\n      mload(0x40)\n      tag_12\n      swap8\n      swap7\n      swap6\n      swap5\n      swap4\n      swap3\n      swap2\n      swap1\n      tag_13\n      jump\t// in\n    tag_12:\n      mload(0x40)\n      dup1\n      swap2\n      sub\n      swap1\n      return\n        /* \"contracts/PatientRegistry.sol\":935:1616  function registerPatient(... */\n    tag_4:\n      tag_14\n      0x04\n      dup1\n      calldatasize\n      sub\n      dup2\n      add\n      swap1\n      tag_15\n      swap2\n      swap1\n      tag_16\n      jump\t// in\n    tag_15:\n      tag_17\n      jump\t// in\n    tag_14:\n      stop\n        /* \"contracts/PatientRegistry.sol\":1887:2025  function getPatientFiles(address _patient) external view returns (string[] memory) {... */\n    tag_5:\n      tag_18\n      0x04\n      dup1\n      calldatasize\n      sub\n      dup2\n      add\n      swap1\n      tag_19\n      swap2\n      swap1\n      tag_10\n      jump\t// in\n    tag_19:\n      tag_20\n      jump\t// in\n    tag_18:\n      mload(0x40)\n      tag_21\n      swap2\n      swap1\n      tag_22\n      jump\t// in\n    tag_21:\n      mload(0x40)\n      dup1\n      swap2\n      sub\n      swap1\n      return\n        /* \"contracts/PatientRegistry.sol\":1624:1879  function addFileToPatient(address _patient,string memory _fileHash) public  {... */\n    tag_6:\n      tag_23\n      0x04\n      dup1\n      calldatasize\n      sub\n      dup2\n      add\n      swap1\n      tag_24\n      swap2\n      swap1\n      tag_25\n      jump\t// in\n    tag_24:\n      tag_26\n      jump\t// in\n    tag_23:\n      stop\n        /* \"contracts/PatientRegistry.sol\":2033:2523  function getPatientDetails(address _patient)... */\n    tag_7:\n      tag_27\n      0x04\n      dup1\n      calldatasize\n      sub\n      dup2\n      add\n      swap1\n      tag_28\n      swap2\n      swap1\n      tag_10\n      jump\t// in\n    tag_28:\n      tag_29\n      jump\t// in\n    tag_27:\n      mload(0x40)\n      tag_30\n      swap7\n      swap6\n      swap5\n      swap4\n      swap3\n      swap2\n      swap1\n      tag_31\n      jump\t// in\n    tag_30:\n      mload(0x40)\n      dup1\n      swap2\n      sub\n      swap1\n      return\n        /* \"contracts/PatientRegistry.sol\":612:655  mapping(address => Patient) public patients */\n    tag_11:\n      mstore(0x20, 0x00)\n      dup1\n      0x00\n      mstore\n      keccak256(0x00, 0x40)\n      0x00\n      swap2\n      pop\n      swap1\n      pop\n      dup1\n      0x00\n      add\n      dup1\n      sload\n      tag_32\n      swap1\n      tag_33\n      jump\t// in\n    tag_32:\n      dup1\n      0x1f\n      add\n      0x20\n      dup1\n      swap2\n      div\n      mul\n      0x20\n      add\n      mload(0x40)\n      swap1\n      dup2\n      add\n      0x40\n      mstore\n      dup1\n      swap3\n      swap2\n      swap1\n      dup2\n      dup2\n      mstore\n      0x20\n      add\n      dup3\n      dup1\n      sload\n      tag_34\n      swap1\n      tag_33\n      jump\t// in\n    tag_34:\n      dup1\n      iszero\n      tag_35\n      jumpi\n      dup1\n      0x1f\n      lt\n      tag_36\n      jumpi\n      0x0100\n      dup1\n      dup4\n      sload\n      div\n      mul\n      dup4\n      mstore\n      swap2\n      0x20\n      add\n      swap2\n      jump(tag_35)\n    tag_36:\n      dup3\n      add\n      swap2\n      swap1\n      0x00\n      mstore\n      keccak256(0x00, 0x20)\n      swap1\n    tag_37:\n      dup2\n      sload\n      dup2\n      mstore\n      swap1\n      0x01\n      add\n      swap1\n      0x20\n      add\n      dup1\n      dup4\n      gt\n      tag_37\n      jumpi\n      dup3\n      swap1\n      sub\n      0x1f\n      and\n      dup3\n      add\n      swap2\n    tag_35:\n      pop\n      pop\n      pop\n      pop\n      pop\n      swap1\n      dup1\n      0x01\n      add\n      dup1\n      sload\n      tag_38\n      swap1\n      tag_33\n      jump\t// in\n    tag_38:\n      dup1\n      0x1f\n      add\n      0x20\n      dup1\n      swap2\n      div\n      mul\n      0x20\n      add\n      mload(0x40)\n      swap1\n      dup2\n      add\n      0x40\n      mstore\n      dup1\n      swap3\n      swap2\n      swap1\n      dup2\n      dup2\n      mstore\n      0x20\n      add\n      dup3\n      dup1\n      sload\n      tag_39\n      swap1\n      tag_33\n      jump\t// in\n    tag_39:\n      dup1\n      iszero\n      tag_40\n      jumpi\n      dup1\n      0x1f\n      lt\n      tag_41\n      jumpi\n      0x0100\n      dup1\n      dup4\n      sload\n      div\n      mul\n      dup4\n      mstore\n      swap2\n      0x20\n      add\n      swap2\n      jump(tag_40)\n    tag_41:\n      dup3\n      add\n      swap2\n      swap1\n      0x00\n      mstore\n      keccak256(0x00, 0x20)\n      swap1\n    tag_42:\n      dup2\n      sload\n      dup2\n      mstore\n      swap1\n      0x01\n      add\n      swap1\n      0x20\n      add\n      dup1\n      dup4\n      gt\n      tag_42\n      jumpi\n      dup3\n      swap1\n      sub\n      0x1f\n      and\n      dup3\n      add\n      swap2\n    tag_40:\n      pop\n      pop\n      pop\n      pop\n      pop\n      swap1\n      dup1\n      0x02\n      add\n      dup1\n      sload\n      tag_43\n      swap1\n      tag_33\n      jump\t// in\n    tag_43:\n      dup1\n      0x1f\n      add\n      0x20\n      dup1\n      swap2\n      div\n      mul\n      0x20\n      add\n      mload(0x40)\n      swap1\n      dup2\n      add\n      0x40\n      mstore\n      dup1\n      swap3\n      swap2\n      swap1\n      dup2\n      dup2\n      mstore\n      0x20\n      add\n      dup3\n      dup1\n      sload\n      tag_44\n      swap1\n      tag_33\n      jump\t// in\n    tag_44:\n      dup1\n      iszero\n      tag_45\n      jumpi\n      dup1\n      0x1f\n      lt\n      tag_46\n      jumpi\n      0x0100\n      dup1\n      dup4\n      sload\n      div\n      mul\n      dup4\n      mstore\n      swap2\n      0x20\n      add\n      swap2\n      jump(tag_45)\n    tag_46:\n      dup3\n      add\n      swap2\n      swap1\n      0x00\n      mstore\n      keccak256(0x00, 0x20)\n      swap1\n    tag_47:\n      dup2\n      sload\n      dup2\n      mstore\n      swap1\n      0x01\n      add\n      swap1\n      0x20\n      add\n      dup1\n      dup4\n      gt\n      tag_47\n      jumpi\n      dup3\n      swap1\n      sub\n      0x1f\n      and\n      dup3\n      add\n      swap2\n    tag_45:\n      pop\n      pop\n      pop\n      pop\n      pop\n      swap1\n      dup1\n      0x03\n      add\n      dup1\n      sload\n      tag_48\n      swap1\n      tag_33\n      jump\t// in\n    tag_48:\n      dup1\n      0x1f\n      add\n      0x20\n      dup1\n      swap2\n      div\n      mul\n      0x20\n      add\n      mload(0x40)\n      swap1\n      dup2\n      add\n      0x40\n      mstore\n      dup1\n      swap3\n      swap2\n      swap1\n      dup2\n      dup2\n      mstore\n      0x20\n      add\n      dup3\n      dup1\n      sload\n      tag_49\n      swap1\n      tag_33\n      jump\t// in\n    tag_49:\n      dup1\n      iszero\n      tag_50\n      jumpi\n      dup1\n      0x1f\n      lt\n      tag_51\n      jumpi\n      0x0100\n      dup1\n      dup4\n      sload\n      div\n      mul\n      dup4\n      mstore\n      swap2\n      0x20\n      add\n      swap2\n      jump(tag_50)\n    tag_51:\n      dup3\n      add\n      swap2\n      swap1\n      0x00\n      mstore\n      keccak256(0x00, 0x20)\n      swap1\n    tag_52:\n      dup2\n      sload\n      dup2\n      mstore\n      swap1\n      0x01\n      add\n      swap1\n      0x20\n      add\n      dup1\n      dup4\n      gt\n      tag_52\n      jumpi\n      dup3\n      swap1\n      sub\n      0x1f\n      and\n      dup3\n      add\n      swap2\n    tag_50:\n      pop\n      pop\n      pop\n      pop\n      pop\n      swap1\n      dup1\n      0x04\n      add\n      dup1\n      sload\n      tag_53\n      swap1\n      tag_33\n      jump\t// in\n    tag_53:\n      dup1\n      0x1f\n      add\n      0x20\n      dup1\n      swap2\n      div\n      mul\n      0x20\n      add\n      mload(0x40)\n      swap1\n      dup2\n      add\n      0x40\n      mstore\n      dup1\n      swap3\n      swap2\n      swap1\n      dup2\n      dup2\n      mstore\n      0x20\n      add\n      dup3\n      dup1\n      sload\n      tag_54\n      swap1\n      tag_33\n      jump\t// in\n    tag_54:\n      dup1\n      iszero\n      tag_55\n      jumpi\n      dup1\n      0x1f\n      lt\n      tag_56\n      jumpi\n      0x0100\n      dup1\n      dup4\n      sload\n      div\n      mul\n      dup4\n      mstore\n      swap2\n      0x20\n      add\n      swap2\n      jump(tag_55)\n    tag_56:\n      dup3\n      add\n      swap2\n      swap1\n      0x00\n      mstore\n      keccak256(0x00, 0x20)\n      swap1\n    tag_57:\n      dup2\n      sload\n      dup2\n      mstore\n      swap1\n      0x01\n      add\n      swap1\n      0x20\n      add\n      dup1\n      dup4\n      gt\n      tag_57\n      jumpi\n      dup3\n      swap1\n      sub\n      0x1f\n      and\n      dup3\n      add\n      swap2\n    tag_55:\n      pop\n      pop\n      pop\n      pop\n      pop\n      swap1\n      dup1\n      0x05\n      add\n      dup1\n      sload\n      tag_58\n      swap1\n      tag_33\n      jump\t// in\n    tag_58:\n      dup1\n      0x1f\n      add\n      0x20\n      dup1\n      swap2\n      div\n      mul\n      0x20\n      add\n      mload(0x40)\n      swap1\n      dup2\n      add\n      0x40\n      mstore\n      dup1\n      swap3\n      swap2\n      swap1\n      dup2\n      dup2\n      mstore\n      0x20\n      add\n      dup3\n      dup1\n      sload\n      tag_59\n      swap1\n      tag_33\n      jump\t// in\n    tag_59:\n      dup1\n      iszero\n      tag_60\n      jumpi\n      dup1\n      0x1f\n      lt\n      tag_61\n      jumpi\n      0x0100\n      dup1\n      dup4\n      sload\n      div\n      mul\n      dup4\n      mstore\n      swap2\n      0x20\n      add\n      swap2\n      jump(tag_60)\n    tag_61:\n      dup3\n      add\n      swap2\n      swap1\n      0x00\n      mstore\n      keccak256(0x00, 0x20)\n      swap1\n    tag_62:\n      dup2\n      sload\n      dup2\n      mstore\n      swap1\n      0x01\n      add\n      swap1\n      0x20\n      add\n      dup1\n      dup4\n      gt\n      tag_62\n      jumpi\n      dup3\n      swap1\n      sub\n      0x1f\n      and\n      dup3\n      add\n      swap2\n    tag_60:\n      pop\n      pop\n      pop\n      pop\n      pop\n      swap1\n      dup1\n      0x06\n      add\n      0x00\n      swap1\n      sload\n      swap1\n      0x0100\n      exp\n      swap1\n      div\n      0xff\n      and\n      swap1\n      pop\n      dup8\n      jump\t// out\n        /* \"contracts/PatientRegistry.sol\":935:1616  function registerPatient(... */\n    tag_17:\n        /* \"contracts/PatientRegistry.sol\":1205:1213  patients */\n      0x00\n        /* \"contracts/PatientRegistry.sol\":1205:1225  patients[msg.sender] */\n      0x00\n        /* \"contracts/PatientRegistry.sol\":1214:1224  msg.sender */\n      caller\n        /* \"contracts/PatientRegistry.sol\":1205:1225  patients[msg.sender] */\n      0xffffffffffffffffffffffffffffffffffffffff\n      and\n      0xffffffffffffffffffffffffffffffffffffffff\n      and\n      dup2\n      mstore\n      0x20\n      add\n      swap1\n      dup2\n      mstore\n      0x20\n      add\n      0x00\n      keccak256\n        /* \"contracts/PatientRegistry.sol\":1205:1238  patients[msg.sender].isRegistered */\n      0x06\n      add\n      0x00\n      swap1\n      sload\n      swap1\n      0x0100\n      exp\n      swap1\n      div\n      0xff\n      and\n        /* \"contracts/PatientRegistry.sol\":1204:1238  !patients[msg.sender].isRegistered */\n      iszero\n        /* \"contracts/PatientRegistry.sol\":1196:1261  require(!patients[msg.sender].isRegistered, \"Already registered\") */\n      tag_64\n      jumpi\n      mload(0x40)\n      0x08c379a000000000000000000000000000000000000000000000000000000000\n      dup2\n      mstore\n      0x04\n      add\n      tag_65\n      swap1\n      tag_66\n      jump\t// in\n    tag_65:\n      mload(0x40)\n      dup1\n      swap2\n      sub\n      swap1\n      revert\n    tag_64:\n        /* \"contracts/PatientRegistry.sol\":1274:1291  Patient storage p */\n      0x00\n        /* \"contracts/PatientRegistry.sol\":1294:1302  patients */\n      0x00\n        /* \"contracts/PatientRegistry.sol\":1294:1314  patients[msg.sender] */\n      0x00\n        /* \"contracts/PatientRegistry.sol\":1303:1313  msg.sender */\n      caller\n        /* \"contracts/PatientRegistry.sol\":1294:1314  patients[msg.sender] */\n      0xffffffffffffffffffffffffffffffffffffffff\n      and\n      0xffffffffffffffffffffffffffffffffffffffff\n      and\n      dup2\n      mstore\n      0x20\n      add\n      swap1\n      dup2\n      mstore\n      0x20\n      add\n      0x00\n      keccak256\n        /* \"contracts/PatientRegistry.sol\":1274:1314  Patient storage p = patients[msg.sender] */\n      swap1\n      pop\n        /* \"contracts/PatientRegistry.sol\":1334:1339  _name */\n      dup7\n        /* \"contracts/PatientRegistry.sol\":1325:1326  p */\n      dup2\n        /* \"contracts/PatientRegistry.sol\":1325:1331  p.name */\n      0x00\n      add\n        /* \"contracts/PatientRegistry.sol\":1325:1339  p.name = _name */\n      swap1\n      dup2\n      tag_67\n      swap2\n      swap1\n      tag_68\n      jump\t// in\n    tag_67:\n      pop\n        /* \"contracts/PatientRegistry.sol\":1361:1368  _gender */\n      dup6\n        /* \"contracts/PatientRegistry.sol\":1350:1351  p */\n      dup2\n        /* \"contracts/PatientRegistry.sol\":1350:1358  p.gender */\n      0x01\n      add\n        /* \"contracts/PatientRegistry.sol\":1350:1368  p.gender = _gender */\n      swap1\n      dup2\n      tag_69\n      swap2\n      swap1\n      tag_68\n      jump\t// in\n    tag_69:\n      pop\n        /* \"contracts/PatientRegistry.sol\":1395:1407  _dateOfBirth */\n      dup5\n        /* \"contracts/PatientRegistry.sol\":1379:1380  p */\n      dup2\n        /* \"contracts/PatientRegistry.sol\":1379:1392  p.dateOfBirth */\n      0x02\n      add\n        /* \"contracts/PatientRegistry.sol\":1379:1407  p.dateOfBirth = _dateOfBirth */\n      swap1\n      dup2\n      tag_70\n      swap2\n      swap1\n      tag_68\n      jump\t// in\n    tag_70:\n      pop\n        /* \"contracts/PatientRegistry.sol\":1433:1444  _bloodGroup */\n      dup4\n        /* \"contracts/PatientRegistry.sol\":1418:1419  p */\n      dup2\n        /* \"contracts/PatientRegistry.sol\":1418:1430  p.bloodGroup */\n      0x03\n      add\n        /* \"contracts/PatientRegistry.sol\":1418:1444  p.bloodGroup = _bloodGroup */\n      swap1\n      dup2\n      tag_71\n      swap2\n      swap1\n      tag_68\n      jump\t// in\n    tag_71:\n      pop\n        /* \"contracts/PatientRegistry.sol\":1471:1483  _contactInfo */\n      dup3\n        /* \"contracts/PatientRegistry.sol\":1455:1456  p */\n      dup2\n        /* \"contracts/PatientRegistry.sol\":1455:1468  p.contactInfo */\n      0x04\n      add\n        /* \"contracts/PatientRegistry.sol\":1455:1483  p.contactInfo = _contactInfo */\n      swap1\n      dup2\n      tag_72\n      swap2\n      swap1\n      tag_68\n      jump\t// in\n    tag_72:\n      pop\n        /* \"contracts/PatientRegistry.sol\":1510:1522  _homeAddress */\n      dup2\n        /* \"contracts/PatientRegistry.sol\":1494:1495  p */\n      dup2\n        /* \"contracts/PatientRegistry.sol\":1494:1507  p.homeAddress */\n      0x05\n      add\n        /* \"contracts/PatientRegistry.sol\":1494:1522  p.homeAddress = _homeAddress */\n      swap1\n      dup2\n      tag_73\n      swap2\n      swap1\n      tag_68\n      jump\t// in\n    tag_73:\n      pop\n        /* \"contracts/PatientRegistry.sol\":1550:1554  true */\n      0x01\n        /* \"contracts/PatientRegistry.sol\":1533:1534  p */\n      dup2\n        /* \"contracts/PatientRegistry.sol\":1533:1547  p.isRegistered */\n      0x06\n      add\n      0x00\n        /* \"contracts/PatientRegistry.sol\":1533:1554  p.isRegistered = true */\n      0x0100\n      exp\n      dup2\n      sload\n      dup2\n      0xff\n      mul\n      not\n      and\n      swap1\n      dup4\n      iszero\n      iszero\n      mul\n      or\n      swap1\n      sstore\n      pop\n        /* \"contracts/PatientRegistry.sol\":1590:1600  msg.sender */\n      caller\n        /* \"contracts/PatientRegistry.sol\":1572:1608  PatientRegistered(msg.sender, _name) */\n      0xffffffffffffffffffffffffffffffffffffffff\n      and\n      0xc85b128388b9c331a2a5485dce4cd0f3db9f7c279d327ce95d6d39d6c94644c7\n        /* \"contracts/PatientRegistry.sol\":1602:1607  _name */\n      dup9\n        /* \"contracts/PatientRegistry.sol\":1572:1608  PatientRegistered(msg.sender, _name) */\n      mload(0x40)\n      tag_74\n      swap2\n      swap1\n      tag_75\n      jump\t// in\n    tag_74:\n      mload(0x40)\n      dup1\n      swap2\n      sub\n      swap1\n      log2\n        /* \"contracts/PatientRegistry.sol\":1185:1616  {... */\n      pop\n        /* \"contracts/PatientRegistry.sol\":935:1616  function registerPatient(... */\n      pop\n      pop\n      pop\n      pop\n      pop\n      pop\n      jump\t// out\n        /* \"contracts/PatientRegistry.sol\":1887:2025  function getPatientFiles(address _patient) external view returns (string[] memory) {... */\n    tag_20:\n        /* \"contracts/PatientRegistry.sol\":1953:1968  string[] memory */\n      0x60\n        /* \"contracts/PatientRegistry.sol\":1988:1996  patients */\n      0x00\n        /* \"contracts/PatientRegistry.sol\":1988:2006  patients[_patient] */\n      0x00\n        /* \"contracts/PatientRegistry.sol\":1997:2005  _patient */\n      dup4\n        /* \"contracts/PatientRegistry.sol\":1988:2006  patients[_patient] */\n      0xffffffffffffffffffffffffffffffffffffffff\n      and\n      0xffffffffffffffffffffffffffffffffffffffff\n      and\n      dup2\n      mstore\n      0x20\n      add\n      swap1\n      dup2\n      mstore\n      0x20\n      add\n      0x00\n      keccak256\n        /* \"contracts/PatientRegistry.sol\":1988:2017  patients[_patient].fileHashes */\n      0x07\n      add\n        /* \"contracts/PatientRegistry.sol\":1981:2017  return patients[_patient].fileHashes */\n      dup1\n      sload\n      dup1\n      0x20\n      mul\n      0x20\n      add\n      mload(0x40)\n      swap1\n      dup2\n      add\n      0x40\n      mstore\n      dup1\n      swap3\n      swap2\n      swap1\n      dup2\n      dup2\n      mstore\n      0x20\n      add\n      0x00\n      swap1\n    tag_77:\n      dup3\n      dup3\n      lt\n      iszero\n      tag_78\n      jumpi\n      dup4\n      dup3\n      swap1\n      0x00\n      mstore\n      keccak256(0x00, 0x20)\n      add\n      dup1\n      sload\n      tag_80\n      swap1\n      tag_33\n      jump\t// in\n    tag_80:\n      dup1\n      0x1f\n      add\n      0x20\n      dup1\n      swap2\n      div\n      mul\n      0x20\n      add\n      mload(0x40)\n      swap1\n      dup2\n      add\n      0x40\n      mstore\n      dup1\n      swap3\n      swap2\n      swap1\n      dup2\n      dup2\n      mstore\n      0x20\n      add\n      dup3\n      dup1\n      sload\n      tag_81\n      swap1\n      tag_33\n      jump\t// in\n    tag_81:\n      dup1\n      iszero\n      tag_82\n      jumpi\n      dup1\n      0x1f\n      lt\n      tag_83\n      jumpi\n      0x0100\n      dup1\n      dup4\n      sload\n      div\n      mul\n      dup4\n      mstore\n      swap2\n      0x20\n      add\n      swap2\n      jump(tag_82)\n    tag_83:\n      dup3\n      add\n      swap2\n      swap1\n      0x00\n      mstore\n      keccak256(0x00, 0x20)\n      swap1\n    tag_84:\n      dup2\n      sload\n      dup2\n      mstore\n      swap1\n      0x01\n      add\n      swap1\n      0x20\n      add\n      dup1\n      dup4\n      gt\n      tag_84\n      jumpi\n      dup3\n      swap1\n      sub\n      0x1f\n      and\n      dup3\n      add\n      swap2\n    tag_82:\n      pop\n      pop\n      pop\n      pop\n      pop\n      dup2\n      mstore\n      0x20\n      add\n      swap1\n      0x01\n      add\n      swap1\n      jump(tag_77)\n    tag_78:\n      pop\n      pop\n      pop\n      pop\n      swap1\n      pop\n        /* \"contracts/PatientRegistry.sol\":1887:2025  function getPatientFiles(address _patient) external view returns (string[] memory) {... */\n      swap2\n      swap1\n      pop\n      jump\t// out\n        /* \"contracts/PatientRegistry.sol\":1624:1879  function addFileToPatient(address _patient,string memory _fileHash) public  {... */\n    tag_26:\n        /* \"contracts/PatientRegistry.sol\":1719:1727  patients */\n      0x00\n        /* \"contracts/PatientRegistry.sol\":1719:1737  patients[_patient] */\n      0x00\n        /* \"contracts/PatientRegistry.sol\":1728:1736  _patient */\n      dup4\n        /* \"contracts/PatientRegistry.sol\":1719:1737  patients[_patient] */\n      0xffffffffffffffffffffffffffffffffffffffff\n      and\n      0xffffffffffffffffffffffffffffffffffffffff\n      and\n      dup2\n      mstore\n      0x20\n      add\n      swap1\n      dup2\n      mstore\n      0x20\n      add\n      0x00\n      keccak256\n        /* \"contracts/PatientRegistry.sol\":1719:1750  patients[_patient].isRegistered */\n      0x06\n      add\n      0x00\n      swap1\n      sload\n      swap1\n      0x0100\n      exp\n      swap1\n      div\n      0xff\n      and\n        /* \"contracts/PatientRegistry.sol\":1711:1769  require(patients[_patient].isRegistered, \"Not registered\") */\n      tag_86\n      jumpi\n      mload(0x40)\n      0x08c379a000000000000000000000000000000000000000000000000000000000\n      dup2\n      mstore\n      0x04\n      add\n      tag_87\n      swap1\n      tag_88\n      jump\t// in\n    tag_87:\n      mload(0x40)\n      dup1\n      swap2\n      sub\n      swap1\n      revert\n    tag_86:\n        /* \"contracts/PatientRegistry.sol\":1780:1788  patients */\n      0x00\n        /* \"contracts/PatientRegistry.sol\":1780:1798  patients[_patient] */\n      0x00\n        /* \"contracts/PatientRegistry.sol\":1789:1797  _patient */\n      dup4\n        /* \"contracts/PatientRegistry.sol\":1780:1798  patients[_patient] */\n      0xffffffffffffffffffffffffffffffffffffffff\n      and\n      0xffffffffffffffffffffffffffffffffffffffff\n      and\n      dup2\n      mstore\n      0x20\n      add\n      swap1\n      dup2\n      mstore\n      0x20\n      add\n      0x00\n      keccak256\n        /* \"contracts/PatientRegistry.sol\":1780:1809  patients[_patient].fileHashes */\n      0x07\n      add\n        /* \"contracts/PatientRegistry.sol\":1815:1824  _fileHash */\n      dup2\n        /* \"contracts/PatientRegistry.sol\":1780:1825  patients[_patient].fileHashes.push(_fileHash) */\n      swap1\n      dup1\n      0x01\n      dup2\n      sload\n      add\n      dup1\n      dup3\n      sstore\n      dup1\n      swap2\n      pop\n      pop\n      0x01\n      swap1\n      sub\n      swap1\n      0x00\n      mstore\n      keccak256(0x00, 0x20)\n      add\n      0x00\n      swap1\n      swap2\n      swap1\n      swap2\n      swap1\n      swap2\n      pop\n      swap1\n      dup2\n      tag_90\n      swap2\n      swap1\n      tag_68\n      jump\t// in\n    tag_90:\n      pop\n        /* \"contracts/PatientRegistry.sol\":1851:1859  _patient */\n      dup2\n        /* \"contracts/PatientRegistry.sol\":1841:1871  FileAdded(_patient, _fileHash) */\n      0xffffffffffffffffffffffffffffffffffffffff\n      and\n      0x771ad20575501c8cafc4a8793006515911d6e497fd5838018654c9b50347430c\n        /* \"contracts/PatientRegistry.sol\":1861:1870  _fileHash */\n      dup3\n        /* \"contracts/PatientRegistry.sol\":1841:1871  FileAdded(_patient, _fileHash) */\n      mload(0x40)\n      tag_91\n      swap2\n      swap1\n      tag_75\n      jump\t// in\n    tag_91:\n      mload(0x40)\n      dup1\n      swap2\n      sub\n      swap1\n      log2\n        /* \"contracts/PatientRegistry.sol\":1624:1879  function addFileToPatient(address _patient,string memory _fileHash) public  {... */\n      pop\n      pop\n      jump\t// out\n        /* \"contracts/PatientRegistry.sol\":2033:2523  function getPatientDetails(address _patient)... */\n    tag_29:\n        /* \"contracts/PatientRegistry.sol\":2142:2160  string memory name */\n      0x60\n        /* \"contracts/PatientRegistry.sol\":2175:2195  string memory gender */\n      dup1\n        /* \"contracts/PatientRegistry.sol\":2210:2235  string memory dateOfBirth */\n      0x60\n        /* \"contracts/PatientRegistry.sol\":2250:2274  string memory bloodGroup */\n      dup1\n        /* \"contracts/PatientRegistry.sol\":2289:2314  string memory contactInfo */\n      0x60\n        /* \"contracts/PatientRegistry.sol\":2329:2354  string memory homeAddress */\n      dup1\n        /* \"contracts/PatientRegistry.sol\":2382:2399  Patient storage p */\n      0x00\n        /* \"contracts/PatientRegistry.sol\":2402:2410  patients */\n      0x00\n        /* \"contracts/PatientRegistry.sol\":2402:2420  patients[_patient] */\n      0x00\n        /* \"contracts/PatientRegistry.sol\":2411:2419  _patient */\n      dup10\n        /* \"contracts/PatientRegistry.sol\":2402:2420  patients[_patient] */\n      0xffffffffffffffffffffffffffffffffffffffff\n      and\n      0xffffffffffffffffffffffffffffffffffffffff\n      and\n      dup2\n      mstore\n      0x20\n      add\n      swap1\n      dup2\n      mstore\n      0x20\n      add\n      0x00\n      keccak256\n        /* \"contracts/PatientRegistry.sol\":2382:2420  Patient storage p = patients[_patient] */\n      swap1\n      pop\n        /* \"contracts/PatientRegistry.sol\":2439:2440  p */\n      dup1\n        /* \"contracts/PatientRegistry.sol\":2439:2445  p.name */\n      0x00\n      add\n        /* \"contracts/PatientRegistry.sol\":2447:2448  p */\n      dup2\n        /* \"contracts/PatientRegistry.sol\":2447:2455  p.gender */\n      0x01\n      add\n        /* \"contracts/PatientRegistry.sol\":2457:2458  p */\n      dup3\n        /* \"contracts/PatientRegistry.sol\":2457:2470  p.dateOfBirth */\n      0x02\n      add\n        /* \"contracts/PatientRegistry.sol\":2472:2473  p */\n      dup4\n        /* \"contracts/PatientRegistry.sol\":2472:2484  p.bloodGroup */\n      0x03\n      add\n        /* \"contracts/PatientRegistry.sol\":2486:2487  p */\n      dup5\n        /* \"contracts/PatientRegistry.sol\":2486:2499  p.contactInfo */\n      0x04\n      add\n        /* \"contracts/PatientRegistry.sol\":2501:2502  p */\n      dup6\n        /* \"contracts/PatientRegistry.sol\":2501:2514  p.homeAddress */\n      0x05\n      add\n        /* \"contracts/PatientRegistry.sol\":2431:2515  return (p.name, p.gender, p.dateOfBirth, p.bloodGroup, p.contactInfo, p.homeAddress) */\n      dup6\n      dup1\n      sload\n      tag_93\n      swap1\n      tag_33\n      jump\t// in\n    tag_93:\n      dup1\n      0x1f\n      add\n      0x20\n      dup1\n      swap2\n      div\n      mul\n      0x20\n      add\n      mload(0x40)\n      swap1\n      dup2\n      add\n      0x40\n      mstore\n      dup1\n      swap3\n      swap2\n      swap1\n      dup2\n      dup2\n      mstore\n      0x20\n      add\n      dup3\n      dup1\n      sload\n      tag_94\n      swap1\n      tag_33\n      jump\t// in\n    tag_94:\n      dup1\n      iszero\n      tag_95\n      jumpi\n      dup1\n      0x1f\n      lt\n      tag_96\n      jumpi\n      0x0100\n      dup1\n      dup4\n      sload\n      div\n      mul\n      dup4\n      mstore\n      swap2\n      0x20\n      add\n      swap2\n      jump(tag_95)\n    tag_96:\n      dup3\n      add\n      swap2\n      swap1\n      0x00\n      mstore\n      keccak256(0x00, 0x20)\n      swap1\n    tag_97:\n      dup2\n      sload\n      dup2\n      mstore\n      swap1\n      0x01\n      add\n      swap1\n      0x20\n      add\n      dup1\n      dup4\n      gt\n      tag_97\n      jumpi\n      dup3\n      swap1\n      sub\n      0x1f\n      and\n      dup3\n      add\n      swap2\n    tag_95:\n      pop\n      pop\n      pop\n      pop\n      pop\n      swap6\n      pop\n      dup5\n      dup1\n      sload\n      tag_98\n      swap1\n      tag_33\n      jump\t// in\n    tag_98:\n      dup1\n      0x1f\n      add\n      0x20\n      dup1\n      swap2\n      div\n      mul\n      0x20\n      add\n      mload(0x40)\n      swap1\n      dup2\n      add\n      0x40\n      mstore\n      dup1\n      swap3\n      swap2\n      swap1\n      dup2\n      dup2\n      mstore\n      0x20\n      add\n      dup3\n      dup1\n      sload\n      tag_99\n      swap1\n      tag_33\n      jump\t// in\n    tag_99:\n      dup1\n      iszero\n      tag_100\n      jumpi\n      dup1\n      0x1f\n      lt\n      tag_101\n      jumpi\n      0x0100\n      dup1\n      dup4\n      sload\n      div\n      mul\n      dup4\n      mstore\n      swap2\n      0x20\n      add\n      swap2\n      jump(tag_100)\n    tag_101:\n      dup3\n      add\n      swap2\n      swap1\n      0x00\n      mstore\n      keccak256(0x00, 0x20)\n      swap1\n    tag_102:\n      dup2\n      sload\n      dup2\n      mstore\n      swap1\n      0x01\n      add\n      swap1\n      0x20\n      add\n      dup1\n      dup4\n      gt\n      tag_102\n      jumpi\n      dup3\n      swap1\n      sub\n      0x1f\n      and\n      dup3\n      add\n      swap2\n    tag_100:\n      pop\n      pop\n      pop\n      pop\n      pop\n      swap5\n      pop\n      dup4\n      dup1\n      sload\n      tag_103\n      swap1\n      tag_33\n      jump\t// in\n    tag_103:\n      dup1\n      0x1f\n      add\n      0x20\n      dup1\n      swap2\n      div\n      mul\n      0x20\n      add\n      mload(0x40)\n      swap1\n      dup2\n      add\n      0x40\n      mstore\n      dup1\n      swap3\n      swap2\n      swap1\n      dup2\n      dup2\n      mstore\n      0x20\n      add\n      dup3\n      dup1\n      sload\n      tag_104\n      swap1\n      tag_33\n      jump\t// in\n    tag_104:\n      dup1\n      iszero\n      tag_105\n      jumpi\n      dup1\n      0x1f\n      lt\n      tag_106\n      jumpi\n      0x0100\n      dup1\n      dup4\n      sload\n      div\n      mul\n      dup4\n      mstore\n      swap2\n      0x20\n      add\n      swap2\n      jump(tag_105)\n    tag_106:\n      dup3\n      add\n      swap2\n      swap1\n      0x00\n      mstore\n      keccak256(0x00, 0x20)\n      swap1\n    tag_107:\n      dup2\n      sload\n      dup2\n      mstore\n      swap1\n      0x01\n      add\n      swap1\n      0x20\n      add\n      dup1\n      dup4\n      gt\n      tag_107\n      jumpi\n      dup3\n      swap1\n      sub\n      0x1f\n      and\n      dup3\n      add\n      swap2\n    tag_105:\n      pop\n      pop\n      pop\n      pop\n      pop\n      swap4\n      pop\n      dup3\n      dup1\n      sload\n      tag_108\n      swap1\n      tag_33\n      jump\t// in\n    tag_108:\n      dup1\n      0x1f\n      add\n      0x20\n      dup1\n      swap2\n      div\n      mul\n      0x20\n      add\n      mload(0x40)\n      swap1\n      dup2\n      add\n      0x40\n      mstore\n      dup1\n      swap3\n      swap2\n      swap1\n      dup2\n      dup2\n      mstore\n      0x20\n      add\n      dup3\n      dup1\n      sload\n      tag_109\n      swap1\n      tag_33\n      jump\t// in\n    tag_109:\n      dup1\n      iszero\n      tag_110\n      jumpi\n      dup1\n      0x1f\n      lt\n      tag_111\n      jumpi\n      0x0100\n      dup1\n      dup4\n      sload\n      div\n      mul\n      dup4\n      mstore\n      swap2\n      0x20\n      add\n      swap2\n      jump(tag_110)\n    tag_111:\n      dup3\n      add\n      swap2\n      swap1\n      0x00\n      mstore\n      keccak256(0x00, 0x20)\n      swap1\n    tag_112:\n      dup2\n      sload\n      dup2\n      mstore\n      swap1\n      0x01\n      add\n      swap1\n      0x20\n      add\n      dup1\n      dup4\n      gt\n      tag_112\n      jumpi\n      dup3\n      swap1\n      sub\n      0x1f\n      and\n      dup3\n      add\n      swap2\n    tag_110:\n      pop\n      pop\n      pop\n      pop\n      pop\n      swap3\n      pop\n      dup2\n      dup1\n      sload\n      tag_113\n      swap1\n      tag_33\n      jump\t// in\n    tag_113:\n      dup1\n      0x1f\n      add\n      0x20\n      dup1\n      swap2\n      div\n      mul\n      0x20\n      add\n      mload(0x40)\n      swap1\n      dup2\n      add\n      0x40\n      mstore\n      dup1\n      swap3\n      swap2\n      swap1\n      dup2\n      dup2\n      mstore\n      0x20\n      add\n      dup3\n      dup1\n      sload\n      tag_114\n      swap1\n      tag_33\n      jump\t// in\n    tag_114:\n      dup1\n      iszero\n      tag_115\n      jumpi\n      dup1\n      0x1f\n      lt\n      tag_116\n      jumpi\n      0x0100\n      dup1\n      dup4\n      sload\n      div\n      mul\n      dup4\n      mstore\n      swap2\n      0x20\n      add\n      swap2\n      jump(tag_115)\n    tag_116:\n      dup3\n      add\n      swap2\n      swap1\n      0x00\n      mstore\n      keccak256(0x00, 0x20)\n      swap1\n    tag_117:\n      dup2\n      sload\n      dup2\n      mstore\n      swap1\n      0x01\n      add\n      swap1\n      0x20\n      add\n      dup1\n      dup4\n      gt\n      tag_117\n      jumpi\n      dup3\n      swap1\n      sub\n      0x1f\n      and\n      dup3\n      add\n      swap2\n    tag_115:\n      pop\n      pop\n      pop\n      pop\n      pop\n      swap2\n      pop\n      dup1\n      dup1\n      sload\n      tag_118\n      swap1\n      tag_33\n      jump\t// in\n    tag_118:\n      dup1\n      0x1f\n      add\n      0x20\n      dup1\n      swap2\n      div\n      mul\n      0x20\n      add\n      mload(0x40)\n      swap1\n      dup2\n      add\n      0x40\n      mstore\n      dup1\n      swap3\n      swap2\n      swap1\n      dup2\n      dup2\n      mstore\n      0x20\n      add\n      dup3\n      dup1\n      sload\n      tag_119\n      swap1\n      tag_33\n      jump\t// in\n    tag_119:\n      dup1\n      iszero\n      tag_120\n      jumpi\n      dup1\n      0x1f\n      lt\n      tag_121\n      jumpi\n      0x0100\n      dup1\n      dup4\n      sload\n      div\n      mul\n      dup4\n      mstore\n      swap2\n      0x20\n      add\n      swap2\n      jump(tag_120)\n    tag_121:\n      dup3\n      add\n      swap2\n      swap1\n      0x00\n      mstore\n      keccak256(0x00, 0x20)\n      swap1\n    tag_122:\n      dup2\n      sload\n      dup2\n      mstore\n      swap1\n      0x01\n      add\n      swap1\n      0x20\n      add\n      dup1\n      dup4\n      gt\n      tag_122\n      jumpi\n      dup3\n      swap1\n      sub\n      0x1f\n      and\n      dup3\n      add\n      swap2\n    tag_120:\n      pop\n      pop\n      pop\n      pop\n      pop\n      swap1\n      pop\n      swap7\n      pop\n      swap7\n      pop\n      swap7\n      pop\n      swap7\n      pop\n      swap7\n      pop\n      swap7\n      pop\n      pop\n        /* \"contracts/PatientRegistry.sol\":2033:2523  function getPatientDetails(address _patient)... */\n      swap2\n      swap4\n      swap6\n      pop\n      swap2\n      swap4\n      swap6\n      jump\t// out\n        /* \"#utility.yul\":7:82   */\n    tag_123:\n        /* \"#utility.yul\":40:46   */\n      0x00\n        /* \"#utility.yul\":73:75   */\n      0x40\n        /* \"#utility.yul\":67:76   */\n      mload\n        /* \"#utility.yul\":57:76   */\n      swap1\n      pop\n        /* \"#utility.yul\":7:82   */\n      swap1\n      jump\t// out\n        /* \"#utility.yul\":88:205   */\n    tag_124:\n        /* \"#utility.yul\":197:198   */\n      0x00\n        /* \"#utility.yul\":194:195   */\n      0x00\n        /* \"#utility.yul\":187:199   */\n      revert\n        /* \"#utility.yul\":211:328   */\n    tag_125:\n        /* \"#utility.yul\":320:321   */\n      0x00\n        /* \"#utility.yul\":317:318   */\n      0x00\n        /* \"#utility.yul\":310:322   */\n      revert\n        /* \"#utility.yul\":334:460   */\n    tag_126:\n        /* \"#utility.yul\":371:378   */\n      0x00\n        /* \"#utility.yul\":411:453   */\n      0xffffffffffffffffffffffffffffffffffffffff\n        /* \"#utility.yul\":404:409   */\n      dup3\n        /* \"#utility.yul\":400:454   */\n      and\n        /* \"#utility.yul\":389:454   */\n      swap1\n      pop\n        /* \"#utility.yul\":334:460   */\n      swap2\n      swap1\n      pop\n      jump\t// out\n        /* \"#utility.yul\":466:562   */\n    tag_127:\n        /* \"#utility.yul\":503:510   */\n      0x00\n        /* \"#utility.yul\":532:556   */\n      tag_181\n        /* \"#utility.yul\":550:555   */\n      dup3\n        /* \"#utility.yul\":532:556   */\n      tag_126\n      jump\t// in\n    tag_181:\n        /* \"#utility.yul\":521:556   */\n      swap1\n      pop\n        /* \"#utility.yul\":466:562   */\n      swap2\n      swap1\n      pop\n      jump\t// out\n        /* \"#utility.yul\":568:690   */\n    tag_128:\n        /* \"#utility.yul\":641:665   */\n      tag_183\n        /* \"#utility.yul\":659:664   */\n      dup2\n        /* \"#utility.yul\":641:665   */\n      tag_127\n      jump\t// in\n    tag_183:\n        /* \"#utility.yul\":634:639   */\n      dup2\n        /* \"#utility.yul\":631:666   */\n      eq\n        /* \"#utility.yul\":621:684   */\n      tag_184\n      jumpi\n        /* \"#utility.yul\":680:681   */\n      0x00\n        /* \"#utility.yul\":677:678   */\n      0x00\n        /* \"#utility.yul\":670:682   */\n      revert\n        /* \"#utility.yul\":621:684   */\n    tag_184:\n        /* \"#utility.yul\":568:690   */\n      pop\n      jump\t// out\n        /* \"#utility.yul\":696:835   */\n    tag_129:\n        /* \"#utility.yul\":742:747   */\n      0x00\n        /* \"#utility.yul\":780:786   */\n      dup2\n        /* \"#utility.yul\":767:787   */\n      calldataload\n        /* \"#utility.yul\":758:787   */\n      swap1\n      pop\n        /* \"#utility.yul\":796:829   */\n      tag_186\n        /* \"#utility.yul\":823:828   */\n      dup2\n        /* \"#utility.yul\":796:829   */\n      tag_128\n      jump\t// in\n    tag_186:\n        /* \"#utility.yul\":696:835   */\n      swap3\n      swap2\n      pop\n      pop\n      jump\t// out\n        /* \"#utility.yul\":841:1170   */\n    tag_10:\n        /* \"#utility.yul\":900:906   */\n      0x00\n        /* \"#utility.yul\":949:951   */\n      0x20\n        /* \"#utility.yul\":937:946   */\n      dup3\n        /* \"#utility.yul\":928:935   */\n      dup5\n        /* \"#utility.yul\":924:947   */\n      sub\n        /* \"#utility.yul\":920:952   */\n      slt\n        /* \"#utility.yul\":917:1036   */\n      iszero\n      tag_188\n      jumpi\n        /* \"#utility.yul\":955:1034   */\n      tag_189\n      tag_124\n      jump\t// in\n    tag_189:\n        /* \"#utility.yul\":917:1036   */\n    tag_188:\n        /* \"#utility.yul\":1075:1076   */\n      0x00\n        /* \"#utility.yul\":1100:1153   */\n      tag_190\n        /* \"#utility.yul\":1145:1152   */\n      dup5\n        /* \"#utility.yul\":1136:1142   */\n      dup3\n        /* \"#utility.yul\":1125:1134   */\n      dup6\n        /* \"#utility.yul\":1121:1143   */\n      add\n        /* \"#utility.yul\":1100:1153   */\n      tag_129\n      jump\t// in\n    tag_190:\n        /* \"#utility.yul\":1090:1153   */\n      swap2\n      pop\n        /* \"#utility.yul\":1046:1163   */\n      pop\n        /* \"#utility.yul\":841:1170   */\n      swap3\n      swap2\n      pop\n      pop\n      jump\t// out\n        /* \"#utility.yul\":1176:1275   */\n    tag_130:\n        /* \"#utility.yul\":1228:1234   */\n      0x00\n        /* \"#utility.yul\":1262:1267   */\n      dup2\n        /* \"#utility.yul\":1256:1268   */\n      mload\n        /* \"#utility.yul\":1246:1268   */\n      swap1\n      pop\n        /* \"#utility.yul\":1176:1275   */\n      swap2\n      swap1\n      pop\n      jump\t// out\n        /* \"#utility.yul\":1281:1450   */\n    tag_131:\n        /* \"#utility.yul\":1365:1376   */\n      0x00\n        /* \"#utility.yul\":1399:1405   */\n      dup3\n        /* \"#utility.yul\":1394:1397   */\n      dup3\n        /* \"#utility.yul\":1387:1406   */\n      mstore\n        /* \"#utility.yul\":1439:1443   */\n      0x20\n        /* \"#utility.yul\":1434:1437   */\n      dup3\n        /* \"#utility.yul\":1430:1444   */\n      add\n        /* \"#utility.yul\":1415:1444   */\n      swap1\n      pop\n        /* \"#utility.yul\":1281:1450   */\n      swap3\n      swap2\n      pop\n      pop\n      jump\t// out\n        /* \"#utility.yul\":1456:1595   */\n    tag_132:\n        /* \"#utility.yul\":1545:1551   */\n      dup3\n        /* \"#utility.yul\":1540:1543   */\n      dup2\n        /* \"#utility.yul\":1535:1538   */\n      dup4\n        /* \"#utility.yul\":1529:1552   */\n      mcopy\n        /* \"#utility.yul\":1586:1587   */\n      0x00\n        /* \"#utility.yul\":1577:1583   */\n      dup4\n        /* \"#utility.yul\":1572:1575   */\n      dup4\n        /* \"#utility.yul\":1568:1584   */\n      add\n        /* \"#utility.yul\":1561:1588   */\n      mstore\n        /* \"#utility.yul\":1456:1595   */\n      pop\n      pop\n      pop\n      jump\t// out\n        /* \"#utility.yul\":1601:1703   */\n    tag_133:\n        /* \"#utility.yul\":1642:1648   */\n      0x00\n        /* \"#utility.yul\":1693:1695   */\n      0x1f\n        /* \"#utility.yul\":1689:1696   */\n      not\n        /* \"#utility.yul\":1684:1686   */\n      0x1f\n        /* \"#utility.yul\":1677:1682   */\n      dup4\n        /* \"#utility.yul\":1673:1687   */\n      add\n        /* \"#utility.yul\":1669:1697   */\n      and\n        /* \"#utility.yul\":1659:1697   */\n      swap1\n      pop\n        /* \"#utility.yul\":1601:1703   */\n      swap2\n      swap1\n      pop\n      jump\t// out\n        /* \"#utility.yul\":1709:2086   */\n    tag_134:\n        /* \"#utility.yul\":1797:1800   */\n      0x00\n        /* \"#utility.yul\":1825:1864   */\n      tag_196\n        /* \"#utility.yul\":1858:1863   */\n      dup3\n        /* \"#utility.yul\":1825:1864   */\n      tag_130\n      jump\t// in\n    tag_196:\n        /* \"#utility.yul\":1880:1951   */\n      tag_197\n        /* \"#utility.yul\":1944:1950   */\n      dup2\n        /* \"#utility.yul\":1939:1942   */\n      dup6\n        /* \"#utility.yul\":1880:1951   */\n      tag_131\n      jump\t// in\n    tag_197:\n        /* \"#utility.yul\":1873:1951   */\n      swap4\n      pop\n        /* \"#utility.yul\":1960:2025   */\n      tag_198\n        /* \"#utility.yul\":2018:2024   */\n      dup2\n        /* \"#utility.yul\":2013:2016   */\n      dup6\n        /* \"#utility.yul\":2006:2010   */\n      0x20\n        /* \"#utility.yul\":1999:2004   */\n      dup7\n        /* \"#utility.yul\":1995:2011   */\n      add\n        /* \"#utility.yul\":1960:2025   */\n      tag_132\n      jump\t// in\n    tag_198:\n        /* \"#utility.yul\":2050:2079   */\n      tag_199\n        /* \"#utility.yul\":2072:2078   */\n      dup2\n        /* \"#utility.yul\":2050:2079   */\n      tag_133\n      jump\t// in\n    tag_199:\n        /* \"#utility.yul\":2045:2048   */\n      dup5\n        /* \"#utility.yul\":2041:2080   */\n      add\n        /* \"#utility.yul\":2034:2080   */\n      swap2\n      pop\n        /* \"#utility.yul\":1801:2086   */\n      pop\n        /* \"#utility.yul\":1709:2086   */\n      swap3\n      swap2\n      pop\n      pop\n      jump\t// out\n        /* \"#utility.yul\":2092:2182   */\n    tag_135:\n        /* \"#utility.yul\":2126:2133   */\n      0x00\n        /* \"#utility.yul\":2169:2174   */\n      dup2\n        /* \"#utility.yul\":2162:2175   */\n      iszero\n        /* \"#utility.yul\":2155:2176   */\n      iszero\n        /* \"#utility.yul\":2144:2176   */\n      swap1\n      pop\n        /* \"#utility.yul\":2092:2182   */\n      swap2\n      swap1\n      pop\n      jump\t// out\n        /* \"#utility.yul\":2188:2297   */\n    tag_136:\n        /* \"#utility.yul\":2269:2290   */\n      tag_202\n        /* \"#utility.yul\":2284:2289   */\n      dup2\n        /* \"#utility.yul\":2269:2290   */\n      tag_135\n      jump\t// in\n    tag_202:\n        /* \"#utility.yul\":2264:2267   */\n      dup3\n        /* \"#utility.yul\":2257:2291   */\n      mstore\n        /* \"#utility.yul\":2188:2297   */\n      pop\n      pop\n      jump\t// out\n        /* \"#utility.yul\":2303:3723   */\n    tag_13:\n        /* \"#utility.yul\":2678:2682   */\n      0x00\n        /* \"#utility.yul\":2716:2719   */\n      0xe0\n        /* \"#utility.yul\":2705:2714   */\n      dup3\n        /* \"#utility.yul\":2701:2720   */\n      add\n        /* \"#utility.yul\":2693:2720   */\n      swap1\n      pop\n        /* \"#utility.yul\":2766:2775   */\n      dup2\n        /* \"#utility.yul\":2760:2764   */\n      dup2\n        /* \"#utility.yul\":2756:2776   */\n      sub\n        /* \"#utility.yul\":2752:2753   */\n      0x00\n        /* \"#utility.yul\":2741:2750   */\n      dup4\n        /* \"#utility.yul\":2737:2754   */\n      add\n        /* \"#utility.yul\":2730:2777   */\n      mstore\n        /* \"#utility.yul\":2794:2872   */\n      tag_204\n        /* \"#utility.yul\":2867:2871   */\n      dup2\n        /* \"#utility.yul\":2858:2864   */\n      dup11\n        /* \"#utility.yul\":2794:2872   */\n      tag_134\n      jump\t// in\n    tag_204:\n        /* \"#utility.yul\":2786:2872   */\n      swap1\n      pop\n        /* \"#utility.yul\":2919:2928   */\n      dup2\n        /* \"#utility.yul\":2913:2917   */\n      dup2\n        /* \"#utility.yul\":2909:2929   */\n      sub\n        /* \"#utility.yul\":2904:2906   */\n      0x20\n        /* \"#utility.yul\":2893:2902   */\n      dup4\n        /* \"#utility.yul\":2889:2907   */\n      add\n        /* \"#utility.yul\":2882:2930   */\n      mstore\n        /* \"#utility.yul\":2947:3025   */\n      tag_205\n        /* \"#utility.yul\":3020:3024   */\n      dup2\n        /* \"#utility.yul\":3011:3017   */\n      dup10\n        /* \"#utility.yul\":2947:3025   */\n      tag_134\n      jump\t// in\n    tag_205:\n        /* \"#utility.yul\":2939:3025   */\n      swap1\n      pop\n        /* \"#utility.yul\":3072:3081   */\n      dup2\n        /* \"#utility.yul\":3066:3070   */\n      dup2\n        /* \"#utility.yul\":3062:3082   */\n      sub\n        /* \"#utility.yul\":3057:3059   */\n      0x40\n        /* \"#utility.yul\":3046:3055   */\n      dup4\n        /* \"#utility.yul\":3042:3060   */\n      add\n        /* \"#utility.yul\":3035:3083   */\n      mstore\n        /* \"#utility.yul\":3100:3178   */\n      tag_206\n        /* \"#utility.yul\":3173:3177   */\n      dup2\n        /* \"#utility.yul\":3164:3170   */\n      dup9\n        /* \"#utility.yul\":3100:3178   */\n      tag_134\n      jump\t// in\n    tag_206:\n        /* \"#utility.yul\":3092:3178   */\n      swap1\n      pop\n        /* \"#utility.yul\":3225:3234   */\n      dup2\n        /* \"#utility.yul\":3219:3223   */\n      dup2\n        /* \"#utility.yul\":3215:3235   */\n      sub\n        /* \"#utility.yul\":3210:3212   */\n      0x60\n        /* \"#utility.yul\":3199:3208   */\n      dup4\n        /* \"#utility.yul\":3195:3213   */\n      add\n        /* \"#utility.yul\":3188:3236   */\n      mstore\n        /* \"#utility.yul\":3253:3331   */\n      tag_207\n        /* \"#utility.yul\":3326:3330   */\n      dup2\n        /* \"#utility.yul\":3317:3323   */\n      dup8\n        /* \"#utility.yul\":3253:3331   */\n      tag_134\n      jump\t// in\n    tag_207:\n        /* \"#utility.yul\":3245:3331   */\n      swap1\n      pop\n        /* \"#utility.yul\":3379:3388   */\n      dup2\n        /* \"#utility.yul\":3373:3377   */\n      dup2\n        /* \"#utility.yul\":3369:3389   */\n      sub\n        /* \"#utility.yul\":3363:3366   */\n      0x80\n        /* \"#utility.yul\":3352:3361   */\n      dup4\n        /* \"#utility.yul\":3348:3367   */\n      add\n        /* \"#utility.yul\":3341:3390   */\n      mstore\n        /* \"#utility.yul\":3407:3485   */\n      tag_208\n        /* \"#utility.yul\":3480:3484   */\n      dup2\n        /* \"#utility.yul\":3471:3477   */\n      dup7\n        /* \"#utility.yul\":3407:3485   */\n      tag_134\n      jump\t// in\n    tag_208:\n        /* \"#utility.yul\":3399:3485   */\n      swap1\n      pop\n        /* \"#utility.yul\":3533:3542   */\n      dup2\n        /* \"#utility.yul\":3527:3531   */\n      dup2\n        /* \"#utility.yul\":3523:3543   */\n      sub\n        /* \"#utility.yul\":3517:3520   */\n      0xa0\n        /* \"#utility.yul\":3506:3515   */\n      dup4\n        /* \"#utility.yul\":3502:3521   */\n      add\n        /* \"#utility.yul\":3495:3544   */\n      mstore\n        /* \"#utility.yul\":3561:3639   */\n      tag_209\n        /* \"#utility.yul\":3634:3638   */\n      dup2\n        /* \"#utility.yul\":3625:3631   */\n      dup6\n        /* \"#utility.yul\":3561:3639   */\n      tag_134\n      jump\t// in\n    tag_209:\n        /* \"#utility.yul\":3553:3639   */\n      swap1\n      pop\n        /* \"#utility.yul\":3649:3716   */\n      tag_210\n        /* \"#utility.yul\":3711:3714   */\n      0xc0\n        /* \"#utility.yul\":3700:3709   */\n      dup4\n        /* \"#utility.yul\":3696:3715   */\n      add\n        /* \"#utility.yul\":3687:3693   */\n      dup5\n        /* \"#utility.yul\":3649:3716   */\n      tag_136\n      jump\t// in\n    tag_210:\n        /* \"#utility.yul\":2303:3723   */\n      swap9\n      swap8\n      pop\n      pop\n      pop\n      pop\n      pop\n      pop\n      pop\n      pop\n      jump\t// out\n        /* \"#utility.yul\":3729:3846   */\n    tag_137:\n        /* \"#utility.yul\":3838:3839   */\n      0x00\n        /* \"#utility.yul\":3835:3836   */\n      0x00\n        /* \"#utility.yul\":3828:3840   */\n      revert\n        /* \"#utility.yul\":3852:3969   */\n    tag_138:\n        /* \"#utility.yul\":3961:3962   */\n      0x00\n        /* \"#utility.yul\":3958:3959   */\n      0x00\n        /* \"#utility.yul\":3951:3963   */\n      revert\n        /* \"#utility.yul\":3975:4155   */\n    tag_139:\n        /* \"#utility.yul\":4023:4100   */\n      0x4e487b7100000000000000000000000000000000000000000000000000000000\n        /* \"#utility.yul\":4020:4021   */\n      0x00\n        /* \"#utility.yul\":4013:4101   */\n      mstore\n        /* \"#utility.yul\":4120:4124   */\n      0x41\n        /* \"#utility.yul\":4117:4118   */\n      0x04\n        /* \"#utility.yul\":4110:4125   */\n      mstore\n        /* \"#utility.yul\":4144:4148   */\n      0x24\n        /* \"#utility.yul\":4141:4142   */\n      0x00\n        /* \"#utility.yul\":4134:4149   */\n      revert\n        /* \"#utility.yul\":4161:4442   */\n    tag_140:\n        /* \"#utility.yul\":4244:4271   */\n      tag_215\n        /* \"#utility.yul\":4266:4270   */\n      dup3\n        /* \"#utility.yul\":4244:4271   */\n      tag_133\n      jump\t// in\n    tag_215:\n        /* \"#utility.yul\":4236:4242   */\n      dup2\n        /* \"#utility.yul\":4232:4272   */\n      add\n        /* \"#utility.yul\":4374:4380   */\n      dup2\n        /* \"#utility.yul\":4362:4372   */\n      dup2\n        /* \"#utility.yul\":4359:4381   */\n      lt\n        /* \"#utility.yul\":4338:4356   */\n      0xffffffffffffffff\n        /* \"#utility.yul\":4326:4336   */\n      dup3\n        /* \"#utility.yul\":4323:4357   */\n      gt\n        /* \"#utility.yul\":4320:4382   */\n      or\n        /* \"#utility.yul\":4317:4405   */\n      iszero\n      tag_216\n      jumpi\n        /* \"#utility.yul\":4385:4403   */\n      tag_217\n      tag_139\n      jump\t// in\n    tag_217:\n        /* \"#utility.yul\":4317:4405   */\n    tag_216:\n        /* \"#utility.yul\":4425:4435   */\n      dup1\n        /* \"#utility.yul\":4421:4423   */\n      0x40\n        /* \"#utility.yul\":4414:4436   */\n      mstore\n        /* \"#utility.yul\":4204:4442   */\n      pop\n        /* \"#utility.yul\":4161:4442   */\n      pop\n      pop\n      jump\t// out\n        /* \"#utility.yul\":4448:4577   */\n    tag_141:\n        /* \"#utility.yul\":4482:4488   */\n      0x00\n        /* \"#utility.yul\":4509:4529   */\n      tag_219\n      tag_123\n      jump\t// in\n    tag_219:\n        /* \"#utility.yul\":4499:4529   */\n      swap1\n      pop\n        /* \"#utility.yul\":4538:4571   */\n      tag_220\n        /* \"#utility.yul\":4566:4570   */\n      dup3\n        /* \"#utility.yul\":4558:4564   */\n      dup3\n        /* \"#utility.yul\":4538:4571   */\n      tag_140\n      jump\t// in\n    tag_220:\n        /* \"#utility.yul\":4448:4577   */\n      swap2\n      swap1\n      pop\n      jump\t// out\n        /* \"#utility.yul\":4583:4891   */\n    tag_142:\n        /* \"#utility.yul\":4645:4649   */\n      0x00\n        /* \"#utility.yul\":4735:4753   */\n      0xffffffffffffffff\n        /* \"#utility.yul\":4727:4733   */\n      dup3\n        /* \"#utility.yul\":4724:4754   */\n      gt\n        /* \"#utility.yul\":4721:4777   */\n      iszero\n      tag_222\n      jumpi\n        /* \"#utility.yul\":4757:4775   */\n      tag_223\n      tag_139\n      jump\t// in\n    tag_223:\n        /* \"#utility.yul\":4721:4777   */\n    tag_222:\n        /* \"#utility.yul\":4795:4824   */\n      tag_224\n        /* \"#utility.yul\":4817:4823   */\n      dup3\n        /* \"#utility.yul\":4795:4824   */\n      tag_133\n      jump\t// in\n    tag_224:\n        /* \"#utility.yul\":4787:4824   */\n      swap1\n      pop\n        /* \"#utility.yul\":4879:4883   */\n      0x20\n        /* \"#utility.yul\":4873:4877   */\n      dup2\n        /* \"#utility.yul\":4869:4884   */\n      add\n        /* \"#utility.yul\":4861:4884   */\n      swap1\n      pop\n        /* \"#utility.yul\":4583:4891   */\n      swap2\n      swap1\n      pop\n      jump\t// out\n        /* \"#utility.yul\":4897:5045   */\n    tag_143:\n        /* \"#utility.yul\":4995:5001   */\n      dup3\n        /* \"#utility.yul\":4990:4993   */\n      dup2\n        /* \"#utility.yul\":4985:4988   */\n      dup4\n        /* \"#utility.yul\":4972:5002   */\n      calldatacopy\n        /* \"#utility.yul\":5036:5037   */\n      0x00\n        /* \"#utility.yul\":5027:5033   */\n      dup4\n        /* \"#utility.yul\":5022:5025   */\n      dup4\n        /* \"#utility.yul\":5018:5034   */\n      add\n        /* \"#utility.yul\":5011:5038   */\n      mstore\n        /* \"#utility.yul\":4897:5045   */\n      pop\n      pop\n      pop\n      jump\t// out\n        /* \"#utility.yul\":5051:5476   */\n    tag_144:\n        /* \"#utility.yul\":5129:5134   */\n      0x00\n        /* \"#utility.yul\":5154:5220   */\n      tag_227\n        /* \"#utility.yul\":5170:5219   */\n      tag_228\n        /* \"#utility.yul\":5212:5218   */\n      dup5\n        /* \"#utility.yul\":5170:5219   */\n      tag_142\n      jump\t// in\n    tag_228:\n        /* \"#utility.yul\":5154:5220   */\n      tag_141\n      jump\t// in\n    tag_227:\n        /* \"#utility.yul\":5145:5220   */\n      swap1\n      pop\n        /* \"#utility.yul\":5243:5249   */\n      dup3\n        /* \"#utility.yul\":5236:5241   */\n      dup2\n        /* \"#utility.yul\":5229:5250   */\n      mstore\n        /* \"#utility.yul\":5281:5285   */\n      0x20\n        /* \"#utility.yul\":5274:5279   */\n      dup2\n        /* \"#utility.yul\":5270:5286   */\n      add\n        /* \"#utility.yul\":5319:5322   */\n      dup5\n        /* \"#utility.yul\":5310:5316   */\n      dup5\n        /* \"#utility.yul\":5305:5308   */\n      dup5\n        /* \"#utility.yul\":5301:5317   */\n      add\n        /* \"#utility.yul\":5298:5323   */\n      gt\n        /* \"#utility.yul\":5295:5407   */\n      iszero\n      tag_229\n      jumpi\n        /* \"#utility.yul\":5326:5405   */\n      tag_230\n      tag_138\n      jump\t// in\n    tag_230:\n        /* \"#utility.yul\":5295:5407   */\n    tag_229:\n        /* \"#utility.yul\":5416:5470   */\n      tag_231\n        /* \"#utility.yul\":5463:5469   */\n      dup5\n        /* \"#utility.yul\":5458:5461   */\n      dup3\n        /* \"#utility.yul\":5453:5456   */\n      dup6\n        /* \"#utility.yul\":5416:5470   */\n      tag_143\n      jump\t// in\n    tag_231:\n        /* \"#utility.yul\":5135:5476   */\n      pop\n        /* \"#utility.yul\":5051:5476   */\n      swap4\n      swap3\n      pop\n      pop\n      pop\n      jump\t// out\n        /* \"#utility.yul\":5496:5836   */\n    tag_145:\n        /* \"#utility.yul\":5552:5557   */\n      0x00\n        /* \"#utility.yul\":5601:5604   */\n      dup3\n        /* \"#utility.yul\":5594:5598   */\n      0x1f\n        /* \"#utility.yul\":5586:5592   */\n      dup4\n        /* \"#utility.yul\":5582:5599   */\n      add\n        /* \"#utility.yul\":5578:5605   */\n      slt\n        /* \"#utility.yul\":5568:5690   */\n      tag_233\n      jumpi\n        /* \"#utility.yul\":5609:5688   */\n      tag_234\n      tag_137\n      jump\t// in\n    tag_234:\n        /* \"#utility.yul\":5568:5690   */\n    tag_233:\n        /* \"#utility.yul\":5726:5732   */\n      dup2\n        /* \"#utility.yul\":5713:5733   */\n      calldataload\n        /* \"#utility.yul\":5751:5830   */\n      tag_235\n        /* \"#utility.yul\":5826:5829   */\n      dup5\n        /* \"#utility.yul\":5818:5824   */\n      dup3\n        /* \"#utility.yul\":5811:5815   */\n      0x20\n        /* \"#utility.yul\":5803:5809   */\n      dup7\n        /* \"#utility.yul\":5799:5816   */\n      add\n        /* \"#utility.yul\":5751:5830   */\n      tag_144\n      jump\t// in\n    tag_235:\n        /* \"#utility.yul\":5742:5830   */\n      swap2\n      pop\n        /* \"#utility.yul\":5558:5836   */\n      pop\n        /* \"#utility.yul\":5496:5836   */\n      swap3\n      swap2\n      pop\n      pop\n      jump\t// out\n        /* \"#utility.yul\":5842:7979   */\n    tag_16:\n        /* \"#utility.yul\":6006:6012   */\n      0x00\n        /* \"#utility.yul\":6014:6020   */\n      0x00\n        /* \"#utility.yul\":6022:6028   */\n      0x00\n        /* \"#utility.yul\":6030:6036   */\n      0x00\n        /* \"#utility.yul\":6038:6044   */\n      0x00\n        /* \"#utility.yul\":6046:6052   */\n      0x00\n        /* \"#utility.yul\":6095:6098   */\n      0xc0\n        /* \"#utility.yul\":6083:6092   */\n      dup8\n        /* \"#utility.yul\":6074:6081   */\n      dup10\n        /* \"#utility.yul\":6070:6093   */\n      sub\n        /* \"#utility.yul\":6066:6099   */\n      slt\n        /* \"#utility.yul\":6063:6183   */\n      iszero\n      tag_237\n      jumpi\n        /* \"#utility.yul\":6102:6181   */\n      tag_238\n      tag_124\n      jump\t// in\n    tag_238:\n        /* \"#utility.yul\":6063:6183   */\n    tag_237:\n        /* \"#utility.yul\":6250:6251   */\n      0x00\n        /* \"#utility.yul\":6239:6248   */\n      dup8\n        /* \"#utility.yul\":6235:6252   */\n      add\n        /* \"#utility.yul\":6222:6253   */\n      calldataload\n        /* \"#utility.yul\":6280:6298   */\n      0xffffffffffffffff\n        /* \"#utility.yul\":6272:6278   */\n      dup2\n        /* \"#utility.yul\":6269:6299   */\n      gt\n        /* \"#utility.yul\":6266:6383   */\n      iszero\n      tag_239\n      jumpi\n        /* \"#utility.yul\":6302:6381   */\n      tag_240\n      tag_125\n      jump\t// in\n    tag_240:\n        /* \"#utility.yul\":6266:6383   */\n    tag_239:\n        /* \"#utility.yul\":6407:6470   */\n      tag_241\n        /* \"#utility.yul\":6462:6469   */\n      dup10\n        /* \"#utility.yul\":6453:6459   */\n      dup3\n        /* \"#utility.yul\":6442:6451   */\n      dup11\n        /* \"#utility.yul\":6438:6460   */\n      add\n        /* \"#utility.yul\":6407:6470   */\n      tag_145\n      jump\t// in\n    tag_241:\n        /* \"#utility.yul\":6397:6470   */\n      swap7\n      pop\n        /* \"#utility.yul\":6193:6480   */\n      pop\n        /* \"#utility.yul\":6547:6549   */\n      0x20\n        /* \"#utility.yul\":6536:6545   */\n      dup8\n        /* \"#utility.yul\":6532:6550   */\n      add\n        /* \"#utility.yul\":6519:6551   */\n      calldataload\n        /* \"#utility.yul\":6578:6596   */\n      0xffffffffffffffff\n        /* \"#utility.yul\":6570:6576   */\n      dup2\n        /* \"#utility.yul\":6567:6597   */\n      gt\n        /* \"#utility.yul\":6564:6681   */\n      iszero\n      tag_242\n      jumpi\n        /* \"#utility.yul\":6600:6679   */\n      tag_243\n      tag_125\n      jump\t// in\n    tag_243:\n        /* \"#utility.yul\":6564:6681   */\n    tag_242:\n        /* \"#utility.yul\":6705:6768   */\n      tag_244\n        /* \"#utility.yul\":6760:6767   */\n      dup10\n        /* \"#utility.yul\":6751:6757   */\n      dup3\n        /* \"#utility.yul\":6740:6749   */\n      dup11\n        /* \"#utility.yul\":6736:6758   */\n      add\n        /* \"#utility.yul\":6705:6768   */\n      tag_145\n      jump\t// in\n    tag_244:\n        /* \"#utility.yul\":6695:6768   */\n      swap6\n      pop\n        /* \"#utility.yul\":6490:6778   */\n      pop\n        /* \"#utility.yul\":6845:6847   */\n      0x40\n        /* \"#utility.yul\":6834:6843   */\n      dup8\n        /* \"#utility.yul\":6830:6848   */\n      add\n        /* \"#utility.yul\":6817:6849   */\n      calldataload\n        /* \"#utility.yul\":6876:6894   */\n      0xffffffffffffffff\n        /* \"#utility.yul\":6868:6874   */\n      dup2\n        /* \"#utility.yul\":6865:6895   */\n      gt\n        /* \"#utility.yul\":6862:6979   */\n      iszero\n      tag_245\n      jumpi\n        /* \"#utility.yul\":6898:6977   */\n      tag_246\n      tag_125\n      jump\t// in\n    tag_246:\n        /* \"#utility.yul\":6862:6979   */\n    tag_245:\n        /* \"#utility.yul\":7003:7066   */\n      tag_247\n        /* \"#utility.yul\":7058:7065   */\n      dup10\n        /* \"#utility.yul\":7049:7055   */\n      dup3\n        /* \"#utility.yul\":7038:7047   */\n      dup11\n        /* \"#utility.yul\":7034:7056   */\n      add\n        /* \"#utility.yul\":7003:7066   */\n      tag_145\n      jump\t// in\n    tag_247:\n        /* \"#utility.yul\":6993:7066   */\n      swap5\n      pop\n        /* \"#utility.yul\":6788:7076   */\n      pop\n        /* \"#utility.yul\":7143:7145   */\n      0x60\n        /* \"#utility.yul\":7132:7141   */\n      dup8\n        /* \"#utility.yul\":7128:7146   */\n      add\n        /* \"#utility.yul\":7115:7147   */\n      calldataload\n        /* \"#utility.yul\":7174:7192   */\n      0xffffffffffffffff\n        /* \"#utility.yul\":7166:7172   */\n      dup2\n        /* \"#utility.yul\":7163:7193   */\n      gt\n        /* \"#utility.yul\":7160:7277   */\n      iszero\n      tag_248\n      jumpi\n        /* \"#utility.yul\":7196:7275   */\n      tag_249\n      tag_125\n      jump\t// in\n    tag_249:\n        /* \"#utility.yul\":7160:7277   */\n    tag_248:\n        /* \"#utility.yul\":7301:7364   */\n      tag_250\n        /* \"#utility.yul\":7356:7363   */\n      dup10\n        /* \"#utility.yul\":7347:7353   */\n      dup3\n        /* \"#utility.yul\":7336:7345   */\n      dup11\n        /* \"#utility.yul\":7332:7354   */\n      add\n        /* \"#utility.yul\":7301:7364   */\n      tag_145\n      jump\t// in\n    tag_250:\n        /* \"#utility.yul\":7291:7364   */\n      swap4\n      pop\n        /* \"#utility.yul\":7086:7374   */\n      pop\n        /* \"#utility.yul\":7441:7444   */\n      0x80\n        /* \"#utility.yul\":7430:7439   */\n      dup8\n        /* \"#utility.yul\":7426:7445   */\n      add\n        /* \"#utility.yul\":7413:7446   */\n      calldataload\n        /* \"#utility.yul\":7473:7491   */\n      0xffffffffffffffff\n        /* \"#utility.yul\":7465:7471   */\n      dup2\n        /* \"#utility.yul\":7462:7492   */\n      gt\n        /* \"#utility.yul\":7459:7576   */\n      iszero\n      tag_251\n      jumpi\n        /* \"#utility.yul\":7495:7574   */\n      tag_252\n      tag_125\n      jump\t// in\n    tag_252:\n        /* \"#utility.yul\":7459:7576   */\n    tag_251:\n        /* \"#utility.yul\":7600:7663   */\n      tag_253\n        /* \"#utility.yul\":7655:7662   */\n      dup10\n        /* \"#utility.yul\":7646:7652   */\n      dup3\n        /* \"#utility.yul\":7635:7644   */\n      dup11\n        /* \"#utility.yul\":7631:7653   */\n      add\n        /* \"#utility.yul\":7600:7663   */\n      tag_145\n      jump\t// in\n    tag_253:\n        /* \"#utility.yul\":7590:7663   */\n      swap3\n      pop\n        /* \"#utility.yul\":7384:7673   */\n      pop\n        /* \"#utility.yul\":7740:7743   */\n      0xa0\n        /* \"#utility.yul\":7729:7738   */\n      dup8\n        /* \"#utility.yul\":7725:7744   */\n      add\n        /* \"#utility.yul\":7712:7745   */\n      calldataload\n        /* \"#utility.yul\":7772:7790   */\n      0xffffffffffffffff\n        /* \"#utility.yul\":7764:7770   */\n      dup2\n        /* \"#utility.yul\":7761:7791   */\n      gt\n        /* \"#utility.yul\":7758:7875   */\n      iszero\n      tag_254\n      jumpi\n        /* \"#utility.yul\":7794:7873   */\n      tag_255\n      tag_125\n      jump\t// in\n    tag_255:\n        /* \"#utility.yul\":7758:7875   */\n    tag_254:\n        /* \"#utility.yul\":7899:7962   */\n      tag_256\n        /* \"#utility.yul\":7954:7961   */\n      dup10\n        /* \"#utility.yul\":7945:7951   */\n      dup3\n        /* \"#utility.yul\":7934:7943   */\n      dup11\n        /* \"#utility.yul\":7930:7952   */\n      add\n        /* \"#utility.yul\":7899:7962   */\n      tag_145\n      jump\t// in\n    tag_256:\n        /* \"#utility.yul\":7889:7962   */\n      swap2\n      pop\n        /* \"#utility.yul\":7683:7972   */\n      pop\n        /* \"#utility.yul\":5842:7979   */\n      swap3\n      swap6\n      pop\n      swap3\n      swap6\n      pop\n      swap3\n      swap6\n      jump\t// out\n        /* \"#utility.yul\":7985:8109   */\n    tag_146:\n        /* \"#utility.yul\":8062:8068   */\n      0x00\n        /* \"#utility.yul\":8096:8101   */\n      dup2\n        /* \"#utility.yul\":8090:8102   */\n      mload\n        /* \"#utility.yul\":8080:8102   */\n      swap1\n      pop\n        /* \"#utility.yul\":7985:8109   */\n      swap2\n      swap1\n      pop\n      jump\t// out\n        /* \"#utility.yul\":8115:8309   */\n    tag_147:\n        /* \"#utility.yul\":8224:8235   */\n      0x00\n        /* \"#utility.yul\":8258:8264   */\n      dup3\n        /* \"#utility.yul\":8253:8256   */\n      dup3\n        /* \"#utility.yul\":8246:8265   */\n      mstore\n        /* \"#utility.yul\":8298:8302   */\n      0x20\n        /* \"#utility.yul\":8293:8296   */\n      dup3\n        /* \"#utility.yul\":8289:8303   */\n      add\n        /* \"#utility.yul\":8274:8303   */\n      swap1\n      pop\n        /* \"#utility.yul\":8115:8309   */\n      swap3\n      swap2\n      pop\n      pop\n      jump\t// out\n        /* \"#utility.yul\":8315:8457   */\n    tag_148:\n        /* \"#utility.yul\":8392:8396   */\n      0x00\n        /* \"#utility.yul\":8415:8418   */\n      dup2\n        /* \"#utility.yul\":8407:8418   */\n      swap1\n      pop\n        /* \"#utility.yul\":8445:8449   */\n      0x20\n        /* \"#utility.yul\":8440:8443   */\n      dup3\n        /* \"#utility.yul\":8436:8450   */\n      add\n        /* \"#utility.yul\":8428:8450   */\n      swap1\n      pop\n        /* \"#utility.yul\":8315:8457   */\n      swap2\n      swap1\n      pop\n      jump\t// out\n        /* \"#utility.yul\":8463:8622   */\n    tag_149:\n        /* \"#utility.yul\":8537:8548   */\n      0x00\n        /* \"#utility.yul\":8571:8577   */\n      dup3\n        /* \"#utility.yul\":8566:8569   */\n      dup3\n        /* \"#utility.yul\":8559:8578   */\n      mstore\n        /* \"#utility.yul\":8611:8615   */\n      0x20\n        /* \"#utility.yul\":8606:8609   */\n      dup3\n        /* \"#utility.yul\":8602:8616   */\n      add\n        /* \"#utility.yul\":8587:8616   */\n      swap1\n      pop\n        /* \"#utility.yul\":8463:8622   */\n      swap3\n      swap2\n      pop\n      pop\n      jump\t// out\n        /* \"#utility.yul\":8628:8985   */\n    tag_150:\n        /* \"#utility.yul\":8706:8709   */\n      0x00\n        /* \"#utility.yul\":8734:8773   */\n      tag_262\n        /* \"#utility.yul\":8767:8772   */\n      dup3\n        /* \"#utility.yul\":8734:8773   */\n      tag_130\n      jump\t// in\n    tag_262:\n        /* \"#utility.yul\":8789:8850   */\n      tag_263\n        /* \"#utility.yul\":8843:8849   */\n      dup2\n        /* \"#utility.yul\":8838:8841   */\n      dup6\n        /* \"#utility.yul\":8789:8850   */\n      tag_149\n      jump\t// in\n    tag_263:\n        /* \"#utility.yul\":8782:8850   */\n      swap4\n      pop\n        /* \"#utility.yul\":8859:8924   */\n      tag_264\n        /* \"#utility.yul\":8917:8923   */\n      dup2\n        /* \"#utility.yul\":8912:8915   */\n      dup6\n        /* \"#utility.yul\":8905:8909   */\n      0x20\n        /* \"#utility.yul\":8898:8903   */\n      dup7\n        /* \"#utility.yul\":8894:8910   */\n      add\n        /* \"#utility.yul\":8859:8924   */\n      tag_132\n      jump\t// in\n    tag_264:\n        /* \"#utility.yul\":8949:8978   */\n      tag_265\n        /* \"#utility.yul\":8971:8977   */\n      dup2\n        /* \"#utility.yul\":8949:8978   */\n      tag_133\n      jump\t// in\n    tag_265:\n        /* \"#utility.yul\":8944:8947   */\n      dup5\n        /* \"#utility.yul\":8940:8979   */\n      add\n        /* \"#utility.yul\":8933:8979   */\n      swap2\n      pop\n        /* \"#utility.yul\":8710:8985   */\n      pop\n        /* \"#utility.yul\":8628:8985   */\n      swap3\n      swap2\n      pop\n      pop\n      jump\t// out\n        /* \"#utility.yul\":8991:9187   */\n    tag_151:\n        /* \"#utility.yul\":9080:9090   */\n      0x00\n        /* \"#utility.yul\":9115:9181   */\n      tag_267\n        /* \"#utility.yul\":9177:9180   */\n      dup4\n        /* \"#utility.yul\":9169:9175   */\n      dup4\n        /* \"#utility.yul\":9115:9181   */\n      tag_150\n      jump\t// in\n    tag_267:\n        /* \"#utility.yul\":9101:9181   */\n      swap1\n      pop\n        /* \"#utility.yul\":8991:9187   */\n      swap3\n      swap2\n      pop\n      pop\n      jump\t// out\n        /* \"#utility.yul\":9193:9316   */\n    tag_152:\n        /* \"#utility.yul\":9273:9277   */\n      0x00\n        /* \"#utility.yul\":9305:9309   */\n      0x20\n        /* \"#utility.yul\":9300:9303   */\n      dup3\n        /* \"#utility.yul\":9296:9310   */\n      add\n        /* \"#utility.yul\":9288:9310   */\n      swap1\n      pop\n        /* \"#utility.yul\":9193:9316   */\n      swap2\n      swap1\n      pop\n      jump\t// out\n        /* \"#utility.yul\":9350:10341   */\n    tag_153:\n        /* \"#utility.yul\":9489:9492   */\n      0x00\n        /* \"#utility.yul\":9518:9582   */\n      tag_270\n        /* \"#utility.yul\":9576:9581   */\n      dup3\n        /* \"#utility.yul\":9518:9582   */\n      tag_146\n      jump\t// in\n    tag_270:\n        /* \"#utility.yul\":9598:9694   */\n      tag_271\n        /* \"#utility.yul\":9687:9693   */\n      dup2\n        /* \"#utility.yul\":9682:9685   */\n      dup6\n        /* \"#utility.yul\":9598:9694   */\n      tag_147\n      jump\t// in\n    tag_271:\n        /* \"#utility.yul\":9591:9694   */\n      swap4\n      pop\n        /* \"#utility.yul\":9720:9723   */\n      dup4\n        /* \"#utility.yul\":9765:9769   */\n      0x20\n        /* \"#utility.yul\":9757:9763   */\n      dup3\n        /* \"#utility.yul\":9753:9770   */\n      mul\n        /* \"#utility.yul\":9748:9751   */\n      dup6\n        /* \"#utility.yul\":9744:9771   */\n      add\n        /* \"#utility.yul\":9795:9861   */\n      tag_272\n        /* \"#utility.yul\":9855:9860   */\n      dup6\n        /* \"#utility.yul\":9795:9861   */\n      tag_148\n      jump\t// in\n    tag_272:\n        /* \"#utility.yul\":9884:9891   */\n      dup1\n        /* \"#utility.yul\":9915:9916   */\n      0x00\n        /* \"#utility.yul\":9900:10296   */\n    tag_273:\n        /* \"#utility.yul\":9925:9931   */\n      dup6\n        /* \"#utility.yul\":9922:9923   */\n      dup2\n        /* \"#utility.yul\":9919:9932   */\n      lt\n        /* \"#utility.yul\":9900:10296   */\n      iszero\n      tag_275\n      jumpi\n        /* \"#utility.yul\":9996:10005   */\n      dup5\n        /* \"#utility.yul\":9990:9994   */\n      dup5\n        /* \"#utility.yul\":9986:10006   */\n      sub\n        /* \"#utility.yul\":9981:9984   */\n      dup10\n        /* \"#utility.yul\":9974:10007   */\n      mstore\n        /* \"#utility.yul\":10047:10053   */\n      dup2\n        /* \"#utility.yul\":10041:10054   */\n      mload\n        /* \"#utility.yul\":10075:10159   */\n      tag_276\n        /* \"#utility.yul\":10154:10158   */\n      dup6\n        /* \"#utility.yul\":10139:10152   */\n      dup3\n        /* \"#utility.yul\":10075:10159   */\n      tag_151\n      jump\t// in\n    tag_276:\n        /* \"#utility.yul\":10067:10159   */\n      swap5\n      pop\n        /* \"#utility.yul\":10182:10252   */\n      tag_277\n        /* \"#utility.yul\":10245:10251   */\n      dup4\n        /* \"#utility.yul\":10182:10252   */\n      tag_152\n      jump\t// in\n    tag_277:\n        /* \"#utility.yul\":10172:10252   */\n      swap3\n      pop\n        /* \"#utility.yul\":10281:10285   */\n      0x20\n        /* \"#utility.yul\":10276:10279   */\n      dup11\n        /* \"#utility.yul\":10272:10286   */\n      add\n        /* \"#utility.yul\":10265:10286   */\n      swap10\n      pop\n        /* \"#utility.yul\":9960:10296   */\n      pop\n        /* \"#utility.yul\":9947:9948   */\n      0x01\n        /* \"#utility.yul\":9944:9945   */\n      dup2\n        /* \"#utility.yul\":9940:9949   */\n      add\n        /* \"#utility.yul\":9935:9949   */\n      swap1\n      pop\n        /* \"#utility.yul\":9900:10296   */\n      jump(tag_273)\n    tag_275:\n        /* \"#utility.yul\":9904:9918   */\n      pop\n        /* \"#utility.yul\":10312:10316   */\n      dup3\n        /* \"#utility.yul\":10305:10316   */\n      swap8\n      pop\n        /* \"#utility.yul\":10332:10335   */\n      dup8\n        /* \"#utility.yul\":10325:10335   */\n      swap6\n      pop\n        /* \"#utility.yul\":9494:10341   */\n      pop\n      pop\n      pop\n      pop\n      pop\n        /* \"#utility.yul\":9350:10341   */\n      swap3\n      swap2\n      pop\n      pop\n      jump\t// out\n        /* \"#utility.yul\":10347:10760   */\n    tag_22:\n        /* \"#utility.yul\":10510:10514   */\n      0x00\n        /* \"#utility.yul\":10548:10550   */\n      0x20\n        /* \"#utility.yul\":10537:10546   */\n      dup3\n        /* \"#utility.yul\":10533:10551   */\n      add\n        /* \"#utility.yul\":10525:10551   */\n      swap1\n      pop\n        /* \"#utility.yul\":10597:10606   */\n      dup2\n        /* \"#utility.yul\":10591:10595   */\n      dup2\n        /* \"#utility.yul\":10587:10607   */\n      sub\n        /* \"#utility.yul\":10583:10584   */\n      0x00\n        /* \"#utility.yul\":10572:10581   */\n      dup4\n        /* \"#utility.yul\":10568:10585   */\n      add\n        /* \"#utility.yul\":10561:10608   */\n      mstore\n        /* \"#utility.yul\":10625:10753   */\n      tag_279\n        /* \"#utility.yul\":10748:10752   */\n      dup2\n        /* \"#utility.yul\":10739:10745   */\n      dup5\n        /* \"#utility.yul\":10625:10753   */\n      tag_153\n      jump\t// in\n    tag_279:\n        /* \"#utility.yul\":10617:10753   */\n      swap1\n      pop\n        /* \"#utility.yul\":10347:10760   */\n      swap3\n      swap2\n      pop\n      pop\n      jump\t// out\n        /* \"#utility.yul\":10766:11420   */\n    tag_25:\n        /* \"#utility.yul\":10844:10850   */\n      0x00\n        /* \"#utility.yul\":10852:10858   */\n      0x00\n        /* \"#utility.yul\":10901:10903   */\n      0x40\n        /* \"#utility.yul\":10889:10898   */\n      dup4\n        /* \"#utility.yul\":10880:10887   */\n      dup6\n        /* \"#utility.yul\":10876:10899   */\n      sub\n        /* \"#utility.yul\":10872:10904   */\n      slt\n        /* \"#utility.yul\":10869:10988   */\n      iszero\n      tag_281\n      jumpi\n        /* \"#utility.yul\":10907:10986   */\n      tag_282\n      tag_124\n      jump\t// in\n    tag_282:\n        /* \"#utility.yul\":10869:10988   */\n    tag_281:\n        /* \"#utility.yul\":11027:11028   */\n      0x00\n        /* \"#utility.yul\":11052:11105   */\n      tag_283\n        /* \"#utility.yul\":11097:11104   */\n      dup6\n        /* \"#utility.yul\":11088:11094   */\n      dup3\n        /* \"#utility.yul\":11077:11086   */\n      dup7\n        /* \"#utility.yul\":11073:11095   */\n      add\n        /* \"#utility.yul\":11052:11105   */\n      tag_129\n      jump\t// in\n    tag_283:\n        /* \"#utility.yul\":11042:11105   */\n      swap3\n      pop\n        /* \"#utility.yul\":10998:11115   */\n      pop\n        /* \"#utility.yul\":11182:11184   */\n      0x20\n        /* \"#utility.yul\":11171:11180   */\n      dup4\n        /* \"#utility.yul\":11167:11185   */\n      add\n        /* \"#utility.yul\":11154:11186   */\n      calldataload\n        /* \"#utility.yul\":11213:11231   */\n      0xffffffffffffffff\n        /* \"#utility.yul\":11205:11211   */\n      dup2\n        /* \"#utility.yul\":11202:11232   */\n      gt\n        /* \"#utility.yul\":11199:11316   */\n      iszero\n      tag_284\n      jumpi\n        /* \"#utility.yul\":11235:11314   */\n      tag_285\n      tag_125\n      jump\t// in\n    tag_285:\n        /* \"#utility.yul\":11199:11316   */\n    tag_284:\n        /* \"#utility.yul\":11340:11403   */\n      tag_286\n        /* \"#utility.yul\":11395:11402   */\n      dup6\n        /* \"#utility.yul\":11386:11392   */\n      dup3\n        /* \"#utility.yul\":11375:11384   */\n      dup7\n        /* \"#utility.yul\":11371:11393   */\n      add\n        /* \"#utility.yul\":11340:11403   */\n      tag_145\n      jump\t// in\n    tag_286:\n        /* \"#utility.yul\":11330:11403   */\n      swap2\n      pop\n        /* \"#utility.yul\":11125:11413   */\n      pop\n        /* \"#utility.yul\":10766:11420   */\n      swap3\n      pop\n      swap3\n      swap1\n      pop\n      jump\t// out\n        /* \"#utility.yul\":11426:12747   */\n    tag_31:\n        /* \"#utility.yul\":11779:11783   */\n      0x00\n        /* \"#utility.yul\":11817:11820   */\n      0xc0\n        /* \"#utility.yul\":11806:11815   */\n      dup3\n        /* \"#utility.yul\":11802:11821   */\n      add\n        /* \"#utility.yul\":11794:11821   */\n      swap1\n      pop\n        /* \"#utility.yul\":11867:11876   */\n      dup2\n        /* \"#utility.yul\":11861:11865   */\n      dup2\n        /* \"#utility.yul\":11857:11877   */\n      sub\n        /* \"#utility.yul\":11853:11854   */\n      0x00\n        /* \"#utility.yul\":11842:11851   */\n      dup4\n        /* \"#utility.yul\":11838:11855   */\n      add\n        /* \"#utility.yul\":11831:11878   */\n      mstore\n        /* \"#utility.yul\":11895:11973   */\n      tag_288\n        /* \"#utility.yul\":11968:11972   */\n      dup2\n        /* \"#utility.yul\":11959:11965   */\n      dup10\n        /* \"#utility.yul\":11895:11973   */\n      tag_134\n      jump\t// in\n    tag_288:\n        /* \"#utility.yul\":11887:11973   */\n      swap1\n      pop\n        /* \"#utility.yul\":12020:12029   */\n      dup2\n        /* \"#utility.yul\":12014:12018   */\n      dup2\n        /* \"#utility.yul\":12010:12030   */\n      sub\n        /* \"#utility.yul\":12005:12007   */\n      0x20\n        /* \"#utility.yul\":11994:12003   */\n      dup4\n        /* \"#utility.yul\":11990:12008   */\n      add\n        /* \"#utility.yul\":11983:12031   */\n      mstore\n        /* \"#utility.yul\":12048:12126   */\n      tag_289\n        /* \"#utility.yul\":12121:12125   */\n      dup2\n        /* \"#utility.yul\":12112:12118   */\n      dup9\n        /* \"#utility.yul\":12048:12126   */\n      tag_134\n      jump\t// in\n    tag_289:\n        /* \"#utility.yul\":12040:12126   */\n      swap1\n      pop\n        /* \"#utility.yul\":12173:12182   */\n      dup2\n        /* \"#utility.yul\":12167:12171   */\n      dup2\n        /* \"#utility.yul\":12163:12183   */\n      sub\n        /* \"#utility.yul\":12158:12160   */\n      0x40\n        /* \"#utility.yul\":12147:12156   */\n      dup4\n        /* \"#utility.yul\":12143:12161   */\n      add\n        /* \"#utility.yul\":12136:12184   */\n      mstore\n        /* \"#utility.yul\":12201:12279   */\n      tag_290\n        /* \"#utility.yul\":12274:12278   */\n      dup2\n        /* \"#utility.yul\":12265:12271   */\n      dup8\n        /* \"#utility.yul\":12201:12279   */\n      tag_134\n      jump\t// in\n    tag_290:\n        /* \"#utility.yul\":12193:12279   */\n      swap1\n      pop\n        /* \"#utility.yul\":12326:12335   */\n      dup2\n        /* \"#utility.yul\":12320:12324   */\n      dup2\n        /* \"#utility.yul\":12316:12336   */\n      sub\n        /* \"#utility.yul\":12311:12313   */\n      0x60\n        /* \"#utility.yul\":12300:12309   */\n      dup4\n        /* \"#utility.yul\":12296:12314   */\n      add\n        /* \"#utility.yul\":12289:12337   */\n      mstore\n        /* \"#utility.yul\":12354:12432   */\n      tag_291\n        /* \"#utility.yul\":12427:12431   */\n      dup2\n        /* \"#utility.yul\":12418:12424   */\n      dup7\n        /* \"#utility.yul\":12354:12432   */\n      tag_134\n      jump\t// in\n    tag_291:\n        /* \"#utility.yul\":12346:12432   */\n      swap1\n      pop\n        /* \"#utility.yul\":12480:12489   */\n      dup2\n        /* \"#utility.yul\":12474:12478   */\n      dup2\n        /* \"#utility.yul\":12470:12490   */\n      sub\n        /* \"#utility.yul\":12464:12467   */\n      0x80\n        /* \"#utility.yul\":12453:12462   */\n      dup4\n        /* \"#utility.yul\":12449:12468   */\n      add\n        /* \"#utility.yul\":12442:12491   */\n      mstore\n        /* \"#utility.yul\":12508:12586   */\n      tag_292\n        /* \"#utility.yul\":12581:12585   */\n      dup2\n        /* \"#utility.yul\":12572:12578   */\n      dup6\n        /* \"#utility.yul\":12508:12586   */\n      tag_134\n      jump\t// in\n    tag_292:\n        /* \"#utility.yul\":12500:12586   */\n      swap1\n      pop\n        /* \"#utility.yul\":12634:12643   */\n      dup2\n        /* \"#utility.yul\":12628:12632   */\n      dup2\n        /* \"#utility.yul\":12624:12644   */\n      sub\n        /* \"#utility.yul\":12618:12621   */\n      0xa0\n        /* \"#utility.yul\":12607:12616   */\n      dup4\n        /* \"#utility.yul\":12603:12622   */\n      add\n        /* \"#utility.yul\":12596:12645   */\n      mstore\n        /* \"#utility.yul\":12662:12740   */\n      tag_293\n        /* \"#utility.yul\":12735:12739   */\n      dup2\n        /* \"#utility.yul\":12726:12732   */\n      dup5\n        /* \"#utility.yul\":12662:12740   */\n      tag_134\n      jump\t// in\n    tag_293:\n        /* \"#utility.yul\":12654:12740   */\n      swap1\n      pop\n        /* \"#utility.yul\":11426:12747   */\n      swap8\n      swap7\n      pop\n      pop\n      pop\n      pop\n      pop\n      pop\n      pop\n      jump\t// out\n        /* \"#utility.yul\":12753:12933   */\n    tag_154:\n        /* \"#utility.yul\":12801:12878   */\n      0x4e487b7100000000000000000000000000000000000000000000000000000000\n        /* \"#utility.yul\":12798:12799   */\n      0x00\n        /* \"#utility.yul\":12791:12879   */\n      mstore\n        /* \"#utility.yul\":12898:12902   */\n      0x22\n        /* \"#utility.yul\":12895:12896   */\n      0x04\n        /* \"#utility.yul\":12888:12903   */\n      mstore\n        /* \"#utility.yul\":12922:12926   */\n      0x24\n        /* \"#utility.yul\":12919:12920   */\n      0x00\n        /* \"#utility.yul\":12912:12927   */\n      revert\n        /* \"#utility.yul\":12939:13259   */\n    tag_33:\n        /* \"#utility.yul\":12983:12989   */\n      0x00\n        /* \"#utility.yul\":13020:13021   */\n      0x02\n        /* \"#utility.yul\":13014:13018   */\n      dup3\n        /* \"#utility.yul\":13010:13022   */\n      div\n        /* \"#utility.yul\":13000:13022   */\n      swap1\n      pop\n        /* \"#utility.yul\":13067:13068   */\n      0x01\n        /* \"#utility.yul\":13061:13065   */\n      dup3\n        /* \"#utility.yul\":13057:13069   */\n      and\n        /* \"#utility.yul\":13088:13106   */\n      dup1\n        /* \"#utility.yul\":13078:13159   */\n      tag_296\n      jumpi\n        /* \"#utility.yul\":13144:13148   */\n      0x7f\n        /* \"#utility.yul\":13136:13142   */\n      dup3\n        /* \"#utility.yul\":13132:13149   */\n      and\n        /* \"#utility.yul\":13122:13149   */\n      swap2\n      pop\n        /* \"#utility.yul\":13078:13159   */\n    tag_296:\n        /* \"#utility.yul\":13206:13208   */\n      0x20\n        /* \"#utility.yul\":13198:13204   */\n      dup3\n        /* \"#utility.yul\":13195:13209   */\n      lt\n        /* \"#utility.yul\":13175:13193   */\n      dup2\n        /* \"#utility.yul\":13172:13210   */\n      sub\n        /* \"#utility.yul\":13169:13253   */\n      tag_297\n      jumpi\n        /* \"#utility.yul\":13225:13243   */\n      tag_298\n      tag_154\n      jump\t// in\n    tag_298:\n        /* \"#utility.yul\":13169:13253   */\n    tag_297:\n        /* \"#utility.yul\":12990:13259   */\n      pop\n        /* \"#utility.yul\":12939:13259   */\n      swap2\n      swap1\n      pop\n      jump\t// out\n        /* \"#utility.yul\":13265:13433   */\n    tag_155:\n        /* \"#utility.yul\":13405:13425   */\n      0x416c726561647920726567697374657265640000000000000000000000000000\n        /* \"#utility.yul\":13401:13402   */\n      0x00\n        /* \"#utility.yul\":13393:13399   */\n      dup3\n        /* \"#utility.yul\":13389:13403   */\n      add\n        /* \"#utility.yul\":13382:13426   */\n      mstore\n        /* \"#utility.yul\":13265:13433   */\n      pop\n      jump\t// out\n        /* \"#utility.yul\":13439:13805   */\n    tag_156:\n        /* \"#utility.yul\":13581:13584   */\n      0x00\n        /* \"#utility.yul\":13602:13669   */\n      tag_301\n        /* \"#utility.yul\":13666:13668   */\n      0x12\n        /* \"#utility.yul\":13661:13664   */\n      dup4\n        /* \"#utility.yul\":13602:13669   */\n      tag_131\n      jump\t// in\n    tag_301:\n        /* \"#utility.yul\":13595:13669   */\n      swap2\n      pop\n        /* \"#utility.yul\":13678:13771   */\n      tag_302\n        /* \"#utility.yul\":13767:13770   */\n      dup3\n        /* \"#utility.yul\":13678:13771   */\n      tag_155\n      jump\t// in\n    tag_302:\n        /* \"#utility.yul\":13796:13798   */\n      0x20\n        /* \"#utility.yul\":13791:13794   */\n      dup3\n        /* \"#utility.yul\":13787:13799   */\n      add\n        /* \"#utility.yul\":13780:13799   */\n      swap1\n      pop\n        /* \"#utility.yul\":13439:13805   */\n      swap2\n      swap1\n      pop\n      jump\t// out\n        /* \"#utility.yul\":13811:14230   */\n    tag_66:\n        /* \"#utility.yul\":13977:13981   */\n      0x00\n        /* \"#utility.yul\":14015:14017   */\n      0x20\n        /* \"#utility.yul\":14004:14013   */\n      dup3\n        /* \"#utility.yul\":14000:14018   */\n      add\n        /* \"#utility.yul\":13992:14018   */\n      swap1\n      pop\n        /* \"#utility.yul\":14064:14073   */\n      dup2\n        /* \"#utility.yul\":14058:14062   */\n      dup2\n        /* \"#utility.yul\":14054:14074   */\n      sub\n        /* \"#utility.yul\":14050:14051   */\n      0x00\n        /* \"#utility.yul\":14039:14048   */\n      dup4\n        /* \"#utility.yul\":14035:14052   */\n      add\n        /* \"#utility.yul\":14028:14075   */\n      mstore\n        /* \"#utility.yul\":14092:14223   */\n      tag_304\n        /* \"#utility.yul\":14218:14222   */\n      dup2\n        /* \"#utility.yul\":14092:14223   */\n      tag_156\n      jump\t// in\n    tag_304:\n        /* \"#utility.yul\":14084:14223   */\n      swap1\n      pop\n        /* \"#utility.yul\":13811:14230   */\n      swap2\n      swap1\n      pop\n      jump\t// out\n        /* \"#utility.yul\":14236:14377   */\n    tag_157:\n        /* \"#utility.yul\":14285:14289   */\n      0x00\n        /* \"#utility.yul\":14308:14311   */\n      dup2\n        /* \"#utility.yul\":14300:14311   */\n      swap1\n      pop\n        /* \"#utility.yul\":14331:14334   */\n      dup2\n        /* \"#utility.yul\":14328:14329   */\n      0x00\n        /* \"#utility.yul\":14321:14335   */\n      mstore\n        /* \"#utility.yul\":14365:14369   */\n      0x20\n        /* \"#utility.yul\":14362:14363   */\n      0x00\n        /* \"#utility.yul\":14352:14370   */\n      keccak256\n        /* \"#utility.yul\":14344:14370   */\n      swap1\n      pop\n        /* \"#utility.yul\":14236:14377   */\n      swap2\n      swap1\n      pop\n      jump\t// out\n        /* \"#utility.yul\":14383:14476   */\n    tag_158:\n        /* \"#utility.yul\":14420:14426   */\n      0x00\n        /* \"#utility.yul\":14467:14469   */\n      0x20\n        /* \"#utility.yul\":14462:14464   */\n      0x1f\n        /* \"#utility.yul\":14455:14460   */\n      dup4\n        /* \"#utility.yul\":14451:14465   */\n      add\n        /* \"#utility.yul\":14447:14470   */\n      div\n        /* \"#utility.yul\":14437:14470   */\n      swap1\n      pop\n        /* \"#utility.yul\":14383:14476   */\n      swap2\n      swap1\n      pop\n      jump\t// out\n        /* \"#utility.yul\":14482:14589   */\n    tag_159:\n        /* \"#utility.yul\":14526:14534   */\n      0x00\n        /* \"#utility.yul\":14576:14581   */\n      dup3\n        /* \"#utility.yul\":14570:14574   */\n      dup3\n        /* \"#utility.yul\":14566:14582   */\n      shl\n        /* \"#utility.yul\":14545:14582   */\n      swap1\n      pop\n        /* \"#utility.yul\":14482:14589   */\n      swap3\n      swap2\n      pop\n      pop\n      jump\t// out\n        /* \"#utility.yul\":14595:14988   */\n    tag_160:\n        /* \"#utility.yul\":14664:14670   */\n      0x00\n        /* \"#utility.yul\":14714:14715   */\n      0x08\n        /* \"#utility.yul\":14702:14712   */\n      dup4\n        /* \"#utility.yul\":14698:14716   */\n      mul\n        /* \"#utility.yul\":14737:14834   */\n      tag_309\n        /* \"#utility.yul\":14767:14833   */\n      0xffffffffffffffffffffffffffffffffffffffffffffffffffffffffffffffff\n        /* \"#utility.yul\":14756:14765   */\n      dup3\n        /* \"#utility.yul\":14737:14834   */\n      tag_159\n      jump\t// in\n    tag_309:\n        /* \"#utility.yul\":14855:14894   */\n      tag_310\n        /* \"#utility.yul\":14885:14893   */\n      dup7\n        /* \"#utility.yul\":14874:14883   */\n      dup4\n        /* \"#utility.yul\":14855:14894   */\n      tag_159\n      jump\t// in\n    tag_310:\n        /* \"#utility.yul\":14843:14894   */\n      swap6\n      pop\n        /* \"#utility.yul\":14927:14931   */\n      dup1\n        /* \"#utility.yul\":14923:14932   */\n      not\n        /* \"#utility.yul\":14916:14921   */\n      dup5\n        /* \"#utility.yul\":14912:14933   */\n      and\n        /* \"#utility.yul\":14903:14933   */\n      swap4\n      pop\n        /* \"#utility.yul\":14976:14980   */\n      dup1\n        /* \"#utility.yul\":14966:14974   */\n      dup7\n        /* \"#utility.yul\":14962:14981   */\n      and\n        /* \"#utility.yul\":14955:14960   */\n      dup5\n        /* \"#utility.yul\":14952:14982   */\n      or\n        /* \"#utility.yul\":14942:14982   */\n      swap3\n      pop\n        /* \"#utility.yul\":14671:14988   */\n      pop\n      pop\n        /* \"#utility.yul\":14595:14988   */\n      swap4\n      swap3\n      pop\n      pop\n      pop\n      jump\t// out\n        /* \"#utility.yul\":14994:15071   */\n    tag_161:\n        /* \"#utility.yul\":15031:15038   */\n      0x00\n        /* \"#utility.yul\":15060:15065   */\n      dup2\n        /* \"#utility.yul\":15049:15065   */\n      swap1\n      pop\n        /* \"#utility.yul\":14994:15071   */\n      swap2\n      swap1\n      pop\n      jump\t// out\n        /* \"#utility.yul\":15077:15137   */\n    tag_162:\n        /* \"#utility.yul\":15105:15108   */\n      0x00\n        /* \"#utility.yul\":15126:15131   */\n      dup2\n        /* \"#utility.yul\":15119:15131   */\n      swap1\n      pop\n        /* \"#utility.yul\":15077:15137   */\n      swap2\n      swap1\n      pop\n      jump\t// out\n        /* \"#utility.yul\":15143:15285   */\n    tag_163:\n        /* \"#utility.yul\":15193:15202   */\n      0x00\n        /* \"#utility.yul\":15226:15279   */\n      tag_314\n        /* \"#utility.yul\":15244:15278   */\n      tag_315\n        /* \"#utility.yul\":15253:15277   */\n      tag_316\n        /* \"#utility.yul\":15271:15276   */\n      dup5\n        /* \"#utility.yul\":15253:15277   */\n      tag_161\n      jump\t// in\n    tag_316:\n        /* \"#utility.yul\":15244:15278   */\n      tag_162\n      jump\t// in\n    tag_315:\n        /* \"#utility.yul\":15226:15279   */\n      tag_161\n      jump\t// in\n    tag_314:\n        /* \"#utility.yul\":15213:15279   */\n      swap1\n      pop\n        /* \"#utility.yul\":15143:15285   */\n      swap2\n      swap1\n      pop\n      jump\t// out\n        /* \"#utility.yul\":15291:15366   */\n    tag_164:\n        /* \"#utility.yul\":15334:15337   */\n      0x00\n        /* \"#utility.yul\":15355:15360   */\n      dup2\n        /* \"#utility.yul\":15348:15360   */\n      swap1\n      pop\n        /* \"#utility.yul\":15291:15366   */\n      swap2\n      swap1\n      pop\n      jump\t// out\n        /* \"#utility.yul\":15372:15641   */\n    tag_165:\n        /* \"#utility.yul\":15482:15521   */\n      tag_319\n        /* \"#utility.yul\":15513:15520   */\n      dup4\n        /* \"#utility.yul\":15482:15521   */\n      tag_163\n      jump\t// in\n    tag_319:\n        /* \"#utility.yul\":15543:15634   */\n      tag_320\n        /* \"#utility.yul\":15592:15633   */\n      tag_321\n        /* \"#utility.yul\":15616:15632   */\n      dup3\n        /* \"#utility.yul\":15592:15633   */\n      tag_164\n      jump\t// in\n    tag_321:\n        /* \"#utility.yul\":15584:15590   */\n      dup5\n        /* \"#utility.yul\":15577:15581   */\n      dup5\n        /* \"#utility.yul\":15571:15582   */\n      sload\n        /* \"#utility.yul\":15543:15634   */\n      tag_160\n      jump\t// in\n    tag_320:\n        /* \"#utility.yul\":15537:15541   */\n      dup3\n        /* \"#utility.yul\":15530:15635   */\n      sstore\n        /* \"#utility.yul\":15448:15641   */\n      pop\n        /* \"#utility.yul\":15372:15641   */\n      pop\n      pop\n      pop\n      jump\t// out\n        /* \"#utility.yul\":15647:15720   */\n    tag_166:\n        /* \"#utility.yul\":15692:15695   */\n      0x00\n        /* \"#utility.yul\":15713:15714   */\n      0x00\n        /* \"#utility.yul\":15706:15714   */\n      swap1\n      pop\n        /* \"#utility.yul\":15647:15720   */\n      swap1\n      jump\t// out\n        /* \"#utility.yul\":15726:15915   */\n    tag_167:\n        /* \"#utility.yul\":15803:15835   */\n      tag_324\n      tag_166\n      jump\t// in\n    tag_324:\n        /* \"#utility.yul\":15844:15909   */\n      tag_325\n        /* \"#utility.yul\":15902:15908   */\n      dup2\n        /* \"#utility.yul\":15894:15900   */\n      dup5\n        /* \"#utility.yul\":15888:15892   */\n      dup5\n        /* \"#utility.yul\":15844:15909   */\n      tag_165\n      jump\t// in\n    tag_325:\n        /* \"#utility.yul\":15779:15915   */\n      pop\n        /* \"#utility.yul\":15726:15915   */\n      pop\n      pop\n      jump\t// out\n        /* \"#utility.yul\":15921:16107   */\n    tag_168:\n        /* \"#utility.yul\":15981:16101   */\n    tag_327:\n        /* \"#utility.yul\":15998:16001   */\n      dup2\n        /* \"#utility.yul\":15991:15996   */\n      dup2\n        /* \"#utility.yul\":15988:16002   */\n      lt\n        /* \"#utility.yul\":15981:16101   */\n      iszero\n      tag_329\n      jumpi\n        /* \"#utility.yul\":16052:16091   */\n      tag_330\n        /* \"#utility.yul\":16089:16090   */\n      0x00\n        /* \"#utility.yul\":16082:16087   */\n      dup3\n        /* \"#utility.yul\":16052:16091   */\n      tag_167\n      jump\t// in\n    tag_330:\n        /* \"#utility.yul\":16025:16026   */\n      0x01\n        /* \"#utility.yul\":16018:16023   */\n      dup2\n        /* \"#utility.yul\":16014:16027   */\n      add\n        /* \"#utility.yul\":16005:16027   */\n      swap1\n      pop\n        /* \"#utility.yul\":15981:16101   */\n      jump(tag_327)\n    tag_329:\n        /* \"#utility.yul\":15921:16107   */\n      pop\n      pop\n      jump\t// out\n        /* \"#utility.yul\":16113:16656   */\n    tag_169:\n        /* \"#utility.yul\":16214:16216   */\n      0x1f\n        /* \"#utility.yul\":16209:16212   */\n      dup3\n        /* \"#utility.yul\":16206:16217   */\n      gt\n        /* \"#utility.yul\":16203:16649   */\n      iszero\n      tag_332\n      jumpi\n        /* \"#utility.yul\":16248:16286   */\n      tag_333\n        /* \"#utility.yul\":16280:16285   */\n      dup2\n        /* \"#utility.yul\":16248:16286   */\n      tag_157\n      jump\t// in\n    tag_333:\n        /* \"#utility.yul\":16332:16361   */\n      tag_334\n        /* \"#utility.yul\":16350:16360   */\n      dup5\n        /* \"#utility.yul\":16332:16361   */\n      tag_158\n      jump\t// in\n    tag_334:\n        /* \"#utility.yul\":16322:16330   */\n      dup2\n        /* \"#utility.yul\":16318:16362   */\n      add\n        /* \"#utility.yul\":16515:16517   */\n      0x20\n        /* \"#utility.yul\":16503:16513   */\n      dup6\n        /* \"#utility.yul\":16500:16518   */\n      lt\n        /* \"#utility.yul\":16497:16546   */\n      iszero\n      tag_335\n      jumpi\n        /* \"#utility.yul\":16536:16544   */\n      dup2\n        /* \"#utility.yul\":16521:16544   */\n      swap1\n      pop\n        /* \"#utility.yul\":16497:16546   */\n    tag_335:\n        /* \"#utility.yul\":16559:16639   */\n      tag_336\n        /* \"#utility.yul\":16615:16637   */\n      tag_337\n        /* \"#utility.yul\":16633:16636   */\n      dup6\n        /* \"#utility.yul\":16615:16637   */\n      tag_158\n      jump\t// in\n    tag_337:\n        /* \"#utility.yul\":16605:16613   */\n      dup4\n        /* \"#utility.yul\":16601:16638   */\n      add\n        /* \"#utility.yul\":16588:16599   */\n      dup3\n        /* \"#utility.yul\":16559:16639   */\n      tag_168\n      jump\t// in\n    tag_336:\n        /* \"#utility.yul\":16218:16649   */\n      pop\n      pop\n        /* \"#utility.yul\":16203:16649   */\n    tag_332:\n        /* \"#utility.yul\":16113:16656   */\n      pop\n      pop\n      pop\n      jump\t// out\n        /* \"#utility.yul\":16662:16779   */\n    tag_170:\n        /* \"#utility.yul\":16716:16724   */\n      0x00\n        /* \"#utility.yul\":16766:16771   */\n      dup3\n        /* \"#utility.yul\":16760:16764   */\n      dup3\n        /* \"#utility.yul\":16756:16772   */\n      shr\n        /* \"#utility.yul\":16735:16772   */\n      swap1\n      pop\n        /* \"#utility.yul\":16662:16779   */\n      swap3\n      swap2\n      pop\n      pop\n      jump\t// out\n        /* \"#utility.yul\":16785:16954   */\n    tag_171:\n        /* \"#utility.yul\":16829:16835   */\n      0x00\n        /* \"#utility.yul\":16862:16913   */\n      tag_340\n        /* \"#utility.yul\":16910:16911   */\n      0x00\n        /* \"#utility.yul\":16906:16912   */\n      not\n        /* \"#utility.yul\":16898:16903   */\n      dup5\n        /* \"#utility.yul\":16895:16896   */\n      0x08\n        /* \"#utility.yul\":16891:16904   */\n      mul\n        /* \"#utility.yul\":16862:16913   */\n      tag_170\n      jump\t// in\n    tag_340:\n        /* \"#utility.yul\":16858:16914   */\n      not\n        /* \"#utility.yul\":16943:16947   */\n      dup1\n        /* \"#utility.yul\":16937:16941   */\n      dup4\n        /* \"#utility.yul\":16933:16948   */\n      and\n        /* \"#utility.yul\":16923:16948   */\n      swap2\n      pop\n        /* \"#utility.yul\":16836:16954   */\n      pop\n        /* \"#utility.yul\":16785:16954   */\n      swap3\n      swap2\n      pop\n      pop\n      jump\t// out\n        /* \"#utility.yul\":16959:17254   */\n    tag_172:\n        /* \"#utility.yul\":17035:17039   */\n      0x00\n        /* \"#utility.yul\":17181:17210   */\n      tag_342\n        /* \"#utility.yul\":17206:17209   */\n      dup4\n        /* \"#utility.yul\":17200:17204   */\n      dup4\n        /* \"#utility.yul\":17181:17210   */\n      tag_171\n      jump\t// in\n    tag_342:\n        /* \"#utility.yul\":17173:17210   */\n      swap2\n      pop\n        /* \"#utility.yul\":17243:17246   */\n      dup3\n        /* \"#utility.yul\":17240:17241   */\n      0x02\n        /* \"#utility.yul\":17236:17247   */\n      mul\n        /* \"#utility.yul\":17230:17234   */\n      dup3\n        /* \"#utility.yul\":17227:17248   */\n      or\n        /* \"#utility.yul\":17219:17248   */\n      swap1\n      pop\n        /* \"#utility.yul\":16959:17254   */\n      swap3\n      swap2\n      pop\n      pop\n      jump\t// out\n        /* \"#utility.yul\":17259:18654   */\n    tag_68:\n        /* \"#utility.yul\":17376:17413   */\n      tag_344\n        /* \"#utility.yul\":17409:17412   */\n      dup3\n        /* \"#utility.yul\":17376:17413   */\n      tag_130\n      jump\t// in\n    tag_344:\n        /* \"#utility.yul\":17478:17496   */\n      0xffffffffffffffff\n        /* \"#utility.yul\":17470:17476   */\n      dup2\n        /* \"#utility.yul\":17467:17497   */\n      gt\n        /* \"#utility.yul\":17464:17520   */\n      iszero\n      tag_345\n      jumpi\n        /* \"#utility.yul\":17500:17518   */\n      tag_346\n      tag_139\n      jump\t// in\n    tag_346:\n        /* \"#utility.yul\":17464:17520   */\n    tag_345:\n        /* \"#utility.yul\":17544:17582   */\n      tag_347\n        /* \"#utility.yul\":17576:17580   */\n      dup3\n        /* \"#utility.yul\":17570:17581   */\n      sload\n        /* \"#utility.yul\":17544:17582   */\n      tag_33\n      jump\t// in\n    tag_347:\n        /* \"#utility.yul\":17629:17696   */\n      tag_348\n        /* \"#utility.yul\":17689:17695   */\n      dup3\n        /* \"#utility.yul\":17681:17687   */\n      dup3\n        /* \"#utility.yul\":17675:17679   */\n      dup6\n        /* \"#utility.yul\":17629:17696   */\n      tag_169\n      jump\t// in\n    tag_348:\n        /* \"#utility.yul\":17723:17724   */\n      0x00\n        /* \"#utility.yul\":17747:17751   */\n      0x20\n        /* \"#utility.yul\":17734:17751   */\n      swap1\n      pop\n        /* \"#utility.yul\":17779:17781   */\n      0x1f\n        /* \"#utility.yul\":17771:17777   */\n      dup4\n        /* \"#utility.yul\":17768:17782   */\n      gt\n        /* \"#utility.yul\":17796:17797   */\n      0x01\n        /* \"#utility.yul\":17791:18409   */\n      dup2\n      eq\n      tag_350\n      jumpi\n        /* \"#utility.yul\":18453:18454   */\n      0x00\n        /* \"#utility.yul\":18470:18476   */\n      dup5\n        /* \"#utility.yul\":18467:18544   */\n      iszero\n      tag_351\n      jumpi\n        /* \"#utility.yul\":18519:18528   */\n      dup3\n        /* \"#utility.yul\":18514:18517   */\n      dup8\n        /* \"#utility.yul\":18510:18529   */\n      add\n        /* \"#utility.yul\":18504:18530   */\n      mload\n        /* \"#utility.yul\":18495:18530   */\n      swap1\n      pop\n        /* \"#utility.yul\":18467:18544   */\n    tag_351:\n        /* \"#utility.yul\":18570:18637   */\n      tag_352\n        /* \"#utility.yul\":18630:18636   */\n      dup6\n        /* \"#utility.yul\":18623:18628   */\n      dup3\n        /* \"#utility.yul\":18570:18637   */\n      tag_172\n      jump\t// in\n    tag_352:\n        /* \"#utility.yul\":18564:18568   */\n      dup7\n        /* \"#utility.yul\":18557:18638   */\n      sstore\n        /* \"#utility.yul\":18426:18648   */\n      pop\n        /* \"#utility.yul\":17761:18648   */\n      jump(tag_349)\n        /* \"#utility.yul\":17791:18409   */\n    tag_350:\n        /* \"#utility.yul\":17843:17847   */\n      0x1f\n        /* \"#utility.yul\":17839:17848   */\n      not\n        /* \"#utility.yul\":17831:17837   */\n      dup5\n        /* \"#utility.yul\":17827:17849   */\n      and\n        /* \"#utility.yul\":17877:17914   */\n      tag_353\n        /* \"#utility.yul\":17909:17913   */\n      dup7\n        /* \"#utility.yul\":17877:17914   */\n      tag_157\n      jump\t// in\n    tag_353:\n        /* \"#utility.yul\":17936:17937   */\n      0x00\n        /* \"#utility.yul\":17950:18158   */\n    tag_354:\n        /* \"#utility.yul\":17964:17971   */\n      dup3\n        /* \"#utility.yul\":17961:17962   */\n      dup2\n        /* \"#utility.yul\":17958:17972   */\n      lt\n        /* \"#utility.yul\":17950:18158   */\n      iszero\n      tag_356\n      jumpi\n        /* \"#utility.yul\":18043:18052   */\n      dup5\n        /* \"#utility.yul\":18038:18041   */\n      dup10\n        /* \"#utility.yul\":18034:18053   */\n      add\n        /* \"#utility.yul\":18028:18054   */\n      mload\n        /* \"#utility.yul\":18020:18026   */\n      dup3\n        /* \"#utility.yul\":18013:18055   */\n      sstore\n        /* \"#utility.yul\":18094:18095   */\n      0x01\n        /* \"#utility.yul\":18086:18092   */\n      dup3\n        /* \"#utility.yul\":18082:18096   */\n      add\n        /* \"#utility.yul\":18072:18096   */\n      swap2\n      pop\n        /* \"#utility.yul\":18141:18143   */\n      0x20\n        /* \"#utility.yul\":18130:18139   */\n      dup6\n        /* \"#utility.yul\":18126:18144   */\n      add\n        /* \"#utility.yul\":18113:18144   */\n      swap5\n      pop\n        /* \"#utility.yul\":17987:17991   */\n      0x20\n        /* \"#utility.yul\":17984:17985   */\n      dup2\n        /* \"#utility.yul\":17980:17992   */\n      add\n        /* \"#utility.yul\":17975:17992   */\n      swap1\n      pop\n        /* \"#utility.yul\":17950:18158   */\n      jump(tag_354)\n    tag_356:\n        /* \"#utility.yul\":18186:18192   */\n      dup7\n        /* \"#utility.yul\":18177:18184   */\n      dup4\n        /* \"#utility.yul\":18174:18193   */\n      lt\n        /* \"#utility.yul\":18171:18350   */\n      iszero\n      tag_357\n      jumpi\n        /* \"#utility.yul\":18244:18253   */\n      dup5\n        /* \"#utility.yul\":18239:18242   */\n      dup10\n        /* \"#utility.yul\":18235:18254   */\n      add\n        /* \"#utility.yul\":18229:18255   */\n      mload\n        /* \"#utility.yul\":18287:18335   */\n      tag_358\n        /* \"#utility.yul\":18329:18333   */\n      0x1f\n        /* \"#utility.yul\":18321:18327   */\n      dup10\n        /* \"#utility.yul\":18317:18334   */\n      and\n        /* \"#utility.yul\":18306:18315   */\n      dup3\n        /* \"#utility.yul\":18287:18335   */\n      tag_171\n      jump\t// in\n    tag_358:\n        /* \"#utility.yul\":18279:18285   */\n      dup4\n        /* \"#utility.yul\":18272:18336   */\n      sstore\n        /* \"#utility.yul\":18194:18350   */\n      pop\n        /* \"#utility.yul\":18171:18350   */\n    tag_357:\n        /* \"#utility.yul\":18396:18397   */\n      0x01\n        /* \"#utility.yul\":18392:18393   */\n      0x02\n        /* \"#utility.yul\":18384:18390   */\n      dup9\n        /* \"#utility.yul\":18380:18394   */\n      mul\n        /* \"#utility.yul\":18376:18398   */\n      add\n        /* \"#utility.yul\":18370:18374   */\n      dup9\n        /* \"#utility.yul\":18363:18399   */\n      sstore\n        /* \"#utility.yul\":17798:18409   */\n      pop\n      pop\n      pop\n        /* \"#utility.yul\":17761:18648   */\n    tag_349:\n      pop\n        /* \"#utility.yul\":17351:18654   */\n      pop\n      pop\n      pop\n        /* \"#utility.yul\":17259:18654   */\n      pop\n      pop\n      jump\t// out\n        /* \"#utility.yul\":18660:18973   */\n    tag_75:\n        /* \"#utility.yul\":18773:18777   */\n      0x00\n        /* \"#utility.yul\":18811:18813   */\n      0x20\n        /* \"#utility.yul\":18800:18809   */\n      dup3\n        /* \"#utility.yul\":18796:18814   */\n      add\n        /* \"#utility.yul\":18788:18814   */\n      swap1\n      pop\n        /* \"#utility.yul\":18860:18869   */\n      dup2\n        /* \"#utility.yul\":18854:18858   */\n      dup2\n        /* \"#utility.yul\":18850:18870   */\n      sub\n        /* \"#utility.yul\":18846:18847   */\n      0x00\n        /* \"#utility.yul\":18835:18844   */\n      dup4\n        /* \"#utility.yul\":18831:18848   */\n      add\n        /* \"#utility.yul\":18824:18871   */\n      mstore\n        /* \"#utility.yul\":18888:18966   */\n      tag_360\n        /* \"#utility.yul\":18961:18965   */\n      dup2\n        /* \"#utility.yul\":18952:18958   */\n      dup5\n        /* \"#utility.yul\":18888:18966   */\n      tag_134\n      jump\t// in\n    tag_360:\n        /* \"#utility.yul\":18880:18966   */\n      swap1\n      pop\n        /* \"#utility.yul\":18660:18973   */\n      swap3\n      swap2\n      pop\n      pop\n      jump\t// out\n        /* \"#utility.yul\":18979:19143   */\n    tag_173:\n        /* \"#utility.yul\":19119:19135   */\n      0x4e6f742072656769737465726564000000000000000000000000000000000000\n        /* \"#utility.yul\":19115:19116   */\n      0x00\n        /* \"#utility.yul\":19107:19113   */\n      dup3\n        /* \"#utility.yul\":19103:19117   */\n      add\n        /* \"#utility.yul\":19096:19136   */\n      mstore\n        /* \"#utility.yul\":18979:19143   */\n      pop\n      jump\t// out\n        /* \"#utility.yul\":19149:19515   */\n    tag_174:\n        /* \"#utility.yul\":19291:19294   */\n      0x00\n        /* \"#utility.yul\":19312:19379   */\n      tag_363\n        /* \"#utility.yul\":19376:19378   */\n      0x0e\n        /* \"#utility.yul\":19371:19374   */\n      dup4\n        /* \"#utility.yul\":19312:19379   */\n      tag_131\n      jump\t// in\n    tag_363:\n        /* \"#utility.yul\":19305:19379   */\n      swap2\n      pop\n        /* \"#utility.yul\":19388:19481   */\n      tag_364\n        /* \"#utility.yul\":19477:19480   */\n      dup3\n        /* \"#utility.yul\":19388:19481   */\n      tag_173\n      jump\t// in\n    tag_364:\n        /* \"#utility.yul\":19506:19508   */\n      0x20\n        /* \"#utility.yul\":19501:19504   */\n      dup3\n        /* \"#utility.yul\":19497:19509   */\n      add\n        /* \"#utility.yul\":19490:19509   */\n      swap1\n      pop\n        /* \"#utility.yul\":19149:19515   */\n      swap2\n      swap1\n      pop\n      jump\t// out\n        /* \"#utility.yul\":19521:19940   */\n    tag_88:\n        /* \"#utility.yul\":19687:19691   */\n      0x00\n        /* \"#utility.yul\":19725:19727   */\n      0x20\n        /* \"#utility.yul\":19714:19723   */\n      dup3\n        /* \"#utility.yul\":19710:19728   */\n      add\n        /* \"#utility.yul\":19702:19728   */\n      swap1\n      pop\n        /* \"#utility.yul\":19774:19783   */\n      dup2\n        /* \"#utility.yul\":19768:19772   */\n      dup2\n        /* \"#utility.yul\":19764:19784   */\n      sub\n        /* \"#utility.yul\":19760:19761   */\n      0x00\n        /* \"#utility.yul\":19749:19758   */\n      dup4\n        /* \"#utility.yul\":19745:19762   */\n      add\n        /* \"#utility.yul\":19738:19785   */\n      mstore\n        /* \"#utility.yul\":19802:19933   */\n      tag_366\n        /* \"#utility.yul\":19928:19932   */\n      dup2\n        /* \"#utility.yul\":19802:19933   */\n      tag_174\n      jump\t// in\n    tag_366:\n        /* \"#utility.yul\":19794:19933   */\n      swap1\n      pop\n        /* \"#utility.yul\":19521:19940   */\n      swap2\n      swap1\n      pop\n      jump\t// out\n\n    auxdata: 0xa2646970667358221220bda128c6e1725f81ce218c9ff536b24edddb2844a1ed5add045c7bd6ef34d12764736f6c634300081e0033\n}\n",
				"bytecode": {
					"linkReferences": {},
					"object": "6080604052348015600e575f5ffd5b506116678061001c5f395ff3fe608060405234801561000f575f5ffd5b5060043610610055575f3560e01c80630869cfbc146100595780636d26dce81461008f578063c1816dfb146100ab578063edefcf88146100db578063efe2ccc1146100f7575b5f5ffd5b610073600480360381019061006e9190610cbd565b61012c565b6040516100869796959493929190610d72565b60405180910390f35b6100a960048036038101906100a49190610f35565b610499565b005b6100c560048036038101906100c09190610cbd565b610642565b6040516100d29190611169565b60405180910390f35b6100f560048036038101906100f09190611189565b610755565b005b610111600480360381019061010c9190610cbd565b6108a1565b604051610123969594939291906111e3565b60405180910390f35b5f602052805f5260405f205f91509050805f01805461014a90611299565b80601f016020809104026020016040519081016040528092919081815260200182805461017690611299565b80156101c15780601f10610198576101008083540402835291602001916101c1565b820191905f5260205f20905b8154815290600101906020018083116101a457829003601f168201915b5050505050908060010180546101d690611299565b80601f016020809104026020016040519081016040528092919081815260200182805461020290611299565b801561024d5780601f106102245761010080835404028352916020019161024d565b820191905f5260205f20905b81548152906001019060200180831161023057829003601f168201915b50505050509080600201805461026290611299565b80601f016020809104026020016040519081016040528092919081815260200182805461028e90611299565b80156102d95780601f106102b0576101008083540402835291602001916102d9565b820191905f5260205f20905b8154815290600101906020018083116102bc57829003601f168201915b5050505050908060030180546102ee90611299565b80601f016020809104026020016040519081016040528092919081815260200182805461031a90611299565b80156103655780601f1061033c57610100808354040283529160200191610365565b820191905f5260205f20905b81548152906001019060200180831161034857829003601f168201915b50505050509080600401805461037a90611299565b80601f01602080910402602001604051908101604052809291908181526020018280546103a690611299565b80156103f15780601f106103c8576101008083540402835291602001916103f1565b820191905f5260205f20905b8154815290600101906020018083116103d457829003601f168201915b50505050509080600501805461040690611299565b80601f016020809104026020016040519081016040528092919081815260200182805461043290611299565b801561047d5780601f106104545761010080835404028352916020019161047d565b820191905f5260205f20905b81548152906001019060200180831161046057829003601f168201915b505050505090806006015f9054906101000a900460ff16905087565b5f5f3373ffffffffffffffffffffffffffffffffffffffff1673ffffffffffffffffffffffffffffffffffffffff1681526020019081526020015f206006015f9054906101000a900460ff1615610525576040517f08c379a000000000000000000000000000000000000000000000000000000000815260040161051c90611313565b60405180910390fd5b5f5f5f3373ffffffffffffffffffffffffffffffffffffffff1673ffffffffffffffffffffffffffffffffffffffff1681526020019081526020015f20905086815f01908161057491906114da565b508581600101908161058691906114da565b508481600201908161059891906114da565b50838160030190816105aa91906114da565b50828160040190816105bc91906114da565b50818160050190816105ce91906114da565b506001816006015f6101000a81548160ff0219169083151502179055503373ffffffffffffffffffffffffffffffffffffffff167fc85b128388b9c331a2a5485dce4cd0f3db9f7c279d327ce95d6d39d6c94644c78860405161063191906115a9565b60405180910390a250505050505050565b60605f5f8373ffffffffffffffffffffffffffffffffffffffff1673ffffffffffffffffffffffffffffffffffffffff1681526020019081526020015f20600701805480602002602001604051908101604052809291908181526020015f905b8282101561074a578382905f5260205f200180546106bf90611299565b80601f01602080910402602001604051908101604052809291908181526020018280546106eb90611299565b80156107365780601f1061070d57610100808354040283529160200191610736565b820191905f5260205f20905b81548152906001019060200180831161071957829003601f168201915b5050505050815260200190600101906106a2565b505050509050919050565b5f5f8373ffffffffffffffffffffffffffffffffffffffff1673ffffffffffffffffffffffffffffffffffffffff1681526020019081526020015f206006015f9054906101000a900460ff166107e0576040517f08c379a00000000000000000000000000000000000000000000000000000000081526004016107d790611613565b60405180910390fd5b5f5f8373ffffffffffffffffffffffffffffffffffffffff1673ffffffffffffffffffffffffffffffffffffffff1681526020019081526020015f2060070181908060018154018082558091505060019003905f5260205f20015f90919091909150908161084e91906114da565b508173ffffffffffffffffffffffffffffffffffffffff167f771ad20575501c8cafc4a8793006515911d6e497fd5838018654c9b50347430c8260405161089591906115a9565b60405180910390a25050565b6060806060806060805f5f5f8973ffffffffffffffffffffffffffffffffffffffff1673ffffffffffffffffffffffffffffffffffffffff1681526020019081526020015f209050805f01816001018260020183600301846004018560050185805461090c90611299565b80601f016020809104026020016040519081016040528092919081815260200182805461093890611299565b80156109835780601f1061095a57610100808354040283529160200191610983565b820191905f5260205f20905b81548152906001019060200180831161096657829003601f168201915b5050505050955084805461099690611299565b80601f01602080910402602001604051908101604052809291908181526020018280546109c290611299565b8015610a0d5780601f106109e457610100808354040283529160200191610a0d565b820191905f5260205f20905b8154815290600101906020018083116109f057829003601f168201915b50505050509450838054610a2090611299565b80601f0160208091040260200160405190810160405280929190818152602001828054610a4c90611299565b8015610a975780601f10610a6e57610100808354040283529160200191610a97565b820191905f5260205f20905b815481529060010190602001808311610a7a57829003601f168201915b50505050509350828054610aaa90611299565b80601f0160208091040260200160405190810160405280929190818152602001828054610ad690611299565b8015610b215780601f10610af857610100808354040283529160200191610b21565b820191905f5260205f20905b815481529060010190602001808311610b0457829003601f168201915b50505050509250818054610b3490611299565b80601f0160208091040260200160405190810160405280929190818152602001828054610b6090611299565b8015610bab5780601f10610b8257610100808354040283529160200191610bab565b820191905f5260205f20905b815481529060010190602001808311610b8e57829003601f168201915b50505050509150808054610bbe90611299565b80601f0160208091040260200160405190810160405280929190818152602001828054610bea90611299565b8015610c355780601f10610c0c57610100808354040283529160200191610c35565b820191905f5260205f20905b815481529060010190602001808311610c1857829003601f168201915b505050505090509650965096509650965096505091939550919395565b5f604051905090565b5f5ffd5b5f5ffd5b5f73ffffffffffffffffffffffffffffffffffffffff82169050919050565b5f610c8c82610c63565b9050919050565b610c9c81610c82565b8114610ca6575f5ffd5b50565b5f81359050610cb781610c93565b92915050565b5f60208284031215610cd257610cd1610c5b565b5b5f610cdf84828501610ca9565b91505092915050565b5f81519050919050565b5f82825260208201905092915050565b8281835e5f83830152505050565b5f601f19601f8301169050919050565b5f610d2a82610ce8565b610d348185610cf2565b9350610d44818560208601610d02565b610d4d81610d10565b840191505092915050565b5f8115159050919050565b610d6c81610d58565b82525050565b5f60e0820190508181035f830152610d8a818a610d20565b90508181036020830152610d9e8189610d20565b90508181036040830152610db28188610d20565b90508181036060830152610dc68187610d20565b90508181036080830152610dda8186610d20565b905081810360a0830152610dee8185610d20565b9050610dfd60c0830184610d63565b98975050505050505050565b5f5ffd5b5f5ffd5b7f4e487b71000000000000000000000000000000000000000000000000000000005f52604160045260245ffd5b610e4782610d10565b810181811067ffffffffffffffff82111715610e6657610e65610e11565b5b80604052505050565b5f610e78610c52565b9050610e848282610e3e565b919050565b5f67ffffffffffffffff821115610ea357610ea2610e11565b5b610eac82610d10565b9050602081019050919050565b828183375f83830152505050565b5f610ed9610ed484610e89565b610e6f565b905082815260208101848484011115610ef557610ef4610e0d565b5b610f00848285610eb9565b509392505050565b5f82601f830112610f1c57610f1b610e09565b5b8135610f2c848260208601610ec7565b91505092915050565b5f5f5f5f5f5f60c08789031215610f4f57610f4e610c5b565b5b5f87013567ffffffffffffffff811115610f6c57610f6b610c5f565b5b610f7889828a01610f08565b965050602087013567ffffffffffffffff811115610f9957610f98610c5f565b5b610fa589828a01610f08565b955050604087013567ffffffffffffffff811115610fc657610fc5610c5f565b5b610fd289828a01610f08565b945050606087013567ffffffffffffffff811115610ff357610ff2610c5f565b5b610fff89828a01610f08565b935050608087013567ffffffffffffffff8111156110205761101f610c5f565b5b61102c89828a01610f08565b92505060a087013567ffffffffffffffff81111561104d5761104c610c5f565b5b61105989828a01610f08565b9150509295509295509295565b5f81519050919050565b5f82825260208201905092915050565b5f819050602082019050919050565b5f82825260208201905092915050565b5f6110a982610ce8565b6110b3818561108f565b93506110c3818560208601610d02565b6110cc81610d10565b840191505092915050565b5f6110e2838361109f565b905092915050565b5f602082019050919050565b5f61110082611066565b61110a8185611070565b93508360208202850161111c85611080565b805f5b85811015611157578484038952815161113885826110d7565b9450611143836110ea565b925060208a0199505060018101905061111f565b50829750879550505050505092915050565b5f6020820190508181035f83015261118181846110f6565b905092915050565b5f5f6040838503121561119f5761119e610c5b565b5b5f6111ac85828601610ca9565b925050602083013567ffffffffffffffff8111156111cd576111cc610c5f565b5b6111d985828601610f08565b9150509250929050565b5f60c0820190508181035f8301526111fb8189610d20565b9050818103602083015261120f8188610d20565b905081810360408301526112238187610d20565b905081810360608301526112378186610d20565b9050818103608083015261124b8185610d20565b905081810360a083015261125f8184610d20565b9050979650505050505050565b7f4e487b71000000000000000000000000000000000000000000000000000000005f52602260045260245ffd5b5f60028204905060018216806112b057607f821691505b6020821081036112c3576112c261126c565b5b50919050565b7f416c7265616479207265676973746572656400000000000000000000000000005f82015250565b5f6112fd601283610cf2565b9150611308826112c9565b602082019050919050565b5f6020820190508181035f83015261132a816112f1565b9050919050565b5f819050815f5260205f209050919050565b5f6020601f8301049050919050565b5f82821b905092915050565b5f6008830261138d7fffffffffffffffffffffffffffffffffffffffffffffffffffffffffffffffff82611352565b6113978683611352565b95508019841693508086168417925050509392505050565b5f819050919050565b5f819050919050565b5f6113db6113d66113d1846113af565b6113b8565b6113af565b9050919050565b5f819050919050565b6113f4836113c1565b611408611400826113e2565b84845461135e565b825550505050565b5f5f905090565b61141f611410565b61142a8184846113eb565b505050565b5b8181101561144d576114425f82611417565b600181019050611430565b5050565b601f8211156114925761146381611331565b61146c84611343565b8101602085101561147b578190505b61148f61148785611343565b83018261142f565b50505b505050565b5f82821c905092915050565b5f6114b25f1984600802611497565b1980831691505092915050565b5f6114ca83836114a3565b9150826002028217905092915050565b6114e382610ce8565b67ffffffffffffffff8111156114fc576114fb610e11565b5b6115068254611299565b611511828285611451565b5f60209050601f831160018114611542575f8415611530578287015190505b61153a85826114bf565b8655506115a1565b601f19841661155086611331565b5f5b8281101561157757848901518255600182019150602085019450602081019050611552565b868310156115945784890151611590601f8916826114a3565b8355505b6001600288020188555050505b505050505050565b5f6020820190508181035f8301526115c18184610d20565b905092915050565b7f4e6f7420726567697374657265640000000000000000000000000000000000005f82015250565b5f6115fd600e83610cf2565b9150611608826115c9565b602082019050919050565b5f6020820190508181035f83015261162a816115f1565b905091905056fea2646970667358221220bda128c6e1725f81ce218c9ff536b24edddb2844a1ed5add045c7bd6ef34d12764736f6c634300081e0033",
					"opcodes": "PUSH1 0x80 PUSH1 0x40 MSTORE CALLVALUE DUP1 ISZERO PUSH1 0xE JUMPI PUSH0 PUSH0 REVERT JUMPDEST POP PUSH2 0x1667 DUP1 PUSH2 0x1C PUSH0 CODECOPY PUSH0 RETURN INVALID PUSH1 0x80 PUSH1 0x40 MSTORE CALLVALUE DUP1 ISZERO PUSH2 0xF JUMPI PUSH0 PUSH0 REVERT JUMPDEST POP PUSH1 0x4 CALLDATASIZE LT PUSH2 0x55 JUMPI PUSH0 CALLDATALOAD PUSH1 0xE0 SHR DUP1 PUSH4 0x869CFBC EQ PUSH2 0x59 JUMPI DUP1 PUSH4 0x6D26DCE8 EQ PUSH2 0x8F JUMPI DUP1 PUSH4 0xC1816DFB EQ PUSH2 0xAB JUMPI DUP1 PUSH4 0xEDEFCF88 EQ PUSH2 0xDB JUMPI DUP1 PUSH4 0xEFE2CCC1 EQ PUSH2 0xF7 JUMPI JUMPDEST PUSH0 PUSH0 REVERT JUMPDEST PUSH2 0x73 PUSH1 0x4 DUP1 CALLDATASIZE SUB DUP2 ADD SWAP1 PUSH2 0x6E SWAP2 SWAP1 PUSH2 0xCBD JUMP JUMPDEST PUSH2 0x12C JUMP JUMPDEST PUSH1 0x40 MLOAD PUSH2 0x86 SWAP8 SWAP7 SWAP6 SWAP5 SWAP4 SWAP3 SWAP2 SWAP1 PUSH2 0xD72 JUMP JUMPDEST PUSH1 0x40 MLOAD DUP1 SWAP2 SUB SWAP1 RETURN JUMPDEST PUSH2 0xA9 PUSH1 0x4 DUP1 CALLDATASIZE SUB DUP2 ADD SWAP1 PUSH2 0xA4 SWAP2 SWAP1 PUSH2 0xF35 JUMP JUMPDEST PUSH2 0x499 JUMP JUMPDEST STOP JUMPDEST PUSH2 0xC5 PUSH1 0x4 DUP1 CALLDATASIZE SUB DUP2 ADD SWAP1 PUSH2 0xC0 SWAP2 SWAP1 PUSH2 0xCBD JUMP JUMPDEST PUSH2 0x642 JUMP JUMPDEST PUSH1 0x40 MLOAD PUSH2 0xD2 SWAP2 SWAP1 PUSH2 0x1169 JUMP JUMPDEST PUSH1 0x40 MLOAD DUP1 SWAP2 SUB SWAP1 RETURN JUMPDEST PUSH2 0xF5 PUSH1 0x4 DUP1 CALLDATASIZE SUB DUP2 ADD SWAP1 PUSH2 0xF0 SWAP2 SWAP1 PUSH2 0x1189 JUMP JUMPDEST PUSH2 0x755 JUMP JUMPDEST STOP JUMPDEST PUSH2 0x111 PUSH1 0x4 DUP1 CALLDATASIZE SUB DUP2 ADD SWAP1 PUSH2 0x10C SWAP2 SWAP1 PUSH2 0xCBD JUMP JUMPDEST PUSH2 0x8A1 JUMP JUMPDEST PUSH1 0x40 MLOAD PUSH2 0x123 SWAP7 SWAP6 SWAP5 SWAP4 SWAP3 SWAP2 SWAP1 PUSH2 0x11E3 JUMP JUMPDEST PUSH1 0x40 MLOAD DUP1 SWAP2 SUB SWAP1 RETURN JUMPDEST PUSH0 PUSH1 0x20 MSTORE DUP1 PUSH0 MSTORE PUSH1 0x40 PUSH0 KECCAK256 PUSH0 SWAP2 POP SWAP1 POP DUP1 PUSH0 ADD DUP1 SLOAD PUSH2 0x14A SWAP1 PUSH2 0x1299 JUMP JUMPDEST DUP1 PUSH1 0x1F ADD PUSH1 0x20 DUP1 SWAP2 DIV MUL PUSH1 0x20 ADD PUSH1 0x40 MLOAD SWAP1 DUP2 ADD PUSH1 0x40 MSTORE DUP1 SWAP3 SWAP2 SWAP1 DUP2 DUP2 MSTORE PUSH1 0x20 ADD DUP3 DUP1 SLOAD PUSH2 0x176 SWAP1 PUSH2 0x1299 JUMP JUMPDEST DUP1 ISZERO PUSH2 0x1C1 JUMPI DUP1 PUSH1 0x1F LT PUSH2 0x198 JUMPI PUSH2 0x100 DUP1 DUP4 SLOAD DIV MUL DUP4 MSTORE SWAP2 PUSH1 0x20 ADD SWAP2 PUSH2 0x1C1 JUMP JUMPDEST DUP3 ADD SWAP2 SWAP1 PUSH0 MSTORE PUSH1 0x20 PUSH0 KECCAK256 SWAP1 JUMPDEST DUP2 SLOAD DUP2 MSTORE SWAP1 PUSH1 0x1 ADD SWAP1 PUSH1 0x20 ADD DUP1 DUP4 GT PUSH2 0x1A4 JUMPI DUP3 SWAP1 SUB PUSH1 0x1F AND DUP3 ADD SWAP2 JUMPDEST POP POP POP POP POP SWAP1 DUP1 PUSH1 0x1 ADD DUP1 SLOAD PUSH2 0x1D6 SWAP1 PUSH2 0x1299 JUMP JUMPDEST DUP1 PUSH1 0x1F ADD PUSH1 0x20 DUP1 SWAP2 DIV MUL PUSH1 0x20 ADD PUSH1 0x40 MLOAD SWAP1 DUP2 ADD PUSH1 0x40 MSTORE DUP1 SWAP3 SWAP2 SWAP1 DUP2 DUP2 MSTORE PUSH1 0x20 ADD DUP3 DUP1 SLOAD PUSH2 0x202 SWAP1 PUSH2 0x1299 JUMP JUMPDEST DUP1 ISZERO PUSH2 0x24D JUMPI DUP1 PUSH1 0x1F LT PUSH2 0x224 JUMPI PUSH2 0x100 DUP1 DUP4 SLOAD DIV MUL DUP4 MSTORE SWAP2 PUSH1 0x20 ADD SWAP2 PUSH2 0x24D JUMP JUMPDEST DUP3 ADD SWAP2 SWAP1 PUSH0 MSTORE PUSH1 0x20 PUSH0 KECCAK256 SWAP1 JUMPDEST DUP2 SLOAD DUP2 MSTORE SWAP1 PUSH1 0x1 ADD SWAP1 PUSH1 0x20 ADD DUP1 DUP4 GT PUSH2 0x230 JUMPI DUP3 SWAP1 SUB PUSH1 0x1F AND DUP3 ADD SWAP2 JUMPDEST POP POP POP POP POP SWAP1 DUP1 PUSH1 0x2 ADD DUP1 SLOAD PUSH2 0x262 SWAP1 PUSH2 0x1299 JUMP JUMPDEST DUP1 PUSH1 0x1F ADD PUSH1 0x20 DUP1 SWAP2 DIV MUL PUSH1 0x20 ADD PUSH1 0x40 MLOAD SWAP1 DUP2 ADD PUSH1 0x40 MSTORE DUP1 SWAP3 SWAP2 SWAP1 DUP2 DUP2 MSTORE PUSH1 0x20 ADD DUP3 DUP1 SLOAD PUSH2 0x28E SWAP1 PUSH2 0x1299 JUMP JUMPDEST DUP1 ISZERO PUSH2 0x2D9 JUMPI DUP1 PUSH1 0x1F LT PUSH2 0x2B0 JUMPI PUSH2 0x100 DUP1 DUP4 SLOAD DIV MUL DUP4 MSTORE SWAP2 PUSH1 0x20 ADD SWAP2 PUSH2 0x2D9 JUMP JUMPDEST DUP3 ADD SWAP2 SWAP1 PUSH0 MSTORE PUSH1 0x20 PUSH0 KECCAK256 SWAP1 JUMPDEST DUP2 SLOAD DUP2 MSTORE SWAP1 PUSH1 0x1 ADD SWAP1 PUSH1 0x20 ADD DUP1 DUP4 GT PUSH2 0x2BC JUMPI DUP3 SWAP1 SUB PUSH1 0x1F AND DUP3 ADD SWAP2 JUMPDEST POP POP POP POP POP SWAP1 DUP1 PUSH1 0x3 ADD DUP1 SLOAD PUSH2 0x2EE SWAP1 PUSH2 0x1299 JUMP JUMPDEST DUP1 PUSH1 0x1F ADD PUSH1 0x20 DUP1 SWAP2 DIV MUL PUSH1 0x20 ADD PUSH1 0x40 MLOAD SWAP1 DUP2 ADD PUSH1 0x40 MSTORE DUP1 SWAP3 SWAP2 SWAP1 DUP2 DUP2 MSTORE PUSH1 0x20 ADD DUP3 DUP1 SLOAD PUSH2 0x31A SWAP1 PUSH2 0x1299 JUMP JUMPDEST DUP1 ISZERO PUSH2 0x365 JUMPI DUP1 PUSH1 0x1F LT PUSH2 0x33C JUMPI PUSH2 0x100 DUP1 DUP4 SLOAD DIV MUL DUP4 MSTORE SWAP2 PUSH1 0x20 ADD SWAP2 PUSH2 0x365 JUMP JUMPDEST DUP3 ADD SWAP2 SWAP1 PUSH0 MSTORE PUSH1 0x20 PUSH0 KECCAK256 SWAP1 JUMPDEST DUP2 SLOAD DUP2 MSTORE SWAP1 PUSH1 0x1 ADD SWAP1 PUSH1 0x20 ADD DUP1 DUP4 GT PUSH2 0x348 JUMPI DUP3 SWAP1 SUB PUSH1 0x1F AND DUP3 ADD SWAP2 JUMPDEST POP POP POP POP POP SWAP1 DUP1 PUSH1 0x4 ADD DUP1 SLOAD PUSH2 0x37A SWAP1 PUSH2 0x1299 JUMP JUMPDEST DUP1 PUSH1 0x1F ADD PUSH1 0x20 DUP1 SWAP2 DIV MUL PUSH1 0x20 ADD PUSH1 0x40 MLOAD SWAP1 DUP2 ADD PUSH1 0x40 MSTORE DUP1 SWAP3 SWAP2 SWAP1 DUP2 DUP2 MSTORE PUSH1 0x20 ADD DUP3 DUP1 SLOAD PUSH2 0x3A6 SWAP1 PUSH2 0x1299 JUMP JUMPDEST DUP1 ISZERO PUSH2 0x3F1 JUMPI DUP1 PUSH1 0x1F LT PUSH2 0x3C8 JUMPI PUSH2 0x100 DUP1 DUP4 SLOAD DIV MUL DUP4 MSTORE SWAP2 PUSH1 0x20 ADD SWAP2 PUSH2 0x3F1 JUMP JUMPDEST DUP3 ADD SWAP2 SWAP1 PUSH0 MSTORE PUSH1 0x20 PUSH0 KECCAK256 SWAP1 JUMPDEST DUP2 SLOAD DUP2 MSTORE SWAP1 PUSH1 0x1 ADD SWAP1 PUSH1 0x20 ADD DUP1 DUP4 GT PUSH2 0x3D4 JUMPI DUP3 SWAP1 SUB PUSH1 0x1F AND DUP3 ADD SWAP2 JUMPDEST POP POP POP POP POP SWAP1 DUP1 PUSH1 0x5 ADD DUP1 SLOAD PUSH2 0x406 SWAP1 PUSH2 0x1299 JUMP JUMPDEST DUP1 PUSH1 0x1F ADD PUSH1 0x20 DUP1 SWAP2 DIV MUL PUSH1 0x20 ADD PUSH1 0x40 MLOAD SWAP1 DUP2 ADD PUSH1 0x40 MSTORE DUP1 SWAP3 SWAP2 SWAP1 DUP2 DUP2 MSTORE PUSH1 0x20 ADD DUP3 DUP1 SLOAD PUSH2 0x432 SWAP1 PUSH2 0x1299 JUMP JUMPDEST DUP1 ISZERO PUSH2 0x47D JUMPI DUP1 PUSH1 0x1F LT PUSH2 0x454 JUMPI PUSH2 0x100 DUP1 DUP4 SLOAD DIV MUL DUP4 MSTORE SWAP2 PUSH1 0x20 ADD SWAP2 PUSH2 0x47D JUMP JUMPDEST DUP3 ADD SWAP2 SWAP1 PUSH0 MSTORE PUSH1 0x20 PUSH0 KECCAK256 SWAP1 JUMPDEST DUP2 SLOAD DUP2 MSTORE SWAP1 PUSH1 0x1 ADD SWAP1 PUSH1 0x20 ADD DUP1 DUP4 GT PUSH2 0x460 JUMPI DUP3 SWAP1 SUB PUSH1 0x1F AND DUP3 ADD SWAP2 JUMPDEST POP POP POP POP POP SWAP1 DUP1 PUSH1 0x6 ADD PUSH0 SWAP1 SLOAD SWAP1 PUSH2 0x100 EXP SWAP1 DIV PUSH1 0xFF AND SWAP1 POP DUP8 JUMP JUMPDEST PUSH0 PUSH0 CALLER PUSH20 0xFFFFFFFFFFFFFFFFFFFFFFFFFFFFFFFFFFFFFFFF AND PUSH20 0xFFFFFFFFFFFFFFFFFFFFFFFFFFFFFFFFFFFFFFFF AND DUP2 MSTORE PUSH1 0x20 ADD SWAP1 DUP2 MSTORE PUSH1 0x20 ADD PUSH0 KECCAK256 PUSH1 0x6 ADD PUSH0 SWAP1 SLOAD SWAP1 PUSH2 0x100 EXP SWAP1 DIV PUSH1 0xFF AND ISZERO PUSH2 0x525 JUMPI PUSH1 0x40 MLOAD PUSH32 0x8C379A000000000000000000000000000000000000000000000000000000000 DUP2 MSTORE PUSH1 0x4 ADD PUSH2 0x51C SWAP1 PUSH2 0x1313 JUMP JUMPDEST PUSH1 0x40 MLOAD DUP1 SWAP2 SUB SWAP1 REVERT JUMPDEST PUSH0 PUSH0 PUSH0 CALLER PUSH20 0xFFFFFFFFFFFFFFFFFFFFFFFFFFFFFFFFFFFFFFFF AND PUSH20 0xFFFFFFFFFFFFFFFFFFFFFFFFFFFFFFFFFFFFFFFF AND DUP2 MSTORE PUSH1 0x20 ADD SWAP1 DUP2 MSTORE PUSH1 0x20 ADD PUSH0 KECCAK256 SWAP1 POP DUP7 DUP2 PUSH0 ADD SWAP1 DUP2 PUSH2 0x574 SWAP2 SWAP1 PUSH2 0x14DA JUMP JUMPDEST POP DUP6 DUP2 PUSH1 0x1 ADD SWAP1 DUP2 PUSH2 0x586 SWAP2 SWAP1 PUSH2 0x14DA JUMP JUMPDEST POP DUP5 DUP2 PUSH1 0x2 ADD SWAP1 DUP2 PUSH2 0x598 SWAP2 SWAP1 PUSH2 0x14DA JUMP JUMPDEST POP DUP4 DUP2 PUSH1 0x3 ADD SWAP1 DUP2 PUSH2 0x5AA SWAP2 SWAP1 PUSH2 0x14DA JUMP JUMPDEST POP DUP3 DUP2 PUSH1 0x4 ADD SWAP1 DUP2 PUSH2 0x5BC SWAP2 SWAP1 PUSH2 0x14DA JUMP JUMPDEST POP DUP2 DUP2 PUSH1 0x5 ADD SWAP1 DUP2 PUSH2 0x5CE SWAP2 SWAP1 PUSH2 0x14DA JUMP JUMPDEST POP PUSH1 0x1 DUP2 PUSH1 0x6 ADD PUSH0 PUSH2 0x100 EXP DUP2 SLOAD DUP2 PUSH1 0xFF MUL NOT AND SWAP1 DUP4 ISZERO ISZERO MUL OR SWAP1 SSTORE POP CALLER PUSH20 0xFFFFFFFFFFFFFFFFFFFFFFFFFFFFFFFFFFFFFFFF AND PUSH32 0xC85B128388B9C331A2A5485DCE4CD0F3DB9F7C279D327CE95D6D39D6C94644C7 DUP9 PUSH1 0x40 MLOAD PUSH2 0x631 SWAP2 SWAP1 PUSH2 0x15A9 JUMP JUMPDEST PUSH1 0x40 MLOAD DUP1 SWAP2 SUB SWAP1 LOG2 POP POP POP POP POP POP POP JUMP JUMPDEST PUSH1 0x60 PUSH0 PUSH0 DUP4 PUSH20 0xFFFFFFFFFFFFFFFFFFFFFFFFFFFFFFFFFFFFFFFF AND PUSH20 0xFFFFFFFFFFFFFFFFFFFFFFFFFFFFFFFFFFFFFFFF AND DUP2 MSTORE PUSH1 0x20 ADD SWAP1 DUP2 MSTORE PUSH1 0x20 ADD PUSH0 KECCAK256 PUSH1 0x7 ADD DUP1 SLOAD DUP1 PUSH1 0x20 MUL PUSH1 0x20 ADD PUSH1 0x40 MLOAD SWAP1 DUP2 ADD PUSH1 0x40 MSTORE DUP1 SWAP3 SWAP2 SWAP1 DUP2 DUP2 MSTORE PUSH1 0x20 ADD PUSH0 SWAP1 JUMPDEST DUP3 DUP3 LT ISZERO PUSH2 0x74A JUMPI DUP4 DUP3 SWAP1 PUSH0 MSTORE PUSH1 0x20 PUSH0 KECCAK256 ADD DUP1 SLOAD PUSH2 0x6BF SWAP1 PUSH2 0x1299 JUMP JUMPDEST DUP1 PUSH1 0x1F ADD PUSH1 0x20 DUP1 SWAP2 DIV MUL PUSH1 0x20 ADD PUSH1 0x40 MLOAD SWAP1 DUP2 ADD PUSH1 0x40 MSTORE DUP1 SWAP3 SWAP2 SWAP1 DUP2 DUP2 MSTORE PUSH1 0x20 ADD DUP3 DUP1 SLOAD PUSH2 0x6EB SWAP1 PUSH2 0x1299 JUMP JUMPDEST DUP1 ISZERO PUSH2 0x736 JUMPI DUP1 PUSH1 0x1F LT PUSH2 0x70D JUMPI PUSH2 0x100 DUP1 DUP4 SLOAD DIV MUL DUP4 MSTORE SWAP2 PUSH1 0x20 ADD SWAP2 PUSH2 0x736 JUMP JUMPDEST DUP3 ADD SWAP2 SWAP1 PUSH0 MSTORE PUSH1 0x20 PUSH0 KECCAK256 SWAP1 JUMPDEST DUP2 SLOAD DUP2 MSTORE SWAP1 PUSH1 0x1 ADD SWAP1 PUSH1 0x20 ADD DUP1 DUP4 GT PUSH2 0x719 JUMPI DUP3 SWAP1 SUB PUSH1 0x1F AND DUP3 ADD SWAP2 JUMPDEST POP POP POP POP POP DUP2 MSTORE PUSH1 0x20 ADD SWAP1 PUSH1 0x1 ADD SWAP1 PUSH2 0x6A2 JUMP JUMPDEST POP POP POP POP SWAP1 POP SWAP2 SWAP1 POP JUMP JUMPDEST PUSH0 PUSH0 DUP4 PUSH20 0xFFFFFFFFFFFFFFFFFFFFFFFFFFFFFFFFFFFFFFFF AND PUSH20 0xFFFFFFFFFFFFFFFFFFFFFFFFFFFFFFFFFFFFFFFF AND DUP2 MSTORE PUSH1 0x20 ADD SWAP1 DUP2 MSTORE PUSH1 0x20 ADD PUSH0 KECCAK256 PUSH1 0x6 ADD PUSH0 SWAP1 SLOAD SWAP1 PUSH2 0x100 EXP SWAP1 DIV PUSH1 0xFF AND PUSH2 0x7E0 JUMPI PUSH1 0x40 MLOAD PUSH32 0x8C379A000000000000000000000000000000000000000000000000000000000 DUP2 MSTORE PUSH1 0x4 ADD PUSH2 0x7D7 SWAP1 PUSH2 0x1613 JUMP JUMPDEST PUSH1 0x40 MLOAD DUP1 SWAP2 SUB SWAP1 REVERT JUMPDEST PUSH0 PUSH0 DUP4 PUSH20 0xFFFFFFFFFFFFFFFFFFFFFFFFFFFFFFFFFFFFFFFF AND PUSH20 0xFFFFFFFFFFFFFFFFFFFFFFFFFFFFFFFFFFFFFFFF AND DUP2 MSTORE PUSH1 0x20 ADD SWAP1 DUP2 MSTORE PUSH1 0x20 ADD PUSH0 KECCAK256 PUSH1 0x7 ADD DUP2 SWAP1 DUP1 PUSH1 0x1 DUP2 SLOAD ADD DUP1 DUP3 SSTORE DUP1 SWAP2 POP POP PUSH1 0x1 SWAP1 SUB SWAP1 PUSH0 MSTORE PUSH1 0x20 PUSH0 KECCAK256 ADD PUSH0 SWAP1 SWAP2 SWAP1 SWAP2 SWAP1 SWAP2 POP SWAP1 DUP2 PUSH2 0x84E SWAP2 SWAP1 PUSH2 0x14DA JUMP JUMPDEST POP DUP2 PUSH20 0xFFFFFFFFFFFFFFFFFFFFFFFFFFFFFFFFFFFFFFFF AND PUSH32 0x771AD20575501C8CAFC4A8793006515911D6E497FD5838018654C9B50347430C DUP3 PUSH1 0x40 MLOAD PUSH2 0x895 SWAP2 SWAP1 PUSH2 0x15A9 JUMP JUMPDEST PUSH1 0x40 MLOAD DUP1 SWAP2 SUB SWAP1 LOG2 POP POP JUMP JUMPDEST PUSH1 0x60 DUP1 PUSH1 0x60 DUP1 PUSH1 0x60 DUP1 PUSH0 PUSH0 PUSH0 DUP10 PUSH20 0xFFFFFFFFFFFFFFFFFFFFFFFFFFFFFFFFFFFFFFFF AND PUSH20 0xFFFFFFFFFFFFFFFFFFFFFFFFFFFFFFFFFFFFFFFF AND DUP2 MSTORE PUSH1 0x20 ADD SWAP1 DUP2 MSTORE PUSH1 0x20 ADD PUSH0 KECCAK256 SWAP1 POP DUP1 PUSH0 ADD DUP2 PUSH1 0x1 ADD DUP3 PUSH1 0x2 ADD DUP4 PUSH1 0x3 ADD DUP5 PUSH1 0x4 ADD DUP6 PUSH1 0x5 ADD DUP6 DUP1 SLOAD PUSH2 0x90C SWAP1 PUSH2 0x1299 JUMP JUMPDEST DUP1 PUSH1 0x1F ADD PUSH1 0x20 DUP1 SWAP2 DIV MUL PUSH1 0x20 ADD PUSH1 0x40 MLOAD SWAP1 DUP2 ADD PUSH1 0x40 MSTORE DUP1 SWAP3 SWAP2 SWAP1 DUP2 DUP2 MSTORE PUSH1 0x20 ADD DUP3 DUP1 SLOAD PUSH2 0x938 SWAP1 PUSH2 0x1299 JUMP JUMPDEST DUP1 ISZERO PUSH2 0x983 JUMPI DUP1 PUSH1 0x1F LT PUSH2 0x95A JUMPI PUSH2 0x100 DUP1 DUP4 SLOAD DIV MUL DUP4 MSTORE SWAP2 PUSH1 0x20 ADD SWAP2 PUSH2 0x983 JUMP JUMPDEST DUP3 ADD SWAP2 SWAP1 PUSH0 MSTORE PUSH1 0x20 PUSH0 KECCAK256 SWAP1 JUMPDEST DUP2 SLOAD DUP2 MSTORE SWAP1 PUSH1 0x1 ADD SWAP1 PUSH1 0x20 ADD DUP1 DUP4 GT PUSH2 0x966 JUMPI DUP3 SWAP1 SUB PUSH1 0x1F AND DUP3 ADD SWAP2 JUMPDEST POP POP POP POP POP SWAP6 POP DUP5 DUP1 SLOAD PUSH2 0x996 SWAP1 PUSH2 0x1299 JUMP JUMPDEST DUP1 PUSH1 0x1F ADD PUSH1 0x20 DUP1 SWAP2 DIV MUL PUSH1 0x20 ADD PUSH1 0x40 MLOAD SWAP1 DUP2 ADD PUSH1 0x40 MSTORE DUP1 SWAP3 SWAP2 SWAP1 DUP2 DUP2 MSTORE PUSH1 0x20 ADD DUP3 DUP1 SLOAD PUSH2 0x9C2 SWAP1 PUSH2 0x1299 JUMP JUMPDEST DUP1 ISZERO PUSH2 0xA0D JUMPI DUP1 PUSH1 0x1F LT PUSH2 0x9E4 JUMPI PUSH2 0x100 DUP1 DUP4 SLOAD DIV MUL DUP4 MSTORE SWAP2 PUSH1 0x20 ADD SWAP2 PUSH2 0xA0D JUMP JUMPDEST DUP3 ADD SWAP2 SWAP1 PUSH0 MSTORE PUSH1 0x20 PUSH0 KECCAK256 SWAP1 JUMPDEST DUP2 SLOAD DUP2 MSTORE SWAP1 PUSH1 0x1 ADD SWAP1 PUSH1 0x20 ADD DUP1 DUP4 GT PUSH2 0x9F0 JUMPI DUP3 SWAP1 SUB PUSH1 0x1F AND DUP3 ADD SWAP2 JUMPDEST POP POP POP POP POP SWAP5 POP DUP4 DUP1 SLOAD PUSH2 0xA20 SWAP1 PUSH2 0x1299 JUMP JUMPDEST DUP1 PUSH1 0x1F ADD PUSH1 0x20 DUP1 SWAP2 DIV MUL PUSH1 0x20 ADD PUSH1 0x40 MLOAD SWAP1 DUP2 ADD PUSH1 0x40 MSTORE DUP1 SWAP3 SWAP2 SWAP1 DUP2 DUP2 MSTORE PUSH1 0x20 ADD DUP3 DUP1 SLOAD PUSH2 0xA4C SWAP1 PUSH2 0x1299 JUMP JUMPDEST DUP1 ISZERO PUSH2 0xA97 JUMPI DUP1 PUSH1 0x1F LT PUSH2 0xA6E JUMPI PUSH2 0x100 DUP1 DUP4 SLOAD DIV MUL DUP4 MSTORE SWAP2 PUSH1 0x20 ADD SWAP2 PUSH2 0xA97 JUMP JUMPDEST DUP3 ADD SWAP2 SWAP1 PUSH0 MSTORE PUSH1 0x20 PUSH0 KECCAK256 SWAP1 JUMPDEST DUP2 SLOAD DUP2 MSTORE SWAP1 PUSH1 0x1 ADD SWAP1 PUSH1 0x20 ADD DUP1 DUP4 GT PUSH2 0xA7A JUMPI DUP3 SWAP1 SUB PUSH1 0x1F AND DUP3 ADD SWAP2 JUMPDEST POP POP POP POP POP SWAP4 POP DUP3 DUP1 SLOAD PUSH2 0xAAA SWAP1 PUSH2 0x1299 JUMP JUMPDEST DUP1 PUSH1 0x1F ADD PUSH1 0x20 DUP1 SWAP2 DIV MUL PUSH1 0x20 ADD PUSH1 0x40 MLOAD SWAP1 DUP2 ADD PUSH1 0x40 MSTORE DUP1 SWAP3 SWAP2 SWAP1 DUP2 DUP2 MSTORE PUSH1 0x20 ADD DUP3 DUP1 SLOAD PUSH2 0xAD6 SWAP1 PUSH2 0x1299 JUMP JUMPDEST DUP1 ISZERO PUSH2 0xB21 JUMPI DUP1 PUSH1 0x1F LT PUSH2 0xAF8 JUMPI PUSH2 0x100 DUP1 DUP4 SLOAD DIV MUL DUP4 MSTORE SWAP2 PUSH1 0x20 ADD SWAP2 PUSH2 0xB21 JUMP JUMPDEST DUP3 ADD SWAP2 SWAP1 PUSH0 MSTORE PUSH1 0x20 PUSH0 KECCAK256 SWAP1 JUMPDEST DUP2 SLOAD DUP2 MSTORE SWAP1 PUSH1 0x1 ADD SWAP1 PUSH1 0x20 ADD DUP1 DUP4 GT PUSH2 0xB04 JUMPI DUP3 SWAP1 SUB PUSH1 0x1F AND DUP3 ADD SWAP2 JUMPDEST POP POP POP POP POP SWAP3 POP DUP2 DUP1 SLOAD PUSH2 0xB34 SWAP1 PUSH2 0x1299 JUMP JUMPDEST DUP1 PUSH1 0x1F ADD PUSH1 0x20 DUP1 SWAP2 DIV MUL PUSH1 0x20 ADD PUSH1 0x40 MLOAD SWAP1 DUP2 ADD PUSH1 0x40 MSTORE DUP1 SWAP3 SWAP2 SWAP1 DUP2 DUP2 MSTORE PUSH1 0x20 ADD DUP3 DUP1 SLOAD PUSH2 0xB60 SWAP1 PUSH2 0x1299 JUMP JUMPDEST DUP1 ISZERO PUSH2 0xBAB JUMPI DUP1 PUSH1 0x1F LT PUSH2 0xB82 JUMPI PUSH2 0x100 DUP1 DUP4 SLOAD DIV MUL DUP4 MSTORE SWAP2 PUSH1 0x20 ADD SWAP2 PUSH2 0xBAB JUMP JUMPDEST DUP3 ADD SWAP2 SWAP1 PUSH0 MSTORE PUSH1 0x20 PUSH0 KECCAK256 SWAP1 JUMPDEST DUP2 SLOAD DUP2 MSTORE SWAP1 PUSH1 0x1 ADD SWAP1 PUSH1 0x20 ADD DUP1 DUP4 GT PUSH2 0xB8E JUMPI DUP3 SWAP1 SUB PUSH1 0x1F AND DUP3 ADD SWAP2 JUMPDEST POP POP POP POP POP SWAP2 POP DUP1 DUP1 SLOAD PUSH2 0xBBE SWAP1 PUSH2 0x1299 JUMP JUMPDEST DUP1 PUSH1 0x1F ADD PUSH1 0x20 DUP1 SWAP2 DIV MUL PUSH1 0x20 ADD PUSH1 0x40 MLOAD SWAP1 DUP2 ADD PUSH1 0x40 MSTORE DUP1 SWAP3 SWAP2 SWAP1 DUP2 DUP2 MSTORE PUSH1 0x20 ADD DUP3 DUP1 SLOAD PUSH2 0xBEA SWAP1 PUSH2 0x1299 JUMP JUMPDEST DUP1 ISZERO PUSH2 0xC35 JUMPI DUP1 PUSH1 0x1F LT PUSH2 0xC0C JUMPI PUSH2 0x100 DUP1 DUP4 SLOAD DIV MUL DUP4 MSTORE SWAP2 PUSH1 0x20 ADD SWAP2 PUSH2 0xC35 JUMP JUMPDEST DUP3 ADD SWAP2 SWAP1 PUSH0 MSTORE PUSH1 0x20 PUSH0 KECCAK256 SWAP1 JUMPDEST DUP2 SLOAD DUP2 MSTORE SWAP1 PUSH1 0x1 ADD SWAP1 PUSH1 0x20 ADD DUP1 DUP4 GT PUSH2 0xC18 JUMPI DUP3 SWAP1 SUB PUSH1 0x1F AND DUP3 ADD SWAP2 JUMPDEST POP POP POP POP POP SWAP1 POP SWAP7 POP SWAP7 POP SWAP7 POP SWAP7 POP SWAP7 POP SWAP7 POP POP SWAP2 SWAP4 SWAP6 POP SWAP2 SWAP4 SWAP6 JUMP JUMPDEST PUSH0 PUSH1 0x40 MLOAD SWAP1 POP SWAP1 JUMP JUMPDEST PUSH0 PUSH0 REVERT JUMPDEST PUSH0 PUSH0 REVERT JUMPDEST PUSH0 PUSH20 0xFFFFFFFFFFFFFFFFFFFFFFFFFFFFFFFFFFFFFFFF DUP3 AND SWAP1 POP SWAP2 SWAP1 POP JUMP JUMPDEST PUSH0 PUSH2 0xC8C DUP3 PUSH2 0xC63 JUMP JUMPDEST SWAP1 POP SWAP2 SWAP1 POP JUMP JUMPDEST PUSH2 0xC9C DUP2 PUSH2 0xC82 JUMP JUMPDEST DUP2 EQ PUSH2 0xCA6 JUMPI PUSH0 PUSH0 REVERT JUMPDEST POP JUMP JUMPDEST PUSH0 DUP2 CALLDATALOAD SWAP1 POP PUSH2 0xCB7 DUP2 PUSH2 0xC93 JUMP JUMPDEST SWAP3 SWAP2 POP POP JUMP JUMPDEST PUSH0 PUSH1 0x20 DUP3 DUP5 SUB SLT ISZERO PUSH2 0xCD2 JUMPI PUSH2 0xCD1 PUSH2 0xC5B JUMP JUMPDEST JUMPDEST PUSH0 PUSH2 0xCDF DUP5 DUP3 DUP6 ADD PUSH2 0xCA9 JUMP JUMPDEST SWAP2 POP POP SWAP3 SWAP2 POP POP JUMP JUMPDEST PUSH0 DUP2 MLOAD SWAP1 POP SWAP2 SWAP1 POP JUMP JUMPDEST PUSH0 DUP3 DUP3 MSTORE PUSH1 0x20 DUP3 ADD SWAP1 POP SWAP3 SWAP2 POP POP JUMP JUMPDEST DUP3 DUP2 DUP4 MCOPY PUSH0 DUP4 DUP4 ADD MSTORE POP POP POP JUMP JUMPDEST PUSH0 PUSH1 0x1F NOT PUSH1 0x1F DUP4 ADD AND SWAP1 POP SWAP2 SWAP1 POP JUMP JUMPDEST PUSH0 PUSH2 0xD2A DUP3 PUSH2 0xCE8 JUMP JUMPDEST PUSH2 0xD34 DUP2 DUP6 PUSH2 0xCF2 JUMP JUMPDEST SWAP4 POP PUSH2 0xD44 DUP2 DUP6 PUSH1 0x20 DUP7 ADD PUSH2 0xD02 JUMP JUMPDEST PUSH2 0xD4D DUP2 PUSH2 0xD10 JUMP JUMPDEST DUP5 ADD SWAP2 POP POP SWAP3 SWAP2 POP POP JUMP JUMPDEST PUSH0 DUP2 ISZERO ISZERO SWAP1 POP SWAP2 SWAP1 POP JUMP JUMPDEST PUSH2 0xD6C DUP2 PUSH2 0xD58 JUMP JUMPDEST DUP3 MSTORE POP POP JUMP JUMPDEST PUSH0 PUSH1 0xE0 DUP3 ADD SWAP1 POP DUP2 DUP2 SUB PUSH0 DUP4 ADD MSTORE PUSH2 0xD8A DUP2 DUP11 PUSH2 0xD20 JUMP JUMPDEST SWAP1 POP DUP2 DUP2 SUB PUSH1 0x20 DUP4 ADD MSTORE PUSH2 0xD9E DUP2 DUP10 PUSH2 0xD20 JUMP JUMPDEST SWAP1 POP DUP2 DUP2 SUB PUSH1 0x40 DUP4 ADD MSTORE PUSH2 0xDB2 DUP2 DUP9 PUSH2 0xD20 JUMP JUMPDEST SWAP1 POP DUP2 DUP2 SUB PUSH1 0x60 DUP4 ADD MSTORE PUSH2 0xDC6 DUP2 DUP8 PUSH2 0xD20 JUMP JUMPDEST SWAP1 POP DUP2 DUP2 SUB PUSH1 0x80 DUP4 ADD MSTORE PUSH2 0xDDA DUP2 DUP7 PUSH2 0xD20 JUMP JUMPDEST SWAP1 POP DUP2 DUP2 SUB PUSH1 0xA0 DUP4 ADD MSTORE PUSH2 0xDEE DUP2 DUP6 PUSH2 0xD20 JUMP JUMPDEST SWAP1 POP PUSH2 0xDFD PUSH1 0xC0 DUP4 ADD DUP5 PUSH2 0xD63 JUMP JUMPDEST SWAP9 SWAP8 POP POP POP POP POP POP POP POP JUMP JUMPDEST PUSH0 PUSH0 REVERT JUMPDEST PUSH0 PUSH0 REVERT JUMPDEST PUSH32 0x4E487B7100000000000000000000000000000000000000000000000000000000 PUSH0 MSTORE PUSH1 0x41 PUSH1 0x4 MSTORE PUSH1 0x24 PUSH0 REVERT JUMPDEST PUSH2 0xE47 DUP3 PUSH2 0xD10 JUMP JUMPDEST DUP2 ADD DUP2 DUP2 LT PUSH8 0xFFFFFFFFFFFFFFFF DUP3 GT OR ISZERO PUSH2 0xE66 JUMPI PUSH2 0xE65 PUSH2 0xE11 JUMP JUMPDEST JUMPDEST DUP1 PUSH1 0x40 MSTORE POP POP POP JUMP JUMPDEST PUSH0 PUSH2 0xE78 PUSH2 0xC52 JUMP JUMPDEST SWAP1 POP PUSH2 0xE84 DUP3 DUP3 PUSH2 0xE3E JUMP JUMPDEST SWAP2 SWAP1 POP JUMP JUMPDEST PUSH0 PUSH8 0xFFFFFFFFFFFFFFFF DUP3 GT ISZERO PUSH2 0xEA3 JUMPI PUSH2 0xEA2 PUSH2 0xE11 JUMP JUMPDEST JUMPDEST PUSH2 0xEAC DUP3 PUSH2 0xD10 JUMP JUMPDEST SWAP1 POP PUSH1 0x20 DUP2 ADD SWAP1 POP SWAP2 SWAP1 POP JUMP JUMPDEST DUP3 DUP2 DUP4 CALLDATACOPY PUSH0 DUP4 DUP4 ADD MSTORE POP POP POP JUMP JUMPDEST PUSH0 PUSH2 0xED9 PUSH2 0xED4 DUP5 PUSH2 0xE89 JUMP JUMPDEST PUSH2 0xE6F JUMP JUMPDEST SWAP1 POP DUP3 DUP2 MSTORE PUSH1 0x20 DUP2 ADD DUP5 DUP5 DUP5 ADD GT ISZERO PUSH2 0xEF5 JUMPI PUSH2 0xEF4 PUSH2 0xE0D JUMP JUMPDEST JUMPDEST PUSH2 0xF00 DUP5 DUP3 DUP6 PUSH2 0xEB9 JUMP JUMPDEST POP SWAP4 SWAP3 POP POP POP JUMP JUMPDEST PUSH0 DUP3 PUSH1 0x1F DUP4 ADD SLT PUSH2 0xF1C JUMPI PUSH2 0xF1B PUSH2 0xE09 JUMP JUMPDEST JUMPDEST DUP2 CALLDATALOAD PUSH2 0xF2C DUP5 DUP3 PUSH1 0x20 DUP7 ADD PUSH2 0xEC7 JUMP JUMPDEST SWAP2 POP POP SWAP3 SWAP2 POP POP JUMP JUMPDEST PUSH0 PUSH0 PUSH0 PUSH0 PUSH0 PUSH0 PUSH1 0xC0 DUP8 DUP10 SUB SLT ISZERO PUSH2 0xF4F JUMPI PUSH2 0xF4E PUSH2 0xC5B JUMP JUMPDEST JUMPDEST PUSH0 DUP8 ADD CALLDATALOAD PUSH8 0xFFFFFFFFFFFFFFFF DUP2 GT ISZERO PUSH2 0xF6C JUMPI PUSH2 0xF6B PUSH2 0xC5F JUMP JUMPDEST JUMPDEST PUSH2 0xF78 DUP10 DUP3 DUP11 ADD PUSH2 0xF08 JUMP JUMPDEST SWAP7 POP POP PUSH1 0x20 DUP8 ADD CALLDATALOAD PUSH8 0xFFFFFFFFFFFFFFFF DUP2 GT ISZERO PUSH2 0xF99 JUMPI PUSH2 0xF98 PUSH2 0xC5F JUMP JUMPDEST JUMPDEST PUSH2 0xFA5 DUP10 DUP3 DUP11 ADD PUSH2 0xF08 JUMP JUMPDEST SWAP6 POP POP PUSH1 0x40 DUP8 ADD CALLDATALOAD PUSH8 0xFFFFFFFFFFFFFFFF DUP2 GT ISZERO PUSH2 0xFC6 JUMPI PUSH2 0xFC5 PUSH2 0xC5F JUMP JUMPDEST JUMPDEST PUSH2 0xFD2 DUP10 DUP3 DUP11 ADD PUSH2 0xF08 JUMP JUMPDEST SWAP5 POP POP PUSH1 0x60 DUP8 ADD CALLDATALOAD PUSH8 0xFFFFFFFFFFFFFFFF DUP2 GT ISZERO PUSH2 0xFF3 JUMPI PUSH2 0xFF2 PUSH2 0xC5F JUMP JUMPDEST JUMPDEST PUSH2 0xFFF DUP10 DUP3 DUP11 ADD PUSH2 0xF08 JUMP JUMPDEST SWAP4 POP POP PUSH1 0x80 DUP8 ADD CALLDATALOAD PUSH8 0xFFFFFFFFFFFFFFFF DUP2 GT ISZERO PUSH2 0x1020 JUMPI PUSH2 0x101F PUSH2 0xC5F JUMP JUMPDEST JUMPDEST PUSH2 0x102C DUP10 DUP3 DUP11 ADD PUSH2 0xF08 JUMP JUMPDEST SWAP3 POP POP PUSH1 0xA0 DUP8 ADD CALLDATALOAD PUSH8 0xFFFFFFFFFFFFFFFF DUP2 GT ISZERO PUSH2 0x104D JUMPI PUSH2 0x104C PUSH2 0xC5F JUMP JUMPDEST JUMPDEST PUSH2 0x1059 DUP10 DUP3 DUP11 ADD PUSH2 0xF08 JUMP JUMPDEST SWAP2 POP POP SWAP3 SWAP6 POP SWAP3 SWAP6 POP SWAP3 SWAP6 JUMP JUMPDEST PUSH0 DUP2 MLOAD SWAP1 POP SWAP2 SWAP1 POP JUMP JUMPDEST PUSH0 DUP3 DUP3 MSTORE PUSH1 0x20 DUP3 ADD SWAP1 POP SWAP3 SWAP2 POP POP JUMP JUMPDEST PUSH0 DUP2 SWAP1 POP PUSH1 0x20 DUP3 ADD SWAP1 POP SWAP2 SWAP1 POP JUMP JUMPDEST PUSH0 DUP3 DUP3 MSTORE PUSH1 0x20 DUP3 ADD SWAP1 POP SWAP3 SWAP2 POP POP JUMP JUMPDEST PUSH0 PUSH2 0x10A9 DUP3 PUSH2 0xCE8 JUMP JUMPDEST PUSH2 0x10B3 DUP2 DUP6 PUSH2 0x108F JUMP JUMPDEST SWAP4 POP PUSH2 0x10C3 DUP2 DUP6 PUSH1 0x20 DUP7 ADD PUSH2 0xD02 JUMP JUMPDEST PUSH2 0x10CC DUP2 PUSH2 0xD10 JUMP JUMPDEST DUP5 ADD SWAP2 POP POP SWAP3 SWAP2 POP POP JUMP JUMPDEST PUSH0 PUSH2 0x10E2 DUP4 DUP4 PUSH2 0x109F JUMP JUMPDEST SWAP1 POP SWAP3 SWAP2 POP POP JUMP JUMPDEST PUSH0 PUSH1 0x20 DUP3 ADD SWAP1 POP SWAP2 SWAP1 POP JUMP JUMPDEST PUSH0 PUSH2 0x1100 DUP3 PUSH2 0x1066 JUMP JUMPDEST PUSH2 0x110A DUP2 DUP6 PUSH2 0x1070 JUMP JUMPDEST SWAP4 POP DUP4 PUSH1 0x20 DUP3 MUL DUP6 ADD PUSH2 0x111C DUP6 PUSH2 0x1080 JUMP JUMPDEST DUP1 PUSH0 JUMPDEST DUP6 DUP2 LT ISZERO PUSH2 0x1157 JUMPI DUP5 DUP5 SUB DUP10 MSTORE DUP2 MLOAD PUSH2 0x1138 DUP6 DUP3 PUSH2 0x10D7 JUMP JUMPDEST SWAP5 POP PUSH2 0x1143 DUP4 PUSH2 0x10EA JUMP JUMPDEST SWAP3 POP PUSH1 0x20 DUP11 ADD SWAP10 POP POP PUSH1 0x1 DUP2 ADD SWAP1 POP PUSH2 0x111F JUMP JUMPDEST POP DUP3 SWAP8 POP DUP8 SWAP6 POP POP POP POP POP POP SWAP3 SWAP2 POP POP JUMP JUMPDEST PUSH0 PUSH1 0x20 DUP3 ADD SWAP1 POP DUP2 DUP2 SUB PUSH0 DUP4 ADD MSTORE PUSH2 0x1181 DUP2 DUP5 PUSH2 0x10F6 JUMP JUMPDEST SWAP1 POP SWAP3 SWAP2 POP POP JUMP JUMPDEST PUSH0 PUSH0 PUSH1 0x40 DUP4 DUP6 SUB SLT ISZERO PUSH2 0x119F JUMPI PUSH2 0x119E PUSH2 0xC5B JUMP JUMPDEST JUMPDEST PUSH0 PUSH2 0x11AC DUP6 DUP3 DUP7 ADD PUSH2 0xCA9 JUMP JUMPDEST SWAP3 POP POP PUSH1 0x20 DUP4 ADD CALLDATALOAD PUSH8 0xFFFFFFFFFFFFFFFF DUP2 GT ISZERO PUSH2 0x11CD JUMPI PUSH2 0x11CC PUSH2 0xC5F JUMP JUMPDEST JUMPDEST PUSH2 0x11D9 DUP6 DUP3 DUP7 ADD PUSH2 0xF08 JUMP JUMPDEST SWAP2 POP POP SWAP3 POP SWAP3 SWAP1 POP JUMP JUMPDEST PUSH0 PUSH1 0xC0 DUP3 ADD SWAP1 POP DUP2 DUP2 SUB PUSH0 DUP4 ADD MSTORE PUSH2 0x11FB DUP2 DUP10 PUSH2 0xD20 JUMP JUMPDEST SWAP1 POP DUP2 DUP2 SUB PUSH1 0x20 DUP4 ADD MSTORE PUSH2 0x120F DUP2 DUP9 PUSH2 0xD20 JUMP JUMPDEST SWAP1 POP DUP2 DUP2 SUB PUSH1 0x40 DUP4 ADD MSTORE PUSH2 0x1223 DUP2 DUP8 PUSH2 0xD20 JUMP JUMPDEST SWAP1 POP DUP2 DUP2 SUB PUSH1 0x60 DUP4 ADD MSTORE PUSH2 0x1237 DUP2 DUP7 PUSH2 0xD20 JUMP JUMPDEST SWAP1 POP DUP2 DUP2 SUB PUSH1 0x80 DUP4 ADD MSTORE PUSH2 0x124B DUP2 DUP6 PUSH2 0xD20 JUMP JUMPDEST SWAP1 POP DUP2 DUP2 SUB PUSH1 0xA0 DUP4 ADD MSTORE PUSH2 0x125F DUP2 DUP5 PUSH2 0xD20 JUMP JUMPDEST SWAP1 POP SWAP8 SWAP7 POP POP POP POP POP POP POP JUMP JUMPDEST PUSH32 0x4E487B7100000000000000000000000000000000000000000000000000000000 PUSH0 MSTORE PUSH1 0x22 PUSH1 0x4 MSTORE PUSH1 0x24 PUSH0 REVERT JUMPDEST PUSH0 PUSH1 0x2 DUP3 DIV SWAP1 POP PUSH1 0x1 DUP3 AND DUP1 PUSH2 0x12B0 JUMPI PUSH1 0x7F DUP3 AND SWAP2 POP JUMPDEST PUSH1 0x20 DUP3 LT DUP2 SUB PUSH2 0x12C3 JUMPI PUSH2 0x12C2 PUSH2 0x126C JUMP JUMPDEST JUMPDEST POP SWAP2 SWAP1 POP JUMP JUMPDEST PUSH32 0x416C726561647920726567697374657265640000000000000000000000000000 PUSH0 DUP3 ADD MSTORE POP JUMP JUMPDEST PUSH0 PUSH2 0x12FD PUSH1 0x12 DUP4 PUSH2 0xCF2 JUMP JUMPDEST SWAP2 POP PUSH2 0x1308 DUP3 PUSH2 0x12C9 JUMP JUMPDEST PUSH1 0x20 DUP3 ADD SWAP1 POP SWAP2 SWAP1 POP JUMP JUMPDEST PUSH0 PUSH1 0x20 DUP3 ADD SWAP1 POP DUP2 DUP2 SUB PUSH0 DUP4 ADD MSTORE PUSH2 0x132A DUP2 PUSH2 0x12F1 JUMP JUMPDEST SWAP1 POP SWAP2 SWAP1 POP JUMP JUMPDEST PUSH0 DUP2 SWAP1 POP DUP2 PUSH0 MSTORE PUSH1 0x20 PUSH0 KECCAK256 SWAP1 POP SWAP2 SWAP1 POP JUMP JUMPDEST PUSH0 PUSH1 0x20 PUSH1 0x1F DUP4 ADD DIV SWAP1 POP SWAP2 SWAP1 POP JUMP JUMPDEST PUSH0 DUP3 DUP3 SHL SWAP1 POP SWAP3 SWAP2 POP POP JUMP JUMPDEST PUSH0 PUSH1 0x8 DUP4 MUL PUSH2 0x138D PUSH32 0xFFFFFFFFFFFFFFFFFFFFFFFFFFFFFFFFFFFFFFFFFFFFFFFFFFFFFFFFFFFFFFFF DUP3 PUSH2 0x1352 JUMP JUMPDEST PUSH2 0x1397 DUP7 DUP4 PUSH2 0x1352 JUMP JUMPDEST SWAP6 POP DUP1 NOT DUP5 AND SWAP4 POP DUP1 DUP7 AND DUP5 OR SWAP3 POP POP POP SWAP4 SWAP3 POP POP POP JUMP JUMPDEST PUSH0 DUP2 SWAP1 POP SWAP2 SWAP1 POP JUMP JUMPDEST PUSH0 DUP2 SWAP1 POP SWAP2 SWAP1 POP JUMP JUMPDEST PUSH0 PUSH2 0x13DB PUSH2 0x13D6 PUSH2 0x13D1 DUP5 PUSH2 0x13AF JUMP JUMPDEST PUSH2 0x13B8 JUMP JUMPDEST PUSH2 0x13AF JUMP JUMPDEST SWAP1 POP SWAP2 SWAP1 POP JUMP JUMPDEST PUSH0 DUP2 SWAP1 POP SWAP2 SWAP1 POP JUMP JUMPDEST PUSH2 0x13F4 DUP4 PUSH2 0x13C1 JUMP JUMPDEST PUSH2 0x1408 PUSH2 0x1400 DUP3 PUSH2 0x13E2 JUMP JUMPDEST DUP5 DUP5 SLOAD PUSH2 0x135E JUMP JUMPDEST DUP3 SSTORE POP POP POP POP JUMP JUMPDEST PUSH0 PUSH0 SWAP1 POP SWAP1 JUMP JUMPDEST PUSH2 0x141F PUSH2 0x1410 JUMP JUMPDEST PUSH2 0x142A DUP2 DUP5 DUP5 PUSH2 0x13EB JUMP JUMPDEST POP POP POP JUMP JUMPDEST JUMPDEST DUP2 DUP2 LT ISZERO PUSH2 0x144D JUMPI PUSH2 0x1442 PUSH0 DUP3 PUSH2 0x1417 JUMP JUMPDEST PUSH1 0x1 DUP2 ADD SWAP1 POP PUSH2 0x1430 JUMP JUMPDEST POP POP JUMP JUMPDEST PUSH1 0x1F DUP3 GT ISZERO PUSH2 0x1492 JUMPI PUSH2 0x1463 DUP2 PUSH2 0x1331 JUMP JUMPDEST PUSH2 0x146C DUP5 PUSH2 0x1343 JUMP JUMPDEST DUP2 ADD PUSH1 0x20 DUP6 LT ISZERO PUSH2 0x147B JUMPI DUP2 SWAP1 POP JUMPDEST PUSH2 0x148F PUSH2 0x1487 DUP6 PUSH2 0x1343 JUMP JUMPDEST DUP4 ADD DUP3 PUSH2 0x142F JUMP JUMPDEST POP POP JUMPDEST POP POP POP JUMP JUMPDEST PUSH0 DUP3 DUP3 SHR SWAP1 POP SWAP3 SWAP2 POP POP JUMP JUMPDEST PUSH0 PUSH2 0x14B2 PUSH0 NOT DUP5 PUSH1 0x8 MUL PUSH2 0x1497 JUMP JUMPDEST NOT DUP1 DUP4 AND SWAP2 POP POP SWAP3 SWAP2 POP POP JUMP JUMPDEST PUSH0 PUSH2 0x14CA DUP4 DUP4 PUSH2 0x14A3 JUMP JUMPDEST SWAP2 POP DUP3 PUSH1 0x2 MUL DUP3 OR SWAP1 POP SWAP3 SWAP2 POP POP JUMP JUMPDEST PUSH2 0x14E3 DUP3 PUSH2 0xCE8 JUMP JUMPDEST PUSH8 0xFFFFFFFFFFFFFFFF DUP2 GT ISZERO PUSH2 0x14FC JUMPI PUSH2 0x14FB PUSH2 0xE11 JUMP JUMPDEST JUMPDEST PUSH2 0x1506 DUP3 SLOAD PUSH2 0x1299 JUMP JUMPDEST PUSH2 0x1511 DUP3 DUP3 DUP6 PUSH2 0x1451 JUMP JUMPDEST PUSH0 PUSH1 0x20 SWAP1 POP PUSH1 0x1F DUP4 GT PUSH1 0x1 DUP2 EQ PUSH2 0x1542 JUMPI PUSH0 DUP5 ISZERO PUSH2 0x1530 JUMPI DUP3 DUP8 ADD MLOAD SWAP1 POP JUMPDEST PUSH2 0x153A DUP6 DUP3 PUSH2 0x14BF JUMP JUMPDEST DUP7 SSTORE POP PUSH2 0x15A1 JUMP JUMPDEST PUSH1 0x1F NOT DUP5 AND PUSH2 0x1550 DUP7 PUSH2 0x1331 JUMP JUMPDEST PUSH0 JUMPDEST DUP3 DUP2 LT ISZERO PUSH2 0x1577 JUMPI DUP5 DUP10 ADD MLOAD DUP3 SSTORE PUSH1 0x1 DUP3 ADD SWAP2 POP PUSH1 0x20 DUP6 ADD SWAP5 POP PUSH1 0x20 DUP2 ADD SWAP1 POP PUSH2 0x1552 JUMP JUMPDEST DUP7 DUP4 LT ISZERO PUSH2 0x1594 JUMPI DUP5 DUP10 ADD MLOAD PUSH2 0x1590 PUSH1 0x1F DUP10 AND DUP3 PUSH2 0x14A3 JUMP JUMPDEST DUP4 SSTORE POP JUMPDEST PUSH1 0x1 PUSH1 0x2 DUP9 MUL ADD DUP9 SSTORE POP POP POP JUMPDEST POP POP POP POP POP POP JUMP JUMPDEST PUSH0 PUSH1 0x20 DUP3 ADD SWAP1 POP DUP2 DUP2 SUB PUSH0 DUP4 ADD MSTORE PUSH2 0x15C1 DUP2 DUP5 PUSH2 0xD20 JUMP JUMPDEST SWAP1 POP SWAP3 SWAP2 POP POP JUMP JUMPDEST PUSH32 0x4E6F742072656769737465726564000000000000000000000000000000000000 PUSH0 DUP3 ADD MSTORE POP JUMP JUMPDEST PUSH0 PUSH2 0x15FD PUSH1 0xE DUP4 PUSH2 0xCF2 JUMP JUMPDEST SWAP2 POP PUSH2 0x1608 DUP3 PUSH2 0x15C9 JUMP JUMPDEST PUSH1 0x20 DUP3 ADD SWAP1 POP SWAP2 SWAP1 POP JUMP JUMPDEST PUSH0 PUSH1 0x20 DUP3 ADD SWAP1 POP DUP2 DUP2 SUB PUSH0 DUP4 ADD MSTORE PUSH2 0x162A DUP2 PUSH2 0x15F1 JUMP JUMPDEST SWAP1 POP SWAP2 SWAP1 POP JUMP INVALID LOG2 PUSH5 0x6970667358 0x22 SLT KECCAK256 0xBD LOG1 0x28 0xC6 RJUMPI 0x725F DUP2 0xCE 0x21 DUP13 SWAP16 CREATE2 CALLDATASIZE 0xB2 0x4E 0xDD 0xDB 0x28 PREVRANDAO LOG1 0xED GAS 0xDD DIV TLOAD PUSH28 0xD6EF34D12764736F6C634300081E0033000000000000000000000000 "
				},
				"gasEstimates": {
					"creation": {
						"codeDepositCost": "1147000",
						"executionCost": "1192",
						"totalCost": "1148192"
					},
					"external": {
						"addFileToPatient(address,string)": "infinite",
						"getPatientDetails(address)": "infinite",
						"getPatientFiles(address)": "infinite",
						"patients(address)": "infinite",
						"registerPatient(string,string,string,string,string,string)": "infinite"
					}
				},
				"methodIdentifiers": {
					"addFileToPatient(address,string)": "edefcf88",
					"getPatientDetails(address)": "efe2ccc1",
					"getPatientFiles(address)": "c1816dfb",
					"patients(address)": "0869cfbc",
					"registerPatient(string,string,string,string,string,string)": "6d26dce8"
				}
			},
			"storageLayout": {
				"storage": [
					{
						"astId": 400,
						"contract": "contracts/PatientRegistry.sol:PatientRegistry",
						"label": "patients",
						"offset": 0,
						"slot": "0",
						"type": "t_mapping(t_address,t_struct(Patient)395_storage)"
					}
				],
				"types": {
					"t_address": {
						"encoding": "inplace",
						"label": "address",
						"numberOfBytes": "20"
					},
					"t_array(t_string_storage)dyn_storage": {
						"base": "t_string_storage",
						"encoding": "dynamic_array",
						"label": "string[]",
						"numberOfBytes": "32"
					},
					"t_bool": {
						"encoding": "inplace",
						"label": "bool",
						"numberOfBytes": "1"
					},
					"t_mapping(t_address,t_struct(Patient)395_storage)": {
						"encoding": "mapping",
						"key": "t_address",
						"label": "mapping(address => struct PatientRegistry.Patient)",
						"numberOfBytes": "32",
						"value": "t_struct(Patient)395_storage"
					},
					"t_string_storage": {
						"encoding": "bytes",
						"label": "string",
						"numberOfBytes": "32"
					},
					"t_struct(Patient)395_storage": {
						"encoding": "inplace",
						"label": "struct PatientRegistry.Patient",
						"members": [
							{
								"astId": 379,
								"contract": "contracts/PatientRegistry.sol:PatientRegistry",
								"label": "name",
								"offset": 0,
								"slot": "0",
								"type": "t_string_storage"
							},
							{
								"astId": 381,
								"contract": "contracts/PatientRegistry.sol:PatientRegistry",
								"label": "gender",
								"offset": 0,
								"slot": "1",
								"type": "t_string_storage"
							},
							{
								"astId": 383,
								"contract": "contracts/PatientRegistry.sol:PatientRegistry",
								"label": "dateOfBirth",
								"offset": 0,
								"slot": "2",
								"type": "t_string_storage"
							},
							{
								"astId": 385,
								"contract": "contracts/PatientRegistry.sol:PatientRegistry",
								"label": "bloodGroup",
								"offset": 0,
								"slot": "3",
								"type": "t_string_storage"
							},
							{
								"astId": 387,
								"contract": "contracts/PatientRegistry.sol:PatientRegistry",
								"label": "contactInfo",
								"offset": 0,
								"slot": "4",
								"type": "t_string_storage"
							},
							{
								"astId": 389,
								"contract": "contracts/PatientRegistry.sol:PatientRegistry",
								"label": "homeAddress",
								"offset": 0,
								"slot": "5",
								"type": "t_string_storage"
							},
							{
								"astId": 391,
								"contract": "contracts/PatientRegistry.sol:PatientRegistry",
								"label": "isRegistered",
								"offset": 0,
								"slot": "6",
								"type": "t_bool"
							},
							{
								"astId": 394,
								"contract": "contracts/PatientRegistry.sol:PatientRegistry",
								"label": "fileHashes",
								"offset": 0,
								"slot": "7",
								"type": "t_array(t_string_storage)dyn_storage"
							}
						],
						"numberOfBytes": "256"
					}
				}
			},
			"userdoc": {
				"kind": "user",
				"methods": {},
				"version": 1
			}
		}
	}
}