{
	"contracts/MedicalRecord.sol": {
		"MedicalRecord": {
			"abi": [
				{
					"inputs": [
						{
							"internalType": "address",
							"name": "_accessControl",
							"type": "address"
						},
						{
							"internalType": "address",
							"name": "_patientRegistry",
							"type": "address"
						}
					],
					"stateMutability": "nonpayable",
					"type": "constructor"
				},
				{
					"anonymous": false,
					"inputs": [
						{
							"indexed": true,
							"internalType": "address",
							"name": "patient",
							"type": "address"
						},
						{
							"indexed": false,
							"internalType": "string",
							"name": "fileHash",
							"type": "string"
						},
						{
							"indexed": false,
							"internalType": "string",
							"name": "fileType",
							"type": "string"
						}
					],
					"name": "RecordUploaded",
					"type": "event"
				},
				{
					"anonymous": false,
					"inputs": [
						{
							"indexed": true,
							"internalType": "address",
							"name": "viewer",
							"type": "address"
						},
						{
							"indexed": false,
							"internalType": "string",
							"name": "fileHash",
							"type": "string"
						},
						{
							"indexed": false,
							"internalType": "uint256",
							"name": "time",
							"type": "uint256"
						}
					],
					"name": "RecordViewed",
					"type": "event"
				},
				{
					"inputs": [],
					"name": "accessControl",
					"outputs": [
						{
							"internalType": "contract AccessControl",
							"name": "",
							"type": "address"
						}
					],
					"stateMutability": "view",
					"type": "function"
				},
				{
					"inputs": [
						{
							"internalType": "address",
							"name": "patient",
							"type": "address"
						}
					],
					"name": "getPatientFiles",
					"outputs": [
						{
							"internalType": "string[]",
							"name": "",
							"type": "string[]"
						}
					],
					"stateMutability": "view",
					"type": "function"
				},
				{
					"inputs": [
						{
							"internalType": "string",
							"name": "_fileHash",
							"type": "string"
						}
					],
					"name": "getRecordDetails",
					"outputs": [
						{
							"components": [
								{
									"internalType": "string",
									"name": "fileHash",
									"type": "string"
								},
								{
									"internalType": "string",
									"name": "fileType",
									"type": "string"
								},
								{
									"internalType": "address",
									"name": "owner",
									"type": "address"
								},
								{
									"internalType": "uint256",
									"name": "uploadTime",
									"type": "uint256"
								}
							],
							"internalType": "struct MedicalRecord.Record",
							"name": "",
							"type": "tuple"
						}
					],
					"stateMutability": "view",
					"type": "function"
				},
				{
					"inputs": [],
					"name": "patientRegistry",
					"outputs": [
						{
							"internalType": "contract PatientRegistry",
							"name": "",
							"type": "address"
						}
					],
					"stateMutability": "view",
					"type": "function"
				},
				{
					"inputs": [
						{
							"internalType": "string",
							"name": "_fileHash",
							"type": "string"
						},
						{
							"internalType": "string",
							"name": "_fileType",
							"type": "string"
						}
					],
					"name": "uploadRecord",
					"outputs": [],
					"stateMutability": "nonpayable",
					"type": "function"
				},
				{
					"inputs": [
						{
							"internalType": "string",
							"name": "_fileHash",
							"type": "string"
						}
					],
					"name": "viewRecord",
					"outputs": [
						{
							"components": [
								{
									"internalType": "string",
									"name": "fileHash",
									"type": "string"
								},
								{
									"internalType": "string",
									"name": "fileType",
									"type": "string"
								},
								{
									"internalType": "address",
									"name": "owner",
									"type": "address"
								},
								{
									"internalType": "uint256",
									"name": "uploadTime",
									"type": "uint256"
								}
							],
							"internalType": "struct MedicalRecord.Record",
							"name": "",
							"type": "tuple"
						}
					],
					"stateMutability": "view",
					"type": "function"
				}
			],
			"devdoc": {
				"kind": "dev",
				"methods": {
					"getPatientFiles(address)": {
						"params": {
							"patient": "- Patient wallet address"
						}
					},
					"uploadRecord(string,string)": {
						"params": {
							"_fileHash": "- IPFS hash (e.g., \"Qm...\")",
							"_fileType": "- Type of file (e.g., \"X-ray\", \"Prescription\")"
						}
					},
					"viewRecord(string)": {
						"params": {
							"_fileHash": "- IPFS file hash (string)"
						}
					}
				},
				"version": 1
			},
			"evm": {
				"assembly": "    /* \"contracts/MedicalRecord.sol\":127:3172  contract MedicalRecord {... */\n  mstore(0x40, 0x80)\n    /* \"contracts/MedicalRecord.sol\":940:1128  constructor(address _accessControl, address _patientRegistry) {... */\n  callvalue\n  dup1\n  iszero\n  tag_1\n  jumpi\n  revert(0x00, 0x00)\ntag_1:\n  pop\n  mload(0x40)\n  sub(codesize, bytecodeSize)\n  dup1\n  bytecodeSize\n  dup4\n  codecopy\n  dup2\n  dup2\n  add\n  0x40\n  mstore\n  dup2\n  add\n  swap1\n  tag_2\n  swap2\n  swap1\n  tag_3\n  jump\t// in\ntag_2:\n    /* \"contracts/MedicalRecord.sol\":1043:1057  _accessControl */\n  dup2\n    /* \"contracts/MedicalRecord.sol\":1013:1026  accessControl */\n  0x00\n  0x00\n    /* \"contracts/MedicalRecord.sol\":1013:1058  accessControl = AccessControl(_accessControl) */\n  0x0100\n  exp\n  dup2\n  sload\n  dup2\n  0xffffffffffffffffffffffffffffffffffffffff\n  mul\n  not\n  and\n  swap1\n  dup4\n  0xffffffffffffffffffffffffffffffffffffffff\n  and\n  mul\n  or\n  swap1\n  sstore\n  pop\n    /* \"contracts/MedicalRecord.sol\":1103:1119  _patientRegistry */\n  dup1\n    /* \"contracts/MedicalRecord.sol\":1069:1084  patientRegistry */\n  0x01\n  0x00\n    /* \"contracts/MedicalRecord.sol\":1069:1120  patientRegistry = PatientRegistry(_patientRegistry) */\n  0x0100\n  exp\n  dup2\n  sload\n  dup2\n  0xffffffffffffffffffffffffffffffffffffffff\n  mul\n  not\n  and\n  swap1\n  dup4\n  0xffffffffffffffffffffffffffffffffffffffff\n  and\n  mul\n  or\n  swap1\n  sstore\n  pop\n    /* \"contracts/MedicalRecord.sol\":940:1128  constructor(address _accessControl, address _patientRegistry) {... */\n  pop\n  pop\n    /* \"contracts/MedicalRecord.sol\":127:3172  contract MedicalRecord {... */\n  jump(tag_6)\n    /* \"#utility.yul\":88:205   */\ntag_8:\n    /* \"#utility.yul\":197:198   */\n  0x00\n    /* \"#utility.yul\":194:195   */\n  0x00\n    /* \"#utility.yul\":187:199   */\n  revert\n    /* \"#utility.yul\":334:460   */\ntag_10:\n    /* \"#utility.yul\":371:378   */\n  0x00\n    /* \"#utility.yul\":411:453   */\n  0xffffffffffffffffffffffffffffffffffffffff\n    /* \"#utility.yul\":404:409   */\n  dup3\n    /* \"#utility.yul\":400:454   */\n  and\n    /* \"#utility.yul\":389:454   */\n  swap1\n  pop\n    /* \"#utility.yul\":334:460   */\n  swap2\n  swap1\n  pop\n  jump\t// out\n    /* \"#utility.yul\":466:562   */\ntag_11:\n    /* \"#utility.yul\":503:510   */\n  0x00\n    /* \"#utility.yul\":532:556   */\n  tag_20\n    /* \"#utility.yul\":550:555   */\n  dup3\n    /* \"#utility.yul\":532:556   */\n  tag_10\n  jump\t// in\ntag_20:\n    /* \"#utility.yul\":521:556   */\n  swap1\n  pop\n    /* \"#utility.yul\":466:562   */\n  swap2\n  swap1\n  pop\n  jump\t// out\n    /* \"#utility.yul\":568:690   */\ntag_12:\n    /* \"#utility.yul\":641:665   */\n  tag_22\n    /* \"#utility.yul\":659:664   */\n  dup2\n    /* \"#utility.yul\":641:665   */\n  tag_11\n  jump\t// in\ntag_22:\n    /* \"#utility.yul\":634:639   */\n  dup2\n    /* \"#utility.yul\":631:666   */\n  eq\n    /* \"#utility.yul\":621:684   */\n  tag_23\n  jumpi\n    /* \"#utility.yul\":680:681   */\n  0x00\n    /* \"#utility.yul\":677:678   */\n  0x00\n    /* \"#utility.yul\":670:682   */\n  revert\n    /* \"#utility.yul\":621:684   */\ntag_23:\n    /* \"#utility.yul\":568:690   */\n  pop\n  jump\t// out\n    /* \"#utility.yul\":696:839   */\ntag_13:\n    /* \"#utility.yul\":753:758   */\n  0x00\n    /* \"#utility.yul\":784:790   */\n  dup2\n    /* \"#utility.yul\":778:791   */\n  mload\n    /* \"#utility.yul\":769:791   */\n  swap1\n  pop\n    /* \"#utility.yul\":800:833   */\n  tag_25\n    /* \"#utility.yul\":827:832   */\n  dup2\n    /* \"#utility.yul\":800:833   */\n  tag_12\n  jump\t// in\ntag_25:\n    /* \"#utility.yul\":696:839   */\n  swap3\n  swap2\n  pop\n  pop\n  jump\t// out\n    /* \"#utility.yul\":845:1352   */\ntag_3:\n    /* \"#utility.yul\":924:930   */\n  0x00\n    /* \"#utility.yul\":932:938   */\n  0x00\n    /* \"#utility.yul\":981:983   */\n  0x40\n    /* \"#utility.yul\":969:978   */\n  dup4\n    /* \"#utility.yul\":960:967   */\n  dup6\n    /* \"#utility.yul\":956:979   */\n  sub\n    /* \"#utility.yul\":952:984   */\n  slt\n    /* \"#utility.yul\":949:1068   */\n  iszero\n  tag_27\n  jumpi\n    /* \"#utility.yul\":987:1066   */\n  tag_28\n  tag_8\n  jump\t// in\ntag_28:\n    /* \"#utility.yul\":949:1068   */\ntag_27:\n    /* \"#utility.yul\":1107:1108   */\n  0x00\n    /* \"#utility.yul\":1132:1196   */\n  tag_29\n    /* \"#utility.yul\":1188:1195   */\n  dup6\n    /* \"#utility.yul\":1179:1185   */\n  dup3\n    /* \"#utility.yul\":1168:1177   */\n  dup7\n    /* \"#utility.yul\":1164:1186   */\n  add\n    /* \"#utility.yul\":1132:1196   */\n  tag_13\n  jump\t// in\ntag_29:\n    /* \"#utility.yul\":1122:1196   */\n  swap3\n  pop\n    /* \"#utility.yul\":1078:1206   */\n  pop\n    /* \"#utility.yul\":1245:1247   */\n  0x20\n    /* \"#utility.yul\":1271:1335   */\n  tag_30\n    /* \"#utility.yul\":1327:1334   */\n  dup6\n    /* \"#utility.yul\":1318:1324   */\n  dup3\n    /* \"#utility.yul\":1307:1316   */\n  dup7\n    /* \"#utility.yul\":1303:1325   */\n  add\n    /* \"#utility.yul\":1271:1335   */\n  tag_13\n  jump\t// in\ntag_30:\n    /* \"#utility.yul\":1261:1335   */\n  swap2\n  pop\n    /* \"#utility.yul\":1216:1345   */\n  pop\n    /* \"#utility.yul\":845:1352   */\n  swap3\n  pop\n  swap3\n  swap1\n  pop\n  jump\t// out\n    /* \"contracts/MedicalRecord.sol\":127:3172  contract MedicalRecord {... */\ntag_6:\n  dataSize(sub_0)\n  dup1\n  dataOffset(sub_0)\n  0x00\n  codecopy\n  0x00\n  return\nstop\n\nsub_0: assembly {\n        /* \"contracts/MedicalRecord.sol\":127:3172  contract MedicalRecord {... */\n      mstore(0x40, 0x80)\n      callvalue\n      dup1\n      iszero\n      tag_1\n      jumpi\n      revert(0x00, 0x00)\n    tag_1:\n      pop\n      jumpi(tag_2, lt(calldatasize, 0x04))\n      shr(0xe0, calldataload(0x00))\n      dup1\n      0x1172ac67\n      eq\n      tag_3\n      jumpi\n      dup1\n      0x1238d68d\n      eq\n      tag_4\n      jumpi\n      dup1\n      0x13007d55\n      eq\n      tag_5\n      jumpi\n      dup1\n      0x1a9e48f5\n      eq\n      tag_6\n      jumpi\n      dup1\n      0x5250c6e2\n      eq\n      tag_7\n      jumpi\n      dup1\n      0xc1816dfb\n      eq\n      tag_8\n      jumpi\n    tag_2:\n      revert(0x00, 0x00)\n        /* \"contracts/MedicalRecord.sol\":2190:2625  function viewRecord(string memory _fileHash) external view returns (Record memory) {... */\n    tag_3:\n      tag_9\n      0x04\n      dup1\n      calldatasize\n      sub\n      dup2\n      add\n      swap1\n      tag_10\n      swap2\n      swap1\n      tag_11\n      jump\t// in\n    tag_10:\n      tag_12\n      jump\t// in\n    tag_9:\n      mload(0x40)\n      tag_13\n      swap2\n      swap1\n      tag_14\n      jump\t// in\n    tag_13:\n      mload(0x40)\n      dup1\n      swap2\n      sub\n      swap1\n      return\n        /* \"contracts/MedicalRecord.sol\":1350:2037  function uploadRecord(string memory _fileHash, string memory _fileType) external {... */\n    tag_4:\n      tag_15\n      0x04\n      dup1\n      calldatasize\n      sub\n      dup2\n      add\n      swap1\n      tag_16\n      swap2\n      swap1\n      tag_17\n      jump\t// in\n    tag_16:\n      tag_18\n      jump\t// in\n    tag_15:\n      stop\n        /* \"contracts/MedicalRecord.sol\":157:191  AccessControl public accessControl */\n    tag_5:\n      tag_19\n      tag_20\n      jump\t// in\n    tag_19:\n      mload(0x40)\n      tag_21\n      swap2\n      swap1\n      tag_22\n      jump\t// in\n    tag_21:\n      mload(0x40)\n      dup1\n      swap2\n      sub\n      swap1\n      return\n        /* \"contracts/MedicalRecord.sol\":2958:3169  function getRecordDetails(string memory _fileHash) external view returns (Record memory) {... */\n    tag_6:\n      tag_23\n      0x04\n      dup1\n      calldatasize\n      sub\n      dup2\n      add\n      swap1\n      tag_24\n      swap2\n      swap1\n      tag_11\n      jump\t// in\n    tag_24:\n      tag_25\n      jump\t// in\n    tag_23:\n      mload(0x40)\n      tag_26\n      swap2\n      swap1\n      tag_14\n      jump\t// in\n    tag_26:\n      mload(0x40)\n      dup1\n      swap2\n      sub\n      swap1\n      return\n        /* \"contracts/MedicalRecord.sol\":198:236  PatientRegistry public patientRegistry */\n    tag_7:\n      tag_27\n      tag_28\n      jump\t// in\n    tag_27:\n      mload(0x40)\n      tag_29\n      swap2\n      swap1\n      tag_30\n      jump\t// in\n    tag_29:\n      mload(0x40)\n      dup1\n      swap2\n      sub\n      swap1\n      return\n        /* \"contracts/MedicalRecord.sol\":2755:2884  function getPatientFiles(address patient) external view returns (string[] memory) {... */\n    tag_8:\n      tag_31\n      0x04\n      dup1\n      calldatasize\n      sub\n      dup2\n      add\n      swap1\n      tag_32\n      swap2\n      swap1\n      tag_33\n      jump\t// in\n    tag_32:\n      tag_34\n      jump\t// in\n    tag_31:\n      mload(0x40)\n      tag_35\n      swap2\n      swap1\n      tag_36\n      jump\t// in\n    tag_35:\n      mload(0x40)\n      dup1\n      swap2\n      sub\n      swap1\n      return\n        /* \"contracts/MedicalRecord.sol\":2190:2625  function viewRecord(string memory _fileHash) external view returns (Record memory) {... */\n    tag_12:\n        /* \"contracts/MedicalRecord.sol\":2258:2271  Record memory */\n      tag_37\n      tag_38\n      jump\t// in\n    tag_37:\n        /* \"contracts/MedicalRecord.sol\":2284:2304  Record memory record */\n      0x00\n        /* \"contracts/MedicalRecord.sol\":2307:2314  records */\n      0x02\n        /* \"contracts/MedicalRecord.sol\":2315:2324  _fileHash */\n      dup4\n        /* \"contracts/MedicalRecord.sol\":2307:2325  records[_fileHash] */\n      mload(0x40)\n      tag_40\n      swap2\n      swap1\n      tag_41\n      jump\t// in\n    tag_40:\n      swap1\n      dup2\n      mstore\n      0x20\n      add\n      mload(0x40)\n      dup1\n      swap2\n      sub\n      swap1\n      keccak256\n        /* \"contracts/MedicalRecord.sol\":2284:2325  Record memory record = records[_fileHash] */\n      mload(0x40)\n      dup1\n      0x80\n      add\n      0x40\n      mstore\n      swap1\n      dup2\n      0x00\n      dup3\n      add\n      dup1\n      sload\n      tag_42\n      swap1\n      tag_43\n      jump\t// in\n    tag_42:\n      dup1\n      0x1f\n      add\n      0x20\n      dup1\n      swap2\n      div\n      mul\n      0x20\n      add\n      mload(0x40)\n      swap1\n      dup2\n      add\n      0x40\n      mstore\n      dup1\n      swap3\n      swap2\n      swap1\n      dup2\n      dup2\n      mstore\n      0x20\n      add\n      dup3\n      dup1\n      sload\n      tag_44\n      swap1\n      tag_43\n      jump\t// in\n    tag_44:\n      dup1\n      iszero\n      tag_45\n      jumpi\n      dup1\n      0x1f\n      lt\n      tag_46\n      jumpi\n      0x0100\n      dup1\n      dup4\n      sload\n      div\n      mul\n      dup4\n      mstore\n      swap2\n      0x20\n      add\n      swap2\n      jump(tag_45)\n    tag_46:\n      dup3\n      add\n      swap2\n      swap1\n      0x00\n      mstore\n      keccak256(0x00, 0x20)\n      swap1\n    tag_47:\n      dup2\n      sload\n      dup2\n      mstore\n      swap1\n      0x01\n      add\n      swap1\n      0x20\n      add\n      dup1\n      dup4\n      gt\n      tag_47\n      jumpi\n      dup3\n      swap1\n      sub\n      0x1f\n      and\n      dup3\n      add\n      swap2\n    tag_45:\n      pop\n      pop\n      pop\n      pop\n      pop\n      dup2\n      mstore\n      0x20\n      add\n      0x01\n      dup3\n      add\n      dup1\n      sload\n      tag_48\n      swap1\n      tag_43\n      jump\t// in\n    tag_48:\n      dup1\n      0x1f\n      add\n      0x20\n      dup1\n      swap2\n      div\n      mul\n      0x20\n      add\n      mload(0x40)\n      swap1\n      dup2\n      add\n      0x40\n      mstore\n      dup1\n      swap3\n      swap2\n      swap1\n      dup2\n      dup2\n      mstore\n      0x20\n      add\n      dup3\n      dup1\n      sload\n      tag_49\n      swap1\n      tag_43\n      jump\t// in\n    tag_49:\n      dup1\n      iszero\n      tag_50\n      jumpi\n      dup1\n      0x1f\n      lt\n      tag_51\n      jumpi\n      0x0100\n      dup1\n      dup4\n      sload\n      div\n      mul\n      dup4\n      mstore\n      swap2\n      0x20\n      add\n      swap2\n      jump(tag_50)\n    tag_51:\n      dup3\n      add\n      swap2\n      swap1\n      0x00\n      mstore\n      keccak256(0x00, 0x20)\n      swap1\n    tag_52:\n      dup2\n      sload\n      dup2\n      mstore\n      swap1\n      0x01\n      add\n      swap1\n      0x20\n      add\n      dup1\n      dup4\n      gt\n      tag_52\n      jumpi\n      dup3\n      swap1\n      sub\n      0x1f\n      and\n      dup3\n      add\n      swap2\n    tag_50:\n      pop\n      pop\n      pop\n      pop\n      pop\n      dup2\n      mstore\n      0x20\n      add\n      0x02\n      dup3\n      add\n      0x00\n      swap1\n      sload\n      swap1\n      0x0100\n      exp\n      swap1\n      div\n      0xffffffffffffffffffffffffffffffffffffffff\n      and\n      0xffffffffffffffffffffffffffffffffffffffff\n      and\n      0xffffffffffffffffffffffffffffffffffffffff\n      and\n      dup2\n      mstore\n      0x20\n      add\n      0x03\n      dup3\n      add\n      sload\n      dup2\n      mstore\n      pop\n      pop\n      swap1\n      pop\n        /* \"contracts/MedicalRecord.sol\":2368:2369  0 */\n      0x00\n        /* \"contracts/MedicalRecord.sol\":2344:2370  record.owner != address(0) */\n      0xffffffffffffffffffffffffffffffffffffffff\n      and\n        /* \"contracts/MedicalRecord.sol\":2344:2350  record */\n      dup2\n        /* \"contracts/MedicalRecord.sol\":2344:2356  record.owner */\n      0x40\n      add\n      mload\n        /* \"contracts/MedicalRecord.sol\":2344:2370  record.owner != address(0) */\n      0xffffffffffffffffffffffffffffffffffffffff\n      and\n      sub\n        /* \"contracts/MedicalRecord.sol\":2336:2396  require(record.owner != address(0), \"Record does not exist\") */\n      tag_53\n      jumpi\n      mload(0x40)\n      0x08c379a000000000000000000000000000000000000000000000000000000000\n      dup2\n      mstore\n      0x04\n      add\n      tag_54\n      swap1\n      tag_55\n      jump\t// in\n    tag_54:\n      mload(0x40)\n      dup1\n      swap2\n      sub\n      swap1\n      revert\n    tag_53:\n        /* \"contracts/MedicalRecord.sol\":2409:2421  bool isOwner */\n      0x00\n        /* \"contracts/MedicalRecord.sol\":2440:2450  msg.sender */\n      caller\n        /* \"contracts/MedicalRecord.sol\":2424:2450  record.owner == msg.sender */\n      0xffffffffffffffffffffffffffffffffffffffff\n      and\n        /* \"contracts/MedicalRecord.sol\":2424:2430  record */\n      dup3\n        /* \"contracts/MedicalRecord.sol\":2424:2436  record.owner */\n      0x40\n      add\n      mload\n        /* \"contracts/MedicalRecord.sol\":2424:2450  record.owner == msg.sender */\n      0xffffffffffffffffffffffffffffffffffffffff\n      and\n      eq\n        /* \"contracts/MedicalRecord.sol\":2409:2450  bool isOwner = record.owner == msg.sender */\n      swap1\n      pop\n        /* \"contracts/MedicalRecord.sol\":2461:2479  bool hasPermission */\n      0x00\n        /* \"contracts/MedicalRecord.sol\":2482:2495  accessControl */\n      0x00\n      0x00\n      swap1\n      sload\n      swap1\n      0x0100\n      exp\n      swap1\n      div\n      0xffffffffffffffffffffffffffffffffffffffff\n      and\n        /* \"contracts/MedicalRecord.sol\":2482:2505  accessControl.hasAccess */\n      0xffffffffffffffffffffffffffffffffffffffff\n      and\n      0x13bd20e2\n        /* \"contracts/MedicalRecord.sol\":2506:2515  _fileHash */\n      dup7\n        /* \"contracts/MedicalRecord.sol\":2517:2527  msg.sender */\n      caller\n        /* \"contracts/MedicalRecord.sol\":2482:2528  accessControl.hasAccess(_fileHash, msg.sender) */\n      mload(0x40)\n      dup4\n      0xffffffff\n      and\n      0xe0\n      shl\n      dup2\n      mstore\n      0x04\n      add\n      tag_56\n      swap3\n      swap2\n      swap1\n      tag_57\n      jump\t// in\n    tag_56:\n      0x20\n      mload(0x40)\n      dup1\n      dup4\n      sub\n      dup2\n      dup7\n      gas\n      staticcall\n      iszero\n      dup1\n      iszero\n      tag_59\n      jumpi\n      returndatacopy(0x00, 0x00, returndatasize)\n      revert(0x00, returndatasize)\n    tag_59:\n      pop\n      pop\n      pop\n      pop\n      mload(0x40)\n      returndatasize\n      not(0x1f)\n      0x1f\n      dup3\n      add\n      and\n      dup3\n      add\n      dup1\n      0x40\n      mstore\n      pop\n      dup2\n      add\n      swap1\n      tag_60\n      swap2\n      swap1\n      tag_61\n      jump\t// in\n    tag_60:\n        /* \"contracts/MedicalRecord.sol\":2461:2528  bool hasPermission = accessControl.hasAccess(_fileHash, msg.sender) */\n      swap1\n      pop\n        /* \"contracts/MedicalRecord.sol\":2549:2556  isOwner */\n      dup2\n        /* \"contracts/MedicalRecord.sol\":2549:2573  isOwner || hasPermission */\n      dup1\n      tag_62\n      jumpi\n      pop\n        /* \"contracts/MedicalRecord.sol\":2560:2573  hasPermission */\n      dup1\n        /* \"contracts/MedicalRecord.sol\":2549:2573  isOwner || hasPermission */\n    tag_62:\n        /* \"contracts/MedicalRecord.sol\":2541:2591  require(isOwner || hasPermission, \"Access denied\") */\n      tag_63\n      jumpi\n      mload(0x40)\n      0x08c379a000000000000000000000000000000000000000000000000000000000\n      dup2\n      mstore\n      0x04\n      add\n      tag_64\n      swap1\n      tag_65\n      jump\t// in\n    tag_64:\n      mload(0x40)\n      dup1\n      swap2\n      sub\n      swap1\n      revert\n    tag_63:\n        /* \"contracts/MedicalRecord.sol\":2611:2617  record */\n      dup3\n        /* \"contracts/MedicalRecord.sol\":2604:2617  return record */\n      swap4\n      pop\n      pop\n      pop\n      pop\n        /* \"contracts/MedicalRecord.sol\":2190:2625  function viewRecord(string memory _fileHash) external view returns (Record memory) {... */\n      swap2\n      swap1\n      pop\n      jump\t// out\n        /* \"contracts/MedicalRecord.sol\":1350:2037  function uploadRecord(string memory _fileHash, string memory _fileType) external {... */\n    tag_18:\n        /* \"contracts/MedicalRecord.sol\":1476:1477  0 */\n      0x00\n        /* \"contracts/MedicalRecord.sol\":1456:1465  _fileHash */\n      dup3\n        /* \"contracts/MedicalRecord.sol\":1450:1473  bytes(_fileHash).length */\n      mload\n        /* \"contracts/MedicalRecord.sol\":1450:1477  bytes(_fileHash).length > 0 */\n      gt\n        /* \"contracts/MedicalRecord.sol\":1442:1499  require(bytes(_fileHash).length > 0, \"Invalid file hash\") */\n      tag_67\n      jumpi\n      mload(0x40)\n      0x08c379a000000000000000000000000000000000000000000000000000000000\n      dup2\n      mstore\n      0x04\n      add\n      tag_68\n      swap1\n      tag_69\n      jump\t// in\n    tag_68:\n      mload(0x40)\n      dup1\n      swap2\n      sub\n      swap1\n      revert\n    tag_67:\n        /* \"contracts/MedicalRecord.sol\":1544:1545  0 */\n      0x00\n        /* \"contracts/MedicalRecord.sol\":1524:1533  _fileType */\n      dup2\n        /* \"contracts/MedicalRecord.sol\":1518:1541  bytes(_fileType).length */\n      mload\n        /* \"contracts/MedicalRecord.sol\":1518:1545  bytes(_fileType).length > 0 */\n      gt\n        /* \"contracts/MedicalRecord.sol\":1510:1567  require(bytes(_fileType).length > 0, \"Invalid file type\") */\n      tag_70\n      jumpi\n      mload(0x40)\n      0x08c379a000000000000000000000000000000000000000000000000000000000\n      dup2\n      mstore\n      0x04\n      add\n      tag_71\n      swap1\n      tag_72\n      jump\t// in\n    tag_71:\n      mload(0x40)\n      dup1\n      swap2\n      sub\n      swap1\n      revert\n    tag_70:\n        /* \"contracts/MedicalRecord.sol\":1622:1623  0 */\n      0x00\n        /* \"contracts/MedicalRecord.sol\":1586:1624  records[_fileHash].owner == address(0) */\n      0xffffffffffffffffffffffffffffffffffffffff\n      and\n        /* \"contracts/MedicalRecord.sol\":1586:1593  records */\n      0x02\n        /* \"contracts/MedicalRecord.sol\":1594:1603  _fileHash */\n      dup4\n        /* \"contracts/MedicalRecord.sol\":1586:1604  records[_fileHash] */\n      mload(0x40)\n      tag_73\n      swap2\n      swap1\n      tag_41\n      jump\t// in\n    tag_73:\n      swap1\n      dup2\n      mstore\n      0x20\n      add\n      mload(0x40)\n      dup1\n      swap2\n      sub\n      swap1\n      keccak256\n        /* \"contracts/MedicalRecord.sol\":1586:1610  records[_fileHash].owner */\n      0x02\n      add\n      0x00\n      swap1\n      sload\n      swap1\n      0x0100\n      exp\n      swap1\n      div\n      0xffffffffffffffffffffffffffffffffffffffff\n      and\n        /* \"contracts/MedicalRecord.sol\":1586:1624  records[_fileHash].owner == address(0) */\n      0xffffffffffffffffffffffffffffffffffffffff\n      and\n      eq\n        /* \"contracts/MedicalRecord.sol\":1578:1650  require(records[_fileHash].owner == address(0), \"Record already exists\") */\n      tag_74\n      jumpi\n      mload(0x40)\n      0x08c379a000000000000000000000000000000000000000000000000000000000\n      dup2\n      mstore\n      0x04\n      add\n      tag_75\n      swap1\n      tag_76\n      jump\t// in\n    tag_75:\n      mload(0x40)\n      dup1\n      swap2\n      sub\n      swap1\n      revert\n    tag_74:\n        /* \"contracts/MedicalRecord.sol\":1684:1845  Record({... */\n      mload(0x40)\n      dup1\n      0x80\n      add\n      0x40\n      mstore\n      dup1\n        /* \"contracts/MedicalRecord.sol\":1716:1725  _fileHash */\n      dup4\n        /* \"contracts/MedicalRecord.sol\":1684:1845  Record({... */\n      dup2\n      mstore\n      0x20\n      add\n        /* \"contracts/MedicalRecord.sol\":1750:1759  _fileType */\n      dup3\n        /* \"contracts/MedicalRecord.sol\":1684:1845  Record({... */\n      dup2\n      mstore\n      0x20\n      add\n        /* \"contracts/MedicalRecord.sol\":1781:1791  msg.sender */\n      caller\n        /* \"contracts/MedicalRecord.sol\":1684:1845  Record({... */\n      0xffffffffffffffffffffffffffffffffffffffff\n      and\n      dup2\n      mstore\n      0x20\n      add\n        /* \"contracts/MedicalRecord.sol\":1818:1833  block.timestamp */\n      timestamp\n        /* \"contracts/MedicalRecord.sol\":1684:1845  Record({... */\n      dup2\n      mstore\n      pop\n        /* \"contracts/MedicalRecord.sol\":1663:1670  records */\n      0x02\n        /* \"contracts/MedicalRecord.sol\":1671:1680  _fileHash */\n      dup4\n        /* \"contracts/MedicalRecord.sol\":1663:1681  records[_fileHash] */\n      mload(0x40)\n      tag_77\n      swap2\n      swap1\n      tag_41\n      jump\t// in\n    tag_77:\n      swap1\n      dup2\n      mstore\n      0x20\n      add\n      mload(0x40)\n      dup1\n      swap2\n      sub\n      swap1\n      keccak256\n        /* \"contracts/MedicalRecord.sol\":1663:1845  records[_fileHash] = Record({... */\n      0x00\n      dup3\n      add\n      mload\n      dup2\n      0x00\n      add\n      swap1\n      dup2\n      tag_78\n      swap2\n      swap1\n      tag_79\n      jump\t// in\n    tag_78:\n      pop\n      0x20\n      dup3\n      add\n      mload\n      dup2\n      0x01\n      add\n      swap1\n      dup2\n      tag_80\n      swap2\n      swap1\n      tag_79\n      jump\t// in\n    tag_80:\n      pop\n      0x40\n      dup3\n      add\n      mload\n      dup2\n      0x02\n      add\n      exp(0x0100, 0x00)\n      dup2\n      sload\n      dup2\n      0xffffffffffffffffffffffffffffffffffffffff\n      mul\n      not\n      and\n      swap1\n      dup4\n      0xffffffffffffffffffffffffffffffffffffffff\n      and\n      mul\n      or\n      swap1\n      sstore\n      pop\n      0x60\n      dup3\n      add\n      mload\n      dup2\n      0x03\n      add\n      sstore\n      swap1\n      pop\n      pop\n        /* \"contracts/MedicalRecord.sol\":1858:1870  patientFiles */\n      0x03\n        /* \"contracts/MedicalRecord.sol\":1858:1882  patientFiles[msg.sender] */\n      0x00\n        /* \"contracts/MedicalRecord.sol\":1871:1881  msg.sender */\n      caller\n        /* \"contracts/MedicalRecord.sol\":1858:1882  patientFiles[msg.sender] */\n      0xffffffffffffffffffffffffffffffffffffffff\n      and\n      0xffffffffffffffffffffffffffffffffffffffff\n      and\n      dup2\n      mstore\n      0x20\n      add\n      swap1\n      dup2\n      mstore\n      0x20\n      add\n      0x00\n      keccak256\n        /* \"contracts/MedicalRecord.sol\":1888:1897  _fileHash */\n      dup3\n        /* \"contracts/MedicalRecord.sol\":1858:1898  patientFiles[msg.sender].push(_fileHash) */\n      swap1\n      dup1\n      0x01\n      dup2\n      sload\n      add\n      dup1\n      dup3\n      sstore\n      dup1\n      swap2\n      pop\n      pop\n      0x01\n      swap1\n      sub\n      swap1\n      0x00\n      mstore\n      keccak256(0x00, 0x20)\n      add\n      0x00\n      swap1\n      swap2\n      swap1\n      swap2\n      swap1\n      swap2\n      pop\n      swap1\n      dup2\n      tag_82\n      swap2\n      swap1\n      tag_79\n      jump\t// in\n    tag_82:\n      pop\n        /* \"contracts/MedicalRecord.sol\":1909:1924  patientRegistry */\n      0x01\n      0x00\n      swap1\n      sload\n      swap1\n      0x0100\n      exp\n      swap1\n      div\n      0xffffffffffffffffffffffffffffffffffffffff\n      and\n        /* \"contracts/MedicalRecord.sol\":1909:1941  patientRegistry.addFileToPatient */\n      0xffffffffffffffffffffffffffffffffffffffff\n      and\n      0xedefcf88\n        /* \"contracts/MedicalRecord.sol\":1942:1952  msg.sender */\n      caller\n        /* \"contracts/MedicalRecord.sol\":1953:1962  _fileHash */\n      dup5\n        /* \"contracts/MedicalRecord.sol\":1909:1963  patientRegistry.addFileToPatient(msg.sender,_fileHash) */\n      mload(0x40)\n      dup4\n      0xffffffff\n      and\n      0xe0\n      shl\n      dup2\n      mstore\n      0x04\n      add\n      tag_83\n      swap3\n      swap2\n      swap1\n      tag_84\n      jump\t// in\n    tag_83:\n      0x00\n      mload(0x40)\n      dup1\n      dup4\n      sub\n      dup2\n      0x00\n      dup8\n      dup1\n      extcodesize\n      iszero\n      dup1\n      iszero\n      tag_85\n      jumpi\n      revert(0x00, 0x00)\n    tag_85:\n      pop\n      gas\n      call\n      iszero\n      dup1\n      iszero\n      tag_87\n      jumpi\n      returndatacopy(0x00, 0x00, returndatasize)\n      revert(0x00, returndatasize)\n    tag_87:\n      pop\n      pop\n      pop\n      pop\n        /* \"contracts/MedicalRecord.sol\":1996:2006  msg.sender */\n      caller\n        /* \"contracts/MedicalRecord.sol\":1981:2029  RecordUploaded(msg.sender, _fileHash, _fileType) */\n      0xffffffffffffffffffffffffffffffffffffffff\n      and\n      0xb723d07463f1068cac6f7fd185f491afa8cc9d5bf4866dfa8f064f64e528bc28\n        /* \"contracts/MedicalRecord.sol\":2008:2017  _fileHash */\n      dup4\n        /* \"contracts/MedicalRecord.sol\":2019:2028  _fileType */\n      dup4\n        /* \"contracts/MedicalRecord.sol\":1981:2029  RecordUploaded(msg.sender, _fileHash, _fileType) */\n      mload(0x40)\n      tag_88\n      swap3\n      swap2\n      swap1\n      tag_89\n      jump\t// in\n    tag_88:\n      mload(0x40)\n      dup1\n      swap2\n      sub\n      swap1\n      log2\n        /* \"contracts/MedicalRecord.sol\":1350:2037  function uploadRecord(string memory _fileHash, string memory _fileType) external {... */\n      pop\n      pop\n      jump\t// out\n        /* \"contracts/MedicalRecord.sol\":157:191  AccessControl public accessControl */\n    tag_20:\n      0x00\n      0x00\n      swap1\n      sload\n      swap1\n      0x0100\n      exp\n      swap1\n      div\n      0xffffffffffffffffffffffffffffffffffffffff\n      and\n      dup2\n      jump\t// out\n        /* \"contracts/MedicalRecord.sol\":2958:3169  function getRecordDetails(string memory _fileHash) external view returns (Record memory) {... */\n    tag_25:\n        /* \"contracts/MedicalRecord.sol\":3032:3045  Record memory */\n      tag_90\n      tag_38\n      jump\t// in\n    tag_90:\n        /* \"contracts/MedicalRecord.sol\":3102:3103  0 */\n      0x00\n        /* \"contracts/MedicalRecord.sol\":3066:3104  records[_fileHash].owner != address(0) */\n      0xffffffffffffffffffffffffffffffffffffffff\n      and\n        /* \"contracts/MedicalRecord.sol\":3066:3073  records */\n      0x02\n        /* \"contracts/MedicalRecord.sol\":3074:3083  _fileHash */\n      dup4\n        /* \"contracts/MedicalRecord.sol\":3066:3084  records[_fileHash] */\n      mload(0x40)\n      tag_92\n      swap2\n      swap1\n      tag_41\n      jump\t// in\n    tag_92:\n      swap1\n      dup2\n      mstore\n      0x20\n      add\n      mload(0x40)\n      dup1\n      swap2\n      sub\n      swap1\n      keccak256\n        /* \"contracts/MedicalRecord.sol\":3066:3090  records[_fileHash].owner */\n      0x02\n      add\n      0x00\n      swap1\n      sload\n      swap1\n      0x0100\n      exp\n      swap1\n      div\n      0xffffffffffffffffffffffffffffffffffffffff\n      and\n        /* \"contracts/MedicalRecord.sol\":3066:3104  records[_fileHash].owner != address(0) */\n      0xffffffffffffffffffffffffffffffffffffffff\n      and\n      sub\n        /* \"contracts/MedicalRecord.sol\":3058:3125  require(records[_fileHash].owner != address(0), \"Record not found\") */\n      tag_93\n      jumpi\n      mload(0x40)\n      0x08c379a000000000000000000000000000000000000000000000000000000000\n      dup2\n      mstore\n      0x04\n      add\n      tag_94\n      swap1\n      tag_95\n      jump\t// in\n    tag_94:\n      mload(0x40)\n      dup1\n      swap2\n      sub\n      swap1\n      revert\n    tag_93:\n        /* \"contracts/MedicalRecord.sol\":3143:3150  records */\n      0x02\n        /* \"contracts/MedicalRecord.sol\":3151:3160  _fileHash */\n      dup3\n        /* \"contracts/MedicalRecord.sol\":3143:3161  records[_fileHash] */\n      mload(0x40)\n      tag_96\n      swap2\n      swap1\n      tag_41\n      jump\t// in\n    tag_96:\n      swap1\n      dup2\n      mstore\n      0x20\n      add\n      mload(0x40)\n      dup1\n      swap2\n      sub\n      swap1\n      keccak256\n        /* \"contracts/MedicalRecord.sol\":3136:3161  return records[_fileHash] */\n      mload(0x40)\n      dup1\n      0x80\n      add\n      0x40\n      mstore\n      swap1\n      dup2\n      0x00\n      dup3\n      add\n      dup1\n      sload\n      tag_97\n      swap1\n      tag_43\n      jump\t// in\n    tag_97:\n      dup1\n      0x1f\n      add\n      0x20\n      dup1\n      swap2\n      div\n      mul\n      0x20\n      add\n      mload(0x40)\n      swap1\n      dup2\n      add\n      0x40\n      mstore\n      dup1\n      swap3\n      swap2\n      swap1\n      dup2\n      dup2\n      mstore\n      0x20\n      add\n      dup3\n      dup1\n      sload\n      tag_98\n      swap1\n      tag_43\n      jump\t// in\n    tag_98:\n      dup1\n      iszero\n      tag_99\n      jumpi\n      dup1\n      0x1f\n      lt\n      tag_100\n      jumpi\n      0x0100\n      dup1\n      dup4\n      sload\n      div\n      mul\n      dup4\n      mstore\n      swap2\n      0x20\n      add\n      swap2\n      jump(tag_99)\n    tag_100:\n      dup3\n      add\n      swap2\n      swap1\n      0x00\n      mstore\n      keccak256(0x00, 0x20)\n      swap1\n    tag_101:\n      dup2\n      sload\n      dup2\n      mstore\n      swap1\n      0x01\n      add\n      swap1\n      0x20\n      add\n      dup1\n      dup4\n      gt\n      tag_101\n      jumpi\n      dup3\n      swap1\n      sub\n      0x1f\n      and\n      dup3\n      add\n      swap2\n    tag_99:\n      pop\n      pop\n      pop\n      pop\n      pop\n      dup2\n      mstore\n      0x20\n      add\n      0x01\n      dup3\n      add\n      dup1\n      sload\n      tag_102\n      swap1\n      tag_43\n      jump\t// in\n    tag_102:\n      dup1\n      0x1f\n      add\n      0x20\n      dup1\n      swap2\n      div\n      mul\n      0x20\n      add\n      mload(0x40)\n      swap1\n      dup2\n      add\n      0x40\n      mstore\n      dup1\n      swap3\n      swap2\n      swap1\n      dup2\n      dup2\n      mstore\n      0x20\n      add\n      dup3\n      dup1\n      sload\n      tag_103\n      swap1\n      tag_43\n      jump\t// in\n    tag_103:\n      dup1\n      iszero\n      tag_104\n      jumpi\n      dup1\n      0x1f\n      lt\n      tag_105\n      jumpi\n      0x0100\n      dup1\n      dup4\n      sload\n      div\n      mul\n      dup4\n      mstore\n      swap2\n      0x20\n      add\n      swap2\n      jump(tag_104)\n    tag_105:\n      dup3\n      add\n      swap2\n      swap1\n      0x00\n      mstore\n      keccak256(0x00, 0x20)\n      swap1\n    tag_106:\n      dup2\n      sload\n      dup2\n      mstore\n      swap1\n      0x01\n      add\n      swap1\n      0x20\n      add\n      dup1\n      dup4\n      gt\n      tag_106\n      jumpi\n      dup3\n      swap1\n      sub\n      0x1f\n      and\n      dup3\n      add\n      swap2\n    tag_104:\n      pop\n      pop\n      pop\n      pop\n      pop\n      dup2\n      mstore\n      0x20\n      add\n      0x02\n      dup3\n      add\n      0x00\n      swap1\n      sload\n      swap1\n      0x0100\n      exp\n      swap1\n      div\n      0xffffffffffffffffffffffffffffffffffffffff\n      and\n      0xffffffffffffffffffffffffffffffffffffffff\n      and\n      0xffffffffffffffffffffffffffffffffffffffff\n      and\n      dup2\n      mstore\n      0x20\n      add\n      0x03\n      dup3\n      add\n      sload\n      dup2\n      mstore\n      pop\n      pop\n      swap1\n      pop\n        /* \"contracts/MedicalRecord.sol\":2958:3169  function getRecordDetails(string memory _fileHash) external view returns (Record memory) {... */\n      swap2\n      swap1\n      pop\n      jump\t// out\n        /* \"contracts/MedicalRecord.sol\":198:236  PatientRegistry public patientRegistry */\n    tag_28:\n      0x01\n      0x00\n      swap1\n      sload\n      swap1\n      0x0100\n      exp\n      swap1\n      div\n      0xffffffffffffffffffffffffffffffffffffffff\n      and\n      dup2\n      jump\t// out\n        /* \"contracts/MedicalRecord.sol\":2755:2884  function getPatientFiles(address patient) external view returns (string[] memory) {... */\n    tag_34:\n        /* \"contracts/MedicalRecord.sol\":2820:2835  string[] memory */\n      0x60\n        /* \"contracts/MedicalRecord.sol\":2855:2867  patientFiles */\n      0x03\n        /* \"contracts/MedicalRecord.sol\":2855:2876  patientFiles[patient] */\n      0x00\n        /* \"contracts/MedicalRecord.sol\":2868:2875  patient */\n      dup4\n        /* \"contracts/MedicalRecord.sol\":2855:2876  patientFiles[patient] */\n      0xffffffffffffffffffffffffffffffffffffffff\n      and\n      0xffffffffffffffffffffffffffffffffffffffff\n      and\n      dup2\n      mstore\n      0x20\n      add\n      swap1\n      dup2\n      mstore\n      0x20\n      add\n      0x00\n      keccak256\n        /* \"contracts/MedicalRecord.sol\":2848:2876  return patientFiles[patient] */\n      dup1\n      sload\n      dup1\n      0x20\n      mul\n      0x20\n      add\n      mload(0x40)\n      swap1\n      dup2\n      add\n      0x40\n      mstore\n      dup1\n      swap3\n      swap2\n      swap1\n      dup2\n      dup2\n      mstore\n      0x20\n      add\n      0x00\n      swap1\n    tag_108:\n      dup3\n      dup3\n      lt\n      iszero\n      tag_109\n      jumpi\n      dup4\n      dup3\n      swap1\n      0x00\n      mstore\n      keccak256(0x00, 0x20)\n      add\n      dup1\n      sload\n      tag_111\n      swap1\n      tag_43\n      jump\t// in\n    tag_111:\n      dup1\n      0x1f\n      add\n      0x20\n      dup1\n      swap2\n      div\n      mul\n      0x20\n      add\n      mload(0x40)\n      swap1\n      dup2\n      add\n      0x40\n      mstore\n      dup1\n      swap3\n      swap2\n      swap1\n      dup2\n      dup2\n      mstore\n      0x20\n      add\n      dup3\n      dup1\n      sload\n      tag_112\n      swap1\n      tag_43\n      jump\t// in\n    tag_112:\n      dup1\n      iszero\n      tag_113\n      jumpi\n      dup1\n      0x1f\n      lt\n      tag_114\n      jumpi\n      0x0100\n      dup1\n      dup4\n      sload\n      div\n      mul\n      dup4\n      mstore\n      swap2\n      0x20\n      add\n      swap2\n      jump(tag_113)\n    tag_114:\n      dup3\n      add\n      swap2\n      swap1\n      0x00\n      mstore\n      keccak256(0x00, 0x20)\n      swap1\n    tag_115:\n      dup2\n      sload\n      dup2\n      mstore\n      swap1\n      0x01\n      add\n      swap1\n      0x20\n      add\n      dup1\n      dup4\n      gt\n      tag_115\n      jumpi\n      dup3\n      swap1\n      sub\n      0x1f\n      and\n      dup3\n      add\n      swap2\n    tag_113:\n      pop\n      pop\n      pop\n      pop\n      pop\n      dup2\n      mstore\n      0x20\n      add\n      swap1\n      0x01\n      add\n      swap1\n      jump(tag_108)\n    tag_109:\n      pop\n      pop\n      pop\n      pop\n      swap1\n      pop\n        /* \"contracts/MedicalRecord.sol\":2755:2884  function getPatientFiles(address patient) external view returns (string[] memory) {... */\n      swap2\n      swap1\n      pop\n      jump\t// out\n    tag_38:\n      mload(0x40)\n      dup1\n      0x80\n      add\n      0x40\n      mstore\n      dup1\n      0x60\n      dup2\n      mstore\n      0x20\n      add\n      0x60\n      dup2\n      mstore\n      0x20\n      add\n      and(0xffffffffffffffffffffffffffffffffffffffff, 0x00)\n      dup2\n      mstore\n      0x20\n      add\n      0x00\n      dup2\n      mstore\n      pop\n      swap1\n      jump\t// out\n        /* \"#utility.yul\":7:82   */\n    tag_116:\n        /* \"#utility.yul\":40:46   */\n      0x00\n        /* \"#utility.yul\":73:75   */\n      0x40\n        /* \"#utility.yul\":67:76   */\n      mload\n        /* \"#utility.yul\":57:76   */\n      swap1\n      pop\n        /* \"#utility.yul\":7:82   */\n      swap1\n      jump\t// out\n        /* \"#utility.yul\":88:205   */\n    tag_117:\n        /* \"#utility.yul\":197:198   */\n      0x00\n        /* \"#utility.yul\":194:195   */\n      0x00\n        /* \"#utility.yul\":187:199   */\n      revert\n        /* \"#utility.yul\":211:328   */\n    tag_118:\n        /* \"#utility.yul\":320:321   */\n      0x00\n        /* \"#utility.yul\":317:318   */\n      0x00\n        /* \"#utility.yul\":310:322   */\n      revert\n        /* \"#utility.yul\":334:451   */\n    tag_119:\n        /* \"#utility.yul\":443:444   */\n      0x00\n        /* \"#utility.yul\":440:441   */\n      0x00\n        /* \"#utility.yul\":433:445   */\n      revert\n        /* \"#utility.yul\":457:574   */\n    tag_120:\n        /* \"#utility.yul\":566:567   */\n      0x00\n        /* \"#utility.yul\":563:564   */\n      0x00\n        /* \"#utility.yul\":556:568   */\n      revert\n        /* \"#utility.yul\":580:682   */\n    tag_121:\n        /* \"#utility.yul\":621:627   */\n      0x00\n        /* \"#utility.yul\":672:674   */\n      0x1f\n        /* \"#utility.yul\":668:675   */\n      not\n        /* \"#utility.yul\":663:665   */\n      0x1f\n        /* \"#utility.yul\":656:661   */\n      dup4\n        /* \"#utility.yul\":652:666   */\n      add\n        /* \"#utility.yul\":648:676   */\n      and\n        /* \"#utility.yul\":638:676   */\n      swap1\n      pop\n        /* \"#utility.yul\":580:682   */\n      swap2\n      swap1\n      pop\n      jump\t// out\n        /* \"#utility.yul\":688:868   */\n    tag_122:\n        /* \"#utility.yul\":736:813   */\n      0x4e487b7100000000000000000000000000000000000000000000000000000000\n        /* \"#utility.yul\":733:734   */\n      0x00\n        /* \"#utility.yul\":726:814   */\n      mstore\n        /* \"#utility.yul\":833:837   */\n      0x41\n        /* \"#utility.yul\":830:831   */\n      0x04\n        /* \"#utility.yul\":823:838   */\n      mstore\n        /* \"#utility.yul\":857:861   */\n      0x24\n        /* \"#utility.yul\":854:855   */\n      0x00\n        /* \"#utility.yul\":847:862   */\n      revert\n        /* \"#utility.yul\":874:1155   */\n    tag_123:\n        /* \"#utility.yul\":957:984   */\n      tag_198\n        /* \"#utility.yul\":979:983   */\n      dup3\n        /* \"#utility.yul\":957:984   */\n      tag_121\n      jump\t// in\n    tag_198:\n        /* \"#utility.yul\":949:955   */\n      dup2\n        /* \"#utility.yul\":945:985   */\n      add\n        /* \"#utility.yul\":1087:1093   */\n      dup2\n        /* \"#utility.yul\":1075:1085   */\n      dup2\n        /* \"#utility.yul\":1072:1094   */\n      lt\n        /* \"#utility.yul\":1051:1069   */\n      0xffffffffffffffff\n        /* \"#utility.yul\":1039:1049   */\n      dup3\n        /* \"#utility.yul\":1036:1070   */\n      gt\n        /* \"#utility.yul\":1033:1095   */\n      or\n        /* \"#utility.yul\":1030:1118   */\n      iszero\n      tag_199\n      jumpi\n        /* \"#utility.yul\":1098:1116   */\n      tag_200\n      tag_122\n      jump\t// in\n    tag_200:\n        /* \"#utility.yul\":1030:1118   */\n    tag_199:\n        /* \"#utility.yul\":1138:1148   */\n      dup1\n        /* \"#utility.yul\":1134:1136   */\n      0x40\n        /* \"#utility.yul\":1127:1149   */\n      mstore\n        /* \"#utility.yul\":917:1155   */\n      pop\n        /* \"#utility.yul\":874:1155   */\n      pop\n      pop\n      jump\t// out\n        /* \"#utility.yul\":1161:1290   */\n    tag_124:\n        /* \"#utility.yul\":1195:1201   */\n      0x00\n        /* \"#utility.yul\":1222:1242   */\n      tag_202\n      tag_116\n      jump\t// in\n    tag_202:\n        /* \"#utility.yul\":1212:1242   */\n      swap1\n      pop\n        /* \"#utility.yul\":1251:1284   */\n      tag_203\n        /* \"#utility.yul\":1279:1283   */\n      dup3\n        /* \"#utility.yul\":1271:1277   */\n      dup3\n        /* \"#utility.yul\":1251:1284   */\n      tag_123\n      jump\t// in\n    tag_203:\n        /* \"#utility.yul\":1161:1290   */\n      swap2\n      swap1\n      pop\n      jump\t// out\n        /* \"#utility.yul\":1296:1604   */\n    tag_125:\n        /* \"#utility.yul\":1358:1362   */\n      0x00\n        /* \"#utility.yul\":1448:1466   */\n      0xffffffffffffffff\n        /* \"#utility.yul\":1440:1446   */\n      dup3\n        /* \"#utility.yul\":1437:1467   */\n      gt\n        /* \"#utility.yul\":1434:1490   */\n      iszero\n      tag_205\n      jumpi\n        /* \"#utility.yul\":1470:1488   */\n      tag_206\n      tag_122\n      jump\t// in\n    tag_206:\n        /* \"#utility.yul\":1434:1490   */\n    tag_205:\n        /* \"#utility.yul\":1508:1537   */\n      tag_207\n        /* \"#utility.yul\":1530:1536   */\n      dup3\n        /* \"#utility.yul\":1508:1537   */\n      tag_121\n      jump\t// in\n    tag_207:\n        /* \"#utility.yul\":1500:1537   */\n      swap1\n      pop\n        /* \"#utility.yul\":1592:1596   */\n      0x20\n        /* \"#utility.yul\":1586:1590   */\n      dup2\n        /* \"#utility.yul\":1582:1597   */\n      add\n        /* \"#utility.yul\":1574:1597   */\n      swap1\n      pop\n        /* \"#utility.yul\":1296:1604   */\n      swap2\n      swap1\n      pop\n      jump\t// out\n        /* \"#utility.yul\":1610:1758   */\n    tag_126:\n        /* \"#utility.yul\":1708:1714   */\n      dup3\n        /* \"#utility.yul\":1703:1706   */\n      dup2\n        /* \"#utility.yul\":1698:1701   */\n      dup4\n        /* \"#utility.yul\":1685:1715   */\n      calldatacopy\n        /* \"#utility.yul\":1749:1750   */\n      0x00\n        /* \"#utility.yul\":1740:1746   */\n      dup4\n        /* \"#utility.yul\":1735:1738   */\n      dup4\n        /* \"#utility.yul\":1731:1747   */\n      add\n        /* \"#utility.yul\":1724:1751   */\n      mstore\n        /* \"#utility.yul\":1610:1758   */\n      pop\n      pop\n      pop\n      jump\t// out\n        /* \"#utility.yul\":1764:2189   */\n    tag_127:\n        /* \"#utility.yul\":1842:1847   */\n      0x00\n        /* \"#utility.yul\":1867:1933   */\n      tag_210\n        /* \"#utility.yul\":1883:1932   */\n      tag_211\n        /* \"#utility.yul\":1925:1931   */\n      dup5\n        /* \"#utility.yul\":1883:1932   */\n      tag_125\n      jump\t// in\n    tag_211:\n        /* \"#utility.yul\":1867:1933   */\n      tag_124\n      jump\t// in\n    tag_210:\n        /* \"#utility.yul\":1858:1933   */\n      swap1\n      pop\n        /* \"#utility.yul\":1956:1962   */\n      dup3\n        /* \"#utility.yul\":1949:1954   */\n      dup2\n        /* \"#utility.yul\":1942:1963   */\n      mstore\n        /* \"#utility.yul\":1994:1998   */\n      0x20\n        /* \"#utility.yul\":1987:1992   */\n      dup2\n        /* \"#utility.yul\":1983:1999   */\n      add\n        /* \"#utility.yul\":2032:2035   */\n      dup5\n        /* \"#utility.yul\":2023:2029   */\n      dup5\n        /* \"#utility.yul\":2018:2021   */\n      dup5\n        /* \"#utility.yul\":2014:2030   */\n      add\n        /* \"#utility.yul\":2011:2036   */\n      gt\n        /* \"#utility.yul\":2008:2120   */\n      iszero\n      tag_212\n      jumpi\n        /* \"#utility.yul\":2039:2118   */\n      tag_213\n      tag_120\n      jump\t// in\n    tag_213:\n        /* \"#utility.yul\":2008:2120   */\n    tag_212:\n        /* \"#utility.yul\":2129:2183   */\n      tag_214\n        /* \"#utility.yul\":2176:2182   */\n      dup5\n        /* \"#utility.yul\":2171:2174   */\n      dup3\n        /* \"#utility.yul\":2166:2169   */\n      dup6\n        /* \"#utility.yul\":2129:2183   */\n      tag_126\n      jump\t// in\n    tag_214:\n        /* \"#utility.yul\":1848:2189   */\n      pop\n        /* \"#utility.yul\":1764:2189   */\n      swap4\n      swap3\n      pop\n      pop\n      pop\n      jump\t// out\n        /* \"#utility.yul\":2209:2549   */\n    tag_128:\n        /* \"#utility.yul\":2265:2270   */\n      0x00\n        /* \"#utility.yul\":2314:2317   */\n      dup3\n        /* \"#utility.yul\":2307:2311   */\n      0x1f\n        /* \"#utility.yul\":2299:2305   */\n      dup4\n        /* \"#utility.yul\":2295:2312   */\n      add\n        /* \"#utility.yul\":2291:2318   */\n      slt\n        /* \"#utility.yul\":2281:2403   */\n      tag_216\n      jumpi\n        /* \"#utility.yul\":2322:2401   */\n      tag_217\n      tag_119\n      jump\t// in\n    tag_217:\n        /* \"#utility.yul\":2281:2403   */\n    tag_216:\n        /* \"#utility.yul\":2439:2445   */\n      dup2\n        /* \"#utility.yul\":2426:2446   */\n      calldataload\n        /* \"#utility.yul\":2464:2543   */\n      tag_218\n        /* \"#utility.yul\":2539:2542   */\n      dup5\n        /* \"#utility.yul\":2531:2537   */\n      dup3\n        /* \"#utility.yul\":2524:2528   */\n      0x20\n        /* \"#utility.yul\":2516:2522   */\n      dup7\n        /* \"#utility.yul\":2512:2529   */\n      add\n        /* \"#utility.yul\":2464:2543   */\n      tag_127\n      jump\t// in\n    tag_218:\n        /* \"#utility.yul\":2455:2543   */\n      swap2\n      pop\n        /* \"#utility.yul\":2271:2549   */\n      pop\n        /* \"#utility.yul\":2209:2549   */\n      swap3\n      swap2\n      pop\n      pop\n      jump\t// out\n        /* \"#utility.yul\":2555:3064   */\n    tag_11:\n        /* \"#utility.yul\":2624:2630   */\n      0x00\n        /* \"#utility.yul\":2673:2675   */\n      0x20\n        /* \"#utility.yul\":2661:2670   */\n      dup3\n        /* \"#utility.yul\":2652:2659   */\n      dup5\n        /* \"#utility.yul\":2648:2671   */\n      sub\n        /* \"#utility.yul\":2644:2676   */\n      slt\n        /* \"#utility.yul\":2641:2760   */\n      iszero\n      tag_220\n      jumpi\n        /* \"#utility.yul\":2679:2758   */\n      tag_221\n      tag_117\n      jump\t// in\n    tag_221:\n        /* \"#utility.yul\":2641:2760   */\n    tag_220:\n        /* \"#utility.yul\":2827:2828   */\n      0x00\n        /* \"#utility.yul\":2816:2825   */\n      dup3\n        /* \"#utility.yul\":2812:2829   */\n      add\n        /* \"#utility.yul\":2799:2830   */\n      calldataload\n        /* \"#utility.yul\":2857:2875   */\n      0xffffffffffffffff\n        /* \"#utility.yul\":2849:2855   */\n      dup2\n        /* \"#utility.yul\":2846:2876   */\n      gt\n        /* \"#utility.yul\":2843:2960   */\n      iszero\n      tag_222\n      jumpi\n        /* \"#utility.yul\":2879:2958   */\n      tag_223\n      tag_118\n      jump\t// in\n    tag_223:\n        /* \"#utility.yul\":2843:2960   */\n    tag_222:\n        /* \"#utility.yul\":2984:3047   */\n      tag_224\n        /* \"#utility.yul\":3039:3046   */\n      dup5\n        /* \"#utility.yul\":3030:3036   */\n      dup3\n        /* \"#utility.yul\":3019:3028   */\n      dup6\n        /* \"#utility.yul\":3015:3037   */\n      add\n        /* \"#utility.yul\":2984:3047   */\n      tag_128\n      jump\t// in\n    tag_224:\n        /* \"#utility.yul\":2974:3047   */\n      swap2\n      pop\n        /* \"#utility.yul\":2770:3057   */\n      pop\n        /* \"#utility.yul\":2555:3064   */\n      swap3\n      swap2\n      pop\n      pop\n      jump\t// out\n        /* \"#utility.yul\":3070:3169   */\n    tag_129:\n        /* \"#utility.yul\":3122:3128   */\n      0x00\n        /* \"#utility.yul\":3156:3161   */\n      dup2\n        /* \"#utility.yul\":3150:3162   */\n      mload\n        /* \"#utility.yul\":3140:3162   */\n      swap1\n      pop\n        /* \"#utility.yul\":3070:3169   */\n      swap2\n      swap1\n      pop\n      jump\t// out\n        /* \"#utility.yul\":3175:3334   */\n    tag_130:\n        /* \"#utility.yul\":3249:3260   */\n      0x00\n        /* \"#utility.yul\":3283:3289   */\n      dup3\n        /* \"#utility.yul\":3278:3281   */\n      dup3\n        /* \"#utility.yul\":3271:3290   */\n      mstore\n        /* \"#utility.yul\":3323:3327   */\n      0x20\n        /* \"#utility.yul\":3318:3321   */\n      dup3\n        /* \"#utility.yul\":3314:3328   */\n      add\n        /* \"#utility.yul\":3299:3328   */\n      swap1\n      pop\n        /* \"#utility.yul\":3175:3334   */\n      swap3\n      swap2\n      pop\n      pop\n      jump\t// out\n        /* \"#utility.yul\":3340:3479   */\n    tag_131:\n        /* \"#utility.yul\":3429:3435   */\n      dup3\n        /* \"#utility.yul\":3424:3427   */\n      dup2\n        /* \"#utility.yul\":3419:3422   */\n      dup4\n        /* \"#utility.yul\":3413:3436   */\n      mcopy\n        /* \"#utility.yul\":3470:3471   */\n      0x00\n        /* \"#utility.yul\":3461:3467   */\n      dup4\n        /* \"#utility.yul\":3456:3459   */\n      dup4\n        /* \"#utility.yul\":3452:3468   */\n      add\n        /* \"#utility.yul\":3445:3472   */\n      mstore\n        /* \"#utility.yul\":3340:3479   */\n      pop\n      pop\n      pop\n      jump\t// out\n        /* \"#utility.yul\":3485:3842   */\n    tag_132:\n        /* \"#utility.yul\":3563:3566   */\n      0x00\n        /* \"#utility.yul\":3591:3630   */\n      tag_229\n        /* \"#utility.yul\":3624:3629   */\n      dup3\n        /* \"#utility.yul\":3591:3630   */\n      tag_129\n      jump\t// in\n    tag_229:\n        /* \"#utility.yul\":3646:3707   */\n      tag_230\n        /* \"#utility.yul\":3700:3706   */\n      dup2\n        /* \"#utility.yul\":3695:3698   */\n      dup6\n        /* \"#utility.yul\":3646:3707   */\n      tag_130\n      jump\t// in\n    tag_230:\n        /* \"#utility.yul\":3639:3707   */\n      swap4\n      pop\n        /* \"#utility.yul\":3716:3781   */\n      tag_231\n        /* \"#utility.yul\":3774:3780   */\n      dup2\n        /* \"#utility.yul\":3769:3772   */\n      dup6\n        /* \"#utility.yul\":3762:3766   */\n      0x20\n        /* \"#utility.yul\":3755:3760   */\n      dup7\n        /* \"#utility.yul\":3751:3767   */\n      add\n        /* \"#utility.yul\":3716:3781   */\n      tag_131\n      jump\t// in\n    tag_231:\n        /* \"#utility.yul\":3806:3835   */\n      tag_232\n        /* \"#utility.yul\":3828:3834   */\n      dup2\n        /* \"#utility.yul\":3806:3835   */\n      tag_121\n      jump\t// in\n    tag_232:\n        /* \"#utility.yul\":3801:3804   */\n      dup5\n        /* \"#utility.yul\":3797:3836   */\n      add\n        /* \"#utility.yul\":3790:3836   */\n      swap2\n      pop\n        /* \"#utility.yul\":3567:3842   */\n      pop\n        /* \"#utility.yul\":3485:3842   */\n      swap3\n      swap2\n      pop\n      pop\n      jump\t// out\n        /* \"#utility.yul\":3848:3974   */\n    tag_133:\n        /* \"#utility.yul\":3885:3892   */\n      0x00\n        /* \"#utility.yul\":3925:3967   */\n      0xffffffffffffffffffffffffffffffffffffffff\n        /* \"#utility.yul\":3918:3923   */\n      dup3\n        /* \"#utility.yul\":3914:3968   */\n      and\n        /* \"#utility.yul\":3903:3968   */\n      swap1\n      pop\n        /* \"#utility.yul\":3848:3974   */\n      swap2\n      swap1\n      pop\n      jump\t// out\n        /* \"#utility.yul\":3980:4076   */\n    tag_134:\n        /* \"#utility.yul\":4017:4024   */\n      0x00\n        /* \"#utility.yul\":4046:4070   */\n      tag_235\n        /* \"#utility.yul\":4064:4069   */\n      dup3\n        /* \"#utility.yul\":4046:4070   */\n      tag_133\n      jump\t// in\n    tag_235:\n        /* \"#utility.yul\":4035:4070   */\n      swap1\n      pop\n        /* \"#utility.yul\":3980:4076   */\n      swap2\n      swap1\n      pop\n      jump\t// out\n        /* \"#utility.yul\":4082:4190   */\n    tag_135:\n        /* \"#utility.yul\":4159:4183   */\n      tag_237\n        /* \"#utility.yul\":4177:4182   */\n      dup2\n        /* \"#utility.yul\":4159:4183   */\n      tag_134\n      jump\t// in\n    tag_237:\n        /* \"#utility.yul\":4154:4157   */\n      dup3\n        /* \"#utility.yul\":4147:4184   */\n      mstore\n        /* \"#utility.yul\":4082:4190   */\n      pop\n      pop\n      jump\t// out\n        /* \"#utility.yul\":4196:4273   */\n    tag_136:\n        /* \"#utility.yul\":4233:4240   */\n      0x00\n        /* \"#utility.yul\":4262:4267   */\n      dup2\n        /* \"#utility.yul\":4251:4267   */\n      swap1\n      pop\n        /* \"#utility.yul\":4196:4273   */\n      swap2\n      swap1\n      pop\n      jump\t// out\n        /* \"#utility.yul\":4279:4387   */\n    tag_137:\n        /* \"#utility.yul\":4356:4380   */\n      tag_240\n        /* \"#utility.yul\":4374:4379   */\n      dup2\n        /* \"#utility.yul\":4356:4380   */\n      tag_136\n      jump\t// in\n    tag_240:\n        /* \"#utility.yul\":4351:4354   */\n      dup3\n        /* \"#utility.yul\":4344:4381   */\n      mstore\n        /* \"#utility.yul\":4279:4387   */\n      pop\n      pop\n      jump\t// out\n        /* \"#utility.yul\":4459:5495   */\n    tag_138:\n        /* \"#utility.yul\":4574:4577   */\n      0x00\n        /* \"#utility.yul\":4610:4614   */\n      0x80\n        /* \"#utility.yul\":4605:4608   */\n      dup4\n        /* \"#utility.yul\":4601:4615   */\n      add\n        /* \"#utility.yul\":4701:4705   */\n      0x00\n        /* \"#utility.yul\":4694:4699   */\n      dup4\n        /* \"#utility.yul\":4690:4706   */\n      add\n        /* \"#utility.yul\":4684:4707   */\n      mload\n        /* \"#utility.yul\":4754:4757   */\n      dup5\n        /* \"#utility.yul\":4748:4752   */\n      dup3\n        /* \"#utility.yul\":4744:4758   */\n      sub\n        /* \"#utility.yul\":4737:4741   */\n      0x00\n        /* \"#utility.yul\":4732:4735   */\n      dup7\n        /* \"#utility.yul\":4728:4742   */\n      add\n        /* \"#utility.yul\":4721:4759   */\n      mstore\n        /* \"#utility.yul\":4780:4853   */\n      tag_242\n        /* \"#utility.yul\":4848:4852   */\n      dup3\n        /* \"#utility.yul\":4834:4846   */\n      dup3\n        /* \"#utility.yul\":4780:4853   */\n      tag_132\n      jump\t// in\n    tag_242:\n        /* \"#utility.yul\":4772:4853   */\n      swap2\n      pop\n        /* \"#utility.yul\":4625:4864   */\n      pop\n        /* \"#utility.yul\":4950:4954   */\n      0x20\n        /* \"#utility.yul\":4943:4948   */\n      dup4\n        /* \"#utility.yul\":4939:4955   */\n      add\n        /* \"#utility.yul\":4933:4956   */\n      mload\n        /* \"#utility.yul\":5003:5006   */\n      dup5\n        /* \"#utility.yul\":4997:5001   */\n      dup3\n        /* \"#utility.yul\":4993:5007   */\n      sub\n        /* \"#utility.yul\":4986:4990   */\n      0x20\n        /* \"#utility.yul\":4981:4984   */\n      dup7\n        /* \"#utility.yul\":4977:4991   */\n      add\n        /* \"#utility.yul\":4970:5008   */\n      mstore\n        /* \"#utility.yul\":5029:5102   */\n      tag_243\n        /* \"#utility.yul\":5097:5101   */\n      dup3\n        /* \"#utility.yul\":5083:5095   */\n      dup3\n        /* \"#utility.yul\":5029:5102   */\n      tag_132\n      jump\t// in\n    tag_243:\n        /* \"#utility.yul\":5021:5102   */\n      swap2\n      pop\n        /* \"#utility.yul\":4874:5113   */\n      pop\n        /* \"#utility.yul\":5196:5200   */\n      0x40\n        /* \"#utility.yul\":5189:5194   */\n      dup4\n        /* \"#utility.yul\":5185:5201   */\n      add\n        /* \"#utility.yul\":5179:5202   */\n      mload\n        /* \"#utility.yul\":5215:5278   */\n      tag_244\n        /* \"#utility.yul\":5272:5276   */\n      0x40\n        /* \"#utility.yul\":5267:5270   */\n      dup7\n        /* \"#utility.yul\":5263:5277   */\n      add\n        /* \"#utility.yul\":5249:5261   */\n      dup3\n        /* \"#utility.yul\":5215:5278   */\n      tag_135\n      jump\t// in\n    tag_244:\n        /* \"#utility.yul\":5123:5288   */\n      pop\n        /* \"#utility.yul\":5376:5380   */\n      0x60\n        /* \"#utility.yul\":5369:5374   */\n      dup4\n        /* \"#utility.yul\":5365:5381   */\n      add\n        /* \"#utility.yul\":5359:5382   */\n      mload\n        /* \"#utility.yul\":5395:5458   */\n      tag_245\n        /* \"#utility.yul\":5452:5456   */\n      0x60\n        /* \"#utility.yul\":5447:5450   */\n      dup7\n        /* \"#utility.yul\":5443:5457   */\n      add\n        /* \"#utility.yul\":5429:5441   */\n      dup3\n        /* \"#utility.yul\":5395:5458   */\n      tag_137\n      jump\t// in\n    tag_245:\n        /* \"#utility.yul\":5298:5468   */\n      pop\n        /* \"#utility.yul\":5485:5489   */\n      dup1\n        /* \"#utility.yul\":5478:5489   */\n      swap2\n      pop\n        /* \"#utility.yul\":4579:5495   */\n      pop\n        /* \"#utility.yul\":4459:5495   */\n      swap3\n      swap2\n      pop\n      pop\n      jump\t// out\n        /* \"#utility.yul\":5501:5866   */\n    tag_14:\n        /* \"#utility.yul\":5640:5644   */\n      0x00\n        /* \"#utility.yul\":5678:5680   */\n      0x20\n        /* \"#utility.yul\":5667:5676   */\n      dup3\n        /* \"#utility.yul\":5663:5681   */\n      add\n        /* \"#utility.yul\":5655:5681   */\n      swap1\n      pop\n        /* \"#utility.yul\":5727:5736   */\n      dup2\n        /* \"#utility.yul\":5721:5725   */\n      dup2\n        /* \"#utility.yul\":5717:5737   */\n      sub\n        /* \"#utility.yul\":5713:5714   */\n      0x00\n        /* \"#utility.yul\":5702:5711   */\n      dup4\n        /* \"#utility.yul\":5698:5715   */\n      add\n        /* \"#utility.yul\":5691:5738   */\n      mstore\n        /* \"#utility.yul\":5755:5859   */\n      tag_247\n        /* \"#utility.yul\":5854:5858   */\n      dup2\n        /* \"#utility.yul\":5845:5851   */\n      dup5\n        /* \"#utility.yul\":5755:5859   */\n      tag_138\n      jump\t// in\n    tag_247:\n        /* \"#utility.yul\":5747:5859   */\n      swap1\n      pop\n        /* \"#utility.yul\":5501:5866   */\n      swap3\n      swap2\n      pop\n      pop\n      jump\t// out\n        /* \"#utility.yul\":5872:6706   */\n    tag_17:\n        /* \"#utility.yul\":5960:5966   */\n      0x00\n        /* \"#utility.yul\":5968:5974   */\n      0x00\n        /* \"#utility.yul\":6017:6019   */\n      0x40\n        /* \"#utility.yul\":6005:6014   */\n      dup4\n        /* \"#utility.yul\":5996:6003   */\n      dup6\n        /* \"#utility.yul\":5992:6015   */\n      sub\n        /* \"#utility.yul\":5988:6020   */\n      slt\n        /* \"#utility.yul\":5985:6104   */\n      iszero\n      tag_249\n      jumpi\n        /* \"#utility.yul\":6023:6102   */\n      tag_250\n      tag_117\n      jump\t// in\n    tag_250:\n        /* \"#utility.yul\":5985:6104   */\n    tag_249:\n        /* \"#utility.yul\":6171:6172   */\n      0x00\n        /* \"#utility.yul\":6160:6169   */\n      dup4\n        /* \"#utility.yul\":6156:6173   */\n      add\n        /* \"#utility.yul\":6143:6174   */\n      calldataload\n        /* \"#utility.yul\":6201:6219   */\n      0xffffffffffffffff\n        /* \"#utility.yul\":6193:6199   */\n      dup2\n        /* \"#utility.yul\":6190:6220   */\n      gt\n        /* \"#utility.yul\":6187:6304   */\n      iszero\n      tag_251\n      jumpi\n        /* \"#utility.yul\":6223:6302   */\n      tag_252\n      tag_118\n      jump\t// in\n    tag_252:\n        /* \"#utility.yul\":6187:6304   */\n    tag_251:\n        /* \"#utility.yul\":6328:6391   */\n      tag_253\n        /* \"#utility.yul\":6383:6390   */\n      dup6\n        /* \"#utility.yul\":6374:6380   */\n      dup3\n        /* \"#utility.yul\":6363:6372   */\n      dup7\n        /* \"#utility.yul\":6359:6381   */\n      add\n        /* \"#utility.yul\":6328:6391   */\n      tag_128\n      jump\t// in\n    tag_253:\n        /* \"#utility.yul\":6318:6391   */\n      swap3\n      pop\n        /* \"#utility.yul\":6114:6401   */\n      pop\n        /* \"#utility.yul\":6468:6470   */\n      0x20\n        /* \"#utility.yul\":6457:6466   */\n      dup4\n        /* \"#utility.yul\":6453:6471   */\n      add\n        /* \"#utility.yul\":6440:6472   */\n      calldataload\n        /* \"#utility.yul\":6499:6517   */\n      0xffffffffffffffff\n        /* \"#utility.yul\":6491:6497   */\n      dup2\n        /* \"#utility.yul\":6488:6518   */\n      gt\n        /* \"#utility.yul\":6485:6602   */\n      iszero\n      tag_254\n      jumpi\n        /* \"#utility.yul\":6521:6600   */\n      tag_255\n      tag_118\n      jump\t// in\n    tag_255:\n        /* \"#utility.yul\":6485:6602   */\n    tag_254:\n        /* \"#utility.yul\":6626:6689   */\n      tag_256\n        /* \"#utility.yul\":6681:6688   */\n      dup6\n        /* \"#utility.yul\":6672:6678   */\n      dup3\n        /* \"#utility.yul\":6661:6670   */\n      dup7\n        /* \"#utility.yul\":6657:6679   */\n      add\n        /* \"#utility.yul\":6626:6689   */\n      tag_128\n      jump\t// in\n    tag_256:\n        /* \"#utility.yul\":6616:6689   */\n      swap2\n      pop\n        /* \"#utility.yul\":6411:6699   */\n      pop\n        /* \"#utility.yul\":5872:6706   */\n      swap3\n      pop\n      swap3\n      swap1\n      pop\n      jump\t// out\n        /* \"#utility.yul\":6712:6772   */\n    tag_139:\n        /* \"#utility.yul\":6740:6743   */\n      0x00\n        /* \"#utility.yul\":6761:6766   */\n      dup2\n        /* \"#utility.yul\":6754:6766   */\n      swap1\n      pop\n        /* \"#utility.yul\":6712:6772   */\n      swap2\n      swap1\n      pop\n      jump\t// out\n        /* \"#utility.yul\":6778:6920   */\n    tag_140:\n        /* \"#utility.yul\":6828:6837   */\n      0x00\n        /* \"#utility.yul\":6861:6914   */\n      tag_259\n        /* \"#utility.yul\":6879:6913   */\n      tag_260\n        /* \"#utility.yul\":6888:6912   */\n      tag_261\n        /* \"#utility.yul\":6906:6911   */\n      dup5\n        /* \"#utility.yul\":6888:6912   */\n      tag_133\n      jump\t// in\n    tag_261:\n        /* \"#utility.yul\":6879:6913   */\n      tag_139\n      jump\t// in\n    tag_260:\n        /* \"#utility.yul\":6861:6914   */\n      tag_133\n      jump\t// in\n    tag_259:\n        /* \"#utility.yul\":6848:6914   */\n      swap1\n      pop\n        /* \"#utility.yul\":6778:6920   */\n      swap2\n      swap1\n      pop\n      jump\t// out\n        /* \"#utility.yul\":6926:7052   */\n    tag_141:\n        /* \"#utility.yul\":6976:6985   */\n      0x00\n        /* \"#utility.yul\":7009:7046   */\n      tag_263\n        /* \"#utility.yul\":7040:7045   */\n      dup3\n        /* \"#utility.yul\":7009:7046   */\n      tag_140\n      jump\t// in\n    tag_263:\n        /* \"#utility.yul\":6996:7046   */\n      swap1\n      pop\n        /* \"#utility.yul\":6926:7052   */\n      swap2\n      swap1\n      pop\n      jump\t// out\n        /* \"#utility.yul\":7058:7205   */\n    tag_142:\n        /* \"#utility.yul\":7129:7138   */\n      0x00\n        /* \"#utility.yul\":7162:7199   */\n      tag_265\n        /* \"#utility.yul\":7193:7198   */\n      dup3\n        /* \"#utility.yul\":7162:7199   */\n      tag_141\n      jump\t// in\n    tag_265:\n        /* \"#utility.yul\":7149:7199   */\n      swap1\n      pop\n        /* \"#utility.yul\":7058:7205   */\n      swap2\n      swap1\n      pop\n      jump\t// out\n        /* \"#utility.yul\":7211:7384   */\n    tag_143:\n        /* \"#utility.yul\":7319:7377   */\n      tag_267\n        /* \"#utility.yul\":7371:7376   */\n      dup2\n        /* \"#utility.yul\":7319:7377   */\n      tag_142\n      jump\t// in\n    tag_267:\n        /* \"#utility.yul\":7314:7317   */\n      dup3\n        /* \"#utility.yul\":7307:7378   */\n      mstore\n        /* \"#utility.yul\":7211:7384   */\n      pop\n      pop\n      jump\t// out\n        /* \"#utility.yul\":7390:7654   */\n    tag_22:\n        /* \"#utility.yul\":7504:7508   */\n      0x00\n        /* \"#utility.yul\":7542:7544   */\n      0x20\n        /* \"#utility.yul\":7531:7540   */\n      dup3\n        /* \"#utility.yul\":7527:7545   */\n      add\n        /* \"#utility.yul\":7519:7545   */\n      swap1\n      pop\n        /* \"#utility.yul\":7555:7647   */\n      tag_269\n        /* \"#utility.yul\":7644:7645   */\n      0x00\n        /* \"#utility.yul\":7633:7642   */\n      dup4\n        /* \"#utility.yul\":7629:7646   */\n      add\n        /* \"#utility.yul\":7620:7626   */\n      dup5\n        /* \"#utility.yul\":7555:7647   */\n      tag_143\n      jump\t// in\n    tag_269:\n        /* \"#utility.yul\":7390:7654   */\n      swap3\n      swap2\n      pop\n      pop\n      jump\t// out\n        /* \"#utility.yul\":7660:7809   */\n    tag_144:\n        /* \"#utility.yul\":7733:7742   */\n      0x00\n        /* \"#utility.yul\":7766:7803   */\n      tag_271\n        /* \"#utility.yul\":7797:7802   */\n      dup3\n        /* \"#utility.yul\":7766:7803   */\n      tag_141\n      jump\t// in\n    tag_271:\n        /* \"#utility.yul\":7753:7803   */\n      swap1\n      pop\n        /* \"#utility.yul\":7660:7809   */\n      swap2\n      swap1\n      pop\n      jump\t// out\n        /* \"#utility.yul\":7815:7992   */\n    tag_145:\n        /* \"#utility.yul\":7925:7985   */\n      tag_273\n        /* \"#utility.yul\":7979:7984   */\n      dup2\n        /* \"#utility.yul\":7925:7985   */\n      tag_144\n      jump\t// in\n    tag_273:\n        /* \"#utility.yul\":7920:7923   */\n      dup3\n        /* \"#utility.yul\":7913:7986   */\n      mstore\n        /* \"#utility.yul\":7815:7992   */\n      pop\n      pop\n      jump\t// out\n        /* \"#utility.yul\":7998:8266   */\n    tag_30:\n        /* \"#utility.yul\":8114:8118   */\n      0x00\n        /* \"#utility.yul\":8152:8154   */\n      0x20\n        /* \"#utility.yul\":8141:8150   */\n      dup3\n        /* \"#utility.yul\":8137:8155   */\n      add\n        /* \"#utility.yul\":8129:8155   */\n      swap1\n      pop\n        /* \"#utility.yul\":8165:8259   */\n      tag_275\n        /* \"#utility.yul\":8256:8257   */\n      0x00\n        /* \"#utility.yul\":8245:8254   */\n      dup4\n        /* \"#utility.yul\":8241:8258   */\n      add\n        /* \"#utility.yul\":8232:8238   */\n      dup5\n        /* \"#utility.yul\":8165:8259   */\n      tag_145\n      jump\t// in\n    tag_275:\n        /* \"#utility.yul\":7998:8266   */\n      swap3\n      swap2\n      pop\n      pop\n      jump\t// out\n        /* \"#utility.yul\":8272:8394   */\n    tag_146:\n        /* \"#utility.yul\":8345:8369   */\n      tag_277\n        /* \"#utility.yul\":8363:8368   */\n      dup2\n        /* \"#utility.yul\":8345:8369   */\n      tag_134\n      jump\t// in\n    tag_277:\n        /* \"#utility.yul\":8338:8343   */\n      dup2\n        /* \"#utility.yul\":8335:8370   */\n      eq\n        /* \"#utility.yul\":8325:8388   */\n      tag_278\n      jumpi\n        /* \"#utility.yul\":8384:8385   */\n      0x00\n        /* \"#utility.yul\":8381:8382   */\n      0x00\n        /* \"#utility.yul\":8374:8386   */\n      revert\n        /* \"#utility.yul\":8325:8388   */\n    tag_278:\n        /* \"#utility.yul\":8272:8394   */\n      pop\n      jump\t// out\n        /* \"#utility.yul\":8400:8539   */\n    tag_147:\n        /* \"#utility.yul\":8446:8451   */\n      0x00\n        /* \"#utility.yul\":8484:8490   */\n      dup2\n        /* \"#utility.yul\":8471:8491   */\n      calldataload\n        /* \"#utility.yul\":8462:8491   */\n      swap1\n      pop\n        /* \"#utility.yul\":8500:8533   */\n      tag_280\n        /* \"#utility.yul\":8527:8532   */\n      dup2\n        /* \"#utility.yul\":8500:8533   */\n      tag_146\n      jump\t// in\n    tag_280:\n        /* \"#utility.yul\":8400:8539   */\n      swap3\n      swap2\n      pop\n      pop\n      jump\t// out\n        /* \"#utility.yul\":8545:8874   */\n    tag_33:\n        /* \"#utility.yul\":8604:8610   */\n      0x00\n        /* \"#utility.yul\":8653:8655   */\n      0x20\n        /* \"#utility.yul\":8641:8650   */\n      dup3\n        /* \"#utility.yul\":8632:8639   */\n      dup5\n        /* \"#utility.yul\":8628:8651   */\n      sub\n        /* \"#utility.yul\":8624:8656   */\n      slt\n        /* \"#utility.yul\":8621:8740   */\n      iszero\n      tag_282\n      jumpi\n        /* \"#utility.yul\":8659:8738   */\n      tag_283\n      tag_117\n      jump\t// in\n    tag_283:\n        /* \"#utility.yul\":8621:8740   */\n    tag_282:\n        /* \"#utility.yul\":8779:8780   */\n      0x00\n        /* \"#utility.yul\":8804:8857   */\n      tag_284\n        /* \"#utility.yul\":8849:8856   */\n      dup5\n        /* \"#utility.yul\":8840:8846   */\n      dup3\n        /* \"#utility.yul\":8829:8838   */\n      dup6\n        /* \"#utility.yul\":8825:8847   */\n      add\n        /* \"#utility.yul\":8804:8857   */\n      tag_147\n      jump\t// in\n    tag_284:\n        /* \"#utility.yul\":8794:8857   */\n      swap2\n      pop\n        /* \"#utility.yul\":8750:8867   */\n      pop\n        /* \"#utility.yul\":8545:8874   */\n      swap3\n      swap2\n      pop\n      pop\n      jump\t// out\n        /* \"#utility.yul\":8880:9004   */\n    tag_148:\n        /* \"#utility.yul\":8957:8963   */\n      0x00\n        /* \"#utility.yul\":8991:8996   */\n      dup2\n        /* \"#utility.yul\":8985:8997   */\n      mload\n        /* \"#utility.yul\":8975:8997   */\n      swap1\n      pop\n        /* \"#utility.yul\":8880:9004   */\n      swap2\n      swap1\n      pop\n      jump\t// out\n        /* \"#utility.yul\":9010:9204   */\n    tag_149:\n        /* \"#utility.yul\":9119:9130   */\n      0x00\n        /* \"#utility.yul\":9153:9159   */\n      dup3\n        /* \"#utility.yul\":9148:9151   */\n      dup3\n        /* \"#utility.yul\":9141:9160   */\n      mstore\n        /* \"#utility.yul\":9193:9197   */\n      0x20\n        /* \"#utility.yul\":9188:9191   */\n      dup3\n        /* \"#utility.yul\":9184:9198   */\n      add\n        /* \"#utility.yul\":9169:9198   */\n      swap1\n      pop\n        /* \"#utility.yul\":9010:9204   */\n      swap3\n      swap2\n      pop\n      pop\n      jump\t// out\n        /* \"#utility.yul\":9210:9352   */\n    tag_150:\n        /* \"#utility.yul\":9287:9291   */\n      0x00\n        /* \"#utility.yul\":9310:9313   */\n      dup2\n        /* \"#utility.yul\":9302:9313   */\n      swap1\n      pop\n        /* \"#utility.yul\":9340:9344   */\n      0x20\n        /* \"#utility.yul\":9335:9338   */\n      dup3\n        /* \"#utility.yul\":9331:9345   */\n      add\n        /* \"#utility.yul\":9323:9345   */\n      swap1\n      pop\n        /* \"#utility.yul\":9210:9352   */\n      swap2\n      swap1\n      pop\n      jump\t// out\n        /* \"#utility.yul\":9358:9554   */\n    tag_151:\n        /* \"#utility.yul\":9447:9457   */\n      0x00\n        /* \"#utility.yul\":9482:9548   */\n      tag_289\n        /* \"#utility.yul\":9544:9547   */\n      dup4\n        /* \"#utility.yul\":9536:9542   */\n      dup4\n        /* \"#utility.yul\":9482:9548   */\n      tag_132\n      jump\t// in\n    tag_289:\n        /* \"#utility.yul\":9468:9548   */\n      swap1\n      pop\n        /* \"#utility.yul\":9358:9554   */\n      swap3\n      swap2\n      pop\n      pop\n      jump\t// out\n        /* \"#utility.yul\":9560:9683   */\n    tag_152:\n        /* \"#utility.yul\":9640:9644   */\n      0x00\n        /* \"#utility.yul\":9672:9676   */\n      0x20\n        /* \"#utility.yul\":9667:9670   */\n      dup3\n        /* \"#utility.yul\":9663:9677   */\n      add\n        /* \"#utility.yul\":9655:9677   */\n      swap1\n      pop\n        /* \"#utility.yul\":9560:9683   */\n      swap2\n      swap1\n      pop\n      jump\t// out\n        /* \"#utility.yul\":9717:10708   */\n    tag_153:\n        /* \"#utility.yul\":9856:9859   */\n      0x00\n        /* \"#utility.yul\":9885:9949   */\n      tag_292\n        /* \"#utility.yul\":9943:9948   */\n      dup3\n        /* \"#utility.yul\":9885:9949   */\n      tag_148\n      jump\t// in\n    tag_292:\n        /* \"#utility.yul\":9965:10061   */\n      tag_293\n        /* \"#utility.yul\":10054:10060   */\n      dup2\n        /* \"#utility.yul\":10049:10052   */\n      dup6\n        /* \"#utility.yul\":9965:10061   */\n      tag_149\n      jump\t// in\n    tag_293:\n        /* \"#utility.yul\":9958:10061   */\n      swap4\n      pop\n        /* \"#utility.yul\":10087:10090   */\n      dup4\n        /* \"#utility.yul\":10132:10136   */\n      0x20\n        /* \"#utility.yul\":10124:10130   */\n      dup3\n        /* \"#utility.yul\":10120:10137   */\n      mul\n        /* \"#utility.yul\":10115:10118   */\n      dup6\n        /* \"#utility.yul\":10111:10138   */\n      add\n        /* \"#utility.yul\":10162:10228   */\n      tag_294\n        /* \"#utility.yul\":10222:10227   */\n      dup6\n        /* \"#utility.yul\":10162:10228   */\n      tag_150\n      jump\t// in\n    tag_294:\n        /* \"#utility.yul\":10251:10258   */\n      dup1\n        /* \"#utility.yul\":10282:10283   */\n      0x00\n        /* \"#utility.yul\":10267:10663   */\n    tag_295:\n        /* \"#utility.yul\":10292:10298   */\n      dup6\n        /* \"#utility.yul\":10289:10290   */\n      dup2\n        /* \"#utility.yul\":10286:10299   */\n      lt\n        /* \"#utility.yul\":10267:10663   */\n      iszero\n      tag_297\n      jumpi\n        /* \"#utility.yul\":10363:10372   */\n      dup5\n        /* \"#utility.yul\":10357:10361   */\n      dup5\n        /* \"#utility.yul\":10353:10373   */\n      sub\n        /* \"#utility.yul\":10348:10351   */\n      dup10\n        /* \"#utility.yul\":10341:10374   */\n      mstore\n        /* \"#utility.yul\":10414:10420   */\n      dup2\n        /* \"#utility.yul\":10408:10421   */\n      mload\n        /* \"#utility.yul\":10442:10526   */\n      tag_298\n        /* \"#utility.yul\":10521:10525   */\n      dup6\n        /* \"#utility.yul\":10506:10519   */\n      dup3\n        /* \"#utility.yul\":10442:10526   */\n      tag_151\n      jump\t// in\n    tag_298:\n        /* \"#utility.yul\":10434:10526   */\n      swap5\n      pop\n        /* \"#utility.yul\":10549:10619   */\n      tag_299\n        /* \"#utility.yul\":10612:10618   */\n      dup4\n        /* \"#utility.yul\":10549:10619   */\n      tag_152\n      jump\t// in\n    tag_299:\n        /* \"#utility.yul\":10539:10619   */\n      swap3\n      pop\n        /* \"#utility.yul\":10648:10652   */\n      0x20\n        /* \"#utility.yul\":10643:10646   */\n      dup11\n        /* \"#utility.yul\":10639:10653   */\n      add\n        /* \"#utility.yul\":10632:10653   */\n      swap10\n      pop\n        /* \"#utility.yul\":10327:10663   */\n      pop\n        /* \"#utility.yul\":10314:10315   */\n      0x01\n        /* \"#utility.yul\":10311:10312   */\n      dup2\n        /* \"#utility.yul\":10307:10316   */\n      add\n        /* \"#utility.yul\":10302:10316   */\n      swap1\n      pop\n        /* \"#utility.yul\":10267:10663   */\n      jump(tag_295)\n    tag_297:\n        /* \"#utility.yul\":10271:10285   */\n      pop\n        /* \"#utility.yul\":10679:10683   */\n      dup3\n        /* \"#utility.yul\":10672:10683   */\n      swap8\n      pop\n        /* \"#utility.yul\":10699:10702   */\n      dup8\n        /* \"#utility.yul\":10692:10702   */\n      swap6\n      pop\n        /* \"#utility.yul\":9861:10708   */\n      pop\n      pop\n      pop\n      pop\n      pop\n        /* \"#utility.yul\":9717:10708   */\n      swap3\n      swap2\n      pop\n      pop\n      jump\t// out\n        /* \"#utility.yul\":10714:11127   */\n    tag_36:\n        /* \"#utility.yul\":10877:10881   */\n      0x00\n        /* \"#utility.yul\":10915:10917   */\n      0x20\n        /* \"#utility.yul\":10904:10913   */\n      dup3\n        /* \"#utility.yul\":10900:10918   */\n      add\n        /* \"#utility.yul\":10892:10918   */\n      swap1\n      pop\n        /* \"#utility.yul\":10964:10973   */\n      dup2\n        /* \"#utility.yul\":10958:10962   */\n      dup2\n        /* \"#utility.yul\":10954:10974   */\n      sub\n        /* \"#utility.yul\":10950:10951   */\n      0x00\n        /* \"#utility.yul\":10939:10948   */\n      dup4\n        /* \"#utility.yul\":10935:10952   */\n      add\n        /* \"#utility.yul\":10928:10975   */\n      mstore\n        /* \"#utility.yul\":10992:11120   */\n      tag_301\n        /* \"#utility.yul\":11115:11119   */\n      dup2\n        /* \"#utility.yul\":11106:11112   */\n      dup5\n        /* \"#utility.yul\":10992:11120   */\n      tag_153\n      jump\t// in\n    tag_301:\n        /* \"#utility.yul\":10984:11120   */\n      swap1\n      pop\n        /* \"#utility.yul\":10714:11127   */\n      swap3\n      swap2\n      pop\n      pop\n      jump\t// out\n        /* \"#utility.yul\":11133:11281   */\n    tag_154:\n        /* \"#utility.yul\":11235:11246   */\n      0x00\n        /* \"#utility.yul\":11272:11275   */\n      dup2\n        /* \"#utility.yul\":11257:11275   */\n      swap1\n      pop\n        /* \"#utility.yul\":11133:11281   */\n      swap3\n      swap2\n      pop\n      pop\n      jump\t// out\n        /* \"#utility.yul\":11287:11677   */\n    tag_155:\n        /* \"#utility.yul\":11393:11396   */\n      0x00\n        /* \"#utility.yul\":11421:11460   */\n      tag_304\n        /* \"#utility.yul\":11454:11459   */\n      dup3\n        /* \"#utility.yul\":11421:11460   */\n      tag_129\n      jump\t// in\n    tag_304:\n        /* \"#utility.yul\":11476:11565   */\n      tag_305\n        /* \"#utility.yul\":11558:11564   */\n      dup2\n        /* \"#utility.yul\":11553:11556   */\n      dup6\n        /* \"#utility.yul\":11476:11565   */\n      tag_154\n      jump\t// in\n    tag_305:\n        /* \"#utility.yul\":11469:11565   */\n      swap4\n      pop\n        /* \"#utility.yul\":11574:11639   */\n      tag_306\n        /* \"#utility.yul\":11632:11638   */\n      dup2\n        /* \"#utility.yul\":11627:11630   */\n      dup6\n        /* \"#utility.yul\":11620:11624   */\n      0x20\n        /* \"#utility.yul\":11613:11618   */\n      dup7\n        /* \"#utility.yul\":11609:11625   */\n      add\n        /* \"#utility.yul\":11574:11639   */\n      tag_131\n      jump\t// in\n    tag_306:\n        /* \"#utility.yul\":11664:11670   */\n      dup1\n        /* \"#utility.yul\":11659:11662   */\n      dup5\n        /* \"#utility.yul\":11655:11671   */\n      add\n        /* \"#utility.yul\":11648:11671   */\n      swap2\n      pop\n        /* \"#utility.yul\":11397:11677   */\n      pop\n        /* \"#utility.yul\":11287:11677   */\n      swap3\n      swap2\n      pop\n      pop\n      jump\t// out\n        /* \"#utility.yul\":11683:11958   */\n    tag_41:\n        /* \"#utility.yul\":11815:11818   */\n      0x00\n        /* \"#utility.yul\":11837:11932   */\n      tag_308\n        /* \"#utility.yul\":11928:11931   */\n      dup3\n        /* \"#utility.yul\":11919:11925   */\n      dup5\n        /* \"#utility.yul\":11837:11932   */\n      tag_155\n      jump\t// in\n    tag_308:\n        /* \"#utility.yul\":11830:11932   */\n      swap2\n      pop\n        /* \"#utility.yul\":11949:11952   */\n      dup2\n        /* \"#utility.yul\":11942:11952   */\n      swap1\n      pop\n        /* \"#utility.yul\":11683:11958   */\n      swap3\n      swap2\n      pop\n      pop\n      jump\t// out\n        /* \"#utility.yul\":11964:12144   */\n    tag_156:\n        /* \"#utility.yul\":12012:12089   */\n      0x4e487b7100000000000000000000000000000000000000000000000000000000\n        /* \"#utility.yul\":12009:12010   */\n      0x00\n        /* \"#utility.yul\":12002:12090   */\n      mstore\n        /* \"#utility.yul\":12109:12113   */\n      0x22\n        /* \"#utility.yul\":12106:12107   */\n      0x04\n        /* \"#utility.yul\":12099:12114   */\n      mstore\n        /* \"#utility.yul\":12133:12137   */\n      0x24\n        /* \"#utility.yul\":12130:12131   */\n      0x00\n        /* \"#utility.yul\":12123:12138   */\n      revert\n        /* \"#utility.yul\":12150:12470   */\n    tag_43:\n        /* \"#utility.yul\":12194:12200   */\n      0x00\n        /* \"#utility.yul\":12231:12232   */\n      0x02\n        /* \"#utility.yul\":12225:12229   */\n      dup3\n        /* \"#utility.yul\":12221:12233   */\n      div\n        /* \"#utility.yul\":12211:12233   */\n      swap1\n      pop\n        /* \"#utility.yul\":12278:12279   */\n      0x01\n        /* \"#utility.yul\":12272:12276   */\n      dup3\n        /* \"#utility.yul\":12268:12280   */\n      and\n        /* \"#utility.yul\":12299:12317   */\n      dup1\n        /* \"#utility.yul\":12289:12370   */\n      tag_311\n      jumpi\n        /* \"#utility.yul\":12355:12359   */\n      0x7f\n        /* \"#utility.yul\":12347:12353   */\n      dup3\n        /* \"#utility.yul\":12343:12360   */\n      and\n        /* \"#utility.yul\":12333:12360   */\n      swap2\n      pop\n        /* \"#utility.yul\":12289:12370   */\n    tag_311:\n        /* \"#utility.yul\":12417:12419   */\n      0x20\n        /* \"#utility.yul\":12409:12415   */\n      dup3\n        /* \"#utility.yul\":12406:12420   */\n      lt\n        /* \"#utility.yul\":12386:12404   */\n      dup2\n        /* \"#utility.yul\":12383:12421   */\n      sub\n        /* \"#utility.yul\":12380:12464   */\n      tag_312\n      jumpi\n        /* \"#utility.yul\":12436:12454   */\n      tag_313\n      tag_156\n      jump\t// in\n    tag_313:\n        /* \"#utility.yul\":12380:12464   */\n    tag_312:\n        /* \"#utility.yul\":12201:12470   */\n      pop\n        /* \"#utility.yul\":12150:12470   */\n      swap2\n      swap1\n      pop\n      jump\t// out\n        /* \"#utility.yul\":12476:12645   */\n    tag_157:\n        /* \"#utility.yul\":12560:12571   */\n      0x00\n        /* \"#utility.yul\":12594:12600   */\n      dup3\n        /* \"#utility.yul\":12589:12592   */\n      dup3\n        /* \"#utility.yul\":12582:12601   */\n      mstore\n        /* \"#utility.yul\":12634:12638   */\n      0x20\n        /* \"#utility.yul\":12629:12632   */\n      dup3\n        /* \"#utility.yul\":12625:12639   */\n      add\n        /* \"#utility.yul\":12610:12639   */\n      swap1\n      pop\n        /* \"#utility.yul\":12476:12645   */\n      swap3\n      swap2\n      pop\n      pop\n      jump\t// out\n        /* \"#utility.yul\":12651:12822   */\n    tag_158:\n        /* \"#utility.yul\":12791:12814   */\n      0x5265636f726420646f6573206e6f742065786973740000000000000000000000\n        /* \"#utility.yul\":12787:12788   */\n      0x00\n        /* \"#utility.yul\":12779:12785   */\n      dup3\n        /* \"#utility.yul\":12775:12789   */\n      add\n        /* \"#utility.yul\":12768:12815   */\n      mstore\n        /* \"#utility.yul\":12651:12822   */\n      pop\n      jump\t// out\n        /* \"#utility.yul\":12828:13194   */\n    tag_159:\n        /* \"#utility.yul\":12970:12973   */\n      0x00\n        /* \"#utility.yul\":12991:13058   */\n      tag_317\n        /* \"#utility.yul\":13055:13057   */\n      0x15\n        /* \"#utility.yul\":13050:13053   */\n      dup4\n        /* \"#utility.yul\":12991:13058   */\n      tag_157\n      jump\t// in\n    tag_317:\n        /* \"#utility.yul\":12984:13058   */\n      swap2\n      pop\n        /* \"#utility.yul\":13067:13160   */\n      tag_318\n        /* \"#utility.yul\":13156:13159   */\n      dup3\n        /* \"#utility.yul\":13067:13160   */\n      tag_158\n      jump\t// in\n    tag_318:\n        /* \"#utility.yul\":13185:13187   */\n      0x20\n        /* \"#utility.yul\":13180:13183   */\n      dup3\n        /* \"#utility.yul\":13176:13188   */\n      add\n        /* \"#utility.yul\":13169:13188   */\n      swap1\n      pop\n        /* \"#utility.yul\":12828:13194   */\n      swap2\n      swap1\n      pop\n      jump\t// out\n        /* \"#utility.yul\":13200:13619   */\n    tag_55:\n        /* \"#utility.yul\":13366:13370   */\n      0x00\n        /* \"#utility.yul\":13404:13406   */\n      0x20\n        /* \"#utility.yul\":13393:13402   */\n      dup3\n        /* \"#utility.yul\":13389:13407   */\n      add\n        /* \"#utility.yul\":13381:13407   */\n      swap1\n      pop\n        /* \"#utility.yul\":13453:13462   */\n      dup2\n        /* \"#utility.yul\":13447:13451   */\n      dup2\n        /* \"#utility.yul\":13443:13463   */\n      sub\n        /* \"#utility.yul\":13439:13440   */\n      0x00\n        /* \"#utility.yul\":13428:13437   */\n      dup4\n        /* \"#utility.yul\":13424:13441   */\n      add\n        /* \"#utility.yul\":13417:13464   */\n      mstore\n        /* \"#utility.yul\":13481:13612   */\n      tag_320\n        /* \"#utility.yul\":13607:13611   */\n      dup2\n        /* \"#utility.yul\":13481:13612   */\n      tag_159\n      jump\t// in\n    tag_320:\n        /* \"#utility.yul\":13473:13612   */\n      swap1\n      pop\n        /* \"#utility.yul\":13200:13619   */\n      swap2\n      swap1\n      pop\n      jump\t// out\n        /* \"#utility.yul\":13625:14002   */\n    tag_160:\n        /* \"#utility.yul\":13713:13716   */\n      0x00\n        /* \"#utility.yul\":13741:13780   */\n      tag_322\n        /* \"#utility.yul\":13774:13779   */\n      dup3\n        /* \"#utility.yul\":13741:13780   */\n      tag_129\n      jump\t// in\n    tag_322:\n        /* \"#utility.yul\":13796:13867   */\n      tag_323\n        /* \"#utility.yul\":13860:13866   */\n      dup2\n        /* \"#utility.yul\":13855:13858   */\n      dup6\n        /* \"#utility.yul\":13796:13867   */\n      tag_157\n      jump\t// in\n    tag_323:\n        /* \"#utility.yul\":13789:13867   */\n      swap4\n      pop\n        /* \"#utility.yul\":13876:13941   */\n      tag_324\n        /* \"#utility.yul\":13934:13940   */\n      dup2\n        /* \"#utility.yul\":13929:13932   */\n      dup6\n        /* \"#utility.yul\":13922:13926   */\n      0x20\n        /* \"#utility.yul\":13915:13920   */\n      dup7\n        /* \"#utility.yul\":13911:13927   */\n      add\n        /* \"#utility.yul\":13876:13941   */\n      tag_131\n      jump\t// in\n    tag_324:\n        /* \"#utility.yul\":13966:13995   */\n      tag_325\n        /* \"#utility.yul\":13988:13994   */\n      dup2\n        /* \"#utility.yul\":13966:13995   */\n      tag_121\n      jump\t// in\n    tag_325:\n        /* \"#utility.yul\":13961:13964   */\n      dup5\n        /* \"#utility.yul\":13957:13996   */\n      add\n        /* \"#utility.yul\":13950:13996   */\n      swap2\n      pop\n        /* \"#utility.yul\":13717:14002   */\n      pop\n        /* \"#utility.yul\":13625:14002   */\n      swap3\n      swap2\n      pop\n      pop\n      jump\t// out\n        /* \"#utility.yul\":14008:14126   */\n    tag_161:\n        /* \"#utility.yul\":14095:14119   */\n      tag_327\n        /* \"#utility.yul\":14113:14118   */\n      dup2\n        /* \"#utility.yul\":14095:14119   */\n      tag_134\n      jump\t// in\n    tag_327:\n        /* \"#utility.yul\":14090:14093   */\n      dup3\n        /* \"#utility.yul\":14083:14120   */\n      mstore\n        /* \"#utility.yul\":14008:14126   */\n      pop\n      pop\n      jump\t// out\n        /* \"#utility.yul\":14132:14555   */\n    tag_57:\n        /* \"#utility.yul\":14273:14277   */\n      0x00\n        /* \"#utility.yul\":14311:14313   */\n      0x40\n        /* \"#utility.yul\":14300:14309   */\n      dup3\n        /* \"#utility.yul\":14296:14314   */\n      add\n        /* \"#utility.yul\":14288:14314   */\n      swap1\n      pop\n        /* \"#utility.yul\":14360:14369   */\n      dup2\n        /* \"#utility.yul\":14354:14358   */\n      dup2\n        /* \"#utility.yul\":14350:14370   */\n      sub\n        /* \"#utility.yul\":14346:14347   */\n      0x00\n        /* \"#utility.yul\":14335:14344   */\n      dup4\n        /* \"#utility.yul\":14331:14348   */\n      add\n        /* \"#utility.yul\":14324:14371   */\n      mstore\n        /* \"#utility.yul\":14388:14466   */\n      tag_329\n        /* \"#utility.yul\":14461:14465   */\n      dup2\n        /* \"#utility.yul\":14452:14458   */\n      dup6\n        /* \"#utility.yul\":14388:14466   */\n      tag_160\n      jump\t// in\n    tag_329:\n        /* \"#utility.yul\":14380:14466   */\n      swap1\n      pop\n        /* \"#utility.yul\":14476:14548   */\n      tag_330\n        /* \"#utility.yul\":14544:14546   */\n      0x20\n        /* \"#utility.yul\":14533:14542   */\n      dup4\n        /* \"#utility.yul\":14529:14547   */\n      add\n        /* \"#utility.yul\":14520:14526   */\n      dup5\n        /* \"#utility.yul\":14476:14548   */\n      tag_161\n      jump\t// in\n    tag_330:\n        /* \"#utility.yul\":14132:14555   */\n      swap4\n      swap3\n      pop\n      pop\n      pop\n      jump\t// out\n        /* \"#utility.yul\":14561:14651   */\n    tag_162:\n        /* \"#utility.yul\":14595:14602   */\n      0x00\n        /* \"#utility.yul\":14638:14643   */\n      dup2\n        /* \"#utility.yul\":14631:14644   */\n      iszero\n        /* \"#utility.yul\":14624:14645   */\n      iszero\n        /* \"#utility.yul\":14613:14645   */\n      swap1\n      pop\n        /* \"#utility.yul\":14561:14651   */\n      swap2\n      swap1\n      pop\n      jump\t// out\n        /* \"#utility.yul\":14657:14773   */\n    tag_163:\n        /* \"#utility.yul\":14727:14748   */\n      tag_333\n        /* \"#utility.yul\":14742:14747   */\n      dup2\n        /* \"#utility.yul\":14727:14748   */\n      tag_162\n      jump\t// in\n    tag_333:\n        /* \"#utility.yul\":14720:14725   */\n      dup2\n        /* \"#utility.yul\":14717:14749   */\n      eq\n        /* \"#utility.yul\":14707:14767   */\n      tag_334\n      jumpi\n        /* \"#utility.yul\":14763:14764   */\n      0x00\n        /* \"#utility.yul\":14760:14761   */\n      0x00\n        /* \"#utility.yul\":14753:14765   */\n      revert\n        /* \"#utility.yul\":14707:14767   */\n    tag_334:\n        /* \"#utility.yul\":14657:14773   */\n      pop\n      jump\t// out\n        /* \"#utility.yul\":14779:14916   */\n    tag_164:\n        /* \"#utility.yul\":14833:14838   */\n      0x00\n        /* \"#utility.yul\":14864:14870   */\n      dup2\n        /* \"#utility.yul\":14858:14871   */\n      mload\n        /* \"#utility.yul\":14849:14871   */\n      swap1\n      pop\n        /* \"#utility.yul\":14880:14910   */\n      tag_336\n        /* \"#utility.yul\":14904:14909   */\n      dup2\n        /* \"#utility.yul\":14880:14910   */\n      tag_163\n      jump\t// in\n    tag_336:\n        /* \"#utility.yul\":14779:14916   */\n      swap3\n      swap2\n      pop\n      pop\n      jump\t// out\n        /* \"#utility.yul\":14922:15267   */\n    tag_61:\n        /* \"#utility.yul\":14989:14995   */\n      0x00\n        /* \"#utility.yul\":15038:15040   */\n      0x20\n        /* \"#utility.yul\":15026:15035   */\n      dup3\n        /* \"#utility.yul\":15017:15024   */\n      dup5\n        /* \"#utility.yul\":15013:15036   */\n      sub\n        /* \"#utility.yul\":15009:15041   */\n      slt\n        /* \"#utility.yul\":15006:15125   */\n      iszero\n      tag_338\n      jumpi\n        /* \"#utility.yul\":15044:15123   */\n      tag_339\n      tag_117\n      jump\t// in\n    tag_339:\n        /* \"#utility.yul\":15006:15125   */\n    tag_338:\n        /* \"#utility.yul\":15164:15165   */\n      0x00\n        /* \"#utility.yul\":15189:15250   */\n      tag_340\n        /* \"#utility.yul\":15242:15249   */\n      dup5\n        /* \"#utility.yul\":15233:15239   */\n      dup3\n        /* \"#utility.yul\":15222:15231   */\n      dup6\n        /* \"#utility.yul\":15218:15240   */\n      add\n        /* \"#utility.yul\":15189:15250   */\n      tag_164\n      jump\t// in\n    tag_340:\n        /* \"#utility.yul\":15179:15250   */\n      swap2\n      pop\n        /* \"#utility.yul\":15135:15260   */\n      pop\n        /* \"#utility.yul\":14922:15267   */\n      swap3\n      swap2\n      pop\n      pop\n      jump\t// out\n        /* \"#utility.yul\":15273:15436   */\n    tag_165:\n        /* \"#utility.yul\":15413:15428   */\n      0x4163636573732064656e69656400000000000000000000000000000000000000\n        /* \"#utility.yul\":15409:15410   */\n      0x00\n        /* \"#utility.yul\":15401:15407   */\n      dup3\n        /* \"#utility.yul\":15397:15411   */\n      add\n        /* \"#utility.yul\":15390:15429   */\n      mstore\n        /* \"#utility.yul\":15273:15436   */\n      pop\n      jump\t// out\n        /* \"#utility.yul\":15442:15808   */\n    tag_166:\n        /* \"#utility.yul\":15584:15587   */\n      0x00\n        /* \"#utility.yul\":15605:15672   */\n      tag_343\n        /* \"#utility.yul\":15669:15671   */\n      0x0d\n        /* \"#utility.yul\":15664:15667   */\n      dup4\n        /* \"#utility.yul\":15605:15672   */\n      tag_157\n      jump\t// in\n    tag_343:\n        /* \"#utility.yul\":15598:15672   */\n      swap2\n      pop\n        /* \"#utility.yul\":15681:15774   */\n      tag_344\n        /* \"#utility.yul\":15770:15773   */\n      dup3\n        /* \"#utility.yul\":15681:15774   */\n      tag_165\n      jump\t// in\n    tag_344:\n        /* \"#utility.yul\":15799:15801   */\n      0x20\n        /* \"#utility.yul\":15794:15797   */\n      dup3\n        /* \"#utility.yul\":15790:15802   */\n      add\n        /* \"#utility.yul\":15783:15802   */\n      swap1\n      pop\n        /* \"#utility.yul\":15442:15808   */\n      swap2\n      swap1\n      pop\n      jump\t// out\n        /* \"#utility.yul\":15814:16233   */\n    tag_65:\n        /* \"#utility.yul\":15980:15984   */\n      0x00\n        /* \"#utility.yul\":16018:16020   */\n      0x20\n        /* \"#utility.yul\":16007:16016   */\n      dup3\n        /* \"#utility.yul\":16003:16021   */\n      add\n        /* \"#utility.yul\":15995:16021   */\n      swap1\n      pop\n        /* \"#utility.yul\":16067:16076   */\n      dup2\n        /* \"#utility.yul\":16061:16065   */\n      dup2\n        /* \"#utility.yul\":16057:16077   */\n      sub\n        /* \"#utility.yul\":16053:16054   */\n      0x00\n        /* \"#utility.yul\":16042:16051   */\n      dup4\n        /* \"#utility.yul\":16038:16055   */\n      add\n        /* \"#utility.yul\":16031:16078   */\n      mstore\n        /* \"#utility.yul\":16095:16226   */\n      tag_346\n        /* \"#utility.yul\":16221:16225   */\n      dup2\n        /* \"#utility.yul\":16095:16226   */\n      tag_166\n      jump\t// in\n    tag_346:\n        /* \"#utility.yul\":16087:16226   */\n      swap1\n      pop\n        /* \"#utility.yul\":15814:16233   */\n      swap2\n      swap1\n      pop\n      jump\t// out\n        /* \"#utility.yul\":16239:16406   */\n    tag_167:\n        /* \"#utility.yul\":16379:16398   */\n      0x496e76616c69642066696c652068617368000000000000000000000000000000\n        /* \"#utility.yul\":16375:16376   */\n      0x00\n        /* \"#utility.yul\":16367:16373   */\n      dup3\n        /* \"#utility.yul\":16363:16377   */\n      add\n        /* \"#utility.yul\":16356:16399   */\n      mstore\n        /* \"#utility.yul\":16239:16406   */\n      pop\n      jump\t// out\n        /* \"#utility.yul\":16412:16778   */\n    tag_168:\n        /* \"#utility.yul\":16554:16557   */\n      0x00\n        /* \"#utility.yul\":16575:16642   */\n      tag_349\n        /* \"#utility.yul\":16639:16641   */\n      0x11\n        /* \"#utility.yul\":16634:16637   */\n      dup4\n        /* \"#utility.yul\":16575:16642   */\n      tag_157\n      jump\t// in\n    tag_349:\n        /* \"#utility.yul\":16568:16642   */\n      swap2\n      pop\n        /* \"#utility.yul\":16651:16744   */\n      tag_350\n        /* \"#utility.yul\":16740:16743   */\n      dup3\n        /* \"#utility.yul\":16651:16744   */\n      tag_167\n      jump\t// in\n    tag_350:\n        /* \"#utility.yul\":16769:16771   */\n      0x20\n        /* \"#utility.yul\":16764:16767   */\n      dup3\n        /* \"#utility.yul\":16760:16772   */\n      add\n        /* \"#utility.yul\":16753:16772   */\n      swap1\n      pop\n        /* \"#utility.yul\":16412:16778   */\n      swap2\n      swap1\n      pop\n      jump\t// out\n        /* \"#utility.yul\":16784:17203   */\n    tag_69:\n        /* \"#utility.yul\":16950:16954   */\n      0x00\n        /* \"#utility.yul\":16988:16990   */\n      0x20\n        /* \"#utility.yul\":16977:16986   */\n      dup3\n        /* \"#utility.yul\":16973:16991   */\n      add\n        /* \"#utility.yul\":16965:16991   */\n      swap1\n      pop\n        /* \"#utility.yul\":17037:17046   */\n      dup2\n        /* \"#utility.yul\":17031:17035   */\n      dup2\n        /* \"#utility.yul\":17027:17047   */\n      sub\n        /* \"#utility.yul\":17023:17024   */\n      0x00\n        /* \"#utility.yul\":17012:17021   */\n      dup4\n        /* \"#utility.yul\":17008:17025   */\n      add\n        /* \"#utility.yul\":17001:17048   */\n      mstore\n        /* \"#utility.yul\":17065:17196   */\n      tag_352\n        /* \"#utility.yul\":17191:17195   */\n      dup2\n        /* \"#utility.yul\":17065:17196   */\n      tag_168\n      jump\t// in\n    tag_352:\n        /* \"#utility.yul\":17057:17196   */\n      swap1\n      pop\n        /* \"#utility.yul\":16784:17203   */\n      swap2\n      swap1\n      pop\n      jump\t// out\n        /* \"#utility.yul\":17209:17376   */\n    tag_169:\n        /* \"#utility.yul\":17349:17368   */\n      0x496e76616c69642066696c652074797065000000000000000000000000000000\n        /* \"#utility.yul\":17345:17346   */\n      0x00\n        /* \"#utility.yul\":17337:17343   */\n      dup3\n        /* \"#utility.yul\":17333:17347   */\n      add\n        /* \"#utility.yul\":17326:17369   */\n      mstore\n        /* \"#utility.yul\":17209:17376   */\n      pop\n      jump\t// out\n        /* \"#utility.yul\":17382:17748   */\n    tag_170:\n        /* \"#utility.yul\":17524:17527   */\n      0x00\n        /* \"#utility.yul\":17545:17612   */\n      tag_355\n        /* \"#utility.yul\":17609:17611   */\n      0x11\n        /* \"#utility.yul\":17604:17607   */\n      dup4\n        /* \"#utility.yul\":17545:17612   */\n      tag_157\n      jump\t// in\n    tag_355:\n        /* \"#utility.yul\":17538:17612   */\n      swap2\n      pop\n        /* \"#utility.yul\":17621:17714   */\n      tag_356\n        /* \"#utility.yul\":17710:17713   */\n      dup3\n        /* \"#utility.yul\":17621:17714   */\n      tag_169\n      jump\t// in\n    tag_356:\n        /* \"#utility.yul\":17739:17741   */\n      0x20\n        /* \"#utility.yul\":17734:17737   */\n      dup3\n        /* \"#utility.yul\":17730:17742   */\n      add\n        /* \"#utility.yul\":17723:17742   */\n      swap1\n      pop\n        /* \"#utility.yul\":17382:17748   */\n      swap2\n      swap1\n      pop\n      jump\t// out\n        /* \"#utility.yul\":17754:18173   */\n    tag_72:\n        /* \"#utility.yul\":17920:17924   */\n      0x00\n        /* \"#utility.yul\":17958:17960   */\n      0x20\n        /* \"#utility.yul\":17947:17956   */\n      dup3\n        /* \"#utility.yul\":17943:17961   */\n      add\n        /* \"#utility.yul\":17935:17961   */\n      swap1\n      pop\n        /* \"#utility.yul\":18007:18016   */\n      dup2\n        /* \"#utility.yul\":18001:18005   */\n      dup2\n        /* \"#utility.yul\":17997:18017   */\n      sub\n        /* \"#utility.yul\":17993:17994   */\n      0x00\n        /* \"#utility.yul\":17982:17991   */\n      dup4\n        /* \"#utility.yul\":17978:17995   */\n      add\n        /* \"#utility.yul\":17971:18018   */\n      mstore\n        /* \"#utility.yul\":18035:18166   */\n      tag_358\n        /* \"#utility.yul\":18161:18165   */\n      dup2\n        /* \"#utility.yul\":18035:18166   */\n      tag_170\n      jump\t// in\n    tag_358:\n        /* \"#utility.yul\":18027:18166   */\n      swap1\n      pop\n        /* \"#utility.yul\":17754:18173   */\n      swap2\n      swap1\n      pop\n      jump\t// out\n        /* \"#utility.yul\":18179:18350   */\n    tag_171:\n        /* \"#utility.yul\":18319:18342   */\n      0x5265636f726420616c7265616479206578697374730000000000000000000000\n        /* \"#utility.yul\":18315:18316   */\n      0x00\n        /* \"#utility.yul\":18307:18313   */\n      dup3\n        /* \"#utility.yul\":18303:18317   */\n      add\n        /* \"#utility.yul\":18296:18343   */\n      mstore\n        /* \"#utility.yul\":18179:18350   */\n      pop\n      jump\t// out\n        /* \"#utility.yul\":18356:18722   */\n    tag_172:\n        /* \"#utility.yul\":18498:18501   */\n      0x00\n        /* \"#utility.yul\":18519:18586   */\n      tag_361\n        /* \"#utility.yul\":18583:18585   */\n      0x15\n        /* \"#utility.yul\":18578:18581   */\n      dup4\n        /* \"#utility.yul\":18519:18586   */\n      tag_157\n      jump\t// in\n    tag_361:\n        /* \"#utility.yul\":18512:18586   */\n      swap2\n      pop\n        /* \"#utility.yul\":18595:18688   */\n      tag_362\n        /* \"#utility.yul\":18684:18687   */\n      dup3\n        /* \"#utility.yul\":18595:18688   */\n      tag_171\n      jump\t// in\n    tag_362:\n        /* \"#utility.yul\":18713:18715   */\n      0x20\n        /* \"#utility.yul\":18708:18711   */\n      dup3\n        /* \"#utility.yul\":18704:18716   */\n      add\n        /* \"#utility.yul\":18697:18716   */\n      swap1\n      pop\n        /* \"#utility.yul\":18356:18722   */\n      swap2\n      swap1\n      pop\n      jump\t// out\n        /* \"#utility.yul\":18728:19147   */\n    tag_76:\n        /* \"#utility.yul\":18894:18898   */\n      0x00\n        /* \"#utility.yul\":18932:18934   */\n      0x20\n        /* \"#utility.yul\":18921:18930   */\n      dup3\n        /* \"#utility.yul\":18917:18935   */\n      add\n        /* \"#utility.yul\":18909:18935   */\n      swap1\n      pop\n        /* \"#utility.yul\":18981:18990   */\n      dup2\n        /* \"#utility.yul\":18975:18979   */\n      dup2\n        /* \"#utility.yul\":18971:18991   */\n      sub\n        /* \"#utility.yul\":18967:18968   */\n      0x00\n        /* \"#utility.yul\":18956:18965   */\n      dup4\n        /* \"#utility.yul\":18952:18969   */\n      add\n        /* \"#utility.yul\":18945:18992   */\n      mstore\n        /* \"#utility.yul\":19009:19140   */\n      tag_364\n        /* \"#utility.yul\":19135:19139   */\n      dup2\n        /* \"#utility.yul\":19009:19140   */\n      tag_172\n      jump\t// in\n    tag_364:\n        /* \"#utility.yul\":19001:19140   */\n      swap1\n      pop\n        /* \"#utility.yul\":18728:19147   */\n      swap2\n      swap1\n      pop\n      jump\t// out\n        /* \"#utility.yul\":19153:19294   */\n    tag_173:\n        /* \"#utility.yul\":19202:19206   */\n      0x00\n        /* \"#utility.yul\":19225:19228   */\n      dup2\n        /* \"#utility.yul\":19217:19228   */\n      swap1\n      pop\n        /* \"#utility.yul\":19248:19251   */\n      dup2\n        /* \"#utility.yul\":19245:19246   */\n      0x00\n        /* \"#utility.yul\":19238:19252   */\n      mstore\n        /* \"#utility.yul\":19282:19286   */\n      0x20\n        /* \"#utility.yul\":19279:19280   */\n      0x00\n        /* \"#utility.yul\":19269:19287   */\n      keccak256\n        /* \"#utility.yul\":19261:19287   */\n      swap1\n      pop\n        /* \"#utility.yul\":19153:19294   */\n      swap2\n      swap1\n      pop\n      jump\t// out\n        /* \"#utility.yul\":19300:19393   */\n    tag_174:\n        /* \"#utility.yul\":19337:19343   */\n      0x00\n        /* \"#utility.yul\":19384:19386   */\n      0x20\n        /* \"#utility.yul\":19379:19381   */\n      0x1f\n        /* \"#utility.yul\":19372:19377   */\n      dup4\n        /* \"#utility.yul\":19368:19382   */\n      add\n        /* \"#utility.yul\":19364:19387   */\n      div\n        /* \"#utility.yul\":19354:19387   */\n      swap1\n      pop\n        /* \"#utility.yul\":19300:19393   */\n      swap2\n      swap1\n      pop\n      jump\t// out\n        /* \"#utility.yul\":19399:19506   */\n    tag_175:\n        /* \"#utility.yul\":19443:19451   */\n      0x00\n        /* \"#utility.yul\":19493:19498   */\n      dup3\n        /* \"#utility.yul\":19487:19491   */\n      dup3\n        /* \"#utility.yul\":19483:19499   */\n      shl\n        /* \"#utility.yul\":19462:19499   */\n      swap1\n      pop\n        /* \"#utility.yul\":19399:19506   */\n      swap3\n      swap2\n      pop\n      pop\n      jump\t// out\n        /* \"#utility.yul\":19512:19905   */\n    tag_176:\n        /* \"#utility.yul\":19581:19587   */\n      0x00\n        /* \"#utility.yul\":19631:19632   */\n      0x08\n        /* \"#utility.yul\":19619:19629   */\n      dup4\n        /* \"#utility.yul\":19615:19633   */\n      mul\n        /* \"#utility.yul\":19654:19751   */\n      tag_369\n        /* \"#utility.yul\":19684:19750   */\n      0xffffffffffffffffffffffffffffffffffffffffffffffffffffffffffffffff\n        /* \"#utility.yul\":19673:19682   */\n      dup3\n        /* \"#utility.yul\":19654:19751   */\n      tag_175\n      jump\t// in\n    tag_369:\n        /* \"#utility.yul\":19772:19811   */\n      tag_370\n        /* \"#utility.yul\":19802:19810   */\n      dup7\n        /* \"#utility.yul\":19791:19800   */\n      dup4\n        /* \"#utility.yul\":19772:19811   */\n      tag_175\n      jump\t// in\n    tag_370:\n        /* \"#utility.yul\":19760:19811   */\n      swap6\n      pop\n        /* \"#utility.yul\":19844:19848   */\n      dup1\n        /* \"#utility.yul\":19840:19849   */\n      not\n        /* \"#utility.yul\":19833:19838   */\n      dup5\n        /* \"#utility.yul\":19829:19850   */\n      and\n        /* \"#utility.yul\":19820:19850   */\n      swap4\n      pop\n        /* \"#utility.yul\":19893:19897   */\n      dup1\n        /* \"#utility.yul\":19883:19891   */\n      dup7\n        /* \"#utility.yul\":19879:19898   */\n      and\n        /* \"#utility.yul\":19872:19877   */\n      dup5\n        /* \"#utility.yul\":19869:19899   */\n      or\n        /* \"#utility.yul\":19859:19899   */\n      swap3\n      pop\n        /* \"#utility.yul\":19588:19905   */\n      pop\n      pop\n        /* \"#utility.yul\":19512:19905   */\n      swap4\n      swap3\n      pop\n      pop\n      pop\n      jump\t// out\n        /* \"#utility.yul\":19911:20053   */\n    tag_177:\n        /* \"#utility.yul\":19961:19970   */\n      0x00\n        /* \"#utility.yul\":19994:20047   */\n      tag_372\n        /* \"#utility.yul\":20012:20046   */\n      tag_373\n        /* \"#utility.yul\":20021:20045   */\n      tag_374\n        /* \"#utility.yul\":20039:20044   */\n      dup5\n        /* \"#utility.yul\":20021:20045   */\n      tag_136\n      jump\t// in\n    tag_374:\n        /* \"#utility.yul\":20012:20046   */\n      tag_139\n      jump\t// in\n    tag_373:\n        /* \"#utility.yul\":19994:20047   */\n      tag_136\n      jump\t// in\n    tag_372:\n        /* \"#utility.yul\":19981:20047   */\n      swap1\n      pop\n        /* \"#utility.yul\":19911:20053   */\n      swap2\n      swap1\n      pop\n      jump\t// out\n        /* \"#utility.yul\":20059:20134   */\n    tag_178:\n        /* \"#utility.yul\":20102:20105   */\n      0x00\n        /* \"#utility.yul\":20123:20128   */\n      dup2\n        /* \"#utility.yul\":20116:20128   */\n      swap1\n      pop\n        /* \"#utility.yul\":20059:20134   */\n      swap2\n      swap1\n      pop\n      jump\t// out\n        /* \"#utility.yul\":20140:20409   */\n    tag_179:\n        /* \"#utility.yul\":20250:20289   */\n      tag_377\n        /* \"#utility.yul\":20281:20288   */\n      dup4\n        /* \"#utility.yul\":20250:20289   */\n      tag_177\n      jump\t// in\n    tag_377:\n        /* \"#utility.yul\":20311:20402   */\n      tag_378\n        /* \"#utility.yul\":20360:20401   */\n      tag_379\n        /* \"#utility.yul\":20384:20400   */\n      dup3\n        /* \"#utility.yul\":20360:20401   */\n      tag_178\n      jump\t// in\n    tag_379:\n        /* \"#utility.yul\":20352:20358   */\n      dup5\n        /* \"#utility.yul\":20345:20349   */\n      dup5\n        /* \"#utility.yul\":20339:20350   */\n      sload\n        /* \"#utility.yul\":20311:20402   */\n      tag_176\n      jump\t// in\n    tag_378:\n        /* \"#utility.yul\":20305:20309   */\n      dup3\n        /* \"#utility.yul\":20298:20403   */\n      sstore\n        /* \"#utility.yul\":20216:20409   */\n      pop\n        /* \"#utility.yul\":20140:20409   */\n      pop\n      pop\n      pop\n      jump\t// out\n        /* \"#utility.yul\":20415:20488   */\n    tag_180:\n        /* \"#utility.yul\":20460:20463   */\n      0x00\n        /* \"#utility.yul\":20481:20482   */\n      0x00\n        /* \"#utility.yul\":20474:20482   */\n      swap1\n      pop\n        /* \"#utility.yul\":20415:20488   */\n      swap1\n      jump\t// out\n        /* \"#utility.yul\":20494:20683   */\n    tag_181:\n        /* \"#utility.yul\":20571:20603   */\n      tag_382\n      tag_180\n      jump\t// in\n    tag_382:\n        /* \"#utility.yul\":20612:20677   */\n      tag_383\n        /* \"#utility.yul\":20670:20676   */\n      dup2\n        /* \"#utility.yul\":20662:20668   */\n      dup5\n        /* \"#utility.yul\":20656:20660   */\n      dup5\n        /* \"#utility.yul\":20612:20677   */\n      tag_179\n      jump\t// in\n    tag_383:\n        /* \"#utility.yul\":20547:20683   */\n      pop\n        /* \"#utility.yul\":20494:20683   */\n      pop\n      pop\n      jump\t// out\n        /* \"#utility.yul\":20689:20875   */\n    tag_182:\n        /* \"#utility.yul\":20749:20869   */\n    tag_385:\n        /* \"#utility.yul\":20766:20769   */\n      dup2\n        /* \"#utility.yul\":20759:20764   */\n      dup2\n        /* \"#utility.yul\":20756:20770   */\n      lt\n        /* \"#utility.yul\":20749:20869   */\n      iszero\n      tag_387\n      jumpi\n        /* \"#utility.yul\":20820:20859   */\n      tag_388\n        /* \"#utility.yul\":20857:20858   */\n      0x00\n        /* \"#utility.yul\":20850:20855   */\n      dup3\n        /* \"#utility.yul\":20820:20859   */\n      tag_181\n      jump\t// in\n    tag_388:\n        /* \"#utility.yul\":20793:20794   */\n      0x01\n        /* \"#utility.yul\":20786:20791   */\n      dup2\n        /* \"#utility.yul\":20782:20795   */\n      add\n        /* \"#utility.yul\":20773:20795   */\n      swap1\n      pop\n        /* \"#utility.yul\":20749:20869   */\n      jump(tag_385)\n    tag_387:\n        /* \"#utility.yul\":20689:20875   */\n      pop\n      pop\n      jump\t// out\n        /* \"#utility.yul\":20881:21424   */\n    tag_183:\n        /* \"#utility.yul\":20982:20984   */\n      0x1f\n        /* \"#utility.yul\":20977:20980   */\n      dup3\n        /* \"#utility.yul\":20974:20985   */\n      gt\n        /* \"#utility.yul\":20971:21417   */\n      iszero\n      tag_390\n      jumpi\n        /* \"#utility.yul\":21016:21054   */\n      tag_391\n        /* \"#utility.yul\":21048:21053   */\n      dup2\n        /* \"#utility.yul\":21016:21054   */\n      tag_173\n      jump\t// in\n    tag_391:\n        /* \"#utility.yul\":21100:21129   */\n      tag_392\n        /* \"#utility.yul\":21118:21128   */\n      dup5\n        /* \"#utility.yul\":21100:21129   */\n      tag_174\n      jump\t// in\n    tag_392:\n        /* \"#utility.yul\":21090:21098   */\n      dup2\n        /* \"#utility.yul\":21086:21130   */\n      add\n        /* \"#utility.yul\":21283:21285   */\n      0x20\n        /* \"#utility.yul\":21271:21281   */\n      dup6\n        /* \"#utility.yul\":21268:21286   */\n      lt\n        /* \"#utility.yul\":21265:21314   */\n      iszero\n      tag_393\n      jumpi\n        /* \"#utility.yul\":21304:21312   */\n      dup2\n        /* \"#utility.yul\":21289:21312   */\n      swap1\n      pop\n        /* \"#utility.yul\":21265:21314   */\n    tag_393:\n        /* \"#utility.yul\":21327:21407   */\n      tag_394\n        /* \"#utility.yul\":21383:21405   */\n      tag_395\n        /* \"#utility.yul\":21401:21404   */\n      dup6\n        /* \"#utility.yul\":21383:21405   */\n      tag_174\n      jump\t// in\n    tag_395:\n        /* \"#utility.yul\":21373:21381   */\n      dup4\n        /* \"#utility.yul\":21369:21406   */\n      add\n        /* \"#utility.yul\":21356:21367   */\n      dup3\n        /* \"#utility.yul\":21327:21407   */\n      tag_182\n      jump\t// in\n    tag_394:\n        /* \"#utility.yul\":20986:21417   */\n      pop\n      pop\n        /* \"#utility.yul\":20971:21417   */\n    tag_390:\n        /* \"#utility.yul\":20881:21424   */\n      pop\n      pop\n      pop\n      jump\t// out\n        /* \"#utility.yul\":21430:21547   */\n    tag_184:\n        /* \"#utility.yul\":21484:21492   */\n      0x00\n        /* \"#utility.yul\":21534:21539   */\n      dup3\n        /* \"#utility.yul\":21528:21532   */\n      dup3\n        /* \"#utility.yul\":21524:21540   */\n      shr\n        /* \"#utility.yul\":21503:21540   */\n      swap1\n      pop\n        /* \"#utility.yul\":21430:21547   */\n      swap3\n      swap2\n      pop\n      pop\n      jump\t// out\n        /* \"#utility.yul\":21553:21722   */\n    tag_185:\n        /* \"#utility.yul\":21597:21603   */\n      0x00\n        /* \"#utility.yul\":21630:21681   */\n      tag_398\n        /* \"#utility.yul\":21678:21679   */\n      0x00\n        /* \"#utility.yul\":21674:21680   */\n      not\n        /* \"#utility.yul\":21666:21671   */\n      dup5\n        /* \"#utility.yul\":21663:21664   */\n      0x08\n        /* \"#utility.yul\":21659:21672   */\n      mul\n        /* \"#utility.yul\":21630:21681   */\n      tag_184\n      jump\t// in\n    tag_398:\n        /* \"#utility.yul\":21626:21682   */\n      not\n        /* \"#utility.yul\":21711:21715   */\n      dup1\n        /* \"#utility.yul\":21705:21709   */\n      dup4\n        /* \"#utility.yul\":21701:21716   */\n      and\n        /* \"#utility.yul\":21691:21716   */\n      swap2\n      pop\n        /* \"#utility.yul\":21604:21722   */\n      pop\n        /* \"#utility.yul\":21553:21722   */\n      swap3\n      swap2\n      pop\n      pop\n      jump\t// out\n        /* \"#utility.yul\":21727:22022   */\n    tag_186:\n        /* \"#utility.yul\":21803:21807   */\n      0x00\n        /* \"#utility.yul\":21949:21978   */\n      tag_400\n        /* \"#utility.yul\":21974:21977   */\n      dup4\n        /* \"#utility.yul\":21968:21972   */\n      dup4\n        /* \"#utility.yul\":21949:21978   */\n      tag_185\n      jump\t// in\n    tag_400:\n        /* \"#utility.yul\":21941:21978   */\n      swap2\n      pop\n        /* \"#utility.yul\":22011:22014   */\n      dup3\n        /* \"#utility.yul\":22008:22009   */\n      0x02\n        /* \"#utility.yul\":22004:22015   */\n      mul\n        /* \"#utility.yul\":21998:22002   */\n      dup3\n        /* \"#utility.yul\":21995:22016   */\n      or\n        /* \"#utility.yul\":21987:22016   */\n      swap1\n      pop\n        /* \"#utility.yul\":21727:22022   */\n      swap3\n      swap2\n      pop\n      pop\n      jump\t// out\n        /* \"#utility.yul\":22027:23422   */\n    tag_79:\n        /* \"#utility.yul\":22144:22181   */\n      tag_402\n        /* \"#utility.yul\":22177:22180   */\n      dup3\n        /* \"#utility.yul\":22144:22181   */\n      tag_129\n      jump\t// in\n    tag_402:\n        /* \"#utility.yul\":22246:22264   */\n      0xffffffffffffffff\n        /* \"#utility.yul\":22238:22244   */\n      dup2\n        /* \"#utility.yul\":22235:22265   */\n      gt\n        /* \"#utility.yul\":22232:22288   */\n      iszero\n      tag_403\n      jumpi\n        /* \"#utility.yul\":22268:22286   */\n      tag_404\n      tag_122\n      jump\t// in\n    tag_404:\n        /* \"#utility.yul\":22232:22288   */\n    tag_403:\n        /* \"#utility.yul\":22312:22350   */\n      tag_405\n        /* \"#utility.yul\":22344:22348   */\n      dup3\n        /* \"#utility.yul\":22338:22349   */\n      sload\n        /* \"#utility.yul\":22312:22350   */\n      tag_43\n      jump\t// in\n    tag_405:\n        /* \"#utility.yul\":22397:22464   */\n      tag_406\n        /* \"#utility.yul\":22457:22463   */\n      dup3\n        /* \"#utility.yul\":22449:22455   */\n      dup3\n        /* \"#utility.yul\":22443:22447   */\n      dup6\n        /* \"#utility.yul\":22397:22464   */\n      tag_183\n      jump\t// in\n    tag_406:\n        /* \"#utility.yul\":22491:22492   */\n      0x00\n        /* \"#utility.yul\":22515:22519   */\n      0x20\n        /* \"#utility.yul\":22502:22519   */\n      swap1\n      pop\n        /* \"#utility.yul\":22547:22549   */\n      0x1f\n        /* \"#utility.yul\":22539:22545   */\n      dup4\n        /* \"#utility.yul\":22536:22550   */\n      gt\n        /* \"#utility.yul\":22564:22565   */\n      0x01\n        /* \"#utility.yul\":22559:23177   */\n      dup2\n      eq\n      tag_408\n      jumpi\n        /* \"#utility.yul\":23221:23222   */\n      0x00\n        /* \"#utility.yul\":23238:23244   */\n      dup5\n        /* \"#utility.yul\":23235:23312   */\n      iszero\n      tag_409\n      jumpi\n        /* \"#utility.yul\":23287:23296   */\n      dup3\n        /* \"#utility.yul\":23282:23285   */\n      dup8\n        /* \"#utility.yul\":23278:23297   */\n      add\n        /* \"#utility.yul\":23272:23298   */\n      mload\n        /* \"#utility.yul\":23263:23298   */\n      swap1\n      pop\n        /* \"#utility.yul\":23235:23312   */\n    tag_409:\n        /* \"#utility.yul\":23338:23405   */\n      tag_410\n        /* \"#utility.yul\":23398:23404   */\n      dup6\n        /* \"#utility.yul\":23391:23396   */\n      dup3\n        /* \"#utility.yul\":23338:23405   */\n      tag_186\n      jump\t// in\n    tag_410:\n        /* \"#utility.yul\":23332:23336   */\n      dup7\n        /* \"#utility.yul\":23325:23406   */\n      sstore\n        /* \"#utility.yul\":23194:23416   */\n      pop\n        /* \"#utility.yul\":22529:23416   */\n      jump(tag_407)\n        /* \"#utility.yul\":22559:23177   */\n    tag_408:\n        /* \"#utility.yul\":22611:22615   */\n      0x1f\n        /* \"#utility.yul\":22607:22616   */\n      not\n        /* \"#utility.yul\":22599:22605   */\n      dup5\n        /* \"#utility.yul\":22595:22617   */\n      and\n        /* \"#utility.yul\":22645:22682   */\n      tag_411\n        /* \"#utility.yul\":22677:22681   */\n      dup7\n        /* \"#utility.yul\":22645:22682   */\n      tag_173\n      jump\t// in\n    tag_411:\n        /* \"#utility.yul\":22704:22705   */\n      0x00\n        /* \"#utility.yul\":22718:22926   */\n    tag_412:\n        /* \"#utility.yul\":22732:22739   */\n      dup3\n        /* \"#utility.yul\":22729:22730   */\n      dup2\n        /* \"#utility.yul\":22726:22740   */\n      lt\n        /* \"#utility.yul\":22718:22926   */\n      iszero\n      tag_414\n      jumpi\n        /* \"#utility.yul\":22811:22820   */\n      dup5\n        /* \"#utility.yul\":22806:22809   */\n      dup10\n        /* \"#utility.yul\":22802:22821   */\n      add\n        /* \"#utility.yul\":22796:22822   */\n      mload\n        /* \"#utility.yul\":22788:22794   */\n      dup3\n        /* \"#utility.yul\":22781:22823   */\n      sstore\n        /* \"#utility.yul\":22862:22863   */\n      0x01\n        /* \"#utility.yul\":22854:22860   */\n      dup3\n        /* \"#utility.yul\":22850:22864   */\n      add\n        /* \"#utility.yul\":22840:22864   */\n      swap2\n      pop\n        /* \"#utility.yul\":22909:22911   */\n      0x20\n        /* \"#utility.yul\":22898:22907   */\n      dup6\n        /* \"#utility.yul\":22894:22912   */\n      add\n        /* \"#utility.yul\":22881:22912   */\n      swap5\n      pop\n        /* \"#utility.yul\":22755:22759   */\n      0x20\n        /* \"#utility.yul\":22752:22753   */\n      dup2\n        /* \"#utility.yul\":22748:22760   */\n      add\n        /* \"#utility.yul\":22743:22760   */\n      swap1\n      pop\n        /* \"#utility.yul\":22718:22926   */\n      jump(tag_412)\n    tag_414:\n        /* \"#utility.yul\":22954:22960   */\n      dup7\n        /* \"#utility.yul\":22945:22952   */\n      dup4\n        /* \"#utility.yul\":22942:22961   */\n      lt\n        /* \"#utility.yul\":22939:23118   */\n      iszero\n      tag_415\n      jumpi\n        /* \"#utility.yul\":23012:23021   */\n      dup5\n        /* \"#utility.yul\":23007:23010   */\n      dup10\n        /* \"#utility.yul\":23003:23022   */\n      add\n        /* \"#utility.yul\":22997:23023   */\n      mload\n        /* \"#utility.yul\":23055:23103   */\n      tag_416\n        /* \"#utility.yul\":23097:23101   */\n      0x1f\n        /* \"#utility.yul\":23089:23095   */\n      dup10\n        /* \"#utility.yul\":23085:23102   */\n      and\n        /* \"#utility.yul\":23074:23083   */\n      dup3\n        /* \"#utility.yul\":23055:23103   */\n      tag_185\n      jump\t// in\n    tag_416:\n        /* \"#utility.yul\":23047:23053   */\n      dup4\n        /* \"#utility.yul\":23040:23104   */\n      sstore\n        /* \"#utility.yul\":22962:23118   */\n      pop\n        /* \"#utility.yul\":22939:23118   */\n    tag_415:\n        /* \"#utility.yul\":23164:23165   */\n      0x01\n        /* \"#utility.yul\":23160:23161   */\n      0x02\n        /* \"#utility.yul\":23152:23158   */\n      dup9\n        /* \"#utility.yul\":23148:23162   */\n      mul\n        /* \"#utility.yul\":23144:23166   */\n      add\n        /* \"#utility.yul\":23138:23142   */\n      dup9\n        /* \"#utility.yul\":23131:23167   */\n      sstore\n        /* \"#utility.yul\":22566:23177   */\n      pop\n      pop\n      pop\n        /* \"#utility.yul\":22529:23416   */\n    tag_407:\n      pop\n        /* \"#utility.yul\":22119:23422   */\n      pop\n      pop\n      pop\n        /* \"#utility.yul\":22027:23422   */\n      pop\n      pop\n      jump\t// out\n        /* \"#utility.yul\":23428:23851   */\n    tag_84:\n        /* \"#utility.yul\":23569:23573   */\n      0x00\n        /* \"#utility.yul\":23607:23609   */\n      0x40\n        /* \"#utility.yul\":23596:23605   */\n      dup3\n        /* \"#utility.yul\":23592:23610   */\n      add\n        /* \"#utility.yul\":23584:23610   */\n      swap1\n      pop\n        /* \"#utility.yul\":23620:23691   */\n      tag_418\n        /* \"#utility.yul\":23688:23689   */\n      0x00\n        /* \"#utility.yul\":23677:23686   */\n      dup4\n        /* \"#utility.yul\":23673:23690   */\n      add\n        /* \"#utility.yul\":23664:23670   */\n      dup6\n        /* \"#utility.yul\":23620:23691   */\n      tag_161\n      jump\t// in\n    tag_418:\n        /* \"#utility.yul\":23738:23747   */\n      dup2\n        /* \"#utility.yul\":23732:23736   */\n      dup2\n        /* \"#utility.yul\":23728:23748   */\n      sub\n        /* \"#utility.yul\":23723:23725   */\n      0x20\n        /* \"#utility.yul\":23712:23721   */\n      dup4\n        /* \"#utility.yul\":23708:23726   */\n      add\n        /* \"#utility.yul\":23701:23749   */\n      mstore\n        /* \"#utility.yul\":23766:23844   */\n      tag_419\n        /* \"#utility.yul\":23839:23843   */\n      dup2\n        /* \"#utility.yul\":23830:23836   */\n      dup5\n        /* \"#utility.yul\":23766:23844   */\n      tag_160\n      jump\t// in\n    tag_419:\n        /* \"#utility.yul\":23758:23844   */\n      swap1\n      pop\n        /* \"#utility.yul\":23428:23851   */\n      swap4\n      swap3\n      pop\n      pop\n      pop\n      jump\t// out\n        /* \"#utility.yul\":23857:24371   */\n    tag_89:\n        /* \"#utility.yul\":24018:24022   */\n      0x00\n        /* \"#utility.yul\":24056:24058   */\n      0x40\n        /* \"#utility.yul\":24045:24054   */\n      dup3\n        /* \"#utility.yul\":24041:24059   */\n      add\n        /* \"#utility.yul\":24033:24059   */\n      swap1\n      pop\n        /* \"#utility.yul\":24105:24114   */\n      dup2\n        /* \"#utility.yul\":24099:24103   */\n      dup2\n        /* \"#utility.yul\":24095:24115   */\n      sub\n        /* \"#utility.yul\":24091:24092   */\n      0x00\n        /* \"#utility.yul\":24080:24089   */\n      dup4\n        /* \"#utility.yul\":24076:24093   */\n      add\n        /* \"#utility.yul\":24069:24116   */\n      mstore\n        /* \"#utility.yul\":24133:24211   */\n      tag_421\n        /* \"#utility.yul\":24206:24210   */\n      dup2\n        /* \"#utility.yul\":24197:24203   */\n      dup6\n        /* \"#utility.yul\":24133:24211   */\n      tag_160\n      jump\t// in\n    tag_421:\n        /* \"#utility.yul\":24125:24211   */\n      swap1\n      pop\n        /* \"#utility.yul\":24258:24267   */\n      dup2\n        /* \"#utility.yul\":24252:24256   */\n      dup2\n        /* \"#utility.yul\":24248:24268   */\n      sub\n        /* \"#utility.yul\":24243:24245   */\n      0x20\n        /* \"#utility.yul\":24232:24241   */\n      dup4\n        /* \"#utility.yul\":24228:24246   */\n      add\n        /* \"#utility.yul\":24221:24269   */\n      mstore\n        /* \"#utility.yul\":24286:24364   */\n      tag_422\n        /* \"#utility.yul\":24359:24363   */\n      dup2\n        /* \"#utility.yul\":24350:24356   */\n      dup5\n        /* \"#utility.yul\":24286:24364   */\n      tag_160\n      jump\t// in\n    tag_422:\n        /* \"#utility.yul\":24278:24364   */\n      swap1\n      pop\n        /* \"#utility.yul\":23857:24371   */\n      swap4\n      swap3\n      pop\n      pop\n      pop\n      jump\t// out\n        /* \"#utility.yul\":24377:24543   */\n    tag_187:\n        /* \"#utility.yul\":24517:24535   */\n      0x5265636f7264206e6f7420666f756e6400000000000000000000000000000000\n        /* \"#utility.yul\":24513:24514   */\n      0x00\n        /* \"#utility.yul\":24505:24511   */\n      dup3\n        /* \"#utility.yul\":24501:24515   */\n      add\n        /* \"#utility.yul\":24494:24536   */\n      mstore\n        /* \"#utility.yul\":24377:24543   */\n      pop\n      jump\t// out\n        /* \"#utility.yul\":24549:24915   */\n    tag_188:\n        /* \"#utility.yul\":24691:24694   */\n      0x00\n        /* \"#utility.yul\":24712:24779   */\n      tag_425\n        /* \"#utility.yul\":24776:24778   */\n      0x10\n        /* \"#utility.yul\":24771:24774   */\n      dup4\n        /* \"#utility.yul\":24712:24779   */\n      tag_157\n      jump\t// in\n    tag_425:\n        /* \"#utility.yul\":24705:24779   */\n      swap2\n      pop\n        /* \"#utility.yul\":24788:24881   */\n      tag_426\n        /* \"#utility.yul\":24877:24880   */\n      dup3\n        /* \"#utility.yul\":24788:24881   */\n      tag_187\n      jump\t// in\n    tag_426:\n        /* \"#utility.yul\":24906:24908   */\n      0x20\n        /* \"#utility.yul\":24901:24904   */\n      dup3\n        /* \"#utility.yul\":24897:24909   */\n      add\n        /* \"#utility.yul\":24890:24909   */\n      swap1\n      pop\n        /* \"#utility.yul\":24549:24915   */\n      swap2\n      swap1\n      pop\n      jump\t// out\n        /* \"#utility.yul\":24921:25340   */\n    tag_95:\n        /* \"#utility.yul\":25087:25091   */\n      0x00\n        /* \"#utility.yul\":25125:25127   */\n      0x20\n        /* \"#utility.yul\":25114:25123   */\n      dup3\n        /* \"#utility.yul\":25110:25128   */\n      add\n        /* \"#utility.yul\":25102:25128   */\n      swap1\n      pop\n        /* \"#utility.yul\":25174:25183   */\n      dup2\n        /* \"#utility.yul\":25168:25172   */\n      dup2\n        /* \"#utility.yul\":25164:25184   */\n      sub\n        /* \"#utility.yul\":25160:25161   */\n      0x00\n        /* \"#utility.yul\":25149:25158   */\n      dup4\n        /* \"#utility.yul\":25145:25162   */\n      add\n        /* \"#utility.yul\":25138:25185   */\n      mstore\n        /* \"#utility.yul\":25202:25333   */\n      tag_428\n        /* \"#utility.yul\":25328:25332   */\n      dup2\n        /* \"#utility.yul\":25202:25333   */\n      tag_188\n      jump\t// in\n    tag_428:\n        /* \"#utility.yul\":25194:25333   */\n      swap1\n      pop\n        /* \"#utility.yul\":24921:25340   */\n      swap2\n      swap1\n      pop\n      jump\t// out\n\n    auxdata: 0xa26469706673582212203b029ed740f836d7ea29fffaec64fae9f895e8f7ed6e9bcbd6f776b7dfd0f5f164736f6c634300081e0033\n}\n",
				"bytecode": {
					"linkReferences": {},
					"object": "608060405234801561000f575f5ffd5b5060405161196638038061196683398181016040528101906100319190610115565b815f5f6101000a81548173ffffffffffffffffffffffffffffffffffffffff021916908373ffffffffffffffffffffffffffffffffffffffff1602179055508060015f6101000a81548173ffffffffffffffffffffffffffffffffffffffff021916908373ffffffffffffffffffffffffffffffffffffffff1602179055505050610153565b5f5ffd5b5f73ffffffffffffffffffffffffffffffffffffffff82169050919050565b5f6100e4826100bb565b9050919050565b6100f4816100da565b81146100fe575f5ffd5b50565b5f8151905061010f816100eb565b92915050565b5f5f6040838503121561012b5761012a6100b7565b5b5f61013885828601610101565b925050602061014985828601610101565b9150509250929050565b611806806101605f395ff3fe608060405234801561000f575f5ffd5b5060043610610060575f3560e01c80631172ac67146100645780631238d68d1461009457806313007d55146100b05780631a9e48f5146100ce5780635250c6e2146100fe578063c1816dfb1461011c575b5f5ffd5b61007e60048036038101906100799190610d2d565b61014c565b60405161008b9190610e92565b60405180910390f35b6100ae60048036038101906100a99190610eb2565b610496565b005b6100b86107e6565b6040516100c59190610f83565b60405180910390f35b6100e860048036038101906100e39190610d2d565b61080a565b6040516100f59190610e92565b60405180910390f35b610106610a6e565b6040516101139190610fbc565b60405180910390f35b61013660048036038101906101319190610fff565b610a93565b60405161014391906110e5565b60405180910390f35b610154610ba4565b5f600283604051610165919061113f565b90815260200160405180910390206040518060800160405290815f8201805461018d90611182565b80601f01602080910402602001604051908101604052809291908181526020018280546101b990611182565b80156102045780601f106101db57610100808354040283529160200191610204565b820191905f5260205f20905b8154815290600101906020018083116101e757829003601f168201915b5050505050815260200160018201805461021d90611182565b80601f016020809104026020016040519081016040528092919081815260200182805461024990611182565b80156102945780601f1061026b57610100808354040283529160200191610294565b820191905f5260205f20905b81548152906001019060200180831161027757829003601f168201915b50505050508152602001600282015f9054906101000a900473ffffffffffffffffffffffffffffffffffffffff1673ffffffffffffffffffffffffffffffffffffffff1673ffffffffffffffffffffffffffffffffffffffff16815260200160038201548152505090505f73ffffffffffffffffffffffffffffffffffffffff16816040015173ffffffffffffffffffffffffffffffffffffffff1603610370576040517f08c379a00000000000000000000000000000000000000000000000000000000081526004016103679061120c565b60405180910390fd5b5f3373ffffffffffffffffffffffffffffffffffffffff16826040015173ffffffffffffffffffffffffffffffffffffffff161490505f5f5f9054906101000a900473ffffffffffffffffffffffffffffffffffffffff1673ffffffffffffffffffffffffffffffffffffffff166313bd20e286336040518363ffffffff1660e01b8152600401610402929190611271565b602060405180830381865afa15801561041d573d5f5f3e3d5ffd5b505050506040513d601f19601f8201168201806040525081019061044191906112d4565b9050818061044c5750805b61048b576040517f08c379a000000000000000000000000000000000000000000000000000000000815260040161048290611349565b60405180910390fd5b829350505050919050565b5f8251116104d9576040517f08c379a00000000000000000000000000000000000000000000000000000000081526004016104d0906113b1565b60405180910390fd5b5f81511161051c576040517f08c379a000000000000000000000000000000000000000000000000000000000815260040161051390611419565b60405180910390fd5b5f73ffffffffffffffffffffffffffffffffffffffff16600283604051610543919061113f565b90815260200160405180910390206002015f9054906101000a900473ffffffffffffffffffffffffffffffffffffffff1673ffffffffffffffffffffffffffffffffffffffff16146105ca576040517f08c379a00000000000000000000000000000000000000000000000000000000081526004016105c190611481565b60405180910390fd5b60405180608001604052808381526020018281526020013373ffffffffffffffffffffffffffffffffffffffff16815260200142815250600283604051610611919061113f565b90815260200160405180910390205f820151815f0190816106329190611636565b5060208201518160010190816106489190611636565b506040820151816002015f6101000a81548173ffffffffffffffffffffffffffffffffffffffff021916908373ffffffffffffffffffffffffffffffffffffffff1602179055506060820151816003015590505060035f3373ffffffffffffffffffffffffffffffffffffffff1673ffffffffffffffffffffffffffffffffffffffff1681526020019081526020015f2082908060018154018082558091505060019003905f5260205f20015f9091909190915090816107089190611636565b5060015f9054906101000a900473ffffffffffffffffffffffffffffffffffffffff1673ffffffffffffffffffffffffffffffffffffffff1663edefcf8833846040518363ffffffff1660e01b8152600401610765929190611705565b5f604051808303815f87803b15801561077c575f5ffd5b505af115801561078e573d5f5f3e3d5ffd5b505050503373ffffffffffffffffffffffffffffffffffffffff167fb723d07463f1068cac6f7fd185f491afa8cc9d5bf4866dfa8f064f64e528bc2883836040516107da929190611733565b60405180910390a25050565b5f5f9054906101000a900473ffffffffffffffffffffffffffffffffffffffff1681565b610812610ba4565b5f73ffffffffffffffffffffffffffffffffffffffff16600283604051610839919061113f565b90815260200160405180910390206002015f9054906101000a900473ffffffffffffffffffffffffffffffffffffffff1673ffffffffffffffffffffffffffffffffffffffff16036108c0576040517f08c379a00000000000000000000000000000000000000000000000000000000081526004016108b7906117b2565b60405180910390fd5b6002826040516108d0919061113f565b90815260200160405180910390206040518060800160405290815f820180546108f890611182565b80601f016020809104026020016040519081016040528092919081815260200182805461092490611182565b801561096f5780601f106109465761010080835404028352916020019161096f565b820191905f5260205f20905b81548152906001019060200180831161095257829003601f168201915b5050505050815260200160018201805461098890611182565b80601f01602080910402602001604051908101604052809291908181526020018280546109b490611182565b80156109ff5780601f106109d6576101008083540402835291602001916109ff565b820191905f5260205f20905b8154815290600101906020018083116109e257829003601f168201915b50505050508152602001600282015f9054906101000a900473ffffffffffffffffffffffffffffffffffffffff1673ffffffffffffffffffffffffffffffffffffffff1673ffffffffffffffffffffffffffffffffffffffff1681526020016003820154815250509050919050565b60015f9054906101000a900473ffffffffffffffffffffffffffffffffffffffff1681565b606060035f8373ffffffffffffffffffffffffffffffffffffffff1673ffffffffffffffffffffffffffffffffffffffff1681526020019081526020015f20805480602002602001604051908101604052809291908181526020015f905b82821015610b99578382905f5260205f20018054610b0e90611182565b80601f0160208091040260200160405190810160405280929190818152602001828054610b3a90611182565b8015610b855780601f10610b5c57610100808354040283529160200191610b85565b820191905f5260205f20905b815481529060010190602001808311610b6857829003601f168201915b505050505081526020019060010190610af1565b505050509050919050565b604051806080016040528060608152602001606081526020015f73ffffffffffffffffffffffffffffffffffffffff1681526020015f81525090565b5f604051905090565b5f5ffd5b5f5ffd5b5f5ffd5b5f5ffd5b5f601f19601f8301169050919050565b7f4e487b71000000000000000000000000000000000000000000000000000000005f52604160045260245ffd5b610c3f82610bf9565b810181811067ffffffffffffffff82111715610c5e57610c5d610c09565b5b80604052505050565b5f610c70610be0565b9050610c7c8282610c36565b919050565b5f67ffffffffffffffff821115610c9b57610c9a610c09565b5b610ca482610bf9565b9050602081019050919050565b828183375f83830152505050565b5f610cd1610ccc84610c81565b610c67565b905082815260208101848484011115610ced57610cec610bf5565b5b610cf8848285610cb1565b509392505050565b5f82601f830112610d1457610d13610bf1565b5b8135610d24848260208601610cbf565b91505092915050565b5f60208284031215610d4257610d41610be9565b5b5f82013567ffffffffffffffff811115610d5f57610d5e610bed565b5b610d6b84828501610d00565b91505092915050565b5f81519050919050565b5f82825260208201905092915050565b8281835e5f83830152505050565b5f610da682610d74565b610db08185610d7e565b9350610dc0818560208601610d8e565b610dc981610bf9565b840191505092915050565b5f73ffffffffffffffffffffffffffffffffffffffff82169050919050565b5f610dfd82610dd4565b9050919050565b610e0d81610df3565b82525050565b5f819050919050565b610e2581610e13565b82525050565b5f608083015f8301518482035f860152610e458282610d9c565b91505060208301518482036020860152610e5f8282610d9c565b9150506040830151610e746040860182610e04565b506060830151610e876060860182610e1c565b508091505092915050565b5f6020820190508181035f830152610eaa8184610e2b565b905092915050565b5f5f60408385031215610ec857610ec7610be9565b5b5f83013567ffffffffffffffff811115610ee557610ee4610bed565b5b610ef185828601610d00565b925050602083013567ffffffffffffffff811115610f1257610f11610bed565b5b610f1e85828601610d00565b9150509250929050565b5f819050919050565b5f610f4b610f46610f4184610dd4565b610f28565b610dd4565b9050919050565b5f610f5c82610f31565b9050919050565b5f610f6d82610f52565b9050919050565b610f7d81610f63565b82525050565b5f602082019050610f965f830184610f74565b92915050565b5f610fa682610f52565b9050919050565b610fb681610f9c565b82525050565b5f602082019050610fcf5f830184610fad565b92915050565b610fde81610df3565b8114610fe8575f5ffd5b50565b5f81359050610ff981610fd5565b92915050565b5f6020828403121561101457611013610be9565b5b5f61102184828501610feb565b91505092915050565b5f81519050919050565b5f82825260208201905092915050565b5f819050602082019050919050565b5f61105e8383610d9c565b905092915050565b5f602082019050919050565b5f61107c8261102a565b6110868185611034565b93508360208202850161109885611044565b805f5b858110156110d357848403895281516110b48582611053565b94506110bf83611066565b925060208a0199505060018101905061109b565b50829750879550505050505092915050565b5f6020820190508181035f8301526110fd8184611072565b905092915050565b5f81905092915050565b5f61111982610d74565b6111238185611105565b9350611133818560208601610d8e565b80840191505092915050565b5f61114a828461110f565b915081905092915050565b7f4e487b71000000000000000000000000000000000000000000000000000000005f52602260045260245ffd5b5f600282049050600182168061119957607f821691505b6020821081036111ac576111ab611155565b5b50919050565b5f82825260208201905092915050565b7f5265636f726420646f6573206e6f7420657869737400000000000000000000005f82015250565b5f6111f66015836111b2565b9150611201826111c2565b602082019050919050565b5f6020820190508181035f830152611223816111ea565b9050919050565b5f61123482610d74565b61123e81856111b2565b935061124e818560208601610d8e565b61125781610bf9565b840191505092915050565b61126b81610df3565b82525050565b5f6040820190508181035f830152611289818561122a565b90506112986020830184611262565b9392505050565b5f8115159050919050565b6112b38161129f565b81146112bd575f5ffd5b50565b5f815190506112ce816112aa565b92915050565b5f602082840312156112e9576112e8610be9565b5b5f6112f6848285016112c0565b91505092915050565b7f4163636573732064656e696564000000000000000000000000000000000000005f82015250565b5f611333600d836111b2565b915061133e826112ff565b602082019050919050565b5f6020820190508181035f83015261136081611327565b9050919050565b7f496e76616c69642066696c6520686173680000000000000000000000000000005f82015250565b5f61139b6011836111b2565b91506113a682611367565b602082019050919050565b5f6020820190508181035f8301526113c88161138f565b9050919050565b7f496e76616c69642066696c6520747970650000000000000000000000000000005f82015250565b5f6114036011836111b2565b915061140e826113cf565b602082019050919050565b5f6020820190508181035f830152611430816113f7565b9050919050565b7f5265636f726420616c72656164792065786973747300000000000000000000005f82015250565b5f61146b6015836111b2565b915061147682611437565b602082019050919050565b5f6020820190508181035f8301526114988161145f565b9050919050565b5f819050815f5260205f209050919050565b5f6020601f8301049050919050565b5f82821b905092915050565b5f600883026114fb7fffffffffffffffffffffffffffffffffffffffffffffffffffffffffffffffff826114c0565b61150586836114c0565b95508019841693508086168417925050509392505050565b5f61153761153261152d84610e13565b610f28565b610e13565b9050919050565b5f819050919050565b6115508361151d565b61156461155c8261153e565b8484546114cc565b825550505050565b5f5f905090565b61157b61156c565b611586818484611547565b505050565b5b818110156115a95761159e5f82611573565b60018101905061158c565b5050565b601f8211156115ee576115bf8161149f565b6115c8846114b1565b810160208510156115d7578190505b6115eb6115e3856114b1565b83018261158b565b50505b505050565b5f82821c905092915050565b5f61160e5f19846008026115f3565b1980831691505092915050565b5f61162683836115ff565b9150826002028217905092915050565b61163f82610d74565b67ffffffffffffffff81111561165857611657610c09565b5b6116628254611182565b61166d8282856115ad565b5f60209050601f83116001811461169e575f841561168c578287015190505b611696858261161b565b8655506116fd565b601f1984166116ac8661149f565b5f5b828110156116d3578489015182556001820191506020850194506020810190506116ae565b868310156116f057848901516116ec601f8916826115ff565b8355505b6001600288020188555050505b505050505050565b5f6040820190506117185f830185611262565b818103602083015261172a818461122a565b90509392505050565b5f6040820190508181035f83015261174b818561122a565b9050818103602083015261175f818461122a565b90509392505050565b7f5265636f7264206e6f7420666f756e64000000000000000000000000000000005f82015250565b5f61179c6010836111b2565b91506117a782611768565b602082019050919050565b5f6020820190508181035f8301526117c981611790565b905091905056fea26469706673582212203b029ed740f836d7ea29fffaec64fae9f895e8f7ed6e9bcbd6f776b7dfd0f5f164736f6c634300081e0033",
					"opcodes": "PUSH1 0x80 PUSH1 0x40 MSTORE CALLVALUE DUP1 ISZERO PUSH2 0xF JUMPI PUSH0 PUSH0 REVERT JUMPDEST POP PUSH1 0x40 MLOAD PUSH2 0x1966 CODESIZE SUB DUP1 PUSH2 0x1966 DUP4 CODECOPY DUP2 DUP2 ADD PUSH1 0x40 MSTORE DUP2 ADD SWAP1 PUSH2 0x31 SWAP2 SWAP1 PUSH2 0x115 JUMP JUMPDEST DUP2 PUSH0 PUSH0 PUSH2 0x100 EXP DUP2 SLOAD DUP2 PUSH20 0xFFFFFFFFFFFFFFFFFFFFFFFFFFFFFFFFFFFFFFFF MUL NOT AND SWAP1 DUP4 PUSH20 0xFFFFFFFFFFFFFFFFFFFFFFFFFFFFFFFFFFFFFFFF AND MUL OR SWAP1 SSTORE POP DUP1 PUSH1 0x1 PUSH0 PUSH2 0x100 EXP DUP2 SLOAD DUP2 PUSH20 0xFFFFFFFFFFFFFFFFFFFFFFFFFFFFFFFFFFFFFFFF MUL NOT AND SWAP1 DUP4 PUSH20 0xFFFFFFFFFFFFFFFFFFFFFFFFFFFFFFFFFFFFFFFF AND MUL OR SWAP1 SSTORE POP POP POP PUSH2 0x153 JUMP JUMPDEST PUSH0 PUSH0 REVERT JUMPDEST PUSH0 PUSH20 0xFFFFFFFFFFFFFFFFFFFFFFFFFFFFFFFFFFFFFFFF DUP3 AND SWAP1 POP SWAP2 SWAP1 POP JUMP JUMPDEST PUSH0 PUSH2 0xE4 DUP3 PUSH2 0xBB JUMP JUMPDEST SWAP1 POP SWAP2 SWAP1 POP JUMP JUMPDEST PUSH2 0xF4 DUP2 PUSH2 0xDA JUMP JUMPDEST DUP2 EQ PUSH2 0xFE JUMPI PUSH0 PUSH0 REVERT JUMPDEST POP JUMP JUMPDEST PUSH0 DUP2 MLOAD SWAP1 POP PUSH2 0x10F DUP2 PUSH2 0xEB JUMP JUMPDEST SWAP3 SWAP2 POP POP JUMP JUMPDEST PUSH0 PUSH0 PUSH1 0x40 DUP4 DUP6 SUB SLT ISZERO PUSH2 0x12B JUMPI PUSH2 0x12A PUSH2 0xB7 JUMP JUMPDEST JUMPDEST PUSH0 PUSH2 0x138 DUP6 DUP3 DUP7 ADD PUSH2 0x101 JUMP JUMPDEST SWAP3 POP POP PUSH1 0x20 PUSH2 0x149 DUP6 DUP3 DUP7 ADD PUSH2 0x101 JUMP JUMPDEST SWAP2 POP POP SWAP3 POP SWAP3 SWAP1 POP JUMP JUMPDEST PUSH2 0x1806 DUP1 PUSH2 0x160 PUSH0 CODECOPY PUSH0 RETURN INVALID PUSH1 0x80 PUSH1 0x40 MSTORE CALLVALUE DUP1 ISZERO PUSH2 0xF JUMPI PUSH0 PUSH0 REVERT JUMPDEST POP PUSH1 0x4 CALLDATASIZE LT PUSH2 0x60 JUMPI PUSH0 CALLDATALOAD PUSH1 0xE0 SHR DUP1 PUSH4 0x1172AC67 EQ PUSH2 0x64 JUMPI DUP1 PUSH4 0x1238D68D EQ PUSH2 0x94 JUMPI DUP1 PUSH4 0x13007D55 EQ PUSH2 0xB0 JUMPI DUP1 PUSH4 0x1A9E48F5 EQ PUSH2 0xCE JUMPI DUP1 PUSH4 0x5250C6E2 EQ PUSH2 0xFE JUMPI DUP1 PUSH4 0xC1816DFB EQ PUSH2 0x11C JUMPI JUMPDEST PUSH0 PUSH0 REVERT JUMPDEST PUSH2 0x7E PUSH1 0x4 DUP1 CALLDATASIZE SUB DUP2 ADD SWAP1 PUSH2 0x79 SWAP2 SWAP1 PUSH2 0xD2D JUMP JUMPDEST PUSH2 0x14C JUMP JUMPDEST PUSH1 0x40 MLOAD PUSH2 0x8B SWAP2 SWAP1 PUSH2 0xE92 JUMP JUMPDEST PUSH1 0x40 MLOAD DUP1 SWAP2 SUB SWAP1 RETURN JUMPDEST PUSH2 0xAE PUSH1 0x4 DUP1 CALLDATASIZE SUB DUP2 ADD SWAP1 PUSH2 0xA9 SWAP2 SWAP1 PUSH2 0xEB2 JUMP JUMPDEST PUSH2 0x496 JUMP JUMPDEST STOP JUMPDEST PUSH2 0xB8 PUSH2 0x7E6 JUMP JUMPDEST PUSH1 0x40 MLOAD PUSH2 0xC5 SWAP2 SWAP1 PUSH2 0xF83 JUMP JUMPDEST PUSH1 0x40 MLOAD DUP1 SWAP2 SUB SWAP1 RETURN JUMPDEST PUSH2 0xE8 PUSH1 0x4 DUP1 CALLDATASIZE SUB DUP2 ADD SWAP1 PUSH2 0xE3 SWAP2 SWAP1 PUSH2 0xD2D JUMP JUMPDEST PUSH2 0x80A JUMP JUMPDEST PUSH1 0x40 MLOAD PUSH2 0xF5 SWAP2 SWAP1 PUSH2 0xE92 JUMP JUMPDEST PUSH1 0x40 MLOAD DUP1 SWAP2 SUB SWAP1 RETURN JUMPDEST PUSH2 0x106 PUSH2 0xA6E JUMP JUMPDEST PUSH1 0x40 MLOAD PUSH2 0x113 SWAP2 SWAP1 PUSH2 0xFBC JUMP JUMPDEST PUSH1 0x40 MLOAD DUP1 SWAP2 SUB SWAP1 RETURN JUMPDEST PUSH2 0x136 PUSH1 0x4 DUP1 CALLDATASIZE SUB DUP2 ADD SWAP1 PUSH2 0x131 SWAP2 SWAP1 PUSH2 0xFFF JUMP JUMPDEST PUSH2 0xA93 JUMP JUMPDEST PUSH1 0x40 MLOAD PUSH2 0x143 SWAP2 SWAP1 PUSH2 0x10E5 JUMP JUMPDEST PUSH1 0x40 MLOAD DUP1 SWAP2 SUB SWAP1 RETURN JUMPDEST PUSH2 0x154 PUSH2 0xBA4 JUMP JUMPDEST PUSH0 PUSH1 0x2 DUP4 PUSH1 0x40 MLOAD PUSH2 0x165 SWAP2 SWAP1 PUSH2 0x113F JUMP JUMPDEST SWAP1 DUP2 MSTORE PUSH1 0x20 ADD PUSH1 0x40 MLOAD DUP1 SWAP2 SUB SWAP1 KECCAK256 PUSH1 0x40 MLOAD DUP1 PUSH1 0x80 ADD PUSH1 0x40 MSTORE SWAP1 DUP2 PUSH0 DUP3 ADD DUP1 SLOAD PUSH2 0x18D SWAP1 PUSH2 0x1182 JUMP JUMPDEST DUP1 PUSH1 0x1F ADD PUSH1 0x20 DUP1 SWAP2 DIV MUL PUSH1 0x20 ADD PUSH1 0x40 MLOAD SWAP1 DUP2 ADD PUSH1 0x40 MSTORE DUP1 SWAP3 SWAP2 SWAP1 DUP2 DUP2 MSTORE PUSH1 0x20 ADD DUP3 DUP1 SLOAD PUSH2 0x1B9 SWAP1 PUSH2 0x1182 JUMP JUMPDEST DUP1 ISZERO PUSH2 0x204 JUMPI DUP1 PUSH1 0x1F LT PUSH2 0x1DB JUMPI PUSH2 0x100 DUP1 DUP4 SLOAD DIV MUL DUP4 MSTORE SWAP2 PUSH1 0x20 ADD SWAP2 PUSH2 0x204 JUMP JUMPDEST DUP3 ADD SWAP2 SWAP1 PUSH0 MSTORE PUSH1 0x20 PUSH0 KECCAK256 SWAP1 JUMPDEST DUP2 SLOAD DUP2 MSTORE SWAP1 PUSH1 0x1 ADD SWAP1 PUSH1 0x20 ADD DUP1 DUP4 GT PUSH2 0x1E7 JUMPI DUP3 SWAP1 SUB PUSH1 0x1F AND DUP3 ADD SWAP2 JUMPDEST POP POP POP POP POP DUP2 MSTORE PUSH1 0x20 ADD PUSH1 0x1 DUP3 ADD DUP1 SLOAD PUSH2 0x21D SWAP1 PUSH2 0x1182 JUMP JUMPDEST DUP1 PUSH1 0x1F ADD PUSH1 0x20 DUP1 SWAP2 DIV MUL PUSH1 0x20 ADD PUSH1 0x40 MLOAD SWAP1 DUP2 ADD PUSH1 0x40 MSTORE DUP1 SWAP3 SWAP2 SWAP1 DUP2 DUP2 MSTORE PUSH1 0x20 ADD DUP3 DUP1 SLOAD PUSH2 0x249 SWAP1 PUSH2 0x1182 JUMP JUMPDEST DUP1 ISZERO PUSH2 0x294 JUMPI DUP1 PUSH1 0x1F LT PUSH2 0x26B JUMPI PUSH2 0x100 DUP1 DUP4 SLOAD DIV MUL DUP4 MSTORE SWAP2 PUSH1 0x20 ADD SWAP2 PUSH2 0x294 JUMP JUMPDEST DUP3 ADD SWAP2 SWAP1 PUSH0 MSTORE PUSH1 0x20 PUSH0 KECCAK256 SWAP1 JUMPDEST DUP2 SLOAD DUP2 MSTORE SWAP1 PUSH1 0x1 ADD SWAP1 PUSH1 0x20 ADD DUP1 DUP4 GT PUSH2 0x277 JUMPI DUP3 SWAP1 SUB PUSH1 0x1F AND DUP3 ADD SWAP2 JUMPDEST POP POP POP POP POP DUP2 MSTORE PUSH1 0x20 ADD PUSH1 0x2 DUP3 ADD PUSH0 SWAP1 SLOAD SWAP1 PUSH2 0x100 EXP SWAP1 DIV PUSH20 0xFFFFFFFFFFFFFFFFFFFFFFFFFFFFFFFFFFFFFFFF AND PUSH20 0xFFFFFFFFFFFFFFFFFFFFFFFFFFFFFFFFFFFFFFFF AND PUSH20 0xFFFFFFFFFFFFFFFFFFFFFFFFFFFFFFFFFFFFFFFF AND DUP2 MSTORE PUSH1 0x20 ADD PUSH1 0x3 DUP3 ADD SLOAD DUP2 MSTORE POP POP SWAP1 POP PUSH0 PUSH20 0xFFFFFFFFFFFFFFFFFFFFFFFFFFFFFFFFFFFFFFFF AND DUP2 PUSH1 0x40 ADD MLOAD PUSH20 0xFFFFFFFFFFFFFFFFFFFFFFFFFFFFFFFFFFFFFFFF AND SUB PUSH2 0x370 JUMPI PUSH1 0x40 MLOAD PUSH32 0x8C379A000000000000000000000000000000000000000000000000000000000 DUP2 MSTORE PUSH1 0x4 ADD PUSH2 0x367 SWAP1 PUSH2 0x120C JUMP JUMPDEST PUSH1 0x40 MLOAD DUP1 SWAP2 SUB SWAP1 REVERT JUMPDEST PUSH0 CALLER PUSH20 0xFFFFFFFFFFFFFFFFFFFFFFFFFFFFFFFFFFFFFFFF AND DUP3 PUSH1 0x40 ADD MLOAD PUSH20 0xFFFFFFFFFFFFFFFFFFFFFFFFFFFFFFFFFFFFFFFF AND EQ SWAP1 POP PUSH0 PUSH0 PUSH0 SWAP1 SLOAD SWAP1 PUSH2 0x100 EXP SWAP1 DIV PUSH20 0xFFFFFFFFFFFFFFFFFFFFFFFFFFFFFFFFFFFFFFFF AND PUSH20 0xFFFFFFFFFFFFFFFFFFFFFFFFFFFFFFFFFFFFFFFF AND PUSH4 0x13BD20E2 DUP7 CALLER PUSH1 0x40 MLOAD DUP4 PUSH4 0xFFFFFFFF AND PUSH1 0xE0 SHL DUP2 MSTORE PUSH1 0x4 ADD PUSH2 0x402 SWAP3 SWAP2 SWAP1 PUSH2 0x1271 JUMP JUMPDEST PUSH1 0x20 PUSH1 0x40 MLOAD DUP1 DUP4 SUB DUP2 DUP7 GAS STATICCALL ISZERO DUP1 ISZERO PUSH2 0x41D JUMPI RETURNDATASIZE PUSH0 PUSH0 RETURNDATACOPY RETURNDATASIZE PUSH0 REVERT JUMPDEST POP POP POP POP PUSH1 0x40 MLOAD RETURNDATASIZE PUSH1 0x1F NOT PUSH1 0x1F DUP3 ADD AND DUP3 ADD DUP1 PUSH1 0x40 MSTORE POP DUP2 ADD SWAP1 PUSH2 0x441 SWAP2 SWAP1 PUSH2 0x12D4 JUMP JUMPDEST SWAP1 POP DUP2 DUP1 PUSH2 0x44C JUMPI POP DUP1 JUMPDEST PUSH2 0x48B JUMPI PUSH1 0x40 MLOAD PUSH32 0x8C379A000000000000000000000000000000000000000000000000000000000 DUP2 MSTORE PUSH1 0x4 ADD PUSH2 0x482 SWAP1 PUSH2 0x1349 JUMP JUMPDEST PUSH1 0x40 MLOAD DUP1 SWAP2 SUB SWAP1 REVERT JUMPDEST DUP3 SWAP4 POP POP POP POP SWAP2 SWAP1 POP JUMP JUMPDEST PUSH0 DUP3 MLOAD GT PUSH2 0x4D9 JUMPI PUSH1 0x40 MLOAD PUSH32 0x8C379A000000000000000000000000000000000000000000000000000000000 DUP2 MSTORE PUSH1 0x4 ADD PUSH2 0x4D0 SWAP1 PUSH2 0x13B1 JUMP JUMPDEST PUSH1 0x40 MLOAD DUP1 SWAP2 SUB SWAP1 REVERT JUMPDEST PUSH0 DUP2 MLOAD GT PUSH2 0x51C JUMPI PUSH1 0x40 MLOAD PUSH32 0x8C379A000000000000000000000000000000000000000000000000000000000 DUP2 MSTORE PUSH1 0x4 ADD PUSH2 0x513 SWAP1 PUSH2 0x1419 JUMP JUMPDEST PUSH1 0x40 MLOAD DUP1 SWAP2 SUB SWAP1 REVERT JUMPDEST PUSH0 PUSH20 0xFFFFFFFFFFFFFFFFFFFFFFFFFFFFFFFFFFFFFFFF AND PUSH1 0x2 DUP4 PUSH1 0x40 MLOAD PUSH2 0x543 SWAP2 SWAP1 PUSH2 0x113F JUMP JUMPDEST SWAP1 DUP2 MSTORE PUSH1 0x20 ADD PUSH1 0x40 MLOAD DUP1 SWAP2 SUB SWAP1 KECCAK256 PUSH1 0x2 ADD PUSH0 SWAP1 SLOAD SWAP1 PUSH2 0x100 EXP SWAP1 DIV PUSH20 0xFFFFFFFFFFFFFFFFFFFFFFFFFFFFFFFFFFFFFFFF AND PUSH20 0xFFFFFFFFFFFFFFFFFFFFFFFFFFFFFFFFFFFFFFFF AND EQ PUSH2 0x5CA JUMPI PUSH1 0x40 MLOAD PUSH32 0x8C379A000000000000000000000000000000000000000000000000000000000 DUP2 MSTORE PUSH1 0x4 ADD PUSH2 0x5C1 SWAP1 PUSH2 0x1481 JUMP JUMPDEST PUSH1 0x40 MLOAD DUP1 SWAP2 SUB SWAP1 REVERT JUMPDEST PUSH1 0x40 MLOAD DUP1 PUSH1 0x80 ADD PUSH1 0x40 MSTORE DUP1 DUP4 DUP2 MSTORE PUSH1 0x20 ADD DUP3 DUP2 MSTORE PUSH1 0x20 ADD CALLER PUSH20 0xFFFFFFFFFFFFFFFFFFFFFFFFFFFFFFFFFFFFFFFF AND DUP2 MSTORE PUSH1 0x20 ADD TIMESTAMP DUP2 MSTORE POP PUSH1 0x2 DUP4 PUSH1 0x40 MLOAD PUSH2 0x611 SWAP2 SWAP1 PUSH2 0x113F JUMP JUMPDEST SWAP1 DUP2 MSTORE PUSH1 0x20 ADD PUSH1 0x40 MLOAD DUP1 SWAP2 SUB SWAP1 KECCAK256 PUSH0 DUP3 ADD MLOAD DUP2 PUSH0 ADD SWAP1 DUP2 PUSH2 0x632 SWAP2 SWAP1 PUSH2 0x1636 JUMP JUMPDEST POP PUSH1 0x20 DUP3 ADD MLOAD DUP2 PUSH1 0x1 ADD SWAP1 DUP2 PUSH2 0x648 SWAP2 SWAP1 PUSH2 0x1636 JUMP JUMPDEST POP PUSH1 0x40 DUP3 ADD MLOAD DUP2 PUSH1 0x2 ADD PUSH0 PUSH2 0x100 EXP DUP2 SLOAD DUP2 PUSH20 0xFFFFFFFFFFFFFFFFFFFFFFFFFFFFFFFFFFFFFFFF MUL NOT AND SWAP1 DUP4 PUSH20 0xFFFFFFFFFFFFFFFFFFFFFFFFFFFFFFFFFFFFFFFF AND MUL OR SWAP1 SSTORE POP PUSH1 0x60 DUP3 ADD MLOAD DUP2 PUSH1 0x3 ADD SSTORE SWAP1 POP POP PUSH1 0x3 PUSH0 CALLER PUSH20 0xFFFFFFFFFFFFFFFFFFFFFFFFFFFFFFFFFFFFFFFF AND PUSH20 0xFFFFFFFFFFFFFFFFFFFFFFFFFFFFFFFFFFFFFFFF AND DUP2 MSTORE PUSH1 0x20 ADD SWAP1 DUP2 MSTORE PUSH1 0x20 ADD PUSH0 KECCAK256 DUP3 SWAP1 DUP1 PUSH1 0x1 DUP2 SLOAD ADD DUP1 DUP3 SSTORE DUP1 SWAP2 POP POP PUSH1 0x1 SWAP1 SUB SWAP1 PUSH0 MSTORE PUSH1 0x20 PUSH0 KECCAK256 ADD PUSH0 SWAP1 SWAP2 SWAP1 SWAP2 SWAP1 SWAP2 POP SWAP1 DUP2 PUSH2 0x708 SWAP2 SWAP1 PUSH2 0x1636 JUMP JUMPDEST POP PUSH1 0x1 PUSH0 SWAP1 SLOAD SWAP1 PUSH2 0x100 EXP SWAP1 DIV PUSH20 0xFFFFFFFFFFFFFFFFFFFFFFFFFFFFFFFFFFFFFFFF AND PUSH20 0xFFFFFFFFFFFFFFFFFFFFFFFFFFFFFFFFFFFFFFFF AND PUSH4 0xEDEFCF88 CALLER DUP5 PUSH1 0x40 MLOAD DUP4 PUSH4 0xFFFFFFFF AND PUSH1 0xE0 SHL DUP2 MSTORE PUSH1 0x4 ADD PUSH2 0x765 SWAP3 SWAP2 SWAP1 PUSH2 0x1705 JUMP JUMPDEST PUSH0 PUSH1 0x40 MLOAD DUP1 DUP4 SUB DUP2 PUSH0 DUP8 DUP1 EXTCODESIZE ISZERO DUP1 ISZERO PUSH2 0x77C JUMPI PUSH0 PUSH0 REVERT JUMPDEST POP GAS CALL ISZERO DUP1 ISZERO PUSH2 0x78E JUMPI RETURNDATASIZE PUSH0 PUSH0 RETURNDATACOPY RETURNDATASIZE PUSH0 REVERT JUMPDEST POP POP POP POP CALLER PUSH20 0xFFFFFFFFFFFFFFFFFFFFFFFFFFFFFFFFFFFFFFFF AND PUSH32 0xB723D07463F1068CAC6F7FD185F491AFA8CC9D5BF4866DFA8F064F64E528BC28 DUP4 DUP4 PUSH1 0x40 MLOAD PUSH2 0x7DA SWAP3 SWAP2 SWAP1 PUSH2 0x1733 JUMP JUMPDEST PUSH1 0x40 MLOAD DUP1 SWAP2 SUB SWAP1 LOG2 POP POP JUMP JUMPDEST PUSH0 PUSH0 SWAP1 SLOAD SWAP1 PUSH2 0x100 EXP SWAP1 DIV PUSH20 0xFFFFFFFFFFFFFFFFFFFFFFFFFFFFFFFFFFFFFFFF AND DUP2 JUMP JUMPDEST PUSH2 0x812 PUSH2 0xBA4 JUMP JUMPDEST PUSH0 PUSH20 0xFFFFFFFFFFFFFFFFFFFFFFFFFFFFFFFFFFFFFFFF AND PUSH1 0x2 DUP4 PUSH1 0x40 MLOAD PUSH2 0x839 SWAP2 SWAP1 PUSH2 0x113F JUMP JUMPDEST SWAP1 DUP2 MSTORE PUSH1 0x20 ADD PUSH1 0x40 MLOAD DUP1 SWAP2 SUB SWAP1 KECCAK256 PUSH1 0x2 ADD PUSH0 SWAP1 SLOAD SWAP1 PUSH2 0x100 EXP SWAP1 DIV PUSH20 0xFFFFFFFFFFFFFFFFFFFFFFFFFFFFFFFFFFFFFFFF AND PUSH20 0xFFFFFFFFFFFFFFFFFFFFFFFFFFFFFFFFFFFFFFFF AND SUB PUSH2 0x8C0 JUMPI PUSH1 0x40 MLOAD PUSH32 0x8C379A000000000000000000000000000000000000000000000000000000000 DUP2 MSTORE PUSH1 0x4 ADD PUSH2 0x8B7 SWAP1 PUSH2 0x17B2 JUMP JUMPDEST PUSH1 0x40 MLOAD DUP1 SWAP2 SUB SWAP1 REVERT JUMPDEST PUSH1 0x2 DUP3 PUSH1 0x40 MLOAD PUSH2 0x8D0 SWAP2 SWAP1 PUSH2 0x113F JUMP JUMPDEST SWAP1 DUP2 MSTORE PUSH1 0x20 ADD PUSH1 0x40 MLOAD DUP1 SWAP2 SUB SWAP1 KECCAK256 PUSH1 0x40 MLOAD DUP1 PUSH1 0x80 ADD PUSH1 0x40 MSTORE SWAP1 DUP2 PUSH0 DUP3 ADD DUP1 SLOAD PUSH2 0x8F8 SWAP1 PUSH2 0x1182 JUMP JUMPDEST DUP1 PUSH1 0x1F ADD PUSH1 0x20 DUP1 SWAP2 DIV MUL PUSH1 0x20 ADD PUSH1 0x40 MLOAD SWAP1 DUP2 ADD PUSH1 0x40 MSTORE DUP1 SWAP3 SWAP2 SWAP1 DUP2 DUP2 MSTORE PUSH1 0x20 ADD DUP3 DUP1 SLOAD PUSH2 0x924 SWAP1 PUSH2 0x1182 JUMP JUMPDEST DUP1 ISZERO PUSH2 0x96F JUMPI DUP1 PUSH1 0x1F LT PUSH2 0x946 JUMPI PUSH2 0x100 DUP1 DUP4 SLOAD DIV MUL DUP4 MSTORE SWAP2 PUSH1 0x20 ADD SWAP2 PUSH2 0x96F JUMP JUMPDEST DUP3 ADD SWAP2 SWAP1 PUSH0 MSTORE PUSH1 0x20 PUSH0 KECCAK256 SWAP1 JUMPDEST DUP2 SLOAD DUP2 MSTORE SWAP1 PUSH1 0x1 ADD SWAP1 PUSH1 0x20 ADD DUP1 DUP4 GT PUSH2 0x952 JUMPI DUP3 SWAP1 SUB PUSH1 0x1F AND DUP3 ADD SWAP2 JUMPDEST POP POP POP POP POP DUP2 MSTORE PUSH1 0x20 ADD PUSH1 0x1 DUP3 ADD DUP1 SLOAD PUSH2 0x988 SWAP1 PUSH2 0x1182 JUMP JUMPDEST DUP1 PUSH1 0x1F ADD PUSH1 0x20 DUP1 SWAP2 DIV MUL PUSH1 0x20 ADD PUSH1 0x40 MLOAD SWAP1 DUP2 ADD PUSH1 0x40 MSTORE DUP1 SWAP3 SWAP2 SWAP1 DUP2 DUP2 MSTORE PUSH1 0x20 ADD DUP3 DUP1 SLOAD PUSH2 0x9B4 SWAP1 PUSH2 0x1182 JUMP JUMPDEST DUP1 ISZERO PUSH2 0x9FF JUMPI DUP1 PUSH1 0x1F LT PUSH2 0x9D6 JUMPI PUSH2 0x100 DUP1 DUP4 SLOAD DIV MUL DUP4 MSTORE SWAP2 PUSH1 0x20 ADD SWAP2 PUSH2 0x9FF JUMP JUMPDEST DUP3 ADD SWAP2 SWAP1 PUSH0 MSTORE PUSH1 0x20 PUSH0 KECCAK256 SWAP1 JUMPDEST DUP2 SLOAD DUP2 MSTORE SWAP1 PUSH1 0x1 ADD SWAP1 PUSH1 0x20 ADD DUP1 DUP4 GT PUSH2 0x9E2 JUMPI DUP3 SWAP1 SUB PUSH1 0x1F AND DUP3 ADD SWAP2 JUMPDEST POP POP POP POP POP DUP2 MSTORE PUSH1 0x20 ADD PUSH1 0x2 DUP3 ADD PUSH0 SWAP1 SLOAD SWAP1 PUSH2 0x100 EXP SWAP1 DIV PUSH20 0xFFFFFFFFFFFFFFFFFFFFFFFFFFFFFFFFFFFFFFFF AND PUSH20 0xFFFFFFFFFFFFFFFFFFFFFFFFFFFFFFFFFFFFFFFF AND PUSH20 0xFFFFFFFFFFFFFFFFFFFFFFFFFFFFFFFFFFFFFFFF AND DUP2 MSTORE PUSH1 0x20 ADD PUSH1 0x3 DUP3 ADD SLOAD DUP2 MSTORE POP POP SWAP1 POP SWAP2 SWAP1 POP JUMP JUMPDEST PUSH1 0x1 PUSH0 SWAP1 SLOAD SWAP1 PUSH2 0x100 EXP SWAP1 DIV PUSH20 0xFFFFFFFFFFFFFFFFFFFFFFFFFFFFFFFFFFFFFFFF AND DUP2 JUMP JUMPDEST PUSH1 0x60 PUSH1 0x3 PUSH0 DUP4 PUSH20 0xFFFFFFFFFFFFFFFFFFFFFFFFFFFFFFFFFFFFFFFF AND PUSH20 0xFFFFFFFFFFFFFFFFFFFFFFFFFFFFFFFFFFFFFFFF AND DUP2 MSTORE PUSH1 0x20 ADD SWAP1 DUP2 MSTORE PUSH1 0x20 ADD PUSH0 KECCAK256 DUP1 SLOAD DUP1 PUSH1 0x20 MUL PUSH1 0x20 ADD PUSH1 0x40 MLOAD SWAP1 DUP2 ADD PUSH1 0x40 MSTORE DUP1 SWAP3 SWAP2 SWAP1 DUP2 DUP2 MSTORE PUSH1 0x20 ADD PUSH0 SWAP1 JUMPDEST DUP3 DUP3 LT ISZERO PUSH2 0xB99 JUMPI DUP4 DUP3 SWAP1 PUSH0 MSTORE PUSH1 0x20 PUSH0 KECCAK256 ADD DUP1 SLOAD PUSH2 0xB0E SWAP1 PUSH2 0x1182 JUMP JUMPDEST DUP1 PUSH1 0x1F ADD PUSH1 0x20 DUP1 SWAP2 DIV MUL PUSH1 0x20 ADD PUSH1 0x40 MLOAD SWAP1 DUP2 ADD PUSH1 0x40 MSTORE DUP1 SWAP3 SWAP2 SWAP1 DUP2 DUP2 MSTORE PUSH1 0x20 ADD DUP3 DUP1 SLOAD PUSH2 0xB3A SWAP1 PUSH2 0x1182 JUMP JUMPDEST DUP1 ISZERO PUSH2 0xB85 JUMPI DUP1 PUSH1 0x1F LT PUSH2 0xB5C JUMPI PUSH2 0x100 DUP1 DUP4 SLOAD DIV MUL DUP4 MSTORE SWAP2 PUSH1 0x20 ADD SWAP2 PUSH2 0xB85 JUMP JUMPDEST DUP3 ADD SWAP2 SWAP1 PUSH0 MSTORE PUSH1 0x20 PUSH0 KECCAK256 SWAP1 JUMPDEST DUP2 SLOAD DUP2 MSTORE SWAP1 PUSH1 0x1 ADD SWAP1 PUSH1 0x20 ADD DUP1 DUP4 GT PUSH2 0xB68 JUMPI DUP3 SWAP1 SUB PUSH1 0x1F AND DUP3 ADD SWAP2 JUMPDEST POP POP POP POP POP DUP2 MSTORE PUSH1 0x20 ADD SWAP1 PUSH1 0x1 ADD SWAP1 PUSH2 0xAF1 JUMP JUMPDEST POP POP POP POP SWAP1 POP SWAP2 SWAP1 POP JUMP JUMPDEST PUSH1 0x40 MLOAD DUP1 PUSH1 0x80 ADD PUSH1 0x40 MSTORE DUP1 PUSH1 0x60 DUP2 MSTORE PUSH1 0x20 ADD PUSH1 0x60 DUP2 MSTORE PUSH1 0x20 ADD PUSH0 PUSH20 0xFFFFFFFFFFFFFFFFFFFFFFFFFFFFFFFFFFFFFFFF AND DUP2 MSTORE PUSH1 0x20 ADD PUSH0 DUP2 MSTORE POP SWAP1 JUMP JUMPDEST PUSH0 PUSH1 0x40 MLOAD SWAP1 POP SWAP1 JUMP JUMPDEST PUSH0 PUSH0 REVERT JUMPDEST PUSH0 PUSH0 REVERT JUMPDEST PUSH0 PUSH0 REVERT JUMPDEST PUSH0 PUSH0 REVERT JUMPDEST PUSH0 PUSH1 0x1F NOT PUSH1 0x1F DUP4 ADD AND SWAP1 POP SWAP2 SWAP1 POP JUMP JUMPDEST PUSH32 0x4E487B7100000000000000000000000000000000000000000000000000000000 PUSH0 MSTORE PUSH1 0x41 PUSH1 0x4 MSTORE PUSH1 0x24 PUSH0 REVERT JUMPDEST PUSH2 0xC3F DUP3 PUSH2 0xBF9 JUMP JUMPDEST DUP2 ADD DUP2 DUP2 LT PUSH8 0xFFFFFFFFFFFFFFFF DUP3 GT OR ISZERO PUSH2 0xC5E JUMPI PUSH2 0xC5D PUSH2 0xC09 JUMP JUMPDEST JUMPDEST DUP1 PUSH1 0x40 MSTORE POP POP POP JUMP JUMPDEST PUSH0 PUSH2 0xC70 PUSH2 0xBE0 JUMP JUMPDEST SWAP1 POP PUSH2 0xC7C DUP3 DUP3 PUSH2 0xC36 JUMP JUMPDEST SWAP2 SWAP1 POP JUMP JUMPDEST PUSH0 PUSH8 0xFFFFFFFFFFFFFFFF DUP3 GT ISZERO PUSH2 0xC9B JUMPI PUSH2 0xC9A PUSH2 0xC09 JUMP JUMPDEST JUMPDEST PUSH2 0xCA4 DUP3 PUSH2 0xBF9 JUMP JUMPDEST SWAP1 POP PUSH1 0x20 DUP2 ADD SWAP1 POP SWAP2 SWAP1 POP JUMP JUMPDEST DUP3 DUP2 DUP4 CALLDATACOPY PUSH0 DUP4 DUP4 ADD MSTORE POP POP POP JUMP JUMPDEST PUSH0 PUSH2 0xCD1 PUSH2 0xCCC DUP5 PUSH2 0xC81 JUMP JUMPDEST PUSH2 0xC67 JUMP JUMPDEST SWAP1 POP DUP3 DUP2 MSTORE PUSH1 0x20 DUP2 ADD DUP5 DUP5 DUP5 ADD GT ISZERO PUSH2 0xCED JUMPI PUSH2 0xCEC PUSH2 0xBF5 JUMP JUMPDEST JUMPDEST PUSH2 0xCF8 DUP5 DUP3 DUP6 PUSH2 0xCB1 JUMP JUMPDEST POP SWAP4 SWAP3 POP POP POP JUMP JUMPDEST PUSH0 DUP3 PUSH1 0x1F DUP4 ADD SLT PUSH2 0xD14 JUMPI PUSH2 0xD13 PUSH2 0xBF1 JUMP JUMPDEST JUMPDEST DUP2 CALLDATALOAD PUSH2 0xD24 DUP5 DUP3 PUSH1 0x20 DUP7 ADD PUSH2 0xCBF JUMP JUMPDEST SWAP2 POP POP SWAP3 SWAP2 POP POP JUMP JUMPDEST PUSH0 PUSH1 0x20 DUP3 DUP5 SUB SLT ISZERO PUSH2 0xD42 JUMPI PUSH2 0xD41 PUSH2 0xBE9 JUMP JUMPDEST JUMPDEST PUSH0 DUP3 ADD CALLDATALOAD PUSH8 0xFFFFFFFFFFFFFFFF DUP2 GT ISZERO PUSH2 0xD5F JUMPI PUSH2 0xD5E PUSH2 0xBED JUMP JUMPDEST JUMPDEST PUSH2 0xD6B DUP5 DUP3 DUP6 ADD PUSH2 0xD00 JUMP JUMPDEST SWAP2 POP POP SWAP3 SWAP2 POP POP JUMP JUMPDEST PUSH0 DUP2 MLOAD SWAP1 POP SWAP2 SWAP1 POP JUMP JUMPDEST PUSH0 DUP3 DUP3 MSTORE PUSH1 0x20 DUP3 ADD SWAP1 POP SWAP3 SWAP2 POP POP JUMP JUMPDEST DUP3 DUP2 DUP4 MCOPY PUSH0 DUP4 DUP4 ADD MSTORE POP POP POP JUMP JUMPDEST PUSH0 PUSH2 0xDA6 DUP3 PUSH2 0xD74 JUMP JUMPDEST PUSH2 0xDB0 DUP2 DUP6 PUSH2 0xD7E JUMP JUMPDEST SWAP4 POP PUSH2 0xDC0 DUP2 DUP6 PUSH1 0x20 DUP7 ADD PUSH2 0xD8E JUMP JUMPDEST PUSH2 0xDC9 DUP2 PUSH2 0xBF9 JUMP JUMPDEST DUP5 ADD SWAP2 POP POP SWAP3 SWAP2 POP POP JUMP JUMPDEST PUSH0 PUSH20 0xFFFFFFFFFFFFFFFFFFFFFFFFFFFFFFFFFFFFFFFF DUP3 AND SWAP1 POP SWAP2 SWAP1 POP JUMP JUMPDEST PUSH0 PUSH2 0xDFD DUP3 PUSH2 0xDD4 JUMP JUMPDEST SWAP1 POP SWAP2 SWAP1 POP JUMP JUMPDEST PUSH2 0xE0D DUP2 PUSH2 0xDF3 JUMP JUMPDEST DUP3 MSTORE POP POP JUMP JUMPDEST PUSH0 DUP2 SWAP1 POP SWAP2 SWAP1 POP JUMP JUMPDEST PUSH2 0xE25 DUP2 PUSH2 0xE13 JUMP JUMPDEST DUP3 MSTORE POP POP JUMP JUMPDEST PUSH0 PUSH1 0x80 DUP4 ADD PUSH0 DUP4 ADD MLOAD DUP5 DUP3 SUB PUSH0 DUP7 ADD MSTORE PUSH2 0xE45 DUP3 DUP3 PUSH2 0xD9C JUMP JUMPDEST SWAP2 POP POP PUSH1 0x20 DUP4 ADD MLOAD DUP5 DUP3 SUB PUSH1 0x20 DUP7 ADD MSTORE PUSH2 0xE5F DUP3 DUP3 PUSH2 0xD9C JUMP JUMPDEST SWAP2 POP POP PUSH1 0x40 DUP4 ADD MLOAD PUSH2 0xE74 PUSH1 0x40 DUP7 ADD DUP3 PUSH2 0xE04 JUMP JUMPDEST POP PUSH1 0x60 DUP4 ADD MLOAD PUSH2 0xE87 PUSH1 0x60 DUP7 ADD DUP3 PUSH2 0xE1C JUMP JUMPDEST POP DUP1 SWAP2 POP POP SWAP3 SWAP2 POP POP JUMP JUMPDEST PUSH0 PUSH1 0x20 DUP3 ADD SWAP1 POP DUP2 DUP2 SUB PUSH0 DUP4 ADD MSTORE PUSH2 0xEAA DUP2 DUP5 PUSH2 0xE2B JUMP JUMPDEST SWAP1 POP SWAP3 SWAP2 POP POP JUMP JUMPDEST PUSH0 PUSH0 PUSH1 0x40 DUP4 DUP6 SUB SLT ISZERO PUSH2 0xEC8 JUMPI PUSH2 0xEC7 PUSH2 0xBE9 JUMP JUMPDEST JUMPDEST PUSH0 DUP4 ADD CALLDATALOAD PUSH8 0xFFFFFFFFFFFFFFFF DUP2 GT ISZERO PUSH2 0xEE5 JUMPI PUSH2 0xEE4 PUSH2 0xBED JUMP JUMPDEST JUMPDEST PUSH2 0xEF1 DUP6 DUP3 DUP7 ADD PUSH2 0xD00 JUMP JUMPDEST SWAP3 POP POP PUSH1 0x20 DUP4 ADD CALLDATALOAD PUSH8 0xFFFFFFFFFFFFFFFF DUP2 GT ISZERO PUSH2 0xF12 JUMPI PUSH2 0xF11 PUSH2 0xBED JUMP JUMPDEST JUMPDEST PUSH2 0xF1E DUP6 DUP3 DUP7 ADD PUSH2 0xD00 JUMP JUMPDEST SWAP2 POP POP SWAP3 POP SWAP3 SWAP1 POP JUMP JUMPDEST PUSH0 DUP2 SWAP1 POP SWAP2 SWAP1 POP JUMP JUMPDEST PUSH0 PUSH2 0xF4B PUSH2 0xF46 PUSH2 0xF41 DUP5 PUSH2 0xDD4 JUMP JUMPDEST PUSH2 0xF28 JUMP JUMPDEST PUSH2 0xDD4 JUMP JUMPDEST SWAP1 POP SWAP2 SWAP1 POP JUMP JUMPDEST PUSH0 PUSH2 0xF5C DUP3 PUSH2 0xF31 JUMP JUMPDEST SWAP1 POP SWAP2 SWAP1 POP JUMP JUMPDEST PUSH0 PUSH2 0xF6D DUP3 PUSH2 0xF52 JUMP JUMPDEST SWAP1 POP SWAP2 SWAP1 POP JUMP JUMPDEST PUSH2 0xF7D DUP2 PUSH2 0xF63 JUMP JUMPDEST DUP3 MSTORE POP POP JUMP JUMPDEST PUSH0 PUSH1 0x20 DUP3 ADD SWAP1 POP PUSH2 0xF96 PUSH0 DUP4 ADD DUP5 PUSH2 0xF74 JUMP JUMPDEST SWAP3 SWAP2 POP POP JUMP JUMPDEST PUSH0 PUSH2 0xFA6 DUP3 PUSH2 0xF52 JUMP JUMPDEST SWAP1 POP SWAP2 SWAP1 POP JUMP JUMPDEST PUSH2 0xFB6 DUP2 PUSH2 0xF9C JUMP JUMPDEST DUP3 MSTORE POP POP JUMP JUMPDEST PUSH0 PUSH1 0x20 DUP3 ADD SWAP1 POP PUSH2 0xFCF PUSH0 DUP4 ADD DUP5 PUSH2 0xFAD JUMP JUMPDEST SWAP3 SWAP2 POP POP JUMP JUMPDEST PUSH2 0xFDE DUP2 PUSH2 0xDF3 JUMP JUMPDEST DUP2 EQ PUSH2 0xFE8 JUMPI PUSH0 PUSH0 REVERT JUMPDEST POP JUMP JUMPDEST PUSH0 DUP2 CALLDATALOAD SWAP1 POP PUSH2 0xFF9 DUP2 PUSH2 0xFD5 JUMP JUMPDEST SWAP3 SWAP2 POP POP JUMP JUMPDEST PUSH0 PUSH1 0x20 DUP3 DUP5 SUB SLT ISZERO PUSH2 0x1014 JUMPI PUSH2 0x1013 PUSH2 0xBE9 JUMP JUMPDEST JUMPDEST PUSH0 PUSH2 0x1021 DUP5 DUP3 DUP6 ADD PUSH2 0xFEB JUMP JUMPDEST SWAP2 POP POP SWAP3 SWAP2 POP POP JUMP JUMPDEST PUSH0 DUP2 MLOAD SWAP1 POP SWAP2 SWAP1 POP JUMP JUMPDEST PUSH0 DUP3 DUP3 MSTORE PUSH1 0x20 DUP3 ADD SWAP1 POP SWAP3 SWAP2 POP POP JUMP JUMPDEST PUSH0 DUP2 SWAP1 POP PUSH1 0x20 DUP3 ADD SWAP1 POP SWAP2 SWAP1 POP JUMP JUMPDEST PUSH0 PUSH2 0x105E DUP4 DUP4 PUSH2 0xD9C JUMP JUMPDEST SWAP1 POP SWAP3 SWAP2 POP POP JUMP JUMPDEST PUSH0 PUSH1 0x20 DUP3 ADD SWAP1 POP SWAP2 SWAP1 POP JUMP JUMPDEST PUSH0 PUSH2 0x107C DUP3 PUSH2 0x102A JUMP JUMPDEST PUSH2 0x1086 DUP2 DUP6 PUSH2 0x1034 JUMP JUMPDEST SWAP4 POP DUP4 PUSH1 0x20 DUP3 MUL DUP6 ADD PUSH2 0x1098 DUP6 PUSH2 0x1044 JUMP JUMPDEST DUP1 PUSH0 JUMPDEST DUP6 DUP2 LT ISZERO PUSH2 0x10D3 JUMPI DUP5 DUP5 SUB DUP10 MSTORE DUP2 MLOAD PUSH2 0x10B4 DUP6 DUP3 PUSH2 0x1053 JUMP JUMPDEST SWAP5 POP PUSH2 0x10BF DUP4 PUSH2 0x1066 JUMP JUMPDEST SWAP3 POP PUSH1 0x20 DUP11 ADD SWAP10 POP POP PUSH1 0x1 DUP2 ADD SWAP1 POP PUSH2 0x109B JUMP JUMPDEST POP DUP3 SWAP8 POP DUP8 SWAP6 POP POP POP POP POP POP SWAP3 SWAP2 POP POP JUMP JUMPDEST PUSH0 PUSH1 0x20 DUP3 ADD SWAP1 POP DUP2 DUP2 SUB PUSH0 DUP4 ADD MSTORE PUSH2 0x10FD DUP2 DUP5 PUSH2 0x1072 JUMP JUMPDEST SWAP1 POP SWAP3 SWAP2 POP POP JUMP JUMPDEST PUSH0 DUP2 SWAP1 POP SWAP3 SWAP2 POP POP JUMP JUMPDEST PUSH0 PUSH2 0x1119 DUP3 PUSH2 0xD74 JUMP JUMPDEST PUSH2 0x1123 DUP2 DUP6 PUSH2 0x1105 JUMP JUMPDEST SWAP4 POP PUSH2 0x1133 DUP2 DUP6 PUSH1 0x20 DUP7 ADD PUSH2 0xD8E JUMP JUMPDEST DUP1 DUP5 ADD SWAP2 POP POP SWAP3 SWAP2 POP POP JUMP JUMPDEST PUSH0 PUSH2 0x114A DUP3 DUP5 PUSH2 0x110F JUMP JUMPDEST SWAP2 POP DUP2 SWAP1 POP SWAP3 SWAP2 POP POP JUMP JUMPDEST PUSH32 0x4E487B7100000000000000000000000000000000000000000000000000000000 PUSH0 MSTORE PUSH1 0x22 PUSH1 0x4 MSTORE PUSH1 0x24 PUSH0 REVERT JUMPDEST PUSH0 PUSH1 0x2 DUP3 DIV SWAP1 POP PUSH1 0x1 DUP3 AND DUP1 PUSH2 0x1199 JUMPI PUSH1 0x7F DUP3 AND SWAP2 POP JUMPDEST PUSH1 0x20 DUP3 LT DUP2 SUB PUSH2 0x11AC JUMPI PUSH2 0x11AB PUSH2 0x1155 JUMP JUMPDEST JUMPDEST POP SWAP2 SWAP1 POP JUMP JUMPDEST PUSH0 DUP3 DUP3 MSTORE PUSH1 0x20 DUP3 ADD SWAP1 POP SWAP3 SWAP2 POP POP JUMP JUMPDEST PUSH32 0x5265636F726420646F6573206E6F742065786973740000000000000000000000 PUSH0 DUP3 ADD MSTORE POP JUMP JUMPDEST PUSH0 PUSH2 0x11F6 PUSH1 0x15 DUP4 PUSH2 0x11B2 JUMP JUMPDEST SWAP2 POP PUSH2 0x1201 DUP3 PUSH2 0x11C2 JUMP JUMPDEST PUSH1 0x20 DUP3 ADD SWAP1 POP SWAP2 SWAP1 POP JUMP JUMPDEST PUSH0 PUSH1 0x20 DUP3 ADD SWAP1 POP DUP2 DUP2 SUB PUSH0 DUP4 ADD MSTORE PUSH2 0x1223 DUP2 PUSH2 0x11EA JUMP JUMPDEST SWAP1 POP SWAP2 SWAP1 POP JUMP JUMPDEST PUSH0 PUSH2 0x1234 DUP3 PUSH2 0xD74 JUMP JUMPDEST PUSH2 0x123E DUP2 DUP6 PUSH2 0x11B2 JUMP JUMPDEST SWAP4 POP PUSH2 0x124E DUP2 DUP6 PUSH1 0x20 DUP7 ADD PUSH2 0xD8E JUMP JUMPDEST PUSH2 0x1257 DUP2 PUSH2 0xBF9 JUMP JUMPDEST DUP5 ADD SWAP2 POP POP SWAP3 SWAP2 POP POP JUMP JUMPDEST PUSH2 0x126B DUP2 PUSH2 0xDF3 JUMP JUMPDEST DUP3 MSTORE POP POP JUMP JUMPDEST PUSH0 PUSH1 0x40 DUP3 ADD SWAP1 POP DUP2 DUP2 SUB PUSH0 DUP4 ADD MSTORE PUSH2 0x1289 DUP2 DUP6 PUSH2 0x122A JUMP JUMPDEST SWAP1 POP PUSH2 0x1298 PUSH1 0x20 DUP4 ADD DUP5 PUSH2 0x1262 JUMP JUMPDEST SWAP4 SWAP3 POP POP POP JUMP JUMPDEST PUSH0 DUP2 ISZERO ISZERO SWAP1 POP SWAP2 SWAP1 POP JUMP JUMPDEST PUSH2 0x12B3 DUP2 PUSH2 0x129F JUMP JUMPDEST DUP2 EQ PUSH2 0x12BD JUMPI PUSH0 PUSH0 REVERT JUMPDEST POP JUMP JUMPDEST PUSH0 DUP2 MLOAD SWAP1 POP PUSH2 0x12CE DUP2 PUSH2 0x12AA JUMP JUMPDEST SWAP3 SWAP2 POP POP JUMP JUMPDEST PUSH0 PUSH1 0x20 DUP3 DUP5 SUB SLT ISZERO PUSH2 0x12E9 JUMPI PUSH2 0x12E8 PUSH2 0xBE9 JUMP JUMPDEST JUMPDEST PUSH0 PUSH2 0x12F6 DUP5 DUP3 DUP6 ADD PUSH2 0x12C0 JUMP JUMPDEST SWAP2 POP POP SWAP3 SWAP2 POP POP JUMP JUMPDEST PUSH32 0x4163636573732064656E69656400000000000000000000000000000000000000 PUSH0 DUP3 ADD MSTORE POP JUMP JUMPDEST PUSH0 PUSH2 0x1333 PUSH1 0xD DUP4 PUSH2 0x11B2 JUMP JUMPDEST SWAP2 POP PUSH2 0x133E DUP3 PUSH2 0x12FF JUMP JUMPDEST PUSH1 0x20 DUP3 ADD SWAP1 POP SWAP2 SWAP1 POP JUMP JUMPDEST PUSH0 PUSH1 0x20 DUP3 ADD SWAP1 POP DUP2 DUP2 SUB PUSH0 DUP4 ADD MSTORE PUSH2 0x1360 DUP2 PUSH2 0x1327 JUMP JUMPDEST SWAP1 POP SWAP2 SWAP1 POP JUMP JUMPDEST PUSH32 0x496E76616C69642066696C652068617368000000000000000000000000000000 PUSH0 DUP3 ADD MSTORE POP JUMP JUMPDEST PUSH0 PUSH2 0x139B PUSH1 0x11 DUP4 PUSH2 0x11B2 JUMP JUMPDEST SWAP2 POP PUSH2 0x13A6 DUP3 PUSH2 0x1367 JUMP JUMPDEST PUSH1 0x20 DUP3 ADD SWAP1 POP SWAP2 SWAP1 POP JUMP JUMPDEST PUSH0 PUSH1 0x20 DUP3 ADD SWAP1 POP DUP2 DUP2 SUB PUSH0 DUP4 ADD MSTORE PUSH2 0x13C8 DUP2 PUSH2 0x138F JUMP JUMPDEST SWAP1 POP SWAP2 SWAP1 POP JUMP JUMPDEST PUSH32 0x496E76616C69642066696C652074797065000000000000000000000000000000 PUSH0 DUP3 ADD MSTORE POP JUMP JUMPDEST PUSH0 PUSH2 0x1403 PUSH1 0x11 DUP4 PUSH2 0x11B2 JUMP JUMPDEST SWAP2 POP PUSH2 0x140E DUP3 PUSH2 0x13CF JUMP JUMPDEST PUSH1 0x20 DUP3 ADD SWAP1 POP SWAP2 SWAP1 POP JUMP JUMPDEST PUSH0 PUSH1 0x20 DUP3 ADD SWAP1 POP DUP2 DUP2 SUB PUSH0 DUP4 ADD MSTORE PUSH2 0x1430 DUP2 PUSH2 0x13F7 JUMP JUMPDEST SWAP1 POP SWAP2 SWAP1 POP JUMP JUMPDEST PUSH32 0x5265636F726420616C7265616479206578697374730000000000000000000000 PUSH0 DUP3 ADD MSTORE POP JUMP JUMPDEST PUSH0 PUSH2 0x146B PUSH1 0x15 DUP4 PUSH2 0x11B2 JUMP JUMPDEST SWAP2 POP PUSH2 0x1476 DUP3 PUSH2 0x1437 JUMP JUMPDEST PUSH1 0x20 DUP3 ADD SWAP1 POP SWAP2 SWAP1 POP JUMP JUMPDEST PUSH0 PUSH1 0x20 DUP3 ADD SWAP1 POP DUP2 DUP2 SUB PUSH0 DUP4 ADD MSTORE PUSH2 0x1498 DUP2 PUSH2 0x145F JUMP JUMPDEST SWAP1 POP SWAP2 SWAP1 POP JUMP JUMPDEST PUSH0 DUP2 SWAP1 POP DUP2 PUSH0 MSTORE PUSH1 0x20 PUSH0 KECCAK256 SWAP1 POP SWAP2 SWAP1 POP JUMP JUMPDEST PUSH0 PUSH1 0x20 PUSH1 0x1F DUP4 ADD DIV SWAP1 POP SWAP2 SWAP1 POP JUMP JUMPDEST PUSH0 DUP3 DUP3 SHL SWAP1 POP SWAP3 SWAP2 POP POP JUMP JUMPDEST PUSH0 PUSH1 0x8 DUP4 MUL PUSH2 0x14FB PUSH32 0xFFFFFFFFFFFFFFFFFFFFFFFFFFFFFFFFFFFFFFFFFFFFFFFFFFFFFFFFFFFFFFFF DUP3 PUSH2 0x14C0 JUMP JUMPDEST PUSH2 0x1505 DUP7 DUP4 PUSH2 0x14C0 JUMP JUMPDEST SWAP6 POP DUP1 NOT DUP5 AND SWAP4 POP DUP1 DUP7 AND DUP5 OR SWAP3 POP POP POP SWAP4 SWAP3 POP POP POP JUMP JUMPDEST PUSH0 PUSH2 0x1537 PUSH2 0x1532 PUSH2 0x152D DUP5 PUSH2 0xE13 JUMP JUMPDEST PUSH2 0xF28 JUMP JUMPDEST PUSH2 0xE13 JUMP JUMPDEST SWAP1 POP SWAP2 SWAP1 POP JUMP JUMPDEST PUSH0 DUP2 SWAP1 POP SWAP2 SWAP1 POP JUMP JUMPDEST PUSH2 0x1550 DUP4 PUSH2 0x151D JUMP JUMPDEST PUSH2 0x1564 PUSH2 0x155C DUP3 PUSH2 0x153E JUMP JUMPDEST DUP5 DUP5 SLOAD PUSH2 0x14CC JUMP JUMPDEST DUP3 SSTORE POP POP POP POP JUMP JUMPDEST PUSH0 PUSH0 SWAP1 POP SWAP1 JUMP JUMPDEST PUSH2 0x157B PUSH2 0x156C JUMP JUMPDEST PUSH2 0x1586 DUP2 DUP5 DUP5 PUSH2 0x1547 JUMP JUMPDEST POP POP POP JUMP JUMPDEST JUMPDEST DUP2 DUP2 LT ISZERO PUSH2 0x15A9 JUMPI PUSH2 0x159E PUSH0 DUP3 PUSH2 0x1573 JUMP JUMPDEST PUSH1 0x1 DUP2 ADD SWAP1 POP PUSH2 0x158C JUMP JUMPDEST POP POP JUMP JUMPDEST PUSH1 0x1F DUP3 GT ISZERO PUSH2 0x15EE JUMPI PUSH2 0x15BF DUP2 PUSH2 0x149F JUMP JUMPDEST PUSH2 0x15C8 DUP5 PUSH2 0x14B1 JUMP JUMPDEST DUP2 ADD PUSH1 0x20 DUP6 LT ISZERO PUSH2 0x15D7 JUMPI DUP2 SWAP1 POP JUMPDEST PUSH2 0x15EB PUSH2 0x15E3 DUP6 PUSH2 0x14B1 JUMP JUMPDEST DUP4 ADD DUP3 PUSH2 0x158B JUMP JUMPDEST POP POP JUMPDEST POP POP POP JUMP JUMPDEST PUSH0 DUP3 DUP3 SHR SWAP1 POP SWAP3 SWAP2 POP POP JUMP JUMPDEST PUSH0 PUSH2 0x160E PUSH0 NOT DUP5 PUSH1 0x8 MUL PUSH2 0x15F3 JUMP JUMPDEST NOT DUP1 DUP4 AND SWAP2 POP POP SWAP3 SWAP2 POP POP JUMP JUMPDEST PUSH0 PUSH2 0x1626 DUP4 DUP4 PUSH2 0x15FF JUMP JUMPDEST SWAP2 POP DUP3 PUSH1 0x2 MUL DUP3 OR SWAP1 POP SWAP3 SWAP2 POP POP JUMP JUMPDEST PUSH2 0x163F DUP3 PUSH2 0xD74 JUMP JUMPDEST PUSH8 0xFFFFFFFFFFFFFFFF DUP2 GT ISZERO PUSH2 0x1658 JUMPI PUSH2 0x1657 PUSH2 0xC09 JUMP JUMPDEST JUMPDEST PUSH2 0x1662 DUP3 SLOAD PUSH2 0x1182 JUMP JUMPDEST PUSH2 0x166D DUP3 DUP3 DUP6 PUSH2 0x15AD JUMP JUMPDEST PUSH0 PUSH1 0x20 SWAP1 POP PUSH1 0x1F DUP4 GT PUSH1 0x1 DUP2 EQ PUSH2 0x169E JUMPI PUSH0 DUP5 ISZERO PUSH2 0x168C JUMPI DUP3 DUP8 ADD MLOAD SWAP1 POP JUMPDEST PUSH2 0x1696 DUP6 DUP3 PUSH2 0x161B JUMP JUMPDEST DUP7 SSTORE POP PUSH2 0x16FD JUMP JUMPDEST PUSH1 0x1F NOT DUP5 AND PUSH2 0x16AC DUP7 PUSH2 0x149F JUMP JUMPDEST PUSH0 JUMPDEST DUP3 DUP2 LT ISZERO PUSH2 0x16D3 JUMPI DUP5 DUP10 ADD MLOAD DUP3 SSTORE PUSH1 0x1 DUP3 ADD SWAP2 POP PUSH1 0x20 DUP6 ADD SWAP5 POP PUSH1 0x20 DUP2 ADD SWAP1 POP PUSH2 0x16AE JUMP JUMPDEST DUP7 DUP4 LT ISZERO PUSH2 0x16F0 JUMPI DUP5 DUP10 ADD MLOAD PUSH2 0x16EC PUSH1 0x1F DUP10 AND DUP3 PUSH2 0x15FF JUMP JUMPDEST DUP4 SSTORE POP JUMPDEST PUSH1 0x1 PUSH1 0x2 DUP9 MUL ADD DUP9 SSTORE POP POP POP JUMPDEST POP POP POP POP POP POP JUMP JUMPDEST PUSH0 PUSH1 0x40 DUP3 ADD SWAP1 POP PUSH2 0x1718 PUSH0 DUP4 ADD DUP6 PUSH2 0x1262 JUMP JUMPDEST DUP2 DUP2 SUB PUSH1 0x20 DUP4 ADD MSTORE PUSH2 0x172A DUP2 DUP5 PUSH2 0x122A JUMP JUMPDEST SWAP1 POP SWAP4 SWAP3 POP POP POP JUMP JUMPDEST PUSH0 PUSH1 0x40 DUP3 ADD SWAP1 POP DUP2 DUP2 SUB PUSH0 DUP4 ADD MSTORE PUSH2 0x174B DUP2 DUP6 PUSH2 0x122A JUMP JUMPDEST SWAP1 POP DUP2 DUP2 SUB PUSH1 0x20 DUP4 ADD MSTORE PUSH2 0x175F DUP2 DUP5 PUSH2 0x122A JUMP JUMPDEST SWAP1 POP SWAP4 SWAP3 POP POP POP JUMP JUMPDEST PUSH32 0x5265636F7264206E6F7420666F756E6400000000000000000000000000000000 PUSH0 DUP3 ADD MSTORE POP JUMP JUMPDEST PUSH0 PUSH2 0x179C PUSH1 0x10 DUP4 PUSH2 0x11B2 JUMP JUMPDEST SWAP2 POP PUSH2 0x17A7 DUP3 PUSH2 0x1768 JUMP JUMPDEST PUSH1 0x20 DUP3 ADD SWAP1 POP SWAP2 SWAP1 POP JUMP JUMPDEST PUSH0 PUSH1 0x20 DUP3 ADD SWAP1 POP DUP2 DUP2 SUB PUSH0 DUP4 ADD MSTORE PUSH2 0x17C9 DUP2 PUSH2 0x1790 JUMP JUMPDEST SWAP1 POP SWAP2 SWAP1 POP JUMP INVALID LOG2 PUSH5 0x6970667358 0x22 SLT KECCAK256 EXTCODESIZE MUL SWAP15 0xD7 BLOCKHASH EXTCALL CALLDATASIZE 0xD7 0xEA 0x29 SELFDESTRUCT STATICCALL EOFCREATE 0x64 STATICCALL 0xE9 EXTCALL SWAP6 0xE8 0xF7 0xED PUSH15 0x9BCBD6F776B7DFD0F5F164736F6C63 NUMBER STOP ADDMOD 0x1E STOP CALLER "
				},
				"gasEstimates": {
					"creation": {
						"codeDepositCost": "1230000",
						"executionCost": "infinite",
						"totalCost": "infinite"
					},
					"external": {
						"accessControl()": "infinite",
						"getPatientFiles(address)": "infinite",
						"getRecordDetails(string)": "infinite",
						"patientRegistry()": "infinite",
						"uploadRecord(string,string)": "infinite",
						"viewRecord(string)": "infinite"
					}
				},
				"methodIdentifiers": {
					"accessControl()": "13007d55",
					"getPatientFiles(address)": "c1816dfb",
					"getRecordDetails(string)": "1a9e48f5",
					"patientRegistry()": "5250c6e2",
					"uploadRecord(string,string)": "1238d68d",
					"viewRecord(string)": "1172ac67"
				}
			},
			"storageLayout": {
				"storage": [
					{
						"astId": 141,
						"contract": "contracts/MedicalRecord.sol:MedicalRecord",
						"label": "accessControl",
						"offset": 0,
						"slot": "0",
						"type": "t_contract(AccessControl)134"
					},
					{
						"astId": 144,
						"contract": "contracts/MedicalRecord.sol:MedicalRecord",
						"label": "patientRegistry",
						"offset": 0,
						"slot": "1",
						"type": "t_contract(PatientRegistry)577"
					},
					{
						"astId": 158,
						"contract": "contracts/MedicalRecord.sol:MedicalRecord",
						"label": "records",
						"offset": 0,
						"slot": "2",
						"type": "t_mapping(t_string_memory_ptr,t_struct(Record)153_storage)"
					},
					{
						"astId": 163,
						"contract": "contracts/MedicalRecord.sol:MedicalRecord",
						"label": "patientFiles",
						"offset": 0,
						"slot": "3",
						"type": "t_mapping(t_address,t_array(t_string_storage)dyn_storage)"
					}
				],
				"types": {
					"t_address": {
						"encoding": "inplace",
						"label": "address",
						"numberOfBytes": "20"
					},
					"t_array(t_string_storage)dyn_storage": {
						"base": "t_string_storage",
						"encoding": "dynamic_array",
						"label": "string[]",
						"numberOfBytes": "32"
					},
					"t_contract(AccessControl)134": {
						"encoding": "inplace",
						"label": "contract AccessControl",
						"numberOfBytes": "20"
					},
					"t_contract(PatientRegistry)577": {
						"encoding": "inplace",
						"label": "contract PatientRegistry",
						"numberOfBytes": "20"
					},
					"t_mapping(t_address,t_array(t_string_storage)dyn_storage)": {
						"encoding": "mapping",
						"key": "t_address",
						"label": "mapping(address => string[])",
						"numberOfBytes": "32",
						"value": "t_array(t_string_storage)dyn_storage"
					},
					"t_mapping(t_string_memory_ptr,t_struct(Record)153_storage)": {
						"encoding": "mapping",
						"key": "t_string_memory_ptr",
						"label": "mapping(string => struct MedicalRecord.Record)",
						"numberOfBytes": "32",
						"value": "t_struct(Record)153_storage"
					},
					"t_string_memory_ptr": {
						"encoding": "bytes",
						"label": "string",
						"numberOfBytes": "32"
					},
					"t_string_storage": {
						"encoding": "bytes",
						"label": "string",
						"numberOfBytes": "32"
					},
					"t_struct(Record)153_storage": {
						"encoding": "inplace",
						"label": "struct MedicalRecord.Record",
						"members": [
							{
								"astId": 146,
								"contract": "contracts/MedicalRecord.sol:MedicalRecord",
								"label": "fileHash",
								"offset": 0,
								"slot": "0",
								"type": "t_string_storage"
							},
							{
								"astId": 148,
								"contract": "contracts/MedicalRecord.sol:MedicalRecord",
								"label": "fileType",
								"offset": 0,
								"slot": "1",
								"type": "t_string_storage"
							},
							{
								"astId": 150,
								"contract": "contracts/MedicalRecord.sol:MedicalRecord",
								"label": "owner",
								"offset": 0,
								"slot": "2",
								"type": "t_address"
							},
							{
								"astId": 152,
								"contract": "contracts/MedicalRecord.sol:MedicalRecord",
								"label": "uploadTime",
								"offset": 0,
								"slot": "3",
								"type": "t_uint256"
							}
						],
						"numberOfBytes": "128"
					},
					"t_uint256": {
						"encoding": "inplace",
						"label": "uint256",
						"numberOfBytes": "32"
					}
				}
			},
			"userdoc": {
				"kind": "user",
				"methods": {
					"getPatientFiles(address)": {
						"notice": "Get all file hashes for a given patient"
					},
					"getRecordDetails(string)": {
						"notice": "Get record details by file hash"
					},
					"uploadRecord(string,string)": {
						"notice": "Upload a new medical record (IPFS hash in string form)"
					},
					"viewRecord(string)": {
						"notice": "View record details if access is granted or caller is owner"
					}
				},
				"version": 1
			}
		}
	}
}