{
	"contracts/MedicalRecord.sol": {
		"MedicalRecord": {
			"abi": [
				{
					"inputs": [
						{
							"internalType": "address",
							"name": "_accessControl",
							"type": "address"
						},
						{
							"internalType": "address",
							"name": "_patientRegistry",
							"type": "address"
						}
					],
					"stateMutability": "nonpayable",
					"type": "constructor"
				},
				{
					"anonymous": false,
					"inputs": [
						{
							"indexed": true,
							"internalType": "address",
							"name": "patient",
							"type": "address"
						},
						{
							"indexed": false,
							"internalType": "string",
							"name": "fileHash",
							"type": "string"
						},
						{
							"indexed": false,
							"internalType": "string",
							"name": "fileType",
							"type": "string"
						}
					],
					"name": "RecordUploaded",
					"type": "event"
				},
				{
					"anonymous": false,
					"inputs": [
						{
							"indexed": true,
							"internalType": "address",
							"name": "viewer",
							"type": "address"
						},
						{
							"indexed": false,
							"internalType": "string",
							"name": "fileHash",
							"type": "string"
						},
						{
							"indexed": false,
							"internalType": "uint256",
							"name": "time",
							"type": "uint256"
						}
					],
					"name": "RecordViewed",
					"type": "event"
				},
				{
					"inputs": [],
					"name": "accessControl",
					"outputs": [
						{
							"internalType": "contract AccessControl",
							"name": "",
							"type": "address"
						}
					],
					"stateMutability": "view",
					"type": "function"
				},
				{
					"inputs": [
						{
							"internalType": "address",
							"name": "patient",
							"type": "address"
						}
					],
					"name": "getPatientFiles",
					"outputs": [
						{
							"internalType": "string[]",
							"name": "",
							"type": "string[]"
						}
					],
					"stateMutability": "view",
					"type": "function"
				},
				{
					"inputs": [
						{
							"internalType": "string",
							"name": "_fileHash",
							"type": "string"
						}
					],
					"name": "getRecordDetails",
					"outputs": [
						{
							"components": [
								{
									"internalType": "string",
									"name": "fileHash",
									"type": "string"
								},
								{
									"internalType": "string",
									"name": "fileType",
									"type": "string"
								},
								{
									"internalType": "address",
									"name": "owner",
									"type": "address"
								},
								{
									"internalType": "uint256",
									"name": "uploadTime",
									"type": "uint256"
								}
							],
							"internalType": "struct MedicalRecord.Record",
							"name": "",
							"type": "tuple"
						}
					],
					"stateMutability": "view",
					"type": "function"
				},
				{
					"inputs": [],
					"name": "patientRegistry",
					"outputs": [
						{
							"internalType": "contract PatientRegistry",
							"name": "",
							"type": "address"
						}
					],
					"stateMutability": "view",
					"type": "function"
				},
				{
					"inputs": [
						{
							"internalType": "string",
							"name": "_fileHash",
							"type": "string"
						},
						{
							"internalType": "string",
							"name": "_fileType",
							"type": "string"
						}
					],
					"name": "uploadRecord",
					"outputs": [],
					"stateMutability": "nonpayable",
					"type": "function"
				},
				{
					"inputs": [
						{
							"internalType": "string",
							"name": "_fileHash",
							"type": "string"
						}
					],
					"name": "viewRecord",
					"outputs": [
						{
							"components": [
								{
									"internalType": "string",
									"name": "fileHash",
									"type": "string"
								},
								{
									"internalType": "string",
									"name": "fileType",
									"type": "string"
								},
								{
									"internalType": "address",
									"name": "owner",
									"type": "address"
								},
								{
									"internalType": "uint256",
									"name": "uploadTime",
									"type": "uint256"
								}
							],
							"internalType": "struct MedicalRecord.Record",
							"name": "",
							"type": "tuple"
						}
					],
					"stateMutability": "view",
					"type": "function"
				}
			],
			"devdoc": {
				"kind": "dev",
				"methods": {
					"getPatientFiles(address)": {
						"params": {
							"patient": "- Patient wallet address"
						}
					},
					"uploadRecord(string,string)": {
						"params": {
							"_fileHash": "- IPFS hash (e.g., \"Qm...\")",
							"_fileType": "- Type of file (e.g., \"X-ray\", \"Prescription\")"
						}
					},
					"viewRecord(string)": {
						"params": {
							"_fileHash": "- IPFS file hash (string)"
						}
					}
				},
				"version": 1
			},
			"evm": {
				"assembly": "    /* \"contracts/MedicalRecord.sol\":127:3172  contract MedicalRecord {... */\n  mstore(0x40, 0x80)\n    /* \"contracts/MedicalRecord.sol\":940:1128  constructor(address _accessControl, address _patientRegistry) {... */\n  callvalue\n  dup1\n  iszero\n  tag_1\n  jumpi\n  0x00\n  dup1\n  revert\ntag_1:\n  pop\n  mload(0x40)\n  sub(codesize, bytecodeSize)\n  dup1\n  bytecodeSize\n  dup4\n  codecopy\n  dup2\n  dup2\n  add\n  0x40\n  mstore\n  dup2\n  add\n  swap1\n  tag_2\n  swap2\n  swap1\n  tag_3\n  jump\t// in\ntag_2:\n    /* \"contracts/MedicalRecord.sol\":1043:1057  _accessControl */\n  dup2\n    /* \"contracts/MedicalRecord.sol\":1013:1026  accessControl */\n  0x00\n  dup1\n    /* \"contracts/MedicalRecord.sol\":1013:1058  accessControl = AccessControl(_accessControl) */\n  0x0100\n  exp\n  dup2\n  sload\n  dup2\n  0xffffffffffffffffffffffffffffffffffffffff\n  mul\n  not\n  and\n  swap1\n  dup4\n  0xffffffffffffffffffffffffffffffffffffffff\n  and\n  mul\n  or\n  swap1\n  sstore\n  pop\n    /* \"contracts/MedicalRecord.sol\":1103:1119  _patientRegistry */\n  dup1\n    /* \"contracts/MedicalRecord.sol\":1069:1084  patientRegistry */\n  0x01\n  0x00\n    /* \"contracts/MedicalRecord.sol\":1069:1120  patientRegistry = PatientRegistry(_patientRegistry) */\n  0x0100\n  exp\n  dup2\n  sload\n  dup2\n  0xffffffffffffffffffffffffffffffffffffffff\n  mul\n  not\n  and\n  swap1\n  dup4\n  0xffffffffffffffffffffffffffffffffffffffff\n  and\n  mul\n  or\n  swap1\n  sstore\n  pop\n    /* \"contracts/MedicalRecord.sol\":940:1128  constructor(address _accessControl, address _patientRegistry) {... */\n  pop\n  pop\n    /* \"contracts/MedicalRecord.sol\":127:3172  contract MedicalRecord {... */\n  jump(tag_6)\n    /* \"#utility.yul\":88:205   */\ntag_8:\n    /* \"#utility.yul\":197:198   */\n  0x00\n    /* \"#utility.yul\":194:195   */\n  dup1\n    /* \"#utility.yul\":187:199   */\n  revert\n    /* \"#utility.yul\":334:460   */\ntag_10:\n    /* \"#utility.yul\":371:378   */\n  0x00\n    /* \"#utility.yul\":411:453   */\n  0xffffffffffffffffffffffffffffffffffffffff\n    /* \"#utility.yul\":404:409   */\n  dup3\n    /* \"#utility.yul\":400:454   */\n  and\n    /* \"#utility.yul\":389:454   */\n  swap1\n  pop\n    /* \"#utility.yul\":334:460   */\n  swap2\n  swap1\n  pop\n  jump\t// out\n    /* \"#utility.yul\":466:562   */\ntag_11:\n    /* \"#utility.yul\":503:510   */\n  0x00\n    /* \"#utility.yul\":532:556   */\n  tag_20\n    /* \"#utility.yul\":550:555   */\n  dup3\n    /* \"#utility.yul\":532:556   */\n  tag_10\n  jump\t// in\ntag_20:\n    /* \"#utility.yul\":521:556   */\n  swap1\n  pop\n    /* \"#utility.yul\":466:562   */\n  swap2\n  swap1\n  pop\n  jump\t// out\n    /* \"#utility.yul\":568:690   */\ntag_12:\n    /* \"#utility.yul\":641:665   */\n  tag_22\n    /* \"#utility.yul\":659:664   */\n  dup2\n    /* \"#utility.yul\":641:665   */\n  tag_11\n  jump\t// in\ntag_22:\n    /* \"#utility.yul\":634:639   */\n  dup2\n    /* \"#utility.yul\":631:666   */\n  eq\n    /* \"#utility.yul\":621:684   */\n  tag_23\n  jumpi\n    /* \"#utility.yul\":680:681   */\n  0x00\n    /* \"#utility.yul\":677:678   */\n  dup1\n    /* \"#utility.yul\":670:682   */\n  revert\n    /* \"#utility.yul\":621:684   */\ntag_23:\n    /* \"#utility.yul\":568:690   */\n  pop\n  jump\t// out\n    /* \"#utility.yul\":696:839   */\ntag_13:\n    /* \"#utility.yul\":753:758   */\n  0x00\n    /* \"#utility.yul\":784:790   */\n  dup2\n    /* \"#utility.yul\":778:791   */\n  mload\n    /* \"#utility.yul\":769:791   */\n  swap1\n  pop\n    /* \"#utility.yul\":800:833   */\n  tag_25\n    /* \"#utility.yul\":827:832   */\n  dup2\n    /* \"#utility.yul\":800:833   */\n  tag_12\n  jump\t// in\ntag_25:\n    /* \"#utility.yul\":696:839   */\n  swap3\n  swap2\n  pop\n  pop\n  jump\t// out\n    /* \"#utility.yul\":845:1352   */\ntag_3:\n    /* \"#utility.yul\":924:930   */\n  0x00\n    /* \"#utility.yul\":932:938   */\n  dup1\n    /* \"#utility.yul\":981:983   */\n  0x40\n    /* \"#utility.yul\":969:978   */\n  dup4\n    /* \"#utility.yul\":960:967   */\n  dup6\n    /* \"#utility.yul\":956:979   */\n  sub\n    /* \"#utility.yul\":952:984   */\n  slt\n    /* \"#utility.yul\":949:1068   */\n  iszero\n  tag_27\n  jumpi\n    /* \"#utility.yul\":987:1066   */\n  tag_28\n  tag_8\n  jump\t// in\ntag_28:\n    /* \"#utility.yul\":949:1068   */\ntag_27:\n    /* \"#utility.yul\":1107:1108   */\n  0x00\n    /* \"#utility.yul\":1132:1196   */\n  tag_29\n    /* \"#utility.yul\":1188:1195   */\n  dup6\n    /* \"#utility.yul\":1179:1185   */\n  dup3\n    /* \"#utility.yul\":1168:1177   */\n  dup7\n    /* \"#utility.yul\":1164:1186   */\n  add\n    /* \"#utility.yul\":1132:1196   */\n  tag_13\n  jump\t// in\ntag_29:\n    /* \"#utility.yul\":1122:1196   */\n  swap3\n  pop\n    /* \"#utility.yul\":1078:1206   */\n  pop\n    /* \"#utility.yul\":1245:1247   */\n  0x20\n    /* \"#utility.yul\":1271:1335   */\n  tag_30\n    /* \"#utility.yul\":1327:1334   */\n  dup6\n    /* \"#utility.yul\":1318:1324   */\n  dup3\n    /* \"#utility.yul\":1307:1316   */\n  dup7\n    /* \"#utility.yul\":1303:1325   */\n  add\n    /* \"#utility.yul\":1271:1335   */\n  tag_13\n  jump\t// in\ntag_30:\n    /* \"#utility.yul\":1261:1335   */\n  swap2\n  pop\n    /* \"#utility.yul\":1216:1345   */\n  pop\n    /* \"#utility.yul\":845:1352   */\n  swap3\n  pop\n  swap3\n  swap1\n  pop\n  jump\t// out\n    /* \"contracts/MedicalRecord.sol\":127:3172  contract MedicalRecord {... */\ntag_6:\n  dataSize(sub_0)\n  dup1\n  dataOffset(sub_0)\n  0x00\n  codecopy\n  0x00\n  return\nstop\n\nsub_0: assembly {\n        /* \"contracts/MedicalRecord.sol\":127:3172  contract MedicalRecord {... */\n      mstore(0x40, 0x80)\n      callvalue\n      dup1\n      iszero\n      tag_1\n      jumpi\n      0x00\n      dup1\n      revert\n    tag_1:\n      pop\n      jumpi(tag_2, lt(calldatasize, 0x04))\n      shr(0xe0, calldataload(0x00))\n      dup1\n      0x1172ac67\n      eq\n      tag_3\n      jumpi\n      dup1\n      0x1238d68d\n      eq\n      tag_4\n      jumpi\n      dup1\n      0x13007d55\n      eq\n      tag_5\n      jumpi\n      dup1\n      0x1a9e48f5\n      eq\n      tag_6\n      jumpi\n      dup1\n      0x5250c6e2\n      eq\n      tag_7\n      jumpi\n      dup1\n      0xc1816dfb\n      eq\n      tag_8\n      jumpi\n    tag_2:\n      0x00\n      dup1\n      revert\n        /* \"contracts/MedicalRecord.sol\":2190:2625  function viewRecord(string memory _fileHash) external view returns (Record memory) {... */\n    tag_3:\n      tag_9\n      0x04\n      dup1\n      calldatasize\n      sub\n      dup2\n      add\n      swap1\n      tag_10\n      swap2\n      swap1\n      tag_11\n      jump\t// in\n    tag_10:\n      tag_12\n      jump\t// in\n    tag_9:\n      mload(0x40)\n      tag_13\n      swap2\n      swap1\n      tag_14\n      jump\t// in\n    tag_13:\n      mload(0x40)\n      dup1\n      swap2\n      sub\n      swap1\n      return\n        /* \"contracts/MedicalRecord.sol\":1350:2037  function uploadRecord(string memory _fileHash, string memory _fileType) external {... */\n    tag_4:\n      tag_15\n      0x04\n      dup1\n      calldatasize\n      sub\n      dup2\n      add\n      swap1\n      tag_16\n      swap2\n      swap1\n      tag_17\n      jump\t// in\n    tag_16:\n      tag_18\n      jump\t// in\n    tag_15:\n      stop\n        /* \"contracts/MedicalRecord.sol\":157:191  AccessControl public accessControl */\n    tag_5:\n      tag_19\n      tag_20\n      jump\t// in\n    tag_19:\n      mload(0x40)\n      tag_21\n      swap2\n      swap1\n      tag_22\n      jump\t// in\n    tag_21:\n      mload(0x40)\n      dup1\n      swap2\n      sub\n      swap1\n      return\n        /* \"contracts/MedicalRecord.sol\":2958:3169  function getRecordDetails(string memory _fileHash) external view returns (Record memory) {... */\n    tag_6:\n      tag_23\n      0x04\n      dup1\n      calldatasize\n      sub\n      dup2\n      add\n      swap1\n      tag_24\n      swap2\n      swap1\n      tag_11\n      jump\t// in\n    tag_24:\n      tag_25\n      jump\t// in\n    tag_23:\n      mload(0x40)\n      tag_26\n      swap2\n      swap1\n      tag_14\n      jump\t// in\n    tag_26:\n      mload(0x40)\n      dup1\n      swap2\n      sub\n      swap1\n      return\n        /* \"contracts/MedicalRecord.sol\":198:236  PatientRegistry public patientRegistry */\n    tag_7:\n      tag_27\n      tag_28\n      jump\t// in\n    tag_27:\n      mload(0x40)\n      tag_29\n      swap2\n      swap1\n      tag_30\n      jump\t// in\n    tag_29:\n      mload(0x40)\n      dup1\n      swap2\n      sub\n      swap1\n      return\n        /* \"contracts/MedicalRecord.sol\":2755:2884  function getPatientFiles(address patient) external view returns (string[] memory) {... */\n    tag_8:\n      tag_31\n      0x04\n      dup1\n      calldatasize\n      sub\n      dup2\n      add\n      swap1\n      tag_32\n      swap2\n      swap1\n      tag_33\n      jump\t// in\n    tag_32:\n      tag_34\n      jump\t// in\n    tag_31:\n      mload(0x40)\n      tag_35\n      swap2\n      swap1\n      tag_36\n      jump\t// in\n    tag_35:\n      mload(0x40)\n      dup1\n      swap2\n      sub\n      swap1\n      return\n        /* \"contracts/MedicalRecord.sol\":2190:2625  function viewRecord(string memory _fileHash) external view returns (Record memory) {... */\n    tag_12:\n        /* \"contracts/MedicalRecord.sol\":2258:2271  Record memory */\n      tag_37\n      tag_38\n      jump\t// in\n    tag_37:\n        /* \"contracts/MedicalRecord.sol\":2284:2304  Record memory record */\n      0x00\n        /* \"contracts/MedicalRecord.sol\":2307:2314  records */\n      0x02\n        /* \"contracts/MedicalRecord.sol\":2315:2324  _fileHash */\n      dup4\n        /* \"contracts/MedicalRecord.sol\":2307:2325  records[_fileHash] */\n      mload(0x40)\n      tag_40\n      swap2\n      swap1\n      tag_41\n      jump\t// in\n    tag_40:\n      swap1\n      dup2\n      mstore\n      0x20\n      add\n      mload(0x40)\n      dup1\n      swap2\n      sub\n      swap1\n      keccak256\n        /* \"contracts/MedicalRecord.sol\":2284:2325  Record memory record = records[_fileHash] */\n      mload(0x40)\n      dup1\n      0x80\n      add\n      0x40\n      mstore\n      swap1\n      dup2\n      0x00\n      dup3\n      add\n      dup1\n      sload\n      tag_42\n      swap1\n      tag_43\n      jump\t// in\n    tag_42:\n      dup1\n      0x1f\n      add\n      0x20\n      dup1\n      swap2\n      div\n      mul\n      0x20\n      add\n      mload(0x40)\n      swap1\n      dup2\n      add\n      0x40\n      mstore\n      dup1\n      swap3\n      swap2\n      swap1\n      dup2\n      dup2\n      mstore\n      0x20\n      add\n      dup3\n      dup1\n      sload\n      tag_44\n      swap1\n      tag_43\n      jump\t// in\n    tag_44:\n      dup1\n      iszero\n      tag_45\n      jumpi\n      dup1\n      0x1f\n      lt\n      tag_46\n      jumpi\n      0x0100\n      dup1\n      dup4\n      sload\n      div\n      mul\n      dup4\n      mstore\n      swap2\n      0x20\n      add\n      swap2\n      jump(tag_45)\n    tag_46:\n      dup3\n      add\n      swap2\n      swap1\n      0x00\n      mstore\n      keccak256(0x00, 0x20)\n      swap1\n    tag_47:\n      dup2\n      sload\n      dup2\n      mstore\n      swap1\n      0x01\n      add\n      swap1\n      0x20\n      add\n      dup1\n      dup4\n      gt\n      tag_47\n      jumpi\n      dup3\n      swap1\n      sub\n      0x1f\n      and\n      dup3\n      add\n      swap2\n    tag_45:\n      pop\n      pop\n      pop\n      pop\n      pop\n      dup2\n      mstore\n      0x20\n      add\n      0x01\n      dup3\n      add\n      dup1\n      sload\n      tag_48\n      swap1\n      tag_43\n      jump\t// in\n    tag_48:\n      dup1\n      0x1f\n      add\n      0x20\n      dup1\n      swap2\n      div\n      mul\n      0x20\n      add\n      mload(0x40)\n      swap1\n      dup2\n      add\n      0x40\n      mstore\n      dup1\n      swap3\n      swap2\n      swap1\n      dup2\n      dup2\n      mstore\n      0x20\n      add\n      dup3\n      dup1\n      sload\n      tag_49\n      swap1\n      tag_43\n      jump\t// in\n    tag_49:\n      dup1\n      iszero\n      tag_50\n      jumpi\n      dup1\n      0x1f\n      lt\n      tag_51\n      jumpi\n      0x0100\n      dup1\n      dup4\n      sload\n      div\n      mul\n      dup4\n      mstore\n      swap2\n      0x20\n      add\n      swap2\n      jump(tag_50)\n    tag_51:\n      dup3\n      add\n      swap2\n      swap1\n      0x00\n      mstore\n      keccak256(0x00, 0x20)\n      swap1\n    tag_52:\n      dup2\n      sload\n      dup2\n      mstore\n      swap1\n      0x01\n      add\n      swap1\n      0x20\n      add\n      dup1\n      dup4\n      gt\n      tag_52\n      jumpi\n      dup3\n      swap1\n      sub\n      0x1f\n      and\n      dup3\n      add\n      swap2\n    tag_50:\n      pop\n      pop\n      pop\n      pop\n      pop\n      dup2\n      mstore\n      0x20\n      add\n      0x02\n      dup3\n      add\n      0x00\n      swap1\n      sload\n      swap1\n      0x0100\n      exp\n      swap1\n      div\n      0xffffffffffffffffffffffffffffffffffffffff\n      and\n      0xffffffffffffffffffffffffffffffffffffffff\n      and\n      0xffffffffffffffffffffffffffffffffffffffff\n      and\n      dup2\n      mstore\n      0x20\n      add\n      0x03\n      dup3\n      add\n      sload\n      dup2\n      mstore\n      pop\n      pop\n      swap1\n      pop\n        /* \"contracts/MedicalRecord.sol\":2368:2369  0 */\n      0x00\n        /* \"contracts/MedicalRecord.sol\":2344:2370  record.owner != address(0) */\n      0xffffffffffffffffffffffffffffffffffffffff\n      and\n        /* \"contracts/MedicalRecord.sol\":2344:2350  record */\n      dup2\n        /* \"contracts/MedicalRecord.sol\":2344:2356  record.owner */\n      0x40\n      add\n      mload\n        /* \"contracts/MedicalRecord.sol\":2344:2370  record.owner != address(0) */\n      0xffffffffffffffffffffffffffffffffffffffff\n      and\n      sub\n        /* \"contracts/MedicalRecord.sol\":2336:2396  require(record.owner != address(0), \"Record does not exist\") */\n      tag_53\n      jumpi\n      mload(0x40)\n      0x08c379a000000000000000000000000000000000000000000000000000000000\n      dup2\n      mstore\n      0x04\n      add\n      tag_54\n      swap1\n      tag_55\n      jump\t// in\n    tag_54:\n      mload(0x40)\n      dup1\n      swap2\n      sub\n      swap1\n      revert\n    tag_53:\n        /* \"contracts/MedicalRecord.sol\":2409:2421  bool isOwner */\n      0x00\n        /* \"contracts/MedicalRecord.sol\":2440:2450  msg.sender */\n      caller\n        /* \"contracts/MedicalRecord.sol\":2424:2450  record.owner == msg.sender */\n      0xffffffffffffffffffffffffffffffffffffffff\n      and\n        /* \"contracts/MedicalRecord.sol\":2424:2430  record */\n      dup3\n        /* \"contracts/MedicalRecord.sol\":2424:2436  record.owner */\n      0x40\n      add\n      mload\n        /* \"contracts/MedicalRecord.sol\":2424:2450  record.owner == msg.sender */\n      0xffffffffffffffffffffffffffffffffffffffff\n      and\n      eq\n        /* \"contracts/MedicalRecord.sol\":2409:2450  bool isOwner = record.owner == msg.sender */\n      swap1\n      pop\n        /* \"contracts/MedicalRecord.sol\":2461:2479  bool hasPermission */\n      0x00\n        /* \"contracts/MedicalRecord.sol\":2482:2495  accessControl */\n      dup1\n      0x00\n      swap1\n      sload\n      swap1\n      0x0100\n      exp\n      swap1\n      div\n      0xffffffffffffffffffffffffffffffffffffffff\n      and\n        /* \"contracts/MedicalRecord.sol\":2482:2505  accessControl.hasAccess */\n      0xffffffffffffffffffffffffffffffffffffffff\n      and\n      0x13bd20e2\n        /* \"contracts/MedicalRecord.sol\":2506:2515  _fileHash */\n      dup7\n        /* \"contracts/MedicalRecord.sol\":2517:2527  msg.sender */\n      caller\n        /* \"contracts/MedicalRecord.sol\":2482:2528  accessControl.hasAccess(_fileHash, msg.sender) */\n      mload(0x40)\n      dup4\n      0xffffffff\n      and\n      0xe0\n      shl\n      dup2\n      mstore\n      0x04\n      add\n      tag_56\n      swap3\n      swap2\n      swap1\n      tag_57\n      jump\t// in\n    tag_56:\n      0x20\n      mload(0x40)\n      dup1\n      dup4\n      sub\n      dup2\n      dup7\n      gas\n      staticcall\n      iszero\n      dup1\n      iszero\n      tag_59\n      jumpi\n      returndatasize\n      0x00\n      dup1\n      returndatacopy\n      revert(0x00, returndatasize)\n    tag_59:\n      pop\n      pop\n      pop\n      pop\n      mload(0x40)\n      returndatasize\n      not(0x1f)\n      0x1f\n      dup3\n      add\n      and\n      dup3\n      add\n      dup1\n      0x40\n      mstore\n      pop\n      dup2\n      add\n      swap1\n      tag_60\n      swap2\n      swap1\n      tag_61\n      jump\t// in\n    tag_60:\n        /* \"contracts/MedicalRecord.sol\":2461:2528  bool hasPermission = accessControl.hasAccess(_fileHash, msg.sender) */\n      swap1\n      pop\n        /* \"contracts/MedicalRecord.sol\":2549:2556  isOwner */\n      dup2\n        /* \"contracts/MedicalRecord.sol\":2549:2573  isOwner || hasPermission */\n      dup1\n      tag_62\n      jumpi\n      pop\n        /* \"contracts/MedicalRecord.sol\":2560:2573  hasPermission */\n      dup1\n        /* \"contracts/MedicalRecord.sol\":2549:2573  isOwner || hasPermission */\n    tag_62:\n        /* \"contracts/MedicalRecord.sol\":2541:2591  require(isOwner || hasPermission, \"Access denied\") */\n      tag_63\n      jumpi\n      mload(0x40)\n      0x08c379a000000000000000000000000000000000000000000000000000000000\n      dup2\n      mstore\n      0x04\n      add\n      tag_64\n      swap1\n      tag_65\n      jump\t// in\n    tag_64:\n      mload(0x40)\n      dup1\n      swap2\n      sub\n      swap1\n      revert\n    tag_63:\n        /* \"contracts/MedicalRecord.sol\":2611:2617  record */\n      dup3\n        /* \"contracts/MedicalRecord.sol\":2604:2617  return record */\n      swap4\n      pop\n      pop\n      pop\n      pop\n        /* \"contracts/MedicalRecord.sol\":2190:2625  function viewRecord(string memory _fileHash) external view returns (Record memory) {... */\n      swap2\n      swap1\n      pop\n      jump\t// out\n        /* \"contracts/MedicalRecord.sol\":1350:2037  function uploadRecord(string memory _fileHash, string memory _fileType) external {... */\n    tag_18:\n        /* \"contracts/MedicalRecord.sol\":1476:1477  0 */\n      0x00\n        /* \"contracts/MedicalRecord.sol\":1456:1465  _fileHash */\n      dup3\n        /* \"contracts/MedicalRecord.sol\":1450:1473  bytes(_fileHash).length */\n      mload\n        /* \"contracts/MedicalRecord.sol\":1450:1477  bytes(_fileHash).length > 0 */\n      gt\n        /* \"contracts/MedicalRecord.sol\":1442:1499  require(bytes(_fileHash).length > 0, \"Invalid file hash\") */\n      tag_67\n      jumpi\n      mload(0x40)\n      0x08c379a000000000000000000000000000000000000000000000000000000000\n      dup2\n      mstore\n      0x04\n      add\n      tag_68\n      swap1\n      tag_69\n      jump\t// in\n    tag_68:\n      mload(0x40)\n      dup1\n      swap2\n      sub\n      swap1\n      revert\n    tag_67:\n        /* \"contracts/MedicalRecord.sol\":1544:1545  0 */\n      0x00\n        /* \"contracts/MedicalRecord.sol\":1524:1533  _fileType */\n      dup2\n        /* \"contracts/MedicalRecord.sol\":1518:1541  bytes(_fileType).length */\n      mload\n        /* \"contracts/MedicalRecord.sol\":1518:1545  bytes(_fileType).length > 0 */\n      gt\n        /* \"contracts/MedicalRecord.sol\":1510:1567  require(bytes(_fileType).length > 0, \"Invalid file type\") */\n      tag_70\n      jumpi\n      mload(0x40)\n      0x08c379a000000000000000000000000000000000000000000000000000000000\n      dup2\n      mstore\n      0x04\n      add\n      tag_71\n      swap1\n      tag_72\n      jump\t// in\n    tag_71:\n      mload(0x40)\n      dup1\n      swap2\n      sub\n      swap1\n      revert\n    tag_70:\n        /* \"contracts/MedicalRecord.sol\":1622:1623  0 */\n      0x00\n        /* \"contracts/MedicalRecord.sol\":1586:1624  records[_fileHash].owner == address(0) */\n      0xffffffffffffffffffffffffffffffffffffffff\n      and\n        /* \"contracts/MedicalRecord.sol\":1586:1593  records */\n      0x02\n        /* \"contracts/MedicalRecord.sol\":1594:1603  _fileHash */\n      dup4\n        /* \"contracts/MedicalRecord.sol\":1586:1604  records[_fileHash] */\n      mload(0x40)\n      tag_73\n      swap2\n      swap1\n      tag_41\n      jump\t// in\n    tag_73:\n      swap1\n      dup2\n      mstore\n      0x20\n      add\n      mload(0x40)\n      dup1\n      swap2\n      sub\n      swap1\n      keccak256\n        /* \"contracts/MedicalRecord.sol\":1586:1610  records[_fileHash].owner */\n      0x02\n      add\n      0x00\n      swap1\n      sload\n      swap1\n      0x0100\n      exp\n      swap1\n      div\n      0xffffffffffffffffffffffffffffffffffffffff\n      and\n        /* \"contracts/MedicalRecord.sol\":1586:1624  records[_fileHash].owner == address(0) */\n      0xffffffffffffffffffffffffffffffffffffffff\n      and\n      eq\n        /* \"contracts/MedicalRecord.sol\":1578:1650  require(records[_fileHash].owner == address(0), \"Record already exists\") */\n      tag_74\n      jumpi\n      mload(0x40)\n      0x08c379a000000000000000000000000000000000000000000000000000000000\n      dup2\n      mstore\n      0x04\n      add\n      tag_75\n      swap1\n      tag_76\n      jump\t// in\n    tag_75:\n      mload(0x40)\n      dup1\n      swap2\n      sub\n      swap1\n      revert\n    tag_74:\n        /* \"contracts/MedicalRecord.sol\":1684:1845  Record({... */\n      mload(0x40)\n      dup1\n      0x80\n      add\n      0x40\n      mstore\n      dup1\n        /* \"contracts/MedicalRecord.sol\":1716:1725  _fileHash */\n      dup4\n        /* \"contracts/MedicalRecord.sol\":1684:1845  Record({... */\n      dup2\n      mstore\n      0x20\n      add\n        /* \"contracts/MedicalRecord.sol\":1750:1759  _fileType */\n      dup3\n        /* \"contracts/MedicalRecord.sol\":1684:1845  Record({... */\n      dup2\n      mstore\n      0x20\n      add\n        /* \"contracts/MedicalRecord.sol\":1781:1791  msg.sender */\n      caller\n        /* \"contracts/MedicalRecord.sol\":1684:1845  Record({... */\n      0xffffffffffffffffffffffffffffffffffffffff\n      and\n      dup2\n      mstore\n      0x20\n      add\n        /* \"contracts/MedicalRecord.sol\":1818:1833  block.timestamp */\n      timestamp\n        /* \"contracts/MedicalRecord.sol\":1684:1845  Record({... */\n      dup2\n      mstore\n      pop\n        /* \"contracts/MedicalRecord.sol\":1663:1670  records */\n      0x02\n        /* \"contracts/MedicalRecord.sol\":1671:1680  _fileHash */\n      dup4\n        /* \"contracts/MedicalRecord.sol\":1663:1681  records[_fileHash] */\n      mload(0x40)\n      tag_77\n      swap2\n      swap1\n      tag_41\n      jump\t// in\n    tag_77:\n      swap1\n      dup2\n      mstore\n      0x20\n      add\n      mload(0x40)\n      dup1\n      swap2\n      sub\n      swap1\n      keccak256\n        /* \"contracts/MedicalRecord.sol\":1663:1845  records[_fileHash] = Record({... */\n      0x00\n      dup3\n      add\n      mload\n      dup2\n      0x00\n      add\n      swap1\n      dup2\n      tag_78\n      swap2\n      swap1\n      tag_79\n      jump\t// in\n    tag_78:\n      pop\n      0x20\n      dup3\n      add\n      mload\n      dup2\n      0x01\n      add\n      swap1\n      dup2\n      tag_80\n      swap2\n      swap1\n      tag_79\n      jump\t// in\n    tag_80:\n      pop\n      0x40\n      dup3\n      add\n      mload\n      dup2\n      0x02\n      add\n      exp(0x0100, 0x00)\n      dup2\n      sload\n      dup2\n      0xffffffffffffffffffffffffffffffffffffffff\n      mul\n      not\n      and\n      swap1\n      dup4\n      0xffffffffffffffffffffffffffffffffffffffff\n      and\n      mul\n      or\n      swap1\n      sstore\n      pop\n      0x60\n      dup3\n      add\n      mload\n      dup2\n      0x03\n      add\n      sstore\n      swap1\n      pop\n      pop\n        /* \"contracts/MedicalRecord.sol\":1858:1870  patientFiles */\n      0x03\n        /* \"contracts/MedicalRecord.sol\":1858:1882  patientFiles[msg.sender] */\n      0x00\n        /* \"contracts/MedicalRecord.sol\":1871:1881  msg.sender */\n      caller\n        /* \"contracts/MedicalRecord.sol\":1858:1882  patientFiles[msg.sender] */\n      0xffffffffffffffffffffffffffffffffffffffff\n      and\n      0xffffffffffffffffffffffffffffffffffffffff\n      and\n      dup2\n      mstore\n      0x20\n      add\n      swap1\n      dup2\n      mstore\n      0x20\n      add\n      0x00\n      keccak256\n        /* \"contracts/MedicalRecord.sol\":1888:1897  _fileHash */\n      dup3\n        /* \"contracts/MedicalRecord.sol\":1858:1898  patientFiles[msg.sender].push(_fileHash) */\n      swap1\n      dup1\n      0x01\n      dup2\n      sload\n      add\n      dup1\n      dup3\n      sstore\n      dup1\n      swap2\n      pop\n      pop\n      0x01\n      swap1\n      sub\n      swap1\n      0x00\n      mstore\n      keccak256(0x00, 0x20)\n      add\n      0x00\n      swap1\n      swap2\n      swap1\n      swap2\n      swap1\n      swap2\n      pop\n      swap1\n      dup2\n      tag_82\n      swap2\n      swap1\n      tag_79\n      jump\t// in\n    tag_82:\n      pop\n        /* \"contracts/MedicalRecord.sol\":1909:1924  patientRegistry */\n      0x01\n      0x00\n      swap1\n      sload\n      swap1\n      0x0100\n      exp\n      swap1\n      div\n      0xffffffffffffffffffffffffffffffffffffffff\n      and\n        /* \"contracts/MedicalRecord.sol\":1909:1941  patientRegistry.addFileToPatient */\n      0xffffffffffffffffffffffffffffffffffffffff\n      and\n      0xedefcf88\n        /* \"contracts/MedicalRecord.sol\":1942:1952  msg.sender */\n      caller\n        /* \"contracts/MedicalRecord.sol\":1953:1962  _fileHash */\n      dup5\n        /* \"contracts/MedicalRecord.sol\":1909:1963  patientRegistry.addFileToPatient(msg.sender,_fileHash) */\n      mload(0x40)\n      dup4\n      0xffffffff\n      and\n      0xe0\n      shl\n      dup2\n      mstore\n      0x04\n      add\n      tag_83\n      swap3\n      swap2\n      swap1\n      tag_84\n      jump\t// in\n    tag_83:\n      0x00\n      mload(0x40)\n      dup1\n      dup4\n      sub\n      dup2\n      0x00\n      dup8\n      dup1\n      extcodesize\n      iszero\n      dup1\n      iszero\n      tag_85\n      jumpi\n      0x00\n      dup1\n      revert\n    tag_85:\n      pop\n      gas\n      call\n      iszero\n      dup1\n      iszero\n      tag_87\n      jumpi\n      returndatasize\n      0x00\n      dup1\n      returndatacopy\n      revert(0x00, returndatasize)\n    tag_87:\n      pop\n      pop\n      pop\n      pop\n        /* \"contracts/MedicalRecord.sol\":1996:2006  msg.sender */\n      caller\n        /* \"contracts/MedicalRecord.sol\":1981:2029  RecordUploaded(msg.sender, _fileHash, _fileType) */\n      0xffffffffffffffffffffffffffffffffffffffff\n      and\n      0xb723d07463f1068cac6f7fd185f491afa8cc9d5bf4866dfa8f064f64e528bc28\n        /* \"contracts/MedicalRecord.sol\":2008:2017  _fileHash */\n      dup4\n        /* \"contracts/MedicalRecord.sol\":2019:2028  _fileType */\n      dup4\n        /* \"contracts/MedicalRecord.sol\":1981:2029  RecordUploaded(msg.sender, _fileHash, _fileType) */\n      mload(0x40)\n      tag_88\n      swap3\n      swap2\n      swap1\n      tag_89\n      jump\t// in\n    tag_88:\n      mload(0x40)\n      dup1\n      swap2\n      sub\n      swap1\n      log2\n        /* \"contracts/MedicalRecord.sol\":1350:2037  function uploadRecord(string memory _fileHash, string memory _fileType) external {... */\n      pop\n      pop\n      jump\t// out\n        /* \"contracts/MedicalRecord.sol\":157:191  AccessControl public accessControl */\n    tag_20:\n      0x00\n      dup1\n      sload\n      swap1\n      0x0100\n      exp\n      swap1\n      div\n      0xffffffffffffffffffffffffffffffffffffffff\n      and\n      dup2\n      jump\t// out\n        /* \"contracts/MedicalRecord.sol\":2958:3169  function getRecordDetails(string memory _fileHash) external view returns (Record memory) {... */\n    tag_25:\n        /* \"contracts/MedicalRecord.sol\":3032:3045  Record memory */\n      tag_90\n      tag_38\n      jump\t// in\n    tag_90:\n        /* \"contracts/MedicalRecord.sol\":3102:3103  0 */\n      0x00\n        /* \"contracts/MedicalRecord.sol\":3066:3104  records[_fileHash].owner != address(0) */\n      0xffffffffffffffffffffffffffffffffffffffff\n      and\n        /* \"contracts/MedicalRecord.sol\":3066:3073  records */\n      0x02\n        /* \"contracts/MedicalRecord.sol\":3074:3083  _fileHash */\n      dup4\n        /* \"contracts/MedicalRecord.sol\":3066:3084  records[_fileHash] */\n      mload(0x40)\n      tag_92\n      swap2\n      swap1\n      tag_41\n      jump\t// in\n    tag_92:\n      swap1\n      dup2\n      mstore\n      0x20\n      add\n      mload(0x40)\n      dup1\n      swap2\n      sub\n      swap1\n      keccak256\n        /* \"contracts/MedicalRecord.sol\":3066:3090  records[_fileHash].owner */\n      0x02\n      add\n      0x00\n      swap1\n      sload\n      swap1\n      0x0100\n      exp\n      swap1\n      div\n      0xffffffffffffffffffffffffffffffffffffffff\n      and\n        /* \"contracts/MedicalRecord.sol\":3066:3104  records[_fileHash].owner != address(0) */\n      0xffffffffffffffffffffffffffffffffffffffff\n      and\n      sub\n        /* \"contracts/MedicalRecord.sol\":3058:3125  require(records[_fileHash].owner != address(0), \"Record not found\") */\n      tag_93\n      jumpi\n      mload(0x40)\n      0x08c379a000000000000000000000000000000000000000000000000000000000\n      dup2\n      mstore\n      0x04\n      add\n      tag_94\n      swap1\n      tag_95\n      jump\t// in\n    tag_94:\n      mload(0x40)\n      dup1\n      swap2\n      sub\n      swap1\n      revert\n    tag_93:\n        /* \"contracts/MedicalRecord.sol\":3143:3150  records */\n      0x02\n        /* \"contracts/MedicalRecord.sol\":3151:3160  _fileHash */\n      dup3\n        /* \"contracts/MedicalRecord.sol\":3143:3161  records[_fileHash] */\n      mload(0x40)\n      tag_96\n      swap2\n      swap1\n      tag_41\n      jump\t// in\n    tag_96:\n      swap1\n      dup2\n      mstore\n      0x20\n      add\n      mload(0x40)\n      dup1\n      swap2\n      sub\n      swap1\n      keccak256\n        /* \"contracts/MedicalRecord.sol\":3136:3161  return records[_fileHash] */\n      mload(0x40)\n      dup1\n      0x80\n      add\n      0x40\n      mstore\n      swap1\n      dup2\n      0x00\n      dup3\n      add\n      dup1\n      sload\n      tag_97\n      swap1\n      tag_43\n      jump\t// in\n    tag_97:\n      dup1\n      0x1f\n      add\n      0x20\n      dup1\n      swap2\n      div\n      mul\n      0x20\n      add\n      mload(0x40)\n      swap1\n      dup2\n      add\n      0x40\n      mstore\n      dup1\n      swap3\n      swap2\n      swap1\n      dup2\n      dup2\n      mstore\n      0x20\n      add\n      dup3\n      dup1\n      sload\n      tag_98\n      swap1\n      tag_43\n      jump\t// in\n    tag_98:\n      dup1\n      iszero\n      tag_99\n      jumpi\n      dup1\n      0x1f\n      lt\n      tag_100\n      jumpi\n      0x0100\n      dup1\n      dup4\n      sload\n      div\n      mul\n      dup4\n      mstore\n      swap2\n      0x20\n      add\n      swap2\n      jump(tag_99)\n    tag_100:\n      dup3\n      add\n      swap2\n      swap1\n      0x00\n      mstore\n      keccak256(0x00, 0x20)\n      swap1\n    tag_101:\n      dup2\n      sload\n      dup2\n      mstore\n      swap1\n      0x01\n      add\n      swap1\n      0x20\n      add\n      dup1\n      dup4\n      gt\n      tag_101\n      jumpi\n      dup3\n      swap1\n      sub\n      0x1f\n      and\n      dup3\n      add\n      swap2\n    tag_99:\n      pop\n      pop\n      pop\n      pop\n      pop\n      dup2\n      mstore\n      0x20\n      add\n      0x01\n      dup3\n      add\n      dup1\n      sload\n      tag_102\n      swap1\n      tag_43\n      jump\t// in\n    tag_102:\n      dup1\n      0x1f\n      add\n      0x20\n      dup1\n      swap2\n      div\n      mul\n      0x20\n      add\n      mload(0x40)\n      swap1\n      dup2\n      add\n      0x40\n      mstore\n      dup1\n      swap3\n      swap2\n      swap1\n      dup2\n      dup2\n      mstore\n      0x20\n      add\n      dup3\n      dup1\n      sload\n      tag_103\n      swap1\n      tag_43\n      jump\t// in\n    tag_103:\n      dup1\n      iszero\n      tag_104\n      jumpi\n      dup1\n      0x1f\n      lt\n      tag_105\n      jumpi\n      0x0100\n      dup1\n      dup4\n      sload\n      div\n      mul\n      dup4\n      mstore\n      swap2\n      0x20\n      add\n      swap2\n      jump(tag_104)\n    tag_105:\n      dup3\n      add\n      swap2\n      swap1\n      0x00\n      mstore\n      keccak256(0x00, 0x20)\n      swap1\n    tag_106:\n      dup2\n      sload\n      dup2\n      mstore\n      swap1\n      0x01\n      add\n      swap1\n      0x20\n      add\n      dup1\n      dup4\n      gt\n      tag_106\n      jumpi\n      dup3\n      swap1\n      sub\n      0x1f\n      and\n      dup3\n      add\n      swap2\n    tag_104:\n      pop\n      pop\n      pop\n      pop\n      pop\n      dup2\n      mstore\n      0x20\n      add\n      0x02\n      dup3\n      add\n      0x00\n      swap1\n      sload\n      swap1\n      0x0100\n      exp\n      swap1\n      div\n      0xffffffffffffffffffffffffffffffffffffffff\n      and\n      0xffffffffffffffffffffffffffffffffffffffff\n      and\n      0xffffffffffffffffffffffffffffffffffffffff\n      and\n      dup2\n      mstore\n      0x20\n      add\n      0x03\n      dup3\n      add\n      sload\n      dup2\n      mstore\n      pop\n      pop\n      swap1\n      pop\n        /* \"contracts/MedicalRecord.sol\":2958:3169  function getRecordDetails(string memory _fileHash) external view returns (Record memory) {... */\n      swap2\n      swap1\n      pop\n      jump\t// out\n        /* \"contracts/MedicalRecord.sol\":198:236  PatientRegistry public patientRegistry */\n    tag_28:\n      0x01\n      0x00\n      swap1\n      sload\n      swap1\n      0x0100\n      exp\n      swap1\n      div\n      0xffffffffffffffffffffffffffffffffffffffff\n      and\n      dup2\n      jump\t// out\n        /* \"contracts/MedicalRecord.sol\":2755:2884  function getPatientFiles(address patient) external view returns (string[] memory) {... */\n    tag_34:\n        /* \"contracts/MedicalRecord.sol\":2820:2835  string[] memory */\n      0x60\n        /* \"contracts/MedicalRecord.sol\":2855:2867  patientFiles */\n      0x03\n        /* \"contracts/MedicalRecord.sol\":2855:2876  patientFiles[patient] */\n      0x00\n        /* \"contracts/MedicalRecord.sol\":2868:2875  patient */\n      dup4\n        /* \"contracts/MedicalRecord.sol\":2855:2876  patientFiles[patient] */\n      0xffffffffffffffffffffffffffffffffffffffff\n      and\n      0xffffffffffffffffffffffffffffffffffffffff\n      and\n      dup2\n      mstore\n      0x20\n      add\n      swap1\n      dup2\n      mstore\n      0x20\n      add\n      0x00\n      keccak256\n        /* \"contracts/MedicalRecord.sol\":2848:2876  return patientFiles[patient] */\n      dup1\n      sload\n      dup1\n      0x20\n      mul\n      0x20\n      add\n      mload(0x40)\n      swap1\n      dup2\n      add\n      0x40\n      mstore\n      dup1\n      swap3\n      swap2\n      swap1\n      dup2\n      dup2\n      mstore\n      0x20\n      add\n      0x00\n      swap1\n    tag_108:\n      dup3\n      dup3\n      lt\n      iszero\n      tag_109\n      jumpi\n      dup4\n      dup3\n      swap1\n      0x00\n      mstore\n      keccak256(0x00, 0x20)\n      add\n      dup1\n      sload\n      tag_111\n      swap1\n      tag_43\n      jump\t// in\n    tag_111:\n      dup1\n      0x1f\n      add\n      0x20\n      dup1\n      swap2\n      div\n      mul\n      0x20\n      add\n      mload(0x40)\n      swap1\n      dup2\n      add\n      0x40\n      mstore\n      dup1\n      swap3\n      swap2\n      swap1\n      dup2\n      dup2\n      mstore\n      0x20\n      add\n      dup3\n      dup1\n      sload\n      tag_112\n      swap1\n      tag_43\n      jump\t// in\n    tag_112:\n      dup1\n      iszero\n      tag_113\n      jumpi\n      dup1\n      0x1f\n      lt\n      tag_114\n      jumpi\n      0x0100\n      dup1\n      dup4\n      sload\n      div\n      mul\n      dup4\n      mstore\n      swap2\n      0x20\n      add\n      swap2\n      jump(tag_113)\n    tag_114:\n      dup3\n      add\n      swap2\n      swap1\n      0x00\n      mstore\n      keccak256(0x00, 0x20)\n      swap1\n    tag_115:\n      dup2\n      sload\n      dup2\n      mstore\n      swap1\n      0x01\n      add\n      swap1\n      0x20\n      add\n      dup1\n      dup4\n      gt\n      tag_115\n      jumpi\n      dup3\n      swap1\n      sub\n      0x1f\n      and\n      dup3\n      add\n      swap2\n    tag_113:\n      pop\n      pop\n      pop\n      pop\n      pop\n      dup2\n      mstore\n      0x20\n      add\n      swap1\n      0x01\n      add\n      swap1\n      jump(tag_108)\n    tag_109:\n      pop\n      pop\n      pop\n      pop\n      swap1\n      pop\n        /* \"contracts/MedicalRecord.sol\":2755:2884  function getPatientFiles(address patient) external view returns (string[] memory) {... */\n      swap2\n      swap1\n      pop\n      jump\t// out\n    tag_38:\n      mload(0x40)\n      dup1\n      0x80\n      add\n      0x40\n      mstore\n      dup1\n      0x60\n      dup2\n      mstore\n      0x20\n      add\n      0x60\n      dup2\n      mstore\n      0x20\n      add\n      and(0xffffffffffffffffffffffffffffffffffffffff, 0x00)\n      dup2\n      mstore\n      0x20\n      add\n      0x00\n      dup2\n      mstore\n      pop\n      swap1\n      jump\t// out\n        /* \"#utility.yul\":7:82   */\n    tag_116:\n        /* \"#utility.yul\":40:46   */\n      0x00\n        /* \"#utility.yul\":73:75   */\n      0x40\n        /* \"#utility.yul\":67:76   */\n      mload\n        /* \"#utility.yul\":57:76   */\n      swap1\n      pop\n        /* \"#utility.yul\":7:82   */\n      swap1\n      jump\t// out\n        /* \"#utility.yul\":88:205   */\n    tag_117:\n        /* \"#utility.yul\":197:198   */\n      0x00\n        /* \"#utility.yul\":194:195   */\n      dup1\n        /* \"#utility.yul\":187:199   */\n      revert\n        /* \"#utility.yul\":211:328   */\n    tag_118:\n        /* \"#utility.yul\":320:321   */\n      0x00\n        /* \"#utility.yul\":317:318   */\n      dup1\n        /* \"#utility.yul\":310:322   */\n      revert\n        /* \"#utility.yul\":334:451   */\n    tag_119:\n        /* \"#utility.yul\":443:444   */\n      0x00\n        /* \"#utility.yul\":440:441   */\n      dup1\n        /* \"#utility.yul\":433:445   */\n      revert\n        /* \"#utility.yul\":457:574   */\n    tag_120:\n        /* \"#utility.yul\":566:567   */\n      0x00\n        /* \"#utility.yul\":563:564   */\n      dup1\n        /* \"#utility.yul\":556:568   */\n      revert\n        /* \"#utility.yul\":580:682   */\n    tag_121:\n        /* \"#utility.yul\":621:627   */\n      0x00\n        /* \"#utility.yul\":672:674   */\n      0x1f\n        /* \"#utility.yul\":668:675   */\n      not\n        /* \"#utility.yul\":663:665   */\n      0x1f\n        /* \"#utility.yul\":656:661   */\n      dup4\n        /* \"#utility.yul\":652:666   */\n      add\n        /* \"#utility.yul\":648:676   */\n      and\n        /* \"#utility.yul\":638:676   */\n      swap1\n      pop\n        /* \"#utility.yul\":580:682   */\n      swap2\n      swap1\n      pop\n      jump\t// out\n        /* \"#utility.yul\":688:868   */\n    tag_122:\n        /* \"#utility.yul\":736:813   */\n      0x4e487b7100000000000000000000000000000000000000000000000000000000\n        /* \"#utility.yul\":733:734   */\n      0x00\n        /* \"#utility.yul\":726:814   */\n      mstore\n        /* \"#utility.yul\":833:837   */\n      0x41\n        /* \"#utility.yul\":830:831   */\n      0x04\n        /* \"#utility.yul\":823:838   */\n      mstore\n        /* \"#utility.yul\":857:861   */\n      0x24\n        /* \"#utility.yul\":854:855   */\n      0x00\n        /* \"#utility.yul\":847:862   */\n      revert\n        /* \"#utility.yul\":874:1155   */\n    tag_123:\n        /* \"#utility.yul\":957:984   */\n      tag_198\n        /* \"#utility.yul\":979:983   */\n      dup3\n        /* \"#utility.yul\":957:984   */\n      tag_121\n      jump\t// in\n    tag_198:\n        /* \"#utility.yul\":949:955   */\n      dup2\n        /* \"#utility.yul\":945:985   */\n      add\n        /* \"#utility.yul\":1087:1093   */\n      dup2\n        /* \"#utility.yul\":1075:1085   */\n      dup2\n        /* \"#utility.yul\":1072:1094   */\n      lt\n        /* \"#utility.yul\":1051:1069   */\n      0xffffffffffffffff\n        /* \"#utility.yul\":1039:1049   */\n      dup3\n        /* \"#utility.yul\":1036:1070   */\n      gt\n        /* \"#utility.yul\":1033:1095   */\n      or\n        /* \"#utility.yul\":1030:1118   */\n      iszero\n      tag_199\n      jumpi\n        /* \"#utility.yul\":1098:1116   */\n      tag_200\n      tag_122\n      jump\t// in\n    tag_200:\n        /* \"#utility.yul\":1030:1118   */\n    tag_199:\n        /* \"#utility.yul\":1138:1148   */\n      dup1\n        /* \"#utility.yul\":1134:1136   */\n      0x40\n        /* \"#utility.yul\":1127:1149   */\n      mstore\n        /* \"#utility.yul\":917:1155   */\n      pop\n        /* \"#utility.yul\":874:1155   */\n      pop\n      pop\n      jump\t// out\n        /* \"#utility.yul\":1161:1290   */\n    tag_124:\n        /* \"#utility.yul\":1195:1201   */\n      0x00\n        /* \"#utility.yul\":1222:1242   */\n      tag_202\n      tag_116\n      jump\t// in\n    tag_202:\n        /* \"#utility.yul\":1212:1242   */\n      swap1\n      pop\n        /* \"#utility.yul\":1251:1284   */\n      tag_203\n        /* \"#utility.yul\":1279:1283   */\n      dup3\n        /* \"#utility.yul\":1271:1277   */\n      dup3\n        /* \"#utility.yul\":1251:1284   */\n      tag_123\n      jump\t// in\n    tag_203:\n        /* \"#utility.yul\":1161:1290   */\n      swap2\n      swap1\n      pop\n      jump\t// out\n        /* \"#utility.yul\":1296:1604   */\n    tag_125:\n        /* \"#utility.yul\":1358:1362   */\n      0x00\n        /* \"#utility.yul\":1448:1466   */\n      0xffffffffffffffff\n        /* \"#utility.yul\":1440:1446   */\n      dup3\n        /* \"#utility.yul\":1437:1467   */\n      gt\n        /* \"#utility.yul\":1434:1490   */\n      iszero\n      tag_205\n      jumpi\n        /* \"#utility.yul\":1470:1488   */\n      tag_206\n      tag_122\n      jump\t// in\n    tag_206:\n        /* \"#utility.yul\":1434:1490   */\n    tag_205:\n        /* \"#utility.yul\":1508:1537   */\n      tag_207\n        /* \"#utility.yul\":1530:1536   */\n      dup3\n        /* \"#utility.yul\":1508:1537   */\n      tag_121\n      jump\t// in\n    tag_207:\n        /* \"#utility.yul\":1500:1537   */\n      swap1\n      pop\n        /* \"#utility.yul\":1592:1596   */\n      0x20\n        /* \"#utility.yul\":1586:1590   */\n      dup2\n        /* \"#utility.yul\":1582:1597   */\n      add\n        /* \"#utility.yul\":1574:1597   */\n      swap1\n      pop\n        /* \"#utility.yul\":1296:1604   */\n      swap2\n      swap1\n      pop\n      jump\t// out\n        /* \"#utility.yul\":1610:1758   */\n    tag_126:\n        /* \"#utility.yul\":1708:1714   */\n      dup3\n        /* \"#utility.yul\":1703:1706   */\n      dup2\n        /* \"#utility.yul\":1698:1701   */\n      dup4\n        /* \"#utility.yul\":1685:1715   */\n      calldatacopy\n        /* \"#utility.yul\":1749:1750   */\n      0x00\n        /* \"#utility.yul\":1740:1746   */\n      dup4\n        /* \"#utility.yul\":1735:1738   */\n      dup4\n        /* \"#utility.yul\":1731:1747   */\n      add\n        /* \"#utility.yul\":1724:1751   */\n      mstore\n        /* \"#utility.yul\":1610:1758   */\n      pop\n      pop\n      pop\n      jump\t// out\n        /* \"#utility.yul\":1764:2189   */\n    tag_127:\n        /* \"#utility.yul\":1842:1847   */\n      0x00\n        /* \"#utility.yul\":1867:1933   */\n      tag_210\n        /* \"#utility.yul\":1883:1932   */\n      tag_211\n        /* \"#utility.yul\":1925:1931   */\n      dup5\n        /* \"#utility.yul\":1883:1932   */\n      tag_125\n      jump\t// in\n    tag_211:\n        /* \"#utility.yul\":1867:1933   */\n      tag_124\n      jump\t// in\n    tag_210:\n        /* \"#utility.yul\":1858:1933   */\n      swap1\n      pop\n        /* \"#utility.yul\":1956:1962   */\n      dup3\n        /* \"#utility.yul\":1949:1954   */\n      dup2\n        /* \"#utility.yul\":1942:1963   */\n      mstore\n        /* \"#utility.yul\":1994:1998   */\n      0x20\n        /* \"#utility.yul\":1987:1992   */\n      dup2\n        /* \"#utility.yul\":1983:1999   */\n      add\n        /* \"#utility.yul\":2032:2035   */\n      dup5\n        /* \"#utility.yul\":2023:2029   */\n      dup5\n        /* \"#utility.yul\":2018:2021   */\n      dup5\n        /* \"#utility.yul\":2014:2030   */\n      add\n        /* \"#utility.yul\":2011:2036   */\n      gt\n        /* \"#utility.yul\":2008:2120   */\n      iszero\n      tag_212\n      jumpi\n        /* \"#utility.yul\":2039:2118   */\n      tag_213\n      tag_120\n      jump\t// in\n    tag_213:\n        /* \"#utility.yul\":2008:2120   */\n    tag_212:\n        /* \"#utility.yul\":2129:2183   */\n      tag_214\n        /* \"#utility.yul\":2176:2182   */\n      dup5\n        /* \"#utility.yul\":2171:2174   */\n      dup3\n        /* \"#utility.yul\":2166:2169   */\n      dup6\n        /* \"#utility.yul\":2129:2183   */\n      tag_126\n      jump\t// in\n    tag_214:\n        /* \"#utility.yul\":1848:2189   */\n      pop\n        /* \"#utility.yul\":1764:2189   */\n      swap4\n      swap3\n      pop\n      pop\n      pop\n      jump\t// out\n        /* \"#utility.yul\":2209:2549   */\n    tag_128:\n        /* \"#utility.yul\":2265:2270   */\n      0x00\n        /* \"#utility.yul\":2314:2317   */\n      dup3\n        /* \"#utility.yul\":2307:2311   */\n      0x1f\n        /* \"#utility.yul\":2299:2305   */\n      dup4\n        /* \"#utility.yul\":2295:2312   */\n      add\n        /* \"#utility.yul\":2291:2318   */\n      slt\n        /* \"#utility.yul\":2281:2403   */\n      tag_216\n      jumpi\n        /* \"#utility.yul\":2322:2401   */\n      tag_217\n      tag_119\n      jump\t// in\n    tag_217:\n        /* \"#utility.yul\":2281:2403   */\n    tag_216:\n        /* \"#utility.yul\":2439:2445   */\n      dup2\n        /* \"#utility.yul\":2426:2446   */\n      calldataload\n        /* \"#utility.yul\":2464:2543   */\n      tag_218\n        /* \"#utility.yul\":2539:2542   */\n      dup5\n        /* \"#utility.yul\":2531:2537   */\n      dup3\n        /* \"#utility.yul\":2524:2528   */\n      0x20\n        /* \"#utility.yul\":2516:2522   */\n      dup7\n        /* \"#utility.yul\":2512:2529   */\n      add\n        /* \"#utility.yul\":2464:2543   */\n      tag_127\n      jump\t// in\n    tag_218:\n        /* \"#utility.yul\":2455:2543   */\n      swap2\n      pop\n        /* \"#utility.yul\":2271:2549   */\n      pop\n        /* \"#utility.yul\":2209:2549   */\n      swap3\n      swap2\n      pop\n      pop\n      jump\t// out\n        /* \"#utility.yul\":2555:3064   */\n    tag_11:\n        /* \"#utility.yul\":2624:2630   */\n      0x00\n        /* \"#utility.yul\":2673:2675   */\n      0x20\n        /* \"#utility.yul\":2661:2670   */\n      dup3\n        /* \"#utility.yul\":2652:2659   */\n      dup5\n        /* \"#utility.yul\":2648:2671   */\n      sub\n        /* \"#utility.yul\":2644:2676   */\n      slt\n        /* \"#utility.yul\":2641:2760   */\n      iszero\n      tag_220\n      jumpi\n        /* \"#utility.yul\":2679:2758   */\n      tag_221\n      tag_117\n      jump\t// in\n    tag_221:\n        /* \"#utility.yul\":2641:2760   */\n    tag_220:\n        /* \"#utility.yul\":2827:2828   */\n      0x00\n        /* \"#utility.yul\":2816:2825   */\n      dup3\n        /* \"#utility.yul\":2812:2829   */\n      add\n        /* \"#utility.yul\":2799:2830   */\n      calldataload\n        /* \"#utility.yul\":2857:2875   */\n      0xffffffffffffffff\n        /* \"#utility.yul\":2849:2855   */\n      dup2\n        /* \"#utility.yul\":2846:2876   */\n      gt\n        /* \"#utility.yul\":2843:2960   */\n      iszero\n      tag_222\n      jumpi\n        /* \"#utility.yul\":2879:2958   */\n      tag_223\n      tag_118\n      jump\t// in\n    tag_223:\n        /* \"#utility.yul\":2843:2960   */\n    tag_222:\n        /* \"#utility.yul\":2984:3047   */\n      tag_224\n        /* \"#utility.yul\":3039:3046   */\n      dup5\n        /* \"#utility.yul\":3030:3036   */\n      dup3\n        /* \"#utility.yul\":3019:3028   */\n      dup6\n        /* \"#utility.yul\":3015:3037   */\n      add\n        /* \"#utility.yul\":2984:3047   */\n      tag_128\n      jump\t// in\n    tag_224:\n        /* \"#utility.yul\":2974:3047   */\n      swap2\n      pop\n        /* \"#utility.yul\":2770:3057   */\n      pop\n        /* \"#utility.yul\":2555:3064   */\n      swap3\n      swap2\n      pop\n      pop\n      jump\t// out\n        /* \"#utility.yul\":3070:3169   */\n    tag_129:\n        /* \"#utility.yul\":3122:3128   */\n      0x00\n        /* \"#utility.yul\":3156:3161   */\n      dup2\n        /* \"#utility.yul\":3150:3162   */\n      mload\n        /* \"#utility.yul\":3140:3162   */\n      swap1\n      pop\n        /* \"#utility.yul\":3070:3169   */\n      swap2\n      swap1\n      pop\n      jump\t// out\n        /* \"#utility.yul\":3175:3334   */\n    tag_130:\n        /* \"#utility.yul\":3249:3260   */\n      0x00\n        /* \"#utility.yul\":3283:3289   */\n      dup3\n        /* \"#utility.yul\":3278:3281   */\n      dup3\n        /* \"#utility.yul\":3271:3290   */\n      mstore\n        /* \"#utility.yul\":3323:3327   */\n      0x20\n        /* \"#utility.yul\":3318:3321   */\n      dup3\n        /* \"#utility.yul\":3314:3328   */\n      add\n        /* \"#utility.yul\":3299:3328   */\n      swap1\n      pop\n        /* \"#utility.yul\":3175:3334   */\n      swap3\n      swap2\n      pop\n      pop\n      jump\t// out\n        /* \"#utility.yul\":3340:3588   */\n    tag_131:\n        /* \"#utility.yul\":3422:3423   */\n      0x00\n        /* \"#utility.yul\":3432:3545   */\n    tag_228:\n        /* \"#utility.yul\":3446:3452   */\n      dup4\n        /* \"#utility.yul\":3443:3444   */\n      dup2\n        /* \"#utility.yul\":3440:3453   */\n      lt\n        /* \"#utility.yul\":3432:3545   */\n      iszero\n      tag_230\n      jumpi\n        /* \"#utility.yul\":3531:3532   */\n      dup1\n        /* \"#utility.yul\":3526:3529   */\n      dup3\n        /* \"#utility.yul\":3522:3533   */\n      add\n        /* \"#utility.yul\":3516:3534   */\n      mload\n        /* \"#utility.yul\":3512:3513   */\n      dup2\n        /* \"#utility.yul\":3507:3510   */\n      dup5\n        /* \"#utility.yul\":3503:3514   */\n      add\n        /* \"#utility.yul\":3496:3535   */\n      mstore\n        /* \"#utility.yul\":3468:3470   */\n      0x20\n        /* \"#utility.yul\":3465:3466   */\n      dup2\n        /* \"#utility.yul\":3461:3471   */\n      add\n        /* \"#utility.yul\":3456:3471   */\n      swap1\n      pop\n        /* \"#utility.yul\":3432:3545   */\n      jump(tag_228)\n    tag_230:\n        /* \"#utility.yul\":3579:3580   */\n      0x00\n        /* \"#utility.yul\":3570:3576   */\n      dup5\n        /* \"#utility.yul\":3565:3568   */\n      dup5\n        /* \"#utility.yul\":3561:3577   */\n      add\n        /* \"#utility.yul\":3554:3581   */\n      mstore\n        /* \"#utility.yul\":3402:3588   */\n      pop\n        /* \"#utility.yul\":3340:3588   */\n      pop\n      pop\n      pop\n      jump\t// out\n        /* \"#utility.yul\":3594:3951   */\n    tag_132:\n        /* \"#utility.yul\":3672:3675   */\n      0x00\n        /* \"#utility.yul\":3700:3739   */\n      tag_232\n        /* \"#utility.yul\":3733:3738   */\n      dup3\n        /* \"#utility.yul\":3700:3739   */\n      tag_129\n      jump\t// in\n    tag_232:\n        /* \"#utility.yul\":3755:3816   */\n      tag_233\n        /* \"#utility.yul\":3809:3815   */\n      dup2\n        /* \"#utility.yul\":3804:3807   */\n      dup6\n        /* \"#utility.yul\":3755:3816   */\n      tag_130\n      jump\t// in\n    tag_233:\n        /* \"#utility.yul\":3748:3816   */\n      swap4\n      pop\n        /* \"#utility.yul\":3825:3890   */\n      tag_234\n        /* \"#utility.yul\":3883:3889   */\n      dup2\n        /* \"#utility.yul\":3878:3881   */\n      dup6\n        /* \"#utility.yul\":3871:3875   */\n      0x20\n        /* \"#utility.yul\":3864:3869   */\n      dup7\n        /* \"#utility.yul\":3860:3876   */\n      add\n        /* \"#utility.yul\":3825:3890   */\n      tag_131\n      jump\t// in\n    tag_234:\n        /* \"#utility.yul\":3915:3944   */\n      tag_235\n        /* \"#utility.yul\":3937:3943   */\n      dup2\n        /* \"#utility.yul\":3915:3944   */\n      tag_121\n      jump\t// in\n    tag_235:\n        /* \"#utility.yul\":3910:3913   */\n      dup5\n        /* \"#utility.yul\":3906:3945   */\n      add\n        /* \"#utility.yul\":3899:3945   */\n      swap2\n      pop\n        /* \"#utility.yul\":3676:3951   */\n      pop\n        /* \"#utility.yul\":3594:3951   */\n      swap3\n      swap2\n      pop\n      pop\n      jump\t// out\n        /* \"#utility.yul\":3957:4083   */\n    tag_133:\n        /* \"#utility.yul\":3994:4001   */\n      0x00\n        /* \"#utility.yul\":4034:4076   */\n      0xffffffffffffffffffffffffffffffffffffffff\n        /* \"#utility.yul\":4027:4032   */\n      dup3\n        /* \"#utility.yul\":4023:4077   */\n      and\n        /* \"#utility.yul\":4012:4077   */\n      swap1\n      pop\n        /* \"#utility.yul\":3957:4083   */\n      swap2\n      swap1\n      pop\n      jump\t// out\n        /* \"#utility.yul\":4089:4185   */\n    tag_134:\n        /* \"#utility.yul\":4126:4133   */\n      0x00\n        /* \"#utility.yul\":4155:4179   */\n      tag_238\n        /* \"#utility.yul\":4173:4178   */\n      dup3\n        /* \"#utility.yul\":4155:4179   */\n      tag_133\n      jump\t// in\n    tag_238:\n        /* \"#utility.yul\":4144:4179   */\n      swap1\n      pop\n        /* \"#utility.yul\":4089:4185   */\n      swap2\n      swap1\n      pop\n      jump\t// out\n        /* \"#utility.yul\":4191:4299   */\n    tag_135:\n        /* \"#utility.yul\":4268:4292   */\n      tag_240\n        /* \"#utility.yul\":4286:4291   */\n      dup2\n        /* \"#utility.yul\":4268:4292   */\n      tag_134\n      jump\t// in\n    tag_240:\n        /* \"#utility.yul\":4263:4266   */\n      dup3\n        /* \"#utility.yul\":4256:4293   */\n      mstore\n        /* \"#utility.yul\":4191:4299   */\n      pop\n      pop\n      jump\t// out\n        /* \"#utility.yul\":4305:4382   */\n    tag_136:\n        /* \"#utility.yul\":4342:4349   */\n      0x00\n        /* \"#utility.yul\":4371:4376   */\n      dup2\n        /* \"#utility.yul\":4360:4376   */\n      swap1\n      pop\n        /* \"#utility.yul\":4305:4382   */\n      swap2\n      swap1\n      pop\n      jump\t// out\n        /* \"#utility.yul\":4388:4496   */\n    tag_137:\n        /* \"#utility.yul\":4465:4489   */\n      tag_243\n        /* \"#utility.yul\":4483:4488   */\n      dup2\n        /* \"#utility.yul\":4465:4489   */\n      tag_136\n      jump\t// in\n    tag_243:\n        /* \"#utility.yul\":4460:4463   */\n      dup3\n        /* \"#utility.yul\":4453:4490   */\n      mstore\n        /* \"#utility.yul\":4388:4496   */\n      pop\n      pop\n      jump\t// out\n        /* \"#utility.yul\":4568:5604   */\n    tag_138:\n        /* \"#utility.yul\":4683:4686   */\n      0x00\n        /* \"#utility.yul\":4719:4723   */\n      0x80\n        /* \"#utility.yul\":4714:4717   */\n      dup4\n        /* \"#utility.yul\":4710:4724   */\n      add\n        /* \"#utility.yul\":4810:4814   */\n      0x00\n        /* \"#utility.yul\":4803:4808   */\n      dup4\n        /* \"#utility.yul\":4799:4815   */\n      add\n        /* \"#utility.yul\":4793:4816   */\n      mload\n        /* \"#utility.yul\":4863:4866   */\n      dup5\n        /* \"#utility.yul\":4857:4861   */\n      dup3\n        /* \"#utility.yul\":4853:4867   */\n      sub\n        /* \"#utility.yul\":4846:4850   */\n      0x00\n        /* \"#utility.yul\":4841:4844   */\n      dup7\n        /* \"#utility.yul\":4837:4851   */\n      add\n        /* \"#utility.yul\":4830:4868   */\n      mstore\n        /* \"#utility.yul\":4889:4962   */\n      tag_245\n        /* \"#utility.yul\":4957:4961   */\n      dup3\n        /* \"#utility.yul\":4943:4955   */\n      dup3\n        /* \"#utility.yul\":4889:4962   */\n      tag_132\n      jump\t// in\n    tag_245:\n        /* \"#utility.yul\":4881:4962   */\n      swap2\n      pop\n        /* \"#utility.yul\":4734:4973   */\n      pop\n        /* \"#utility.yul\":5059:5063   */\n      0x20\n        /* \"#utility.yul\":5052:5057   */\n      dup4\n        /* \"#utility.yul\":5048:5064   */\n      add\n        /* \"#utility.yul\":5042:5065   */\n      mload\n        /* \"#utility.yul\":5112:5115   */\n      dup5\n        /* \"#utility.yul\":5106:5110   */\n      dup3\n        /* \"#utility.yul\":5102:5116   */\n      sub\n        /* \"#utility.yul\":5095:5099   */\n      0x20\n        /* \"#utility.yul\":5090:5093   */\n      dup7\n        /* \"#utility.yul\":5086:5100   */\n      add\n        /* \"#utility.yul\":5079:5117   */\n      mstore\n        /* \"#utility.yul\":5138:5211   */\n      tag_246\n        /* \"#utility.yul\":5206:5210   */\n      dup3\n        /* \"#utility.yul\":5192:5204   */\n      dup3\n        /* \"#utility.yul\":5138:5211   */\n      tag_132\n      jump\t// in\n    tag_246:\n        /* \"#utility.yul\":5130:5211   */\n      swap2\n      pop\n        /* \"#utility.yul\":4983:5222   */\n      pop\n        /* \"#utility.yul\":5305:5309   */\n      0x40\n        /* \"#utility.yul\":5298:5303   */\n      dup4\n        /* \"#utility.yul\":5294:5310   */\n      add\n        /* \"#utility.yul\":5288:5311   */\n      mload\n        /* \"#utility.yul\":5324:5387   */\n      tag_247\n        /* \"#utility.yul\":5381:5385   */\n      0x40\n        /* \"#utility.yul\":5376:5379   */\n      dup7\n        /* \"#utility.yul\":5372:5386   */\n      add\n        /* \"#utility.yul\":5358:5370   */\n      dup3\n        /* \"#utility.yul\":5324:5387   */\n      tag_135\n      jump\t// in\n    tag_247:\n        /* \"#utility.yul\":5232:5397   */\n      pop\n        /* \"#utility.yul\":5485:5489   */\n      0x60\n        /* \"#utility.yul\":5478:5483   */\n      dup4\n        /* \"#utility.yul\":5474:5490   */\n      add\n        /* \"#utility.yul\":5468:5491   */\n      mload\n        /* \"#utility.yul\":5504:5567   */\n      tag_248\n        /* \"#utility.yul\":5561:5565   */\n      0x60\n        /* \"#utility.yul\":5556:5559   */\n      dup7\n        /* \"#utility.yul\":5552:5566   */\n      add\n        /* \"#utility.yul\":5538:5550   */\n      dup3\n        /* \"#utility.yul\":5504:5567   */\n      tag_137\n      jump\t// in\n    tag_248:\n        /* \"#utility.yul\":5407:5577   */\n      pop\n        /* \"#utility.yul\":5594:5598   */\n      dup1\n        /* \"#utility.yul\":5587:5598   */\n      swap2\n      pop\n        /* \"#utility.yul\":4688:5604   */\n      pop\n        /* \"#utility.yul\":4568:5604   */\n      swap3\n      swap2\n      pop\n      pop\n      jump\t// out\n        /* \"#utility.yul\":5610:5975   */\n    tag_14:\n        /* \"#utility.yul\":5749:5753   */\n      0x00\n        /* \"#utility.yul\":5787:5789   */\n      0x20\n        /* \"#utility.yul\":5776:5785   */\n      dup3\n        /* \"#utility.yul\":5772:5790   */\n      add\n        /* \"#utility.yul\":5764:5790   */\n      swap1\n      pop\n        /* \"#utility.yul\":5836:5845   */\n      dup2\n        /* \"#utility.yul\":5830:5834   */\n      dup2\n        /* \"#utility.yul\":5826:5846   */\n      sub\n        /* \"#utility.yul\":5822:5823   */\n      0x00\n        /* \"#utility.yul\":5811:5820   */\n      dup4\n        /* \"#utility.yul\":5807:5824   */\n      add\n        /* \"#utility.yul\":5800:5847   */\n      mstore\n        /* \"#utility.yul\":5864:5968   */\n      tag_250\n        /* \"#utility.yul\":5963:5967   */\n      dup2\n        /* \"#utility.yul\":5954:5960   */\n      dup5\n        /* \"#utility.yul\":5864:5968   */\n      tag_138\n      jump\t// in\n    tag_250:\n        /* \"#utility.yul\":5856:5968   */\n      swap1\n      pop\n        /* \"#utility.yul\":5610:5975   */\n      swap3\n      swap2\n      pop\n      pop\n      jump\t// out\n        /* \"#utility.yul\":5981:6815   */\n    tag_17:\n        /* \"#utility.yul\":6069:6075   */\n      0x00\n        /* \"#utility.yul\":6077:6083   */\n      dup1\n        /* \"#utility.yul\":6126:6128   */\n      0x40\n        /* \"#utility.yul\":6114:6123   */\n      dup4\n        /* \"#utility.yul\":6105:6112   */\n      dup6\n        /* \"#utility.yul\":6101:6124   */\n      sub\n        /* \"#utility.yul\":6097:6129   */\n      slt\n        /* \"#utility.yul\":6094:6213   */\n      iszero\n      tag_252\n      jumpi\n        /* \"#utility.yul\":6132:6211   */\n      tag_253\n      tag_117\n      jump\t// in\n    tag_253:\n        /* \"#utility.yul\":6094:6213   */\n    tag_252:\n        /* \"#utility.yul\":6280:6281   */\n      0x00\n        /* \"#utility.yul\":6269:6278   */\n      dup4\n        /* \"#utility.yul\":6265:6282   */\n      add\n        /* \"#utility.yul\":6252:6283   */\n      calldataload\n        /* \"#utility.yul\":6310:6328   */\n      0xffffffffffffffff\n        /* \"#utility.yul\":6302:6308   */\n      dup2\n        /* \"#utility.yul\":6299:6329   */\n      gt\n        /* \"#utility.yul\":6296:6413   */\n      iszero\n      tag_254\n      jumpi\n        /* \"#utility.yul\":6332:6411   */\n      tag_255\n      tag_118\n      jump\t// in\n    tag_255:\n        /* \"#utility.yul\":6296:6413   */\n    tag_254:\n        /* \"#utility.yul\":6437:6500   */\n      tag_256\n        /* \"#utility.yul\":6492:6499   */\n      dup6\n        /* \"#utility.yul\":6483:6489   */\n      dup3\n        /* \"#utility.yul\":6472:6481   */\n      dup7\n        /* \"#utility.yul\":6468:6490   */\n      add\n        /* \"#utility.yul\":6437:6500   */\n      tag_128\n      jump\t// in\n    tag_256:\n        /* \"#utility.yul\":6427:6500   */\n      swap3\n      pop\n        /* \"#utility.yul\":6223:6510   */\n      pop\n        /* \"#utility.yul\":6577:6579   */\n      0x20\n        /* \"#utility.yul\":6566:6575   */\n      dup4\n        /* \"#utility.yul\":6562:6580   */\n      add\n        /* \"#utility.yul\":6549:6581   */\n      calldataload\n        /* \"#utility.yul\":6608:6626   */\n      0xffffffffffffffff\n        /* \"#utility.yul\":6600:6606   */\n      dup2\n        /* \"#utility.yul\":6597:6627   */\n      gt\n        /* \"#utility.yul\":6594:6711   */\n      iszero\n      tag_257\n      jumpi\n        /* \"#utility.yul\":6630:6709   */\n      tag_258\n      tag_118\n      jump\t// in\n    tag_258:\n        /* \"#utility.yul\":6594:6711   */\n    tag_257:\n        /* \"#utility.yul\":6735:6798   */\n      tag_259\n        /* \"#utility.yul\":6790:6797   */\n      dup6\n        /* \"#utility.yul\":6781:6787   */\n      dup3\n        /* \"#utility.yul\":6770:6779   */\n      dup7\n        /* \"#utility.yul\":6766:6788   */\n      add\n        /* \"#utility.yul\":6735:6798   */\n      tag_128\n      jump\t// in\n    tag_259:\n        /* \"#utility.yul\":6725:6798   */\n      swap2\n      pop\n        /* \"#utility.yul\":6520:6808   */\n      pop\n        /* \"#utility.yul\":5981:6815   */\n      swap3\n      pop\n      swap3\n      swap1\n      pop\n      jump\t// out\n        /* \"#utility.yul\":6821:6881   */\n    tag_139:\n        /* \"#utility.yul\":6849:6852   */\n      0x00\n        /* \"#utility.yul\":6870:6875   */\n      dup2\n        /* \"#utility.yul\":6863:6875   */\n      swap1\n      pop\n        /* \"#utility.yul\":6821:6881   */\n      swap2\n      swap1\n      pop\n      jump\t// out\n        /* \"#utility.yul\":6887:7029   */\n    tag_140:\n        /* \"#utility.yul\":6937:6946   */\n      0x00\n        /* \"#utility.yul\":6970:7023   */\n      tag_262\n        /* \"#utility.yul\":6988:7022   */\n      tag_263\n        /* \"#utility.yul\":6997:7021   */\n      tag_264\n        /* \"#utility.yul\":7015:7020   */\n      dup5\n        /* \"#utility.yul\":6997:7021   */\n      tag_133\n      jump\t// in\n    tag_264:\n        /* \"#utility.yul\":6988:7022   */\n      tag_139\n      jump\t// in\n    tag_263:\n        /* \"#utility.yul\":6970:7023   */\n      tag_133\n      jump\t// in\n    tag_262:\n        /* \"#utility.yul\":6957:7023   */\n      swap1\n      pop\n        /* \"#utility.yul\":6887:7029   */\n      swap2\n      swap1\n      pop\n      jump\t// out\n        /* \"#utility.yul\":7035:7161   */\n    tag_141:\n        /* \"#utility.yul\":7085:7094   */\n      0x00\n        /* \"#utility.yul\":7118:7155   */\n      tag_266\n        /* \"#utility.yul\":7149:7154   */\n      dup3\n        /* \"#utility.yul\":7118:7155   */\n      tag_140\n      jump\t// in\n    tag_266:\n        /* \"#utility.yul\":7105:7155   */\n      swap1\n      pop\n        /* \"#utility.yul\":7035:7161   */\n      swap2\n      swap1\n      pop\n      jump\t// out\n        /* \"#utility.yul\":7167:7314   */\n    tag_142:\n        /* \"#utility.yul\":7238:7247   */\n      0x00\n        /* \"#utility.yul\":7271:7308   */\n      tag_268\n        /* \"#utility.yul\":7302:7307   */\n      dup3\n        /* \"#utility.yul\":7271:7308   */\n      tag_141\n      jump\t// in\n    tag_268:\n        /* \"#utility.yul\":7258:7308   */\n      swap1\n      pop\n        /* \"#utility.yul\":7167:7314   */\n      swap2\n      swap1\n      pop\n      jump\t// out\n        /* \"#utility.yul\":7320:7493   */\n    tag_143:\n        /* \"#utility.yul\":7428:7486   */\n      tag_270\n        /* \"#utility.yul\":7480:7485   */\n      dup2\n        /* \"#utility.yul\":7428:7486   */\n      tag_142\n      jump\t// in\n    tag_270:\n        /* \"#utility.yul\":7423:7426   */\n      dup3\n        /* \"#utility.yul\":7416:7487   */\n      mstore\n        /* \"#utility.yul\":7320:7493   */\n      pop\n      pop\n      jump\t// out\n        /* \"#utility.yul\":7499:7763   */\n    tag_22:\n        /* \"#utility.yul\":7613:7617   */\n      0x00\n        /* \"#utility.yul\":7651:7653   */\n      0x20\n        /* \"#utility.yul\":7640:7649   */\n      dup3\n        /* \"#utility.yul\":7636:7654   */\n      add\n        /* \"#utility.yul\":7628:7654   */\n      swap1\n      pop\n        /* \"#utility.yul\":7664:7756   */\n      tag_272\n        /* \"#utility.yul\":7753:7754   */\n      0x00\n        /* \"#utility.yul\":7742:7751   */\n      dup4\n        /* \"#utility.yul\":7738:7755   */\n      add\n        /* \"#utility.yul\":7729:7735   */\n      dup5\n        /* \"#utility.yul\":7664:7756   */\n      tag_143\n      jump\t// in\n    tag_272:\n        /* \"#utility.yul\":7499:7763   */\n      swap3\n      swap2\n      pop\n      pop\n      jump\t// out\n        /* \"#utility.yul\":7769:7918   */\n    tag_144:\n        /* \"#utility.yul\":7842:7851   */\n      0x00\n        /* \"#utility.yul\":7875:7912   */\n      tag_274\n        /* \"#utility.yul\":7906:7911   */\n      dup3\n        /* \"#utility.yul\":7875:7912   */\n      tag_141\n      jump\t// in\n    tag_274:\n        /* \"#utility.yul\":7862:7912   */\n      swap1\n      pop\n        /* \"#utility.yul\":7769:7918   */\n      swap2\n      swap1\n      pop\n      jump\t// out\n        /* \"#utility.yul\":7924:8101   */\n    tag_145:\n        /* \"#utility.yul\":8034:8094   */\n      tag_276\n        /* \"#utility.yul\":8088:8093   */\n      dup2\n        /* \"#utility.yul\":8034:8094   */\n      tag_144\n      jump\t// in\n    tag_276:\n        /* \"#utility.yul\":8029:8032   */\n      dup3\n        /* \"#utility.yul\":8022:8095   */\n      mstore\n        /* \"#utility.yul\":7924:8101   */\n      pop\n      pop\n      jump\t// out\n        /* \"#utility.yul\":8107:8375   */\n    tag_30:\n        /* \"#utility.yul\":8223:8227   */\n      0x00\n        /* \"#utility.yul\":8261:8263   */\n      0x20\n        /* \"#utility.yul\":8250:8259   */\n      dup3\n        /* \"#utility.yul\":8246:8264   */\n      add\n        /* \"#utility.yul\":8238:8264   */\n      swap1\n      pop\n        /* \"#utility.yul\":8274:8368   */\n      tag_278\n        /* \"#utility.yul\":8365:8366   */\n      0x00\n        /* \"#utility.yul\":8354:8363   */\n      dup4\n        /* \"#utility.yul\":8350:8367   */\n      add\n        /* \"#utility.yul\":8341:8347   */\n      dup5\n        /* \"#utility.yul\":8274:8368   */\n      tag_145\n      jump\t// in\n    tag_278:\n        /* \"#utility.yul\":8107:8375   */\n      swap3\n      swap2\n      pop\n      pop\n      jump\t// out\n        /* \"#utility.yul\":8381:8503   */\n    tag_146:\n        /* \"#utility.yul\":8454:8478   */\n      tag_280\n        /* \"#utility.yul\":8472:8477   */\n      dup2\n        /* \"#utility.yul\":8454:8478   */\n      tag_134\n      jump\t// in\n    tag_280:\n        /* \"#utility.yul\":8447:8452   */\n      dup2\n        /* \"#utility.yul\":8444:8479   */\n      eq\n        /* \"#utility.yul\":8434:8497   */\n      tag_281\n      jumpi\n        /* \"#utility.yul\":8493:8494   */\n      0x00\n        /* \"#utility.yul\":8490:8491   */\n      dup1\n        /* \"#utility.yul\":8483:8495   */\n      revert\n        /* \"#utility.yul\":8434:8497   */\n    tag_281:\n        /* \"#utility.yul\":8381:8503   */\n      pop\n      jump\t// out\n        /* \"#utility.yul\":8509:8648   */\n    tag_147:\n        /* \"#utility.yul\":8555:8560   */\n      0x00\n        /* \"#utility.yul\":8593:8599   */\n      dup2\n        /* \"#utility.yul\":8580:8600   */\n      calldataload\n        /* \"#utility.yul\":8571:8600   */\n      swap1\n      pop\n        /* \"#utility.yul\":8609:8642   */\n      tag_283\n        /* \"#utility.yul\":8636:8641   */\n      dup2\n        /* \"#utility.yul\":8609:8642   */\n      tag_146\n      jump\t// in\n    tag_283:\n        /* \"#utility.yul\":8509:8648   */\n      swap3\n      swap2\n      pop\n      pop\n      jump\t// out\n        /* \"#utility.yul\":8654:8983   */\n    tag_33:\n        /* \"#utility.yul\":8713:8719   */\n      0x00\n        /* \"#utility.yul\":8762:8764   */\n      0x20\n        /* \"#utility.yul\":8750:8759   */\n      dup3\n        /* \"#utility.yul\":8741:8748   */\n      dup5\n        /* \"#utility.yul\":8737:8760   */\n      sub\n        /* \"#utility.yul\":8733:8765   */\n      slt\n        /* \"#utility.yul\":8730:8849   */\n      iszero\n      tag_285\n      jumpi\n        /* \"#utility.yul\":8768:8847   */\n      tag_286\n      tag_117\n      jump\t// in\n    tag_286:\n        /* \"#utility.yul\":8730:8849   */\n    tag_285:\n        /* \"#utility.yul\":8888:8889   */\n      0x00\n        /* \"#utility.yul\":8913:8966   */\n      tag_287\n        /* \"#utility.yul\":8958:8965   */\n      dup5\n        /* \"#utility.yul\":8949:8955   */\n      dup3\n        /* \"#utility.yul\":8938:8947   */\n      dup6\n        /* \"#utility.yul\":8934:8956   */\n      add\n        /* \"#utility.yul\":8913:8966   */\n      tag_147\n      jump\t// in\n    tag_287:\n        /* \"#utility.yul\":8903:8966   */\n      swap2\n      pop\n        /* \"#utility.yul\":8859:8976   */\n      pop\n        /* \"#utility.yul\":8654:8983   */\n      swap3\n      swap2\n      pop\n      pop\n      jump\t// out\n        /* \"#utility.yul\":8989:9113   */\n    tag_148:\n        /* \"#utility.yul\":9066:9072   */\n      0x00\n        /* \"#utility.yul\":9100:9105   */\n      dup2\n        /* \"#utility.yul\":9094:9106   */\n      mload\n        /* \"#utility.yul\":9084:9106   */\n      swap1\n      pop\n        /* \"#utility.yul\":8989:9113   */\n      swap2\n      swap1\n      pop\n      jump\t// out\n        /* \"#utility.yul\":9119:9313   */\n    tag_149:\n        /* \"#utility.yul\":9228:9239   */\n      0x00\n        /* \"#utility.yul\":9262:9268   */\n      dup3\n        /* \"#utility.yul\":9257:9260   */\n      dup3\n        /* \"#utility.yul\":9250:9269   */\n      mstore\n        /* \"#utility.yul\":9302:9306   */\n      0x20\n        /* \"#utility.yul\":9297:9300   */\n      dup3\n        /* \"#utility.yul\":9293:9307   */\n      add\n        /* \"#utility.yul\":9278:9307   */\n      swap1\n      pop\n        /* \"#utility.yul\":9119:9313   */\n      swap3\n      swap2\n      pop\n      pop\n      jump\t// out\n        /* \"#utility.yul\":9319:9461   */\n    tag_150:\n        /* \"#utility.yul\":9396:9400   */\n      0x00\n        /* \"#utility.yul\":9419:9422   */\n      dup2\n        /* \"#utility.yul\":9411:9422   */\n      swap1\n      pop\n        /* \"#utility.yul\":9449:9453   */\n      0x20\n        /* \"#utility.yul\":9444:9447   */\n      dup3\n        /* \"#utility.yul\":9440:9454   */\n      add\n        /* \"#utility.yul\":9432:9454   */\n      swap1\n      pop\n        /* \"#utility.yul\":9319:9461   */\n      swap2\n      swap1\n      pop\n      jump\t// out\n        /* \"#utility.yul\":9467:9663   */\n    tag_151:\n        /* \"#utility.yul\":9556:9566   */\n      0x00\n        /* \"#utility.yul\":9591:9657   */\n      tag_292\n        /* \"#utility.yul\":9653:9656   */\n      dup4\n        /* \"#utility.yul\":9645:9651   */\n      dup4\n        /* \"#utility.yul\":9591:9657   */\n      tag_132\n      jump\t// in\n    tag_292:\n        /* \"#utility.yul\":9577:9657   */\n      swap1\n      pop\n        /* \"#utility.yul\":9467:9663   */\n      swap3\n      swap2\n      pop\n      pop\n      jump\t// out\n        /* \"#utility.yul\":9669:9792   */\n    tag_152:\n        /* \"#utility.yul\":9749:9753   */\n      0x00\n        /* \"#utility.yul\":9781:9785   */\n      0x20\n        /* \"#utility.yul\":9776:9779   */\n      dup3\n        /* \"#utility.yul\":9772:9786   */\n      add\n        /* \"#utility.yul\":9764:9786   */\n      swap1\n      pop\n        /* \"#utility.yul\":9669:9792   */\n      swap2\n      swap1\n      pop\n      jump\t// out\n        /* \"#utility.yul\":9826:10817   */\n    tag_153:\n        /* \"#utility.yul\":9965:9968   */\n      0x00\n        /* \"#utility.yul\":9994:10058   */\n      tag_295\n        /* \"#utility.yul\":10052:10057   */\n      dup3\n        /* \"#utility.yul\":9994:10058   */\n      tag_148\n      jump\t// in\n    tag_295:\n        /* \"#utility.yul\":10074:10170   */\n      tag_296\n        /* \"#utility.yul\":10163:10169   */\n      dup2\n        /* \"#utility.yul\":10158:10161   */\n      dup6\n        /* \"#utility.yul\":10074:10170   */\n      tag_149\n      jump\t// in\n    tag_296:\n        /* \"#utility.yul\":10067:10170   */\n      swap4\n      pop\n        /* \"#utility.yul\":10196:10199   */\n      dup4\n        /* \"#utility.yul\":10241:10245   */\n      0x20\n        /* \"#utility.yul\":10233:10239   */\n      dup3\n        /* \"#utility.yul\":10229:10246   */\n      mul\n        /* \"#utility.yul\":10224:10227   */\n      dup6\n        /* \"#utility.yul\":10220:10247   */\n      add\n        /* \"#utility.yul\":10271:10337   */\n      tag_297\n        /* \"#utility.yul\":10331:10336   */\n      dup6\n        /* \"#utility.yul\":10271:10337   */\n      tag_150\n      jump\t// in\n    tag_297:\n        /* \"#utility.yul\":10360:10367   */\n      dup1\n        /* \"#utility.yul\":10391:10392   */\n      0x00\n        /* \"#utility.yul\":10376:10772   */\n    tag_298:\n        /* \"#utility.yul\":10401:10407   */\n      dup6\n        /* \"#utility.yul\":10398:10399   */\n      dup2\n        /* \"#utility.yul\":10395:10408   */\n      lt\n        /* \"#utility.yul\":10376:10772   */\n      iszero\n      tag_300\n      jumpi\n        /* \"#utility.yul\":10472:10481   */\n      dup5\n        /* \"#utility.yul\":10466:10470   */\n      dup5\n        /* \"#utility.yul\":10462:10482   */\n      sub\n        /* \"#utility.yul\":10457:10460   */\n      dup10\n        /* \"#utility.yul\":10450:10483   */\n      mstore\n        /* \"#utility.yul\":10523:10529   */\n      dup2\n        /* \"#utility.yul\":10517:10530   */\n      mload\n        /* \"#utility.yul\":10551:10635   */\n      tag_301\n        /* \"#utility.yul\":10630:10634   */\n      dup6\n        /* \"#utility.yul\":10615:10628   */\n      dup3\n        /* \"#utility.yul\":10551:10635   */\n      tag_151\n      jump\t// in\n    tag_301:\n        /* \"#utility.yul\":10543:10635   */\n      swap5\n      pop\n        /* \"#utility.yul\":10658:10728   */\n      tag_302\n        /* \"#utility.yul\":10721:10727   */\n      dup4\n        /* \"#utility.yul\":10658:10728   */\n      tag_152\n      jump\t// in\n    tag_302:\n        /* \"#utility.yul\":10648:10728   */\n      swap3\n      pop\n        /* \"#utility.yul\":10757:10761   */\n      0x20\n        /* \"#utility.yul\":10752:10755   */\n      dup11\n        /* \"#utility.yul\":10748:10762   */\n      add\n        /* \"#utility.yul\":10741:10762   */\n      swap10\n      pop\n        /* \"#utility.yul\":10436:10772   */\n      pop\n        /* \"#utility.yul\":10423:10424   */\n      0x01\n        /* \"#utility.yul\":10420:10421   */\n      dup2\n        /* \"#utility.yul\":10416:10425   */\n      add\n        /* \"#utility.yul\":10411:10425   */\n      swap1\n      pop\n        /* \"#utility.yul\":10376:10772   */\n      jump(tag_298)\n    tag_300:\n        /* \"#utility.yul\":10380:10394   */\n      pop\n        /* \"#utility.yul\":10788:10792   */\n      dup3\n        /* \"#utility.yul\":10781:10792   */\n      swap8\n      pop\n        /* \"#utility.yul\":10808:10811   */\n      dup8\n        /* \"#utility.yul\":10801:10811   */\n      swap6\n      pop\n        /* \"#utility.yul\":9970:10817   */\n      pop\n      pop\n      pop\n      pop\n      pop\n        /* \"#utility.yul\":9826:10817   */\n      swap3\n      swap2\n      pop\n      pop\n      jump\t// out\n        /* \"#utility.yul\":10823:11236   */\n    tag_36:\n        /* \"#utility.yul\":10986:10990   */\n      0x00\n        /* \"#utility.yul\":11024:11026   */\n      0x20\n        /* \"#utility.yul\":11013:11022   */\n      dup3\n        /* \"#utility.yul\":11009:11027   */\n      add\n        /* \"#utility.yul\":11001:11027   */\n      swap1\n      pop\n        /* \"#utility.yul\":11073:11082   */\n      dup2\n        /* \"#utility.yul\":11067:11071   */\n      dup2\n        /* \"#utility.yul\":11063:11083   */\n      sub\n        /* \"#utility.yul\":11059:11060   */\n      0x00\n        /* \"#utility.yul\":11048:11057   */\n      dup4\n        /* \"#utility.yul\":11044:11061   */\n      add\n        /* \"#utility.yul\":11037:11084   */\n      mstore\n        /* \"#utility.yul\":11101:11229   */\n      tag_304\n        /* \"#utility.yul\":11224:11228   */\n      dup2\n        /* \"#utility.yul\":11215:11221   */\n      dup5\n        /* \"#utility.yul\":11101:11229   */\n      tag_153\n      jump\t// in\n    tag_304:\n        /* \"#utility.yul\":11093:11229   */\n      swap1\n      pop\n        /* \"#utility.yul\":10823:11236   */\n      swap3\n      swap2\n      pop\n      pop\n      jump\t// out\n        /* \"#utility.yul\":11242:11390   */\n    tag_154:\n        /* \"#utility.yul\":11344:11355   */\n      0x00\n        /* \"#utility.yul\":11381:11384   */\n      dup2\n        /* \"#utility.yul\":11366:11384   */\n      swap1\n      pop\n        /* \"#utility.yul\":11242:11390   */\n      swap3\n      swap2\n      pop\n      pop\n      jump\t// out\n        /* \"#utility.yul\":11396:11786   */\n    tag_155:\n        /* \"#utility.yul\":11502:11505   */\n      0x00\n        /* \"#utility.yul\":11530:11569   */\n      tag_307\n        /* \"#utility.yul\":11563:11568   */\n      dup3\n        /* \"#utility.yul\":11530:11569   */\n      tag_129\n      jump\t// in\n    tag_307:\n        /* \"#utility.yul\":11585:11674   */\n      tag_308\n        /* \"#utility.yul\":11667:11673   */\n      dup2\n        /* \"#utility.yul\":11662:11665   */\n      dup6\n        /* \"#utility.yul\":11585:11674   */\n      tag_154\n      jump\t// in\n    tag_308:\n        /* \"#utility.yul\":11578:11674   */\n      swap4\n      pop\n        /* \"#utility.yul\":11683:11748   */\n      tag_309\n        /* \"#utility.yul\":11741:11747   */\n      dup2\n        /* \"#utility.yul\":11736:11739   */\n      dup6\n        /* \"#utility.yul\":11729:11733   */\n      0x20\n        /* \"#utility.yul\":11722:11727   */\n      dup7\n        /* \"#utility.yul\":11718:11734   */\n      add\n        /* \"#utility.yul\":11683:11748   */\n      tag_131\n      jump\t// in\n    tag_309:\n        /* \"#utility.yul\":11773:11779   */\n      dup1\n        /* \"#utility.yul\":11768:11771   */\n      dup5\n        /* \"#utility.yul\":11764:11780   */\n      add\n        /* \"#utility.yul\":11757:11780   */\n      swap2\n      pop\n        /* \"#utility.yul\":11506:11786   */\n      pop\n        /* \"#utility.yul\":11396:11786   */\n      swap3\n      swap2\n      pop\n      pop\n      jump\t// out\n        /* \"#utility.yul\":11792:12067   */\n    tag_41:\n        /* \"#utility.yul\":11924:11927   */\n      0x00\n        /* \"#utility.yul\":11946:12041   */\n      tag_311\n        /* \"#utility.yul\":12037:12040   */\n      dup3\n        /* \"#utility.yul\":12028:12034   */\n      dup5\n        /* \"#utility.yul\":11946:12041   */\n      tag_155\n      jump\t// in\n    tag_311:\n        /* \"#utility.yul\":11939:12041   */\n      swap2\n      pop\n        /* \"#utility.yul\":12058:12061   */\n      dup2\n        /* \"#utility.yul\":12051:12061   */\n      swap1\n      pop\n        /* \"#utility.yul\":11792:12067   */\n      swap3\n      swap2\n      pop\n      pop\n      jump\t// out\n        /* \"#utility.yul\":12073:12253   */\n    tag_156:\n        /* \"#utility.yul\":12121:12198   */\n      0x4e487b7100000000000000000000000000000000000000000000000000000000\n        /* \"#utility.yul\":12118:12119   */\n      0x00\n        /* \"#utility.yul\":12111:12199   */\n      mstore\n        /* \"#utility.yul\":12218:12222   */\n      0x22\n        /* \"#utility.yul\":12215:12216   */\n      0x04\n        /* \"#utility.yul\":12208:12223   */\n      mstore\n        /* \"#utility.yul\":12242:12246   */\n      0x24\n        /* \"#utility.yul\":12239:12240   */\n      0x00\n        /* \"#utility.yul\":12232:12247   */\n      revert\n        /* \"#utility.yul\":12259:12579   */\n    tag_43:\n        /* \"#utility.yul\":12303:12309   */\n      0x00\n        /* \"#utility.yul\":12340:12341   */\n      0x02\n        /* \"#utility.yul\":12334:12338   */\n      dup3\n        /* \"#utility.yul\":12330:12342   */\n      div\n        /* \"#utility.yul\":12320:12342   */\n      swap1\n      pop\n        /* \"#utility.yul\":12387:12388   */\n      0x01\n        /* \"#utility.yul\":12381:12385   */\n      dup3\n        /* \"#utility.yul\":12377:12389   */\n      and\n        /* \"#utility.yul\":12408:12426   */\n      dup1\n        /* \"#utility.yul\":12398:12479   */\n      tag_314\n      jumpi\n        /* \"#utility.yul\":12464:12468   */\n      0x7f\n        /* \"#utility.yul\":12456:12462   */\n      dup3\n        /* \"#utility.yul\":12452:12469   */\n      and\n        /* \"#utility.yul\":12442:12469   */\n      swap2\n      pop\n        /* \"#utility.yul\":12398:12479   */\n    tag_314:\n        /* \"#utility.yul\":12526:12528   */\n      0x20\n        /* \"#utility.yul\":12518:12524   */\n      dup3\n        /* \"#utility.yul\":12515:12529   */\n      lt\n        /* \"#utility.yul\":12495:12513   */\n      dup2\n        /* \"#utility.yul\":12492:12530   */\n      sub\n        /* \"#utility.yul\":12489:12573   */\n      tag_315\n      jumpi\n        /* \"#utility.yul\":12545:12563   */\n      tag_316\n      tag_156\n      jump\t// in\n    tag_316:\n        /* \"#utility.yul\":12489:12573   */\n    tag_315:\n        /* \"#utility.yul\":12310:12579   */\n      pop\n        /* \"#utility.yul\":12259:12579   */\n      swap2\n      swap1\n      pop\n      jump\t// out\n        /* \"#utility.yul\":12585:12754   */\n    tag_157:\n        /* \"#utility.yul\":12669:12680   */\n      0x00\n        /* \"#utility.yul\":12703:12709   */\n      dup3\n        /* \"#utility.yul\":12698:12701   */\n      dup3\n        /* \"#utility.yul\":12691:12710   */\n      mstore\n        /* \"#utility.yul\":12743:12747   */\n      0x20\n        /* \"#utility.yul\":12738:12741   */\n      dup3\n        /* \"#utility.yul\":12734:12748   */\n      add\n        /* \"#utility.yul\":12719:12748   */\n      swap1\n      pop\n        /* \"#utility.yul\":12585:12754   */\n      swap3\n      swap2\n      pop\n      pop\n      jump\t// out\n        /* \"#utility.yul\":12760:12931   */\n    tag_158:\n        /* \"#utility.yul\":12900:12923   */\n      0x5265636f726420646f6573206e6f742065786973740000000000000000000000\n        /* \"#utility.yul\":12896:12897   */\n      0x00\n        /* \"#utility.yul\":12888:12894   */\n      dup3\n        /* \"#utility.yul\":12884:12898   */\n      add\n        /* \"#utility.yul\":12877:12924   */\n      mstore\n        /* \"#utility.yul\":12760:12931   */\n      pop\n      jump\t// out\n        /* \"#utility.yul\":12937:13303   */\n    tag_159:\n        /* \"#utility.yul\":13079:13082   */\n      0x00\n        /* \"#utility.yul\":13100:13167   */\n      tag_320\n        /* \"#utility.yul\":13164:13166   */\n      0x15\n        /* \"#utility.yul\":13159:13162   */\n      dup4\n        /* \"#utility.yul\":13100:13167   */\n      tag_157\n      jump\t// in\n    tag_320:\n        /* \"#utility.yul\":13093:13167   */\n      swap2\n      pop\n        /* \"#utility.yul\":13176:13269   */\n      tag_321\n        /* \"#utility.yul\":13265:13268   */\n      dup3\n        /* \"#utility.yul\":13176:13269   */\n      tag_158\n      jump\t// in\n    tag_321:\n        /* \"#utility.yul\":13294:13296   */\n      0x20\n        /* \"#utility.yul\":13289:13292   */\n      dup3\n        /* \"#utility.yul\":13285:13297   */\n      add\n        /* \"#utility.yul\":13278:13297   */\n      swap1\n      pop\n        /* \"#utility.yul\":12937:13303   */\n      swap2\n      swap1\n      pop\n      jump\t// out\n        /* \"#utility.yul\":13309:13728   */\n    tag_55:\n        /* \"#utility.yul\":13475:13479   */\n      0x00\n        /* \"#utility.yul\":13513:13515   */\n      0x20\n        /* \"#utility.yul\":13502:13511   */\n      dup3\n        /* \"#utility.yul\":13498:13516   */\n      add\n        /* \"#utility.yul\":13490:13516   */\n      swap1\n      pop\n        /* \"#utility.yul\":13562:13571   */\n      dup2\n        /* \"#utility.yul\":13556:13560   */\n      dup2\n        /* \"#utility.yul\":13552:13572   */\n      sub\n        /* \"#utility.yul\":13548:13549   */\n      0x00\n        /* \"#utility.yul\":13537:13546   */\n      dup4\n        /* \"#utility.yul\":13533:13550   */\n      add\n        /* \"#utility.yul\":13526:13573   */\n      mstore\n        /* \"#utility.yul\":13590:13721   */\n      tag_323\n        /* \"#utility.yul\":13716:13720   */\n      dup2\n        /* \"#utility.yul\":13590:13721   */\n      tag_159\n      jump\t// in\n    tag_323:\n        /* \"#utility.yul\":13582:13721   */\n      swap1\n      pop\n        /* \"#utility.yul\":13309:13728   */\n      swap2\n      swap1\n      pop\n      jump\t// out\n        /* \"#utility.yul\":13734:14111   */\n    tag_160:\n        /* \"#utility.yul\":13822:13825   */\n      0x00\n        /* \"#utility.yul\":13850:13889   */\n      tag_325\n        /* \"#utility.yul\":13883:13888   */\n      dup3\n        /* \"#utility.yul\":13850:13889   */\n      tag_129\n      jump\t// in\n    tag_325:\n        /* \"#utility.yul\":13905:13976   */\n      tag_326\n        /* \"#utility.yul\":13969:13975   */\n      dup2\n        /* \"#utility.yul\":13964:13967   */\n      dup6\n        /* \"#utility.yul\":13905:13976   */\n      tag_157\n      jump\t// in\n    tag_326:\n        /* \"#utility.yul\":13898:13976   */\n      swap4\n      pop\n        /* \"#utility.yul\":13985:14050   */\n      tag_327\n        /* \"#utility.yul\":14043:14049   */\n      dup2\n        /* \"#utility.yul\":14038:14041   */\n      dup6\n        /* \"#utility.yul\":14031:14035   */\n      0x20\n        /* \"#utility.yul\":14024:14029   */\n      dup7\n        /* \"#utility.yul\":14020:14036   */\n      add\n        /* \"#utility.yul\":13985:14050   */\n      tag_131\n      jump\t// in\n    tag_327:\n        /* \"#utility.yul\":14075:14104   */\n      tag_328\n        /* \"#utility.yul\":14097:14103   */\n      dup2\n        /* \"#utility.yul\":14075:14104   */\n      tag_121\n      jump\t// in\n    tag_328:\n        /* \"#utility.yul\":14070:14073   */\n      dup5\n        /* \"#utility.yul\":14066:14105   */\n      add\n        /* \"#utility.yul\":14059:14105   */\n      swap2\n      pop\n        /* \"#utility.yul\":13826:14111   */\n      pop\n        /* \"#utility.yul\":13734:14111   */\n      swap3\n      swap2\n      pop\n      pop\n      jump\t// out\n        /* \"#utility.yul\":14117:14235   */\n    tag_161:\n        /* \"#utility.yul\":14204:14228   */\n      tag_330\n        /* \"#utility.yul\":14222:14227   */\n      dup2\n        /* \"#utility.yul\":14204:14228   */\n      tag_134\n      jump\t// in\n    tag_330:\n        /* \"#utility.yul\":14199:14202   */\n      dup3\n        /* \"#utility.yul\":14192:14229   */\n      mstore\n        /* \"#utility.yul\":14117:14235   */\n      pop\n      pop\n      jump\t// out\n        /* \"#utility.yul\":14241:14664   */\n    tag_57:\n        /* \"#utility.yul\":14382:14386   */\n      0x00\n        /* \"#utility.yul\":14420:14422   */\n      0x40\n        /* \"#utility.yul\":14409:14418   */\n      dup3\n        /* \"#utility.yul\":14405:14423   */\n      add\n        /* \"#utility.yul\":14397:14423   */\n      swap1\n      pop\n        /* \"#utility.yul\":14469:14478   */\n      dup2\n        /* \"#utility.yul\":14463:14467   */\n      dup2\n        /* \"#utility.yul\":14459:14479   */\n      sub\n        /* \"#utility.yul\":14455:14456   */\n      0x00\n        /* \"#utility.yul\":14444:14453   */\n      dup4\n        /* \"#utility.yul\":14440:14457   */\n      add\n        /* \"#utility.yul\":14433:14480   */\n      mstore\n        /* \"#utility.yul\":14497:14575   */\n      tag_332\n        /* \"#utility.yul\":14570:14574   */\n      dup2\n        /* \"#utility.yul\":14561:14567   */\n      dup6\n        /* \"#utility.yul\":14497:14575   */\n      tag_160\n      jump\t// in\n    tag_332:\n        /* \"#utility.yul\":14489:14575   */\n      swap1\n      pop\n        /* \"#utility.yul\":14585:14657   */\n      tag_333\n        /* \"#utility.yul\":14653:14655   */\n      0x20\n        /* \"#utility.yul\":14642:14651   */\n      dup4\n        /* \"#utility.yul\":14638:14656   */\n      add\n        /* \"#utility.yul\":14629:14635   */\n      dup5\n        /* \"#utility.yul\":14585:14657   */\n      tag_161\n      jump\t// in\n    tag_333:\n        /* \"#utility.yul\":14241:14664   */\n      swap4\n      swap3\n      pop\n      pop\n      pop\n      jump\t// out\n        /* \"#utility.yul\":14670:14760   */\n    tag_162:\n        /* \"#utility.yul\":14704:14711   */\n      0x00\n        /* \"#utility.yul\":14747:14752   */\n      dup2\n        /* \"#utility.yul\":14740:14753   */\n      iszero\n        /* \"#utility.yul\":14733:14754   */\n      iszero\n        /* \"#utility.yul\":14722:14754   */\n      swap1\n      pop\n        /* \"#utility.yul\":14670:14760   */\n      swap2\n      swap1\n      pop\n      jump\t// out\n        /* \"#utility.yul\":14766:14882   */\n    tag_163:\n        /* \"#utility.yul\":14836:14857   */\n      tag_336\n        /* \"#utility.yul\":14851:14856   */\n      dup2\n        /* \"#utility.yul\":14836:14857   */\n      tag_162\n      jump\t// in\n    tag_336:\n        /* \"#utility.yul\":14829:14834   */\n      dup2\n        /* \"#utility.yul\":14826:14858   */\n      eq\n        /* \"#utility.yul\":14816:14876   */\n      tag_337\n      jumpi\n        /* \"#utility.yul\":14872:14873   */\n      0x00\n        /* \"#utility.yul\":14869:14870   */\n      dup1\n        /* \"#utility.yul\":14862:14874   */\n      revert\n        /* \"#utility.yul\":14816:14876   */\n    tag_337:\n        /* \"#utility.yul\":14766:14882   */\n      pop\n      jump\t// out\n        /* \"#utility.yul\":14888:15025   */\n    tag_164:\n        /* \"#utility.yul\":14942:14947   */\n      0x00\n        /* \"#utility.yul\":14973:14979   */\n      dup2\n        /* \"#utility.yul\":14967:14980   */\n      mload\n        /* \"#utility.yul\":14958:14980   */\n      swap1\n      pop\n        /* \"#utility.yul\":14989:15019   */\n      tag_339\n        /* \"#utility.yul\":15013:15018   */\n      dup2\n        /* \"#utility.yul\":14989:15019   */\n      tag_163\n      jump\t// in\n    tag_339:\n        /* \"#utility.yul\":14888:15025   */\n      swap3\n      swap2\n      pop\n      pop\n      jump\t// out\n        /* \"#utility.yul\":15031:15376   */\n    tag_61:\n        /* \"#utility.yul\":15098:15104   */\n      0x00\n        /* \"#utility.yul\":15147:15149   */\n      0x20\n        /* \"#utility.yul\":15135:15144   */\n      dup3\n        /* \"#utility.yul\":15126:15133   */\n      dup5\n        /* \"#utility.yul\":15122:15145   */\n      sub\n        /* \"#utility.yul\":15118:15150   */\n      slt\n        /* \"#utility.yul\":15115:15234   */\n      iszero\n      tag_341\n      jumpi\n        /* \"#utility.yul\":15153:15232   */\n      tag_342\n      tag_117\n      jump\t// in\n    tag_342:\n        /* \"#utility.yul\":15115:15234   */\n    tag_341:\n        /* \"#utility.yul\":15273:15274   */\n      0x00\n        /* \"#utility.yul\":15298:15359   */\n      tag_343\n        /* \"#utility.yul\":15351:15358   */\n      dup5\n        /* \"#utility.yul\":15342:15348   */\n      dup3\n        /* \"#utility.yul\":15331:15340   */\n      dup6\n        /* \"#utility.yul\":15327:15349   */\n      add\n        /* \"#utility.yul\":15298:15359   */\n      tag_164\n      jump\t// in\n    tag_343:\n        /* \"#utility.yul\":15288:15359   */\n      swap2\n      pop\n        /* \"#utility.yul\":15244:15369   */\n      pop\n        /* \"#utility.yul\":15031:15376   */\n      swap3\n      swap2\n      pop\n      pop\n      jump\t// out\n        /* \"#utility.yul\":15382:15545   */\n    tag_165:\n        /* \"#utility.yul\":15522:15537   */\n      0x4163636573732064656e69656400000000000000000000000000000000000000\n        /* \"#utility.yul\":15518:15519   */\n      0x00\n        /* \"#utility.yul\":15510:15516   */\n      dup3\n        /* \"#utility.yul\":15506:15520   */\n      add\n        /* \"#utility.yul\":15499:15538   */\n      mstore\n        /* \"#utility.yul\":15382:15545   */\n      pop\n      jump\t// out\n        /* \"#utility.yul\":15551:15917   */\n    tag_166:\n        /* \"#utility.yul\":15693:15696   */\n      0x00\n        /* \"#utility.yul\":15714:15781   */\n      tag_346\n        /* \"#utility.yul\":15778:15780   */\n      0x0d\n        /* \"#utility.yul\":15773:15776   */\n      dup4\n        /* \"#utility.yul\":15714:15781   */\n      tag_157\n      jump\t// in\n    tag_346:\n        /* \"#utility.yul\":15707:15781   */\n      swap2\n      pop\n        /* \"#utility.yul\":15790:15883   */\n      tag_347\n        /* \"#utility.yul\":15879:15882   */\n      dup3\n        /* \"#utility.yul\":15790:15883   */\n      tag_165\n      jump\t// in\n    tag_347:\n        /* \"#utility.yul\":15908:15910   */\n      0x20\n        /* \"#utility.yul\":15903:15906   */\n      dup3\n        /* \"#utility.yul\":15899:15911   */\n      add\n        /* \"#utility.yul\":15892:15911   */\n      swap1\n      pop\n        /* \"#utility.yul\":15551:15917   */\n      swap2\n      swap1\n      pop\n      jump\t// out\n        /* \"#utility.yul\":15923:16342   */\n    tag_65:\n        /* \"#utility.yul\":16089:16093   */\n      0x00\n        /* \"#utility.yul\":16127:16129   */\n      0x20\n        /* \"#utility.yul\":16116:16125   */\n      dup3\n        /* \"#utility.yul\":16112:16130   */\n      add\n        /* \"#utility.yul\":16104:16130   */\n      swap1\n      pop\n        /* \"#utility.yul\":16176:16185   */\n      dup2\n        /* \"#utility.yul\":16170:16174   */\n      dup2\n        /* \"#utility.yul\":16166:16186   */\n      sub\n        /* \"#utility.yul\":16162:16163   */\n      0x00\n        /* \"#utility.yul\":16151:16160   */\n      dup4\n        /* \"#utility.yul\":16147:16164   */\n      add\n        /* \"#utility.yul\":16140:16187   */\n      mstore\n        /* \"#utility.yul\":16204:16335   */\n      tag_349\n        /* \"#utility.yul\":16330:16334   */\n      dup2\n        /* \"#utility.yul\":16204:16335   */\n      tag_166\n      jump\t// in\n    tag_349:\n        /* \"#utility.yul\":16196:16335   */\n      swap1\n      pop\n        /* \"#utility.yul\":15923:16342   */\n      swap2\n      swap1\n      pop\n      jump\t// out\n        /* \"#utility.yul\":16348:16515   */\n    tag_167:\n        /* \"#utility.yul\":16488:16507   */\n      0x496e76616c69642066696c652068617368000000000000000000000000000000\n        /* \"#utility.yul\":16484:16485   */\n      0x00\n        /* \"#utility.yul\":16476:16482   */\n      dup3\n        /* \"#utility.yul\":16472:16486   */\n      add\n        /* \"#utility.yul\":16465:16508   */\n      mstore\n        /* \"#utility.yul\":16348:16515   */\n      pop\n      jump\t// out\n        /* \"#utility.yul\":16521:16887   */\n    tag_168:\n        /* \"#utility.yul\":16663:16666   */\n      0x00\n        /* \"#utility.yul\":16684:16751   */\n      tag_352\n        /* \"#utility.yul\":16748:16750   */\n      0x11\n        /* \"#utility.yul\":16743:16746   */\n      dup4\n        /* \"#utility.yul\":16684:16751   */\n      tag_157\n      jump\t// in\n    tag_352:\n        /* \"#utility.yul\":16677:16751   */\n      swap2\n      pop\n        /* \"#utility.yul\":16760:16853   */\n      tag_353\n        /* \"#utility.yul\":16849:16852   */\n      dup3\n        /* \"#utility.yul\":16760:16853   */\n      tag_167\n      jump\t// in\n    tag_353:\n        /* \"#utility.yul\":16878:16880   */\n      0x20\n        /* \"#utility.yul\":16873:16876   */\n      dup3\n        /* \"#utility.yul\":16869:16881   */\n      add\n        /* \"#utility.yul\":16862:16881   */\n      swap1\n      pop\n        /* \"#utility.yul\":16521:16887   */\n      swap2\n      swap1\n      pop\n      jump\t// out\n        /* \"#utility.yul\":16893:17312   */\n    tag_69:\n        /* \"#utility.yul\":17059:17063   */\n      0x00\n        /* \"#utility.yul\":17097:17099   */\n      0x20\n        /* \"#utility.yul\":17086:17095   */\n      dup3\n        /* \"#utility.yul\":17082:17100   */\n      add\n        /* \"#utility.yul\":17074:17100   */\n      swap1\n      pop\n        /* \"#utility.yul\":17146:17155   */\n      dup2\n        /* \"#utility.yul\":17140:17144   */\n      dup2\n        /* \"#utility.yul\":17136:17156   */\n      sub\n        /* \"#utility.yul\":17132:17133   */\n      0x00\n        /* \"#utility.yul\":17121:17130   */\n      dup4\n        /* \"#utility.yul\":17117:17134   */\n      add\n        /* \"#utility.yul\":17110:17157   */\n      mstore\n        /* \"#utility.yul\":17174:17305   */\n      tag_355\n        /* \"#utility.yul\":17300:17304   */\n      dup2\n        /* \"#utility.yul\":17174:17305   */\n      tag_168\n      jump\t// in\n    tag_355:\n        /* \"#utility.yul\":17166:17305   */\n      swap1\n      pop\n        /* \"#utility.yul\":16893:17312   */\n      swap2\n      swap1\n      pop\n      jump\t// out\n        /* \"#utility.yul\":17318:17485   */\n    tag_169:\n        /* \"#utility.yul\":17458:17477   */\n      0x496e76616c69642066696c652074797065000000000000000000000000000000\n        /* \"#utility.yul\":17454:17455   */\n      0x00\n        /* \"#utility.yul\":17446:17452   */\n      dup3\n        /* \"#utility.yul\":17442:17456   */\n      add\n        /* \"#utility.yul\":17435:17478   */\n      mstore\n        /* \"#utility.yul\":17318:17485   */\n      pop\n      jump\t// out\n        /* \"#utility.yul\":17491:17857   */\n    tag_170:\n        /* \"#utility.yul\":17633:17636   */\n      0x00\n        /* \"#utility.yul\":17654:17721   */\n      tag_358\n        /* \"#utility.yul\":17718:17720   */\n      0x11\n        /* \"#utility.yul\":17713:17716   */\n      dup4\n        /* \"#utility.yul\":17654:17721   */\n      tag_157\n      jump\t// in\n    tag_358:\n        /* \"#utility.yul\":17647:17721   */\n      swap2\n      pop\n        /* \"#utility.yul\":17730:17823   */\n      tag_359\n        /* \"#utility.yul\":17819:17822   */\n      dup3\n        /* \"#utility.yul\":17730:17823   */\n      tag_169\n      jump\t// in\n    tag_359:\n        /* \"#utility.yul\":17848:17850   */\n      0x20\n        /* \"#utility.yul\":17843:17846   */\n      dup3\n        /* \"#utility.yul\":17839:17851   */\n      add\n        /* \"#utility.yul\":17832:17851   */\n      swap1\n      pop\n        /* \"#utility.yul\":17491:17857   */\n      swap2\n      swap1\n      pop\n      jump\t// out\n        /* \"#utility.yul\":17863:18282   */\n    tag_72:\n        /* \"#utility.yul\":18029:18033   */\n      0x00\n        /* \"#utility.yul\":18067:18069   */\n      0x20\n        /* \"#utility.yul\":18056:18065   */\n      dup3\n        /* \"#utility.yul\":18052:18070   */\n      add\n        /* \"#utility.yul\":18044:18070   */\n      swap1\n      pop\n        /* \"#utility.yul\":18116:18125   */\n      dup2\n        /* \"#utility.yul\":18110:18114   */\n      dup2\n        /* \"#utility.yul\":18106:18126   */\n      sub\n        /* \"#utility.yul\":18102:18103   */\n      0x00\n        /* \"#utility.yul\":18091:18100   */\n      dup4\n        /* \"#utility.yul\":18087:18104   */\n      add\n        /* \"#utility.yul\":18080:18127   */\n      mstore\n        /* \"#utility.yul\":18144:18275   */\n      tag_361\n        /* \"#utility.yul\":18270:18274   */\n      dup2\n        /* \"#utility.yul\":18144:18275   */\n      tag_170\n      jump\t// in\n    tag_361:\n        /* \"#utility.yul\":18136:18275   */\n      swap1\n      pop\n        /* \"#utility.yul\":17863:18282   */\n      swap2\n      swap1\n      pop\n      jump\t// out\n        /* \"#utility.yul\":18288:18459   */\n    tag_171:\n        /* \"#utility.yul\":18428:18451   */\n      0x5265636f726420616c7265616479206578697374730000000000000000000000\n        /* \"#utility.yul\":18424:18425   */\n      0x00\n        /* \"#utility.yul\":18416:18422   */\n      dup3\n        /* \"#utility.yul\":18412:18426   */\n      add\n        /* \"#utility.yul\":18405:18452   */\n      mstore\n        /* \"#utility.yul\":18288:18459   */\n      pop\n      jump\t// out\n        /* \"#utility.yul\":18465:18831   */\n    tag_172:\n        /* \"#utility.yul\":18607:18610   */\n      0x00\n        /* \"#utility.yul\":18628:18695   */\n      tag_364\n        /* \"#utility.yul\":18692:18694   */\n      0x15\n        /* \"#utility.yul\":18687:18690   */\n      dup4\n        /* \"#utility.yul\":18628:18695   */\n      tag_157\n      jump\t// in\n    tag_364:\n        /* \"#utility.yul\":18621:18695   */\n      swap2\n      pop\n        /* \"#utility.yul\":18704:18797   */\n      tag_365\n        /* \"#utility.yul\":18793:18796   */\n      dup3\n        /* \"#utility.yul\":18704:18797   */\n      tag_171\n      jump\t// in\n    tag_365:\n        /* \"#utility.yul\":18822:18824   */\n      0x20\n        /* \"#utility.yul\":18817:18820   */\n      dup3\n        /* \"#utility.yul\":18813:18825   */\n      add\n        /* \"#utility.yul\":18806:18825   */\n      swap1\n      pop\n        /* \"#utility.yul\":18465:18831   */\n      swap2\n      swap1\n      pop\n      jump\t// out\n        /* \"#utility.yul\":18837:19256   */\n    tag_76:\n        /* \"#utility.yul\":19003:19007   */\n      0x00\n        /* \"#utility.yul\":19041:19043   */\n      0x20\n        /* \"#utility.yul\":19030:19039   */\n      dup3\n        /* \"#utility.yul\":19026:19044   */\n      add\n        /* \"#utility.yul\":19018:19044   */\n      swap1\n      pop\n        /* \"#utility.yul\":19090:19099   */\n      dup2\n        /* \"#utility.yul\":19084:19088   */\n      dup2\n        /* \"#utility.yul\":19080:19100   */\n      sub\n        /* \"#utility.yul\":19076:19077   */\n      0x00\n        /* \"#utility.yul\":19065:19074   */\n      dup4\n        /* \"#utility.yul\":19061:19078   */\n      add\n        /* \"#utility.yul\":19054:19101   */\n      mstore\n        /* \"#utility.yul\":19118:19249   */\n      tag_367\n        /* \"#utility.yul\":19244:19248   */\n      dup2\n        /* \"#utility.yul\":19118:19249   */\n      tag_172\n      jump\t// in\n    tag_367:\n        /* \"#utility.yul\":19110:19249   */\n      swap1\n      pop\n        /* \"#utility.yul\":18837:19256   */\n      swap2\n      swap1\n      pop\n      jump\t// out\n        /* \"#utility.yul\":19262:19403   */\n    tag_173:\n        /* \"#utility.yul\":19311:19315   */\n      0x00\n        /* \"#utility.yul\":19334:19337   */\n      dup2\n        /* \"#utility.yul\":19326:19337   */\n      swap1\n      pop\n        /* \"#utility.yul\":19357:19360   */\n      dup2\n        /* \"#utility.yul\":19354:19355   */\n      0x00\n        /* \"#utility.yul\":19347:19361   */\n      mstore\n        /* \"#utility.yul\":19391:19395   */\n      0x20\n        /* \"#utility.yul\":19388:19389   */\n      0x00\n        /* \"#utility.yul\":19378:19396   */\n      keccak256\n        /* \"#utility.yul\":19370:19396   */\n      swap1\n      pop\n        /* \"#utility.yul\":19262:19403   */\n      swap2\n      swap1\n      pop\n      jump\t// out\n        /* \"#utility.yul\":19409:19502   */\n    tag_174:\n        /* \"#utility.yul\":19446:19452   */\n      0x00\n        /* \"#utility.yul\":19493:19495   */\n      0x20\n        /* \"#utility.yul\":19488:19490   */\n      0x1f\n        /* \"#utility.yul\":19481:19486   */\n      dup4\n        /* \"#utility.yul\":19477:19491   */\n      add\n        /* \"#utility.yul\":19473:19496   */\n      div\n        /* \"#utility.yul\":19463:19496   */\n      swap1\n      pop\n        /* \"#utility.yul\":19409:19502   */\n      swap2\n      swap1\n      pop\n      jump\t// out\n        /* \"#utility.yul\":19508:19615   */\n    tag_175:\n        /* \"#utility.yul\":19552:19560   */\n      0x00\n        /* \"#utility.yul\":19602:19607   */\n      dup3\n        /* \"#utility.yul\":19596:19600   */\n      dup3\n        /* \"#utility.yul\":19592:19608   */\n      shl\n        /* \"#utility.yul\":19571:19608   */\n      swap1\n      pop\n        /* \"#utility.yul\":19508:19615   */\n      swap3\n      swap2\n      pop\n      pop\n      jump\t// out\n        /* \"#utility.yul\":19621:20014   */\n    tag_176:\n        /* \"#utility.yul\":19690:19696   */\n      0x00\n        /* \"#utility.yul\":19740:19741   */\n      0x08\n        /* \"#utility.yul\":19728:19738   */\n      dup4\n        /* \"#utility.yul\":19724:19742   */\n      mul\n        /* \"#utility.yul\":19763:19860   */\n      tag_372\n        /* \"#utility.yul\":19793:19859   */\n      0xffffffffffffffffffffffffffffffffffffffffffffffffffffffffffffffff\n        /* \"#utility.yul\":19782:19791   */\n      dup3\n        /* \"#utility.yul\":19763:19860   */\n      tag_175\n      jump\t// in\n    tag_372:\n        /* \"#utility.yul\":19881:19920   */\n      tag_373\n        /* \"#utility.yul\":19911:19919   */\n      dup7\n        /* \"#utility.yul\":19900:19909   */\n      dup4\n        /* \"#utility.yul\":19881:19920   */\n      tag_175\n      jump\t// in\n    tag_373:\n        /* \"#utility.yul\":19869:19920   */\n      swap6\n      pop\n        /* \"#utility.yul\":19953:19957   */\n      dup1\n        /* \"#utility.yul\":19949:19958   */\n      not\n        /* \"#utility.yul\":19942:19947   */\n      dup5\n        /* \"#utility.yul\":19938:19959   */\n      and\n        /* \"#utility.yul\":19929:19959   */\n      swap4\n      pop\n        /* \"#utility.yul\":20002:20006   */\n      dup1\n        /* \"#utility.yul\":19992:20000   */\n      dup7\n        /* \"#utility.yul\":19988:20007   */\n      and\n        /* \"#utility.yul\":19981:19986   */\n      dup5\n        /* \"#utility.yul\":19978:20008   */\n      or\n        /* \"#utility.yul\":19968:20008   */\n      swap3\n      pop\n        /* \"#utility.yul\":19697:20014   */\n      pop\n      pop\n        /* \"#utility.yul\":19621:20014   */\n      swap4\n      swap3\n      pop\n      pop\n      pop\n      jump\t// out\n        /* \"#utility.yul\":20020:20162   */\n    tag_177:\n        /* \"#utility.yul\":20070:20079   */\n      0x00\n        /* \"#utility.yul\":20103:20156   */\n      tag_375\n        /* \"#utility.yul\":20121:20155   */\n      tag_376\n        /* \"#utility.yul\":20130:20154   */\n      tag_377\n        /* \"#utility.yul\":20148:20153   */\n      dup5\n        /* \"#utility.yul\":20130:20154   */\n      tag_136\n      jump\t// in\n    tag_377:\n        /* \"#utility.yul\":20121:20155   */\n      tag_139\n      jump\t// in\n    tag_376:\n        /* \"#utility.yul\":20103:20156   */\n      tag_136\n      jump\t// in\n    tag_375:\n        /* \"#utility.yul\":20090:20156   */\n      swap1\n      pop\n        /* \"#utility.yul\":20020:20162   */\n      swap2\n      swap1\n      pop\n      jump\t// out\n        /* \"#utility.yul\":20168:20243   */\n    tag_178:\n        /* \"#utility.yul\":20211:20214   */\n      0x00\n        /* \"#utility.yul\":20232:20237   */\n      dup2\n        /* \"#utility.yul\":20225:20237   */\n      swap1\n      pop\n        /* \"#utility.yul\":20168:20243   */\n      swap2\n      swap1\n      pop\n      jump\t// out\n        /* \"#utility.yul\":20249:20518   */\n    tag_179:\n        /* \"#utility.yul\":20359:20398   */\n      tag_380\n        /* \"#utility.yul\":20390:20397   */\n      dup4\n        /* \"#utility.yul\":20359:20398   */\n      tag_177\n      jump\t// in\n    tag_380:\n        /* \"#utility.yul\":20420:20511   */\n      tag_381\n        /* \"#utility.yul\":20469:20510   */\n      tag_382\n        /* \"#utility.yul\":20493:20509   */\n      dup3\n        /* \"#utility.yul\":20469:20510   */\n      tag_178\n      jump\t// in\n    tag_382:\n        /* \"#utility.yul\":20461:20467   */\n      dup5\n        /* \"#utility.yul\":20454:20458   */\n      dup5\n        /* \"#utility.yul\":20448:20459   */\n      sload\n        /* \"#utility.yul\":20420:20511   */\n      tag_176\n      jump\t// in\n    tag_381:\n        /* \"#utility.yul\":20414:20418   */\n      dup3\n        /* \"#utility.yul\":20407:20512   */\n      sstore\n        /* \"#utility.yul\":20325:20518   */\n      pop\n        /* \"#utility.yul\":20249:20518   */\n      pop\n      pop\n      pop\n      jump\t// out\n        /* \"#utility.yul\":20524:20597   */\n    tag_180:\n        /* \"#utility.yul\":20569:20572   */\n      0x00\n        /* \"#utility.yul\":20524:20597   */\n      swap1\n      jump\t// out\n        /* \"#utility.yul\":20603:20792   */\n    tag_181:\n        /* \"#utility.yul\":20680:20712   */\n      tag_385\n      tag_180\n      jump\t// in\n    tag_385:\n        /* \"#utility.yul\":20721:20786   */\n      tag_386\n        /* \"#utility.yul\":20779:20785   */\n      dup2\n        /* \"#utility.yul\":20771:20777   */\n      dup5\n        /* \"#utility.yul\":20765:20769   */\n      dup5\n        /* \"#utility.yul\":20721:20786   */\n      tag_179\n      jump\t// in\n    tag_386:\n        /* \"#utility.yul\":20656:20792   */\n      pop\n        /* \"#utility.yul\":20603:20792   */\n      pop\n      pop\n      jump\t// out\n        /* \"#utility.yul\":20798:20984   */\n    tag_182:\n        /* \"#utility.yul\":20858:20978   */\n    tag_388:\n        /* \"#utility.yul\":20875:20878   */\n      dup2\n        /* \"#utility.yul\":20868:20873   */\n      dup2\n        /* \"#utility.yul\":20865:20879   */\n      lt\n        /* \"#utility.yul\":20858:20978   */\n      iszero\n      tag_390\n      jumpi\n        /* \"#utility.yul\":20929:20968   */\n      tag_391\n        /* \"#utility.yul\":20966:20967   */\n      0x00\n        /* \"#utility.yul\":20959:20964   */\n      dup3\n        /* \"#utility.yul\":20929:20968   */\n      tag_181\n      jump\t// in\n    tag_391:\n        /* \"#utility.yul\":20902:20903   */\n      0x01\n        /* \"#utility.yul\":20895:20900   */\n      dup2\n        /* \"#utility.yul\":20891:20904   */\n      add\n        /* \"#utility.yul\":20882:20904   */\n      swap1\n      pop\n        /* \"#utility.yul\":20858:20978   */\n      jump(tag_388)\n    tag_390:\n        /* \"#utility.yul\":20798:20984   */\n      pop\n      pop\n      jump\t// out\n        /* \"#utility.yul\":20990:21533   */\n    tag_183:\n        /* \"#utility.yul\":21091:21093   */\n      0x1f\n        /* \"#utility.yul\":21086:21089   */\n      dup3\n        /* \"#utility.yul\":21083:21094   */\n      gt\n        /* \"#utility.yul\":21080:21526   */\n      iszero\n      tag_393\n      jumpi\n        /* \"#utility.yul\":21125:21163   */\n      tag_394\n        /* \"#utility.yul\":21157:21162   */\n      dup2\n        /* \"#utility.yul\":21125:21163   */\n      tag_173\n      jump\t// in\n    tag_394:\n        /* \"#utility.yul\":21209:21238   */\n      tag_395\n        /* \"#utility.yul\":21227:21237   */\n      dup5\n        /* \"#utility.yul\":21209:21238   */\n      tag_174\n      jump\t// in\n    tag_395:\n        /* \"#utility.yul\":21199:21207   */\n      dup2\n        /* \"#utility.yul\":21195:21239   */\n      add\n        /* \"#utility.yul\":21392:21394   */\n      0x20\n        /* \"#utility.yul\":21380:21390   */\n      dup6\n        /* \"#utility.yul\":21377:21395   */\n      lt\n        /* \"#utility.yul\":21374:21423   */\n      iszero\n      tag_396\n      jumpi\n        /* \"#utility.yul\":21413:21421   */\n      dup2\n        /* \"#utility.yul\":21398:21421   */\n      swap1\n      pop\n        /* \"#utility.yul\":21374:21423   */\n    tag_396:\n        /* \"#utility.yul\":21436:21516   */\n      tag_397\n        /* \"#utility.yul\":21492:21514   */\n      tag_398\n        /* \"#utility.yul\":21510:21513   */\n      dup6\n        /* \"#utility.yul\":21492:21514   */\n      tag_174\n      jump\t// in\n    tag_398:\n        /* \"#utility.yul\":21482:21490   */\n      dup4\n        /* \"#utility.yul\":21478:21515   */\n      add\n        /* \"#utility.yul\":21465:21476   */\n      dup3\n        /* \"#utility.yul\":21436:21516   */\n      tag_182\n      jump\t// in\n    tag_397:\n        /* \"#utility.yul\":21095:21526   */\n      pop\n      pop\n        /* \"#utility.yul\":21080:21526   */\n    tag_393:\n        /* \"#utility.yul\":20990:21533   */\n      pop\n      pop\n      pop\n      jump\t// out\n        /* \"#utility.yul\":21539:21656   */\n    tag_184:\n        /* \"#utility.yul\":21593:21601   */\n      0x00\n        /* \"#utility.yul\":21643:21648   */\n      dup3\n        /* \"#utility.yul\":21637:21641   */\n      dup3\n        /* \"#utility.yul\":21633:21649   */\n      shr\n        /* \"#utility.yul\":21612:21649   */\n      swap1\n      pop\n        /* \"#utility.yul\":21539:21656   */\n      swap3\n      swap2\n      pop\n      pop\n      jump\t// out\n        /* \"#utility.yul\":21662:21831   */\n    tag_185:\n        /* \"#utility.yul\":21706:21712   */\n      0x00\n        /* \"#utility.yul\":21739:21790   */\n      tag_401\n        /* \"#utility.yul\":21787:21788   */\n      0x00\n        /* \"#utility.yul\":21783:21789   */\n      not\n        /* \"#utility.yul\":21775:21780   */\n      dup5\n        /* \"#utility.yul\":21772:21773   */\n      0x08\n        /* \"#utility.yul\":21768:21781   */\n      mul\n        /* \"#utility.yul\":21739:21790   */\n      tag_184\n      jump\t// in\n    tag_401:\n        /* \"#utility.yul\":21735:21791   */\n      not\n        /* \"#utility.yul\":21820:21824   */\n      dup1\n        /* \"#utility.yul\":21814:21818   */\n      dup4\n        /* \"#utility.yul\":21810:21825   */\n      and\n        /* \"#utility.yul\":21800:21825   */\n      swap2\n      pop\n        /* \"#utility.yul\":21713:21831   */\n      pop\n        /* \"#utility.yul\":21662:21831   */\n      swap3\n      swap2\n      pop\n      pop\n      jump\t// out\n        /* \"#utility.yul\":21836:22131   */\n    tag_186:\n        /* \"#utility.yul\":21912:21916   */\n      0x00\n        /* \"#utility.yul\":22058:22087   */\n      tag_403\n        /* \"#utility.yul\":22083:22086   */\n      dup4\n        /* \"#utility.yul\":22077:22081   */\n      dup4\n        /* \"#utility.yul\":22058:22087   */\n      tag_185\n      jump\t// in\n    tag_403:\n        /* \"#utility.yul\":22050:22087   */\n      swap2\n      pop\n        /* \"#utility.yul\":22120:22123   */\n      dup3\n        /* \"#utility.yul\":22117:22118   */\n      0x02\n        /* \"#utility.yul\":22113:22124   */\n      mul\n        /* \"#utility.yul\":22107:22111   */\n      dup3\n        /* \"#utility.yul\":22104:22125   */\n      or\n        /* \"#utility.yul\":22096:22125   */\n      swap1\n      pop\n        /* \"#utility.yul\":21836:22131   */\n      swap3\n      swap2\n      pop\n      pop\n      jump\t// out\n        /* \"#utility.yul\":22136:23531   */\n    tag_79:\n        /* \"#utility.yul\":22253:22290   */\n      tag_405\n        /* \"#utility.yul\":22286:22289   */\n      dup3\n        /* \"#utility.yul\":22253:22290   */\n      tag_129\n      jump\t// in\n    tag_405:\n        /* \"#utility.yul\":22355:22373   */\n      0xffffffffffffffff\n        /* \"#utility.yul\":22347:22353   */\n      dup2\n        /* \"#utility.yul\":22344:22374   */\n      gt\n        /* \"#utility.yul\":22341:22397   */\n      iszero\n      tag_406\n      jumpi\n        /* \"#utility.yul\":22377:22395   */\n      tag_407\n      tag_122\n      jump\t// in\n    tag_407:\n        /* \"#utility.yul\":22341:22397   */\n    tag_406:\n        /* \"#utility.yul\":22421:22459   */\n      tag_408\n        /* \"#utility.yul\":22453:22457   */\n      dup3\n        /* \"#utility.yul\":22447:22458   */\n      sload\n        /* \"#utility.yul\":22421:22459   */\n      tag_43\n      jump\t// in\n    tag_408:\n        /* \"#utility.yul\":22506:22573   */\n      tag_409\n        /* \"#utility.yul\":22566:22572   */\n      dup3\n        /* \"#utility.yul\":22558:22564   */\n      dup3\n        /* \"#utility.yul\":22552:22556   */\n      dup6\n        /* \"#utility.yul\":22506:22573   */\n      tag_183\n      jump\t// in\n    tag_409:\n        /* \"#utility.yul\":22600:22601   */\n      0x00\n        /* \"#utility.yul\":22624:22628   */\n      0x20\n        /* \"#utility.yul\":22611:22628   */\n      swap1\n      pop\n        /* \"#utility.yul\":22656:22658   */\n      0x1f\n        /* \"#utility.yul\":22648:22654   */\n      dup4\n        /* \"#utility.yul\":22645:22659   */\n      gt\n        /* \"#utility.yul\":22673:22674   */\n      0x01\n        /* \"#utility.yul\":22668:23286   */\n      dup2\n      eq\n      tag_411\n      jumpi\n        /* \"#utility.yul\":23330:23331   */\n      0x00\n        /* \"#utility.yul\":23347:23353   */\n      dup5\n        /* \"#utility.yul\":23344:23421   */\n      iszero\n      tag_412\n      jumpi\n        /* \"#utility.yul\":23396:23405   */\n      dup3\n        /* \"#utility.yul\":23391:23394   */\n      dup8\n        /* \"#utility.yul\":23387:23406   */\n      add\n        /* \"#utility.yul\":23381:23407   */\n      mload\n        /* \"#utility.yul\":23372:23407   */\n      swap1\n      pop\n        /* \"#utility.yul\":23344:23421   */\n    tag_412:\n        /* \"#utility.yul\":23447:23514   */\n      tag_413\n        /* \"#utility.yul\":23507:23513   */\n      dup6\n        /* \"#utility.yul\":23500:23505   */\n      dup3\n        /* \"#utility.yul\":23447:23514   */\n      tag_186\n      jump\t// in\n    tag_413:\n        /* \"#utility.yul\":23441:23445   */\n      dup7\n        /* \"#utility.yul\":23434:23515   */\n      sstore\n        /* \"#utility.yul\":23303:23525   */\n      pop\n        /* \"#utility.yul\":22638:23525   */\n      jump(tag_410)\n        /* \"#utility.yul\":22668:23286   */\n    tag_411:\n        /* \"#utility.yul\":22720:22724   */\n      0x1f\n        /* \"#utility.yul\":22716:22725   */\n      not\n        /* \"#utility.yul\":22708:22714   */\n      dup5\n        /* \"#utility.yul\":22704:22726   */\n      and\n        /* \"#utility.yul\":22754:22791   */\n      tag_414\n        /* \"#utility.yul\":22786:22790   */\n      dup7\n        /* \"#utility.yul\":22754:22791   */\n      tag_173\n      jump\t// in\n    tag_414:\n        /* \"#utility.yul\":22813:22814   */\n      0x00\n        /* \"#utility.yul\":22827:23035   */\n    tag_415:\n        /* \"#utility.yul\":22841:22848   */\n      dup3\n        /* \"#utility.yul\":22838:22839   */\n      dup2\n        /* \"#utility.yul\":22835:22849   */\n      lt\n        /* \"#utility.yul\":22827:23035   */\n      iszero\n      tag_417\n      jumpi\n        /* \"#utility.yul\":22920:22929   */\n      dup5\n        /* \"#utility.yul\":22915:22918   */\n      dup10\n        /* \"#utility.yul\":22911:22930   */\n      add\n        /* \"#utility.yul\":22905:22931   */\n      mload\n        /* \"#utility.yul\":22897:22903   */\n      dup3\n        /* \"#utility.yul\":22890:22932   */\n      sstore\n        /* \"#utility.yul\":22971:22972   */\n      0x01\n        /* \"#utility.yul\":22963:22969   */\n      dup3\n        /* \"#utility.yul\":22959:22973   */\n      add\n        /* \"#utility.yul\":22949:22973   */\n      swap2\n      pop\n        /* \"#utility.yul\":23018:23020   */\n      0x20\n        /* \"#utility.yul\":23007:23016   */\n      dup6\n        /* \"#utility.yul\":23003:23021   */\n      add\n        /* \"#utility.yul\":22990:23021   */\n      swap5\n      pop\n        /* \"#utility.yul\":22864:22868   */\n      0x20\n        /* \"#utility.yul\":22861:22862   */\n      dup2\n        /* \"#utility.yul\":22857:22869   */\n      add\n        /* \"#utility.yul\":22852:22869   */\n      swap1\n      pop\n        /* \"#utility.yul\":22827:23035   */\n      jump(tag_415)\n    tag_417:\n        /* \"#utility.yul\":23063:23069   */\n      dup7\n        /* \"#utility.yul\":23054:23061   */\n      dup4\n        /* \"#utility.yul\":23051:23070   */\n      lt\n        /* \"#utility.yul\":23048:23227   */\n      iszero\n      tag_418\n      jumpi\n        /* \"#utility.yul\":23121:23130   */\n      dup5\n        /* \"#utility.yul\":23116:23119   */\n      dup10\n        /* \"#utility.yul\":23112:23131   */\n      add\n        /* \"#utility.yul\":23106:23132   */\n      mload\n        /* \"#utility.yul\":23164:23212   */\n      tag_419\n        /* \"#utility.yul\":23206:23210   */\n      0x1f\n        /* \"#utility.yul\":23198:23204   */\n      dup10\n        /* \"#utility.yul\":23194:23211   */\n      and\n        /* \"#utility.yul\":23183:23192   */\n      dup3\n        /* \"#utility.yul\":23164:23212   */\n      tag_185\n      jump\t// in\n    tag_419:\n        /* \"#utility.yul\":23156:23162   */\n      dup4\n        /* \"#utility.yul\":23149:23213   */\n      sstore\n        /* \"#utility.yul\":23071:23227   */\n      pop\n        /* \"#utility.yul\":23048:23227   */\n    tag_418:\n        /* \"#utility.yul\":23273:23274   */\n      0x01\n        /* \"#utility.yul\":23269:23270   */\n      0x02\n        /* \"#utility.yul\":23261:23267   */\n      dup9\n        /* \"#utility.yul\":23257:23271   */\n      mul\n        /* \"#utility.yul\":23253:23275   */\n      add\n        /* \"#utility.yul\":23247:23251   */\n      dup9\n        /* \"#utility.yul\":23240:23276   */\n      sstore\n        /* \"#utility.yul\":22675:23286   */\n      pop\n      pop\n      pop\n        /* \"#utility.yul\":22638:23525   */\n    tag_410:\n      pop\n        /* \"#utility.yul\":22228:23531   */\n      pop\n      pop\n      pop\n        /* \"#utility.yul\":22136:23531   */\n      pop\n      pop\n      jump\t// out\n        /* \"#utility.yul\":23537:23960   */\n    tag_84:\n        /* \"#utility.yul\":23678:23682   */\n      0x00\n        /* \"#utility.yul\":23716:23718   */\n      0x40\n        /* \"#utility.yul\":23705:23714   */\n      dup3\n        /* \"#utility.yul\":23701:23719   */\n      add\n        /* \"#utility.yul\":23693:23719   */\n      swap1\n      pop\n        /* \"#utility.yul\":23729:23800   */\n      tag_421\n        /* \"#utility.yul\":23797:23798   */\n      0x00\n        /* \"#utility.yul\":23786:23795   */\n      dup4\n        /* \"#utility.yul\":23782:23799   */\n      add\n        /* \"#utility.yul\":23773:23779   */\n      dup6\n        /* \"#utility.yul\":23729:23800   */\n      tag_161\n      jump\t// in\n    tag_421:\n        /* \"#utility.yul\":23847:23856   */\n      dup2\n        /* \"#utility.yul\":23841:23845   */\n      dup2\n        /* \"#utility.yul\":23837:23857   */\n      sub\n        /* \"#utility.yul\":23832:23834   */\n      0x20\n        /* \"#utility.yul\":23821:23830   */\n      dup4\n        /* \"#utility.yul\":23817:23835   */\n      add\n        /* \"#utility.yul\":23810:23858   */\n      mstore\n        /* \"#utility.yul\":23875:23953   */\n      tag_422\n        /* \"#utility.yul\":23948:23952   */\n      dup2\n        /* \"#utility.yul\":23939:23945   */\n      dup5\n        /* \"#utility.yul\":23875:23953   */\n      tag_160\n      jump\t// in\n    tag_422:\n        /* \"#utility.yul\":23867:23953   */\n      swap1\n      pop\n        /* \"#utility.yul\":23537:23960   */\n      swap4\n      swap3\n      pop\n      pop\n      pop\n      jump\t// out\n        /* \"#utility.yul\":23966:24480   */\n    tag_89:\n        /* \"#utility.yul\":24127:24131   */\n      0x00\n        /* \"#utility.yul\":24165:24167   */\n      0x40\n        /* \"#utility.yul\":24154:24163   */\n      dup3\n        /* \"#utility.yul\":24150:24168   */\n      add\n        /* \"#utility.yul\":24142:24168   */\n      swap1\n      pop\n        /* \"#utility.yul\":24214:24223   */\n      dup2\n        /* \"#utility.yul\":24208:24212   */\n      dup2\n        /* \"#utility.yul\":24204:24224   */\n      sub\n        /* \"#utility.yul\":24200:24201   */\n      0x00\n        /* \"#utility.yul\":24189:24198   */\n      dup4\n        /* \"#utility.yul\":24185:24202   */\n      add\n        /* \"#utility.yul\":24178:24225   */\n      mstore\n        /* \"#utility.yul\":24242:24320   */\n      tag_424\n        /* \"#utility.yul\":24315:24319   */\n      dup2\n        /* \"#utility.yul\":24306:24312   */\n      dup6\n        /* \"#utility.yul\":24242:24320   */\n      tag_160\n      jump\t// in\n    tag_424:\n        /* \"#utility.yul\":24234:24320   */\n      swap1\n      pop\n        /* \"#utility.yul\":24367:24376   */\n      dup2\n        /* \"#utility.yul\":24361:24365   */\n      dup2\n        /* \"#utility.yul\":24357:24377   */\n      sub\n        /* \"#utility.yul\":24352:24354   */\n      0x20\n        /* \"#utility.yul\":24341:24350   */\n      dup4\n        /* \"#utility.yul\":24337:24355   */\n      add\n        /* \"#utility.yul\":24330:24378   */\n      mstore\n        /* \"#utility.yul\":24395:24473   */\n      tag_425\n        /* \"#utility.yul\":24468:24472   */\n      dup2\n        /* \"#utility.yul\":24459:24465   */\n      dup5\n        /* \"#utility.yul\":24395:24473   */\n      tag_160\n      jump\t// in\n    tag_425:\n        /* \"#utility.yul\":24387:24473   */\n      swap1\n      pop\n        /* \"#utility.yul\":23966:24480   */\n      swap4\n      swap3\n      pop\n      pop\n      pop\n      jump\t// out\n        /* \"#utility.yul\":24486:24652   */\n    tag_187:\n        /* \"#utility.yul\":24626:24644   */\n      0x5265636f7264206e6f7420666f756e6400000000000000000000000000000000\n        /* \"#utility.yul\":24622:24623   */\n      0x00\n        /* \"#utility.yul\":24614:24620   */\n      dup3\n        /* \"#utility.yul\":24610:24624   */\n      add\n        /* \"#utility.yul\":24603:24645   */\n      mstore\n        /* \"#utility.yul\":24486:24652   */\n      pop\n      jump\t// out\n        /* \"#utility.yul\":24658:25024   */\n    tag_188:\n        /* \"#utility.yul\":24800:24803   */\n      0x00\n        /* \"#utility.yul\":24821:24888   */\n      tag_428\n        /* \"#utility.yul\":24885:24887   */\n      0x10\n        /* \"#utility.yul\":24880:24883   */\n      dup4\n        /* \"#utility.yul\":24821:24888   */\n      tag_157\n      jump\t// in\n    tag_428:\n        /* \"#utility.yul\":24814:24888   */\n      swap2\n      pop\n        /* \"#utility.yul\":24897:24990   */\n      tag_429\n        /* \"#utility.yul\":24986:24989   */\n      dup3\n        /* \"#utility.yul\":24897:24990   */\n      tag_187\n      jump\t// in\n    tag_429:\n        /* \"#utility.yul\":25015:25017   */\n      0x20\n        /* \"#utility.yul\":25010:25013   */\n      dup3\n        /* \"#utility.yul\":25006:25018   */\n      add\n        /* \"#utility.yul\":24999:25018   */\n      swap1\n      pop\n        /* \"#utility.yul\":24658:25024   */\n      swap2\n      swap1\n      pop\n      jump\t// out\n        /* \"#utility.yul\":25030:25449   */\n    tag_95:\n        /* \"#utility.yul\":25196:25200   */\n      0x00\n        /* \"#utility.yul\":25234:25236   */\n      0x20\n        /* \"#utility.yul\":25223:25232   */\n      dup3\n        /* \"#utility.yul\":25219:25237   */\n      add\n        /* \"#utility.yul\":25211:25237   */\n      swap1\n      pop\n        /* \"#utility.yul\":25283:25292   */\n      dup2\n        /* \"#utility.yul\":25277:25281   */\n      dup2\n        /* \"#utility.yul\":25273:25293   */\n      sub\n        /* \"#utility.yul\":25269:25270   */\n      0x00\n        /* \"#utility.yul\":25258:25267   */\n      dup4\n        /* \"#utility.yul\":25254:25271   */\n      add\n        /* \"#utility.yul\":25247:25294   */\n      mstore\n        /* \"#utility.yul\":25311:25442   */\n      tag_431\n        /* \"#utility.yul\":25437:25441   */\n      dup2\n        /* \"#utility.yul\":25311:25442   */\n      tag_188\n      jump\t// in\n    tag_431:\n        /* \"#utility.yul\":25303:25442   */\n      swap1\n      pop\n        /* \"#utility.yul\":25030:25449   */\n      swap2\n      swap1\n      pop\n      jump\t// out\n\n    auxdata: 0xa2646970667358221220f8a942d607c77ad8ae5340ba645df210d44732b31e7723b1c15408c10ffb211c64736f6c634300081e0033\n}\n",
				"bytecode": {
					"linkReferences": {},
					"object": "608060405234801561001057600080fd5b50604051611a2d380380611a2d8339818101604052810190610032919061011d565b816000806101000a81548173ffffffffffffffffffffffffffffffffffffffff021916908373ffffffffffffffffffffffffffffffffffffffff16021790555080600160006101000a81548173ffffffffffffffffffffffffffffffffffffffff021916908373ffffffffffffffffffffffffffffffffffffffff160217905550505061015d565b600080fd5b600073ffffffffffffffffffffffffffffffffffffffff82169050919050565b60006100ea826100bf565b9050919050565b6100fa816100df565b811461010557600080fd5b50565b600081519050610117816100f1565b92915050565b60008060408385031215610134576101336100ba565b5b600061014285828601610108565b925050602061015385828601610108565b9150509250929050565b6118c18061016c6000396000f3fe608060405234801561001057600080fd5b50600436106100625760003560e01c80631172ac67146100675780631238d68d1461009757806313007d55146100b35780631a9e48f5146100d15780635250c6e214610101578063c1816dfb1461011f575b600080fd5b610081600480360381019061007c9190610d6e565b61014f565b60405161008e9190610efa565b60405180910390f35b6100b160048036038101906100ac9190610f1c565b6104a6565b005b6100bb610808565b6040516100c89190610ff3565b60405180910390f35b6100eb60048036038101906100e69190610d6e565b61082c565b6040516100f89190610efa565b60405180910390f35b610109610a98565b604051610116919061102f565b60405180910390f35b61013960048036038101906101349190611076565b610abe565b6040516101469190611165565b60405180910390f35b610157610bd6565b600060028360405161016991906111c3565b908152602001604051809103902060405180608001604052908160008201805461019290611209565b80601f01602080910402602001604051908101604052809291908181526020018280546101be90611209565b801561020b5780601f106101e05761010080835404028352916020019161020b565b820191906000526020600020905b8154815290600101906020018083116101ee57829003601f168201915b5050505050815260200160018201805461022490611209565b80601f016020809104026020016040519081016040528092919081815260200182805461025090611209565b801561029d5780601f106102725761010080835404028352916020019161029d565b820191906000526020600020905b81548152906001019060200180831161028057829003601f168201915b505050505081526020016002820160009054906101000a900473ffffffffffffffffffffffffffffffffffffffff1673ffffffffffffffffffffffffffffffffffffffff1673ffffffffffffffffffffffffffffffffffffffff1681526020016003820154815250509050600073ffffffffffffffffffffffffffffffffffffffff16816040015173ffffffffffffffffffffffffffffffffffffffff160361037b576040517f08c379a000000000000000000000000000000000000000000000000000000000815260040161037290611297565b60405180910390fd5b60003373ffffffffffffffffffffffffffffffffffffffff16826040015173ffffffffffffffffffffffffffffffffffffffff1614905060008060009054906101000a900473ffffffffffffffffffffffffffffffffffffffff1673ffffffffffffffffffffffffffffffffffffffff166313bd20e286336040518363ffffffff1660e01b81526004016104109291906112ff565b602060405180830381865afa15801561042d573d6000803e3d6000fd5b505050506040513d601f19601f820116820180604052508101906104519190611367565b9050818061045c5750805b61049b576040517f08c379a0000000000000000000000000000000000000000000000000000000008152600401610492906113e0565b60405180910390fd5b829350505050919050565b60008251116104ea576040517f08c379a00000000000000000000000000000000000000000000000000000000081526004016104e19061144c565b60405180910390fd5b600081511161052e576040517f08c379a0000000000000000000000000000000000000000000000000000000008152600401610525906114b8565b60405180910390fd5b600073ffffffffffffffffffffffffffffffffffffffff1660028360405161055691906111c3565b908152602001604051809103902060020160009054906101000a900473ffffffffffffffffffffffffffffffffffffffff1673ffffffffffffffffffffffffffffffffffffffff16146105de576040517f08c379a00000000000000000000000000000000000000000000000000000000081526004016105d590611524565b60405180910390fd5b60405180608001604052808381526020018281526020013373ffffffffffffffffffffffffffffffffffffffff1681526020014281525060028360405161062591906111c3565b9081526020016040518091039020600082015181600001908161064891906116e6565b50602082015181600101908161065e91906116e6565b5060408201518160020160006101000a81548173ffffffffffffffffffffffffffffffffffffffff021916908373ffffffffffffffffffffffffffffffffffffffff16021790555060608201518160030155905050600360003373ffffffffffffffffffffffffffffffffffffffff1673ffffffffffffffffffffffffffffffffffffffff1681526020019081526020016000208290806001815401808255809150506001900390600052602060002001600090919091909150908161072491906116e6565b50600160009054906101000a900473ffffffffffffffffffffffffffffffffffffffff1673ffffffffffffffffffffffffffffffffffffffff1663edefcf8833846040518363ffffffff1660e01b81526004016107829291906117b8565b600060405180830381600087803b15801561079c57600080fd5b505af11580156107b0573d6000803e3d6000fd5b505050503373ffffffffffffffffffffffffffffffffffffffff167fb723d07463f1068cac6f7fd185f491afa8cc9d5bf4866dfa8f064f64e528bc2883836040516107fc9291906117e8565b60405180910390a25050565b60008054906101000a900473ffffffffffffffffffffffffffffffffffffffff1681565b610834610bd6565b600073ffffffffffffffffffffffffffffffffffffffff1660028360405161085c91906111c3565b908152602001604051809103902060020160009054906101000a900473ffffffffffffffffffffffffffffffffffffffff1673ffffffffffffffffffffffffffffffffffffffff16036108e4576040517f08c379a00000000000000000000000000000000000000000000000000000000081526004016108db9061186b565b60405180910390fd5b6002826040516108f491906111c3565b908152602001604051809103902060405180608001604052908160008201805461091d90611209565b80601f016020809104026020016040519081016040528092919081815260200182805461094990611209565b80156109965780601f1061096b57610100808354040283529160200191610996565b820191906000526020600020905b81548152906001019060200180831161097957829003601f168201915b505050505081526020016001820180546109af90611209565b80601f01602080910402602001604051908101604052809291908181526020018280546109db90611209565b8015610a285780601f106109fd57610100808354040283529160200191610a28565b820191906000526020600020905b815481529060010190602001808311610a0b57829003601f168201915b505050505081526020016002820160009054906101000a900473ffffffffffffffffffffffffffffffffffffffff1673ffffffffffffffffffffffffffffffffffffffff1673ffffffffffffffffffffffffffffffffffffffff1681526020016003820154815250509050919050565b600160009054906101000a900473ffffffffffffffffffffffffffffffffffffffff1681565b6060600360008373ffffffffffffffffffffffffffffffffffffffff1673ffffffffffffffffffffffffffffffffffffffff168152602001908152602001600020805480602002602001604051908101604052809291908181526020016000905b82821015610bcb578382906000526020600020018054610b3e90611209565b80601f0160208091040260200160405190810160405280929190818152602001828054610b6a90611209565b8015610bb75780601f10610b8c57610100808354040283529160200191610bb7565b820191906000526020600020905b815481529060010190602001808311610b9a57829003601f168201915b505050505081526020019060010190610b1f565b505050509050919050565b60405180608001604052806060815260200160608152602001600073ffffffffffffffffffffffffffffffffffffffff168152602001600081525090565b6000604051905090565b600080fd5b600080fd5b600080fd5b600080fd5b6000601f19601f8301169050919050565b7f4e487b7100000000000000000000000000000000000000000000000000000000600052604160045260246000fd5b610c7b82610c32565b810181811067ffffffffffffffff82111715610c9a57610c99610c43565b5b80604052505050565b6000610cad610c14565b9050610cb98282610c72565b919050565b600067ffffffffffffffff821115610cd957610cd8610c43565b5b610ce282610c32565b9050602081019050919050565b82818337600083830152505050565b6000610d11610d0c84610cbe565b610ca3565b905082815260208101848484011115610d2d57610d2c610c2d565b5b610d38848285610cef565b509392505050565b600082601f830112610d5557610d54610c28565b5b8135610d65848260208601610cfe565b91505092915050565b600060208284031215610d8457610d83610c1e565b5b600082013567ffffffffffffffff811115610da257610da1610c23565b5b610dae84828501610d40565b91505092915050565b600081519050919050565b600082825260208201905092915050565b60005b83811015610df1578082015181840152602081019050610dd6565b60008484015250505050565b6000610e0882610db7565b610e128185610dc2565b9350610e22818560208601610dd3565b610e2b81610c32565b840191505092915050565b600073ffffffffffffffffffffffffffffffffffffffff82169050919050565b6000610e6182610e36565b9050919050565b610e7181610e56565b82525050565b6000819050919050565b610e8a81610e77565b82525050565b60006080830160008301518482036000860152610ead8282610dfd565b91505060208301518482036020860152610ec78282610dfd565b9150506040830151610edc6040860182610e68565b506060830151610eef6060860182610e81565b508091505092915050565b60006020820190508181036000830152610f148184610e90565b905092915050565b60008060408385031215610f3357610f32610c1e565b5b600083013567ffffffffffffffff811115610f5157610f50610c23565b5b610f5d85828601610d40565b925050602083013567ffffffffffffffff811115610f7e57610f7d610c23565b5b610f8a85828601610d40565b9150509250929050565b6000819050919050565b6000610fb9610fb4610faf84610e36565b610f94565b610e36565b9050919050565b6000610fcb82610f9e565b9050919050565b6000610fdd82610fc0565b9050919050565b610fed81610fd2565b82525050565b60006020820190506110086000830184610fe4565b92915050565b600061101982610fc0565b9050919050565b6110298161100e565b82525050565b60006020820190506110446000830184611020565b92915050565b61105381610e56565b811461105e57600080fd5b50565b6000813590506110708161104a565b92915050565b60006020828403121561108c5761108b610c1e565b5b600061109a84828501611061565b91505092915050565b600081519050919050565b600082825260208201905092915050565b6000819050602082019050919050565b60006110db8383610dfd565b905092915050565b6000602082019050919050565b60006110fb826110a3565b61110581856110ae565b935083602082028501611117856110bf565b8060005b85811015611153578484038952815161113485826110cf565b945061113f836110e3565b925060208a0199505060018101905061111b565b50829750879550505050505092915050565b6000602082019050818103600083015261117f81846110f0565b905092915050565b600081905092915050565b600061119d82610db7565b6111a78185611187565b93506111b7818560208601610dd3565b80840191505092915050565b60006111cf8284611192565b915081905092915050565b7f4e487b7100000000000000000000000000000000000000000000000000000000600052602260045260246000fd5b6000600282049050600182168061122157607f821691505b602082108103611234576112336111da565b5b50919050565b600082825260208201905092915050565b7f5265636f726420646f6573206e6f742065786973740000000000000000000000600082015250565b600061128160158361123a565b915061128c8261124b565b602082019050919050565b600060208201905081810360008301526112b081611274565b9050919050565b60006112c282610db7565b6112cc818561123a565b93506112dc818560208601610dd3565b6112e581610c32565b840191505092915050565b6112f981610e56565b82525050565b6000604082019050818103600083015261131981856112b7565b905061132860208301846112f0565b9392505050565b60008115159050919050565b6113448161132f565b811461134f57600080fd5b50565b6000815190506113618161133b565b92915050565b60006020828403121561137d5761137c610c1e565b5b600061138b84828501611352565b91505092915050565b7f4163636573732064656e69656400000000000000000000000000000000000000600082015250565b60006113ca600d8361123a565b91506113d582611394565b602082019050919050565b600060208201905081810360008301526113f9816113bd565b9050919050565b7f496e76616c69642066696c652068617368000000000000000000000000000000600082015250565b600061143660118361123a565b915061144182611400565b602082019050919050565b6000602082019050818103600083015261146581611429565b9050919050565b7f496e76616c69642066696c652074797065000000000000000000000000000000600082015250565b60006114a260118361123a565b91506114ad8261146c565b602082019050919050565b600060208201905081810360008301526114d181611495565b9050919050565b7f5265636f726420616c7265616479206578697374730000000000000000000000600082015250565b600061150e60158361123a565b9150611519826114d8565b602082019050919050565b6000602082019050818103600083015261153d81611501565b9050919050565b60008190508160005260206000209050919050565b60006020601f8301049050919050565b600082821b905092915050565b6000600883026115a67fffffffffffffffffffffffffffffffffffffffffffffffffffffffffffffffff82611569565b6115b08683611569565b95508019841693508086168417925050509392505050565b60006115e36115de6115d984610e77565b610f94565b610e77565b9050919050565b6000819050919050565b6115fd836115c8565b611611611609826115ea565b848454611576565b825550505050565b600090565b611626611619565b6116318184846115f4565b505050565b5b818110156116555761164a60008261161e565b600181019050611637565b5050565b601f82111561169a5761166b81611544565b61167484611559565b81016020851015611683578190505b61169761168f85611559565b830182611636565b50505b505050565b600082821c905092915050565b60006116bd6000198460080261169f565b1980831691505092915050565b60006116d683836116ac565b9150826002028217905092915050565b6116ef82610db7565b67ffffffffffffffff81111561170857611707610c43565b5b6117128254611209565b61171d828285611659565b600060209050601f831160018114611750576000841561173e578287015190505b61174885826116ca565b8655506117b0565b601f19841661175e86611544565b60005b8281101561178657848901518255600182019150602085019450602081019050611761565b868310156117a3578489015161179f601f8916826116ac565b8355505b6001600288020188555050505b505050505050565b60006040820190506117cd60008301856112f0565b81810360208301526117df81846112b7565b90509392505050565b6000604082019050818103600083015261180281856112b7565b9050818103602083015261181681846112b7565b90509392505050565b7f5265636f7264206e6f7420666f756e6400000000000000000000000000000000600082015250565b600061185560108361123a565b91506118608261181f565b602082019050919050565b6000602082019050818103600083015261188481611848565b905091905056fea2646970667358221220f8a942d607c77ad8ae5340ba645df210d44732b31e7723b1c15408c10ffb211c64736f6c634300081e0033",
					"opcodes": "PUSH1 0x80 PUSH1 0x40 MSTORE CALLVALUE DUP1 ISZERO PUSH2 0x10 JUMPI PUSH1 0x0 DUP1 REVERT JUMPDEST POP PUSH1 0x40 MLOAD PUSH2 0x1A2D CODESIZE SUB DUP1 PUSH2 0x1A2D DUP4 CODECOPY DUP2 DUP2 ADD PUSH1 0x40 MSTORE DUP2 ADD SWAP1 PUSH2 0x32 SWAP2 SWAP1 PUSH2 0x11D JUMP JUMPDEST DUP2 PUSH1 0x0 DUP1 PUSH2 0x100 EXP DUP2 SLOAD DUP2 PUSH20 0xFFFFFFFFFFFFFFFFFFFFFFFFFFFFFFFFFFFFFFFF MUL NOT AND SWAP1 DUP4 PUSH20 0xFFFFFFFFFFFFFFFFFFFFFFFFFFFFFFFFFFFFFFFF AND MUL OR SWAP1 SSTORE POP DUP1 PUSH1 0x1 PUSH1 0x0 PUSH2 0x100 EXP DUP2 SLOAD DUP2 PUSH20 0xFFFFFFFFFFFFFFFFFFFFFFFFFFFFFFFFFFFFFFFF MUL NOT AND SWAP1 DUP4 PUSH20 0xFFFFFFFFFFFFFFFFFFFFFFFFFFFFFFFFFFFFFFFF AND MUL OR SWAP1 SSTORE POP POP POP PUSH2 0x15D JUMP JUMPDEST PUSH1 0x0 DUP1 REVERT JUMPDEST PUSH1 0x0 PUSH20 0xFFFFFFFFFFFFFFFFFFFFFFFFFFFFFFFFFFFFFFFF DUP3 AND SWAP1 POP SWAP2 SWAP1 POP JUMP JUMPDEST PUSH1 0x0 PUSH2 0xEA DUP3 PUSH2 0xBF JUMP JUMPDEST SWAP1 POP SWAP2 SWAP1 POP JUMP JUMPDEST PUSH2 0xFA DUP2 PUSH2 0xDF JUMP JUMPDEST DUP2 EQ PUSH2 0x105 JUMPI PUSH1 0x0 DUP1 REVERT JUMPDEST POP JUMP JUMPDEST PUSH1 0x0 DUP2 MLOAD SWAP1 POP PUSH2 0x117 DUP2 PUSH2 0xF1 JUMP JUMPDEST SWAP3 SWAP2 POP POP JUMP JUMPDEST PUSH1 0x0 DUP1 PUSH1 0x40 DUP4 DUP6 SUB SLT ISZERO PUSH2 0x134 JUMPI PUSH2 0x133 PUSH2 0xBA JUMP JUMPDEST JUMPDEST PUSH1 0x0 PUSH2 0x142 DUP6 DUP3 DUP7 ADD PUSH2 0x108 JUMP JUMPDEST SWAP3 POP POP PUSH1 0x20 PUSH2 0x153 DUP6 DUP3 DUP7 ADD PUSH2 0x108 JUMP JUMPDEST SWAP2 POP POP SWAP3 POP SWAP3 SWAP1 POP JUMP JUMPDEST PUSH2 0x18C1 DUP1 PUSH2 0x16C PUSH1 0x0 CODECOPY PUSH1 0x0 RETURN INVALID PUSH1 0x80 PUSH1 0x40 MSTORE CALLVALUE DUP1 ISZERO PUSH2 0x10 JUMPI PUSH1 0x0 DUP1 REVERT JUMPDEST POP PUSH1 0x4 CALLDATASIZE LT PUSH2 0x62 JUMPI PUSH1 0x0 CALLDATALOAD PUSH1 0xE0 SHR DUP1 PUSH4 0x1172AC67 EQ PUSH2 0x67 JUMPI DUP1 PUSH4 0x1238D68D EQ PUSH2 0x97 JUMPI DUP1 PUSH4 0x13007D55 EQ PUSH2 0xB3 JUMPI DUP1 PUSH4 0x1A9E48F5 EQ PUSH2 0xD1 JUMPI DUP1 PUSH4 0x5250C6E2 EQ PUSH2 0x101 JUMPI DUP1 PUSH4 0xC1816DFB EQ PUSH2 0x11F JUMPI JUMPDEST PUSH1 0x0 DUP1 REVERT JUMPDEST PUSH2 0x81 PUSH1 0x4 DUP1 CALLDATASIZE SUB DUP2 ADD SWAP1 PUSH2 0x7C SWAP2 SWAP1 PUSH2 0xD6E JUMP JUMPDEST PUSH2 0x14F JUMP JUMPDEST PUSH1 0x40 MLOAD PUSH2 0x8E SWAP2 SWAP1 PUSH2 0xEFA JUMP JUMPDEST PUSH1 0x40 MLOAD DUP1 SWAP2 SUB SWAP1 RETURN JUMPDEST PUSH2 0xB1 PUSH1 0x4 DUP1 CALLDATASIZE SUB DUP2 ADD SWAP1 PUSH2 0xAC SWAP2 SWAP1 PUSH2 0xF1C JUMP JUMPDEST PUSH2 0x4A6 JUMP JUMPDEST STOP JUMPDEST PUSH2 0xBB PUSH2 0x808 JUMP JUMPDEST PUSH1 0x40 MLOAD PUSH2 0xC8 SWAP2 SWAP1 PUSH2 0xFF3 JUMP JUMPDEST PUSH1 0x40 MLOAD DUP1 SWAP2 SUB SWAP1 RETURN JUMPDEST PUSH2 0xEB PUSH1 0x4 DUP1 CALLDATASIZE SUB DUP2 ADD SWAP1 PUSH2 0xE6 SWAP2 SWAP1 PUSH2 0xD6E JUMP JUMPDEST PUSH2 0x82C JUMP JUMPDEST PUSH1 0x40 MLOAD PUSH2 0xF8 SWAP2 SWAP1 PUSH2 0xEFA JUMP JUMPDEST PUSH1 0x40 MLOAD DUP1 SWAP2 SUB SWAP1 RETURN JUMPDEST PUSH2 0x109 PUSH2 0xA98 JUMP JUMPDEST PUSH1 0x40 MLOAD PUSH2 0x116 SWAP2 SWAP1 PUSH2 0x102F JUMP JUMPDEST PUSH1 0x40 MLOAD DUP1 SWAP2 SUB SWAP1 RETURN JUMPDEST PUSH2 0x139 PUSH1 0x4 DUP1 CALLDATASIZE SUB DUP2 ADD SWAP1 PUSH2 0x134 SWAP2 SWAP1 PUSH2 0x1076 JUMP JUMPDEST PUSH2 0xABE JUMP JUMPDEST PUSH1 0x40 MLOAD PUSH2 0x146 SWAP2 SWAP1 PUSH2 0x1165 JUMP JUMPDEST PUSH1 0x40 MLOAD DUP1 SWAP2 SUB SWAP1 RETURN JUMPDEST PUSH2 0x157 PUSH2 0xBD6 JUMP JUMPDEST PUSH1 0x0 PUSH1 0x2 DUP4 PUSH1 0x40 MLOAD PUSH2 0x169 SWAP2 SWAP1 PUSH2 0x11C3 JUMP JUMPDEST SWAP1 DUP2 MSTORE PUSH1 0x20 ADD PUSH1 0x40 MLOAD DUP1 SWAP2 SUB SWAP1 KECCAK256 PUSH1 0x40 MLOAD DUP1 PUSH1 0x80 ADD PUSH1 0x40 MSTORE SWAP1 DUP2 PUSH1 0x0 DUP3 ADD DUP1 SLOAD PUSH2 0x192 SWAP1 PUSH2 0x1209 JUMP JUMPDEST DUP1 PUSH1 0x1F ADD PUSH1 0x20 DUP1 SWAP2 DIV MUL PUSH1 0x20 ADD PUSH1 0x40 MLOAD SWAP1 DUP2 ADD PUSH1 0x40 MSTORE DUP1 SWAP3 SWAP2 SWAP1 DUP2 DUP2 MSTORE PUSH1 0x20 ADD DUP3 DUP1 SLOAD PUSH2 0x1BE SWAP1 PUSH2 0x1209 JUMP JUMPDEST DUP1 ISZERO PUSH2 0x20B JUMPI DUP1 PUSH1 0x1F LT PUSH2 0x1E0 JUMPI PUSH2 0x100 DUP1 DUP4 SLOAD DIV MUL DUP4 MSTORE SWAP2 PUSH1 0x20 ADD SWAP2 PUSH2 0x20B JUMP JUMPDEST DUP3 ADD SWAP2 SWAP1 PUSH1 0x0 MSTORE PUSH1 0x20 PUSH1 0x0 KECCAK256 SWAP1 JUMPDEST DUP2 SLOAD DUP2 MSTORE SWAP1 PUSH1 0x1 ADD SWAP1 PUSH1 0x20 ADD DUP1 DUP4 GT PUSH2 0x1EE JUMPI DUP3 SWAP1 SUB PUSH1 0x1F AND DUP3 ADD SWAP2 JUMPDEST POP POP POP POP POP DUP2 MSTORE PUSH1 0x20 ADD PUSH1 0x1 DUP3 ADD DUP1 SLOAD PUSH2 0x224 SWAP1 PUSH2 0x1209 JUMP JUMPDEST DUP1 PUSH1 0x1F ADD PUSH1 0x20 DUP1 SWAP2 DIV MUL PUSH1 0x20 ADD PUSH1 0x40 MLOAD SWAP1 DUP2 ADD PUSH1 0x40 MSTORE DUP1 SWAP3 SWAP2 SWAP1 DUP2 DUP2 MSTORE PUSH1 0x20 ADD DUP3 DUP1 SLOAD PUSH2 0x250 SWAP1 PUSH2 0x1209 JUMP JUMPDEST DUP1 ISZERO PUSH2 0x29D JUMPI DUP1 PUSH1 0x1F LT PUSH2 0x272 JUMPI PUSH2 0x100 DUP1 DUP4 SLOAD DIV MUL DUP4 MSTORE SWAP2 PUSH1 0x20 ADD SWAP2 PUSH2 0x29D JUMP JUMPDEST DUP3 ADD SWAP2 SWAP1 PUSH1 0x0 MSTORE PUSH1 0x20 PUSH1 0x0 KECCAK256 SWAP1 JUMPDEST DUP2 SLOAD DUP2 MSTORE SWAP1 PUSH1 0x1 ADD SWAP1 PUSH1 0x20 ADD DUP1 DUP4 GT PUSH2 0x280 JUMPI DUP3 SWAP1 SUB PUSH1 0x1F AND DUP3 ADD SWAP2 JUMPDEST POP POP POP POP POP DUP2 MSTORE PUSH1 0x20 ADD PUSH1 0x2 DUP3 ADD PUSH1 0x0 SWAP1 SLOAD SWAP1 PUSH2 0x100 EXP SWAP1 DIV PUSH20 0xFFFFFFFFFFFFFFFFFFFFFFFFFFFFFFFFFFFFFFFF AND PUSH20 0xFFFFFFFFFFFFFFFFFFFFFFFFFFFFFFFFFFFFFFFF AND PUSH20 0xFFFFFFFFFFFFFFFFFFFFFFFFFFFFFFFFFFFFFFFF AND DUP2 MSTORE PUSH1 0x20 ADD PUSH1 0x3 DUP3 ADD SLOAD DUP2 MSTORE POP POP SWAP1 POP PUSH1 0x0 PUSH20 0xFFFFFFFFFFFFFFFFFFFFFFFFFFFFFFFFFFFFFFFF AND DUP2 PUSH1 0x40 ADD MLOAD PUSH20 0xFFFFFFFFFFFFFFFFFFFFFFFFFFFFFFFFFFFFFFFF AND SUB PUSH2 0x37B JUMPI PUSH1 0x40 MLOAD PUSH32 0x8C379A000000000000000000000000000000000000000000000000000000000 DUP2 MSTORE PUSH1 0x4 ADD PUSH2 0x372 SWAP1 PUSH2 0x1297 JUMP JUMPDEST PUSH1 0x40 MLOAD DUP1 SWAP2 SUB SWAP1 REVERT JUMPDEST PUSH1 0x0 CALLER PUSH20 0xFFFFFFFFFFFFFFFFFFFFFFFFFFFFFFFFFFFFFFFF AND DUP3 PUSH1 0x40 ADD MLOAD PUSH20 0xFFFFFFFFFFFFFFFFFFFFFFFFFFFFFFFFFFFFFFFF AND EQ SWAP1 POP PUSH1 0x0 DUP1 PUSH1 0x0 SWAP1 SLOAD SWAP1 PUSH2 0x100 EXP SWAP1 DIV PUSH20 0xFFFFFFFFFFFFFFFFFFFFFFFFFFFFFFFFFFFFFFFF AND PUSH20 0xFFFFFFFFFFFFFFFFFFFFFFFFFFFFFFFFFFFFFFFF AND PUSH4 0x13BD20E2 DUP7 CALLER PUSH1 0x40 MLOAD DUP4 PUSH4 0xFFFFFFFF AND PUSH1 0xE0 SHL DUP2 MSTORE PUSH1 0x4 ADD PUSH2 0x410 SWAP3 SWAP2 SWAP1 PUSH2 0x12FF JUMP JUMPDEST PUSH1 0x20 PUSH1 0x40 MLOAD DUP1 DUP4 SUB DUP2 DUP7 GAS STATICCALL ISZERO DUP1 ISZERO PUSH2 0x42D JUMPI RETURNDATASIZE PUSH1 0x0 DUP1 RETURNDATACOPY RETURNDATASIZE PUSH1 0x0 REVERT JUMPDEST POP POP POP POP PUSH1 0x40 MLOAD RETURNDATASIZE PUSH1 0x1F NOT PUSH1 0x1F DUP3 ADD AND DUP3 ADD DUP1 PUSH1 0x40 MSTORE POP DUP2 ADD SWAP1 PUSH2 0x451 SWAP2 SWAP1 PUSH2 0x1367 JUMP JUMPDEST SWAP1 POP DUP2 DUP1 PUSH2 0x45C JUMPI POP DUP1 JUMPDEST PUSH2 0x49B JUMPI PUSH1 0x40 MLOAD PUSH32 0x8C379A000000000000000000000000000000000000000000000000000000000 DUP2 MSTORE PUSH1 0x4 ADD PUSH2 0x492 SWAP1 PUSH2 0x13E0 JUMP JUMPDEST PUSH1 0x40 MLOAD DUP1 SWAP2 SUB SWAP1 REVERT JUMPDEST DUP3 SWAP4 POP POP POP POP SWAP2 SWAP1 POP JUMP JUMPDEST PUSH1 0x0 DUP3 MLOAD GT PUSH2 0x4EA JUMPI PUSH1 0x40 MLOAD PUSH32 0x8C379A000000000000000000000000000000000000000000000000000000000 DUP2 MSTORE PUSH1 0x4 ADD PUSH2 0x4E1 SWAP1 PUSH2 0x144C JUMP JUMPDEST PUSH1 0x40 MLOAD DUP1 SWAP2 SUB SWAP1 REVERT JUMPDEST PUSH1 0x0 DUP2 MLOAD GT PUSH2 0x52E JUMPI PUSH1 0x40 MLOAD PUSH32 0x8C379A000000000000000000000000000000000000000000000000000000000 DUP2 MSTORE PUSH1 0x4 ADD PUSH2 0x525 SWAP1 PUSH2 0x14B8 JUMP JUMPDEST PUSH1 0x40 MLOAD DUP1 SWAP2 SUB SWAP1 REVERT JUMPDEST PUSH1 0x0 PUSH20 0xFFFFFFFFFFFFFFFFFFFFFFFFFFFFFFFFFFFFFFFF AND PUSH1 0x2 DUP4 PUSH1 0x40 MLOAD PUSH2 0x556 SWAP2 SWAP1 PUSH2 0x11C3 JUMP JUMPDEST SWAP1 DUP2 MSTORE PUSH1 0x20 ADD PUSH1 0x40 MLOAD DUP1 SWAP2 SUB SWAP1 KECCAK256 PUSH1 0x2 ADD PUSH1 0x0 SWAP1 SLOAD SWAP1 PUSH2 0x100 EXP SWAP1 DIV PUSH20 0xFFFFFFFFFFFFFFFFFFFFFFFFFFFFFFFFFFFFFFFF AND PUSH20 0xFFFFFFFFFFFFFFFFFFFFFFFFFFFFFFFFFFFFFFFF AND EQ PUSH2 0x5DE JUMPI PUSH1 0x40 MLOAD PUSH32 0x8C379A000000000000000000000000000000000000000000000000000000000 DUP2 MSTORE PUSH1 0x4 ADD PUSH2 0x5D5 SWAP1 PUSH2 0x1524 JUMP JUMPDEST PUSH1 0x40 MLOAD DUP1 SWAP2 SUB SWAP1 REVERT JUMPDEST PUSH1 0x40 MLOAD DUP1 PUSH1 0x80 ADD PUSH1 0x40 MSTORE DUP1 DUP4 DUP2 MSTORE PUSH1 0x20 ADD DUP3 DUP2 MSTORE PUSH1 0x20 ADD CALLER PUSH20 0xFFFFFFFFFFFFFFFFFFFFFFFFFFFFFFFFFFFFFFFF AND DUP2 MSTORE PUSH1 0x20 ADD TIMESTAMP DUP2 MSTORE POP PUSH1 0x2 DUP4 PUSH1 0x40 MLOAD PUSH2 0x625 SWAP2 SWAP1 PUSH2 0x11C3 JUMP JUMPDEST SWAP1 DUP2 MSTORE PUSH1 0x20 ADD PUSH1 0x40 MLOAD DUP1 SWAP2 SUB SWAP1 KECCAK256 PUSH1 0x0 DUP3 ADD MLOAD DUP2 PUSH1 0x0 ADD SWAP1 DUP2 PUSH2 0x648 SWAP2 SWAP1 PUSH2 0x16E6 JUMP JUMPDEST POP PUSH1 0x20 DUP3 ADD MLOAD DUP2 PUSH1 0x1 ADD SWAP1 DUP2 PUSH2 0x65E SWAP2 SWAP1 PUSH2 0x16E6 JUMP JUMPDEST POP PUSH1 0x40 DUP3 ADD MLOAD DUP2 PUSH1 0x2 ADD PUSH1 0x0 PUSH2 0x100 EXP DUP2 SLOAD DUP2 PUSH20 0xFFFFFFFFFFFFFFFFFFFFFFFFFFFFFFFFFFFFFFFF MUL NOT AND SWAP1 DUP4 PUSH20 0xFFFFFFFFFFFFFFFFFFFFFFFFFFFFFFFFFFFFFFFF AND MUL OR SWAP1 SSTORE POP PUSH1 0x60 DUP3 ADD MLOAD DUP2 PUSH1 0x3 ADD SSTORE SWAP1 POP POP PUSH1 0x3 PUSH1 0x0 CALLER PUSH20 0xFFFFFFFFFFFFFFFFFFFFFFFFFFFFFFFFFFFFFFFF AND PUSH20 0xFFFFFFFFFFFFFFFFFFFFFFFFFFFFFFFFFFFFFFFF AND DUP2 MSTORE PUSH1 0x20 ADD SWAP1 DUP2 MSTORE PUSH1 0x20 ADD PUSH1 0x0 KECCAK256 DUP3 SWAP1 DUP1 PUSH1 0x1 DUP2 SLOAD ADD DUP1 DUP3 SSTORE DUP1 SWAP2 POP POP PUSH1 0x1 SWAP1 SUB SWAP1 PUSH1 0x0 MSTORE PUSH1 0x20 PUSH1 0x0 KECCAK256 ADD PUSH1 0x0 SWAP1 SWAP2 SWAP1 SWAP2 SWAP1 SWAP2 POP SWAP1 DUP2 PUSH2 0x724 SWAP2 SWAP1 PUSH2 0x16E6 JUMP JUMPDEST POP PUSH1 0x1 PUSH1 0x0 SWAP1 SLOAD SWAP1 PUSH2 0x100 EXP SWAP1 DIV PUSH20 0xFFFFFFFFFFFFFFFFFFFFFFFFFFFFFFFFFFFFFFFF AND PUSH20 0xFFFFFFFFFFFFFFFFFFFFFFFFFFFFFFFFFFFFFFFF AND PUSH4 0xEDEFCF88 CALLER DUP5 PUSH1 0x40 MLOAD DUP4 PUSH4 0xFFFFFFFF AND PUSH1 0xE0 SHL DUP2 MSTORE PUSH1 0x4 ADD PUSH2 0x782 SWAP3 SWAP2 SWAP1 PUSH2 0x17B8 JUMP JUMPDEST PUSH1 0x0 PUSH1 0x40 MLOAD DUP1 DUP4 SUB DUP2 PUSH1 0x0 DUP8 DUP1 EXTCODESIZE ISZERO DUP1 ISZERO PUSH2 0x79C JUMPI PUSH1 0x0 DUP1 REVERT JUMPDEST POP GAS CALL ISZERO DUP1 ISZERO PUSH2 0x7B0 JUMPI RETURNDATASIZE PUSH1 0x0 DUP1 RETURNDATACOPY RETURNDATASIZE PUSH1 0x0 REVERT JUMPDEST POP POP POP POP CALLER PUSH20 0xFFFFFFFFFFFFFFFFFFFFFFFFFFFFFFFFFFFFFFFF AND PUSH32 0xB723D07463F1068CAC6F7FD185F491AFA8CC9D5BF4866DFA8F064F64E528BC28 DUP4 DUP4 PUSH1 0x40 MLOAD PUSH2 0x7FC SWAP3 SWAP2 SWAP1 PUSH2 0x17E8 JUMP JUMPDEST PUSH1 0x40 MLOAD DUP1 SWAP2 SUB SWAP1 LOG2 POP POP JUMP JUMPDEST PUSH1 0x0 DUP1 SLOAD SWAP1 PUSH2 0x100 EXP SWAP1 DIV PUSH20 0xFFFFFFFFFFFFFFFFFFFFFFFFFFFFFFFFFFFFFFFF AND DUP2 JUMP JUMPDEST PUSH2 0x834 PUSH2 0xBD6 JUMP JUMPDEST PUSH1 0x0 PUSH20 0xFFFFFFFFFFFFFFFFFFFFFFFFFFFFFFFFFFFFFFFF AND PUSH1 0x2 DUP4 PUSH1 0x40 MLOAD PUSH2 0x85C SWAP2 SWAP1 PUSH2 0x11C3 JUMP JUMPDEST SWAP1 DUP2 MSTORE PUSH1 0x20 ADD PUSH1 0x40 MLOAD DUP1 SWAP2 SUB SWAP1 KECCAK256 PUSH1 0x2 ADD PUSH1 0x0 SWAP1 SLOAD SWAP1 PUSH2 0x100 EXP SWAP1 DIV PUSH20 0xFFFFFFFFFFFFFFFFFFFFFFFFFFFFFFFFFFFFFFFF AND PUSH20 0xFFFFFFFFFFFFFFFFFFFFFFFFFFFFFFFFFFFFFFFF AND SUB PUSH2 0x8E4 JUMPI PUSH1 0x40 MLOAD PUSH32 0x8C379A000000000000000000000000000000000000000000000000000000000 DUP2 MSTORE PUSH1 0x4 ADD PUSH2 0x8DB SWAP1 PUSH2 0x186B JUMP JUMPDEST PUSH1 0x40 MLOAD DUP1 SWAP2 SUB SWAP1 REVERT JUMPDEST PUSH1 0x2 DUP3 PUSH1 0x40 MLOAD PUSH2 0x8F4 SWAP2 SWAP1 PUSH2 0x11C3 JUMP JUMPDEST SWAP1 DUP2 MSTORE PUSH1 0x20 ADD PUSH1 0x40 MLOAD DUP1 SWAP2 SUB SWAP1 KECCAK256 PUSH1 0x40 MLOAD DUP1 PUSH1 0x80 ADD PUSH1 0x40 MSTORE SWAP1 DUP2 PUSH1 0x0 DUP3 ADD DUP1 SLOAD PUSH2 0x91D SWAP1 PUSH2 0x1209 JUMP JUMPDEST DUP1 PUSH1 0x1F ADD PUSH1 0x20 DUP1 SWAP2 DIV MUL PUSH1 0x20 ADD PUSH1 0x40 MLOAD SWAP1 DUP2 ADD PUSH1 0x40 MSTORE DUP1 SWAP3 SWAP2 SWAP1 DUP2 DUP2 MSTORE PUSH1 0x20 ADD DUP3 DUP1 SLOAD PUSH2 0x949 SWAP1 PUSH2 0x1209 JUMP JUMPDEST DUP1 ISZERO PUSH2 0x996 JUMPI DUP1 PUSH1 0x1F LT PUSH2 0x96B JUMPI PUSH2 0x100 DUP1 DUP4 SLOAD DIV MUL DUP4 MSTORE SWAP2 PUSH1 0x20 ADD SWAP2 PUSH2 0x996 JUMP JUMPDEST DUP3 ADD SWAP2 SWAP1 PUSH1 0x0 MSTORE PUSH1 0x20 PUSH1 0x0 KECCAK256 SWAP1 JUMPDEST DUP2 SLOAD DUP2 MSTORE SWAP1 PUSH1 0x1 ADD SWAP1 PUSH1 0x20 ADD DUP1 DUP4 GT PUSH2 0x979 JUMPI DUP3 SWAP1 SUB PUSH1 0x1F AND DUP3 ADD SWAP2 JUMPDEST POP POP POP POP POP DUP2 MSTORE PUSH1 0x20 ADD PUSH1 0x1 DUP3 ADD DUP1 SLOAD PUSH2 0x9AF SWAP1 PUSH2 0x1209 JUMP JUMPDEST DUP1 PUSH1 0x1F ADD PUSH1 0x20 DUP1 SWAP2 DIV MUL PUSH1 0x20 ADD PUSH1 0x40 MLOAD SWAP1 DUP2 ADD PUSH1 0x40 MSTORE DUP1 SWAP3 SWAP2 SWAP1 DUP2 DUP2 MSTORE PUSH1 0x20 ADD DUP3 DUP1 SLOAD PUSH2 0x9DB SWAP1 PUSH2 0x1209 JUMP JUMPDEST DUP1 ISZERO PUSH2 0xA28 JUMPI DUP1 PUSH1 0x1F LT PUSH2 0x9FD JUMPI PUSH2 0x100 DUP1 DUP4 SLOAD DIV MUL DUP4 MSTORE SWAP2 PUSH1 0x20 ADD SWAP2 PUSH2 0xA28 JUMP JUMPDEST DUP3 ADD SWAP2 SWAP1 PUSH1 0x0 MSTORE PUSH1 0x20 PUSH1 0x0 KECCAK256 SWAP1 JUMPDEST DUP2 SLOAD DUP2 MSTORE SWAP1 PUSH1 0x1 ADD SWAP1 PUSH1 0x20 ADD DUP1 DUP4 GT PUSH2 0xA0B JUMPI DUP3 SWAP1 SUB PUSH1 0x1F AND DUP3 ADD SWAP2 JUMPDEST POP POP POP POP POP DUP2 MSTORE PUSH1 0x20 ADD PUSH1 0x2 DUP3 ADD PUSH1 0x0 SWAP1 SLOAD SWAP1 PUSH2 0x100 EXP SWAP1 DIV PUSH20 0xFFFFFFFFFFFFFFFFFFFFFFFFFFFFFFFFFFFFFFFF AND PUSH20 0xFFFFFFFFFFFFFFFFFFFFFFFFFFFFFFFFFFFFFFFF AND PUSH20 0xFFFFFFFFFFFFFFFFFFFFFFFFFFFFFFFFFFFFFFFF AND DUP2 MSTORE PUSH1 0x20 ADD PUSH1 0x3 DUP3 ADD SLOAD DUP2 MSTORE POP POP SWAP1 POP SWAP2 SWAP1 POP JUMP JUMPDEST PUSH1 0x1 PUSH1 0x0 SWAP1 SLOAD SWAP1 PUSH2 0x100 EXP SWAP1 DIV PUSH20 0xFFFFFFFFFFFFFFFFFFFFFFFFFFFFFFFFFFFFFFFF AND DUP2 JUMP JUMPDEST PUSH1 0x60 PUSH1 0x3 PUSH1 0x0 DUP4 PUSH20 0xFFFFFFFFFFFFFFFFFFFFFFFFFFFFFFFFFFFFFFFF AND PUSH20 0xFFFFFFFFFFFFFFFFFFFFFFFFFFFFFFFFFFFFFFFF AND DUP2 MSTORE PUSH1 0x20 ADD SWAP1 DUP2 MSTORE PUSH1 0x20 ADD PUSH1 0x0 KECCAK256 DUP1 SLOAD DUP1 PUSH1 0x20 MUL PUSH1 0x20 ADD PUSH1 0x40 MLOAD SWAP1 DUP2 ADD PUSH1 0x40 MSTORE DUP1 SWAP3 SWAP2 SWAP1 DUP2 DUP2 MSTORE PUSH1 0x20 ADD PUSH1 0x0 SWAP1 JUMPDEST DUP3 DUP3 LT ISZERO PUSH2 0xBCB JUMPI DUP4 DUP3 SWAP1 PUSH1 0x0 MSTORE PUSH1 0x20 PUSH1 0x0 KECCAK256 ADD DUP1 SLOAD PUSH2 0xB3E SWAP1 PUSH2 0x1209 JUMP JUMPDEST DUP1 PUSH1 0x1F ADD PUSH1 0x20 DUP1 SWAP2 DIV MUL PUSH1 0x20 ADD PUSH1 0x40 MLOAD SWAP1 DUP2 ADD PUSH1 0x40 MSTORE DUP1 SWAP3 SWAP2 SWAP1 DUP2 DUP2 MSTORE PUSH1 0x20 ADD DUP3 DUP1 SLOAD PUSH2 0xB6A SWAP1 PUSH2 0x1209 JUMP JUMPDEST DUP1 ISZERO PUSH2 0xBB7 JUMPI DUP1 PUSH1 0x1F LT PUSH2 0xB8C JUMPI PUSH2 0x100 DUP1 DUP4 SLOAD DIV MUL DUP4 MSTORE SWAP2 PUSH1 0x20 ADD SWAP2 PUSH2 0xBB7 JUMP JUMPDEST DUP3 ADD SWAP2 SWAP1 PUSH1 0x0 MSTORE PUSH1 0x20 PUSH1 0x0 KECCAK256 SWAP1 JUMPDEST DUP2 SLOAD DUP2 MSTORE SWAP1 PUSH1 0x1 ADD SWAP1 PUSH1 0x20 ADD DUP1 DUP4 GT PUSH2 0xB9A JUMPI DUP3 SWAP1 SUB PUSH1 0x1F AND DUP3 ADD SWAP2 JUMPDEST POP POP POP POP POP DUP2 MSTORE PUSH1 0x20 ADD SWAP1 PUSH1 0x1 ADD SWAP1 PUSH2 0xB1F JUMP JUMPDEST POP POP POP POP SWAP1 POP SWAP2 SWAP1 POP JUMP JUMPDEST PUSH1 0x40 MLOAD DUP1 PUSH1 0x80 ADD PUSH1 0x40 MSTORE DUP1 PUSH1 0x60 DUP2 MSTORE PUSH1 0x20 ADD PUSH1 0x60 DUP2 MSTORE PUSH1 0x20 ADD PUSH1 0x0 PUSH20 0xFFFFFFFFFFFFFFFFFFFFFFFFFFFFFFFFFFFFFFFF AND DUP2 MSTORE PUSH1 0x20 ADD PUSH1 0x0 DUP2 MSTORE POP SWAP1 JUMP JUMPDEST PUSH1 0x0 PUSH1 0x40 MLOAD SWAP1 POP SWAP1 JUMP JUMPDEST PUSH1 0x0 DUP1 REVERT JUMPDEST PUSH1 0x0 DUP1 REVERT JUMPDEST PUSH1 0x0 DUP1 REVERT JUMPDEST PUSH1 0x0 DUP1 REVERT JUMPDEST PUSH1 0x0 PUSH1 0x1F NOT PUSH1 0x1F DUP4 ADD AND SWAP1 POP SWAP2 SWAP1 POP JUMP JUMPDEST PUSH32 0x4E487B7100000000000000000000000000000000000000000000000000000000 PUSH1 0x0 MSTORE PUSH1 0x41 PUSH1 0x4 MSTORE PUSH1 0x24 PUSH1 0x0 REVERT JUMPDEST PUSH2 0xC7B DUP3 PUSH2 0xC32 JUMP JUMPDEST DUP2 ADD DUP2 DUP2 LT PUSH8 0xFFFFFFFFFFFFFFFF DUP3 GT OR ISZERO PUSH2 0xC9A JUMPI PUSH2 0xC99 PUSH2 0xC43 JUMP JUMPDEST JUMPDEST DUP1 PUSH1 0x40 MSTORE POP POP POP JUMP JUMPDEST PUSH1 0x0 PUSH2 0xCAD PUSH2 0xC14 JUMP JUMPDEST SWAP1 POP PUSH2 0xCB9 DUP3 DUP3 PUSH2 0xC72 JUMP JUMPDEST SWAP2 SWAP1 POP JUMP JUMPDEST PUSH1 0x0 PUSH8 0xFFFFFFFFFFFFFFFF DUP3 GT ISZERO PUSH2 0xCD9 JUMPI PUSH2 0xCD8 PUSH2 0xC43 JUMP JUMPDEST JUMPDEST PUSH2 0xCE2 DUP3 PUSH2 0xC32 JUMP JUMPDEST SWAP1 POP PUSH1 0x20 DUP2 ADD SWAP1 POP SWAP2 SWAP1 POP JUMP JUMPDEST DUP3 DUP2 DUP4 CALLDATACOPY PUSH1 0x0 DUP4 DUP4 ADD MSTORE POP POP POP JUMP JUMPDEST PUSH1 0x0 PUSH2 0xD11 PUSH2 0xD0C DUP5 PUSH2 0xCBE JUMP JUMPDEST PUSH2 0xCA3 JUMP JUMPDEST SWAP1 POP DUP3 DUP2 MSTORE PUSH1 0x20 DUP2 ADD DUP5 DUP5 DUP5 ADD GT ISZERO PUSH2 0xD2D JUMPI PUSH2 0xD2C PUSH2 0xC2D JUMP JUMPDEST JUMPDEST PUSH2 0xD38 DUP5 DUP3 DUP6 PUSH2 0xCEF JUMP JUMPDEST POP SWAP4 SWAP3 POP POP POP JUMP JUMPDEST PUSH1 0x0 DUP3 PUSH1 0x1F DUP4 ADD SLT PUSH2 0xD55 JUMPI PUSH2 0xD54 PUSH2 0xC28 JUMP JUMPDEST JUMPDEST DUP2 CALLDATALOAD PUSH2 0xD65 DUP5 DUP3 PUSH1 0x20 DUP7 ADD PUSH2 0xCFE JUMP JUMPDEST SWAP2 POP POP SWAP3 SWAP2 POP POP JUMP JUMPDEST PUSH1 0x0 PUSH1 0x20 DUP3 DUP5 SUB SLT ISZERO PUSH2 0xD84 JUMPI PUSH2 0xD83 PUSH2 0xC1E JUMP JUMPDEST JUMPDEST PUSH1 0x0 DUP3 ADD CALLDATALOAD PUSH8 0xFFFFFFFFFFFFFFFF DUP2 GT ISZERO PUSH2 0xDA2 JUMPI PUSH2 0xDA1 PUSH2 0xC23 JUMP JUMPDEST JUMPDEST PUSH2 0xDAE DUP5 DUP3 DUP6 ADD PUSH2 0xD40 JUMP JUMPDEST SWAP2 POP POP SWAP3 SWAP2 POP POP JUMP JUMPDEST PUSH1 0x0 DUP2 MLOAD SWAP1 POP SWAP2 SWAP1 POP JUMP JUMPDEST PUSH1 0x0 DUP3 DUP3 MSTORE PUSH1 0x20 DUP3 ADD SWAP1 POP SWAP3 SWAP2 POP POP JUMP JUMPDEST PUSH1 0x0 JUMPDEST DUP4 DUP2 LT ISZERO PUSH2 0xDF1 JUMPI DUP1 DUP3 ADD MLOAD DUP2 DUP5 ADD MSTORE PUSH1 0x20 DUP2 ADD SWAP1 POP PUSH2 0xDD6 JUMP JUMPDEST PUSH1 0x0 DUP5 DUP5 ADD MSTORE POP POP POP POP JUMP JUMPDEST PUSH1 0x0 PUSH2 0xE08 DUP3 PUSH2 0xDB7 JUMP JUMPDEST PUSH2 0xE12 DUP2 DUP6 PUSH2 0xDC2 JUMP JUMPDEST SWAP4 POP PUSH2 0xE22 DUP2 DUP6 PUSH1 0x20 DUP7 ADD PUSH2 0xDD3 JUMP JUMPDEST PUSH2 0xE2B DUP2 PUSH2 0xC32 JUMP JUMPDEST DUP5 ADD SWAP2 POP POP SWAP3 SWAP2 POP POP JUMP JUMPDEST PUSH1 0x0 PUSH20 0xFFFFFFFFFFFFFFFFFFFFFFFFFFFFFFFFFFFFFFFF DUP3 AND SWAP1 POP SWAP2 SWAP1 POP JUMP JUMPDEST PUSH1 0x0 PUSH2 0xE61 DUP3 PUSH2 0xE36 JUMP JUMPDEST SWAP1 POP SWAP2 SWAP1 POP JUMP JUMPDEST PUSH2 0xE71 DUP2 PUSH2 0xE56 JUMP JUMPDEST DUP3 MSTORE POP POP JUMP JUMPDEST PUSH1 0x0 DUP2 SWAP1 POP SWAP2 SWAP1 POP JUMP JUMPDEST PUSH2 0xE8A DUP2 PUSH2 0xE77 JUMP JUMPDEST DUP3 MSTORE POP POP JUMP JUMPDEST PUSH1 0x0 PUSH1 0x80 DUP4 ADD PUSH1 0x0 DUP4 ADD MLOAD DUP5 DUP3 SUB PUSH1 0x0 DUP7 ADD MSTORE PUSH2 0xEAD DUP3 DUP3 PUSH2 0xDFD JUMP JUMPDEST SWAP2 POP POP PUSH1 0x20 DUP4 ADD MLOAD DUP5 DUP3 SUB PUSH1 0x20 DUP7 ADD MSTORE PUSH2 0xEC7 DUP3 DUP3 PUSH2 0xDFD JUMP JUMPDEST SWAP2 POP POP PUSH1 0x40 DUP4 ADD MLOAD PUSH2 0xEDC PUSH1 0x40 DUP7 ADD DUP3 PUSH2 0xE68 JUMP JUMPDEST POP PUSH1 0x60 DUP4 ADD MLOAD PUSH2 0xEEF PUSH1 0x60 DUP7 ADD DUP3 PUSH2 0xE81 JUMP JUMPDEST POP DUP1 SWAP2 POP POP SWAP3 SWAP2 POP POP JUMP JUMPDEST PUSH1 0x0 PUSH1 0x20 DUP3 ADD SWAP1 POP DUP2 DUP2 SUB PUSH1 0x0 DUP4 ADD MSTORE PUSH2 0xF14 DUP2 DUP5 PUSH2 0xE90 JUMP JUMPDEST SWAP1 POP SWAP3 SWAP2 POP POP JUMP JUMPDEST PUSH1 0x0 DUP1 PUSH1 0x40 DUP4 DUP6 SUB SLT ISZERO PUSH2 0xF33 JUMPI PUSH2 0xF32 PUSH2 0xC1E JUMP JUMPDEST JUMPDEST PUSH1 0x0 DUP4 ADD CALLDATALOAD PUSH8 0xFFFFFFFFFFFFFFFF DUP2 GT ISZERO PUSH2 0xF51 JUMPI PUSH2 0xF50 PUSH2 0xC23 JUMP JUMPDEST JUMPDEST PUSH2 0xF5D DUP6 DUP3 DUP7 ADD PUSH2 0xD40 JUMP JUMPDEST SWAP3 POP POP PUSH1 0x20 DUP4 ADD CALLDATALOAD PUSH8 0xFFFFFFFFFFFFFFFF DUP2 GT ISZERO PUSH2 0xF7E JUMPI PUSH2 0xF7D PUSH2 0xC23 JUMP JUMPDEST JUMPDEST PUSH2 0xF8A DUP6 DUP3 DUP7 ADD PUSH2 0xD40 JUMP JUMPDEST SWAP2 POP POP SWAP3 POP SWAP3 SWAP1 POP JUMP JUMPDEST PUSH1 0x0 DUP2 SWAP1 POP SWAP2 SWAP1 POP JUMP JUMPDEST PUSH1 0x0 PUSH2 0xFB9 PUSH2 0xFB4 PUSH2 0xFAF DUP5 PUSH2 0xE36 JUMP JUMPDEST PUSH2 0xF94 JUMP JUMPDEST PUSH2 0xE36 JUMP JUMPDEST SWAP1 POP SWAP2 SWAP1 POP JUMP JUMPDEST PUSH1 0x0 PUSH2 0xFCB DUP3 PUSH2 0xF9E JUMP JUMPDEST SWAP1 POP SWAP2 SWAP1 POP JUMP JUMPDEST PUSH1 0x0 PUSH2 0xFDD DUP3 PUSH2 0xFC0 JUMP JUMPDEST SWAP1 POP SWAP2 SWAP1 POP JUMP JUMPDEST PUSH2 0xFED DUP2 PUSH2 0xFD2 JUMP JUMPDEST DUP3 MSTORE POP POP JUMP JUMPDEST PUSH1 0x0 PUSH1 0x20 DUP3 ADD SWAP1 POP PUSH2 0x1008 PUSH1 0x0 DUP4 ADD DUP5 PUSH2 0xFE4 JUMP JUMPDEST SWAP3 SWAP2 POP POP JUMP JUMPDEST PUSH1 0x0 PUSH2 0x1019 DUP3 PUSH2 0xFC0 JUMP JUMPDEST SWAP1 POP SWAP2 SWAP1 POP JUMP JUMPDEST PUSH2 0x1029 DUP2 PUSH2 0x100E JUMP JUMPDEST DUP3 MSTORE POP POP JUMP JUMPDEST PUSH1 0x0 PUSH1 0x20 DUP3 ADD SWAP1 POP PUSH2 0x1044 PUSH1 0x0 DUP4 ADD DUP5 PUSH2 0x1020 JUMP JUMPDEST SWAP3 SWAP2 POP POP JUMP JUMPDEST PUSH2 0x1053 DUP2 PUSH2 0xE56 JUMP JUMPDEST DUP2 EQ PUSH2 0x105E JUMPI PUSH1 0x0 DUP1 REVERT JUMPDEST POP JUMP JUMPDEST PUSH1 0x0 DUP2 CALLDATALOAD SWAP1 POP PUSH2 0x1070 DUP2 PUSH2 0x104A JUMP JUMPDEST SWAP3 SWAP2 POP POP JUMP JUMPDEST PUSH1 0x0 PUSH1 0x20 DUP3 DUP5 SUB SLT ISZERO PUSH2 0x108C JUMPI PUSH2 0x108B PUSH2 0xC1E JUMP JUMPDEST JUMPDEST PUSH1 0x0 PUSH2 0x109A DUP5 DUP3 DUP6 ADD PUSH2 0x1061 JUMP JUMPDEST SWAP2 POP POP SWAP3 SWAP2 POP POP JUMP JUMPDEST PUSH1 0x0 DUP2 MLOAD SWAP1 POP SWAP2 SWAP1 POP JUMP JUMPDEST PUSH1 0x0 DUP3 DUP3 MSTORE PUSH1 0x20 DUP3 ADD SWAP1 POP SWAP3 SWAP2 POP POP JUMP JUMPDEST PUSH1 0x0 DUP2 SWAP1 POP PUSH1 0x20 DUP3 ADD SWAP1 POP SWAP2 SWAP1 POP JUMP JUMPDEST PUSH1 0x0 PUSH2 0x10DB DUP4 DUP4 PUSH2 0xDFD JUMP JUMPDEST SWAP1 POP SWAP3 SWAP2 POP POP JUMP JUMPDEST PUSH1 0x0 PUSH1 0x20 DUP3 ADD SWAP1 POP SWAP2 SWAP1 POP JUMP JUMPDEST PUSH1 0x0 PUSH2 0x10FB DUP3 PUSH2 0x10A3 JUMP JUMPDEST PUSH2 0x1105 DUP2 DUP6 PUSH2 0x10AE JUMP JUMPDEST SWAP4 POP DUP4 PUSH1 0x20 DUP3 MUL DUP6 ADD PUSH2 0x1117 DUP6 PUSH2 0x10BF JUMP JUMPDEST DUP1 PUSH1 0x0 JUMPDEST DUP6 DUP2 LT ISZERO PUSH2 0x1153 JUMPI DUP5 DUP5 SUB DUP10 MSTORE DUP2 MLOAD PUSH2 0x1134 DUP6 DUP3 PUSH2 0x10CF JUMP JUMPDEST SWAP5 POP PUSH2 0x113F DUP4 PUSH2 0x10E3 JUMP JUMPDEST SWAP3 POP PUSH1 0x20 DUP11 ADD SWAP10 POP POP PUSH1 0x1 DUP2 ADD SWAP1 POP PUSH2 0x111B JUMP JUMPDEST POP DUP3 SWAP8 POP DUP8 SWAP6 POP POP POP POP POP POP SWAP3 SWAP2 POP POP JUMP JUMPDEST PUSH1 0x0 PUSH1 0x20 DUP3 ADD SWAP1 POP DUP2 DUP2 SUB PUSH1 0x0 DUP4 ADD MSTORE PUSH2 0x117F DUP2 DUP5 PUSH2 0x10F0 JUMP JUMPDEST SWAP1 POP SWAP3 SWAP2 POP POP JUMP JUMPDEST PUSH1 0x0 DUP2 SWAP1 POP SWAP3 SWAP2 POP POP JUMP JUMPDEST PUSH1 0x0 PUSH2 0x119D DUP3 PUSH2 0xDB7 JUMP JUMPDEST PUSH2 0x11A7 DUP2 DUP6 PUSH2 0x1187 JUMP JUMPDEST SWAP4 POP PUSH2 0x11B7 DUP2 DUP6 PUSH1 0x20 DUP7 ADD PUSH2 0xDD3 JUMP JUMPDEST DUP1 DUP5 ADD SWAP2 POP POP SWAP3 SWAP2 POP POP JUMP JUMPDEST PUSH1 0x0 PUSH2 0x11CF DUP3 DUP5 PUSH2 0x1192 JUMP JUMPDEST SWAP2 POP DUP2 SWAP1 POP SWAP3 SWAP2 POP POP JUMP JUMPDEST PUSH32 0x4E487B7100000000000000000000000000000000000000000000000000000000 PUSH1 0x0 MSTORE PUSH1 0x22 PUSH1 0x4 MSTORE PUSH1 0x24 PUSH1 0x0 REVERT JUMPDEST PUSH1 0x0 PUSH1 0x2 DUP3 DIV SWAP1 POP PUSH1 0x1 DUP3 AND DUP1 PUSH2 0x1221 JUMPI PUSH1 0x7F DUP3 AND SWAP2 POP JUMPDEST PUSH1 0x20 DUP3 LT DUP2 SUB PUSH2 0x1234 JUMPI PUSH2 0x1233 PUSH2 0x11DA JUMP JUMPDEST JUMPDEST POP SWAP2 SWAP1 POP JUMP JUMPDEST PUSH1 0x0 DUP3 DUP3 MSTORE PUSH1 0x20 DUP3 ADD SWAP1 POP SWAP3 SWAP2 POP POP JUMP JUMPDEST PUSH32 0x5265636F726420646F6573206E6F742065786973740000000000000000000000 PUSH1 0x0 DUP3 ADD MSTORE POP JUMP JUMPDEST PUSH1 0x0 PUSH2 0x1281 PUSH1 0x15 DUP4 PUSH2 0x123A JUMP JUMPDEST SWAP2 POP PUSH2 0x128C DUP3 PUSH2 0x124B JUMP JUMPDEST PUSH1 0x20 DUP3 ADD SWAP1 POP SWAP2 SWAP1 POP JUMP JUMPDEST PUSH1 0x0 PUSH1 0x20 DUP3 ADD SWAP1 POP DUP2 DUP2 SUB PUSH1 0x0 DUP4 ADD MSTORE PUSH2 0x12B0 DUP2 PUSH2 0x1274 JUMP JUMPDEST SWAP1 POP SWAP2 SWAP1 POP JUMP JUMPDEST PUSH1 0x0 PUSH2 0x12C2 DUP3 PUSH2 0xDB7 JUMP JUMPDEST PUSH2 0x12CC DUP2 DUP6 PUSH2 0x123A JUMP JUMPDEST SWAP4 POP PUSH2 0x12DC DUP2 DUP6 PUSH1 0x20 DUP7 ADD PUSH2 0xDD3 JUMP JUMPDEST PUSH2 0x12E5 DUP2 PUSH2 0xC32 JUMP JUMPDEST DUP5 ADD SWAP2 POP POP SWAP3 SWAP2 POP POP JUMP JUMPDEST PUSH2 0x12F9 DUP2 PUSH2 0xE56 JUMP JUMPDEST DUP3 MSTORE POP POP JUMP JUMPDEST PUSH1 0x0 PUSH1 0x40 DUP3 ADD SWAP1 POP DUP2 DUP2 SUB PUSH1 0x0 DUP4 ADD MSTORE PUSH2 0x1319 DUP2 DUP6 PUSH2 0x12B7 JUMP JUMPDEST SWAP1 POP PUSH2 0x1328 PUSH1 0x20 DUP4 ADD DUP5 PUSH2 0x12F0 JUMP JUMPDEST SWAP4 SWAP3 POP POP POP JUMP JUMPDEST PUSH1 0x0 DUP2 ISZERO ISZERO SWAP1 POP SWAP2 SWAP1 POP JUMP JUMPDEST PUSH2 0x1344 DUP2 PUSH2 0x132F JUMP JUMPDEST DUP2 EQ PUSH2 0x134F JUMPI PUSH1 0x0 DUP1 REVERT JUMPDEST POP JUMP JUMPDEST PUSH1 0x0 DUP2 MLOAD SWAP1 POP PUSH2 0x1361 DUP2 PUSH2 0x133B JUMP JUMPDEST SWAP3 SWAP2 POP POP JUMP JUMPDEST PUSH1 0x0 PUSH1 0x20 DUP3 DUP5 SUB SLT ISZERO PUSH2 0x137D JUMPI PUSH2 0x137C PUSH2 0xC1E JUMP JUMPDEST JUMPDEST PUSH1 0x0 PUSH2 0x138B DUP5 DUP3 DUP6 ADD PUSH2 0x1352 JUMP JUMPDEST SWAP2 POP POP SWAP3 SWAP2 POP POP JUMP JUMPDEST PUSH32 0x4163636573732064656E69656400000000000000000000000000000000000000 PUSH1 0x0 DUP3 ADD MSTORE POP JUMP JUMPDEST PUSH1 0x0 PUSH2 0x13CA PUSH1 0xD DUP4 PUSH2 0x123A JUMP JUMPDEST SWAP2 POP PUSH2 0x13D5 DUP3 PUSH2 0x1394 JUMP JUMPDEST PUSH1 0x20 DUP3 ADD SWAP1 POP SWAP2 SWAP1 POP JUMP JUMPDEST PUSH1 0x0 PUSH1 0x20 DUP3 ADD SWAP1 POP DUP2 DUP2 SUB PUSH1 0x0 DUP4 ADD MSTORE PUSH2 0x13F9 DUP2 PUSH2 0x13BD JUMP JUMPDEST SWAP1 POP SWAP2 SWAP1 POP JUMP JUMPDEST PUSH32 0x496E76616C69642066696C652068617368000000000000000000000000000000 PUSH1 0x0 DUP3 ADD MSTORE POP JUMP JUMPDEST PUSH1 0x0 PUSH2 0x1436 PUSH1 0x11 DUP4 PUSH2 0x123A JUMP JUMPDEST SWAP2 POP PUSH2 0x1441 DUP3 PUSH2 0x1400 JUMP JUMPDEST PUSH1 0x20 DUP3 ADD SWAP1 POP SWAP2 SWAP1 POP JUMP JUMPDEST PUSH1 0x0 PUSH1 0x20 DUP3 ADD SWAP1 POP DUP2 DUP2 SUB PUSH1 0x0 DUP4 ADD MSTORE PUSH2 0x1465 DUP2 PUSH2 0x1429 JUMP JUMPDEST SWAP1 POP SWAP2 SWAP1 POP JUMP JUMPDEST PUSH32 0x496E76616C69642066696C652074797065000000000000000000000000000000 PUSH1 0x0 DUP3 ADD MSTORE POP JUMP JUMPDEST PUSH1 0x0 PUSH2 0x14A2 PUSH1 0x11 DUP4 PUSH2 0x123A JUMP JUMPDEST SWAP2 POP PUSH2 0x14AD DUP3 PUSH2 0x146C JUMP JUMPDEST PUSH1 0x20 DUP3 ADD SWAP1 POP SWAP2 SWAP1 POP JUMP JUMPDEST PUSH1 0x0 PUSH1 0x20 DUP3 ADD SWAP1 POP DUP2 DUP2 SUB PUSH1 0x0 DUP4 ADD MSTORE PUSH2 0x14D1 DUP2 PUSH2 0x1495 JUMP JUMPDEST SWAP1 POP SWAP2 SWAP1 POP JUMP JUMPDEST PUSH32 0x5265636F726420616C7265616479206578697374730000000000000000000000 PUSH1 0x0 DUP3 ADD MSTORE POP JUMP JUMPDEST PUSH1 0x0 PUSH2 0x150E PUSH1 0x15 DUP4 PUSH2 0x123A JUMP JUMPDEST SWAP2 POP PUSH2 0x1519 DUP3 PUSH2 0x14D8 JUMP JUMPDEST PUSH1 0x20 DUP3 ADD SWAP1 POP SWAP2 SWAP1 POP JUMP JUMPDEST PUSH1 0x0 PUSH1 0x20 DUP3 ADD SWAP1 POP DUP2 DUP2 SUB PUSH1 0x0 DUP4 ADD MSTORE PUSH2 0x153D DUP2 PUSH2 0x1501 JUMP JUMPDEST SWAP1 POP SWAP2 SWAP1 POP JUMP JUMPDEST PUSH1 0x0 DUP2 SWAP1 POP DUP2 PUSH1 0x0 MSTORE PUSH1 0x20 PUSH1 0x0 KECCAK256 SWAP1 POP SWAP2 SWAP1 POP JUMP JUMPDEST PUSH1 0x0 PUSH1 0x20 PUSH1 0x1F DUP4 ADD DIV SWAP1 POP SWAP2 SWAP1 POP JUMP JUMPDEST PUSH1 0x0 DUP3 DUP3 SHL SWAP1 POP SWAP3 SWAP2 POP POP JUMP JUMPDEST PUSH1 0x0 PUSH1 0x8 DUP4 MUL PUSH2 0x15A6 PUSH32 0xFFFFFFFFFFFFFFFFFFFFFFFFFFFFFFFFFFFFFFFFFFFFFFFFFFFFFFFFFFFFFFFF DUP3 PUSH2 0x1569 JUMP JUMPDEST PUSH2 0x15B0 DUP7 DUP4 PUSH2 0x1569 JUMP JUMPDEST SWAP6 POP DUP1 NOT DUP5 AND SWAP4 POP DUP1 DUP7 AND DUP5 OR SWAP3 POP POP POP SWAP4 SWAP3 POP POP POP JUMP JUMPDEST PUSH1 0x0 PUSH2 0x15E3 PUSH2 0x15DE PUSH2 0x15D9 DUP5 PUSH2 0xE77 JUMP JUMPDEST PUSH2 0xF94 JUMP JUMPDEST PUSH2 0xE77 JUMP JUMPDEST SWAP1 POP SWAP2 SWAP1 POP JUMP JUMPDEST PUSH1 0x0 DUP2 SWAP1 POP SWAP2 SWAP1 POP JUMP JUMPDEST PUSH2 0x15FD DUP4 PUSH2 0x15C8 JUMP JUMPDEST PUSH2 0x1611 PUSH2 0x1609 DUP3 PUSH2 0x15EA JUMP JUMPDEST DUP5 DUP5 SLOAD PUSH2 0x1576 JUMP JUMPDEST DUP3 SSTORE POP POP POP POP JUMP JUMPDEST PUSH1 0x0 SWAP1 JUMP JUMPDEST PUSH2 0x1626 PUSH2 0x1619 JUMP JUMPDEST PUSH2 0x1631 DUP2 DUP5 DUP5 PUSH2 0x15F4 JUMP JUMPDEST POP POP POP JUMP JUMPDEST JUMPDEST DUP2 DUP2 LT ISZERO PUSH2 0x1655 JUMPI PUSH2 0x164A PUSH1 0x0 DUP3 PUSH2 0x161E JUMP JUMPDEST PUSH1 0x1 DUP2 ADD SWAP1 POP PUSH2 0x1637 JUMP JUMPDEST POP POP JUMP JUMPDEST PUSH1 0x1F DUP3 GT ISZERO PUSH2 0x169A JUMPI PUSH2 0x166B DUP2 PUSH2 0x1544 JUMP JUMPDEST PUSH2 0x1674 DUP5 PUSH2 0x1559 JUMP JUMPDEST DUP2 ADD PUSH1 0x20 DUP6 LT ISZERO PUSH2 0x1683 JUMPI DUP2 SWAP1 POP JUMPDEST PUSH2 0x1697 PUSH2 0x168F DUP6 PUSH2 0x1559 JUMP JUMPDEST DUP4 ADD DUP3 PUSH2 0x1636 JUMP JUMPDEST POP POP JUMPDEST POP POP POP JUMP JUMPDEST PUSH1 0x0 DUP3 DUP3 SHR SWAP1 POP SWAP3 SWAP2 POP POP JUMP JUMPDEST PUSH1 0x0 PUSH2 0x16BD PUSH1 0x0 NOT DUP5 PUSH1 0x8 MUL PUSH2 0x169F JUMP JUMPDEST NOT DUP1 DUP4 AND SWAP2 POP POP SWAP3 SWAP2 POP POP JUMP JUMPDEST PUSH1 0x0 PUSH2 0x16D6 DUP4 DUP4 PUSH2 0x16AC JUMP JUMPDEST SWAP2 POP DUP3 PUSH1 0x2 MUL DUP3 OR SWAP1 POP SWAP3 SWAP2 POP POP JUMP JUMPDEST PUSH2 0x16EF DUP3 PUSH2 0xDB7 JUMP JUMPDEST PUSH8 0xFFFFFFFFFFFFFFFF DUP2 GT ISZERO PUSH2 0x1708 JUMPI PUSH2 0x1707 PUSH2 0xC43 JUMP JUMPDEST JUMPDEST PUSH2 0x1712 DUP3 SLOAD PUSH2 0x1209 JUMP JUMPDEST PUSH2 0x171D DUP3 DUP3 DUP6 PUSH2 0x1659 JUMP JUMPDEST PUSH1 0x0 PUSH1 0x20 SWAP1 POP PUSH1 0x1F DUP4 GT PUSH1 0x1 DUP2 EQ PUSH2 0x1750 JUMPI PUSH1 0x0 DUP5 ISZERO PUSH2 0x173E JUMPI DUP3 DUP8 ADD MLOAD SWAP1 POP JUMPDEST PUSH2 0x1748 DUP6 DUP3 PUSH2 0x16CA JUMP JUMPDEST DUP7 SSTORE POP PUSH2 0x17B0 JUMP JUMPDEST PUSH1 0x1F NOT DUP5 AND PUSH2 0x175E DUP7 PUSH2 0x1544 JUMP JUMPDEST PUSH1 0x0 JUMPDEST DUP3 DUP2 LT ISZERO PUSH2 0x1786 JUMPI DUP5 DUP10 ADD MLOAD DUP3 SSTORE PUSH1 0x1 DUP3 ADD SWAP2 POP PUSH1 0x20 DUP6 ADD SWAP5 POP PUSH1 0x20 DUP2 ADD SWAP1 POP PUSH2 0x1761 JUMP JUMPDEST DUP7 DUP4 LT ISZERO PUSH2 0x17A3 JUMPI DUP5 DUP10 ADD MLOAD PUSH2 0x179F PUSH1 0x1F DUP10 AND DUP3 PUSH2 0x16AC JUMP JUMPDEST DUP4 SSTORE POP JUMPDEST PUSH1 0x1 PUSH1 0x2 DUP9 MUL ADD DUP9 SSTORE POP POP POP JUMPDEST POP POP POP POP POP POP JUMP JUMPDEST PUSH1 0x0 PUSH1 0x40 DUP3 ADD SWAP1 POP PUSH2 0x17CD PUSH1 0x0 DUP4 ADD DUP6 PUSH2 0x12F0 JUMP JUMPDEST DUP2 DUP2 SUB PUSH1 0x20 DUP4 ADD MSTORE PUSH2 0x17DF DUP2 DUP5 PUSH2 0x12B7 JUMP JUMPDEST SWAP1 POP SWAP4 SWAP3 POP POP POP JUMP JUMPDEST PUSH1 0x0 PUSH1 0x40 DUP3 ADD SWAP1 POP DUP2 DUP2 SUB PUSH1 0x0 DUP4 ADD MSTORE PUSH2 0x1802 DUP2 DUP6 PUSH2 0x12B7 JUMP JUMPDEST SWAP1 POP DUP2 DUP2 SUB PUSH1 0x20 DUP4 ADD MSTORE PUSH2 0x1816 DUP2 DUP5 PUSH2 0x12B7 JUMP JUMPDEST SWAP1 POP SWAP4 SWAP3 POP POP POP JUMP JUMPDEST PUSH32 0x5265636F7264206E6F7420666F756E6400000000000000000000000000000000 PUSH1 0x0 DUP3 ADD MSTORE POP JUMP JUMPDEST PUSH1 0x0 PUSH2 0x1855 PUSH1 0x10 DUP4 PUSH2 0x123A JUMP JUMPDEST SWAP2 POP PUSH2 0x1860 DUP3 PUSH2 0x181F JUMP JUMPDEST PUSH1 0x20 DUP3 ADD SWAP1 POP SWAP2 SWAP1 POP JUMP JUMPDEST PUSH1 0x0 PUSH1 0x20 DUP3 ADD SWAP1 POP DUP2 DUP2 SUB PUSH1 0x0 DUP4 ADD MSTORE PUSH2 0x1884 DUP2 PUSH2 0x1848 JUMP JUMPDEST SWAP1 POP SWAP2 SWAP1 POP JUMP INVALID LOG2 PUSH5 0x6970667358 0x22 SLT KECCAK256 EXTCALL 0xA9 TIMESTAMP 0xD6 SMOD 0xC7 PUSH27 0xD8AE5340BA645DF210D44732B31E7723B1C15408C10FFB211C6473 PUSH16 0x6C634300081E00330000000000000000 "
				},
				"gasEstimates": {
					"creation": {
						"codeDepositCost": "1267400",
						"executionCost": "infinite",
						"totalCost": "infinite"
					},
					"external": {
						"accessControl()": "infinite",
						"getPatientFiles(address)": "infinite",
						"getRecordDetails(string)": "infinite",
						"patientRegistry()": "infinite",
						"uploadRecord(string,string)": "infinite",
						"viewRecord(string)": "infinite"
					}
				},
				"methodIdentifiers": {
					"accessControl()": "13007d55",
					"getPatientFiles(address)": "c1816dfb",
					"getRecordDetails(string)": "1a9e48f5",
					"patientRegistry()": "5250c6e2",
					"uploadRecord(string,string)": "1238d68d",
					"viewRecord(string)": "1172ac67"
				}
			},
			"storageLayout": {
				"storage": [
					{
						"astId": 141,
						"contract": "contracts/MedicalRecord.sol:MedicalRecord",
						"label": "accessControl",
						"offset": 0,
						"slot": "0",
						"type": "t_contract(AccessControl)134"
					},
					{
						"astId": 144,
						"contract": "contracts/MedicalRecord.sol:MedicalRecord",
						"label": "patientRegistry",
						"offset": 0,
						"slot": "1",
						"type": "t_contract(PatientRegistry)579"
					},
					{
						"astId": 158,
						"contract": "contracts/MedicalRecord.sol:MedicalRecord",
						"label": "records",
						"offset": 0,
						"slot": "2",
						"type": "t_mapping(t_string_memory_ptr,t_struct(Record)153_storage)"
					},
					{
						"astId": 163,
						"contract": "contracts/MedicalRecord.sol:MedicalRecord",
						"label": "patientFiles",
						"offset": 0,
						"slot": "3",
						"type": "t_mapping(t_address,t_array(t_string_storage)dyn_storage)"
					}
				],
				"types": {
					"t_address": {
						"encoding": "inplace",
						"label": "address",
						"numberOfBytes": "20"
					},
					"t_array(t_string_storage)dyn_storage": {
						"base": "t_string_storage",
						"encoding": "dynamic_array",
						"label": "string[]",
						"numberOfBytes": "32"
					},
					"t_contract(AccessControl)134": {
						"encoding": "inplace",
						"label": "contract AccessControl",
						"numberOfBytes": "20"
					},
					"t_contract(PatientRegistry)579": {
						"encoding": "inplace",
						"label": "contract PatientRegistry",
						"numberOfBytes": "20"
					},
					"t_mapping(t_address,t_array(t_string_storage)dyn_storage)": {
						"encoding": "mapping",
						"key": "t_address",
						"label": "mapping(address => string[])",
						"numberOfBytes": "32",
						"value": "t_array(t_string_storage)dyn_storage"
					},
					"t_mapping(t_string_memory_ptr,t_struct(Record)153_storage)": {
						"encoding": "mapping",
						"key": "t_string_memory_ptr",
						"label": "mapping(string => struct MedicalRecord.Record)",
						"numberOfBytes": "32",
						"value": "t_struct(Record)153_storage"
					},
					"t_string_memory_ptr": {
						"encoding": "bytes",
						"label": "string",
						"numberOfBytes": "32"
					},
					"t_string_storage": {
						"encoding": "bytes",
						"label": "string",
						"numberOfBytes": "32"
					},
					"t_struct(Record)153_storage": {
						"encoding": "inplace",
						"label": "struct MedicalRecord.Record",
						"members": [
							{
								"astId": 146,
								"contract": "contracts/MedicalRecord.sol:MedicalRecord",
								"label": "fileHash",
								"offset": 0,
								"slot": "0",
								"type": "t_string_storage"
							},
							{
								"astId": 148,
								"contract": "contracts/MedicalRecord.sol:MedicalRecord",
								"label": "fileType",
								"offset": 0,
								"slot": "1",
								"type": "t_string_storage"
							},
							{
								"astId": 150,
								"contract": "contracts/MedicalRecord.sol:MedicalRecord",
								"label": "owner",
								"offset": 0,
								"slot": "2",
								"type": "t_address"
							},
							{
								"astId": 152,
								"contract": "contracts/MedicalRecord.sol:MedicalRecord",
								"label": "uploadTime",
								"offset": 0,
								"slot": "3",
								"type": "t_uint256"
							}
						],
						"numberOfBytes": "128"
					},
					"t_uint256": {
						"encoding": "inplace",
						"label": "uint256",
						"numberOfBytes": "32"
					}
				}
			},
			"userdoc": {
				"kind": "user",
				"methods": {
					"getPatientFiles(address)": {
						"notice": "Get all file hashes for a given patient"
					},
					"getRecordDetails(string)": {
						"notice": "Get record details by file hash"
					},
					"uploadRecord(string,string)": {
						"notice": "Upload a new medical record (IPFS hash in string form)"
					},
					"viewRecord(string)": {
						"notice": "View record details if access is granted or caller is owner"
					}
				},
				"version": 1
			}
		}
	}
}