{
	"contracts/PatientRegistry.sol": {
		"PatientRegistry": {
			"abi": [
				{
					"anonymous": false,
					"inputs": [
						{
							"indexed": true,
							"internalType": "address",
							"name": "patient",
							"type": "address"
						},
						{
							"indexed": false,
							"internalType": "string",
							"name": "fileHash",
							"type": "string"
						}
					],
					"name": "FileAdded",
					"type": "event"
				},
				{
					"anonymous": false,
					"inputs": [
						{
							"indexed": true,
							"internalType": "address",
							"name": "patient",
							"type": "address"
						},
						{
							"indexed": false,
							"internalType": "string",
							"name": "name",
							"type": "string"
						}
					],
					"name": "PatientRegistered",
					"type": "event"
				},
				{
					"inputs": [
						{
							"internalType": "address",
							"name": "_patient",
							"type": "address"
						},
						{
							"internalType": "string",
							"name": "_fileHash",
							"type": "string"
						}
					],
					"name": "addFileToPatient",
					"outputs": [],
					"stateMutability": "nonpayable",
					"type": "function"
				},
				{
					"inputs": [
						{
							"internalType": "address",
							"name": "_patient",
							"type": "address"
						}
					],
					"name": "getPatientDetails",
					"outputs": [
						{
							"internalType": "string",
							"name": "name",
							"type": "string"
						},
						{
							"internalType": "string",
							"name": "gender",
							"type": "string"
						},
						{
							"internalType": "string",
							"name": "dateOfBirth",
							"type": "string"
						},
						{
							"internalType": "string",
							"name": "bloodGroup",
							"type": "string"
						},
						{
							"internalType": "string",
							"name": "contactInfo",
							"type": "string"
						},
						{
							"internalType": "string",
							"name": "homeAddress",
							"type": "string"
						}
					],
					"stateMutability": "view",
					"type": "function"
				},
				{
					"inputs": [
						{
							"internalType": "address",
							"name": "_patient",
							"type": "address"
						}
					],
					"name": "getPatientFiles",
					"outputs": [
						{
							"internalType": "string[]",
							"name": "",
							"type": "string[]"
						}
					],
					"stateMutability": "view",
					"type": "function"
				},
				{
					"inputs": [
						{
							"internalType": "address",
							"name": "",
							"type": "address"
						}
					],
					"name": "patients",
					"outputs": [
						{
							"internalType": "string",
							"name": "name",
							"type": "string"
						},
						{
							"internalType": "string",
							"name": "gender",
							"type": "string"
						},
						{
							"internalType": "string",
							"name": "dateOfBirth",
							"type": "string"
						},
						{
							"internalType": "string",
							"name": "bloodGroup",
							"type": "string"
						},
						{
							"internalType": "string",
							"name": "contactInfo",
							"type": "string"
						},
						{
							"internalType": "string",
							"name": "homeAddress",
							"type": "string"
						},
						{
							"internalType": "bool",
							"name": "isRegistered",
							"type": "bool"
						}
					],
					"stateMutability": "view",
					"type": "function"
				},
				{
					"inputs": [
						{
							"internalType": "string",
							"name": "_name",
							"type": "string"
						},
						{
							"internalType": "string",
							"name": "_gender",
							"type": "string"
						},
						{
							"internalType": "string",
							"name": "_dateOfBirth",
							"type": "string"
						},
						{
							"internalType": "string",
							"name": "_bloodGroup",
							"type": "string"
						},
						{
							"internalType": "string",
							"name": "_contactInfo",
							"type": "string"
						},
						{
							"internalType": "string",
							"name": "_homeAddress",
							"type": "string"
						}
					],
					"name": "registerPatient",
					"outputs": [],
					"stateMutability": "nonpayable",
					"type": "function"
				}
			],
			"devdoc": {
				"kind": "dev",
				"methods": {},
				"version": 1
			},
			"evm": {
				"assembly": "    /* \"contracts/PatientRegistry.sol\":61:2656  contract PatientRegistry {... */\n  mstore(0x40, 0x80)\n  callvalue\n  dup1\n  iszero\n  tag_1\n  jumpi\n  0x00\n  dup1\n  revert\ntag_1:\n  pop\n  dataSize(sub_0)\n  dup1\n  dataOffset(sub_0)\n  0x00\n  codecopy\n  0x00\n  return\nstop\n\nsub_0: assembly {\n        /* \"contracts/PatientRegistry.sol\":61:2656  contract PatientRegistry {... */\n      mstore(0x40, 0x80)\n      callvalue\n      dup1\n      iszero\n      tag_1\n      jumpi\n      0x00\n      dup1\n      revert\n    tag_1:\n      pop\n      jumpi(tag_2, lt(calldatasize, 0x04))\n      shr(0xe0, calldataload(0x00))\n      dup1\n      0x0869cfbc\n      eq\n      tag_3\n      jumpi\n      dup1\n      0x6d26dce8\n      eq\n      tag_4\n      jumpi\n      dup1\n      0xc1816dfb\n      eq\n      tag_5\n      jumpi\n      dup1\n      0xedefcf88\n      eq\n      tag_6\n      jumpi\n      dup1\n      0xefe2ccc1\n      eq\n      tag_7\n      jumpi\n    tag_2:\n      0x00\n      dup1\n      revert\n        /* \"contracts/PatientRegistry.sol\":612:655  mapping(address => Patient) public patients */\n    tag_3:\n      tag_8\n      0x04\n      dup1\n      calldatasize\n      sub\n      dup2\n      add\n      swap1\n      tag_9\n      swap2\n      swap1\n      tag_10\n      jump\t// in\n    tag_9:\n      tag_11\n      jump\t// in\n    tag_8:\n      mload(0x40)\n      tag_12\n      swap8\n      swap7\n      swap6\n      swap5\n      swap4\n      swap3\n      swap2\n      swap1\n      tag_13\n      jump\t// in\n    tag_12:\n      mload(0x40)\n      dup1\n      swap2\n      sub\n      swap1\n      return\n        /* \"contracts/PatientRegistry.sol\":935:1616  function registerPatient(... */\n    tag_4:\n      tag_14\n      0x04\n      dup1\n      calldatasize\n      sub\n      dup2\n      add\n      swap1\n      tag_15\n      swap2\n      swap1\n      tag_16\n      jump\t// in\n    tag_15:\n      tag_17\n      jump\t// in\n    tag_14:\n      stop\n        /* \"contracts/PatientRegistry.sol\":1891:2029  function getPatientFiles(address _patient) external view returns (string[] memory) {... */\n    tag_5:\n      tag_18\n      0x04\n      dup1\n      calldatasize\n      sub\n      dup2\n      add\n      swap1\n      tag_19\n      swap2\n      swap1\n      tag_10\n      jump\t// in\n    tag_19:\n      tag_20\n      jump\t// in\n    tag_18:\n      mload(0x40)\n      tag_21\n      swap2\n      swap1\n      tag_22\n      jump\t// in\n    tag_21:\n      mload(0x40)\n      dup1\n      swap2\n      sub\n      swap1\n      return\n        /* \"contracts/PatientRegistry.sol\":1624:1883  function addFileToPatient(address _patient,string memory _fileHash) public  {... */\n    tag_6:\n      tag_23\n      0x04\n      dup1\n      calldatasize\n      sub\n      dup2\n      add\n      swap1\n      tag_24\n      swap2\n      swap1\n      tag_25\n      jump\t// in\n    tag_24:\n      tag_26\n      jump\t// in\n    tag_23:\n      stop\n        /* \"contracts/PatientRegistry.sol\":2037:2527  function getPatientDetails(address _patient)... */\n    tag_7:\n      tag_27\n      0x04\n      dup1\n      calldatasize\n      sub\n      dup2\n      add\n      swap1\n      tag_28\n      swap2\n      swap1\n      tag_10\n      jump\t// in\n    tag_28:\n      tag_29\n      jump\t// in\n    tag_27:\n      mload(0x40)\n      tag_30\n      swap7\n      swap6\n      swap5\n      swap4\n      swap3\n      swap2\n      swap1\n      tag_31\n      jump\t// in\n    tag_30:\n      mload(0x40)\n      dup1\n      swap2\n      sub\n      swap1\n      return\n        /* \"contracts/PatientRegistry.sol\":612:655  mapping(address => Patient) public patients */\n    tag_11:\n      mstore(0x20, 0x00)\n      dup1\n      0x00\n      mstore\n      keccak256(0x00, 0x40)\n      0x00\n      swap2\n      pop\n      swap1\n      pop\n      dup1\n      0x00\n      add\n      dup1\n      sload\n      tag_32\n      swap1\n      tag_33\n      jump\t// in\n    tag_32:\n      dup1\n      0x1f\n      add\n      0x20\n      dup1\n      swap2\n      div\n      mul\n      0x20\n      add\n      mload(0x40)\n      swap1\n      dup2\n      add\n      0x40\n      mstore\n      dup1\n      swap3\n      swap2\n      swap1\n      dup2\n      dup2\n      mstore\n      0x20\n      add\n      dup3\n      dup1\n      sload\n      tag_34\n      swap1\n      tag_33\n      jump\t// in\n    tag_34:\n      dup1\n      iszero\n      tag_35\n      jumpi\n      dup1\n      0x1f\n      lt\n      tag_36\n      jumpi\n      0x0100\n      dup1\n      dup4\n      sload\n      div\n      mul\n      dup4\n      mstore\n      swap2\n      0x20\n      add\n      swap2\n      jump(tag_35)\n    tag_36:\n      dup3\n      add\n      swap2\n      swap1\n      0x00\n      mstore\n      keccak256(0x00, 0x20)\n      swap1\n    tag_37:\n      dup2\n      sload\n      dup2\n      mstore\n      swap1\n      0x01\n      add\n      swap1\n      0x20\n      add\n      dup1\n      dup4\n      gt\n      tag_37\n      jumpi\n      dup3\n      swap1\n      sub\n      0x1f\n      and\n      dup3\n      add\n      swap2\n    tag_35:\n      pop\n      pop\n      pop\n      pop\n      pop\n      swap1\n      dup1\n      0x01\n      add\n      dup1\n      sload\n      tag_38\n      swap1\n      tag_33\n      jump\t// in\n    tag_38:\n      dup1\n      0x1f\n      add\n      0x20\n      dup1\n      swap2\n      div\n      mul\n      0x20\n      add\n      mload(0x40)\n      swap1\n      dup2\n      add\n      0x40\n      mstore\n      dup1\n      swap3\n      swap2\n      swap1\n      dup2\n      dup2\n      mstore\n      0x20\n      add\n      dup3\n      dup1\n      sload\n      tag_39\n      swap1\n      tag_33\n      jump\t// in\n    tag_39:\n      dup1\n      iszero\n      tag_40\n      jumpi\n      dup1\n      0x1f\n      lt\n      tag_41\n      jumpi\n      0x0100\n      dup1\n      dup4\n      sload\n      div\n      mul\n      dup4\n      mstore\n      swap2\n      0x20\n      add\n      swap2\n      jump(tag_40)\n    tag_41:\n      dup3\n      add\n      swap2\n      swap1\n      0x00\n      mstore\n      keccak256(0x00, 0x20)\n      swap1\n    tag_42:\n      dup2\n      sload\n      dup2\n      mstore\n      swap1\n      0x01\n      add\n      swap1\n      0x20\n      add\n      dup1\n      dup4\n      gt\n      tag_42\n      jumpi\n      dup3\n      swap1\n      sub\n      0x1f\n      and\n      dup3\n      add\n      swap2\n    tag_40:\n      pop\n      pop\n      pop\n      pop\n      pop\n      swap1\n      dup1\n      0x02\n      add\n      dup1\n      sload\n      tag_43\n      swap1\n      tag_33\n      jump\t// in\n    tag_43:\n      dup1\n      0x1f\n      add\n      0x20\n      dup1\n      swap2\n      div\n      mul\n      0x20\n      add\n      mload(0x40)\n      swap1\n      dup2\n      add\n      0x40\n      mstore\n      dup1\n      swap3\n      swap2\n      swap1\n      dup2\n      dup2\n      mstore\n      0x20\n      add\n      dup3\n      dup1\n      sload\n      tag_44\n      swap1\n      tag_33\n      jump\t// in\n    tag_44:\n      dup1\n      iszero\n      tag_45\n      jumpi\n      dup1\n      0x1f\n      lt\n      tag_46\n      jumpi\n      0x0100\n      dup1\n      dup4\n      sload\n      div\n      mul\n      dup4\n      mstore\n      swap2\n      0x20\n      add\n      swap2\n      jump(tag_45)\n    tag_46:\n      dup3\n      add\n      swap2\n      swap1\n      0x00\n      mstore\n      keccak256(0x00, 0x20)\n      swap1\n    tag_47:\n      dup2\n      sload\n      dup2\n      mstore\n      swap1\n      0x01\n      add\n      swap1\n      0x20\n      add\n      dup1\n      dup4\n      gt\n      tag_47\n      jumpi\n      dup3\n      swap1\n      sub\n      0x1f\n      and\n      dup3\n      add\n      swap2\n    tag_45:\n      pop\n      pop\n      pop\n      pop\n      pop\n      swap1\n      dup1\n      0x03\n      add\n      dup1\n      sload\n      tag_48\n      swap1\n      tag_33\n      jump\t// in\n    tag_48:\n      dup1\n      0x1f\n      add\n      0x20\n      dup1\n      swap2\n      div\n      mul\n      0x20\n      add\n      mload(0x40)\n      swap1\n      dup2\n      add\n      0x40\n      mstore\n      dup1\n      swap3\n      swap2\n      swap1\n      dup2\n      dup2\n      mstore\n      0x20\n      add\n      dup3\n      dup1\n      sload\n      tag_49\n      swap1\n      tag_33\n      jump\t// in\n    tag_49:\n      dup1\n      iszero\n      tag_50\n      jumpi\n      dup1\n      0x1f\n      lt\n      tag_51\n      jumpi\n      0x0100\n      dup1\n      dup4\n      sload\n      div\n      mul\n      dup4\n      mstore\n      swap2\n      0x20\n      add\n      swap2\n      jump(tag_50)\n    tag_51:\n      dup3\n      add\n      swap2\n      swap1\n      0x00\n      mstore\n      keccak256(0x00, 0x20)\n      swap1\n    tag_52:\n      dup2\n      sload\n      dup2\n      mstore\n      swap1\n      0x01\n      add\n      swap1\n      0x20\n      add\n      dup1\n      dup4\n      gt\n      tag_52\n      jumpi\n      dup3\n      swap1\n      sub\n      0x1f\n      and\n      dup3\n      add\n      swap2\n    tag_50:\n      pop\n      pop\n      pop\n      pop\n      pop\n      swap1\n      dup1\n      0x04\n      add\n      dup1\n      sload\n      tag_53\n      swap1\n      tag_33\n      jump\t// in\n    tag_53:\n      dup1\n      0x1f\n      add\n      0x20\n      dup1\n      swap2\n      div\n      mul\n      0x20\n      add\n      mload(0x40)\n      swap1\n      dup2\n      add\n      0x40\n      mstore\n      dup1\n      swap3\n      swap2\n      swap1\n      dup2\n      dup2\n      mstore\n      0x20\n      add\n      dup3\n      dup1\n      sload\n      tag_54\n      swap1\n      tag_33\n      jump\t// in\n    tag_54:\n      dup1\n      iszero\n      tag_55\n      jumpi\n      dup1\n      0x1f\n      lt\n      tag_56\n      jumpi\n      0x0100\n      dup1\n      dup4\n      sload\n      div\n      mul\n      dup4\n      mstore\n      swap2\n      0x20\n      add\n      swap2\n      jump(tag_55)\n    tag_56:\n      dup3\n      add\n      swap2\n      swap1\n      0x00\n      mstore\n      keccak256(0x00, 0x20)\n      swap1\n    tag_57:\n      dup2\n      sload\n      dup2\n      mstore\n      swap1\n      0x01\n      add\n      swap1\n      0x20\n      add\n      dup1\n      dup4\n      gt\n      tag_57\n      jumpi\n      dup3\n      swap1\n      sub\n      0x1f\n      and\n      dup3\n      add\n      swap2\n    tag_55:\n      pop\n      pop\n      pop\n      pop\n      pop\n      swap1\n      dup1\n      0x05\n      add\n      dup1\n      sload\n      tag_58\n      swap1\n      tag_33\n      jump\t// in\n    tag_58:\n      dup1\n      0x1f\n      add\n      0x20\n      dup1\n      swap2\n      div\n      mul\n      0x20\n      add\n      mload(0x40)\n      swap1\n      dup2\n      add\n      0x40\n      mstore\n      dup1\n      swap3\n      swap2\n      swap1\n      dup2\n      dup2\n      mstore\n      0x20\n      add\n      dup3\n      dup1\n      sload\n      tag_59\n      swap1\n      tag_33\n      jump\t// in\n    tag_59:\n      dup1\n      iszero\n      tag_60\n      jumpi\n      dup1\n      0x1f\n      lt\n      tag_61\n      jumpi\n      0x0100\n      dup1\n      dup4\n      sload\n      div\n      mul\n      dup4\n      mstore\n      swap2\n      0x20\n      add\n      swap2\n      jump(tag_60)\n    tag_61:\n      dup3\n      add\n      swap2\n      swap1\n      0x00\n      mstore\n      keccak256(0x00, 0x20)\n      swap1\n    tag_62:\n      dup2\n      sload\n      dup2\n      mstore\n      swap1\n      0x01\n      add\n      swap1\n      0x20\n      add\n      dup1\n      dup4\n      gt\n      tag_62\n      jumpi\n      dup3\n      swap1\n      sub\n      0x1f\n      and\n      dup3\n      add\n      swap2\n    tag_60:\n      pop\n      pop\n      pop\n      pop\n      pop\n      swap1\n      dup1\n      0x06\n      add\n      0x00\n      swap1\n      sload\n      swap1\n      0x0100\n      exp\n      swap1\n      div\n      0xff\n      and\n      swap1\n      pop\n      dup8\n      jump\t// out\n        /* \"contracts/PatientRegistry.sol\":935:1616  function registerPatient(... */\n    tag_17:\n        /* \"contracts/PatientRegistry.sol\":1205:1213  patients */\n      0x00\n        /* \"contracts/PatientRegistry.sol\":1205:1225  patients[msg.sender] */\n      dup1\n        /* \"contracts/PatientRegistry.sol\":1214:1224  msg.sender */\n      caller\n        /* \"contracts/PatientRegistry.sol\":1205:1225  patients[msg.sender] */\n      0xffffffffffffffffffffffffffffffffffffffff\n      and\n      0xffffffffffffffffffffffffffffffffffffffff\n      and\n      dup2\n      mstore\n      0x20\n      add\n      swap1\n      dup2\n      mstore\n      0x20\n      add\n      0x00\n      keccak256\n        /* \"contracts/PatientRegistry.sol\":1205:1238  patients[msg.sender].isRegistered */\n      0x06\n      add\n      0x00\n      swap1\n      sload\n      swap1\n      0x0100\n      exp\n      swap1\n      div\n      0xff\n      and\n        /* \"contracts/PatientRegistry.sol\":1204:1238  !patients[msg.sender].isRegistered */\n      iszero\n        /* \"contracts/PatientRegistry.sol\":1196:1261  require(!patients[msg.sender].isRegistered, \"Already registered\") */\n      tag_64\n      jumpi\n      mload(0x40)\n      0x08c379a000000000000000000000000000000000000000000000000000000000\n      dup2\n      mstore\n      0x04\n      add\n      tag_65\n      swap1\n      tag_66\n      jump\t// in\n    tag_65:\n      mload(0x40)\n      dup1\n      swap2\n      sub\n      swap1\n      revert\n    tag_64:\n        /* \"contracts/PatientRegistry.sol\":1274:1291  Patient storage p */\n      0x00\n        /* \"contracts/PatientRegistry.sol\":1294:1302  patients */\n      dup1\n        /* \"contracts/PatientRegistry.sol\":1294:1314  patients[msg.sender] */\n      0x00\n        /* \"contracts/PatientRegistry.sol\":1303:1313  msg.sender */\n      caller\n        /* \"contracts/PatientRegistry.sol\":1294:1314  patients[msg.sender] */\n      0xffffffffffffffffffffffffffffffffffffffff\n      and\n      0xffffffffffffffffffffffffffffffffffffffff\n      and\n      dup2\n      mstore\n      0x20\n      add\n      swap1\n      dup2\n      mstore\n      0x20\n      add\n      0x00\n      keccak256\n        /* \"contracts/PatientRegistry.sol\":1274:1314  Patient storage p = patients[msg.sender] */\n      swap1\n      pop\n        /* \"contracts/PatientRegistry.sol\":1334:1339  _name */\n      dup7\n        /* \"contracts/PatientRegistry.sol\":1325:1326  p */\n      dup2\n        /* \"contracts/PatientRegistry.sol\":1325:1331  p.name */\n      0x00\n      add\n        /* \"contracts/PatientRegistry.sol\":1325:1339  p.name = _name */\n      swap1\n      dup2\n      tag_67\n      swap2\n      swap1\n      tag_68\n      jump\t// in\n    tag_67:\n      pop\n        /* \"contracts/PatientRegistry.sol\":1361:1368  _gender */\n      dup6\n        /* \"contracts/PatientRegistry.sol\":1350:1351  p */\n      dup2\n        /* \"contracts/PatientRegistry.sol\":1350:1358  p.gender */\n      0x01\n      add\n        /* \"contracts/PatientRegistry.sol\":1350:1368  p.gender = _gender */\n      swap1\n      dup2\n      tag_69\n      swap2\n      swap1\n      tag_68\n      jump\t// in\n    tag_69:\n      pop\n        /* \"contracts/PatientRegistry.sol\":1395:1407  _dateOfBirth */\n      dup5\n        /* \"contracts/PatientRegistry.sol\":1379:1380  p */\n      dup2\n        /* \"contracts/PatientRegistry.sol\":1379:1392  p.dateOfBirth */\n      0x02\n      add\n        /* \"contracts/PatientRegistry.sol\":1379:1407  p.dateOfBirth = _dateOfBirth */\n      swap1\n      dup2\n      tag_70\n      swap2\n      swap1\n      tag_68\n      jump\t// in\n    tag_70:\n      pop\n        /* \"contracts/PatientRegistry.sol\":1433:1444  _bloodGroup */\n      dup4\n        /* \"contracts/PatientRegistry.sol\":1418:1419  p */\n      dup2\n        /* \"contracts/PatientRegistry.sol\":1418:1430  p.bloodGroup */\n      0x03\n      add\n        /* \"contracts/PatientRegistry.sol\":1418:1444  p.bloodGroup = _bloodGroup */\n      swap1\n      dup2\n      tag_71\n      swap2\n      swap1\n      tag_68\n      jump\t// in\n    tag_71:\n      pop\n        /* \"contracts/PatientRegistry.sol\":1471:1483  _contactInfo */\n      dup3\n        /* \"contracts/PatientRegistry.sol\":1455:1456  p */\n      dup2\n        /* \"contracts/PatientRegistry.sol\":1455:1468  p.contactInfo */\n      0x04\n      add\n        /* \"contracts/PatientRegistry.sol\":1455:1483  p.contactInfo = _contactInfo */\n      swap1\n      dup2\n      tag_72\n      swap2\n      swap1\n      tag_68\n      jump\t// in\n    tag_72:\n      pop\n        /* \"contracts/PatientRegistry.sol\":1510:1522  _homeAddress */\n      dup2\n        /* \"contracts/PatientRegistry.sol\":1494:1495  p */\n      dup2\n        /* \"contracts/PatientRegistry.sol\":1494:1507  p.homeAddress */\n      0x05\n      add\n        /* \"contracts/PatientRegistry.sol\":1494:1522  p.homeAddress = _homeAddress */\n      swap1\n      dup2\n      tag_73\n      swap2\n      swap1\n      tag_68\n      jump\t// in\n    tag_73:\n      pop\n        /* \"contracts/PatientRegistry.sol\":1550:1554  true */\n      0x01\n        /* \"contracts/PatientRegistry.sol\":1533:1534  p */\n      dup2\n        /* \"contracts/PatientRegistry.sol\":1533:1547  p.isRegistered */\n      0x06\n      add\n      0x00\n        /* \"contracts/PatientRegistry.sol\":1533:1554  p.isRegistered = true */\n      0x0100\n      exp\n      dup2\n      sload\n      dup2\n      0xff\n      mul\n      not\n      and\n      swap1\n      dup4\n      iszero\n      iszero\n      mul\n      or\n      swap1\n      sstore\n      pop\n        /* \"contracts/PatientRegistry.sol\":1590:1600  msg.sender */\n      caller\n        /* \"contracts/PatientRegistry.sol\":1572:1608  PatientRegistered(msg.sender, _name) */\n      0xffffffffffffffffffffffffffffffffffffffff\n      and\n      0xc85b128388b9c331a2a5485dce4cd0f3db9f7c279d327ce95d6d39d6c94644c7\n        /* \"contracts/PatientRegistry.sol\":1602:1607  _name */\n      dup9\n        /* \"contracts/PatientRegistry.sol\":1572:1608  PatientRegistered(msg.sender, _name) */\n      mload(0x40)\n      tag_74\n      swap2\n      swap1\n      tag_75\n      jump\t// in\n    tag_74:\n      mload(0x40)\n      dup1\n      swap2\n      sub\n      swap1\n      log2\n        /* \"contracts/PatientRegistry.sol\":1185:1616  {... */\n      pop\n        /* \"contracts/PatientRegistry.sol\":935:1616  function registerPatient(... */\n      pop\n      pop\n      pop\n      pop\n      pop\n      pop\n      jump\t// out\n        /* \"contracts/PatientRegistry.sol\":1891:2029  function getPatientFiles(address _patient) external view returns (string[] memory) {... */\n    tag_20:\n        /* \"contracts/PatientRegistry.sol\":1957:1972  string[] memory */\n      0x60\n        /* \"contracts/PatientRegistry.sol\":1992:2000  patients */\n      0x00\n        /* \"contracts/PatientRegistry.sol\":1992:2010  patients[_patient] */\n      dup1\n        /* \"contracts/PatientRegistry.sol\":2001:2009  _patient */\n      dup4\n        /* \"contracts/PatientRegistry.sol\":1992:2010  patients[_patient] */\n      0xffffffffffffffffffffffffffffffffffffffff\n      and\n      0xffffffffffffffffffffffffffffffffffffffff\n      and\n      dup2\n      mstore\n      0x20\n      add\n      swap1\n      dup2\n      mstore\n      0x20\n      add\n      0x00\n      keccak256\n        /* \"contracts/PatientRegistry.sol\":1992:2021  patients[_patient].fileHashes */\n      0x07\n      add\n        /* \"contracts/PatientRegistry.sol\":1985:2021  return patients[_patient].fileHashes */\n      dup1\n      sload\n      dup1\n      0x20\n      mul\n      0x20\n      add\n      mload(0x40)\n      swap1\n      dup2\n      add\n      0x40\n      mstore\n      dup1\n      swap3\n      swap2\n      swap1\n      dup2\n      dup2\n      mstore\n      0x20\n      add\n      0x00\n      swap1\n    tag_77:\n      dup3\n      dup3\n      lt\n      iszero\n      tag_78\n      jumpi\n      dup4\n      dup3\n      swap1\n      0x00\n      mstore\n      keccak256(0x00, 0x20)\n      add\n      dup1\n      sload\n      tag_80\n      swap1\n      tag_33\n      jump\t// in\n    tag_80:\n      dup1\n      0x1f\n      add\n      0x20\n      dup1\n      swap2\n      div\n      mul\n      0x20\n      add\n      mload(0x40)\n      swap1\n      dup2\n      add\n      0x40\n      mstore\n      dup1\n      swap3\n      swap2\n      swap1\n      dup2\n      dup2\n      mstore\n      0x20\n      add\n      dup3\n      dup1\n      sload\n      tag_81\n      swap1\n      tag_33\n      jump\t// in\n    tag_81:\n      dup1\n      iszero\n      tag_82\n      jumpi\n      dup1\n      0x1f\n      lt\n      tag_83\n      jumpi\n      0x0100\n      dup1\n      dup4\n      sload\n      div\n      mul\n      dup4\n      mstore\n      swap2\n      0x20\n      add\n      swap2\n      jump(tag_82)\n    tag_83:\n      dup3\n      add\n      swap2\n      swap1\n      0x00\n      mstore\n      keccak256(0x00, 0x20)\n      swap1\n    tag_84:\n      dup2\n      sload\n      dup2\n      mstore\n      swap1\n      0x01\n      add\n      swap1\n      0x20\n      add\n      dup1\n      dup4\n      gt\n      tag_84\n      jumpi\n      dup3\n      swap1\n      sub\n      0x1f\n      and\n      dup3\n      add\n      swap2\n    tag_82:\n      pop\n      pop\n      pop\n      pop\n      pop\n      dup2\n      mstore\n      0x20\n      add\n      swap1\n      0x01\n      add\n      swap1\n      jump(tag_77)\n    tag_78:\n      pop\n      pop\n      pop\n      pop\n      swap1\n      pop\n        /* \"contracts/PatientRegistry.sol\":1891:2029  function getPatientFiles(address _patient) external view returns (string[] memory) {... */\n      swap2\n      swap1\n      pop\n      jump\t// out\n        /* \"contracts/PatientRegistry.sol\":1624:1883  function addFileToPatient(address _patient,string memory _fileHash) public  {... */\n    tag_26:\n        /* \"contracts/PatientRegistry.sol\":1719:1727  patients */\n      0x00\n        /* \"contracts/PatientRegistry.sol\":1719:1737  patients[_patient] */\n      dup1\n        /* \"contracts/PatientRegistry.sol\":1728:1736  _patient */\n      dup4\n        /* \"contracts/PatientRegistry.sol\":1719:1737  patients[_patient] */\n      0xffffffffffffffffffffffffffffffffffffffff\n      and\n      0xffffffffffffffffffffffffffffffffffffffff\n      and\n      dup2\n      mstore\n      0x20\n      add\n      swap1\n      dup2\n      mstore\n      0x20\n      add\n      0x00\n      keccak256\n        /* \"contracts/PatientRegistry.sol\":1719:1750  patients[_patient].isRegistered */\n      0x06\n      add\n      0x00\n      swap1\n      sload\n      swap1\n      0x0100\n      exp\n      swap1\n      div\n      0xff\n      and\n        /* \"contracts/PatientRegistry.sol\":1711:1769  require(patients[_patient].isRegistered, \"Not registered\") */\n      tag_86\n      jumpi\n      mload(0x40)\n      0x08c379a000000000000000000000000000000000000000000000000000000000\n      dup2\n      mstore\n      0x04\n      add\n      tag_87\n      swap1\n      tag_88\n      jump\t// in\n    tag_87:\n      mload(0x40)\n      dup1\n      swap2\n      sub\n      swap1\n      revert\n    tag_86:\n        /* \"contracts/PatientRegistry.sol\":1780:1788  patients */\n      0x00\n        /* \"contracts/PatientRegistry.sol\":1780:1800  patients[msg.sender] */\n      dup1\n        /* \"contracts/PatientRegistry.sol\":1789:1799  msg.sender */\n      caller\n        /* \"contracts/PatientRegistry.sol\":1780:1800  patients[msg.sender] */\n      0xffffffffffffffffffffffffffffffffffffffff\n      and\n      0xffffffffffffffffffffffffffffffffffffffff\n      and\n      dup2\n      mstore\n      0x20\n      add\n      swap1\n      dup2\n      mstore\n      0x20\n      add\n      0x00\n      keccak256\n        /* \"contracts/PatientRegistry.sol\":1780:1811  patients[msg.sender].fileHashes */\n      0x07\n      add\n        /* \"contracts/PatientRegistry.sol\":1817:1826  _fileHash */\n      dup2\n        /* \"contracts/PatientRegistry.sol\":1780:1827  patients[msg.sender].fileHashes.push(_fileHash) */\n      swap1\n      dup1\n      0x01\n      dup2\n      sload\n      add\n      dup1\n      dup3\n      sstore\n      dup1\n      swap2\n      pop\n      pop\n      0x01\n      swap1\n      sub\n      swap1\n      0x00\n      mstore\n      keccak256(0x00, 0x20)\n      add\n      0x00\n      swap1\n      swap2\n      swap1\n      swap2\n      swap1\n      swap2\n      pop\n      swap1\n      dup2\n      tag_90\n      swap2\n      swap1\n      tag_68\n      jump\t// in\n    tag_90:\n      pop\n        /* \"contracts/PatientRegistry.sol\":1853:1863  msg.sender */\n      caller\n        /* \"contracts/PatientRegistry.sol\":1843:1875  FileAdded(msg.sender, _fileHash) */\n      0xffffffffffffffffffffffffffffffffffffffff\n      and\n      0x771ad20575501c8cafc4a8793006515911d6e497fd5838018654c9b50347430c\n        /* \"contracts/PatientRegistry.sol\":1865:1874  _fileHash */\n      dup3\n        /* \"contracts/PatientRegistry.sol\":1843:1875  FileAdded(msg.sender, _fileHash) */\n      mload(0x40)\n      tag_91\n      swap2\n      swap1\n      tag_75\n      jump\t// in\n    tag_91:\n      mload(0x40)\n      dup1\n      swap2\n      sub\n      swap1\n      log2\n        /* \"contracts/PatientRegistry.sol\":1624:1883  function addFileToPatient(address _patient,string memory _fileHash) public  {... */\n      pop\n      pop\n      jump\t// out\n        /* \"contracts/PatientRegistry.sol\":2037:2527  function getPatientDetails(address _patient)... */\n    tag_29:\n        /* \"contracts/PatientRegistry.sol\":2146:2164  string memory name */\n      0x60\n        /* \"contracts/PatientRegistry.sol\":2179:2199  string memory gender */\n      dup1\n        /* \"contracts/PatientRegistry.sol\":2214:2239  string memory dateOfBirth */\n      0x60\n        /* \"contracts/PatientRegistry.sol\":2254:2278  string memory bloodGroup */\n      dup1\n        /* \"contracts/PatientRegistry.sol\":2293:2318  string memory contactInfo */\n      0x60\n        /* \"contracts/PatientRegistry.sol\":2333:2358  string memory homeAddress */\n      dup1\n        /* \"contracts/PatientRegistry.sol\":2386:2403  Patient storage p */\n      0x00\n        /* \"contracts/PatientRegistry.sol\":2406:2414  patients */\n      dup1\n        /* \"contracts/PatientRegistry.sol\":2406:2424  patients[_patient] */\n      0x00\n        /* \"contracts/PatientRegistry.sol\":2415:2423  _patient */\n      dup10\n        /* \"contracts/PatientRegistry.sol\":2406:2424  patients[_patient] */\n      0xffffffffffffffffffffffffffffffffffffffff\n      and\n      0xffffffffffffffffffffffffffffffffffffffff\n      and\n      dup2\n      mstore\n      0x20\n      add\n      swap1\n      dup2\n      mstore\n      0x20\n      add\n      0x00\n      keccak256\n        /* \"contracts/PatientRegistry.sol\":2386:2424  Patient storage p = patients[_patient] */\n      swap1\n      pop\n        /* \"contracts/PatientRegistry.sol\":2443:2444  p */\n      dup1\n        /* \"contracts/PatientRegistry.sol\":2443:2449  p.name */\n      0x00\n      add\n        /* \"contracts/PatientRegistry.sol\":2451:2452  p */\n      dup2\n        /* \"contracts/PatientRegistry.sol\":2451:2459  p.gender */\n      0x01\n      add\n        /* \"contracts/PatientRegistry.sol\":2461:2462  p */\n      dup3\n        /* \"contracts/PatientRegistry.sol\":2461:2474  p.dateOfBirth */\n      0x02\n      add\n        /* \"contracts/PatientRegistry.sol\":2476:2477  p */\n      dup4\n        /* \"contracts/PatientRegistry.sol\":2476:2488  p.bloodGroup */\n      0x03\n      add\n        /* \"contracts/PatientRegistry.sol\":2490:2491  p */\n      dup5\n        /* \"contracts/PatientRegistry.sol\":2490:2503  p.contactInfo */\n      0x04\n      add\n        /* \"contracts/PatientRegistry.sol\":2505:2506  p */\n      dup6\n        /* \"contracts/PatientRegistry.sol\":2505:2518  p.homeAddress */\n      0x05\n      add\n        /* \"contracts/PatientRegistry.sol\":2435:2519  return (p.name, p.gender, p.dateOfBirth, p.bloodGroup, p.contactInfo, p.homeAddress) */\n      dup6\n      dup1\n      sload\n      tag_93\n      swap1\n      tag_33\n      jump\t// in\n    tag_93:\n      dup1\n      0x1f\n      add\n      0x20\n      dup1\n      swap2\n      div\n      mul\n      0x20\n      add\n      mload(0x40)\n      swap1\n      dup2\n      add\n      0x40\n      mstore\n      dup1\n      swap3\n      swap2\n      swap1\n      dup2\n      dup2\n      mstore\n      0x20\n      add\n      dup3\n      dup1\n      sload\n      tag_94\n      swap1\n      tag_33\n      jump\t// in\n    tag_94:\n      dup1\n      iszero\n      tag_95\n      jumpi\n      dup1\n      0x1f\n      lt\n      tag_96\n      jumpi\n      0x0100\n      dup1\n      dup4\n      sload\n      div\n      mul\n      dup4\n      mstore\n      swap2\n      0x20\n      add\n      swap2\n      jump(tag_95)\n    tag_96:\n      dup3\n      add\n      swap2\n      swap1\n      0x00\n      mstore\n      keccak256(0x00, 0x20)\n      swap1\n    tag_97:\n      dup2\n      sload\n      dup2\n      mstore\n      swap1\n      0x01\n      add\n      swap1\n      0x20\n      add\n      dup1\n      dup4\n      gt\n      tag_97\n      jumpi\n      dup3\n      swap1\n      sub\n      0x1f\n      and\n      dup3\n      add\n      swap2\n    tag_95:\n      pop\n      pop\n      pop\n      pop\n      pop\n      swap6\n      pop\n      dup5\n      dup1\n      sload\n      tag_98\n      swap1\n      tag_33\n      jump\t// in\n    tag_98:\n      dup1\n      0x1f\n      add\n      0x20\n      dup1\n      swap2\n      div\n      mul\n      0x20\n      add\n      mload(0x40)\n      swap1\n      dup2\n      add\n      0x40\n      mstore\n      dup1\n      swap3\n      swap2\n      swap1\n      dup2\n      dup2\n      mstore\n      0x20\n      add\n      dup3\n      dup1\n      sload\n      tag_99\n      swap1\n      tag_33\n      jump\t// in\n    tag_99:\n      dup1\n      iszero\n      tag_100\n      jumpi\n      dup1\n      0x1f\n      lt\n      tag_101\n      jumpi\n      0x0100\n      dup1\n      dup4\n      sload\n      div\n      mul\n      dup4\n      mstore\n      swap2\n      0x20\n      add\n      swap2\n      jump(tag_100)\n    tag_101:\n      dup3\n      add\n      swap2\n      swap1\n      0x00\n      mstore\n      keccak256(0x00, 0x20)\n      swap1\n    tag_102:\n      dup2\n      sload\n      dup2\n      mstore\n      swap1\n      0x01\n      add\n      swap1\n      0x20\n      add\n      dup1\n      dup4\n      gt\n      tag_102\n      jumpi\n      dup3\n      swap1\n      sub\n      0x1f\n      and\n      dup3\n      add\n      swap2\n    tag_100:\n      pop\n      pop\n      pop\n      pop\n      pop\n      swap5\n      pop\n      dup4\n      dup1\n      sload\n      tag_103\n      swap1\n      tag_33\n      jump\t// in\n    tag_103:\n      dup1\n      0x1f\n      add\n      0x20\n      dup1\n      swap2\n      div\n      mul\n      0x20\n      add\n      mload(0x40)\n      swap1\n      dup2\n      add\n      0x40\n      mstore\n      dup1\n      swap3\n      swap2\n      swap1\n      dup2\n      dup2\n      mstore\n      0x20\n      add\n      dup3\n      dup1\n      sload\n      tag_104\n      swap1\n      tag_33\n      jump\t// in\n    tag_104:\n      dup1\n      iszero\n      tag_105\n      jumpi\n      dup1\n      0x1f\n      lt\n      tag_106\n      jumpi\n      0x0100\n      dup1\n      dup4\n      sload\n      div\n      mul\n      dup4\n      mstore\n      swap2\n      0x20\n      add\n      swap2\n      jump(tag_105)\n    tag_106:\n      dup3\n      add\n      swap2\n      swap1\n      0x00\n      mstore\n      keccak256(0x00, 0x20)\n      swap1\n    tag_107:\n      dup2\n      sload\n      dup2\n      mstore\n      swap1\n      0x01\n      add\n      swap1\n      0x20\n      add\n      dup1\n      dup4\n      gt\n      tag_107\n      jumpi\n      dup3\n      swap1\n      sub\n      0x1f\n      and\n      dup3\n      add\n      swap2\n    tag_105:\n      pop\n      pop\n      pop\n      pop\n      pop\n      swap4\n      pop\n      dup3\n      dup1\n      sload\n      tag_108\n      swap1\n      tag_33\n      jump\t// in\n    tag_108:\n      dup1\n      0x1f\n      add\n      0x20\n      dup1\n      swap2\n      div\n      mul\n      0x20\n      add\n      mload(0x40)\n      swap1\n      dup2\n      add\n      0x40\n      mstore\n      dup1\n      swap3\n      swap2\n      swap1\n      dup2\n      dup2\n      mstore\n      0x20\n      add\n      dup3\n      dup1\n      sload\n      tag_109\n      swap1\n      tag_33\n      jump\t// in\n    tag_109:\n      dup1\n      iszero\n      tag_110\n      jumpi\n      dup1\n      0x1f\n      lt\n      tag_111\n      jumpi\n      0x0100\n      dup1\n      dup4\n      sload\n      div\n      mul\n      dup4\n      mstore\n      swap2\n      0x20\n      add\n      swap2\n      jump(tag_110)\n    tag_111:\n      dup3\n      add\n      swap2\n      swap1\n      0x00\n      mstore\n      keccak256(0x00, 0x20)\n      swap1\n    tag_112:\n      dup2\n      sload\n      dup2\n      mstore\n      swap1\n      0x01\n      add\n      swap1\n      0x20\n      add\n      dup1\n      dup4\n      gt\n      tag_112\n      jumpi\n      dup3\n      swap1\n      sub\n      0x1f\n      and\n      dup3\n      add\n      swap2\n    tag_110:\n      pop\n      pop\n      pop\n      pop\n      pop\n      swap3\n      pop\n      dup2\n      dup1\n      sload\n      tag_113\n      swap1\n      tag_33\n      jump\t// in\n    tag_113:\n      dup1\n      0x1f\n      add\n      0x20\n      dup1\n      swap2\n      div\n      mul\n      0x20\n      add\n      mload(0x40)\n      swap1\n      dup2\n      add\n      0x40\n      mstore\n      dup1\n      swap3\n      swap2\n      swap1\n      dup2\n      dup2\n      mstore\n      0x20\n      add\n      dup3\n      dup1\n      sload\n      tag_114\n      swap1\n      tag_33\n      jump\t// in\n    tag_114:\n      dup1\n      iszero\n      tag_115\n      jumpi\n      dup1\n      0x1f\n      lt\n      tag_116\n      jumpi\n      0x0100\n      dup1\n      dup4\n      sload\n      div\n      mul\n      dup4\n      mstore\n      swap2\n      0x20\n      add\n      swap2\n      jump(tag_115)\n    tag_116:\n      dup3\n      add\n      swap2\n      swap1\n      0x00\n      mstore\n      keccak256(0x00, 0x20)\n      swap1\n    tag_117:\n      dup2\n      sload\n      dup2\n      mstore\n      swap1\n      0x01\n      add\n      swap1\n      0x20\n      add\n      dup1\n      dup4\n      gt\n      tag_117\n      jumpi\n      dup3\n      swap1\n      sub\n      0x1f\n      and\n      dup3\n      add\n      swap2\n    tag_115:\n      pop\n      pop\n      pop\n      pop\n      pop\n      swap2\n      pop\n      dup1\n      dup1\n      sload\n      tag_118\n      swap1\n      tag_33\n      jump\t// in\n    tag_118:\n      dup1\n      0x1f\n      add\n      0x20\n      dup1\n      swap2\n      div\n      mul\n      0x20\n      add\n      mload(0x40)\n      swap1\n      dup2\n      add\n      0x40\n      mstore\n      dup1\n      swap3\n      swap2\n      swap1\n      dup2\n      dup2\n      mstore\n      0x20\n      add\n      dup3\n      dup1\n      sload\n      tag_119\n      swap1\n      tag_33\n      jump\t// in\n    tag_119:\n      dup1\n      iszero\n      tag_120\n      jumpi\n      dup1\n      0x1f\n      lt\n      tag_121\n      jumpi\n      0x0100\n      dup1\n      dup4\n      sload\n      div\n      mul\n      dup4\n      mstore\n      swap2\n      0x20\n      add\n      swap2\n      jump(tag_120)\n    tag_121:\n      dup3\n      add\n      swap2\n      swap1\n      0x00\n      mstore\n      keccak256(0x00, 0x20)\n      swap1\n    tag_122:\n      dup2\n      sload\n      dup2\n      mstore\n      swap1\n      0x01\n      add\n      swap1\n      0x20\n      add\n      dup1\n      dup4\n      gt\n      tag_122\n      jumpi\n      dup3\n      swap1\n      sub\n      0x1f\n      and\n      dup3\n      add\n      swap2\n    tag_120:\n      pop\n      pop\n      pop\n      pop\n      pop\n      swap1\n      pop\n      swap7\n      pop\n      swap7\n      pop\n      swap7\n      pop\n      swap7\n      pop\n      swap7\n      pop\n      swap7\n      pop\n      pop\n        /* \"contracts/PatientRegistry.sol\":2037:2527  function getPatientDetails(address _patient)... */\n      swap2\n      swap4\n      swap6\n      pop\n      swap2\n      swap4\n      swap6\n      jump\t// out\n        /* \"#utility.yul\":7:82   */\n    tag_123:\n        /* \"#utility.yul\":40:46   */\n      0x00\n        /* \"#utility.yul\":73:75   */\n      0x40\n        /* \"#utility.yul\":67:76   */\n      mload\n        /* \"#utility.yul\":57:76   */\n      swap1\n      pop\n        /* \"#utility.yul\":7:82   */\n      swap1\n      jump\t// out\n        /* \"#utility.yul\":88:205   */\n    tag_124:\n        /* \"#utility.yul\":197:198   */\n      0x00\n        /* \"#utility.yul\":194:195   */\n      dup1\n        /* \"#utility.yul\":187:199   */\n      revert\n        /* \"#utility.yul\":211:328   */\n    tag_125:\n        /* \"#utility.yul\":320:321   */\n      0x00\n        /* \"#utility.yul\":317:318   */\n      dup1\n        /* \"#utility.yul\":310:322   */\n      revert\n        /* \"#utility.yul\":334:460   */\n    tag_126:\n        /* \"#utility.yul\":371:378   */\n      0x00\n        /* \"#utility.yul\":411:453   */\n      0xffffffffffffffffffffffffffffffffffffffff\n        /* \"#utility.yul\":404:409   */\n      dup3\n        /* \"#utility.yul\":400:454   */\n      and\n        /* \"#utility.yul\":389:454   */\n      swap1\n      pop\n        /* \"#utility.yul\":334:460   */\n      swap2\n      swap1\n      pop\n      jump\t// out\n        /* \"#utility.yul\":466:562   */\n    tag_127:\n        /* \"#utility.yul\":503:510   */\n      0x00\n        /* \"#utility.yul\":532:556   */\n      tag_181\n        /* \"#utility.yul\":550:555   */\n      dup3\n        /* \"#utility.yul\":532:556   */\n      tag_126\n      jump\t// in\n    tag_181:\n        /* \"#utility.yul\":521:556   */\n      swap1\n      pop\n        /* \"#utility.yul\":466:562   */\n      swap2\n      swap1\n      pop\n      jump\t// out\n        /* \"#utility.yul\":568:690   */\n    tag_128:\n        /* \"#utility.yul\":641:665   */\n      tag_183\n        /* \"#utility.yul\":659:664   */\n      dup2\n        /* \"#utility.yul\":641:665   */\n      tag_127\n      jump\t// in\n    tag_183:\n        /* \"#utility.yul\":634:639   */\n      dup2\n        /* \"#utility.yul\":631:666   */\n      eq\n        /* \"#utility.yul\":621:684   */\n      tag_184\n      jumpi\n        /* \"#utility.yul\":680:681   */\n      0x00\n        /* \"#utility.yul\":677:678   */\n      dup1\n        /* \"#utility.yul\":670:682   */\n      revert\n        /* \"#utility.yul\":621:684   */\n    tag_184:\n        /* \"#utility.yul\":568:690   */\n      pop\n      jump\t// out\n        /* \"#utility.yul\":696:835   */\n    tag_129:\n        /* \"#utility.yul\":742:747   */\n      0x00\n        /* \"#utility.yul\":780:786   */\n      dup2\n        /* \"#utility.yul\":767:787   */\n      calldataload\n        /* \"#utility.yul\":758:787   */\n      swap1\n      pop\n        /* \"#utility.yul\":796:829   */\n      tag_186\n        /* \"#utility.yul\":823:828   */\n      dup2\n        /* \"#utility.yul\":796:829   */\n      tag_128\n      jump\t// in\n    tag_186:\n        /* \"#utility.yul\":696:835   */\n      swap3\n      swap2\n      pop\n      pop\n      jump\t// out\n        /* \"#utility.yul\":841:1170   */\n    tag_10:\n        /* \"#utility.yul\":900:906   */\n      0x00\n        /* \"#utility.yul\":949:951   */\n      0x20\n        /* \"#utility.yul\":937:946   */\n      dup3\n        /* \"#utility.yul\":928:935   */\n      dup5\n        /* \"#utility.yul\":924:947   */\n      sub\n        /* \"#utility.yul\":920:952   */\n      slt\n        /* \"#utility.yul\":917:1036   */\n      iszero\n      tag_188\n      jumpi\n        /* \"#utility.yul\":955:1034   */\n      tag_189\n      tag_124\n      jump\t// in\n    tag_189:\n        /* \"#utility.yul\":917:1036   */\n    tag_188:\n        /* \"#utility.yul\":1075:1076   */\n      0x00\n        /* \"#utility.yul\":1100:1153   */\n      tag_190\n        /* \"#utility.yul\":1145:1152   */\n      dup5\n        /* \"#utility.yul\":1136:1142   */\n      dup3\n        /* \"#utility.yul\":1125:1134   */\n      dup6\n        /* \"#utility.yul\":1121:1143   */\n      add\n        /* \"#utility.yul\":1100:1153   */\n      tag_129\n      jump\t// in\n    tag_190:\n        /* \"#utility.yul\":1090:1153   */\n      swap2\n      pop\n        /* \"#utility.yul\":1046:1163   */\n      pop\n        /* \"#utility.yul\":841:1170   */\n      swap3\n      swap2\n      pop\n      pop\n      jump\t// out\n        /* \"#utility.yul\":1176:1275   */\n    tag_130:\n        /* \"#utility.yul\":1228:1234   */\n      0x00\n        /* \"#utility.yul\":1262:1267   */\n      dup2\n        /* \"#utility.yul\":1256:1268   */\n      mload\n        /* \"#utility.yul\":1246:1268   */\n      swap1\n      pop\n        /* \"#utility.yul\":1176:1275   */\n      swap2\n      swap1\n      pop\n      jump\t// out\n        /* \"#utility.yul\":1281:1450   */\n    tag_131:\n        /* \"#utility.yul\":1365:1376   */\n      0x00\n        /* \"#utility.yul\":1399:1405   */\n      dup3\n        /* \"#utility.yul\":1394:1397   */\n      dup3\n        /* \"#utility.yul\":1387:1406   */\n      mstore\n        /* \"#utility.yul\":1439:1443   */\n      0x20\n        /* \"#utility.yul\":1434:1437   */\n      dup3\n        /* \"#utility.yul\":1430:1444   */\n      add\n        /* \"#utility.yul\":1415:1444   */\n      swap1\n      pop\n        /* \"#utility.yul\":1281:1450   */\n      swap3\n      swap2\n      pop\n      pop\n      jump\t// out\n        /* \"#utility.yul\":1456:1704   */\n    tag_132:\n        /* \"#utility.yul\":1538:1539   */\n      0x00\n        /* \"#utility.yul\":1548:1661   */\n    tag_194:\n        /* \"#utility.yul\":1562:1568   */\n      dup4\n        /* \"#utility.yul\":1559:1560   */\n      dup2\n        /* \"#utility.yul\":1556:1569   */\n      lt\n        /* \"#utility.yul\":1548:1661   */\n      iszero\n      tag_196\n      jumpi\n        /* \"#utility.yul\":1647:1648   */\n      dup1\n        /* \"#utility.yul\":1642:1645   */\n      dup3\n        /* \"#utility.yul\":1638:1649   */\n      add\n        /* \"#utility.yul\":1632:1650   */\n      mload\n        /* \"#utility.yul\":1628:1629   */\n      dup2\n        /* \"#utility.yul\":1623:1626   */\n      dup5\n        /* \"#utility.yul\":1619:1630   */\n      add\n        /* \"#utility.yul\":1612:1651   */\n      mstore\n        /* \"#utility.yul\":1584:1586   */\n      0x20\n        /* \"#utility.yul\":1581:1582   */\n      dup2\n        /* \"#utility.yul\":1577:1587   */\n      add\n        /* \"#utility.yul\":1572:1587   */\n      swap1\n      pop\n        /* \"#utility.yul\":1548:1661   */\n      jump(tag_194)\n    tag_196:\n        /* \"#utility.yul\":1695:1696   */\n      0x00\n        /* \"#utility.yul\":1686:1692   */\n      dup5\n        /* \"#utility.yul\":1681:1684   */\n      dup5\n        /* \"#utility.yul\":1677:1693   */\n      add\n        /* \"#utility.yul\":1670:1697   */\n      mstore\n        /* \"#utility.yul\":1518:1704   */\n      pop\n        /* \"#utility.yul\":1456:1704   */\n      pop\n      pop\n      pop\n      jump\t// out\n        /* \"#utility.yul\":1710:1812   */\n    tag_133:\n        /* \"#utility.yul\":1751:1757   */\n      0x00\n        /* \"#utility.yul\":1802:1804   */\n      0x1f\n        /* \"#utility.yul\":1798:1805   */\n      not\n        /* \"#utility.yul\":1793:1795   */\n      0x1f\n        /* \"#utility.yul\":1786:1791   */\n      dup4\n        /* \"#utility.yul\":1782:1796   */\n      add\n        /* \"#utility.yul\":1778:1806   */\n      and\n        /* \"#utility.yul\":1768:1806   */\n      swap1\n      pop\n        /* \"#utility.yul\":1710:1812   */\n      swap2\n      swap1\n      pop\n      jump\t// out\n        /* \"#utility.yul\":1818:2195   */\n    tag_134:\n        /* \"#utility.yul\":1906:1909   */\n      0x00\n        /* \"#utility.yul\":1934:1973   */\n      tag_199\n        /* \"#utility.yul\":1967:1972   */\n      dup3\n        /* \"#utility.yul\":1934:1973   */\n      tag_130\n      jump\t// in\n    tag_199:\n        /* \"#utility.yul\":1989:2060   */\n      tag_200\n        /* \"#utility.yul\":2053:2059   */\n      dup2\n        /* \"#utility.yul\":2048:2051   */\n      dup6\n        /* \"#utility.yul\":1989:2060   */\n      tag_131\n      jump\t// in\n    tag_200:\n        /* \"#utility.yul\":1982:2060   */\n      swap4\n      pop\n        /* \"#utility.yul\":2069:2134   */\n      tag_201\n        /* \"#utility.yul\":2127:2133   */\n      dup2\n        /* \"#utility.yul\":2122:2125   */\n      dup6\n        /* \"#utility.yul\":2115:2119   */\n      0x20\n        /* \"#utility.yul\":2108:2113   */\n      dup7\n        /* \"#utility.yul\":2104:2120   */\n      add\n        /* \"#utility.yul\":2069:2134   */\n      tag_132\n      jump\t// in\n    tag_201:\n        /* \"#utility.yul\":2159:2188   */\n      tag_202\n        /* \"#utility.yul\":2181:2187   */\n      dup2\n        /* \"#utility.yul\":2159:2188   */\n      tag_133\n      jump\t// in\n    tag_202:\n        /* \"#utility.yul\":2154:2157   */\n      dup5\n        /* \"#utility.yul\":2150:2189   */\n      add\n        /* \"#utility.yul\":2143:2189   */\n      swap2\n      pop\n        /* \"#utility.yul\":1910:2195   */\n      pop\n        /* \"#utility.yul\":1818:2195   */\n      swap3\n      swap2\n      pop\n      pop\n      jump\t// out\n        /* \"#utility.yul\":2201:2291   */\n    tag_135:\n        /* \"#utility.yul\":2235:2242   */\n      0x00\n        /* \"#utility.yul\":2278:2283   */\n      dup2\n        /* \"#utility.yul\":2271:2284   */\n      iszero\n        /* \"#utility.yul\":2264:2285   */\n      iszero\n        /* \"#utility.yul\":2253:2285   */\n      swap1\n      pop\n        /* \"#utility.yul\":2201:2291   */\n      swap2\n      swap1\n      pop\n      jump\t// out\n        /* \"#utility.yul\":2297:2406   */\n    tag_136:\n        /* \"#utility.yul\":2378:2399   */\n      tag_205\n        /* \"#utility.yul\":2393:2398   */\n      dup2\n        /* \"#utility.yul\":2378:2399   */\n      tag_135\n      jump\t// in\n    tag_205:\n        /* \"#utility.yul\":2373:2376   */\n      dup3\n        /* \"#utility.yul\":2366:2400   */\n      mstore\n        /* \"#utility.yul\":2297:2406   */\n      pop\n      pop\n      jump\t// out\n        /* \"#utility.yul\":2412:3832   */\n    tag_13:\n        /* \"#utility.yul\":2787:2791   */\n      0x00\n        /* \"#utility.yul\":2825:2828   */\n      0xe0\n        /* \"#utility.yul\":2814:2823   */\n      dup3\n        /* \"#utility.yul\":2810:2829   */\n      add\n        /* \"#utility.yul\":2802:2829   */\n      swap1\n      pop\n        /* \"#utility.yul\":2875:2884   */\n      dup2\n        /* \"#utility.yul\":2869:2873   */\n      dup2\n        /* \"#utility.yul\":2865:2885   */\n      sub\n        /* \"#utility.yul\":2861:2862   */\n      0x00\n        /* \"#utility.yul\":2850:2859   */\n      dup4\n        /* \"#utility.yul\":2846:2863   */\n      add\n        /* \"#utility.yul\":2839:2886   */\n      mstore\n        /* \"#utility.yul\":2903:2981   */\n      tag_207\n        /* \"#utility.yul\":2976:2980   */\n      dup2\n        /* \"#utility.yul\":2967:2973   */\n      dup11\n        /* \"#utility.yul\":2903:2981   */\n      tag_134\n      jump\t// in\n    tag_207:\n        /* \"#utility.yul\":2895:2981   */\n      swap1\n      pop\n        /* \"#utility.yul\":3028:3037   */\n      dup2\n        /* \"#utility.yul\":3022:3026   */\n      dup2\n        /* \"#utility.yul\":3018:3038   */\n      sub\n        /* \"#utility.yul\":3013:3015   */\n      0x20\n        /* \"#utility.yul\":3002:3011   */\n      dup4\n        /* \"#utility.yul\":2998:3016   */\n      add\n        /* \"#utility.yul\":2991:3039   */\n      mstore\n        /* \"#utility.yul\":3056:3134   */\n      tag_208\n        /* \"#utility.yul\":3129:3133   */\n      dup2\n        /* \"#utility.yul\":3120:3126   */\n      dup10\n        /* \"#utility.yul\":3056:3134   */\n      tag_134\n      jump\t// in\n    tag_208:\n        /* \"#utility.yul\":3048:3134   */\n      swap1\n      pop\n        /* \"#utility.yul\":3181:3190   */\n      dup2\n        /* \"#utility.yul\":3175:3179   */\n      dup2\n        /* \"#utility.yul\":3171:3191   */\n      sub\n        /* \"#utility.yul\":3166:3168   */\n      0x40\n        /* \"#utility.yul\":3155:3164   */\n      dup4\n        /* \"#utility.yul\":3151:3169   */\n      add\n        /* \"#utility.yul\":3144:3192   */\n      mstore\n        /* \"#utility.yul\":3209:3287   */\n      tag_209\n        /* \"#utility.yul\":3282:3286   */\n      dup2\n        /* \"#utility.yul\":3273:3279   */\n      dup9\n        /* \"#utility.yul\":3209:3287   */\n      tag_134\n      jump\t// in\n    tag_209:\n        /* \"#utility.yul\":3201:3287   */\n      swap1\n      pop\n        /* \"#utility.yul\":3334:3343   */\n      dup2\n        /* \"#utility.yul\":3328:3332   */\n      dup2\n        /* \"#utility.yul\":3324:3344   */\n      sub\n        /* \"#utility.yul\":3319:3321   */\n      0x60\n        /* \"#utility.yul\":3308:3317   */\n      dup4\n        /* \"#utility.yul\":3304:3322   */\n      add\n        /* \"#utility.yul\":3297:3345   */\n      mstore\n        /* \"#utility.yul\":3362:3440   */\n      tag_210\n        /* \"#utility.yul\":3435:3439   */\n      dup2\n        /* \"#utility.yul\":3426:3432   */\n      dup8\n        /* \"#utility.yul\":3362:3440   */\n      tag_134\n      jump\t// in\n    tag_210:\n        /* \"#utility.yul\":3354:3440   */\n      swap1\n      pop\n        /* \"#utility.yul\":3488:3497   */\n      dup2\n        /* \"#utility.yul\":3482:3486   */\n      dup2\n        /* \"#utility.yul\":3478:3498   */\n      sub\n        /* \"#utility.yul\":3472:3475   */\n      0x80\n        /* \"#utility.yul\":3461:3470   */\n      dup4\n        /* \"#utility.yul\":3457:3476   */\n      add\n        /* \"#utility.yul\":3450:3499   */\n      mstore\n        /* \"#utility.yul\":3516:3594   */\n      tag_211\n        /* \"#utility.yul\":3589:3593   */\n      dup2\n        /* \"#utility.yul\":3580:3586   */\n      dup7\n        /* \"#utility.yul\":3516:3594   */\n      tag_134\n      jump\t// in\n    tag_211:\n        /* \"#utility.yul\":3508:3594   */\n      swap1\n      pop\n        /* \"#utility.yul\":3642:3651   */\n      dup2\n        /* \"#utility.yul\":3636:3640   */\n      dup2\n        /* \"#utility.yul\":3632:3652   */\n      sub\n        /* \"#utility.yul\":3626:3629   */\n      0xa0\n        /* \"#utility.yul\":3615:3624   */\n      dup4\n        /* \"#utility.yul\":3611:3630   */\n      add\n        /* \"#utility.yul\":3604:3653   */\n      mstore\n        /* \"#utility.yul\":3670:3748   */\n      tag_212\n        /* \"#utility.yul\":3743:3747   */\n      dup2\n        /* \"#utility.yul\":3734:3740   */\n      dup6\n        /* \"#utility.yul\":3670:3748   */\n      tag_134\n      jump\t// in\n    tag_212:\n        /* \"#utility.yul\":3662:3748   */\n      swap1\n      pop\n        /* \"#utility.yul\":3758:3825   */\n      tag_213\n        /* \"#utility.yul\":3820:3823   */\n      0xc0\n        /* \"#utility.yul\":3809:3818   */\n      dup4\n        /* \"#utility.yul\":3805:3824   */\n      add\n        /* \"#utility.yul\":3796:3802   */\n      dup5\n        /* \"#utility.yul\":3758:3825   */\n      tag_136\n      jump\t// in\n    tag_213:\n        /* \"#utility.yul\":2412:3832   */\n      swap9\n      swap8\n      pop\n      pop\n      pop\n      pop\n      pop\n      pop\n      pop\n      pop\n      jump\t// out\n        /* \"#utility.yul\":3838:3955   */\n    tag_137:\n        /* \"#utility.yul\":3947:3948   */\n      0x00\n        /* \"#utility.yul\":3944:3945   */\n      dup1\n        /* \"#utility.yul\":3937:3949   */\n      revert\n        /* \"#utility.yul\":3961:4078   */\n    tag_138:\n        /* \"#utility.yul\":4070:4071   */\n      0x00\n        /* \"#utility.yul\":4067:4068   */\n      dup1\n        /* \"#utility.yul\":4060:4072   */\n      revert\n        /* \"#utility.yul\":4084:4264   */\n    tag_139:\n        /* \"#utility.yul\":4132:4209   */\n      0x4e487b7100000000000000000000000000000000000000000000000000000000\n        /* \"#utility.yul\":4129:4130   */\n      0x00\n        /* \"#utility.yul\":4122:4210   */\n      mstore\n        /* \"#utility.yul\":4229:4233   */\n      0x41\n        /* \"#utility.yul\":4226:4227   */\n      0x04\n        /* \"#utility.yul\":4219:4234   */\n      mstore\n        /* \"#utility.yul\":4253:4257   */\n      0x24\n        /* \"#utility.yul\":4250:4251   */\n      0x00\n        /* \"#utility.yul\":4243:4258   */\n      revert\n        /* \"#utility.yul\":4270:4551   */\n    tag_140:\n        /* \"#utility.yul\":4353:4380   */\n      tag_218\n        /* \"#utility.yul\":4375:4379   */\n      dup3\n        /* \"#utility.yul\":4353:4380   */\n      tag_133\n      jump\t// in\n    tag_218:\n        /* \"#utility.yul\":4345:4351   */\n      dup2\n        /* \"#utility.yul\":4341:4381   */\n      add\n        /* \"#utility.yul\":4483:4489   */\n      dup2\n        /* \"#utility.yul\":4471:4481   */\n      dup2\n        /* \"#utility.yul\":4468:4490   */\n      lt\n        /* \"#utility.yul\":4447:4465   */\n      0xffffffffffffffff\n        /* \"#utility.yul\":4435:4445   */\n      dup3\n        /* \"#utility.yul\":4432:4466   */\n      gt\n        /* \"#utility.yul\":4429:4491   */\n      or\n        /* \"#utility.yul\":4426:4514   */\n      iszero\n      tag_219\n      jumpi\n        /* \"#utility.yul\":4494:4512   */\n      tag_220\n      tag_139\n      jump\t// in\n    tag_220:\n        /* \"#utility.yul\":4426:4514   */\n    tag_219:\n        /* \"#utility.yul\":4534:4544   */\n      dup1\n        /* \"#utility.yul\":4530:4532   */\n      0x40\n        /* \"#utility.yul\":4523:4545   */\n      mstore\n        /* \"#utility.yul\":4313:4551   */\n      pop\n        /* \"#utility.yul\":4270:4551   */\n      pop\n      pop\n      jump\t// out\n        /* \"#utility.yul\":4557:4686   */\n    tag_141:\n        /* \"#utility.yul\":4591:4597   */\n      0x00\n        /* \"#utility.yul\":4618:4638   */\n      tag_222\n      tag_123\n      jump\t// in\n    tag_222:\n        /* \"#utility.yul\":4608:4638   */\n      swap1\n      pop\n        /* \"#utility.yul\":4647:4680   */\n      tag_223\n        /* \"#utility.yul\":4675:4679   */\n      dup3\n        /* \"#utility.yul\":4667:4673   */\n      dup3\n        /* \"#utility.yul\":4647:4680   */\n      tag_140\n      jump\t// in\n    tag_223:\n        /* \"#utility.yul\":4557:4686   */\n      swap2\n      swap1\n      pop\n      jump\t// out\n        /* \"#utility.yul\":4692:5000   */\n    tag_142:\n        /* \"#utility.yul\":4754:4758   */\n      0x00\n        /* \"#utility.yul\":4844:4862   */\n      0xffffffffffffffff\n        /* \"#utility.yul\":4836:4842   */\n      dup3\n        /* \"#utility.yul\":4833:4863   */\n      gt\n        /* \"#utility.yul\":4830:4886   */\n      iszero\n      tag_225\n      jumpi\n        /* \"#utility.yul\":4866:4884   */\n      tag_226\n      tag_139\n      jump\t// in\n    tag_226:\n        /* \"#utility.yul\":4830:4886   */\n    tag_225:\n        /* \"#utility.yul\":4904:4933   */\n      tag_227\n        /* \"#utility.yul\":4926:4932   */\n      dup3\n        /* \"#utility.yul\":4904:4933   */\n      tag_133\n      jump\t// in\n    tag_227:\n        /* \"#utility.yul\":4896:4933   */\n      swap1\n      pop\n        /* \"#utility.yul\":4988:4992   */\n      0x20\n        /* \"#utility.yul\":4982:4986   */\n      dup2\n        /* \"#utility.yul\":4978:4993   */\n      add\n        /* \"#utility.yul\":4970:4993   */\n      swap1\n      pop\n        /* \"#utility.yul\":4692:5000   */\n      swap2\n      swap1\n      pop\n      jump\t// out\n        /* \"#utility.yul\":5006:5154   */\n    tag_143:\n        /* \"#utility.yul\":5104:5110   */\n      dup3\n        /* \"#utility.yul\":5099:5102   */\n      dup2\n        /* \"#utility.yul\":5094:5097   */\n      dup4\n        /* \"#utility.yul\":5081:5111   */\n      calldatacopy\n        /* \"#utility.yul\":5145:5146   */\n      0x00\n        /* \"#utility.yul\":5136:5142   */\n      dup4\n        /* \"#utility.yul\":5131:5134   */\n      dup4\n        /* \"#utility.yul\":5127:5143   */\n      add\n        /* \"#utility.yul\":5120:5147   */\n      mstore\n        /* \"#utility.yul\":5006:5154   */\n      pop\n      pop\n      pop\n      jump\t// out\n        /* \"#utility.yul\":5160:5585   */\n    tag_144:\n        /* \"#utility.yul\":5238:5243   */\n      0x00\n        /* \"#utility.yul\":5263:5329   */\n      tag_230\n        /* \"#utility.yul\":5279:5328   */\n      tag_231\n        /* \"#utility.yul\":5321:5327   */\n      dup5\n        /* \"#utility.yul\":5279:5328   */\n      tag_142\n      jump\t// in\n    tag_231:\n        /* \"#utility.yul\":5263:5329   */\n      tag_141\n      jump\t// in\n    tag_230:\n        /* \"#utility.yul\":5254:5329   */\n      swap1\n      pop\n        /* \"#utility.yul\":5352:5358   */\n      dup3\n        /* \"#utility.yul\":5345:5350   */\n      dup2\n        /* \"#utility.yul\":5338:5359   */\n      mstore\n        /* \"#utility.yul\":5390:5394   */\n      0x20\n        /* \"#utility.yul\":5383:5388   */\n      dup2\n        /* \"#utility.yul\":5379:5395   */\n      add\n        /* \"#utility.yul\":5428:5431   */\n      dup5\n        /* \"#utility.yul\":5419:5425   */\n      dup5\n        /* \"#utility.yul\":5414:5417   */\n      dup5\n        /* \"#utility.yul\":5410:5426   */\n      add\n        /* \"#utility.yul\":5407:5432   */\n      gt\n        /* \"#utility.yul\":5404:5516   */\n      iszero\n      tag_232\n      jumpi\n        /* \"#utility.yul\":5435:5514   */\n      tag_233\n      tag_138\n      jump\t// in\n    tag_233:\n        /* \"#utility.yul\":5404:5516   */\n    tag_232:\n        /* \"#utility.yul\":5525:5579   */\n      tag_234\n        /* \"#utility.yul\":5572:5578   */\n      dup5\n        /* \"#utility.yul\":5567:5570   */\n      dup3\n        /* \"#utility.yul\":5562:5565   */\n      dup6\n        /* \"#utility.yul\":5525:5579   */\n      tag_143\n      jump\t// in\n    tag_234:\n        /* \"#utility.yul\":5244:5585   */\n      pop\n        /* \"#utility.yul\":5160:5585   */\n      swap4\n      swap3\n      pop\n      pop\n      pop\n      jump\t// out\n        /* \"#utility.yul\":5605:5945   */\n    tag_145:\n        /* \"#utility.yul\":5661:5666   */\n      0x00\n        /* \"#utility.yul\":5710:5713   */\n      dup3\n        /* \"#utility.yul\":5703:5707   */\n      0x1f\n        /* \"#utility.yul\":5695:5701   */\n      dup4\n        /* \"#utility.yul\":5691:5708   */\n      add\n        /* \"#utility.yul\":5687:5714   */\n      slt\n        /* \"#utility.yul\":5677:5799   */\n      tag_236\n      jumpi\n        /* \"#utility.yul\":5718:5797   */\n      tag_237\n      tag_137\n      jump\t// in\n    tag_237:\n        /* \"#utility.yul\":5677:5799   */\n    tag_236:\n        /* \"#utility.yul\":5835:5841   */\n      dup2\n        /* \"#utility.yul\":5822:5842   */\n      calldataload\n        /* \"#utility.yul\":5860:5939   */\n      tag_238\n        /* \"#utility.yul\":5935:5938   */\n      dup5\n        /* \"#utility.yul\":5927:5933   */\n      dup3\n        /* \"#utility.yul\":5920:5924   */\n      0x20\n        /* \"#utility.yul\":5912:5918   */\n      dup7\n        /* \"#utility.yul\":5908:5925   */\n      add\n        /* \"#utility.yul\":5860:5939   */\n      tag_144\n      jump\t// in\n    tag_238:\n        /* \"#utility.yul\":5851:5939   */\n      swap2\n      pop\n        /* \"#utility.yul\":5667:5945   */\n      pop\n        /* \"#utility.yul\":5605:5945   */\n      swap3\n      swap2\n      pop\n      pop\n      jump\t// out\n        /* \"#utility.yul\":5951:8088   */\n    tag_16:\n        /* \"#utility.yul\":6115:6121   */\n      0x00\n        /* \"#utility.yul\":6123:6129   */\n      dup1\n        /* \"#utility.yul\":6131:6137   */\n      0x00\n        /* \"#utility.yul\":6139:6145   */\n      dup1\n        /* \"#utility.yul\":6147:6153   */\n      0x00\n        /* \"#utility.yul\":6155:6161   */\n      dup1\n        /* \"#utility.yul\":6204:6207   */\n      0xc0\n        /* \"#utility.yul\":6192:6201   */\n      dup8\n        /* \"#utility.yul\":6183:6190   */\n      dup10\n        /* \"#utility.yul\":6179:6202   */\n      sub\n        /* \"#utility.yul\":6175:6208   */\n      slt\n        /* \"#utility.yul\":6172:6292   */\n      iszero\n      tag_240\n      jumpi\n        /* \"#utility.yul\":6211:6290   */\n      tag_241\n      tag_124\n      jump\t// in\n    tag_241:\n        /* \"#utility.yul\":6172:6292   */\n    tag_240:\n        /* \"#utility.yul\":6359:6360   */\n      0x00\n        /* \"#utility.yul\":6348:6357   */\n      dup8\n        /* \"#utility.yul\":6344:6361   */\n      add\n        /* \"#utility.yul\":6331:6362   */\n      calldataload\n        /* \"#utility.yul\":6389:6407   */\n      0xffffffffffffffff\n        /* \"#utility.yul\":6381:6387   */\n      dup2\n        /* \"#utility.yul\":6378:6408   */\n      gt\n        /* \"#utility.yul\":6375:6492   */\n      iszero\n      tag_242\n      jumpi\n        /* \"#utility.yul\":6411:6490   */\n      tag_243\n      tag_125\n      jump\t// in\n    tag_243:\n        /* \"#utility.yul\":6375:6492   */\n    tag_242:\n        /* \"#utility.yul\":6516:6579   */\n      tag_244\n        /* \"#utility.yul\":6571:6578   */\n      dup10\n        /* \"#utility.yul\":6562:6568   */\n      dup3\n        /* \"#utility.yul\":6551:6560   */\n      dup11\n        /* \"#utility.yul\":6547:6569   */\n      add\n        /* \"#utility.yul\":6516:6579   */\n      tag_145\n      jump\t// in\n    tag_244:\n        /* \"#utility.yul\":6506:6579   */\n      swap7\n      pop\n        /* \"#utility.yul\":6302:6589   */\n      pop\n        /* \"#utility.yul\":6656:6658   */\n      0x20\n        /* \"#utility.yul\":6645:6654   */\n      dup8\n        /* \"#utility.yul\":6641:6659   */\n      add\n        /* \"#utility.yul\":6628:6660   */\n      calldataload\n        /* \"#utility.yul\":6687:6705   */\n      0xffffffffffffffff\n        /* \"#utility.yul\":6679:6685   */\n      dup2\n        /* \"#utility.yul\":6676:6706   */\n      gt\n        /* \"#utility.yul\":6673:6790   */\n      iszero\n      tag_245\n      jumpi\n        /* \"#utility.yul\":6709:6788   */\n      tag_246\n      tag_125\n      jump\t// in\n    tag_246:\n        /* \"#utility.yul\":6673:6790   */\n    tag_245:\n        /* \"#utility.yul\":6814:6877   */\n      tag_247\n        /* \"#utility.yul\":6869:6876   */\n      dup10\n        /* \"#utility.yul\":6860:6866   */\n      dup3\n        /* \"#utility.yul\":6849:6858   */\n      dup11\n        /* \"#utility.yul\":6845:6867   */\n      add\n        /* \"#utility.yul\":6814:6877   */\n      tag_145\n      jump\t// in\n    tag_247:\n        /* \"#utility.yul\":6804:6877   */\n      swap6\n      pop\n        /* \"#utility.yul\":6599:6887   */\n      pop\n        /* \"#utility.yul\":6954:6956   */\n      0x40\n        /* \"#utility.yul\":6943:6952   */\n      dup8\n        /* \"#utility.yul\":6939:6957   */\n      add\n        /* \"#utility.yul\":6926:6958   */\n      calldataload\n        /* \"#utility.yul\":6985:7003   */\n      0xffffffffffffffff\n        /* \"#utility.yul\":6977:6983   */\n      dup2\n        /* \"#utility.yul\":6974:7004   */\n      gt\n        /* \"#utility.yul\":6971:7088   */\n      iszero\n      tag_248\n      jumpi\n        /* \"#utility.yul\":7007:7086   */\n      tag_249\n      tag_125\n      jump\t// in\n    tag_249:\n        /* \"#utility.yul\":6971:7088   */\n    tag_248:\n        /* \"#utility.yul\":7112:7175   */\n      tag_250\n        /* \"#utility.yul\":7167:7174   */\n      dup10\n        /* \"#utility.yul\":7158:7164   */\n      dup3\n        /* \"#utility.yul\":7147:7156   */\n      dup11\n        /* \"#utility.yul\":7143:7165   */\n      add\n        /* \"#utility.yul\":7112:7175   */\n      tag_145\n      jump\t// in\n    tag_250:\n        /* \"#utility.yul\":7102:7175   */\n      swap5\n      pop\n        /* \"#utility.yul\":6897:7185   */\n      pop\n        /* \"#utility.yul\":7252:7254   */\n      0x60\n        /* \"#utility.yul\":7241:7250   */\n      dup8\n        /* \"#utility.yul\":7237:7255   */\n      add\n        /* \"#utility.yul\":7224:7256   */\n      calldataload\n        /* \"#utility.yul\":7283:7301   */\n      0xffffffffffffffff\n        /* \"#utility.yul\":7275:7281   */\n      dup2\n        /* \"#utility.yul\":7272:7302   */\n      gt\n        /* \"#utility.yul\":7269:7386   */\n      iszero\n      tag_251\n      jumpi\n        /* \"#utility.yul\":7305:7384   */\n      tag_252\n      tag_125\n      jump\t// in\n    tag_252:\n        /* \"#utility.yul\":7269:7386   */\n    tag_251:\n        /* \"#utility.yul\":7410:7473   */\n      tag_253\n        /* \"#utility.yul\":7465:7472   */\n      dup10\n        /* \"#utility.yul\":7456:7462   */\n      dup3\n        /* \"#utility.yul\":7445:7454   */\n      dup11\n        /* \"#utility.yul\":7441:7463   */\n      add\n        /* \"#utility.yul\":7410:7473   */\n      tag_145\n      jump\t// in\n    tag_253:\n        /* \"#utility.yul\":7400:7473   */\n      swap4\n      pop\n        /* \"#utility.yul\":7195:7483   */\n      pop\n        /* \"#utility.yul\":7550:7553   */\n      0x80\n        /* \"#utility.yul\":7539:7548   */\n      dup8\n        /* \"#utility.yul\":7535:7554   */\n      add\n        /* \"#utility.yul\":7522:7555   */\n      calldataload\n        /* \"#utility.yul\":7582:7600   */\n      0xffffffffffffffff\n        /* \"#utility.yul\":7574:7580   */\n      dup2\n        /* \"#utility.yul\":7571:7601   */\n      gt\n        /* \"#utility.yul\":7568:7685   */\n      iszero\n      tag_254\n      jumpi\n        /* \"#utility.yul\":7604:7683   */\n      tag_255\n      tag_125\n      jump\t// in\n    tag_255:\n        /* \"#utility.yul\":7568:7685   */\n    tag_254:\n        /* \"#utility.yul\":7709:7772   */\n      tag_256\n        /* \"#utility.yul\":7764:7771   */\n      dup10\n        /* \"#utility.yul\":7755:7761   */\n      dup3\n        /* \"#utility.yul\":7744:7753   */\n      dup11\n        /* \"#utility.yul\":7740:7762   */\n      add\n        /* \"#utility.yul\":7709:7772   */\n      tag_145\n      jump\t// in\n    tag_256:\n        /* \"#utility.yul\":7699:7772   */\n      swap3\n      pop\n        /* \"#utility.yul\":7493:7782   */\n      pop\n        /* \"#utility.yul\":7849:7852   */\n      0xa0\n        /* \"#utility.yul\":7838:7847   */\n      dup8\n        /* \"#utility.yul\":7834:7853   */\n      add\n        /* \"#utility.yul\":7821:7854   */\n      calldataload\n        /* \"#utility.yul\":7881:7899   */\n      0xffffffffffffffff\n        /* \"#utility.yul\":7873:7879   */\n      dup2\n        /* \"#utility.yul\":7870:7900   */\n      gt\n        /* \"#utility.yul\":7867:7984   */\n      iszero\n      tag_257\n      jumpi\n        /* \"#utility.yul\":7903:7982   */\n      tag_258\n      tag_125\n      jump\t// in\n    tag_258:\n        /* \"#utility.yul\":7867:7984   */\n    tag_257:\n        /* \"#utility.yul\":8008:8071   */\n      tag_259\n        /* \"#utility.yul\":8063:8070   */\n      dup10\n        /* \"#utility.yul\":8054:8060   */\n      dup3\n        /* \"#utility.yul\":8043:8052   */\n      dup11\n        /* \"#utility.yul\":8039:8061   */\n      add\n        /* \"#utility.yul\":8008:8071   */\n      tag_145\n      jump\t// in\n    tag_259:\n        /* \"#utility.yul\":7998:8071   */\n      swap2\n      pop\n        /* \"#utility.yul\":7792:8081   */\n      pop\n        /* \"#utility.yul\":5951:8088   */\n      swap3\n      swap6\n      pop\n      swap3\n      swap6\n      pop\n      swap3\n      swap6\n      jump\t// out\n        /* \"#utility.yul\":8094:8218   */\n    tag_146:\n        /* \"#utility.yul\":8171:8177   */\n      0x00\n        /* \"#utility.yul\":8205:8210   */\n      dup2\n        /* \"#utility.yul\":8199:8211   */\n      mload\n        /* \"#utility.yul\":8189:8211   */\n      swap1\n      pop\n        /* \"#utility.yul\":8094:8218   */\n      swap2\n      swap1\n      pop\n      jump\t// out\n        /* \"#utility.yul\":8224:8418   */\n    tag_147:\n        /* \"#utility.yul\":8333:8344   */\n      0x00\n        /* \"#utility.yul\":8367:8373   */\n      dup3\n        /* \"#utility.yul\":8362:8365   */\n      dup3\n        /* \"#utility.yul\":8355:8374   */\n      mstore\n        /* \"#utility.yul\":8407:8411   */\n      0x20\n        /* \"#utility.yul\":8402:8405   */\n      dup3\n        /* \"#utility.yul\":8398:8412   */\n      add\n        /* \"#utility.yul\":8383:8412   */\n      swap1\n      pop\n        /* \"#utility.yul\":8224:8418   */\n      swap3\n      swap2\n      pop\n      pop\n      jump\t// out\n        /* \"#utility.yul\":8424:8566   */\n    tag_148:\n        /* \"#utility.yul\":8501:8505   */\n      0x00\n        /* \"#utility.yul\":8524:8527   */\n      dup2\n        /* \"#utility.yul\":8516:8527   */\n      swap1\n      pop\n        /* \"#utility.yul\":8554:8558   */\n      0x20\n        /* \"#utility.yul\":8549:8552   */\n      dup3\n        /* \"#utility.yul\":8545:8559   */\n      add\n        /* \"#utility.yul\":8537:8559   */\n      swap1\n      pop\n        /* \"#utility.yul\":8424:8566   */\n      swap2\n      swap1\n      pop\n      jump\t// out\n        /* \"#utility.yul\":8572:8731   */\n    tag_149:\n        /* \"#utility.yul\":8646:8657   */\n      0x00\n        /* \"#utility.yul\":8680:8686   */\n      dup3\n        /* \"#utility.yul\":8675:8678   */\n      dup3\n        /* \"#utility.yul\":8668:8687   */\n      mstore\n        /* \"#utility.yul\":8720:8724   */\n      0x20\n        /* \"#utility.yul\":8715:8718   */\n      dup3\n        /* \"#utility.yul\":8711:8725   */\n      add\n        /* \"#utility.yul\":8696:8725   */\n      swap1\n      pop\n        /* \"#utility.yul\":8572:8731   */\n      swap3\n      swap2\n      pop\n      pop\n      jump\t// out\n        /* \"#utility.yul\":8737:9094   */\n    tag_150:\n        /* \"#utility.yul\":8815:8818   */\n      0x00\n        /* \"#utility.yul\":8843:8882   */\n      tag_265\n        /* \"#utility.yul\":8876:8881   */\n      dup3\n        /* \"#utility.yul\":8843:8882   */\n      tag_130\n      jump\t// in\n    tag_265:\n        /* \"#utility.yul\":8898:8959   */\n      tag_266\n        /* \"#utility.yul\":8952:8958   */\n      dup2\n        /* \"#utility.yul\":8947:8950   */\n      dup6\n        /* \"#utility.yul\":8898:8959   */\n      tag_149\n      jump\t// in\n    tag_266:\n        /* \"#utility.yul\":8891:8959   */\n      swap4\n      pop\n        /* \"#utility.yul\":8968:9033   */\n      tag_267\n        /* \"#utility.yul\":9026:9032   */\n      dup2\n        /* \"#utility.yul\":9021:9024   */\n      dup6\n        /* \"#utility.yul\":9014:9018   */\n      0x20\n        /* \"#utility.yul\":9007:9012   */\n      dup7\n        /* \"#utility.yul\":9003:9019   */\n      add\n        /* \"#utility.yul\":8968:9033   */\n      tag_132\n      jump\t// in\n    tag_267:\n        /* \"#utility.yul\":9058:9087   */\n      tag_268\n        /* \"#utility.yul\":9080:9086   */\n      dup2\n        /* \"#utility.yul\":9058:9087   */\n      tag_133\n      jump\t// in\n    tag_268:\n        /* \"#utility.yul\":9053:9056   */\n      dup5\n        /* \"#utility.yul\":9049:9088   */\n      add\n        /* \"#utility.yul\":9042:9088   */\n      swap2\n      pop\n        /* \"#utility.yul\":8819:9094   */\n      pop\n        /* \"#utility.yul\":8737:9094   */\n      swap3\n      swap2\n      pop\n      pop\n      jump\t// out\n        /* \"#utility.yul\":9100:9296   */\n    tag_151:\n        /* \"#utility.yul\":9189:9199   */\n      0x00\n        /* \"#utility.yul\":9224:9290   */\n      tag_270\n        /* \"#utility.yul\":9286:9289   */\n      dup4\n        /* \"#utility.yul\":9278:9284   */\n      dup4\n        /* \"#utility.yul\":9224:9290   */\n      tag_150\n      jump\t// in\n    tag_270:\n        /* \"#utility.yul\":9210:9290   */\n      swap1\n      pop\n        /* \"#utility.yul\":9100:9296   */\n      swap3\n      swap2\n      pop\n      pop\n      jump\t// out\n        /* \"#utility.yul\":9302:9425   */\n    tag_152:\n        /* \"#utility.yul\":9382:9386   */\n      0x00\n        /* \"#utility.yul\":9414:9418   */\n      0x20\n        /* \"#utility.yul\":9409:9412   */\n      dup3\n        /* \"#utility.yul\":9405:9419   */\n      add\n        /* \"#utility.yul\":9397:9419   */\n      swap1\n      pop\n        /* \"#utility.yul\":9302:9425   */\n      swap2\n      swap1\n      pop\n      jump\t// out\n        /* \"#utility.yul\":9459:10450   */\n    tag_153:\n        /* \"#utility.yul\":9598:9601   */\n      0x00\n        /* \"#utility.yul\":9627:9691   */\n      tag_273\n        /* \"#utility.yul\":9685:9690   */\n      dup3\n        /* \"#utility.yul\":9627:9691   */\n      tag_146\n      jump\t// in\n    tag_273:\n        /* \"#utility.yul\":9707:9803   */\n      tag_274\n        /* \"#utility.yul\":9796:9802   */\n      dup2\n        /* \"#utility.yul\":9791:9794   */\n      dup6\n        /* \"#utility.yul\":9707:9803   */\n      tag_147\n      jump\t// in\n    tag_274:\n        /* \"#utility.yul\":9700:9803   */\n      swap4\n      pop\n        /* \"#utility.yul\":9829:9832   */\n      dup4\n        /* \"#utility.yul\":9874:9878   */\n      0x20\n        /* \"#utility.yul\":9866:9872   */\n      dup3\n        /* \"#utility.yul\":9862:9879   */\n      mul\n        /* \"#utility.yul\":9857:9860   */\n      dup6\n        /* \"#utility.yul\":9853:9880   */\n      add\n        /* \"#utility.yul\":9904:9970   */\n      tag_275\n        /* \"#utility.yul\":9964:9969   */\n      dup6\n        /* \"#utility.yul\":9904:9970   */\n      tag_148\n      jump\t// in\n    tag_275:\n        /* \"#utility.yul\":9993:10000   */\n      dup1\n        /* \"#utility.yul\":10024:10025   */\n      0x00\n        /* \"#utility.yul\":10009:10405   */\n    tag_276:\n        /* \"#utility.yul\":10034:10040   */\n      dup6\n        /* \"#utility.yul\":10031:10032   */\n      dup2\n        /* \"#utility.yul\":10028:10041   */\n      lt\n        /* \"#utility.yul\":10009:10405   */\n      iszero\n      tag_278\n      jumpi\n        /* \"#utility.yul\":10105:10114   */\n      dup5\n        /* \"#utility.yul\":10099:10103   */\n      dup5\n        /* \"#utility.yul\":10095:10115   */\n      sub\n        /* \"#utility.yul\":10090:10093   */\n      dup10\n        /* \"#utility.yul\":10083:10116   */\n      mstore\n        /* \"#utility.yul\":10156:10162   */\n      dup2\n        /* \"#utility.yul\":10150:10163   */\n      mload\n        /* \"#utility.yul\":10184:10268   */\n      tag_279\n        /* \"#utility.yul\":10263:10267   */\n      dup6\n        /* \"#utility.yul\":10248:10261   */\n      dup3\n        /* \"#utility.yul\":10184:10268   */\n      tag_151\n      jump\t// in\n    tag_279:\n        /* \"#utility.yul\":10176:10268   */\n      swap5\n      pop\n        /* \"#utility.yul\":10291:10361   */\n      tag_280\n        /* \"#utility.yul\":10354:10360   */\n      dup4\n        /* \"#utility.yul\":10291:10361   */\n      tag_152\n      jump\t// in\n    tag_280:\n        /* \"#utility.yul\":10281:10361   */\n      swap3\n      pop\n        /* \"#utility.yul\":10390:10394   */\n      0x20\n        /* \"#utility.yul\":10385:10388   */\n      dup11\n        /* \"#utility.yul\":10381:10395   */\n      add\n        /* \"#utility.yul\":10374:10395   */\n      swap10\n      pop\n        /* \"#utility.yul\":10069:10405   */\n      pop\n        /* \"#utility.yul\":10056:10057   */\n      0x01\n        /* \"#utility.yul\":10053:10054   */\n      dup2\n        /* \"#utility.yul\":10049:10058   */\n      add\n        /* \"#utility.yul\":10044:10058   */\n      swap1\n      pop\n        /* \"#utility.yul\":10009:10405   */\n      jump(tag_276)\n    tag_278:\n        /* \"#utility.yul\":10013:10027   */\n      pop\n        /* \"#utility.yul\":10421:10425   */\n      dup3\n        /* \"#utility.yul\":10414:10425   */\n      swap8\n      pop\n        /* \"#utility.yul\":10441:10444   */\n      dup8\n        /* \"#utility.yul\":10434:10444   */\n      swap6\n      pop\n        /* \"#utility.yul\":9603:10450   */\n      pop\n      pop\n      pop\n      pop\n      pop\n        /* \"#utility.yul\":9459:10450   */\n      swap3\n      swap2\n      pop\n      pop\n      jump\t// out\n        /* \"#utility.yul\":10456:10869   */\n    tag_22:\n        /* \"#utility.yul\":10619:10623   */\n      0x00\n        /* \"#utility.yul\":10657:10659   */\n      0x20\n        /* \"#utility.yul\":10646:10655   */\n      dup3\n        /* \"#utility.yul\":10642:10660   */\n      add\n        /* \"#utility.yul\":10634:10660   */\n      swap1\n      pop\n        /* \"#utility.yul\":10706:10715   */\n      dup2\n        /* \"#utility.yul\":10700:10704   */\n      dup2\n        /* \"#utility.yul\":10696:10716   */\n      sub\n        /* \"#utility.yul\":10692:10693   */\n      0x00\n        /* \"#utility.yul\":10681:10690   */\n      dup4\n        /* \"#utility.yul\":10677:10694   */\n      add\n        /* \"#utility.yul\":10670:10717   */\n      mstore\n        /* \"#utility.yul\":10734:10862   */\n      tag_282\n        /* \"#utility.yul\":10857:10861   */\n      dup2\n        /* \"#utility.yul\":10848:10854   */\n      dup5\n        /* \"#utility.yul\":10734:10862   */\n      tag_153\n      jump\t// in\n    tag_282:\n        /* \"#utility.yul\":10726:10862   */\n      swap1\n      pop\n        /* \"#utility.yul\":10456:10869   */\n      swap3\n      swap2\n      pop\n      pop\n      jump\t// out\n        /* \"#utility.yul\":10875:11529   */\n    tag_25:\n        /* \"#utility.yul\":10953:10959   */\n      0x00\n        /* \"#utility.yul\":10961:10967   */\n      dup1\n        /* \"#utility.yul\":11010:11012   */\n      0x40\n        /* \"#utility.yul\":10998:11007   */\n      dup4\n        /* \"#utility.yul\":10989:10996   */\n      dup6\n        /* \"#utility.yul\":10985:11008   */\n      sub\n        /* \"#utility.yul\":10981:11013   */\n      slt\n        /* \"#utility.yul\":10978:11097   */\n      iszero\n      tag_284\n      jumpi\n        /* \"#utility.yul\":11016:11095   */\n      tag_285\n      tag_124\n      jump\t// in\n    tag_285:\n        /* \"#utility.yul\":10978:11097   */\n    tag_284:\n        /* \"#utility.yul\":11136:11137   */\n      0x00\n        /* \"#utility.yul\":11161:11214   */\n      tag_286\n        /* \"#utility.yul\":11206:11213   */\n      dup6\n        /* \"#utility.yul\":11197:11203   */\n      dup3\n        /* \"#utility.yul\":11186:11195   */\n      dup7\n        /* \"#utility.yul\":11182:11204   */\n      add\n        /* \"#utility.yul\":11161:11214   */\n      tag_129\n      jump\t// in\n    tag_286:\n        /* \"#utility.yul\":11151:11214   */\n      swap3\n      pop\n        /* \"#utility.yul\":11107:11224   */\n      pop\n        /* \"#utility.yul\":11291:11293   */\n      0x20\n        /* \"#utility.yul\":11280:11289   */\n      dup4\n        /* \"#utility.yul\":11276:11294   */\n      add\n        /* \"#utility.yul\":11263:11295   */\n      calldataload\n        /* \"#utility.yul\":11322:11340   */\n      0xffffffffffffffff\n        /* \"#utility.yul\":11314:11320   */\n      dup2\n        /* \"#utility.yul\":11311:11341   */\n      gt\n        /* \"#utility.yul\":11308:11425   */\n      iszero\n      tag_287\n      jumpi\n        /* \"#utility.yul\":11344:11423   */\n      tag_288\n      tag_125\n      jump\t// in\n    tag_288:\n        /* \"#utility.yul\":11308:11425   */\n    tag_287:\n        /* \"#utility.yul\":11449:11512   */\n      tag_289\n        /* \"#utility.yul\":11504:11511   */\n      dup6\n        /* \"#utility.yul\":11495:11501   */\n      dup3\n        /* \"#utility.yul\":11484:11493   */\n      dup7\n        /* \"#utility.yul\":11480:11502   */\n      add\n        /* \"#utility.yul\":11449:11512   */\n      tag_145\n      jump\t// in\n    tag_289:\n        /* \"#utility.yul\":11439:11512   */\n      swap2\n      pop\n        /* \"#utility.yul\":11234:11522   */\n      pop\n        /* \"#utility.yul\":10875:11529   */\n      swap3\n      pop\n      swap3\n      swap1\n      pop\n      jump\t// out\n        /* \"#utility.yul\":11535:12856   */\n    tag_31:\n        /* \"#utility.yul\":11888:11892   */\n      0x00\n        /* \"#utility.yul\":11926:11929   */\n      0xc0\n        /* \"#utility.yul\":11915:11924   */\n      dup3\n        /* \"#utility.yul\":11911:11930   */\n      add\n        /* \"#utility.yul\":11903:11930   */\n      swap1\n      pop\n        /* \"#utility.yul\":11976:11985   */\n      dup2\n        /* \"#utility.yul\":11970:11974   */\n      dup2\n        /* \"#utility.yul\":11966:11986   */\n      sub\n        /* \"#utility.yul\":11962:11963   */\n      0x00\n        /* \"#utility.yul\":11951:11960   */\n      dup4\n        /* \"#utility.yul\":11947:11964   */\n      add\n        /* \"#utility.yul\":11940:11987   */\n      mstore\n        /* \"#utility.yul\":12004:12082   */\n      tag_291\n        /* \"#utility.yul\":12077:12081   */\n      dup2\n        /* \"#utility.yul\":12068:12074   */\n      dup10\n        /* \"#utility.yul\":12004:12082   */\n      tag_134\n      jump\t// in\n    tag_291:\n        /* \"#utility.yul\":11996:12082   */\n      swap1\n      pop\n        /* \"#utility.yul\":12129:12138   */\n      dup2\n        /* \"#utility.yul\":12123:12127   */\n      dup2\n        /* \"#utility.yul\":12119:12139   */\n      sub\n        /* \"#utility.yul\":12114:12116   */\n      0x20\n        /* \"#utility.yul\":12103:12112   */\n      dup4\n        /* \"#utility.yul\":12099:12117   */\n      add\n        /* \"#utility.yul\":12092:12140   */\n      mstore\n        /* \"#utility.yul\":12157:12235   */\n      tag_292\n        /* \"#utility.yul\":12230:12234   */\n      dup2\n        /* \"#utility.yul\":12221:12227   */\n      dup9\n        /* \"#utility.yul\":12157:12235   */\n      tag_134\n      jump\t// in\n    tag_292:\n        /* \"#utility.yul\":12149:12235   */\n      swap1\n      pop\n        /* \"#utility.yul\":12282:12291   */\n      dup2\n        /* \"#utility.yul\":12276:12280   */\n      dup2\n        /* \"#utility.yul\":12272:12292   */\n      sub\n        /* \"#utility.yul\":12267:12269   */\n      0x40\n        /* \"#utility.yul\":12256:12265   */\n      dup4\n        /* \"#utility.yul\":12252:12270   */\n      add\n        /* \"#utility.yul\":12245:12293   */\n      mstore\n        /* \"#utility.yul\":12310:12388   */\n      tag_293\n        /* \"#utility.yul\":12383:12387   */\n      dup2\n        /* \"#utility.yul\":12374:12380   */\n      dup8\n        /* \"#utility.yul\":12310:12388   */\n      tag_134\n      jump\t// in\n    tag_293:\n        /* \"#utility.yul\":12302:12388   */\n      swap1\n      pop\n        /* \"#utility.yul\":12435:12444   */\n      dup2\n        /* \"#utility.yul\":12429:12433   */\n      dup2\n        /* \"#utility.yul\":12425:12445   */\n      sub\n        /* \"#utility.yul\":12420:12422   */\n      0x60\n        /* \"#utility.yul\":12409:12418   */\n      dup4\n        /* \"#utility.yul\":12405:12423   */\n      add\n        /* \"#utility.yul\":12398:12446   */\n      mstore\n        /* \"#utility.yul\":12463:12541   */\n      tag_294\n        /* \"#utility.yul\":12536:12540   */\n      dup2\n        /* \"#utility.yul\":12527:12533   */\n      dup7\n        /* \"#utility.yul\":12463:12541   */\n      tag_134\n      jump\t// in\n    tag_294:\n        /* \"#utility.yul\":12455:12541   */\n      swap1\n      pop\n        /* \"#utility.yul\":12589:12598   */\n      dup2\n        /* \"#utility.yul\":12583:12587   */\n      dup2\n        /* \"#utility.yul\":12579:12599   */\n      sub\n        /* \"#utility.yul\":12573:12576   */\n      0x80\n        /* \"#utility.yul\":12562:12571   */\n      dup4\n        /* \"#utility.yul\":12558:12577   */\n      add\n        /* \"#utility.yul\":12551:12600   */\n      mstore\n        /* \"#utility.yul\":12617:12695   */\n      tag_295\n        /* \"#utility.yul\":12690:12694   */\n      dup2\n        /* \"#utility.yul\":12681:12687   */\n      dup6\n        /* \"#utility.yul\":12617:12695   */\n      tag_134\n      jump\t// in\n    tag_295:\n        /* \"#utility.yul\":12609:12695   */\n      swap1\n      pop\n        /* \"#utility.yul\":12743:12752   */\n      dup2\n        /* \"#utility.yul\":12737:12741   */\n      dup2\n        /* \"#utility.yul\":12733:12753   */\n      sub\n        /* \"#utility.yul\":12727:12730   */\n      0xa0\n        /* \"#utility.yul\":12716:12725   */\n      dup4\n        /* \"#utility.yul\":12712:12731   */\n      add\n        /* \"#utility.yul\":12705:12754   */\n      mstore\n        /* \"#utility.yul\":12771:12849   */\n      tag_296\n        /* \"#utility.yul\":12844:12848   */\n      dup2\n        /* \"#utility.yul\":12835:12841   */\n      dup5\n        /* \"#utility.yul\":12771:12849   */\n      tag_134\n      jump\t// in\n    tag_296:\n        /* \"#utility.yul\":12763:12849   */\n      swap1\n      pop\n        /* \"#utility.yul\":11535:12856   */\n      swap8\n      swap7\n      pop\n      pop\n      pop\n      pop\n      pop\n      pop\n      pop\n      jump\t// out\n        /* \"#utility.yul\":12862:13042   */\n    tag_154:\n        /* \"#utility.yul\":12910:12987   */\n      0x4e487b7100000000000000000000000000000000000000000000000000000000\n        /* \"#utility.yul\":12907:12908   */\n      0x00\n        /* \"#utility.yul\":12900:12988   */\n      mstore\n        /* \"#utility.yul\":13007:13011   */\n      0x22\n        /* \"#utility.yul\":13004:13005   */\n      0x04\n        /* \"#utility.yul\":12997:13012   */\n      mstore\n        /* \"#utility.yul\":13031:13035   */\n      0x24\n        /* \"#utility.yul\":13028:13029   */\n      0x00\n        /* \"#utility.yul\":13021:13036   */\n      revert\n        /* \"#utility.yul\":13048:13368   */\n    tag_33:\n        /* \"#utility.yul\":13092:13098   */\n      0x00\n        /* \"#utility.yul\":13129:13130   */\n      0x02\n        /* \"#utility.yul\":13123:13127   */\n      dup3\n        /* \"#utility.yul\":13119:13131   */\n      div\n        /* \"#utility.yul\":13109:13131   */\n      swap1\n      pop\n        /* \"#utility.yul\":13176:13177   */\n      0x01\n        /* \"#utility.yul\":13170:13174   */\n      dup3\n        /* \"#utility.yul\":13166:13178   */\n      and\n        /* \"#utility.yul\":13197:13215   */\n      dup1\n        /* \"#utility.yul\":13187:13268   */\n      tag_299\n      jumpi\n        /* \"#utility.yul\":13253:13257   */\n      0x7f\n        /* \"#utility.yul\":13245:13251   */\n      dup3\n        /* \"#utility.yul\":13241:13258   */\n      and\n        /* \"#utility.yul\":13231:13258   */\n      swap2\n      pop\n        /* \"#utility.yul\":13187:13268   */\n    tag_299:\n        /* \"#utility.yul\":13315:13317   */\n      0x20\n        /* \"#utility.yul\":13307:13313   */\n      dup3\n        /* \"#utility.yul\":13304:13318   */\n      lt\n        /* \"#utility.yul\":13284:13302   */\n      dup2\n        /* \"#utility.yul\":13281:13319   */\n      sub\n        /* \"#utility.yul\":13278:13362   */\n      tag_300\n      jumpi\n        /* \"#utility.yul\":13334:13352   */\n      tag_301\n      tag_154\n      jump\t// in\n    tag_301:\n        /* \"#utility.yul\":13278:13362   */\n    tag_300:\n        /* \"#utility.yul\":13099:13368   */\n      pop\n        /* \"#utility.yul\":13048:13368   */\n      swap2\n      swap1\n      pop\n      jump\t// out\n        /* \"#utility.yul\":13374:13542   */\n    tag_155:\n        /* \"#utility.yul\":13514:13534   */\n      0x416c726561647920726567697374657265640000000000000000000000000000\n        /* \"#utility.yul\":13510:13511   */\n      0x00\n        /* \"#utility.yul\":13502:13508   */\n      dup3\n        /* \"#utility.yul\":13498:13512   */\n      add\n        /* \"#utility.yul\":13491:13535   */\n      mstore\n        /* \"#utility.yul\":13374:13542   */\n      pop\n      jump\t// out\n        /* \"#utility.yul\":13548:13914   */\n    tag_156:\n        /* \"#utility.yul\":13690:13693   */\n      0x00\n        /* \"#utility.yul\":13711:13778   */\n      tag_304\n        /* \"#utility.yul\":13775:13777   */\n      0x12\n        /* \"#utility.yul\":13770:13773   */\n      dup4\n        /* \"#utility.yul\":13711:13778   */\n      tag_131\n      jump\t// in\n    tag_304:\n        /* \"#utility.yul\":13704:13778   */\n      swap2\n      pop\n        /* \"#utility.yul\":13787:13880   */\n      tag_305\n        /* \"#utility.yul\":13876:13879   */\n      dup3\n        /* \"#utility.yul\":13787:13880   */\n      tag_155\n      jump\t// in\n    tag_305:\n        /* \"#utility.yul\":13905:13907   */\n      0x20\n        /* \"#utility.yul\":13900:13903   */\n      dup3\n        /* \"#utility.yul\":13896:13908   */\n      add\n        /* \"#utility.yul\":13889:13908   */\n      swap1\n      pop\n        /* \"#utility.yul\":13548:13914   */\n      swap2\n      swap1\n      pop\n      jump\t// out\n        /* \"#utility.yul\":13920:14339   */\n    tag_66:\n        /* \"#utility.yul\":14086:14090   */\n      0x00\n        /* \"#utility.yul\":14124:14126   */\n      0x20\n        /* \"#utility.yul\":14113:14122   */\n      dup3\n        /* \"#utility.yul\":14109:14127   */\n      add\n        /* \"#utility.yul\":14101:14127   */\n      swap1\n      pop\n        /* \"#utility.yul\":14173:14182   */\n      dup2\n        /* \"#utility.yul\":14167:14171   */\n      dup2\n        /* \"#utility.yul\":14163:14183   */\n      sub\n        /* \"#utility.yul\":14159:14160   */\n      0x00\n        /* \"#utility.yul\":14148:14157   */\n      dup4\n        /* \"#utility.yul\":14144:14161   */\n      add\n        /* \"#utility.yul\":14137:14184   */\n      mstore\n        /* \"#utility.yul\":14201:14332   */\n      tag_307\n        /* \"#utility.yul\":14327:14331   */\n      dup2\n        /* \"#utility.yul\":14201:14332   */\n      tag_156\n      jump\t// in\n    tag_307:\n        /* \"#utility.yul\":14193:14332   */\n      swap1\n      pop\n        /* \"#utility.yul\":13920:14339   */\n      swap2\n      swap1\n      pop\n      jump\t// out\n        /* \"#utility.yul\":14345:14486   */\n    tag_157:\n        /* \"#utility.yul\":14394:14398   */\n      0x00\n        /* \"#utility.yul\":14417:14420   */\n      dup2\n        /* \"#utility.yul\":14409:14420   */\n      swap1\n      pop\n        /* \"#utility.yul\":14440:14443   */\n      dup2\n        /* \"#utility.yul\":14437:14438   */\n      0x00\n        /* \"#utility.yul\":14430:14444   */\n      mstore\n        /* \"#utility.yul\":14474:14478   */\n      0x20\n        /* \"#utility.yul\":14471:14472   */\n      0x00\n        /* \"#utility.yul\":14461:14479   */\n      keccak256\n        /* \"#utility.yul\":14453:14479   */\n      swap1\n      pop\n        /* \"#utility.yul\":14345:14486   */\n      swap2\n      swap1\n      pop\n      jump\t// out\n        /* \"#utility.yul\":14492:14585   */\n    tag_158:\n        /* \"#utility.yul\":14529:14535   */\n      0x00\n        /* \"#utility.yul\":14576:14578   */\n      0x20\n        /* \"#utility.yul\":14571:14573   */\n      0x1f\n        /* \"#utility.yul\":14564:14569   */\n      dup4\n        /* \"#utility.yul\":14560:14574   */\n      add\n        /* \"#utility.yul\":14556:14579   */\n      div\n        /* \"#utility.yul\":14546:14579   */\n      swap1\n      pop\n        /* \"#utility.yul\":14492:14585   */\n      swap2\n      swap1\n      pop\n      jump\t// out\n        /* \"#utility.yul\":14591:14698   */\n    tag_159:\n        /* \"#utility.yul\":14635:14643   */\n      0x00\n        /* \"#utility.yul\":14685:14690   */\n      dup3\n        /* \"#utility.yul\":14679:14683   */\n      dup3\n        /* \"#utility.yul\":14675:14691   */\n      shl\n        /* \"#utility.yul\":14654:14691   */\n      swap1\n      pop\n        /* \"#utility.yul\":14591:14698   */\n      swap3\n      swap2\n      pop\n      pop\n      jump\t// out\n        /* \"#utility.yul\":14704:15097   */\n    tag_160:\n        /* \"#utility.yul\":14773:14779   */\n      0x00\n        /* \"#utility.yul\":14823:14824   */\n      0x08\n        /* \"#utility.yul\":14811:14821   */\n      dup4\n        /* \"#utility.yul\":14807:14825   */\n      mul\n        /* \"#utility.yul\":14846:14943   */\n      tag_312\n        /* \"#utility.yul\":14876:14942   */\n      0xffffffffffffffffffffffffffffffffffffffffffffffffffffffffffffffff\n        /* \"#utility.yul\":14865:14874   */\n      dup3\n        /* \"#utility.yul\":14846:14943   */\n      tag_159\n      jump\t// in\n    tag_312:\n        /* \"#utility.yul\":14964:15003   */\n      tag_313\n        /* \"#utility.yul\":14994:15002   */\n      dup7\n        /* \"#utility.yul\":14983:14992   */\n      dup4\n        /* \"#utility.yul\":14964:15003   */\n      tag_159\n      jump\t// in\n    tag_313:\n        /* \"#utility.yul\":14952:15003   */\n      swap6\n      pop\n        /* \"#utility.yul\":15036:15040   */\n      dup1\n        /* \"#utility.yul\":15032:15041   */\n      not\n        /* \"#utility.yul\":15025:15030   */\n      dup5\n        /* \"#utility.yul\":15021:15042   */\n      and\n        /* \"#utility.yul\":15012:15042   */\n      swap4\n      pop\n        /* \"#utility.yul\":15085:15089   */\n      dup1\n        /* \"#utility.yul\":15075:15083   */\n      dup7\n        /* \"#utility.yul\":15071:15090   */\n      and\n        /* \"#utility.yul\":15064:15069   */\n      dup5\n        /* \"#utility.yul\":15061:15091   */\n      or\n        /* \"#utility.yul\":15051:15091   */\n      swap3\n      pop\n        /* \"#utility.yul\":14780:15097   */\n      pop\n      pop\n        /* \"#utility.yul\":14704:15097   */\n      swap4\n      swap3\n      pop\n      pop\n      pop\n      jump\t// out\n        /* \"#utility.yul\":15103:15180   */\n    tag_161:\n        /* \"#utility.yul\":15140:15147   */\n      0x00\n        /* \"#utility.yul\":15169:15174   */\n      dup2\n        /* \"#utility.yul\":15158:15174   */\n      swap1\n      pop\n        /* \"#utility.yul\":15103:15180   */\n      swap2\n      swap1\n      pop\n      jump\t// out\n        /* \"#utility.yul\":15186:15246   */\n    tag_162:\n        /* \"#utility.yul\":15214:15217   */\n      0x00\n        /* \"#utility.yul\":15235:15240   */\n      dup2\n        /* \"#utility.yul\":15228:15240   */\n      swap1\n      pop\n        /* \"#utility.yul\":15186:15246   */\n      swap2\n      swap1\n      pop\n      jump\t// out\n        /* \"#utility.yul\":15252:15394   */\n    tag_163:\n        /* \"#utility.yul\":15302:15311   */\n      0x00\n        /* \"#utility.yul\":15335:15388   */\n      tag_317\n        /* \"#utility.yul\":15353:15387   */\n      tag_318\n        /* \"#utility.yul\":15362:15386   */\n      tag_319\n        /* \"#utility.yul\":15380:15385   */\n      dup5\n        /* \"#utility.yul\":15362:15386   */\n      tag_161\n      jump\t// in\n    tag_319:\n        /* \"#utility.yul\":15353:15387   */\n      tag_162\n      jump\t// in\n    tag_318:\n        /* \"#utility.yul\":15335:15388   */\n      tag_161\n      jump\t// in\n    tag_317:\n        /* \"#utility.yul\":15322:15388   */\n      swap1\n      pop\n        /* \"#utility.yul\":15252:15394   */\n      swap2\n      swap1\n      pop\n      jump\t// out\n        /* \"#utility.yul\":15400:15475   */\n    tag_164:\n        /* \"#utility.yul\":15443:15446   */\n      0x00\n        /* \"#utility.yul\":15464:15469   */\n      dup2\n        /* \"#utility.yul\":15457:15469   */\n      swap1\n      pop\n        /* \"#utility.yul\":15400:15475   */\n      swap2\n      swap1\n      pop\n      jump\t// out\n        /* \"#utility.yul\":15481:15750   */\n    tag_165:\n        /* \"#utility.yul\":15591:15630   */\n      tag_322\n        /* \"#utility.yul\":15622:15629   */\n      dup4\n        /* \"#utility.yul\":15591:15630   */\n      tag_163\n      jump\t// in\n    tag_322:\n        /* \"#utility.yul\":15652:15743   */\n      tag_323\n        /* \"#utility.yul\":15701:15742   */\n      tag_324\n        /* \"#utility.yul\":15725:15741   */\n      dup3\n        /* \"#utility.yul\":15701:15742   */\n      tag_164\n      jump\t// in\n    tag_324:\n        /* \"#utility.yul\":15693:15699   */\n      dup5\n        /* \"#utility.yul\":15686:15690   */\n      dup5\n        /* \"#utility.yul\":15680:15691   */\n      sload\n        /* \"#utility.yul\":15652:15743   */\n      tag_160\n      jump\t// in\n    tag_323:\n        /* \"#utility.yul\":15646:15650   */\n      dup3\n        /* \"#utility.yul\":15639:15744   */\n      sstore\n        /* \"#utility.yul\":15557:15750   */\n      pop\n        /* \"#utility.yul\":15481:15750   */\n      pop\n      pop\n      pop\n      jump\t// out\n        /* \"#utility.yul\":15756:15829   */\n    tag_166:\n        /* \"#utility.yul\":15801:15804   */\n      0x00\n        /* \"#utility.yul\":15756:15829   */\n      swap1\n      jump\t// out\n        /* \"#utility.yul\":15835:16024   */\n    tag_167:\n        /* \"#utility.yul\":15912:15944   */\n      tag_327\n      tag_166\n      jump\t// in\n    tag_327:\n        /* \"#utility.yul\":15953:16018   */\n      tag_328\n        /* \"#utility.yul\":16011:16017   */\n      dup2\n        /* \"#utility.yul\":16003:16009   */\n      dup5\n        /* \"#utility.yul\":15997:16001   */\n      dup5\n        /* \"#utility.yul\":15953:16018   */\n      tag_165\n      jump\t// in\n    tag_328:\n        /* \"#utility.yul\":15888:16024   */\n      pop\n        /* \"#utility.yul\":15835:16024   */\n      pop\n      pop\n      jump\t// out\n        /* \"#utility.yul\":16030:16216   */\n    tag_168:\n        /* \"#utility.yul\":16090:16210   */\n    tag_330:\n        /* \"#utility.yul\":16107:16110   */\n      dup2\n        /* \"#utility.yul\":16100:16105   */\n      dup2\n        /* \"#utility.yul\":16097:16111   */\n      lt\n        /* \"#utility.yul\":16090:16210   */\n      iszero\n      tag_332\n      jumpi\n        /* \"#utility.yul\":16161:16200   */\n      tag_333\n        /* \"#utility.yul\":16198:16199   */\n      0x00\n        /* \"#utility.yul\":16191:16196   */\n      dup3\n        /* \"#utility.yul\":16161:16200   */\n      tag_167\n      jump\t// in\n    tag_333:\n        /* \"#utility.yul\":16134:16135   */\n      0x01\n        /* \"#utility.yul\":16127:16132   */\n      dup2\n        /* \"#utility.yul\":16123:16136   */\n      add\n        /* \"#utility.yul\":16114:16136   */\n      swap1\n      pop\n        /* \"#utility.yul\":16090:16210   */\n      jump(tag_330)\n    tag_332:\n        /* \"#utility.yul\":16030:16216   */\n      pop\n      pop\n      jump\t// out\n        /* \"#utility.yul\":16222:16765   */\n    tag_169:\n        /* \"#utility.yul\":16323:16325   */\n      0x1f\n        /* \"#utility.yul\":16318:16321   */\n      dup3\n        /* \"#utility.yul\":16315:16326   */\n      gt\n        /* \"#utility.yul\":16312:16758   */\n      iszero\n      tag_335\n      jumpi\n        /* \"#utility.yul\":16357:16395   */\n      tag_336\n        /* \"#utility.yul\":16389:16394   */\n      dup2\n        /* \"#utility.yul\":16357:16395   */\n      tag_157\n      jump\t// in\n    tag_336:\n        /* \"#utility.yul\":16441:16470   */\n      tag_337\n        /* \"#utility.yul\":16459:16469   */\n      dup5\n        /* \"#utility.yul\":16441:16470   */\n      tag_158\n      jump\t// in\n    tag_337:\n        /* \"#utility.yul\":16431:16439   */\n      dup2\n        /* \"#utility.yul\":16427:16471   */\n      add\n        /* \"#utility.yul\":16624:16626   */\n      0x20\n        /* \"#utility.yul\":16612:16622   */\n      dup6\n        /* \"#utility.yul\":16609:16627   */\n      lt\n        /* \"#utility.yul\":16606:16655   */\n      iszero\n      tag_338\n      jumpi\n        /* \"#utility.yul\":16645:16653   */\n      dup2\n        /* \"#utility.yul\":16630:16653   */\n      swap1\n      pop\n        /* \"#utility.yul\":16606:16655   */\n    tag_338:\n        /* \"#utility.yul\":16668:16748   */\n      tag_339\n        /* \"#utility.yul\":16724:16746   */\n      tag_340\n        /* \"#utility.yul\":16742:16745   */\n      dup6\n        /* \"#utility.yul\":16724:16746   */\n      tag_158\n      jump\t// in\n    tag_340:\n        /* \"#utility.yul\":16714:16722   */\n      dup4\n        /* \"#utility.yul\":16710:16747   */\n      add\n        /* \"#utility.yul\":16697:16708   */\n      dup3\n        /* \"#utility.yul\":16668:16748   */\n      tag_168\n      jump\t// in\n    tag_339:\n        /* \"#utility.yul\":16327:16758   */\n      pop\n      pop\n        /* \"#utility.yul\":16312:16758   */\n    tag_335:\n        /* \"#utility.yul\":16222:16765   */\n      pop\n      pop\n      pop\n      jump\t// out\n        /* \"#utility.yul\":16771:16888   */\n    tag_170:\n        /* \"#utility.yul\":16825:16833   */\n      0x00\n        /* \"#utility.yul\":16875:16880   */\n      dup3\n        /* \"#utility.yul\":16869:16873   */\n      dup3\n        /* \"#utility.yul\":16865:16881   */\n      shr\n        /* \"#utility.yul\":16844:16881   */\n      swap1\n      pop\n        /* \"#utility.yul\":16771:16888   */\n      swap3\n      swap2\n      pop\n      pop\n      jump\t// out\n        /* \"#utility.yul\":16894:17063   */\n    tag_171:\n        /* \"#utility.yul\":16938:16944   */\n      0x00\n        /* \"#utility.yul\":16971:17022   */\n      tag_343\n        /* \"#utility.yul\":17019:17020   */\n      0x00\n        /* \"#utility.yul\":17015:17021   */\n      not\n        /* \"#utility.yul\":17007:17012   */\n      dup5\n        /* \"#utility.yul\":17004:17005   */\n      0x08\n        /* \"#utility.yul\":17000:17013   */\n      mul\n        /* \"#utility.yul\":16971:17022   */\n      tag_170\n      jump\t// in\n    tag_343:\n        /* \"#utility.yul\":16967:17023   */\n      not\n        /* \"#utility.yul\":17052:17056   */\n      dup1\n        /* \"#utility.yul\":17046:17050   */\n      dup4\n        /* \"#utility.yul\":17042:17057   */\n      and\n        /* \"#utility.yul\":17032:17057   */\n      swap2\n      pop\n        /* \"#utility.yul\":16945:17063   */\n      pop\n        /* \"#utility.yul\":16894:17063   */\n      swap3\n      swap2\n      pop\n      pop\n      jump\t// out\n        /* \"#utility.yul\":17068:17363   */\n    tag_172:\n        /* \"#utility.yul\":17144:17148   */\n      0x00\n        /* \"#utility.yul\":17290:17319   */\n      tag_345\n        /* \"#utility.yul\":17315:17318   */\n      dup4\n        /* \"#utility.yul\":17309:17313   */\n      dup4\n        /* \"#utility.yul\":17290:17319   */\n      tag_171\n      jump\t// in\n    tag_345:\n        /* \"#utility.yul\":17282:17319   */\n      swap2\n      pop\n        /* \"#utility.yul\":17352:17355   */\n      dup3\n        /* \"#utility.yul\":17349:17350   */\n      0x02\n        /* \"#utility.yul\":17345:17356   */\n      mul\n        /* \"#utility.yul\":17339:17343   */\n      dup3\n        /* \"#utility.yul\":17336:17357   */\n      or\n        /* \"#utility.yul\":17328:17357   */\n      swap1\n      pop\n        /* \"#utility.yul\":17068:17363   */\n      swap3\n      swap2\n      pop\n      pop\n      jump\t// out\n        /* \"#utility.yul\":17368:18763   */\n    tag_68:\n        /* \"#utility.yul\":17485:17522   */\n      tag_347\n        /* \"#utility.yul\":17518:17521   */\n      dup3\n        /* \"#utility.yul\":17485:17522   */\n      tag_130\n      jump\t// in\n    tag_347:\n        /* \"#utility.yul\":17587:17605   */\n      0xffffffffffffffff\n        /* \"#utility.yul\":17579:17585   */\n      dup2\n        /* \"#utility.yul\":17576:17606   */\n      gt\n        /* \"#utility.yul\":17573:17629   */\n      iszero\n      tag_348\n      jumpi\n        /* \"#utility.yul\":17609:17627   */\n      tag_349\n      tag_139\n      jump\t// in\n    tag_349:\n        /* \"#utility.yul\":17573:17629   */\n    tag_348:\n        /* \"#utility.yul\":17653:17691   */\n      tag_350\n        /* \"#utility.yul\":17685:17689   */\n      dup3\n        /* \"#utility.yul\":17679:17690   */\n      sload\n        /* \"#utility.yul\":17653:17691   */\n      tag_33\n      jump\t// in\n    tag_350:\n        /* \"#utility.yul\":17738:17805   */\n      tag_351\n        /* \"#utility.yul\":17798:17804   */\n      dup3\n        /* \"#utility.yul\":17790:17796   */\n      dup3\n        /* \"#utility.yul\":17784:17788   */\n      dup6\n        /* \"#utility.yul\":17738:17805   */\n      tag_169\n      jump\t// in\n    tag_351:\n        /* \"#utility.yul\":17832:17833   */\n      0x00\n        /* \"#utility.yul\":17856:17860   */\n      0x20\n        /* \"#utility.yul\":17843:17860   */\n      swap1\n      pop\n        /* \"#utility.yul\":17888:17890   */\n      0x1f\n        /* \"#utility.yul\":17880:17886   */\n      dup4\n        /* \"#utility.yul\":17877:17891   */\n      gt\n        /* \"#utility.yul\":17905:17906   */\n      0x01\n        /* \"#utility.yul\":17900:18518   */\n      dup2\n      eq\n      tag_353\n      jumpi\n        /* \"#utility.yul\":18562:18563   */\n      0x00\n        /* \"#utility.yul\":18579:18585   */\n      dup5\n        /* \"#utility.yul\":18576:18653   */\n      iszero\n      tag_354\n      jumpi\n        /* \"#utility.yul\":18628:18637   */\n      dup3\n        /* \"#utility.yul\":18623:18626   */\n      dup8\n        /* \"#utility.yul\":18619:18638   */\n      add\n        /* \"#utility.yul\":18613:18639   */\n      mload\n        /* \"#utility.yul\":18604:18639   */\n      swap1\n      pop\n        /* \"#utility.yul\":18576:18653   */\n    tag_354:\n        /* \"#utility.yul\":18679:18746   */\n      tag_355\n        /* \"#utility.yul\":18739:18745   */\n      dup6\n        /* \"#utility.yul\":18732:18737   */\n      dup3\n        /* \"#utility.yul\":18679:18746   */\n      tag_172\n      jump\t// in\n    tag_355:\n        /* \"#utility.yul\":18673:18677   */\n      dup7\n        /* \"#utility.yul\":18666:18747   */\n      sstore\n        /* \"#utility.yul\":18535:18757   */\n      pop\n        /* \"#utility.yul\":17870:18757   */\n      jump(tag_352)\n        /* \"#utility.yul\":17900:18518   */\n    tag_353:\n        /* \"#utility.yul\":17952:17956   */\n      0x1f\n        /* \"#utility.yul\":17948:17957   */\n      not\n        /* \"#utility.yul\":17940:17946   */\n      dup5\n        /* \"#utility.yul\":17936:17958   */\n      and\n        /* \"#utility.yul\":17986:18023   */\n      tag_356\n        /* \"#utility.yul\":18018:18022   */\n      dup7\n        /* \"#utility.yul\":17986:18023   */\n      tag_157\n      jump\t// in\n    tag_356:\n        /* \"#utility.yul\":18045:18046   */\n      0x00\n        /* \"#utility.yul\":18059:18267   */\n    tag_357:\n        /* \"#utility.yul\":18073:18080   */\n      dup3\n        /* \"#utility.yul\":18070:18071   */\n      dup2\n        /* \"#utility.yul\":18067:18081   */\n      lt\n        /* \"#utility.yul\":18059:18267   */\n      iszero\n      tag_359\n      jumpi\n        /* \"#utility.yul\":18152:18161   */\n      dup5\n        /* \"#utility.yul\":18147:18150   */\n      dup10\n        /* \"#utility.yul\":18143:18162   */\n      add\n        /* \"#utility.yul\":18137:18163   */\n      mload\n        /* \"#utility.yul\":18129:18135   */\n      dup3\n        /* \"#utility.yul\":18122:18164   */\n      sstore\n        /* \"#utility.yul\":18203:18204   */\n      0x01\n        /* \"#utility.yul\":18195:18201   */\n      dup3\n        /* \"#utility.yul\":18191:18205   */\n      add\n        /* \"#utility.yul\":18181:18205   */\n      swap2\n      pop\n        /* \"#utility.yul\":18250:18252   */\n      0x20\n        /* \"#utility.yul\":18239:18248   */\n      dup6\n        /* \"#utility.yul\":18235:18253   */\n      add\n        /* \"#utility.yul\":18222:18253   */\n      swap5\n      pop\n        /* \"#utility.yul\":18096:18100   */\n      0x20\n        /* \"#utility.yul\":18093:18094   */\n      dup2\n        /* \"#utility.yul\":18089:18101   */\n      add\n        /* \"#utility.yul\":18084:18101   */\n      swap1\n      pop\n        /* \"#utility.yul\":18059:18267   */\n      jump(tag_357)\n    tag_359:\n        /* \"#utility.yul\":18295:18301   */\n      dup7\n        /* \"#utility.yul\":18286:18293   */\n      dup4\n        /* \"#utility.yul\":18283:18302   */\n      lt\n        /* \"#utility.yul\":18280:18459   */\n      iszero\n      tag_360\n      jumpi\n        /* \"#utility.yul\":18353:18362   */\n      dup5\n        /* \"#utility.yul\":18348:18351   */\n      dup10\n        /* \"#utility.yul\":18344:18363   */\n      add\n        /* \"#utility.yul\":18338:18364   */\n      mload\n        /* \"#utility.yul\":18396:18444   */\n      tag_361\n        /* \"#utility.yul\":18438:18442   */\n      0x1f\n        /* \"#utility.yul\":18430:18436   */\n      dup10\n        /* \"#utility.yul\":18426:18443   */\n      and\n        /* \"#utility.yul\":18415:18424   */\n      dup3\n        /* \"#utility.yul\":18396:18444   */\n      tag_171\n      jump\t// in\n    tag_361:\n        /* \"#utility.yul\":18388:18394   */\n      dup4\n        /* \"#utility.yul\":18381:18445   */\n      sstore\n        /* \"#utility.yul\":18303:18459   */\n      pop\n        /* \"#utility.yul\":18280:18459   */\n    tag_360:\n        /* \"#utility.yul\":18505:18506   */\n      0x01\n        /* \"#utility.yul\":18501:18502   */\n      0x02\n        /* \"#utility.yul\":18493:18499   */\n      dup9\n        /* \"#utility.yul\":18489:18503   */\n      mul\n        /* \"#utility.yul\":18485:18507   */\n      add\n        /* \"#utility.yul\":18479:18483   */\n      dup9\n        /* \"#utility.yul\":18472:18508   */\n      sstore\n        /* \"#utility.yul\":17907:18518   */\n      pop\n      pop\n      pop\n        /* \"#utility.yul\":17870:18757   */\n    tag_352:\n      pop\n        /* \"#utility.yul\":17460:18763   */\n      pop\n      pop\n      pop\n        /* \"#utility.yul\":17368:18763   */\n      pop\n      pop\n      jump\t// out\n        /* \"#utility.yul\":18769:19082   */\n    tag_75:\n        /* \"#utility.yul\":18882:18886   */\n      0x00\n        /* \"#utility.yul\":18920:18922   */\n      0x20\n        /* \"#utility.yul\":18909:18918   */\n      dup3\n        /* \"#utility.yul\":18905:18923   */\n      add\n        /* \"#utility.yul\":18897:18923   */\n      swap1\n      pop\n        /* \"#utility.yul\":18969:18978   */\n      dup2\n        /* \"#utility.yul\":18963:18967   */\n      dup2\n        /* \"#utility.yul\":18959:18979   */\n      sub\n        /* \"#utility.yul\":18955:18956   */\n      0x00\n        /* \"#utility.yul\":18944:18953   */\n      dup4\n        /* \"#utility.yul\":18940:18957   */\n      add\n        /* \"#utility.yul\":18933:18980   */\n      mstore\n        /* \"#utility.yul\":18997:19075   */\n      tag_363\n        /* \"#utility.yul\":19070:19074   */\n      dup2\n        /* \"#utility.yul\":19061:19067   */\n      dup5\n        /* \"#utility.yul\":18997:19075   */\n      tag_134\n      jump\t// in\n    tag_363:\n        /* \"#utility.yul\":18989:19075   */\n      swap1\n      pop\n        /* \"#utility.yul\":18769:19082   */\n      swap3\n      swap2\n      pop\n      pop\n      jump\t// out\n        /* \"#utility.yul\":19088:19252   */\n    tag_173:\n        /* \"#utility.yul\":19228:19244   */\n      0x4e6f742072656769737465726564000000000000000000000000000000000000\n        /* \"#utility.yul\":19224:19225   */\n      0x00\n        /* \"#utility.yul\":19216:19222   */\n      dup3\n        /* \"#utility.yul\":19212:19226   */\n      add\n        /* \"#utility.yul\":19205:19245   */\n      mstore\n        /* \"#utility.yul\":19088:19252   */\n      pop\n      jump\t// out\n        /* \"#utility.yul\":19258:19624   */\n    tag_174:\n        /* \"#utility.yul\":19400:19403   */\n      0x00\n        /* \"#utility.yul\":19421:19488   */\n      tag_366\n        /* \"#utility.yul\":19485:19487   */\n      0x0e\n        /* \"#utility.yul\":19480:19483   */\n      dup4\n        /* \"#utility.yul\":19421:19488   */\n      tag_131\n      jump\t// in\n    tag_366:\n        /* \"#utility.yul\":19414:19488   */\n      swap2\n      pop\n        /* \"#utility.yul\":19497:19590   */\n      tag_367\n        /* \"#utility.yul\":19586:19589   */\n      dup3\n        /* \"#utility.yul\":19497:19590   */\n      tag_173\n      jump\t// in\n    tag_367:\n        /* \"#utility.yul\":19615:19617   */\n      0x20\n        /* \"#utility.yul\":19610:19613   */\n      dup3\n        /* \"#utility.yul\":19606:19618   */\n      add\n        /* \"#utility.yul\":19599:19618   */\n      swap1\n      pop\n        /* \"#utility.yul\":19258:19624   */\n      swap2\n      swap1\n      pop\n      jump\t// out\n        /* \"#utility.yul\":19630:20049   */\n    tag_88:\n        /* \"#utility.yul\":19796:19800   */\n      0x00\n        /* \"#utility.yul\":19834:19836   */\n      0x20\n        /* \"#utility.yul\":19823:19832   */\n      dup3\n        /* \"#utility.yul\":19819:19837   */\n      add\n        /* \"#utility.yul\":19811:19837   */\n      swap1\n      pop\n        /* \"#utility.yul\":19883:19892   */\n      dup2\n        /* \"#utility.yul\":19877:19881   */\n      dup2\n        /* \"#utility.yul\":19873:19893   */\n      sub\n        /* \"#utility.yul\":19869:19870   */\n      0x00\n        /* \"#utility.yul\":19858:19867   */\n      dup4\n        /* \"#utility.yul\":19854:19871   */\n      add\n        /* \"#utility.yul\":19847:19894   */\n      mstore\n        /* \"#utility.yul\":19911:20042   */\n      tag_369\n        /* \"#utility.yul\":20037:20041   */\n      dup2\n        /* \"#utility.yul\":19911:20042   */\n      tag_174\n      jump\t// in\n    tag_369:\n        /* \"#utility.yul\":19903:20042   */\n      swap1\n      pop\n        /* \"#utility.yul\":19630:20049   */\n      swap2\n      swap1\n      pop\n      jump\t// out\n\n    auxdata: 0xa2646970667358221220626406f79040b7590240ba5f0225e5362833183854922bed50f040fca556503a64736f6c634300081e0033\n}\n",
				"bytecode": {
					"linkReferences": {},
					"object": "6080604052348015600f57600080fd5b506117088061001f6000396000f3fe608060405234801561001057600080fd5b50600436106100575760003560e01c80630869cfbc1461005c5780636d26dce814610092578063c1816dfb146100ae578063edefcf88146100de578063efe2ccc1146100fa575b600080fd5b61007660048036038101906100719190610d00565b61012f565b6040516100899796959493929190610dd8565b60405180910390f35b6100ac60048036038101906100a79190610fa6565b6104ae565b005b6100c860048036038101906100c39190610d00565b61065f565b6040516100d591906111e7565b60405180910390f35b6100f860048036038101906100f39190611209565b610779565b005b610114600480360381019061010f9190610d00565b6108cd565b60405161012696959493929190611265565b60405180910390f35b60006020528060005260406000206000915090508060000180546101529061131f565b80601f016020809104026020016040519081016040528092919081815260200182805461017e9061131f565b80156101cb5780601f106101a0576101008083540402835291602001916101cb565b820191906000526020600020905b8154815290600101906020018083116101ae57829003601f168201915b5050505050908060010180546101e09061131f565b80601f016020809104026020016040519081016040528092919081815260200182805461020c9061131f565b80156102595780601f1061022e57610100808354040283529160200191610259565b820191906000526020600020905b81548152906001019060200180831161023c57829003601f168201915b50505050509080600201805461026e9061131f565b80601f016020809104026020016040519081016040528092919081815260200182805461029a9061131f565b80156102e75780601f106102bc576101008083540402835291602001916102e7565b820191906000526020600020905b8154815290600101906020018083116102ca57829003601f168201915b5050505050908060030180546102fc9061131f565b80601f01602080910402602001604051908101604052809291908181526020018280546103289061131f565b80156103755780601f1061034a57610100808354040283529160200191610375565b820191906000526020600020905b81548152906001019060200180831161035857829003601f168201915b50505050509080600401805461038a9061131f565b80601f01602080910402602001604051908101604052809291908181526020018280546103b69061131f565b80156104035780601f106103d857610100808354040283529160200191610403565b820191906000526020600020905b8154815290600101906020018083116103e657829003601f168201915b5050505050908060050180546104189061131f565b80601f01602080910402602001604051908101604052809291908181526020018280546104449061131f565b80156104915780601f1061046657610100808354040283529160200191610491565b820191906000526020600020905b81548152906001019060200180831161047457829003601f168201915b5050505050908060060160009054906101000a900460ff16905087565b6000803373ffffffffffffffffffffffffffffffffffffffff1673ffffffffffffffffffffffffffffffffffffffff16815260200190815260200160002060060160009054906101000a900460ff161561053d576040517f08c379a00000000000000000000000000000000000000000000000000000000081526004016105349061139c565b60405180910390fd5b60008060003373ffffffffffffffffffffffffffffffffffffffff1673ffffffffffffffffffffffffffffffffffffffff1681526020019081526020016000209050868160000190816105909190611572565b50858160010190816105a29190611572565b50848160020190816105b49190611572565b50838160030190816105c69190611572565b50828160040190816105d89190611572565b50818160050190816105ea9190611572565b5060018160060160006101000a81548160ff0219169083151502179055503373ffffffffffffffffffffffffffffffffffffffff167fc85b128388b9c331a2a5485dce4cd0f3db9f7c279d327ce95d6d39d6c94644c78860405161064e9190611644565b60405180910390a250505050505050565b60606000808373ffffffffffffffffffffffffffffffffffffffff1673ffffffffffffffffffffffffffffffffffffffff168152602001908152602001600020600701805480602002602001604051908101604052809291908181526020016000905b8282101561076e5783829060005260206000200180546106e19061131f565b80601f016020809104026020016040519081016040528092919081815260200182805461070d9061131f565b801561075a5780601f1061072f5761010080835404028352916020019161075a565b820191906000526020600020905b81548152906001019060200180831161073d57829003601f168201915b5050505050815260200190600101906106c2565b505050509050919050565b6000808373ffffffffffffffffffffffffffffffffffffffff1673ffffffffffffffffffffffffffffffffffffffff16815260200190815260200160002060060160009054906101000a900460ff16610807576040517f08c379a00000000000000000000000000000000000000000000000000000000081526004016107fe906116b2565b60405180910390fd5b6000803373ffffffffffffffffffffffffffffffffffffffff1673ffffffffffffffffffffffffffffffffffffffff1681526020019081526020016000206007018190806001815401808255809150506001900390600052602060002001600090919091909150908161087a9190611572565b503373ffffffffffffffffffffffffffffffffffffffff167f771ad20575501c8cafc4a8793006515911d6e497fd5838018654c9b50347430c826040516108c19190611644565b60405180910390a25050565b60608060608060608060008060008973ffffffffffffffffffffffffffffffffffffffff1673ffffffffffffffffffffffffffffffffffffffff168152602001908152602001600020905080600001816001018260020183600301846004018560050185805461093c9061131f565b80601f01602080910402602001604051908101604052809291908181526020018280546109689061131f565b80156109b55780601f1061098a576101008083540402835291602001916109b5565b820191906000526020600020905b81548152906001019060200180831161099857829003601f168201915b505050505095508480546109c89061131f565b80601f01602080910402602001604051908101604052809291908181526020018280546109f49061131f565b8015610a415780601f10610a1657610100808354040283529160200191610a41565b820191906000526020600020905b815481529060010190602001808311610a2457829003601f168201915b50505050509450838054610a549061131f565b80601f0160208091040260200160405190810160405280929190818152602001828054610a809061131f565b8015610acd5780601f10610aa257610100808354040283529160200191610acd565b820191906000526020600020905b815481529060010190602001808311610ab057829003601f168201915b50505050509350828054610ae09061131f565b80601f0160208091040260200160405190810160405280929190818152602001828054610b0c9061131f565b8015610b595780601f10610b2e57610100808354040283529160200191610b59565b820191906000526020600020905b815481529060010190602001808311610b3c57829003601f168201915b50505050509250818054610b6c9061131f565b80601f0160208091040260200160405190810160405280929190818152602001828054610b989061131f565b8015610be55780601f10610bba57610100808354040283529160200191610be5565b820191906000526020600020905b815481529060010190602001808311610bc857829003601f168201915b50505050509150808054610bf89061131f565b80601f0160208091040260200160405190810160405280929190818152602001828054610c249061131f565b8015610c715780601f10610c4657610100808354040283529160200191610c71565b820191906000526020600020905b815481529060010190602001808311610c5457829003601f168201915b505050505090509650965096509650965096505091939550919395565b6000604051905090565b600080fd5b600080fd5b600073ffffffffffffffffffffffffffffffffffffffff82169050919050565b6000610ccd82610ca2565b9050919050565b610cdd81610cc2565b8114610ce857600080fd5b50565b600081359050610cfa81610cd4565b92915050565b600060208284031215610d1657610d15610c98565b5b6000610d2484828501610ceb565b91505092915050565b600081519050919050565b600082825260208201905092915050565b60005b83811015610d67578082015181840152602081019050610d4c565b60008484015250505050565b6000601f19601f8301169050919050565b6000610d8f82610d2d565b610d998185610d38565b9350610da9818560208601610d49565b610db281610d73565b840191505092915050565b60008115159050919050565b610dd281610dbd565b82525050565b600060e0820190508181036000830152610df2818a610d84565b90508181036020830152610e068189610d84565b90508181036040830152610e1a8188610d84565b90508181036060830152610e2e8187610d84565b90508181036080830152610e428186610d84565b905081810360a0830152610e568185610d84565b9050610e6560c0830184610dc9565b98975050505050505050565b600080fd5b600080fd5b7f4e487b7100000000000000000000000000000000000000000000000000000000600052604160045260246000fd5b610eb382610d73565b810181811067ffffffffffffffff82111715610ed257610ed1610e7b565b5b80604052505050565b6000610ee5610c8e565b9050610ef18282610eaa565b919050565b600067ffffffffffffffff821115610f1157610f10610e7b565b5b610f1a82610d73565b9050602081019050919050565b82818337600083830152505050565b6000610f49610f4484610ef6565b610edb565b905082815260208101848484011115610f6557610f64610e76565b5b610f70848285610f27565b509392505050565b600082601f830112610f8d57610f8c610e71565b5b8135610f9d848260208601610f36565b91505092915050565b60008060008060008060c08789031215610fc357610fc2610c98565b5b600087013567ffffffffffffffff811115610fe157610fe0610c9d565b5b610fed89828a01610f78565b965050602087013567ffffffffffffffff81111561100e5761100d610c9d565b5b61101a89828a01610f78565b955050604087013567ffffffffffffffff81111561103b5761103a610c9d565b5b61104789828a01610f78565b945050606087013567ffffffffffffffff81111561106857611067610c9d565b5b61107489828a01610f78565b935050608087013567ffffffffffffffff81111561109557611094610c9d565b5b6110a189828a01610f78565b92505060a087013567ffffffffffffffff8111156110c2576110c1610c9d565b5b6110ce89828a01610f78565b9150509295509295509295565b600081519050919050565b600082825260208201905092915050565b6000819050602082019050919050565b600082825260208201905092915050565b600061112382610d2d565b61112d8185611107565b935061113d818560208601610d49565b61114681610d73565b840191505092915050565b600061115d8383611118565b905092915050565b6000602082019050919050565b600061117d826110db565b61118781856110e6565b935083602082028501611199856110f7565b8060005b858110156111d557848403895281516111b68582611151565b94506111c183611165565b925060208a0199505060018101905061119d565b50829750879550505050505092915050565b600060208201905081810360008301526112018184611172565b905092915050565b600080604083850312156112205761121f610c98565b5b600061122e85828601610ceb565b925050602083013567ffffffffffffffff81111561124f5761124e610c9d565b5b61125b85828601610f78565b9150509250929050565b600060c082019050818103600083015261127f8189610d84565b905081810360208301526112938188610d84565b905081810360408301526112a78187610d84565b905081810360608301526112bb8186610d84565b905081810360808301526112cf8185610d84565b905081810360a08301526112e38184610d84565b9050979650505050505050565b7f4e487b7100000000000000000000000000000000000000000000000000000000600052602260045260246000fd5b6000600282049050600182168061133757607f821691505b60208210810361134a576113496112f0565b5b50919050565b7f416c726561647920726567697374657265640000000000000000000000000000600082015250565b6000611386601283610d38565b915061139182611350565b602082019050919050565b600060208201905081810360008301526113b581611379565b9050919050565b60008190508160005260206000209050919050565b60006020601f8301049050919050565b600082821b905092915050565b60006008830261141e7fffffffffffffffffffffffffffffffffffffffffffffffffffffffffffffffff826113e1565b61142886836113e1565b95508019841693508086168417925050509392505050565b6000819050919050565b6000819050919050565b600061146f61146a61146584611440565b61144a565b611440565b9050919050565b6000819050919050565b61148983611454565b61149d61149582611476565b8484546113ee565b825550505050565b600090565b6114b26114a5565b6114bd818484611480565b505050565b5b818110156114e1576114d66000826114aa565b6001810190506114c3565b5050565b601f821115611526576114f7816113bc565b611500846113d1565b8101602085101561150f578190505b61152361151b856113d1565b8301826114c2565b50505b505050565b600082821c905092915050565b60006115496000198460080261152b565b1980831691505092915050565b60006115628383611538565b9150826002028217905092915050565b61157b82610d2d565b67ffffffffffffffff81111561159457611593610e7b565b5b61159e825461131f565b6115a98282856114e5565b600060209050601f8311600181146115dc57600084156115ca578287015190505b6115d48582611556565b86555061163c565b601f1984166115ea866113bc565b60005b82811015611612578489015182556001820191506020850194506020810190506115ed565b8683101561162f578489015161162b601f891682611538565b8355505b6001600288020188555050505b505050505050565b6000602082019050818103600083015261165e8184610d84565b905092915050565b7f4e6f742072656769737465726564000000000000000000000000000000000000600082015250565b600061169c600e83610d38565b91506116a782611666565b602082019050919050565b600060208201905081810360008301526116cb8161168f565b905091905056fea2646970667358221220626406f79040b7590240ba5f0225e5362833183854922bed50f040fca556503a64736f6c634300081e0033",
					"opcodes": "PUSH1 0x80 PUSH1 0x40 MSTORE CALLVALUE DUP1 ISZERO PUSH1 0xF JUMPI PUSH1 0x0 DUP1 REVERT JUMPDEST POP PUSH2 0x1708 DUP1 PUSH2 0x1F PUSH1 0x0 CODECOPY PUSH1 0x0 RETURN INVALID PUSH1 0x80 PUSH1 0x40 MSTORE CALLVALUE DUP1 ISZERO PUSH2 0x10 JUMPI PUSH1 0x0 DUP1 REVERT JUMPDEST POP PUSH1 0x4 CALLDATASIZE LT PUSH2 0x57 JUMPI PUSH1 0x0 CALLDATALOAD PUSH1 0xE0 SHR DUP1 PUSH4 0x869CFBC EQ PUSH2 0x5C JUMPI DUP1 PUSH4 0x6D26DCE8 EQ PUSH2 0x92 JUMPI DUP1 PUSH4 0xC1816DFB EQ PUSH2 0xAE JUMPI DUP1 PUSH4 0xEDEFCF88 EQ PUSH2 0xDE JUMPI DUP1 PUSH4 0xEFE2CCC1 EQ PUSH2 0xFA JUMPI JUMPDEST PUSH1 0x0 DUP1 REVERT JUMPDEST PUSH2 0x76 PUSH1 0x4 DUP1 CALLDATASIZE SUB DUP2 ADD SWAP1 PUSH2 0x71 SWAP2 SWAP1 PUSH2 0xD00 JUMP JUMPDEST PUSH2 0x12F JUMP JUMPDEST PUSH1 0x40 MLOAD PUSH2 0x89 SWAP8 SWAP7 SWAP6 SWAP5 SWAP4 SWAP3 SWAP2 SWAP1 PUSH2 0xDD8 JUMP JUMPDEST PUSH1 0x40 MLOAD DUP1 SWAP2 SUB SWAP1 RETURN JUMPDEST PUSH2 0xAC PUSH1 0x4 DUP1 CALLDATASIZE SUB DUP2 ADD SWAP1 PUSH2 0xA7 SWAP2 SWAP1 PUSH2 0xFA6 JUMP JUMPDEST PUSH2 0x4AE JUMP JUMPDEST STOP JUMPDEST PUSH2 0xC8 PUSH1 0x4 DUP1 CALLDATASIZE SUB DUP2 ADD SWAP1 PUSH2 0xC3 SWAP2 SWAP1 PUSH2 0xD00 JUMP JUMPDEST PUSH2 0x65F JUMP JUMPDEST PUSH1 0x40 MLOAD PUSH2 0xD5 SWAP2 SWAP1 PUSH2 0x11E7 JUMP JUMPDEST PUSH1 0x40 MLOAD DUP1 SWAP2 SUB SWAP1 RETURN JUMPDEST PUSH2 0xF8 PUSH1 0x4 DUP1 CALLDATASIZE SUB DUP2 ADD SWAP1 PUSH2 0xF3 SWAP2 SWAP1 PUSH2 0x1209 JUMP JUMPDEST PUSH2 0x779 JUMP JUMPDEST STOP JUMPDEST PUSH2 0x114 PUSH1 0x4 DUP1 CALLDATASIZE SUB DUP2 ADD SWAP1 PUSH2 0x10F SWAP2 SWAP1 PUSH2 0xD00 JUMP JUMPDEST PUSH2 0x8CD JUMP JUMPDEST PUSH1 0x40 MLOAD PUSH2 0x126 SWAP7 SWAP6 SWAP5 SWAP4 SWAP3 SWAP2 SWAP1 PUSH2 0x1265 JUMP JUMPDEST PUSH1 0x40 MLOAD DUP1 SWAP2 SUB SWAP1 RETURN JUMPDEST PUSH1 0x0 PUSH1 0x20 MSTORE DUP1 PUSH1 0x0 MSTORE PUSH1 0x40 PUSH1 0x0 KECCAK256 PUSH1 0x0 SWAP2 POP SWAP1 POP DUP1 PUSH1 0x0 ADD DUP1 SLOAD PUSH2 0x152 SWAP1 PUSH2 0x131F JUMP JUMPDEST DUP1 PUSH1 0x1F ADD PUSH1 0x20 DUP1 SWAP2 DIV MUL PUSH1 0x20 ADD PUSH1 0x40 MLOAD SWAP1 DUP2 ADD PUSH1 0x40 MSTORE DUP1 SWAP3 SWAP2 SWAP1 DUP2 DUP2 MSTORE PUSH1 0x20 ADD DUP3 DUP1 SLOAD PUSH2 0x17E SWAP1 PUSH2 0x131F JUMP JUMPDEST DUP1 ISZERO PUSH2 0x1CB JUMPI DUP1 PUSH1 0x1F LT PUSH2 0x1A0 JUMPI PUSH2 0x100 DUP1 DUP4 SLOAD DIV MUL DUP4 MSTORE SWAP2 PUSH1 0x20 ADD SWAP2 PUSH2 0x1CB JUMP JUMPDEST DUP3 ADD SWAP2 SWAP1 PUSH1 0x0 MSTORE PUSH1 0x20 PUSH1 0x0 KECCAK256 SWAP1 JUMPDEST DUP2 SLOAD DUP2 MSTORE SWAP1 PUSH1 0x1 ADD SWAP1 PUSH1 0x20 ADD DUP1 DUP4 GT PUSH2 0x1AE JUMPI DUP3 SWAP1 SUB PUSH1 0x1F AND DUP3 ADD SWAP2 JUMPDEST POP POP POP POP POP SWAP1 DUP1 PUSH1 0x1 ADD DUP1 SLOAD PUSH2 0x1E0 SWAP1 PUSH2 0x131F JUMP JUMPDEST DUP1 PUSH1 0x1F ADD PUSH1 0x20 DUP1 SWAP2 DIV MUL PUSH1 0x20 ADD PUSH1 0x40 MLOAD SWAP1 DUP2 ADD PUSH1 0x40 MSTORE DUP1 SWAP3 SWAP2 SWAP1 DUP2 DUP2 MSTORE PUSH1 0x20 ADD DUP3 DUP1 SLOAD PUSH2 0x20C SWAP1 PUSH2 0x131F JUMP JUMPDEST DUP1 ISZERO PUSH2 0x259 JUMPI DUP1 PUSH1 0x1F LT PUSH2 0x22E JUMPI PUSH2 0x100 DUP1 DUP4 SLOAD DIV MUL DUP4 MSTORE SWAP2 PUSH1 0x20 ADD SWAP2 PUSH2 0x259 JUMP JUMPDEST DUP3 ADD SWAP2 SWAP1 PUSH1 0x0 MSTORE PUSH1 0x20 PUSH1 0x0 KECCAK256 SWAP1 JUMPDEST DUP2 SLOAD DUP2 MSTORE SWAP1 PUSH1 0x1 ADD SWAP1 PUSH1 0x20 ADD DUP1 DUP4 GT PUSH2 0x23C JUMPI DUP3 SWAP1 SUB PUSH1 0x1F AND DUP3 ADD SWAP2 JUMPDEST POP POP POP POP POP SWAP1 DUP1 PUSH1 0x2 ADD DUP1 SLOAD PUSH2 0x26E SWAP1 PUSH2 0x131F JUMP JUMPDEST DUP1 PUSH1 0x1F ADD PUSH1 0x20 DUP1 SWAP2 DIV MUL PUSH1 0x20 ADD PUSH1 0x40 MLOAD SWAP1 DUP2 ADD PUSH1 0x40 MSTORE DUP1 SWAP3 SWAP2 SWAP1 DUP2 DUP2 MSTORE PUSH1 0x20 ADD DUP3 DUP1 SLOAD PUSH2 0x29A SWAP1 PUSH2 0x131F JUMP JUMPDEST DUP1 ISZERO PUSH2 0x2E7 JUMPI DUP1 PUSH1 0x1F LT PUSH2 0x2BC JUMPI PUSH2 0x100 DUP1 DUP4 SLOAD DIV MUL DUP4 MSTORE SWAP2 PUSH1 0x20 ADD SWAP2 PUSH2 0x2E7 JUMP JUMPDEST DUP3 ADD SWAP2 SWAP1 PUSH1 0x0 MSTORE PUSH1 0x20 PUSH1 0x0 KECCAK256 SWAP1 JUMPDEST DUP2 SLOAD DUP2 MSTORE SWAP1 PUSH1 0x1 ADD SWAP1 PUSH1 0x20 ADD DUP1 DUP4 GT PUSH2 0x2CA JUMPI DUP3 SWAP1 SUB PUSH1 0x1F AND DUP3 ADD SWAP2 JUMPDEST POP POP POP POP POP SWAP1 DUP1 PUSH1 0x3 ADD DUP1 SLOAD PUSH2 0x2FC SWAP1 PUSH2 0x131F JUMP JUMPDEST DUP1 PUSH1 0x1F ADD PUSH1 0x20 DUP1 SWAP2 DIV MUL PUSH1 0x20 ADD PUSH1 0x40 MLOAD SWAP1 DUP2 ADD PUSH1 0x40 MSTORE DUP1 SWAP3 SWAP2 SWAP1 DUP2 DUP2 MSTORE PUSH1 0x20 ADD DUP3 DUP1 SLOAD PUSH2 0x328 SWAP1 PUSH2 0x131F JUMP JUMPDEST DUP1 ISZERO PUSH2 0x375 JUMPI DUP1 PUSH1 0x1F LT PUSH2 0x34A JUMPI PUSH2 0x100 DUP1 DUP4 SLOAD DIV MUL DUP4 MSTORE SWAP2 PUSH1 0x20 ADD SWAP2 PUSH2 0x375 JUMP JUMPDEST DUP3 ADD SWAP2 SWAP1 PUSH1 0x0 MSTORE PUSH1 0x20 PUSH1 0x0 KECCAK256 SWAP1 JUMPDEST DUP2 SLOAD DUP2 MSTORE SWAP1 PUSH1 0x1 ADD SWAP1 PUSH1 0x20 ADD DUP1 DUP4 GT PUSH2 0x358 JUMPI DUP3 SWAP1 SUB PUSH1 0x1F AND DUP3 ADD SWAP2 JUMPDEST POP POP POP POP POP SWAP1 DUP1 PUSH1 0x4 ADD DUP1 SLOAD PUSH2 0x38A SWAP1 PUSH2 0x131F JUMP JUMPDEST DUP1 PUSH1 0x1F ADD PUSH1 0x20 DUP1 SWAP2 DIV MUL PUSH1 0x20 ADD PUSH1 0x40 MLOAD SWAP1 DUP2 ADD PUSH1 0x40 MSTORE DUP1 SWAP3 SWAP2 SWAP1 DUP2 DUP2 MSTORE PUSH1 0x20 ADD DUP3 DUP1 SLOAD PUSH2 0x3B6 SWAP1 PUSH2 0x131F JUMP JUMPDEST DUP1 ISZERO PUSH2 0x403 JUMPI DUP1 PUSH1 0x1F LT PUSH2 0x3D8 JUMPI PUSH2 0x100 DUP1 DUP4 SLOAD DIV MUL DUP4 MSTORE SWAP2 PUSH1 0x20 ADD SWAP2 PUSH2 0x403 JUMP JUMPDEST DUP3 ADD SWAP2 SWAP1 PUSH1 0x0 MSTORE PUSH1 0x20 PUSH1 0x0 KECCAK256 SWAP1 JUMPDEST DUP2 SLOAD DUP2 MSTORE SWAP1 PUSH1 0x1 ADD SWAP1 PUSH1 0x20 ADD DUP1 DUP4 GT PUSH2 0x3E6 JUMPI DUP3 SWAP1 SUB PUSH1 0x1F AND DUP3 ADD SWAP2 JUMPDEST POP POP POP POP POP SWAP1 DUP1 PUSH1 0x5 ADD DUP1 SLOAD PUSH2 0x418 SWAP1 PUSH2 0x131F JUMP JUMPDEST DUP1 PUSH1 0x1F ADD PUSH1 0x20 DUP1 SWAP2 DIV MUL PUSH1 0x20 ADD PUSH1 0x40 MLOAD SWAP1 DUP2 ADD PUSH1 0x40 MSTORE DUP1 SWAP3 SWAP2 SWAP1 DUP2 DUP2 MSTORE PUSH1 0x20 ADD DUP3 DUP1 SLOAD PUSH2 0x444 SWAP1 PUSH2 0x131F JUMP JUMPDEST DUP1 ISZERO PUSH2 0x491 JUMPI DUP1 PUSH1 0x1F LT PUSH2 0x466 JUMPI PUSH2 0x100 DUP1 DUP4 SLOAD DIV MUL DUP4 MSTORE SWAP2 PUSH1 0x20 ADD SWAP2 PUSH2 0x491 JUMP JUMPDEST DUP3 ADD SWAP2 SWAP1 PUSH1 0x0 MSTORE PUSH1 0x20 PUSH1 0x0 KECCAK256 SWAP1 JUMPDEST DUP2 SLOAD DUP2 MSTORE SWAP1 PUSH1 0x1 ADD SWAP1 PUSH1 0x20 ADD DUP1 DUP4 GT PUSH2 0x474 JUMPI DUP3 SWAP1 SUB PUSH1 0x1F AND DUP3 ADD SWAP2 JUMPDEST POP POP POP POP POP SWAP1 DUP1 PUSH1 0x6 ADD PUSH1 0x0 SWAP1 SLOAD SWAP1 PUSH2 0x100 EXP SWAP1 DIV PUSH1 0xFF AND SWAP1 POP DUP8 JUMP JUMPDEST PUSH1 0x0 DUP1 CALLER PUSH20 0xFFFFFFFFFFFFFFFFFFFFFFFFFFFFFFFFFFFFFFFF AND PUSH20 0xFFFFFFFFFFFFFFFFFFFFFFFFFFFFFFFFFFFFFFFF AND DUP2 MSTORE PUSH1 0x20 ADD SWAP1 DUP2 MSTORE PUSH1 0x20 ADD PUSH1 0x0 KECCAK256 PUSH1 0x6 ADD PUSH1 0x0 SWAP1 SLOAD SWAP1 PUSH2 0x100 EXP SWAP1 DIV PUSH1 0xFF AND ISZERO PUSH2 0x53D JUMPI PUSH1 0x40 MLOAD PUSH32 0x8C379A000000000000000000000000000000000000000000000000000000000 DUP2 MSTORE PUSH1 0x4 ADD PUSH2 0x534 SWAP1 PUSH2 0x139C JUMP JUMPDEST PUSH1 0x40 MLOAD DUP1 SWAP2 SUB SWAP1 REVERT JUMPDEST PUSH1 0x0 DUP1 PUSH1 0x0 CALLER PUSH20 0xFFFFFFFFFFFFFFFFFFFFFFFFFFFFFFFFFFFFFFFF AND PUSH20 0xFFFFFFFFFFFFFFFFFFFFFFFFFFFFFFFFFFFFFFFF AND DUP2 MSTORE PUSH1 0x20 ADD SWAP1 DUP2 MSTORE PUSH1 0x20 ADD PUSH1 0x0 KECCAK256 SWAP1 POP DUP7 DUP2 PUSH1 0x0 ADD SWAP1 DUP2 PUSH2 0x590 SWAP2 SWAP1 PUSH2 0x1572 JUMP JUMPDEST POP DUP6 DUP2 PUSH1 0x1 ADD SWAP1 DUP2 PUSH2 0x5A2 SWAP2 SWAP1 PUSH2 0x1572 JUMP JUMPDEST POP DUP5 DUP2 PUSH1 0x2 ADD SWAP1 DUP2 PUSH2 0x5B4 SWAP2 SWAP1 PUSH2 0x1572 JUMP JUMPDEST POP DUP4 DUP2 PUSH1 0x3 ADD SWAP1 DUP2 PUSH2 0x5C6 SWAP2 SWAP1 PUSH2 0x1572 JUMP JUMPDEST POP DUP3 DUP2 PUSH1 0x4 ADD SWAP1 DUP2 PUSH2 0x5D8 SWAP2 SWAP1 PUSH2 0x1572 JUMP JUMPDEST POP DUP2 DUP2 PUSH1 0x5 ADD SWAP1 DUP2 PUSH2 0x5EA SWAP2 SWAP1 PUSH2 0x1572 JUMP JUMPDEST POP PUSH1 0x1 DUP2 PUSH1 0x6 ADD PUSH1 0x0 PUSH2 0x100 EXP DUP2 SLOAD DUP2 PUSH1 0xFF MUL NOT AND SWAP1 DUP4 ISZERO ISZERO MUL OR SWAP1 SSTORE POP CALLER PUSH20 0xFFFFFFFFFFFFFFFFFFFFFFFFFFFFFFFFFFFFFFFF AND PUSH32 0xC85B128388B9C331A2A5485DCE4CD0F3DB9F7C279D327CE95D6D39D6C94644C7 DUP9 PUSH1 0x40 MLOAD PUSH2 0x64E SWAP2 SWAP1 PUSH2 0x1644 JUMP JUMPDEST PUSH1 0x40 MLOAD DUP1 SWAP2 SUB SWAP1 LOG2 POP POP POP POP POP POP POP JUMP JUMPDEST PUSH1 0x60 PUSH1 0x0 DUP1 DUP4 PUSH20 0xFFFFFFFFFFFFFFFFFFFFFFFFFFFFFFFFFFFFFFFF AND PUSH20 0xFFFFFFFFFFFFFFFFFFFFFFFFFFFFFFFFFFFFFFFF AND DUP2 MSTORE PUSH1 0x20 ADD SWAP1 DUP2 MSTORE PUSH1 0x20 ADD PUSH1 0x0 KECCAK256 PUSH1 0x7 ADD DUP1 SLOAD DUP1 PUSH1 0x20 MUL PUSH1 0x20 ADD PUSH1 0x40 MLOAD SWAP1 DUP2 ADD PUSH1 0x40 MSTORE DUP1 SWAP3 SWAP2 SWAP1 DUP2 DUP2 MSTORE PUSH1 0x20 ADD PUSH1 0x0 SWAP1 JUMPDEST DUP3 DUP3 LT ISZERO PUSH2 0x76E JUMPI DUP4 DUP3 SWAP1 PUSH1 0x0 MSTORE PUSH1 0x20 PUSH1 0x0 KECCAK256 ADD DUP1 SLOAD PUSH2 0x6E1 SWAP1 PUSH2 0x131F JUMP JUMPDEST DUP1 PUSH1 0x1F ADD PUSH1 0x20 DUP1 SWAP2 DIV MUL PUSH1 0x20 ADD PUSH1 0x40 MLOAD SWAP1 DUP2 ADD PUSH1 0x40 MSTORE DUP1 SWAP3 SWAP2 SWAP1 DUP2 DUP2 MSTORE PUSH1 0x20 ADD DUP3 DUP1 SLOAD PUSH2 0x70D SWAP1 PUSH2 0x131F JUMP JUMPDEST DUP1 ISZERO PUSH2 0x75A JUMPI DUP1 PUSH1 0x1F LT PUSH2 0x72F JUMPI PUSH2 0x100 DUP1 DUP4 SLOAD DIV MUL DUP4 MSTORE SWAP2 PUSH1 0x20 ADD SWAP2 PUSH2 0x75A JUMP JUMPDEST DUP3 ADD SWAP2 SWAP1 PUSH1 0x0 MSTORE PUSH1 0x20 PUSH1 0x0 KECCAK256 SWAP1 JUMPDEST DUP2 SLOAD DUP2 MSTORE SWAP1 PUSH1 0x1 ADD SWAP1 PUSH1 0x20 ADD DUP1 DUP4 GT PUSH2 0x73D JUMPI DUP3 SWAP1 SUB PUSH1 0x1F AND DUP3 ADD SWAP2 JUMPDEST POP POP POP POP POP DUP2 MSTORE PUSH1 0x20 ADD SWAP1 PUSH1 0x1 ADD SWAP1 PUSH2 0x6C2 JUMP JUMPDEST POP POP POP POP SWAP1 POP SWAP2 SWAP1 POP JUMP JUMPDEST PUSH1 0x0 DUP1 DUP4 PUSH20 0xFFFFFFFFFFFFFFFFFFFFFFFFFFFFFFFFFFFFFFFF AND PUSH20 0xFFFFFFFFFFFFFFFFFFFFFFFFFFFFFFFFFFFFFFFF AND DUP2 MSTORE PUSH1 0x20 ADD SWAP1 DUP2 MSTORE PUSH1 0x20 ADD PUSH1 0x0 KECCAK256 PUSH1 0x6 ADD PUSH1 0x0 SWAP1 SLOAD SWAP1 PUSH2 0x100 EXP SWAP1 DIV PUSH1 0xFF AND PUSH2 0x807 JUMPI PUSH1 0x40 MLOAD PUSH32 0x8C379A000000000000000000000000000000000000000000000000000000000 DUP2 MSTORE PUSH1 0x4 ADD PUSH2 0x7FE SWAP1 PUSH2 0x16B2 JUMP JUMPDEST PUSH1 0x40 MLOAD DUP1 SWAP2 SUB SWAP1 REVERT JUMPDEST PUSH1 0x0 DUP1 CALLER PUSH20 0xFFFFFFFFFFFFFFFFFFFFFFFFFFFFFFFFFFFFFFFF AND PUSH20 0xFFFFFFFFFFFFFFFFFFFFFFFFFFFFFFFFFFFFFFFF AND DUP2 MSTORE PUSH1 0x20 ADD SWAP1 DUP2 MSTORE PUSH1 0x20 ADD PUSH1 0x0 KECCAK256 PUSH1 0x7 ADD DUP2 SWAP1 DUP1 PUSH1 0x1 DUP2 SLOAD ADD DUP1 DUP3 SSTORE DUP1 SWAP2 POP POP PUSH1 0x1 SWAP1 SUB SWAP1 PUSH1 0x0 MSTORE PUSH1 0x20 PUSH1 0x0 KECCAK256 ADD PUSH1 0x0 SWAP1 SWAP2 SWAP1 SWAP2 SWAP1 SWAP2 POP SWAP1 DUP2 PUSH2 0x87A SWAP2 SWAP1 PUSH2 0x1572 JUMP JUMPDEST POP CALLER PUSH20 0xFFFFFFFFFFFFFFFFFFFFFFFFFFFFFFFFFFFFFFFF AND PUSH32 0x771AD20575501C8CAFC4A8793006515911D6E497FD5838018654C9B50347430C DUP3 PUSH1 0x40 MLOAD PUSH2 0x8C1 SWAP2 SWAP1 PUSH2 0x1644 JUMP JUMPDEST PUSH1 0x40 MLOAD DUP1 SWAP2 SUB SWAP1 LOG2 POP POP JUMP JUMPDEST PUSH1 0x60 DUP1 PUSH1 0x60 DUP1 PUSH1 0x60 DUP1 PUSH1 0x0 DUP1 PUSH1 0x0 DUP10 PUSH20 0xFFFFFFFFFFFFFFFFFFFFFFFFFFFFFFFFFFFFFFFF AND PUSH20 0xFFFFFFFFFFFFFFFFFFFFFFFFFFFFFFFFFFFFFFFF AND DUP2 MSTORE PUSH1 0x20 ADD SWAP1 DUP2 MSTORE PUSH1 0x20 ADD PUSH1 0x0 KECCAK256 SWAP1 POP DUP1 PUSH1 0x0 ADD DUP2 PUSH1 0x1 ADD DUP3 PUSH1 0x2 ADD DUP4 PUSH1 0x3 ADD DUP5 PUSH1 0x4 ADD DUP6 PUSH1 0x5 ADD DUP6 DUP1 SLOAD PUSH2 0x93C SWAP1 PUSH2 0x131F JUMP JUMPDEST DUP1 PUSH1 0x1F ADD PUSH1 0x20 DUP1 SWAP2 DIV MUL PUSH1 0x20 ADD PUSH1 0x40 MLOAD SWAP1 DUP2 ADD PUSH1 0x40 MSTORE DUP1 SWAP3 SWAP2 SWAP1 DUP2 DUP2 MSTORE PUSH1 0x20 ADD DUP3 DUP1 SLOAD PUSH2 0x968 SWAP1 PUSH2 0x131F JUMP JUMPDEST DUP1 ISZERO PUSH2 0x9B5 JUMPI DUP1 PUSH1 0x1F LT PUSH2 0x98A JUMPI PUSH2 0x100 DUP1 DUP4 SLOAD DIV MUL DUP4 MSTORE SWAP2 PUSH1 0x20 ADD SWAP2 PUSH2 0x9B5 JUMP JUMPDEST DUP3 ADD SWAP2 SWAP1 PUSH1 0x0 MSTORE PUSH1 0x20 PUSH1 0x0 KECCAK256 SWAP1 JUMPDEST DUP2 SLOAD DUP2 MSTORE SWAP1 PUSH1 0x1 ADD SWAP1 PUSH1 0x20 ADD DUP1 DUP4 GT PUSH2 0x998 JUMPI DUP3 SWAP1 SUB PUSH1 0x1F AND DUP3 ADD SWAP2 JUMPDEST POP POP POP POP POP SWAP6 POP DUP5 DUP1 SLOAD PUSH2 0x9C8 SWAP1 PUSH2 0x131F JUMP JUMPDEST DUP1 PUSH1 0x1F ADD PUSH1 0x20 DUP1 SWAP2 DIV MUL PUSH1 0x20 ADD PUSH1 0x40 MLOAD SWAP1 DUP2 ADD PUSH1 0x40 MSTORE DUP1 SWAP3 SWAP2 SWAP1 DUP2 DUP2 MSTORE PUSH1 0x20 ADD DUP3 DUP1 SLOAD PUSH2 0x9F4 SWAP1 PUSH2 0x131F JUMP JUMPDEST DUP1 ISZERO PUSH2 0xA41 JUMPI DUP1 PUSH1 0x1F LT PUSH2 0xA16 JUMPI PUSH2 0x100 DUP1 DUP4 SLOAD DIV MUL DUP4 MSTORE SWAP2 PUSH1 0x20 ADD SWAP2 PUSH2 0xA41 JUMP JUMPDEST DUP3 ADD SWAP2 SWAP1 PUSH1 0x0 MSTORE PUSH1 0x20 PUSH1 0x0 KECCAK256 SWAP1 JUMPDEST DUP2 SLOAD DUP2 MSTORE SWAP1 PUSH1 0x1 ADD SWAP1 PUSH1 0x20 ADD DUP1 DUP4 GT PUSH2 0xA24 JUMPI DUP3 SWAP1 SUB PUSH1 0x1F AND DUP3 ADD SWAP2 JUMPDEST POP POP POP POP POP SWAP5 POP DUP4 DUP1 SLOAD PUSH2 0xA54 SWAP1 PUSH2 0x131F JUMP JUMPDEST DUP1 PUSH1 0x1F ADD PUSH1 0x20 DUP1 SWAP2 DIV MUL PUSH1 0x20 ADD PUSH1 0x40 MLOAD SWAP1 DUP2 ADD PUSH1 0x40 MSTORE DUP1 SWAP3 SWAP2 SWAP1 DUP2 DUP2 MSTORE PUSH1 0x20 ADD DUP3 DUP1 SLOAD PUSH2 0xA80 SWAP1 PUSH2 0x131F JUMP JUMPDEST DUP1 ISZERO PUSH2 0xACD JUMPI DUP1 PUSH1 0x1F LT PUSH2 0xAA2 JUMPI PUSH2 0x100 DUP1 DUP4 SLOAD DIV MUL DUP4 MSTORE SWAP2 PUSH1 0x20 ADD SWAP2 PUSH2 0xACD JUMP JUMPDEST DUP3 ADD SWAP2 SWAP1 PUSH1 0x0 MSTORE PUSH1 0x20 PUSH1 0x0 KECCAK256 SWAP1 JUMPDEST DUP2 SLOAD DUP2 MSTORE SWAP1 PUSH1 0x1 ADD SWAP1 PUSH1 0x20 ADD DUP1 DUP4 GT PUSH2 0xAB0 JUMPI DUP3 SWAP1 SUB PUSH1 0x1F AND DUP3 ADD SWAP2 JUMPDEST POP POP POP POP POP SWAP4 POP DUP3 DUP1 SLOAD PUSH2 0xAE0 SWAP1 PUSH2 0x131F JUMP JUMPDEST DUP1 PUSH1 0x1F ADD PUSH1 0x20 DUP1 SWAP2 DIV MUL PUSH1 0x20 ADD PUSH1 0x40 MLOAD SWAP1 DUP2 ADD PUSH1 0x40 MSTORE DUP1 SWAP3 SWAP2 SWAP1 DUP2 DUP2 MSTORE PUSH1 0x20 ADD DUP3 DUP1 SLOAD PUSH2 0xB0C SWAP1 PUSH2 0x131F JUMP JUMPDEST DUP1 ISZERO PUSH2 0xB59 JUMPI DUP1 PUSH1 0x1F LT PUSH2 0xB2E JUMPI PUSH2 0x100 DUP1 DUP4 SLOAD DIV MUL DUP4 MSTORE SWAP2 PUSH1 0x20 ADD SWAP2 PUSH2 0xB59 JUMP JUMPDEST DUP3 ADD SWAP2 SWAP1 PUSH1 0x0 MSTORE PUSH1 0x20 PUSH1 0x0 KECCAK256 SWAP1 JUMPDEST DUP2 SLOAD DUP2 MSTORE SWAP1 PUSH1 0x1 ADD SWAP1 PUSH1 0x20 ADD DUP1 DUP4 GT PUSH2 0xB3C JUMPI DUP3 SWAP1 SUB PUSH1 0x1F AND DUP3 ADD SWAP2 JUMPDEST POP POP POP POP POP SWAP3 POP DUP2 DUP1 SLOAD PUSH2 0xB6C SWAP1 PUSH2 0x131F JUMP JUMPDEST DUP1 PUSH1 0x1F ADD PUSH1 0x20 DUP1 SWAP2 DIV MUL PUSH1 0x20 ADD PUSH1 0x40 MLOAD SWAP1 DUP2 ADD PUSH1 0x40 MSTORE DUP1 SWAP3 SWAP2 SWAP1 DUP2 DUP2 MSTORE PUSH1 0x20 ADD DUP3 DUP1 SLOAD PUSH2 0xB98 SWAP1 PUSH2 0x131F JUMP JUMPDEST DUP1 ISZERO PUSH2 0xBE5 JUMPI DUP1 PUSH1 0x1F LT PUSH2 0xBBA JUMPI PUSH2 0x100 DUP1 DUP4 SLOAD DIV MUL DUP4 MSTORE SWAP2 PUSH1 0x20 ADD SWAP2 PUSH2 0xBE5 JUMP JUMPDEST DUP3 ADD SWAP2 SWAP1 PUSH1 0x0 MSTORE PUSH1 0x20 PUSH1 0x0 KECCAK256 SWAP1 JUMPDEST DUP2 SLOAD DUP2 MSTORE SWAP1 PUSH1 0x1 ADD SWAP1 PUSH1 0x20 ADD DUP1 DUP4 GT PUSH2 0xBC8 JUMPI DUP3 SWAP1 SUB PUSH1 0x1F AND DUP3 ADD SWAP2 JUMPDEST POP POP POP POP POP SWAP2 POP DUP1 DUP1 SLOAD PUSH2 0xBF8 SWAP1 PUSH2 0x131F JUMP JUMPDEST DUP1 PUSH1 0x1F ADD PUSH1 0x20 DUP1 SWAP2 DIV MUL PUSH1 0x20 ADD PUSH1 0x40 MLOAD SWAP1 DUP2 ADD PUSH1 0x40 MSTORE DUP1 SWAP3 SWAP2 SWAP1 DUP2 DUP2 MSTORE PUSH1 0x20 ADD DUP3 DUP1 SLOAD PUSH2 0xC24 SWAP1 PUSH2 0x131F JUMP JUMPDEST DUP1 ISZERO PUSH2 0xC71 JUMPI DUP1 PUSH1 0x1F LT PUSH2 0xC46 JUMPI PUSH2 0x100 DUP1 DUP4 SLOAD DIV MUL DUP4 MSTORE SWAP2 PUSH1 0x20 ADD SWAP2 PUSH2 0xC71 JUMP JUMPDEST DUP3 ADD SWAP2 SWAP1 PUSH1 0x0 MSTORE PUSH1 0x20 PUSH1 0x0 KECCAK256 SWAP1 JUMPDEST DUP2 SLOAD DUP2 MSTORE SWAP1 PUSH1 0x1 ADD SWAP1 PUSH1 0x20 ADD DUP1 DUP4 GT PUSH2 0xC54 JUMPI DUP3 SWAP1 SUB PUSH1 0x1F AND DUP3 ADD SWAP2 JUMPDEST POP POP POP POP POP SWAP1 POP SWAP7 POP SWAP7 POP SWAP7 POP SWAP7 POP SWAP7 POP SWAP7 POP POP SWAP2 SWAP4 SWAP6 POP SWAP2 SWAP4 SWAP6 JUMP JUMPDEST PUSH1 0x0 PUSH1 0x40 MLOAD SWAP1 POP SWAP1 JUMP JUMPDEST PUSH1 0x0 DUP1 REVERT JUMPDEST PUSH1 0x0 DUP1 REVERT JUMPDEST PUSH1 0x0 PUSH20 0xFFFFFFFFFFFFFFFFFFFFFFFFFFFFFFFFFFFFFFFF DUP3 AND SWAP1 POP SWAP2 SWAP1 POP JUMP JUMPDEST PUSH1 0x0 PUSH2 0xCCD DUP3 PUSH2 0xCA2 JUMP JUMPDEST SWAP1 POP SWAP2 SWAP1 POP JUMP JUMPDEST PUSH2 0xCDD DUP2 PUSH2 0xCC2 JUMP JUMPDEST DUP2 EQ PUSH2 0xCE8 JUMPI PUSH1 0x0 DUP1 REVERT JUMPDEST POP JUMP JUMPDEST PUSH1 0x0 DUP2 CALLDATALOAD SWAP1 POP PUSH2 0xCFA DUP2 PUSH2 0xCD4 JUMP JUMPDEST SWAP3 SWAP2 POP POP JUMP JUMPDEST PUSH1 0x0 PUSH1 0x20 DUP3 DUP5 SUB SLT ISZERO PUSH2 0xD16 JUMPI PUSH2 0xD15 PUSH2 0xC98 JUMP JUMPDEST JUMPDEST PUSH1 0x0 PUSH2 0xD24 DUP5 DUP3 DUP6 ADD PUSH2 0xCEB JUMP JUMPDEST SWAP2 POP POP SWAP3 SWAP2 POP POP JUMP JUMPDEST PUSH1 0x0 DUP2 MLOAD SWAP1 POP SWAP2 SWAP1 POP JUMP JUMPDEST PUSH1 0x0 DUP3 DUP3 MSTORE PUSH1 0x20 DUP3 ADD SWAP1 POP SWAP3 SWAP2 POP POP JUMP JUMPDEST PUSH1 0x0 JUMPDEST DUP4 DUP2 LT ISZERO PUSH2 0xD67 JUMPI DUP1 DUP3 ADD MLOAD DUP2 DUP5 ADD MSTORE PUSH1 0x20 DUP2 ADD SWAP1 POP PUSH2 0xD4C JUMP JUMPDEST PUSH1 0x0 DUP5 DUP5 ADD MSTORE POP POP POP POP JUMP JUMPDEST PUSH1 0x0 PUSH1 0x1F NOT PUSH1 0x1F DUP4 ADD AND SWAP1 POP SWAP2 SWAP1 POP JUMP JUMPDEST PUSH1 0x0 PUSH2 0xD8F DUP3 PUSH2 0xD2D JUMP JUMPDEST PUSH2 0xD99 DUP2 DUP6 PUSH2 0xD38 JUMP JUMPDEST SWAP4 POP PUSH2 0xDA9 DUP2 DUP6 PUSH1 0x20 DUP7 ADD PUSH2 0xD49 JUMP JUMPDEST PUSH2 0xDB2 DUP2 PUSH2 0xD73 JUMP JUMPDEST DUP5 ADD SWAP2 POP POP SWAP3 SWAP2 POP POP JUMP JUMPDEST PUSH1 0x0 DUP2 ISZERO ISZERO SWAP1 POP SWAP2 SWAP1 POP JUMP JUMPDEST PUSH2 0xDD2 DUP2 PUSH2 0xDBD JUMP JUMPDEST DUP3 MSTORE POP POP JUMP JUMPDEST PUSH1 0x0 PUSH1 0xE0 DUP3 ADD SWAP1 POP DUP2 DUP2 SUB PUSH1 0x0 DUP4 ADD MSTORE PUSH2 0xDF2 DUP2 DUP11 PUSH2 0xD84 JUMP JUMPDEST SWAP1 POP DUP2 DUP2 SUB PUSH1 0x20 DUP4 ADD MSTORE PUSH2 0xE06 DUP2 DUP10 PUSH2 0xD84 JUMP JUMPDEST SWAP1 POP DUP2 DUP2 SUB PUSH1 0x40 DUP4 ADD MSTORE PUSH2 0xE1A DUP2 DUP9 PUSH2 0xD84 JUMP JUMPDEST SWAP1 POP DUP2 DUP2 SUB PUSH1 0x60 DUP4 ADD MSTORE PUSH2 0xE2E DUP2 DUP8 PUSH2 0xD84 JUMP JUMPDEST SWAP1 POP DUP2 DUP2 SUB PUSH1 0x80 DUP4 ADD MSTORE PUSH2 0xE42 DUP2 DUP7 PUSH2 0xD84 JUMP JUMPDEST SWAP1 POP DUP2 DUP2 SUB PUSH1 0xA0 DUP4 ADD MSTORE PUSH2 0xE56 DUP2 DUP6 PUSH2 0xD84 JUMP JUMPDEST SWAP1 POP PUSH2 0xE65 PUSH1 0xC0 DUP4 ADD DUP5 PUSH2 0xDC9 JUMP JUMPDEST SWAP9 SWAP8 POP POP POP POP POP POP POP POP JUMP JUMPDEST PUSH1 0x0 DUP1 REVERT JUMPDEST PUSH1 0x0 DUP1 REVERT JUMPDEST PUSH32 0x4E487B7100000000000000000000000000000000000000000000000000000000 PUSH1 0x0 MSTORE PUSH1 0x41 PUSH1 0x4 MSTORE PUSH1 0x24 PUSH1 0x0 REVERT JUMPDEST PUSH2 0xEB3 DUP3 PUSH2 0xD73 JUMP JUMPDEST DUP2 ADD DUP2 DUP2 LT PUSH8 0xFFFFFFFFFFFFFFFF DUP3 GT OR ISZERO PUSH2 0xED2 JUMPI PUSH2 0xED1 PUSH2 0xE7B JUMP JUMPDEST JUMPDEST DUP1 PUSH1 0x40 MSTORE POP POP POP JUMP JUMPDEST PUSH1 0x0 PUSH2 0xEE5 PUSH2 0xC8E JUMP JUMPDEST SWAP1 POP PUSH2 0xEF1 DUP3 DUP3 PUSH2 0xEAA JUMP JUMPDEST SWAP2 SWAP1 POP JUMP JUMPDEST PUSH1 0x0 PUSH8 0xFFFFFFFFFFFFFFFF DUP3 GT ISZERO PUSH2 0xF11 JUMPI PUSH2 0xF10 PUSH2 0xE7B JUMP JUMPDEST JUMPDEST PUSH2 0xF1A DUP3 PUSH2 0xD73 JUMP JUMPDEST SWAP1 POP PUSH1 0x20 DUP2 ADD SWAP1 POP SWAP2 SWAP1 POP JUMP JUMPDEST DUP3 DUP2 DUP4 CALLDATACOPY PUSH1 0x0 DUP4 DUP4 ADD MSTORE POP POP POP JUMP JUMPDEST PUSH1 0x0 PUSH2 0xF49 PUSH2 0xF44 DUP5 PUSH2 0xEF6 JUMP JUMPDEST PUSH2 0xEDB JUMP JUMPDEST SWAP1 POP DUP3 DUP2 MSTORE PUSH1 0x20 DUP2 ADD DUP5 DUP5 DUP5 ADD GT ISZERO PUSH2 0xF65 JUMPI PUSH2 0xF64 PUSH2 0xE76 JUMP JUMPDEST JUMPDEST PUSH2 0xF70 DUP5 DUP3 DUP6 PUSH2 0xF27 JUMP JUMPDEST POP SWAP4 SWAP3 POP POP POP JUMP JUMPDEST PUSH1 0x0 DUP3 PUSH1 0x1F DUP4 ADD SLT PUSH2 0xF8D JUMPI PUSH2 0xF8C PUSH2 0xE71 JUMP JUMPDEST JUMPDEST DUP2 CALLDATALOAD PUSH2 0xF9D DUP5 DUP3 PUSH1 0x20 DUP7 ADD PUSH2 0xF36 JUMP JUMPDEST SWAP2 POP POP SWAP3 SWAP2 POP POP JUMP JUMPDEST PUSH1 0x0 DUP1 PUSH1 0x0 DUP1 PUSH1 0x0 DUP1 PUSH1 0xC0 DUP8 DUP10 SUB SLT ISZERO PUSH2 0xFC3 JUMPI PUSH2 0xFC2 PUSH2 0xC98 JUMP JUMPDEST JUMPDEST PUSH1 0x0 DUP8 ADD CALLDATALOAD PUSH8 0xFFFFFFFFFFFFFFFF DUP2 GT ISZERO PUSH2 0xFE1 JUMPI PUSH2 0xFE0 PUSH2 0xC9D JUMP JUMPDEST JUMPDEST PUSH2 0xFED DUP10 DUP3 DUP11 ADD PUSH2 0xF78 JUMP JUMPDEST SWAP7 POP POP PUSH1 0x20 DUP8 ADD CALLDATALOAD PUSH8 0xFFFFFFFFFFFFFFFF DUP2 GT ISZERO PUSH2 0x100E JUMPI PUSH2 0x100D PUSH2 0xC9D JUMP JUMPDEST JUMPDEST PUSH2 0x101A DUP10 DUP3 DUP11 ADD PUSH2 0xF78 JUMP JUMPDEST SWAP6 POP POP PUSH1 0x40 DUP8 ADD CALLDATALOAD PUSH8 0xFFFFFFFFFFFFFFFF DUP2 GT ISZERO PUSH2 0x103B JUMPI PUSH2 0x103A PUSH2 0xC9D JUMP JUMPDEST JUMPDEST PUSH2 0x1047 DUP10 DUP3 DUP11 ADD PUSH2 0xF78 JUMP JUMPDEST SWAP5 POP POP PUSH1 0x60 DUP8 ADD CALLDATALOAD PUSH8 0xFFFFFFFFFFFFFFFF DUP2 GT ISZERO PUSH2 0x1068 JUMPI PUSH2 0x1067 PUSH2 0xC9D JUMP JUMPDEST JUMPDEST PUSH2 0x1074 DUP10 DUP3 DUP11 ADD PUSH2 0xF78 JUMP JUMPDEST SWAP4 POP POP PUSH1 0x80 DUP8 ADD CALLDATALOAD PUSH8 0xFFFFFFFFFFFFFFFF DUP2 GT ISZERO PUSH2 0x1095 JUMPI PUSH2 0x1094 PUSH2 0xC9D JUMP JUMPDEST JUMPDEST PUSH2 0x10A1 DUP10 DUP3 DUP11 ADD PUSH2 0xF78 JUMP JUMPDEST SWAP3 POP POP PUSH1 0xA0 DUP8 ADD CALLDATALOAD PUSH8 0xFFFFFFFFFFFFFFFF DUP2 GT ISZERO PUSH2 0x10C2 JUMPI PUSH2 0x10C1 PUSH2 0xC9D JUMP JUMPDEST JUMPDEST PUSH2 0x10CE DUP10 DUP3 DUP11 ADD PUSH2 0xF78 JUMP JUMPDEST SWAP2 POP POP SWAP3 SWAP6 POP SWAP3 SWAP6 POP SWAP3 SWAP6 JUMP JUMPDEST PUSH1 0x0 DUP2 MLOAD SWAP1 POP SWAP2 SWAP1 POP JUMP JUMPDEST PUSH1 0x0 DUP3 DUP3 MSTORE PUSH1 0x20 DUP3 ADD SWAP1 POP SWAP3 SWAP2 POP POP JUMP JUMPDEST PUSH1 0x0 DUP2 SWAP1 POP PUSH1 0x20 DUP3 ADD SWAP1 POP SWAP2 SWAP1 POP JUMP JUMPDEST PUSH1 0x0 DUP3 DUP3 MSTORE PUSH1 0x20 DUP3 ADD SWAP1 POP SWAP3 SWAP2 POP POP JUMP JUMPDEST PUSH1 0x0 PUSH2 0x1123 DUP3 PUSH2 0xD2D JUMP JUMPDEST PUSH2 0x112D DUP2 DUP6 PUSH2 0x1107 JUMP JUMPDEST SWAP4 POP PUSH2 0x113D DUP2 DUP6 PUSH1 0x20 DUP7 ADD PUSH2 0xD49 JUMP JUMPDEST PUSH2 0x1146 DUP2 PUSH2 0xD73 JUMP JUMPDEST DUP5 ADD SWAP2 POP POP SWAP3 SWAP2 POP POP JUMP JUMPDEST PUSH1 0x0 PUSH2 0x115D DUP4 DUP4 PUSH2 0x1118 JUMP JUMPDEST SWAP1 POP SWAP3 SWAP2 POP POP JUMP JUMPDEST PUSH1 0x0 PUSH1 0x20 DUP3 ADD SWAP1 POP SWAP2 SWAP1 POP JUMP JUMPDEST PUSH1 0x0 PUSH2 0x117D DUP3 PUSH2 0x10DB JUMP JUMPDEST PUSH2 0x1187 DUP2 DUP6 PUSH2 0x10E6 JUMP JUMPDEST SWAP4 POP DUP4 PUSH1 0x20 DUP3 MUL DUP6 ADD PUSH2 0x1199 DUP6 PUSH2 0x10F7 JUMP JUMPDEST DUP1 PUSH1 0x0 JUMPDEST DUP6 DUP2 LT ISZERO PUSH2 0x11D5 JUMPI DUP5 DUP5 SUB DUP10 MSTORE DUP2 MLOAD PUSH2 0x11B6 DUP6 DUP3 PUSH2 0x1151 JUMP JUMPDEST SWAP5 POP PUSH2 0x11C1 DUP4 PUSH2 0x1165 JUMP JUMPDEST SWAP3 POP PUSH1 0x20 DUP11 ADD SWAP10 POP POP PUSH1 0x1 DUP2 ADD SWAP1 POP PUSH2 0x119D JUMP JUMPDEST POP DUP3 SWAP8 POP DUP8 SWAP6 POP POP POP POP POP POP SWAP3 SWAP2 POP POP JUMP JUMPDEST PUSH1 0x0 PUSH1 0x20 DUP3 ADD SWAP1 POP DUP2 DUP2 SUB PUSH1 0x0 DUP4 ADD MSTORE PUSH2 0x1201 DUP2 DUP5 PUSH2 0x1172 JUMP JUMPDEST SWAP1 POP SWAP3 SWAP2 POP POP JUMP JUMPDEST PUSH1 0x0 DUP1 PUSH1 0x40 DUP4 DUP6 SUB SLT ISZERO PUSH2 0x1220 JUMPI PUSH2 0x121F PUSH2 0xC98 JUMP JUMPDEST JUMPDEST PUSH1 0x0 PUSH2 0x122E DUP6 DUP3 DUP7 ADD PUSH2 0xCEB JUMP JUMPDEST SWAP3 POP POP PUSH1 0x20 DUP4 ADD CALLDATALOAD PUSH8 0xFFFFFFFFFFFFFFFF DUP2 GT ISZERO PUSH2 0x124F JUMPI PUSH2 0x124E PUSH2 0xC9D JUMP JUMPDEST JUMPDEST PUSH2 0x125B DUP6 DUP3 DUP7 ADD PUSH2 0xF78 JUMP JUMPDEST SWAP2 POP POP SWAP3 POP SWAP3 SWAP1 POP JUMP JUMPDEST PUSH1 0x0 PUSH1 0xC0 DUP3 ADD SWAP1 POP DUP2 DUP2 SUB PUSH1 0x0 DUP4 ADD MSTORE PUSH2 0x127F DUP2 DUP10 PUSH2 0xD84 JUMP JUMPDEST SWAP1 POP DUP2 DUP2 SUB PUSH1 0x20 DUP4 ADD MSTORE PUSH2 0x1293 DUP2 DUP9 PUSH2 0xD84 JUMP JUMPDEST SWAP1 POP DUP2 DUP2 SUB PUSH1 0x40 DUP4 ADD MSTORE PUSH2 0x12A7 DUP2 DUP8 PUSH2 0xD84 JUMP JUMPDEST SWAP1 POP DUP2 DUP2 SUB PUSH1 0x60 DUP4 ADD MSTORE PUSH2 0x12BB DUP2 DUP7 PUSH2 0xD84 JUMP JUMPDEST SWAP1 POP DUP2 DUP2 SUB PUSH1 0x80 DUP4 ADD MSTORE PUSH2 0x12CF DUP2 DUP6 PUSH2 0xD84 JUMP JUMPDEST SWAP1 POP DUP2 DUP2 SUB PUSH1 0xA0 DUP4 ADD MSTORE PUSH2 0x12E3 DUP2 DUP5 PUSH2 0xD84 JUMP JUMPDEST SWAP1 POP SWAP8 SWAP7 POP POP POP POP POP POP POP JUMP JUMPDEST PUSH32 0x4E487B7100000000000000000000000000000000000000000000000000000000 PUSH1 0x0 MSTORE PUSH1 0x22 PUSH1 0x4 MSTORE PUSH1 0x24 PUSH1 0x0 REVERT JUMPDEST PUSH1 0x0 PUSH1 0x2 DUP3 DIV SWAP1 POP PUSH1 0x1 DUP3 AND DUP1 PUSH2 0x1337 JUMPI PUSH1 0x7F DUP3 AND SWAP2 POP JUMPDEST PUSH1 0x20 DUP3 LT DUP2 SUB PUSH2 0x134A JUMPI PUSH2 0x1349 PUSH2 0x12F0 JUMP JUMPDEST JUMPDEST POP SWAP2 SWAP1 POP JUMP JUMPDEST PUSH32 0x416C726561647920726567697374657265640000000000000000000000000000 PUSH1 0x0 DUP3 ADD MSTORE POP JUMP JUMPDEST PUSH1 0x0 PUSH2 0x1386 PUSH1 0x12 DUP4 PUSH2 0xD38 JUMP JUMPDEST SWAP2 POP PUSH2 0x1391 DUP3 PUSH2 0x1350 JUMP JUMPDEST PUSH1 0x20 DUP3 ADD SWAP1 POP SWAP2 SWAP1 POP JUMP JUMPDEST PUSH1 0x0 PUSH1 0x20 DUP3 ADD SWAP1 POP DUP2 DUP2 SUB PUSH1 0x0 DUP4 ADD MSTORE PUSH2 0x13B5 DUP2 PUSH2 0x1379 JUMP JUMPDEST SWAP1 POP SWAP2 SWAP1 POP JUMP JUMPDEST PUSH1 0x0 DUP2 SWAP1 POP DUP2 PUSH1 0x0 MSTORE PUSH1 0x20 PUSH1 0x0 KECCAK256 SWAP1 POP SWAP2 SWAP1 POP JUMP JUMPDEST PUSH1 0x0 PUSH1 0x20 PUSH1 0x1F DUP4 ADD DIV SWAP1 POP SWAP2 SWAP1 POP JUMP JUMPDEST PUSH1 0x0 DUP3 DUP3 SHL SWAP1 POP SWAP3 SWAP2 POP POP JUMP JUMPDEST PUSH1 0x0 PUSH1 0x8 DUP4 MUL PUSH2 0x141E PUSH32 0xFFFFFFFFFFFFFFFFFFFFFFFFFFFFFFFFFFFFFFFFFFFFFFFFFFFFFFFFFFFFFFFF DUP3 PUSH2 0x13E1 JUMP JUMPDEST PUSH2 0x1428 DUP7 DUP4 PUSH2 0x13E1 JUMP JUMPDEST SWAP6 POP DUP1 NOT DUP5 AND SWAP4 POP DUP1 DUP7 AND DUP5 OR SWAP3 POP POP POP SWAP4 SWAP3 POP POP POP JUMP JUMPDEST PUSH1 0x0 DUP2 SWAP1 POP SWAP2 SWAP1 POP JUMP JUMPDEST PUSH1 0x0 DUP2 SWAP1 POP SWAP2 SWAP1 POP JUMP JUMPDEST PUSH1 0x0 PUSH2 0x146F PUSH2 0x146A PUSH2 0x1465 DUP5 PUSH2 0x1440 JUMP JUMPDEST PUSH2 0x144A JUMP JUMPDEST PUSH2 0x1440 JUMP JUMPDEST SWAP1 POP SWAP2 SWAP1 POP JUMP JUMPDEST PUSH1 0x0 DUP2 SWAP1 POP SWAP2 SWAP1 POP JUMP JUMPDEST PUSH2 0x1489 DUP4 PUSH2 0x1454 JUMP JUMPDEST PUSH2 0x149D PUSH2 0x1495 DUP3 PUSH2 0x1476 JUMP JUMPDEST DUP5 DUP5 SLOAD PUSH2 0x13EE JUMP JUMPDEST DUP3 SSTORE POP POP POP POP JUMP JUMPDEST PUSH1 0x0 SWAP1 JUMP JUMPDEST PUSH2 0x14B2 PUSH2 0x14A5 JUMP JUMPDEST PUSH2 0x14BD DUP2 DUP5 DUP5 PUSH2 0x1480 JUMP JUMPDEST POP POP POP JUMP JUMPDEST JUMPDEST DUP2 DUP2 LT ISZERO PUSH2 0x14E1 JUMPI PUSH2 0x14D6 PUSH1 0x0 DUP3 PUSH2 0x14AA JUMP JUMPDEST PUSH1 0x1 DUP2 ADD SWAP1 POP PUSH2 0x14C3 JUMP JUMPDEST POP POP JUMP JUMPDEST PUSH1 0x1F DUP3 GT ISZERO PUSH2 0x1526 JUMPI PUSH2 0x14F7 DUP2 PUSH2 0x13BC JUMP JUMPDEST PUSH2 0x1500 DUP5 PUSH2 0x13D1 JUMP JUMPDEST DUP2 ADD PUSH1 0x20 DUP6 LT ISZERO PUSH2 0x150F JUMPI DUP2 SWAP1 POP JUMPDEST PUSH2 0x1523 PUSH2 0x151B DUP6 PUSH2 0x13D1 JUMP JUMPDEST DUP4 ADD DUP3 PUSH2 0x14C2 JUMP JUMPDEST POP POP JUMPDEST POP POP POP JUMP JUMPDEST PUSH1 0x0 DUP3 DUP3 SHR SWAP1 POP SWAP3 SWAP2 POP POP JUMP JUMPDEST PUSH1 0x0 PUSH2 0x1549 PUSH1 0x0 NOT DUP5 PUSH1 0x8 MUL PUSH2 0x152B JUMP JUMPDEST NOT DUP1 DUP4 AND SWAP2 POP POP SWAP3 SWAP2 POP POP JUMP JUMPDEST PUSH1 0x0 PUSH2 0x1562 DUP4 DUP4 PUSH2 0x1538 JUMP JUMPDEST SWAP2 POP DUP3 PUSH1 0x2 MUL DUP3 OR SWAP1 POP SWAP3 SWAP2 POP POP JUMP JUMPDEST PUSH2 0x157B DUP3 PUSH2 0xD2D JUMP JUMPDEST PUSH8 0xFFFFFFFFFFFFFFFF DUP2 GT ISZERO PUSH2 0x1594 JUMPI PUSH2 0x1593 PUSH2 0xE7B JUMP JUMPDEST JUMPDEST PUSH2 0x159E DUP3 SLOAD PUSH2 0x131F JUMP JUMPDEST PUSH2 0x15A9 DUP3 DUP3 DUP6 PUSH2 0x14E5 JUMP JUMPDEST PUSH1 0x0 PUSH1 0x20 SWAP1 POP PUSH1 0x1F DUP4 GT PUSH1 0x1 DUP2 EQ PUSH2 0x15DC JUMPI PUSH1 0x0 DUP5 ISZERO PUSH2 0x15CA JUMPI DUP3 DUP8 ADD MLOAD SWAP1 POP JUMPDEST PUSH2 0x15D4 DUP6 DUP3 PUSH2 0x1556 JUMP JUMPDEST DUP7 SSTORE POP PUSH2 0x163C JUMP JUMPDEST PUSH1 0x1F NOT DUP5 AND PUSH2 0x15EA DUP7 PUSH2 0x13BC JUMP JUMPDEST PUSH1 0x0 JUMPDEST DUP3 DUP2 LT ISZERO PUSH2 0x1612 JUMPI DUP5 DUP10 ADD MLOAD DUP3 SSTORE PUSH1 0x1 DUP3 ADD SWAP2 POP PUSH1 0x20 DUP6 ADD SWAP5 POP PUSH1 0x20 DUP2 ADD SWAP1 POP PUSH2 0x15ED JUMP JUMPDEST DUP7 DUP4 LT ISZERO PUSH2 0x162F JUMPI DUP5 DUP10 ADD MLOAD PUSH2 0x162B PUSH1 0x1F DUP10 AND DUP3 PUSH2 0x1538 JUMP JUMPDEST DUP4 SSTORE POP JUMPDEST PUSH1 0x1 PUSH1 0x2 DUP9 MUL ADD DUP9 SSTORE POP POP POP JUMPDEST POP POP POP POP POP POP JUMP JUMPDEST PUSH1 0x0 PUSH1 0x20 DUP3 ADD SWAP1 POP DUP2 DUP2 SUB PUSH1 0x0 DUP4 ADD MSTORE PUSH2 0x165E DUP2 DUP5 PUSH2 0xD84 JUMP JUMPDEST SWAP1 POP SWAP3 SWAP2 POP POP JUMP JUMPDEST PUSH32 0x4E6F742072656769737465726564000000000000000000000000000000000000 PUSH1 0x0 DUP3 ADD MSTORE POP JUMP JUMPDEST PUSH1 0x0 PUSH2 0x169C PUSH1 0xE DUP4 PUSH2 0xD38 JUMP JUMPDEST SWAP2 POP PUSH2 0x16A7 DUP3 PUSH2 0x1666 JUMP JUMPDEST PUSH1 0x20 DUP3 ADD SWAP1 POP SWAP2 SWAP1 POP JUMP JUMPDEST PUSH1 0x0 PUSH1 0x20 DUP3 ADD SWAP1 POP DUP2 DUP2 SUB PUSH1 0x0 DUP4 ADD MSTORE PUSH2 0x16CB DUP2 PUSH2 0x168F JUMP JUMPDEST SWAP1 POP SWAP2 SWAP1 POP JUMP INVALID LOG2 PUSH5 0x6970667358 0x22 SLT KECCAK256 PUSH3 0x6406F7 SWAP1 BLOCKHASH 0xB7 MSIZE MUL BLOCKHASH 0xBA PUSH0 MUL 0x25 JUMPF 0x3628 CALLER XOR CODESIZE SLOAD SWAP3 0x2B 0xED POP CREATE BLOCKHASH 0xFC 0xA5 JUMP POP GASPRICE PUSH5 0x736F6C6343 STOP ADDMOD 0x1E STOP CALLER "
				},
				"gasEstimates": {
					"creation": {
						"codeDepositCost": "1179200",
						"executionCost": "1227",
						"totalCost": "1180427"
					},
					"external": {
						"addFileToPatient(address,string)": "infinite",
						"getPatientDetails(address)": "infinite",
						"getPatientFiles(address)": "infinite",
						"patients(address)": "infinite",
						"registerPatient(string,string,string,string,string,string)": "infinite"
					}
				},
				"methodIdentifiers": {
					"addFileToPatient(address,string)": "edefcf88",
					"getPatientDetails(address)": "efe2ccc1",
					"getPatientFiles(address)": "c1816dfb",
					"patients(address)": "0869cfbc",
					"registerPatient(string,string,string,string,string,string)": "6d26dce8"
				}
			},
			"storageLayout": {
				"storage": [
					{
						"astId": 400,
						"contract": "contracts/PatientRegistry.sol:PatientRegistry",
						"label": "patients",
						"offset": 0,
						"slot": "0",
						"type": "t_mapping(t_address,t_struct(Patient)395_storage)"
					}
				],
				"types": {
					"t_address": {
						"encoding": "inplace",
						"label": "address",
						"numberOfBytes": "20"
					},
					"t_array(t_string_storage)dyn_storage": {
						"base": "t_string_storage",
						"encoding": "dynamic_array",
						"label": "string[]",
						"numberOfBytes": "32"
					},
					"t_bool": {
						"encoding": "inplace",
						"label": "bool",
						"numberOfBytes": "1"
					},
					"t_mapping(t_address,t_struct(Patient)395_storage)": {
						"encoding": "mapping",
						"key": "t_address",
						"label": "mapping(address => struct PatientRegistry.Patient)",
						"numberOfBytes": "32",
						"value": "t_struct(Patient)395_storage"
					},
					"t_string_storage": {
						"encoding": "bytes",
						"label": "string",
						"numberOfBytes": "32"
					},
					"t_struct(Patient)395_storage": {
						"encoding": "inplace",
						"label": "struct PatientRegistry.Patient",
						"members": [
							{
								"astId": 379,
								"contract": "contracts/PatientRegistry.sol:PatientRegistry",
								"label": "name",
								"offset": 0,
								"slot": "0",
								"type": "t_string_storage"
							},
							{
								"astId": 381,
								"contract": "contracts/PatientRegistry.sol:PatientRegistry",
								"label": "gender",
								"offset": 0,
								"slot": "1",
								"type": "t_string_storage"
							},
							{
								"astId": 383,
								"contract": "contracts/PatientRegistry.sol:PatientRegistry",
								"label": "dateOfBirth",
								"offset": 0,
								"slot": "2",
								"type": "t_string_storage"
							},
							{
								"astId": 385,
								"contract": "contracts/PatientRegistry.sol:PatientRegistry",
								"label": "bloodGroup",
								"offset": 0,
								"slot": "3",
								"type": "t_string_storage"
							},
							{
								"astId": 387,
								"contract": "contracts/PatientRegistry.sol:PatientRegistry",
								"label": "contactInfo",
								"offset": 0,
								"slot": "4",
								"type": "t_string_storage"
							},
							{
								"astId": 389,
								"contract": "contracts/PatientRegistry.sol:PatientRegistry",
								"label": "homeAddress",
								"offset": 0,
								"slot": "5",
								"type": "t_string_storage"
							},
							{
								"astId": 391,
								"contract": "contracts/PatientRegistry.sol:PatientRegistry",
								"label": "isRegistered",
								"offset": 0,
								"slot": "6",
								"type": "t_bool"
							},
							{
								"astId": 394,
								"contract": "contracts/PatientRegistry.sol:PatientRegistry",
								"label": "fileHashes",
								"offset": 0,
								"slot": "7",
								"type": "t_array(t_string_storage)dyn_storage"
							}
						],
						"numberOfBytes": "256"
					}
				}
			},
			"userdoc": {
				"kind": "user",
				"methods": {},
				"version": 1
			}
		}
	}
}