{
	"contracts/PatientRegistry.sol": {
		"PatientRegistry": {
			"abi": [
				{
					"anonymous": false,
					"inputs": [
						{
							"indexed": true,
							"internalType": "address",
							"name": "patient",
							"type": "address"
						},
						{
							"indexed": false,
							"internalType": "string",
							"name": "fileHash",
							"type": "string"
						}
					],
					"name": "FileAdded",
					"type": "event"
				},
				{
					"anonymous": false,
					"inputs": [
						{
							"indexed": true,
							"internalType": "address",
							"name": "patient",
							"type": "address"
						},
						{
							"indexed": false,
							"internalType": "string",
							"name": "name",
							"type": "string"
						}
					],
					"name": "PatientRegistered",
					"type": "event"
				},
				{
					"inputs": [
						{
							"internalType": "address",
							"name": "_patient",
							"type": "address"
						},
						{
							"internalType": "string",
							"name": "_fileHash",
							"type": "string"
						}
					],
					"name": "addFileToPatient",
					"outputs": [],
					"stateMutability": "nonpayable",
					"type": "function"
				},
				{
					"inputs": [],
					"name": "getAllRegisteredPatients",
					"outputs": [
						{
							"internalType": "address[]",
							"name": "",
							"type": "address[]"
						}
					],
					"stateMutability": "view",
					"type": "function"
				},
				{
					"inputs": [
						{
							"internalType": "address",
							"name": "_patient",
							"type": "address"
						}
					],
					"name": "getPatientDetails",
					"outputs": [
						{
							"internalType": "string",
							"name": "name",
							"type": "string"
						},
						{
							"internalType": "string",
							"name": "gender",
							"type": "string"
						},
						{
							"internalType": "string",
							"name": "dateOfBirth",
							"type": "string"
						},
						{
							"internalType": "string",
							"name": "bloodGroup",
							"type": "string"
						},
						{
							"internalType": "string",
							"name": "contactInfo",
							"type": "string"
						},
						{
							"internalType": "string",
							"name": "homeAddress",
							"type": "string"
						}
					],
					"stateMutability": "view",
					"type": "function"
				},
				{
					"inputs": [
						{
							"internalType": "address",
							"name": "_patient",
							"type": "address"
						}
					],
					"name": "getPatientFiles",
					"outputs": [
						{
							"internalType": "string[]",
							"name": "",
							"type": "string[]"
						}
					],
					"stateMutability": "view",
					"type": "function"
				},
				{
					"inputs": [],
					"name": "getTotalPatientsCount",
					"outputs": [
						{
							"internalType": "uint256",
							"name": "",
							"type": "uint256"
						}
					],
					"stateMutability": "view",
					"type": "function"
				},
				{
					"inputs": [],
					"name": "getTotalRecordsCount",
					"outputs": [
						{
							"internalType": "uint256",
							"name": "",
							"type": "uint256"
						}
					],
					"stateMutability": "view",
					"type": "function"
				},
				{
					"inputs": [
						{
							"internalType": "address",
							"name": "",
							"type": "address"
						}
					],
					"name": "patients",
					"outputs": [
						{
							"internalType": "string",
							"name": "name",
							"type": "string"
						},
						{
							"internalType": "string",
							"name": "gender",
							"type": "string"
						},
						{
							"internalType": "string",
							"name": "dateOfBirth",
							"type": "string"
						},
						{
							"internalType": "string",
							"name": "bloodGroup",
							"type": "string"
						},
						{
							"internalType": "string",
							"name": "contactInfo",
							"type": "string"
						},
						{
							"internalType": "string",
							"name": "homeAddress",
							"type": "string"
						},
						{
							"internalType": "bool",
							"name": "isRegistered",
							"type": "bool"
						}
					],
					"stateMutability": "view",
					"type": "function"
				},
				{
					"inputs": [
						{
							"internalType": "string",
							"name": "_name",
							"type": "string"
						},
						{
							"internalType": "string",
							"name": "_gender",
							"type": "string"
						},
						{
							"internalType": "string",
							"name": "_dateOfBirth",
							"type": "string"
						},
						{
							"internalType": "string",
							"name": "_bloodGroup",
							"type": "string"
						},
						{
							"internalType": "string",
							"name": "_contactInfo",
							"type": "string"
						},
						{
							"internalType": "string",
							"name": "_homeAddress",
							"type": "string"
						}
					],
					"name": "registerPatient",
					"outputs": [],
					"stateMutability": "nonpayable",
					"type": "function"
				},
				{
					"inputs": [
						{
							"internalType": "uint256",
							"name": "",
							"type": "uint256"
						}
					],
					"name": "registeredPatientAddresses",
					"outputs": [
						{
							"internalType": "address",
							"name": "",
							"type": "address"
						}
					],
					"stateMutability": "view",
					"type": "function"
				},
				{
					"inputs": [],
					"name": "totalFileRecords",
					"outputs": [
						{
							"internalType": "uint256",
							"name": "",
							"type": "uint256"
						}
					],
					"stateMutability": "view",
					"type": "function"
				},
				{
					"inputs": [],
					"name": "totalPatients",
					"outputs": [
						{
							"internalType": "uint256",
							"name": "",
							"type": "uint256"
						}
					],
					"stateMutability": "view",
					"type": "function"
				}
			],
			"devdoc": {
				"kind": "dev",
				"methods": {},
				"version": 1
			},
			"evm": {
				"assembly": "    /* \"contracts/PatientRegistry.sol\":61:3216  contract PatientRegistry {... */\n  mstore(0x40, 0x80)\n  callvalue\n  dup1\n  iszero\n  tag_1\n  jumpi\n  0x00\n  dup1\n  revert\ntag_1:\n  pop\n  dataSize(sub_0)\n  dup1\n  dataOffset(sub_0)\n  0x00\n  codecopy\n  0x00\n  return\nstop\n\nsub_0: assembly {\n        /* \"contracts/PatientRegistry.sol\":61:3216  contract PatientRegistry {... */\n      mstore(0x40, 0x80)\n      callvalue\n      dup1\n      iszero\n      tag_1\n      jumpi\n      0x00\n      dup1\n      revert\n    tag_1:\n      pop\n      jumpi(tag_2, lt(calldatasize, 0x04))\n      shr(0xe0, calldataload(0x00))\n      dup1\n      0xa2143b3c\n      gt\n      tag_14\n      jumpi\n      dup1\n      0xa2143b3c\n      eq\n      tag_8\n      jumpi\n      dup1\n      0xc1816dfb\n      eq\n      tag_9\n      jumpi\n      dup1\n      0xdeb5ef09\n      eq\n      tag_10\n      jumpi\n      dup1\n      0xed3a2634\n      eq\n      tag_11\n      jumpi\n      dup1\n      0xedefcf88\n      eq\n      tag_12\n      jumpi\n      dup1\n      0xefe2ccc1\n      eq\n      tag_13\n      jumpi\n      jump(tag_2)\n    tag_14:\n      dup1\n      0x0869cfbc\n      eq\n      tag_3\n      jumpi\n      dup1\n      0x413f107a\n      eq\n      tag_4\n      jumpi\n      dup1\n      0x6d26dce8\n      eq\n      tag_5\n      jumpi\n      dup1\n      0x8f768649\n      eq\n      tag_6\n      jumpi\n      dup1\n      0x9a96fcc1\n      eq\n      tag_7\n      jumpi\n    tag_2:\n      0x00\n      dup1\n      revert\n        /* \"contracts/PatientRegistry.sol\":457:500  mapping(address => Patient) public patients */\n    tag_3:\n      tag_15\n      0x04\n      dup1\n      calldatasize\n      sub\n      dup2\n      add\n      swap1\n      tag_16\n      swap2\n      swap1\n      tag_17\n      jump\t// in\n    tag_16:\n      tag_18\n      jump\t// in\n    tag_15:\n      mload(0x40)\n      tag_19\n      swap8\n      swap7\n      swap6\n      swap5\n      swap4\n      swap3\n      swap2\n      swap1\n      tag_20\n      jump\t// in\n    tag_19:\n      mload(0x40)\n      dup1\n      swap2\n      sub\n      swap1\n      return\n        /* \"contracts/PatientRegistry.sol\":3086:3213  function getAllRegisteredPatients() public view returns (address[] memory) {... */\n    tag_4:\n      tag_21\n      tag_22\n      jump\t// in\n    tag_21:\n      mload(0x40)\n      tag_23\n      swap2\n      swap1\n      tag_24\n      jump\t// in\n    tag_23:\n      mload(0x40)\n      dup1\n      swap2\n      sub\n      swap1\n      return\n        /* \"contracts/PatientRegistry.sol\":906:1799  function registerPatient(... */\n    tag_5:\n      tag_25\n      0x04\n      dup1\n      calldatasize\n      sub\n      dup2\n      add\n      swap1\n      tag_26\n      swap2\n      swap1\n      tag_27\n      jump\t// in\n    tag_26:\n      tag_28\n      jump\t// in\n    tag_25:\n      stop\n        /* \"contracts/PatientRegistry.sol\":167:198  uint256 public totalFileRecords */\n    tag_6:\n      tag_29\n      tag_30\n      jump\t// in\n    tag_29:\n      mload(0x40)\n      tag_31\n      swap2\n      swap1\n      tag_32\n      jump\t// in\n    tag_31:\n      mload(0x40)\n      dup1\n      swap2\n      sub\n      swap1\n      return\n        /* \"contracts/PatientRegistry.sol\":2970:3074  function getTotalRecordsCount() public view returns (uint256) {... */\n    tag_7:\n      tag_33\n      tag_34\n      jump\t// in\n    tag_33:\n      mload(0x40)\n      tag_35\n      swap2\n      swap1\n      tag_32\n      jump\t// in\n    tag_35:\n      mload(0x40)\n      dup1\n      swap2\n      sub\n      swap1\n      return\n        /* \"contracts/PatientRegistry.sol\":583:626  address[] public registeredPatientAddresses */\n    tag_8:\n      tag_36\n      0x04\n      dup1\n      calldatasize\n      sub\n      dup2\n      add\n      swap1\n      tag_37\n      swap2\n      swap1\n      tag_38\n      jump\t// in\n    tag_37:\n      tag_39\n      jump\t// in\n    tag_36:\n      mload(0x40)\n      tag_40\n      swap2\n      swap1\n      tag_41\n      jump\t// in\n    tag_40:\n      mload(0x40)\n      dup1\n      swap2\n      sub\n      swap1\n      return\n        /* \"contracts/PatientRegistry.sol\":2168:2306  function getPatientFiles(address _patient) external view returns (string[] memory) {... */\n    tag_9:\n      tag_42\n      0x04\n      dup1\n      calldatasize\n      sub\n      dup2\n      add\n      swap1\n      tag_43\n      swap2\n      swap1\n      tag_17\n      jump\t// in\n    tag_43:\n      tag_44\n      jump\t// in\n    tag_42:\n      mload(0x40)\n      tag_45\n      swap2\n      swap1\n      tag_46\n      jump\t// in\n    tag_45:\n      mload(0x40)\n      dup1\n      swap2\n      sub\n      swap1\n      return\n        /* \"contracts/PatientRegistry.sol\":132:160  uint256 public totalPatients */\n    tag_10:\n      tag_47\n      tag_48\n      jump\t// in\n    tag_47:\n      mload(0x40)\n      tag_49\n      swap2\n      swap1\n      tag_32\n      jump\t// in\n    tag_49:\n      mload(0x40)\n      dup1\n      swap2\n      sub\n      swap1\n      return\n        /* \"contracts/PatientRegistry.sol\":2860:2962  function getTotalPatientsCount() public view returns (uint256) {... */\n    tag_11:\n      tag_50\n      tag_51\n      jump\t// in\n    tag_50:\n      mload(0x40)\n      tag_52\n      swap2\n      swap1\n      tag_32\n      jump\t// in\n    tag_52:\n      mload(0x40)\n      dup1\n      swap2\n      sub\n      swap1\n      return\n        /* \"contracts/PatientRegistry.sol\":1807:2160  function addFileToPatient(address _patient, string memory _fileHash) public {... */\n    tag_12:\n      tag_53\n      0x04\n      dup1\n      calldatasize\n      sub\n      dup2\n      add\n      swap1\n      tag_54\n      swap2\n      swap1\n      tag_55\n      jump\t// in\n    tag_54:\n      tag_56\n      jump\t// in\n    tag_53:\n      stop\n        /* \"contracts/PatientRegistry.sol\":2314:2804  function getPatientDetails(address _patient)... */\n    tag_13:\n      tag_57\n      0x04\n      dup1\n      calldatasize\n      sub\n      dup2\n      add\n      swap1\n      tag_58\n      swap2\n      swap1\n      tag_17\n      jump\t// in\n    tag_58:\n      tag_59\n      jump\t// in\n    tag_57:\n      mload(0x40)\n      tag_60\n      swap7\n      swap6\n      swap5\n      swap4\n      swap3\n      swap2\n      swap1\n      tag_61\n      jump\t// in\n    tag_60:\n      mload(0x40)\n      dup1\n      swap2\n      sub\n      swap1\n      return\n        /* \"contracts/PatientRegistry.sol\":457:500  mapping(address => Patient) public patients */\n    tag_18:\n      mstore(0x20, 0x02)\n      dup1\n      0x00\n      mstore\n      keccak256(0x00, 0x40)\n      0x00\n      swap2\n      pop\n      swap1\n      pop\n      dup1\n      0x00\n      add\n      dup1\n      sload\n      tag_62\n      swap1\n      tag_63\n      jump\t// in\n    tag_62:\n      dup1\n      0x1f\n      add\n      0x20\n      dup1\n      swap2\n      div\n      mul\n      0x20\n      add\n      mload(0x40)\n      swap1\n      dup2\n      add\n      0x40\n      mstore\n      dup1\n      swap3\n      swap2\n      swap1\n      dup2\n      dup2\n      mstore\n      0x20\n      add\n      dup3\n      dup1\n      sload\n      tag_64\n      swap1\n      tag_63\n      jump\t// in\n    tag_64:\n      dup1\n      iszero\n      tag_65\n      jumpi\n      dup1\n      0x1f\n      lt\n      tag_66\n      jumpi\n      0x0100\n      dup1\n      dup4\n      sload\n      div\n      mul\n      dup4\n      mstore\n      swap2\n      0x20\n      add\n      swap2\n      jump(tag_65)\n    tag_66:\n      dup3\n      add\n      swap2\n      swap1\n      0x00\n      mstore\n      keccak256(0x00, 0x20)\n      swap1\n    tag_67:\n      dup2\n      sload\n      dup2\n      mstore\n      swap1\n      0x01\n      add\n      swap1\n      0x20\n      add\n      dup1\n      dup4\n      gt\n      tag_67\n      jumpi\n      dup3\n      swap1\n      sub\n      0x1f\n      and\n      dup3\n      add\n      swap2\n    tag_65:\n      pop\n      pop\n      pop\n      pop\n      pop\n      swap1\n      dup1\n      0x01\n      add\n      dup1\n      sload\n      tag_68\n      swap1\n      tag_63\n      jump\t// in\n    tag_68:\n      dup1\n      0x1f\n      add\n      0x20\n      dup1\n      swap2\n      div\n      mul\n      0x20\n      add\n      mload(0x40)\n      swap1\n      dup2\n      add\n      0x40\n      mstore\n      dup1\n      swap3\n      swap2\n      swap1\n      dup2\n      dup2\n      mstore\n      0x20\n      add\n      dup3\n      dup1\n      sload\n      tag_69\n      swap1\n      tag_63\n      jump\t// in\n    tag_69:\n      dup1\n      iszero\n      tag_70\n      jumpi\n      dup1\n      0x1f\n      lt\n      tag_71\n      jumpi\n      0x0100\n      dup1\n      dup4\n      sload\n      div\n      mul\n      dup4\n      mstore\n      swap2\n      0x20\n      add\n      swap2\n      jump(tag_70)\n    tag_71:\n      dup3\n      add\n      swap2\n      swap1\n      0x00\n      mstore\n      keccak256(0x00, 0x20)\n      swap1\n    tag_72:\n      dup2\n      sload\n      dup2\n      mstore\n      swap1\n      0x01\n      add\n      swap1\n      0x20\n      add\n      dup1\n      dup4\n      gt\n      tag_72\n      jumpi\n      dup3\n      swap1\n      sub\n      0x1f\n      and\n      dup3\n      add\n      swap2\n    tag_70:\n      pop\n      pop\n      pop\n      pop\n      pop\n      swap1\n      dup1\n      0x02\n      add\n      dup1\n      sload\n      tag_73\n      swap1\n      tag_63\n      jump\t// in\n    tag_73:\n      dup1\n      0x1f\n      add\n      0x20\n      dup1\n      swap2\n      div\n      mul\n      0x20\n      add\n      mload(0x40)\n      swap1\n      dup2\n      add\n      0x40\n      mstore\n      dup1\n      swap3\n      swap2\n      swap1\n      dup2\n      dup2\n      mstore\n      0x20\n      add\n      dup3\n      dup1\n      sload\n      tag_74\n      swap1\n      tag_63\n      jump\t// in\n    tag_74:\n      dup1\n      iszero\n      tag_75\n      jumpi\n      dup1\n      0x1f\n      lt\n      tag_76\n      jumpi\n      0x0100\n      dup1\n      dup4\n      sload\n      div\n      mul\n      dup4\n      mstore\n      swap2\n      0x20\n      add\n      swap2\n      jump(tag_75)\n    tag_76:\n      dup3\n      add\n      swap2\n      swap1\n      0x00\n      mstore\n      keccak256(0x00, 0x20)\n      swap1\n    tag_77:\n      dup2\n      sload\n      dup2\n      mstore\n      swap1\n      0x01\n      add\n      swap1\n      0x20\n      add\n      dup1\n      dup4\n      gt\n      tag_77\n      jumpi\n      dup3\n      swap1\n      sub\n      0x1f\n      and\n      dup3\n      add\n      swap2\n    tag_75:\n      pop\n      pop\n      pop\n      pop\n      pop\n      swap1\n      dup1\n      0x03\n      add\n      dup1\n      sload\n      tag_78\n      swap1\n      tag_63\n      jump\t// in\n    tag_78:\n      dup1\n      0x1f\n      add\n      0x20\n      dup1\n      swap2\n      div\n      mul\n      0x20\n      add\n      mload(0x40)\n      swap1\n      dup2\n      add\n      0x40\n      mstore\n      dup1\n      swap3\n      swap2\n      swap1\n      dup2\n      dup2\n      mstore\n      0x20\n      add\n      dup3\n      dup1\n      sload\n      tag_79\n      swap1\n      tag_63\n      jump\t// in\n    tag_79:\n      dup1\n      iszero\n      tag_80\n      jumpi\n      dup1\n      0x1f\n      lt\n      tag_81\n      jumpi\n      0x0100\n      dup1\n      dup4\n      sload\n      div\n      mul\n      dup4\n      mstore\n      swap2\n      0x20\n      add\n      swap2\n      jump(tag_80)\n    tag_81:\n      dup3\n      add\n      swap2\n      swap1\n      0x00\n      mstore\n      keccak256(0x00, 0x20)\n      swap1\n    tag_82:\n      dup2\n      sload\n      dup2\n      mstore\n      swap1\n      0x01\n      add\n      swap1\n      0x20\n      add\n      dup1\n      dup4\n      gt\n      tag_82\n      jumpi\n      dup3\n      swap1\n      sub\n      0x1f\n      and\n      dup3\n      add\n      swap2\n    tag_80:\n      pop\n      pop\n      pop\n      pop\n      pop\n      swap1\n      dup1\n      0x04\n      add\n      dup1\n      sload\n      tag_83\n      swap1\n      tag_63\n      jump\t// in\n    tag_83:\n      dup1\n      0x1f\n      add\n      0x20\n      dup1\n      swap2\n      div\n      mul\n      0x20\n      add\n      mload(0x40)\n      swap1\n      dup2\n      add\n      0x40\n      mstore\n      dup1\n      swap3\n      swap2\n      swap1\n      dup2\n      dup2\n      mstore\n      0x20\n      add\n      dup3\n      dup1\n      sload\n      tag_84\n      swap1\n      tag_63\n      jump\t// in\n    tag_84:\n      dup1\n      iszero\n      tag_85\n      jumpi\n      dup1\n      0x1f\n      lt\n      tag_86\n      jumpi\n      0x0100\n      dup1\n      dup4\n      sload\n      div\n      mul\n      dup4\n      mstore\n      swap2\n      0x20\n      add\n      swap2\n      jump(tag_85)\n    tag_86:\n      dup3\n      add\n      swap2\n      swap1\n      0x00\n      mstore\n      keccak256(0x00, 0x20)\n      swap1\n    tag_87:\n      dup2\n      sload\n      dup2\n      mstore\n      swap1\n      0x01\n      add\n      swap1\n      0x20\n      add\n      dup1\n      dup4\n      gt\n      tag_87\n      jumpi\n      dup3\n      swap1\n      sub\n      0x1f\n      and\n      dup3\n      add\n      swap2\n    tag_85:\n      pop\n      pop\n      pop\n      pop\n      pop\n      swap1\n      dup1\n      0x05\n      add\n      dup1\n      sload\n      tag_88\n      swap1\n      tag_63\n      jump\t// in\n    tag_88:\n      dup1\n      0x1f\n      add\n      0x20\n      dup1\n      swap2\n      div\n      mul\n      0x20\n      add\n      mload(0x40)\n      swap1\n      dup2\n      add\n      0x40\n      mstore\n      dup1\n      swap3\n      swap2\n      swap1\n      dup2\n      dup2\n      mstore\n      0x20\n      add\n      dup3\n      dup1\n      sload\n      tag_89\n      swap1\n      tag_63\n      jump\t// in\n    tag_89:\n      dup1\n      iszero\n      tag_90\n      jumpi\n      dup1\n      0x1f\n      lt\n      tag_91\n      jumpi\n      0x0100\n      dup1\n      dup4\n      sload\n      div\n      mul\n      dup4\n      mstore\n      swap2\n      0x20\n      add\n      swap2\n      jump(tag_90)\n    tag_91:\n      dup3\n      add\n      swap2\n      swap1\n      0x00\n      mstore\n      keccak256(0x00, 0x20)\n      swap1\n    tag_92:\n      dup2\n      sload\n      dup2\n      mstore\n      swap1\n      0x01\n      add\n      swap1\n      0x20\n      add\n      dup1\n      dup4\n      gt\n      tag_92\n      jumpi\n      dup3\n      swap1\n      sub\n      0x1f\n      and\n      dup3\n      add\n      swap2\n    tag_90:\n      pop\n      pop\n      pop\n      pop\n      pop\n      swap1\n      dup1\n      0x06\n      add\n      0x00\n      swap1\n      sload\n      swap1\n      0x0100\n      exp\n      swap1\n      div\n      0xff\n      and\n      swap1\n      pop\n      dup8\n      jump\t// out\n        /* \"contracts/PatientRegistry.sol\":3086:3213  function getAllRegisteredPatients() public view returns (address[] memory) {... */\n    tag_22:\n        /* \"contracts/PatientRegistry.sol\":3143:3159  address[] memory */\n      0x60\n        /* \"contracts/PatientRegistry.sol\":3179:3205  registeredPatientAddresses */\n      0x03\n        /* \"contracts/PatientRegistry.sol\":3172:3205  return registeredPatientAddresses */\n      dup1\n      sload\n      dup1\n      0x20\n      mul\n      0x20\n      add\n      mload(0x40)\n      swap1\n      dup2\n      add\n      0x40\n      mstore\n      dup1\n      swap3\n      swap2\n      swap1\n      dup2\n      dup2\n      mstore\n      0x20\n      add\n      dup3\n      dup1\n      sload\n      dup1\n      iszero\n      tag_94\n      jumpi\n      0x20\n      mul\n      dup3\n      add\n      swap2\n      swap1\n      0x00\n      mstore\n      keccak256(0x00, 0x20)\n      swap1\n    tag_95:\n      dup2\n      0x00\n      swap1\n      sload\n      swap1\n      0x0100\n      exp\n      swap1\n      div\n      0xffffffffffffffffffffffffffffffffffffffff\n      and\n      0xffffffffffffffffffffffffffffffffffffffff\n      and\n      dup2\n      mstore\n      0x20\n      add\n      swap1\n      0x01\n      add\n      swap1\n      dup1\n      dup4\n      gt\n      tag_95\n      jumpi\n    tag_94:\n      pop\n      pop\n      pop\n      pop\n      pop\n      swap1\n      pop\n        /* \"contracts/PatientRegistry.sol\":3086:3213  function getAllRegisteredPatients() public view returns (address[] memory) {... */\n      swap1\n      jump\t// out\n        /* \"contracts/PatientRegistry.sol\":906:1799  function registerPatient(... */\n    tag_28:\n        /* \"contracts/PatientRegistry.sol\":1176:1184  patients */\n      0x02\n        /* \"contracts/PatientRegistry.sol\":1176:1196  patients[msg.sender] */\n      0x00\n        /* \"contracts/PatientRegistry.sol\":1185:1195  msg.sender */\n      caller\n        /* \"contracts/PatientRegistry.sol\":1176:1196  patients[msg.sender] */\n      0xffffffffffffffffffffffffffffffffffffffff\n      and\n      0xffffffffffffffffffffffffffffffffffffffff\n      and\n      dup2\n      mstore\n      0x20\n      add\n      swap1\n      dup2\n      mstore\n      0x20\n      add\n      0x00\n      keccak256\n        /* \"contracts/PatientRegistry.sol\":1176:1209  patients[msg.sender].isRegistered */\n      0x06\n      add\n      0x00\n      swap1\n      sload\n      swap1\n      0x0100\n      exp\n      swap1\n      div\n      0xff\n      and\n        /* \"contracts/PatientRegistry.sol\":1175:1209  !patients[msg.sender].isRegistered */\n      iszero\n        /* \"contracts/PatientRegistry.sol\":1167:1232  require(!patients[msg.sender].isRegistered, \"Already registered\") */\n      tag_97\n      jumpi\n      mload(0x40)\n      0x08c379a000000000000000000000000000000000000000000000000000000000\n      dup2\n      mstore\n      0x04\n      add\n      tag_98\n      swap1\n      tag_99\n      jump\t// in\n    tag_98:\n      mload(0x40)\n      dup1\n      swap2\n      sub\n      swap1\n      revert\n    tag_97:\n        /* \"contracts/PatientRegistry.sol\":1245:1262  Patient storage p */\n      0x00\n        /* \"contracts/PatientRegistry.sol\":1265:1273  patients */\n      0x02\n        /* \"contracts/PatientRegistry.sol\":1265:1285  patients[msg.sender] */\n      0x00\n        /* \"contracts/PatientRegistry.sol\":1274:1284  msg.sender */\n      caller\n        /* \"contracts/PatientRegistry.sol\":1265:1285  patients[msg.sender] */\n      0xffffffffffffffffffffffffffffffffffffffff\n      and\n      0xffffffffffffffffffffffffffffffffffffffff\n      and\n      dup2\n      mstore\n      0x20\n      add\n      swap1\n      dup2\n      mstore\n      0x20\n      add\n      0x00\n      keccak256\n        /* \"contracts/PatientRegistry.sol\":1245:1285  Patient storage p = patients[msg.sender] */\n      swap1\n      pop\n        /* \"contracts/PatientRegistry.sol\":1305:1310  _name */\n      dup7\n        /* \"contracts/PatientRegistry.sol\":1296:1297  p */\n      dup2\n        /* \"contracts/PatientRegistry.sol\":1296:1302  p.name */\n      0x00\n      add\n        /* \"contracts/PatientRegistry.sol\":1296:1310  p.name = _name */\n      swap1\n      dup2\n      tag_100\n      swap2\n      swap1\n      tag_101\n      jump\t// in\n    tag_100:\n      pop\n        /* \"contracts/PatientRegistry.sol\":1332:1339  _gender */\n      dup6\n        /* \"contracts/PatientRegistry.sol\":1321:1322  p */\n      dup2\n        /* \"contracts/PatientRegistry.sol\":1321:1329  p.gender */\n      0x01\n      add\n        /* \"contracts/PatientRegistry.sol\":1321:1339  p.gender = _gender */\n      swap1\n      dup2\n      tag_102\n      swap2\n      swap1\n      tag_101\n      jump\t// in\n    tag_102:\n      pop\n        /* \"contracts/PatientRegistry.sol\":1366:1378  _dateOfBirth */\n      dup5\n        /* \"contracts/PatientRegistry.sol\":1350:1351  p */\n      dup2\n        /* \"contracts/PatientRegistry.sol\":1350:1363  p.dateOfBirth */\n      0x02\n      add\n        /* \"contracts/PatientRegistry.sol\":1350:1378  p.dateOfBirth = _dateOfBirth */\n      swap1\n      dup2\n      tag_103\n      swap2\n      swap1\n      tag_101\n      jump\t// in\n    tag_103:\n      pop\n        /* \"contracts/PatientRegistry.sol\":1404:1415  _bloodGroup */\n      dup4\n        /* \"contracts/PatientRegistry.sol\":1389:1390  p */\n      dup2\n        /* \"contracts/PatientRegistry.sol\":1389:1401  p.bloodGroup */\n      0x03\n      add\n        /* \"contracts/PatientRegistry.sol\":1389:1415  p.bloodGroup = _bloodGroup */\n      swap1\n      dup2\n      tag_104\n      swap2\n      swap1\n      tag_101\n      jump\t// in\n    tag_104:\n      pop\n        /* \"contracts/PatientRegistry.sol\":1442:1454  _contactInfo */\n      dup3\n        /* \"contracts/PatientRegistry.sol\":1426:1427  p */\n      dup2\n        /* \"contracts/PatientRegistry.sol\":1426:1439  p.contactInfo */\n      0x04\n      add\n        /* \"contracts/PatientRegistry.sol\":1426:1454  p.contactInfo = _contactInfo */\n      swap1\n      dup2\n      tag_105\n      swap2\n      swap1\n      tag_101\n      jump\t// in\n    tag_105:\n      pop\n        /* \"contracts/PatientRegistry.sol\":1481:1493  _homeAddress */\n      dup2\n        /* \"contracts/PatientRegistry.sol\":1465:1466  p */\n      dup2\n        /* \"contracts/PatientRegistry.sol\":1465:1478  p.homeAddress */\n      0x05\n      add\n        /* \"contracts/PatientRegistry.sol\":1465:1493  p.homeAddress = _homeAddress */\n      swap1\n      dup2\n      tag_106\n      swap2\n      swap1\n      tag_101\n      jump\t// in\n    tag_106:\n      pop\n        /* \"contracts/PatientRegistry.sol\":1521:1525  true */\n      0x01\n        /* \"contracts/PatientRegistry.sol\":1504:1505  p */\n      dup2\n        /* \"contracts/PatientRegistry.sol\":1504:1518  p.isRegistered */\n      0x06\n      add\n      0x00\n        /* \"contracts/PatientRegistry.sol\":1504:1525  p.isRegistered = true */\n      0x0100\n      exp\n      dup2\n      sload\n      dup2\n      0xff\n      mul\n      not\n      and\n      swap1\n      dup4\n      iszero\n      iszero\n      mul\n      or\n      swap1\n      sstore\n      pop\n        /* \"contracts/PatientRegistry.sol\":1603:1616  totalPatients */\n      0x00\n      dup1\n        /* \"contracts/PatientRegistry.sol\":1603:1618  totalPatients++ */\n      dup2\n      sload\n      dup1\n      swap3\n      swap2\n      swap1\n      tag_107\n      swap1\n      tag_108\n      jump\t// in\n    tag_107:\n      swap2\n      swap1\n      pop\n      sstore\n      pop\n        /* \"contracts/PatientRegistry.sol\":1662:1688  registeredPatientAddresses */\n      0x03\n        /* \"contracts/PatientRegistry.sol\":1694:1704  msg.sender */\n      caller\n        /* \"contracts/PatientRegistry.sol\":1662:1705  registeredPatientAddresses.push(msg.sender) */\n      swap1\n      dup1\n      0x01\n      dup2\n      sload\n      add\n      dup1\n      dup3\n      sstore\n      dup1\n      swap2\n      pop\n      pop\n      0x01\n      swap1\n      sub\n      swap1\n      0x00\n      mstore\n      keccak256(0x00, 0x20)\n      add\n      0x00\n      swap1\n      swap2\n      swap1\n      swap2\n      swap1\n      swap2\n      0x0100\n      exp\n      dup2\n      sload\n      dup2\n      0xffffffffffffffffffffffffffffffffffffffff\n      mul\n      not\n      and\n      swap1\n      dup4\n      0xffffffffffffffffffffffffffffffffffffffff\n      and\n      mul\n      or\n      swap1\n      sstore\n      pop\n        /* \"contracts/PatientRegistry.sol\":1773:1783  msg.sender */\n      caller\n        /* \"contracts/PatientRegistry.sol\":1755:1791  PatientRegistered(msg.sender, _name) */\n      0xffffffffffffffffffffffffffffffffffffffff\n      and\n      0xc85b128388b9c331a2a5485dce4cd0f3db9f7c279d327ce95d6d39d6c94644c7\n        /* \"contracts/PatientRegistry.sol\":1785:1790  _name */\n      dup9\n        /* \"contracts/PatientRegistry.sol\":1755:1791  PatientRegistered(msg.sender, _name) */\n      mload(0x40)\n      tag_110\n      swap2\n      swap1\n      tag_111\n      jump\t// in\n    tag_110:\n      mload(0x40)\n      dup1\n      swap2\n      sub\n      swap1\n      log2\n        /* \"contracts/PatientRegistry.sol\":1156:1799  {... */\n      pop\n        /* \"contracts/PatientRegistry.sol\":906:1799  function registerPatient(... */\n      pop\n      pop\n      pop\n      pop\n      pop\n      pop\n      jump\t// out\n        /* \"contracts/PatientRegistry.sol\":167:198  uint256 public totalFileRecords */\n    tag_30:\n      sload(0x01)\n      dup2\n      jump\t// out\n        /* \"contracts/PatientRegistry.sol\":2970:3074  function getTotalRecordsCount() public view returns (uint256) {... */\n    tag_34:\n        /* \"contracts/PatientRegistry.sol\":3023:3030  uint256 */\n      0x00\n        /* \"contracts/PatientRegistry.sol\":3050:3066  totalFileRecords */\n      sload(0x01)\n        /* \"contracts/PatientRegistry.sol\":3043:3066  return totalFileRecords */\n      swap1\n      pop\n        /* \"contracts/PatientRegistry.sol\":2970:3074  function getTotalRecordsCount() public view returns (uint256) {... */\n      swap1\n      jump\t// out\n        /* \"contracts/PatientRegistry.sol\":583:626  address[] public registeredPatientAddresses */\n    tag_39:\n      0x03\n      dup2\n      dup2\n      sload\n      dup2\n      lt\n      tag_113\n      jumpi\n      0x00\n      dup1\n      revert\n    tag_113:\n      swap1\n      0x00\n      mstore\n      keccak256(0x00, 0x20)\n      add\n      0x00\n      swap2\n      pop\n      sload\n      swap1\n      0x0100\n      exp\n      swap1\n      div\n      0xffffffffffffffffffffffffffffffffffffffff\n      and\n      dup2\n      jump\t// out\n        /* \"contracts/PatientRegistry.sol\":2168:2306  function getPatientFiles(address _patient) external view returns (string[] memory) {... */\n    tag_44:\n        /* \"contracts/PatientRegistry.sol\":2234:2249  string[] memory */\n      0x60\n        /* \"contracts/PatientRegistry.sol\":2269:2277  patients */\n      0x02\n        /* \"contracts/PatientRegistry.sol\":2269:2287  patients[_patient] */\n      0x00\n        /* \"contracts/PatientRegistry.sol\":2278:2286  _patient */\n      dup4\n        /* \"contracts/PatientRegistry.sol\":2269:2287  patients[_patient] */\n      0xffffffffffffffffffffffffffffffffffffffff\n      and\n      0xffffffffffffffffffffffffffffffffffffffff\n      and\n      dup2\n      mstore\n      0x20\n      add\n      swap1\n      dup2\n      mstore\n      0x20\n      add\n      0x00\n      keccak256\n        /* \"contracts/PatientRegistry.sol\":2269:2298  patients[_patient].fileHashes */\n      0x07\n      add\n        /* \"contracts/PatientRegistry.sol\":2262:2298  return patients[_patient].fileHashes */\n      dup1\n      sload\n      dup1\n      0x20\n      mul\n      0x20\n      add\n      mload(0x40)\n      swap1\n      dup2\n      add\n      0x40\n      mstore\n      dup1\n      swap3\n      swap2\n      swap1\n      dup2\n      dup2\n      mstore\n      0x20\n      add\n      0x00\n      swap1\n    tag_116:\n      dup3\n      dup3\n      lt\n      iszero\n      tag_117\n      jumpi\n      dup4\n      dup3\n      swap1\n      0x00\n      mstore\n      keccak256(0x00, 0x20)\n      add\n      dup1\n      sload\n      tag_119\n      swap1\n      tag_63\n      jump\t// in\n    tag_119:\n      dup1\n      0x1f\n      add\n      0x20\n      dup1\n      swap2\n      div\n      mul\n      0x20\n      add\n      mload(0x40)\n      swap1\n      dup2\n      add\n      0x40\n      mstore\n      dup1\n      swap3\n      swap2\n      swap1\n      dup2\n      dup2\n      mstore\n      0x20\n      add\n      dup3\n      dup1\n      sload\n      tag_120\n      swap1\n      tag_63\n      jump\t// in\n    tag_120:\n      dup1\n      iszero\n      tag_121\n      jumpi\n      dup1\n      0x1f\n      lt\n      tag_122\n      jumpi\n      0x0100\n      dup1\n      dup4\n      sload\n      div\n      mul\n      dup4\n      mstore\n      swap2\n      0x20\n      add\n      swap2\n      jump(tag_121)\n    tag_122:\n      dup3\n      add\n      swap2\n      swap1\n      0x00\n      mstore\n      keccak256(0x00, 0x20)\n      swap1\n    tag_123:\n      dup2\n      sload\n      dup2\n      mstore\n      swap1\n      0x01\n      add\n      swap1\n      0x20\n      add\n      dup1\n      dup4\n      gt\n      tag_123\n      jumpi\n      dup3\n      swap1\n      sub\n      0x1f\n      and\n      dup3\n      add\n      swap2\n    tag_121:\n      pop\n      pop\n      pop\n      pop\n      pop\n      dup2\n      mstore\n      0x20\n      add\n      swap1\n      0x01\n      add\n      swap1\n      jump(tag_116)\n    tag_117:\n      pop\n      pop\n      pop\n      pop\n      swap1\n      pop\n        /* \"contracts/PatientRegistry.sol\":2168:2306  function getPatientFiles(address _patient) external view returns (string[] memory) {... */\n      swap2\n      swap1\n      pop\n      jump\t// out\n        /* \"contracts/PatientRegistry.sol\":132:160  uint256 public totalPatients */\n    tag_48:\n      sload(0x00)\n      dup2\n      jump\t// out\n        /* \"contracts/PatientRegistry.sol\":2860:2962  function getTotalPatientsCount() public view returns (uint256) {... */\n    tag_51:\n        /* \"contracts/PatientRegistry.sol\":2914:2921  uint256 */\n      0x00\n        /* \"contracts/PatientRegistry.sol\":2941:2954  totalPatients */\n      dup1\n      sload\n        /* \"contracts/PatientRegistry.sol\":2934:2954  return totalPatients */\n      swap1\n      pop\n        /* \"contracts/PatientRegistry.sol\":2860:2962  function getTotalPatientsCount() public view returns (uint256) {... */\n      swap1\n      jump\t// out\n        /* \"contracts/PatientRegistry.sol\":1807:2160  function addFileToPatient(address _patient, string memory _fileHash) public {... */\n    tag_56:\n        /* \"contracts/PatientRegistry.sol\":1902:1910  patients */\n      0x02\n        /* \"contracts/PatientRegistry.sol\":1902:1920  patients[_patient] */\n      0x00\n        /* \"contracts/PatientRegistry.sol\":1911:1919  _patient */\n      dup4\n        /* \"contracts/PatientRegistry.sol\":1902:1920  patients[_patient] */\n      0xffffffffffffffffffffffffffffffffffffffff\n      and\n      0xffffffffffffffffffffffffffffffffffffffff\n      and\n      dup2\n      mstore\n      0x20\n      add\n      swap1\n      dup2\n      mstore\n      0x20\n      add\n      0x00\n      keccak256\n        /* \"contracts/PatientRegistry.sol\":1902:1933  patients[_patient].isRegistered */\n      0x06\n      add\n      0x00\n      swap1\n      sload\n      swap1\n      0x0100\n      exp\n      swap1\n      div\n      0xff\n      and\n        /* \"contracts/PatientRegistry.sol\":1894:1952  require(patients[_patient].isRegistered, \"Not registered\") */\n      tag_126\n      jumpi\n      mload(0x40)\n      0x08c379a000000000000000000000000000000000000000000000000000000000\n      dup2\n      mstore\n      0x04\n      add\n      tag_127\n      swap1\n      tag_128\n      jump\t// in\n    tag_127:\n      mload(0x40)\n      dup1\n      swap2\n      sub\n      swap1\n      revert\n    tag_126:\n        /* \"contracts/PatientRegistry.sol\":1963:1971  patients */\n      0x02\n        /* \"contracts/PatientRegistry.sol\":1963:1981  patients[_patient] */\n      0x00\n        /* \"contracts/PatientRegistry.sol\":1972:1980  _patient */\n      dup4\n        /* \"contracts/PatientRegistry.sol\":1963:1981  patients[_patient] */\n      0xffffffffffffffffffffffffffffffffffffffff\n      and\n      0xffffffffffffffffffffffffffffffffffffffff\n      and\n      dup2\n      mstore\n      0x20\n      add\n      swap1\n      dup2\n      mstore\n      0x20\n      add\n      0x00\n      keccak256\n        /* \"contracts/PatientRegistry.sol\":1963:1992  patients[_patient].fileHashes */\n      0x07\n      add\n        /* \"contracts/PatientRegistry.sol\":1998:2007  _fileHash */\n      dup2\n        /* \"contracts/PatientRegistry.sol\":1963:2008  patients[_patient].fileHashes.push(_fileHash) */\n      swap1\n      dup1\n      0x01\n      dup2\n      sload\n      add\n      dup1\n      dup3\n      sstore\n      dup1\n      swap2\n      pop\n      pop\n      0x01\n      swap1\n      sub\n      swap1\n      0x00\n      mstore\n      keccak256(0x00, 0x20)\n      add\n      0x00\n      swap1\n      swap2\n      swap1\n      swap2\n      swap1\n      swap2\n      pop\n      swap1\n      dup2\n      tag_130\n      swap2\n      swap1\n      tag_101\n      jump\t// in\n    tag_130:\n      pop\n        /* \"contracts/PatientRegistry.sol\":2085:2101  totalFileRecords */\n      0x01\n      0x00\n        /* \"contracts/PatientRegistry.sol\":2085:2103  totalFileRecords++ */\n      dup2\n      sload\n      dup1\n      swap3\n      swap2\n      swap1\n      tag_131\n      swap1\n      tag_108\n      jump\t// in\n    tag_131:\n      swap2\n      swap1\n      pop\n      sstore\n      pop\n        /* \"contracts/PatientRegistry.sol\":2132:2140  _patient */\n      dup2\n        /* \"contracts/PatientRegistry.sol\":2122:2152  FileAdded(_patient, _fileHash) */\n      0xffffffffffffffffffffffffffffffffffffffff\n      and\n      0x771ad20575501c8cafc4a8793006515911d6e497fd5838018654c9b50347430c\n        /* \"contracts/PatientRegistry.sol\":2142:2151  _fileHash */\n      dup3\n        /* \"contracts/PatientRegistry.sol\":2122:2152  FileAdded(_patient, _fileHash) */\n      mload(0x40)\n      tag_132\n      swap2\n      swap1\n      tag_111\n      jump\t// in\n    tag_132:\n      mload(0x40)\n      dup1\n      swap2\n      sub\n      swap1\n      log2\n        /* \"contracts/PatientRegistry.sol\":1807:2160  function addFileToPatient(address _patient, string memory _fileHash) public {... */\n      pop\n      pop\n      jump\t// out\n        /* \"contracts/PatientRegistry.sol\":2314:2804  function getPatientDetails(address _patient)... */\n    tag_59:\n        /* \"contracts/PatientRegistry.sol\":2423:2441  string memory name */\n      0x60\n        /* \"contracts/PatientRegistry.sol\":2456:2476  string memory gender */\n      dup1\n        /* \"contracts/PatientRegistry.sol\":2491:2516  string memory dateOfBirth */\n      0x60\n        /* \"contracts/PatientRegistry.sol\":2531:2555  string memory bloodGroup */\n      dup1\n        /* \"contracts/PatientRegistry.sol\":2570:2595  string memory contactInfo */\n      0x60\n        /* \"contracts/PatientRegistry.sol\":2610:2635  string memory homeAddress */\n      dup1\n        /* \"contracts/PatientRegistry.sol\":2663:2680  Patient storage p */\n      0x00\n        /* \"contracts/PatientRegistry.sol\":2683:2691  patients */\n      0x02\n        /* \"contracts/PatientRegistry.sol\":2683:2701  patients[_patient] */\n      0x00\n        /* \"contracts/PatientRegistry.sol\":2692:2700  _patient */\n      dup10\n        /* \"contracts/PatientRegistry.sol\":2683:2701  patients[_patient] */\n      0xffffffffffffffffffffffffffffffffffffffff\n      and\n      0xffffffffffffffffffffffffffffffffffffffff\n      and\n      dup2\n      mstore\n      0x20\n      add\n      swap1\n      dup2\n      mstore\n      0x20\n      add\n      0x00\n      keccak256\n        /* \"contracts/PatientRegistry.sol\":2663:2701  Patient storage p = patients[_patient] */\n      swap1\n      pop\n        /* \"contracts/PatientRegistry.sol\":2720:2721  p */\n      dup1\n        /* \"contracts/PatientRegistry.sol\":2720:2726  p.name */\n      0x00\n      add\n        /* \"contracts/PatientRegistry.sol\":2728:2729  p */\n      dup2\n        /* \"contracts/PatientRegistry.sol\":2728:2736  p.gender */\n      0x01\n      add\n        /* \"contracts/PatientRegistry.sol\":2738:2739  p */\n      dup3\n        /* \"contracts/PatientRegistry.sol\":2738:2751  p.dateOfBirth */\n      0x02\n      add\n        /* \"contracts/PatientRegistry.sol\":2753:2754  p */\n      dup4\n        /* \"contracts/PatientRegistry.sol\":2753:2765  p.bloodGroup */\n      0x03\n      add\n        /* \"contracts/PatientRegistry.sol\":2767:2768  p */\n      dup5\n        /* \"contracts/PatientRegistry.sol\":2767:2780  p.contactInfo */\n      0x04\n      add\n        /* \"contracts/PatientRegistry.sol\":2782:2783  p */\n      dup6\n        /* \"contracts/PatientRegistry.sol\":2782:2795  p.homeAddress */\n      0x05\n      add\n        /* \"contracts/PatientRegistry.sol\":2712:2796  return (p.name, p.gender, p.dateOfBirth, p.bloodGroup, p.contactInfo, p.homeAddress) */\n      dup6\n      dup1\n      sload\n      tag_134\n      swap1\n      tag_63\n      jump\t// in\n    tag_134:\n      dup1\n      0x1f\n      add\n      0x20\n      dup1\n      swap2\n      div\n      mul\n      0x20\n      add\n      mload(0x40)\n      swap1\n      dup2\n      add\n      0x40\n      mstore\n      dup1\n      swap3\n      swap2\n      swap1\n      dup2\n      dup2\n      mstore\n      0x20\n      add\n      dup3\n      dup1\n      sload\n      tag_135\n      swap1\n      tag_63\n      jump\t// in\n    tag_135:\n      dup1\n      iszero\n      tag_136\n      jumpi\n      dup1\n      0x1f\n      lt\n      tag_137\n      jumpi\n      0x0100\n      dup1\n      dup4\n      sload\n      div\n      mul\n      dup4\n      mstore\n      swap2\n      0x20\n      add\n      swap2\n      jump(tag_136)\n    tag_137:\n      dup3\n      add\n      swap2\n      swap1\n      0x00\n      mstore\n      keccak256(0x00, 0x20)\n      swap1\n    tag_138:\n      dup2\n      sload\n      dup2\n      mstore\n      swap1\n      0x01\n      add\n      swap1\n      0x20\n      add\n      dup1\n      dup4\n      gt\n      tag_138\n      jumpi\n      dup3\n      swap1\n      sub\n      0x1f\n      and\n      dup3\n      add\n      swap2\n    tag_136:\n      pop\n      pop\n      pop\n      pop\n      pop\n      swap6\n      pop\n      dup5\n      dup1\n      sload\n      tag_139\n      swap1\n      tag_63\n      jump\t// in\n    tag_139:\n      dup1\n      0x1f\n      add\n      0x20\n      dup1\n      swap2\n      div\n      mul\n      0x20\n      add\n      mload(0x40)\n      swap1\n      dup2\n      add\n      0x40\n      mstore\n      dup1\n      swap3\n      swap2\n      swap1\n      dup2\n      dup2\n      mstore\n      0x20\n      add\n      dup3\n      dup1\n      sload\n      tag_140\n      swap1\n      tag_63\n      jump\t// in\n    tag_140:\n      dup1\n      iszero\n      tag_141\n      jumpi\n      dup1\n      0x1f\n      lt\n      tag_142\n      jumpi\n      0x0100\n      dup1\n      dup4\n      sload\n      div\n      mul\n      dup4\n      mstore\n      swap2\n      0x20\n      add\n      swap2\n      jump(tag_141)\n    tag_142:\n      dup3\n      add\n      swap2\n      swap1\n      0x00\n      mstore\n      keccak256(0x00, 0x20)\n      swap1\n    tag_143:\n      dup2\n      sload\n      dup2\n      mstore\n      swap1\n      0x01\n      add\n      swap1\n      0x20\n      add\n      dup1\n      dup4\n      gt\n      tag_143\n      jumpi\n      dup3\n      swap1\n      sub\n      0x1f\n      and\n      dup3\n      add\n      swap2\n    tag_141:\n      pop\n      pop\n      pop\n      pop\n      pop\n      swap5\n      pop\n      dup4\n      dup1\n      sload\n      tag_144\n      swap1\n      tag_63\n      jump\t// in\n    tag_144:\n      dup1\n      0x1f\n      add\n      0x20\n      dup1\n      swap2\n      div\n      mul\n      0x20\n      add\n      mload(0x40)\n      swap1\n      dup2\n      add\n      0x40\n      mstore\n      dup1\n      swap3\n      swap2\n      swap1\n      dup2\n      dup2\n      mstore\n      0x20\n      add\n      dup3\n      dup1\n      sload\n      tag_145\n      swap1\n      tag_63\n      jump\t// in\n    tag_145:\n      dup1\n      iszero\n      tag_146\n      jumpi\n      dup1\n      0x1f\n      lt\n      tag_147\n      jumpi\n      0x0100\n      dup1\n      dup4\n      sload\n      div\n      mul\n      dup4\n      mstore\n      swap2\n      0x20\n      add\n      swap2\n      jump(tag_146)\n    tag_147:\n      dup3\n      add\n      swap2\n      swap1\n      0x00\n      mstore\n      keccak256(0x00, 0x20)\n      swap1\n    tag_148:\n      dup2\n      sload\n      dup2\n      mstore\n      swap1\n      0x01\n      add\n      swap1\n      0x20\n      add\n      dup1\n      dup4\n      gt\n      tag_148\n      jumpi\n      dup3\n      swap1\n      sub\n      0x1f\n      and\n      dup3\n      add\n      swap2\n    tag_146:\n      pop\n      pop\n      pop\n      pop\n      pop\n      swap4\n      pop\n      dup3\n      dup1\n      sload\n      tag_149\n      swap1\n      tag_63\n      jump\t// in\n    tag_149:\n      dup1\n      0x1f\n      add\n      0x20\n      dup1\n      swap2\n      div\n      mul\n      0x20\n      add\n      mload(0x40)\n      swap1\n      dup2\n      add\n      0x40\n      mstore\n      dup1\n      swap3\n      swap2\n      swap1\n      dup2\n      dup2\n      mstore\n      0x20\n      add\n      dup3\n      dup1\n      sload\n      tag_150\n      swap1\n      tag_63\n      jump\t// in\n    tag_150:\n      dup1\n      iszero\n      tag_151\n      jumpi\n      dup1\n      0x1f\n      lt\n      tag_152\n      jumpi\n      0x0100\n      dup1\n      dup4\n      sload\n      div\n      mul\n      dup4\n      mstore\n      swap2\n      0x20\n      add\n      swap2\n      jump(tag_151)\n    tag_152:\n      dup3\n      add\n      swap2\n      swap1\n      0x00\n      mstore\n      keccak256(0x00, 0x20)\n      swap1\n    tag_153:\n      dup2\n      sload\n      dup2\n      mstore\n      swap1\n      0x01\n      add\n      swap1\n      0x20\n      add\n      dup1\n      dup4\n      gt\n      tag_153\n      jumpi\n      dup3\n      swap1\n      sub\n      0x1f\n      and\n      dup3\n      add\n      swap2\n    tag_151:\n      pop\n      pop\n      pop\n      pop\n      pop\n      swap3\n      pop\n      dup2\n      dup1\n      sload\n      tag_154\n      swap1\n      tag_63\n      jump\t// in\n    tag_154:\n      dup1\n      0x1f\n      add\n      0x20\n      dup1\n      swap2\n      div\n      mul\n      0x20\n      add\n      mload(0x40)\n      swap1\n      dup2\n      add\n      0x40\n      mstore\n      dup1\n      swap3\n      swap2\n      swap1\n      dup2\n      dup2\n      mstore\n      0x20\n      add\n      dup3\n      dup1\n      sload\n      tag_155\n      swap1\n      tag_63\n      jump\t// in\n    tag_155:\n      dup1\n      iszero\n      tag_156\n      jumpi\n      dup1\n      0x1f\n      lt\n      tag_157\n      jumpi\n      0x0100\n      dup1\n      dup4\n      sload\n      div\n      mul\n      dup4\n      mstore\n      swap2\n      0x20\n      add\n      swap2\n      jump(tag_156)\n    tag_157:\n      dup3\n      add\n      swap2\n      swap1\n      0x00\n      mstore\n      keccak256(0x00, 0x20)\n      swap1\n    tag_158:\n      dup2\n      sload\n      dup2\n      mstore\n      swap1\n      0x01\n      add\n      swap1\n      0x20\n      add\n      dup1\n      dup4\n      gt\n      tag_158\n      jumpi\n      dup3\n      swap1\n      sub\n      0x1f\n      and\n      dup3\n      add\n      swap2\n    tag_156:\n      pop\n      pop\n      pop\n      pop\n      pop\n      swap2\n      pop\n      dup1\n      dup1\n      sload\n      tag_159\n      swap1\n      tag_63\n      jump\t// in\n    tag_159:\n      dup1\n      0x1f\n      add\n      0x20\n      dup1\n      swap2\n      div\n      mul\n      0x20\n      add\n      mload(0x40)\n      swap1\n      dup2\n      add\n      0x40\n      mstore\n      dup1\n      swap3\n      swap2\n      swap1\n      dup2\n      dup2\n      mstore\n      0x20\n      add\n      dup3\n      dup1\n      sload\n      tag_160\n      swap1\n      tag_63\n      jump\t// in\n    tag_160:\n      dup1\n      iszero\n      tag_161\n      jumpi\n      dup1\n      0x1f\n      lt\n      tag_162\n      jumpi\n      0x0100\n      dup1\n      dup4\n      sload\n      div\n      mul\n      dup4\n      mstore\n      swap2\n      0x20\n      add\n      swap2\n      jump(tag_161)\n    tag_162:\n      dup3\n      add\n      swap2\n      swap1\n      0x00\n      mstore\n      keccak256(0x00, 0x20)\n      swap1\n    tag_163:\n      dup2\n      sload\n      dup2\n      mstore\n      swap1\n      0x01\n      add\n      swap1\n      0x20\n      add\n      dup1\n      dup4\n      gt\n      tag_163\n      jumpi\n      dup3\n      swap1\n      sub\n      0x1f\n      and\n      dup3\n      add\n      swap2\n    tag_161:\n      pop\n      pop\n      pop\n      pop\n      pop\n      swap1\n      pop\n      swap7\n      pop\n      swap7\n      pop\n      swap7\n      pop\n      swap7\n      pop\n      swap7\n      pop\n      swap7\n      pop\n      pop\n        /* \"contracts/PatientRegistry.sol\":2314:2804  function getPatientDetails(address _patient)... */\n      swap2\n      swap4\n      swap6\n      pop\n      swap2\n      swap4\n      swap6\n      jump\t// out\n        /* \"#utility.yul\":7:82   */\n    tag_164:\n        /* \"#utility.yul\":40:46   */\n      0x00\n        /* \"#utility.yul\":73:75   */\n      0x40\n        /* \"#utility.yul\":67:76   */\n      mload\n        /* \"#utility.yul\":57:76   */\n      swap1\n      pop\n        /* \"#utility.yul\":7:82   */\n      swap1\n      jump\t// out\n        /* \"#utility.yul\":88:205   */\n    tag_165:\n        /* \"#utility.yul\":197:198   */\n      0x00\n        /* \"#utility.yul\":194:195   */\n      dup1\n        /* \"#utility.yul\":187:199   */\n      revert\n        /* \"#utility.yul\":211:328   */\n    tag_166:\n        /* \"#utility.yul\":320:321   */\n      0x00\n        /* \"#utility.yul\":317:318   */\n      dup1\n        /* \"#utility.yul\":310:322   */\n      revert\n        /* \"#utility.yul\":334:460   */\n    tag_167:\n        /* \"#utility.yul\":371:378   */\n      0x00\n        /* \"#utility.yul\":411:453   */\n      0xffffffffffffffffffffffffffffffffffffffff\n        /* \"#utility.yul\":404:409   */\n      dup3\n        /* \"#utility.yul\":400:454   */\n      and\n        /* \"#utility.yul\":389:454   */\n      swap1\n      pop\n        /* \"#utility.yul\":334:460   */\n      swap2\n      swap1\n      pop\n      jump\t// out\n        /* \"#utility.yul\":466:562   */\n    tag_168:\n        /* \"#utility.yul\":503:510   */\n      0x00\n        /* \"#utility.yul\":532:556   */\n      tag_234\n        /* \"#utility.yul\":550:555   */\n      dup3\n        /* \"#utility.yul\":532:556   */\n      tag_167\n      jump\t// in\n    tag_234:\n        /* \"#utility.yul\":521:556   */\n      swap1\n      pop\n        /* \"#utility.yul\":466:562   */\n      swap2\n      swap1\n      pop\n      jump\t// out\n        /* \"#utility.yul\":568:690   */\n    tag_169:\n        /* \"#utility.yul\":641:665   */\n      tag_236\n        /* \"#utility.yul\":659:664   */\n      dup2\n        /* \"#utility.yul\":641:665   */\n      tag_168\n      jump\t// in\n    tag_236:\n        /* \"#utility.yul\":634:639   */\n      dup2\n        /* \"#utility.yul\":631:666   */\n      eq\n        /* \"#utility.yul\":621:684   */\n      tag_237\n      jumpi\n        /* \"#utility.yul\":680:681   */\n      0x00\n        /* \"#utility.yul\":677:678   */\n      dup1\n        /* \"#utility.yul\":670:682   */\n      revert\n        /* \"#utility.yul\":621:684   */\n    tag_237:\n        /* \"#utility.yul\":568:690   */\n      pop\n      jump\t// out\n        /* \"#utility.yul\":696:835   */\n    tag_170:\n        /* \"#utility.yul\":742:747   */\n      0x00\n        /* \"#utility.yul\":780:786   */\n      dup2\n        /* \"#utility.yul\":767:787   */\n      calldataload\n        /* \"#utility.yul\":758:787   */\n      swap1\n      pop\n        /* \"#utility.yul\":796:829   */\n      tag_239\n        /* \"#utility.yul\":823:828   */\n      dup2\n        /* \"#utility.yul\":796:829   */\n      tag_169\n      jump\t// in\n    tag_239:\n        /* \"#utility.yul\":696:835   */\n      swap3\n      swap2\n      pop\n      pop\n      jump\t// out\n        /* \"#utility.yul\":841:1170   */\n    tag_17:\n        /* \"#utility.yul\":900:906   */\n      0x00\n        /* \"#utility.yul\":949:951   */\n      0x20\n        /* \"#utility.yul\":937:946   */\n      dup3\n        /* \"#utility.yul\":928:935   */\n      dup5\n        /* \"#utility.yul\":924:947   */\n      sub\n        /* \"#utility.yul\":920:952   */\n      slt\n        /* \"#utility.yul\":917:1036   */\n      iszero\n      tag_241\n      jumpi\n        /* \"#utility.yul\":955:1034   */\n      tag_242\n      tag_165\n      jump\t// in\n    tag_242:\n        /* \"#utility.yul\":917:1036   */\n    tag_241:\n        /* \"#utility.yul\":1075:1076   */\n      0x00\n        /* \"#utility.yul\":1100:1153   */\n      tag_243\n        /* \"#utility.yul\":1145:1152   */\n      dup5\n        /* \"#utility.yul\":1136:1142   */\n      dup3\n        /* \"#utility.yul\":1125:1134   */\n      dup6\n        /* \"#utility.yul\":1121:1143   */\n      add\n        /* \"#utility.yul\":1100:1153   */\n      tag_170\n      jump\t// in\n    tag_243:\n        /* \"#utility.yul\":1090:1153   */\n      swap2\n      pop\n        /* \"#utility.yul\":1046:1163   */\n      pop\n        /* \"#utility.yul\":841:1170   */\n      swap3\n      swap2\n      pop\n      pop\n      jump\t// out\n        /* \"#utility.yul\":1176:1275   */\n    tag_171:\n        /* \"#utility.yul\":1228:1234   */\n      0x00\n        /* \"#utility.yul\":1262:1267   */\n      dup2\n        /* \"#utility.yul\":1256:1268   */\n      mload\n        /* \"#utility.yul\":1246:1268   */\n      swap1\n      pop\n        /* \"#utility.yul\":1176:1275   */\n      swap2\n      swap1\n      pop\n      jump\t// out\n        /* \"#utility.yul\":1281:1450   */\n    tag_172:\n        /* \"#utility.yul\":1365:1376   */\n      0x00\n        /* \"#utility.yul\":1399:1405   */\n      dup3\n        /* \"#utility.yul\":1394:1397   */\n      dup3\n        /* \"#utility.yul\":1387:1406   */\n      mstore\n        /* \"#utility.yul\":1439:1443   */\n      0x20\n        /* \"#utility.yul\":1434:1437   */\n      dup3\n        /* \"#utility.yul\":1430:1444   */\n      add\n        /* \"#utility.yul\":1415:1444   */\n      swap1\n      pop\n        /* \"#utility.yul\":1281:1450   */\n      swap3\n      swap2\n      pop\n      pop\n      jump\t// out\n        /* \"#utility.yul\":1456:1704   */\n    tag_173:\n        /* \"#utility.yul\":1538:1539   */\n      0x00\n        /* \"#utility.yul\":1548:1661   */\n    tag_247:\n        /* \"#utility.yul\":1562:1568   */\n      dup4\n        /* \"#utility.yul\":1559:1560   */\n      dup2\n        /* \"#utility.yul\":1556:1569   */\n      lt\n        /* \"#utility.yul\":1548:1661   */\n      iszero\n      tag_249\n      jumpi\n        /* \"#utility.yul\":1647:1648   */\n      dup1\n        /* \"#utility.yul\":1642:1645   */\n      dup3\n        /* \"#utility.yul\":1638:1649   */\n      add\n        /* \"#utility.yul\":1632:1650   */\n      mload\n        /* \"#utility.yul\":1628:1629   */\n      dup2\n        /* \"#utility.yul\":1623:1626   */\n      dup5\n        /* \"#utility.yul\":1619:1630   */\n      add\n        /* \"#utility.yul\":1612:1651   */\n      mstore\n        /* \"#utility.yul\":1584:1586   */\n      0x20\n        /* \"#utility.yul\":1581:1582   */\n      dup2\n        /* \"#utility.yul\":1577:1587   */\n      add\n        /* \"#utility.yul\":1572:1587   */\n      swap1\n      pop\n        /* \"#utility.yul\":1548:1661   */\n      jump(tag_247)\n    tag_249:\n        /* \"#utility.yul\":1695:1696   */\n      0x00\n        /* \"#utility.yul\":1686:1692   */\n      dup5\n        /* \"#utility.yul\":1681:1684   */\n      dup5\n        /* \"#utility.yul\":1677:1693   */\n      add\n        /* \"#utility.yul\":1670:1697   */\n      mstore\n        /* \"#utility.yul\":1518:1704   */\n      pop\n        /* \"#utility.yul\":1456:1704   */\n      pop\n      pop\n      pop\n      jump\t// out\n        /* \"#utility.yul\":1710:1812   */\n    tag_174:\n        /* \"#utility.yul\":1751:1757   */\n      0x00\n        /* \"#utility.yul\":1802:1804   */\n      0x1f\n        /* \"#utility.yul\":1798:1805   */\n      not\n        /* \"#utility.yul\":1793:1795   */\n      0x1f\n        /* \"#utility.yul\":1786:1791   */\n      dup4\n        /* \"#utility.yul\":1782:1796   */\n      add\n        /* \"#utility.yul\":1778:1806   */\n      and\n        /* \"#utility.yul\":1768:1806   */\n      swap1\n      pop\n        /* \"#utility.yul\":1710:1812   */\n      swap2\n      swap1\n      pop\n      jump\t// out\n        /* \"#utility.yul\":1818:2195   */\n    tag_175:\n        /* \"#utility.yul\":1906:1909   */\n      0x00\n        /* \"#utility.yul\":1934:1973   */\n      tag_252\n        /* \"#utility.yul\":1967:1972   */\n      dup3\n        /* \"#utility.yul\":1934:1973   */\n      tag_171\n      jump\t// in\n    tag_252:\n        /* \"#utility.yul\":1989:2060   */\n      tag_253\n        /* \"#utility.yul\":2053:2059   */\n      dup2\n        /* \"#utility.yul\":2048:2051   */\n      dup6\n        /* \"#utility.yul\":1989:2060   */\n      tag_172\n      jump\t// in\n    tag_253:\n        /* \"#utility.yul\":1982:2060   */\n      swap4\n      pop\n        /* \"#utility.yul\":2069:2134   */\n      tag_254\n        /* \"#utility.yul\":2127:2133   */\n      dup2\n        /* \"#utility.yul\":2122:2125   */\n      dup6\n        /* \"#utility.yul\":2115:2119   */\n      0x20\n        /* \"#utility.yul\":2108:2113   */\n      dup7\n        /* \"#utility.yul\":2104:2120   */\n      add\n        /* \"#utility.yul\":2069:2134   */\n      tag_173\n      jump\t// in\n    tag_254:\n        /* \"#utility.yul\":2159:2188   */\n      tag_255\n        /* \"#utility.yul\":2181:2187   */\n      dup2\n        /* \"#utility.yul\":2159:2188   */\n      tag_174\n      jump\t// in\n    tag_255:\n        /* \"#utility.yul\":2154:2157   */\n      dup5\n        /* \"#utility.yul\":2150:2189   */\n      add\n        /* \"#utility.yul\":2143:2189   */\n      swap2\n      pop\n        /* \"#utility.yul\":1910:2195   */\n      pop\n        /* \"#utility.yul\":1818:2195   */\n      swap3\n      swap2\n      pop\n      pop\n      jump\t// out\n        /* \"#utility.yul\":2201:2291   */\n    tag_176:\n        /* \"#utility.yul\":2235:2242   */\n      0x00\n        /* \"#utility.yul\":2278:2283   */\n      dup2\n        /* \"#utility.yul\":2271:2284   */\n      iszero\n        /* \"#utility.yul\":2264:2285   */\n      iszero\n        /* \"#utility.yul\":2253:2285   */\n      swap1\n      pop\n        /* \"#utility.yul\":2201:2291   */\n      swap2\n      swap1\n      pop\n      jump\t// out\n        /* \"#utility.yul\":2297:2406   */\n    tag_177:\n        /* \"#utility.yul\":2378:2399   */\n      tag_258\n        /* \"#utility.yul\":2393:2398   */\n      dup2\n        /* \"#utility.yul\":2378:2399   */\n      tag_176\n      jump\t// in\n    tag_258:\n        /* \"#utility.yul\":2373:2376   */\n      dup3\n        /* \"#utility.yul\":2366:2400   */\n      mstore\n        /* \"#utility.yul\":2297:2406   */\n      pop\n      pop\n      jump\t// out\n        /* \"#utility.yul\":2412:3832   */\n    tag_20:\n        /* \"#utility.yul\":2787:2791   */\n      0x00\n        /* \"#utility.yul\":2825:2828   */\n      0xe0\n        /* \"#utility.yul\":2814:2823   */\n      dup3\n        /* \"#utility.yul\":2810:2829   */\n      add\n        /* \"#utility.yul\":2802:2829   */\n      swap1\n      pop\n        /* \"#utility.yul\":2875:2884   */\n      dup2\n        /* \"#utility.yul\":2869:2873   */\n      dup2\n        /* \"#utility.yul\":2865:2885   */\n      sub\n        /* \"#utility.yul\":2861:2862   */\n      0x00\n        /* \"#utility.yul\":2850:2859   */\n      dup4\n        /* \"#utility.yul\":2846:2863   */\n      add\n        /* \"#utility.yul\":2839:2886   */\n      mstore\n        /* \"#utility.yul\":2903:2981   */\n      tag_260\n        /* \"#utility.yul\":2976:2980   */\n      dup2\n        /* \"#utility.yul\":2967:2973   */\n      dup11\n        /* \"#utility.yul\":2903:2981   */\n      tag_175\n      jump\t// in\n    tag_260:\n        /* \"#utility.yul\":2895:2981   */\n      swap1\n      pop\n        /* \"#utility.yul\":3028:3037   */\n      dup2\n        /* \"#utility.yul\":3022:3026   */\n      dup2\n        /* \"#utility.yul\":3018:3038   */\n      sub\n        /* \"#utility.yul\":3013:3015   */\n      0x20\n        /* \"#utility.yul\":3002:3011   */\n      dup4\n        /* \"#utility.yul\":2998:3016   */\n      add\n        /* \"#utility.yul\":2991:3039   */\n      mstore\n        /* \"#utility.yul\":3056:3134   */\n      tag_261\n        /* \"#utility.yul\":3129:3133   */\n      dup2\n        /* \"#utility.yul\":3120:3126   */\n      dup10\n        /* \"#utility.yul\":3056:3134   */\n      tag_175\n      jump\t// in\n    tag_261:\n        /* \"#utility.yul\":3048:3134   */\n      swap1\n      pop\n        /* \"#utility.yul\":3181:3190   */\n      dup2\n        /* \"#utility.yul\":3175:3179   */\n      dup2\n        /* \"#utility.yul\":3171:3191   */\n      sub\n        /* \"#utility.yul\":3166:3168   */\n      0x40\n        /* \"#utility.yul\":3155:3164   */\n      dup4\n        /* \"#utility.yul\":3151:3169   */\n      add\n        /* \"#utility.yul\":3144:3192   */\n      mstore\n        /* \"#utility.yul\":3209:3287   */\n      tag_262\n        /* \"#utility.yul\":3282:3286   */\n      dup2\n        /* \"#utility.yul\":3273:3279   */\n      dup9\n        /* \"#utility.yul\":3209:3287   */\n      tag_175\n      jump\t// in\n    tag_262:\n        /* \"#utility.yul\":3201:3287   */\n      swap1\n      pop\n        /* \"#utility.yul\":3334:3343   */\n      dup2\n        /* \"#utility.yul\":3328:3332   */\n      dup2\n        /* \"#utility.yul\":3324:3344   */\n      sub\n        /* \"#utility.yul\":3319:3321   */\n      0x60\n        /* \"#utility.yul\":3308:3317   */\n      dup4\n        /* \"#utility.yul\":3304:3322   */\n      add\n        /* \"#utility.yul\":3297:3345   */\n      mstore\n        /* \"#utility.yul\":3362:3440   */\n      tag_263\n        /* \"#utility.yul\":3435:3439   */\n      dup2\n        /* \"#utility.yul\":3426:3432   */\n      dup8\n        /* \"#utility.yul\":3362:3440   */\n      tag_175\n      jump\t// in\n    tag_263:\n        /* \"#utility.yul\":3354:3440   */\n      swap1\n      pop\n        /* \"#utility.yul\":3488:3497   */\n      dup2\n        /* \"#utility.yul\":3482:3486   */\n      dup2\n        /* \"#utility.yul\":3478:3498   */\n      sub\n        /* \"#utility.yul\":3472:3475   */\n      0x80\n        /* \"#utility.yul\":3461:3470   */\n      dup4\n        /* \"#utility.yul\":3457:3476   */\n      add\n        /* \"#utility.yul\":3450:3499   */\n      mstore\n        /* \"#utility.yul\":3516:3594   */\n      tag_264\n        /* \"#utility.yul\":3589:3593   */\n      dup2\n        /* \"#utility.yul\":3580:3586   */\n      dup7\n        /* \"#utility.yul\":3516:3594   */\n      tag_175\n      jump\t// in\n    tag_264:\n        /* \"#utility.yul\":3508:3594   */\n      swap1\n      pop\n        /* \"#utility.yul\":3642:3651   */\n      dup2\n        /* \"#utility.yul\":3636:3640   */\n      dup2\n        /* \"#utility.yul\":3632:3652   */\n      sub\n        /* \"#utility.yul\":3626:3629   */\n      0xa0\n        /* \"#utility.yul\":3615:3624   */\n      dup4\n        /* \"#utility.yul\":3611:3630   */\n      add\n        /* \"#utility.yul\":3604:3653   */\n      mstore\n        /* \"#utility.yul\":3670:3748   */\n      tag_265\n        /* \"#utility.yul\":3743:3747   */\n      dup2\n        /* \"#utility.yul\":3734:3740   */\n      dup6\n        /* \"#utility.yul\":3670:3748   */\n      tag_175\n      jump\t// in\n    tag_265:\n        /* \"#utility.yul\":3662:3748   */\n      swap1\n      pop\n        /* \"#utility.yul\":3758:3825   */\n      tag_266\n        /* \"#utility.yul\":3820:3823   */\n      0xc0\n        /* \"#utility.yul\":3809:3818   */\n      dup4\n        /* \"#utility.yul\":3805:3824   */\n      add\n        /* \"#utility.yul\":3796:3802   */\n      dup5\n        /* \"#utility.yul\":3758:3825   */\n      tag_177\n      jump\t// in\n    tag_266:\n        /* \"#utility.yul\":2412:3832   */\n      swap9\n      swap8\n      pop\n      pop\n      pop\n      pop\n      pop\n      pop\n      pop\n      pop\n      jump\t// out\n        /* \"#utility.yul\":3838:3952   */\n    tag_178:\n        /* \"#utility.yul\":3905:3911   */\n      0x00\n        /* \"#utility.yul\":3939:3944   */\n      dup2\n        /* \"#utility.yul\":3933:3945   */\n      mload\n        /* \"#utility.yul\":3923:3945   */\n      swap1\n      pop\n        /* \"#utility.yul\":3838:3952   */\n      swap2\n      swap1\n      pop\n      jump\t// out\n        /* \"#utility.yul\":3958:4142   */\n    tag_179:\n        /* \"#utility.yul\":4057:4068   */\n      0x00\n        /* \"#utility.yul\":4091:4097   */\n      dup3\n        /* \"#utility.yul\":4086:4089   */\n      dup3\n        /* \"#utility.yul\":4079:4098   */\n      mstore\n        /* \"#utility.yul\":4131:4135   */\n      0x20\n        /* \"#utility.yul\":4126:4129   */\n      dup3\n        /* \"#utility.yul\":4122:4136   */\n      add\n        /* \"#utility.yul\":4107:4136   */\n      swap1\n      pop\n        /* \"#utility.yul\":3958:4142   */\n      swap3\n      swap2\n      pop\n      pop\n      jump\t// out\n        /* \"#utility.yul\":4148:4280   */\n    tag_180:\n        /* \"#utility.yul\":4215:4219   */\n      0x00\n        /* \"#utility.yul\":4238:4241   */\n      dup2\n        /* \"#utility.yul\":4230:4241   */\n      swap1\n      pop\n        /* \"#utility.yul\":4268:4272   */\n      0x20\n        /* \"#utility.yul\":4263:4266   */\n      dup3\n        /* \"#utility.yul\":4259:4273   */\n      add\n        /* \"#utility.yul\":4251:4273   */\n      swap1\n      pop\n        /* \"#utility.yul\":4148:4280   */\n      swap2\n      swap1\n      pop\n      jump\t// out\n        /* \"#utility.yul\":4286:4394   */\n    tag_181:\n        /* \"#utility.yul\":4363:4387   */\n      tag_271\n        /* \"#utility.yul\":4381:4386   */\n      dup2\n        /* \"#utility.yul\":4363:4387   */\n      tag_168\n      jump\t// in\n    tag_271:\n        /* \"#utility.yul\":4358:4361   */\n      dup3\n        /* \"#utility.yul\":4351:4388   */\n      mstore\n        /* \"#utility.yul\":4286:4394   */\n      pop\n      pop\n      jump\t// out\n        /* \"#utility.yul\":4400:4579   */\n    tag_182:\n        /* \"#utility.yul\":4469:4479   */\n      0x00\n        /* \"#utility.yul\":4490:4536   */\n      tag_273\n        /* \"#utility.yul\":4532:4535   */\n      dup4\n        /* \"#utility.yul\":4524:4530   */\n      dup4\n        /* \"#utility.yul\":4490:4536   */\n      tag_181\n      jump\t// in\n    tag_273:\n        /* \"#utility.yul\":4568:4572   */\n      0x20\n        /* \"#utility.yul\":4563:4566   */\n      dup4\n        /* \"#utility.yul\":4559:4573   */\n      add\n        /* \"#utility.yul\":4545:4573   */\n      swap1\n      pop\n        /* \"#utility.yul\":4400:4579   */\n      swap3\n      swap2\n      pop\n      pop\n      jump\t// out\n        /* \"#utility.yul\":4585:4698   */\n    tag_183:\n        /* \"#utility.yul\":4655:4659   */\n      0x00\n        /* \"#utility.yul\":4687:4691   */\n      0x20\n        /* \"#utility.yul\":4682:4685   */\n      dup3\n        /* \"#utility.yul\":4678:4692   */\n      add\n        /* \"#utility.yul\":4670:4692   */\n      swap1\n      pop\n        /* \"#utility.yul\":4585:4698   */\n      swap2\n      swap1\n      pop\n      jump\t// out\n        /* \"#utility.yul\":4734:5466   */\n    tag_184:\n        /* \"#utility.yul\":4853:4856   */\n      0x00\n        /* \"#utility.yul\":4882:4936   */\n      tag_276\n        /* \"#utility.yul\":4930:4935   */\n      dup3\n        /* \"#utility.yul\":4882:4936   */\n      tag_178\n      jump\t// in\n    tag_276:\n        /* \"#utility.yul\":4952:5038   */\n      tag_277\n        /* \"#utility.yul\":5031:5037   */\n      dup2\n        /* \"#utility.yul\":5026:5029   */\n      dup6\n        /* \"#utility.yul\":4952:5038   */\n      tag_179\n      jump\t// in\n    tag_277:\n        /* \"#utility.yul\":4945:5038   */\n      swap4\n      pop\n        /* \"#utility.yul\":5062:5118   */\n      tag_278\n        /* \"#utility.yul\":5112:5117   */\n      dup4\n        /* \"#utility.yul\":5062:5118   */\n      tag_180\n      jump\t// in\n    tag_278:\n        /* \"#utility.yul\":5141:5148   */\n      dup1\n        /* \"#utility.yul\":5172:5173   */\n      0x00\n        /* \"#utility.yul\":5157:5441   */\n    tag_279:\n        /* \"#utility.yul\":5182:5188   */\n      dup4\n        /* \"#utility.yul\":5179:5180   */\n      dup2\n        /* \"#utility.yul\":5176:5189   */\n      lt\n        /* \"#utility.yul\":5157:5441   */\n      iszero\n      tag_281\n      jumpi\n        /* \"#utility.yul\":5258:5264   */\n      dup2\n        /* \"#utility.yul\":5252:5265   */\n      mload\n        /* \"#utility.yul\":5285:5348   */\n      tag_282\n        /* \"#utility.yul\":5344:5347   */\n      dup9\n        /* \"#utility.yul\":5329:5342   */\n      dup3\n        /* \"#utility.yul\":5285:5348   */\n      tag_182\n      jump\t// in\n    tag_282:\n        /* \"#utility.yul\":5278:5348   */\n      swap8\n      pop\n        /* \"#utility.yul\":5371:5431   */\n      tag_283\n        /* \"#utility.yul\":5424:5430   */\n      dup4\n        /* \"#utility.yul\":5371:5431   */\n      tag_183\n      jump\t// in\n    tag_283:\n        /* \"#utility.yul\":5361:5431   */\n      swap3\n      pop\n        /* \"#utility.yul\":5217:5441   */\n      pop\n        /* \"#utility.yul\":5204:5205   */\n      0x01\n        /* \"#utility.yul\":5201:5202   */\n      dup2\n        /* \"#utility.yul\":5197:5206   */\n      add\n        /* \"#utility.yul\":5192:5206   */\n      swap1\n      pop\n        /* \"#utility.yul\":5157:5441   */\n      jump(tag_279)\n    tag_281:\n        /* \"#utility.yul\":5161:5175   */\n      pop\n        /* \"#utility.yul\":5457:5460   */\n      dup6\n        /* \"#utility.yul\":5450:5460   */\n      swap4\n      pop\n        /* \"#utility.yul\":4858:5466   */\n      pop\n      pop\n      pop\n        /* \"#utility.yul\":4734:5466   */\n      swap3\n      swap2\n      pop\n      pop\n      jump\t// out\n        /* \"#utility.yul\":5472:5845   */\n    tag_24:\n        /* \"#utility.yul\":5615:5619   */\n      0x00\n        /* \"#utility.yul\":5653:5655   */\n      0x20\n        /* \"#utility.yul\":5642:5651   */\n      dup3\n        /* \"#utility.yul\":5638:5656   */\n      add\n        /* \"#utility.yul\":5630:5656   */\n      swap1\n      pop\n        /* \"#utility.yul\":5702:5711   */\n      dup2\n        /* \"#utility.yul\":5696:5700   */\n      dup2\n        /* \"#utility.yul\":5692:5712   */\n      sub\n        /* \"#utility.yul\":5688:5689   */\n      0x00\n        /* \"#utility.yul\":5677:5686   */\n      dup4\n        /* \"#utility.yul\":5673:5690   */\n      add\n        /* \"#utility.yul\":5666:5713   */\n      mstore\n        /* \"#utility.yul\":5730:5838   */\n      tag_285\n        /* \"#utility.yul\":5833:5837   */\n      dup2\n        /* \"#utility.yul\":5824:5830   */\n      dup5\n        /* \"#utility.yul\":5730:5838   */\n      tag_184\n      jump\t// in\n    tag_285:\n        /* \"#utility.yul\":5722:5838   */\n      swap1\n      pop\n        /* \"#utility.yul\":5472:5845   */\n      swap3\n      swap2\n      pop\n      pop\n      jump\t// out\n        /* \"#utility.yul\":5851:5968   */\n    tag_185:\n        /* \"#utility.yul\":5960:5961   */\n      0x00\n        /* \"#utility.yul\":5957:5958   */\n      dup1\n        /* \"#utility.yul\":5950:5962   */\n      revert\n        /* \"#utility.yul\":5974:6091   */\n    tag_186:\n        /* \"#utility.yul\":6083:6084   */\n      0x00\n        /* \"#utility.yul\":6080:6081   */\n      dup1\n        /* \"#utility.yul\":6073:6085   */\n      revert\n        /* \"#utility.yul\":6097:6277   */\n    tag_187:\n        /* \"#utility.yul\":6145:6222   */\n      0x4e487b7100000000000000000000000000000000000000000000000000000000\n        /* \"#utility.yul\":6142:6143   */\n      0x00\n        /* \"#utility.yul\":6135:6223   */\n      mstore\n        /* \"#utility.yul\":6242:6246   */\n      0x41\n        /* \"#utility.yul\":6239:6240   */\n      0x04\n        /* \"#utility.yul\":6232:6247   */\n      mstore\n        /* \"#utility.yul\":6266:6270   */\n      0x24\n        /* \"#utility.yul\":6263:6264   */\n      0x00\n        /* \"#utility.yul\":6256:6271   */\n      revert\n        /* \"#utility.yul\":6283:6564   */\n    tag_188:\n        /* \"#utility.yul\":6366:6393   */\n      tag_290\n        /* \"#utility.yul\":6388:6392   */\n      dup3\n        /* \"#utility.yul\":6366:6393   */\n      tag_174\n      jump\t// in\n    tag_290:\n        /* \"#utility.yul\":6358:6364   */\n      dup2\n        /* \"#utility.yul\":6354:6394   */\n      add\n        /* \"#utility.yul\":6496:6502   */\n      dup2\n        /* \"#utility.yul\":6484:6494   */\n      dup2\n        /* \"#utility.yul\":6481:6503   */\n      lt\n        /* \"#utility.yul\":6460:6478   */\n      0xffffffffffffffff\n        /* \"#utility.yul\":6448:6458   */\n      dup3\n        /* \"#utility.yul\":6445:6479   */\n      gt\n        /* \"#utility.yul\":6442:6504   */\n      or\n        /* \"#utility.yul\":6439:6527   */\n      iszero\n      tag_291\n      jumpi\n        /* \"#utility.yul\":6507:6525   */\n      tag_292\n      tag_187\n      jump\t// in\n    tag_292:\n        /* \"#utility.yul\":6439:6527   */\n    tag_291:\n        /* \"#utility.yul\":6547:6557   */\n      dup1\n        /* \"#utility.yul\":6543:6545   */\n      0x40\n        /* \"#utility.yul\":6536:6558   */\n      mstore\n        /* \"#utility.yul\":6326:6564   */\n      pop\n        /* \"#utility.yul\":6283:6564   */\n      pop\n      pop\n      jump\t// out\n        /* \"#utility.yul\":6570:6699   */\n    tag_189:\n        /* \"#utility.yul\":6604:6610   */\n      0x00\n        /* \"#utility.yul\":6631:6651   */\n      tag_294\n      tag_164\n      jump\t// in\n    tag_294:\n        /* \"#utility.yul\":6621:6651   */\n      swap1\n      pop\n        /* \"#utility.yul\":6660:6693   */\n      tag_295\n        /* \"#utility.yul\":6688:6692   */\n      dup3\n        /* \"#utility.yul\":6680:6686   */\n      dup3\n        /* \"#utility.yul\":6660:6693   */\n      tag_188\n      jump\t// in\n    tag_295:\n        /* \"#utility.yul\":6570:6699   */\n      swap2\n      swap1\n      pop\n      jump\t// out\n        /* \"#utility.yul\":6705:7013   */\n    tag_190:\n        /* \"#utility.yul\":6767:6771   */\n      0x00\n        /* \"#utility.yul\":6857:6875   */\n      0xffffffffffffffff\n        /* \"#utility.yul\":6849:6855   */\n      dup3\n        /* \"#utility.yul\":6846:6876   */\n      gt\n        /* \"#utility.yul\":6843:6899   */\n      iszero\n      tag_297\n      jumpi\n        /* \"#utility.yul\":6879:6897   */\n      tag_298\n      tag_187\n      jump\t// in\n    tag_298:\n        /* \"#utility.yul\":6843:6899   */\n    tag_297:\n        /* \"#utility.yul\":6917:6946   */\n      tag_299\n        /* \"#utility.yul\":6939:6945   */\n      dup3\n        /* \"#utility.yul\":6917:6946   */\n      tag_174\n      jump\t// in\n    tag_299:\n        /* \"#utility.yul\":6909:6946   */\n      swap1\n      pop\n        /* \"#utility.yul\":7001:7005   */\n      0x20\n        /* \"#utility.yul\":6995:6999   */\n      dup2\n        /* \"#utility.yul\":6991:7006   */\n      add\n        /* \"#utility.yul\":6983:7006   */\n      swap1\n      pop\n        /* \"#utility.yul\":6705:7013   */\n      swap2\n      swap1\n      pop\n      jump\t// out\n        /* \"#utility.yul\":7019:7167   */\n    tag_191:\n        /* \"#utility.yul\":7117:7123   */\n      dup3\n        /* \"#utility.yul\":7112:7115   */\n      dup2\n        /* \"#utility.yul\":7107:7110   */\n      dup4\n        /* \"#utility.yul\":7094:7124   */\n      calldatacopy\n        /* \"#utility.yul\":7158:7159   */\n      0x00\n        /* \"#utility.yul\":7149:7155   */\n      dup4\n        /* \"#utility.yul\":7144:7147   */\n      dup4\n        /* \"#utility.yul\":7140:7156   */\n      add\n        /* \"#utility.yul\":7133:7160   */\n      mstore\n        /* \"#utility.yul\":7019:7167   */\n      pop\n      pop\n      pop\n      jump\t// out\n        /* \"#utility.yul\":7173:7598   */\n    tag_192:\n        /* \"#utility.yul\":7251:7256   */\n      0x00\n        /* \"#utility.yul\":7276:7342   */\n      tag_302\n        /* \"#utility.yul\":7292:7341   */\n      tag_303\n        /* \"#utility.yul\":7334:7340   */\n      dup5\n        /* \"#utility.yul\":7292:7341   */\n      tag_190\n      jump\t// in\n    tag_303:\n        /* \"#utility.yul\":7276:7342   */\n      tag_189\n      jump\t// in\n    tag_302:\n        /* \"#utility.yul\":7267:7342   */\n      swap1\n      pop\n        /* \"#utility.yul\":7365:7371   */\n      dup3\n        /* \"#utility.yul\":7358:7363   */\n      dup2\n        /* \"#utility.yul\":7351:7372   */\n      mstore\n        /* \"#utility.yul\":7403:7407   */\n      0x20\n        /* \"#utility.yul\":7396:7401   */\n      dup2\n        /* \"#utility.yul\":7392:7408   */\n      add\n        /* \"#utility.yul\":7441:7444   */\n      dup5\n        /* \"#utility.yul\":7432:7438   */\n      dup5\n        /* \"#utility.yul\":7427:7430   */\n      dup5\n        /* \"#utility.yul\":7423:7439   */\n      add\n        /* \"#utility.yul\":7420:7445   */\n      gt\n        /* \"#utility.yul\":7417:7529   */\n      iszero\n      tag_304\n      jumpi\n        /* \"#utility.yul\":7448:7527   */\n      tag_305\n      tag_186\n      jump\t// in\n    tag_305:\n        /* \"#utility.yul\":7417:7529   */\n    tag_304:\n        /* \"#utility.yul\":7538:7592   */\n      tag_306\n        /* \"#utility.yul\":7585:7591   */\n      dup5\n        /* \"#utility.yul\":7580:7583   */\n      dup3\n        /* \"#utility.yul\":7575:7578   */\n      dup6\n        /* \"#utility.yul\":7538:7592   */\n      tag_191\n      jump\t// in\n    tag_306:\n        /* \"#utility.yul\":7257:7598   */\n      pop\n        /* \"#utility.yul\":7173:7598   */\n      swap4\n      swap3\n      pop\n      pop\n      pop\n      jump\t// out\n        /* \"#utility.yul\":7618:7958   */\n    tag_193:\n        /* \"#utility.yul\":7674:7679   */\n      0x00\n        /* \"#utility.yul\":7723:7726   */\n      dup3\n        /* \"#utility.yul\":7716:7720   */\n      0x1f\n        /* \"#utility.yul\":7708:7714   */\n      dup4\n        /* \"#utility.yul\":7704:7721   */\n      add\n        /* \"#utility.yul\":7700:7727   */\n      slt\n        /* \"#utility.yul\":7690:7812   */\n      tag_308\n      jumpi\n        /* \"#utility.yul\":7731:7810   */\n      tag_309\n      tag_185\n      jump\t// in\n    tag_309:\n        /* \"#utility.yul\":7690:7812   */\n    tag_308:\n        /* \"#utility.yul\":7848:7854   */\n      dup2\n        /* \"#utility.yul\":7835:7855   */\n      calldataload\n        /* \"#utility.yul\":7873:7952   */\n      tag_310\n        /* \"#utility.yul\":7948:7951   */\n      dup5\n        /* \"#utility.yul\":7940:7946   */\n      dup3\n        /* \"#utility.yul\":7933:7937   */\n      0x20\n        /* \"#utility.yul\":7925:7931   */\n      dup7\n        /* \"#utility.yul\":7921:7938   */\n      add\n        /* \"#utility.yul\":7873:7952   */\n      tag_192\n      jump\t// in\n    tag_310:\n        /* \"#utility.yul\":7864:7952   */\n      swap2\n      pop\n        /* \"#utility.yul\":7680:7958   */\n      pop\n        /* \"#utility.yul\":7618:7958   */\n      swap3\n      swap2\n      pop\n      pop\n      jump\t// out\n        /* \"#utility.yul\":7964:10101   */\n    tag_27:\n        /* \"#utility.yul\":8128:8134   */\n      0x00\n        /* \"#utility.yul\":8136:8142   */\n      dup1\n        /* \"#utility.yul\":8144:8150   */\n      0x00\n        /* \"#utility.yul\":8152:8158   */\n      dup1\n        /* \"#utility.yul\":8160:8166   */\n      0x00\n        /* \"#utility.yul\":8168:8174   */\n      dup1\n        /* \"#utility.yul\":8217:8220   */\n      0xc0\n        /* \"#utility.yul\":8205:8214   */\n      dup8\n        /* \"#utility.yul\":8196:8203   */\n      dup10\n        /* \"#utility.yul\":8192:8215   */\n      sub\n        /* \"#utility.yul\":8188:8221   */\n      slt\n        /* \"#utility.yul\":8185:8305   */\n      iszero\n      tag_312\n      jumpi\n        /* \"#utility.yul\":8224:8303   */\n      tag_313\n      tag_165\n      jump\t// in\n    tag_313:\n        /* \"#utility.yul\":8185:8305   */\n    tag_312:\n        /* \"#utility.yul\":8372:8373   */\n      0x00\n        /* \"#utility.yul\":8361:8370   */\n      dup8\n        /* \"#utility.yul\":8357:8374   */\n      add\n        /* \"#utility.yul\":8344:8375   */\n      calldataload\n        /* \"#utility.yul\":8402:8420   */\n      0xffffffffffffffff\n        /* \"#utility.yul\":8394:8400   */\n      dup2\n        /* \"#utility.yul\":8391:8421   */\n      gt\n        /* \"#utility.yul\":8388:8505   */\n      iszero\n      tag_314\n      jumpi\n        /* \"#utility.yul\":8424:8503   */\n      tag_315\n      tag_166\n      jump\t// in\n    tag_315:\n        /* \"#utility.yul\":8388:8505   */\n    tag_314:\n        /* \"#utility.yul\":8529:8592   */\n      tag_316\n        /* \"#utility.yul\":8584:8591   */\n      dup10\n        /* \"#utility.yul\":8575:8581   */\n      dup3\n        /* \"#utility.yul\":8564:8573   */\n      dup11\n        /* \"#utility.yul\":8560:8582   */\n      add\n        /* \"#utility.yul\":8529:8592   */\n      tag_193\n      jump\t// in\n    tag_316:\n        /* \"#utility.yul\":8519:8592   */\n      swap7\n      pop\n        /* \"#utility.yul\":8315:8602   */\n      pop\n        /* \"#utility.yul\":8669:8671   */\n      0x20\n        /* \"#utility.yul\":8658:8667   */\n      dup8\n        /* \"#utility.yul\":8654:8672   */\n      add\n        /* \"#utility.yul\":8641:8673   */\n      calldataload\n        /* \"#utility.yul\":8700:8718   */\n      0xffffffffffffffff\n        /* \"#utility.yul\":8692:8698   */\n      dup2\n        /* \"#utility.yul\":8689:8719   */\n      gt\n        /* \"#utility.yul\":8686:8803   */\n      iszero\n      tag_317\n      jumpi\n        /* \"#utility.yul\":8722:8801   */\n      tag_318\n      tag_166\n      jump\t// in\n    tag_318:\n        /* \"#utility.yul\":8686:8803   */\n    tag_317:\n        /* \"#utility.yul\":8827:8890   */\n      tag_319\n        /* \"#utility.yul\":8882:8889   */\n      dup10\n        /* \"#utility.yul\":8873:8879   */\n      dup3\n        /* \"#utility.yul\":8862:8871   */\n      dup11\n        /* \"#utility.yul\":8858:8880   */\n      add\n        /* \"#utility.yul\":8827:8890   */\n      tag_193\n      jump\t// in\n    tag_319:\n        /* \"#utility.yul\":8817:8890   */\n      swap6\n      pop\n        /* \"#utility.yul\":8612:8900   */\n      pop\n        /* \"#utility.yul\":8967:8969   */\n      0x40\n        /* \"#utility.yul\":8956:8965   */\n      dup8\n        /* \"#utility.yul\":8952:8970   */\n      add\n        /* \"#utility.yul\":8939:8971   */\n      calldataload\n        /* \"#utility.yul\":8998:9016   */\n      0xffffffffffffffff\n        /* \"#utility.yul\":8990:8996   */\n      dup2\n        /* \"#utility.yul\":8987:9017   */\n      gt\n        /* \"#utility.yul\":8984:9101   */\n      iszero\n      tag_320\n      jumpi\n        /* \"#utility.yul\":9020:9099   */\n      tag_321\n      tag_166\n      jump\t// in\n    tag_321:\n        /* \"#utility.yul\":8984:9101   */\n    tag_320:\n        /* \"#utility.yul\":9125:9188   */\n      tag_322\n        /* \"#utility.yul\":9180:9187   */\n      dup10\n        /* \"#utility.yul\":9171:9177   */\n      dup3\n        /* \"#utility.yul\":9160:9169   */\n      dup11\n        /* \"#utility.yul\":9156:9178   */\n      add\n        /* \"#utility.yul\":9125:9188   */\n      tag_193\n      jump\t// in\n    tag_322:\n        /* \"#utility.yul\":9115:9188   */\n      swap5\n      pop\n        /* \"#utility.yul\":8910:9198   */\n      pop\n        /* \"#utility.yul\":9265:9267   */\n      0x60\n        /* \"#utility.yul\":9254:9263   */\n      dup8\n        /* \"#utility.yul\":9250:9268   */\n      add\n        /* \"#utility.yul\":9237:9269   */\n      calldataload\n        /* \"#utility.yul\":9296:9314   */\n      0xffffffffffffffff\n        /* \"#utility.yul\":9288:9294   */\n      dup2\n        /* \"#utility.yul\":9285:9315   */\n      gt\n        /* \"#utility.yul\":9282:9399   */\n      iszero\n      tag_323\n      jumpi\n        /* \"#utility.yul\":9318:9397   */\n      tag_324\n      tag_166\n      jump\t// in\n    tag_324:\n        /* \"#utility.yul\":9282:9399   */\n    tag_323:\n        /* \"#utility.yul\":9423:9486   */\n      tag_325\n        /* \"#utility.yul\":9478:9485   */\n      dup10\n        /* \"#utility.yul\":9469:9475   */\n      dup3\n        /* \"#utility.yul\":9458:9467   */\n      dup11\n        /* \"#utility.yul\":9454:9476   */\n      add\n        /* \"#utility.yul\":9423:9486   */\n      tag_193\n      jump\t// in\n    tag_325:\n        /* \"#utility.yul\":9413:9486   */\n      swap4\n      pop\n        /* \"#utility.yul\":9208:9496   */\n      pop\n        /* \"#utility.yul\":9563:9566   */\n      0x80\n        /* \"#utility.yul\":9552:9561   */\n      dup8\n        /* \"#utility.yul\":9548:9567   */\n      add\n        /* \"#utility.yul\":9535:9568   */\n      calldataload\n        /* \"#utility.yul\":9595:9613   */\n      0xffffffffffffffff\n        /* \"#utility.yul\":9587:9593   */\n      dup2\n        /* \"#utility.yul\":9584:9614   */\n      gt\n        /* \"#utility.yul\":9581:9698   */\n      iszero\n      tag_326\n      jumpi\n        /* \"#utility.yul\":9617:9696   */\n      tag_327\n      tag_166\n      jump\t// in\n    tag_327:\n        /* \"#utility.yul\":9581:9698   */\n    tag_326:\n        /* \"#utility.yul\":9722:9785   */\n      tag_328\n        /* \"#utility.yul\":9777:9784   */\n      dup10\n        /* \"#utility.yul\":9768:9774   */\n      dup3\n        /* \"#utility.yul\":9757:9766   */\n      dup11\n        /* \"#utility.yul\":9753:9775   */\n      add\n        /* \"#utility.yul\":9722:9785   */\n      tag_193\n      jump\t// in\n    tag_328:\n        /* \"#utility.yul\":9712:9785   */\n      swap3\n      pop\n        /* \"#utility.yul\":9506:9795   */\n      pop\n        /* \"#utility.yul\":9862:9865   */\n      0xa0\n        /* \"#utility.yul\":9851:9860   */\n      dup8\n        /* \"#utility.yul\":9847:9866   */\n      add\n        /* \"#utility.yul\":9834:9867   */\n      calldataload\n        /* \"#utility.yul\":9894:9912   */\n      0xffffffffffffffff\n        /* \"#utility.yul\":9886:9892   */\n      dup2\n        /* \"#utility.yul\":9883:9913   */\n      gt\n        /* \"#utility.yul\":9880:9997   */\n      iszero\n      tag_329\n      jumpi\n        /* \"#utility.yul\":9916:9995   */\n      tag_330\n      tag_166\n      jump\t// in\n    tag_330:\n        /* \"#utility.yul\":9880:9997   */\n    tag_329:\n        /* \"#utility.yul\":10021:10084   */\n      tag_331\n        /* \"#utility.yul\":10076:10083   */\n      dup10\n        /* \"#utility.yul\":10067:10073   */\n      dup3\n        /* \"#utility.yul\":10056:10065   */\n      dup11\n        /* \"#utility.yul\":10052:10074   */\n      add\n        /* \"#utility.yul\":10021:10084   */\n      tag_193\n      jump\t// in\n    tag_331:\n        /* \"#utility.yul\":10011:10084   */\n      swap2\n      pop\n        /* \"#utility.yul\":9805:10094   */\n      pop\n        /* \"#utility.yul\":7964:10101   */\n      swap3\n      swap6\n      pop\n      swap3\n      swap6\n      pop\n      swap3\n      swap6\n      jump\t// out\n        /* \"#utility.yul\":10107:10184   */\n    tag_194:\n        /* \"#utility.yul\":10144:10151   */\n      0x00\n        /* \"#utility.yul\":10173:10178   */\n      dup2\n        /* \"#utility.yul\":10162:10178   */\n      swap1\n      pop\n        /* \"#utility.yul\":10107:10184   */\n      swap2\n      swap1\n      pop\n      jump\t// out\n        /* \"#utility.yul\":10190:10308   */\n    tag_195:\n        /* \"#utility.yul\":10277:10301   */\n      tag_334\n        /* \"#utility.yul\":10295:10300   */\n      dup2\n        /* \"#utility.yul\":10277:10301   */\n      tag_194\n      jump\t// in\n    tag_334:\n        /* \"#utility.yul\":10272:10275   */\n      dup3\n        /* \"#utility.yul\":10265:10302   */\n      mstore\n        /* \"#utility.yul\":10190:10308   */\n      pop\n      pop\n      jump\t// out\n        /* \"#utility.yul\":10314:10536   */\n    tag_32:\n        /* \"#utility.yul\":10407:10411   */\n      0x00\n        /* \"#utility.yul\":10445:10447   */\n      0x20\n        /* \"#utility.yul\":10434:10443   */\n      dup3\n        /* \"#utility.yul\":10430:10448   */\n      add\n        /* \"#utility.yul\":10422:10448   */\n      swap1\n      pop\n        /* \"#utility.yul\":10458:10529   */\n      tag_336\n        /* \"#utility.yul\":10526:10527   */\n      0x00\n        /* \"#utility.yul\":10515:10524   */\n      dup4\n        /* \"#utility.yul\":10511:10528   */\n      add\n        /* \"#utility.yul\":10502:10508   */\n      dup5\n        /* \"#utility.yul\":10458:10529   */\n      tag_195\n      jump\t// in\n    tag_336:\n        /* \"#utility.yul\":10314:10536   */\n      swap3\n      swap2\n      pop\n      pop\n      jump\t// out\n        /* \"#utility.yul\":10542:10664   */\n    tag_196:\n        /* \"#utility.yul\":10615:10639   */\n      tag_338\n        /* \"#utility.yul\":10633:10638   */\n      dup2\n        /* \"#utility.yul\":10615:10639   */\n      tag_194\n      jump\t// in\n    tag_338:\n        /* \"#utility.yul\":10608:10613   */\n      dup2\n        /* \"#utility.yul\":10605:10640   */\n      eq\n        /* \"#utility.yul\":10595:10658   */\n      tag_339\n      jumpi\n        /* \"#utility.yul\":10654:10655   */\n      0x00\n        /* \"#utility.yul\":10651:10652   */\n      dup1\n        /* \"#utility.yul\":10644:10656   */\n      revert\n        /* \"#utility.yul\":10595:10658   */\n    tag_339:\n        /* \"#utility.yul\":10542:10664   */\n      pop\n      jump\t// out\n        /* \"#utility.yul\":10670:10809   */\n    tag_197:\n        /* \"#utility.yul\":10716:10721   */\n      0x00\n        /* \"#utility.yul\":10754:10760   */\n      dup2\n        /* \"#utility.yul\":10741:10761   */\n      calldataload\n        /* \"#utility.yul\":10732:10761   */\n      swap1\n      pop\n        /* \"#utility.yul\":10770:10803   */\n      tag_341\n        /* \"#utility.yul\":10797:10802   */\n      dup2\n        /* \"#utility.yul\":10770:10803   */\n      tag_196\n      jump\t// in\n    tag_341:\n        /* \"#utility.yul\":10670:10809   */\n      swap3\n      swap2\n      pop\n      pop\n      jump\t// out\n        /* \"#utility.yul\":10815:11144   */\n    tag_38:\n        /* \"#utility.yul\":10874:10880   */\n      0x00\n        /* \"#utility.yul\":10923:10925   */\n      0x20\n        /* \"#utility.yul\":10911:10920   */\n      dup3\n        /* \"#utility.yul\":10902:10909   */\n      dup5\n        /* \"#utility.yul\":10898:10921   */\n      sub\n        /* \"#utility.yul\":10894:10926   */\n      slt\n        /* \"#utility.yul\":10891:11010   */\n      iszero\n      tag_343\n      jumpi\n        /* \"#utility.yul\":10929:11008   */\n      tag_344\n      tag_165\n      jump\t// in\n    tag_344:\n        /* \"#utility.yul\":10891:11010   */\n    tag_343:\n        /* \"#utility.yul\":11049:11050   */\n      0x00\n        /* \"#utility.yul\":11074:11127   */\n      tag_345\n        /* \"#utility.yul\":11119:11126   */\n      dup5\n        /* \"#utility.yul\":11110:11116   */\n      dup3\n        /* \"#utility.yul\":11099:11108   */\n      dup6\n        /* \"#utility.yul\":11095:11117   */\n      add\n        /* \"#utility.yul\":11074:11127   */\n      tag_197\n      jump\t// in\n    tag_345:\n        /* \"#utility.yul\":11064:11127   */\n      swap2\n      pop\n        /* \"#utility.yul\":11020:11137   */\n      pop\n        /* \"#utility.yul\":10815:11144   */\n      swap3\n      swap2\n      pop\n      pop\n      jump\t// out\n        /* \"#utility.yul\":11150:11268   */\n    tag_198:\n        /* \"#utility.yul\":11237:11261   */\n      tag_347\n        /* \"#utility.yul\":11255:11260   */\n      dup2\n        /* \"#utility.yul\":11237:11261   */\n      tag_168\n      jump\t// in\n    tag_347:\n        /* \"#utility.yul\":11232:11235   */\n      dup3\n        /* \"#utility.yul\":11225:11262   */\n      mstore\n        /* \"#utility.yul\":11150:11268   */\n      pop\n      pop\n      jump\t// out\n        /* \"#utility.yul\":11274:11496   */\n    tag_41:\n        /* \"#utility.yul\":11367:11371   */\n      0x00\n        /* \"#utility.yul\":11405:11407   */\n      0x20\n        /* \"#utility.yul\":11394:11403   */\n      dup3\n        /* \"#utility.yul\":11390:11408   */\n      add\n        /* \"#utility.yul\":11382:11408   */\n      swap1\n      pop\n        /* \"#utility.yul\":11418:11489   */\n      tag_349\n        /* \"#utility.yul\":11486:11487   */\n      0x00\n        /* \"#utility.yul\":11475:11484   */\n      dup4\n        /* \"#utility.yul\":11471:11488   */\n      add\n        /* \"#utility.yul\":11462:11468   */\n      dup5\n        /* \"#utility.yul\":11418:11489   */\n      tag_198\n      jump\t// in\n    tag_349:\n        /* \"#utility.yul\":11274:11496   */\n      swap3\n      swap2\n      pop\n      pop\n      jump\t// out\n        /* \"#utility.yul\":11502:11626   */\n    tag_199:\n        /* \"#utility.yul\":11579:11585   */\n      0x00\n        /* \"#utility.yul\":11613:11618   */\n      dup2\n        /* \"#utility.yul\":11607:11619   */\n      mload\n        /* \"#utility.yul\":11597:11619   */\n      swap1\n      pop\n        /* \"#utility.yul\":11502:11626   */\n      swap2\n      swap1\n      pop\n      jump\t// out\n        /* \"#utility.yul\":11632:11826   */\n    tag_200:\n        /* \"#utility.yul\":11741:11752   */\n      0x00\n        /* \"#utility.yul\":11775:11781   */\n      dup3\n        /* \"#utility.yul\":11770:11773   */\n      dup3\n        /* \"#utility.yul\":11763:11782   */\n      mstore\n        /* \"#utility.yul\":11815:11819   */\n      0x20\n        /* \"#utility.yul\":11810:11813   */\n      dup3\n        /* \"#utility.yul\":11806:11820   */\n      add\n        /* \"#utility.yul\":11791:11820   */\n      swap1\n      pop\n        /* \"#utility.yul\":11632:11826   */\n      swap3\n      swap2\n      pop\n      pop\n      jump\t// out\n        /* \"#utility.yul\":11832:11974   */\n    tag_201:\n        /* \"#utility.yul\":11909:11913   */\n      0x00\n        /* \"#utility.yul\":11932:11935   */\n      dup2\n        /* \"#utility.yul\":11924:11935   */\n      swap1\n      pop\n        /* \"#utility.yul\":11962:11966   */\n      0x20\n        /* \"#utility.yul\":11957:11960   */\n      dup3\n        /* \"#utility.yul\":11953:11967   */\n      add\n        /* \"#utility.yul\":11945:11967   */\n      swap1\n      pop\n        /* \"#utility.yul\":11832:11974   */\n      swap2\n      swap1\n      pop\n      jump\t// out\n        /* \"#utility.yul\":11980:12139   */\n    tag_202:\n        /* \"#utility.yul\":12054:12065   */\n      0x00\n        /* \"#utility.yul\":12088:12094   */\n      dup3\n        /* \"#utility.yul\":12083:12086   */\n      dup3\n        /* \"#utility.yul\":12076:12095   */\n      mstore\n        /* \"#utility.yul\":12128:12132   */\n      0x20\n        /* \"#utility.yul\":12123:12126   */\n      dup3\n        /* \"#utility.yul\":12119:12133   */\n      add\n        /* \"#utility.yul\":12104:12133   */\n      swap1\n      pop\n        /* \"#utility.yul\":11980:12139   */\n      swap3\n      swap2\n      pop\n      pop\n      jump\t// out\n        /* \"#utility.yul\":12145:12502   */\n    tag_203:\n        /* \"#utility.yul\":12223:12226   */\n      0x00\n        /* \"#utility.yul\":12251:12290   */\n      tag_355\n        /* \"#utility.yul\":12284:12289   */\n      dup3\n        /* \"#utility.yul\":12251:12290   */\n      tag_171\n      jump\t// in\n    tag_355:\n        /* \"#utility.yul\":12306:12367   */\n      tag_356\n        /* \"#utility.yul\":12360:12366   */\n      dup2\n        /* \"#utility.yul\":12355:12358   */\n      dup6\n        /* \"#utility.yul\":12306:12367   */\n      tag_202\n      jump\t// in\n    tag_356:\n        /* \"#utility.yul\":12299:12367   */\n      swap4\n      pop\n        /* \"#utility.yul\":12376:12441   */\n      tag_357\n        /* \"#utility.yul\":12434:12440   */\n      dup2\n        /* \"#utility.yul\":12429:12432   */\n      dup6\n        /* \"#utility.yul\":12422:12426   */\n      0x20\n        /* \"#utility.yul\":12415:12420   */\n      dup7\n        /* \"#utility.yul\":12411:12427   */\n      add\n        /* \"#utility.yul\":12376:12441   */\n      tag_173\n      jump\t// in\n    tag_357:\n        /* \"#utility.yul\":12466:12495   */\n      tag_358\n        /* \"#utility.yul\":12488:12494   */\n      dup2\n        /* \"#utility.yul\":12466:12495   */\n      tag_174\n      jump\t// in\n    tag_358:\n        /* \"#utility.yul\":12461:12464   */\n      dup5\n        /* \"#utility.yul\":12457:12496   */\n      add\n        /* \"#utility.yul\":12450:12496   */\n      swap2\n      pop\n        /* \"#utility.yul\":12227:12502   */\n      pop\n        /* \"#utility.yul\":12145:12502   */\n      swap3\n      swap2\n      pop\n      pop\n      jump\t// out\n        /* \"#utility.yul\":12508:12704   */\n    tag_204:\n        /* \"#utility.yul\":12597:12607   */\n      0x00\n        /* \"#utility.yul\":12632:12698   */\n      tag_360\n        /* \"#utility.yul\":12694:12697   */\n      dup4\n        /* \"#utility.yul\":12686:12692   */\n      dup4\n        /* \"#utility.yul\":12632:12698   */\n      tag_203\n      jump\t// in\n    tag_360:\n        /* \"#utility.yul\":12618:12698   */\n      swap1\n      pop\n        /* \"#utility.yul\":12508:12704   */\n      swap3\n      swap2\n      pop\n      pop\n      jump\t// out\n        /* \"#utility.yul\":12710:12833   */\n    tag_205:\n        /* \"#utility.yul\":12790:12794   */\n      0x00\n        /* \"#utility.yul\":12822:12826   */\n      0x20\n        /* \"#utility.yul\":12817:12820   */\n      dup3\n        /* \"#utility.yul\":12813:12827   */\n      add\n        /* \"#utility.yul\":12805:12827   */\n      swap1\n      pop\n        /* \"#utility.yul\":12710:12833   */\n      swap2\n      swap1\n      pop\n      jump\t// out\n        /* \"#utility.yul\":12867:13858   */\n    tag_206:\n        /* \"#utility.yul\":13006:13009   */\n      0x00\n        /* \"#utility.yul\":13035:13099   */\n      tag_363\n        /* \"#utility.yul\":13093:13098   */\n      dup3\n        /* \"#utility.yul\":13035:13099   */\n      tag_199\n      jump\t// in\n    tag_363:\n        /* \"#utility.yul\":13115:13211   */\n      tag_364\n        /* \"#utility.yul\":13204:13210   */\n      dup2\n        /* \"#utility.yul\":13199:13202   */\n      dup6\n        /* \"#utility.yul\":13115:13211   */\n      tag_200\n      jump\t// in\n    tag_364:\n        /* \"#utility.yul\":13108:13211   */\n      swap4\n      pop\n        /* \"#utility.yul\":13237:13240   */\n      dup4\n        /* \"#utility.yul\":13282:13286   */\n      0x20\n        /* \"#utility.yul\":13274:13280   */\n      dup3\n        /* \"#utility.yul\":13270:13287   */\n      mul\n        /* \"#utility.yul\":13265:13268   */\n      dup6\n        /* \"#utility.yul\":13261:13288   */\n      add\n        /* \"#utility.yul\":13312:13378   */\n      tag_365\n        /* \"#utility.yul\":13372:13377   */\n      dup6\n        /* \"#utility.yul\":13312:13378   */\n      tag_201\n      jump\t// in\n    tag_365:\n        /* \"#utility.yul\":13401:13408   */\n      dup1\n        /* \"#utility.yul\":13432:13433   */\n      0x00\n        /* \"#utility.yul\":13417:13813   */\n    tag_366:\n        /* \"#utility.yul\":13442:13448   */\n      dup6\n        /* \"#utility.yul\":13439:13440   */\n      dup2\n        /* \"#utility.yul\":13436:13449   */\n      lt\n        /* \"#utility.yul\":13417:13813   */\n      iszero\n      tag_368\n      jumpi\n        /* \"#utility.yul\":13513:13522   */\n      dup5\n        /* \"#utility.yul\":13507:13511   */\n      dup5\n        /* \"#utility.yul\":13503:13523   */\n      sub\n        /* \"#utility.yul\":13498:13501   */\n      dup10\n        /* \"#utility.yul\":13491:13524   */\n      mstore\n        /* \"#utility.yul\":13564:13570   */\n      dup2\n        /* \"#utility.yul\":13558:13571   */\n      mload\n        /* \"#utility.yul\":13592:13676   */\n      tag_369\n        /* \"#utility.yul\":13671:13675   */\n      dup6\n        /* \"#utility.yul\":13656:13669   */\n      dup3\n        /* \"#utility.yul\":13592:13676   */\n      tag_204\n      jump\t// in\n    tag_369:\n        /* \"#utility.yul\":13584:13676   */\n      swap5\n      pop\n        /* \"#utility.yul\":13699:13769   */\n      tag_370\n        /* \"#utility.yul\":13762:13768   */\n      dup4\n        /* \"#utility.yul\":13699:13769   */\n      tag_205\n      jump\t// in\n    tag_370:\n        /* \"#utility.yul\":13689:13769   */\n      swap3\n      pop\n        /* \"#utility.yul\":13798:13802   */\n      0x20\n        /* \"#utility.yul\":13793:13796   */\n      dup11\n        /* \"#utility.yul\":13789:13803   */\n      add\n        /* \"#utility.yul\":13782:13803   */\n      swap10\n      pop\n        /* \"#utility.yul\":13477:13813   */\n      pop\n        /* \"#utility.yul\":13464:13465   */\n      0x01\n        /* \"#utility.yul\":13461:13462   */\n      dup2\n        /* \"#utility.yul\":13457:13466   */\n      add\n        /* \"#utility.yul\":13452:13466   */\n      swap1\n      pop\n        /* \"#utility.yul\":13417:13813   */\n      jump(tag_366)\n    tag_368:\n        /* \"#utility.yul\":13421:13435   */\n      pop\n        /* \"#utility.yul\":13829:13833   */\n      dup3\n        /* \"#utility.yul\":13822:13833   */\n      swap8\n      pop\n        /* \"#utility.yul\":13849:13852   */\n      dup8\n        /* \"#utility.yul\":13842:13852   */\n      swap6\n      pop\n        /* \"#utility.yul\":13011:13858   */\n      pop\n      pop\n      pop\n      pop\n      pop\n        /* \"#utility.yul\":12867:13858   */\n      swap3\n      swap2\n      pop\n      pop\n      jump\t// out\n        /* \"#utility.yul\":13864:14277   */\n    tag_46:\n        /* \"#utility.yul\":14027:14031   */\n      0x00\n        /* \"#utility.yul\":14065:14067   */\n      0x20\n        /* \"#utility.yul\":14054:14063   */\n      dup3\n        /* \"#utility.yul\":14050:14068   */\n      add\n        /* \"#utility.yul\":14042:14068   */\n      swap1\n      pop\n        /* \"#utility.yul\":14114:14123   */\n      dup2\n        /* \"#utility.yul\":14108:14112   */\n      dup2\n        /* \"#utility.yul\":14104:14124   */\n      sub\n        /* \"#utility.yul\":14100:14101   */\n      0x00\n        /* \"#utility.yul\":14089:14098   */\n      dup4\n        /* \"#utility.yul\":14085:14102   */\n      add\n        /* \"#utility.yul\":14078:14125   */\n      mstore\n        /* \"#utility.yul\":14142:14270   */\n      tag_372\n        /* \"#utility.yul\":14265:14269   */\n      dup2\n        /* \"#utility.yul\":14256:14262   */\n      dup5\n        /* \"#utility.yul\":14142:14270   */\n      tag_206\n      jump\t// in\n    tag_372:\n        /* \"#utility.yul\":14134:14270   */\n      swap1\n      pop\n        /* \"#utility.yul\":13864:14277   */\n      swap3\n      swap2\n      pop\n      pop\n      jump\t// out\n        /* \"#utility.yul\":14283:14937   */\n    tag_55:\n        /* \"#utility.yul\":14361:14367   */\n      0x00\n        /* \"#utility.yul\":14369:14375   */\n      dup1\n        /* \"#utility.yul\":14418:14420   */\n      0x40\n        /* \"#utility.yul\":14406:14415   */\n      dup4\n        /* \"#utility.yul\":14397:14404   */\n      dup6\n        /* \"#utility.yul\":14393:14416   */\n      sub\n        /* \"#utility.yul\":14389:14421   */\n      slt\n        /* \"#utility.yul\":14386:14505   */\n      iszero\n      tag_374\n      jumpi\n        /* \"#utility.yul\":14424:14503   */\n      tag_375\n      tag_165\n      jump\t// in\n    tag_375:\n        /* \"#utility.yul\":14386:14505   */\n    tag_374:\n        /* \"#utility.yul\":14544:14545   */\n      0x00\n        /* \"#utility.yul\":14569:14622   */\n      tag_376\n        /* \"#utility.yul\":14614:14621   */\n      dup6\n        /* \"#utility.yul\":14605:14611   */\n      dup3\n        /* \"#utility.yul\":14594:14603   */\n      dup7\n        /* \"#utility.yul\":14590:14612   */\n      add\n        /* \"#utility.yul\":14569:14622   */\n      tag_170\n      jump\t// in\n    tag_376:\n        /* \"#utility.yul\":14559:14622   */\n      swap3\n      pop\n        /* \"#utility.yul\":14515:14632   */\n      pop\n        /* \"#utility.yul\":14699:14701   */\n      0x20\n        /* \"#utility.yul\":14688:14697   */\n      dup4\n        /* \"#utility.yul\":14684:14702   */\n      add\n        /* \"#utility.yul\":14671:14703   */\n      calldataload\n        /* \"#utility.yul\":14730:14748   */\n      0xffffffffffffffff\n        /* \"#utility.yul\":14722:14728   */\n      dup2\n        /* \"#utility.yul\":14719:14749   */\n      gt\n        /* \"#utility.yul\":14716:14833   */\n      iszero\n      tag_377\n      jumpi\n        /* \"#utility.yul\":14752:14831   */\n      tag_378\n      tag_166\n      jump\t// in\n    tag_378:\n        /* \"#utility.yul\":14716:14833   */\n    tag_377:\n        /* \"#utility.yul\":14857:14920   */\n      tag_379\n        /* \"#utility.yul\":14912:14919   */\n      dup6\n        /* \"#utility.yul\":14903:14909   */\n      dup3\n        /* \"#utility.yul\":14892:14901   */\n      dup7\n        /* \"#utility.yul\":14888:14910   */\n      add\n        /* \"#utility.yul\":14857:14920   */\n      tag_193\n      jump\t// in\n    tag_379:\n        /* \"#utility.yul\":14847:14920   */\n      swap2\n      pop\n        /* \"#utility.yul\":14642:14930   */\n      pop\n        /* \"#utility.yul\":14283:14937   */\n      swap3\n      pop\n      swap3\n      swap1\n      pop\n      jump\t// out\n        /* \"#utility.yul\":14943:16264   */\n    tag_61:\n        /* \"#utility.yul\":15296:15300   */\n      0x00\n        /* \"#utility.yul\":15334:15337   */\n      0xc0\n        /* \"#utility.yul\":15323:15332   */\n      dup3\n        /* \"#utility.yul\":15319:15338   */\n      add\n        /* \"#utility.yul\":15311:15338   */\n      swap1\n      pop\n        /* \"#utility.yul\":15384:15393   */\n      dup2\n        /* \"#utility.yul\":15378:15382   */\n      dup2\n        /* \"#utility.yul\":15374:15394   */\n      sub\n        /* \"#utility.yul\":15370:15371   */\n      0x00\n        /* \"#utility.yul\":15359:15368   */\n      dup4\n        /* \"#utility.yul\":15355:15372   */\n      add\n        /* \"#utility.yul\":15348:15395   */\n      mstore\n        /* \"#utility.yul\":15412:15490   */\n      tag_381\n        /* \"#utility.yul\":15485:15489   */\n      dup2\n        /* \"#utility.yul\":15476:15482   */\n      dup10\n        /* \"#utility.yul\":15412:15490   */\n      tag_175\n      jump\t// in\n    tag_381:\n        /* \"#utility.yul\":15404:15490   */\n      swap1\n      pop\n        /* \"#utility.yul\":15537:15546   */\n      dup2\n        /* \"#utility.yul\":15531:15535   */\n      dup2\n        /* \"#utility.yul\":15527:15547   */\n      sub\n        /* \"#utility.yul\":15522:15524   */\n      0x20\n        /* \"#utility.yul\":15511:15520   */\n      dup4\n        /* \"#utility.yul\":15507:15525   */\n      add\n        /* \"#utility.yul\":15500:15548   */\n      mstore\n        /* \"#utility.yul\":15565:15643   */\n      tag_382\n        /* \"#utility.yul\":15638:15642   */\n      dup2\n        /* \"#utility.yul\":15629:15635   */\n      dup9\n        /* \"#utility.yul\":15565:15643   */\n      tag_175\n      jump\t// in\n    tag_382:\n        /* \"#utility.yul\":15557:15643   */\n      swap1\n      pop\n        /* \"#utility.yul\":15690:15699   */\n      dup2\n        /* \"#utility.yul\":15684:15688   */\n      dup2\n        /* \"#utility.yul\":15680:15700   */\n      sub\n        /* \"#utility.yul\":15675:15677   */\n      0x40\n        /* \"#utility.yul\":15664:15673   */\n      dup4\n        /* \"#utility.yul\":15660:15678   */\n      add\n        /* \"#utility.yul\":15653:15701   */\n      mstore\n        /* \"#utility.yul\":15718:15796   */\n      tag_383\n        /* \"#utility.yul\":15791:15795   */\n      dup2\n        /* \"#utility.yul\":15782:15788   */\n      dup8\n        /* \"#utility.yul\":15718:15796   */\n      tag_175\n      jump\t// in\n    tag_383:\n        /* \"#utility.yul\":15710:15796   */\n      swap1\n      pop\n        /* \"#utility.yul\":15843:15852   */\n      dup2\n        /* \"#utility.yul\":15837:15841   */\n      dup2\n        /* \"#utility.yul\":15833:15853   */\n      sub\n        /* \"#utility.yul\":15828:15830   */\n      0x60\n        /* \"#utility.yul\":15817:15826   */\n      dup4\n        /* \"#utility.yul\":15813:15831   */\n      add\n        /* \"#utility.yul\":15806:15854   */\n      mstore\n        /* \"#utility.yul\":15871:15949   */\n      tag_384\n        /* \"#utility.yul\":15944:15948   */\n      dup2\n        /* \"#utility.yul\":15935:15941   */\n      dup7\n        /* \"#utility.yul\":15871:15949   */\n      tag_175\n      jump\t// in\n    tag_384:\n        /* \"#utility.yul\":15863:15949   */\n      swap1\n      pop\n        /* \"#utility.yul\":15997:16006   */\n      dup2\n        /* \"#utility.yul\":15991:15995   */\n      dup2\n        /* \"#utility.yul\":15987:16007   */\n      sub\n        /* \"#utility.yul\":15981:15984   */\n      0x80\n        /* \"#utility.yul\":15970:15979   */\n      dup4\n        /* \"#utility.yul\":15966:15985   */\n      add\n        /* \"#utility.yul\":15959:16008   */\n      mstore\n        /* \"#utility.yul\":16025:16103   */\n      tag_385\n        /* \"#utility.yul\":16098:16102   */\n      dup2\n        /* \"#utility.yul\":16089:16095   */\n      dup6\n        /* \"#utility.yul\":16025:16103   */\n      tag_175\n      jump\t// in\n    tag_385:\n        /* \"#utility.yul\":16017:16103   */\n      swap1\n      pop\n        /* \"#utility.yul\":16151:16160   */\n      dup2\n        /* \"#utility.yul\":16145:16149   */\n      dup2\n        /* \"#utility.yul\":16141:16161   */\n      sub\n        /* \"#utility.yul\":16135:16138   */\n      0xa0\n        /* \"#utility.yul\":16124:16133   */\n      dup4\n        /* \"#utility.yul\":16120:16139   */\n      add\n        /* \"#utility.yul\":16113:16162   */\n      mstore\n        /* \"#utility.yul\":16179:16257   */\n      tag_386\n        /* \"#utility.yul\":16252:16256   */\n      dup2\n        /* \"#utility.yul\":16243:16249   */\n      dup5\n        /* \"#utility.yul\":16179:16257   */\n      tag_175\n      jump\t// in\n    tag_386:\n        /* \"#utility.yul\":16171:16257   */\n      swap1\n      pop\n        /* \"#utility.yul\":14943:16264   */\n      swap8\n      swap7\n      pop\n      pop\n      pop\n      pop\n      pop\n      pop\n      pop\n      jump\t// out\n        /* \"#utility.yul\":16270:16450   */\n    tag_207:\n        /* \"#utility.yul\":16318:16395   */\n      0x4e487b7100000000000000000000000000000000000000000000000000000000\n        /* \"#utility.yul\":16315:16316   */\n      0x00\n        /* \"#utility.yul\":16308:16396   */\n      mstore\n        /* \"#utility.yul\":16415:16419   */\n      0x22\n        /* \"#utility.yul\":16412:16413   */\n      0x04\n        /* \"#utility.yul\":16405:16420   */\n      mstore\n        /* \"#utility.yul\":16439:16443   */\n      0x24\n        /* \"#utility.yul\":16436:16437   */\n      0x00\n        /* \"#utility.yul\":16429:16444   */\n      revert\n        /* \"#utility.yul\":16456:16776   */\n    tag_63:\n        /* \"#utility.yul\":16500:16506   */\n      0x00\n        /* \"#utility.yul\":16537:16538   */\n      0x02\n        /* \"#utility.yul\":16531:16535   */\n      dup3\n        /* \"#utility.yul\":16527:16539   */\n      div\n        /* \"#utility.yul\":16517:16539   */\n      swap1\n      pop\n        /* \"#utility.yul\":16584:16585   */\n      0x01\n        /* \"#utility.yul\":16578:16582   */\n      dup3\n        /* \"#utility.yul\":16574:16586   */\n      and\n        /* \"#utility.yul\":16605:16623   */\n      dup1\n        /* \"#utility.yul\":16595:16676   */\n      tag_389\n      jumpi\n        /* \"#utility.yul\":16661:16665   */\n      0x7f\n        /* \"#utility.yul\":16653:16659   */\n      dup3\n        /* \"#utility.yul\":16649:16666   */\n      and\n        /* \"#utility.yul\":16639:16666   */\n      swap2\n      pop\n        /* \"#utility.yul\":16595:16676   */\n    tag_389:\n        /* \"#utility.yul\":16723:16725   */\n      0x20\n        /* \"#utility.yul\":16715:16721   */\n      dup3\n        /* \"#utility.yul\":16712:16726   */\n      lt\n        /* \"#utility.yul\":16692:16710   */\n      dup2\n        /* \"#utility.yul\":16689:16727   */\n      sub\n        /* \"#utility.yul\":16686:16770   */\n      tag_390\n      jumpi\n        /* \"#utility.yul\":16742:16760   */\n      tag_391\n      tag_207\n      jump\t// in\n    tag_391:\n        /* \"#utility.yul\":16686:16770   */\n    tag_390:\n        /* \"#utility.yul\":16507:16776   */\n      pop\n        /* \"#utility.yul\":16456:16776   */\n      swap2\n      swap1\n      pop\n      jump\t// out\n        /* \"#utility.yul\":16782:16950   */\n    tag_208:\n        /* \"#utility.yul\":16922:16942   */\n      0x416c726561647920726567697374657265640000000000000000000000000000\n        /* \"#utility.yul\":16918:16919   */\n      0x00\n        /* \"#utility.yul\":16910:16916   */\n      dup3\n        /* \"#utility.yul\":16906:16920   */\n      add\n        /* \"#utility.yul\":16899:16943   */\n      mstore\n        /* \"#utility.yul\":16782:16950   */\n      pop\n      jump\t// out\n        /* \"#utility.yul\":16956:17322   */\n    tag_209:\n        /* \"#utility.yul\":17098:17101   */\n      0x00\n        /* \"#utility.yul\":17119:17186   */\n      tag_394\n        /* \"#utility.yul\":17183:17185   */\n      0x12\n        /* \"#utility.yul\":17178:17181   */\n      dup4\n        /* \"#utility.yul\":17119:17186   */\n      tag_172\n      jump\t// in\n    tag_394:\n        /* \"#utility.yul\":17112:17186   */\n      swap2\n      pop\n        /* \"#utility.yul\":17195:17288   */\n      tag_395\n        /* \"#utility.yul\":17284:17287   */\n      dup3\n        /* \"#utility.yul\":17195:17288   */\n      tag_208\n      jump\t// in\n    tag_395:\n        /* \"#utility.yul\":17313:17315   */\n      0x20\n        /* \"#utility.yul\":17308:17311   */\n      dup3\n        /* \"#utility.yul\":17304:17316   */\n      add\n        /* \"#utility.yul\":17297:17316   */\n      swap1\n      pop\n        /* \"#utility.yul\":16956:17322   */\n      swap2\n      swap1\n      pop\n      jump\t// out\n        /* \"#utility.yul\":17328:17747   */\n    tag_99:\n        /* \"#utility.yul\":17494:17498   */\n      0x00\n        /* \"#utility.yul\":17532:17534   */\n      0x20\n        /* \"#utility.yul\":17521:17530   */\n      dup3\n        /* \"#utility.yul\":17517:17535   */\n      add\n        /* \"#utility.yul\":17509:17535   */\n      swap1\n      pop\n        /* \"#utility.yul\":17581:17590   */\n      dup2\n        /* \"#utility.yul\":17575:17579   */\n      dup2\n        /* \"#utility.yul\":17571:17591   */\n      sub\n        /* \"#utility.yul\":17567:17568   */\n      0x00\n        /* \"#utility.yul\":17556:17565   */\n      dup4\n        /* \"#utility.yul\":17552:17569   */\n      add\n        /* \"#utility.yul\":17545:17592   */\n      mstore\n        /* \"#utility.yul\":17609:17740   */\n      tag_397\n        /* \"#utility.yul\":17735:17739   */\n      dup2\n        /* \"#utility.yul\":17609:17740   */\n      tag_209\n      jump\t// in\n    tag_397:\n        /* \"#utility.yul\":17601:17740   */\n      swap1\n      pop\n        /* \"#utility.yul\":17328:17747   */\n      swap2\n      swap1\n      pop\n      jump\t// out\n        /* \"#utility.yul\":17753:17894   */\n    tag_210:\n        /* \"#utility.yul\":17802:17806   */\n      0x00\n        /* \"#utility.yul\":17825:17828   */\n      dup2\n        /* \"#utility.yul\":17817:17828   */\n      swap1\n      pop\n        /* \"#utility.yul\":17848:17851   */\n      dup2\n        /* \"#utility.yul\":17845:17846   */\n      0x00\n        /* \"#utility.yul\":17838:17852   */\n      mstore\n        /* \"#utility.yul\":17882:17886   */\n      0x20\n        /* \"#utility.yul\":17879:17880   */\n      0x00\n        /* \"#utility.yul\":17869:17887   */\n      keccak256\n        /* \"#utility.yul\":17861:17887   */\n      swap1\n      pop\n        /* \"#utility.yul\":17753:17894   */\n      swap2\n      swap1\n      pop\n      jump\t// out\n        /* \"#utility.yul\":17900:17993   */\n    tag_211:\n        /* \"#utility.yul\":17937:17943   */\n      0x00\n        /* \"#utility.yul\":17984:17986   */\n      0x20\n        /* \"#utility.yul\":17979:17981   */\n      0x1f\n        /* \"#utility.yul\":17972:17977   */\n      dup4\n        /* \"#utility.yul\":17968:17982   */\n      add\n        /* \"#utility.yul\":17964:17987   */\n      div\n        /* \"#utility.yul\":17954:17987   */\n      swap1\n      pop\n        /* \"#utility.yul\":17900:17993   */\n      swap2\n      swap1\n      pop\n      jump\t// out\n        /* \"#utility.yul\":17999:18106   */\n    tag_212:\n        /* \"#utility.yul\":18043:18051   */\n      0x00\n        /* \"#utility.yul\":18093:18098   */\n      dup3\n        /* \"#utility.yul\":18087:18091   */\n      dup3\n        /* \"#utility.yul\":18083:18099   */\n      shl\n        /* \"#utility.yul\":18062:18099   */\n      swap1\n      pop\n        /* \"#utility.yul\":17999:18106   */\n      swap3\n      swap2\n      pop\n      pop\n      jump\t// out\n        /* \"#utility.yul\":18112:18505   */\n    tag_213:\n        /* \"#utility.yul\":18181:18187   */\n      0x00\n        /* \"#utility.yul\":18231:18232   */\n      0x08\n        /* \"#utility.yul\":18219:18229   */\n      dup4\n        /* \"#utility.yul\":18215:18233   */\n      mul\n        /* \"#utility.yul\":18254:18351   */\n      tag_402\n        /* \"#utility.yul\":18284:18350   */\n      0xffffffffffffffffffffffffffffffffffffffffffffffffffffffffffffffff\n        /* \"#utility.yul\":18273:18282   */\n      dup3\n        /* \"#utility.yul\":18254:18351   */\n      tag_212\n      jump\t// in\n    tag_402:\n        /* \"#utility.yul\":18372:18411   */\n      tag_403\n        /* \"#utility.yul\":18402:18410   */\n      dup7\n        /* \"#utility.yul\":18391:18400   */\n      dup4\n        /* \"#utility.yul\":18372:18411   */\n      tag_212\n      jump\t// in\n    tag_403:\n        /* \"#utility.yul\":18360:18411   */\n      swap6\n      pop\n        /* \"#utility.yul\":18444:18448   */\n      dup1\n        /* \"#utility.yul\":18440:18449   */\n      not\n        /* \"#utility.yul\":18433:18438   */\n      dup5\n        /* \"#utility.yul\":18429:18450   */\n      and\n        /* \"#utility.yul\":18420:18450   */\n      swap4\n      pop\n        /* \"#utility.yul\":18493:18497   */\n      dup1\n        /* \"#utility.yul\":18483:18491   */\n      dup7\n        /* \"#utility.yul\":18479:18498   */\n      and\n        /* \"#utility.yul\":18472:18477   */\n      dup5\n        /* \"#utility.yul\":18469:18499   */\n      or\n        /* \"#utility.yul\":18459:18499   */\n      swap3\n      pop\n        /* \"#utility.yul\":18188:18505   */\n      pop\n      pop\n        /* \"#utility.yul\":18112:18505   */\n      swap4\n      swap3\n      pop\n      pop\n      pop\n      jump\t// out\n        /* \"#utility.yul\":18511:18571   */\n    tag_214:\n        /* \"#utility.yul\":18539:18542   */\n      0x00\n        /* \"#utility.yul\":18560:18565   */\n      dup2\n        /* \"#utility.yul\":18553:18565   */\n      swap1\n      pop\n        /* \"#utility.yul\":18511:18571   */\n      swap2\n      swap1\n      pop\n      jump\t// out\n        /* \"#utility.yul\":18577:18719   */\n    tag_215:\n        /* \"#utility.yul\":18627:18636   */\n      0x00\n        /* \"#utility.yul\":18660:18713   */\n      tag_406\n        /* \"#utility.yul\":18678:18712   */\n      tag_407\n        /* \"#utility.yul\":18687:18711   */\n      tag_408\n        /* \"#utility.yul\":18705:18710   */\n      dup5\n        /* \"#utility.yul\":18687:18711   */\n      tag_194\n      jump\t// in\n    tag_408:\n        /* \"#utility.yul\":18678:18712   */\n      tag_214\n      jump\t// in\n    tag_407:\n        /* \"#utility.yul\":18660:18713   */\n      tag_194\n      jump\t// in\n    tag_406:\n        /* \"#utility.yul\":18647:18713   */\n      swap1\n      pop\n        /* \"#utility.yul\":18577:18719   */\n      swap2\n      swap1\n      pop\n      jump\t// out\n        /* \"#utility.yul\":18725:18800   */\n    tag_216:\n        /* \"#utility.yul\":18768:18771   */\n      0x00\n        /* \"#utility.yul\":18789:18794   */\n      dup2\n        /* \"#utility.yul\":18782:18794   */\n      swap1\n      pop\n        /* \"#utility.yul\":18725:18800   */\n      swap2\n      swap1\n      pop\n      jump\t// out\n        /* \"#utility.yul\":18806:19075   */\n    tag_217:\n        /* \"#utility.yul\":18916:18955   */\n      tag_411\n        /* \"#utility.yul\":18947:18954   */\n      dup4\n        /* \"#utility.yul\":18916:18955   */\n      tag_215\n      jump\t// in\n    tag_411:\n        /* \"#utility.yul\":18977:19068   */\n      tag_412\n        /* \"#utility.yul\":19026:19067   */\n      tag_413\n        /* \"#utility.yul\":19050:19066   */\n      dup3\n        /* \"#utility.yul\":19026:19067   */\n      tag_216\n      jump\t// in\n    tag_413:\n        /* \"#utility.yul\":19018:19024   */\n      dup5\n        /* \"#utility.yul\":19011:19015   */\n      dup5\n        /* \"#utility.yul\":19005:19016   */\n      sload\n        /* \"#utility.yul\":18977:19068   */\n      tag_213\n      jump\t// in\n    tag_412:\n        /* \"#utility.yul\":18971:18975   */\n      dup3\n        /* \"#utility.yul\":18964:19069   */\n      sstore\n        /* \"#utility.yul\":18882:19075   */\n      pop\n        /* \"#utility.yul\":18806:19075   */\n      pop\n      pop\n      pop\n      jump\t// out\n        /* \"#utility.yul\":19081:19154   */\n    tag_218:\n        /* \"#utility.yul\":19126:19129   */\n      0x00\n        /* \"#utility.yul\":19081:19154   */\n      swap1\n      jump\t// out\n        /* \"#utility.yul\":19160:19349   */\n    tag_219:\n        /* \"#utility.yul\":19237:19269   */\n      tag_416\n      tag_218\n      jump\t// in\n    tag_416:\n        /* \"#utility.yul\":19278:19343   */\n      tag_417\n        /* \"#utility.yul\":19336:19342   */\n      dup2\n        /* \"#utility.yul\":19328:19334   */\n      dup5\n        /* \"#utility.yul\":19322:19326   */\n      dup5\n        /* \"#utility.yul\":19278:19343   */\n      tag_217\n      jump\t// in\n    tag_417:\n        /* \"#utility.yul\":19213:19349   */\n      pop\n        /* \"#utility.yul\":19160:19349   */\n      pop\n      pop\n      jump\t// out\n        /* \"#utility.yul\":19355:19541   */\n    tag_220:\n        /* \"#utility.yul\":19415:19535   */\n    tag_419:\n        /* \"#utility.yul\":19432:19435   */\n      dup2\n        /* \"#utility.yul\":19425:19430   */\n      dup2\n        /* \"#utility.yul\":19422:19436   */\n      lt\n        /* \"#utility.yul\":19415:19535   */\n      iszero\n      tag_421\n      jumpi\n        /* \"#utility.yul\":19486:19525   */\n      tag_422\n        /* \"#utility.yul\":19523:19524   */\n      0x00\n        /* \"#utility.yul\":19516:19521   */\n      dup3\n        /* \"#utility.yul\":19486:19525   */\n      tag_219\n      jump\t// in\n    tag_422:\n        /* \"#utility.yul\":19459:19460   */\n      0x01\n        /* \"#utility.yul\":19452:19457   */\n      dup2\n        /* \"#utility.yul\":19448:19461   */\n      add\n        /* \"#utility.yul\":19439:19461   */\n      swap1\n      pop\n        /* \"#utility.yul\":19415:19535   */\n      jump(tag_419)\n    tag_421:\n        /* \"#utility.yul\":19355:19541   */\n      pop\n      pop\n      jump\t// out\n        /* \"#utility.yul\":19547:20090   */\n    tag_221:\n        /* \"#utility.yul\":19648:19650   */\n      0x1f\n        /* \"#utility.yul\":19643:19646   */\n      dup3\n        /* \"#utility.yul\":19640:19651   */\n      gt\n        /* \"#utility.yul\":19637:20083   */\n      iszero\n      tag_424\n      jumpi\n        /* \"#utility.yul\":19682:19720   */\n      tag_425\n        /* \"#utility.yul\":19714:19719   */\n      dup2\n        /* \"#utility.yul\":19682:19720   */\n      tag_210\n      jump\t// in\n    tag_425:\n        /* \"#utility.yul\":19766:19795   */\n      tag_426\n        /* \"#utility.yul\":19784:19794   */\n      dup5\n        /* \"#utility.yul\":19766:19795   */\n      tag_211\n      jump\t// in\n    tag_426:\n        /* \"#utility.yul\":19756:19764   */\n      dup2\n        /* \"#utility.yul\":19752:19796   */\n      add\n        /* \"#utility.yul\":19949:19951   */\n      0x20\n        /* \"#utility.yul\":19937:19947   */\n      dup6\n        /* \"#utility.yul\":19934:19952   */\n      lt\n        /* \"#utility.yul\":19931:19980   */\n      iszero\n      tag_427\n      jumpi\n        /* \"#utility.yul\":19970:19978   */\n      dup2\n        /* \"#utility.yul\":19955:19978   */\n      swap1\n      pop\n        /* \"#utility.yul\":19931:19980   */\n    tag_427:\n        /* \"#utility.yul\":19993:20073   */\n      tag_428\n        /* \"#utility.yul\":20049:20071   */\n      tag_429\n        /* \"#utility.yul\":20067:20070   */\n      dup6\n        /* \"#utility.yul\":20049:20071   */\n      tag_211\n      jump\t// in\n    tag_429:\n        /* \"#utility.yul\":20039:20047   */\n      dup4\n        /* \"#utility.yul\":20035:20072   */\n      add\n        /* \"#utility.yul\":20022:20033   */\n      dup3\n        /* \"#utility.yul\":19993:20073   */\n      tag_220\n      jump\t// in\n    tag_428:\n        /* \"#utility.yul\":19652:20083   */\n      pop\n      pop\n        /* \"#utility.yul\":19637:20083   */\n    tag_424:\n        /* \"#utility.yul\":19547:20090   */\n      pop\n      pop\n      pop\n      jump\t// out\n        /* \"#utility.yul\":20096:20213   */\n    tag_222:\n        /* \"#utility.yul\":20150:20158   */\n      0x00\n        /* \"#utility.yul\":20200:20205   */\n      dup3\n        /* \"#utility.yul\":20194:20198   */\n      dup3\n        /* \"#utility.yul\":20190:20206   */\n      shr\n        /* \"#utility.yul\":20169:20206   */\n      swap1\n      pop\n        /* \"#utility.yul\":20096:20213   */\n      swap3\n      swap2\n      pop\n      pop\n      jump\t// out\n        /* \"#utility.yul\":20219:20388   */\n    tag_223:\n        /* \"#utility.yul\":20263:20269   */\n      0x00\n        /* \"#utility.yul\":20296:20347   */\n      tag_432\n        /* \"#utility.yul\":20344:20345   */\n      0x00\n        /* \"#utility.yul\":20340:20346   */\n      not\n        /* \"#utility.yul\":20332:20337   */\n      dup5\n        /* \"#utility.yul\":20329:20330   */\n      0x08\n        /* \"#utility.yul\":20325:20338   */\n      mul\n        /* \"#utility.yul\":20296:20347   */\n      tag_222\n      jump\t// in\n    tag_432:\n        /* \"#utility.yul\":20292:20348   */\n      not\n        /* \"#utility.yul\":20377:20381   */\n      dup1\n        /* \"#utility.yul\":20371:20375   */\n      dup4\n        /* \"#utility.yul\":20367:20382   */\n      and\n        /* \"#utility.yul\":20357:20382   */\n      swap2\n      pop\n        /* \"#utility.yul\":20270:20388   */\n      pop\n        /* \"#utility.yul\":20219:20388   */\n      swap3\n      swap2\n      pop\n      pop\n      jump\t// out\n        /* \"#utility.yul\":20393:20688   */\n    tag_224:\n        /* \"#utility.yul\":20469:20473   */\n      0x00\n        /* \"#utility.yul\":20615:20644   */\n      tag_434\n        /* \"#utility.yul\":20640:20643   */\n      dup4\n        /* \"#utility.yul\":20634:20638   */\n      dup4\n        /* \"#utility.yul\":20615:20644   */\n      tag_223\n      jump\t// in\n    tag_434:\n        /* \"#utility.yul\":20607:20644   */\n      swap2\n      pop\n        /* \"#utility.yul\":20677:20680   */\n      dup3\n        /* \"#utility.yul\":20674:20675   */\n      0x02\n        /* \"#utility.yul\":20670:20681   */\n      mul\n        /* \"#utility.yul\":20664:20668   */\n      dup3\n        /* \"#utility.yul\":20661:20682   */\n      or\n        /* \"#utility.yul\":20653:20682   */\n      swap1\n      pop\n        /* \"#utility.yul\":20393:20688   */\n      swap3\n      swap2\n      pop\n      pop\n      jump\t// out\n        /* \"#utility.yul\":20693:22088   */\n    tag_101:\n        /* \"#utility.yul\":20810:20847   */\n      tag_436\n        /* \"#utility.yul\":20843:20846   */\n      dup3\n        /* \"#utility.yul\":20810:20847   */\n      tag_171\n      jump\t// in\n    tag_436:\n        /* \"#utility.yul\":20912:20930   */\n      0xffffffffffffffff\n        /* \"#utility.yul\":20904:20910   */\n      dup2\n        /* \"#utility.yul\":20901:20931   */\n      gt\n        /* \"#utility.yul\":20898:20954   */\n      iszero\n      tag_437\n      jumpi\n        /* \"#utility.yul\":20934:20952   */\n      tag_438\n      tag_187\n      jump\t// in\n    tag_438:\n        /* \"#utility.yul\":20898:20954   */\n    tag_437:\n        /* \"#utility.yul\":20978:21016   */\n      tag_439\n        /* \"#utility.yul\":21010:21014   */\n      dup3\n        /* \"#utility.yul\":21004:21015   */\n      sload\n        /* \"#utility.yul\":20978:21016   */\n      tag_63\n      jump\t// in\n    tag_439:\n        /* \"#utility.yul\":21063:21130   */\n      tag_440\n        /* \"#utility.yul\":21123:21129   */\n      dup3\n        /* \"#utility.yul\":21115:21121   */\n      dup3\n        /* \"#utility.yul\":21109:21113   */\n      dup6\n        /* \"#utility.yul\":21063:21130   */\n      tag_221\n      jump\t// in\n    tag_440:\n        /* \"#utility.yul\":21157:21158   */\n      0x00\n        /* \"#utility.yul\":21181:21185   */\n      0x20\n        /* \"#utility.yul\":21168:21185   */\n      swap1\n      pop\n        /* \"#utility.yul\":21213:21215   */\n      0x1f\n        /* \"#utility.yul\":21205:21211   */\n      dup4\n        /* \"#utility.yul\":21202:21216   */\n      gt\n        /* \"#utility.yul\":21230:21231   */\n      0x01\n        /* \"#utility.yul\":21225:21843   */\n      dup2\n      eq\n      tag_442\n      jumpi\n        /* \"#utility.yul\":21887:21888   */\n      0x00\n        /* \"#utility.yul\":21904:21910   */\n      dup5\n        /* \"#utility.yul\":21901:21978   */\n      iszero\n      tag_443\n      jumpi\n        /* \"#utility.yul\":21953:21962   */\n      dup3\n        /* \"#utility.yul\":21948:21951   */\n      dup8\n        /* \"#utility.yul\":21944:21963   */\n      add\n        /* \"#utility.yul\":21938:21964   */\n      mload\n        /* \"#utility.yul\":21929:21964   */\n      swap1\n      pop\n        /* \"#utility.yul\":21901:21978   */\n    tag_443:\n        /* \"#utility.yul\":22004:22071   */\n      tag_444\n        /* \"#utility.yul\":22064:22070   */\n      dup6\n        /* \"#utility.yul\":22057:22062   */\n      dup3\n        /* \"#utility.yul\":22004:22071   */\n      tag_224\n      jump\t// in\n    tag_444:\n        /* \"#utility.yul\":21998:22002   */\n      dup7\n        /* \"#utility.yul\":21991:22072   */\n      sstore\n        /* \"#utility.yul\":21860:22082   */\n      pop\n        /* \"#utility.yul\":21195:22082   */\n      jump(tag_441)\n        /* \"#utility.yul\":21225:21843   */\n    tag_442:\n        /* \"#utility.yul\":21277:21281   */\n      0x1f\n        /* \"#utility.yul\":21273:21282   */\n      not\n        /* \"#utility.yul\":21265:21271   */\n      dup5\n        /* \"#utility.yul\":21261:21283   */\n      and\n        /* \"#utility.yul\":21311:21348   */\n      tag_445\n        /* \"#utility.yul\":21343:21347   */\n      dup7\n        /* \"#utility.yul\":21311:21348   */\n      tag_210\n      jump\t// in\n    tag_445:\n        /* \"#utility.yul\":21370:21371   */\n      0x00\n        /* \"#utility.yul\":21384:21592   */\n    tag_446:\n        /* \"#utility.yul\":21398:21405   */\n      dup3\n        /* \"#utility.yul\":21395:21396   */\n      dup2\n        /* \"#utility.yul\":21392:21406   */\n      lt\n        /* \"#utility.yul\":21384:21592   */\n      iszero\n      tag_448\n      jumpi\n        /* \"#utility.yul\":21477:21486   */\n      dup5\n        /* \"#utility.yul\":21472:21475   */\n      dup10\n        /* \"#utility.yul\":21468:21487   */\n      add\n        /* \"#utility.yul\":21462:21488   */\n      mload\n        /* \"#utility.yul\":21454:21460   */\n      dup3\n        /* \"#utility.yul\":21447:21489   */\n      sstore\n        /* \"#utility.yul\":21528:21529   */\n      0x01\n        /* \"#utility.yul\":21520:21526   */\n      dup3\n        /* \"#utility.yul\":21516:21530   */\n      add\n        /* \"#utility.yul\":21506:21530   */\n      swap2\n      pop\n        /* \"#utility.yul\":21575:21577   */\n      0x20\n        /* \"#utility.yul\":21564:21573   */\n      dup6\n        /* \"#utility.yul\":21560:21578   */\n      add\n        /* \"#utility.yul\":21547:21578   */\n      swap5\n      pop\n        /* \"#utility.yul\":21421:21425   */\n      0x20\n        /* \"#utility.yul\":21418:21419   */\n      dup2\n        /* \"#utility.yul\":21414:21426   */\n      add\n        /* \"#utility.yul\":21409:21426   */\n      swap1\n      pop\n        /* \"#utility.yul\":21384:21592   */\n      jump(tag_446)\n    tag_448:\n        /* \"#utility.yul\":21620:21626   */\n      dup7\n        /* \"#utility.yul\":21611:21618   */\n      dup4\n        /* \"#utility.yul\":21608:21627   */\n      lt\n        /* \"#utility.yul\":21605:21784   */\n      iszero\n      tag_449\n      jumpi\n        /* \"#utility.yul\":21678:21687   */\n      dup5\n        /* \"#utility.yul\":21673:21676   */\n      dup10\n        /* \"#utility.yul\":21669:21688   */\n      add\n        /* \"#utility.yul\":21663:21689   */\n      mload\n        /* \"#utility.yul\":21721:21769   */\n      tag_450\n        /* \"#utility.yul\":21763:21767   */\n      0x1f\n        /* \"#utility.yul\":21755:21761   */\n      dup10\n        /* \"#utility.yul\":21751:21768   */\n      and\n        /* \"#utility.yul\":21740:21749   */\n      dup3\n        /* \"#utility.yul\":21721:21769   */\n      tag_223\n      jump\t// in\n    tag_450:\n        /* \"#utility.yul\":21713:21719   */\n      dup4\n        /* \"#utility.yul\":21706:21770   */\n      sstore\n        /* \"#utility.yul\":21628:21784   */\n      pop\n        /* \"#utility.yul\":21605:21784   */\n    tag_449:\n        /* \"#utility.yul\":21830:21831   */\n      0x01\n        /* \"#utility.yul\":21826:21827   */\n      0x02\n        /* \"#utility.yul\":21818:21824   */\n      dup9\n        /* \"#utility.yul\":21814:21828   */\n      mul\n        /* \"#utility.yul\":21810:21832   */\n      add\n        /* \"#utility.yul\":21804:21808   */\n      dup9\n        /* \"#utility.yul\":21797:21833   */\n      sstore\n        /* \"#utility.yul\":21232:21843   */\n      pop\n      pop\n      pop\n        /* \"#utility.yul\":21195:22082   */\n    tag_441:\n      pop\n        /* \"#utility.yul\":20785:22088   */\n      pop\n      pop\n      pop\n        /* \"#utility.yul\":20693:22088   */\n      pop\n      pop\n      jump\t// out\n        /* \"#utility.yul\":22094:22274   */\n    tag_225:\n        /* \"#utility.yul\":22142:22219   */\n      0x4e487b7100000000000000000000000000000000000000000000000000000000\n        /* \"#utility.yul\":22139:22140   */\n      0x00\n        /* \"#utility.yul\":22132:22220   */\n      mstore\n        /* \"#utility.yul\":22239:22243   */\n      0x11\n        /* \"#utility.yul\":22236:22237   */\n      0x04\n        /* \"#utility.yul\":22229:22244   */\n      mstore\n        /* \"#utility.yul\":22263:22267   */\n      0x24\n        /* \"#utility.yul\":22260:22261   */\n      0x00\n        /* \"#utility.yul\":22253:22268   */\n      revert\n        /* \"#utility.yul\":22280:22513   */\n    tag_108:\n        /* \"#utility.yul\":22319:22322   */\n      0x00\n        /* \"#utility.yul\":22342:22366   */\n      tag_453\n        /* \"#utility.yul\":22360:22365   */\n      dup3\n        /* \"#utility.yul\":22342:22366   */\n      tag_194\n      jump\t// in\n    tag_453:\n        /* \"#utility.yul\":22333:22366   */\n      swap2\n      pop\n        /* \"#utility.yul\":22388:22454   */\n      0xffffffffffffffffffffffffffffffffffffffffffffffffffffffffffffffff\n        /* \"#utility.yul\":22381:22386   */\n      dup3\n        /* \"#utility.yul\":22378:22455   */\n      sub\n        /* \"#utility.yul\":22375:22478   */\n      tag_454\n      jumpi\n        /* \"#utility.yul\":22458:22476   */\n      tag_455\n      tag_225\n      jump\t// in\n    tag_455:\n        /* \"#utility.yul\":22375:22478   */\n    tag_454:\n        /* \"#utility.yul\":22505:22506   */\n      0x01\n        /* \"#utility.yul\":22498:22503   */\n      dup3\n        /* \"#utility.yul\":22494:22507   */\n      add\n        /* \"#utility.yul\":22487:22507   */\n      swap1\n      pop\n        /* \"#utility.yul\":22280:22513   */\n      swap2\n      swap1\n      pop\n      jump\t// out\n        /* \"#utility.yul\":22519:22832   */\n    tag_111:\n        /* \"#utility.yul\":22632:22636   */\n      0x00\n        /* \"#utility.yul\":22670:22672   */\n      0x20\n        /* \"#utility.yul\":22659:22668   */\n      dup3\n        /* \"#utility.yul\":22655:22673   */\n      add\n        /* \"#utility.yul\":22647:22673   */\n      swap1\n      pop\n        /* \"#utility.yul\":22719:22728   */\n      dup2\n        /* \"#utility.yul\":22713:22717   */\n      dup2\n        /* \"#utility.yul\":22709:22729   */\n      sub\n        /* \"#utility.yul\":22705:22706   */\n      0x00\n        /* \"#utility.yul\":22694:22703   */\n      dup4\n        /* \"#utility.yul\":22690:22707   */\n      add\n        /* \"#utility.yul\":22683:22730   */\n      mstore\n        /* \"#utility.yul\":22747:22825   */\n      tag_457\n        /* \"#utility.yul\":22820:22824   */\n      dup2\n        /* \"#utility.yul\":22811:22817   */\n      dup5\n        /* \"#utility.yul\":22747:22825   */\n      tag_175\n      jump\t// in\n    tag_457:\n        /* \"#utility.yul\":22739:22825   */\n      swap1\n      pop\n        /* \"#utility.yul\":22519:22832   */\n      swap3\n      swap2\n      pop\n      pop\n      jump\t// out\n        /* \"#utility.yul\":22838:23002   */\n    tag_226:\n        /* \"#utility.yul\":22978:22994   */\n      0x4e6f742072656769737465726564000000000000000000000000000000000000\n        /* \"#utility.yul\":22974:22975   */\n      0x00\n        /* \"#utility.yul\":22966:22972   */\n      dup3\n        /* \"#utility.yul\":22962:22976   */\n      add\n        /* \"#utility.yul\":22955:22995   */\n      mstore\n        /* \"#utility.yul\":22838:23002   */\n      pop\n      jump\t// out\n        /* \"#utility.yul\":23008:23374   */\n    tag_227:\n        /* \"#utility.yul\":23150:23153   */\n      0x00\n        /* \"#utility.yul\":23171:23238   */\n      tag_460\n        /* \"#utility.yul\":23235:23237   */\n      0x0e\n        /* \"#utility.yul\":23230:23233   */\n      dup4\n        /* \"#utility.yul\":23171:23238   */\n      tag_172\n      jump\t// in\n    tag_460:\n        /* \"#utility.yul\":23164:23238   */\n      swap2\n      pop\n        /* \"#utility.yul\":23247:23340   */\n      tag_461\n        /* \"#utility.yul\":23336:23339   */\n      dup3\n        /* \"#utility.yul\":23247:23340   */\n      tag_226\n      jump\t// in\n    tag_461:\n        /* \"#utility.yul\":23365:23367   */\n      0x20\n        /* \"#utility.yul\":23360:23363   */\n      dup3\n        /* \"#utility.yul\":23356:23368   */\n      add\n        /* \"#utility.yul\":23349:23368   */\n      swap1\n      pop\n        /* \"#utility.yul\":23008:23374   */\n      swap2\n      swap1\n      pop\n      jump\t// out\n        /* \"#utility.yul\":23380:23799   */\n    tag_128:\n        /* \"#utility.yul\":23546:23550   */\n      0x00\n        /* \"#utility.yul\":23584:23586   */\n      0x20\n        /* \"#utility.yul\":23573:23582   */\n      dup3\n        /* \"#utility.yul\":23569:23587   */\n      add\n        /* \"#utility.yul\":23561:23587   */\n      swap1\n      pop\n        /* \"#utility.yul\":23633:23642   */\n      dup2\n        /* \"#utility.yul\":23627:23631   */\n      dup2\n        /* \"#utility.yul\":23623:23643   */\n      sub\n        /* \"#utility.yul\":23619:23620   */\n      0x00\n        /* \"#utility.yul\":23608:23617   */\n      dup4\n        /* \"#utility.yul\":23604:23621   */\n      add\n        /* \"#utility.yul\":23597:23644   */\n      mstore\n        /* \"#utility.yul\":23661:23792   */\n      tag_463\n        /* \"#utility.yul\":23787:23791   */\n      dup2\n        /* \"#utility.yul\":23661:23792   */\n      tag_227\n      jump\t// in\n    tag_463:\n        /* \"#utility.yul\":23653:23792   */\n      swap1\n      pop\n        /* \"#utility.yul\":23380:23799   */\n      swap2\n      swap1\n      pop\n      jump\t// out\n\n    auxdata: 0xa2646970667358221220ec14b300a89da9e4d5b9a77818774f0c19207fba80e73289533fc54d834af32b64736f6c634300081e0033\n}\n",
				"bytecode": {
					"linkReferences": {},
					"object": "6080604052348015600f57600080fd5b50611ba88061001f6000396000f3fe608060405234801561001057600080fd5b50600436106100a95760003560e01c8063a2143b3c11610071578063a2143b3c1461015a578063c1816dfb1461018a578063deb5ef09146101ba578063ed3a2634146101d8578063edefcf88146101f6578063efe2ccc114610212576100a9565b80630869cfbc146100ae578063413f107a146100e45780636d26dce8146101025780638f7686491461011e5780639a96fcc11461013c575b600080fd5b6100c860048036038101906100c39190610f9c565b610247565b6040516100db9796959493929190611074565b60405180910390f35b6100ec6105c6565b6040516100f991906111cb565b60405180910390f35b61011c60048036038101906101179190611322565b610654565b005b610126610881565b6040516101339190611470565b60405180910390f35b610144610887565b6040516101519190611470565b60405180910390f35b610174600480360381019061016f91906114b7565b610891565b60405161018191906114f3565b60405180910390f35b6101a4600480360381019061019f9190610f9c565b6108d0565b6040516101b1919061161a565b60405180910390f35b6101c26109eb565b6040516101cf9190611470565b60405180910390f35b6101e06109f1565b6040516101ed9190611470565b60405180910390f35b610210600480360381019061020b919061163c565b6109fa565b005b61022c60048036038101906102279190610f9c565b610b68565b60405161023e96959493929190611698565b60405180910390f35b600260205280600052604060002060009150905080600001805461026a90611752565b80601f016020809104026020016040519081016040528092919081815260200182805461029690611752565b80156102e35780601f106102b8576101008083540402835291602001916102e3565b820191906000526020600020905b8154815290600101906020018083116102c657829003601f168201915b5050505050908060010180546102f890611752565b80601f016020809104026020016040519081016040528092919081815260200182805461032490611752565b80156103715780601f1061034657610100808354040283529160200191610371565b820191906000526020600020905b81548152906001019060200180831161035457829003601f168201915b50505050509080600201805461038690611752565b80601f01602080910402602001604051908101604052809291908181526020018280546103b290611752565b80156103ff5780601f106103d4576101008083540402835291602001916103ff565b820191906000526020600020905b8154815290600101906020018083116103e257829003601f168201915b50505050509080600301805461041490611752565b80601f016020809104026020016040519081016040528092919081815260200182805461044090611752565b801561048d5780601f106104625761010080835404028352916020019161048d565b820191906000526020600020905b81548152906001019060200180831161047057829003601f168201915b5050505050908060040180546104a290611752565b80601f01602080910402602001604051908101604052809291908181526020018280546104ce90611752565b801561051b5780601f106104f05761010080835404028352916020019161051b565b820191906000526020600020905b8154815290600101906020018083116104fe57829003601f168201915b50505050509080600501805461053090611752565b80601f016020809104026020016040519081016040528092919081815260200182805461055c90611752565b80156105a95780601f1061057e576101008083540402835291602001916105a9565b820191906000526020600020905b81548152906001019060200180831161058c57829003601f168201915b5050505050908060060160009054906101000a900460ff16905087565b6060600380548060200260200160405190810160405280929190818152602001828054801561064a57602002820191906000526020600020905b8160009054906101000a900473ffffffffffffffffffffffffffffffffffffffff1673ffffffffffffffffffffffffffffffffffffffff1681526020019060010190808311610600575b5050505050905090565b600260003373ffffffffffffffffffffffffffffffffffffffff1673ffffffffffffffffffffffffffffffffffffffff16815260200190815260200160002060060160009054906101000a900460ff16156106e4576040517f08c379a00000000000000000000000000000000000000000000000000000000081526004016106db906117cf565b60405180910390fd5b6000600260003373ffffffffffffffffffffffffffffffffffffffff1673ffffffffffffffffffffffffffffffffffffffff168152602001908152602001600020905086816000019081610738919061199b565b508581600101908161074a919061199b565b508481600201908161075c919061199b565b508381600301908161076e919061199b565b5082816004019081610780919061199b565b5081816005019081610792919061199b565b5060018160060160006101000a81548160ff0219169083151502179055506000808154809291906107c290611a9c565b91905055506003339080600181540180825580915050600190039060005260206000200160009091909190916101000a81548173ffffffffffffffffffffffffffffffffffffffff021916908373ffffffffffffffffffffffffffffffffffffffff1602179055503373ffffffffffffffffffffffffffffffffffffffff167fc85b128388b9c331a2a5485dce4cd0f3db9f7c279d327ce95d6d39d6c94644c7886040516108709190611ae4565b60405180910390a250505050505050565b60015481565b6000600154905090565b600381815481106108a157600080fd5b906000526020600020016000915054906101000a900473ffffffffffffffffffffffffffffffffffffffff1681565b6060600260008373ffffffffffffffffffffffffffffffffffffffff1673ffffffffffffffffffffffffffffffffffffffff168152602001908152602001600020600701805480602002602001604051908101604052809291908181526020016000905b828210156109e057838290600052602060002001805461095390611752565b80601f016020809104026020016040519081016040528092919081815260200182805461097f90611752565b80156109cc5780601f106109a1576101008083540402835291602001916109cc565b820191906000526020600020905b8154815290600101906020018083116109af57829003601f168201915b505050505081526020019060010190610934565b505050509050919050565b60005481565b60008054905090565b600260008373ffffffffffffffffffffffffffffffffffffffff1673ffffffffffffffffffffffffffffffffffffffff16815260200190815260200160002060060160009054906101000a900460ff16610a89576040517f08c379a0000000000000000000000000000000000000000000000000000000008152600401610a8090611b52565b60405180910390fd5b600260008373ffffffffffffffffffffffffffffffffffffffff1673ffffffffffffffffffffffffffffffffffffffff16815260200190815260200160002060070181908060018154018082558091505060019003906000526020600020016000909190919091509081610afd919061199b565b5060016000815480929190610b1190611a9c565b91905055508173ffffffffffffffffffffffffffffffffffffffff167f771ad20575501c8cafc4a8793006515911d6e497fd5838018654c9b50347430c82604051610b5c9190611ae4565b60405180910390a25050565b6060806060806060806000600260008973ffffffffffffffffffffffffffffffffffffffff1673ffffffffffffffffffffffffffffffffffffffff1681526020019081526020016000209050806000018160010182600201836003018460040185600501858054610bd890611752565b80601f0160208091040260200160405190810160405280929190818152602001828054610c0490611752565b8015610c515780601f10610c2657610100808354040283529160200191610c51565b820191906000526020600020905b815481529060010190602001808311610c3457829003601f168201915b50505050509550848054610c6490611752565b80601f0160208091040260200160405190810160405280929190818152602001828054610c9090611752565b8015610cdd5780601f10610cb257610100808354040283529160200191610cdd565b820191906000526020600020905b815481529060010190602001808311610cc057829003601f168201915b50505050509450838054610cf090611752565b80601f0160208091040260200160405190810160405280929190818152602001828054610d1c90611752565b8015610d695780601f10610d3e57610100808354040283529160200191610d69565b820191906000526020600020905b815481529060010190602001808311610d4c57829003601f168201915b50505050509350828054610d7c90611752565b80601f0160208091040260200160405190810160405280929190818152602001828054610da890611752565b8015610df55780601f10610dca57610100808354040283529160200191610df5565b820191906000526020600020905b815481529060010190602001808311610dd857829003601f168201915b50505050509250818054610e0890611752565b80601f0160208091040260200160405190810160405280929190818152602001828054610e3490611752565b8015610e815780601f10610e5657610100808354040283529160200191610e81565b820191906000526020600020905b815481529060010190602001808311610e6457829003601f168201915b50505050509150808054610e9490611752565b80601f0160208091040260200160405190810160405280929190818152602001828054610ec090611752565b8015610f0d5780601f10610ee257610100808354040283529160200191610f0d565b820191906000526020600020905b815481529060010190602001808311610ef057829003601f168201915b505050505090509650965096509650965096505091939550919395565b6000604051905090565b600080fd5b600080fd5b600073ffffffffffffffffffffffffffffffffffffffff82169050919050565b6000610f6982610f3e565b9050919050565b610f7981610f5e565b8114610f8457600080fd5b50565b600081359050610f9681610f70565b92915050565b600060208284031215610fb257610fb1610f34565b5b6000610fc084828501610f87565b91505092915050565b600081519050919050565b600082825260208201905092915050565b60005b83811015611003578082015181840152602081019050610fe8565b60008484015250505050565b6000601f19601f8301169050919050565b600061102b82610fc9565b6110358185610fd4565b9350611045818560208601610fe5565b61104e8161100f565b840191505092915050565b60008115159050919050565b61106e81611059565b82525050565b600060e082019050818103600083015261108e818a611020565b905081810360208301526110a28189611020565b905081810360408301526110b68188611020565b905081810360608301526110ca8187611020565b905081810360808301526110de8186611020565b905081810360a08301526110f28185611020565b905061110160c0830184611065565b98975050505050505050565b600081519050919050565b600082825260208201905092915050565b6000819050602082019050919050565b61114281610f5e565b82525050565b60006111548383611139565b60208301905092915050565b6000602082019050919050565b60006111788261110d565b6111828185611118565b935061118d83611129565b8060005b838110156111be5781516111a58882611148565b97506111b083611160565b925050600181019050611191565b5085935050505092915050565b600060208201905081810360008301526111e5818461116d565b905092915050565b600080fd5b600080fd5b7f4e487b7100000000000000000000000000000000000000000000000000000000600052604160045260246000fd5b61122f8261100f565b810181811067ffffffffffffffff8211171561124e5761124d6111f7565b5b80604052505050565b6000611261610f2a565b905061126d8282611226565b919050565b600067ffffffffffffffff82111561128d5761128c6111f7565b5b6112968261100f565b9050602081019050919050565b82818337600083830152505050565b60006112c56112c084611272565b611257565b9050828152602081018484840111156112e1576112e06111f2565b5b6112ec8482856112a3565b509392505050565b600082601f830112611309576113086111ed565b5b81356113198482602086016112b2565b91505092915050565b60008060008060008060c0878903121561133f5761133e610f34565b5b600087013567ffffffffffffffff81111561135d5761135c610f39565b5b61136989828a016112f4565b965050602087013567ffffffffffffffff81111561138a57611389610f39565b5b61139689828a016112f4565b955050604087013567ffffffffffffffff8111156113b7576113b6610f39565b5b6113c389828a016112f4565b945050606087013567ffffffffffffffff8111156113e4576113e3610f39565b5b6113f089828a016112f4565b935050608087013567ffffffffffffffff81111561141157611410610f39565b5b61141d89828a016112f4565b92505060a087013567ffffffffffffffff81111561143e5761143d610f39565b5b61144a89828a016112f4565b9150509295509295509295565b6000819050919050565b61146a81611457565b82525050565b60006020820190506114856000830184611461565b92915050565b61149481611457565b811461149f57600080fd5b50565b6000813590506114b18161148b565b92915050565b6000602082840312156114cd576114cc610f34565b5b60006114db848285016114a2565b91505092915050565b6114ed81610f5e565b82525050565b600060208201905061150860008301846114e4565b92915050565b600081519050919050565b600082825260208201905092915050565b6000819050602082019050919050565b600082825260208201905092915050565b600061155682610fc9565b611560818561153a565b9350611570818560208601610fe5565b6115798161100f565b840191505092915050565b6000611590838361154b565b905092915050565b6000602082019050919050565b60006115b08261150e565b6115ba8185611519565b9350836020820285016115cc8561152a565b8060005b8581101561160857848403895281516115e98582611584565b94506115f483611598565b925060208a019950506001810190506115d0565b50829750879550505050505092915050565b6000602082019050818103600083015261163481846115a5565b905092915050565b6000806040838503121561165357611652610f34565b5b600061166185828601610f87565b925050602083013567ffffffffffffffff81111561168257611681610f39565b5b61168e858286016112f4565b9150509250929050565b600060c08201905081810360008301526116b28189611020565b905081810360208301526116c68188611020565b905081810360408301526116da8187611020565b905081810360608301526116ee8186611020565b905081810360808301526117028185611020565b905081810360a08301526117168184611020565b9050979650505050505050565b7f4e487b7100000000000000000000000000000000000000000000000000000000600052602260045260246000fd5b6000600282049050600182168061176a57607f821691505b60208210810361177d5761177c611723565b5b50919050565b7f416c726561647920726567697374657265640000000000000000000000000000600082015250565b60006117b9601283610fd4565b91506117c482611783565b602082019050919050565b600060208201905081810360008301526117e8816117ac565b9050919050565b60008190508160005260206000209050919050565b60006020601f8301049050919050565b600082821b905092915050565b6000600883026118517fffffffffffffffffffffffffffffffffffffffffffffffffffffffffffffffff82611814565b61185b8683611814565b95508019841693508086168417925050509392505050565b6000819050919050565b600061189861189361188e84611457565b611873565b611457565b9050919050565b6000819050919050565b6118b28361187d565b6118c66118be8261189f565b848454611821565b825550505050565b600090565b6118db6118ce565b6118e68184846118a9565b505050565b5b8181101561190a576118ff6000826118d3565b6001810190506118ec565b5050565b601f82111561194f57611920816117ef565b61192984611804565b81016020851015611938578190505b61194c61194485611804565b8301826118eb565b50505b505050565b600082821c905092915050565b600061197260001984600802611954565b1980831691505092915050565b600061198b8383611961565b9150826002028217905092915050565b6119a482610fc9565b67ffffffffffffffff8111156119bd576119bc6111f7565b5b6119c78254611752565b6119d282828561190e565b600060209050601f831160018114611a0557600084156119f3578287015190505b6119fd858261197f565b865550611a65565b601f198416611a13866117ef565b60005b82811015611a3b57848901518255600182019150602085019450602081019050611a16565b86831015611a585784890151611a54601f891682611961565b8355505b6001600288020188555050505b505050505050565b7f4e487b7100000000000000000000000000000000000000000000000000000000600052601160045260246000fd5b6000611aa782611457565b91507fffffffffffffffffffffffffffffffffffffffffffffffffffffffffffffffff8203611ad957611ad8611a6d565b5b600182019050919050565b60006020820190508181036000830152611afe8184611020565b905092915050565b7f4e6f742072656769737465726564000000000000000000000000000000000000600082015250565b6000611b3c600e83610fd4565b9150611b4782611b06565b602082019050919050565b60006020820190508181036000830152611b6b81611b2f565b905091905056fea2646970667358221220ec14b300a89da9e4d5b9a77818774f0c19207fba80e73289533fc54d834af32b64736f6c634300081e0033",
					"opcodes": "PUSH1 0x80 PUSH1 0x40 MSTORE CALLVALUE DUP1 ISZERO PUSH1 0xF JUMPI PUSH1 0x0 DUP1 REVERT JUMPDEST POP PUSH2 0x1BA8 DUP1 PUSH2 0x1F PUSH1 0x0 CODECOPY PUSH1 0x0 RETURN INVALID PUSH1 0x80 PUSH1 0x40 MSTORE CALLVALUE DUP1 ISZERO PUSH2 0x10 JUMPI PUSH1 0x0 DUP1 REVERT JUMPDEST POP PUSH1 0x4 CALLDATASIZE LT PUSH2 0xA9 JUMPI PUSH1 0x0 CALLDATALOAD PUSH1 0xE0 SHR DUP1 PUSH4 0xA2143B3C GT PUSH2 0x71 JUMPI DUP1 PUSH4 0xA2143B3C EQ PUSH2 0x15A JUMPI DUP1 PUSH4 0xC1816DFB EQ PUSH2 0x18A JUMPI DUP1 PUSH4 0xDEB5EF09 EQ PUSH2 0x1BA JUMPI DUP1 PUSH4 0xED3A2634 EQ PUSH2 0x1D8 JUMPI DUP1 PUSH4 0xEDEFCF88 EQ PUSH2 0x1F6 JUMPI DUP1 PUSH4 0xEFE2CCC1 EQ PUSH2 0x212 JUMPI PUSH2 0xA9 JUMP JUMPDEST DUP1 PUSH4 0x869CFBC EQ PUSH2 0xAE JUMPI DUP1 PUSH4 0x413F107A EQ PUSH2 0xE4 JUMPI DUP1 PUSH4 0x6D26DCE8 EQ PUSH2 0x102 JUMPI DUP1 PUSH4 0x8F768649 EQ PUSH2 0x11E JUMPI DUP1 PUSH4 0x9A96FCC1 EQ PUSH2 0x13C JUMPI JUMPDEST PUSH1 0x0 DUP1 REVERT JUMPDEST PUSH2 0xC8 PUSH1 0x4 DUP1 CALLDATASIZE SUB DUP2 ADD SWAP1 PUSH2 0xC3 SWAP2 SWAP1 PUSH2 0xF9C JUMP JUMPDEST PUSH2 0x247 JUMP JUMPDEST PUSH1 0x40 MLOAD PUSH2 0xDB SWAP8 SWAP7 SWAP6 SWAP5 SWAP4 SWAP3 SWAP2 SWAP1 PUSH2 0x1074 JUMP JUMPDEST PUSH1 0x40 MLOAD DUP1 SWAP2 SUB SWAP1 RETURN JUMPDEST PUSH2 0xEC PUSH2 0x5C6 JUMP JUMPDEST PUSH1 0x40 MLOAD PUSH2 0xF9 SWAP2 SWAP1 PUSH2 0x11CB JUMP JUMPDEST PUSH1 0x40 MLOAD DUP1 SWAP2 SUB SWAP1 RETURN JUMPDEST PUSH2 0x11C PUSH1 0x4 DUP1 CALLDATASIZE SUB DUP2 ADD SWAP1 PUSH2 0x117 SWAP2 SWAP1 PUSH2 0x1322 JUMP JUMPDEST PUSH2 0x654 JUMP JUMPDEST STOP JUMPDEST PUSH2 0x126 PUSH2 0x881 JUMP JUMPDEST PUSH1 0x40 MLOAD PUSH2 0x133 SWAP2 SWAP1 PUSH2 0x1470 JUMP JUMPDEST PUSH1 0x40 MLOAD DUP1 SWAP2 SUB SWAP1 RETURN JUMPDEST PUSH2 0x144 PUSH2 0x887 JUMP JUMPDEST PUSH1 0x40 MLOAD PUSH2 0x151 SWAP2 SWAP1 PUSH2 0x1470 JUMP JUMPDEST PUSH1 0x40 MLOAD DUP1 SWAP2 SUB SWAP1 RETURN JUMPDEST PUSH2 0x174 PUSH1 0x4 DUP1 CALLDATASIZE SUB DUP2 ADD SWAP1 PUSH2 0x16F SWAP2 SWAP1 PUSH2 0x14B7 JUMP JUMPDEST PUSH2 0x891 JUMP JUMPDEST PUSH1 0x40 MLOAD PUSH2 0x181 SWAP2 SWAP1 PUSH2 0x14F3 JUMP JUMPDEST PUSH1 0x40 MLOAD DUP1 SWAP2 SUB SWAP1 RETURN JUMPDEST PUSH2 0x1A4 PUSH1 0x4 DUP1 CALLDATASIZE SUB DUP2 ADD SWAP1 PUSH2 0x19F SWAP2 SWAP1 PUSH2 0xF9C JUMP JUMPDEST PUSH2 0x8D0 JUMP JUMPDEST PUSH1 0x40 MLOAD PUSH2 0x1B1 SWAP2 SWAP1 PUSH2 0x161A JUMP JUMPDEST PUSH1 0x40 MLOAD DUP1 SWAP2 SUB SWAP1 RETURN JUMPDEST PUSH2 0x1C2 PUSH2 0x9EB JUMP JUMPDEST PUSH1 0x40 MLOAD PUSH2 0x1CF SWAP2 SWAP1 PUSH2 0x1470 JUMP JUMPDEST PUSH1 0x40 MLOAD DUP1 SWAP2 SUB SWAP1 RETURN JUMPDEST PUSH2 0x1E0 PUSH2 0x9F1 JUMP JUMPDEST PUSH1 0x40 MLOAD PUSH2 0x1ED SWAP2 SWAP1 PUSH2 0x1470 JUMP JUMPDEST PUSH1 0x40 MLOAD DUP1 SWAP2 SUB SWAP1 RETURN JUMPDEST PUSH2 0x210 PUSH1 0x4 DUP1 CALLDATASIZE SUB DUP2 ADD SWAP1 PUSH2 0x20B SWAP2 SWAP1 PUSH2 0x163C JUMP JUMPDEST PUSH2 0x9FA JUMP JUMPDEST STOP JUMPDEST PUSH2 0x22C PUSH1 0x4 DUP1 CALLDATASIZE SUB DUP2 ADD SWAP1 PUSH2 0x227 SWAP2 SWAP1 PUSH2 0xF9C JUMP JUMPDEST PUSH2 0xB68 JUMP JUMPDEST PUSH1 0x40 MLOAD PUSH2 0x23E SWAP7 SWAP6 SWAP5 SWAP4 SWAP3 SWAP2 SWAP1 PUSH2 0x1698 JUMP JUMPDEST PUSH1 0x40 MLOAD DUP1 SWAP2 SUB SWAP1 RETURN JUMPDEST PUSH1 0x2 PUSH1 0x20 MSTORE DUP1 PUSH1 0x0 MSTORE PUSH1 0x40 PUSH1 0x0 KECCAK256 PUSH1 0x0 SWAP2 POP SWAP1 POP DUP1 PUSH1 0x0 ADD DUP1 SLOAD PUSH2 0x26A SWAP1 PUSH2 0x1752 JUMP JUMPDEST DUP1 PUSH1 0x1F ADD PUSH1 0x20 DUP1 SWAP2 DIV MUL PUSH1 0x20 ADD PUSH1 0x40 MLOAD SWAP1 DUP2 ADD PUSH1 0x40 MSTORE DUP1 SWAP3 SWAP2 SWAP1 DUP2 DUP2 MSTORE PUSH1 0x20 ADD DUP3 DUP1 SLOAD PUSH2 0x296 SWAP1 PUSH2 0x1752 JUMP JUMPDEST DUP1 ISZERO PUSH2 0x2E3 JUMPI DUP1 PUSH1 0x1F LT PUSH2 0x2B8 JUMPI PUSH2 0x100 DUP1 DUP4 SLOAD DIV MUL DUP4 MSTORE SWAP2 PUSH1 0x20 ADD SWAP2 PUSH2 0x2E3 JUMP JUMPDEST DUP3 ADD SWAP2 SWAP1 PUSH1 0x0 MSTORE PUSH1 0x20 PUSH1 0x0 KECCAK256 SWAP1 JUMPDEST DUP2 SLOAD DUP2 MSTORE SWAP1 PUSH1 0x1 ADD SWAP1 PUSH1 0x20 ADD DUP1 DUP4 GT PUSH2 0x2C6 JUMPI DUP3 SWAP1 SUB PUSH1 0x1F AND DUP3 ADD SWAP2 JUMPDEST POP POP POP POP POP SWAP1 DUP1 PUSH1 0x1 ADD DUP1 SLOAD PUSH2 0x2F8 SWAP1 PUSH2 0x1752 JUMP JUMPDEST DUP1 PUSH1 0x1F ADD PUSH1 0x20 DUP1 SWAP2 DIV MUL PUSH1 0x20 ADD PUSH1 0x40 MLOAD SWAP1 DUP2 ADD PUSH1 0x40 MSTORE DUP1 SWAP3 SWAP2 SWAP1 DUP2 DUP2 MSTORE PUSH1 0x20 ADD DUP3 DUP1 SLOAD PUSH2 0x324 SWAP1 PUSH2 0x1752 JUMP JUMPDEST DUP1 ISZERO PUSH2 0x371 JUMPI DUP1 PUSH1 0x1F LT PUSH2 0x346 JUMPI PUSH2 0x100 DUP1 DUP4 SLOAD DIV MUL DUP4 MSTORE SWAP2 PUSH1 0x20 ADD SWAP2 PUSH2 0x371 JUMP JUMPDEST DUP3 ADD SWAP2 SWAP1 PUSH1 0x0 MSTORE PUSH1 0x20 PUSH1 0x0 KECCAK256 SWAP1 JUMPDEST DUP2 SLOAD DUP2 MSTORE SWAP1 PUSH1 0x1 ADD SWAP1 PUSH1 0x20 ADD DUP1 DUP4 GT PUSH2 0x354 JUMPI DUP3 SWAP1 SUB PUSH1 0x1F AND DUP3 ADD SWAP2 JUMPDEST POP POP POP POP POP SWAP1 DUP1 PUSH1 0x2 ADD DUP1 SLOAD PUSH2 0x386 SWAP1 PUSH2 0x1752 JUMP JUMPDEST DUP1 PUSH1 0x1F ADD PUSH1 0x20 DUP1 SWAP2 DIV MUL PUSH1 0x20 ADD PUSH1 0x40 MLOAD SWAP1 DUP2 ADD PUSH1 0x40 MSTORE DUP1 SWAP3 SWAP2 SWAP1 DUP2 DUP2 MSTORE PUSH1 0x20 ADD DUP3 DUP1 SLOAD PUSH2 0x3B2 SWAP1 PUSH2 0x1752 JUMP JUMPDEST DUP1 ISZERO PUSH2 0x3FF JUMPI DUP1 PUSH1 0x1F LT PUSH2 0x3D4 JUMPI PUSH2 0x100 DUP1 DUP4 SLOAD DIV MUL DUP4 MSTORE SWAP2 PUSH1 0x20 ADD SWAP2 PUSH2 0x3FF JUMP JUMPDEST DUP3 ADD SWAP2 SWAP1 PUSH1 0x0 MSTORE PUSH1 0x20 PUSH1 0x0 KECCAK256 SWAP1 JUMPDEST DUP2 SLOAD DUP2 MSTORE SWAP1 PUSH1 0x1 ADD SWAP1 PUSH1 0x20 ADD DUP1 DUP4 GT PUSH2 0x3E2 JUMPI DUP3 SWAP1 SUB PUSH1 0x1F AND DUP3 ADD SWAP2 JUMPDEST POP POP POP POP POP SWAP1 DUP1 PUSH1 0x3 ADD DUP1 SLOAD PUSH2 0x414 SWAP1 PUSH2 0x1752 JUMP JUMPDEST DUP1 PUSH1 0x1F ADD PUSH1 0x20 DUP1 SWAP2 DIV MUL PUSH1 0x20 ADD PUSH1 0x40 MLOAD SWAP1 DUP2 ADD PUSH1 0x40 MSTORE DUP1 SWAP3 SWAP2 SWAP1 DUP2 DUP2 MSTORE PUSH1 0x20 ADD DUP3 DUP1 SLOAD PUSH2 0x440 SWAP1 PUSH2 0x1752 JUMP JUMPDEST DUP1 ISZERO PUSH2 0x48D JUMPI DUP1 PUSH1 0x1F LT PUSH2 0x462 JUMPI PUSH2 0x100 DUP1 DUP4 SLOAD DIV MUL DUP4 MSTORE SWAP2 PUSH1 0x20 ADD SWAP2 PUSH2 0x48D JUMP JUMPDEST DUP3 ADD SWAP2 SWAP1 PUSH1 0x0 MSTORE PUSH1 0x20 PUSH1 0x0 KECCAK256 SWAP1 JUMPDEST DUP2 SLOAD DUP2 MSTORE SWAP1 PUSH1 0x1 ADD SWAP1 PUSH1 0x20 ADD DUP1 DUP4 GT PUSH2 0x470 JUMPI DUP3 SWAP1 SUB PUSH1 0x1F AND DUP3 ADD SWAP2 JUMPDEST POP POP POP POP POP SWAP1 DUP1 PUSH1 0x4 ADD DUP1 SLOAD PUSH2 0x4A2 SWAP1 PUSH2 0x1752 JUMP JUMPDEST DUP1 PUSH1 0x1F ADD PUSH1 0x20 DUP1 SWAP2 DIV MUL PUSH1 0x20 ADD PUSH1 0x40 MLOAD SWAP1 DUP2 ADD PUSH1 0x40 MSTORE DUP1 SWAP3 SWAP2 SWAP1 DUP2 DUP2 MSTORE PUSH1 0x20 ADD DUP3 DUP1 SLOAD PUSH2 0x4CE SWAP1 PUSH2 0x1752 JUMP JUMPDEST DUP1 ISZERO PUSH2 0x51B JUMPI DUP1 PUSH1 0x1F LT PUSH2 0x4F0 JUMPI PUSH2 0x100 DUP1 DUP4 SLOAD DIV MUL DUP4 MSTORE SWAP2 PUSH1 0x20 ADD SWAP2 PUSH2 0x51B JUMP JUMPDEST DUP3 ADD SWAP2 SWAP1 PUSH1 0x0 MSTORE PUSH1 0x20 PUSH1 0x0 KECCAK256 SWAP1 JUMPDEST DUP2 SLOAD DUP2 MSTORE SWAP1 PUSH1 0x1 ADD SWAP1 PUSH1 0x20 ADD DUP1 DUP4 GT PUSH2 0x4FE JUMPI DUP3 SWAP1 SUB PUSH1 0x1F AND DUP3 ADD SWAP2 JUMPDEST POP POP POP POP POP SWAP1 DUP1 PUSH1 0x5 ADD DUP1 SLOAD PUSH2 0x530 SWAP1 PUSH2 0x1752 JUMP JUMPDEST DUP1 PUSH1 0x1F ADD PUSH1 0x20 DUP1 SWAP2 DIV MUL PUSH1 0x20 ADD PUSH1 0x40 MLOAD SWAP1 DUP2 ADD PUSH1 0x40 MSTORE DUP1 SWAP3 SWAP2 SWAP1 DUP2 DUP2 MSTORE PUSH1 0x20 ADD DUP3 DUP1 SLOAD PUSH2 0x55C SWAP1 PUSH2 0x1752 JUMP JUMPDEST DUP1 ISZERO PUSH2 0x5A9 JUMPI DUP1 PUSH1 0x1F LT PUSH2 0x57E JUMPI PUSH2 0x100 DUP1 DUP4 SLOAD DIV MUL DUP4 MSTORE SWAP2 PUSH1 0x20 ADD SWAP2 PUSH2 0x5A9 JUMP JUMPDEST DUP3 ADD SWAP2 SWAP1 PUSH1 0x0 MSTORE PUSH1 0x20 PUSH1 0x0 KECCAK256 SWAP1 JUMPDEST DUP2 SLOAD DUP2 MSTORE SWAP1 PUSH1 0x1 ADD SWAP1 PUSH1 0x20 ADD DUP1 DUP4 GT PUSH2 0x58C JUMPI DUP3 SWAP1 SUB PUSH1 0x1F AND DUP3 ADD SWAP2 JUMPDEST POP POP POP POP POP SWAP1 DUP1 PUSH1 0x6 ADD PUSH1 0x0 SWAP1 SLOAD SWAP1 PUSH2 0x100 EXP SWAP1 DIV PUSH1 0xFF AND SWAP1 POP DUP8 JUMP JUMPDEST PUSH1 0x60 PUSH1 0x3 DUP1 SLOAD DUP1 PUSH1 0x20 MUL PUSH1 0x20 ADD PUSH1 0x40 MLOAD SWAP1 DUP2 ADD PUSH1 0x40 MSTORE DUP1 SWAP3 SWAP2 SWAP1 DUP2 DUP2 MSTORE PUSH1 0x20 ADD DUP3 DUP1 SLOAD DUP1 ISZERO PUSH2 0x64A JUMPI PUSH1 0x20 MUL DUP3 ADD SWAP2 SWAP1 PUSH1 0x0 MSTORE PUSH1 0x20 PUSH1 0x0 KECCAK256 SWAP1 JUMPDEST DUP2 PUSH1 0x0 SWAP1 SLOAD SWAP1 PUSH2 0x100 EXP SWAP1 DIV PUSH20 0xFFFFFFFFFFFFFFFFFFFFFFFFFFFFFFFFFFFFFFFF AND PUSH20 0xFFFFFFFFFFFFFFFFFFFFFFFFFFFFFFFFFFFFFFFF AND DUP2 MSTORE PUSH1 0x20 ADD SWAP1 PUSH1 0x1 ADD SWAP1 DUP1 DUP4 GT PUSH2 0x600 JUMPI JUMPDEST POP POP POP POP POP SWAP1 POP SWAP1 JUMP JUMPDEST PUSH1 0x2 PUSH1 0x0 CALLER PUSH20 0xFFFFFFFFFFFFFFFFFFFFFFFFFFFFFFFFFFFFFFFF AND PUSH20 0xFFFFFFFFFFFFFFFFFFFFFFFFFFFFFFFFFFFFFFFF AND DUP2 MSTORE PUSH1 0x20 ADD SWAP1 DUP2 MSTORE PUSH1 0x20 ADD PUSH1 0x0 KECCAK256 PUSH1 0x6 ADD PUSH1 0x0 SWAP1 SLOAD SWAP1 PUSH2 0x100 EXP SWAP1 DIV PUSH1 0xFF AND ISZERO PUSH2 0x6E4 JUMPI PUSH1 0x40 MLOAD PUSH32 0x8C379A000000000000000000000000000000000000000000000000000000000 DUP2 MSTORE PUSH1 0x4 ADD PUSH2 0x6DB SWAP1 PUSH2 0x17CF JUMP JUMPDEST PUSH1 0x40 MLOAD DUP1 SWAP2 SUB SWAP1 REVERT JUMPDEST PUSH1 0x0 PUSH1 0x2 PUSH1 0x0 CALLER PUSH20 0xFFFFFFFFFFFFFFFFFFFFFFFFFFFFFFFFFFFFFFFF AND PUSH20 0xFFFFFFFFFFFFFFFFFFFFFFFFFFFFFFFFFFFFFFFF AND DUP2 MSTORE PUSH1 0x20 ADD SWAP1 DUP2 MSTORE PUSH1 0x20 ADD PUSH1 0x0 KECCAK256 SWAP1 POP DUP7 DUP2 PUSH1 0x0 ADD SWAP1 DUP2 PUSH2 0x738 SWAP2 SWAP1 PUSH2 0x199B JUMP JUMPDEST POP DUP6 DUP2 PUSH1 0x1 ADD SWAP1 DUP2 PUSH2 0x74A SWAP2 SWAP1 PUSH2 0x199B JUMP JUMPDEST POP DUP5 DUP2 PUSH1 0x2 ADD SWAP1 DUP2 PUSH2 0x75C SWAP2 SWAP1 PUSH2 0x199B JUMP JUMPDEST POP DUP4 DUP2 PUSH1 0x3 ADD SWAP1 DUP2 PUSH2 0x76E SWAP2 SWAP1 PUSH2 0x199B JUMP JUMPDEST POP DUP3 DUP2 PUSH1 0x4 ADD SWAP1 DUP2 PUSH2 0x780 SWAP2 SWAP1 PUSH2 0x199B JUMP JUMPDEST POP DUP2 DUP2 PUSH1 0x5 ADD SWAP1 DUP2 PUSH2 0x792 SWAP2 SWAP1 PUSH2 0x199B JUMP JUMPDEST POP PUSH1 0x1 DUP2 PUSH1 0x6 ADD PUSH1 0x0 PUSH2 0x100 EXP DUP2 SLOAD DUP2 PUSH1 0xFF MUL NOT AND SWAP1 DUP4 ISZERO ISZERO MUL OR SWAP1 SSTORE POP PUSH1 0x0 DUP1 DUP2 SLOAD DUP1 SWAP3 SWAP2 SWAP1 PUSH2 0x7C2 SWAP1 PUSH2 0x1A9C JUMP JUMPDEST SWAP2 SWAP1 POP SSTORE POP PUSH1 0x3 CALLER SWAP1 DUP1 PUSH1 0x1 DUP2 SLOAD ADD DUP1 DUP3 SSTORE DUP1 SWAP2 POP POP PUSH1 0x1 SWAP1 SUB SWAP1 PUSH1 0x0 MSTORE PUSH1 0x20 PUSH1 0x0 KECCAK256 ADD PUSH1 0x0 SWAP1 SWAP2 SWAP1 SWAP2 SWAP1 SWAP2 PUSH2 0x100 EXP DUP2 SLOAD DUP2 PUSH20 0xFFFFFFFFFFFFFFFFFFFFFFFFFFFFFFFFFFFFFFFF MUL NOT AND SWAP1 DUP4 PUSH20 0xFFFFFFFFFFFFFFFFFFFFFFFFFFFFFFFFFFFFFFFF AND MUL OR SWAP1 SSTORE POP CALLER PUSH20 0xFFFFFFFFFFFFFFFFFFFFFFFFFFFFFFFFFFFFFFFF AND PUSH32 0xC85B128388B9C331A2A5485DCE4CD0F3DB9F7C279D327CE95D6D39D6C94644C7 DUP9 PUSH1 0x40 MLOAD PUSH2 0x870 SWAP2 SWAP1 PUSH2 0x1AE4 JUMP JUMPDEST PUSH1 0x40 MLOAD DUP1 SWAP2 SUB SWAP1 LOG2 POP POP POP POP POP POP POP JUMP JUMPDEST PUSH1 0x1 SLOAD DUP2 JUMP JUMPDEST PUSH1 0x0 PUSH1 0x1 SLOAD SWAP1 POP SWAP1 JUMP JUMPDEST PUSH1 0x3 DUP2 DUP2 SLOAD DUP2 LT PUSH2 0x8A1 JUMPI PUSH1 0x0 DUP1 REVERT JUMPDEST SWAP1 PUSH1 0x0 MSTORE PUSH1 0x20 PUSH1 0x0 KECCAK256 ADD PUSH1 0x0 SWAP2 POP SLOAD SWAP1 PUSH2 0x100 EXP SWAP1 DIV PUSH20 0xFFFFFFFFFFFFFFFFFFFFFFFFFFFFFFFFFFFFFFFF AND DUP2 JUMP JUMPDEST PUSH1 0x60 PUSH1 0x2 PUSH1 0x0 DUP4 PUSH20 0xFFFFFFFFFFFFFFFFFFFFFFFFFFFFFFFFFFFFFFFF AND PUSH20 0xFFFFFFFFFFFFFFFFFFFFFFFFFFFFFFFFFFFFFFFF AND DUP2 MSTORE PUSH1 0x20 ADD SWAP1 DUP2 MSTORE PUSH1 0x20 ADD PUSH1 0x0 KECCAK256 PUSH1 0x7 ADD DUP1 SLOAD DUP1 PUSH1 0x20 MUL PUSH1 0x20 ADD PUSH1 0x40 MLOAD SWAP1 DUP2 ADD PUSH1 0x40 MSTORE DUP1 SWAP3 SWAP2 SWAP1 DUP2 DUP2 MSTORE PUSH1 0x20 ADD PUSH1 0x0 SWAP1 JUMPDEST DUP3 DUP3 LT ISZERO PUSH2 0x9E0 JUMPI DUP4 DUP3 SWAP1 PUSH1 0x0 MSTORE PUSH1 0x20 PUSH1 0x0 KECCAK256 ADD DUP1 SLOAD PUSH2 0x953 SWAP1 PUSH2 0x1752 JUMP JUMPDEST DUP1 PUSH1 0x1F ADD PUSH1 0x20 DUP1 SWAP2 DIV MUL PUSH1 0x20 ADD PUSH1 0x40 MLOAD SWAP1 DUP2 ADD PUSH1 0x40 MSTORE DUP1 SWAP3 SWAP2 SWAP1 DUP2 DUP2 MSTORE PUSH1 0x20 ADD DUP3 DUP1 SLOAD PUSH2 0x97F SWAP1 PUSH2 0x1752 JUMP JUMPDEST DUP1 ISZERO PUSH2 0x9CC JUMPI DUP1 PUSH1 0x1F LT PUSH2 0x9A1 JUMPI PUSH2 0x100 DUP1 DUP4 SLOAD DIV MUL DUP4 MSTORE SWAP2 PUSH1 0x20 ADD SWAP2 PUSH2 0x9CC JUMP JUMPDEST DUP3 ADD SWAP2 SWAP1 PUSH1 0x0 MSTORE PUSH1 0x20 PUSH1 0x0 KECCAK256 SWAP1 JUMPDEST DUP2 SLOAD DUP2 MSTORE SWAP1 PUSH1 0x1 ADD SWAP1 PUSH1 0x20 ADD DUP1 DUP4 GT PUSH2 0x9AF JUMPI DUP3 SWAP1 SUB PUSH1 0x1F AND DUP3 ADD SWAP2 JUMPDEST POP POP POP POP POP DUP2 MSTORE PUSH1 0x20 ADD SWAP1 PUSH1 0x1 ADD SWAP1 PUSH2 0x934 JUMP JUMPDEST POP POP POP POP SWAP1 POP SWAP2 SWAP1 POP JUMP JUMPDEST PUSH1 0x0 SLOAD DUP2 JUMP JUMPDEST PUSH1 0x0 DUP1 SLOAD SWAP1 POP SWAP1 JUMP JUMPDEST PUSH1 0x2 PUSH1 0x0 DUP4 PUSH20 0xFFFFFFFFFFFFFFFFFFFFFFFFFFFFFFFFFFFFFFFF AND PUSH20 0xFFFFFFFFFFFFFFFFFFFFFFFFFFFFFFFFFFFFFFFF AND DUP2 MSTORE PUSH1 0x20 ADD SWAP1 DUP2 MSTORE PUSH1 0x20 ADD PUSH1 0x0 KECCAK256 PUSH1 0x6 ADD PUSH1 0x0 SWAP1 SLOAD SWAP1 PUSH2 0x100 EXP SWAP1 DIV PUSH1 0xFF AND PUSH2 0xA89 JUMPI PUSH1 0x40 MLOAD PUSH32 0x8C379A000000000000000000000000000000000000000000000000000000000 DUP2 MSTORE PUSH1 0x4 ADD PUSH2 0xA80 SWAP1 PUSH2 0x1B52 JUMP JUMPDEST PUSH1 0x40 MLOAD DUP1 SWAP2 SUB SWAP1 REVERT JUMPDEST PUSH1 0x2 PUSH1 0x0 DUP4 PUSH20 0xFFFFFFFFFFFFFFFFFFFFFFFFFFFFFFFFFFFFFFFF AND PUSH20 0xFFFFFFFFFFFFFFFFFFFFFFFFFFFFFFFFFFFFFFFF AND DUP2 MSTORE PUSH1 0x20 ADD SWAP1 DUP2 MSTORE PUSH1 0x20 ADD PUSH1 0x0 KECCAK256 PUSH1 0x7 ADD DUP2 SWAP1 DUP1 PUSH1 0x1 DUP2 SLOAD ADD DUP1 DUP3 SSTORE DUP1 SWAP2 POP POP PUSH1 0x1 SWAP1 SUB SWAP1 PUSH1 0x0 MSTORE PUSH1 0x20 PUSH1 0x0 KECCAK256 ADD PUSH1 0x0 SWAP1 SWAP2 SWAP1 SWAP2 SWAP1 SWAP2 POP SWAP1 DUP2 PUSH2 0xAFD SWAP2 SWAP1 PUSH2 0x199B JUMP JUMPDEST POP PUSH1 0x1 PUSH1 0x0 DUP2 SLOAD DUP1 SWAP3 SWAP2 SWAP1 PUSH2 0xB11 SWAP1 PUSH2 0x1A9C JUMP JUMPDEST SWAP2 SWAP1 POP SSTORE POP DUP2 PUSH20 0xFFFFFFFFFFFFFFFFFFFFFFFFFFFFFFFFFFFFFFFF AND PUSH32 0x771AD20575501C8CAFC4A8793006515911D6E497FD5838018654C9B50347430C DUP3 PUSH1 0x40 MLOAD PUSH2 0xB5C SWAP2 SWAP1 PUSH2 0x1AE4 JUMP JUMPDEST PUSH1 0x40 MLOAD DUP1 SWAP2 SUB SWAP1 LOG2 POP POP JUMP JUMPDEST PUSH1 0x60 DUP1 PUSH1 0x60 DUP1 PUSH1 0x60 DUP1 PUSH1 0x0 PUSH1 0x2 PUSH1 0x0 DUP10 PUSH20 0xFFFFFFFFFFFFFFFFFFFFFFFFFFFFFFFFFFFFFFFF AND PUSH20 0xFFFFFFFFFFFFFFFFFFFFFFFFFFFFFFFFFFFFFFFF AND DUP2 MSTORE PUSH1 0x20 ADD SWAP1 DUP2 MSTORE PUSH1 0x20 ADD PUSH1 0x0 KECCAK256 SWAP1 POP DUP1 PUSH1 0x0 ADD DUP2 PUSH1 0x1 ADD DUP3 PUSH1 0x2 ADD DUP4 PUSH1 0x3 ADD DUP5 PUSH1 0x4 ADD DUP6 PUSH1 0x5 ADD DUP6 DUP1 SLOAD PUSH2 0xBD8 SWAP1 PUSH2 0x1752 JUMP JUMPDEST DUP1 PUSH1 0x1F ADD PUSH1 0x20 DUP1 SWAP2 DIV MUL PUSH1 0x20 ADD PUSH1 0x40 MLOAD SWAP1 DUP2 ADD PUSH1 0x40 MSTORE DUP1 SWAP3 SWAP2 SWAP1 DUP2 DUP2 MSTORE PUSH1 0x20 ADD DUP3 DUP1 SLOAD PUSH2 0xC04 SWAP1 PUSH2 0x1752 JUMP JUMPDEST DUP1 ISZERO PUSH2 0xC51 JUMPI DUP1 PUSH1 0x1F LT PUSH2 0xC26 JUMPI PUSH2 0x100 DUP1 DUP4 SLOAD DIV MUL DUP4 MSTORE SWAP2 PUSH1 0x20 ADD SWAP2 PUSH2 0xC51 JUMP JUMPDEST DUP3 ADD SWAP2 SWAP1 PUSH1 0x0 MSTORE PUSH1 0x20 PUSH1 0x0 KECCAK256 SWAP1 JUMPDEST DUP2 SLOAD DUP2 MSTORE SWAP1 PUSH1 0x1 ADD SWAP1 PUSH1 0x20 ADD DUP1 DUP4 GT PUSH2 0xC34 JUMPI DUP3 SWAP1 SUB PUSH1 0x1F AND DUP3 ADD SWAP2 JUMPDEST POP POP POP POP POP SWAP6 POP DUP5 DUP1 SLOAD PUSH2 0xC64 SWAP1 PUSH2 0x1752 JUMP JUMPDEST DUP1 PUSH1 0x1F ADD PUSH1 0x20 DUP1 SWAP2 DIV MUL PUSH1 0x20 ADD PUSH1 0x40 MLOAD SWAP1 DUP2 ADD PUSH1 0x40 MSTORE DUP1 SWAP3 SWAP2 SWAP1 DUP2 DUP2 MSTORE PUSH1 0x20 ADD DUP3 DUP1 SLOAD PUSH2 0xC90 SWAP1 PUSH2 0x1752 JUMP JUMPDEST DUP1 ISZERO PUSH2 0xCDD JUMPI DUP1 PUSH1 0x1F LT PUSH2 0xCB2 JUMPI PUSH2 0x100 DUP1 DUP4 SLOAD DIV MUL DUP4 MSTORE SWAP2 PUSH1 0x20 ADD SWAP2 PUSH2 0xCDD JUMP JUMPDEST DUP3 ADD SWAP2 SWAP1 PUSH1 0x0 MSTORE PUSH1 0x20 PUSH1 0x0 KECCAK256 SWAP1 JUMPDEST DUP2 SLOAD DUP2 MSTORE SWAP1 PUSH1 0x1 ADD SWAP1 PUSH1 0x20 ADD DUP1 DUP4 GT PUSH2 0xCC0 JUMPI DUP3 SWAP1 SUB PUSH1 0x1F AND DUP3 ADD SWAP2 JUMPDEST POP POP POP POP POP SWAP5 POP DUP4 DUP1 SLOAD PUSH2 0xCF0 SWAP1 PUSH2 0x1752 JUMP JUMPDEST DUP1 PUSH1 0x1F ADD PUSH1 0x20 DUP1 SWAP2 DIV MUL PUSH1 0x20 ADD PUSH1 0x40 MLOAD SWAP1 DUP2 ADD PUSH1 0x40 MSTORE DUP1 SWAP3 SWAP2 SWAP1 DUP2 DUP2 MSTORE PUSH1 0x20 ADD DUP3 DUP1 SLOAD PUSH2 0xD1C SWAP1 PUSH2 0x1752 JUMP JUMPDEST DUP1 ISZERO PUSH2 0xD69 JUMPI DUP1 PUSH1 0x1F LT PUSH2 0xD3E JUMPI PUSH2 0x100 DUP1 DUP4 SLOAD DIV MUL DUP4 MSTORE SWAP2 PUSH1 0x20 ADD SWAP2 PUSH2 0xD69 JUMP JUMPDEST DUP3 ADD SWAP2 SWAP1 PUSH1 0x0 MSTORE PUSH1 0x20 PUSH1 0x0 KECCAK256 SWAP1 JUMPDEST DUP2 SLOAD DUP2 MSTORE SWAP1 PUSH1 0x1 ADD SWAP1 PUSH1 0x20 ADD DUP1 DUP4 GT PUSH2 0xD4C JUMPI DUP3 SWAP1 SUB PUSH1 0x1F AND DUP3 ADD SWAP2 JUMPDEST POP POP POP POP POP SWAP4 POP DUP3 DUP1 SLOAD PUSH2 0xD7C SWAP1 PUSH2 0x1752 JUMP JUMPDEST DUP1 PUSH1 0x1F ADD PUSH1 0x20 DUP1 SWAP2 DIV MUL PUSH1 0x20 ADD PUSH1 0x40 MLOAD SWAP1 DUP2 ADD PUSH1 0x40 MSTORE DUP1 SWAP3 SWAP2 SWAP1 DUP2 DUP2 MSTORE PUSH1 0x20 ADD DUP3 DUP1 SLOAD PUSH2 0xDA8 SWAP1 PUSH2 0x1752 JUMP JUMPDEST DUP1 ISZERO PUSH2 0xDF5 JUMPI DUP1 PUSH1 0x1F LT PUSH2 0xDCA JUMPI PUSH2 0x100 DUP1 DUP4 SLOAD DIV MUL DUP4 MSTORE SWAP2 PUSH1 0x20 ADD SWAP2 PUSH2 0xDF5 JUMP JUMPDEST DUP3 ADD SWAP2 SWAP1 PUSH1 0x0 MSTORE PUSH1 0x20 PUSH1 0x0 KECCAK256 SWAP1 JUMPDEST DUP2 SLOAD DUP2 MSTORE SWAP1 PUSH1 0x1 ADD SWAP1 PUSH1 0x20 ADD DUP1 DUP4 GT PUSH2 0xDD8 JUMPI DUP3 SWAP1 SUB PUSH1 0x1F AND DUP3 ADD SWAP2 JUMPDEST POP POP POP POP POP SWAP3 POP DUP2 DUP1 SLOAD PUSH2 0xE08 SWAP1 PUSH2 0x1752 JUMP JUMPDEST DUP1 PUSH1 0x1F ADD PUSH1 0x20 DUP1 SWAP2 DIV MUL PUSH1 0x20 ADD PUSH1 0x40 MLOAD SWAP1 DUP2 ADD PUSH1 0x40 MSTORE DUP1 SWAP3 SWAP2 SWAP1 DUP2 DUP2 MSTORE PUSH1 0x20 ADD DUP3 DUP1 SLOAD PUSH2 0xE34 SWAP1 PUSH2 0x1752 JUMP JUMPDEST DUP1 ISZERO PUSH2 0xE81 JUMPI DUP1 PUSH1 0x1F LT PUSH2 0xE56 JUMPI PUSH2 0x100 DUP1 DUP4 SLOAD DIV MUL DUP4 MSTORE SWAP2 PUSH1 0x20 ADD SWAP2 PUSH2 0xE81 JUMP JUMPDEST DUP3 ADD SWAP2 SWAP1 PUSH1 0x0 MSTORE PUSH1 0x20 PUSH1 0x0 KECCAK256 SWAP1 JUMPDEST DUP2 SLOAD DUP2 MSTORE SWAP1 PUSH1 0x1 ADD SWAP1 PUSH1 0x20 ADD DUP1 DUP4 GT PUSH2 0xE64 JUMPI DUP3 SWAP1 SUB PUSH1 0x1F AND DUP3 ADD SWAP2 JUMPDEST POP POP POP POP POP SWAP2 POP DUP1 DUP1 SLOAD PUSH2 0xE94 SWAP1 PUSH2 0x1752 JUMP JUMPDEST DUP1 PUSH1 0x1F ADD PUSH1 0x20 DUP1 SWAP2 DIV MUL PUSH1 0x20 ADD PUSH1 0x40 MLOAD SWAP1 DUP2 ADD PUSH1 0x40 MSTORE DUP1 SWAP3 SWAP2 SWAP1 DUP2 DUP2 MSTORE PUSH1 0x20 ADD DUP3 DUP1 SLOAD PUSH2 0xEC0 SWAP1 PUSH2 0x1752 JUMP JUMPDEST DUP1 ISZERO PUSH2 0xF0D JUMPI DUP1 PUSH1 0x1F LT PUSH2 0xEE2 JUMPI PUSH2 0x100 DUP1 DUP4 SLOAD DIV MUL DUP4 MSTORE SWAP2 PUSH1 0x20 ADD SWAP2 PUSH2 0xF0D JUMP JUMPDEST DUP3 ADD SWAP2 SWAP1 PUSH1 0x0 MSTORE PUSH1 0x20 PUSH1 0x0 KECCAK256 SWAP1 JUMPDEST DUP2 SLOAD DUP2 MSTORE SWAP1 PUSH1 0x1 ADD SWAP1 PUSH1 0x20 ADD DUP1 DUP4 GT PUSH2 0xEF0 JUMPI DUP3 SWAP1 SUB PUSH1 0x1F AND DUP3 ADD SWAP2 JUMPDEST POP POP POP POP POP SWAP1 POP SWAP7 POP SWAP7 POP SWAP7 POP SWAP7 POP SWAP7 POP SWAP7 POP POP SWAP2 SWAP4 SWAP6 POP SWAP2 SWAP4 SWAP6 JUMP JUMPDEST PUSH1 0x0 PUSH1 0x40 MLOAD SWAP1 POP SWAP1 JUMP JUMPDEST PUSH1 0x0 DUP1 REVERT JUMPDEST PUSH1 0x0 DUP1 REVERT JUMPDEST PUSH1 0x0 PUSH20 0xFFFFFFFFFFFFFFFFFFFFFFFFFFFFFFFFFFFFFFFF DUP3 AND SWAP1 POP SWAP2 SWAP1 POP JUMP JUMPDEST PUSH1 0x0 PUSH2 0xF69 DUP3 PUSH2 0xF3E JUMP JUMPDEST SWAP1 POP SWAP2 SWAP1 POP JUMP JUMPDEST PUSH2 0xF79 DUP2 PUSH2 0xF5E JUMP JUMPDEST DUP2 EQ PUSH2 0xF84 JUMPI PUSH1 0x0 DUP1 REVERT JUMPDEST POP JUMP JUMPDEST PUSH1 0x0 DUP2 CALLDATALOAD SWAP1 POP PUSH2 0xF96 DUP2 PUSH2 0xF70 JUMP JUMPDEST SWAP3 SWAP2 POP POP JUMP JUMPDEST PUSH1 0x0 PUSH1 0x20 DUP3 DUP5 SUB SLT ISZERO PUSH2 0xFB2 JUMPI PUSH2 0xFB1 PUSH2 0xF34 JUMP JUMPDEST JUMPDEST PUSH1 0x0 PUSH2 0xFC0 DUP5 DUP3 DUP6 ADD PUSH2 0xF87 JUMP JUMPDEST SWAP2 POP POP SWAP3 SWAP2 POP POP JUMP JUMPDEST PUSH1 0x0 DUP2 MLOAD SWAP1 POP SWAP2 SWAP1 POP JUMP JUMPDEST PUSH1 0x0 DUP3 DUP3 MSTORE PUSH1 0x20 DUP3 ADD SWAP1 POP SWAP3 SWAP2 POP POP JUMP JUMPDEST PUSH1 0x0 JUMPDEST DUP4 DUP2 LT ISZERO PUSH2 0x1003 JUMPI DUP1 DUP3 ADD MLOAD DUP2 DUP5 ADD MSTORE PUSH1 0x20 DUP2 ADD SWAP1 POP PUSH2 0xFE8 JUMP JUMPDEST PUSH1 0x0 DUP5 DUP5 ADD MSTORE POP POP POP POP JUMP JUMPDEST PUSH1 0x0 PUSH1 0x1F NOT PUSH1 0x1F DUP4 ADD AND SWAP1 POP SWAP2 SWAP1 POP JUMP JUMPDEST PUSH1 0x0 PUSH2 0x102B DUP3 PUSH2 0xFC9 JUMP JUMPDEST PUSH2 0x1035 DUP2 DUP6 PUSH2 0xFD4 JUMP JUMPDEST SWAP4 POP PUSH2 0x1045 DUP2 DUP6 PUSH1 0x20 DUP7 ADD PUSH2 0xFE5 JUMP JUMPDEST PUSH2 0x104E DUP2 PUSH2 0x100F JUMP JUMPDEST DUP5 ADD SWAP2 POP POP SWAP3 SWAP2 POP POP JUMP JUMPDEST PUSH1 0x0 DUP2 ISZERO ISZERO SWAP1 POP SWAP2 SWAP1 POP JUMP JUMPDEST PUSH2 0x106E DUP2 PUSH2 0x1059 JUMP JUMPDEST DUP3 MSTORE POP POP JUMP JUMPDEST PUSH1 0x0 PUSH1 0xE0 DUP3 ADD SWAP1 POP DUP2 DUP2 SUB PUSH1 0x0 DUP4 ADD MSTORE PUSH2 0x108E DUP2 DUP11 PUSH2 0x1020 JUMP JUMPDEST SWAP1 POP DUP2 DUP2 SUB PUSH1 0x20 DUP4 ADD MSTORE PUSH2 0x10A2 DUP2 DUP10 PUSH2 0x1020 JUMP JUMPDEST SWAP1 POP DUP2 DUP2 SUB PUSH1 0x40 DUP4 ADD MSTORE PUSH2 0x10B6 DUP2 DUP9 PUSH2 0x1020 JUMP JUMPDEST SWAP1 POP DUP2 DUP2 SUB PUSH1 0x60 DUP4 ADD MSTORE PUSH2 0x10CA DUP2 DUP8 PUSH2 0x1020 JUMP JUMPDEST SWAP1 POP DUP2 DUP2 SUB PUSH1 0x80 DUP4 ADD MSTORE PUSH2 0x10DE DUP2 DUP7 PUSH2 0x1020 JUMP JUMPDEST SWAP1 POP DUP2 DUP2 SUB PUSH1 0xA0 DUP4 ADD MSTORE PUSH2 0x10F2 DUP2 DUP6 PUSH2 0x1020 JUMP JUMPDEST SWAP1 POP PUSH2 0x1101 PUSH1 0xC0 DUP4 ADD DUP5 PUSH2 0x1065 JUMP JUMPDEST SWAP9 SWAP8 POP POP POP POP POP POP POP POP JUMP JUMPDEST PUSH1 0x0 DUP2 MLOAD SWAP1 POP SWAP2 SWAP1 POP JUMP JUMPDEST PUSH1 0x0 DUP3 DUP3 MSTORE PUSH1 0x20 DUP3 ADD SWAP1 POP SWAP3 SWAP2 POP POP JUMP JUMPDEST PUSH1 0x0 DUP2 SWAP1 POP PUSH1 0x20 DUP3 ADD SWAP1 POP SWAP2 SWAP1 POP JUMP JUMPDEST PUSH2 0x1142 DUP2 PUSH2 0xF5E JUMP JUMPDEST DUP3 MSTORE POP POP JUMP JUMPDEST PUSH1 0x0 PUSH2 0x1154 DUP4 DUP4 PUSH2 0x1139 JUMP JUMPDEST PUSH1 0x20 DUP4 ADD SWAP1 POP SWAP3 SWAP2 POP POP JUMP JUMPDEST PUSH1 0x0 PUSH1 0x20 DUP3 ADD SWAP1 POP SWAP2 SWAP1 POP JUMP JUMPDEST PUSH1 0x0 PUSH2 0x1178 DUP3 PUSH2 0x110D JUMP JUMPDEST PUSH2 0x1182 DUP2 DUP6 PUSH2 0x1118 JUMP JUMPDEST SWAP4 POP PUSH2 0x118D DUP4 PUSH2 0x1129 JUMP JUMPDEST DUP1 PUSH1 0x0 JUMPDEST DUP4 DUP2 LT ISZERO PUSH2 0x11BE JUMPI DUP2 MLOAD PUSH2 0x11A5 DUP9 DUP3 PUSH2 0x1148 JUMP JUMPDEST SWAP8 POP PUSH2 0x11B0 DUP4 PUSH2 0x1160 JUMP JUMPDEST SWAP3 POP POP PUSH1 0x1 DUP2 ADD SWAP1 POP PUSH2 0x1191 JUMP JUMPDEST POP DUP6 SWAP4 POP POP POP POP SWAP3 SWAP2 POP POP JUMP JUMPDEST PUSH1 0x0 PUSH1 0x20 DUP3 ADD SWAP1 POP DUP2 DUP2 SUB PUSH1 0x0 DUP4 ADD MSTORE PUSH2 0x11E5 DUP2 DUP5 PUSH2 0x116D JUMP JUMPDEST SWAP1 POP SWAP3 SWAP2 POP POP JUMP JUMPDEST PUSH1 0x0 DUP1 REVERT JUMPDEST PUSH1 0x0 DUP1 REVERT JUMPDEST PUSH32 0x4E487B7100000000000000000000000000000000000000000000000000000000 PUSH1 0x0 MSTORE PUSH1 0x41 PUSH1 0x4 MSTORE PUSH1 0x24 PUSH1 0x0 REVERT JUMPDEST PUSH2 0x122F DUP3 PUSH2 0x100F JUMP JUMPDEST DUP2 ADD DUP2 DUP2 LT PUSH8 0xFFFFFFFFFFFFFFFF DUP3 GT OR ISZERO PUSH2 0x124E JUMPI PUSH2 0x124D PUSH2 0x11F7 JUMP JUMPDEST JUMPDEST DUP1 PUSH1 0x40 MSTORE POP POP POP JUMP JUMPDEST PUSH1 0x0 PUSH2 0x1261 PUSH2 0xF2A JUMP JUMPDEST SWAP1 POP PUSH2 0x126D DUP3 DUP3 PUSH2 0x1226 JUMP JUMPDEST SWAP2 SWAP1 POP JUMP JUMPDEST PUSH1 0x0 PUSH8 0xFFFFFFFFFFFFFFFF DUP3 GT ISZERO PUSH2 0x128D JUMPI PUSH2 0x128C PUSH2 0x11F7 JUMP JUMPDEST JUMPDEST PUSH2 0x1296 DUP3 PUSH2 0x100F JUMP JUMPDEST SWAP1 POP PUSH1 0x20 DUP2 ADD SWAP1 POP SWAP2 SWAP1 POP JUMP JUMPDEST DUP3 DUP2 DUP4 CALLDATACOPY PUSH1 0x0 DUP4 DUP4 ADD MSTORE POP POP POP JUMP JUMPDEST PUSH1 0x0 PUSH2 0x12C5 PUSH2 0x12C0 DUP5 PUSH2 0x1272 JUMP JUMPDEST PUSH2 0x1257 JUMP JUMPDEST SWAP1 POP DUP3 DUP2 MSTORE PUSH1 0x20 DUP2 ADD DUP5 DUP5 DUP5 ADD GT ISZERO PUSH2 0x12E1 JUMPI PUSH2 0x12E0 PUSH2 0x11F2 JUMP JUMPDEST JUMPDEST PUSH2 0x12EC DUP5 DUP3 DUP6 PUSH2 0x12A3 JUMP JUMPDEST POP SWAP4 SWAP3 POP POP POP JUMP JUMPDEST PUSH1 0x0 DUP3 PUSH1 0x1F DUP4 ADD SLT PUSH2 0x1309 JUMPI PUSH2 0x1308 PUSH2 0x11ED JUMP JUMPDEST JUMPDEST DUP2 CALLDATALOAD PUSH2 0x1319 DUP5 DUP3 PUSH1 0x20 DUP7 ADD PUSH2 0x12B2 JUMP JUMPDEST SWAP2 POP POP SWAP3 SWAP2 POP POP JUMP JUMPDEST PUSH1 0x0 DUP1 PUSH1 0x0 DUP1 PUSH1 0x0 DUP1 PUSH1 0xC0 DUP8 DUP10 SUB SLT ISZERO PUSH2 0x133F JUMPI PUSH2 0x133E PUSH2 0xF34 JUMP JUMPDEST JUMPDEST PUSH1 0x0 DUP8 ADD CALLDATALOAD PUSH8 0xFFFFFFFFFFFFFFFF DUP2 GT ISZERO PUSH2 0x135D JUMPI PUSH2 0x135C PUSH2 0xF39 JUMP JUMPDEST JUMPDEST PUSH2 0x1369 DUP10 DUP3 DUP11 ADD PUSH2 0x12F4 JUMP JUMPDEST SWAP7 POP POP PUSH1 0x20 DUP8 ADD CALLDATALOAD PUSH8 0xFFFFFFFFFFFFFFFF DUP2 GT ISZERO PUSH2 0x138A JUMPI PUSH2 0x1389 PUSH2 0xF39 JUMP JUMPDEST JUMPDEST PUSH2 0x1396 DUP10 DUP3 DUP11 ADD PUSH2 0x12F4 JUMP JUMPDEST SWAP6 POP POP PUSH1 0x40 DUP8 ADD CALLDATALOAD PUSH8 0xFFFFFFFFFFFFFFFF DUP2 GT ISZERO PUSH2 0x13B7 JUMPI PUSH2 0x13B6 PUSH2 0xF39 JUMP JUMPDEST JUMPDEST PUSH2 0x13C3 DUP10 DUP3 DUP11 ADD PUSH2 0x12F4 JUMP JUMPDEST SWAP5 POP POP PUSH1 0x60 DUP8 ADD CALLDATALOAD PUSH8 0xFFFFFFFFFFFFFFFF DUP2 GT ISZERO PUSH2 0x13E4 JUMPI PUSH2 0x13E3 PUSH2 0xF39 JUMP JUMPDEST JUMPDEST PUSH2 0x13F0 DUP10 DUP3 DUP11 ADD PUSH2 0x12F4 JUMP JUMPDEST SWAP4 POP POP PUSH1 0x80 DUP8 ADD CALLDATALOAD PUSH8 0xFFFFFFFFFFFFFFFF DUP2 GT ISZERO PUSH2 0x1411 JUMPI PUSH2 0x1410 PUSH2 0xF39 JUMP JUMPDEST JUMPDEST PUSH2 0x141D DUP10 DUP3 DUP11 ADD PUSH2 0x12F4 JUMP JUMPDEST SWAP3 POP POP PUSH1 0xA0 DUP8 ADD CALLDATALOAD PUSH8 0xFFFFFFFFFFFFFFFF DUP2 GT ISZERO PUSH2 0x143E JUMPI PUSH2 0x143D PUSH2 0xF39 JUMP JUMPDEST JUMPDEST PUSH2 0x144A DUP10 DUP3 DUP11 ADD PUSH2 0x12F4 JUMP JUMPDEST SWAP2 POP POP SWAP3 SWAP6 POP SWAP3 SWAP6 POP SWAP3 SWAP6 JUMP JUMPDEST PUSH1 0x0 DUP2 SWAP1 POP SWAP2 SWAP1 POP JUMP JUMPDEST PUSH2 0x146A DUP2 PUSH2 0x1457 JUMP JUMPDEST DUP3 MSTORE POP POP JUMP JUMPDEST PUSH1 0x0 PUSH1 0x20 DUP3 ADD SWAP1 POP PUSH2 0x1485 PUSH1 0x0 DUP4 ADD DUP5 PUSH2 0x1461 JUMP JUMPDEST SWAP3 SWAP2 POP POP JUMP JUMPDEST PUSH2 0x1494 DUP2 PUSH2 0x1457 JUMP JUMPDEST DUP2 EQ PUSH2 0x149F JUMPI PUSH1 0x0 DUP1 REVERT JUMPDEST POP JUMP JUMPDEST PUSH1 0x0 DUP2 CALLDATALOAD SWAP1 POP PUSH2 0x14B1 DUP2 PUSH2 0x148B JUMP JUMPDEST SWAP3 SWAP2 POP POP JUMP JUMPDEST PUSH1 0x0 PUSH1 0x20 DUP3 DUP5 SUB SLT ISZERO PUSH2 0x14CD JUMPI PUSH2 0x14CC PUSH2 0xF34 JUMP JUMPDEST JUMPDEST PUSH1 0x0 PUSH2 0x14DB DUP5 DUP3 DUP6 ADD PUSH2 0x14A2 JUMP JUMPDEST SWAP2 POP POP SWAP3 SWAP2 POP POP JUMP JUMPDEST PUSH2 0x14ED DUP2 PUSH2 0xF5E JUMP JUMPDEST DUP3 MSTORE POP POP JUMP JUMPDEST PUSH1 0x0 PUSH1 0x20 DUP3 ADD SWAP1 POP PUSH2 0x1508 PUSH1 0x0 DUP4 ADD DUP5 PUSH2 0x14E4 JUMP JUMPDEST SWAP3 SWAP2 POP POP JUMP JUMPDEST PUSH1 0x0 DUP2 MLOAD SWAP1 POP SWAP2 SWAP1 POP JUMP JUMPDEST PUSH1 0x0 DUP3 DUP3 MSTORE PUSH1 0x20 DUP3 ADD SWAP1 POP SWAP3 SWAP2 POP POP JUMP JUMPDEST PUSH1 0x0 DUP2 SWAP1 POP PUSH1 0x20 DUP3 ADD SWAP1 POP SWAP2 SWAP1 POP JUMP JUMPDEST PUSH1 0x0 DUP3 DUP3 MSTORE PUSH1 0x20 DUP3 ADD SWAP1 POP SWAP3 SWAP2 POP POP JUMP JUMPDEST PUSH1 0x0 PUSH2 0x1556 DUP3 PUSH2 0xFC9 JUMP JUMPDEST PUSH2 0x1560 DUP2 DUP6 PUSH2 0x153A JUMP JUMPDEST SWAP4 POP PUSH2 0x1570 DUP2 DUP6 PUSH1 0x20 DUP7 ADD PUSH2 0xFE5 JUMP JUMPDEST PUSH2 0x1579 DUP2 PUSH2 0x100F JUMP JUMPDEST DUP5 ADD SWAP2 POP POP SWAP3 SWAP2 POP POP JUMP JUMPDEST PUSH1 0x0 PUSH2 0x1590 DUP4 DUP4 PUSH2 0x154B JUMP JUMPDEST SWAP1 POP SWAP3 SWAP2 POP POP JUMP JUMPDEST PUSH1 0x0 PUSH1 0x20 DUP3 ADD SWAP1 POP SWAP2 SWAP1 POP JUMP JUMPDEST PUSH1 0x0 PUSH2 0x15B0 DUP3 PUSH2 0x150E JUMP JUMPDEST PUSH2 0x15BA DUP2 DUP6 PUSH2 0x1519 JUMP JUMPDEST SWAP4 POP DUP4 PUSH1 0x20 DUP3 MUL DUP6 ADD PUSH2 0x15CC DUP6 PUSH2 0x152A JUMP JUMPDEST DUP1 PUSH1 0x0 JUMPDEST DUP6 DUP2 LT ISZERO PUSH2 0x1608 JUMPI DUP5 DUP5 SUB DUP10 MSTORE DUP2 MLOAD PUSH2 0x15E9 DUP6 DUP3 PUSH2 0x1584 JUMP JUMPDEST SWAP5 POP PUSH2 0x15F4 DUP4 PUSH2 0x1598 JUMP JUMPDEST SWAP3 POP PUSH1 0x20 DUP11 ADD SWAP10 POP POP PUSH1 0x1 DUP2 ADD SWAP1 POP PUSH2 0x15D0 JUMP JUMPDEST POP DUP3 SWAP8 POP DUP8 SWAP6 POP POP POP POP POP POP SWAP3 SWAP2 POP POP JUMP JUMPDEST PUSH1 0x0 PUSH1 0x20 DUP3 ADD SWAP1 POP DUP2 DUP2 SUB PUSH1 0x0 DUP4 ADD MSTORE PUSH2 0x1634 DUP2 DUP5 PUSH2 0x15A5 JUMP JUMPDEST SWAP1 POP SWAP3 SWAP2 POP POP JUMP JUMPDEST PUSH1 0x0 DUP1 PUSH1 0x40 DUP4 DUP6 SUB SLT ISZERO PUSH2 0x1653 JUMPI PUSH2 0x1652 PUSH2 0xF34 JUMP JUMPDEST JUMPDEST PUSH1 0x0 PUSH2 0x1661 DUP6 DUP3 DUP7 ADD PUSH2 0xF87 JUMP JUMPDEST SWAP3 POP POP PUSH1 0x20 DUP4 ADD CALLDATALOAD PUSH8 0xFFFFFFFFFFFFFFFF DUP2 GT ISZERO PUSH2 0x1682 JUMPI PUSH2 0x1681 PUSH2 0xF39 JUMP JUMPDEST JUMPDEST PUSH2 0x168E DUP6 DUP3 DUP7 ADD PUSH2 0x12F4 JUMP JUMPDEST SWAP2 POP POP SWAP3 POP SWAP3 SWAP1 POP JUMP JUMPDEST PUSH1 0x0 PUSH1 0xC0 DUP3 ADD SWAP1 POP DUP2 DUP2 SUB PUSH1 0x0 DUP4 ADD MSTORE PUSH2 0x16B2 DUP2 DUP10 PUSH2 0x1020 JUMP JUMPDEST SWAP1 POP DUP2 DUP2 SUB PUSH1 0x20 DUP4 ADD MSTORE PUSH2 0x16C6 DUP2 DUP9 PUSH2 0x1020 JUMP JUMPDEST SWAP1 POP DUP2 DUP2 SUB PUSH1 0x40 DUP4 ADD MSTORE PUSH2 0x16DA DUP2 DUP8 PUSH2 0x1020 JUMP JUMPDEST SWAP1 POP DUP2 DUP2 SUB PUSH1 0x60 DUP4 ADD MSTORE PUSH2 0x16EE DUP2 DUP7 PUSH2 0x1020 JUMP JUMPDEST SWAP1 POP DUP2 DUP2 SUB PUSH1 0x80 DUP4 ADD MSTORE PUSH2 0x1702 DUP2 DUP6 PUSH2 0x1020 JUMP JUMPDEST SWAP1 POP DUP2 DUP2 SUB PUSH1 0xA0 DUP4 ADD MSTORE PUSH2 0x1716 DUP2 DUP5 PUSH2 0x1020 JUMP JUMPDEST SWAP1 POP SWAP8 SWAP7 POP POP POP POP POP POP POP JUMP JUMPDEST PUSH32 0x4E487B7100000000000000000000000000000000000000000000000000000000 PUSH1 0x0 MSTORE PUSH1 0x22 PUSH1 0x4 MSTORE PUSH1 0x24 PUSH1 0x0 REVERT JUMPDEST PUSH1 0x0 PUSH1 0x2 DUP3 DIV SWAP1 POP PUSH1 0x1 DUP3 AND DUP1 PUSH2 0x176A JUMPI PUSH1 0x7F DUP3 AND SWAP2 POP JUMPDEST PUSH1 0x20 DUP3 LT DUP2 SUB PUSH2 0x177D JUMPI PUSH2 0x177C PUSH2 0x1723 JUMP JUMPDEST JUMPDEST POP SWAP2 SWAP1 POP JUMP JUMPDEST PUSH32 0x416C726561647920726567697374657265640000000000000000000000000000 PUSH1 0x0 DUP3 ADD MSTORE POP JUMP JUMPDEST PUSH1 0x0 PUSH2 0x17B9 PUSH1 0x12 DUP4 PUSH2 0xFD4 JUMP JUMPDEST SWAP2 POP PUSH2 0x17C4 DUP3 PUSH2 0x1783 JUMP JUMPDEST PUSH1 0x20 DUP3 ADD SWAP1 POP SWAP2 SWAP1 POP JUMP JUMPDEST PUSH1 0x0 PUSH1 0x20 DUP3 ADD SWAP1 POP DUP2 DUP2 SUB PUSH1 0x0 DUP4 ADD MSTORE PUSH2 0x17E8 DUP2 PUSH2 0x17AC JUMP JUMPDEST SWAP1 POP SWAP2 SWAP1 POP JUMP JUMPDEST PUSH1 0x0 DUP2 SWAP1 POP DUP2 PUSH1 0x0 MSTORE PUSH1 0x20 PUSH1 0x0 KECCAK256 SWAP1 POP SWAP2 SWAP1 POP JUMP JUMPDEST PUSH1 0x0 PUSH1 0x20 PUSH1 0x1F DUP4 ADD DIV SWAP1 POP SWAP2 SWAP1 POP JUMP JUMPDEST PUSH1 0x0 DUP3 DUP3 SHL SWAP1 POP SWAP3 SWAP2 POP POP JUMP JUMPDEST PUSH1 0x0 PUSH1 0x8 DUP4 MUL PUSH2 0x1851 PUSH32 0xFFFFFFFFFFFFFFFFFFFFFFFFFFFFFFFFFFFFFFFFFFFFFFFFFFFFFFFFFFFFFFFF DUP3 PUSH2 0x1814 JUMP JUMPDEST PUSH2 0x185B DUP7 DUP4 PUSH2 0x1814 JUMP JUMPDEST SWAP6 POP DUP1 NOT DUP5 AND SWAP4 POP DUP1 DUP7 AND DUP5 OR SWAP3 POP POP POP SWAP4 SWAP3 POP POP POP JUMP JUMPDEST PUSH1 0x0 DUP2 SWAP1 POP SWAP2 SWAP1 POP JUMP JUMPDEST PUSH1 0x0 PUSH2 0x1898 PUSH2 0x1893 PUSH2 0x188E DUP5 PUSH2 0x1457 JUMP JUMPDEST PUSH2 0x1873 JUMP JUMPDEST PUSH2 0x1457 JUMP JUMPDEST SWAP1 POP SWAP2 SWAP1 POP JUMP JUMPDEST PUSH1 0x0 DUP2 SWAP1 POP SWAP2 SWAP1 POP JUMP JUMPDEST PUSH2 0x18B2 DUP4 PUSH2 0x187D JUMP JUMPDEST PUSH2 0x18C6 PUSH2 0x18BE DUP3 PUSH2 0x189F JUMP JUMPDEST DUP5 DUP5 SLOAD PUSH2 0x1821 JUMP JUMPDEST DUP3 SSTORE POP POP POP POP JUMP JUMPDEST PUSH1 0x0 SWAP1 JUMP JUMPDEST PUSH2 0x18DB PUSH2 0x18CE JUMP JUMPDEST PUSH2 0x18E6 DUP2 DUP5 DUP5 PUSH2 0x18A9 JUMP JUMPDEST POP POP POP JUMP JUMPDEST JUMPDEST DUP2 DUP2 LT ISZERO PUSH2 0x190A JUMPI PUSH2 0x18FF PUSH1 0x0 DUP3 PUSH2 0x18D3 JUMP JUMPDEST PUSH1 0x1 DUP2 ADD SWAP1 POP PUSH2 0x18EC JUMP JUMPDEST POP POP JUMP JUMPDEST PUSH1 0x1F DUP3 GT ISZERO PUSH2 0x194F JUMPI PUSH2 0x1920 DUP2 PUSH2 0x17EF JUMP JUMPDEST PUSH2 0x1929 DUP5 PUSH2 0x1804 JUMP JUMPDEST DUP2 ADD PUSH1 0x20 DUP6 LT ISZERO PUSH2 0x1938 JUMPI DUP2 SWAP1 POP JUMPDEST PUSH2 0x194C PUSH2 0x1944 DUP6 PUSH2 0x1804 JUMP JUMPDEST DUP4 ADD DUP3 PUSH2 0x18EB JUMP JUMPDEST POP POP JUMPDEST POP POP POP JUMP JUMPDEST PUSH1 0x0 DUP3 DUP3 SHR SWAP1 POP SWAP3 SWAP2 POP POP JUMP JUMPDEST PUSH1 0x0 PUSH2 0x1972 PUSH1 0x0 NOT DUP5 PUSH1 0x8 MUL PUSH2 0x1954 JUMP JUMPDEST NOT DUP1 DUP4 AND SWAP2 POP POP SWAP3 SWAP2 POP POP JUMP JUMPDEST PUSH1 0x0 PUSH2 0x198B DUP4 DUP4 PUSH2 0x1961 JUMP JUMPDEST SWAP2 POP DUP3 PUSH1 0x2 MUL DUP3 OR SWAP1 POP SWAP3 SWAP2 POP POP JUMP JUMPDEST PUSH2 0x19A4 DUP3 PUSH2 0xFC9 JUMP JUMPDEST PUSH8 0xFFFFFFFFFFFFFFFF DUP2 GT ISZERO PUSH2 0x19BD JUMPI PUSH2 0x19BC PUSH2 0x11F7 JUMP JUMPDEST JUMPDEST PUSH2 0x19C7 DUP3 SLOAD PUSH2 0x1752 JUMP JUMPDEST PUSH2 0x19D2 DUP3 DUP3 DUP6 PUSH2 0x190E JUMP JUMPDEST PUSH1 0x0 PUSH1 0x20 SWAP1 POP PUSH1 0x1F DUP4 GT PUSH1 0x1 DUP2 EQ PUSH2 0x1A05 JUMPI PUSH1 0x0 DUP5 ISZERO PUSH2 0x19F3 JUMPI DUP3 DUP8 ADD MLOAD SWAP1 POP JUMPDEST PUSH2 0x19FD DUP6 DUP3 PUSH2 0x197F JUMP JUMPDEST DUP7 SSTORE POP PUSH2 0x1A65 JUMP JUMPDEST PUSH1 0x1F NOT DUP5 AND PUSH2 0x1A13 DUP7 PUSH2 0x17EF JUMP JUMPDEST PUSH1 0x0 JUMPDEST DUP3 DUP2 LT ISZERO PUSH2 0x1A3B JUMPI DUP5 DUP10 ADD MLOAD DUP3 SSTORE PUSH1 0x1 DUP3 ADD SWAP2 POP PUSH1 0x20 DUP6 ADD SWAP5 POP PUSH1 0x20 DUP2 ADD SWAP1 POP PUSH2 0x1A16 JUMP JUMPDEST DUP7 DUP4 LT ISZERO PUSH2 0x1A58 JUMPI DUP5 DUP10 ADD MLOAD PUSH2 0x1A54 PUSH1 0x1F DUP10 AND DUP3 PUSH2 0x1961 JUMP JUMPDEST DUP4 SSTORE POP JUMPDEST PUSH1 0x1 PUSH1 0x2 DUP9 MUL ADD DUP9 SSTORE POP POP POP JUMPDEST POP POP POP POP POP POP JUMP JUMPDEST PUSH32 0x4E487B7100000000000000000000000000000000000000000000000000000000 PUSH1 0x0 MSTORE PUSH1 0x11 PUSH1 0x4 MSTORE PUSH1 0x24 PUSH1 0x0 REVERT JUMPDEST PUSH1 0x0 PUSH2 0x1AA7 DUP3 PUSH2 0x1457 JUMP JUMPDEST SWAP2 POP PUSH32 0xFFFFFFFFFFFFFFFFFFFFFFFFFFFFFFFFFFFFFFFFFFFFFFFFFFFFFFFFFFFFFFFF DUP3 SUB PUSH2 0x1AD9 JUMPI PUSH2 0x1AD8 PUSH2 0x1A6D JUMP JUMPDEST JUMPDEST PUSH1 0x1 DUP3 ADD SWAP1 POP SWAP2 SWAP1 POP JUMP JUMPDEST PUSH1 0x0 PUSH1 0x20 DUP3 ADD SWAP1 POP DUP2 DUP2 SUB PUSH1 0x0 DUP4 ADD MSTORE PUSH2 0x1AFE DUP2 DUP5 PUSH2 0x1020 JUMP JUMPDEST SWAP1 POP SWAP3 SWAP2 POP POP JUMP JUMPDEST PUSH32 0x4E6F742072656769737465726564000000000000000000000000000000000000 PUSH1 0x0 DUP3 ADD MSTORE POP JUMP JUMPDEST PUSH1 0x0 PUSH2 0x1B3C PUSH1 0xE DUP4 PUSH2 0xFD4 JUMP JUMPDEST SWAP2 POP PUSH2 0x1B47 DUP3 PUSH2 0x1B06 JUMP JUMPDEST PUSH1 0x20 DUP3 ADD SWAP1 POP SWAP2 SWAP1 POP JUMP JUMPDEST PUSH1 0x0 PUSH1 0x20 DUP3 ADD SWAP1 POP DUP2 DUP2 SUB PUSH1 0x0 DUP4 ADD MSTORE PUSH2 0x1B6B DUP2 PUSH2 0x1B2F JUMP JUMPDEST SWAP1 POP SWAP2 SWAP1 POP JUMP INVALID LOG2 PUSH5 0x6970667358 0x22 SLT KECCAK256 EOFCREATE 0x14 0xB3 STOP 0xA8 SWAP14 0xA9 RETF 0xD5 0xB9 0xA7 PUSH25 0x18774F0C19207FBA80E73289533FC54D834AF32B64736F6C63 NUMBER STOP ADDMOD 0x1E STOP CALLER "
				},
				"gasEstimates": {
					"creation": {
						"codeDepositCost": "1416000",
						"executionCost": "1479",
						"totalCost": "1417479"
					},
					"external": {
						"addFileToPatient(address,string)": "infinite",
						"getAllRegisteredPatients()": "infinite",
						"getPatientDetails(address)": "infinite",
						"getPatientFiles(address)": "infinite",
						"getTotalPatientsCount()": "2503",
						"getTotalRecordsCount()": "2526",
						"patients(address)": "infinite",
						"registerPatient(string,string,string,string,string,string)": "infinite",
						"registeredPatientAddresses(uint256)": "4956",
						"totalFileRecords()": "2496",
						"totalPatients()": "2473"
					}
				},
				"methodIdentifiers": {
					"addFileToPatient(address,string)": "edefcf88",
					"getAllRegisteredPatients()": "413f107a",
					"getPatientDetails(address)": "efe2ccc1",
					"getPatientFiles(address)": "c1816dfb",
					"getTotalPatientsCount()": "ed3a2634",
					"getTotalRecordsCount()": "9a96fcc1",
					"patients(address)": "0869cfbc",
					"registerPatient(string,string,string,string,string,string)": "6d26dce8",
					"registeredPatientAddresses(uint256)": "a2143b3c",
					"totalFileRecords()": "8f768649",
					"totalPatients()": "deb5ef09"
				}
			},
			"storageLayout": {
				"storage": [
					{
						"astId": 3,
						"contract": "contracts/PatientRegistry.sol:PatientRegistry",
						"label": "totalPatients",
						"offset": 0,
						"slot": "0",
						"type": "t_uint256"
					},
					{
						"astId": 5,
						"contract": "contracts/PatientRegistry.sol:PatientRegistry",
						"label": "totalFileRecords",
						"offset": 0,
						"slot": "1",
						"type": "t_uint256"
					},
					{
						"astId": 28,
						"contract": "contracts/PatientRegistry.sol:PatientRegistry",
						"label": "patients",
						"offset": 0,
						"slot": "2",
						"type": "t_mapping(t_address,t_struct(Patient)23_storage)"
					},
					{
						"astId": 31,
						"contract": "contracts/PatientRegistry.sol:PatientRegistry",
						"label": "registeredPatientAddresses",
						"offset": 0,
						"slot": "3",
						"type": "t_array(t_address)dyn_storage"
					}
				],
				"types": {
					"t_address": {
						"encoding": "inplace",
						"label": "address",
						"numberOfBytes": "20"
					},
					"t_array(t_address)dyn_storage": {
						"base": "t_address",
						"encoding": "dynamic_array",
						"label": "address[]",
						"numberOfBytes": "32"
					},
					"t_array(t_string_storage)dyn_storage": {
						"base": "t_string_storage",
						"encoding": "dynamic_array",
						"label": "string[]",
						"numberOfBytes": "32"
					},
					"t_bool": {
						"encoding": "inplace",
						"label": "bool",
						"numberOfBytes": "1"
					},
					"t_mapping(t_address,t_struct(Patient)23_storage)": {
						"encoding": "mapping",
						"key": "t_address",
						"label": "mapping(address => struct PatientRegistry.Patient)",
						"numberOfBytes": "32",
						"value": "t_struct(Patient)23_storage"
					},
					"t_string_storage": {
						"encoding": "bytes",
						"label": "string",
						"numberOfBytes": "32"
					},
					"t_struct(Patient)23_storage": {
						"encoding": "inplace",
						"label": "struct PatientRegistry.Patient",
						"members": [
							{
								"astId": 7,
								"contract": "contracts/PatientRegistry.sol:PatientRegistry",
								"label": "name",
								"offset": 0,
								"slot": "0",
								"type": "t_string_storage"
							},
							{
								"astId": 9,
								"contract": "contracts/PatientRegistry.sol:PatientRegistry",
								"label": "gender",
								"offset": 0,
								"slot": "1",
								"type": "t_string_storage"
							},
							{
								"astId": 11,
								"contract": "contracts/PatientRegistry.sol:PatientRegistry",
								"label": "dateOfBirth",
								"offset": 0,
								"slot": "2",
								"type": "t_string_storage"
							},
							{
								"astId": 13,
								"contract": "contracts/PatientRegistry.sol:PatientRegistry",
								"label": "bloodGroup",
								"offset": 0,
								"slot": "3",
								"type": "t_string_storage"
							},
							{
								"astId": 15,
								"contract": "contracts/PatientRegistry.sol:PatientRegistry",
								"label": "contactInfo",
								"offset": 0,
								"slot": "4",
								"type": "t_string_storage"
							},
							{
								"astId": 17,
								"contract": "contracts/PatientRegistry.sol:PatientRegistry",
								"label": "homeAddress",
								"offset": 0,
								"slot": "5",
								"type": "t_string_storage"
							},
							{
								"astId": 19,
								"contract": "contracts/PatientRegistry.sol:PatientRegistry",
								"label": "isRegistered",
								"offset": 0,
								"slot": "6",
								"type": "t_bool"
							},
							{
								"astId": 22,
								"contract": "contracts/PatientRegistry.sol:PatientRegistry",
								"label": "fileHashes",
								"offset": 0,
								"slot": "7",
								"type": "t_array(t_string_storage)dyn_storage"
							}
						],
						"numberOfBytes": "256"
					},
					"t_uint256": {
						"encoding": "inplace",
						"label": "uint256",
						"numberOfBytes": "32"
					}
				}
			},
			"userdoc": {
				"kind": "user",
				"methods": {},
				"version": 1
			}
		}
	}
}